{
  "contractName": "RekamMedis",
  "abi": [
    {
      "inputs": [],
      "stateMutability": "nonpayable",
      "type": "constructor"
    },
    {
      "anonymous": false,
      "inputs": [
        {
          "indexed": false,
          "internalType": "address",
          "name": "newAdmin",
          "type": "address"
        }
      ],
      "name": "AdminDitetapkan",
      "type": "event"
    },
    {
      "anonymous": false,
      "inputs": [
        {
          "indexed": false,
          "internalType": "address",
          "name": "dokter",
          "type": "address"
        },
        {
          "indexed": false,
          "internalType": "bool",
          "name": "aktif",
          "type": "bool"
        }
      ],
      "name": "DokterStatusDiubah",
      "type": "event"
    },
    {
      "anonymous": false,
      "inputs": [
        {
          "indexed": false,
          "internalType": "address",
          "name": "dokter",
          "type": "address"
        },
        {
          "indexed": false,
          "internalType": "string",
          "name": "nama",
          "type": "string"
        },
        {
          "indexed": false,
          "internalType": "string",
          "name": "spesialisasi",
          "type": "string"
        },
        {
          "indexed": false,
          "internalType": "string",
          "name": "nomorLisensi",
          "type": "string"
        }
      ],
      "name": "DokterTerdaftar",
      "type": "event"
    },
    {
      "anonymous": false,
      "inputs": [
        {
          "indexed": false,
          "internalType": "address",
          "name": "dokter",
          "type": "address"
        },
        {
          "indexed": false,
          "internalType": "address",
          "name": "pasien",
          "type": "address"
        }
      ],
      "name": "PasienDiassignKeDokter",
      "type": "event"
    },
    {
      "anonymous": false,
      "inputs": [
        {
          "indexed": false,
          "internalType": "address",
          "name": "pasien",
          "type": "address"
        },
        {
          "indexed": false,
          "internalType": "string",
          "name": "nama",
          "type": "string"
        }
      ],
      "name": "PasienTerdaftar",
      "type": "event"
    },
    {
      "anonymous": false,
      "inputs": [
        {
          "indexed": false,
          "internalType": "uint256",
          "name": "id",
          "type": "uint256"
        },
        {
          "indexed": false,
          "internalType": "string",
          "name": "diagnosa",
          "type": "string"
        },
        {
          "indexed": false,
          "internalType": "string",
          "name": "catatan",
          "type": "string"
        }
      ],
      "name": "RekamMedisDiperbarui",
      "type": "event"
    },
    {
      "anonymous": false,
      "inputs": [
        {
          "indexed": false,
          "internalType": "uint256",
          "name": "id",
          "type": "uint256"
        },
        {
          "indexed": false,
          "internalType": "address",
          "name": "pasien",
          "type": "address"
        },
        {
          "indexed": false,
          "internalType": "string",
          "name": "diagnosa",
          "type": "string"
        },
        {
          "indexed": false,
          "internalType": "bool",
          "name": "valid",
          "type": "bool"
        }
      ],
      "name": "RekamMedisDitambahkan",
      "type": "event"
    },
    {
      "inputs": [],
      "name": "admin",
      "outputs": [
        {
          "internalType": "address",
          "name": "",
          "type": "address"
        }
      ],
      "stateMutability": "view",
      "type": "function",
      "constant": true
    },
    {
      "inputs": [
        {
          "internalType": "uint256",
          "name": "",
          "type": "uint256"
        }
      ],
      "name": "daftarDokter",
      "outputs": [
        {
          "internalType": "address",
          "name": "",
          "type": "address"
        }
      ],
      "stateMutability": "view",
      "type": "function",
      "constant": true
    },
    {
      "inputs": [
        {
          "internalType": "uint256",
          "name": "",
          "type": "uint256"
        }
      ],
      "name": "daftarPasien",
      "outputs": [
        {
          "internalType": "address",
          "name": "",
          "type": "address"
        }
      ],
      "stateMutability": "view",
      "type": "function",
      "constant": true
    },
    {
      "inputs": [
        {
          "internalType": "address",
          "name": "",
          "type": "address"
        }
      ],
      "name": "dataDokter",
      "outputs": [
        {
          "internalType": "string",
          "name": "nama",
          "type": "string"
        },
        {
          "internalType": "string",
          "name": "spesialisasi",
          "type": "string"
        },
        {
          "internalType": "string",
          "name": "nomorLisensi",
          "type": "string"
        },
        {
          "internalType": "bool",
          "name": "aktif",
          "type": "bool"
        }
      ],
      "stateMutability": "view",
      "type": "function",
      "constant": true
    },
    {
      "inputs": [
        {
          "internalType": "address",
          "name": "",
          "type": "address"
        }
      ],
      "name": "dataPasien",
      "outputs": [
        {
          "internalType": "string",
          "name": "nama",
          "type": "string"
        },
        {
          "internalType": "uint256",
          "name": "umur",
          "type": "uint256"
        },
        {
          "internalType": "string",
          "name": "golonganDarah",
          "type": "string"
        },
        {
          "internalType": "string",
          "name": "tanggalLahir",
          "type": "string"
        },
        {
          "internalType": "string",
          "name": "gender",
          "type": "string"
        },
        {
          "internalType": "string",
          "name": "alamat",
          "type": "string"
        },
        {
          "internalType": "string",
          "name": "noTelepon",
          "type": "string"
        },
        {
          "internalType": "string",
          "name": "email",
          "type": "string"
        },
        {
          "internalType": "bool",
          "name": "exists",
          "type": "bool"
        }
      ],
      "stateMutability": "view",
      "type": "function",
      "constant": true
    },
    {
      "inputs": [
        {
          "internalType": "address",
          "name": "",
          "type": "address"
        }
      ],
      "name": "isDokter",
      "outputs": [
        {
          "internalType": "bool",
          "name": "",
          "type": "bool"
        }
      ],
      "stateMutability": "view",
      "type": "function",
      "constant": true
    },
    {
      "inputs": [
        {
          "internalType": "address",
          "name": "",
          "type": "address"
        }
      ],
      "name": "isPasien",
      "outputs": [
        {
          "internalType": "bool",
          "name": "",
          "type": "bool"
        }
      ],
      "stateMutability": "view",
      "type": "function",
      "constant": true
    },
    {
      "inputs": [
        {
          "internalType": "uint256",
          "name": "",
          "type": "uint256"
        }
      ],
      "name": "rekamMedis",
      "outputs": [
        {
          "internalType": "uint256",
          "name": "id",
          "type": "uint256"
        },
        {
          "internalType": "address",
          "name": "pasien",
          "type": "address"
        },
        {
          "internalType": "string",
          "name": "diagnosa",
          "type": "string"
        },
        {
          "internalType": "string",
          "name": "foto",
          "type": "string"
        },
        {
          "internalType": "string",
          "name": "catatan",
          "type": "string"
        },
        {
          "internalType": "bool",
          "name": "valid",
          "type": "bool"
        }
      ],
      "stateMutability": "view",
      "type": "function",
      "constant": true
    },
    {
      "inputs": [
        {
          "internalType": "address",
          "name": "",
          "type": "address"
        },
        {
          "internalType": "uint256",
          "name": "",
          "type": "uint256"
        }
      ],
      "name": "rekamMedisByPasien",
      "outputs": [
        {
          "internalType": "uint256",
          "name": "",
          "type": "uint256"
        }
      ],
      "stateMutability": "view",
      "type": "function",
      "constant": true
    },
    {
      "inputs": [],
      "name": "rekamMedisCount",
      "outputs": [
        {
          "internalType": "uint256",
          "name": "",
          "type": "uint256"
        }
      ],
      "stateMutability": "view",
      "type": "function",
      "constant": true
    },
    {
      "inputs": [
        {
          "internalType": "uint256",
          "name": "",
          "type": "uint256"
        },
        {
          "internalType": "uint256",
          "name": "",
          "type": "uint256"
        }
      ],
      "name": "rekamMedisVersions",
      "outputs": [
        {
          "internalType": "uint256",
          "name": "id",
          "type": "uint256"
        },
        {
          "internalType": "address",
          "name": "pasien",
          "type": "address"
        },
        {
          "internalType": "string",
          "name": "diagnosa",
          "type": "string"
        },
        {
          "internalType": "string",
          "name": "foto",
          "type": "string"
        },
        {
          "internalType": "string",
          "name": "catatan",
          "type": "string"
        },
        {
          "internalType": "bool",
          "name": "valid",
          "type": "bool"
        }
      ],
      "stateMutability": "view",
      "type": "function",
      "constant": true
    },
    {
      "inputs": [
        {
          "internalType": "address",
          "name": "_user",
          "type": "address"
        }
      ],
      "name": "getUserRole",
      "outputs": [
        {
          "internalType": "string",
          "name": "",
          "type": "string"
        }
      ],
      "stateMutability": "view",
      "type": "function",
      "constant": true
    },
    {
      "inputs": [
        {
          "internalType": "address",
          "name": "_dokter",
          "type": "address"
        },
        {
          "internalType": "string",
          "name": "_nama",
          "type": "string"
        },
        {
          "internalType": "string",
          "name": "_spesialisasi",
          "type": "string"
        },
        {
          "internalType": "string",
          "name": "_nomorLisensi",
          "type": "string"
        }
      ],
      "name": "registerDokter",
      "outputs": [],
      "stateMutability": "nonpayable",
      "type": "function"
    },
    {
      "inputs": [],
      "name": "totalDokter",
      "outputs": [
        {
          "internalType": "uint256",
          "name": "",
          "type": "uint256"
        }
      ],
      "stateMutability": "view",
      "type": "function",
      "constant": true
    },
    {
      "inputs": [
        {
          "internalType": "uint256",
          "name": "idx",
          "type": "uint256"
        }
      ],
      "name": "getDokterByIndex",
      "outputs": [
        {
          "internalType": "address",
          "name": "",
          "type": "address"
        }
      ],
      "stateMutability": "view",
      "type": "function",
      "constant": true
    },
    {
      "inputs": [
        {
          "internalType": "address",
          "name": "_dokter",
          "type": "address"
        },
        {
          "internalType": "bool",
          "name": "_aktif",
          "type": "bool"
        }
      ],
      "name": "setStatusDokter",
      "outputs": [],
      "stateMutability": "nonpayable",
      "type": "function"
    },
    {
      "inputs": [
        {
          "internalType": "address",
          "name": "_dokter",
          "type": "address"
        },
        {
          "internalType": "string",
          "name": "_nama",
          "type": "string"
        },
        {
          "internalType": "string",
          "name": "_spesialisasi",
          "type": "string"
        },
        {
          "internalType": "string",
          "name": "_nomorLisensi",
          "type": "string"
        }
      ],
      "name": "updateDataDokter",
      "outputs": [],
      "stateMutability": "nonpayable",
      "type": "function"
    },
    {
      "inputs": [
        {
          "internalType": "address",
          "name": "_dokter",
          "type": "address"
        }
      ],
      "name": "getDokter",
      "outputs": [
        {
          "internalType": "string",
          "name": "nama",
          "type": "string"
        },
        {
          "internalType": "string",
          "name": "spesialisasi",
          "type": "string"
        },
        {
          "internalType": "string",
          "name": "nomorLisensi",
          "type": "string"
        },
        {
          "internalType": "bool",
          "name": "aktif",
          "type": "bool"
        },
        {
          "internalType": "address[]",
          "name": "pasienList",
          "type": "address[]"
        }
      ],
      "stateMutability": "view",
      "type": "function",
      "constant": true
    },
    {
      "inputs": [
        {
          "internalType": "address",
          "name": "_pasien",
          "type": "address"
        },
        {
          "internalType": "string",
          "name": "_nama",
          "type": "string"
        }
      ],
      "name": "registerPasien",
      "outputs": [],
      "stateMutability": "nonpayable",
      "type": "function"
    },
    {
      "inputs": [
        {
          "internalType": "string",
          "name": "_nama",
          "type": "string"
        },
        {
          "internalType": "uint256",
          "name": "_umur",
          "type": "uint256"
        },
        {
          "internalType": "string",
          "name": "_golonganDarah",
          "type": "string"
        },
        {
          "internalType": "string",
          "name": "_tanggalLahir",
          "type": "string"
        },
        {
          "internalType": "string",
          "name": "_gender",
          "type": "string"
        },
        {
          "internalType": "string",
          "name": "_alamat",
          "type": "string"
        },
        {
          "internalType": "string",
          "name": "_noTelepon",
          "type": "string"
        },
        {
          "internalType": "string",
          "name": "_email",
          "type": "string"
        }
      ],
      "name": "selfRegisterPasien",
      "outputs": [],
      "stateMutability": "nonpayable",
      "type": "function"
    },
    {
      "inputs": [],
      "name": "getDaftarPasien",
      "outputs": [
        {
          "internalType": "address[]",
          "name": "",
          "type": "address[]"
        }
      ],
      "stateMutability": "view",
      "type": "function",
      "constant": true
    },
    {
      "inputs": [
        {
          "internalType": "address",
          "name": "_pasien",
          "type": "address"
        }
      ],
      "name": "getPasienData",
      "outputs": [
        {
          "internalType": "string",
          "name": "nama",
          "type": "string"
        },
        {
          "internalType": "uint256",
          "name": "umur",
          "type": "uint256"
        },
        {
          "internalType": "string",
          "name": "golonganDarah",
          "type": "string"
        },
        {
          "internalType": "string",
          "name": "tanggalLahir",
          "type": "string"
        },
        {
          "internalType": "string",
          "name": "gender",
          "type": "string"
        },
        {
          "internalType": "string",
          "name": "alamat",
          "type": "string"
        },
        {
          "internalType": "string",
          "name": "noTelepon",
          "type": "string"
        },
        {
          "internalType": "string",
          "name": "email",
          "type": "string"
        }
      ],
      "stateMutability": "view",
      "type": "function",
      "constant": true
    },
    {
      "inputs": [
        {
          "internalType": "address",
          "name": "_dokter",
          "type": "address"
        },
        {
          "internalType": "address",
          "name": "_pasien",
          "type": "address"
        }
      ],
      "name": "assignPasienToDokter",
      "outputs": [],
      "stateMutability": "nonpayable",
      "type": "function"
    },
    {
      "inputs": [
        {
          "internalType": "address",
          "name": "_dokter",
          "type": "address"
        }
      ],
      "name": "getAssignedPasienByDokter",
      "outputs": [
        {
          "internalType": "address[]",
          "name": "",
          "type": "address[]"
        }
      ],
      "stateMutability": "view",
      "type": "function",
      "constant": true
    },
    {
      "inputs": [
        {
          "internalType": "address",
          "name": "_pasien",
          "type": "address"
        },
        {
          "internalType": "string",
          "name": "_diagnosa",
          "type": "string"
        },
        {
          "internalType": "string",
          "name": "_foto",
          "type": "string"
        },
        {
          "internalType": "string",
          "name": "_catatan",
          "type": "string"
        }
      ],
      "name": "tambahRekamMedis",
      "outputs": [],
      "stateMutability": "nonpayable",
      "type": "function"
    },
    {
      "inputs": [
        {
          "internalType": "uint256",
          "name": "_id",
          "type": "uint256"
        },
        {
          "internalType": "string",
          "name": "_diagnosa",
          "type": "string"
        },
        {
          "internalType": "string",
          "name": "_foto",
          "type": "string"
        },
        {
          "internalType": "string",
          "name": "_catatan",
          "type": "string"
        }
      ],
      "name": "updateRekamMedis",
      "outputs": [],
      "stateMutability": "nonpayable",
      "type": "function"
    },
    {
      "inputs": [
        {
          "internalType": "address",
          "name": "_pasien",
          "type": "address"
        }
      ],
      "name": "getRekamMedisIdsByPasien",
      "outputs": [
        {
          "internalType": "uint256[]",
          "name": "",
          "type": "uint256[]"
        }
      ],
      "stateMutability": "view",
      "type": "function",
      "constant": true
    },
    {
      "inputs": [
        {
          "internalType": "uint256",
          "name": "_id",
          "type": "uint256"
        }
      ],
      "name": "getRekamMedis",
      "outputs": [
        {
          "internalType": "address",
          "name": "pasien",
          "type": "address"
        },
        {
          "internalType": "string",
          "name": "diagnosa",
          "type": "string"
        },
        {
          "internalType": "string",
          "name": "foto",
          "type": "string"
        },
        {
          "internalType": "string",
          "name": "catatan",
          "type": "string"
        },
        {
          "internalType": "bool",
          "name": "valid",
          "type": "bool"
        }
      ],
      "stateMutability": "view",
      "type": "function",
      "constant": true
    },
    {
      "inputs": [
        {
          "internalType": "uint256",
          "name": "_id",
          "type": "uint256"
        }
      ],
      "name": "getRekamMedisVersions",
      "outputs": [
        {
          "components": [
            {
              "internalType": "uint256",
              "name": "id",
              "type": "uint256"
            },
            {
              "internalType": "address",
              "name": "pasien",
              "type": "address"
            },
            {
              "internalType": "string",
              "name": "diagnosa",
              "type": "string"
            },
            {
              "internalType": "string",
              "name": "foto",
              "type": "string"
            },
            {
              "internalType": "string",
              "name": "catatan",
              "type": "string"
            },
            {
              "internalType": "bool",
              "name": "valid",
              "type": "bool"
            }
          ],
          "internalType": "struct RekamMedis.RekamMedisData[]",
          "name": "",
          "type": "tuple[]"
        }
      ],
      "stateMutability": "view",
      "type": "function",
      "constant": true
    },
    {
      "inputs": [
        {
          "internalType": "uint256",
          "name": "_id",
          "type": "uint256"
        }
      ],
      "name": "nonaktifkanRekamMedis",
      "outputs": [],
      "stateMutability": "nonpayable",
      "type": "function"
    },
    {
      "inputs": [
        {
          "internalType": "address",
          "name": "_newAdmin",
          "type": "address"
        }
      ],
      "name": "setAdmin",
      "outputs": [],
      "stateMutability": "nonpayable",
      "type": "function"
    }
  ],
  "bytecode": "0x6080806040523461002857600080546001600160a01b03191633179055613a8a908161002e8239f35b600080fdfe60a0604052600436101561001257600080fd5b60003560e01c8062410cb3146130ce578063046bdbcc1461306f578063083d8824146130295780631132beb514612fea57806319e8f40514612e3f5780632782085114612e075780632e2dd10214612de9578063350ee3fc14612d7e5780633aaec728146128115780633da0551814612767578063426996511461272557806347960cb51461267f57806351887b67146125ea5780635c4c9348146125ab5780635c87c3aa14611d8e5780636837008714611d33578063704b6c0214611cc1578063786f3fbe14611b9f5780637d3e9db814611b81578063932e0f6d14611ad15780639aec3e9f1461133f578063a665102c14611290578063abf72abb1461124d578063ad3c970814610d13578063c3c0fdea14610c73578063c967ede814610bbf578063d688780214610a2a578063dd09a9681461099f578063ddbd24d314610454578063e05c8a0e1461019e5763f851a4401461017057600080fd5b34610199576000366003190112610199576000546040516001600160a01b039091168152602090f35b600080fd5b34610199576101ac36613410565b93949560018060a0959394951b03906101ca8260005416331461356f565b169081600052602093600285526101e860ff604060002054166136d1565b826000526001968786526040600020906001600160401b03998a821161036257819061021e82610218865461324b565b86613607565b600090601f83116001146103f1576000926103e6575b5050600019600383901b1c191690891b1790555b82600052868552866040600020019188821161036257819061026e82610218865461324b565b600090601f831160011461038357600092610378575b5050600019600383901b1c191690871b1790555b6000528382526002604060002001948311610362576102c1836102bb875461324b565b87613607565b600091601f84116001146102ff57509282939183926000946102f4575b50501b916000199060031b1c1916179055600080f35b0135925085806102de565b9183601f1981168760005284600020946000905b88838310610348575050501061032e575b505050811b019055005b0135600019600384901b60f8161c19169055838080610324565b868601358855909601959384019387935090810190610313565b634e487b7160e01b600052604160045260246000fd5b013590508980610284565b899350601f1983169185600052886000209260005b8a8282106103d057505084116103b6575b505050811b019055610298565b0135600019600384901b60f8161c191690558980806103a9565b8385013586558d97909501949283019201610398565b013590508b80610234565b8b9350601f19831691856000528a6000209260005b8c82821061043e5750508411610424575b505050811b019055610248565b0135600019600384901b60f8161c191690558b8080610417565b8385013586558f97909501949283019201610406565b346101995761046236613410565b909195939461047c60018060a01b0360005416331461356f565b6001600160a01b03851660009081526002602052604090205460ff1661096a576001600160a01b03851660009081526004602052604090205460ff1661092e576001600160a01b03851660009081526002602052604090819020805460ff1916600117905551936104ec856132bc565b600085526040519460a086018681106001600160401b03821117610362576040526105183689856135aa565b8652610525368a846135aa565b60208701526105353685876135aa565b604087015260016060870152608086015260018060a01b0386166000526001602052604060002085518051906001600160401b03821161036257819061057f82610218865461324b565b602090601f83116001146108c2576000926108b7575b50508160011b916000199060031b1c19161781555b60208601518051906001600160401b0382116103625781906105dc826105d3600187015461324b565b60018701613607565b602090601f83116001146108455760009261083a575b50508160011b916000199060031b1c19161760018201555b60408601518051906001600160401b0382116103625761063a82610631600286015461324b565b60028601613607565b602090601f83116001146107c5579180608094926004946000926107ba575b50508160011b916000199060031b1c19161760028201555b61069060608901511515600383019060ff801983541691151516179055565b01950151948551906001600160401b03821161036257600160401b9687831161036257602090825484845580851061079d575b500190600052602060002060005b838110610780575050505060075494851015610362577f5e399ee004ff4fef571265f7bdd2e8ec7d18b86f1aeab0d8009f0df31b2725929761075f61076d9361072388600161077b9a0160075561313c565b81546001600160a01b039b8c1660039290921b82811b9c901b19169a909a179055604051988952608060208a0181905298998a998a01916136b0565b9187830360408901526136b0565b9184830360608601526136b0565b0390a1005b82516001600160a01b0316818301556020909201916001016106d1565b6107b49084600052858460002091820191016135f0565b8c6106c3565b015190508d80610659565b906002840160005260206000209160005b601f19851681106108225750926080949260019260049583601f19811610610809575b505050811b016002820155610671565b015160001960f88460031b161c191690558d80806107f9565b919260206001819286850151815501940192016107d6565b015190508b806105f2565b9250600184016000526020600020906000935b601f198416851061089c576001945083601f19811610610883575b505050811b01600182015561060a565b015160001960f88460031b161c191690558b8080610873565b81810151835560209485019460019093019290910190610858565b015190508b80610595565b9250836000526020600020906000935b601f1984168510610913576001945083601f198116106108fa575b505050811b0181556105aa565b015160001960f88460031b161c191690558b80806108ed565b818101518355602094850194600190930192909101906108d2565b60405162461bcd60e51b815260206004820152601460248201527320b630b6b0ba1036b4b634b5903830b9b4b2b71760611b6044820152606490fd5b60405162461bcd60e51b815260206004820152600d60248201526c29bab230b4103237b5ba32b91760991b6044820152606490fd5b3461019957604036600319011261019957602435600435600052600a6020526040600020908154811015610199576109d691613488565b50805460018201546001600160a01b031691610a26906109f860028201613313565b90610a0560038201613313565b60ff6005610a1560048501613313565b9301541692604051968796876133b9565b0390f35b346101995760208060031936011261019957600435600052600a81526040600020908154916001600160401b0383116103625760405191600593610a728282871b01856132f2565b8084528184018093600052826000206000915b838310610b455750505050604051928184019082855251809152604081818601961b85010192916000955b828710610abd5785850386f35b909192938280600192603f1989820301855287519081518152848060a01b03838301511683820152610b29610b16610b03604085015160c08060408701528501906131a1565b60608086015190858303908601526131a1565b60808085015190848303908501526131a1565b9160a08091015115159101529601920196019592919092610ab0565b600685600192604099979951610b5a816132a1565b85548152848060a01b03858701541683820152610b7960028701613313565b6040820152610b8a60038701613313565b6060820152610b9b60048701613313565b608082015260ff8c87015416151560a0820152815201920192019190959395610a85565b3461019957602080600319360112610199576001600160a01b03610be1613126565b1660005260068152604060002060405190818382549182815201908192600052846000209060005b86828210610c5f578686610c1f828803836132f2565b604051928392818401908285525180915260408401929160005b828110610c4857505050500390f35b835185528695509381019392810192600101610c39565b835485529093019260019283019201610c09565b34610199576020366003190112610199576001600160a01b03610c94613126565b166000526001602052610ceb6040600020610cae81613313565b90610d07610cbe60018301613313565b91610cf960ff6003610cd260028501613313565b93015416936040519687966080885260808801906131a1565b9086820360208801526131a1565b9084820360408601526131a1565b90151560608301520390f35b3461019957610d2136613410565b9495946001600160a01b039493929091338688161480156111e7575b1561117c57858716600052600460205260ff604060002054161561113757610db2610d696009546138cf565b918260095560405194610d7b866132a1565b838652610da660208701978a8c168952610d978d8b36916135aa565b966040890197885236916135aa565b606087015236916135aa565b6080840152600160a084015260005260056020526040600020928251845585600185019151166001600160601b0360a01b825416179055518051906001600160401b038211610362578190610e1782610e0e600288015461324b565b60028801613607565b602090601f83116001146110c5576000926110ba575b50508160011b916000199060031b1c19161760028301555b60608101518051906001600160401b038211610362578190610e7782610e6e600388015461324b565b60038801613607565b602090601f83116001146110485760009261103d575b50508160011b916000199060031b1c19161760038301555b6004820160808201518051906001600160401b03821161036257610ed382610ecd855461324b565b85613607565b602090601f8311600114610fcb57928260a093610f23979693600596600092610fc0575b50508160011b916000199060031b1c19161790555b0151151591019060ff801983541691151516179055565b818316600052600660205260406000209360095491855492600160401b84101561036257610f7b847f8647b41d1ffdc302f876f0e70e0c442d110a3c8bad284218f99616149394c997986001610fb497018155613189565b819291549060031b91821b91600019901b19161790556009549360405195869586521660208501526080604085015260808401916136b0565b600160608301520390a1005b015190508c80610ef7565b90601f198316918460005260206000209260005b818110611025575093610f23979693600596936001938360a0981061100c575b505050811b019055610f0c565b015160001960f88460031b161c191690558c8080610fff565b92936020600181928786015181550195019301610fdf565b015190508880610e8d565b9250600385016000526020600020906000935b601f198416851061109f576001945083601f19811610611086575b505050811b016003830155610ea5565b015160001960f88460031b161c19169055888080611076565b8181015183556020948501946001909301929091019061105b565b015190508880610e2d565b9250600285016000526020600020906000935b601f198416851061111c576001945083601f19811610611103575b505050811b016002830155610e45565b015160001960f88460031b161c191690558880806110f3565b818101518355602094850194600190930192909101906110d8565b60405162461bcd60e51b815260206004820152601760248201527f50617369656e20746964616b207465726461667461722e0000000000000000006044820152606490fd5b60405162461bcd60e51b815260206004820152603f60248201527f48616e79612070617369656e2073656e64697269206174617520646f6b74657260448201527f20616b7469662079616e6720646961737369676e206b652070617369656e2e006064820152608490fd5b5033600052600260205260ff6040600020541680611236575b8061121c575b8015610d3d575061121787336138f4565b610d3d565b50858716600052600460205260ff60406000205416611206565b50600160205260ff60036040600020015416611200565b34610199576020366003190112610199576004356000908152600560205260409020805460018201546001600160a01b031691610a26906109f860028201613313565b34610199576020366003190112610199576112a9613126565b6112b2906137dd565b94604097969794919493929351978897610100808a5289016112d3916131a1565b90602089015287810360408901526112ea916131a1565b86810360608801526112fb916131a1565b858103608087015261130c916131a1565b84810360a086015261131d916131a1565b83810360c085015261132e916131a1565b82810360e0840152610a26916131a1565b3461019957604036600319011261019957611358613126565b6024356001600160401b0381116101995761137790369060040161321e565b6000546001600160a01b03939190611392908516331461356f565b838216600052600460205260ff60406000205416611a8c5783821660005260026020526113c760ff6040600020541615613775565b83821660005260046020526040600020600160ff19825416179055604051936113ef85613285565b6113fa3683866135aa565b85526000602086015260405161140f816132bc565b600081526040860152604051611424816132bc565b600081526060860152604051611439816132bc565b60008152608086015260405161144e816132bc565b6000815260a0860152604051611463816132bc565b6000815260c0860152604051611478816132bc565b6000815260e0860152600161010086015282166000526003602052604060002084518051906001600160401b0382116103625781906114bb82610218865461324b565b602090601f8311600114611a2057600092611a15575b50508160011b916000199060031b1c19161781555b6020850151600182015560408501518051906001600160401b03821161036257819061152282611519600287015461324b565b60028701613607565b602090601f83116001146119a357600092611998575b50508160011b916000199060031b1c19161760028201555b606085015180516001600160401b0381116103625780600384019261157982610218865461324b565b602090601f831160011461193257600092611927575b50508160011b916000199060031b1c19161790555b608085015180516001600160401b038111610362578060048401926115cd82610218865461324b565b602090601f83116001146118c1576000926118b6575b50508160011b916000199060031b1c19161790555b60a085015180516001600160401b0381116103625780600584019261162182610218865461324b565b602090601f831160011461185057600092611845575b50508160011b916000199060031b1c19161790555b60c085015180516001600160401b0381116103625780600684019261167582610218865461324b565b602090601f83116001146117df576000926117d4575b50508160011b916000199060031b1c19161790555b600781019460e08101519586516001600160401b038111610362576116cf816116c9845461324b565b84613607565b6020601f8211600114611750576117309361077b9695938360089461010094600080516020613a358339815191529d6000926117455750508160011b916000199060031b1c19161790550151151591019060ff801983541691151516179055565b6117398361364c565b604051938493846137b8565b015190508d80610ef7565b601f198216988360005260206000209960005b8181106117bc575093600184600080516020613a358339815191529c61010095611730999560089861077b9d9c9a106117a357505050811b019055610f0c565b015160001960f88460031b161c191690558d8080610fff565b838301518c556001909b019a60209384019301611763565b01519050888061168b565b6000858152602081209350601f198516905b81811061182d5750908460019594939210611814575b505050811b0190556116a0565b015160001960f88460031b161c19169055888080611807565b929360206001819287860151815501950193016117f1565b015190508880611637565b6000858152602081209350601f198516905b81811061189e5750908460019594939210611885575b505050811b01905561164c565b015160001960f88460031b161c19169055888080611878565b92936020600181928786015181550195019301611862565b0151905088806115e3565b6000858152602081209350601f198516905b81811061190f57509084600195949392106118f6575b505050811b0190556115f8565b015160001960f88460031b161c191690558880806118e9565b929360206001819287860151815501950193016118d3565b01519050888061158f565b6000858152602081209350601f198516905b8181106119805750908460019594939210611967575b505050811b0190556115a4565b015160001960f88460031b161c1916905588808061195a565b92936020600181928786015181550195019301611944565b015190508780611538565b9250600284016000526020600020906000935b601f19841685106119fa576001945083601f198116106119e1575b505050811b016002820155611550565b015160001960f88460031b161c191690558780806119d1565b818101518355602094850194600190930192909101906119b6565b0151905087806114d1565b9250836000526020600020906000935b601f1984168510611a71576001945083601f19811610611a58575b505050811b0181556114e6565b015160001960f88460031b161c19169055878080611a4b565b81810151835560209485019460019093019290910190611a30565b60405162461bcd60e51b815260206004820152601760248201527f50617369656e207375646168207465726461667461722e0000000000000000006044820152606490fd5b3461019957604036600319011261019957611aea613126565b6024359081151591828103610199577f3dcd68c14f5f191f12b3b56bf35d5d7eb22447e9ec685290967b4558822ca98a92611b7460409360018060a01b0390611b388260005416331461356f565b1692836000526002602052611b5360ff8660002054166136d1565b836000526001602052600385600020019060ff801983541691151516179055565b82519182526020820152a1005b34610199576000366003190112610199576020600754604051908152f35b34610199576020366003190112610199576001600160a01b03611bc0613126565b1660005260036020526040600020611bd781613313565b600182015491611be960028201613313565b90611bf660038201613313565b611c0260048301613313565b611c0e60058401613313565b90611c1b60068501613313565b92611c2860078601613313565b946008015460ff1695604051988998610120808b528a01611c48916131a1565b9060208a015288810360408a0152611c5f916131a1565b8781036060890152611c70916131a1565b8681036080880152611c81916131a1565b85810360a0870152611c92916131a1565b84810360c0860152611ca3916131a1565b83810360e0850152611cb4916131a1565b9015156101008301520390f35b34610199576020366003190112610199577f4d644268affe3d5bee1f2f5cb981613ce82c79f04442f0d58c544d9cd09b2f8d6020611cfd613126565b600054906001600160a01b0390611d17338385161461356f565b1680916001600160601b0360a01b1617600055604051908152a1005b34610199576020366003190112610199576004356008548110156101995760086000527ff3f7a9fe364faab93b216da50a3214154f22a0a2b415b23a84c8169e8b636ee301546040516001600160a01b039091168152602090f35b3461019957610100366003190112610199576004356001600160401b03811161019957611dbf90369060040161321e565b906044356001600160401b03811161019957611ddf90369060040161321e565b6064356001600160401b03811161019957611dfe90369060040161321e565b906084356001600160401b03811161019957611e1e90369060040161321e565b93909260a4356001600160401b03811161019957611e4090369060040161321e565b91906001600160401b0360c4351161019957611e613660c43560040161321e565b9390946001600160401b0360e4351161019957611e833660e43560040161321e565b98909933600052600460205260ff6040600020541661257157611f26611f4f998f978f611f5d9f611f3497611f03611f1893611f419d336000526002602052611ed460ff6040600020541615613775565b3360005260046020526040600020600160ff19825416179055611efc60405180608052613285565b36916135aa565b608051526024356020608051015236916135aa565b6040608051015236916135aa565b6060608051015236916135aa565b60808051015236916135aa565b60a0608051015236916135aa565b60c0608051015236916135aa565b60e06080510152600161010060805101523360005260036020526040600020608051519283516001600160401b03811161036257611f9f81610ecd855461324b565b6020601f82116001146125085781929394956000926124fd575b50508160011b916000199060031b1c19161782555b604060805160208101516001850155015180516001600160401b0381116103625780600285019261200382610218865461324b565b602090601f83116001146124975760009261248c575b50508160011b916000199060031b1c19161790555b6060608051015180516001600160401b0381116103625780600385019261205982610218865461324b565b602090601f83116001146124265760009261241b575b50508160011b916000199060031b1c19161790555b60808051015180516001600160401b038111610362578060048501926120ae82610218865461324b565b602090601f83116001146123b5576000926123aa575b50508160011b916000199060031b1c19161790555b60a0608051015180516001600160401b0381116103625780600585019261210482610218865461324b565b602090601f831160011461234457600092612339575b50508160011b916000199060031b1c19161790555b60c060805101519283516001600160401b0381116103625761216181612158600687015461324b565b60068701613607565b6020601f82116001146122ca5781929394956000926122bf575b50508160011b916000199060031b1c19161760068401555b6007830160e060805101518051906001600160401b038211610362576121bd82610ecd855461324b565b602090601f831160011461224357918061221f9492600080516020613a358339815191529894600092612238575b50508160011b916000199060031b1c19161790555b60086101006080510151151591019060ff801983541691151516179055565b6122283361364c565b61077b60405192839233846137b8565b0151905088806121eb565b90601f198316918460005260206000209260005b8181106122a75750926001928592600080516020613a358339815191529a9661221f98961061228e575b505050811b019055612200565b015160001960f88460031b161c19169055888080612281565b92936020600181928786015181550195019301612257565b01519050858061217b565b6006850160005260206000209060005b601f1984168110612321575060019394959683601f19811610612308575b505050811b016006840155612193565b015160001960f88460031b161c191690558580806122f8565b9091602060018192858b0151815501930191016122da565b01519050868061211a565b6000858152602081209350601f198516905b8181106123925750908460019594939210612379575b505050811b01905561212f565b015160001960f88460031b161c1916905586808061236c565b92936020600181928786015181550195019301612356565b0151905086806120c4565b6000858152602081209350601f198516905b81811061240357509084600195949392106123ea575b505050811b0190556120d9565b015160001960f88460031b161c191690558680806123dd565b929360206001819287860151815501950193016123c7565b01519050868061206f565b6000858152602081209350601f198516905b818110612474575090846001959493921061245b575b505050811b019055612084565b015160001960f88460031b161c1916905586808061244e565b92936020600181928786015181550195019301612438565b015190508680612019565b6000858152602081209350601f198516905b8181106124e557509084600195949392106124cc575b505050811b01905561202e565b015160001960f88460031b161c191690558680806124bf565b929360206001819287860151815501950193016124a9565b015190508580611fb9565b8360005260206000209060005b601f1984168110612559575060019394959683601f19811610612540575b505050811b018255611fce565b015160001960f88460031b161c19169055858080612533565b9091602060018192858b015181550193019101612515565b60405162461bcd60e51b815260206004820152601260248201527120b732309039bab230b4103830b9b4b2b71760711b6044820152606490fd5b34610199576020366003190112610199576001600160a01b036125cc613126565b166000526002602052602060ff604060002054166040519015158152f35b34610199576000366003190112610199576040518060085480825282602080930160086000527ff3f7a9fe364faab93b216da50a3214154f22a0a2b415b23a84c8169e8b636ee39260005b858282106126605750505061264c925003836132f2565b610a266040519282849384528301906131e1565b85546001600160a01b0316845260019586019588955093019201612635565b34610199576020366003190112610199576004356000526005602052604060002060018060a01b0360018201541660ff6005830154166127196126c460028501613313565b9361270b6126e060046126d960038501613313565b9301613313565b916126fd604051978897885260a0602089015260a08801906131a1565b9086820360408801526131a1565b9084820360608601526131a1565b90151560808301520390f35b34610199576020366003190112610199576004356007548110156101995761274e60209161313c565b905460405160039290921b1c6001600160a01b03168152f35b34610199576020366003190112610199576001600160a01b03612788613126565b1660005260016020526127ee6040600020610a2660ff6003830154166127ad83613313565b926127fc6127bd60018301613313565b916126fd6127d960046127d260028501613313565b930161371d565b9360405198899860a08a5260a08a01906131a1565b9088820360208a01526131a1565b911515606085015283820360808501526131e1565b34610199576080366003190112610199576024356001600160401b0381116101995761284190369060040161321e565b906044356001600160401b0381116101995761286190369060040161321e565b92906064356001600160401b0381116101995761288290369060040161321e565b919094600435600052600560205260018060a01b036001604060002001541633600052600260205260ff6040600020541680612d67575b15612d2c576000903360005260016020526004604060002001906000918054925b838110612cec575b5050505015612c9b576004356000526005602052604060002091600a60205260406000208054600160401b8110156103625761292391600182018155613488565b612c8557838103612c09575b506001600160401b0385116103625761294f85610631600286015461324b565b846000601f8211600114612b9b57600091612b90575b508560011b906000198760031b1c19161760028401555b6001600160401b038211610362576129a48261299b600386015461324b565b60038601613607565b600090601f8311600114612b1d57600493929160009183612b12575b50508160011b916000199060031b1c19161760038201555b016001600160401b038211610362576129fb826129f5835461324b565b83613607565b6000601f8311600114612a8557917f2a3c8ca9ac6f36396c175111b8f04207d249d61d733222e37c97a5ed7cfa7e1395918161077b94600091612a7a575b508260011b906000198460031b1c19161790555b612a6c60405195869560043587526060602088015260608701916136b0565b9184830360408601526136b0565b905083013588612a39565b601f198316908260005260206000209160005b818110612afa5750917f2a3c8ca9ac6f36396c175111b8f04207d249d61d733222e37c97a5ed7cfa7e139793918561077b969410612ae0575b5050600182811b019055612a4d565b840135600019600385901b60f8161c191690558780612ad1565b9192602060018192868c013581550194019201612a98565b0135905088806129c0565b6003840160005260206000209160005b601f1985168110612b78575091839160019360049695601f19811610612b5e575b505050811b0160038201556129d8565b0135600019600384901b60f8161c19169055888080612b4e565b90926020600181928686013581550194019101612b2d565b905086013588612965565b90506002840160005260206000209060005b601f1988168110612bf1575086601f19811610612bd7575b5050600185811b01600284015561297c565b870135600019600388901b60f8161c191690558780612bc5565b9091602060018192858c013581550193019101612bad565b612c7f90845481556001810160018060a01b036001870154166001600160601b0360a01b825416179055612c43600286016002830161395c565b612c53600386016003830161395c565b612c63600486016004830161395c565b600560ff818701541691019060ff801983541691151516179055565b8761292f565b634e487b7160e01b600052600060045260246000fd5b60405162461bcd60e51b8152602060048201526024808201527f446f6b74657220746964616b20646961737369676e206b652070617369656e2060448201526334b7349760e11b6064820152608490fd5b82612cf78284613189565b905460039190911b1c6001600160a01b031614612d1c57612d17906138cf565b6128da565b50505050506001878080806128e2565b60405162461bcd60e51b81526020600482015260136024820152722430b73cb0903237b5ba32b91030b5ba34b31760691b6044820152606490fd5b50600160205260ff600360406000200154166128b9565b34610199576020366003190112610199576001600160a01b03612d9f613126565b16806000526002602052612dba60ff604060002054166136d1565b6000526001602052610a26612dd5600460406000200161371d565b6040519182916020835260208301906131e1565b34610199576000366003190112610199576020600954604051908152f35b3461019957602036600319011261019957610a26612e2b612e26613126565b6134a4565b6040519182916020835260208301906131a1565b3461019957604036600319011261019957612e58613126565b6001600160a01b0390602480358381169290839003610199578390612e828260005416331461356f565b16928360005260209160028352612ea060ff604060002054166136d1565b836000526004835260ff6040600020541615612fa757846000526001835260046040600020016000918154925b838110612f4a5750600160401b831015612f36577fd9a2627959a7f46a8b96c10424cdae1f1b65151551cd206b119aca54c0a86a5a604088888888612f188989600182018155613189565b819291549060031b9185831b921b19161790558351928352820152a1005b634e487b7160e01b60009081526041600452fd5b8685612f568386613189565b90549060031b1c1614612f7157612f6c906138cf565b612ecd565b60405162461bcd60e51b815260048101879052600f818401526e29bab230b4103234b0b9b9b4b3b71760891b6044820152606490fd5b8260176064926040519262461bcd60e51b845260048401528201527f50617369656e2062656c756d207465726461667461722e0000000000000000006044820152fd5b34610199576020366003190112610199576001600160a01b0361300b613126565b166000526004602052602060ff604060002054166040519015158152f35b346101995760203660031901126101995761304f60018060a01b0360005416331461356f565b6004356000526005602052600560406000200160ff198154169055600080f35b34610199576020366003190112610199576004356007548110156130985761274e60209161313c565b60405162461bcd60e51b815260206004820152600e60248201526d24b73232bc1034b73b30b634b21760911b6044820152606490fd5b34610199576040366003190112610199576130e7613126565b6001600160a01b03166000908152600660205260409020805460243591908210156101995760209161311891613189565b90546040519160031b1c8152f35b600435906001600160a01b038216820361019957565b6007548110156131735760076000527fa66cc928b5edb82af9bd49922954155ab7b0942694bea4ce44661d9a8736c6880190600090565b634e487b7160e01b600052603260045260246000fd5b80548210156131735760005260206000200190600090565b919082519283825260005b8481106131cd575050826000602080949584010152601f8019910116010190565b6020818301810151848301820152016131ac565b90815180825260208080930193019160005b828110613201575050505090565b83516001600160a01b0316855293810193928101926001016131f3565b9181601f84011215610199578235916001600160401b038311610199576020838186019501011161019957565b90600182811c9216801561327b575b602083101461326557565b634e487b7160e01b600052602260045260246000fd5b91607f169161325a565b61012081019081106001600160401b0382111761036257604052565b60c081019081106001600160401b0382111761036257604052565b602081019081106001600160401b0382111761036257604052565b604081019081106001600160401b0382111761036257604052565b90601f801991011681019081106001600160401b0382111761036257604052565b90604051918260008254926133278461324b565b9081845260019485811690816000146133965750600114613353575b5050613351925003836132f2565b565b9093915060005260209081600020936000915b81831061337e57505061335193508201013880613343565b85548884018501529485019487945091830191613366565b91505061335194506020925060ff191682840152151560051b8201013880613343565b9491936133ec6134089460a0966133fa949a999a8952600180891b0316602089015260c0604089015260c08801906131a1565b9086820360608801526131a1565b9084820360808601526131a1565b931515910152565b6080600319820112610199576004356001600160a01b038116810361019957916001600160401b03602435818111610199578361344f9160040161321e565b93909392604435838111610199578261346a9160040161321e565b93909392606435918211610199576134849160040161321e565b9091565b8054821015613173576000526006602060002091020190600090565b6000546001600160a01b039182169116811461354d5780600052600260205260ff6040600020541661352a57600052600460205260ff60406000205416613508576040516134f1816132d7565b60078152662ab735b737bbb760c91b602082015290565b604051613514816132d7565b60068152652830b9b4b2b760d11b602082015290565b50604051613537816132d7565b60068152652237b5ba32b960d11b602082015290565b5060405161355a816132d7565b600581526420b236b4b760d91b602082015290565b1561357657565b60405162461bcd60e51b815260206004820152600c60248201526b2430b73cb09030b236b4b71760a11b6044820152606490fd5b9291926001600160401b03821161036257604051916135d3601f8201601f1916602001846132f2565b829481845281830111610199578281602093846000960137010152565b8181106135fb575050565b600081556001016135f0565b9190601f811161361657505050565b613351926000526020600020906020601f840160051c83019310613642575b601f0160051c01906135f0565b9091508190613635565b600854600160401b8110156103625760018101806008558110156131735760086000527ff3f7a9fe364faab93b216da50a3214154f22a0a2b415b23a84c8169e8b636ee30180546001600160a01b0319166001600160a01b03909216919091179055565b908060209392818452848401376000828201840152601f01601f1916010190565b156136d857565b60405162461bcd60e51b815260206004820152601760248201527f446f6b7465722062656c756d207465726461667461722e0000000000000000006044820152606490fd5b9060405191828154918282526020928383019160005283600020936000905b82821061375257505050613351925003836132f2565b85546001600160a01b03168452600195860195889550938101939091019061373c565b1561377c57565b60405162461bcd60e51b815260206004820152601460248201527320b630b6b0ba1036b4b634b5903237b5ba32b91760611b6044820152606490fd5b6001600160a01b0390911681526040602082018190526137da939101916136b0565b90565b6001600160a01b03166000818152600460205260408082205490929060ff16156138605781526003602052209060018201549161381981613313565b929161382760028301613313565b9161383460038201613313565b9161384160048301613313565b9161384e60058201613313565b916137da60076126d960068501613313565b508192915161386e816132bc565b818152928192815161387f816132bc565b83815292825161388e816132bc565b81815292805161389d816132bc565b8281529281516138ac816132bc565b8381529282516138bb816132bc565b8181529251906138ca826132bc565b815290565b60001981146138de5760010190565b634e487b7160e01b600052601160045260246000fd5b60018060a01b038091166000526001908160205260046040600020016000938154945b85811061392957505050505050600090565b836139348285613189565b9190548185169260031b1c16146139535761394e906138cf565b613917565b50505050905090565b90808214613a305761396e815461324b565b906001600160401b03821161036257819061398d82610218865461324b565b600090601f83116001146139c4576000926139b9575b50508160011b916000199060031b1c1916179055565b0154905038806139a3565b81526020808220858352818320935090601f1985169083905b828210613a175750509084600195949392106139fe575b505050811b019055565b015460001960f88460031b161c191690553880806139f4565b84958192958501548155600180910196019401906139dd565b505056febf053d6e768d58295aaf9541196adab7535b80d2c6c4c10ebf3d6948396c25b1a26469706673582212203ea04459c5a4fa9c08da8599dad4414b1d88aa2104ea0d011ba6713a688307a764736f6c63430008130033",
  "immutableReferences": {},
  "source": "// SPDX-License-Identifier: MIT\r\npragma solidity >=0.4.22 <0.9.0;\r\n\r\ncontract RekamMedis {\r\n    address public admin;\r\n\r\n    struct Dokter {\r\n        string nama;\r\n        string spesialisasi;\r\n        string nomorLisensi;\r\n        bool aktif;\r\n        address[] assignedPasien;\r\n    }\r\n\r\n    struct Pasien {\r\n        string nama;\r\n        uint umur;\r\n        string golonganDarah;\r\n        string tanggalLahir;\r\n        string gender;\r\n        string alamat;\r\n        string noTelepon;\r\n        string email;\r\n        bool exists;\r\n    }\r\n\r\n    struct RekamMedisData {\r\n        uint id;\r\n        address pasien;\r\n        string diagnosa;\r\n        string foto;\r\n        string catatan;\r\n        bool valid;\r\n    }\r\n\r\n    mapping(address => Dokter) public dataDokter;\r\n    mapping(address => bool) public isDokter;\r\n\r\n    mapping(address => Pasien) public dataPasien;\r\n    mapping(address => bool) public isPasien;\r\n\r\n    mapping(uint => RekamMedisData) public rekamMedis;\r\n    mapping(address => uint[]) public rekamMedisByPasien;\r\n\r\n    address[] public daftarDokter;\r\n    address[] public daftarPasien;\r\n    uint public rekamMedisCount;\r\n\r\n    // history versions\r\n    mapping(uint => RekamMedisData[]) public rekamMedisVersions;\r\n\r\n    // Events\r\n    event AdminDitetapkan(address newAdmin);\r\n    event DokterTerdaftar(\r\n        address dokter,\r\n        string nama,\r\n        string spesialisasi,\r\n        string nomorLisensi\r\n    );\r\n    event DokterStatusDiubah(address dokter, bool aktif);\r\n    event PasienTerdaftar(address pasien, string nama);\r\n    event PasienDiassignKeDokter(address dokter, address pasien);\r\n    event RekamMedisDitambahkan(\r\n        uint id,\r\n        address pasien,\r\n        string diagnosa,\r\n        bool valid\r\n    );\r\n    event RekamMedisDiperbarui(uint id, string diagnosa, string catatan);\r\n\r\n    constructor() {\r\n        admin = msg.sender;\r\n    }\r\n\r\n    modifier hanyaAdmin() {\r\n        require(msg.sender == admin, \"Hanya admin.\");\r\n        _;\r\n    }\r\n\r\n    modifier hanyaDokterAktif() {\r\n        require(\r\n            isDokter[msg.sender] && dataDokter[msg.sender].aktif,\r\n            \"Hanya dokter aktif.\"\r\n        );\r\n        _;\r\n    }\r\n\r\n    modifier hanyaDokterAktifUntukPasien(address _pasien) {\r\n        require(\r\n            isDokter[msg.sender] && dataDokter[msg.sender].aktif,\r\n            \"Hanya dokter aktif.\"\r\n        );\r\n        bool assigned = false;\r\n        address[] storage list = dataDokter[msg.sender].assignedPasien;\r\n        for (uint i = 0; i < list.length; i++) {\r\n            if (list[i] == _pasien) {\r\n                assigned = true;\r\n                break;\r\n            }\r\n        }\r\n        require(assigned, \"Dokter tidak diassign ke pasien ini.\");\r\n        _;\r\n    }\r\n\r\n    modifier hanyaPasien(address _pasien) {\r\n        require(msg.sender == _pasien, \"Hanya pasien.\");\r\n        _;\r\n    }\r\n\r\n    // Ambil role user\r\n    function getUserRole(address _user) public view returns (string memory) {\r\n        if (_user == admin) return \"Admin\";\r\n        if (isDokter[_user]) return \"Dokter\";\r\n        if (isPasien[_user]) return \"Pasien\";\r\n        return \"Unknown\";\r\n    }\r\n\r\n    // --- Dokter management ---\r\n    function registerDokter(\r\n        address _dokter,\r\n        string calldata _nama,\r\n        string calldata _spesialisasi,\r\n        string calldata _nomorLisensi\r\n    ) external hanyaAdmin {\r\n        require(!isDokter[_dokter], \"Sudah dokter.\");\r\n        require(!isPasien[_dokter], \"Alamat milik pasien.\");\r\n        isDokter[_dokter] = true;\r\n        dataDokter[_dokter] = Dokter({\r\n            nama: _nama,\r\n            spesialisasi: _spesialisasi,\r\n            nomorLisensi: _nomorLisensi,\r\n            aktif: true,\r\n            assignedPasien: new address[](0)\r\n        });\r\n        daftarDokter.push(_dokter);\r\n        emit DokterTerdaftar(_dokter, _nama, _spesialisasi, _nomorLisensi);\r\n    }\r\n\r\n    function totalDokter() external view returns (uint) {\r\n        return daftarDokter.length;\r\n    }\r\n\r\n    function getDokterByIndex(uint idx) external view returns (address) {\r\n        require(idx < daftarDokter.length, \"Index invalid.\");\r\n        return daftarDokter[idx];\r\n    }\r\n\r\n    function setStatusDokter(address _dokter, bool _aktif) external hanyaAdmin {\r\n        require(isDokter[_dokter], \"Dokter belum terdaftar.\");\r\n        dataDokter[_dokter].aktif = _aktif;\r\n        emit DokterStatusDiubah(_dokter, _aktif);\r\n    }\r\n\r\n    function updateDataDokter(\r\n        address _dokter,\r\n        string calldata _nama,\r\n        string calldata _spesialisasi,\r\n        string calldata _nomorLisensi\r\n    ) external hanyaAdmin {\r\n        require(isDokter[_dokter], \"Dokter belum terdaftar.\");\r\n        dataDokter[_dokter].nama = _nama;\r\n        dataDokter[_dokter].spesialisasi = _spesialisasi;\r\n        dataDokter[_dokter].nomorLisensi = _nomorLisensi;\r\n    }\r\n\r\n    function getDokter(\r\n        address _dokter\r\n    )\r\n        external\r\n        view\r\n        returns (\r\n            string memory nama,\r\n            string memory spesialisasi,\r\n            string memory nomorLisensi,\r\n            bool aktif,\r\n            address[] memory pasienList\r\n        )\r\n    {\r\n        Dokter storage d = dataDokter[_dokter];\r\n        return (\r\n            d.nama,\r\n            d.spesialisasi,\r\n            d.nomorLisensi,\r\n            d.aktif,\r\n            d.assignedPasien\r\n        );\r\n    }\r\n\r\n    // --- Pasien management ---\r\n    function registerPasien(\r\n        address _pasien,\r\n        string calldata _nama\r\n    ) external hanyaAdmin {\r\n        require(!isPasien[_pasien], \"Pasien sudah terdaftar.\");\r\n        require(!isDokter[_pasien], \"Alamat milik dokter.\");\r\n        isPasien[_pasien] = true;\r\n        dataPasien[_pasien] = Pasien({\r\n            nama: _nama,\r\n            umur: 0,\r\n            golonganDarah: \"\",\r\n            tanggalLahir: \"\",\r\n            gender: \"\",\r\n            alamat: \"\",\r\n            noTelepon: \"\",\r\n            email: \"\",\r\n            exists: true\r\n        });\r\n        daftarPasien.push(_pasien);\r\n        emit PasienTerdaftar(_pasien, _nama);\r\n    }\r\n\r\n    function selfRegisterPasien(\r\n        string calldata _nama,\r\n        uint _umur,\r\n        string calldata _golonganDarah,\r\n        string calldata _tanggalLahir,\r\n        string calldata _gender,\r\n        string calldata _alamat,\r\n        string calldata _noTelepon,\r\n        string calldata _email\r\n    ) external {\r\n        require(!isPasien[msg.sender], \"Anda sudah pasien.\");\r\n        require(!isDokter[msg.sender], \"Alamat milik dokter.\");\r\n        isPasien[msg.sender] = true;\r\n        dataPasien[msg.sender] = Pasien({\r\n            nama: _nama,\r\n            umur: _umur,\r\n            golonganDarah: _golonganDarah,\r\n            tanggalLahir: _tanggalLahir,\r\n            gender: _gender,\r\n            alamat: _alamat,\r\n            noTelepon: _noTelepon,\r\n            email: _email,\r\n            exists: true\r\n        });\r\n        daftarPasien.push(msg.sender);\r\n        emit PasienTerdaftar(msg.sender, _nama);\r\n    }\r\n\r\n    function getDaftarPasien() external view returns (address[] memory) {\r\n        return daftarPasien;\r\n    }\r\n\r\n    function getPasienData(\r\n        address _pasien\r\n    )\r\n        external\r\n        view\r\n        returns (\r\n            string memory nama,\r\n            uint umur,\r\n            string memory golonganDarah,\r\n            string memory tanggalLahir,\r\n            string memory gender,\r\n            string memory alamat,\r\n            string memory noTelepon,\r\n            string memory email\r\n        )\r\n    {\r\n        if (!isPasien[_pasien]) {\r\n            // Kembalikan nilai kosong jika pasien belum terdaftar\r\n            return (\"\", 0, \"\", \"\", \"\", \"\", \"\", \"\");\r\n        }\r\n        Pasien storage p = dataPasien[_pasien];\r\n        return (\r\n            p.nama,\r\n            p.umur,\r\n            p.golonganDarah,\r\n            p.tanggalLahir,\r\n            p.gender,\r\n            p.alamat,\r\n            p.noTelepon,\r\n            p.email\r\n        );\r\n    }\r\n\r\n    // --- Assignment ---\r\n    function assignPasienToDokter(\r\n        address _dokter,\r\n        address _pasien\r\n    ) external hanyaAdmin {\r\n        require(isDokter[_dokter], \"Dokter belum terdaftar.\");\r\n        require(isPasien[_pasien], \"Pasien belum terdaftar.\");\r\n        address[] storage list = dataDokter[_dokter].assignedPasien;\r\n        for (uint i = 0; i < list.length; i++) {\r\n            require(list[i] != _pasien, \"Sudah diassign.\");\r\n        }\r\n        list.push(_pasien);\r\n        emit PasienDiassignKeDokter(_dokter, _pasien);\r\n    }\r\n\r\n    function getAssignedPasienByDokter(\r\n        address _dokter\r\n    ) external view returns (address[] memory) {\r\n        require(isDokter[_dokter], \"Dokter belum terdaftar.\");\r\n        return dataDokter[_dokter].assignedPasien;\r\n    }\r\n\r\n    // --- Rekam Medis ---\r\n    // Update fungsi tambahRekamMedis agar bisa dipanggil oleh pasien sendiri atau dokter aktif yg diassign ke pasien tersebut\r\n    function tambahRekamMedis(\r\n        address _pasien,\r\n        string calldata _diagnosa,\r\n        string calldata _foto,\r\n        string calldata _catatan\r\n    ) external {\r\n        require(\r\n            (msg.sender == _pasien) ||\r\n                (isDokter[msg.sender] &&\r\n                    dataDokter[msg.sender].aktif &&\r\n                    isPasien[_pasien] &&\r\n                    isAssigned(msg.sender, _pasien)),\r\n            \"Hanya pasien sendiri atau dokter aktif yang diassign ke pasien.\"\r\n        );\r\n        require(isPasien[_pasien], \"Pasien tidak terdaftar.\");\r\n\r\n        rekamMedisCount++;\r\n        rekamMedis[rekamMedisCount] = RekamMedisData({\r\n            id: rekamMedisCount,\r\n            pasien: _pasien,\r\n            diagnosa: _diagnosa,\r\n            foto: _foto,\r\n            catatan: _catatan,\r\n            valid: true\r\n        });\r\n        rekamMedisByPasien[_pasien].push(rekamMedisCount);\r\n        emit RekamMedisDitambahkan(rekamMedisCount, _pasien, _diagnosa, true);\r\n    }\r\n\r\n    // Fungsi helper untuk cek apakah dokter diassign ke pasien\r\n    function isAssigned(\r\n        address _dokter,\r\n        address _pasien\r\n    ) internal view returns (bool) {\r\n        address[] storage list = dataDokter[_dokter].assignedPasien;\r\n        for (uint i = 0; i < list.length; i++) {\r\n            if (list[i] == _pasien) {\r\n                return true;\r\n            }\r\n        }\r\n        return false;\r\n    }\r\n\r\n    function updateRekamMedis(\r\n        uint _id,\r\n        string calldata _diagnosa,\r\n        string calldata _foto,\r\n        string calldata _catatan\r\n    ) external hanyaDokterAktifUntukPasien(rekamMedis[_id].pasien) {\r\n        RekamMedisData storage r = rekamMedis[_id];\r\n        rekamMedisVersions[_id].push(r);\r\n\r\n        r.diagnosa = _diagnosa;\r\n        r.foto = _foto;\r\n        r.catatan = _catatan;\r\n        emit RekamMedisDiperbarui(_id, _diagnosa, _catatan);\r\n    }\r\n\r\n    function getRekamMedisIdsByPasien(\r\n        address _pasien\r\n    ) external view returns (uint[] memory) {\r\n        return rekamMedisByPasien[_pasien];\r\n    }\r\n\r\n    function getRekamMedis(\r\n        uint _id\r\n    )\r\n        external\r\n        view\r\n        returns (\r\n            address pasien,\r\n            string memory diagnosa,\r\n            string memory foto,\r\n            string memory catatan,\r\n            bool valid\r\n        )\r\n    {\r\n        RekamMedisData storage r = rekamMedis[_id];\r\n        return (r.pasien, r.diagnosa, r.foto, r.catatan, r.valid);\r\n    }\r\n\r\n    function getRekamMedisVersions(\r\n        uint _id\r\n    ) external view returns (RekamMedisData[] memory) {\r\n        return rekamMedisVersions[_id];\r\n    }\r\n\r\n    function nonaktifkanRekamMedis(uint _id) external hanyaAdmin {\r\n        rekamMedis[_id].valid = false;\r\n    }\r\n\r\n    function setAdmin(address _newAdmin) external hanyaAdmin {\r\n        admin = _newAdmin;\r\n        emit AdminDitetapkan(_newAdmin);\r\n    }\r\n}\r\n",
  "sourcePath": "D:\\TA\\Rekam_Medis_Blockchain\\rekam_medis_backend\\contracts\\RekamMedis.sol",
  "compiler": {
    "name": "solc",
    "version": "0.8.19+commit.7dd6d404.Emscripten.clang"
  },
  "schemaVersion": "3.4.16",
  "updatedAt": "2025-05-22T12:02:19.840Z",
  "networkType": "ethereum",
  "devdoc": {
    "kind": "dev",
    "methods": {},
    "version": 1
  },
  "userdoc": {
    "kind": "user",
    "methods": {},
    "version": 1
  }
}