{
  "contractName": "RekamMedis",
  "abi": [
    {
      "inputs": [],
      "stateMutability": "nonpayable",
      "type": "constructor"
    },
    {
      "anonymous": false,
      "inputs": [
        {
          "indexed": false,
          "internalType": "address",
          "name": "newAdmin",
          "type": "address"
        }
      ],
      "name": "AdminDitetapkan",
      "type": "event"
    },
    {
      "anonymous": false,
      "inputs": [
        {
          "indexed": false,
          "internalType": "address",
          "name": "dokter",
          "type": "address"
        },
        {
          "indexed": false,
          "internalType": "bool",
          "name": "aktif",
          "type": "bool"
        }
      ],
      "name": "DokterStatusDiubah",
      "type": "event"
    },
    {
      "anonymous": false,
      "inputs": [
        {
          "indexed": false,
          "internalType": "address",
          "name": "dokter",
          "type": "address"
        },
        {
          "indexed": false,
          "internalType": "string",
          "name": "nama",
          "type": "string"
        }
      ],
      "name": "DokterTerdaftar",
      "type": "event"
    },
    {
      "anonymous": false,
      "inputs": [
        {
          "indexed": false,
          "internalType": "address",
          "name": "dokter",
          "type": "address"
        },
        {
          "indexed": false,
          "internalType": "address",
          "name": "pasien",
          "type": "address"
        }
      ],
      "name": "PasienDiassignKeDokter",
      "type": "event"
    },
    {
      "anonymous": false,
      "inputs": [
        {
          "indexed": false,
          "internalType": "address",
          "name": "pasien",
          "type": "address"
        }
      ],
      "name": "PasienTerdaftar",
      "type": "event"
    },
    {
      "anonymous": false,
      "inputs": [
        {
          "indexed": false,
          "internalType": "uint256",
          "name": "id",
          "type": "uint256"
        },
        {
          "indexed": false,
          "internalType": "string",
          "name": "diagnosa",
          "type": "string"
        },
        {
          "indexed": false,
          "internalType": "string",
          "name": "catatan",
          "type": "string"
        }
      ],
      "name": "RekamMedisDiperbarui",
      "type": "event"
    },
    {
      "anonymous": false,
      "inputs": [
        {
          "indexed": false,
          "internalType": "uint256",
          "name": "id",
          "type": "uint256"
        },
        {
          "indexed": false,
          "internalType": "address",
          "name": "pasien",
          "type": "address"
        },
        {
          "indexed": false,
          "internalType": "string",
          "name": "diagnosa",
          "type": "string"
        },
        {
          "indexed": false,
          "internalType": "bool",
          "name": "valid",
          "type": "bool"
        }
      ],
      "name": "RekamMedisDitambahkan",
      "type": "event"
    },
    {
      "inputs": [],
      "name": "admin",
      "outputs": [
        {
          "internalType": "address",
          "name": "",
          "type": "address"
        }
      ],
      "stateMutability": "view",
      "type": "function",
      "constant": true
    },
    {
      "inputs": [
        {
          "internalType": "uint256",
          "name": "",
          "type": "uint256"
        }
      ],
      "name": "daftarDokter",
      "outputs": [
        {
          "internalType": "address",
          "name": "",
          "type": "address"
        }
      ],
      "stateMutability": "view",
      "type": "function",
      "constant": true
    },
    {
      "inputs": [
        {
          "internalType": "uint256",
          "name": "",
          "type": "uint256"
        }
      ],
      "name": "daftarPasien",
      "outputs": [
        {
          "internalType": "address",
          "name": "",
          "type": "address"
        }
      ],
      "stateMutability": "view",
      "type": "function",
      "constant": true
    },
    {
      "inputs": [
        {
          "internalType": "address",
          "name": "",
          "type": "address"
        }
      ],
      "name": "dataDokter",
      "outputs": [
        {
          "internalType": "string",
          "name": "nama",
          "type": "string"
        },
        {
          "internalType": "bool",
          "name": "aktif",
          "type": "bool"
        }
      ],
      "stateMutability": "view",
      "type": "function",
      "constant": true
    },
    {
      "inputs": [
        {
          "internalType": "address",
          "name": "",
          "type": "address"
        }
      ],
      "name": "isDokter",
      "outputs": [
        {
          "internalType": "bool",
          "name": "",
          "type": "bool"
        }
      ],
      "stateMutability": "view",
      "type": "function",
      "constant": true
    },
    {
      "inputs": [
        {
          "internalType": "address",
          "name": "",
          "type": "address"
        }
      ],
      "name": "isPasien",
      "outputs": [
        {
          "internalType": "bool",
          "name": "",
          "type": "bool"
        }
      ],
      "stateMutability": "view",
      "type": "function",
      "constant": true
    },
    {
      "inputs": [
        {
          "internalType": "uint256",
          "name": "",
          "type": "uint256"
        }
      ],
      "name": "rekamMedis",
      "outputs": [
        {
          "internalType": "uint256",
          "name": "id",
          "type": "uint256"
        },
        {
          "internalType": "address",
          "name": "pasien",
          "type": "address"
        },
        {
          "internalType": "string",
          "name": "nama",
          "type": "string"
        },
        {
          "internalType": "uint256",
          "name": "umur",
          "type": "uint256"
        },
        {
          "internalType": "string",
          "name": "golonganDarah",
          "type": "string"
        },
        {
          "internalType": "string",
          "name": "tanggalLahir",
          "type": "string"
        },
        {
          "internalType": "string",
          "name": "gender",
          "type": "string"
        },
        {
          "internalType": "string",
          "name": "alamat",
          "type": "string"
        },
        {
          "internalType": "string",
          "name": "noTelepon",
          "type": "string"
        },
        {
          "internalType": "string",
          "name": "email",
          "type": "string"
        },
        {
          "internalType": "string",
          "name": "diagnosa",
          "type": "string"
        },
        {
          "internalType": "string",
          "name": "foto",
          "type": "string"
        },
        {
          "internalType": "string",
          "name": "catatan",
          "type": "string"
        },
        {
          "internalType": "bool",
          "name": "valid",
          "type": "bool"
        }
      ],
      "stateMutability": "view",
      "type": "function",
      "constant": true
    },
    {
      "inputs": [
        {
          "internalType": "address",
          "name": "",
          "type": "address"
        },
        {
          "internalType": "uint256",
          "name": "",
          "type": "uint256"
        }
      ],
      "name": "rekamMedisByPasien",
      "outputs": [
        {
          "internalType": "uint256",
          "name": "",
          "type": "uint256"
        }
      ],
      "stateMutability": "view",
      "type": "function",
      "constant": true
    },
    {
      "inputs": [],
      "name": "rekamMedisCount",
      "outputs": [
        {
          "internalType": "uint256",
          "name": "",
          "type": "uint256"
        }
      ],
      "stateMutability": "view",
      "type": "function",
      "constant": true
    },
    {
      "inputs": [
        {
          "internalType": "uint256",
          "name": "",
          "type": "uint256"
        },
        {
          "internalType": "uint256",
          "name": "",
          "type": "uint256"
        }
      ],
      "name": "rekamMedisVersions",
      "outputs": [
        {
          "internalType": "uint256",
          "name": "id",
          "type": "uint256"
        },
        {
          "internalType": "address",
          "name": "pasien",
          "type": "address"
        },
        {
          "internalType": "string",
          "name": "nama",
          "type": "string"
        },
        {
          "internalType": "uint256",
          "name": "umur",
          "type": "uint256"
        },
        {
          "internalType": "string",
          "name": "golonganDarah",
          "type": "string"
        },
        {
          "internalType": "string",
          "name": "tanggalLahir",
          "type": "string"
        },
        {
          "internalType": "string",
          "name": "gender",
          "type": "string"
        },
        {
          "internalType": "string",
          "name": "alamat",
          "type": "string"
        },
        {
          "internalType": "string",
          "name": "noTelepon",
          "type": "string"
        },
        {
          "internalType": "string",
          "name": "email",
          "type": "string"
        },
        {
          "internalType": "string",
          "name": "diagnosa",
          "type": "string"
        },
        {
          "internalType": "string",
          "name": "foto",
          "type": "string"
        },
        {
          "internalType": "string",
          "name": "catatan",
          "type": "string"
        },
        {
          "internalType": "bool",
          "name": "valid",
          "type": "bool"
        }
      ],
      "stateMutability": "view",
      "type": "function",
      "constant": true
    },
    {
      "inputs": [
        {
          "internalType": "address",
          "name": "_dokter",
          "type": "address"
        },
        {
          "internalType": "string",
          "name": "_nama",
          "type": "string"
        }
      ],
      "name": "registerDokter",
      "outputs": [],
      "stateMutability": "nonpayable",
      "type": "function"
    },
    {
      "inputs": [],
      "name": "totalDokter",
      "outputs": [
        {
          "internalType": "uint256",
          "name": "",
          "type": "uint256"
        }
      ],
      "stateMutability": "view",
      "type": "function",
      "constant": true
    },
    {
      "inputs": [
        {
          "internalType": "uint256",
          "name": "index",
          "type": "uint256"
        }
      ],
      "name": "getDokterByIndex",
      "outputs": [
        {
          "internalType": "address",
          "name": "",
          "type": "address"
        }
      ],
      "stateMutability": "view",
      "type": "function",
      "constant": true
    },
    {
      "inputs": [
        {
          "internalType": "address",
          "name": "_dokter",
          "type": "address"
        },
        {
          "internalType": "bool",
          "name": "_aktif",
          "type": "bool"
        }
      ],
      "name": "setStatusDokter",
      "outputs": [],
      "stateMutability": "nonpayable",
      "type": "function"
    },
    {
      "inputs": [
        {
          "internalType": "address",
          "name": "_dokter",
          "type": "address"
        },
        {
          "internalType": "address",
          "name": "_pasien",
          "type": "address"
        }
      ],
      "name": "assignPasienToDokter",
      "outputs": [],
      "stateMutability": "nonpayable",
      "type": "function"
    },
    {
      "inputs": [
        {
          "internalType": "address",
          "name": "_dokter",
          "type": "address"
        },
        {
          "internalType": "address",
          "name": "_pasien",
          "type": "address"
        }
      ],
      "name": "isPasienAssignedToDokter",
      "outputs": [
        {
          "internalType": "bool",
          "name": "",
          "type": "bool"
        }
      ],
      "stateMutability": "view",
      "type": "function",
      "constant": true
    },
    {
      "inputs": [
        {
          "internalType": "address",
          "name": "_dokter",
          "type": "address"
        }
      ],
      "name": "getAssignedPasienByDokter",
      "outputs": [
        {
          "internalType": "address[]",
          "name": "",
          "type": "address[]"
        }
      ],
      "stateMutability": "view",
      "type": "function",
      "constant": true
    },
    {
      "inputs": [
        {
          "internalType": "address",
          "name": "_dokter",
          "type": "address"
        }
      ],
      "name": "getDokter",
      "outputs": [
        {
          "internalType": "string",
          "name": "nama",
          "type": "string"
        },
        {
          "internalType": "bool",
          "name": "aktif",
          "type": "bool"
        },
        {
          "internalType": "address[]",
          "name": "pasien",
          "type": "address[]"
        }
      ],
      "stateMutability": "view",
      "type": "function",
      "constant": true
    },
    {
      "inputs": [
        {
          "internalType": "address",
          "name": "_pasien",
          "type": "address"
        }
      ],
      "name": "registerPasien",
      "outputs": [],
      "stateMutability": "nonpayable",
      "type": "function"
    },
    {
      "inputs": [],
      "name": "selfRegisterPasien",
      "outputs": [],
      "stateMutability": "nonpayable",
      "type": "function"
    },
    {
      "inputs": [
        {
          "internalType": "address",
          "name": "_user",
          "type": "address"
        }
      ],
      "name": "getUserRole",
      "outputs": [
        {
          "internalType": "string",
          "name": "",
          "type": "string"
        }
      ],
      "stateMutability": "view",
      "type": "function",
      "constant": true
    },
    {
      "inputs": [
        {
          "internalType": "address",
          "name": "pasien",
          "type": "address"
        }
      ],
      "name": "getRekamMedisIdsByPasien",
      "outputs": [
        {
          "internalType": "uint256[]",
          "name": "",
          "type": "uint256[]"
        }
      ],
      "stateMutability": "view",
      "type": "function",
      "constant": true
    },
    {
      "inputs": [],
      "name": "getDaftarPasien",
      "outputs": [
        {
          "internalType": "address[]",
          "name": "",
          "type": "address[]"
        }
      ],
      "stateMutability": "view",
      "type": "function",
      "constant": true
    },
    {
      "inputs": [
        {
          "internalType": "address",
          "name": "_newAdmin",
          "type": "address"
        }
      ],
      "name": "setAdmin",
      "outputs": [],
      "stateMutability": "nonpayable",
      "type": "function"
    },
    {
      "inputs": [
        {
          "internalType": "address",
          "name": "_pasien",
          "type": "address"
        },
        {
          "internalType": "string",
          "name": "_nama",
          "type": "string"
        },
        {
          "internalType": "uint256",
          "name": "_umur",
          "type": "uint256"
        },
        {
          "internalType": "string",
          "name": "_golonganDarah",
          "type": "string"
        },
        {
          "internalType": "string",
          "name": "_tanggalLahir",
          "type": "string"
        },
        {
          "internalType": "string",
          "name": "_gender",
          "type": "string"
        },
        {
          "internalType": "string",
          "name": "_alamat",
          "type": "string"
        },
        {
          "internalType": "string",
          "name": "_noTelepon",
          "type": "string"
        },
        {
          "internalType": "string",
          "name": "_email",
          "type": "string"
        },
        {
          "internalType": "string",
          "name": "_diagnosa",
          "type": "string"
        },
        {
          "internalType": "string",
          "name": "_foto",
          "type": "string"
        },
        {
          "internalType": "string",
          "name": "_catatan",
          "type": "string"
        }
      ],
      "name": "tambahRekamMedis",
      "outputs": [],
      "stateMutability": "nonpayable",
      "type": "function"
    },
    {
      "inputs": [
        {
          "internalType": "uint256",
          "name": "_id",
          "type": "uint256"
        },
        {
          "internalType": "string",
          "name": "_nama",
          "type": "string"
        },
        {
          "internalType": "uint256",
          "name": "_umur",
          "type": "uint256"
        },
        {
          "internalType": "string",
          "name": "_golonganDarah",
          "type": "string"
        },
        {
          "internalType": "string",
          "name": "_tanggalLahir",
          "type": "string"
        },
        {
          "internalType": "string",
          "name": "_gender",
          "type": "string"
        },
        {
          "internalType": "string",
          "name": "_alamat",
          "type": "string"
        },
        {
          "internalType": "string",
          "name": "_noTelepon",
          "type": "string"
        },
        {
          "internalType": "string",
          "name": "_email",
          "type": "string"
        },
        {
          "internalType": "string",
          "name": "_diagnosa",
          "type": "string"
        },
        {
          "internalType": "string",
          "name": "_foto",
          "type": "string"
        },
        {
          "internalType": "string",
          "name": "_catatan",
          "type": "string"
        }
      ],
      "name": "updateRekamMedis",
      "outputs": [],
      "stateMutability": "nonpayable",
      "type": "function"
    },
    {
      "inputs": [
        {
          "internalType": "uint256",
          "name": "_id",
          "type": "uint256"
        }
      ],
      "name": "getRekamMedisVersions",
      "outputs": [
        {
          "components": [
            {
              "internalType": "uint256",
              "name": "id",
              "type": "uint256"
            },
            {
              "internalType": "address",
              "name": "pasien",
              "type": "address"
            },
            {
              "internalType": "string",
              "name": "nama",
              "type": "string"
            },
            {
              "internalType": "uint256",
              "name": "umur",
              "type": "uint256"
            },
            {
              "internalType": "string",
              "name": "golonganDarah",
              "type": "string"
            },
            {
              "internalType": "string",
              "name": "tanggalLahir",
              "type": "string"
            },
            {
              "internalType": "string",
              "name": "gender",
              "type": "string"
            },
            {
              "internalType": "string",
              "name": "alamat",
              "type": "string"
            },
            {
              "internalType": "string",
              "name": "noTelepon",
              "type": "string"
            },
            {
              "internalType": "string",
              "name": "email",
              "type": "string"
            },
            {
              "internalType": "string",
              "name": "diagnosa",
              "type": "string"
            },
            {
              "internalType": "string",
              "name": "foto",
              "type": "string"
            },
            {
              "internalType": "string",
              "name": "catatan",
              "type": "string"
            },
            {
              "internalType": "bool",
              "name": "valid",
              "type": "bool"
            }
          ],
          "internalType": "struct RekamMedis.RekamMedisData[]",
          "name": "",
          "type": "tuple[]"
        }
      ],
      "stateMutability": "view",
      "type": "function",
      "constant": true
    },
    {
      "inputs": [
        {
          "internalType": "uint256",
          "name": "_id",
          "type": "uint256"
        }
      ],
      "name": "nonaktifkanRekamMedis",
      "outputs": [],
      "stateMutability": "nonpayable",
      "type": "function"
    }
  ],
  "bytecode": "0x6080806040523461003c57600080546001600160a01b03191673b0dc0bf642d339517438017fc185bb0f758a01d21790556133ae90816100428239f35b600080fdfe6080604052600436101561001257600080fd5b60003560e01c8062410cb314612b91578063010ef3b314612a50578063046bdbcc146129e2578063083d88241461299e578063107e202f146125f55780631132beb5146125b657806319e8f4051461240c57806327820851146123d45780632e2dd102146123b6578063334181f2146122f0578063350ee3fc146122855780633da055181461220a57806342699651146121c857806351887b67146121335780635c4c9348146120f4578063683700871461209957806368f5dc99146114af57806370419a8114611479578063704b6c02146114075780637d3e9db8146113e9578063932e0f6d14611339578063abf72abb146112f6578063c3c0fdea14611293578063c967ede8146111df578063d688780214610f17578063dd09a96814610e2f578063f7dc57141461017d5763f851a4401461014f57600080fd5b34610178576000366003190112610178576000546040516001600160a01b039091168152602090f35b600080fd5b3461017857610180366003190112610178576024356001600160401b038111610178576101ae903690600401612cd2565b6064356001600160401b038111610178576101cd903690600401612cd2565b6084356001600160401b038111610178576101ec903690600401612cd2565b9160a4356001600160401b0381116101785761020c903690600401612cd2565b9060c4356001600160401b0381116101785761022c903690600401612cd2565b60e4356001600160401b0381116101785761024b903690600401612cd2565b610104356001600160401b0381116101785761026b903690600401612cd2565b91610124356001600160401b0381116101785761028c903690600401612cd2565b94610144356001600160401b038111610178576102ad903690600401612cd2565b97610164356001600160401b038111610178576102ce903690600401612cd2565b97600435600052600660205260018060a01b036001604060002001541633600052600260205260ff6040600020541680610e18575b15610db5576103129033613115565b15610d5f576004356000526006602052604060002096600960205260406000208054600160401b8110156107dc5761034f91600182018155612f6a565b610d4957888103610c53575b508051906001600160401b0382116107dc5781906103898261038060028d0154612da5565b60028d01612ffb565b602090601f8311600114610be157600092610bd6575b50508160011b916000199060031b1c19161760028801555b60443560038801558051906001600160401b0382116107dc5781906103ec826103e360048c0154612da5565b60048c01612ffb565b602090601f8311600114610b6457600092610b59575b50508160011b916000199060031b1c19161760048701555b8051906001600160401b0382116107dc5781906104478261043e60058b0154612da5565b60058b01612ffb565b602090601f8311600114610ae757600092610adc575b50508160011b916000199060031b1c19161760058601555b8051906001600160401b0382116107dc5781906104a28261049960068a0154612da5565b60068a01612ffb565b602090601f8311600114610a6a57600092610a5f575b50508160011b916000199060031b1c19161760068501555b8051906001600160401b0382116107dc5781906104fd826104f46007890154612da5565b60078901612ffb565b602090601f83116001146109ed576000926109e2575b50508160011b916000199060031b1c19161760078401555b8051906001600160401b0382116107dc5781906105588261054f6008880154612da5565b60088801612ffb565b602090601f831160011461097057600092610965575b50508160011b916000199060031b1c19161760088301555b8051906001600160401b0382116107dc5781906105b3826105aa6009870154612da5565b60098701612ffb565b602090601f83116001146108f3576000926108e8575b50508160011b916000199060031b1c19161760098201555b81516001600160401b0381116107dc5761060b81610602600a850154612da5565b600a8501612ffb565b806020601f821160011461087b57600091610870575b508160011b916000199060031b1c191617600a8201555b83516001600160401b0381116107dc5761066281610659600b850154612da5565b600b8501612ffb565b6020601f82116001146107fd578190600c9495966000926107f2575b50508160011b916000199060031b1c191617600b8201555b01918051926001600160401b0384116107dc576106bd846106b78354612da5565b83612ffb565b602093601f811160011461074e579161073e918361073095947f2a3c8ca9ac6f36396c175111b8f04207d249d61d733222e37c97a5ed7cfa7e1397600091610743575b508160011b916000199060031b1c19161790555b6040519384936004358552606060208601526060850190612d28565b908382036040850152612d28565b0390a1005b905083015188610700565b601f1981168260005260206000209060005b8181106107c457508261073e94927f2a3c8ca9ac6f36396c175111b8f04207d249d61d733222e37c97a5ed7cfa7e1398610730989795600194106107ab575b5050811b019055610714565b85015160001960f88460031b161c19169055888061079f565b85880151835560209788019760019093019201610760565b634e487b7160e01b600052604160045260246000fd5b01519050868061067e565b600b830160005260206000209560005b601f19841681106108585750958291600c959697600194601f1981161061083f575b505050811b01600b820155610696565b015160001960f88460031b161c1916905586808061082f565b8282015188556001909701966020928301920161080d565b905083015186610621565b9150600a830160005260206000206000925b601f19831684106108d0576001935082601f198116106108b7575b5050811b01600a820155610638565b85015160001960f88460031b161c1916905586806108a8565b8581015182556020938401936001909201910161088d565b0151905086806105c9565b9250600984016000526020600020906000935b601f198416851061094a576001945083601f19811610610931575b505050811b0160098201556105e1565b015160001960f88460031b161c19169055868080610921565b81810151835560209485019460019093019290910190610906565b01519050878061056e565b9250600885016000526020600020906000935b601f19841685106109c7576001945083601f198116106109ae575b505050811b016008830155610586565b015160001960f88460031b161c1916905587808061099e565b81810151835560209485019460019093019290910190610983565b015190508880610513565b9250600786016000526020600020906000935b601f1984168510610a44576001945083601f19811610610a2b575b505050811b01600784015561052b565b015160001960f88460031b161c19169055888080610a1b565b81810151835560209485019460019093019290910190610a00565b0151905089806104b8565b9250600687016000526020600020906000935b601f1984168510610ac1576001945083601f19811610610aa8575b505050811b0160068501556104d0565b015160001960f88460031b161c19169055898080610a98565b81810151835560209485019460019093019290910190610a7d565b015190508a8061045d565b9250600588016000526020600020906000935b601f1984168510610b3e576001945083601f19811610610b25575b505050811b016005860155610475565b015160001960f88460031b161c191690558a8080610b15565b81810151835560209485019460019093019290910190610afa565b015190508b80610402565b9250600489016000526020600020906000935b601f1984168510610bbb576001945083601f19811610610ba2575b505050811b01600487015561041a565b015160001960f88460031b161c191690558b8080610b92565b81810151835560209485019460019093019290910190610b77565b015190508c8061039f565b925060028a016000526020600020906000935b601f1984168510610c38576001945083601f19811610610c1f575b505050811b0160028801556103b7565b015160001960f88460031b161c191690558c8080610c0f565b81810151835560209485019460019093019290910190610bf4565b610d4390895481556001810160018060a01b0360018c0154166001600160601b0360a01b825416179055610c8d60028b01600283016132a0565b60038a01546003820155610ca760048b01600483016132a0565b610cb760058b01600583016132a0565b610cc760068b01600683016132a0565b610cd760078b01600783016132a0565b610ce760088b01600883016132a0565b610cf760098b01600983016132a0565b610d07600a8b01600a83016132a0565b610d17600b8b01600b83016132a0565b610d27600c8b01600c83016132a0565b600d60ff818c01541691019060ff801983541691151516179055565b8b61035b565b634e487b7160e01b600052600060045260246000fd5b60405162461bcd60e51b815260206004820152602860248201527f446f6b74657220746964616b2064692d61737369676e20756e74756b2070617360448201526734b2b71034b7349760c11b6064820152608490fd5b60405162461bcd60e51b815260206004820152603560248201527f48616e796120646f6b74657220616b7469662079616e672062697361206d656d6044820152743832b93130b93ab4903932b5b0b69036b2b234b99760591b6064820152608490fd5b50600160205260ff60016040600020015416610303565b34610178576040366003190112610178576024356004356000526009602052604060002090815481101561017857610e6691612f6a565b50805460018201546001600160a01b031691610f1390610e8860028201612ddf565b906003810154610e9a60048301612ddf565b610ea660058401612ddf565b610eb260068501612ddf565b610ebe60078601612ddf565b610eca60088701612ddf565b91610ed760098801612ddf565b93610ee4600a8901612ddf565b95610ef1600b8a01612ddf565b9760ff600d610f02600c8d01612ddf565b9b0154169a6040519e8f9e8f612e85565b0390f35b346101785760208060031936011261017857600435600052600990818152604060002080546001600160401b0381116107dc579160405192600594610f608383881b0186612cb1565b81855260009384528284208386019491855b8484106110df575050505050604051928184019082855251809152604081818601961b85010192916000955b828710610fab5785850386f35b909192938280600192603f1989820301855287519081518152848060a01b038383015116838201526110c26110ae61109a61108661107261105e61104c61103961102661100960408c015160408c6101c091829101528c0190612d28565b6060808d0151908c01526080808d0151908c8303908d0152612d28565b60a0808c0151908b8303908c0152612d28565b60c0808b0151908a8303908b0152612d28565b60e089015188820360e08a0152612d28565b610100808901519088830390890152612d28565b610120808801519087830390880152612d28565b610140808701519086830390870152612d28565b610160808601519085830390860152612d28565b610180808501519084830390850152612d28565b916101a08091015115159101529601920196019592919092610f9e565b600e8660019260409a989a516110f481612c7a565b86548152848060a01b0385880154168382015261111360028801612ddf565b60408201526003870154606082015261112e60048801612ddf565b608082015261113e8d8801612ddf565b60a082015261114f60068801612ddf565b60c082015261116060078801612ddf565b60e082015261117160088801612ddf565b610100820152611182868801612ddf565b610120820152611194600a8801612ddf565b6101408201526111a6600b8801612ddf565b6101608201526111b8600c8801612ddf565b61018082015260ff600d8801541615156101a0820152815201930193019291969496610f72565b3461017857602080600319360112610178576001600160a01b03611201612be9565b1660005260078152604060002060405190818382549182815201908192600052846000209060005b8682821061127f57868661123f82880383612cb1565b604051928392818401908285525180915260408401929160005b82811061126857505050500390f35b835185528695509381019392810192600101611259565b835485529093019260019283019201611229565b34610178576020366003190112610178576001600160a01b036112b4612be9565b1660005260016020526112ea604060002060ff60016112d283612ddf565b92015416604051928392604084526040840190612d28565b90151560208301520390f35b34610178576020366003190112610178576004356000908152600660205260409020805460018201546001600160a01b031691610f1390610e8860028201612ddf565b3461017857604036600319011261017857611352612be9565b6024359081151591828103610178577f3dcd68c14f5f191f12b3b56bf35d5d7eb22447e9ec685290967b4558822ca98a926113dc60409360018060a01b03906113a082600054163314612f86565b16928360005260026020526113bb60ff8660002054166130a4565b836000526001602052600185600020019060ff801983541691151516179055565b82519182526020820152a1005b34610178576000366003190112610178576020600454604051908152f35b34610178576020366003190112610178577f4d644268affe3d5bee1f2f5cb981613ce82c79f04442f0d58c544d9cd09b2f8d6020611443612be9565b600054906001600160a01b039061145d3383851614612f86565b1680916001600160601b0360a01b1617600055604051908152a1005b346101785760403660031901126101785760206114a5611497612be9565b61149f612bff565b90613115565b6040519015158152f35b3461017857610180366003190112610178576114c9612be9565b6024356001600160401b038111610178576114e8903690600401612cd2565b906064356001600160401b03811161017857611508903690600401612cd2565b916084356001600160401b03811161017857611528903690600401612cd2565b9260a4356001600160401b03811161017857611548903690600401612cd2565b9360c4356001600160401b03811161017857611568903690600401612cd2565b9460e4356001600160401b03811161017857611588903690600401612cd2565b610104356001600160401b038111610178576115a8903690600401612cd2565b90610124356001600160401b038111610178576115c9903690600401612cd2565b97610144356001600160401b038111610178576115ea903690600401612cd2565b93610164356001600160401b0381116101785761160b903690600401612cd2565b956001600160a01b038a163303612039576116276008546130f0565b9788600855604051996116398b612c7a565b898b5260018060a01b038c1660208c015260408b015260443560608b015260808a015260a089015260c088015260e08701526101008601526101208501528561014085015261016084015261018083015260016101a08301526000526006602052604060002090805182556001820160018060a01b036020830151166001600160601b0360a01b82541617905560408101518051906001600160401b0382116107dc5781906116f8826116ef6002880154612da5565b60028801612ffb565b602090601f8311600114611fc757600092611fbc575b50508160011b916000199060031b1c19161760028301555b6060810151600383015560808101518051906001600160401b0382116107dc578190611762826117596004880154612da5565b60048801612ffb565b602090601f8311600114611f4a57600092611f3f575b50508160011b916000199060031b1c19161760048301555b60a08101518051906001600160401b0382116107dc5781906117c2826117b96005880154612da5565b60058801612ffb565b602090601f8311600114611ecd57600092611ec2575b50508160011b916000199060031b1c19161760058301555b60c08101518051906001600160401b0382116107dc578190611822826118196006880154612da5565b60068801612ffb565b602090601f8311600114611e5057600092611e45575b50508160011b916000199060031b1c19161760068301555b60e08101518051906001600160401b0382116107dc578190611882826118796007880154612da5565b60078801612ffb565b602090601f8311600114611dd357600092611dc8575b50508160011b916000199060031b1c19161760078301555b6101008101518051906001600160401b0382116107dc5781906118da8261054f6008880154612da5565b602090601f8311600114611d5657600092611d4b575b50508160011b916000199060031b1c19161760088301555b6101208101518051906001600160401b0382116107dc57819061193b826119326009880154612da5565b60098801612ffb565b602090601f8311600114611cd957600092611cce575b50508160011b916000199060031b1c19161760098301555b6101408101518051906001600160401b0382116107dc57819061199c82611993600a880154612da5565b600a8801612ffb565b602090601f8311600114611c5c57600092611c51575b50508160011b916000199060031b1c191617600a8301555b6101608101518051906001600160401b0382116107dc5781906119fd826119f4600b880154612da5565b600b8801612ffb565b602090601f8311600114611bdf57600092611bd4575b50508160011b916000199060031b1c191617600b8301555b600c82016101808201518051906001600160401b0382116107dc57611a5a82611a548554612da5565b85612ffb565b602090601f8311600114611b615792826101a093611aab979693600d96600092611b56575b50508160011b916000199060031b1c19161790555b0151151591019060ff801983541691151516179055565b6001600160a01b038116600090815260076020526040902060085481549391600160401b8510156107dc5784611b079160017f8647b41d1ffdc302f876f0e70e0c442d110a3c8bad284218f99616149394c99797018155612c62565b819291549060031b91821b91600019901b1916179055611b4a60085491604051938493845260018060a01b03166020840152608060408401526080830190612d28565b600160608301520390a1005b015190508a80611a7f565b90601f198316918460005260206000209260005b818110611bbc575093611aab979693600d9693600193836101a09810611ba3575b505050811b019055611a94565b015160001960f88460031b161c191690558a8080611b96565b92936020600181928786015181550195019301611b75565b015190508680611a13565b9250600b85016000526020600020906000935b601f1984168510611c36576001945083601f19811610611c1d575b505050811b01600b830155611a2b565b015160001960f88460031b161c19169055868080611c0d565b81810151835560209485019460019093019290910190611bf2565b0151905086806119b2565b9250600a85016000526020600020906000935b601f1984168510611cb3576001945083601f19811610611c9a575b505050811b01600a8301556119ca565b015160001960f88460031b161c19169055868080611c8a565b81810151835560209485019460019093019290910190611c6f565b015190508680611951565b9250600985016000526020600020906000935b601f1984168510611d30576001945083601f19811610611d17575b505050811b016009830155611969565b015160001960f88460031b161c19169055868080611d07565b81810151835560209485019460019093019290910190611cec565b0151905086806118f0565b9250600885016000526020600020906000935b601f1984168510611dad576001945083601f19811610611d94575b505050811b016008830155611908565b015160001960f88460031b161c19169055868080611d84565b81810151835560209485019460019093019290910190611d69565b015190508680611898565b9250600785016000526020600020906000935b601f1984168510611e2a576001945083601f19811610611e11575b505050811b0160078301556118b0565b015160001960f88460031b161c19169055868080611e01565b81810151835560209485019460019093019290910190611de6565b015190508680611838565b9250600685016000526020600020906000935b601f1984168510611ea7576001945083601f19811610611e8e575b505050811b016006830155611850565b015160001960f88460031b161c19169055868080611e7e565b81810151835560209485019460019093019290910190611e63565b0151905086806117d8565b9250600585016000526020600020906000935b601f1984168510611f24576001945083601f19811610611f0b575b505050811b0160058301556117f0565b015160001960f88460031b161c19169055868080611efb565b81810151835560209485019460019093019290910190611ee0565b015190508680611778565b9250600485016000526020600020906000935b601f1984168510611fa1576001945083601f19811610611f88575b505050811b016004830155611790565b015160001960f88460031b161c19169055868080611f78565b81810151835560209485019460019093019290910190611f5d565b01519050868061170e565b9250600285016000526020600020906000935b601f198416851061201e576001945083601f19811610612005575b505050811b016002830155611726565b015160001960f88460031b161c19169055868080611ff5565b81810151835560209485019460019093019290910190611fda565b60405162461bcd60e51b815260206004820152603260248201527f48616e79612070617369656e2079616e672062697361206d656d62756174207260448201527132b5b0b69036b2b234b99036b2b932b5b09760711b6064820152608490fd5b34610178576020366003190112610178576004356005548110156101785760056000527f036b6384b5eca791c62761152d0c79bb0604c104a5fb6f4eb0703f3154bb3db001546040516001600160a01b039091168152602090f35b34610178576020366003190112610178576001600160a01b03612115612be9565b166000526002602052602060ff604060002054166040519015158152f35b34610178576000366003190112610178576040518060055480825282602080930160056000527f036b6384b5eca791c62761152d0c79bb0604c104a5fb6f4eb0703f3154bb3db09260005b858282106121a95750505061219592500383612cb1565b610f13604051928284938452830190612d68565b85546001600160a01b031684526001958601958895509301920161217e565b3461017857602036600319011261017857600435600454811015610178576121f1602091612c15565b905460405160039290921b1c6001600160a01b03168152f35b34610178576020366003190112610178576001600160a01b0361222b612be9565b1660005260016020526122706040600020610f1360ff60018301541661225c600261225585612ddf565b940161317d565b604051948594606086526060860190612d28565b91151560208501528382036040850152612d68565b34610178576020366003190112610178576001600160a01b036122a6612be9565b168060005260026020526122c160ff604060002054166130a4565b6000526001602052610f136122dc600260406000200161317d565b604051918291602083526020830190612d68565b346101785760003660031901126101785733600052600360205260ff60406000205416612365573360005260036020526040600020600160ff1982541617905561233933613040565b7f4b58b2df530813522df235c26662546cdf2164ef8e0f7c6d18f415d15da470586020604051338152a1005b60405162461bcd60e51b8152602060048201526024808201527f416e64612073756461682074657264616674617220736562616761692050617360448201526334b2b71760e11b6064820152608490fd5b34610178576000366003190112610178576020600854604051908152f35b3461017857602036600319011261017857610f136123f86123f3612be9565b6131d5565b604051918291602083526020830190612d28565b3461017857604036600319011261017857612425612be9565b61242d612bff565b9060018060a01b03809161244682600054163314612f86565b1680600052816020936002855261246460ff604060002054166130a4565b168060005260039384815260ff60406000205416156125725782600052600181526002604060002001946000948654955b8681106124f85750600160401b8610156107dc576124dc867fd9a2627959a7f46a8b96c10424cdae1f1b65151551cd206b119aca54c0a86a5a986001604099018155612c62565b81939154911b9185831b921b19161790558351928352820152a1005b8482612504838b612c62565b905490861b1c161461251e57612519906130f0565b612495565b60405162461bcd60e51b815260048101859052602660248201527f50617369656e20737564616820646974756761736b616e206b6520646f6b7465604482015265391034b7349760d11b6064820152608490fd5b6064906040519062461bcd60e51b82526004820152601760248201527f50617369656e20746964616b207465726461667461722e0000000000000000006044820152fd5b34610178576020366003190112610178576001600160a01b036125d7612be9565b166000526003602052602060ff604060002054166040519015158152f35b346101785760403660031901126101785761260e612be9565b6024356001600160401b0381116101785761262d903690600401612cd2565b61264260018060a01b03600054163314612f86565b6001600160a01b03821660009081526002602052604090205460ff16612959576001600160a01b03821660009081526003602052604090205460ff166129055760018060a01b03821660005260026020526040600020600160ff1982541617905560405191602083018381106001600160401b038211176107dc576040526000835260405192606084018481106001600160401b038211176107dc57604052828452602084019060018252604085015260018060a01b038216600052600160205260406000209084518051906001600160401b0382116107dc576127308261272a8654612da5565b86612ffb565b602090601f83116001146128925792826040959361278093600296600092612887575b50508160011b916000199060031b1c19161783555b511515600183019060ff801983541691151516179055565b01930151928351906001600160401b0382116107dc57600160401b948583116107dc57602090825484845580851061286a575b500190600052602060002060005b83811061284d5750505050600454928310156107dc576128088360017fc38147498c0c3f6433ae14d0586b30fef7b292e301be82700c6478971c423dce9501600455612c15565b81549060031b9060018060a01b038416821b9160018060a01b03901b191617905561073e60405192839260018060a01b03168352604060208401526040830190612d28565b82516001600160a01b0316818301556020909201916001016127c1565b612881908460005285846000209182019101612fe4565b876127b3565b015190508a80612753565b908460005260206000209160005b601f19851681106128ed575083612780936002969360019360409997601f198116106128d4575b505050811b018355612768565b015160001960f88460031b161c191690558a80806128c7565b919260206001819286850151815501940192016128a0565b60405162461bcd60e51b815260206004820152602660248201527f416c616d6174207375646168207465726461667461722073656261676169205060448201526530b9b4b2b71760d11b6064820152608490fd5b60405162461bcd60e51b815260206004820152601760248201527f446f6b746572207375646168207465726461667461722e0000000000000000006044820152606490fd5b34610178576020366003190112610178576129c460018060a01b03600054163314612f86565b6004356000908152600660205260409020600d01805460ff19169055005b3461017857602036600319011261017857600435600454811015612a0b576121f1602091612c15565b60405162461bcd60e51b815260206004820152601960248201527f496e64657820646f6b74657220746964616b2076616c69642e000000000000006044820152606490fd5b346101785760208060031936011261017857612a6a612be9565b9060018060a01b03612a8181600054163314612f86565b8216806000526002825260ff60406000205416612b3d57806000526003825260ff60406000205416612af857612aef7f4b58b2df530813522df235c26662546cdf2164ef8e0f7c6d18f415d15da470589382600052600384526040600020600160ff19825416179055613040565b604051908152a1005b60405162461bcd60e51b815260048101839052601760248201527f50617369656e207375646168207465726461667461722e0000000000000000006044820152606490fd5b60405162461bcd60e51b815260048101839052602660248201527f416c616d6174207375646168207465726461667461722073656261676169204460448201526537b5ba32b91760d11b6064820152608490fd5b3461017857604036600319011261017857612baa612be9565b6001600160a01b031660009081526007602052604090208054602435919082101561017857602091612bdb91612c62565b90546040519160031b1c8152f35b600435906001600160a01b038216820361017857565b602435906001600160a01b038216820361017857565b600454811015612c4c5760046000527f8a35acfbc15ff81a39ae7d344fd709f28e8600b4aa8c65c6b64bfe7fe36bd19b0190600090565b634e487b7160e01b600052603260045260246000fd5b8054821015612c4c5760005260206000200190600090565b6101c081019081106001600160401b038211176107dc57604052565b604081019081106001600160401b038211176107dc57604052565b90601f801991011681019081106001600160401b038211176107dc57604052565b81601f82011215610178578035906001600160401b0382116107dc5760405192612d06601f8401601f191660200185612cb1565b8284526020838301011161017857816000926020809301838601378301015290565b919082519283825260005b848110612d54575050826000602080949584010152601f8019910116010190565b602081830181015184830182015201612d33565b90815180825260208080930193019160005b828110612d88575050505090565b83516001600160a01b031685529381019392810192600101612d7a565b90600182811c92168015612dd5575b6020831014612dbf57565b634e487b7160e01b600052602260045260246000fd5b91607f1691612db4565b9060405191826000825492612df384612da5565b908184526001948581169081600014612e625750600114612e1f575b5050612e1d92500383612cb1565b565b9093915060005260209081600020936000915b818310612e4a575050612e1d93508201013880612e0f565b85548884018501529485019487945091830191612e32565b915050612e1d94506020925060ff191682840152151560051b8201013880612e0f565b9d9e9d6101a09c98612f09829f9c9699612efb612f629f9a612eed612f539f989d612f359c612f449f612f269c612eda91612f179c8c5260018060a01b031660208c01526101c08060408d01528b0190612d28565b9160608a015288820360808a0152612d28565b9086820360a0880152612d28565b9084820360c0860152612d28565b9160e0818403910152612d28565b8c81036101008e015290612d28565b908a82036101208c0152612d28565b908882036101408a0152612d28565b90868203610160880152612d28565b90848203610180860152612d28565b931515910152565b8054821015612c4c57600052600e602060002091020190600090565b15612f8d57565b60405162461bcd60e51b815260206004820152602960248201527f48616e79612061646d696e2079616e672062697361206d656c616b756b616e2060448201526830b5b9b49034b7349760b91b6064820152608490fd5b818110612fef575050565b60008155600101612fe4565b9190601f811161300a57505050565b612e1d926000526020600020906020601f840160051c83019310613036575b601f0160051c0190612fe4565b9091508190613029565b600554600160401b8110156107dc576001810180600555811015612c4c5760056000527f036b6384b5eca791c62761152d0c79bb0604c104a5fb6f4eb0703f3154bb3db00180546001600160a01b0319166001600160a01b03909216919091179055565b156130ab57565b60405162461bcd60e51b815260206004820152601760248201527f446f6b74657220746964616b207465726461667461722e0000000000000000006044820152606490fd5b60001981146130ff5760010190565b634e487b7160e01b600052601160045260246000fd5b60018060a01b038091166000526001908160205260026040600020016000938154945b85811061314a57505050505050600090565b836131558285612c62565b9190548185169260031b1c16146131745761316f906130f0565b613138565b50505050905090565b9060405191828154918282526020928383019160005283600020936000905b8282106131b257505050612e1d92500383612cb1565b85546001600160a01b03168452600195860195889550938101939091019061319c565b6000546001600160a01b039182169116811461327e5780600052600260205260ff6040600020541661325b57600052600360205260ff604060002054166132395760405161322281612c96565b60078152662ab735b737bbb760c91b602082015290565b60405161324581612c96565b60068152652830b9b4b2b760d11b602082015290565b5060405161326881612c96565b60068152652237b5ba32b960d11b602082015290565b5060405161328b81612c96565b600581526420b236b4b760d91b602082015290565b90808214613374576132b28154612da5565b906001600160401b0382116107dc5781906132d18261272a8654612da5565b600090601f8311600114613308576000926132fd575b50508160011b916000199060031b1c1916179055565b0154905038806132e7565b81526020808220858352818320935090601f1985169083905b82821061335b575050908460019594939210613342575b505050811b019055565b015460001960f88460031b161c19169055388080613338565b8495819295850154815560018091019601940190613321565b505056fea26469706673582212200190edefb300020c5f7c32131ee5dd42950768af418bfab10c9e7ca5e1cdc58c64736f6c63430008130033",
  "immutableReferences": {},
  "source": "// SPDX-License-Identifier: MIT\r\npragma solidity >=0.4.22 <0.9.0;\r\n\r\ncontract RekamMedis {\r\n    address public admin;\r\n\r\n    struct Dokter {\r\n        string nama;\r\n        bool aktif;\r\n        address[] assignedPasien;\r\n    }\r\n\r\n    mapping(address => Dokter) public dataDokter;\r\n    mapping(address => bool) public isDokter;\r\n    mapping(address => bool) public isPasien;\r\n\r\n    address[] public daftarDokter; // daftar semua alamat dokter\r\n    address[] public daftarPasien; // daftar semua alamat pasien\r\n\r\n    struct RekamMedisData {\r\n        uint id;\r\n        address pasien;\r\n        string nama;\r\n        uint umur;\r\n        string golonganDarah;\r\n        string tanggalLahir;\r\n        string gender;\r\n        string alamat;\r\n        string noTelepon;\r\n        string email;\r\n        string diagnosa;\r\n        string foto;\r\n        string catatan;\r\n        bool valid;\r\n    }\r\n\r\n    mapping(uint => RekamMedisData) public rekamMedis;\r\n    mapping(address => uint[]) public rekamMedisByPasien;\r\n\r\n    uint public rekamMedisCount;\r\n    // Versi history rekam medis\r\n    mapping(uint => RekamMedisData[]) public rekamMedisVersions;\r\n    event RekamMedisDitambahkan(\r\n        uint id,\r\n        address pasien,\r\n        string diagnosa,\r\n        bool valid\r\n    );\r\n    event RekamMedisDiperbarui(uint id, string diagnosa, string catatan);\r\n    event AdminDitetapkan(address newAdmin);\r\n    event DokterTerdaftar(address dokter, string nama);\r\n    event DokterStatusDiubah(address dokter, bool aktif);\r\n    event PasienDiassignKeDokter(address dokter, address pasien);\r\n    event PasienTerdaftar(address pasien);\r\n\r\n    constructor() {\r\n        admin = 0xB0dC0Bf642d339517438017Fc185Bb0f758A01D2;\r\n    }\r\n\r\n    modifier hanyaAdmin() {\r\n        require(\r\n            msg.sender == admin,\r\n            \"Hanya admin yang bisa melakukan aksi ini.\"\r\n        );\r\n        _;\r\n    }\r\n\r\n    modifier hanyaDokterAktif() {\r\n        require(\r\n            isDokter[msg.sender] && dataDokter[msg.sender].aktif,\r\n            \"Hanya dokter aktif yang bisa memperbarui rekam medis.\"\r\n        );\r\n        _;\r\n    }\r\n\r\n    modifier hanyaDokterAktifUntukPasien(address _pasien) {\r\n        require(\r\n            isDokter[msg.sender] && dataDokter[msg.sender].aktif,\r\n            \"Hanya dokter aktif yang bisa memperbarui rekam medis.\"\r\n        );\r\n        require(\r\n            isPasienAssignedToDokter(msg.sender, _pasien),\r\n            \"Dokter tidak di-assign untuk pasien ini.\"\r\n        );\r\n        _;\r\n    }\r\n\r\n    modifier hanyaPasien(address pasien) {\r\n        require(\r\n            msg.sender == pasien,\r\n            \"Hanya pasien yang bisa membuat rekam medis mereka.\"\r\n        );\r\n        _;\r\n    }\r\n\r\n    // Register dokter baru dengan nama dan aktifkan langsung\r\n    function registerDokter(\r\n        address _dokter,\r\n        string memory _nama\r\n    ) public hanyaAdmin {\r\n        require(!isDokter[_dokter], \"Dokter sudah terdaftar.\");\r\n        require(!isPasien[_dokter], \"Alamat sudah terdaftar sebagai Pasien.\");\r\n        isDokter[_dokter] = true;\r\n        dataDokter[_dokter] = Dokter({\r\n            nama: _nama,\r\n            aktif: true,\r\n            assignedPasien: new address[](0)\r\n        });\r\n        daftarDokter.push(_dokter);\r\n        emit DokterTerdaftar(_dokter, _nama);\r\n    }\r\n\r\n    // Ambil total dokter terdaftar\r\n    function totalDokter() public view returns (uint) {\r\n        return daftarDokter.length;\r\n    }\r\n\r\n    // Ambil alamat dokter berdasarkan index\r\n    function getDokterByIndex(uint index) public view returns (address) {\r\n        require(index < daftarDokter.length, \"Index dokter tidak valid.\");\r\n        return daftarDokter[index];\r\n    }\r\n\r\n    // Set status dokter aktif/nonaktif\r\n    function setStatusDokter(address _dokter, bool _aktif) public hanyaAdmin {\r\n        require(isDokter[_dokter], \"Dokter tidak terdaftar.\");\r\n        dataDokter[_dokter].aktif = _aktif;\r\n        emit DokterStatusDiubah(_dokter, _aktif);\r\n    }\r\n\r\n    // Assign pasien ke dokter tertentu\r\n    function assignPasienToDokter(\r\n        address _dokter,\r\n        address _pasien\r\n    ) public hanyaAdmin {\r\n        require(isDokter[_dokter], \"Dokter tidak terdaftar.\");\r\n        require(isPasien[_pasien], \"Pasien tidak terdaftar.\");\r\n\r\n        address[] storage pasienDokter = dataDokter[_dokter].assignedPasien;\r\n        for (uint i = 0; i < pasienDokter.length; i++) {\r\n            if (pasienDokter[i] == _pasien) {\r\n                revert(\"Pasien sudah ditugaskan ke dokter ini.\");\r\n            }\r\n        }\r\n        pasienDokter.push(_pasien);\r\n        emit PasienDiassignKeDokter(_dokter, _pasien);\r\n    }\r\n\r\n    // Cek apakah pasien sudah diassign ke dokter\r\n    function isPasienAssignedToDokter(\r\n        address _dokter,\r\n        address _pasien\r\n    ) public view returns (bool) {\r\n        address[] storage pasienList = dataDokter[_dokter].assignedPasien;\r\n        for (uint i = 0; i < pasienList.length; i++) {\r\n            if (pasienList[i] == _pasien) {\r\n                return true;\r\n            }\r\n        }\r\n        return false;\r\n    }\r\n\r\n    // Ambil daftar pasien yang diassign ke dokter tertentu\r\n    function getAssignedPasienByDokter(\r\n        address _dokter\r\n    ) public view returns (address[] memory) {\r\n        require(isDokter[_dokter], \"Dokter tidak terdaftar.\");\r\n        return dataDokter[_dokter].assignedPasien;\r\n    }\r\n\r\n    // Get data dokter\r\n    function getDokter(\r\n        address _dokter\r\n    )\r\n        public\r\n        view\r\n        returns (string memory nama, bool aktif, address[] memory pasien)\r\n    {\r\n        Dokter storage d = dataDokter[_dokter];\r\n        return (d.nama, d.aktif, d.assignedPasien);\r\n    }\r\n\r\n    // Register pasien oleh admin\r\n    function registerPasien(address _pasien) public hanyaAdmin {\r\n        require(!isDokter[_pasien], \"Alamat sudah terdaftar sebagai Dokter.\");\r\n        require(!isPasien[_pasien], \"Pasien sudah terdaftar.\");\r\n        isPasien[_pasien] = true;\r\n        daftarPasien.push(_pasien);\r\n        emit PasienTerdaftar(_pasien);\r\n    }\r\n\r\n    // Self register pasien\r\n    function selfRegisterPasien() public {\r\n        require(!isPasien[msg.sender], \"Anda sudah terdaftar sebagai Pasien.\");\r\n        isPasien[msg.sender] = true;\r\n        daftarPasien.push(msg.sender);\r\n        emit PasienTerdaftar(msg.sender);\r\n    }\r\n\r\n    // Get role user\r\n    function getUserRole(address _user) public view returns (string memory) {\r\n        if (_user == admin) return \"Admin\";\r\n        if (isDokter[_user]) return \"Dokter\";\r\n        if (isPasien[_user]) return \"Pasien\";\r\n        return \"Unknown\";\r\n    }\r\n\r\n    // Ambil daftar rekam medis milik pasien\r\n    function getRekamMedisIdsByPasien(\r\n        address pasien\r\n    ) public view returns (uint[] memory) {\r\n        return rekamMedisByPasien[pasien];\r\n    }\r\n\r\n    // Ambil daftar semua pasien\r\n    function getDaftarPasien() public view returns (address[] memory) {\r\n        return daftarPasien;\r\n    }\r\n\r\n    // Set admin baru\r\n    function setAdmin(address _newAdmin) public hanyaAdmin {\r\n        admin = _newAdmin;\r\n        emit AdminDitetapkan(_newAdmin);\r\n    }\r\n\r\n    // Tambah rekam medis pasien\r\n    function tambahRekamMedis(\r\n        address _pasien,\r\n        string memory _nama,\r\n        uint _umur,\r\n        string memory _golonganDarah,\r\n        string memory _tanggalLahir,\r\n        string memory _gender,\r\n        string memory _alamat,\r\n        string memory _noTelepon,\r\n        string memory _email,\r\n        string memory _diagnosa,\r\n        string memory _foto,\r\n        string memory _catatan\r\n    ) public hanyaPasien(_pasien) {\r\n        rekamMedisCount++;\r\n        rekamMedis[rekamMedisCount] = RekamMedisData(\r\n            rekamMedisCount,\r\n            _pasien,\r\n            _nama,\r\n            _umur,\r\n            _golonganDarah,\r\n            _tanggalLahir,\r\n            _gender,\r\n            _alamat,\r\n            _noTelepon,\r\n            _email,\r\n            _diagnosa,\r\n            _foto,\r\n            _catatan,\r\n            true\r\n        );\r\n        rekamMedisByPasien[_pasien].push(rekamMedisCount);\r\n        emit RekamMedisDitambahkan(rekamMedisCount, _pasien, _diagnosa, true);\r\n    }\r\n\r\n    // Update rekam medis dokter aktif\r\n    function updateRekamMedis(\r\n        uint _id,\r\n        string memory _nama,\r\n        uint _umur,\r\n        string memory _golonganDarah,\r\n        string memory _tanggalLahir,\r\n        string memory _gender,\r\n        string memory _alamat,\r\n        string memory _noTelepon,\r\n        string memory _email,\r\n        string memory _diagnosa,\r\n        string memory _foto,\r\n        string memory _catatan\r\n    ) public hanyaDokterAktifUntukPasien(rekamMedis[_id].pasien) {\r\n        RekamMedisData storage rekam = rekamMedis[_id];\r\n        // Simpan versi lama ke array versi\r\n        rekamMedisVersions[_id].push(rekam);\r\n\r\n        // Update data rekam medis\r\n        rekam.nama = _nama;\r\n        rekam.umur = _umur;\r\n        rekam.golonganDarah = _golonganDarah;\r\n        rekam.tanggalLahir = _tanggalLahir;\r\n        rekam.gender = _gender;\r\n        rekam.alamat = _alamat;\r\n        rekam.noTelepon = _noTelepon;\r\n        rekam.email = _email;\r\n        rekam.diagnosa = _diagnosa;\r\n        rekam.foto = _foto;\r\n        rekam.catatan = _catatan;\r\n        emit RekamMedisDiperbarui(_id, _diagnosa, _catatan);\r\n    }\r\n\r\n    // Fungsi untuk ambil versi rekam medis\r\n    function getRekamMedisVersions(\r\n        uint _id\r\n    ) public view returns (RekamMedisData[] memory) {\r\n        return rekamMedisVersions[_id];\r\n    }\r\n\r\n    // Nonaktifkan rekam medis (admin)\r\n    function nonaktifkanRekamMedis(uint _id) public hanyaAdmin {\r\n        rekamMedis[_id].valid = false;\r\n    }\r\n}\r\n",
  "sourcePath": "D:\\TA\\Rekam_Medis_Blockchain\\rekam_medis_backend\\contracts\\RekamMedis.sol",
  "compiler": {
    "name": "solc",
    "version": "0.8.19+commit.7dd6d404.Emscripten.clang"
  },
  "schemaVersion": "3.4.16",
  "updatedAt": "2025-05-20T03:43:23.272Z",
  "networkType": "ethereum",
  "devdoc": {
    "kind": "dev",
    "methods": {},
    "version": 1
  },
  "userdoc": {
    "kind": "user",
    "methods": {},
    "version": 1
  }
}