{
  "contractName": "RekamMedis",
  "abi": [
    {
      "inputs": [],
      "stateMutability": "nonpayable",
      "type": "constructor"
    },
    {
      "anonymous": false,
      "inputs": [
        {
          "indexed": false,
          "internalType": "address",
          "name": "newAdmin",
          "type": "address"
        }
      ],
      "name": "AdminDitetapkan",
      "type": "event"
    },
    {
      "anonymous": false,
      "inputs": [
        {
          "indexed": false,
          "internalType": "address",
          "name": "dokter",
          "type": "address"
        },
        {
          "indexed": false,
          "internalType": "bool",
          "name": "aktif",
          "type": "bool"
        }
      ],
      "name": "DokterStatusDiubah",
      "type": "event"
    },
    {
      "anonymous": false,
      "inputs": [
        {
          "indexed": false,
          "internalType": "address",
          "name": "dokter",
          "type": "address"
        },
        {
          "indexed": false,
          "internalType": "string",
          "name": "nama",
          "type": "string"
        },
        {
          "indexed": false,
          "internalType": "string",
          "name": "spesialisasi",
          "type": "string"
        },
        {
          "indexed": false,
          "internalType": "string",
          "name": "nomorLisensi",
          "type": "string"
        }
      ],
      "name": "DokterTerdaftar",
      "type": "event"
    },
    {
      "anonymous": false,
      "inputs": [
        {
          "indexed": false,
          "internalType": "address",
          "name": "dokter",
          "type": "address"
        },
        {
          "indexed": false,
          "internalType": "address",
          "name": "pasien",
          "type": "address"
        }
      ],
      "name": "PasienDiassignKeDokter",
      "type": "event"
    },
    {
      "anonymous": false,
      "inputs": [
        {
          "indexed": false,
          "internalType": "address",
          "name": "pasien",
          "type": "address"
        },
        {
          "indexed": false,
          "internalType": "string",
          "name": "nama",
          "type": "string"
        }
      ],
      "name": "PasienTerdaftar",
      "type": "event"
    },
    {
      "anonymous": false,
      "inputs": [
        {
          "indexed": false,
          "internalType": "uint256",
          "name": "id",
          "type": "uint256"
        },
        {
          "indexed": false,
          "internalType": "string",
          "name": "diagnosa",
          "type": "string"
        },
        {
          "indexed": false,
          "internalType": "string",
          "name": "catatan",
          "type": "string"
        }
      ],
      "name": "RekamMedisDiperbarui",
      "type": "event"
    },
    {
      "anonymous": false,
      "inputs": [
        {
          "indexed": false,
          "internalType": "uint256",
          "name": "id",
          "type": "uint256"
        },
        {
          "indexed": false,
          "internalType": "address",
          "name": "pasien",
          "type": "address"
        },
        {
          "indexed": false,
          "internalType": "string",
          "name": "diagnosa",
          "type": "string"
        },
        {
          "indexed": false,
          "internalType": "bool",
          "name": "valid",
          "type": "bool"
        }
      ],
      "name": "RekamMedisDitambahkan",
      "type": "event"
    },
    {
      "inputs": [],
      "name": "admin",
      "outputs": [
        {
          "internalType": "address",
          "name": "",
          "type": "address"
        }
      ],
      "stateMutability": "view",
      "type": "function",
      "constant": true
    },
    {
      "inputs": [
        {
          "internalType": "uint256",
          "name": "",
          "type": "uint256"
        }
      ],
      "name": "daftarDokter",
      "outputs": [
        {
          "internalType": "address",
          "name": "",
          "type": "address"
        }
      ],
      "stateMutability": "view",
      "type": "function",
      "constant": true
    },
    {
      "inputs": [
        {
          "internalType": "uint256",
          "name": "",
          "type": "uint256"
        }
      ],
      "name": "daftarPasien",
      "outputs": [
        {
          "internalType": "address",
          "name": "",
          "type": "address"
        }
      ],
      "stateMutability": "view",
      "type": "function",
      "constant": true
    },
    {
      "inputs": [
        {
          "internalType": "address",
          "name": "",
          "type": "address"
        }
      ],
      "name": "dataDokter",
      "outputs": [
        {
          "internalType": "string",
          "name": "nama",
          "type": "string"
        },
        {
          "internalType": "string",
          "name": "spesialisasi",
          "type": "string"
        },
        {
          "internalType": "string",
          "name": "nomorLisensi",
          "type": "string"
        },
        {
          "internalType": "bool",
          "name": "aktif",
          "type": "bool"
        }
      ],
      "stateMutability": "view",
      "type": "function",
      "constant": true
    },
    {
      "inputs": [
        {
          "internalType": "address",
          "name": "",
          "type": "address"
        }
      ],
      "name": "dataPasien",
      "outputs": [
        {
          "internalType": "string",
          "name": "nama",
          "type": "string"
        },
        {
          "internalType": "uint256",
          "name": "umur",
          "type": "uint256"
        },
        {
          "internalType": "string",
          "name": "golonganDarah",
          "type": "string"
        },
        {
          "internalType": "string",
          "name": "tanggalLahir",
          "type": "string"
        },
        {
          "internalType": "string",
          "name": "gender",
          "type": "string"
        },
        {
          "internalType": "string",
          "name": "alamat",
          "type": "string"
        },
        {
          "internalType": "string",
          "name": "noTelepon",
          "type": "string"
        },
        {
          "internalType": "string",
          "name": "email",
          "type": "string"
        },
        {
          "internalType": "bool",
          "name": "exists",
          "type": "bool"
        }
      ],
      "stateMutability": "view",
      "type": "function",
      "constant": true
    },
    {
      "inputs": [
        {
          "internalType": "address",
          "name": "",
          "type": "address"
        }
      ],
      "name": "isDokter",
      "outputs": [
        {
          "internalType": "bool",
          "name": "",
          "type": "bool"
        }
      ],
      "stateMutability": "view",
      "type": "function",
      "constant": true
    },
    {
      "inputs": [
        {
          "internalType": "address",
          "name": "",
          "type": "address"
        }
      ],
      "name": "isPasien",
      "outputs": [
        {
          "internalType": "bool",
          "name": "",
          "type": "bool"
        }
      ],
      "stateMutability": "view",
      "type": "function",
      "constant": true
    },
    {
      "inputs": [
        {
          "internalType": "uint256",
          "name": "",
          "type": "uint256"
        }
      ],
      "name": "rekamMedis",
      "outputs": [
        {
          "internalType": "uint256",
          "name": "id",
          "type": "uint256"
        },
        {
          "internalType": "address",
          "name": "pasien",
          "type": "address"
        },
        {
          "internalType": "string",
          "name": "diagnosa",
          "type": "string"
        },
        {
          "internalType": "string",
          "name": "foto",
          "type": "string"
        },
        {
          "internalType": "string",
          "name": "catatan",
          "type": "string"
        },
        {
          "internalType": "bool",
          "name": "valid",
          "type": "bool"
        }
      ],
      "stateMutability": "view",
      "type": "function",
      "constant": true
    },
    {
      "inputs": [
        {
          "internalType": "address",
          "name": "",
          "type": "address"
        },
        {
          "internalType": "uint256",
          "name": "",
          "type": "uint256"
        }
      ],
      "name": "rekamMedisByPasien",
      "outputs": [
        {
          "internalType": "uint256",
          "name": "",
          "type": "uint256"
        }
      ],
      "stateMutability": "view",
      "type": "function",
      "constant": true
    },
    {
      "inputs": [],
      "name": "rekamMedisCount",
      "outputs": [
        {
          "internalType": "uint256",
          "name": "",
          "type": "uint256"
        }
      ],
      "stateMutability": "view",
      "type": "function",
      "constant": true
    },
    {
      "inputs": [
        {
          "internalType": "uint256",
          "name": "",
          "type": "uint256"
        },
        {
          "internalType": "uint256",
          "name": "",
          "type": "uint256"
        }
      ],
      "name": "rekamMedisVersions",
      "outputs": [
        {
          "internalType": "uint256",
          "name": "id",
          "type": "uint256"
        },
        {
          "internalType": "address",
          "name": "pasien",
          "type": "address"
        },
        {
          "internalType": "string",
          "name": "diagnosa",
          "type": "string"
        },
        {
          "internalType": "string",
          "name": "foto",
          "type": "string"
        },
        {
          "internalType": "string",
          "name": "catatan",
          "type": "string"
        },
        {
          "internalType": "bool",
          "name": "valid",
          "type": "bool"
        }
      ],
      "stateMutability": "view",
      "type": "function",
      "constant": true
    },
    {
      "inputs": [
        {
          "internalType": "address",
          "name": "_user",
          "type": "address"
        }
      ],
      "name": "getUserRole",
      "outputs": [
        {
          "internalType": "string",
          "name": "",
          "type": "string"
        }
      ],
      "stateMutability": "view",
      "type": "function",
      "constant": true
    },
    {
      "inputs": [
        {
          "internalType": "address",
          "name": "_dokter",
          "type": "address"
        },
        {
          "internalType": "string",
          "name": "_nama",
          "type": "string"
        },
        {
          "internalType": "string",
          "name": "_spesialisasi",
          "type": "string"
        },
        {
          "internalType": "string",
          "name": "_nomorLisensi",
          "type": "string"
        }
      ],
      "name": "registerDokter",
      "outputs": [],
      "stateMutability": "nonpayable",
      "type": "function"
    },
    {
      "inputs": [],
      "name": "totalDokter",
      "outputs": [
        {
          "internalType": "uint256",
          "name": "",
          "type": "uint256"
        }
      ],
      "stateMutability": "view",
      "type": "function",
      "constant": true
    },
    {
      "inputs": [
        {
          "internalType": "uint256",
          "name": "idx",
          "type": "uint256"
        }
      ],
      "name": "getDokterByIndex",
      "outputs": [
        {
          "internalType": "address",
          "name": "",
          "type": "address"
        }
      ],
      "stateMutability": "view",
      "type": "function",
      "constant": true
    },
    {
      "inputs": [
        {
          "internalType": "address",
          "name": "_dokter",
          "type": "address"
        },
        {
          "internalType": "bool",
          "name": "_aktif",
          "type": "bool"
        }
      ],
      "name": "setStatusDokter",
      "outputs": [],
      "stateMutability": "nonpayable",
      "type": "function"
    },
    {
      "inputs": [
        {
          "internalType": "address",
          "name": "_dokter",
          "type": "address"
        },
        {
          "internalType": "string",
          "name": "_nama",
          "type": "string"
        },
        {
          "internalType": "string",
          "name": "_spesialisasi",
          "type": "string"
        },
        {
          "internalType": "string",
          "name": "_nomorLisensi",
          "type": "string"
        }
      ],
      "name": "updateDataDokter",
      "outputs": [],
      "stateMutability": "nonpayable",
      "type": "function"
    },
    {
      "inputs": [
        {
          "internalType": "address",
          "name": "_dokter",
          "type": "address"
        }
      ],
      "name": "getDokter",
      "outputs": [
        {
          "internalType": "string",
          "name": "nama",
          "type": "string"
        },
        {
          "internalType": "string",
          "name": "spesialisasi",
          "type": "string"
        },
        {
          "internalType": "string",
          "name": "nomorLisensi",
          "type": "string"
        },
        {
          "internalType": "bool",
          "name": "aktif",
          "type": "bool"
        },
        {
          "internalType": "address[]",
          "name": "pasienList",
          "type": "address[]"
        }
      ],
      "stateMutability": "view",
      "type": "function",
      "constant": true
    },
    {
      "inputs": [
        {
          "internalType": "address",
          "name": "_pasien",
          "type": "address"
        },
        {
          "internalType": "string",
          "name": "_nama",
          "type": "string"
        }
      ],
      "name": "registerPasien",
      "outputs": [],
      "stateMutability": "nonpayable",
      "type": "function"
    },
    {
      "inputs": [
        {
          "internalType": "string",
          "name": "_nama",
          "type": "string"
        },
        {
          "internalType": "uint256",
          "name": "_umur",
          "type": "uint256"
        },
        {
          "internalType": "string",
          "name": "_golonganDarah",
          "type": "string"
        },
        {
          "internalType": "string",
          "name": "_tanggalLahir",
          "type": "string"
        },
        {
          "internalType": "string",
          "name": "_gender",
          "type": "string"
        },
        {
          "internalType": "string",
          "name": "_alamat",
          "type": "string"
        },
        {
          "internalType": "string",
          "name": "_noTelepon",
          "type": "string"
        },
        {
          "internalType": "string",
          "name": "_email",
          "type": "string"
        }
      ],
      "name": "selfRegisterPasien",
      "outputs": [],
      "stateMutability": "nonpayable",
      "type": "function"
    },
    {
      "inputs": [],
      "name": "getDaftarPasien",
      "outputs": [
        {
          "internalType": "address[]",
          "name": "",
          "type": "address[]"
        }
      ],
      "stateMutability": "view",
      "type": "function",
      "constant": true
    },
    {
      "inputs": [
        {
          "internalType": "address",
          "name": "_pasien",
          "type": "address"
        }
      ],
      "name": "getPasienData",
      "outputs": [
        {
          "internalType": "string",
          "name": "nama",
          "type": "string"
        },
        {
          "internalType": "uint256",
          "name": "umur",
          "type": "uint256"
        },
        {
          "internalType": "string",
          "name": "golonganDarah",
          "type": "string"
        },
        {
          "internalType": "string",
          "name": "tanggalLahir",
          "type": "string"
        },
        {
          "internalType": "string",
          "name": "gender",
          "type": "string"
        },
        {
          "internalType": "string",
          "name": "alamat",
          "type": "string"
        },
        {
          "internalType": "string",
          "name": "noTelepon",
          "type": "string"
        },
        {
          "internalType": "string",
          "name": "email",
          "type": "string"
        }
      ],
      "stateMutability": "view",
      "type": "function",
      "constant": true
    },
    {
      "inputs": [
        {
          "internalType": "address",
          "name": "_dokter",
          "type": "address"
        },
        {
          "internalType": "address",
          "name": "_pasien",
          "type": "address"
        }
      ],
      "name": "assignPasienToDokter",
      "outputs": [],
      "stateMutability": "nonpayable",
      "type": "function"
    },
    {
      "inputs": [
        {
          "internalType": "address",
          "name": "_dokter",
          "type": "address"
        }
      ],
      "name": "getAssignedPasienByDokter",
      "outputs": [
        {
          "internalType": "address[]",
          "name": "",
          "type": "address[]"
        }
      ],
      "stateMutability": "view",
      "type": "function",
      "constant": true
    },
    {
      "inputs": [
        {
          "internalType": "address",
          "name": "_pasien",
          "type": "address"
        },
        {
          "internalType": "string",
          "name": "_diagnosa",
          "type": "string"
        },
        {
          "internalType": "string",
          "name": "_foto",
          "type": "string"
        },
        {
          "internalType": "string",
          "name": "_catatan",
          "type": "string"
        }
      ],
      "name": "tambahRekamMedis",
      "outputs": [],
      "stateMutability": "nonpayable",
      "type": "function"
    },
    {
      "inputs": [
        {
          "internalType": "uint256",
          "name": "_id",
          "type": "uint256"
        },
        {
          "internalType": "string",
          "name": "_diagnosa",
          "type": "string"
        },
        {
          "internalType": "string",
          "name": "_foto",
          "type": "string"
        },
        {
          "internalType": "string",
          "name": "_catatan",
          "type": "string"
        }
      ],
      "name": "updateRekamMedis",
      "outputs": [],
      "stateMutability": "nonpayable",
      "type": "function"
    },
    {
      "inputs": [
        {
          "internalType": "address",
          "name": "_pasien",
          "type": "address"
        }
      ],
      "name": "getRekamMedisIdsByPasien",
      "outputs": [
        {
          "internalType": "uint256[]",
          "name": "",
          "type": "uint256[]"
        }
      ],
      "stateMutability": "view",
      "type": "function",
      "constant": true
    },
    {
      "inputs": [
        {
          "internalType": "uint256",
          "name": "_id",
          "type": "uint256"
        }
      ],
      "name": "getRekamMedis",
      "outputs": [
        {
          "internalType": "address",
          "name": "pasien",
          "type": "address"
        },
        {
          "internalType": "string",
          "name": "diagnosa",
          "type": "string"
        },
        {
          "internalType": "string",
          "name": "foto",
          "type": "string"
        },
        {
          "internalType": "string",
          "name": "catatan",
          "type": "string"
        },
        {
          "internalType": "bool",
          "name": "valid",
          "type": "bool"
        }
      ],
      "stateMutability": "view",
      "type": "function",
      "constant": true
    },
    {
      "inputs": [
        {
          "internalType": "uint256",
          "name": "_id",
          "type": "uint256"
        }
      ],
      "name": "getRekamMedisVersions",
      "outputs": [
        {
          "components": [
            {
              "internalType": "uint256",
              "name": "id",
              "type": "uint256"
            },
            {
              "internalType": "address",
              "name": "pasien",
              "type": "address"
            },
            {
              "internalType": "string",
              "name": "diagnosa",
              "type": "string"
            },
            {
              "internalType": "string",
              "name": "foto",
              "type": "string"
            },
            {
              "internalType": "string",
              "name": "catatan",
              "type": "string"
            },
            {
              "internalType": "bool",
              "name": "valid",
              "type": "bool"
            }
          ],
          "internalType": "struct RekamMedis.RekamMedisData[]",
          "name": "",
          "type": "tuple[]"
        }
      ],
      "stateMutability": "view",
      "type": "function",
      "constant": true
    },
    {
      "inputs": [
        {
          "internalType": "uint256",
          "name": "_id",
          "type": "uint256"
        }
      ],
      "name": "nonaktifkanRekamMedis",
      "outputs": [],
      "stateMutability": "nonpayable",
      "type": "function"
    },
    {
      "inputs": [
        {
          "internalType": "address",
          "name": "_newAdmin",
          "type": "address"
        }
      ],
      "name": "setAdmin",
      "outputs": [],
      "stateMutability": "nonpayable",
      "type": "function"
    }
  ],
  "bytecode": "0x6080806040523461003c57600080546001600160a01b03191673b0dc0bf642d339517438017fc185bb0f758a01d217905561393790816100428239f35b600080fdfe60a0604052600436101561001257600080fd5b60003560e01c8062410cb314613089578063046bdbcc1461302a578063083d882414612fe45780631132beb514612fa557806319e8f40514612e3a5780632782085114612e025780632e2dd10214612de4578063350ee3fc14612d795780633aaec7281461280c5780633da0551814612762578063426996511461272057806347960cb51461267a57806351887b67146125e55780635c4c9348146125a65780635c87c3aa14611d895780636837008714611d2e578063704b6c0214611cbc578063786f3fbe14611b9a5780637d3e9db814611b7c578063932e0f6d14611acc5780639aec3e9f1461133a578063a665102c14611211578063abf72abb146111ce578063ad3c970814610d13578063c3c0fdea14610c73578063c967ede814610bbf578063d688780214610a2a578063dd09a9681461099f578063ddbd24d314610454578063e05c8a0e1461019e5763f851a4401461017057600080fd5b34610199576000366003190112610199576000546040516001600160a01b039091168152602090f35b600080fd5b34610199576101ac366133cb565b93949560018060a0959394951b03906101ca8260005416331461352a565b169081600052602093600285526101e860ff6040600020541661368c565b826000526001968786526040600020906001600160401b03998a821161036257819061021e826102188654613206565b866135c2565b600090601f83116001146103f1576000926103e6575b5050600019600383901b1c191690891b1790555b82600052868552866040600020019188821161036257819061026e826102188654613206565b600090601f831160011461038357600092610378575b5050600019600383901b1c191690871b1790555b6000528382526002604060002001948311610362576102c1836102bb8754613206565b876135c2565b600091601f84116001146102ff57509282939183926000946102f4575b50501b916000199060031b1c1916179055600080f35b0135925085806102de565b9183601f1981168760005284600020946000905b88838310610348575050501061032e575b505050811b019055005b0135600019600384901b60f8161c19169055838080610324565b868601358855909601959384019387935090810190610313565b634e487b7160e01b600052604160045260246000fd5b013590508980610284565b899350601f1983169185600052886000209260005b8a8282106103d057505084116103b6575b505050811b019055610298565b0135600019600384901b60f8161c191690558980806103a9565b8385013586558d97909501949283019201610398565b013590508b80610234565b8b9350601f19831691856000528a6000209260005b8c82821061043e5750508411610424575b505050811b019055610248565b0135600019600384901b60f8161c191690558b8080610417565b8385013586558f97909501949283019201610406565b3461019957610462366133cb565b909195939461047c60018060a01b0360005416331461352a565b6001600160a01b03851660009081526002602052604090205460ff1661096a576001600160a01b03851660009081526004602052604090205460ff1661092e576001600160a01b03851660009081526002602052604090819020805460ff1916600117905551936104ec85613277565b600085526040519460a086018681106001600160401b0382111761036257604052610518368985613565565b8652610525368a84613565565b6020870152610535368587613565565b604087015260016060870152608086015260018060a01b0386166000526001602052604060002085518051906001600160401b03821161036257819061057f826102188654613206565b602090601f83116001146108c2576000926108b7575b50508160011b916000199060031b1c19161781555b60208601518051906001600160401b0382116103625781906105dc826105d36001870154613206565b600187016135c2565b602090601f83116001146108455760009261083a575b50508160011b916000199060031b1c19161760018201555b60408601518051906001600160401b0382116103625761063a826106316002860154613206565b600286016135c2565b602090601f83116001146107c5579180608094926004946000926107ba575b50508160011b916000199060031b1c19161760028201555b61069060608901511515600383019060ff801983541691151516179055565b01950151948551906001600160401b03821161036257600160401b9687831161036257602090825484845580851061079d575b500190600052602060002060005b838110610780575050505060075494851015610362577f5e399ee004ff4fef571265f7bdd2e8ec7d18b86f1aeab0d8009f0df31b2725929761075f61076d9361072388600161077b9a016007556130f7565b81546001600160a01b039b8c1660039290921b82811b9c901b19169a909a179055604051988952608060208a0181905298998a998a019161366b565b91878303604089015261366b565b91848303606086015261366b565b0390a1005b82516001600160a01b0316818301556020909201916001016106d1565b6107b49084600052858460002091820191016135ab565b8c6106c3565b015190508d80610659565b906002840160005260206000209160005b601f19851681106108225750926080949260019260049583601f19811610610809575b505050811b016002820155610671565b015160001960f88460031b161c191690558d80806107f9565b919260206001819286850151815501940192016107d6565b015190508b806105f2565b9250600184016000526020600020906000935b601f198416851061089c576001945083601f19811610610883575b505050811b01600182015561060a565b015160001960f88460031b161c191690558b8080610873565b81810151835560209485019460019093019290910190610858565b015190508b80610595565b9250836000526020600020906000935b601f1984168510610913576001945083601f198116106108fa575b505050811b0181556105aa565b015160001960f88460031b161c191690558b80806108ed565b818101518355602094850194600190930192909101906108d2565b60405162461bcd60e51b815260206004820152601460248201527320b630b6b0ba1036b4b634b5903830b9b4b2b71760611b6044820152606490fd5b60405162461bcd60e51b815260206004820152600d60248201526c29bab230b4103237b5ba32b91760991b6044820152606490fd5b3461019957604036600319011261019957602435600435600052600a6020526040600020908154811015610199576109d691613443565b50805460018201546001600160a01b031691610a26906109f8600282016132ce565b90610a05600382016132ce565b60ff6005610a15600485016132ce565b930154169260405196879687613374565b0390f35b346101995760208060031936011261019957600435600052600a81526040600020908154916001600160401b0383116103625760405191600593610a728282871b01856132ad565b8084528184018093600052826000206000915b838310610b455750505050604051928184019082855251809152604081818601961b85010192916000955b828710610abd5785850386f35b909192938280600192603f1989820301855287519081518152848060a01b03838301511683820152610b29610b16610b03604085015160c080604087015285019061315c565b606080860151908583039086015261315c565b608080850151908483039085015261315c565b9160a08091015115159101529601920196019592919092610ab0565b600685600192604099979951610b5a8161325c565b85548152848060a01b03858701541683820152610b79600287016132ce565b6040820152610b8a600387016132ce565b6060820152610b9b600487016132ce565b608082015260ff8c87015416151560a0820152815201920192019190959395610a85565b3461019957602080600319360112610199576001600160a01b03610be16130e1565b1660005260068152604060002060405190818382549182815201908192600052846000209060005b86828210610c5f578686610c1f828803836132ad565b604051928392818401908285525180915260408401929160005b828110610c4857505050500390f35b835185528695509381019392810192600101610c39565b835485529093019260019283019201610c09565b34610199576020366003190112610199576001600160a01b03610c946130e1565b166000526001602052610ceb6040600020610cae816132ce565b90610d07610cbe600183016132ce565b91610cf960ff6003610cd2600285016132ce565b930154169360405196879660808852608088019061315c565b90868203602088015261315c565b90848203604086015261315c565b90151560608301520390f35b3461019957610d21366133cb565b9495946001600160a01b039493929091338688161480156111c1575b1561117c57858716600052600460205260ff604060002054161561113757610db2610d696009546137e4565b918260095560405194610d7b8661325c565b838652610da660208701978a8c168952610d978d8b3691613565565b96604089019788523691613565565b60608701523691613565565b6080840152600160a084015260005260056020526040600020928251845585600185019151166001600160601b0360a01b825416179055518051906001600160401b038211610362578190610e1782610e0e6002880154613206565b600288016135c2565b602090601f83116001146110c5576000926110ba575b50508160011b916000199060031b1c19161760028301555b60608101518051906001600160401b038211610362578190610e7782610e6e6003880154613206565b600388016135c2565b602090601f83116001146110485760009261103d575b50508160011b916000199060031b1c19161760038301555b6004820160808201518051906001600160401b03821161036257610ed382610ecd8554613206565b856135c2565b602090601f8311600114610fcb57928260a093610f23979693600596600092610fc0575b50508160011b916000199060031b1c19161790555b0151151591019060ff801983541691151516179055565b818316600052600660205260406000209360095491855492600160401b84101561036257610f7b847f8647b41d1ffdc302f876f0e70e0c442d110a3c8bad284218f99616149394c997986001610fb497018155613144565b819291549060031b91821b91600019901b191617905560095493604051958695865216602085015260806040850152608084019161366b565b600160608301520390a1005b015190508c80610ef7565b90601f198316918460005260206000209260005b818110611025575093610f23979693600596936001938360a0981061100c575b505050811b019055610f0c565b015160001960f88460031b161c191690558c8080610fff565b92936020600181928786015181550195019301610fdf565b015190508880610e8d565b9250600385016000526020600020906000935b601f198416851061109f576001945083601f19811610611086575b505050811b016003830155610ea5565b015160001960f88460031b161c19169055888080611076565b8181015183556020948501946001909301929091019061105b565b015190508880610e2d565b9250600285016000526020600020906000935b601f198416851061111c576001945083601f19811610611103575b505050811b016002830155610e45565b015160001960f88460031b161c191690558880806110f3565b818101518355602094850194600190930192909101906110d8565b60405162461bcd60e51b815260206004820152601760248201527f50617369656e20746964616b207465726461667461722e0000000000000000006044820152606490fd5b60405162461bcd60e51b815260206004820152601860248201527f48616e79612070617369656e20617461752061646d696e2e00000000000000006044820152606490fd5b5085600054163314610d3d565b34610199576020366003190112610199576004356000908152600560205260409020805460018201546001600160a01b031691610a26906109f8600282016132ce565b34610199576020366003190112610199576001600160a01b036112326130e1565b1680600052600460205260406000205460ff1661124e90613798565b6000526003602052604060002060018101549061126a816132ce565b90611277600282016132ce565b90611284600382016132ce565b611290600483016132ce565b61129c600584016132ce565b916112a9600685016132ce565b936007016112b6906132ce565b94604051978897610100808a5289016112ce9161315c565b90602089015287810360408901526112e59161315c565b86810360608801526112f69161315c565b85810360808701526113079161315c565b84810360a08601526113189161315c565b83810360c08501526113299161315c565b82810360e0840152610a269161315c565b34610199576040366003190112610199576113536130e1565b6024356001600160401b038111610199576113729036906004016131d9565b6000546001600160a01b0393919061138d908516331461352a565b838216600052600460205260ff60406000205416611a875783821660005260026020526113c260ff6040600020541615613730565b83821660005260046020526040600020600160ff19825416179055604051936113ea85613240565b6113f5368386613565565b85526000602086015260405161140a81613277565b60008152604086015260405161141f81613277565b60008152606086015260405161143481613277565b60008152608086015260405161144981613277565b6000815260a086015260405161145e81613277565b6000815260c086015260405161147381613277565b6000815260e0860152600161010086015282166000526003602052604060002084518051906001600160401b0382116103625781906114b6826102188654613206565b602090601f8311600114611a1b57600092611a10575b50508160011b916000199060031b1c19161781555b6020850151600182015560408501518051906001600160401b03821161036257819061151d826115146002870154613206565b600287016135c2565b602090601f831160011461199e57600092611993575b50508160011b916000199060031b1c19161760028201555b606085015180516001600160401b03811161036257806003840192611574826102188654613206565b602090601f831160011461192d57600092611922575b50508160011b916000199060031b1c19161790555b608085015180516001600160401b038111610362578060048401926115c8826102188654613206565b602090601f83116001146118bc576000926118b1575b50508160011b916000199060031b1c19161790555b60a085015180516001600160401b0381116103625780600584019261161c826102188654613206565b602090601f831160011461184b57600092611840575b50508160011b916000199060031b1c19161790555b60c085015180516001600160401b03811161036257806006840192611670826102188654613206565b602090601f83116001146117da576000926117cf575b50508160011b916000199060031b1c19161790555b600781019460e08101519586516001600160401b038111610362576116ca816116c48454613206565b846135c2565b6020601f821160011461174b5761172b9361077b96959383600894610100946000805160206138e28339815191529d6000926117405750508160011b916000199060031b1c19161790550151151591019060ff801983541691151516179055565b61173483613607565b60405193849384613773565b015190508d80610ef7565b601f198216988360005260206000209960005b8181106117b75750936001846000805160206138e28339815191529c6101009561172b999560089861077b9d9c9a1061179e57505050811b019055610f0c565b015160001960f88460031b161c191690558d8080610fff565b838301518c556001909b019a6020938401930161175e565b015190508880611686565b6000858152602081209350601f198516905b818110611828575090846001959493921061180f575b505050811b01905561169b565b015160001960f88460031b161c19169055888080611802565b929360206001819287860151815501950193016117ec565b015190508880611632565b6000858152602081209350601f198516905b8181106118995750908460019594939210611880575b505050811b019055611647565b015160001960f88460031b161c19169055888080611873565b9293602060018192878601518155019501930161185d565b0151905088806115de565b6000858152602081209350601f198516905b81811061190a57509084600195949392106118f1575b505050811b0190556115f3565b015160001960f88460031b161c191690558880806118e4565b929360206001819287860151815501950193016118ce565b01519050888061158a565b6000858152602081209350601f198516905b81811061197b5750908460019594939210611962575b505050811b01905561159f565b015160001960f88460031b161c19169055888080611955565b9293602060018192878601518155019501930161193f565b015190508780611533565b9250600284016000526020600020906000935b601f19841685106119f5576001945083601f198116106119dc575b505050811b01600282015561154b565b015160001960f88460031b161c191690558780806119cc565b818101518355602094850194600190930192909101906119b1565b0151905087806114cc565b9250836000526020600020906000935b601f1984168510611a6c576001945083601f19811610611a53575b505050811b0181556114e1565b015160001960f88460031b161c19169055878080611a46565b81810151835560209485019460019093019290910190611a2b565b60405162461bcd60e51b815260206004820152601760248201527f50617369656e207375646168207465726461667461722e0000000000000000006044820152606490fd5b3461019957604036600319011261019957611ae56130e1565b6024359081151591828103610199577f3dcd68c14f5f191f12b3b56bf35d5d7eb22447e9ec685290967b4558822ca98a92611b6f60409360018060a01b0390611b338260005416331461352a565b1692836000526002602052611b4e60ff86600020541661368c565b836000526001602052600385600020019060ff801983541691151516179055565b82519182526020820152a1005b34610199576000366003190112610199576020600754604051908152f35b34610199576020366003190112610199576001600160a01b03611bbb6130e1565b1660005260036020526040600020611bd2816132ce565b600182015491611be4600282016132ce565b90611bf1600382016132ce565b611bfd600483016132ce565b611c09600584016132ce565b90611c16600685016132ce565b92611c23600786016132ce565b946008015460ff1695604051988998610120808b528a01611c439161315c565b9060208a015288810360408a0152611c5a9161315c565b8781036060890152611c6b9161315c565b8681036080880152611c7c9161315c565b85810360a0870152611c8d9161315c565b84810360c0860152611c9e9161315c565b83810360e0850152611caf9161315c565b9015156101008301520390f35b34610199576020366003190112610199577f4d644268affe3d5bee1f2f5cb981613ce82c79f04442f0d58c544d9cd09b2f8d6020611cf86130e1565b600054906001600160a01b0390611d12338385161461352a565b1680916001600160601b0360a01b1617600055604051908152a1005b34610199576020366003190112610199576004356008548110156101995760086000527ff3f7a9fe364faab93b216da50a3214154f22a0a2b415b23a84c8169e8b636ee301546040516001600160a01b039091168152602090f35b3461019957610100366003190112610199576004356001600160401b03811161019957611dba9036906004016131d9565b906044356001600160401b03811161019957611dda9036906004016131d9565b6064356001600160401b03811161019957611df99036906004016131d9565b906084356001600160401b03811161019957611e199036906004016131d9565b93909260a4356001600160401b03811161019957611e3b9036906004016131d9565b91906001600160401b0360c4351161019957611e5c3660c4356004016131d9565b9390946001600160401b0360e4351161019957611e7e3660e4356004016131d9565b98909933600052600460205260ff6040600020541661256c57611f21611f4a998f978f611f589f611f2f97611efe611f1393611f3c9d336000526002602052611ecf60ff6040600020541615613730565b3360005260046020526040600020600160ff19825416179055611ef760405180608052613240565b3691613565565b60805152602435602060805101523691613565565b604060805101523691613565565b606060805101523691613565565b6080805101523691613565565b60a060805101523691613565565b60c060805101523691613565565b60e06080510152600161010060805101523360005260036020526040600020608051519283516001600160401b03811161036257611f9a81610ecd8554613206565b6020601f82116001146125035781929394956000926124f8575b50508160011b916000199060031b1c19161782555b604060805160208101516001850155015180516001600160401b03811161036257806002850192611ffe826102188654613206565b602090601f831160011461249257600092612487575b50508160011b916000199060031b1c19161790555b6060608051015180516001600160401b03811161036257806003850192612054826102188654613206565b602090601f831160011461242157600092612416575b50508160011b916000199060031b1c19161790555b60808051015180516001600160401b038111610362578060048501926120a9826102188654613206565b602090601f83116001146123b0576000926123a5575b50508160011b916000199060031b1c19161790555b60a0608051015180516001600160401b038111610362578060058501926120ff826102188654613206565b602090601f831160011461233f57600092612334575b50508160011b916000199060031b1c19161790555b60c060805101519283516001600160401b0381116103625761215c816121536006870154613206565b600687016135c2565b6020601f82116001146122c55781929394956000926122ba575b50508160011b916000199060031b1c19161760068401555b6007830160e060805101518051906001600160401b038211610362576121b882610ecd8554613206565b602090601f831160011461223e57918061221a94926000805160206138e28339815191529894600092612233575b50508160011b916000199060031b1c19161790555b60086101006080510151151591019060ff801983541691151516179055565b61222333613607565b61077b6040519283923384613773565b0151905088806121e6565b90601f198316918460005260206000209260005b8181106122a257509260019285926000805160206138e28339815191529a9661221a989610612289575b505050811b0190556121fb565b015160001960f88460031b161c1916905588808061227c565b92936020600181928786015181550195019301612252565b015190508580612176565b6006850160005260206000209060005b601f198416811061231c575060019394959683601f19811610612303575b505050811b01600684015561218e565b015160001960f88460031b161c191690558580806122f3565b9091602060018192858b0151815501930191016122d5565b015190508680612115565b6000858152602081209350601f198516905b81811061238d5750908460019594939210612374575b505050811b01905561212a565b015160001960f88460031b161c19169055868080612367565b92936020600181928786015181550195019301612351565b0151905086806120bf565b6000858152602081209350601f198516905b8181106123fe57509084600195949392106123e5575b505050811b0190556120d4565b015160001960f88460031b161c191690558680806123d8565b929360206001819287860151815501950193016123c2565b01519050868061206a565b6000858152602081209350601f198516905b81811061246f5750908460019594939210612456575b505050811b01905561207f565b015160001960f88460031b161c19169055868080612449565b92936020600181928786015181550195019301612433565b015190508680612014565b6000858152602081209350601f198516905b8181106124e057509084600195949392106124c7575b505050811b019055612029565b015160001960f88460031b161c191690558680806124ba565b929360206001819287860151815501950193016124a4565b015190508580611fb4565b8360005260206000209060005b601f1984168110612554575060019394959683601f1981161061253b575b505050811b018255611fc9565b015160001960f88460031b161c1916905585808061252e565b9091602060018192858b015181550193019101612510565b60405162461bcd60e51b815260206004820152601260248201527120b732309039bab230b4103830b9b4b2b71760711b6044820152606490fd5b34610199576020366003190112610199576001600160a01b036125c76130e1565b166000526002602052602060ff604060002054166040519015158152f35b34610199576000366003190112610199576040518060085480825282602080930160086000527ff3f7a9fe364faab93b216da50a3214154f22a0a2b415b23a84c8169e8b636ee39260005b8582821061265b57505050612647925003836132ad565b610a2660405192828493845283019061319c565b85546001600160a01b0316845260019586019588955093019201612630565b34610199576020366003190112610199576004356000526005602052604060002060018060a01b0360018201541660ff6005830154166127146126bf600285016132ce565b936127066126db60046126d4600385016132ce565b93016132ce565b916126f8604051978897885260a0602089015260a088019061315c565b90868203604088015261315c565b90848203606086015261315c565b90151560808301520390f35b3461019957602036600319011261019957600435600754811015610199576127496020916130f7565b905460405160039290921b1c6001600160a01b03168152f35b34610199576020366003190112610199576001600160a01b036127836130e1565b1660005260016020526127e96040600020610a2660ff6003830154166127a8836132ce565b926127f76127b8600183016132ce565b916126f86127d460046127cd600285016132ce565b93016136d8565b9360405198899860a08a5260a08a019061315c565b9088820360208a015261315c565b9115156060850152838203608085015261319c565b34610199576080366003190112610199576024356001600160401b0381116101995761283c9036906004016131d9565b906044356001600160401b0381116101995761285c9036906004016131d9565b92906064356001600160401b0381116101995761287d9036906004016131d9565b919094600435600052600560205260018060a01b036001604060002001541633600052600260205260ff6040600020541680612d62575b15612d27576000903360005260016020526004604060002001906000918054925b838110612ce7575b5050505015612c96576004356000526005602052604060002091600a60205260406000208054600160401b8110156103625761291e91600182018155613443565b612c8057838103612c04575b506001600160401b0385116103625761294a856106316002860154613206565b846000601f8211600114612b9657600091612b8b575b508560011b906000198760031b1c19161760028401555b6001600160401b0382116103625761299f826129966003860154613206565b600386016135c2565b600090601f8311600114612b1857600493929160009183612b0d575b50508160011b916000199060031b1c19161760038201555b016001600160401b038211610362576129f6826129f08354613206565b836135c2565b6000601f8311600114612a8057917f2a3c8ca9ac6f36396c175111b8f04207d249d61d733222e37c97a5ed7cfa7e1395918161077b94600091612a75575b508260011b906000198460031b1c19161790555b612a67604051958695600435875260606020880152606087019161366b565b91848303604086015261366b565b905083013588612a34565b601f198316908260005260206000209160005b818110612af55750917f2a3c8ca9ac6f36396c175111b8f04207d249d61d733222e37c97a5ed7cfa7e139793918561077b969410612adb575b5050600182811b019055612a48565b840135600019600385901b60f8161c191690558780612acc565b9192602060018192868c013581550194019201612a93565b0135905088806129bb565b6003840160005260206000209160005b601f1985168110612b73575091839160019360049695601f19811610612b59575b505050811b0160038201556129d3565b0135600019600384901b60f8161c19169055888080612b49565b90926020600181928686013581550194019101612b28565b905086013588612960565b90506002840160005260206000209060005b601f1988168110612bec575086601f19811610612bd2575b5050600185811b016002840155612977565b870135600019600388901b60f8161c191690558780612bc0565b9091602060018192858c013581550193019101612ba8565b612c7a90845481556001810160018060a01b036001870154166001600160601b0360a01b825416179055612c3e6002860160028301613809565b612c4e6003860160038301613809565b612c5e6004860160048301613809565b600560ff818701541691019060ff801983541691151516179055565b8761292a565b634e487b7160e01b600052600060045260246000fd5b60405162461bcd60e51b8152602060048201526024808201527f446f6b74657220746964616b20646961737369676e206b652070617369656e2060448201526334b7349760e11b6064820152608490fd5b82612cf28284613144565b905460039190911b1c6001600160a01b031614612d1757612d12906137e4565b6128d5565b50505050506001878080806128dd565b60405162461bcd60e51b81526020600482015260136024820152722430b73cb0903237b5ba32b91030b5ba34b31760691b6044820152606490fd5b50600160205260ff600360406000200154166128b4565b34610199576020366003190112610199576001600160a01b03612d9a6130e1565b16806000526002602052612db560ff6040600020541661368c565b6000526001602052610a26612dd060046040600020016136d8565b60405191829160208352602083019061319c565b34610199576000366003190112610199576020600954604051908152f35b3461019957602036600319011261019957610a26612e26612e216130e1565b61345f565b60405191829160208352602083019061315c565b3461019957604036600319011261019957612e536130e1565b6001600160a01b0390602480358381169290839003610199578390612e7d8260005416331461352a565b16928360005260209160028352612e9b60ff6040600020541661368c565b8360005260048352612eb460ff60406000205416613798565b846000526001835260046040600020016000918154925b838110612f485750600160401b831015612f34577fd9a2627959a7f46a8b96c10424cdae1f1b65151551cd206b119aca54c0a86a5a604088888888612f168989600182018155613144565b819291549060031b9185831b921b19161790558351928352820152a1005b634e487b7160e01b60009081526041600452fd5b8685612f548386613144565b90549060031b1c1614612f6f57612f6a906137e4565b612ecb565b60405162461bcd60e51b815260048101879052600f818401526e29bab230b4103234b0b9b9b4b3b71760891b6044820152606490fd5b34610199576020366003190112610199576001600160a01b03612fc66130e1565b166000526004602052602060ff604060002054166040519015158152f35b346101995760203660031901126101995761300a60018060a01b0360005416331461352a565b6004356000526005602052600560406000200160ff198154169055600080f35b3461019957602036600319011261019957600435600754811015613053576127496020916130f7565b60405162461bcd60e51b815260206004820152600e60248201526d24b73232bc1034b73b30b634b21760911b6044820152606490fd5b34610199576040366003190112610199576130a26130e1565b6001600160a01b0316600090815260066020526040902080546024359190821015610199576020916130d391613144565b90546040519160031b1c8152f35b600435906001600160a01b038216820361019957565b60075481101561312e5760076000527fa66cc928b5edb82af9bd49922954155ab7b0942694bea4ce44661d9a8736c6880190600090565b634e487b7160e01b600052603260045260246000fd5b805482101561312e5760005260206000200190600090565b919082519283825260005b848110613188575050826000602080949584010152601f8019910116010190565b602081830181015184830182015201613167565b90815180825260208080930193019160005b8281106131bc575050505090565b83516001600160a01b0316855293810193928101926001016131ae565b9181601f84011215610199578235916001600160401b038311610199576020838186019501011161019957565b90600182811c92168015613236575b602083101461322057565b634e487b7160e01b600052602260045260246000fd5b91607f1691613215565b61012081019081106001600160401b0382111761036257604052565b60c081019081106001600160401b0382111761036257604052565b602081019081106001600160401b0382111761036257604052565b604081019081106001600160401b0382111761036257604052565b90601f801991011681019081106001600160401b0382111761036257604052565b90604051918260008254926132e284613206565b908184526001948581169081600014613351575060011461330e575b505061330c925003836132ad565b565b9093915060005260209081600020936000915b81831061333957505061330c935082010138806132fe565b85548884018501529485019487945091830191613321565b91505061330c94506020925060ff191682840152151560051b82010138806132fe565b9491936133a76133c39460a0966133b5949a999a8952600180891b0316602089015260c0604089015260c088019061315c565b90868203606088015261315c565b90848203608086015261315c565b931515910152565b6080600319820112610199576004356001600160a01b038116810361019957916001600160401b03602435818111610199578361340a916004016131d9565b939093926044358381116101995782613425916004016131d9565b939093926064359182116101995761343f916004016131d9565b9091565b805482101561312e576000526006602060002091020190600090565b6000546001600160a01b03918216911681146135085780600052600260205260ff604060002054166134e557600052600460205260ff604060002054166134c3576040516134ac81613292565b60078152662ab735b737bbb760c91b602082015290565b6040516134cf81613292565b60068152652830b9b4b2b760d11b602082015290565b506040516134f281613292565b60068152652237b5ba32b960d11b602082015290565b5060405161351581613292565b600581526420b236b4b760d91b602082015290565b1561353157565b60405162461bcd60e51b815260206004820152600c60248201526b2430b73cb09030b236b4b71760a11b6044820152606490fd5b9291926001600160401b038211610362576040519161358e601f8201601f1916602001846132ad565b829481845281830111610199578281602093846000960137010152565b8181106135b6575050565b600081556001016135ab565b9190601f81116135d157505050565b61330c926000526020600020906020601f840160051c830193106135fd575b601f0160051c01906135ab565b90915081906135f0565b600854600160401b81101561036257600181018060085581101561312e5760086000527ff3f7a9fe364faab93b216da50a3214154f22a0a2b415b23a84c8169e8b636ee30180546001600160a01b0319166001600160a01b03909216919091179055565b908060209392818452848401376000828201840152601f01601f1916010190565b1561369357565b60405162461bcd60e51b815260206004820152601760248201527f446f6b7465722062656c756d207465726461667461722e0000000000000000006044820152606490fd5b9060405191828154918282526020928383019160005283600020936000905b82821061370d5750505061330c925003836132ad565b85546001600160a01b0316845260019586019588955093810193909101906136f7565b1561373757565b60405162461bcd60e51b815260206004820152601460248201527320b630b6b0ba1036b4b634b5903237b5ba32b91760611b6044820152606490fd5b6001600160a01b0390911681526040602082018190526137959391019161366b565b90565b1561379f57565b60405162461bcd60e51b815260206004820152601760248201527f50617369656e2062656c756d207465726461667461722e0000000000000000006044820152606490fd5b60001981146137f35760010190565b634e487b7160e01b600052601160045260246000fd5b908082146138dd5761381b8154613206565b906001600160401b03821161036257819061383a826102188654613206565b600090601f831160011461387157600092613866575b50508160011b916000199060031b1c1916179055565b015490503880613850565b81526020808220858352818320935090601f1985169083905b8282106138c45750509084600195949392106138ab575b505050811b019055565b015460001960f88460031b161c191690553880806138a1565b849581929585015481556001809101960194019061388a565b505056febf053d6e768d58295aaf9541196adab7535b80d2c6c4c10ebf3d6948396c25b1a2646970667358221220600e28986354897ced5e7ded9ad0a86097090ab459e90183345b0019383e5cfc64736f6c63430008130033",
  "immutableReferences": {},
  "source": "// SPDX-License-Identifier: MIT\r\npragma solidity >=0.4.22 <0.9.0;\r\n\r\ncontract RekamMedis {\r\n    address public admin;\r\n\r\n    struct Dokter {\r\n        string nama;\r\n        string spesialisasi;\r\n        string nomorLisensi;\r\n        bool aktif;\r\n        address[] assignedPasien;\r\n    }\r\n\r\n    struct Pasien {\r\n        string nama;\r\n        uint umur;\r\n        string golonganDarah;\r\n        string tanggalLahir;\r\n        string gender;\r\n        string alamat;\r\n        string noTelepon;\r\n        string email;\r\n        bool exists;\r\n    }\r\n\r\n    struct RekamMedisData {\r\n        uint id;\r\n        address pasien;\r\n        string diagnosa;\r\n        string foto;\r\n        string catatan;\r\n        bool valid;\r\n    }\r\n\r\n    mapping(address => Dokter) public dataDokter;\r\n    mapping(address => bool) public isDokter;\r\n\r\n    mapping(address => Pasien) public dataPasien;\r\n    mapping(address => bool) public isPasien;\r\n\r\n    mapping(uint => RekamMedisData) public rekamMedis;\r\n    mapping(address => uint[]) public rekamMedisByPasien;\r\n\r\n    address[] public daftarDokter;\r\n    address[] public daftarPasien;\r\n    uint public rekamMedisCount;\r\n\r\n    // history versions\r\n    mapping(uint => RekamMedisData[]) public rekamMedisVersions;\r\n\r\n    // Events\r\n    event AdminDitetapkan(address newAdmin);\r\n    event DokterTerdaftar(\r\n        address dokter,\r\n        string nama,\r\n        string spesialisasi,\r\n        string nomorLisensi\r\n    );\r\n    event DokterStatusDiubah(address dokter, bool aktif);\r\n    event PasienTerdaftar(address pasien, string nama);\r\n    event PasienDiassignKeDokter(address dokter, address pasien);\r\n    event RekamMedisDitambahkan(\r\n        uint id,\r\n        address pasien,\r\n        string diagnosa,\r\n        bool valid\r\n    );\r\n    event RekamMedisDiperbarui(uint id, string diagnosa, string catatan);\r\n\r\n    constructor() {\r\n        admin = 0xB0dC0Bf642d339517438017Fc185Bb0f758A01D2;\r\n    }\r\n\r\n    modifier hanyaAdmin() {\r\n        require(msg.sender == admin, \"Hanya admin.\");\r\n        _;\r\n    }\r\n\r\n    modifier hanyaDokterAktif() {\r\n        require(\r\n            isDokter[msg.sender] && dataDokter[msg.sender].aktif,\r\n            \"Hanya dokter aktif.\"\r\n        );\r\n        _;\r\n    }\r\n\r\n    modifier hanyaDokterAktifUntukPasien(address _pasien) {\r\n        require(\r\n            isDokter[msg.sender] && dataDokter[msg.sender].aktif,\r\n            \"Hanya dokter aktif.\"\r\n        );\r\n        bool assigned = false;\r\n        address[] storage list = dataDokter[msg.sender].assignedPasien;\r\n        for (uint i = 0; i < list.length; i++) {\r\n            if (list[i] == _pasien) {\r\n                assigned = true;\r\n                break;\r\n            }\r\n        }\r\n        require(assigned, \"Dokter tidak diassign ke pasien ini.\");\r\n        _;\r\n    }\r\n\r\n    modifier hanyaPasien(address _pasien) {\r\n        require(msg.sender == _pasien, \"Hanya pasien.\");\r\n        _;\r\n    }\r\n\r\n    // Ambil role user\r\n    function getUserRole(address _user) public view returns (string memory) {\r\n        if (_user == admin) return \"Admin\";\r\n        if (isDokter[_user]) return \"Dokter\";\r\n        if (isPasien[_user]) return \"Pasien\";\r\n        return \"Unknown\";\r\n    }\r\n    // --- Dokter management ---\r\n    function registerDokter(\r\n        address _dokter,\r\n        string calldata _nama,\r\n        string calldata _spesialisasi,\r\n        string calldata _nomorLisensi\r\n    ) external hanyaAdmin {\r\n        require(!isDokter[_dokter], \"Sudah dokter.\");\r\n        require(!isPasien[_dokter], \"Alamat milik pasien.\");\r\n        isDokter[_dokter] = true;\r\n        dataDokter[_dokter] = Dokter({\r\n            nama: _nama,\r\n            spesialisasi: _spesialisasi,\r\n            nomorLisensi: _nomorLisensi,\r\n            aktif: true,\r\n            assignedPasien: new address[](0)\r\n        });\r\n        daftarDokter.push(_dokter);\r\n        emit DokterTerdaftar(_dokter, _nama, _spesialisasi, _nomorLisensi);\r\n    }\r\n\r\n    function totalDokter() external view returns (uint) {\r\n        return daftarDokter.length;\r\n    }\r\n\r\n    function getDokterByIndex(uint idx) external view returns (address) {\r\n        require(idx < daftarDokter.length, \"Index invalid.\");\r\n        return daftarDokter[idx];\r\n    }\r\n\r\n    function setStatusDokter(address _dokter, bool _aktif) external hanyaAdmin {\r\n        require(isDokter[_dokter], \"Dokter belum terdaftar.\");\r\n        dataDokter[_dokter].aktif = _aktif;\r\n        emit DokterStatusDiubah(_dokter, _aktif);\r\n    }\r\n\r\n    function updateDataDokter(\r\n        address _dokter,\r\n        string calldata _nama,\r\n        string calldata _spesialisasi,\r\n        string calldata _nomorLisensi\r\n    ) external hanyaAdmin {\r\n        require(isDokter[_dokter], \"Dokter belum terdaftar.\");\r\n        dataDokter[_dokter].nama = _nama;\r\n        dataDokter[_dokter].spesialisasi = _spesialisasi;\r\n        dataDokter[_dokter].nomorLisensi = _nomorLisensi;\r\n        // Could emit an UpdateDokter event here if desired\r\n    }\r\n\r\n    function getDokter(\r\n        address _dokter\r\n    )\r\n        external\r\n        view\r\n        returns (\r\n            string memory nama,\r\n            string memory spesialisasi,\r\n            string memory nomorLisensi,\r\n            bool aktif,\r\n            address[] memory pasienList\r\n        )\r\n    {\r\n        Dokter storage d = dataDokter[_dokter];\r\n        return (\r\n            d.nama,\r\n            d.spesialisasi,\r\n            d.nomorLisensi,\r\n            d.aktif,\r\n            d.assignedPasien\r\n        );\r\n    }\r\n\r\n    // --- Pasien management ---\r\n    function registerPasien(\r\n        address _pasien,\r\n        string calldata _nama\r\n    ) external hanyaAdmin {\r\n        require(!isPasien[_pasien], \"Pasien sudah terdaftar.\");\r\n        require(!isDokter[_pasien], \"Alamat milik dokter.\");\r\n        isPasien[_pasien] = true;\r\n        dataPasien[_pasien] = Pasien({\r\n            nama: _nama,\r\n            umur: 0,\r\n            golonganDarah: \"\",\r\n            tanggalLahir: \"\",\r\n            gender: \"\",\r\n            alamat: \"\",\r\n            noTelepon: \"\",\r\n            email: \"\",\r\n            exists: true\r\n        });\r\n        daftarPasien.push(_pasien);\r\n        emit PasienTerdaftar(_pasien, _nama);\r\n    }\r\n\r\n    function selfRegisterPasien(\r\n        string calldata _nama,\r\n        uint _umur,\r\n        string calldata _golonganDarah,\r\n        string calldata _tanggalLahir,\r\n        string calldata _gender,\r\n        string calldata _alamat,\r\n        string calldata _noTelepon,\r\n        string calldata _email\r\n    ) external {\r\n        require(!isPasien[msg.sender], \"Anda sudah pasien.\");\r\n        require(!isDokter[msg.sender], \"Alamat milik dokter.\");\r\n        isPasien[msg.sender] = true;\r\n        dataPasien[msg.sender] = Pasien({\r\n            nama: _nama,\r\n            umur: _umur,\r\n            golonganDarah: _golonganDarah,\r\n            tanggalLahir: _tanggalLahir,\r\n            gender: _gender,\r\n            alamat: _alamat,\r\n            noTelepon: _noTelepon,\r\n            email: _email,\r\n            exists: true\r\n        });\r\n        daftarPasien.push(msg.sender);\r\n        emit PasienTerdaftar(msg.sender, _nama);\r\n    }\r\n\r\n    function getDaftarPasien() external view returns (address[] memory) {\r\n        return daftarPasien;\r\n    }\r\n\r\n    function getPasienData(\r\n        address _pasien\r\n    )\r\n        external\r\n        view\r\n        returns (\r\n            string memory nama,\r\n            uint umur,\r\n            string memory golonganDarah,\r\n            string memory tanggalLahir,\r\n            string memory gender,\r\n            string memory alamat,\r\n            string memory noTelepon,\r\n            string memory email\r\n        )\r\n    {\r\n        require(isPasien[_pasien], \"Pasien belum terdaftar.\");\r\n        Pasien storage p = dataPasien[_pasien];\r\n        return (\r\n            p.nama,\r\n            p.umur,\r\n            p.golonganDarah,\r\n            p.tanggalLahir,\r\n            p.gender,\r\n            p.alamat,\r\n            p.noTelepon,\r\n            p.email\r\n        );\r\n    }\r\n\r\n    // --- Assignment ---\r\n    function assignPasienToDokter(\r\n        address _dokter,\r\n        address _pasien\r\n    ) external hanyaAdmin {\r\n        require(isDokter[_dokter], \"Dokter belum terdaftar.\");\r\n        require(isPasien[_pasien], \"Pasien belum terdaftar.\");\r\n        address[] storage list = dataDokter[_dokter].assignedPasien;\r\n        for (uint i = 0; i < list.length; i++) {\r\n            require(list[i] != _pasien, \"Sudah diassign.\");\r\n        }\r\n        list.push(_pasien);\r\n        emit PasienDiassignKeDokter(_dokter, _pasien);\r\n    }\r\n\r\n    function getAssignedPasienByDokter(\r\n        address _dokter\r\n    ) external view returns (address[] memory) {\r\n        require(isDokter[_dokter], \"Dokter belum terdaftar.\");\r\n        return dataDokter[_dokter].assignedPasien;\r\n    }\r\n\r\n    // --- Rekam Medis ---\r\n    function tambahRekamMedis(\r\n        address _pasien,\r\n        string calldata _diagnosa,\r\n        string calldata _foto,\r\n        string calldata _catatan\r\n    ) external {\r\n        require(\r\n            msg.sender == _pasien || msg.sender == admin,\r\n            \"Hanya pasien atau admin.\"\r\n        );\r\n        require(isPasien[_pasien], \"Pasien tidak terdaftar.\");\r\n\r\n        rekamMedisCount++;\r\n        rekamMedis[rekamMedisCount] = RekamMedisData({\r\n            id: rekamMedisCount,\r\n            pasien: _pasien,\r\n            diagnosa: _diagnosa,\r\n            foto: _foto,\r\n            catatan: _catatan,\r\n            valid: true\r\n        });\r\n        rekamMedisByPasien[_pasien].push(rekamMedisCount);\r\n        emit RekamMedisDitambahkan(rekamMedisCount, _pasien, _diagnosa, true);\r\n    }\r\n\r\n    function updateRekamMedis(\r\n        uint _id,\r\n        string calldata _diagnosa,\r\n        string calldata _foto,\r\n        string calldata _catatan\r\n    ) external hanyaDokterAktifUntukPasien(rekamMedis[_id].pasien) {\r\n        RekamMedisData storage r = rekamMedis[_id];\r\n        rekamMedisVersions[_id].push(r);\r\n\r\n        r.diagnosa = _diagnosa;\r\n        r.foto = _foto;\r\n        r.catatan = _catatan;\r\n        emit RekamMedisDiperbarui(_id, _diagnosa, _catatan);\r\n    }\r\n\r\n    function getRekamMedisIdsByPasien(\r\n        address _pasien\r\n    ) external view returns (uint[] memory) {\r\n        return rekamMedisByPasien[_pasien];\r\n    }\r\n\r\n    function getRekamMedis(\r\n        uint _id\r\n    )\r\n        external\r\n        view\r\n        returns (\r\n            address pasien,\r\n            string memory diagnosa,\r\n            string memory foto,\r\n            string memory catatan,\r\n            bool valid\r\n        )\r\n    {\r\n        RekamMedisData storage r = rekamMedis[_id];\r\n        return (r.pasien, r.diagnosa, r.foto, r.catatan, r.valid);\r\n    }\r\n\r\n    function getRekamMedisVersions(\r\n        uint _id\r\n    ) external view returns (RekamMedisData[] memory) {\r\n        return rekamMedisVersions[_id];\r\n    }\r\n\r\n    function nonaktifkanRekamMedis(uint _id) external hanyaAdmin {\r\n        rekamMedis[_id].valid = false;\r\n    }\r\n\r\n    function setAdmin(address _newAdmin) external hanyaAdmin {\r\n        admin = _newAdmin;\r\n        emit AdminDitetapkan(_newAdmin);\r\n    }\r\n}\r\n",
  "sourcePath": "D:\\TA\\Rekam_Medis_Blockchain\\rekam_medis_backend\\contracts\\RekamMedis.sol",
  "compiler": {
    "name": "solc",
    "version": "0.8.19+commit.7dd6d404.Emscripten.clang"
  },
  "schemaVersion": "3.4.16",
  "updatedAt": "2025-05-22T07:43:42.392Z",
  "networkType": "ethereum",
  "devdoc": {
    "kind": "dev",
    "methods": {},
    "version": 1
  },
  "userdoc": {
    "kind": "user",
    "methods": {},
    "version": 1
  }
}