{
  "contractName": "RekamMedis",
  "abi": [
    {
      "inputs": [],
      "stateMutability": "nonpayable",
      "type": "constructor"
    },
    {
      "anonymous": false,
      "inputs": [
        {
          "indexed": false,
          "internalType": "address",
          "name": "newAdmin",
          "type": "address"
        }
      ],
      "name": "AdminDitetapkan",
      "type": "event"
    },
    {
      "anonymous": false,
      "inputs": [
        {
          "indexed": false,
          "internalType": "address",
          "name": "dokter",
          "type": "address"
        },
        {
          "indexed": false,
          "internalType": "bool",
          "name": "aktif",
          "type": "bool"
        }
      ],
      "name": "DokterStatusDiubah",
      "type": "event"
    },
    {
      "anonymous": false,
      "inputs": [
        {
          "indexed": false,
          "internalType": "address",
          "name": "dokter",
          "type": "address"
        },
        {
          "indexed": false,
          "internalType": "string",
          "name": "nama",
          "type": "string"
        }
      ],
      "name": "DokterTerdaftar",
      "type": "event"
    },
    {
      "anonymous": false,
      "inputs": [
        {
          "indexed": false,
          "internalType": "address",
          "name": "dokter",
          "type": "address"
        },
        {
          "indexed": false,
          "internalType": "address",
          "name": "pasien",
          "type": "address"
        }
      ],
      "name": "PasienDiassignKeDokter",
      "type": "event"
    },
    {
      "anonymous": false,
      "inputs": [
        {
          "indexed": false,
          "internalType": "address",
          "name": "pasien",
          "type": "address"
        }
      ],
      "name": "PasienTerdaftar",
      "type": "event"
    },
    {
      "anonymous": false,
      "inputs": [
        {
          "indexed": false,
          "internalType": "uint256",
          "name": "id",
          "type": "uint256"
        },
        {
          "indexed": false,
          "internalType": "string",
          "name": "diagnosa",
          "type": "string"
        },
        {
          "indexed": false,
          "internalType": "string",
          "name": "catatan",
          "type": "string"
        }
      ],
      "name": "RekamMedisDiperbarui",
      "type": "event"
    },
    {
      "anonymous": false,
      "inputs": [
        {
          "indexed": false,
          "internalType": "uint256",
          "name": "id",
          "type": "uint256"
        },
        {
          "indexed": false,
          "internalType": "address",
          "name": "pasien",
          "type": "address"
        },
        {
          "indexed": false,
          "internalType": "string",
          "name": "diagnosa",
          "type": "string"
        },
        {
          "indexed": false,
          "internalType": "bool",
          "name": "valid",
          "type": "bool"
        }
      ],
      "name": "RekamMedisDitambahkan",
      "type": "event"
    },
    {
      "inputs": [],
      "name": "admin",
      "outputs": [
        {
          "internalType": "address",
          "name": "",
          "type": "address"
        }
      ],
      "stateMutability": "view",
      "type": "function",
      "constant": true
    },
    {
      "inputs": [
        {
          "internalType": "uint256",
          "name": "",
          "type": "uint256"
        }
      ],
      "name": "daftarDokter",
      "outputs": [
        {
          "internalType": "address",
          "name": "",
          "type": "address"
        }
      ],
      "stateMutability": "view",
      "type": "function",
      "constant": true
    },
    {
      "inputs": [
        {
          "internalType": "uint256",
          "name": "",
          "type": "uint256"
        }
      ],
      "name": "daftarPasien",
      "outputs": [
        {
          "internalType": "address",
          "name": "",
          "type": "address"
        }
      ],
      "stateMutability": "view",
      "type": "function",
      "constant": true
    },
    {
      "inputs": [
        {
          "internalType": "address",
          "name": "",
          "type": "address"
        }
      ],
      "name": "dataDokter",
      "outputs": [
        {
          "internalType": "string",
          "name": "nama",
          "type": "string"
        },
        {
          "internalType": "bool",
          "name": "aktif",
          "type": "bool"
        }
      ],
      "stateMutability": "view",
      "type": "function",
      "constant": true
    },
    {
      "inputs": [
        {
          "internalType": "address",
          "name": "",
          "type": "address"
        }
      ],
      "name": "isDokter",
      "outputs": [
        {
          "internalType": "bool",
          "name": "",
          "type": "bool"
        }
      ],
      "stateMutability": "view",
      "type": "function",
      "constant": true
    },
    {
      "inputs": [
        {
          "internalType": "address",
          "name": "",
          "type": "address"
        }
      ],
      "name": "isPasien",
      "outputs": [
        {
          "internalType": "bool",
          "name": "",
          "type": "bool"
        }
      ],
      "stateMutability": "view",
      "type": "function",
      "constant": true
    },
    {
      "inputs": [
        {
          "internalType": "uint256",
          "name": "",
          "type": "uint256"
        }
      ],
      "name": "rekamMedis",
      "outputs": [
        {
          "internalType": "uint256",
          "name": "id",
          "type": "uint256"
        },
        {
          "internalType": "address",
          "name": "pasien",
          "type": "address"
        },
        {
          "internalType": "string",
          "name": "nama",
          "type": "string"
        },
        {
          "internalType": "uint256",
          "name": "umur",
          "type": "uint256"
        },
        {
          "internalType": "string",
          "name": "golonganDarah",
          "type": "string"
        },
        {
          "internalType": "string",
          "name": "tanggalLahir",
          "type": "string"
        },
        {
          "internalType": "string",
          "name": "gender",
          "type": "string"
        },
        {
          "internalType": "string",
          "name": "alamat",
          "type": "string"
        },
        {
          "internalType": "string",
          "name": "noTelepon",
          "type": "string"
        },
        {
          "internalType": "string",
          "name": "email",
          "type": "string"
        },
        {
          "internalType": "string",
          "name": "diagnosa",
          "type": "string"
        },
        {
          "internalType": "string",
          "name": "foto",
          "type": "string"
        },
        {
          "internalType": "string",
          "name": "catatan",
          "type": "string"
        },
        {
          "internalType": "bool",
          "name": "valid",
          "type": "bool"
        }
      ],
      "stateMutability": "view",
      "type": "function",
      "constant": true
    },
    {
      "inputs": [
        {
          "internalType": "address",
          "name": "",
          "type": "address"
        },
        {
          "internalType": "uint256",
          "name": "",
          "type": "uint256"
        }
      ],
      "name": "rekamMedisByPasien",
      "outputs": [
        {
          "internalType": "uint256",
          "name": "",
          "type": "uint256"
        }
      ],
      "stateMutability": "view",
      "type": "function",
      "constant": true
    },
    {
      "inputs": [],
      "name": "rekamMedisCount",
      "outputs": [
        {
          "internalType": "uint256",
          "name": "",
          "type": "uint256"
        }
      ],
      "stateMutability": "view",
      "type": "function",
      "constant": true
    },
    {
      "inputs": [
        {
          "internalType": "uint256",
          "name": "",
          "type": "uint256"
        },
        {
          "internalType": "uint256",
          "name": "",
          "type": "uint256"
        }
      ],
      "name": "rekamMedisVersions",
      "outputs": [
        {
          "internalType": "uint256",
          "name": "id",
          "type": "uint256"
        },
        {
          "internalType": "address",
          "name": "pasien",
          "type": "address"
        },
        {
          "internalType": "string",
          "name": "nama",
          "type": "string"
        },
        {
          "internalType": "uint256",
          "name": "umur",
          "type": "uint256"
        },
        {
          "internalType": "string",
          "name": "golonganDarah",
          "type": "string"
        },
        {
          "internalType": "string",
          "name": "tanggalLahir",
          "type": "string"
        },
        {
          "internalType": "string",
          "name": "gender",
          "type": "string"
        },
        {
          "internalType": "string",
          "name": "alamat",
          "type": "string"
        },
        {
          "internalType": "string",
          "name": "noTelepon",
          "type": "string"
        },
        {
          "internalType": "string",
          "name": "email",
          "type": "string"
        },
        {
          "internalType": "string",
          "name": "diagnosa",
          "type": "string"
        },
        {
          "internalType": "string",
          "name": "foto",
          "type": "string"
        },
        {
          "internalType": "string",
          "name": "catatan",
          "type": "string"
        },
        {
          "internalType": "bool",
          "name": "valid",
          "type": "bool"
        }
      ],
      "stateMutability": "view",
      "type": "function",
      "constant": true
    },
    {
      "inputs": [
        {
          "internalType": "address",
          "name": "_dokter",
          "type": "address"
        },
        {
          "internalType": "string",
          "name": "_nama",
          "type": "string"
        }
      ],
      "name": "registerDokter",
      "outputs": [],
      "stateMutability": "nonpayable",
      "type": "function"
    },
    {
      "inputs": [],
      "name": "totalDokter",
      "outputs": [
        {
          "internalType": "uint256",
          "name": "",
          "type": "uint256"
        }
      ],
      "stateMutability": "view",
      "type": "function",
      "constant": true
    },
    {
      "inputs": [
        {
          "internalType": "uint256",
          "name": "index",
          "type": "uint256"
        }
      ],
      "name": "getDokterByIndex",
      "outputs": [
        {
          "internalType": "address",
          "name": "",
          "type": "address"
        }
      ],
      "stateMutability": "view",
      "type": "function",
      "constant": true
    },
    {
      "inputs": [
        {
          "internalType": "address",
          "name": "_dokter",
          "type": "address"
        },
        {
          "internalType": "bool",
          "name": "_aktif",
          "type": "bool"
        }
      ],
      "name": "setStatusDokter",
      "outputs": [],
      "stateMutability": "nonpayable",
      "type": "function"
    },
    {
      "inputs": [
        {
          "internalType": "address",
          "name": "_dokter",
          "type": "address"
        },
        {
          "internalType": "address",
          "name": "_pasien",
          "type": "address"
        }
      ],
      "name": "assignPasienToDokter",
      "outputs": [],
      "stateMutability": "nonpayable",
      "type": "function"
    },
    {
      "inputs": [
        {
          "internalType": "address",
          "name": "_dokter",
          "type": "address"
        },
        {
          "internalType": "address",
          "name": "_pasien",
          "type": "address"
        }
      ],
      "name": "isPasienAssignedToDokter",
      "outputs": [
        {
          "internalType": "bool",
          "name": "",
          "type": "bool"
        }
      ],
      "stateMutability": "view",
      "type": "function",
      "constant": true
    },
    {
      "inputs": [
        {
          "internalType": "address",
          "name": "_dokter",
          "type": "address"
        }
      ],
      "name": "getAssignedPasienByDokter",
      "outputs": [
        {
          "internalType": "address[]",
          "name": "",
          "type": "address[]"
        }
      ],
      "stateMutability": "view",
      "type": "function",
      "constant": true
    },
    {
      "inputs": [
        {
          "internalType": "address",
          "name": "_dokter",
          "type": "address"
        }
      ],
      "name": "getDokter",
      "outputs": [
        {
          "internalType": "string",
          "name": "nama",
          "type": "string"
        },
        {
          "internalType": "bool",
          "name": "aktif",
          "type": "bool"
        },
        {
          "internalType": "address[]",
          "name": "pasien",
          "type": "address[]"
        }
      ],
      "stateMutability": "view",
      "type": "function",
      "constant": true
    },
    {
      "inputs": [
        {
          "internalType": "address",
          "name": "_pasien",
          "type": "address"
        }
      ],
      "name": "registerPasien",
      "outputs": [],
      "stateMutability": "nonpayable",
      "type": "function"
    },
    {
      "inputs": [],
      "name": "selfRegisterPasien",
      "outputs": [],
      "stateMutability": "nonpayable",
      "type": "function"
    },
    {
      "inputs": [
        {
          "internalType": "address",
          "name": "_user",
          "type": "address"
        }
      ],
      "name": "getUserRole",
      "outputs": [
        {
          "internalType": "string",
          "name": "",
          "type": "string"
        }
      ],
      "stateMutability": "view",
      "type": "function",
      "constant": true
    },
    {
      "inputs": [
        {
          "internalType": "address",
          "name": "pasien",
          "type": "address"
        }
      ],
      "name": "getRekamMedisIdsByPasien",
      "outputs": [
        {
          "internalType": "uint256[]",
          "name": "",
          "type": "uint256[]"
        }
      ],
      "stateMutability": "view",
      "type": "function",
      "constant": true
    },
    {
      "inputs": [],
      "name": "getDaftarPasien",
      "outputs": [
        {
          "internalType": "address[]",
          "name": "",
          "type": "address[]"
        }
      ],
      "stateMutability": "view",
      "type": "function",
      "constant": true
    },
    {
      "inputs": [
        {
          "internalType": "address",
          "name": "_pasien",
          "type": "address"
        }
      ],
      "name": "getNamaPasien",
      "outputs": [
        {
          "internalType": "string",
          "name": "",
          "type": "string"
        }
      ],
      "stateMutability": "view",
      "type": "function",
      "constant": true
    },
    {
      "inputs": [
        {
          "internalType": "address",
          "name": "_newAdmin",
          "type": "address"
        }
      ],
      "name": "setAdmin",
      "outputs": [],
      "stateMutability": "nonpayable",
      "type": "function"
    },
    {
      "inputs": [
        {
          "internalType": "address",
          "name": "_pasien",
          "type": "address"
        },
        {
          "internalType": "string",
          "name": "_nama",
          "type": "string"
        },
        {
          "internalType": "uint256",
          "name": "_umur",
          "type": "uint256"
        },
        {
          "internalType": "string",
          "name": "_golonganDarah",
          "type": "string"
        },
        {
          "internalType": "string",
          "name": "_tanggalLahir",
          "type": "string"
        },
        {
          "internalType": "string",
          "name": "_gender",
          "type": "string"
        },
        {
          "internalType": "string",
          "name": "_alamat",
          "type": "string"
        },
        {
          "internalType": "string",
          "name": "_noTelepon",
          "type": "string"
        },
        {
          "internalType": "string",
          "name": "_email",
          "type": "string"
        },
        {
          "internalType": "string",
          "name": "_diagnosa",
          "type": "string"
        },
        {
          "internalType": "string",
          "name": "_foto",
          "type": "string"
        },
        {
          "internalType": "string",
          "name": "_catatan",
          "type": "string"
        }
      ],
      "name": "tambahRekamMedis",
      "outputs": [],
      "stateMutability": "nonpayable",
      "type": "function"
    },
    {
      "inputs": [
        {
          "internalType": "uint256",
          "name": "_id",
          "type": "uint256"
        },
        {
          "internalType": "string",
          "name": "_nama",
          "type": "string"
        },
        {
          "internalType": "uint256",
          "name": "_umur",
          "type": "uint256"
        },
        {
          "internalType": "string",
          "name": "_golonganDarah",
          "type": "string"
        },
        {
          "internalType": "string",
          "name": "_tanggalLahir",
          "type": "string"
        },
        {
          "internalType": "string",
          "name": "_gender",
          "type": "string"
        },
        {
          "internalType": "string",
          "name": "_alamat",
          "type": "string"
        },
        {
          "internalType": "string",
          "name": "_noTelepon",
          "type": "string"
        },
        {
          "internalType": "string",
          "name": "_email",
          "type": "string"
        },
        {
          "internalType": "string",
          "name": "_diagnosa",
          "type": "string"
        },
        {
          "internalType": "string",
          "name": "_foto",
          "type": "string"
        },
        {
          "internalType": "string",
          "name": "_catatan",
          "type": "string"
        }
      ],
      "name": "updateRekamMedis",
      "outputs": [],
      "stateMutability": "nonpayable",
      "type": "function"
    },
    {
      "inputs": [
        {
          "internalType": "uint256",
          "name": "_id",
          "type": "uint256"
        }
      ],
      "name": "getRekamMedisVersions",
      "outputs": [
        {
          "components": [
            {
              "internalType": "uint256",
              "name": "id",
              "type": "uint256"
            },
            {
              "internalType": "address",
              "name": "pasien",
              "type": "address"
            },
            {
              "internalType": "string",
              "name": "nama",
              "type": "string"
            },
            {
              "internalType": "uint256",
              "name": "umur",
              "type": "uint256"
            },
            {
              "internalType": "string",
              "name": "golonganDarah",
              "type": "string"
            },
            {
              "internalType": "string",
              "name": "tanggalLahir",
              "type": "string"
            },
            {
              "internalType": "string",
              "name": "gender",
              "type": "string"
            },
            {
              "internalType": "string",
              "name": "alamat",
              "type": "string"
            },
            {
              "internalType": "string",
              "name": "noTelepon",
              "type": "string"
            },
            {
              "internalType": "string",
              "name": "email",
              "type": "string"
            },
            {
              "internalType": "string",
              "name": "diagnosa",
              "type": "string"
            },
            {
              "internalType": "string",
              "name": "foto",
              "type": "string"
            },
            {
              "internalType": "string",
              "name": "catatan",
              "type": "string"
            },
            {
              "internalType": "bool",
              "name": "valid",
              "type": "bool"
            }
          ],
          "internalType": "struct RekamMedis.RekamMedisData[]",
          "name": "",
          "type": "tuple[]"
        }
      ],
      "stateMutability": "view",
      "type": "function",
      "constant": true
    },
    {
      "inputs": [
        {
          "internalType": "uint256",
          "name": "_id",
          "type": "uint256"
        }
      ],
      "name": "nonaktifkanRekamMedis",
      "outputs": [],
      "stateMutability": "nonpayable",
      "type": "function"
    }
  ],
  "bytecode": "0x6080806040523461002857600080546001600160a01b03191633179055613dd7908161002e8239f35b600080fdfe6080604052600436101561001257600080fd5b60003560e01c8062410cb3146134f1578063010ef3b3146133b0578063046bdbcc14613342578063083d8824146132fe578063107e202f14612f145780631132beb514612ed557806319e8f40514612d2b5780632782085114612d075780632e2dd10214612ce9578063334181f214612c23578063350ee3fc14612bb85780633da0551814612b3d5780634269965114612afb57806351887b6714612a665780635c4c934814612a2757806368370087146129cc57806368f5dc99146114f257806370419a81146114bc578063704b6c021461144a5780637d3e9db81461142c578063932e0f6d1461137c578063abf72abb14611339578063ae28c7a914611301578063c3c0fdea1461129e578063c967ede8146111ea578063d688780214610f22578063dd09a96814610e3a578063f7dc5714146101885763f851a4401461015a57600080fd5b34610183576000366003190112610183576000546040516001600160a01b039091168152602090f35b600080fd5b3461018357610180366003190112610183576024356001600160401b038111610183576101b990369060040161364d565b6064356001600160401b038111610183576101d890369060040161364d565b6084356001600160401b038111610183576101f790369060040161364d565b9160a4356001600160401b0381116101835761021790369060040161364d565b9060c4356001600160401b0381116101835761023790369060040161364d565b60e4356001600160401b0381116101835761025690369060040161364d565b610104356001600160401b0381116101835761027690369060040161364d565b91610124356001600160401b0381116101835761029790369060040161364d565b94610144356001600160401b038111610183576102b890369060040161364d565b97610164356001600160401b038111610183576102d990369060040161364d565b97600435600052600660205260018060a01b036001604060002001541633600052600260205260ff6040600020541680610e23575b15610dc05761031d9033613a90565b15610d6a576004356000526006602052604060002096600960205260406000208054600160401b8110156107e75761035a916001820181556138e5565b610d5457888103610c5e575b508051906001600160401b0382116107e75781906103948261038b60028d0154613720565b60028d01613976565b602090601f8311600114610bec57600092610be1575b50508160011b916000199060031b1c19161760028801555b60443560038801558051906001600160401b0382116107e75781906103f7826103ee60048c0154613720565b60048c01613976565b602090601f8311600114610b6f57600092610b64575b50508160011b916000199060031b1c19161760048701555b8051906001600160401b0382116107e75781906104528261044960058b0154613720565b60058b01613976565b602090601f8311600114610af257600092610ae7575b50508160011b916000199060031b1c19161760058601555b8051906001600160401b0382116107e75781906104ad826104a460068a0154613720565b60068a01613976565b602090601f8311600114610a7557600092610a6a575b50508160011b916000199060031b1c19161760068501555b8051906001600160401b0382116107e7578190610508826104ff6007890154613720565b60078901613976565b602090601f83116001146109f8576000926109ed575b50508160011b916000199060031b1c19161760078401555b8051906001600160401b0382116107e75781906105638261055a6008880154613720565b60088801613976565b602090601f831160011461097b57600092610970575b50508160011b916000199060031b1c19161760088301555b8051906001600160401b0382116107e75781906105be826105b56009870154613720565b60098701613976565b602090601f83116001146108fe576000926108f3575b50508160011b916000199060031b1c19161760098201555b81516001600160401b0381116107e7576106168161060d600a850154613720565b600a8501613976565b806020601f82116001146108865760009161087b575b508160011b916000199060031b1c191617600a8201555b83516001600160401b0381116107e75761066d81610664600b850154613720565b600b8501613976565b6020601f8211600114610808578190600c9495966000926107fd575b50508160011b916000199060031b1c191617600b8201555b01918051926001600160401b0384116107e7576106c8846106c28354613720565b83613976565b602093601f81116001146107595791610749918361073b95947f2a3c8ca9ac6f36396c175111b8f04207d249d61d733222e37c97a5ed7cfa7e139760009161074e575b508160011b916000199060031b1c19161790555b60405193849360043585526060602086015260608501906136a3565b9083820360408501526136a3565b0390a1005b90508301518861070b565b601f1981168260005260206000209060005b8181106107cf57508261074994927f2a3c8ca9ac6f36396c175111b8f04207d249d61d733222e37c97a5ed7cfa7e139861073b989795600194106107b6575b5050811b01905561071f565b85015160001960f88460031b161c1916905588806107aa565b8588015183556020978801976001909301920161076b565b634e487b7160e01b600052604160045260246000fd5b015190508680610689565b600b830160005260206000209560005b601f19841681106108635750958291600c959697600194601f1981161061084a575b505050811b01600b8201556106a1565b015160001960f88460031b161c1916905586808061083a565b82820151885560019097019660209283019201610818565b90508301518661062c565b9150600a830160005260206000206000925b601f19831684106108db576001935082601f198116106108c2575b5050811b01600a820155610643565b85015160001960f88460031b161c1916905586806108b3565b85810151825560209384019360019092019101610898565b0151905086806105d4565b9250600984016000526020600020906000935b601f1984168510610955576001945083601f1981161061093c575b505050811b0160098201556105ec565b015160001960f88460031b161c1916905586808061092c565b81810151835560209485019460019093019290910190610911565b015190508780610579565b9250600885016000526020600020906000935b601f19841685106109d2576001945083601f198116106109b9575b505050811b016008830155610591565b015160001960f88460031b161c191690558780806109a9565b8181015183556020948501946001909301929091019061098e565b01519050888061051e565b9250600786016000526020600020906000935b601f1984168510610a4f576001945083601f19811610610a36575b505050811b016007840155610536565b015160001960f88460031b161c19169055888080610a26565b81810151835560209485019460019093019290910190610a0b565b0151905089806104c3565b9250600687016000526020600020906000935b601f1984168510610acc576001945083601f19811610610ab3575b505050811b0160068501556104db565b015160001960f88460031b161c19169055898080610aa3565b81810151835560209485019460019093019290910190610a88565b015190508a80610468565b9250600588016000526020600020906000935b601f1984168510610b49576001945083601f19811610610b30575b505050811b016005860155610480565b015160001960f88460031b161c191690558a8080610b20565b81810151835560209485019460019093019290910190610b05565b015190508b8061040d565b9250600489016000526020600020906000935b601f1984168510610bc6576001945083601f19811610610bad575b505050811b016004870155610425565b015160001960f88460031b161c191690558b8080610b9d565b81810151835560209485019460019093019290910190610b82565b015190508c806103aa565b925060028a016000526020600020906000935b601f1984168510610c43576001945083601f19811610610c2a575b505050811b0160028801556103c2565b015160001960f88460031b161c191690558c8080610c1a565b81810151835560209485019460019093019290910190610bff565b610d4e90895481556001810160018060a01b0360018c0154166001600160601b0360a01b825416179055610c9860028b0160028301613cc9565b60038a01546003820155610cb260048b0160048301613cc9565b610cc260058b0160058301613cc9565b610cd260068b0160068301613cc9565b610ce260078b0160078301613cc9565b610cf260088b0160088301613cc9565b610d0260098b0160098301613cc9565b610d12600a8b01600a8301613cc9565b610d22600b8b01600b8301613cc9565b610d32600c8b01600c8301613cc9565b600d60ff818c01541691019060ff801983541691151516179055565b8b610366565b634e487b7160e01b600052600060045260246000fd5b60405162461bcd60e51b815260206004820152602860248201527f446f6b74657220746964616b2064692d61737369676e20756e74756b2070617360448201526734b2b71034b7349760c11b6064820152608490fd5b60405162461bcd60e51b815260206004820152603560248201527f48616e796120646f6b74657220616b7469662079616e672062697361206d656d6044820152743832b93130b93ab4903932b5b0b69036b2b234b99760591b6064820152608490fd5b50600160205260ff6001604060002001541661030e565b34610183576040366003190112610183576024356004356000526009602052604060002090815481101561018357610e71916138e5565b50805460018201546001600160a01b031691610f1e90610e936002820161375a565b906003810154610ea56004830161375a565b610eb16005840161375a565b610ebd6006850161375a565b610ec96007860161375a565b610ed56008870161375a565b91610ee26009880161375a565b93610eef600a890161375a565b95610efc600b8a0161375a565b9760ff600d610f0d600c8d0161375a565b9b0154169a6040519e8f9e8f613800565b0390f35b346101835760208060031936011261018357600435600052600990818152604060002080546001600160401b0381116107e7579160405192600594610f6b8383881b018661362c565b81855260009384528284208386019491855b8484106110ea575050505050604051928184019082855251809152604081818601961b85010192916000955b828710610fb65785850386f35b909192938280600192603f1989820301855287519081518152848060a01b038383015116838201526110cd6110b96110a561109161107d61106961105761104461103161101460408c015160408c6101c091829101528c01906136a3565b6060808d0151908c01526080808d0151908c8303908d01526136a3565b60a0808c0151908b8303908c01526136a3565b60c0808b0151908a8303908b01526136a3565b60e089015188820360e08a01526136a3565b6101008089015190888303908901526136a3565b6101208088015190878303908801526136a3565b6101408087015190868303908701526136a3565b6101608086015190858303908601526136a3565b6101808085015190848303908501526136a3565b916101a08091015115159101529601920196019592919092610fa9565b600e8660019260409a989a516110ff816135da565b86548152848060a01b0385880154168382015261111e6002880161375a565b6040820152600387015460608201526111396004880161375a565b60808201526111498d880161375a565b60a082015261115a6006880161375a565b60c082015261116b6007880161375a565b60e082015261117c6008880161375a565b61010082015261118d86880161375a565b61012082015261119f600a880161375a565b6101408201526111b1600b880161375a565b6101608201526111c3600c880161375a565b61018082015260ff600d8801541615156101a0820152815201930193019291969496610f7d565b3461018357602080600319360112610183576001600160a01b0361120c613549565b1660005260078152604060002060405190818382549182815201908192600052846000209060005b8682821061128a57868661124a8288038361362c565b604051928392818401908285525180915260408401929160005b82811061127357505050500390f35b835185528695509381019392810192600101611264565b835485529093019260019283019201611234565b34610183576020366003190112610183576001600160a01b036112bf613549565b1660005260016020526112f5604060002060ff60016112dd8361375a565b920154166040519283926040845260408401906136a3565b90151560208301520390f35b3461018357602036600319011261018357610f1e611325611320613549565b613c1b565b6040519182916020835260208301906136a3565b34610183576020366003190112610183576004356000908152600660205260409020805460018201546001600160a01b031691610f1e90610e936002820161375a565b3461018357604036600319011261018357611395613549565b6024359081151591828103610183577f3dcd68c14f5f191f12b3b56bf35d5d7eb22447e9ec685290967b4558822ca98a9261141f60409360018060a01b03906113e382600054163314613901565b16928360005260026020526113fe60ff866000205416613a1f565b836000526001602052600185600020019060ff801983541691151516179055565b82519182526020820152a1005b34610183576000366003190112610183576020600454604051908152f35b34610183576020366003190112610183577f4d644268affe3d5bee1f2f5cb981613ce82c79f04442f0d58c544d9cd09b2f8d6020611486613549565b600054906001600160a01b03906114a03383851614613901565b1680916001600160601b0360a01b1617600055604051908152a1005b346101835760403660031901126101835760206114e86114da613549565b6114e261355f565b90613a90565b6040519015158152f35b34610183576101803660031901126101835761150c613549565b6024356001600160401b0381116101835761152b90369060040161364d565b906064356001600160401b0381116101835761154b90369060040161364d565b916084356001600160401b0381116101835761156b90369060040161364d565b9260a4356001600160401b0381116101835761158b90369060040161364d565b9360c4356001600160401b038111610183576115ab90369060040161364d565b9460e4356001600160401b038111610183576115cb90369060040161364d565b610104356001600160401b038111610183576115eb90369060040161364d565b90610124356001600160401b0381116101835761160c90369060040161364d565b97610144356001600160401b0381116101835761162d90369060040161364d565b936001600160401b0361016435116101835761164f366101643560040161364d565b95336001600160a01b038b161480156129b8575b1561294d57611673600854613a6b565b978860085560018060a01b036000541633146000146120b557505050505050505050600854604051916116a5836135da565b8183526001600160a01b038416602084015260408084019190915260006060840152516116d1816135f6565b6000815260808301526040516116e6816135f6565b6000815260a08301526040516116fb816135f6565b6000815260c0830152604051611710816135f6565b6000815260e0830152604051611725816135f6565b6000815261010083015260405161173b816135f6565b60008152610120830152604051611751816135f6565b60008152610140830152604051611767816135f6565b6000815261016083015260405161177d816135f6565b6000815261018083015260016101a08301526000526006602052604060002090805182556001820160018060a01b036020830151166001600160601b0360a01b82541617905560408101518051906001600160401b0382116107e75781906117f5826117ec6002880154613720565b60028801613976565b602090601f831160011461204357600092612038575b50508160011b916000199060031b1c19161760028301555b6060810151600383015560808101518051906001600160401b0382116107e757819061185f826118566004880154613720565b60048801613976565b602090601f8311600114611fc657600092611fbb575b50508160011b916000199060031b1c19161760048301555b60a08101518051906001600160401b0382116107e75781906118bf826118b66005880154613720565b60058801613976565b602090601f8311600114611f4957600092611f3e575b50508160011b916000199060031b1c19161760058301555b60c081015180516001600160401b0381116107e75780600685019261191c826119168654613720565b86613976565b602090601f8311600114611ed857600092611ecd575b50508160011b916000199060031b1c19161790555b60e081015180516001600160401b0381116107e757806007850192611970826119168654613720565b602090601f8311600114611e6757600092611e5c575b50508160011b916000199060031b1c19161790555b61010081015180516001600160401b0381116107e7578060088501926119c5826119168654613720565b602090601f8311600114611df657600092611deb575b50508160011b916000199060031b1c19161790555b61012081015180516001600160401b0381116107e757806009850192611a1a826119168654613720565b602090601f8311600114611d8557600092611d7a575b50508160011b916000199060031b1c19161790555b61014081015180516001600160401b0381116107e75780600a850192611a6f826119168654613720565b602090601f8311600114611d1457600092611d09575b50508160011b916000199060031b1c19161790555b61016081015180516001600160401b0381116107e75780600b850192611ac4826119168654613720565b602090601f8311600114611ca357600092611c98575b50508160011b916000199060031b1c19161790555b600c82016101808201518051906001600160401b0382116107e757611b1e82611b188554613720565b85613976565b602090601f8311600114611c255792826101a093611b6f979693600d96600092611c1a575b50508160011b916000199060031b1c19161790555b0151151591019060ff801983541691151516179055565b6001600160a01b038116600090815260076020526040902060085481549391600160401b8510156107e75784611bcb9160017f8647b41d1ffdc302f876f0e70e0c442d110a3c8bad284218f99616149394c997970181556135c2565b819291549060031b91821b91600019901b1916179055611c0e60085491604051938493845260018060a01b031660208401526080604084015260808301906136a3565b600160608301520390a1005b015190508a80611b43565b90601f198316918460005260206000209260005b818110611c80575093611b6f979693600d9693600193836101a09810611c67575b505050811b019055611b58565b015160001960f88460031b161c191690558a8080611c5a565b92936020600181928786015181550195019301611c39565b015190508780611ada565b6000858152602081209350601f198516905b818110611cf15750908460019594939210611cd8575b505050811b019055611aef565b015160001960f88460031b161c19169055878080611ccb565b92936020600181928786015181550195019301611cb5565b015190508780611a85565b6000858152602081209350601f198516905b818110611d625750908460019594939210611d49575b505050811b019055611a9a565b015160001960f88460031b161c19169055878080611d3c565b92936020600181928786015181550195019301611d26565b015190508780611a30565b6000858152602081209350601f198516905b818110611dd35750908460019594939210611dba575b505050811b019055611a45565b015160001960f88460031b161c19169055878080611dad565b92936020600181928786015181550195019301611d97565b0151905087806119db565b6000858152602081209350601f198516905b818110611e445750908460019594939210611e2b575b505050811b0190556119f0565b015160001960f88460031b161c19169055878080611e1e565b92936020600181928786015181550195019301611e08565b015190508780611986565b6000858152602081209350601f198516905b818110611eb55750908460019594939210611e9c575b505050811b01905561199b565b015160001960f88460031b161c19169055878080611e8f565b92936020600181928786015181550195019301611e79565b015190508780611932565b6000858152602081209350601f198516905b818110611f265750908460019594939210611f0d575b505050811b019055611947565b015160001960f88460031b161c19169055878080611f00565b92936020600181928786015181550195019301611eea565b0151905086806118d5565b9250600585016000526020600020906000935b601f1984168510611fa0576001945083601f19811610611f87575b505050811b0160058301556118ed565b015160001960f88460031b161c19169055868080611f77565b81810151835560209485019460019093019290910190611f5c565b015190508680611875565b9250600485016000526020600020906000935b601f198416851061201d576001945083601f19811610612004575b505050811b01600483015561188d565b015160001960f88460031b161c19169055868080611ff4565b81810151835560209485019460019093019290910190611fd9565b01519050868061180b565b9250600285016000526020600020906000935b601f198416851061209a576001945083601f19811610612081575b505050811b016002830155611823565b015160001960f88460031b161c19169055868080612071565b81810151835560209485019460019093019290910190612056565b604051996120c28b6135da565b898b5260018060a01b038c1660208c015260408b015260443560608b015260808a015260a089015260c088015260e08701526101008601526101208501528561014085015261016084015261018083015260016101a08301526000526006602052604060002090805182556001820160018060a01b036020830151166001600160601b0360a01b82541617905560408101518051906001600160401b0382116107e7578190612178826117ec6002880154613720565b602090601f83116001146128db576000926128d0575b50508160011b916000199060031b1c19161760028301555b6060810151600383015560808101518051906001600160401b0382116107e75781906121d9826118566004880154613720565b602090601f831160011461285e57600092612853575b50508160011b916000199060031b1c19161760048301555b60a08101518051906001600160401b0382116107e7578190612230826118b66005880154613720565b602090601f83116001146127e1576000926127d6575b50508160011b916000199060031b1c19161760058301555b60c081015180516001600160401b0381116107e757806006850192612287826119168654613720565b602090601f831160011461277057600092612765575b50508160011b916000199060031b1c19161790555b60e081015180516001600160401b0381116107e7578060078501926122db826119168654613720565b602090601f83116001146126ff576000926126f4575b50508160011b916000199060031b1c19161790555b61010081015180516001600160401b0381116107e757806008850192612330826119168654613720565b602090601f831160011461268e57600092612683575b50508160011b916000199060031b1c19161790555b61012081015180516001600160401b0381116107e757806009850192612385826119168654613720565b602090601f831160011461261d57600092612612575b50508160011b916000199060031b1c19161790555b61014081015180516001600160401b0381116107e75780600a8501926123da826119168654613720565b602090601f83116001146125ac576000926125a1575b50508160011b916000199060031b1c19161790555b61016081015180516001600160401b0381116107e75780600b85019261242f826119168654613720565b602090601f831160011461253b57600092612530575b50508160011b916000199060031b1c19161790555b600c82016101808201518051906001600160401b0382116107e75761248382611b188554613720565b602090601f83116001146124d75792826101a0936124d2979693600d96600092611c1a5750508160011b916000199060031b1c19161790550151151591019060ff801983541691151516179055565b611b6f565b90601f198316918460005260206000209260005b8181106125185750936124d2979693600d9693600193836101a09810611c6757505050811b019055611b58565b929360206001819287860151815501950193016124eb565b015190508780612445565b6000858152602081209350601f198516905b8181106125895750908460019594939210612570575b505050811b01905561245a565b015160001960f88460031b161c19169055878080612563565b9293602060018192878601518155019501930161254d565b0151905087806123f0565b6000858152602081209350601f198516905b8181106125fa57509084600195949392106125e1575b505050811b019055612405565b015160001960f88460031b161c191690558780806125d4565b929360206001819287860151815501950193016125be565b01519050878061239b565b6000858152602081209350601f198516905b81811061266b5750908460019594939210612652575b505050811b0190556123b0565b015160001960f88460031b161c19169055878080612645565b9293602060018192878601518155019501930161262f565b015190508780612346565b6000858152602081209350601f198516905b8181106126dc57509084600195949392106126c3575b505050811b01905561235b565b015160001960f88460031b161c191690558780806126b6565b929360206001819287860151815501950193016126a0565b0151905087806122f1565b6000858152602081209350601f198516905b81811061274d5750908460019594939210612734575b505050811b019055612306565b015160001960f88460031b161c19169055878080612727565b92936020600181928786015181550195019301612711565b01519050878061229d565b6000858152602081209350601f198516905b8181106127be57509084600195949392106127a5575b505050811b0190556122b2565b015160001960f88460031b161c19169055878080612798565b92936020600181928786015181550195019301612782565b015190508680612246565b9250600585016000526020600020906000935b601f1984168510612838576001945083601f1981161061281f575b505050811b01600583015561225e565b015160001960f88460031b161c1916905586808061280f565b818101518355602094850194600190930192909101906127f4565b0151905086806121ef565b9250600485016000526020600020906000935b601f19841685106128b5576001945083601f1981161061289c575b505050811b016004830155612207565b015160001960f88460031b161c1916905586808061288c565b81810151835560209485019460019093019290910190612871565b01519050868061218e565b9250600285016000526020600020906000935b601f1984168510612932576001945083601f19811610612919575b505050811b0160028301556121a6565b015160001960f88460031b161c19169055868080612909565b818101518355602094850194600190930192909101906128ee565b60405162461bcd60e51b815260206004820152603760248201527f48616e79612070617369656e20617461752061646d696e2079616e672062697360448201527f61206d656e616d6261682072656b616d206d656469732e0000000000000000006064820152608490fd5b506000546001600160a01b03163314611663565b34610183576020366003190112610183576004356005548110156101835760056000527f036b6384b5eca791c62761152d0c79bb0604c104a5fb6f4eb0703f3154bb3db001546040516001600160a01b039091168152602090f35b34610183576020366003190112610183576001600160a01b03612a48613549565b166000526002602052602060ff604060002054166040519015158152f35b34610183576000366003190112610183576040518060055480825282602080930160056000527f036b6384b5eca791c62761152d0c79bb0604c104a5fb6f4eb0703f3154bb3db09260005b85828210612adc57505050612ac89250038361362c565b610f1e6040519282849384528301906136e3565b85546001600160a01b0316845260019586019588955093019201612ab1565b346101835760203660031901126101835760043560045481101561018357612b24602091613575565b905460405160039290921b1c6001600160a01b03168152f35b34610183576020366003190112610183576001600160a01b03612b5e613549565b166000526001602052612ba36040600020610f1e60ff600183015416612b8f6002612b888561375a565b9401613af8565b6040519485946060865260608601906136a3565b911515602085015283820360408501526136e3565b34610183576020366003190112610183576001600160a01b03612bd9613549565b16806000526002602052612bf460ff60406000205416613a1f565b6000526001602052610f1e612c0f6002604060002001613af8565b6040519182916020835260208301906136e3565b346101835760003660031901126101835733600052600360205260ff60406000205416612c98573360005260036020526040600020600160ff19825416179055612c6c336139bb565b7f4b58b2df530813522df235c26662546cdf2164ef8e0f7c6d18f415d15da470586020604051338152a1005b60405162461bcd60e51b8152602060048201526024808201527f416e64612073756461682074657264616674617220736562616761692050617360448201526334b2b71760e11b6064820152608490fd5b34610183576000366003190112610183576020600854604051908152f35b3461018357602036600319011261018357610f1e611325612d26613549565b613b50565b3461018357604036600319011261018357612d44613549565b612d4c61355f565b9060018060a01b038091612d6582600054163314613901565b16806000528160209360028552612d8360ff60406000205416613a1f565b168060005260039384815260ff6040600020541615612e915782600052600181526002604060002001946000948654955b868110612e175750600160401b8610156107e757612dfb867fd9a2627959a7f46a8b96c10424cdae1f1b65151551cd206b119aca54c0a86a5a9860016040990181556135c2565b81939154911b9185831b921b19161790558351928352820152a1005b8482612e23838b6135c2565b905490861b1c1614612e3d57612e3890613a6b565b612db4565b60405162461bcd60e51b815260048101859052602660248201527f50617369656e20737564616820646974756761736b616e206b6520646f6b7465604482015265391034b7349760d11b6064820152608490fd5b6064906040519062461bcd60e51b82526004820152601760248201527f50617369656e20746964616b207465726461667461722e0000000000000000006044820152fd5b34610183576020366003190112610183576001600160a01b03612ef6613549565b166000526003602052602060ff604060002054166040519015158152f35b3461018357604036600319011261018357612f2d613549565b60249081356001600160401b03811161018357612f4e90369060040161364d565b90612f6460018060a01b03600054163314613901565b6001600160a01b03811660009081526002602052604090205460ff166132ba576001600160a01b03811660009081526003602052604090205460ff16613267576001600160a01b03811660009081526002602052604090819020805460ff191660011790555192612fd4846135f6565b6000845260405193606085018581106001600160401b038211176131bf57604052838552602085019060018252604086015260018060a01b038316600052600160205260406000209085518051906001600160401b0382116132525761303e826119168654613720565b602090601f83116001146131df5792826040959361308e936002966000926131d4575b50508160011b916000199060031b1c19161783555b511515600183019060ff801983541691151516179055565b01940151938451906001600160401b0382116131bf57600160401b958683116131aa57602090825484845580851061318d575b500190600052602060002060005b83811061317057505050506004549384101561315c57506131178360017fc38147498c0c3f6433ae14d0586b30fef7b292e301be82700c6478971c423dce9501600455613575565b81549060031b9060018060a01b038416821b9160018060a01b03901b191617905561074960405192839260018060a01b031683526040602084015260408301906136a3565b634e487b7160e01b60009081526041600452fd5b82516001600160a01b0316818301556020909201916001016130cf565b6131a490846000528584600020918201910161395f565b886130c1565b83634e487b7160e01b60005260416004526000fd5b82634e487b7160e01b60005260416004526000fd5b015190508b80613061565b908460005260206000209160005b601f198516811061323a57508361308e936002969360019360409997601f19811610613221575b505050811b018355613076565b015160001960f88460031b161c191690558b8080613214565b919260206001819286850151815501940192016131ed565b84634e487b7160e01b60005260416004526000fd5b60405162461bcd60e51b8152602060048201526026818501527f416c616d6174207375646168207465726461667461722073656261676169205060448201526530b9b4b2b71760d11b6064820152608490fd5b60405162461bcd60e51b8152602060048201526017818501527f446f6b746572207375646168207465726461667461722e0000000000000000006044820152606490fd5b346101835760203660031901126101835761332460018060a01b03600054163314613901565b6004356000908152600660205260409020600d01805460ff19169055005b346101835760203660031901126101835760043560045481101561336b57612b24602091613575565b60405162461bcd60e51b815260206004820152601960248201527f496e64657820646f6b74657220746964616b2076616c69642e000000000000006044820152606490fd5b3461018357602080600319360112610183576133ca613549565b9060018060a01b036133e181600054163314613901565b8216806000526002825260ff6040600020541661349d57806000526003825260ff604060002054166134585761344f7f4b58b2df530813522df235c26662546cdf2164ef8e0f7c6d18f415d15da470589382600052600384526040600020600160ff198254161790556139bb565b604051908152a1005b60405162461bcd60e51b815260048101839052601760248201527f50617369656e207375646168207465726461667461722e0000000000000000006044820152606490fd5b60405162461bcd60e51b815260048101839052602660248201527f416c616d6174207375646168207465726461667461722073656261676169204460448201526537b5ba32b91760d11b6064820152608490fd5b346101835760403660031901126101835761350a613549565b6001600160a01b03166000908152600760205260409020805460243591908210156101835760209161353b916135c2565b90546040519160031b1c8152f35b600435906001600160a01b038216820361018357565b602435906001600160a01b038216820361018357565b6004548110156135ac5760046000527f8a35acfbc15ff81a39ae7d344fd709f28e8600b4aa8c65c6b64bfe7fe36bd19b0190600090565b634e487b7160e01b600052603260045260246000fd5b80548210156135ac5760005260206000200190600090565b6101c081019081106001600160401b038211176107e757604052565b602081019081106001600160401b038211176107e757604052565b604081019081106001600160401b038211176107e757604052565b90601f801991011681019081106001600160401b038211176107e757604052565b81601f82011215610183578035906001600160401b0382116107e75760405192613681601f8401601f19166020018561362c565b8284526020838301011161018357816000926020809301838601378301015290565b919082519283825260005b8481106136cf575050826000602080949584010152601f8019910116010190565b6020818301810151848301820152016136ae565b90815180825260208080930193019160005b828110613703575050505090565b83516001600160a01b0316855293810193928101926001016136f5565b90600182811c92168015613750575b602083101461373a57565b634e487b7160e01b600052602260045260246000fd5b91607f169161372f565b906040519182600082549261376e84613720565b9081845260019485811690816000146137dd575060011461379a575b50506137989250038361362c565b565b9093915060005260209081600020936000915b8183106137c55750506137989350820101388061378a565b855488840185015294850194879450918301916137ad565b91505061379894506020925060ff191682840152151560051b820101388061378a565b9d9e9d6101a09c98613884829f9c96996138766138dd9f9a6138686138ce9f989d6138b09c6138bf9f6138a19c613855916138929c8c5260018060a01b031660208c01526101c08060408d01528b01906136a3565b9160608a015288820360808a01526136a3565b9086820360a08801526136a3565b9084820360c08601526136a3565b9160e08184039101526136a3565b8c81036101008e0152906136a3565b908a82036101208c01526136a3565b908882036101408a01526136a3565b908682036101608801526136a3565b908482036101808601526136a3565b931515910152565b80548210156135ac57600052600e602060002091020190600090565b1561390857565b60405162461bcd60e51b815260206004820152602960248201527f48616e79612061646d696e2079616e672062697361206d656c616b756b616e2060448201526830b5b9b49034b7349760b91b6064820152608490fd5b81811061396a575050565b6000815560010161395f565b9190601f811161398557505050565b613798926000526020600020906020601f840160051c830193106139b1575b601f0160051c019061395f565b90915081906139a4565b600554600160401b8110156107e75760018101806005558110156135ac5760056000527f036b6384b5eca791c62761152d0c79bb0604c104a5fb6f4eb0703f3154bb3db00180546001600160a01b0319166001600160a01b03909216919091179055565b15613a2657565b60405162461bcd60e51b815260206004820152601760248201527f446f6b74657220746964616b207465726461667461722e0000000000000000006044820152606490fd5b6000198114613a7a5760010190565b634e487b7160e01b600052601160045260246000fd5b60018060a01b038091166000526001908160205260026040600020016000938154945b858110613ac557505050505050600090565b83613ad082856135c2565b9190548185169260031b1c1614613aef57613aea90613a6b565b613ab3565b50505050905090565b9060405191828154918282526020928383019160005283600020936000905b828210613b2d575050506137989250038361362c565b85546001600160a01b031684526001958601958895509381019390910190613b17565b6000546001600160a01b0391821691168114613bf95780600052600260205260ff60406000205416613bd657600052600360205260ff60406000205416613bb457604051613b9d81613611565b60078152662ab735b737bbb760c91b602082015290565b604051613bc081613611565b60068152652830b9b4b2b760d11b602082015290565b50604051613be381613611565b60068152652237b5ba32b960d11b602082015290565b50604051613c0681613611565b600581526420b236b4b760d91b602082015290565b6001600160a01b03166000908152600760209081526040808320905181548082529184528284208184019282908490875b87828210613cb357505050613c639250038261362c565b805115613c9e575115613c8a57613c8792600660029360409351835252200161375a565b90565b634e487b7160e01b83526032600452602483fd5b50505060405190613cae826135f6565b815290565b8554845260019586019587955093019201613c4c565b90808214613d9d57613cdb8154613720565b906001600160401b0382116107e7578190613cfa826119168654613720565b600090601f8311600114613d3157600092613d26575b50508160011b916000199060031b1c1916179055565b015490503880613d10565b81526020808220858352818320935090601f1985169083905b828210613d84575050908460019594939210613d6b575b505050811b019055565b015460001960f88460031b161c19169055388080613d61565b8495819295850154815560018091019601940190613d4a565b505056fea264697066735822122047b4d698c1cece668c498a32db1073df1bb96942691a8ee208b839832b5ac96064736f6c63430008130033",
  "immutableReferences": {},
  "source": "// SPDX-License-Identifier: MIT\r\npragma solidity >=0.4.22 <0.9.0;\r\n\r\ncontract RekamMedis {\r\n    address public admin;\r\n\r\n    struct Dokter {\r\n        string nama;\r\n        bool aktif;\r\n        address[] assignedPasien;\r\n    }\r\n\r\n    mapping(address => Dokter) public dataDokter;\r\n    mapping(address => bool) public isDokter;\r\n    mapping(address => bool) public isPasien;\r\n\r\n    address[] public daftarDokter; // daftar semua alamat dokter\r\n    address[] public daftarPasien; // daftar semua alamat pasien\r\n\r\n    struct RekamMedisData {\r\n        uint id;\r\n        address pasien;\r\n        string nama;\r\n        uint umur;\r\n        string golonganDarah;\r\n        string tanggalLahir;\r\n        string gender;\r\n        string alamat;\r\n        string noTelepon;\r\n        string email;\r\n        string diagnosa;\r\n        string foto;\r\n        string catatan;\r\n        bool valid;\r\n    }\r\n\r\n    mapping(uint => RekamMedisData) public rekamMedis;\r\n    mapping(address => uint[]) public rekamMedisByPasien;\r\n\r\n    uint public rekamMedisCount;\r\n\r\n    // Versi history rekam medis\r\n    mapping(uint => RekamMedisData[]) public rekamMedisVersions;\r\n\r\n    // Events\r\n    event RekamMedisDitambahkan(\r\n        uint id,\r\n        address pasien,\r\n        string diagnosa,\r\n        bool valid\r\n    );\r\n    event RekamMedisDiperbarui(uint id, string diagnosa, string catatan);\r\n    event AdminDitetapkan(address newAdmin);\r\n    event DokterTerdaftar(address dokter, string nama);\r\n    event DokterStatusDiubah(address dokter, bool aktif);\r\n    event PasienDiassignKeDokter(address dokter, address pasien);\r\n    event PasienTerdaftar(address pasien);\r\n\r\n    constructor() {\r\n        admin = msg.sender; // Set pembuat kontrak sebagai admin awal\r\n    }\r\n\r\n    modifier hanyaAdmin() {\r\n        require(\r\n            msg.sender == admin,\r\n            \"Hanya admin yang bisa melakukan aksi ini.\"\r\n        );\r\n        _;\r\n    }\r\n\r\n    modifier hanyaDokterAktif() {\r\n        require(\r\n            isDokter[msg.sender] && dataDokter[msg.sender].aktif,\r\n            \"Hanya dokter aktif yang bisa memperbarui rekam medis.\"\r\n        );\r\n        _;\r\n    }\r\n\r\n    modifier hanyaDokterAktifUntukPasien(address _pasien) {\r\n        require(\r\n            isDokter[msg.sender] && dataDokter[msg.sender].aktif,\r\n            \"Hanya dokter aktif yang bisa memperbarui rekam medis.\"\r\n        );\r\n        require(\r\n            isPasienAssignedToDokter(msg.sender, _pasien),\r\n            \"Dokter tidak di-assign untuk pasien ini.\"\r\n        );\r\n        _;\r\n    }\r\n\r\n    modifier hanyaPasien(address pasien) {\r\n        require(\r\n            msg.sender == pasien,\r\n            \"Hanya pasien yang bisa membuat rekam medis mereka.\"\r\n        );\r\n        _;\r\n    }\r\n\r\n    function registerDokter(\r\n        address _dokter,\r\n        string memory _nama\r\n    ) public hanyaAdmin {\r\n        require(!isDokter[_dokter], \"Dokter sudah terdaftar.\");\r\n        require(!isPasien[_dokter], \"Alamat sudah terdaftar sebagai Pasien.\");\r\n        isDokter[_dokter] = true;\r\n        dataDokter[_dokter] = Dokter({\r\n            nama: _nama,\r\n            aktif: true,\r\n            assignedPasien: new address[](0)\r\n        });\r\n        daftarDokter.push(_dokter);\r\n        emit DokterTerdaftar(_dokter, _nama);\r\n    }\r\n    function totalDokter() public view returns (uint) {\r\n        return daftarDokter.length;\r\n    }\r\n\r\n    function getDokterByIndex(uint index) public view returns (address) {\r\n        require(index < daftarDokter.length, \"Index dokter tidak valid.\");\r\n        return daftarDokter[index];\r\n    }\r\n\r\n    function setStatusDokter(address _dokter, bool _aktif) public hanyaAdmin {\r\n        require(isDokter[_dokter], \"Dokter tidak terdaftar.\");\r\n        dataDokter[_dokter].aktif = _aktif;\r\n        emit DokterStatusDiubah(_dokter, _aktif);\r\n    }\r\n\r\n    function assignPasienToDokter(\r\n        address _dokter,\r\n        address _pasien\r\n    ) public hanyaAdmin {\r\n        require(isDokter[_dokter], \"Dokter tidak terdaftar.\");\r\n        require(isPasien[_pasien], \"Pasien tidak terdaftar.\");\r\n        address[] storage pasienDokter = dataDokter[_dokter].assignedPasien;\r\n        for (uint i = 0; i < pasienDokter.length; i++) {\r\n            require(\r\n                pasienDokter[i] != _pasien,\r\n                \"Pasien sudah ditugaskan ke dokter ini.\"\r\n            );\r\n        }\r\n        pasienDokter.push(_pasien);\r\n        emit PasienDiassignKeDokter(_dokter, _pasien);\r\n    }\r\n\r\n    function isPasienAssignedToDokter(\r\n        address _dokter,\r\n        address _pasien\r\n    ) public view returns (bool) {\r\n        address[] storage pasienList = dataDokter[_dokter].assignedPasien;\r\n        for (uint i = 0; i < pasienList.length; i++) {\r\n            if (pasienList[i] == _pasien) {\r\n                return true;\r\n            }\r\n        }\r\n        return false;\r\n    }\r\n\r\n    function getAssignedPasienByDokter(\r\n        address _dokter\r\n    ) public view returns (address[] memory) {\r\n        require(isDokter[_dokter], \"Dokter tidak terdaftar.\");\r\n        return dataDokter[_dokter].assignedPasien;\r\n    }\r\n\r\n    function getDokter(\r\n        address _dokter\r\n    )\r\n        public\r\n        view\r\n        returns (string memory nama, bool aktif, address[] memory pasien)\r\n    {\r\n        Dokter storage d = dataDokter[_dokter];\r\n        return (d.nama, d.aktif, d.assignedPasien);\r\n    }\r\n\r\n    // Daftarkan pasien oleh admin tanpa menyimpan nama secara terpisah,\r\n    // nama pasien diambil dari data rekam medis pertama\r\n    function registerPasien(address _pasien) public hanyaAdmin {\r\n        require(!isDokter[_pasien], \"Alamat sudah terdaftar sebagai Dokter.\");\r\n        require(!isPasien[_pasien], \"Pasien sudah terdaftar.\");\r\n        isPasien[_pasien] = true;\r\n        daftarPasien.push(_pasien);\r\n        emit PasienTerdaftar(_pasien);\r\n    }\r\n\r\n    // Self register pasien tanpa nama (bisa dikembangkan)\r\n    function selfRegisterPasien() public {\r\n        require(!isPasien[msg.sender], \"Anda sudah terdaftar sebagai Pasien.\");\r\n        isPasien[msg.sender] = true;\r\n        daftarPasien.push(msg.sender);\r\n        emit PasienTerdaftar(msg.sender);\r\n    }\r\n\r\n    // Ambil role user\r\n    function getUserRole(address _user) public view returns (string memory) {\r\n        if (_user == admin) return \"Admin\";\r\n        if (isDokter[_user]) return \"Dokter\";\r\n        if (isPasien[_user]) return \"Pasien\";\r\n        return \"Unknown\";\r\n    }\r\n\r\n    // Ambil daftar rekam medis milik pasien\r\n    function getRekamMedisIdsByPasien(\r\n        address pasien\r\n    ) public view returns (uint[] memory) {\r\n        return rekamMedisByPasien[pasien];\r\n    }\r\n\r\n    // Ambil daftar semua pasien\r\n    function getDaftarPasien() public view returns (address[] memory) {\r\n        return daftarPasien;\r\n    }\r\n\r\n    // Ambil nama pasien dari rekam medis pertama (jika ada)\r\n    function getNamaPasien(\r\n        address _pasien\r\n    ) public view returns (string memory) {\r\n        uint[] memory ids = rekamMedisByPasien[_pasien];\r\n        if (ids.length == 0) {\r\n            return \"\";\r\n        }\r\n        return rekamMedis[ids[0]].nama;\r\n    }\r\n\r\n    // Set admin baru\r\n    function setAdmin(address _newAdmin) public hanyaAdmin {\r\n        admin = _newAdmin;\r\n        emit AdminDitetapkan(_newAdmin);\r\n    }\r\n\r\n    // Tambah rekam medis pasien (self data input)\r\n    function tambahRekamMedis(\r\n        address _pasien,\r\n        string memory _nama,\r\n        uint _umur,\r\n        string memory _golonganDarah,\r\n        string memory _tanggalLahir,\r\n        string memory _gender,\r\n        string memory _alamat,\r\n        string memory _noTelepon,\r\n        string memory _email,\r\n        string memory _diagnosa,\r\n        string memory _foto,\r\n        string memory _catatan\r\n    ) public {\r\n        require(\r\n            msg.sender == _pasien || msg.sender == admin,\r\n            \"Hanya pasien atau admin yang bisa menambah rekam medis.\"\r\n        );\r\n\r\n        rekamMedisCount++;\r\n\r\n        if (msg.sender == admin) {\r\n            // Jika admin, simpan hanya nama, sisanya kosong atau default\r\n            rekamMedis[rekamMedisCount] = RekamMedisData(\r\n                rekamMedisCount,\r\n                _pasien,\r\n                _nama,\r\n                0, // umur default\r\n                \"\", // golonganDarah kosong\r\n                \"\", // tanggalLahir kosong\r\n                \"\", // gender kosong\r\n                \"\", // alamat kosong\r\n                \"\", // noTelepon kosong\r\n                \"\", // email kosong\r\n                \"\", // diagnosa kosong\r\n                \"\", // foto kosong\r\n                \"\", // catatan kosong\r\n                true\r\n            );\r\n        } else {\r\n            // Jika pasien, simpan semua data sesuai input\r\n            rekamMedis[rekamMedisCount] = RekamMedisData(\r\n                rekamMedisCount,\r\n                _pasien,\r\n                _nama,\r\n                _umur,\r\n                _golonganDarah,\r\n                _tanggalLahir,\r\n                _gender,\r\n                _alamat,\r\n                _noTelepon,\r\n                _email,\r\n                _diagnosa,\r\n                _foto,\r\n                _catatan,\r\n                true\r\n            );\r\n        }\r\n\r\n        rekamMedisByPasien[_pasien].push(rekamMedisCount);\r\n        emit RekamMedisDitambahkan(rekamMedisCount, _pasien, _diagnosa, true);\r\n    }\r\n\r\n    // Update rekam medis dokter aktif\r\n    function updateRekamMedis(\r\n        uint _id,\r\n        string memory _nama,\r\n        uint _umur,\r\n        string memory _golonganDarah,\r\n        string memory _tanggalLahir,\r\n        string memory _gender,\r\n        string memory _alamat,\r\n        string memory _noTelepon,\r\n        string memory _email,\r\n        string memory _diagnosa,\r\n        string memory _foto,\r\n        string memory _catatan\r\n    ) public hanyaDokterAktifUntukPasien(rekamMedis[_id].pasien) {\r\n        RekamMedisData storage rekam = rekamMedis[_id];\r\n        rekamMedisVersions[_id].push(rekam);\r\n        rekam.nama = _nama;\r\n        rekam.umur = _umur;\r\n        rekam.golonganDarah = _golonganDarah;\r\n        rekam.tanggalLahir = _tanggalLahir;\r\n        rekam.gender = _gender;\r\n        rekam.alamat = _alamat;\r\n        rekam.noTelepon = _noTelepon;\r\n        rekam.email = _email;\r\n        rekam.diagnosa = _diagnosa;\r\n        rekam.foto = _foto;\r\n        rekam.catatan = _catatan;\r\n        emit RekamMedisDiperbarui(_id, _diagnosa, _catatan);\r\n    }\r\n\r\n    // Fungsi untuk ambil versi rekam medis\r\n    function getRekamMedisVersions(\r\n        uint _id\r\n    ) public view returns (RekamMedisData[] memory) {\r\n        return rekamMedisVersions[_id];\r\n    }\r\n\r\n    // Nonaktifkan rekam medis (admin)\r\n    function nonaktifkanRekamMedis(uint _id) public hanyaAdmin {\r\n        rekamMedis[_id].valid = false;\r\n    }\r\n}\r\n",
  "sourcePath": "D:\\TA\\Rekam_Medis_Blockchain\\rekam_medis_backend\\contracts\\RekamMedis.sol",
  "compiler": {
    "name": "solc",
    "version": "0.8.19+commit.7dd6d404.Emscripten.clang"
  },
  "schemaVersion": "3.4.16",
  "updatedAt": "2025-05-21T17:08:10.813Z",
  "networkType": "ethereum",
  "devdoc": {
    "kind": "dev",
    "methods": {},
    "version": 1
  },
  "userdoc": {
    "kind": "user",
    "methods": {},
    "version": 1
  }
}