{
  "contractName": "RekamMedisRS",
  "abi": [
    {
      "inputs": [],
      "stateMutability": "nonpayable",
      "type": "constructor"
    },
    {
      "anonymous": false,
      "inputs": [
        {
          "indexed": true,
          "internalType": "address",
          "name": "admin",
          "type": "address"
        },
        {
          "indexed": false,
          "internalType": "string",
          "name": "namaRumahSakit",
          "type": "string"
        },
        {
          "indexed": false,
          "internalType": "string",
          "name": "alamatRumahSakit",
          "type": "string"
        },
        {
          "indexed": false,
          "internalType": "string",
          "name": "kota",
          "type": "string"
        },
        {
          "indexed": false,
          "internalType": "string",
          "name": "NIBRS",
          "type": "string"
        }
      ],
      "name": "AdminRSTerdaftar",
      "type": "event"
    },
    {
      "anonymous": false,
      "inputs": [
        {
          "indexed": true,
          "internalType": "address",
          "name": "dokter",
          "type": "address"
        },
        {
          "indexed": false,
          "internalType": "string",
          "name": "nama",
          "type": "string"
        },
        {
          "indexed": false,
          "internalType": "string",
          "name": "spesialisasi",
          "type": "string"
        },
        {
          "indexed": false,
          "internalType": "string",
          "name": "nomorLisensi",
          "type": "string"
        },
        {
          "indexed": true,
          "internalType": "address",
          "name": "adminRS",
          "type": "address"
        }
      ],
      "name": "DokterInfoDiperbarui",
      "type": "event"
    },
    {
      "anonymous": false,
      "inputs": [
        {
          "indexed": true,
          "internalType": "address",
          "name": "dokter",
          "type": "address"
        },
        {
          "indexed": false,
          "internalType": "bool",
          "name": "aktif",
          "type": "bool"
        }
      ],
      "name": "DokterStatusDiubah",
      "type": "event"
    },
    {
      "anonymous": false,
      "inputs": [
        {
          "indexed": true,
          "internalType": "address",
          "name": "dokter",
          "type": "address"
        },
        {
          "indexed": false,
          "internalType": "string",
          "name": "nama",
          "type": "string"
        },
        {
          "indexed": false,
          "internalType": "address",
          "name": "adminRS",
          "type": "address"
        }
      ],
      "name": "DokterTerdaftar",
      "type": "event"
    },
    {
      "anonymous": false,
      "inputs": [
        {
          "indexed": true,
          "internalType": "address",
          "name": "pasien",
          "type": "address"
        },
        {
          "indexed": false,
          "internalType": "string",
          "name": "nama",
          "type": "string"
        },
        {
          "indexed": false,
          "internalType": "string",
          "name": "NIK",
          "type": "string"
        },
        {
          "indexed": false,
          "internalType": "string",
          "name": "golonganDarah",
          "type": "string"
        },
        {
          "indexed": false,
          "internalType": "string",
          "name": "tanggalLahir",
          "type": "string"
        },
        {
          "indexed": false,
          "internalType": "string",
          "name": "gender",
          "type": "string"
        },
        {
          "indexed": false,
          "internalType": "string",
          "name": "alamat",
          "type": "string"
        },
        {
          "indexed": false,
          "internalType": "string",
          "name": "noTelepon",
          "type": "string"
        },
        {
          "indexed": false,
          "internalType": "string",
          "name": "email",
          "type": "string"
        }
      ],
      "name": "PasienDataDiperbarui",
      "type": "event"
    },
    {
      "anonymous": false,
      "inputs": [
        {
          "indexed": false,
          "internalType": "address",
          "name": "dokter",
          "type": "address"
        },
        {
          "indexed": false,
          "internalType": "address",
          "name": "pasien",
          "type": "address"
        }
      ],
      "name": "PasienDiassignKeDokter",
      "type": "event"
    },
    {
      "anonymous": false,
      "inputs": [
        {
          "indexed": false,
          "internalType": "address",
          "name": "dokter",
          "type": "address"
        },
        {
          "indexed": false,
          "internalType": "address",
          "name": "pasien",
          "type": "address"
        }
      ],
      "name": "PasienDiunassignDariDokter",
      "type": "event"
    },
    {
      "anonymous": false,
      "inputs": [
        {
          "indexed": true,
          "internalType": "address",
          "name": "pasien",
          "type": "address"
        },
        {
          "indexed": false,
          "internalType": "address",
          "name": "oldAdminRS",
          "type": "address"
        },
        {
          "indexed": false,
          "internalType": "address",
          "name": "newAdminRS",
          "type": "address"
        }
      ],
      "name": "PasienPindahRS",
      "type": "event"
    },
    {
      "anonymous": false,
      "inputs": [
        {
          "indexed": true,
          "internalType": "address",
          "name": "pasien",
          "type": "address"
        },
        {
          "indexed": false,
          "internalType": "string",
          "name": "nama",
          "type": "string"
        },
        {
          "indexed": false,
          "internalType": "string",
          "name": "IDPasien",
          "type": "string"
        },
        {
          "indexed": false,
          "internalType": "string",
          "name": "NIKPasien",
          "type": "string"
        },
        {
          "indexed": false,
          "internalType": "address",
          "name": "adminRS",
          "type": "address"
        }
      ],
      "name": "PasienTerdaftar",
      "type": "event"
    },
    {
      "anonymous": false,
      "inputs": [
        {
          "indexed": false,
          "internalType": "uint256",
          "name": "id",
          "type": "uint256"
        },
        {
          "indexed": false,
          "internalType": "address",
          "name": "pasien",
          "type": "address"
        },
        {
          "indexed": false,
          "internalType": "string",
          "name": "diagnosa",
          "type": "string"
        },
        {
          "indexed": false,
          "internalType": "string",
          "name": "foto",
          "type": "string"
        },
        {
          "indexed": false,
          "internalType": "string",
          "name": "catatan",
          "type": "string"
        },
        {
          "indexed": false,
          "internalType": "string",
          "name": "tipeRekamMedis",
          "type": "string"
        },
        {
          "indexed": false,
          "internalType": "address",
          "name": "pembuat",
          "type": "address"
        },
        {
          "indexed": false,
          "internalType": "uint256",
          "name": "timestamp",
          "type": "uint256"
        }
      ],
      "name": "RekamMedisDitambahkan",
      "type": "event"
    },
    {
      "inputs": [
        {
          "internalType": "uint256",
          "name": "",
          "type": "uint256"
        }
      ],
      "name": "daftarAdmin",
      "outputs": [
        {
          "internalType": "address",
          "name": "",
          "type": "address"
        }
      ],
      "stateMutability": "view",
      "type": "function",
      "constant": true
    },
    {
      "inputs": [
        {
          "internalType": "uint256",
          "name": "",
          "type": "uint256"
        }
      ],
      "name": "daftarDokter",
      "outputs": [
        {
          "internalType": "address",
          "name": "",
          "type": "address"
        }
      ],
      "stateMutability": "view",
      "type": "function",
      "constant": true
    },
    {
      "inputs": [
        {
          "internalType": "uint256",
          "name": "",
          "type": "uint256"
        }
      ],
      "name": "daftarPasien",
      "outputs": [
        {
          "internalType": "address",
          "name": "",
          "type": "address"
        }
      ],
      "stateMutability": "view",
      "type": "function",
      "constant": true
    },
    {
      "inputs": [
        {
          "internalType": "address",
          "name": "",
          "type": "address"
        }
      ],
      "name": "dataAdmin",
      "outputs": [
        {
          "internalType": "string",
          "name": "namaRumahSakit",
          "type": "string"
        },
        {
          "internalType": "bool",
          "name": "aktif",
          "type": "bool"
        },
        {
          "internalType": "string",
          "name": "alamatRumahSakit",
          "type": "string"
        },
        {
          "internalType": "string",
          "name": "kota",
          "type": "string"
        },
        {
          "internalType": "string",
          "name": "NIBRS",
          "type": "string"
        }
      ],
      "stateMutability": "view",
      "type": "function",
      "constant": true
    },
    {
      "inputs": [
        {
          "internalType": "address",
          "name": "",
          "type": "address"
        }
      ],
      "name": "dataDokter",
      "outputs": [
        {
          "internalType": "string",
          "name": "nama",
          "type": "string"
        },
        {
          "internalType": "string",
          "name": "spesialisasi",
          "type": "string"
        },
        {
          "internalType": "string",
          "name": "nomorLisensi",
          "type": "string"
        },
        {
          "internalType": "bool",
          "name": "aktif",
          "type": "bool"
        },
        {
          "internalType": "address",
          "name": "adminRS",
          "type": "address"
        }
      ],
      "stateMutability": "view",
      "type": "function",
      "constant": true
    },
    {
      "inputs": [
        {
          "internalType": "address",
          "name": "",
          "type": "address"
        }
      ],
      "name": "dataPasien",
      "outputs": [
        {
          "internalType": "string",
          "name": "nama",
          "type": "string"
        },
        {
          "internalType": "string",
          "name": "ID",
          "type": "string"
        },
        {
          "internalType": "string",
          "name": "NIK",
          "type": "string"
        },
        {
          "internalType": "string",
          "name": "golonganDarah",
          "type": "string"
        },
        {
          "internalType": "string",
          "name": "tanggalLahir",
          "type": "string"
        },
        {
          "internalType": "string",
          "name": "gender",
          "type": "string"
        },
        {
          "internalType": "string",
          "name": "alamat",
          "type": "string"
        },
        {
          "internalType": "string",
          "name": "noTelepon",
          "type": "string"
        },
        {
          "internalType": "string",
          "name": "email",
          "type": "string"
        },
        {
          "internalType": "address",
          "name": "rumahSakitPenanggungJawab",
          "type": "address"
        }
      ],
      "stateMutability": "view",
      "type": "function",
      "constant": true
    },
    {
      "inputs": [
        {
          "internalType": "address",
          "name": "",
          "type": "address"
        }
      ],
      "name": "isDokter",
      "outputs": [
        {
          "internalType": "bool",
          "name": "",
          "type": "bool"
        }
      ],
      "stateMutability": "view",
      "type": "function",
      "constant": true
    },
    {
      "inputs": [
        {
          "internalType": "string",
          "name": "",
          "type": "string"
        }
      ],
      "name": "isNIBRSUsed",
      "outputs": [
        {
          "internalType": "bool",
          "name": "",
          "type": "bool"
        }
      ],
      "stateMutability": "view",
      "type": "function",
      "constant": true
    },
    {
      "inputs": [
        {
          "internalType": "address",
          "name": "",
          "type": "address"
        }
      ],
      "name": "isPasien",
      "outputs": [
        {
          "internalType": "bool",
          "name": "",
          "type": "bool"
        }
      ],
      "stateMutability": "view",
      "type": "function",
      "constant": true
    },
    {
      "inputs": [
        {
          "internalType": "string",
          "name": "",
          "type": "string"
        }
      ],
      "name": "isPatientIDUsed",
      "outputs": [
        {
          "internalType": "bool",
          "name": "",
          "type": "bool"
        }
      ],
      "stateMutability": "view",
      "type": "function",
      "constant": true
    },
    {
      "inputs": [
        {
          "internalType": "string",
          "name": "",
          "type": "string"
        }
      ],
      "name": "isPatientNIKUsed",
      "outputs": [
        {
          "internalType": "bool",
          "name": "",
          "type": "bool"
        }
      ],
      "stateMutability": "view",
      "type": "function",
      "constant": true
    },
    {
      "inputs": [
        {
          "internalType": "uint256",
          "name": "",
          "type": "uint256"
        }
      ],
      "name": "rekamMedis",
      "outputs": [
        {
          "internalType": "uint256",
          "name": "id",
          "type": "uint256"
        },
        {
          "internalType": "address",
          "name": "pasien",
          "type": "address"
        },
        {
          "internalType": "string",
          "name": "diagnosa",
          "type": "string"
        },
        {
          "internalType": "string",
          "name": "foto",
          "type": "string"
        },
        {
          "internalType": "string",
          "name": "catatan",
          "type": "string"
        },
        {
          "internalType": "address",
          "name": "pembuat",
          "type": "address"
        },
        {
          "internalType": "uint256",
          "name": "timestampPembuatan",
          "type": "uint256"
        },
        {
          "internalType": "string",
          "name": "tipeRekamMedis",
          "type": "string"
        }
      ],
      "stateMutability": "view",
      "type": "function",
      "constant": true
    },
    {
      "inputs": [
        {
          "internalType": "address",
          "name": "",
          "type": "address"
        },
        {
          "internalType": "uint256",
          "name": "",
          "type": "uint256"
        }
      ],
      "name": "rekamMedisByPasien",
      "outputs": [
        {
          "internalType": "uint256",
          "name": "",
          "type": "uint256"
        }
      ],
      "stateMutability": "view",
      "type": "function",
      "constant": true
    },
    {
      "inputs": [],
      "name": "rekamMedisCount",
      "outputs": [
        {
          "internalType": "uint256",
          "name": "",
          "type": "uint256"
        }
      ],
      "stateMutability": "view",
      "type": "function",
      "constant": true
    },
    {
      "inputs": [],
      "name": "getAllAdminRSAddresses",
      "outputs": [
        {
          "internalType": "address[]",
          "name": "",
          "type": "address[]"
        }
      ],
      "stateMutability": "view",
      "type": "function",
      "constant": true
    },
    {
      "inputs": [],
      "name": "totalAdmin",
      "outputs": [
        {
          "internalType": "uint256",
          "name": "",
          "type": "uint256"
        }
      ],
      "stateMutability": "view",
      "type": "function",
      "constant": true
    },
    {
      "inputs": [
        {
          "internalType": "uint256",
          "name": "idx",
          "type": "uint256"
        }
      ],
      "name": "getAdminByIndex",
      "outputs": [
        {
          "internalType": "address",
          "name": "",
          "type": "address"
        }
      ],
      "stateMutability": "view",
      "type": "function",
      "constant": true
    },
    {
      "inputs": [
        {
          "internalType": "address",
          "name": "_admin",
          "type": "address"
        }
      ],
      "name": "getAdminRS",
      "outputs": [
        {
          "internalType": "string",
          "name": "namaRumahSakit",
          "type": "string"
        },
        {
          "internalType": "bool",
          "name": "aktif",
          "type": "bool"
        },
        {
          "internalType": "string",
          "name": "alamatRumahSakit",
          "type": "string"
        },
        {
          "internalType": "string",
          "name": "kota",
          "type": "string"
        },
        {
          "internalType": "string",
          "name": "NIBRS",
          "type": "string"
        }
      ],
      "stateMutability": "view",
      "type": "function",
      "constant": true
    },
    {
      "inputs": [
        {
          "internalType": "address",
          "name": "_dokter",
          "type": "address"
        },
        {
          "internalType": "string",
          "name": "_nama",
          "type": "string"
        },
        {
          "internalType": "string",
          "name": "_spesialisasi",
          "type": "string"
        },
        {
          "internalType": "string",
          "name": "_nomorLisensi",
          "type": "string"
        }
      ],
      "name": "registerDokter",
      "outputs": [],
      "stateMutability": "nonpayable",
      "type": "function"
    },
    {
      "inputs": [
        {
          "internalType": "address",
          "name": "_dokter",
          "type": "address"
        },
        {
          "internalType": "string",
          "name": "_namaBaru",
          "type": "string"
        },
        {
          "internalType": "string",
          "name": "_spesialisasiBaru",
          "type": "string"
        },
        {
          "internalType": "string",
          "name": "_nomorLisensiBaru",
          "type": "string"
        }
      ],
      "name": "updateDokterInfo",
      "outputs": [],
      "stateMutability": "nonpayable",
      "type": "function"
    },
    {
      "inputs": [
        {
          "internalType": "address",
          "name": "_dokter",
          "type": "address"
        },
        {
          "internalType": "bool",
          "name": "_aktif",
          "type": "bool"
        }
      ],
      "name": "setStatusDokter",
      "outputs": [],
      "stateMutability": "nonpayable",
      "type": "function"
    },
    {
      "inputs": [],
      "name": "totalDokter",
      "outputs": [
        {
          "internalType": "uint256",
          "name": "",
          "type": "uint256"
        }
      ],
      "stateMutability": "view",
      "type": "function",
      "constant": true
    },
    {
      "inputs": [
        {
          "internalType": "uint256",
          "name": "idx",
          "type": "uint256"
        }
      ],
      "name": "getDokterByIndex",
      "outputs": [
        {
          "internalType": "address",
          "name": "",
          "type": "address"
        }
      ],
      "stateMutability": "view",
      "type": "function",
      "constant": true
    },
    {
      "inputs": [
        {
          "internalType": "address",
          "name": "_dokter",
          "type": "address"
        }
      ],
      "name": "getDokter",
      "outputs": [
        {
          "internalType": "string",
          "name": "nama",
          "type": "string"
        },
        {
          "internalType": "string",
          "name": "spesialisasi",
          "type": "string"
        },
        {
          "internalType": "string",
          "name": "nomorLisensi",
          "type": "string"
        },
        {
          "internalType": "bool",
          "name": "aktif",
          "type": "bool"
        },
        {
          "internalType": "address[]",
          "name": "pasienList",
          "type": "address[]"
        },
        {
          "internalType": "address",
          "name": "adminRS",
          "type": "address"
        }
      ],
      "stateMutability": "view",
      "type": "function",
      "constant": true
    },
    {
      "inputs": [
        {
          "internalType": "address",
          "name": "_dokter",
          "type": "address"
        }
      ],
      "name": "getAssignedPatients",
      "outputs": [
        {
          "internalType": "address[]",
          "name": "",
          "type": "address[]"
        }
      ],
      "stateMutability": "view",
      "type": "function",
      "constant": true
    },
    {
      "inputs": [
        {
          "internalType": "string",
          "name": "_nama",
          "type": "string"
        },
        {
          "internalType": "string",
          "name": "_IDPasien",
          "type": "string"
        },
        {
          "internalType": "string",
          "name": "_NIKPasien",
          "type": "string"
        },
        {
          "internalType": "string",
          "name": "_golonganDarah",
          "type": "string"
        },
        {
          "internalType": "string",
          "name": "_tanggalLahir",
          "type": "string"
        },
        {
          "internalType": "string",
          "name": "_gender",
          "type": "string"
        },
        {
          "internalType": "string",
          "name": "_alamat",
          "type": "string"
        },
        {
          "internalType": "string",
          "name": "_noTelepon",
          "type": "string"
        },
        {
          "internalType": "string",
          "name": "_email",
          "type": "string"
        },
        {
          "internalType": "address",
          "name": "_adminRS",
          "type": "address"
        }
      ],
      "name": "selfRegisterPasien",
      "outputs": [],
      "stateMutability": "nonpayable",
      "type": "function"
    },
    {
      "inputs": [
        {
          "internalType": "string",
          "name": "_nama",
          "type": "string"
        },
        {
          "internalType": "string",
          "name": "_NIK",
          "type": "string"
        },
        {
          "internalType": "string",
          "name": "_golonganDarah",
          "type": "string"
        },
        {
          "internalType": "string",
          "name": "_tanggalLahir",
          "type": "string"
        },
        {
          "internalType": "string",
          "name": "_gender",
          "type": "string"
        },
        {
          "internalType": "string",
          "name": "_alamat",
          "type": "string"
        },
        {
          "internalType": "string",
          "name": "_noTelepon",
          "type": "string"
        },
        {
          "internalType": "string",
          "name": "_email",
          "type": "string"
        }
      ],
      "name": "updatePasienData",
      "outputs": [],
      "stateMutability": "nonpayable",
      "type": "function"
    },
    {
      "inputs": [
        {
          "internalType": "address",
          "name": "_newAdminRS",
          "type": "address"
        }
      ],
      "name": "updatePasienRumahSakit",
      "outputs": [],
      "stateMutability": "nonpayable",
      "type": "function"
    },
    {
      "inputs": [],
      "name": "getDaftarPasien",
      "outputs": [
        {
          "internalType": "address[]",
          "name": "",
          "type": "address[]"
        }
      ],
      "stateMutability": "view",
      "type": "function",
      "constant": true
    },
    {
      "inputs": [],
      "name": "totalPasien",
      "outputs": [
        {
          "internalType": "uint256",
          "name": "",
          "type": "uint256"
        }
      ],
      "stateMutability": "view",
      "type": "function",
      "constant": true
    },
    {
      "inputs": [
        {
          "internalType": "address",
          "name": "_pasien",
          "type": "address"
        }
      ],
      "name": "getPasienData",
      "outputs": [
        {
          "internalType": "string",
          "name": "nama",
          "type": "string"
        },
        {
          "internalType": "string",
          "name": "ID",
          "type": "string"
        },
        {
          "internalType": "string",
          "name": "NIK",
          "type": "string"
        },
        {
          "internalType": "string",
          "name": "golonganDarah",
          "type": "string"
        },
        {
          "internalType": "string",
          "name": "tanggalLahir",
          "type": "string"
        },
        {
          "internalType": "string",
          "name": "gender",
          "type": "string"
        },
        {
          "internalType": "string",
          "name": "alamat",
          "type": "string"
        },
        {
          "internalType": "string",
          "name": "noTelepon",
          "type": "string"
        },
        {
          "internalType": "string",
          "name": "email",
          "type": "string"
        },
        {
          "internalType": "address",
          "name": "rumahSakitPenanggungJawab",
          "type": "address"
        }
      ],
      "stateMutability": "view",
      "type": "function",
      "constant": true
    },
    {
      "inputs": [
        {
          "internalType": "address",
          "name": "_dokter",
          "type": "address"
        },
        {
          "internalType": "address",
          "name": "_pasien",
          "type": "address"
        }
      ],
      "name": "assignPasienToDokter",
      "outputs": [],
      "stateMutability": "nonpayable",
      "type": "function"
    },
    {
      "inputs": [
        {
          "internalType": "address",
          "name": "_dokter",
          "type": "address"
        },
        {
          "internalType": "address",
          "name": "_pasien",
          "type": "address"
        }
      ],
      "name": "unassignPasienFromDokter",
      "outputs": [],
      "stateMutability": "nonpayable",
      "type": "function"
    },
    {
      "inputs": [
        {
          "internalType": "address",
          "name": "_pasien",
          "type": "address"
        },
        {
          "internalType": "string",
          "name": "_diagnosa",
          "type": "string"
        },
        {
          "internalType": "string",
          "name": "_foto",
          "type": "string"
        },
        {
          "internalType": "string",
          "name": "_catatan",
          "type": "string"
        },
        {
          "internalType": "string",
          "name": "_tipeRekamMedis",
          "type": "string"
        }
      ],
      "name": "tambahRekamMedis",
      "outputs": [],
      "stateMutability": "nonpayable",
      "type": "function"
    },
    {
      "inputs": [
        {
          "internalType": "address",
          "name": "_pasien",
          "type": "address"
        }
      ],
      "name": "getRekamMedisIdsByPasien",
      "outputs": [
        {
          "internalType": "uint256[]",
          "name": "",
          "type": "uint256[]"
        }
      ],
      "stateMutability": "view",
      "type": "function",
      "constant": true
    },
    {
      "inputs": [
        {
          "internalType": "uint256",
          "name": "_id",
          "type": "uint256"
        }
      ],
      "name": "getRekamMedis",
      "outputs": [
        {
          "internalType": "uint256",
          "name": "id",
          "type": "uint256"
        },
        {
          "internalType": "address",
          "name": "pasien",
          "type": "address"
        },
        {
          "internalType": "string",
          "name": "diagnosa",
          "type": "string"
        },
        {
          "internalType": "string",
          "name": "foto",
          "type": "string"
        },
        {
          "internalType": "string",
          "name": "catatan",
          "type": "string"
        },
        {
          "internalType": "address",
          "name": "pembuat",
          "type": "address"
        },
        {
          "internalType": "uint256",
          "name": "timestampPembuatan",
          "type": "uint256"
        },
        {
          "internalType": "string",
          "name": "tipeRekamMedis",
          "type": "string"
        }
      ],
      "stateMutability": "view",
      "type": "function",
      "constant": true
    },
    {
      "inputs": [
        {
          "internalType": "address",
          "name": "_pasien",
          "type": "address"
        }
      ],
      "name": "getRekamMedisByPasienUntukAdminRS",
      "outputs": [
        {
          "components": [
            {
              "internalType": "uint256",
              "name": "id",
              "type": "uint256"
            },
            {
              "internalType": "address",
              "name": "pasien",
              "type": "address"
            },
            {
              "internalType": "string",
              "name": "diagnosa",
              "type": "string"
            },
            {
              "internalType": "string",
              "name": "foto",
              "type": "string"
            },
            {
              "internalType": "string",
              "name": "catatan",
              "type": "string"
            },
            {
              "internalType": "address",
              "name": "pembuat",
              "type": "address"
            },
            {
              "internalType": "uint256",
              "name": "timestampPembuatan",
              "type": "uint256"
            },
            {
              "internalType": "string",
              "name": "tipeRekamMedis",
              "type": "string"
            }
          ],
          "internalType": "struct RekamMedisRS.RekamMedisData[]",
          "name": "",
          "type": "tuple[]"
        }
      ],
      "stateMutability": "view",
      "type": "function",
      "constant": true
    },
    {
      "inputs": [
        {
          "internalType": "address",
          "name": "_user",
          "type": "address"
        }
      ],
      "name": "getUserRole",
      "outputs": [
        {
          "internalType": "string",
          "name": "",
          "type": "string"
        }
      ],
      "stateMutability": "view",
      "type": "function",
      "constant": true
    },
    {
      "inputs": [],
      "name": "getPasienByAdminRS",
      "outputs": [
        {
          "internalType": "address[]",
          "name": "",
          "type": "address[]"
        }
      ],
      "stateMutability": "view",
      "type": "function",
      "constant": true
    }
  ],
  "bytecode": "0x60806040523462000e2a576200001462000e4f565b601081526f52532053696c6f616d204d616c616e6760801b60208201526200003b62000e4f565b601e81527f4a6c2e2052617961204c616e67736570204e6f2e20322c204d616c616e67000060208201526200006f62000e4f565b9060068252654d616c616e6760d01b60208301526200008d62000e4f565b92600b84526a4e494252532d534d30303160a81b6020850152620000b062000e2f565b8181526001602082015282604082015283606082015284608082015273153f67a7b7169ce3f13f8a81dc9cae0bc27dbf216000526000602052604060002090805180519060018060401b0382116200070e57835490600182811c9216801562000e1f575b6020831014620007f35781601f84931162000dca575b50602090601f831160011462000d595760009262000d4d575b50508160011b916000199060031b1c19161782555b6200017860208201511515600184019060ff801983541691151516179055565b60408101518051906001600160401b0382116200070e57600284015490600182811c9216801562000d42575b6020831014620007f35781601f84931162000cea575b50602090601f831160011462000c735760009262000c67575b50508160011b916000199060031b1c19161760028301555b60608101518051906001600160401b0382116200070e576003840154600181811c9116801562000c5c575b6020821014620007f357601f811162000c10575b50602090601f831160011462000b985760809392916000918362000b8c575b50508160011b916000199060031b1c19161760038401555b01518051906001600160401b0382116200070e576004830154600181811c9116801562000b81575b6020821014620007f357601f811162000b35575b50602090601f831160011462000ac057600492916000918362000ab4575b50508160011b916000199060031b1c1916179101555b600254680100000000000000008110156200070e576001810180600255811015620006f85773153f67a7b7169ce3f13f8a81dc9cae0bc27dbf219460008051602062005ea283398151915294620003759260026000526020600020018760018060a01b0319825416179055604051602081845162000353818385890162000e6f565b81016001815203019020600160ff198254161790556040519485948562000ebb565b0390a26200038262000e4f565b600f81526e52532053696c6f616d20596f67796160881b6020820152604051606081016001600160401b038111828210176200070e57604052602881527f4a6c2e204c616b736461204164697375636970746f204e6f2e2033322c20596f6020820152676779616b6172746160c01b60408201526200040062000e4f565b90600a825269596f6779616b6172746160b01b60208301526200042262000e4f565b92600b84526a4e494252532d535930303160a81b60208501526200044562000e2f565b8181526001602082015282604082015283606082015284608082015273d95a4ee9149fcb31c535ef6cbd65f4c23d9f799760005260006020526040600020815180519060018060401b0382116200070e57825490600182811c9216801562000aa9575b6020831014620007f35781601f84931162000a54575b50602090601f8311600114620009e357600092620009d7575b50508160011b916000199060031b1c19161781555b6200050c60208301511515600183019060ff801983541691151516179055565b60408201518051906001600160401b0382116200070e57600283015490600182811c92168015620009cc575b6020831014620007f35781601f84931162000974575b50602090601f8311600114620008fd57600092620008f1575b50508160011b916000199060031b1c19161760028201555b60608201518051906001600160401b0382116200070e576003830154600181811c91168015620008e6575b6020821014620007f357601f81116200089a575b50602090601f8311600114620008205791806080949260049460009262000814575b50508160011b916000199060031b1c19161760038201555b0191015180519060018060401b0382116200070e57825490600182811c9216801562000809575b6020831014620007f35781601f8493116200079b575b50602090601f8311600114620007305760009262000724575b50508160011b916000199060031b1c19161790555b600254680100000000000000008110156200070e576001810180600255811015620006f85773d95a4ee9149fcb31c535ef6cbd65f4c23d9f79979460008051602062005ea283398151915294620006e59260026000526020600020018760018060a01b0319825416179055604051602081845162000353818385890162000e6f565b0390a2604051614f93908162000f0f8239f35b634e487b7160e01b600052603260045260246000fd5b634e487b7160e01b600052604160045260246000fd5b0151905038806200064e565b6000858152602081209350601f198516905b81811062000782575090846001959493921062000768575b505050811b01905562000663565b015160001960f88460031b161c191690553880806200075a565b9293602060018192878601518155019501930162000742565b909150836000526020600020601f840160051c81019160208510620007e8575b90601f859493920160051c01905b818110620007d8575062000635565b60008155849350600101620007c9565b9091508190620007bb565b634e487b7160e01b600052602260045260246000fd5b91607f16916200061f565b015190503880620005e0565b906003840160005260206000209160005b601f1985168110620008815750926080949260019260049583601f1981161062000867575b505050811b016003820155620005f8565b015160001960f88460031b161c1916905538808062000856565b9192602060018192868501518155019401920162000831565b600384016000526020600020601f840160051c810160208510620008de575b601f830160051c82018110620008d1575050620005be565b60008155600101620008b9565b5080620008b9565b90607f1690620005aa565b01519050388062000567565b9250600284016000526020600020906000935b601f198416851062000958576001945083601f198116106200093e575b505050811b0160028201556200057f565b015160001960f88460031b161c191690553880806200092d565b8181015183556020948501946001909301929091019062000910565b909150600284016000526020600020601f840160051c810160208510620009c4575b90849392915b601f830160051c82018110620009b45750506200054e565b600081558594506001016200099c565b508062000996565b91607f169162000538565b015190503880620004d7565b9250836000526020600020906000935b601f198416851062000a38576001945083601f1981161062000a1e575b505050811b018155620004ec565b015160001960f88460031b161c1916905538808062000a10565b81810151835560209485019460019093019290910190620009f3565b909150836000526020600020601f840160051c81016020851062000aa1575b90849392915b601f830160051c8201811062000a91575050620004be565b6000815585945060010162000a79565b508062000a73565b91607f1691620004a8565b015190503880620002bb565b906004840160005260206000209160005b601f198516811062000b1c5750918391600193600495601f1981161062000b02575b505050811b01910155620002d1565b015160001960f88460031b161c1916905538808062000af3565b9192602060018192868501518155019401920162000ad1565b600484016000526020600020601f840160051c81016020851062000b79575b601f830160051c8201811062000b6c5750506200029d565b6000815560010162000b54565b508062000b54565b90607f169062000289565b01519050388062000249565b906003850160005260206000209160005b601f198516811062000bf7575091839160019360809695601f1981161062000bdd575b505050811b01600384015562000261565b015160001960f88460031b161c1916905538808062000bcc565b9192602060018192868501518155019401920162000ba9565b600385016000526020600020601f840160051c81016020851062000c54575b601f830160051c8201811062000c475750506200022a565b6000815560010162000c2f565b508062000c2f565b90607f169062000216565b015190503880620001d3565b9250600285016000526020600020906000935b601f198416851062000cce576001945083601f1981161062000cb4575b505050811b016002830155620001eb565b015160001960f88460031b161c1916905538808062000ca3565b8181015183556020948501946001909301929091019062000c86565b909150600285016000526020600020601f840160051c81016020851062000d3a575b90849392915b601f830160051c8201811062000d2a575050620001ba565b6000815585945060010162000d12565b508062000d0c565b91607f1691620001a4565b01519050388062000143565b9250846000526020600020906000935b601f198416851062000dae576001945083601f1981161062000d94575b505050811b01825562000158565b015160001960f88460031b161c1916905538808062000d86565b8181015183556020948501946001909301929091019062000d69565b909150846000526020600020601f840160051c81016020851062000e17575b90849392915b601f830160051c8201811062000e075750506200012a565b6000815585945060010162000def565b508062000de9565b91607f169162000114565b600080fd5b6040519060a082016001600160401b038111838210176200070e57604052565b60408051919082016001600160401b038111838210176200070e57604052565b60005b83811062000e835750506000910152565b818101518382015260200162000e72565b9060209162000eaf8151809281855285808601910162000e6f565b601f01601f1916010190565b9262000eed62000f0b959362000ede62000efc9460808852608088019062000e94565b90868203602088015262000e94565b90848203604086015262000e94565b91606081840391015262000e94565b9056fe610280604052600436101561001357600080fd5b60003560e01c8062410cb314614434578063046bdbcc146143c6578063050567d21461439a5780630a0d6729146135775780631132beb51461353857806311c6554e1461322f5780631788411b1461280f57806319d9d3dd1461278e57806319e8f405146124c65780631cf64afd146123455780632120e53f14612293578063278208511461225b5780632b7d8af81461222f5780632e2dd102146122115780633bf763031461219b5780633da05518146120b5578063426996511461208c57806347960cb514611fb857806351887b6714611f235780635c4c934814611ee4578063610a852614611740578063623785c1146116d257806364319e33146116b4578063683700871461168b578063786f3fbe146115d55780637d3e9db8146115b7578063911b633a1461157557806392fa9240146113ea578063932e0f6d146112ef578063a665102c14611220578063abf72abb1461119f578063b75de7a814610d74578063c0664b7e14610d05578063c3c0fdea14610c58578063c967ede814610b8b578063cfb8579e14610b4c578063ddbd24d3146104c0578063e29993a5146101ec5763e5cc3394146101c957600080fd5b346101e75760003660031901126101e7576020600a54604051908152f35b600080fd5b346101e75760403660031901126101e75761020561448c565b61020d6144a2565b90336000526020916000835261022760406000205461476a565b1515806104a6575b61023890614a40565b60018060a01b0391828116806000526004855261025c60ff60406000205416614b46565b8060005260039081865261027b33866005604060002001541614614b92565b84841694856000526007875261029860ff60406000205416614d5d565b8560005260068752338160096040600020015416036104495760009160005282875260046040600020019160005b83548082101561043b5788846102dc8488614573565b905490891b1c16146102f757506102f290614da9565b6102c6565b915091929394959650600019918282019182116104255761032d8461031f61034c9488614573565b905490891b1c169186614573565b90919082549060031b9160018060a01b03809116831b921b1916179055565b8254801561040f5701926103608484614573565b81939154921b1b191690555560015b156103bb57604080516001600160a01b0392831681529290911660208301527f80b4d8d360eb6524bf34c2207f48a267b84469bad95c9e9540413349e9f416a59250819081015b0390a1005b60405162461bcd60e51b815260048101849052602660248201527f50617369656e20746964616b20646974756761736b616e206b6520646f6b7465604482015265391034b7349760d11b6064820152608490fd5b634e487b7160e01b600052603160045260246000fd5b634e487b7160e01b600052601160045260246000fd5b50509394955050505061036f565b60405162461bcd60e51b815260048101889052602f60248201527f50617369656e20696e6920746964616b2074657264616674617220646920727560448201526e36b0b41039b0b5b4ba1020b732309760891b6064820152608490fd5b50336000908152808452604090206001015460ff1661022f565b346101e7576104ce36614970565b91949392903360005260006020526104ea60406000205461476a565b151580610b2c575b6104fb90614a40565b6001600160a01b03871660009081526004602052604090205460ff16610ad4576001600160a01b03871660009081526007602052604090205460ff16610a695760018060a01b038716600052600060205261055a60406000205461476a565b6109ee5760018060a01b03871660005260046020526040600020600160ff1982541617905560405192602084018481106001600160401b0382111761082d5760405260008452604051968760c08101106001600160401b0360c08a01111761082d576105eb936105df9160c08a016040526105d636898b6145e3565b8a5236916145e3565b602088015236916145e3565b60408501526001606085015260808401523360a084015260018060a01b038416600052600360205260406000209280518051906001600160401b03821161082d5781906106428261063c895461476a565b89614ae0565b602090601f831160011461098257600092610977575b50508160011b916000199060031b1c19161784555b60208101518051906001600160401b03821161082d57819061069f8261069660018a015461476a565b60018a01614ae0565b602090601f8311600114610905576000926108fa575b50508160011b916000199060031b1c19161760018501555b60408101518051906001600160401b03821161082d5781906106ff826106f660028a015461476a565b60028a01614ae0565b602090601f83116001146108885760009261087d575b50508160011b916000199060031b1c19161760028501555b61074c60608201511515600386019060ff801983541691151516179055565b60048401936080820151948551906001600160401b03821161082d57600160401b9687831161082d576020908254848455808510610860575b500190600052602060002060005b83811061084357505050506005019060a0600180821b03910151166001600160601b0360a01b8254161790556005549283101561082d576107ff8461032d8560017f5c9d12a5bfda65f31ab460df37935bfe7b6cfa6a3787bf1f99858ccc15dc927797016005556144b8565b610816604051928392604084526040840191614b25565b3360208301526001600160a01b03909416930390a2005b634e487b7160e01b600052604160045260246000fd5b82516001600160a01b031681830155602090920191600101610793565b610877908460005285846000209182019101614ac9565b8a610785565b015190508780610715565b9250600287016000526020600020906000935b601f19841685106108df576001945083601f198116106108c6575b505050811b01600285015561072d565b015160001960f88460031b161c191690558780806108b6565b8181015183556020948501946001909301929091019061089b565b0151905087806106b5565b9250600187016000526020600020906000935b601f198416851061095c576001945083601f19811610610943575b505050811b0160018501556106cd565b015160001960f88460031b161c19169055878080610933565b81810151835560209485019460019093019290910190610918565b015190508780610658565b9250866000526020600020906000935b601f19841685106109d3576001945083601f198116106109ba575b505050811b01845561066d565b015160001960f88460031b161c191690558780806109ad565b81810151835560209485019460019093019290910190610992565b60405162461bcd60e51b815260206004820152604760248201527f416c616d617420696e692073756461682074657264616674617220736562616760448201527f61692041646d696e2052532c20746964616b2062697361206d656e6a616469206064820152663237b5ba32b91760c91b608482015260a490fd5b60405162461bcd60e51b815260206004820152603f60248201527f416c616d617420696e692074657264616674617220736562616761692070617360448201527f69656e2c20746964616b2062697361206d656e6a61646920646f6b7465722e006064820152608490fd5b60405162461bcd60e51b815260206004820152602a60248201527f416c616d617420696e692073756461682074657264616674617220736562616760448201526930b4903237b5ba32b91760b11b6064820152608490fd5b503360005260006020526104fb60ff6001604060002001541690506104f2565b346101e757602060ff610b7582610b6236614629565b8160405193828580945193849201614667565b8101600981520301902054166040519015158152f35b346101e7576020806003193601126101e7576001600160a01b03610bad61448c565b168060005260078252610bc760ff60406000205416614c8e565b600052600c8152604060002060405190818382549182815201908192600052846000209060005b86828210610c44578686610c04828803836145c2565b604051928392818401908285525180915260408401929160005b828110610c2d57505050500390f35b835185528695509381019392810192600101610c1e565b835485529093019260019283019201610bee565b346101e75760203660031901126101e757610cd86001600160a01b0380610c7d61448c565b1660005260036020526040600020610c94816147a4565b91610cf4610ca4600184016147a4565b91610ce6610cb4600286016147a4565b91600560ff600388015416960154169360405197889760a0895260a08901906146b7565b9087820360208901526146b7565b9085820360408701526146b7565b911515606084015260808301520390f35b346101e75760203660031901126101e7576001600160a01b03610d2661448c565b16806000526004602052610d4160ff60406000205416614bf6565b6000526003602052610d70610d5c60046040600020016149e8565b6040519182916020835260208301906146dc565b0390f35b346101e757610d8236614970565b95949290939195336000526000602052610da060406000205461476a565b15158061117f575b610db190614a40565b60018060a01b0391828716600052600460205260ff60406000205416156111305782871660005260039788602052338460056040600020015416036110d1578388166000528860205260406000206001600160401b0380871161082d57610e2287610e1c845461476a565b84614ae0565b866000601f821160011461106c57600091611061575b50600019888d1b1c1916600188901b1782555b80831161082d5760018201610e6a84610e64835461476a565b83614ae0565b836000601f8211600114610ffe57600091610ff3575b50600019858e1b1c1916600185901b1790555b841161082d57610eb384610eaa600284015461476a565b60028401614ae0565b6000601f8511600114610f56579184939160027f4e15ca2ba26538cdb1e2f0d595a1ec96fe8fbb126404e0cc083426c33ccbdd959a9b9c610f469897610f3496600091610f4b575b508760011b9188600019911b1c1916179101555b610f2660405198899860608a5260608a0191614b25565b918783036020890152614b25565b91848303604086015233981696614b25565b0390a3005b90508d01358f610efb565b99601f198516906002830160005260206000209160005b818110610fdb5750917f4e15ca2ba26538cdb1e2f0d595a1ec96fe8fbb126404e0cc083426c33ccbdd959a9b9c87969492610f469998610f34979510610fc1575b5050506002600186811b01910155610f0f565b60f888600019921b161c19908d01351690558c8080610fae565b8b8e0135845560209d8e019d60019094019301610f6d565b90508501358d610e80565b60008381526020812092505b601f1987168110611049575085601f19811610611031575b5050600184811b019055610e93565b860135600019868f1b60f8161c191690558c80611022565b9091602060018192858b01358155019301910161100a565b90508801358c610e38565b60008481526020812092508990601f198216905b8c8282106110b75750501061109f575b5050600187811b018255610e4b565b890135600019898e1b60f8161c191690558b80611090565b84013585556001909401936020938401938c935001611080565b60405162461bcd60e51b815260206004820152603160248201527f416e64612062756b616e2061646d696e2052532079616e672062657268616b206044820152703ab73a3ab5903237b5ba32b91034b7349760791b6064820152608490fd5b60405162461bcd60e51b815260206004820152602160248201527f446f6b74657220746964616b207465726461667461722064692073697374656d6044820152601760f91b6064820152608490fd5b50336000526000602052610db160ff600160406000200154169050610da8565b346101e75760203660031901126101e757600435600052600b60205260406000208054610d7060018060a01b0380600185015416936111e0600282016147a4565b916111ed600383016147a4565b906111fa600484016147a4565b90600584015416916112136007600686015495016147a4565b946040519889988961484a565b346101e75760203660031901126101e7576001600160a01b038061124261448c565b1680600052600760205261125d60ff60406000205416614c8e565b6000526006602052604060002090600982015416610d7061127d836147a4565b9161128a600185016147a4565b93611297600282016147a4565b906112a4600382016147a4565b6112b0600483016147a4565b6112bc600584016147a4565b906112c9600685016147a4565b926112e260086112db600788016147a4565b96016147a4565b956040519a8b9a8b6148b6565b346101e75760403660031901126101e75761130861448c565b602435801515908181036101e7577f3dcd68c14f5f191f12b3b56bf35d5d7eb22447e9ec685290967b4558822ca98a91336000526113c76020926000845261135460406000205461476a565b1515806113d0575b61136590614a40565b6113a660018060a01b0380971696876000526004865261138c60ff60406000205416614b46565b876000526003865233906005604060002001541614614b92565b856000526003845260036040600020019060ff801983541691151516179055565b604051908152a2005b50336000908152808552604090206001015460ff1661135c565b346101e7576020806003193601126101e75761140461448c565b336000526007825261141d60ff60406000205416614c8e565b6001600160a01b03818116600081815280855260409020600101549092919060ff1615611519573360005260068452828160096040600020015416146114c357336000818152600690955260409485902060090180546001600160a01b0319811695909517905584516001600160a01b03929094168216845291166020830152917f3457f52cd7f93503903afd272e58438c52a23561e74eddba2144dc53d7af0e4491a2005b60405162461bcd60e51b815260048101859052602860248201527f416e6461207375646168207465726461667461722064692072756d616820736160448201526735b4ba1034b7349760c11b6064820152608490fd5b60405162461bcd60e51b815260048101859052602e60248201527f52756d61682053616b6974206261727520746964616b20616b7469662061746160448201526d3a903a34b230b5903b30b634b21760911b6064820152608490fd5b346101e75760203660031901126101e7576004356002548110156101e75761159e60209161453c565b905460405160039290921b1c6001600160a01b03168152f35b346101e75760003660031901126101e7576020600554604051908152f35b346101e75760203660031901126101e7576001600160a01b03806115f761448c565b166000526006602052604060002090610d70611612836147a4565b9161161f600185016147a4565b9361162c600282016147a4565b91611639600383016147a4565b611645600484016147a4565b611651600585016147a4565b9061165e600686016147a4565b9261166b600787016147a4565b94600961167a600889016147a4565b97015416966040519a8b9a8b6148b6565b346101e75760203660031901126101e757600435600a548110156101e75761159e602091614505565b346101e75760003660031901126101e7576020600254604051908152f35b346101e75760203660031901126101e7576004356002548110156116fb5761159e60209161453c565b60405162461bcd60e51b815260206004820152601c60248201527f496e64656b732061646d696e20525320746964616b2076616c69642e000000006044820152606490fd5b346101e75760a03660031901126101e75761175961448c565b6024356001600160401b0381116101e75761177890369060040161468a565b916044356001600160401b0381116101e75761179890369060040161468a565b93906064356001600160401b0381116101e7576117b990369060040161468a565b916084356001600160401b0381116101e7576117d990369060040161468a565b92909333600052600460205260ff6040600020541680611ecd575b15611e6c576001600160a01b03871660009081526007602052604090205461181e9060ff16614d5d565b336000908152600360209081526040808320600501546001600160a01b038b811685526006909352922060090154918116911603611e01576118608733614db8565b15611d9657611870600d54614da9565b9283600d556040516118818161458b565b8481526001600160a01b038916602082015261189e36898c6145e3565b60408201526118ae368c846145e3565b60608201526118be3684866145e3565b60808201523360a08201524260c08201526118da3687896145e3565b60e082015284600052600b602052604060002090805182556001820160018060a01b036020830151166001600160601b0360a01b82541617905560408101518051906001600160401b03821161082d5781906119468261193d600288015461476a565b60028801614ae0565b602090601f8311600114611d2457600092611d19575b50508160011b916000199060031b1c19161760028301555b60608101518051906001600160401b03821161082d5781906119a68261199d600388015461476a565b60038801614ae0565b602090601f8311600114611ca757600092611c9c575b50508160011b916000199060031b1c19161760038301555b60808101518051906001600160401b03821161082d57611a04826119fb600487015461476a565b60048701614ae0565b602090601f8311600114611c295760e093929160009183611c1e575b50508160011b916000199060031b1c19161760048401555b6005830160018060a01b0360a0830151166001600160601b0360a01b82541617905560c0810151600684015501518051906001600160401b03821161082d57611a9182611a88600786015461476a565b60078601614ae0565b602090601f8311600114611bae576007929160009183611ba3575b50508160011b916000199060031b1c1916179101555b60018060a01b038816600052600c60205260406000209081549a600160401b8c101561082d57611b6860209b611b929a611b84987f6530349a6e8f9162290f6de52adc987794b9dcf2b88018454bede841bcf8c2829f80611b76986001611b2b93018155614573565b81549060031b9083821b91600019901b19161790556040519e8f9e8f92835260018060a01b031691015260408d61010091829101528d0191614b25565b918a830360608c0152614b25565b918783036080890152614b25565b9184830360a0860152614b25565b3360c08301524260e08301520390a1005b015190508e80611aac565b906007840160005260206000209160005b601f1985168110611c065750918391600193600795601f19811610611bed575b505050811b01910155611ac2565b015160001960f88460031b161c191690558e8080611bdf565b91926020600181928685015181550194019201611bbf565b015190508f80611a20565b906004850160005260206000209160005b601f1985168110611c84575091839160019360e09695601f19811610611c6b575b505050811b016004840155611a38565b015160001960f88460031b161c191690558f8080611c5b565b91926020600181928685015181550194019201611c3a565b015190508e806119bc565b9250600385016000526020600020906000935b601f1984168510611cfe576001945083601f19811610611ce5575b505050811b0160038301556119d4565b015160001960f88460031b161c191690558e8080611cd5565b81810151835560209485019460019093019290910190611cba565b015190508e8061195c565b9250600285016000526020600020906000935b601f1984168510611d7b576001945083601f19811610611d62575b505050811b016002830155611974565b015160001960f88460031b161c191690558e8080611d52565b81810151835560209485019460019093019290910190611d37565b60405162461bcd60e51b815260206004820152603c60248201527f446f6b74657220696e6920746964616b20646974756761736b616e20756e747560448201527f6b206d656e616e67616e692070617369656e2074657273656275742e000000006064820152608490fd5b60405162461bcd60e51b815260206004820152603860248201527f446f6b7465722064616e2070617369656e20746964616b20626572616461206460448201527f692072756d61682073616b69742079616e672073616d612e00000000000000006064820152608490fd5b60405162461bcd60e51b815260206004820152603360248201527f48616e796120646f6b74657220616b7469662079616e67206461706174206d656044820152723730b6b130b4103932b5b0b69036b2b234b99760691b6064820152608490fd5b50600360205260ff600360406000200154166117f4565b346101e75760203660031901126101e7576001600160a01b03611f0561448c565b166000526004602052602060ff604060002054166040519015158152f35b346101e75760003660031901126101e75760405180600a54808252826020809301600a6000527fc65a7bb8d6351c1cf70c95a316cc6a92839c986682d98bc35f958f4883f9d2a89260005b85828210611f9957505050611f85925003836145c2565b610d706040519282849384528301906146dc565b85546001600160a01b0316845260019586019588955093019201611f6e565b346101e75760203660031901126101e7576004356000818152600b60205260409020600101546001600160a01b03919082161561204757600052600b6020526040600020610d708154918360018201541693600582015416600682015490612022600284016147a4565b9261202f600382016147a4565b6112136007612040600485016147a4565b93016147a4565b60405162461bcd60e51b815260206004820152601c60248201527f52656b616d206d6564697320746964616b20646974656d756b616e2e000000006044820152606490fd5b346101e75760203660031901126101e7576004356005548110156101e75761159e6020916144b8565b346101e75760203660031901126101e7576121606001600160a01b03806120da61448c565b168060005260046020526120f560ff60406000205416614bf6565b600052600360205260406000209061219160ff600384015416916005840154169161211f846147a4565b9361217c61212f600183016147a4565b9161216e61214b6004612144600285016147a4565b93016149e8565b93604051998a9960c08b5260c08b01906146b7565b9089820360208b01526146b7565b9087820360408901526146b7565b911515606086015284820360808601526146dc565b9060a08301520390f35b346101e75760203660031901126101e7576001600160a01b036121bc61448c565b16600052600060205260406000206121d3816147a4565b610d7060ff600184015416926121eb600282016147a4565b9061220460046121fd600384016147a4565b92016147a4565b9160405195869586614719565b346101e75760003660031901126101e7576020600d54604051908152f35b346101e757602060ff61224582610b6236614629565b8101600181520301902054166040519015158152f35b346101e75760203660031901126101e757610d7061227f61227a61448c565b614e35565b6040519182916020835260208301906146b7565b346101e75760203660031901126101e7576001600160a01b036122b461448c565b168060005260006020526122cc60406000205461476a565b15612300576000526000602052604060002060ff60018201541690610d706122f3826147a4565b916121eb600282016147a4565b60405162461bcd60e51b815260206004820152601960248201527f41646d696e20525320746964616b20646974656d756b616e2e000000000000006044820152606490fd5b346101e75760003660031901126101e7573360005260206000815261236e60406000205461476a565b1515806124ac575b61237f90614a40565b6000906000600a54905b818110612453575061239a83614ab2565b926123a860405194856145c2565b8084526123b7601f1991614ab2565b0136838501376000805b8281106123df57505050610d706040519282849384528301906146dc565b6123e881614505565b60018060a01b03809254600392831b1c166000526006865233826009604060002001541614612422575b505061241d90614da9565b6123c1565b9261244b91839461243561241d95614505565b9054911b1c166124458289614e21565b52614da9565b919086612412565b61245c81614505565b905460039190911b1c6001600160a01b039081166000908152600685526040902060090154163314612497575b61249290614da9565b612389565b926124a461249291614da9565b939050612489565b50336000908152808252604090206001015460ff16612376565b346101e75760403660031901126101e7576124df61448c565b6124e76144a2565b336000526020916000835261250060406000205461476a565b151580612774575b61251190614a40565b60018060a01b0380821693846000526004815261253560ff60406000205416614b46565b8460005260039485825261255433846005604060002001541614614b92565b82851692836000526007835261257160ff60406000205416614d5d565b8360005260068352806009604060002001541633811490811561276b575b50156126e857836000526006835260096040600020018054828116156126d3575b5050956000916000528083526004604060002001936000978554985b89811061269d575b505050506126415750600160401b84101561082d578261032d8561261e9360017fd9a2627959a7f46a8b96c10424cdae1f1b65151551cd206b119aca54c0a86a5a98018155614573565b604080516001600160a01b039283168152929091166020830152819081016103b6565b6084906040519062461bcd60e51b82526004820152602f60248201527f50617369656e20696e6920737564616820646974756761736b616e206b65206460448201526e37b5ba32b9103a32b939b2b13aba1760891b6064820152fd5b82826126a9838a614573565b905490871b1c16146126c3576126be90614da9565b6125cc565b50505050506001868080806125d4565b6001600160a01b0319163317905587806125b0565b60405162461bcd60e51b815260048101849052604f60248201527f50617369656e20696e6920746964616b2074657264616674617220646920727560448201527f6d61682073616b697420416e646120617461752073756461682064692d61737360648201526e34b3b71035b2902929903630b4b71760891b608482015260a490fd5b9050158861258f565b50336000908152808452604090206001015460ff16612508565b346101e75760003660031901126101e7576040518060025480825282602080930160026000527f405787fa12a823e0f2b7631cc41b3ba8828b3321ca811111fa75cd3aa3bb5ace9260005b858282106127f057505050611f85925003836145c2565b85546001600160a01b03168452600195860195889550930192016127d9565b346101e7576101003660031901126101e7576004356001600160401b0381116101e75761284090369060040161468a565b9060a0526024356001600160401b0381116101e75761286390369060040161468a565b6080526044356001600160401b0381116101e75761288590369060040161468a565b906064356001600160401b0381116101e7576128a590369060040161468a565b906084356001600160401b0381116101e7576128c590369060040161468a565b9290936001600160401b0360a435116101e7576128e73660a43560040161468a565b96909760c4356001600160401b0381116101e75761290990369060040161468a565b610220526101a05260e4356001600160401b0381116101e75761293090369060040161468a565b6101e0526102405233600052600760205261295260ff60406000205416614c8e565b336000526006602052600260406000200160405161298681612978602082018095614cda565b03601f1981018352826145c2565b51902060405160208101906080518483376129b360208260805181016000838201520380845201826145c2565b5190200361312a575b33600052600660205260406000206001600160401b038b1161082d576129e68b610e64835461476a565b8a6000601f82116001146130ba576000916130ad575b508b60011b906000198d60031b1c19161781555b6080516001600160401b03811161082d57612a336002830191610e64835461476a565b6000608051601f811160011461304757506000608051918261303c575b508160011b916000199060031b1c19161790555b6001600160401b03831161082d57612a8c83612a83600384015461476a565b60038401614ae0565b826000601f8211600114612fce57600091612fc3575b508360011b906000198560031b1c19161760038201555b6001600160401b03851161082d57612ae185612ad8600484015461476a565b60048401614ae0565b846000601f8211600114612f5557600091612f4a575b508560011b906000198760031b1c19161760048201555b6001600160401b03871161082d57612b3687612b2d600584015461476a565b60058401614ae0565b866000601f8211600114612eda57600091612ecf575b508760011b906000198960031b1c19161760058201555b6001600160401b03891161082d57612b8b89612b82600684015461476a565b60068401614ae0565b886000601f8211600114612e5f57600091612e54575b508960011b906000198b60031b1c19161760068201555b610220516001600160401b03811161082d57612be490612bdb600784015461476a565b60078401614ae0565b600061022051601f8111600114612de257506000610220519182612dd4575b508160011b916000199060031b1c19161760078201555b6101e0516001600160401b03811161082d57612c4690612c3d600884015461476a565b60088401614ae0565b6101e05160006001601f831114612d61576008915060006101e0519182612d53575b508160011b916000199060031b1c1916179101555b604051996101008b526101008b0160a05191612c9892614b25565b8a810360208c0152608051612cac92614b25565b9089820360408b0152612cbe92614b25565b908782036060890152612cd092614b25565b908582036080870152612ce292614b25565b9083820360a0850152612cf492614b25565b81810360c083015261022051906101a05191612d0f92614b25565b81810360e08301526101e051610240513393928392612d2d92614b25565b037fb5951fd8739506c8cb2388cb4e71a5bbfbc8253099dee853100fb5de84f5b69491a2005b90506102405101358e612c68565b60088301600052602060002090600090601f19841661024051925b818110612dbc57509160019391856008969410612da2575b505050811b01910155612c7d565b0135600019600384901b60f8161c191690558e8080612d94565b91936020600181928787013581550195019201612d7c565b90506101a05101358d612c03565b6007830160005260206000206000926101a051905b601f1984168510612e3c576001945083601f19811610612e22575b505050811b016007820155612c1a565b0135600019600384901b60f8161c191690558d8080612e12565b81810135835560209485019460019093019201612df7565b90508a01358c612ba1565b90506006820160005260206000209060005b8c601f198d168210612eb75750508a601f19811610612e9d575b5050600189811b016006820155612bb8565b8b013560001960038c901b60f8161c191690558b80612e8b565b60018394602093948493013581550193019101612e71565b90508801358c612b4c565b90506005820160005260206000209060005b8a601f198b168210612f3257505088601f19811610612f18575b5050600187811b016005820155612b63565b89013560001960038a901b60f8161c191690558b80612f06565b60018394602093948493013581550193019101612eec565b90508601358c612af7565b90506004820160005260206000209060005b601f1988168110612fab575086601f19811610612f91575b5050600185811b016004820155612b0e565b870135600019600388901b60f8161c191690558b80612f7f565b9091602060018192858c013581550193019101612f67565b90508401358c612aa2565b90506003820160005260206000209060005b601f1986168110613024575084601f1981161061300a575b5050600183811b016003820155612ab9565b850135600019600386901b60f8161c191690558b80612ff8565b9091602060018192858a013581550193019101612fe0565b90508401358e612a50565b8260005260206000206000925b601f1983168410613095576001935082601f1981161061307b575b5050811b019055612a64565b860135600019600384901b60f8161c191690558e8061306f565b86810135825560209384019360019092019101613054565b905060a05101358c6129fc565b9050816000528b602060002091600060a051925b601f198116821061311057601f1981161090506130f6575b50505060018b811b018155612a10565b013560001960038e901b60f8161c191690558b80806130e6565b9091936020600181928787013581550195019201906130ce565b6131376080511515614c42565b60ff6040516080518382376020816080518101600981520301902054166131d75733600052600660205261317260026040600020015461476a565b6131a0575b60405160805182823760208160805181016009815203019020600160ff198254161790556129bc565b3360005260066020526131c26020600260406000200160405192838092614cda565b6009815203019020805460ff19169055613177565b60405162461bcd60e51b815260206004820152602a60248201527f4e494b206261727520737564616820646967756e616b616e206f6c656820706160448201526939b4b2b7103630b4b71760b11b6064820152608490fd5b346101e7576020806003193601126101e75761324961448c565b90336000526000815261326060406000205461476a565b15158061351e575b61327190614a40565b60018060a01b0380921680600052600690818352338460096040600020015416036134bf57600052600c82526040600020908154906132af82614ab2565b926132bd60405194856145c2565b828452601f196132cc84614ab2565b018560005b8281106134755750505060005b8381106133c1575050505060405191808301818452825180915260408401918060408360051b8701019401926000965b83881061331b5786860387f35b909192939483806133b0600193603f198b8203018752895190815181528684830151168482015260e061338961337661336360408601516101008060408801528601906146b7565b60608087015190868303908701526146b7565b60808086015190858303908601526146b7565b9260a08981830151169084015260c0808201519084015201519060e08184039101526146b7565b97019301970196909392919361330e565b806133cf6134709284614573565b9054600391821b1c600052600b88526134506007604060002061341f604051946133f88661458b565b825486528d6001840154168d870152613413600284016147a4565b604087015282016147a4565b6060850152613430600482016147a4565b60808501528b60058201541660a08501528781015460c0850152016147a4565b60e082015261345f8288614e21565b5261346a8187614e21565b50614da9565b6132de565b6040516134818161458b565b6000815260008382015260608060408301528080830152806080830152600060a0830152600060c083015260e08201528282890101520186906132d1565b60405162461bcd60e51b815260048101849052603160248201527f416e646120746964616b2062657268616b206d656c696861742072656b616d2060448201527036b2b234b9903830b9b4b2b71034b7349760791b6064820152608490fd5b50336000908152808252604090206001015460ff16613268565b346101e75760203660031901126101e7576001600160a01b0361355961448c565b166000526007602052602060ff604060002054166040519015158152f35b346101e7576101403660031901126101e7576004356001600160401b0381116101e7576135a890369060040161468a565b6102605260c0526024356001600160401b0381116101e7576135ce90369060040161468a565b61016052610120526044356001600160401b0381116101e7576135f590369060040161468a565b61010052610200526064356001600160401b0381116101e75761361c90369060040161468a565b610140526084356001600160401b0381116101e75761363f90369060040161468a565b909160a4356001600160401b0381116101e75761366090369060040161468a565b92909160c4356001600160401b0381116101e75761368290369060040161468a565b909160e4356001600160401b0381116101e7576136a390369060040161468a565b959096610104356001600160401b0381116101e7576136c690369060040161468a565b60e0526101c052610124356001600160a01b03811690036101e75733600052600760205260ff604060002054166143495733600052600460205260ff604060002054166142f85761016051156142b35760ff604051610160516101205182376020816101605181016008815203019020541661426e5761374a610100511515614c42565b60ff604051610100516102005182376020816101005181016009815203019020541661422957610124356001600160a01b031660009081526020819052604090206001015460ff16156141c5573360005260076020526040600020600160ff19825416179055604051928361018052836101408101106001600160401b036101408601111761082d5761387b9961386c9761383f61384e9361014061385d98016040526137fd366102605160c0516145e3565b61018051526138133661016051610120516145e3565b602061018051015261382c3661010051610200516145e3565b61018051604001526101405136916145e3565b606061018051015236916145e3565b608061018051015236916145e3565b60a061018051015236916145e3565b60c061018051015236916145e3565b60e06101805101526138933660e0516101c0516145e3565b61010061018051015260018060a01b036101243516610120610180510152336000526006602052604060002061018051518051906001600160401b03821161082d5781906138eb826138e5865461476a565b86614ae0565b602090601f83116001146141595760009261414e575b50508160011b916000199060031b1c19161781555b60206101805101518051906001600160401b03821161082d57819061394b82613942600187015461476a565b60018701614ae0565b602090601f83116001146140dc576000926140d1575b50508160011b916000199060031b1c19161760018201555b60406101805101518051906001600160401b03821161082d5781906139ae826139a5600287015461476a565b60028701614ae0565b602090601f831160011461405f57600092614054575b50508160011b916000199060031b1c19161760028201555b60606101805101518051906001600160401b03821161082d578190613a1182613a08600387015461476a565b60038701614ae0565b602090601f8311600114613fe257600092613fd7575b50508160011b916000199060031b1c19161760038201555b60806101805101518051906001600160401b03821161082d578190613a6b826119fb600487015461476a565b602090601f8311600114613f6557600092613f5a575b50508160011b916000199060031b1c19161760048201555b60a06101805101518051906001600160401b03821161082d578190613ace82613ac5600587015461476a565b60058701614ae0565b602090601f8311600114613ee857600092613edd575b50508160011b916000199060031b1c19161760058201555b60c06101805101518051906001600160401b03821161082d578190613b3182613b28600687015461476a565b60068701614ae0565b602090601f8311600114613e6b57600092613e60575b50508160011b916000199060031b1c19161760068201555b60e06101805101518051906001600160401b03821161082d578190613b9482613b8b600787015461476a565b60078701614ae0565b602090601f8311600114613dee57600092613de3575b50508160011b916000199060031b1c19161760078201555b610100610180510151908151916001600160401b03831161082d57613bf783613bee600885015461476a565b60088501614ae0565b602090601f8411600114613d71576009939160009183613d66575b50508160011b916000199060031b1c19161760088201555b0160018060a01b03610120610180510151166001600160601b0360a01b825416179055600a54600160401b81101561082d57613c6f816001613c8d9301600a55614505565b81546001600160a01b0360039290921b91821b19163390911b179055565b604051610160516101205182376020816101605181016008815203019020600160ff19825416179055604051610100516102005182376020816101005181016009815203019020600160ff19825416179055604051608081527f95224f05331a37376934686bef8f2d81b0a089124f71ffd7f0add127fa930baf613d4a613d35613d20608085016102605160c051614b25565b84810360208601526101605161012051614b25565b83810360408501526101005161020051614b25565b610124356001600160a01b0316606084015233929081900390a2005b015190508480613c12565b906008830160005260206000209160005b601f1986168110613dcb5750918491600193600996601f19811610613db2575b505050811b016008820155613c2a565b015160001960f88460031b161c19169055848080613da2565b91926020600181928685015181550194019201613d82565b015190508380613baa565b9250600784016000526020600020906000935b601f1984168510613e45576001945083601f19811610613e2c575b505050811b016007820155613bc2565b015160001960f88460031b161c19169055838080613e1c565b81810151835560209485019460019093019290910190613e01565b015190508380613b47565b9250600684016000526020600020906000935b601f1984168510613ec2576001945083601f19811610613ea9575b505050811b016006820155613b5f565b015160001960f88460031b161c19169055838080613e99565b81810151835560209485019460019093019290910190613e7e565b015190508380613ae4565b9250600584016000526020600020906000935b601f1984168510613f3f576001945083601f19811610613f26575b505050811b016005820155613afc565b015160001960f88460031b161c19169055838080613f16565b81810151835560209485019460019093019290910190613efb565b015190508380613a81565b9250600484016000526020600020906000935b601f1984168510613fbc576001945083601f19811610613fa3575b505050811b016004820155613a99565b015160001960f88460031b161c19169055838080613f93565b81810151835560209485019460019093019290910190613f78565b015190508380613a27565b9250600384016000526020600020906000935b601f1984168510614039576001945083601f19811610614020575b505050811b016003820155613a3f565b015160001960f88460031b161c19169055838080614010565b81810151835560209485019460019093019290910190613ff5565b0151905083806139c4565b9250600284016000526020600020906000935b601f19841685106140b6576001945083601f1981161061409d575b505050811b0160028201556139dc565b015160001960f88460031b161c1916905583808061408d565b81810151835560209485019460019093019290910190614072565b015190508380613961565b9250600184016000526020600020906000935b601f1984168510614133576001945083601f1981161061411a575b505050811b016001820155613979565b015160001960f88460031b161c1916905583808061410a565b818101518355602094850194600190930192909101906140ef565b015190508380613901565b9250836000526020600020906000935b601f19841685106141aa576001945083601f19811610614191575b505050811b018155613916565b015160001960f88460031b161c19169055838080614184565b81810151835560209485019460019093019290910190614169565b60405162461bcd60e51b815260206004820152603660248201527f52756d61682053616b69742079616e6720646970696c696820746964616b206160448201527535ba34b31030ba30ba903a34b230b5903b30b634b21760511b6064820152608490fd5b60405162461bcd60e51b815260206004820152601b60248201527f4e494b2050617369656e20737564616820646967756e616b616e2e00000000006044820152606490fd5b60405162461bcd60e51b815260206004820152601a60248201527f49442050617369656e20737564616820646967756e616b616e2e0000000000006044820152606490fd5b60405162461bcd60e51b815260206004820152601d60248201527f49442050617369656e20746964616b20626f6c6568206b6f736f6e672e0000006044820152606490fd5b60405162461bcd60e51b8152602060048201526024808201527f416c616d617420696e6920746572646166746172207365626167616920646f6b6044820152633a32b91760e11b6064820152608490fd5b60405162461bcd60e51b8152602060048201526024808201527f416e64612073756461682074657264616674617220736562616761692070617360448201526334b2b71760e11b6064820152608490fd5b346101e757602060ff6143b082610b6236614629565b8101600881520301902054166040519015158152f35b346101e75760203660031901126101e7576004356005548110156143ef5761159e6020916144b8565b60405162461bcd60e51b815260206004820152601a60248201527f496e64656b7320646f6b74657220746964616b2076616c69642e0000000000006044820152606490fd5b346101e75760403660031901126101e75761444d61448c565b6001600160a01b03166000908152600c60205260409020805460243591908210156101e75760209161447e91614573565b90546040519160031b1c8152f35b600435906001600160a01b03821682036101e757565b602435906001600160a01b03821682036101e757565b6005548110156144ef5760056000527f036b6384b5eca791c62761152d0c79bb0604c104a5fb6f4eb0703f3154bb3db00190600090565b634e487b7160e01b600052603260045260246000fd5b600a548110156144ef57600a6000527fc65a7bb8d6351c1cf70c95a316cc6a92839c986682d98bc35f958f4883f9d2a80190600090565b6002548110156144ef5760026000527f405787fa12a823e0f2b7631cc41b3ba8828b3321ca811111fa75cd3aa3bb5ace0190600090565b80548210156144ef5760005260206000200190600090565b61010081019081106001600160401b0382111761082d57604052565b604081019081106001600160401b0382111761082d57604052565b90601f801991011681019081106001600160401b0382111761082d57604052565b9291926001600160401b03821161082d576040519161460c601f8201601f1916602001846145c2565b8294818452818301116101e7578281602093846000960137010152565b60206003198201126101e757600435906001600160401b0382116101e757806023830112156101e757816024614664936004013591016145e3565b90565b60005b83811061467a5750506000910152565b818101518382015260200161466a565b9181601f840112156101e7578235916001600160401b0383116101e757602083818601950101116101e757565b906020916146d081518092818552858086019101614667565b601f01601f1916010190565b90815180825260208080930193019160005b8281106146fc575050505090565b83516001600160a01b0316855293810193928101926001016146ee565b939061475c92614664969461473961474e9360a0895260a08901906146b7565b911515602088015286820360408801526146b7565b9084820360608601526146b7565b9160808184039101526146b7565b90600182811c9216801561479a575b602083101461478457565b634e487b7160e01b600052602260045260246000fd5b91607f1691614779565b90604051918260008254926147b88461476a565b90818452600194858116908160001461482757506001146147e4575b50506147e2925003836145c2565b565b9093915060005260209081600020936000915b81831061480f5750506147e2935082010138806147d4565b855488840185015294850194879450918301916147f7565b9150506147e294506020925060ff191682840152151560051b82010138806147d4565b94906146649896979461488161489d949561488f93895260018060a01b0380971660208a01526101008060408b01528901906146b7565b9087820360608901526146b7565b9085820360808701526146b7565b941660a083015260c082015260e08184039101526146b7565b9895614927614951966149198c9d9e9d6101209c9861490b614943996148fd6149609f9a6148ef6149359b6101408089528801906146b7565b9086820360208801526146b7565b9084820360408601526146b7565b9160608184039101526146b7565b8c810360808e0152906146b7565b908a820360a08c01526146b7565b9088820360c08a01526146b7565b9086820360e08801526146b7565b908482036101008601526146b7565b6001600160a01b03909416910152565b60806003198201126101e7576004356001600160a01b03811681036101e757916001600160401b036024358181116101e757836149af9160040161468a565b939093926044358381116101e757826149ca9160040161468a565b939093926064359182116101e7576149e49160040161468a565b9091565b9060405191828154918282526020928383019160005283600020936000905b828210614a1d575050506147e2925003836145c2565b85546001600160a01b031684526001958601958895509381019390910190614a07565b15614a4757565b60405162461bcd60e51b815260206004820152603c60248201527f48616e79612061646d696e2052532079616e6720616b7469662079616e67206460448201527f61706174206d656e6a616c616e6b616e2066756e67736920696e692e000000006064820152608490fd5b6001600160401b03811161082d5760051b60200190565b818110614ad4575050565b60008155600101614ac9565b9190601f8111614aef57505050565b6147e2926000526020600020906020601f840160051c83019310614b1b575b601f0160051c0190614ac9565b9091508190614b0e565b908060209392818452848401376000828201840152601f01601f1916010190565b15614b4d57565b60405162461bcd60e51b815260206004820152601760248201527f446f6b74657220746964616b207465726461667461722e0000000000000000006044820152606490fd5b15614b9957565b60405162461bcd60e51b815260206004820152602f60248201527f446f6b74657220696e6920746964616b2074657264616674617220646920727560448201526e36b0b41039b0b5b4ba1020b732309760891b6064820152608490fd5b15614bfd57565b60405162461bcd60e51b815260206004820152601760248201527f446f6b74657220746964616b20646974656d756b616e2e0000000000000000006044820152606490fd5b15614c4957565b60405162461bcd60e51b815260206004820152601e60248201527f4e494b2050617369656e20746964616b20626f6c6568206b6f736f6e672e00006044820152606490fd5b15614c9557565b60405162461bcd60e51b815260206004820152601760248201527f50617369656e20746964616b20646974656d756b616e2e0000000000000000006044820152606490fd5b600092918154614ce98161476a565b92600191808316908115614d425750600114614d06575b50505050565b90919293945060005260209081600020906000915b858310614d315750505050019038808080614d00565b805485840152918301918101614d1b565b60ff1916845250505081151590910201915038808080614d00565b15614d6457565b60405162461bcd60e51b815260206004820152601760248201527f50617369656e20746964616b207465726461667461722e0000000000000000006044820152606490fd5b60001981146104255760010190565b9060018060a01b038092166000526003918260205260046040600020016000938154945b858110614dee57505050505050600090565b83614df98285614573565b905490841b1c1684861614614e1657614e1190614da9565b614ddc565b505050505050600190565b80518210156144ef5760209160051b010190565b60018060a01b0316600081815260ff6020928284526040928391614e5b8383205461476a565b614f0d5780825260048652838383205416614ebe57815260078552205416614e9e57662ab735b737bbb760c91b905191614e94836145a7565b6007835282015290565b652830b9b4b2b760d11b905191614eb4836145a7565b6006835282015290565b50600380865291902001541615614ee557652237b5ba32b960d11b905191614eb4836145a7565b6d24b730b1ba34bb32a237b5ba32b960911b905191614f03836145a7565b600e835282015290565b815280855220600101541615614f34576641646d696e525360c81b905191614e94836145a7565b6e496e61637469766541646d696e525360881b905191614f53836145a7565b600f83528201529056fea264697066735822122045a557f07247d88a68a8cb9bf3fbd698ab9dddeeeef34ce416ffb6519cbd774264736f6c63430008130033705805f9c18a9381be07edab4bcec28612355cb4fbde7b07f1fd23fee18aada8",
  "immutableReferences": {},
  "source": "// SPDX-License-Identifier: MIT\r\npragma solidity ^0.8.19;\r\n\r\ncontract RekamMedisRS {\r\n    struct AdminRS {\r\n        string namaRumahSakit;\r\n        bool aktif;\r\n        string alamatRumahSakit;\r\n        string kota;\r\n        string NIBRS;\r\n    }\r\n    mapping(address => AdminRS) public dataAdmin;\r\n    mapping(string => bool) public isNIBRSUsed;\r\n    address[] public daftarAdmin;\r\n\r\n    struct Dokter {\r\n        string nama;\r\n        string spesialisasi;\r\n        string nomorLisensi;\r\n        bool aktif;\r\n        address[] assignedPasien;\r\n        address adminRS;\r\n    }\r\n    mapping(address => Dokter) public dataDokter;\r\n    mapping(address => bool) public isDokter;\r\n    address[] public daftarDokter;\r\n\r\n    struct Pasien {\r\n        string nama;\r\n        string ID;\r\n        string NIK;\r\n        string golonganDarah;\r\n        string tanggalLahir;\r\n        string gender;\r\n        string alamat;\r\n        string noTelepon;\r\n        string email;\r\n        address rumahSakitPenanggungJawab;\r\n    }\r\n    mapping(address => Pasien) public dataPasien;\r\n    mapping(address => bool) public isPasien;\r\n    mapping(string => bool) public isPatientIDUsed;\r\n    mapping(string => bool) public isPatientNIKUsed;\r\n    address[] public daftarPasien;\r\n\r\n    struct RekamMedisData {\r\n        uint id;\r\n        address pasien;\r\n        string diagnosa;\r\n        string foto;\r\n        string catatan;\r\n        address pembuat;\r\n        uint256 timestampPembuatan;\r\n        string tipeRekamMedis;\r\n    }\r\n    mapping(uint => RekamMedisData) public rekamMedis;\r\n    mapping(address => uint[]) public rekamMedisByPasien;\r\n    uint public rekamMedisCount;\r\n\r\n    event AdminRSTerdaftar(\r\n        address indexed admin,\r\n        string namaRumahSakit,\r\n        string alamatRumahSakit,\r\n        string kota,\r\n        string NIBRS\r\n    );\r\n\r\n    event DokterTerdaftar(address indexed dokter, string nama, address adminRS);\r\n    event DokterStatusDiubah(address indexed dokter, bool aktif);\r\n    event DokterInfoDiperbarui(\r\n        address indexed dokter,\r\n        string nama,\r\n        string spesialisasi,\r\n        string nomorLisensi,\r\n        address indexed adminRS\r\n    );\r\n    event PasienTerdaftar(\r\n        address indexed pasien,\r\n        string nama,\r\n        string IDPasien,\r\n        string NIKPasien,\r\n        address adminRS\r\n    );\r\n    event PasienPindahRS(\r\n        address indexed pasien,\r\n        address oldAdminRS,\r\n        address newAdminRS\r\n    );\r\n    event PasienDiassignKeDokter(address dokter, address pasien);\r\n    event PasienDiunassignDariDokter(address dokter, address pasien);\r\n\r\n    event RekamMedisDitambahkan(\r\n        uint id,\r\n        address pasien,\r\n        string diagnosa,\r\n        string foto,\r\n        string catatan,\r\n        string tipeRekamMedis,\r\n        address pembuat,\r\n        uint timestamp\r\n    );\r\n\r\n    event PasienDataDiperbarui(\r\n        address indexed pasien,\r\n        string nama,\r\n        string NIK,\r\n        string golonganDarah,\r\n        string tanggalLahir,\r\n        string gender,\r\n        string alamat,\r\n        string noTelepon,\r\n        string email\r\n    );\r\n\r\n    constructor() {\r\n        // Tambahkan Admin RS pertama\r\n        address admin1 = 0x153f67a7B7169Ce3F13F8A81DC9CAe0bC27dbf21;\r\n        string memory namaRS1 = \"RS Siloam Malang\";\r\n        string memory alamatRS1 = \"Jl. Raya Langsep No. 2, Malang\";\r\n        string memory kotaRS1 = \"Malang\";\r\n        string memory NIBRS1 = \"NIBRS-SM001\";\r\n\r\n        dataAdmin[admin1] = AdminRS({\r\n            namaRumahSakit: namaRS1,\r\n            aktif: true,\r\n            alamatRumahSakit: alamatRS1,\r\n            kota: kotaRS1,\r\n            NIBRS: NIBRS1\r\n        });\r\n        daftarAdmin.push(admin1);\r\n        isNIBRSUsed[NIBRS1] = true;\r\n        emit AdminRSTerdaftar(admin1, namaRS1, alamatRS1, kotaRS1, NIBRS1);\r\n\r\n        // Tambahkan Admin RS kedua\r\n        address admin2 = 0xd95A4eE9149fcb31C535eF6CbD65f4c23d9f7997;\r\n        string memory namaRS2 = \"RS Siloam Yogya\";\r\n        string memory alamatRS2 = \"Jl. Laksda Adisucipto No. 32, Yogyakarta\";\r\n        string memory kotaRS2 = \"Yogyakarta\";\r\n        string memory NIBRS2 = \"NIBRS-SY001\";\r\n\r\n        dataAdmin[admin2] = AdminRS({\r\n            namaRumahSakit: namaRS2,\r\n            aktif: true,\r\n            alamatRumahSakit: alamatRS2,\r\n            kota: kotaRS2,\r\n            NIBRS: NIBRS2\r\n        });\r\n        daftarAdmin.push(admin2);\r\n        isNIBRSUsed[NIBRS2] = true;\r\n        emit AdminRSTerdaftar(admin2, namaRS2, alamatRS2, kotaRS2, NIBRS2);\r\n    }\r\n\r\n    modifier hanyaAdminRS() {\r\n        require(\r\n            bytes(dataAdmin[msg.sender].namaRumahSakit).length > 0 &&\r\n                dataAdmin[msg.sender].aktif,\r\n            \"Hanya admin RS yang aktif yang dapat menjalankan fungsi ini.\"\r\n        );\r\n        _;\r\n    }\r\n\r\n    modifier hanyaDokterAktif() {\r\n        require(\r\n            isDokter[msg.sender] && dataDokter[msg.sender].aktif,\r\n            \"Hanya dokter yang aktif yang dapat menjalankan fungsi ini.\"\r\n        );\r\n        _;\r\n    }\r\n\r\n    modifier hanyaDokterAktifUntukPasien(address _pasien) {\r\n        require(\r\n            isDokter[msg.sender] && dataDokter[msg.sender].aktif,\r\n            \"Hanya dokter aktif.\"\r\n        );\r\n        require(isPasien[_pasien], \"Pasien tidak terdaftar.\");\r\n        require(\r\n            dataDokter[msg.sender].adminRS ==\r\n                dataPasien[_pasien].rumahSakitPenanggungJawab,\r\n            \"Dokter dan pasien tidak berada di rumah sakit yang sama.\"\r\n        );\r\n        bool assigned = false;\r\n        address[] storage listPasienDitugaskan = dataDokter[msg.sender]\r\n            .assignedPasien;\r\n        for (uint i = 0; i < listPasienDitugaskan.length; i++) {\r\n            if (listPasienDitugaskan[i] == _pasien) {\r\n                assigned = true;\r\n                break;\r\n            }\r\n        }\r\n        require(\r\n            assigned,\r\n            \"Dokter ini tidak ditugaskan untuk menangani pasien tersebut.\"\r\n        );\r\n        _;\r\n    }\r\n\r\n    modifier hanyaPasien(address _pasien) {\r\n        require(\r\n            msg.sender == _pasien,\r\n            \"Hanya pasien yang bersangkutan yang dapat menjalankan fungsi ini.\"\r\n        );\r\n        _;\r\n    }\r\n\r\n    function getAllAdminRSAddresses() external view returns (address[] memory) {\r\n        return daftarAdmin;\r\n    }\r\n\r\n    function totalAdmin() external view returns (uint) {\r\n        return daftarAdmin.length;\r\n    }\r\n\r\n    function getAdminByIndex(uint idx) external view returns (address) {\r\n        require(idx < daftarAdmin.length, \"Indeks admin RS tidak valid.\");\r\n        return daftarAdmin[idx];\r\n    }\r\n\r\n    function getAdminRS(\r\n        address _admin\r\n    )\r\n        external\r\n        view\r\n        returns (\r\n            string memory namaRumahSakit,\r\n            bool aktif,\r\n            string memory alamatRumahSakit,\r\n            string memory kota,\r\n            string memory NIBRS\r\n        )\r\n    {\r\n        require(\r\n            bytes(dataAdmin[_admin].namaRumahSakit).length > 0,\r\n            \"Admin RS tidak ditemukan.\"\r\n        );\r\n        AdminRS storage adminData = dataAdmin[_admin];\r\n        return (\r\n            adminData.namaRumahSakit,\r\n            adminData.aktif,\r\n            adminData.alamatRumahSakit,\r\n            adminData.kota,\r\n            adminData.NIBRS\r\n        );\r\n    }\r\n\r\n    function registerDokter(\r\n        address _dokter,\r\n        string calldata _nama,\r\n        string calldata _spesialisasi,\r\n        string calldata _nomorLisensi\r\n    ) external hanyaAdminRS {\r\n        // Memeriksa apakah alamat sudah terdaftar sebagai Dokter\r\n        require(\r\n            !isDokter[_dokter],\r\n            \"Alamat ini sudah terdaftar sebagai dokter.\"\r\n        );\r\n        // Memeriksa apakah alamat sudah terdaftar sebagai Pasien\r\n        require(\r\n            !isPasien[_dokter],\r\n            \"Alamat ini terdaftar sebagai pasien, tidak bisa menjadi dokter.\"\r\n        );\r\n        // Memeriksa apakah alamat sudah terdaftar sebagai Admin RS ---\r\n        require(\r\n            bytes(dataAdmin[_dokter].namaRumahSakit).length == 0, // Cek jika namaRumahSakit kosong (bukan Admin RS)\r\n            \"Alamat ini sudah terdaftar sebagai Admin RS, tidak bisa menjadi dokter.\"\r\n        );\r\n\r\n        isDokter[_dokter] = true;\r\n        dataDokter[_dokter] = Dokter({\r\n            nama: _nama,\r\n            spesialisasi: _spesialisasi,\r\n            nomorLisensi: _nomorLisensi,\r\n            aktif: true,\r\n            assignedPasien: new address[](0),\r\n            adminRS: msg.sender\r\n        });\r\n        daftarDokter.push(_dokter);\r\n        emit DokterTerdaftar(_dokter, _nama, msg.sender);\r\n    }\r\n\r\n    function updateDokterInfo(\r\n        address _dokter,\r\n        string calldata _namaBaru,\r\n        string calldata _spesialisasiBaru,\r\n        string calldata _nomorLisensiBaru\r\n    ) external hanyaAdminRS {\r\n        require(isDokter[_dokter], \"Dokter tidak terdaftar di sistem.\");\r\n        require(\r\n            dataDokter[_dokter].adminRS == msg.sender,\r\n            \"Anda bukan admin RS yang berhak untuk dokter ini.\"\r\n        );\r\n\r\n        Dokter storage dokterToUpdate = dataDokter[_dokter];\r\n        dokterToUpdate.nama = _namaBaru;\r\n        dokterToUpdate.spesialisasi = _spesialisasiBaru;\r\n        dokterToUpdate.nomorLisensi = _nomorLisensiBaru;\r\n\r\n        emit DokterInfoDiperbarui(\r\n            _dokter,\r\n            _namaBaru,\r\n            _spesialisasiBaru,\r\n            _nomorLisensiBaru,\r\n            msg.sender\r\n        );\r\n    }\r\n\r\n    function setStatusDokter(\r\n        address _dokter,\r\n        bool _aktif\r\n    ) external hanyaAdminRS {\r\n        require(isDokter[_dokter], \"Dokter tidak terdaftar.\");\r\n        require(\r\n            dataDokter[_dokter].adminRS == msg.sender,\r\n            \"Dokter ini tidak terdaftar di rumah sakit Anda.\"\r\n        );\r\n        dataDokter[_dokter].aktif = _aktif;\r\n        emit DokterStatusDiubah(_dokter, _aktif);\r\n    }\r\n\r\n    function totalDokter() external view returns (uint) {\r\n        return daftarDokter.length;\r\n    }\r\n\r\n    function getDokterByIndex(uint idx) external view returns (address) {\r\n        require(idx < daftarDokter.length, \"Indeks dokter tidak valid.\");\r\n        return daftarDokter[idx];\r\n    }\r\n\r\n    function getDokter(\r\n        address _dokter\r\n    )\r\n        external\r\n        view\r\n        returns (\r\n            string memory nama,\r\n            string memory spesialisasi,\r\n            string memory nomorLisensi,\r\n            bool aktif,\r\n            address[] memory pasienList,\r\n            address adminRS\r\n        )\r\n    {\r\n        require(isDokter[_dokter], \"Dokter tidak ditemukan.\");\r\n        Dokter storage d = dataDokter[_dokter];\r\n        return (\r\n            d.nama,\r\n            d.spesialisasi,\r\n            d.nomorLisensi,\r\n            d.aktif,\r\n            d.assignedPasien,\r\n            d.adminRS\r\n        );\r\n    }\r\n\r\n    function getAssignedPatients(\r\n        address _dokter\r\n    ) external view returns (address[] memory) {\r\n        require(isDokter[_dokter], \"Dokter tidak ditemukan.\");\r\n        return dataDokter[_dokter].assignedPasien;\r\n    }\r\n\r\n    function selfRegisterPasien(\r\n        string calldata _nama,\r\n        string calldata _IDPasien,\r\n        string calldata _NIKPasien,\r\n        string calldata _golonganDarah,\r\n        string calldata _tanggalLahir,\r\n        string calldata _gender,\r\n        string calldata _alamat,\r\n        string calldata _noTelepon,\r\n        string calldata _email,\r\n        address _adminRS\r\n    ) external {\r\n        require(!isPasien[msg.sender], \"Anda sudah terdaftar sebagai pasien.\");\r\n        require(!isDokter[msg.sender], \"Alamat ini terdaftar sebagai dokter.\");\r\n        require(bytes(_IDPasien).length > 0, \"ID Pasien tidak boleh kosong.\");\r\n        require(!isPatientIDUsed[_IDPasien], \"ID Pasien sudah digunakan.\");\r\n        require(bytes(_NIKPasien).length > 0, \"NIK Pasien tidak boleh kosong.\");\r\n        require(!isPatientNIKUsed[_NIKPasien], \"NIK Pasien sudah digunakan.\");\r\n        require(\r\n            dataAdmin[_adminRS].aktif,\r\n            \"Rumah Sakit yang dipilih tidak aktif atau tidak valid.\"\r\n        );\r\n\r\n        isPasien[msg.sender] = true;\r\n        dataPasien[msg.sender] = Pasien({\r\n            nama: _nama,\r\n            ID: _IDPasien,\r\n            NIK: _NIKPasien,\r\n            golonganDarah: _golonganDarah,\r\n            tanggalLahir: _tanggalLahir,\r\n            gender: _gender,\r\n            alamat: _alamat,\r\n            noTelepon: _noTelepon,\r\n            email: _email,\r\n            rumahSakitPenanggungJawab: _adminRS\r\n        });\r\n        daftarPasien.push(msg.sender);\r\n        isPatientIDUsed[_IDPasien] = true;\r\n        isPatientNIKUsed[_NIKPasien] = true;\r\n        emit PasienTerdaftar(\r\n            msg.sender,\r\n            _nama,\r\n            _IDPasien,\r\n            _NIKPasien,\r\n            _adminRS\r\n        );\r\n    }\r\n\r\n    function updatePasienData(\r\n        string calldata _nama,\r\n        string calldata _NIK,\r\n        string calldata _golonganDarah,\r\n        string calldata _tanggalLahir,\r\n        string calldata _gender,\r\n        string calldata _alamat,\r\n        string calldata _noTelepon,\r\n        string calldata _email\r\n    ) external hanyaPasien(msg.sender) {\r\n        require(isPasien[msg.sender], \"Pasien tidak ditemukan.\");\r\n\r\n        // Validasi NIK baru jika ada perubahan\r\n        if (\r\n            keccak256(abi.encodePacked(dataPasien[msg.sender].NIK)) !=\r\n            keccak256(abi.encodePacked(_NIK))\r\n        ) {\r\n            require(bytes(_NIK).length > 0, \"NIK Pasien tidak boleh kosong.\");\r\n            require(\r\n                !isPatientNIKUsed[_NIK],\r\n                \"NIK baru sudah digunakan oleh pasien lain.\"\r\n            );\r\n            // Nonaktifkan NIK lama (jika ada) dan aktifkan NIK baru\r\n            if (bytes(dataPasien[msg.sender].NIK).length > 0) {\r\n                isPatientNIKUsed[dataPasien[msg.sender].NIK] = false;\r\n            }\r\n            isPatientNIKUsed[_NIK] = true;\r\n        }\r\n\r\n        Pasien storage pasienToUpdate = dataPasien[msg.sender];\r\n        pasienToUpdate.nama = _nama;\r\n        pasienToUpdate.NIK = _NIK;\r\n        pasienToUpdate.golonganDarah = _golonganDarah;\r\n        pasienToUpdate.tanggalLahir = _tanggalLahir;\r\n        pasienToUpdate.gender = _gender;\r\n        pasienToUpdate.alamat = _alamat;\r\n        pasienToUpdate.noTelepon = _noTelepon;\r\n        pasienToUpdate.email = _email;\r\n\r\n        emit PasienDataDiperbarui(\r\n            msg.sender,\r\n            _nama,\r\n            _NIK,\r\n            _golonganDarah,\r\n            _tanggalLahir,\r\n            _gender,\r\n            _alamat,\r\n            _noTelepon,\r\n            _email\r\n        );\r\n    }\r\n\r\n    function updatePasienRumahSakit(\r\n        address _newAdminRS\r\n    ) external hanyaPasien(msg.sender) {\r\n        require(isPasien[msg.sender], \"Pasien tidak ditemukan.\");\r\n        require(\r\n            dataAdmin[_newAdminRS].aktif,\r\n            \"Rumah Sakit baru tidak aktif atau tidak valid.\"\r\n        );\r\n        require(\r\n            dataPasien[msg.sender].rumahSakitPenanggungJawab != _newAdminRS,\r\n            \"Anda sudah terdaftar di rumah sakit ini.\"\r\n        );\r\n\r\n        address oldAdminRS = dataPasien[msg.sender].rumahSakitPenanggungJawab;\r\n        dataPasien[msg.sender].rumahSakitPenanggungJawab = _newAdminRS;\r\n\r\n        emit PasienPindahRS(msg.sender, oldAdminRS, _newAdminRS);\r\n    }\r\n\r\n    function getDaftarPasien() external view returns (address[] memory) {\r\n        return daftarPasien;\r\n    }\r\n\r\n    function totalPasien() public view returns (uint) {\r\n        return daftarPasien.length;\r\n    }\r\n\r\n    function getPasienData(\r\n        address _pasien\r\n    )\r\n        external\r\n        view\r\n        returns (\r\n            string memory nama,\r\n            string memory ID,\r\n            string memory NIK,\r\n            string memory golonganDarah,\r\n            string memory tanggalLahir,\r\n            string memory gender,\r\n            string memory alamat,\r\n            string memory noTelepon,\r\n            string memory email,\r\n            address rumahSakitPenanggungJawab\r\n        )\r\n    {\r\n        require(isPasien[_pasien], \"Pasien tidak ditemukan.\");\r\n        Pasien storage p = dataPasien[_pasien];\r\n        return (\r\n            p.nama,\r\n            p.ID,\r\n            p.NIK,\r\n            p.golonganDarah,\r\n            p.tanggalLahir,\r\n            p.gender,\r\n            p.alamat,\r\n            p.noTelepon,\r\n            p.email,\r\n            p.rumahSakitPenanggungJawab\r\n        );\r\n    }\r\n\r\n    function assignPasienToDokter(\r\n        address _dokter,\r\n        address _pasien\r\n    ) external hanyaAdminRS {\r\n        require(isDokter[_dokter], \"Dokter tidak terdaftar.\");\r\n        require(\r\n            dataDokter[_dokter].adminRS == msg.sender,\r\n            \"Dokter ini tidak terdaftar di rumah sakit Anda.\"\r\n        );\r\n        require(isPasien[_pasien], \"Pasien tidak terdaftar.\");\r\n\r\n        require(\r\n            (dataPasien[_pasien].rumahSakitPenanggungJawab == msg.sender ||\r\n                dataPasien[_pasien].rumahSakitPenanggungJawab == address(0)),\r\n            \"Pasien ini tidak terdaftar di rumah sakit Anda atau sudah di-assign ke RS lain.\"\r\n        );\r\n\r\n        if (dataPasien[_pasien].rumahSakitPenanggungJawab == address(0)) {\r\n            dataPasien[_pasien].rumahSakitPenanggungJawab = msg.sender;\r\n        }\r\n\r\n        bool alreadyAssigned = false;\r\n        address[] storage listPasienDitugaskan = dataDokter[_dokter]\r\n            .assignedPasien;\r\n        for (uint i = 0; i < listPasienDitugaskan.length; i++) {\r\n            if (listPasienDitugaskan[i] == _pasien) {\r\n                alreadyAssigned = true;\r\n                break;\r\n            }\r\n        }\r\n        require(\r\n            !alreadyAssigned,\r\n            \"Pasien ini sudah ditugaskan ke dokter tersebut.\"\r\n        );\r\n\r\n        listPasienDitugaskan.push(_pasien);\r\n        emit PasienDiassignKeDokter(_dokter, _pasien);\r\n    }\r\n\r\n    function unassignPasienFromDokter(\r\n        address _dokter,\r\n        address _pasien\r\n    ) external hanyaAdminRS {\r\n        require(isDokter[_dokter], \"Dokter tidak terdaftar.\");\r\n        require(\r\n            dataDokter[_dokter].adminRS == msg.sender,\r\n            \"Dokter ini tidak terdaftar di rumah sakit Anda.\"\r\n        );\r\n        require(isPasien[_pasien], \"Pasien tidak terdaftar.\");\r\n        require(\r\n            dataPasien[_pasien].rumahSakitPenanggungJawab == msg.sender,\r\n            \"Pasien ini tidak terdaftar di rumah sakit Anda.\"\r\n        );\r\n\r\n        bool found = false;\r\n        address[] storage listPasienDitugaskan = dataDokter[_dokter]\r\n            .assignedPasien;\r\n        for (uint i = 0; i < listPasienDitugaskan.length; i++) {\r\n            if (listPasienDitugaskan[i] == _pasien) {\r\n                listPasienDitugaskan[i] = listPasienDitugaskan[\r\n                    listPasienDitugaskan.length - 1\r\n                ];\r\n                listPasienDitugaskan.pop();\r\n                found = true;\r\n                break;\r\n            }\r\n        }\r\n        require(found, \"Pasien tidak ditugaskan ke dokter ini.\");\r\n        emit PasienDiunassignDariDokter(_dokter, _pasien);\r\n    }\r\n\r\n    function isAssigned(\r\n        address _dokter,\r\n        address _pasien\r\n    ) internal view returns (bool) {\r\n        address[] storage list = dataDokter[_dokter].assignedPasien;\r\n        for (uint i = 0; i < list.length; i++) {\r\n            if (list[i] == _pasien) {\r\n                return true;\r\n            }\r\n        }\r\n        return false;\r\n    }\r\n\r\n    function tambahRekamMedis(\r\n        address _pasien,\r\n        string calldata _diagnosa,\r\n        string calldata _foto,\r\n        string calldata _catatan,\r\n        string calldata _tipeRekamMedis\r\n    ) external {\r\n        // Hanya dokter aktif yang ditugaskan ke pasien yang dapat menambah rekam medis\r\n        require(\r\n            isDokter[msg.sender] && dataDokter[msg.sender].aktif,\r\n            \"Hanya dokter aktif yang dapat menambah rekam medis.\"\r\n        );\r\n        require(isPasien[_pasien], \"Pasien tidak terdaftar.\");\r\n        require(\r\n            dataDokter[msg.sender].adminRS ==\r\n                dataPasien[_pasien].rumahSakitPenanggungJawab,\r\n            \"Dokter dan pasien tidak berada di rumah sakit yang sama.\"\r\n        );\r\n        require(\r\n            isAssigned(msg.sender, _pasien),\r\n            \"Dokter ini tidak ditugaskan untuk menangani pasien tersebut.\"\r\n        );\r\n\r\n        rekamMedisCount++;\r\n        uint newId = rekamMedisCount;\r\n        rekamMedis[newId] = RekamMedisData({\r\n            id: newId,\r\n            pasien: _pasien,\r\n            diagnosa: _diagnosa,\r\n            foto: _foto,\r\n            catatan: _catatan,\r\n            pembuat: msg.sender,\r\n            timestampPembuatan: block.timestamp,\r\n            tipeRekamMedis: _tipeRekamMedis\r\n        });\r\n        rekamMedisByPasien[_pasien].push(newId);\r\n\r\n        emit RekamMedisDitambahkan(\r\n            newId,\r\n            _pasien,\r\n            _diagnosa,\r\n            _foto,\r\n            _catatan,\r\n            _tipeRekamMedis,\r\n            msg.sender,\r\n            block.timestamp\r\n        );\r\n    }\r\n\r\n    function getRekamMedisIdsByPasien(\r\n        address _pasien\r\n    ) external view returns (uint[] memory) {\r\n        require(isPasien[_pasien], \"Pasien tidak ditemukan.\");\r\n        return rekamMedisByPasien[_pasien];\r\n    }\r\n\r\n    function getRekamMedis(\r\n        uint _id\r\n    )\r\n        external\r\n        view\r\n        returns (\r\n            uint id,\r\n            address pasien,\r\n            string memory diagnosa,\r\n            string memory foto,\r\n            string memory catatan,\r\n            address pembuat,\r\n            uint256 timestampPembuatan,\r\n            string memory tipeRekamMedis\r\n        )\r\n    {\r\n        require(\r\n            rekamMedis[_id].pasien != address(0),\r\n            \"Rekam medis tidak ditemukan.\"\r\n        );\r\n        RekamMedisData storage r = rekamMedis[_id];\r\n        return (\r\n            r.id,\r\n            r.pasien,\r\n            r.diagnosa,\r\n            r.foto,\r\n            r.catatan,\r\n            r.pembuat,\r\n            r.timestampPembuatan,\r\n            r.tipeRekamMedis\r\n        );\r\n    }\r\n\r\n    function getRekamMedisByPasienUntukAdminRS(\r\n        address _pasien\r\n    ) external view hanyaAdminRS returns (RekamMedisData[] memory) {\r\n        // 1. Verifikasi Berewenang\r\n        // Memastikan AdminRS yang memanggil fungsi ini adalah RS penanggung jawab pasien.\r\n        require(\r\n            dataPasien[_pasien].rumahSakitPenanggungJawab == msg.sender,\r\n            \"Anda tidak berhak melihat rekam medis pasien ini.\"\r\n        );\r\n\r\n        // 2. Ambil ID Rekam Medis\r\n        // Mengambil semua ID rekam medis yang dimiliki oleh pasien.\r\n        uint[] storage recordIds = rekamMedisByPasien[_pasien];\r\n\r\n        // 3. Siapkan Array untuk Hasil\r\n        // Membuat array di memori untuk menampung data rekam medis lengkap.\r\n        RekamMedisData[] memory records = new RekamMedisData[](\r\n            recordIds.length\r\n        );\r\n\r\n        for (uint i = 0; i < recordIds.length; i++) {\r\n            records[i] = rekamMedis[recordIds[i]];\r\n        }\r\n\r\n        return records;\r\n    }\r\n\r\n    function getUserRole(address _user) public view returns (string memory) {\r\n        if (bytes(dataAdmin[_user].namaRumahSakit).length > 0) {\r\n            if (dataAdmin[_user].aktif) {\r\n                return \"AdminRS\";\r\n            } else {\r\n                return \"InactiveAdminRS\";\r\n            }\r\n        }\r\n\r\n        if (isDokter[_user]) {\r\n            if (dataDokter[_user].aktif) {\r\n                return \"Dokter\";\r\n            } else {\r\n                return \"InactiveDokter\";\r\n            }\r\n        }\r\n\r\n        if (isPasien[_user]) return \"Pasien\";\r\n\r\n        return \"Unknown\";\r\n    }\r\n\r\n    function getPasienByAdminRS()\r\n        external\r\n        view\r\n        hanyaAdminRS\r\n        returns (address[] memory)\r\n    {\r\n        address[] memory pasienDiRS;\r\n        uint count = 0;\r\n        for (uint i = 0; i < daftarPasien.length; i++) {\r\n            if (\r\n                dataPasien[daftarPasien[i]].rumahSakitPenanggungJawab ==\r\n                msg.sender\r\n            ) {\r\n                count++;\r\n            }\r\n        }\r\n\r\n        pasienDiRS = new address[](count);\r\n        uint currentIndex = 0;\r\n        for (uint i = 0; i < daftarPasien.length; i++) {\r\n            if (\r\n                dataPasien[daftarPasien[i]].rumahSakitPenanggungJawab ==\r\n                msg.sender\r\n            ) {\r\n                pasienDiRS[currentIndex] = daftarPasien[i];\r\n                currentIndex++;\r\n            }\r\n        }\r\n        return pasienDiRS;\r\n    }\r\n}\r\n",
  "sourcePath": "D:\\TA\\rekam_medis_smartcontract_solidity\\contracts\\RekamMedisRS.sol",
  "compiler": {
    "name": "solc",
    "version": "0.8.19+commit.7dd6d404.Emscripten.clang"
  },
  "schemaVersion": "3.4.16",
  "updatedAt": "2025-07-13T21:06:00.616Z",
  "networkType": "ethereum",
  "devdoc": {
    "kind": "dev",
    "methods": {},
    "version": 1
  },
  "userdoc": {
    "kind": "user",
    "methods": {},
    "version": 1
  }
}