{
  "contractName": "RekamMedis",
  "abi": [
    {
      "inputs": [],
      "stateMutability": "nonpayable",
      "type": "constructor"
    },
    {
      "anonymous": false,
      "inputs": [
        {
          "indexed": false,
          "internalType": "address",
          "name": "newAdmin",
          "type": "address"
        }
      ],
      "name": "AdminDitetapkan",
      "type": "event"
    },
    {
      "anonymous": false,
      "inputs": [
        {
          "indexed": false,
          "internalType": "address",
          "name": "dokter",
          "type": "address"
        },
        {
          "indexed": false,
          "internalType": "bool",
          "name": "aktif",
          "type": "bool"
        }
      ],
      "name": "DokterStatusDiubah",
      "type": "event"
    },
    {
      "anonymous": false,
      "inputs": [
        {
          "indexed": false,
          "internalType": "address",
          "name": "dokter",
          "type": "address"
        },
        {
          "indexed": false,
          "internalType": "string",
          "name": "nama",
          "type": "string"
        }
      ],
      "name": "DokterTerdaftar",
      "type": "event"
    },
    {
      "anonymous": false,
      "inputs": [
        {
          "indexed": false,
          "internalType": "address",
          "name": "dokter",
          "type": "address"
        },
        {
          "indexed": false,
          "internalType": "address",
          "name": "pasien",
          "type": "address"
        }
      ],
      "name": "PasienDiassignKeDokter",
      "type": "event"
    },
    {
      "anonymous": false,
      "inputs": [
        {
          "indexed": false,
          "internalType": "address",
          "name": "pasien",
          "type": "address"
        }
      ],
      "name": "PasienTerdaftar",
      "type": "event"
    },
    {
      "anonymous": false,
      "inputs": [
        {
          "indexed": false,
          "internalType": "uint256",
          "name": "id",
          "type": "uint256"
        },
        {
          "indexed": false,
          "internalType": "string",
          "name": "diagnosa",
          "type": "string"
        },
        {
          "indexed": false,
          "internalType": "string",
          "name": "catatan",
          "type": "string"
        }
      ],
      "name": "RekamMedisDiperbarui",
      "type": "event"
    },
    {
      "anonymous": false,
      "inputs": [
        {
          "indexed": false,
          "internalType": "uint256",
          "name": "id",
          "type": "uint256"
        },
        {
          "indexed": false,
          "internalType": "address",
          "name": "pasien",
          "type": "address"
        },
        {
          "indexed": false,
          "internalType": "string",
          "name": "diagnosa",
          "type": "string"
        },
        {
          "indexed": false,
          "internalType": "bool",
          "name": "valid",
          "type": "bool"
        }
      ],
      "name": "RekamMedisDitambahkan",
      "type": "event"
    },
    {
      "inputs": [],
      "name": "admin",
      "outputs": [
        {
          "internalType": "address",
          "name": "",
          "type": "address"
        }
      ],
      "stateMutability": "view",
      "type": "function",
      "constant": true
    },
    {
      "inputs": [
        {
          "internalType": "uint256",
          "name": "",
          "type": "uint256"
        }
      ],
      "name": "daftarDokter",
      "outputs": [
        {
          "internalType": "address",
          "name": "",
          "type": "address"
        }
      ],
      "stateMutability": "view",
      "type": "function",
      "constant": true
    },
    {
      "inputs": [
        {
          "internalType": "uint256",
          "name": "",
          "type": "uint256"
        }
      ],
      "name": "daftarPasien",
      "outputs": [
        {
          "internalType": "address",
          "name": "",
          "type": "address"
        }
      ],
      "stateMutability": "view",
      "type": "function",
      "constant": true
    },
    {
      "inputs": [
        {
          "internalType": "address",
          "name": "",
          "type": "address"
        }
      ],
      "name": "dataDokter",
      "outputs": [
        {
          "internalType": "string",
          "name": "nama",
          "type": "string"
        },
        {
          "internalType": "bool",
          "name": "aktif",
          "type": "bool"
        }
      ],
      "stateMutability": "view",
      "type": "function",
      "constant": true
    },
    {
      "inputs": [
        {
          "internalType": "address",
          "name": "",
          "type": "address"
        }
      ],
      "name": "isDokter",
      "outputs": [
        {
          "internalType": "bool",
          "name": "",
          "type": "bool"
        }
      ],
      "stateMutability": "view",
      "type": "function",
      "constant": true
    },
    {
      "inputs": [
        {
          "internalType": "address",
          "name": "",
          "type": "address"
        }
      ],
      "name": "isPasien",
      "outputs": [
        {
          "internalType": "bool",
          "name": "",
          "type": "bool"
        }
      ],
      "stateMutability": "view",
      "type": "function",
      "constant": true
    },
    {
      "inputs": [
        {
          "internalType": "uint256",
          "name": "",
          "type": "uint256"
        }
      ],
      "name": "rekamMedis",
      "outputs": [
        {
          "internalType": "uint256",
          "name": "id",
          "type": "uint256"
        },
        {
          "internalType": "address",
          "name": "pasien",
          "type": "address"
        },
        {
          "internalType": "string",
          "name": "nama",
          "type": "string"
        },
        {
          "internalType": "uint256",
          "name": "umur",
          "type": "uint256"
        },
        {
          "internalType": "string",
          "name": "golonganDarah",
          "type": "string"
        },
        {
          "internalType": "string",
          "name": "tanggalLahir",
          "type": "string"
        },
        {
          "internalType": "string",
          "name": "gender",
          "type": "string"
        },
        {
          "internalType": "string",
          "name": "alamat",
          "type": "string"
        },
        {
          "internalType": "string",
          "name": "noTelepon",
          "type": "string"
        },
        {
          "internalType": "string",
          "name": "email",
          "type": "string"
        },
        {
          "internalType": "string",
          "name": "diagnosa",
          "type": "string"
        },
        {
          "internalType": "string",
          "name": "foto",
          "type": "string"
        },
        {
          "internalType": "string",
          "name": "catatan",
          "type": "string"
        },
        {
          "internalType": "bool",
          "name": "valid",
          "type": "bool"
        }
      ],
      "stateMutability": "view",
      "type": "function",
      "constant": true
    },
    {
      "inputs": [
        {
          "internalType": "address",
          "name": "",
          "type": "address"
        },
        {
          "internalType": "uint256",
          "name": "",
          "type": "uint256"
        }
      ],
      "name": "rekamMedisByPasien",
      "outputs": [
        {
          "internalType": "uint256",
          "name": "",
          "type": "uint256"
        }
      ],
      "stateMutability": "view",
      "type": "function",
      "constant": true
    },
    {
      "inputs": [],
      "name": "rekamMedisCount",
      "outputs": [
        {
          "internalType": "uint256",
          "name": "",
          "type": "uint256"
        }
      ],
      "stateMutability": "view",
      "type": "function",
      "constant": true
    },
    {
      "inputs": [
        {
          "internalType": "uint256",
          "name": "",
          "type": "uint256"
        },
        {
          "internalType": "uint256",
          "name": "",
          "type": "uint256"
        }
      ],
      "name": "rekamMedisVersions",
      "outputs": [
        {
          "internalType": "uint256",
          "name": "id",
          "type": "uint256"
        },
        {
          "internalType": "address",
          "name": "pasien",
          "type": "address"
        },
        {
          "internalType": "string",
          "name": "nama",
          "type": "string"
        },
        {
          "internalType": "uint256",
          "name": "umur",
          "type": "uint256"
        },
        {
          "internalType": "string",
          "name": "golonganDarah",
          "type": "string"
        },
        {
          "internalType": "string",
          "name": "tanggalLahir",
          "type": "string"
        },
        {
          "internalType": "string",
          "name": "gender",
          "type": "string"
        },
        {
          "internalType": "string",
          "name": "alamat",
          "type": "string"
        },
        {
          "internalType": "string",
          "name": "noTelepon",
          "type": "string"
        },
        {
          "internalType": "string",
          "name": "email",
          "type": "string"
        },
        {
          "internalType": "string",
          "name": "diagnosa",
          "type": "string"
        },
        {
          "internalType": "string",
          "name": "foto",
          "type": "string"
        },
        {
          "internalType": "string",
          "name": "catatan",
          "type": "string"
        },
        {
          "internalType": "bool",
          "name": "valid",
          "type": "bool"
        }
      ],
      "stateMutability": "view",
      "type": "function",
      "constant": true
    },
    {
      "inputs": [
        {
          "internalType": "address",
          "name": "_dokter",
          "type": "address"
        },
        {
          "internalType": "string",
          "name": "_nama",
          "type": "string"
        }
      ],
      "name": "registerDokter",
      "outputs": [],
      "stateMutability": "nonpayable",
      "type": "function"
    },
    {
      "inputs": [],
      "name": "totalDokter",
      "outputs": [
        {
          "internalType": "uint256",
          "name": "",
          "type": "uint256"
        }
      ],
      "stateMutability": "view",
      "type": "function",
      "constant": true
    },
    {
      "inputs": [
        {
          "internalType": "uint256",
          "name": "index",
          "type": "uint256"
        }
      ],
      "name": "getDokterByIndex",
      "outputs": [
        {
          "internalType": "address",
          "name": "",
          "type": "address"
        }
      ],
      "stateMutability": "view",
      "type": "function",
      "constant": true
    },
    {
      "inputs": [
        {
          "internalType": "address",
          "name": "_dokter",
          "type": "address"
        },
        {
          "internalType": "bool",
          "name": "_aktif",
          "type": "bool"
        }
      ],
      "name": "setStatusDokter",
      "outputs": [],
      "stateMutability": "nonpayable",
      "type": "function"
    },
    {
      "inputs": [
        {
          "internalType": "address",
          "name": "_dokter",
          "type": "address"
        },
        {
          "internalType": "address",
          "name": "_pasien",
          "type": "address"
        }
      ],
      "name": "assignPasienToDokter",
      "outputs": [],
      "stateMutability": "nonpayable",
      "type": "function"
    },
    {
      "inputs": [
        {
          "internalType": "address",
          "name": "_dokter",
          "type": "address"
        },
        {
          "internalType": "address",
          "name": "_pasien",
          "type": "address"
        }
      ],
      "name": "isPasienAssignedToDokter",
      "outputs": [
        {
          "internalType": "bool",
          "name": "",
          "type": "bool"
        }
      ],
      "stateMutability": "view",
      "type": "function",
      "constant": true
    },
    {
      "inputs": [
        {
          "internalType": "address",
          "name": "_dokter",
          "type": "address"
        }
      ],
      "name": "getDokter",
      "outputs": [
        {
          "internalType": "string",
          "name": "nama",
          "type": "string"
        },
        {
          "internalType": "bool",
          "name": "aktif",
          "type": "bool"
        },
        {
          "internalType": "address[]",
          "name": "pasien",
          "type": "address[]"
        }
      ],
      "stateMutability": "view",
      "type": "function",
      "constant": true
    },
    {
      "inputs": [
        {
          "internalType": "address",
          "name": "_pasien",
          "type": "address"
        }
      ],
      "name": "registerPasien",
      "outputs": [],
      "stateMutability": "nonpayable",
      "type": "function"
    },
    {
      "inputs": [],
      "name": "selfRegisterPasien",
      "outputs": [],
      "stateMutability": "nonpayable",
      "type": "function"
    },
    {
      "inputs": [
        {
          "internalType": "address",
          "name": "_user",
          "type": "address"
        }
      ],
      "name": "getUserRole",
      "outputs": [
        {
          "internalType": "string",
          "name": "",
          "type": "string"
        }
      ],
      "stateMutability": "view",
      "type": "function",
      "constant": true
    },
    {
      "inputs": [
        {
          "internalType": "address",
          "name": "pasien",
          "type": "address"
        }
      ],
      "name": "getRekamMedisIdsByPasien",
      "outputs": [
        {
          "internalType": "uint256[]",
          "name": "",
          "type": "uint256[]"
        }
      ],
      "stateMutability": "view",
      "type": "function",
      "constant": true
    },
    {
      "inputs": [],
      "name": "getDaftarPasien",
      "outputs": [
        {
          "internalType": "address[]",
          "name": "",
          "type": "address[]"
        }
      ],
      "stateMutability": "view",
      "type": "function",
      "constant": true
    },
    {
      "inputs": [
        {
          "internalType": "address",
          "name": "_newAdmin",
          "type": "address"
        }
      ],
      "name": "setAdmin",
      "outputs": [],
      "stateMutability": "nonpayable",
      "type": "function"
    },
    {
      "inputs": [
        {
          "internalType": "address",
          "name": "_pasien",
          "type": "address"
        },
        {
          "internalType": "string",
          "name": "_nama",
          "type": "string"
        },
        {
          "internalType": "uint256",
          "name": "_umur",
          "type": "uint256"
        },
        {
          "internalType": "string",
          "name": "_golonganDarah",
          "type": "string"
        },
        {
          "internalType": "string",
          "name": "_tanggalLahir",
          "type": "string"
        },
        {
          "internalType": "string",
          "name": "_gender",
          "type": "string"
        },
        {
          "internalType": "string",
          "name": "_alamat",
          "type": "string"
        },
        {
          "internalType": "string",
          "name": "_noTelepon",
          "type": "string"
        },
        {
          "internalType": "string",
          "name": "_email",
          "type": "string"
        },
        {
          "internalType": "string",
          "name": "_diagnosa",
          "type": "string"
        },
        {
          "internalType": "string",
          "name": "_foto",
          "type": "string"
        },
        {
          "internalType": "string",
          "name": "_catatan",
          "type": "string"
        }
      ],
      "name": "tambahRekamMedis",
      "outputs": [],
      "stateMutability": "nonpayable",
      "type": "function"
    },
    {
      "inputs": [
        {
          "internalType": "uint256",
          "name": "_id",
          "type": "uint256"
        },
        {
          "internalType": "string",
          "name": "_nama",
          "type": "string"
        },
        {
          "internalType": "uint256",
          "name": "_umur",
          "type": "uint256"
        },
        {
          "internalType": "string",
          "name": "_golonganDarah",
          "type": "string"
        },
        {
          "internalType": "string",
          "name": "_tanggalLahir",
          "type": "string"
        },
        {
          "internalType": "string",
          "name": "_gender",
          "type": "string"
        },
        {
          "internalType": "string",
          "name": "_alamat",
          "type": "string"
        },
        {
          "internalType": "string",
          "name": "_noTelepon",
          "type": "string"
        },
        {
          "internalType": "string",
          "name": "_email",
          "type": "string"
        },
        {
          "internalType": "string",
          "name": "_diagnosa",
          "type": "string"
        },
        {
          "internalType": "string",
          "name": "_foto",
          "type": "string"
        },
        {
          "internalType": "string",
          "name": "_catatan",
          "type": "string"
        }
      ],
      "name": "updateRekamMedis",
      "outputs": [],
      "stateMutability": "nonpayable",
      "type": "function"
    },
    {
      "inputs": [
        {
          "internalType": "uint256",
          "name": "_id",
          "type": "uint256"
        }
      ],
      "name": "getRekamMedisVersions",
      "outputs": [
        {
          "components": [
            {
              "internalType": "uint256",
              "name": "id",
              "type": "uint256"
            },
            {
              "internalType": "address",
              "name": "pasien",
              "type": "address"
            },
            {
              "internalType": "string",
              "name": "nama",
              "type": "string"
            },
            {
              "internalType": "uint256",
              "name": "umur",
              "type": "uint256"
            },
            {
              "internalType": "string",
              "name": "golonganDarah",
              "type": "string"
            },
            {
              "internalType": "string",
              "name": "tanggalLahir",
              "type": "string"
            },
            {
              "internalType": "string",
              "name": "gender",
              "type": "string"
            },
            {
              "internalType": "string",
              "name": "alamat",
              "type": "string"
            },
            {
              "internalType": "string",
              "name": "noTelepon",
              "type": "string"
            },
            {
              "internalType": "string",
              "name": "email",
              "type": "string"
            },
            {
              "internalType": "string",
              "name": "diagnosa",
              "type": "string"
            },
            {
              "internalType": "string",
              "name": "foto",
              "type": "string"
            },
            {
              "internalType": "string",
              "name": "catatan",
              "type": "string"
            },
            {
              "internalType": "bool",
              "name": "valid",
              "type": "bool"
            }
          ],
          "internalType": "struct RekamMedis.RekamMedisData[]",
          "name": "",
          "type": "tuple[]"
        }
      ],
      "stateMutability": "view",
      "type": "function",
      "constant": true
    },
    {
      "inputs": [
        {
          "internalType": "uint256",
          "name": "_id",
          "type": "uint256"
        }
      ],
      "name": "nonaktifkanRekamMedis",
      "outputs": [],
      "stateMutability": "nonpayable",
      "type": "function"
    }
  ],
  "bytecode": "0x6080806040523461003c57600080546001600160a01b03191673b0dc0bf642d339517438017fc185bb0f758a01d217905561332690816100428239f35b600080fdfe6080604052600436101561001257600080fd5b60003560e01c8062410cb314612b61578063010ef3b314612a20578063046bdbcc146129b2578063083d88241461296e578063107e202f146125c55780631132beb51461258657806319e8f405146123dc57806327820851146123a45780632e2dd10214612386578063334181f2146122c05780633da05518146121ff57806342699651146121bd57806351887b67146121285780635c4c9348146120e9578063683700871461208e57806368f5dc99146114a457806370419a811461146e578063704b6c02146113fc5780637d3e9db8146113de578063932e0f6d1461132e578063abf72abb146112eb578063c3c0fdea14611288578063c967ede8146111d4578063d688780214610f0c578063dd09a96814610e24578063f7dc5714146101725763f851a4401461014457600080fd5b3461016d57600036600319011261016d576000546040516001600160a01b039091168152602090f35b600080fd5b3461016d5761018036600319011261016d576024356001600160401b03811161016d576101a3903690600401612ca2565b6064356001600160401b03811161016d576101c2903690600401612ca2565b6084356001600160401b03811161016d576101e1903690600401612ca2565b9160a4356001600160401b03811161016d57610201903690600401612ca2565b9060c4356001600160401b03811161016d57610221903690600401612ca2565b60e4356001600160401b03811161016d57610240903690600401612ca2565b610104356001600160401b03811161016d57610260903690600401612ca2565b91610124356001600160401b03811161016d57610281903690600401612ca2565b94610144356001600160401b03811161016d576102a2903690600401612ca2565b97610164356001600160401b03811161016d576102c3903690600401612ca2565b97600435600052600660205260018060a01b036001604060002001541633600052600260205260ff6040600020541680610e0d575b15610daa5761030790336130e5565b15610d54576004356000526006602052604060002096600960205260406000208054600160401b8110156107d15761034491600182018155612f3a565b610d3e57888103610c48575b508051906001600160401b0382116107d157819061037e8261037560028d0154612d75565b60028d01612fcb565b602090601f8311600114610bd657600092610bcb575b50508160011b916000199060031b1c19161760028801555b60443560038801558051906001600160401b0382116107d15781906103e1826103d860048c0154612d75565b60048c01612fcb565b602090601f8311600114610b5957600092610b4e575b50508160011b916000199060031b1c19161760048701555b8051906001600160401b0382116107d157819061043c8261043360058b0154612d75565b60058b01612fcb565b602090601f8311600114610adc57600092610ad1575b50508160011b916000199060031b1c19161760058601555b8051906001600160401b0382116107d15781906104978261048e60068a0154612d75565b60068a01612fcb565b602090601f8311600114610a5f57600092610a54575b50508160011b916000199060031b1c19161760068501555b8051906001600160401b0382116107d15781906104f2826104e96007890154612d75565b60078901612fcb565b602090601f83116001146109e2576000926109d7575b50508160011b916000199060031b1c19161760078401555b8051906001600160401b0382116107d157819061054d826105446008880154612d75565b60088801612fcb565b602090601f83116001146109655760009261095a575b50508160011b916000199060031b1c19161760088301555b8051906001600160401b0382116107d15781906105a88261059f6009870154612d75565b60098701612fcb565b602090601f83116001146108e8576000926108dd575b50508160011b916000199060031b1c19161760098201555b81516001600160401b0381116107d157610600816105f7600a850154612d75565b600a8501612fcb565b806020601f821160011461087057600091610865575b508160011b916000199060031b1c191617600a8201555b83516001600160401b0381116107d1576106578161064e600b850154612d75565b600b8501612fcb565b6020601f82116001146107f2578190600c9495966000926107e7575b50508160011b916000199060031b1c191617600b8201555b01918051926001600160401b0384116107d1576106b2846106ac8354612d75565b83612fcb565b602093601f81116001146107435791610733918361072595947f2a3c8ca9ac6f36396c175111b8f04207d249d61d733222e37c97a5ed7cfa7e1397600091610738575b508160011b916000199060031b1c19161790555b6040519384936004358552606060208601526060850190612cf8565b908382036040850152612cf8565b0390a1005b9050830151886106f5565b601f1981168260005260206000209060005b8181106107b957508261073394927f2a3c8ca9ac6f36396c175111b8f04207d249d61d733222e37c97a5ed7cfa7e1398610725989795600194106107a0575b5050811b019055610709565b85015160001960f88460031b161c191690558880610794565b85880151835560209788019760019093019201610755565b634e487b7160e01b600052604160045260246000fd5b015190508680610673565b600b830160005260206000209560005b601f198416811061084d5750958291600c959697600194601f19811610610834575b505050811b01600b82015561068b565b015160001960f88460031b161c19169055868080610824565b82820151885560019097019660209283019201610802565b905083015186610616565b9150600a830160005260206000206000925b601f19831684106108c5576001935082601f198116106108ac575b5050811b01600a82015561062d565b85015160001960f88460031b161c19169055868061089d565b85810151825560209384019360019092019101610882565b0151905086806105be565b9250600984016000526020600020906000935b601f198416851061093f576001945083601f19811610610926575b505050811b0160098201556105d6565b015160001960f88460031b161c19169055868080610916565b818101518355602094850194600190930192909101906108fb565b015190508780610563565b9250600885016000526020600020906000935b601f19841685106109bc576001945083601f198116106109a3575b505050811b01600883015561057b565b015160001960f88460031b161c19169055878080610993565b81810151835560209485019460019093019290910190610978565b015190508880610508565b9250600786016000526020600020906000935b601f1984168510610a39576001945083601f19811610610a20575b505050811b016007840155610520565b015160001960f88460031b161c19169055888080610a10565b818101518355602094850194600190930192909101906109f5565b0151905089806104ad565b9250600687016000526020600020906000935b601f1984168510610ab6576001945083601f19811610610a9d575b505050811b0160068501556104c5565b015160001960f88460031b161c19169055898080610a8d565b81810151835560209485019460019093019290910190610a72565b015190508a80610452565b9250600588016000526020600020906000935b601f1984168510610b33576001945083601f19811610610b1a575b505050811b01600586015561046a565b015160001960f88460031b161c191690558a8080610b0a565b81810151835560209485019460019093019290910190610aef565b015190508b806103f7565b9250600489016000526020600020906000935b601f1984168510610bb0576001945083601f19811610610b97575b505050811b01600487015561040f565b015160001960f88460031b161c191690558b8080610b87565b81810151835560209485019460019093019290910190610b6c565b015190508c80610394565b925060028a016000526020600020906000935b601f1984168510610c2d576001945083601f19811610610c14575b505050811b0160028801556103ac565b015160001960f88460031b161c191690558c8080610c04565b81810151835560209485019460019093019290910190610be9565b610d3890895481556001810160018060a01b0360018c0154166001600160601b0360a01b825416179055610c8260028b0160028301613218565b60038a01546003820155610c9c60048b0160048301613218565b610cac60058b0160058301613218565b610cbc60068b0160068301613218565b610ccc60078b0160078301613218565b610cdc60088b0160088301613218565b610cec60098b0160098301613218565b610cfc600a8b01600a8301613218565b610d0c600b8b01600b8301613218565b610d1c600c8b01600c8301613218565b600d60ff818c01541691019060ff801983541691151516179055565b8b610350565b634e487b7160e01b600052600060045260246000fd5b60405162461bcd60e51b815260206004820152602860248201527f446f6b74657220746964616b2064692d61737369676e20756e74756b2070617360448201526734b2b71034b7349760c11b6064820152608490fd5b60405162461bcd60e51b815260206004820152603560248201527f48616e796120646f6b74657220616b7469662079616e672062697361206d656d6044820152743832b93130b93ab4903932b5b0b69036b2b234b99760591b6064820152608490fd5b50600160205260ff600160406000200154166102f8565b3461016d57604036600319011261016d576024356004356000526009602052604060002090815481101561016d57610e5b91612f3a565b50805460018201546001600160a01b031691610f0890610e7d60028201612daf565b906003810154610e8f60048301612daf565b610e9b60058401612daf565b610ea760068501612daf565b610eb360078601612daf565b610ebf60088701612daf565b91610ecc60098801612daf565b93610ed9600a8901612daf565b95610ee6600b8a01612daf565b9760ff600d610ef7600c8d01612daf565b9b0154169a6040519e8f9e8f612e55565b0390f35b3461016d5760208060031936011261016d57600435600052600990818152604060002080546001600160401b0381116107d1579160405192600594610f558383881b0186612c81565b81855260009384528284208386019491855b8484106110d4575050505050604051928184019082855251809152604081818601961b85010192916000955b828710610fa05785850386f35b909192938280600192603f1989820301855287519081518152848060a01b038383015116838201526110b76110a361108f61107b61106761105361104161102e61101b610ffe60408c015160408c6101c091829101528c0190612cf8565b6060808d0151908c01526080808d0151908c8303908d0152612cf8565b60a0808c0151908b8303908c0152612cf8565b60c0808b0151908a8303908b0152612cf8565b60e089015188820360e08a0152612cf8565b610100808901519088830390890152612cf8565b610120808801519087830390880152612cf8565b610140808701519086830390870152612cf8565b610160808601519085830390860152612cf8565b610180808501519084830390850152612cf8565b916101a08091015115159101529601920196019592919092610f93565b600e8660019260409a989a516110e981612c4a565b86548152848060a01b0385880154168382015261110860028801612daf565b60408201526003870154606082015261112360048801612daf565b60808201526111338d8801612daf565b60a082015261114460068801612daf565b60c082015261115560078801612daf565b60e082015261116660088801612daf565b610100820152611177868801612daf565b610120820152611189600a8801612daf565b61014082015261119b600b8801612daf565b6101608201526111ad600c8801612daf565b61018082015260ff600d8801541615156101a0820152815201930193019291969496610f67565b3461016d5760208060031936011261016d576001600160a01b036111f6612bb9565b1660005260078152604060002060405190818382549182815201908192600052846000209060005b8682821061127457868661123482880383612c81565b604051928392818401908285525180915260408401929160005b82811061125d57505050500390f35b83518552869550938101939281019260010161124e565b83548552909301926001928301920161121e565b3461016d57602036600319011261016d576001600160a01b036112a9612bb9565b1660005260016020526112df604060002060ff60016112c783612daf565b92015416604051928392604084526040840190612cf8565b90151560208301520390f35b3461016d57602036600319011261016d576004356000908152600660205260409020805460018201546001600160a01b031691610f0890610e7d60028201612daf565b3461016d57604036600319011261016d57611347612bb9565b602435908115159182810361016d577f3dcd68c14f5f191f12b3b56bf35d5d7eb22447e9ec685290967b4558822ca98a926113d160409360018060a01b039061139582600054163314612f56565b16928360005260026020526113b060ff866000205416613074565b836000526001602052600185600020019060ff801983541691151516179055565b82519182526020820152a1005b3461016d57600036600319011261016d576020600454604051908152f35b3461016d57602036600319011261016d577f4d644268affe3d5bee1f2f5cb981613ce82c79f04442f0d58c544d9cd09b2f8d6020611438612bb9565b600054906001600160a01b03906114523383851614612f56565b1680916001600160601b0360a01b1617600055604051908152a1005b3461016d57604036600319011261016d57602061149a61148c612bb9565b611494612bcf565b906130e5565b6040519015158152f35b3461016d5761018036600319011261016d576114be612bb9565b6024356001600160401b03811161016d576114dd903690600401612ca2565b906064356001600160401b03811161016d576114fd903690600401612ca2565b916084356001600160401b03811161016d5761151d903690600401612ca2565b9260a4356001600160401b03811161016d5761153d903690600401612ca2565b9360c4356001600160401b03811161016d5761155d903690600401612ca2565b9460e4356001600160401b03811161016d5761157d903690600401612ca2565b610104356001600160401b03811161016d5761159d903690600401612ca2565b90610124356001600160401b03811161016d576115be903690600401612ca2565b97610144356001600160401b03811161016d576115df903690600401612ca2565b93610164356001600160401b03811161016d57611600903690600401612ca2565b956001600160a01b038a16330361202e5761161c6008546130c0565b97886008556040519961162e8b612c4a565b898b5260018060a01b038c1660208c015260408b015260443560608b015260808a015260a089015260c088015260e08701526101008601526101208501528561014085015261016084015261018083015260016101a08301526000526006602052604060002090805182556001820160018060a01b036020830151166001600160601b0360a01b82541617905560408101518051906001600160401b0382116107d15781906116ed826116e46002880154612d75565b60028801612fcb565b602090601f8311600114611fbc57600092611fb1575b50508160011b916000199060031b1c19161760028301555b6060810151600383015560808101518051906001600160401b0382116107d15781906117578261174e6004880154612d75565b60048801612fcb565b602090601f8311600114611f3f57600092611f34575b50508160011b916000199060031b1c19161760048301555b60a08101518051906001600160401b0382116107d15781906117b7826117ae6005880154612d75565b60058801612fcb565b602090601f8311600114611ec257600092611eb7575b50508160011b916000199060031b1c19161760058301555b60c08101518051906001600160401b0382116107d15781906118178261180e6006880154612d75565b60068801612fcb565b602090601f8311600114611e4557600092611e3a575b50508160011b916000199060031b1c19161760068301555b60e08101518051906001600160401b0382116107d15781906118778261186e6007880154612d75565b60078801612fcb565b602090601f8311600114611dc857600092611dbd575b50508160011b916000199060031b1c19161760078301555b6101008101518051906001600160401b0382116107d15781906118cf826105446008880154612d75565b602090601f8311600114611d4b57600092611d40575b50508160011b916000199060031b1c19161760088301555b6101208101518051906001600160401b0382116107d1578190611930826119276009880154612d75565b60098801612fcb565b602090601f8311600114611cce57600092611cc3575b50508160011b916000199060031b1c19161760098301555b6101408101518051906001600160401b0382116107d157819061199182611988600a880154612d75565b600a8801612fcb565b602090601f8311600114611c5157600092611c46575b50508160011b916000199060031b1c191617600a8301555b6101608101518051906001600160401b0382116107d15781906119f2826119e9600b880154612d75565b600b8801612fcb565b602090601f8311600114611bd457600092611bc9575b50508160011b916000199060031b1c191617600b8301555b600c82016101808201518051906001600160401b0382116107d157611a4f82611a498554612d75565b85612fcb565b602090601f8311600114611b565792826101a093611aa0979693600d96600092611b4b575b50508160011b916000199060031b1c19161790555b0151151591019060ff801983541691151516179055565b6001600160a01b038116600090815260076020526040902060085481549391600160401b8510156107d15784611afc9160017f8647b41d1ffdc302f876f0e70e0c442d110a3c8bad284218f99616149394c99797018155612c32565b819291549060031b91821b91600019901b1916179055611b3f60085491604051938493845260018060a01b03166020840152608060408401526080830190612cf8565b600160608301520390a1005b015190508a80611a74565b90601f198316918460005260206000209260005b818110611bb1575093611aa0979693600d9693600193836101a09810611b98575b505050811b019055611a89565b015160001960f88460031b161c191690558a8080611b8b565b92936020600181928786015181550195019301611b6a565b015190508680611a08565b9250600b85016000526020600020906000935b601f1984168510611c2b576001945083601f19811610611c12575b505050811b01600b830155611a20565b015160001960f88460031b161c19169055868080611c02565b81810151835560209485019460019093019290910190611be7565b0151905086806119a7565b9250600a85016000526020600020906000935b601f1984168510611ca8576001945083601f19811610611c8f575b505050811b01600a8301556119bf565b015160001960f88460031b161c19169055868080611c7f565b81810151835560209485019460019093019290910190611c64565b015190508680611946565b9250600985016000526020600020906000935b601f1984168510611d25576001945083601f19811610611d0c575b505050811b01600983015561195e565b015160001960f88460031b161c19169055868080611cfc565b81810151835560209485019460019093019290910190611ce1565b0151905086806118e5565b9250600885016000526020600020906000935b601f1984168510611da2576001945083601f19811610611d89575b505050811b0160088301556118fd565b015160001960f88460031b161c19169055868080611d79565b81810151835560209485019460019093019290910190611d5e565b01519050868061188d565b9250600785016000526020600020906000935b601f1984168510611e1f576001945083601f19811610611e06575b505050811b0160078301556118a5565b015160001960f88460031b161c19169055868080611df6565b81810151835560209485019460019093019290910190611ddb565b01519050868061182d565b9250600685016000526020600020906000935b601f1984168510611e9c576001945083601f19811610611e83575b505050811b016006830155611845565b015160001960f88460031b161c19169055868080611e73565b81810151835560209485019460019093019290910190611e58565b0151905086806117cd565b9250600585016000526020600020906000935b601f1984168510611f19576001945083601f19811610611f00575b505050811b0160058301556117e5565b015160001960f88460031b161c19169055868080611ef0565b81810151835560209485019460019093019290910190611ed5565b01519050868061176d565b9250600485016000526020600020906000935b601f1984168510611f96576001945083601f19811610611f7d575b505050811b016004830155611785565b015160001960f88460031b161c19169055868080611f6d565b81810151835560209485019460019093019290910190611f52565b015190508680611703565b9250600285016000526020600020906000935b601f1984168510612013576001945083601f19811610611ffa575b505050811b01600283015561171b565b015160001960f88460031b161c19169055868080611fea565b81810151835560209485019460019093019290910190611fcf565b60405162461bcd60e51b815260206004820152603260248201527f48616e79612070617369656e2079616e672062697361206d656d62756174207260448201527132b5b0b69036b2b234b99036b2b932b5b09760711b6064820152608490fd5b3461016d57602036600319011261016d5760043560055481101561016d5760056000527f036b6384b5eca791c62761152d0c79bb0604c104a5fb6f4eb0703f3154bb3db001546040516001600160a01b039091168152602090f35b3461016d57602036600319011261016d576001600160a01b0361210a612bb9565b166000526002602052602060ff604060002054166040519015158152f35b3461016d57600036600319011261016d576040518060055480825282602080930160056000527f036b6384b5eca791c62761152d0c79bb0604c104a5fb6f4eb0703f3154bb3db09260005b8582821061219e5750505061218a92500383612c81565b610f08604051928284938452830190612d38565b85546001600160a01b0316845260019586019588955093019201612173565b3461016d57602036600319011261016d5760043560045481101561016d576121e6602091612be5565b905460405160039290921b1c6001600160a01b03168152f35b3461016d5760208060031936011261016d576001600160a01b039081612223612bb9565b1660005260019081815260406000209260ff8385015416916122486002860195612daf565b93604051928383885491828152019760005283600020916000905b8282106122a95761229589610f088a8a8a8f82612281910383612c81565b604051958695606087526060870190612cf8565b921515908501528382036040850152612d38565b835481168a52988501989284019290840190612263565b3461016d57600036600319011261016d5733600052600360205260ff60406000205416612335573360005260036020526040600020600160ff1982541617905561230933613010565b7f4b58b2df530813522df235c26662546cdf2164ef8e0f7c6d18f415d15da470586020604051338152a1005b60405162461bcd60e51b8152602060048201526024808201527f416e64612073756461682074657264616674617220736562616761692050617360448201526334b2b71760e11b6064820152608490fd5b3461016d57600036600319011261016d576020600854604051908152f35b3461016d57602036600319011261016d57610f086123c86123c3612bb9565b61314d565b604051918291602083526020830190612cf8565b3461016d57604036600319011261016d576123f5612bb9565b6123fd612bcf565b9060018060a01b03809161241682600054163314612f56565b1680600052816020936002855261243460ff60406000205416613074565b168060005260039384815260ff60406000205416156125425782600052600181526002604060002001946000948654955b8681106124c85750600160401b8610156107d1576124ac867fd9a2627959a7f46a8b96c10424cdae1f1b65151551cd206b119aca54c0a86a5a986001604099018155612c32565b81939154911b9185831b921b19161790558351928352820152a1005b84826124d4838b612c32565b905490861b1c16146124ee576124e9906130c0565b612465565b60405162461bcd60e51b815260048101859052602660248201527f50617369656e20737564616820646974756761736b616e206b6520646f6b7465604482015265391034b7349760d11b6064820152608490fd5b6064906040519062461bcd60e51b82526004820152601760248201527f50617369656e20746964616b207465726461667461722e0000000000000000006044820152fd5b3461016d57602036600319011261016d576001600160a01b036125a7612bb9565b166000526003602052602060ff604060002054166040519015158152f35b3461016d57604036600319011261016d576125de612bb9565b6024356001600160401b03811161016d576125fd903690600401612ca2565b61261260018060a01b03600054163314612f56565b6001600160a01b03821660009081526002602052604090205460ff16612929576001600160a01b03821660009081526003602052604090205460ff166128d55760018060a01b03821660005260026020526040600020600160ff1982541617905560405191602083018381106001600160401b038211176107d1576040526000835260405192606084018481106001600160401b038211176107d157604052828452602084019060018252604085015260018060a01b038216600052600160205260406000209084518051906001600160401b0382116107d157612700826126fa8654612d75565b86612fcb565b602090601f83116001146128625792826040959361275093600296600092612857575b50508160011b916000199060031b1c19161783555b511515600183019060ff801983541691151516179055565b01930151928351906001600160401b0382116107d157600160401b948583116107d157602090825484845580851061283a575b500190600052602060002060005b83811061281d5750505050600454928310156107d1576127d88360017fc38147498c0c3f6433ae14d0586b30fef7b292e301be82700c6478971c423dce9501600455612be5565b81549060031b9060018060a01b038416821b9160018060a01b03901b191617905561073360405192839260018060a01b03168352604060208401526040830190612cf8565b82516001600160a01b031681830155602090920191600101612791565b612851908460005285846000209182019101612fb4565b87612783565b015190508a80612723565b908460005260206000209160005b601f19851681106128bd575083612750936002969360019360409997601f198116106128a4575b505050811b018355612738565b015160001960f88460031b161c191690558a8080612897565b91926020600181928685015181550194019201612870565b60405162461bcd60e51b815260206004820152602660248201527f416c616d6174207375646168207465726461667461722073656261676169205060448201526530b9b4b2b71760d11b6064820152608490fd5b60405162461bcd60e51b815260206004820152601760248201527f446f6b746572207375646168207465726461667461722e0000000000000000006044820152606490fd5b3461016d57602036600319011261016d5761299460018060a01b03600054163314612f56565b6004356000908152600660205260409020600d01805460ff19169055005b3461016d57602036600319011261016d576004356004548110156129db576121e6602091612be5565b60405162461bcd60e51b815260206004820152601960248201527f496e64657820646f6b74657220746964616b2076616c69642e000000000000006044820152606490fd5b3461016d5760208060031936011261016d57612a3a612bb9565b9060018060a01b03612a5181600054163314612f56565b8216806000526002825260ff60406000205416612b0d57806000526003825260ff60406000205416612ac857612abf7f4b58b2df530813522df235c26662546cdf2164ef8e0f7c6d18f415d15da470589382600052600384526040600020600160ff19825416179055613010565b604051908152a1005b60405162461bcd60e51b815260048101839052601760248201527f50617369656e207375646168207465726461667461722e0000000000000000006044820152606490fd5b60405162461bcd60e51b815260048101839052602660248201527f416c616d6174207375646168207465726461667461722073656261676169204460448201526537b5ba32b91760d11b6064820152608490fd5b3461016d57604036600319011261016d57612b7a612bb9565b6001600160a01b031660009081526007602052604090208054602435919082101561016d57602091612bab91612c32565b90546040519160031b1c8152f35b600435906001600160a01b038216820361016d57565b602435906001600160a01b038216820361016d57565b600454811015612c1c5760046000527f8a35acfbc15ff81a39ae7d344fd709f28e8600b4aa8c65c6b64bfe7fe36bd19b0190600090565b634e487b7160e01b600052603260045260246000fd5b8054821015612c1c5760005260206000200190600090565b6101c081019081106001600160401b038211176107d157604052565b604081019081106001600160401b038211176107d157604052565b90601f801991011681019081106001600160401b038211176107d157604052565b81601f8201121561016d578035906001600160401b0382116107d15760405192612cd6601f8401601f191660200185612c81565b8284526020838301011161016d57816000926020809301838601378301015290565b919082519283825260005b848110612d24575050826000602080949584010152601f8019910116010190565b602081830181015184830182015201612d03565b90815180825260208080930193019160005b828110612d58575050505090565b83516001600160a01b031685529381019392810192600101612d4a565b90600182811c92168015612da5575b6020831014612d8f57565b634e487b7160e01b600052602260045260246000fd5b91607f1691612d84565b9060405191826000825492612dc384612d75565b908184526001948581169081600014612e325750600114612def575b5050612ded92500383612c81565b565b9093915060005260209081600020936000915b818310612e1a575050612ded93508201013880612ddf565b85548884018501529485019487945091830191612e02565b915050612ded94506020925060ff191682840152151560051b8201013880612ddf565b9d9e9d6101a09c98612ed9829f9c9699612ecb612f329f9a612ebd612f239f989d612f059c612f149f612ef69c612eaa91612ee79c8c5260018060a01b031660208c01526101c08060408d01528b0190612cf8565b9160608a015288820360808a0152612cf8565b9086820360a0880152612cf8565b9084820360c0860152612cf8565b9160e0818403910152612cf8565b8c81036101008e015290612cf8565b908a82036101208c0152612cf8565b908882036101408a0152612cf8565b90868203610160880152612cf8565b90848203610180860152612cf8565b931515910152565b8054821015612c1c57600052600e602060002091020190600090565b15612f5d57565b60405162461bcd60e51b815260206004820152602960248201527f48616e79612061646d696e2079616e672062697361206d656c616b756b616e2060448201526830b5b9b49034b7349760b91b6064820152608490fd5b818110612fbf575050565b60008155600101612fb4565b9190601f8111612fda57505050565b612ded926000526020600020906020601f840160051c83019310613006575b601f0160051c0190612fb4565b9091508190612ff9565b600554600160401b8110156107d1576001810180600555811015612c1c5760056000527f036b6384b5eca791c62761152d0c79bb0604c104a5fb6f4eb0703f3154bb3db00180546001600160a01b0319166001600160a01b03909216919091179055565b1561307b57565b60405162461bcd60e51b815260206004820152601760248201527f446f6b74657220746964616b207465726461667461722e0000000000000000006044820152606490fd5b60001981146130cf5760010190565b634e487b7160e01b600052601160045260246000fd5b60018060a01b038091166000526001908160205260026040600020016000938154945b85811061311a57505050505050600090565b836131258285612c32565b9190548185169260031b1c16146131445761313f906130c0565b613108565b50505050905090565b6000546001600160a01b03918216911681146131f65780600052600260205260ff604060002054166131d357600052600360205260ff604060002054166131b15760405161319a81612c66565b60078152662ab735b737bbb760c91b602082015290565b6040516131bd81612c66565b60068152652830b9b4b2b760d11b602082015290565b506040516131e081612c66565b60068152652237b5ba32b960d11b602082015290565b5060405161320381612c66565b600581526420b236b4b760d91b602082015290565b908082146132ec5761322a8154612d75565b906001600160401b0382116107d1578190613249826126fa8654612d75565b600090601f831160011461328057600092613275575b50508160011b916000199060031b1c1916179055565b01549050388061325f565b81526020808220858352818320935090601f1985169083905b8282106132d35750509084600195949392106132ba575b505050811b019055565b015460001960f88460031b161c191690553880806132b0565b8495819295850154815560018091019601940190613299565b505056fea26469706673582212207d71f77cfd477761635de894afd09c46d29a393a08c0d78206454563d37e89e464736f6c63430008130033",
  "immutableReferences": {},
  "source": "// SPDX-License-Identifier: MIT\r\npragma solidity >=0.4.22 <0.9.0;\r\n\r\ncontract RekamMedis {\r\n    address public admin;\r\n\r\n    struct Dokter {\r\n        string nama;\r\n        bool aktif;\r\n        address[] assignedPasien;\r\n    }\r\n\r\n    mapping(address => Dokter) public dataDokter;\r\n    mapping(address => bool) public isDokter;\r\n    mapping(address => bool) public isPasien;\r\n\r\n    address[] public daftarDokter; // daftar semua alamat dokter\r\n    address[] public daftarPasien; // daftar semua alamat pasien\r\n\r\n    struct RekamMedisData {\r\n        uint id;\r\n        address pasien;\r\n        string nama;\r\n        uint umur;\r\n        string golonganDarah;\r\n        string tanggalLahir;\r\n        string gender;\r\n        string alamat;\r\n        string noTelepon;\r\n        string email;\r\n        string diagnosa;\r\n        string foto;\r\n        string catatan;\r\n        bool valid;\r\n    }\r\n\r\n    mapping(uint => RekamMedisData) public rekamMedis;\r\n    mapping(address => uint[]) public rekamMedisByPasien;\r\n\r\n    uint public rekamMedisCount;\r\n    // Versi history rekam medis\r\n    mapping(uint => RekamMedisData[]) public rekamMedisVersions;\r\n    event RekamMedisDitambahkan(\r\n        uint id,\r\n        address pasien,\r\n        string diagnosa,\r\n        bool valid\r\n    );\r\n    event RekamMedisDiperbarui(uint id, string diagnosa, string catatan);\r\n    event AdminDitetapkan(address newAdmin);\r\n    event DokterTerdaftar(address dokter, string nama);\r\n    event DokterStatusDiubah(address dokter, bool aktif);\r\n    event PasienDiassignKeDokter(address dokter, address pasien);\r\n    event PasienTerdaftar(address pasien);\r\n\r\n    constructor() {\r\n        admin = 0xB0dC0Bf642d339517438017Fc185Bb0f758A01D2;\r\n    }\r\n\r\n    modifier hanyaAdmin() {\r\n        require(\r\n            msg.sender == admin,\r\n            \"Hanya admin yang bisa melakukan aksi ini.\"\r\n        );\r\n        _;\r\n    }\r\n\r\n    modifier hanyaDokterAktif() {\r\n        require(\r\n            isDokter[msg.sender] && dataDokter[msg.sender].aktif,\r\n            \"Hanya dokter aktif yang bisa memperbarui rekam medis.\"\r\n        );\r\n        _;\r\n    }\r\n\r\n    modifier hanyaDokterAktifUntukPasien(address _pasien) {\r\n        require(\r\n            isDokter[msg.sender] && dataDokter[msg.sender].aktif,\r\n            \"Hanya dokter aktif yang bisa memperbarui rekam medis.\"\r\n        );\r\n        require(\r\n            isPasienAssignedToDokter(msg.sender, _pasien),\r\n            \"Dokter tidak di-assign untuk pasien ini.\"\r\n        );\r\n        _;\r\n    }\r\n\r\n    modifier hanyaPasien(address pasien) {\r\n        require(\r\n            msg.sender == pasien,\r\n            \"Hanya pasien yang bisa membuat rekam medis mereka.\"\r\n        );\r\n        _;\r\n    }\r\n\r\n    // Register dokter baru dengan nama dan aktifkan langsung\r\n    function registerDokter(\r\n        address _dokter,\r\n        string memory _nama\r\n    ) public hanyaAdmin {\r\n        require(!isDokter[_dokter], \"Dokter sudah terdaftar.\");\r\n        require(!isPasien[_dokter], \"Alamat sudah terdaftar sebagai Pasien.\");\r\n        isDokter[_dokter] = true;\r\n        dataDokter[_dokter] = Dokter({\r\n            nama: _nama,\r\n            aktif: true,\r\n            assignedPasien: new address[](0)\r\n        });\r\n        daftarDokter.push(_dokter);\r\n        emit DokterTerdaftar(_dokter, _nama);\r\n    }\r\n\r\n    // Ambil total dokter terdaftar\r\n    function totalDokter() public view returns (uint) {\r\n        return daftarDokter.length;\r\n    }\r\n\r\n    // Ambil alamat dokter berdasarkan index\r\n    function getDokterByIndex(uint index) public view returns (address) {\r\n        require(index < daftarDokter.length, \"Index dokter tidak valid.\");\r\n        return daftarDokter[index];\r\n    }\r\n\r\n    // Set status dokter aktif/nonaktif\r\n    function setStatusDokter(address _dokter, bool _aktif) public hanyaAdmin {\r\n        require(isDokter[_dokter], \"Dokter tidak terdaftar.\");\r\n        dataDokter[_dokter].aktif = _aktif;\r\n        emit DokterStatusDiubah(_dokter, _aktif);\r\n    }\r\n\r\n    // Assign pasien ke dokter tertentu\r\n    function assignPasienToDokter(\r\n        address _dokter,\r\n        address _pasien\r\n    ) public hanyaAdmin {\r\n        require(isDokter[_dokter], \"Dokter tidak terdaftar.\");\r\n        require(isPasien[_pasien], \"Pasien tidak terdaftar.\");\r\n\r\n        address[] storage pasienDokter = dataDokter[_dokter].assignedPasien;\r\n        for (uint i = 0; i < pasienDokter.length; i++) {\r\n            if (pasienDokter[i] == _pasien) {\r\n                revert(\"Pasien sudah ditugaskan ke dokter ini.\");\r\n            }\r\n        }\r\n        pasienDokter.push(_pasien);\r\n        emit PasienDiassignKeDokter(_dokter, _pasien);\r\n    }\r\n\r\n    // Cek apakah pasien sudah diassign ke dokter\r\n    function isPasienAssignedToDokter(\r\n        address _dokter,\r\n        address _pasien\r\n    ) public view returns (bool) {\r\n        address[] storage pasienList = dataDokter[_dokter].assignedPasien;\r\n        for (uint i = 0; i < pasienList.length; i++) {\r\n            if (pasienList[i] == _pasien) {\r\n                return true;\r\n            }\r\n        }\r\n        return false;\r\n    }\r\n\r\n    // Get data dokter\r\n    function getDokter(\r\n        address _dokter\r\n    )\r\n        public\r\n        view\r\n        returns (string memory nama, bool aktif, address[] memory pasien)\r\n    {\r\n        Dokter storage d = dataDokter[_dokter];\r\n        return (d.nama, d.aktif, d.assignedPasien);\r\n    }\r\n\r\n    // Register pasien oleh admin\r\n    function registerPasien(address _pasien) public hanyaAdmin {\r\n        require(!isDokter[_pasien], \"Alamat sudah terdaftar sebagai Dokter.\");\r\n        require(!isPasien[_pasien], \"Pasien sudah terdaftar.\");\r\n        isPasien[_pasien] = true;\r\n        daftarPasien.push(_pasien);\r\n        emit PasienTerdaftar(_pasien);\r\n    }\r\n\r\n    // Self register pasien\r\n    function selfRegisterPasien() public {\r\n        require(!isPasien[msg.sender], \"Anda sudah terdaftar sebagai Pasien.\");\r\n        isPasien[msg.sender] = true;\r\n        daftarPasien.push(msg.sender);\r\n        emit PasienTerdaftar(msg.sender);\r\n    }\r\n\r\n    // Get role user\r\n    function getUserRole(address _user) public view returns (string memory) {\r\n        if (_user == admin) return \"Admin\";\r\n        if (isDokter[_user]) return \"Dokter\";\r\n        if (isPasien[_user]) return \"Pasien\";\r\n        return \"Unknown\";\r\n    }\r\n\r\n    // Ambil daftar rekam medis milik pasien\r\n    function getRekamMedisIdsByPasien(\r\n        address pasien\r\n    ) public view returns (uint[] memory) {\r\n        return rekamMedisByPasien[pasien];\r\n    }\r\n\r\n    // Ambil daftar semua pasien\r\n    function getDaftarPasien() public view returns (address[] memory) {\r\n        return daftarPasien;\r\n    }\r\n\r\n    // Set admin baru\r\n    function setAdmin(address _newAdmin) public hanyaAdmin {\r\n        admin = _newAdmin;\r\n        emit AdminDitetapkan(_newAdmin);\r\n    }\r\n\r\n    // Tambah rekam medis pasien\r\n    function tambahRekamMedis(\r\n        address _pasien,\r\n        string memory _nama,\r\n        uint _umur,\r\n        string memory _golonganDarah,\r\n        string memory _tanggalLahir,\r\n        string memory _gender,\r\n        string memory _alamat,\r\n        string memory _noTelepon,\r\n        string memory _email,\r\n        string memory _diagnosa,\r\n        string memory _foto,\r\n        string memory _catatan\r\n    ) public hanyaPasien(_pasien) {\r\n        rekamMedisCount++;\r\n        rekamMedis[rekamMedisCount] = RekamMedisData(\r\n            rekamMedisCount,\r\n            _pasien,\r\n            _nama,\r\n            _umur,\r\n            _golonganDarah,\r\n            _tanggalLahir,\r\n            _gender,\r\n            _alamat,\r\n            _noTelepon,\r\n            _email,\r\n            _diagnosa,\r\n            _foto,\r\n            _catatan,\r\n            true\r\n        );\r\n        rekamMedisByPasien[_pasien].push(rekamMedisCount);\r\n        emit RekamMedisDitambahkan(rekamMedisCount, _pasien, _diagnosa, true);\r\n    }\r\n\r\n    // Update rekam medis dokter aktif\r\n    function updateRekamMedis(\r\n        uint _id,\r\n        string memory _nama,\r\n        uint _umur,\r\n        string memory _golonganDarah,\r\n        string memory _tanggalLahir,\r\n        string memory _gender,\r\n        string memory _alamat,\r\n        string memory _noTelepon,\r\n        string memory _email,\r\n        string memory _diagnosa,\r\n        string memory _foto,\r\n        string memory _catatan\r\n    ) public hanyaDokterAktifUntukPasien(rekamMedis[_id].pasien) {\r\n        RekamMedisData storage rekam = rekamMedis[_id];\r\n        // Simpan versi lama ke array versi\r\n        rekamMedisVersions[_id].push(rekam);\r\n\r\n        // Update data rekam medis\r\n        rekam.nama = _nama;\r\n        rekam.umur = _umur;\r\n        rekam.golonganDarah = _golonganDarah;\r\n        rekam.tanggalLahir = _tanggalLahir;\r\n        rekam.gender = _gender;\r\n        rekam.alamat = _alamat;\r\n        rekam.noTelepon = _noTelepon;\r\n        rekam.email = _email;\r\n        rekam.diagnosa = _diagnosa;\r\n        rekam.foto = _foto;\r\n        rekam.catatan = _catatan;\r\n        emit RekamMedisDiperbarui(_id, _diagnosa, _catatan);\r\n    }\r\n\r\n    // Fungsi untuk ambil versi rekam medis\r\n    function getRekamMedisVersions(\r\n        uint _id\r\n    ) public view returns (RekamMedisData[] memory) {\r\n        return rekamMedisVersions[_id];\r\n    }\r\n\r\n    // Nonaktifkan rekam medis (admin)\r\n    function nonaktifkanRekamMedis(uint _id) public hanyaAdmin {\r\n        rekamMedis[_id].valid = false;\r\n    }\r\n}\r\n",
  "sourcePath": "D:\\RekamMedisBlockchain\\contracts\\RekamMedis.sol",
  "compiler": {
    "name": "solc",
    "version": "0.8.19+commit.7dd6d404.Emscripten.clang"
  },
  "schemaVersion": "3.4.16",
  "updatedAt": "2025-05-16T02:11:28.340Z",
  "networkType": "ethereum",
  "devdoc": {
    "kind": "dev",
    "methods": {},
    "version": 1
  },
  "userdoc": {
    "kind": "user",
    "methods": {},
    "version": 1
  }
}