{
  "contractName": "RekamMedisRS",
  "abi": [
    {
      "inputs": [],
      "stateMutability": "nonpayable",
      "type": "constructor"
    },
    {
      "anonymous": false,
      "inputs": [
        {
          "indexed": true,
          "internalType": "address",
          "name": "admin",
          "type": "address"
        },
        {
          "indexed": false,
          "internalType": "string",
          "name": "namaRumahSakit",
          "type": "string"
        },
        {
          "indexed": false,
          "internalType": "string",
          "name": "alamatRumahSakit",
          "type": "string"
        },
        {
          "indexed": false,
          "internalType": "string",
          "name": "kota",
          "type": "string"
        },
        {
          "indexed": false,
          "internalType": "string",
          "name": "NIBRS",
          "type": "string"
        }
      ],
      "name": "AdminRSInfoDiperbarui",
      "type": "event"
    },
    {
      "anonymous": false,
      "inputs": [
        {
          "indexed": true,
          "internalType": "address",
          "name": "admin",
          "type": "address"
        },
        {
          "indexed": false,
          "internalType": "bool",
          "name": "aktif",
          "type": "bool"
        }
      ],
      "name": "AdminRSStatusDiubah",
      "type": "event"
    },
    {
      "anonymous": false,
      "inputs": [
        {
          "indexed": true,
          "internalType": "address",
          "name": "admin",
          "type": "address"
        },
        {
          "indexed": false,
          "internalType": "string",
          "name": "namaRumahSakit",
          "type": "string"
        },
        {
          "indexed": false,
          "internalType": "string",
          "name": "alamatRumahSakit",
          "type": "string"
        },
        {
          "indexed": false,
          "internalType": "string",
          "name": "kota",
          "type": "string"
        },
        {
          "indexed": false,
          "internalType": "string",
          "name": "NIBRS",
          "type": "string"
        }
      ],
      "name": "AdminRSTerdaftar",
      "type": "event"
    },
    {
      "anonymous": false,
      "inputs": [
        {
          "indexed": true,
          "internalType": "address",
          "name": "dokter",
          "type": "address"
        },
        {
          "indexed": false,
          "internalType": "string",
          "name": "nama",
          "type": "string"
        },
        {
          "indexed": false,
          "internalType": "string",
          "name": "spesialisasi",
          "type": "string"
        },
        {
          "indexed": false,
          "internalType": "string",
          "name": "nomorLisensi",
          "type": "string"
        },
        {
          "indexed": true,
          "internalType": "address",
          "name": "adminRS",
          "type": "address"
        }
      ],
      "name": "DokterInfoDiperbarui",
      "type": "event"
    },
    {
      "anonymous": false,
      "inputs": [
        {
          "indexed": true,
          "internalType": "address",
          "name": "dokter",
          "type": "address"
        },
        {
          "indexed": false,
          "internalType": "bool",
          "name": "aktif",
          "type": "bool"
        }
      ],
      "name": "DokterStatusDiubah",
      "type": "event"
    },
    {
      "anonymous": false,
      "inputs": [
        {
          "indexed": true,
          "internalType": "address",
          "name": "dokter",
          "type": "address"
        },
        {
          "indexed": false,
          "internalType": "string",
          "name": "nama",
          "type": "string"
        },
        {
          "indexed": false,
          "internalType": "address",
          "name": "adminRS",
          "type": "address"
        }
      ],
      "name": "DokterTerdaftar",
      "type": "event"
    },
    {
      "anonymous": false,
      "inputs": [
        {
          "indexed": true,
          "internalType": "address",
          "name": "pasien",
          "type": "address"
        },
        {
          "indexed": false,
          "internalType": "string",
          "name": "nama",
          "type": "string"
        },
        {
          "indexed": false,
          "internalType": "string",
          "name": "golonganDarah",
          "type": "string"
        },
        {
          "indexed": false,
          "internalType": "string",
          "name": "tanggalLahir",
          "type": "string"
        },
        {
          "indexed": false,
          "internalType": "string",
          "name": "gender",
          "type": "string"
        },
        {
          "indexed": false,
          "internalType": "string",
          "name": "alamat",
          "type": "string"
        },
        {
          "indexed": false,
          "internalType": "string",
          "name": "noTelepon",
          "type": "string"
        },
        {
          "indexed": false,
          "internalType": "string",
          "name": "email",
          "type": "string"
        }
      ],
      "name": "PasienDataDiperbarui",
      "type": "event"
    },
    {
      "anonymous": false,
      "inputs": [
        {
          "indexed": false,
          "internalType": "address",
          "name": "dokter",
          "type": "address"
        },
        {
          "indexed": false,
          "internalType": "address",
          "name": "pasien",
          "type": "address"
        }
      ],
      "name": "PasienDiassignKeDokter",
      "type": "event"
    },
    {
      "anonymous": false,
      "inputs": [
        {
          "indexed": false,
          "internalType": "address",
          "name": "dokter",
          "type": "address"
        },
        {
          "indexed": false,
          "internalType": "address",
          "name": "pasien",
          "type": "address"
        }
      ],
      "name": "PasienDiunassignDariDokter",
      "type": "event"
    },
    {
      "anonymous": false,
      "inputs": [
        {
          "indexed": true,
          "internalType": "address",
          "name": "pasien",
          "type": "address"
        },
        {
          "indexed": false,
          "internalType": "address",
          "name": "oldAdminRS",
          "type": "address"
        },
        {
          "indexed": false,
          "internalType": "address",
          "name": "newAdminRS",
          "type": "address"
        }
      ],
      "name": "PasienPindahRS",
      "type": "event"
    },
    {
      "anonymous": false,
      "inputs": [
        {
          "indexed": true,
          "internalType": "address",
          "name": "pasien",
          "type": "address"
        },
        {
          "indexed": false,
          "internalType": "string",
          "name": "nama",
          "type": "string"
        },
        {
          "indexed": false,
          "internalType": "string",
          "name": "IDPasien",
          "type": "string"
        },
        {
          "indexed": false,
          "internalType": "address",
          "name": "adminRS",
          "type": "address"
        }
      ],
      "name": "PasienTerdaftar",
      "type": "event"
    },
    {
      "anonymous": false,
      "inputs": [
        {
          "indexed": false,
          "internalType": "uint256",
          "name": "id",
          "type": "uint256"
        },
        {
          "indexed": false,
          "internalType": "address",
          "name": "pasien",
          "type": "address"
        },
        {
          "indexed": false,
          "internalType": "string",
          "name": "diagnosa",
          "type": "string"
        },
        {
          "indexed": false,
          "internalType": "string",
          "name": "foto",
          "type": "string"
        },
        {
          "indexed": false,
          "internalType": "string",
          "name": "catatan",
          "type": "string"
        },
        {
          "indexed": false,
          "internalType": "string",
          "name": "tipeRekamMedis",
          "type": "string"
        },
        {
          "indexed": false,
          "internalType": "address",
          "name": "pembuat",
          "type": "address"
        },
        {
          "indexed": false,
          "internalType": "uint256",
          "name": "timestamp",
          "type": "uint256"
        }
      ],
      "name": "RekamMedisDitambahkan",
      "type": "event"
    },
    {
      "inputs": [
        {
          "internalType": "uint256",
          "name": "",
          "type": "uint256"
        }
      ],
      "name": "daftarAdmin",
      "outputs": [
        {
          "internalType": "address",
          "name": "",
          "type": "address"
        }
      ],
      "stateMutability": "view",
      "type": "function",
      "constant": true
    },
    {
      "inputs": [
        {
          "internalType": "uint256",
          "name": "",
          "type": "uint256"
        }
      ],
      "name": "daftarDokter",
      "outputs": [
        {
          "internalType": "address",
          "name": "",
          "type": "address"
        }
      ],
      "stateMutability": "view",
      "type": "function",
      "constant": true
    },
    {
      "inputs": [
        {
          "internalType": "uint256",
          "name": "",
          "type": "uint256"
        }
      ],
      "name": "daftarPasien",
      "outputs": [
        {
          "internalType": "address",
          "name": "",
          "type": "address"
        }
      ],
      "stateMutability": "view",
      "type": "function",
      "constant": true
    },
    {
      "inputs": [
        {
          "internalType": "address",
          "name": "",
          "type": "address"
        }
      ],
      "name": "dataAdmin",
      "outputs": [
        {
          "internalType": "string",
          "name": "namaRumahSakit",
          "type": "string"
        },
        {
          "internalType": "bool",
          "name": "aktif",
          "type": "bool"
        },
        {
          "internalType": "string",
          "name": "alamatRumahSakit",
          "type": "string"
        },
        {
          "internalType": "string",
          "name": "kota",
          "type": "string"
        },
        {
          "internalType": "string",
          "name": "NIBRS",
          "type": "string"
        }
      ],
      "stateMutability": "view",
      "type": "function",
      "constant": true
    },
    {
      "inputs": [
        {
          "internalType": "address",
          "name": "",
          "type": "address"
        }
      ],
      "name": "dataDokter",
      "outputs": [
        {
          "internalType": "string",
          "name": "nama",
          "type": "string"
        },
        {
          "internalType": "string",
          "name": "spesialisasi",
          "type": "string"
        },
        {
          "internalType": "string",
          "name": "nomorLisensi",
          "type": "string"
        },
        {
          "internalType": "bool",
          "name": "aktif",
          "type": "bool"
        },
        {
          "internalType": "address",
          "name": "adminRS",
          "type": "address"
        }
      ],
      "stateMutability": "view",
      "type": "function",
      "constant": true
    },
    {
      "inputs": [
        {
          "internalType": "address",
          "name": "",
          "type": "address"
        }
      ],
      "name": "dataPasien",
      "outputs": [
        {
          "internalType": "string",
          "name": "nama",
          "type": "string"
        },
        {
          "internalType": "string",
          "name": "ID",
          "type": "string"
        },
        {
          "internalType": "string",
          "name": "golonganDarah",
          "type": "string"
        },
        {
          "internalType": "string",
          "name": "tanggalLahir",
          "type": "string"
        },
        {
          "internalType": "string",
          "name": "gender",
          "type": "string"
        },
        {
          "internalType": "string",
          "name": "alamat",
          "type": "string"
        },
        {
          "internalType": "string",
          "name": "noTelepon",
          "type": "string"
        },
        {
          "internalType": "string",
          "name": "email",
          "type": "string"
        },
        {
          "internalType": "address",
          "name": "rumahSakitPenanggungJawab",
          "type": "address"
        }
      ],
      "stateMutability": "view",
      "type": "function",
      "constant": true
    },
    {
      "inputs": [
        {
          "internalType": "address",
          "name": "",
          "type": "address"
        }
      ],
      "name": "isDokter",
      "outputs": [
        {
          "internalType": "bool",
          "name": "",
          "type": "bool"
        }
      ],
      "stateMutability": "view",
      "type": "function",
      "constant": true
    },
    {
      "inputs": [
        {
          "internalType": "string",
          "name": "",
          "type": "string"
        }
      ],
      "name": "isNIBRSUsed",
      "outputs": [
        {
          "internalType": "bool",
          "name": "",
          "type": "bool"
        }
      ],
      "stateMutability": "view",
      "type": "function",
      "constant": true
    },
    {
      "inputs": [
        {
          "internalType": "address",
          "name": "",
          "type": "address"
        }
      ],
      "name": "isPasien",
      "outputs": [
        {
          "internalType": "bool",
          "name": "",
          "type": "bool"
        }
      ],
      "stateMutability": "view",
      "type": "function",
      "constant": true
    },
    {
      "inputs": [
        {
          "internalType": "string",
          "name": "",
          "type": "string"
        }
      ],
      "name": "isPatientIDUsed",
      "outputs": [
        {
          "internalType": "bool",
          "name": "",
          "type": "bool"
        }
      ],
      "stateMutability": "view",
      "type": "function",
      "constant": true
    },
    {
      "inputs": [
        {
          "internalType": "uint256",
          "name": "",
          "type": "uint256"
        }
      ],
      "name": "rekamMedis",
      "outputs": [
        {
          "internalType": "uint256",
          "name": "id",
          "type": "uint256"
        },
        {
          "internalType": "address",
          "name": "pasien",
          "type": "address"
        },
        {
          "internalType": "string",
          "name": "diagnosa",
          "type": "string"
        },
        {
          "internalType": "string",
          "name": "foto",
          "type": "string"
        },
        {
          "internalType": "string",
          "name": "catatan",
          "type": "string"
        },
        {
          "internalType": "address",
          "name": "pembuat",
          "type": "address"
        },
        {
          "internalType": "uint256",
          "name": "timestampPembuatan",
          "type": "uint256"
        },
        {
          "internalType": "string",
          "name": "tipeRekamMedis",
          "type": "string"
        }
      ],
      "stateMutability": "view",
      "type": "function",
      "constant": true
    },
    {
      "inputs": [
        {
          "internalType": "address",
          "name": "",
          "type": "address"
        },
        {
          "internalType": "uint256",
          "name": "",
          "type": "uint256"
        }
      ],
      "name": "rekamMedisByPasien",
      "outputs": [
        {
          "internalType": "uint256",
          "name": "",
          "type": "uint256"
        }
      ],
      "stateMutability": "view",
      "type": "function",
      "constant": true
    },
    {
      "inputs": [],
      "name": "rekamMedisCount",
      "outputs": [
        {
          "internalType": "uint256",
          "name": "",
          "type": "uint256"
        }
      ],
      "stateMutability": "view",
      "type": "function",
      "constant": true
    },
    {
      "inputs": [],
      "name": "superAdmin",
      "outputs": [
        {
          "internalType": "address",
          "name": "",
          "type": "address"
        }
      ],
      "stateMutability": "view",
      "type": "function",
      "constant": true
    },
    {
      "inputs": [
        {
          "internalType": "address",
          "name": "_admin",
          "type": "address"
        },
        {
          "internalType": "string",
          "name": "_namaRS",
          "type": "string"
        },
        {
          "internalType": "string",
          "name": "_alamatRS",
          "type": "string"
        },
        {
          "internalType": "string",
          "name": "_kotaRS",
          "type": "string"
        },
        {
          "internalType": "string",
          "name": "_NIBRS",
          "type": "string"
        }
      ],
      "name": "registerAdminRS",
      "outputs": [],
      "stateMutability": "nonpayable",
      "type": "function"
    },
    {
      "inputs": [
        {
          "internalType": "address",
          "name": "_admin",
          "type": "address"
        },
        {
          "internalType": "string",
          "name": "_namaBaru",
          "type": "string"
        },
        {
          "internalType": "string",
          "name": "_alamatBaru",
          "type": "string"
        },
        {
          "internalType": "string",
          "name": "_kotaBaru",
          "type": "string"
        },
        {
          "internalType": "string",
          "name": "_NIBRSBaru",
          "type": "string"
        }
      ],
      "name": "updateAdminRSDetails",
      "outputs": [],
      "stateMutability": "nonpayable",
      "type": "function"
    },
    {
      "inputs": [
        {
          "internalType": "address",
          "name": "_admin",
          "type": "address"
        },
        {
          "internalType": "bool",
          "name": "_aktif",
          "type": "bool"
        }
      ],
      "name": "setStatusAdminRS",
      "outputs": [],
      "stateMutability": "nonpayable",
      "type": "function"
    },
    {
      "inputs": [],
      "name": "getAllAdminRSAddresses",
      "outputs": [
        {
          "internalType": "address[]",
          "name": "",
          "type": "address[]"
        }
      ],
      "stateMutability": "view",
      "type": "function",
      "constant": true
    },
    {
      "inputs": [],
      "name": "totalAdmin",
      "outputs": [
        {
          "internalType": "uint256",
          "name": "",
          "type": "uint256"
        }
      ],
      "stateMutability": "view",
      "type": "function",
      "constant": true
    },
    {
      "inputs": [
        {
          "internalType": "uint256",
          "name": "idx",
          "type": "uint256"
        }
      ],
      "name": "getAdminByIndex",
      "outputs": [
        {
          "internalType": "address",
          "name": "",
          "type": "address"
        }
      ],
      "stateMutability": "view",
      "type": "function",
      "constant": true
    },
    {
      "inputs": [
        {
          "internalType": "address",
          "name": "_admin",
          "type": "address"
        }
      ],
      "name": "getAdminRS",
      "outputs": [
        {
          "internalType": "string",
          "name": "namaRumahSakit",
          "type": "string"
        },
        {
          "internalType": "bool",
          "name": "aktif",
          "type": "bool"
        },
        {
          "internalType": "string",
          "name": "alamatRumahSakit",
          "type": "string"
        },
        {
          "internalType": "string",
          "name": "kota",
          "type": "string"
        },
        {
          "internalType": "string",
          "name": "NIBRS",
          "type": "string"
        }
      ],
      "stateMutability": "view",
      "type": "function",
      "constant": true
    },
    {
      "inputs": [
        {
          "internalType": "address",
          "name": "_dokter",
          "type": "address"
        },
        {
          "internalType": "string",
          "name": "_nama",
          "type": "string"
        },
        {
          "internalType": "string",
          "name": "_spesialisasi",
          "type": "string"
        },
        {
          "internalType": "string",
          "name": "_nomorLisensi",
          "type": "string"
        }
      ],
      "name": "registerDokter",
      "outputs": [],
      "stateMutability": "nonpayable",
      "type": "function"
    },
    {
      "inputs": [
        {
          "internalType": "address",
          "name": "_dokter",
          "type": "address"
        },
        {
          "internalType": "string",
          "name": "_namaBaru",
          "type": "string"
        },
        {
          "internalType": "string",
          "name": "_spesialisasiBaru",
          "type": "string"
        },
        {
          "internalType": "string",
          "name": "_nomorLisensiBaru",
          "type": "string"
        }
      ],
      "name": "updateDokterInfo",
      "outputs": [],
      "stateMutability": "nonpayable",
      "type": "function"
    },
    {
      "inputs": [
        {
          "internalType": "address",
          "name": "_dokter",
          "type": "address"
        },
        {
          "internalType": "bool",
          "name": "_aktif",
          "type": "bool"
        }
      ],
      "name": "setStatusDokter",
      "outputs": [],
      "stateMutability": "nonpayable",
      "type": "function"
    },
    {
      "inputs": [],
      "name": "totalDokter",
      "outputs": [
        {
          "internalType": "uint256",
          "name": "",
          "type": "uint256"
        }
      ],
      "stateMutability": "view",
      "type": "function",
      "constant": true
    },
    {
      "inputs": [
        {
          "internalType": "uint256",
          "name": "idx",
          "type": "uint256"
        }
      ],
      "name": "getDokterByIndex",
      "outputs": [
        {
          "internalType": "address",
          "name": "",
          "type": "address"
        }
      ],
      "stateMutability": "view",
      "type": "function",
      "constant": true
    },
    {
      "inputs": [
        {
          "internalType": "address",
          "name": "_dokter",
          "type": "address"
        }
      ],
      "name": "getDokter",
      "outputs": [
        {
          "internalType": "string",
          "name": "nama",
          "type": "string"
        },
        {
          "internalType": "string",
          "name": "spesialisasi",
          "type": "string"
        },
        {
          "internalType": "string",
          "name": "nomorLisensi",
          "type": "string"
        },
        {
          "internalType": "bool",
          "name": "aktif",
          "type": "bool"
        },
        {
          "internalType": "address[]",
          "name": "pasienList",
          "type": "address[]"
        },
        {
          "internalType": "address",
          "name": "adminRS",
          "type": "address"
        }
      ],
      "stateMutability": "view",
      "type": "function",
      "constant": true
    },
    {
      "inputs": [
        {
          "internalType": "address",
          "name": "_dokter",
          "type": "address"
        }
      ],
      "name": "getAssignedPatients",
      "outputs": [
        {
          "internalType": "address[]",
          "name": "",
          "type": "address[]"
        }
      ],
      "stateMutability": "view",
      "type": "function",
      "constant": true
    },
    {
      "inputs": [
        {
          "internalType": "address",
          "name": "_pasien",
          "type": "address"
        },
        {
          "internalType": "string",
          "name": "_nama",
          "type": "string"
        },
        {
          "internalType": "string",
          "name": "_IDPasien",
          "type": "string"
        },
        {
          "internalType": "address",
          "name": "_adminRS",
          "type": "address"
        }
      ],
      "name": "registerPasien",
      "outputs": [],
      "stateMutability": "nonpayable",
      "type": "function"
    },
    {
      "inputs": [
        {
          "internalType": "string",
          "name": "_nama",
          "type": "string"
        },
        {
          "internalType": "string",
          "name": "_IDPasien",
          "type": "string"
        },
        {
          "internalType": "string",
          "name": "_golonganDarah",
          "type": "string"
        },
        {
          "internalType": "string",
          "name": "_tanggalLahir",
          "type": "string"
        },
        {
          "internalType": "string",
          "name": "_gender",
          "type": "string"
        },
        {
          "internalType": "string",
          "name": "_alamat",
          "type": "string"
        },
        {
          "internalType": "string",
          "name": "_noTelepon",
          "type": "string"
        },
        {
          "internalType": "string",
          "name": "_email",
          "type": "string"
        },
        {
          "internalType": "address",
          "name": "_adminRS",
          "type": "address"
        }
      ],
      "name": "selfRegisterPasien",
      "outputs": [],
      "stateMutability": "nonpayable",
      "type": "function"
    },
    {
      "inputs": [
        {
          "internalType": "string",
          "name": "_nama",
          "type": "string"
        },
        {
          "internalType": "string",
          "name": "_golonganDarah",
          "type": "string"
        },
        {
          "internalType": "string",
          "name": "_tanggalLahir",
          "type": "string"
        },
        {
          "internalType": "string",
          "name": "_gender",
          "type": "string"
        },
        {
          "internalType": "string",
          "name": "_alamat",
          "type": "string"
        },
        {
          "internalType": "string",
          "name": "_noTelepon",
          "type": "string"
        },
        {
          "internalType": "string",
          "name": "_email",
          "type": "string"
        }
      ],
      "name": "updatePasienData",
      "outputs": [],
      "stateMutability": "nonpayable",
      "type": "function"
    },
    {
      "inputs": [
        {
          "internalType": "address",
          "name": "_newAdminRS",
          "type": "address"
        }
      ],
      "name": "updatePasienRumahSakit",
      "outputs": [],
      "stateMutability": "nonpayable",
      "type": "function"
    },
    {
      "inputs": [],
      "name": "getDaftarPasien",
      "outputs": [
        {
          "internalType": "address[]",
          "name": "",
          "type": "address[]"
        }
      ],
      "stateMutability": "view",
      "type": "function",
      "constant": true
    },
    {
      "inputs": [
        {
          "internalType": "address",
          "name": "_pasien",
          "type": "address"
        }
      ],
      "name": "getPasienData",
      "outputs": [
        {
          "internalType": "string",
          "name": "nama",
          "type": "string"
        },
        {
          "internalType": "string",
          "name": "ID",
          "type": "string"
        },
        {
          "internalType": "string",
          "name": "golonganDarah",
          "type": "string"
        },
        {
          "internalType": "string",
          "name": "tanggalLahir",
          "type": "string"
        },
        {
          "internalType": "string",
          "name": "gender",
          "type": "string"
        },
        {
          "internalType": "string",
          "name": "alamat",
          "type": "string"
        },
        {
          "internalType": "string",
          "name": "noTelepon",
          "type": "string"
        },
        {
          "internalType": "string",
          "name": "email",
          "type": "string"
        },
        {
          "internalType": "address",
          "name": "rumahSakitPenanggungJawab",
          "type": "address"
        }
      ],
      "stateMutability": "view",
      "type": "function",
      "constant": true
    },
    {
      "inputs": [
        {
          "internalType": "address",
          "name": "_dokter",
          "type": "address"
        },
        {
          "internalType": "address",
          "name": "_pasien",
          "type": "address"
        }
      ],
      "name": "assignPasienToDokter",
      "outputs": [],
      "stateMutability": "nonpayable",
      "type": "function"
    },
    {
      "inputs": [
        {
          "internalType": "address",
          "name": "_dokter",
          "type": "address"
        },
        {
          "internalType": "address",
          "name": "_pasien",
          "type": "address"
        }
      ],
      "name": "unassignPasienFromDokter",
      "outputs": [],
      "stateMutability": "nonpayable",
      "type": "function"
    },
    {
      "inputs": [
        {
          "internalType": "address",
          "name": "_pasien",
          "type": "address"
        },
        {
          "internalType": "string",
          "name": "_diagnosa",
          "type": "string"
        },
        {
          "internalType": "string",
          "name": "_foto",
          "type": "string"
        },
        {
          "internalType": "string",
          "name": "_catatan",
          "type": "string"
        },
        {
          "internalType": "string",
          "name": "_tipeRekamMedis",
          "type": "string"
        }
      ],
      "name": "tambahRekamMedis",
      "outputs": [],
      "stateMutability": "nonpayable",
      "type": "function"
    },
    {
      "inputs": [
        {
          "internalType": "address",
          "name": "_pasien",
          "type": "address"
        }
      ],
      "name": "getRekamMedisIdsByPasien",
      "outputs": [
        {
          "internalType": "uint256[]",
          "name": "",
          "type": "uint256[]"
        }
      ],
      "stateMutability": "view",
      "type": "function",
      "constant": true
    },
    {
      "inputs": [
        {
          "internalType": "uint256",
          "name": "_id",
          "type": "uint256"
        }
      ],
      "name": "getRekamMedis",
      "outputs": [
        {
          "internalType": "uint256",
          "name": "id",
          "type": "uint256"
        },
        {
          "internalType": "address",
          "name": "pasien",
          "type": "address"
        },
        {
          "internalType": "string",
          "name": "diagnosa",
          "type": "string"
        },
        {
          "internalType": "string",
          "name": "foto",
          "type": "string"
        },
        {
          "internalType": "string",
          "name": "catatan",
          "type": "string"
        },
        {
          "internalType": "address",
          "name": "pembuat",
          "type": "address"
        },
        {
          "internalType": "uint256",
          "name": "timestampPembuatan",
          "type": "uint256"
        },
        {
          "internalType": "string",
          "name": "tipeRekamMedis",
          "type": "string"
        }
      ],
      "stateMutability": "view",
      "type": "function",
      "constant": true
    },
    {
      "inputs": [
        {
          "internalType": "address",
          "name": "_newAdmin",
          "type": "address"
        }
      ],
      "name": "setSuperAdmin",
      "outputs": [],
      "stateMutability": "nonpayable",
      "type": "function"
    },
    {
      "inputs": [
        {
          "internalType": "address",
          "name": "_user",
          "type": "address"
        }
      ],
      "name": "getUserRole",
      "outputs": [
        {
          "internalType": "string",
          "name": "",
          "type": "string"
        }
      ],
      "stateMutability": "view",
      "type": "function",
      "constant": true
    }
  ],
  "bytecode": "0x6080806040523461003d57600080546001600160a01b03191673b0dc0bf642d339517438017fc185bb0f758a01d2179055615e649081620000438239f35b600080fdfe610180604052600436101561001357600080fd5b60003560e01c80623861961461458e578062410cb31461453657806301c268fe14613dc2578063046bdbcc14613d54578063050567d214613d285780631132beb514613ce95780631570005214613c4d57806319d9d3dd14613bcc57806319e8f4051461390d5780632120e53f146138a2578063278208511461386a57806329575f6a146138415780632b7d8af8146138025780632e2dd102146137e45780633bf763031461376e5780633cdd159114612c6f5780633da0551814612b895780633fd83089146125b8578063426996511461258f57806347960cb5146124bb57806351887b67146124265780635c4c9348146123e7578063610a852614611d0d578063623785c114611c9f57806364319e3314611c815780636837008714611c26578063786f3fbe14611b7d5780637d3e9db814611b5f5780638e9c91981461156c578063911b633a1461152a57806392fa92401461139a578063932e0f6d146112b9578063a665102c146111f7578063abf72abb14611176578063b75de7a814610d35578063c0664b7e14610cc6578063c3c0fdea14610c19578063c967ede814610b4c578063ddbd24d31461056c578063e29993a5146102825763f2ab4a99146101de57600080fd5b3461027d5760207fd2e4d0240eabf0011425eb3fffbc4f311cd4b564ba547aba4b3163fd046f6a9761020f36615630565b6000549093916001600160a01b039161022b90831633146156d3565b1692836000526001825261024d6102466040600020546153a7565b1515615869565b83600052600182526102728160016040600020019060ff801983541691151516179055565b6040519015158152a2005b600080fd5b3461027d57604036600319011261027d5761029b6150e5565b6102a36150fb565b336000526001916020928084526102be6040600020546153a7565b151580610553575b6102cf90615990565b60018060a01b03908183169182600052600586526102f460ff60406000205416615a02565b826000526004865261031133826005604060002001541614615a4e565b808516806000526008875261032d60ff60406000205416615c0d565b8060005260078752338260086040600020015416036104f657929190600092600052600487526004604060002001826000905b61040b575b505050509050156103b757604080516001600160a01b0392831681529290911660208301527f80b4d8d360eb6524bf34c2207f48a267b84469bad95c9e9540413349e9f416a59250819081015b0390a1005b60405162461bcd60e51b815260048101849052602660248201527f50617369656e20746964616b20646974756761736b616e206b6520646f6b7465604482015265391034b7349760d11b6064820152608490fd5b8154808210156104f05783908761042284866151c2565b939054600394851b1c16146104475750509461043f849596615c59565b909594610360565b94965094509092600019918282019182116104da5761047b8461046d61049a94886151c2565b905490891b1c1691866151c2565b90919082549060031b9160018060a01b03809116831b921b1916179055565b825480156104c45701926104ae84846151c2565b81939154921b1b19169055558085808080610365565b634e487b7160e01b600052603160045260246000fd5b634e487b7160e01b600052601160045260246000fd5b50610365565b60405162461bcd60e51b815260048101889052602f60248201527f50617369656e20696e6920746964616b2074657264616674617220646920727560448201526e36b0b41039b0b5b4ba1020b732309760891b6064820152608490fd5b503360009081528185526040902081015460ff166102c6565b3461027d5761057a3661565f565b91949392903360005260016020526105966040600020546153a7565b151580610b2c575b6105a790615990565b6001600160a01b03871660009081526005602052604090205460ff16610ad4576001600160a01b03871660009081526008602052604090205460ff16610a69576001600160a01b03871660009081526005602052604090819020805460ff191660011790555192610617846151f6565b60008452604051968760c08101106001600160401b0360c08a0111176108a8576106669361065a9160c08a0160405261065136898b61524d565b8a52369161524d565b6020880152369161524d565b60408501526001606085015260808401523360a084015260018060a01b038416600052600460205260406000209280518051906001600160401b0382116108a85781906106bd826106b789546153a7565b89615753565b602090601f83116001146109fd576000926109f2575b50508160011b916000199060031b1c19161784555b60208101518051906001600160401b0382116108a857819061071a8261071160018a01546153a7565b60018a01615753565b602090601f831160011461098057600092610975575b50508160011b916000199060031b1c19161760018501555b60408101518051906001600160401b0382116108a857819061077a8261077160028a01546153a7565b60028a01615753565b602090601f8311600114610903576000926108f8575b50508160011b916000199060031b1c19161760028501555b6107c760608201511515600386019060ff801983541691151516179055565b60048401936080820151948551906001600160401b0382116108a857600160401b968783116108a85760209082548484558085106108db575b500190600052602060002060005b8381106108be57505050506005019060a0600180821b03910151166001600160601b0360a01b825416179055600654928310156108a85761087a8461047b8560017f5c9d12a5bfda65f31ab460df37935bfe7b6cfa6a3787bf1f99858ccc15dc9277970160065561513e565b6108916040519283926040845260408401916157fc565b3360208301526001600160a01b03909416930390a2005b634e487b7160e01b600052604160045260246000fd5b82516001600160a01b03168183015560209092019160010161080e565b6108f290846000528584600020918201910161573c565b8a610800565b015190508780610790565b9250600287016000526020600020906000935b601f198416851061095a576001945083601f19811610610941575b505050811b0160028501556107a8565b015160001960f88460031b161c19169055878080610931565b81810151835560209485019460019093019290910190610916565b015190508780610730565b9250600187016000526020600020906000935b601f19841685106109d7576001945083601f198116106109be575b505050811b016001850155610748565b015160001960f88460031b161c191690558780806109ae565b81810151835560209485019460019093019290910190610993565b0151905087806106d3565b9250866000526020600020906000935b601f1984168510610a4e576001945083601f19811610610a35575b505050811b0184556106e8565b015160001960f88460031b161c19169055878080610a28565b81810151835560209485019460019093019290910190610a0d565b60405162461bcd60e51b815260206004820152603f60248201527f416c616d617420696e692074657264616674617220736562616761692070617360448201527f69656e2c20746964616b2062697361206d656e6a61646920646f6b7465722e006064820152608490fd5b60405162461bcd60e51b815260206004820152602a60248201527f416c616d617420696e692073756461682074657264616674617220736562616760448201526930b4903237b5ba32b91760b11b6064820152608490fd5b503360005260016020526105a760ff60016040600020015416905061059e565b3461027d5760208060031936011261027d576001600160a01b03610b6e6150e5565b168060005260088252610b8860ff60406000205416615bc1565b600052600c8152604060002060405190818382549182815201908192600052846000209060005b86828210610c05578686610bc58288038361522c565b604051928392818401908285525180915260408401929160005b828110610bee57505050500390f35b835185528695509381019392810192600101610bdf565b835485529093019260019283019201610baf565b3461027d57602036600319011261027d57610c996001600160a01b0380610c3e6150e5565b1660005260046020526040600020610c55816153e1565b91610cb5610c65600184016153e1565b91610ca7610c75600286016153e1565b91600560ff600388015416960154169360405197889760a0895260a0890190615331565b908782036020890152615331565b908582036040870152615331565b911515606084015260808301520390f35b3461027d57602036600319011261027d576001600160a01b03610ce76150e5565b16806000526005602052610d0260ff60406000205416615ab2565b6000526004602052610d31610d1d6004604060002001615938565b6040519182916020835260208301906152f4565b0390f35b3461027d57610d433661565f565b95949290939195336000526001602052610d616040600020546153a7565b151580611156575b610d7290615990565b60018060a01b0391828716600052600560205260ff6040600020541615611107578287166000526004602052338360056040600020015416036110a857828716600052600460205260406000206001600160401b0385116108a857610de185610ddb83546153a7565b83615753565b846000601f821160011461104257600091611037575b508560011b906000198760031b1c19161781555b6001600160401b0389116108a857610e3389610e2a60018401546153a7565b60018401615753565b60009089601f8111600114610fc757600292600091610fbc575b508a60011b906000198c60031b1c19161760018201555b01976001600160401b0383116108a857610e8883610e828b546153a7565b8b615753565b600098601f8411600114610f295791610f07918493610f1996957f4e15ca2ba26538cdb1e2f0d595a1ec96fe8fbb126404e0cc083426c33ccbdd959a9b9c600091610f1e575b508560011b906000198760031b1c19161790555b610ef960405198899860608a5260608a01916157fc565b9187830360208901526157fc565b918483036040860152339816966157fc565b0390a3005b90508b01358d610ece565b601f1984168160005260206000209060005b818110610fa4575091610f0793917f4e15ca2ba26538cdb1e2f0d595a1ec96fe8fbb126404e0cc083426c33ccbdd959a9b9c87610f199998979510610f8a575b5050600185811b019055610ee2565b8c0135600019600388901b60f8161c191690558c80610f7b565b8a8d0135835560209c8d019c60019093019201610f3b565b90508301358b610e4d565b506001810160005260206000206000925b601f198c16841061101f57600293508b601f19811610611005575b505060018a811b016001820155610e64565b84013560001960038d901b60f8161c191690558a80610ff3565b84810135825560209384019360019092019101610fd8565b90508601358a610df7565b60008381526020812092508790601f198216905b81811061108d575010611073575b5050600185811b018155610e0b565b870135600019600388901b60f8161c191690558980611064565b8a84013585556001909401936020938401938a935001611056565b60405162461bcd60e51b815260206004820152603160248201527f416e64612062756b616e2061646d696e2052532079616e672062657268616b206044820152703ab73a3ab5903237b5ba32b91034b7349760791b6064820152608490fd5b60405162461bcd60e51b815260206004820152602160248201527f446f6b74657220746964616b207465726461667461722064692073697374656d6044820152601760f91b6064820152608490fd5b50336000526001602052610d7260ff600160406000200154169050610d69565b3461027d57602036600319011261027d57600435600052600b60205260406000208054610d3160018060a01b0380600185015416936111b7600282016153e1565b916111c4600383016153e1565b906111d1600484016153e1565b90600584015416916111ea6007600686015495016153e1565b946040519889988961551c565b3461027d57602036600319011261027d576001600160a01b03806112196150e5565b1680600052600860205261123460ff60406000205416615bc1565b6000526007602052604060002090600882015416610d31611254836153e1565b91611261600185016153e1565b9361126e600282016153e1565b9061127b600382016153e1565b611287600483016153e1565b611293600584016153e1565b916112ac60076112a5600687016153e1565b95016153e1565b94604051998a998a615588565b3461027d577f3dcd68c14f5f191f12b3b56bf35d5d7eb22447e9ec685290967b4558822ca98a6112e836615630565b91909133600052602090600182526113046040600020546153a7565b15158061137b575b61131590615990565b61135660018060a01b0380951694856000526005845261133c60ff60406000205416615a02565b856000526004845233906005604060002001541614615a4e565b83600052600482526102728160036040600020019060ff801983541691151516179055565b50336000526001825261131560ff60016040600020015416905061130c565b3461027d5760208060031936011261027d576113b46150e5565b33600052600882526113cd60ff60406000205416615bc1565b60018060a01b039081811691826000526001845260ff60016040600020015416156114ce5733600052600784528281600860406000200154161461147857336000818152600790955260409485902060080180546001600160a01b03198116909517905584516001600160a01b03929094168216845291166020830152917f3457f52cd7f93503903afd272e58438c52a23561e74eddba2144dc53d7af0e449190819081015b0390a2005b60405162461bcd60e51b815260048101859052602860248201527f416e6461207375646168207465726461667461722064692072756d616820736160448201526735b4ba1034b7349760c11b6064820152608490fd5b60405162461bcd60e51b815260048101859052602e60248201527f52756d61682053616b6974206261727520746964616b20616b7469662061746160448201526d3a903a34b230b5903b30b634b21760911b6064820152608490fd5b3461027d57602036600319011261027d5760043560035481101561027d5761155360209161518b565b905460405160039290921b1c6001600160a01b03168152f35b3461027d5761157a36615487565b9260018060a09a979698999a9493941b039661159b886000541633146156d3565b87871660005260016020526115b46040600020546153a7565b611b06578815611ab5578415611a705760ff6040518686823760208188810160028152030190205416611a19576040518060a08101106001600160401b0360a0830111176108a85760a0810160405261160e368b8d61524d565b81526001602082015261162236838961524d565b604082015261163236858561524d565b606082015261164236878761524d565b6080820152888816600052600160205260406000209080518051906001600160401b0382116108a85781906116818261167b87546153a7565b87615753565b602090601f83116001146119b3576000926119a8575b50508160011b916000199060031b1c19161782555b6116cb60208201511515600184019060ff801983541691151516179055565b604081015180516001600160401b0381116108a8578060028501926116fa826116f486546153a7565b86615753565b602090601f831160011461194257600092611937575b50508160011b916000199060031b1c19161790555b606081015180516001600160401b0381116108a85760038401916117538261174d85546153a7565b85615753565b602090601f83116001146118cb57608094939291600091836118c0575b50508160011b916000199060031b1c19161790555b0151908151906001600160401b0382116108a8576004829101926117ad826116f486546153a7565b602090601f831160011461185a5760009261184f575b50508160011b916000199060031b1c19161790555b60035495600160401b8710156108a8577f705805f9c18a9381be07edab4bcec28612355cb4fbde7b07f1fd23fee18aada8996118218961047b8a60016114739c0160035561518b565b604051878782376020818981016002815203019020600160ff19825416179055604051998a99169b8961581d565b015190508d806117c3565b6000858152602081209350601f198516905b8181106118a8575090846001959493921061188f575b505050811b0190556117d8565b015160001960f88460031b161c191690558d8080611882565b9293602060018192878601518155019501930161186c565b015190503880611770565b90601f198316918460005260206000209260005b81811061191f575091600193918560809897969410611906575b505050811b019055611785565b015160001960f88460031b161c191690553880806118f9565b929360206001819287860151815501950193016118df565b015190508f80611710565b6000858152602081209350601f198516905b8181106119905750908460019594939210611977575b505050811b019055611725565b015160001960f88460031b161c191690558f808061196a565b92936020600181928786015181550195019301611954565b015190508e80611697565b6000868152602081209350601f198516905b818110611a0157509084600195949392106119e8575b505050811b0182556116ac565b015160001960f88460031b161c191690558e80806119db565b929360206001819287860151815501950193016119c5565b60405162461bcd60e51b815260206004820152602960248201527f4e4942525320737564616820646967756e616b616e206f6c65682041646d696e604482015268102929903630b4b71760b91b6064820152608490fd5b60405162461bcd60e51b815260206004820152601960248201527f4e4942525320746964616b20626f6c6568206b6f736f6e672e000000000000006044820152606490fd5b60405162461bcd60e51b8152602060048201526024808201527f4e616d612052756d61682053616b697420746964616b20626f6c6568206b6f7360448201526337b7339760e11b6064820152608490fd5b60405162461bcd60e51b815260206004820152602b60248201527f41646d696e205253207375646168207465726461667461722064656e67616e2060448201526a30b630b6b0ba1034b7349760a91b6064820152608490fd5b3461027d57600036600319011261027d576020600654604051908152f35b3461027d57602036600319011261027d576001600160a01b0380611b9f6150e5565b166000526007602052604060002090610d31611bba836153e1565b91611bc7600185016153e1565b93611bd4600282016153e1565b91611be1600383016153e1565b611bed600484016153e1565b611bf9600585016153e1565b91611c06600686016153e1565b936008611c15600788016153e1565b9601541695604051998a998a615588565b3461027d57602036600319011261027d57600435600a5481101561027d57600a6000527fc65a7bb8d6351c1cf70c95a316cc6a92839c986682d98bc35f958f4883f9d2a801546040516001600160a01b039091168152602090f35b3461027d57600036600319011261027d576020600354604051908152f35b3461027d57602036600319011261027d57600435600354811015611cc85761155360209161518b565b60405162461bcd60e51b815260206004820152601c60248201527f496e64656b732061646d696e20525320746964616b2076616c69642e000000006044820152606490fd5b3461027d57611d1b36615487565b94919293909596600060018060a01b038a163314806123cf575b1561231d575060015b156122b2576001600160a01b038916600090815260086020526040902054611d689060ff16615c0d565b611d73600d54615c59565b9788600d55604051806101008101106001600160401b03610100830111176108a85761010081016040528981526001600160a01b038b166020820152611dba36838561524d565b6040820152611dca36858761524d565b6060820152611dda36878961524d565b60808201523360a08201524260c0820152611df636898b61524d565b60e082015289600052600b602052604060002090805182556001820160018060a01b036020830151166001600160601b0360a01b82541617905560408101518051906001600160401b0382116108a8578190611e6282611e5960028801546153a7565b60028801615753565b602090601f831160011461224057600092612235575b50508160011b916000199060031b1c19161760028301555b60608101518051906001600160401b0382116108a8578190611ec282611eb960038801546153a7565b60038801615753565b602090601f83116001146121c3576000926121b8575b50508160011b916000199060031b1c19161760038301555b60808101518051906001600160401b0382116108a857611f2082611f1760048701546153a7565b60048701615753565b602090601f83116001146121455760e09392916000918361213a575b50508160011b916000199060031b1c19161760048401555b6005830160018060a01b0360a0830151166001600160601b0360a01b82541617905560c0810151600684015501518051906001600160401b0382116108a857611fad82611fa460078601546153a7565b60078601615753565b602090601f83116001146120ca5760079291600091836120bf575b50508160011b916000199060031b1c1916179101555b6001600160a01b038a166000908152600c602052604090208054600160401b8110156108a857600181018255612013916151c2565b81549060031b908b821b91600019901b1916179055604051998a998a52600160a01b600190031660208a0152604089016101009052610100890190612057926157fc565b908782036060890152612069926157fc565b90858203608087015261207b926157fc565b9083820360a085015261208d926157fc565b3360c08301524260e0830152037f6530349a6e8f9162290f6de52adc987794b9dcf2b88018454bede841bcf8c28291a1005b015190508e80611fc8565b906007840160005260206000209160005b601f19851681106121225750918391600193600795601f19811610612109575b505050811b01910155611fde565b015160001960f88460031b161c191690558e80806120fb565b919260206001819286850151815501940192016120db565b015190508f80611f3c565b906004850160005260206000209160005b601f19851681106121a0575091839160019360e09695601f19811610612187575b505050811b016004840155611f54565b015160001960f88460031b161c191690558f8080612177565b91926020600181928685015181550194019201612156565b015190508e80611ed8565b9250600385016000526020600020906000935b601f198416851061221a576001945083601f19811610612201575b505050811b016003830155611ef0565b015160001960f88460031b161c191690558e80806121f1565b818101518355602094850194600190930192909101906121d6565b015190508e80611e78565b9250600285016000526020600020906000935b601f1984168510612297576001945083601f1981161061227e575b505050811b016002830155611e90565b015160001960f88460031b161c191690558e808061226e565b81810151835560209485019460019093019290910190612253565b60405162461bcd60e51b815260206004820152603960248201527f416b746f7220746964616b2062657268616b206d656e616d6261682072656b6160448201527f6d206d6564697320756e74756b2070617369656e20696e692e000000000000006064820152608490fd5b33600052600560205260ff60406000205416806123b8575b15611d3e576001600160a01b038a1660009081526008602052604090205460ff168061237f575b8061236f575b15611d3e57506001611d3e565b5061237a8a33615c68565b612362565b50336000908152600460209081526040808320600501546001600160a01b038e811685526007909352922060080154811691161461235c565b50600460205260ff60036040600020015416612335565b5033600052600860205260ff60406000205416611d35565b3461027d57602036600319011261027d576001600160a01b036124086150e5565b166000526005602052602060ff604060002054166040519015158152f35b3461027d57600036600319011261027d5760405180600a54808252826020809301600a6000527fc65a7bb8d6351c1cf70c95a316cc6a92839c986682d98bc35f958f4883f9d2a89260005b8582821061249c575050506124889250038361522c565b610d316040519282849384528301906152f4565b85546001600160a01b0316845260019586019588955093019201612471565b3461027d57602036600319011261027d576004356000818152600b60205260409020600101546001600160a01b03919082161561254a57600052600b6020526040600020610d318154918360018201541693600582015416600682015490612525600284016153e1565b92612532600382016153e1565b6111ea6007612543600485016153e1565b93016153e1565b60405162461bcd60e51b815260206004820152601c60248201527f52656b616d206d6564697320746964616b20646974656d756b616e2e000000006044820152606490fd5b3461027d57602036600319011261027d5760043560065481101561027d5761155360209161513e565b3461027d576125c636615487565b979460018060a09693969594951b03966125e5886000541633146156d3565b87871660005260016020526126016102466040600020546153a7565b8015612b32578915612aed5787871660005260016020526004604060002001604051612643816126356020820180956158b5565b03601f19810183528261522c565b5190208a60405161266b60208281810194808d8737810160008382015203808452018261522c565b519020036129f5575b878716600052600160205260406000206001600160401b0382116108a8576126a082610ddb83546153a7565b816000601f821160011461298e57600091612983575b508260011b906000198460031b1c19161781555b6001600160401b0384116108a8576126f2846126e960028401546153a7565b60028401615753565b836000601f82116001146129155760009161290a575b508460011b906000198660031b1c19161760028201555b6001600160401b0386116108a85760038101906127468761274084546153a7565b84615753565b60009187601f81116001146128a057600493600091612895575b508860011b906000198a60031b1c19161790555b016001600160401b038b116108a8576127918b610ddb83546153a7565b6000601f8c116001146128025791611473979593918c7ff68ff1fa009966863b83cbda346b0b08fef5e65659e2c5538afce393cd565b5b9c9d9896946000916127f7575b508860011b906000198a60031b1c19161790555b604051998a99169b8961581d565b90508701358e6127d5565b601f198c16908260005260206000209160005b81811061287d57509161147399979593918e7ff68ff1fa009966863b83cbda346b0b08fef5e65659e2c5538afce393cd565b5b9e9f9a98969410612863575b5050600188811b0190556127e9565b88013560001960038b901b60f8161c191690558d80612854565b9192602060018192868e013581550194019201612815565b90508701358e612760565b508060005260206000206000935b601f198a1685106128f2576004945089601f198116106128d8575b5050600188811b019055612774565b88013560001960038b901b60f8161c191690558d806128c9565b888101358255602094850194600190920191016128ae565b90508301358c612708565b90506002820160005260206000209060005b601f198716811061296b575085601f19811610612951575b5050600184811b01600282015561271f565b840135600019600387901b60f8161c191690558b8061293f565b90916020600181928589013581550193019101612927565b90508a01358c6126b6565b60008381526020812092505b8c601f19861682106129dd57505083601f198116106129c3575b5050600182811b0181556126ca565b8b0135600019600385901b60f8161c191690558b806129b4565b6001839460209394849301358155019301910161299a565b60ff6040518b8882376020818d810160028152030190205416612a91578787166000526001602052612a2e6004604060002001546153a7565b612a58575b6040518a8782376020818c81016002815203019020600160ff19825416179055612674565b8787166000526001602052612a7c60206004604060002001604051928380926158b5565b6002815203019020805460ff19169055612a33565b60405162461bcd60e51b815260206004820152602e60248201527f4e49425253206261727520737564616820646967756e616b616e206f6c65682060448201526d20b236b4b7102929903630b4b71760911b6064820152608490fd5b60405162461bcd60e51b815260206004820152601e60248201527f4e49425253206261727520746964616b20626f6c6568206b6f736f6e672e00006044820152606490fd5b60405162461bcd60e51b815260206004820152602960248201527f4e616d612052756d61682053616b6974206261727520746964616b20626f6c65604482015268341035b7b9b7b7339760b91b6064820152608490fd5b3461027d57602036600319011261027d57612c346001600160a01b0380612bae6150e5565b16806000526005602052612bc960ff60406000205416615ab2565b6000526004602052604060002090612c6560ff6003840154169160058401541691612bf3846153e1565b93612c50612c03600183016153e1565b91612c42612c1f6004612c18600285016153e1565b9301615938565b93604051998a9960c08b5260c08b0190615331565b9089820360208b0152615331565b908782036040890152615331565b911515606086015284820360808601526152f4565b9060a08301520390f35b3461027d5761012036600319011261027d576004356001600160401b03811161027d57612ca0903690600401615111565b6101005260e0526024356001600160401b03811161027d57612cc6903690600401615111565b61016052610120526044356001600160401b03811161027d57612ced903690600401615111565b6064356001600160401b03811161027d57612d0c903690600401615111565b906084356001600160401b03811161027d57612d2c903690600401615111565b93909260a4356001600160401b03811161027d57612d4e903690600401615111565b919060c4356001600160401b03811161027d57612d6f903690600401615111565b93909460e4356001600160401b03811161027d57612d91903690600401615111565b9099909890610104356001600160a01b038116900361027d5733600052600860205260ff6040600020541661371d5733600052600560205260ff604060002054166136cc57612de4610160511515615afe565b612e0f60ff604051610160516101205182376020816101605181016009815203019020541615615b4a565b60018060a01b036101043516600052600160205260ff600160406000200154161561366857612eb7612ee499612ed597612ea8612ef39f612ec6973360005260086020526040600020600160ff19825416179055612e7360405180610140526151da565b612e83366101005160e05161524d565b6101405152612e9936610160516101205161524d565b6020610140510152369161524d565b6040610140510152369161524d565b6060610140510152369161524d565b6080610140510152369161524d565b60a0610140510152369161524d565b60c0610140510152369161524d565b60e061014051015260018060a01b036101043516610100610140510152336000526007602052604060002061014051519081516001600160401b0381116108a857612f428161274084546153a7565b6020601f8211600114613603578192936000926135f8575b50508160011b916000199060031b1c19161781555b60206101405101519081516001600160401b0381116108a8576001820190612f9b8161274084546153a7565b6020601f82116001146135925781929394600092613587575b50508160011b916000199060031b1c19161790555b60406101405101519081516001600160401b0381116108a8576002820190612ff58161274084546153a7565b6020601f82116001146135215781929394600092613516575b50508160011b916000199060031b1c19161790555b60606101405101518051906001600160401b0382116108a85781906130588261304f60038701546153a7565b60038701615753565b602090601f83116001146134a457600092613499575b50508160011b916000199060031b1c19161760038201555b60806101405101518051906001600160401b0382116108a85781906130b282611f1760048701546153a7565b602090601f83116001146134275760009261341c575b50508160011b916000199060031b1c19161760048201555b60a06101405101518051906001600160401b0382116108a85781906131158261310c60058701546153a7565b60058701615753565b602090601f83116001146133aa5760009261339f575b50508160011b916000199060031b1c19161760058201555b60c06101405101518051906001600160401b0382116108a85781906131788261316f60068701546153a7565b60068701615753565b602090601f831160011461332d57600092613322575b50508160011b916000199060031b1c19161760068201555b60e0610140510151908151916001600160401b0383116108a8576131da836131d160078501546153a7565b60078501615753565b602090601f84116001146132b05760089391600091836132a5575b50508160011b916000199060031b1c19161760078201555b0160018060a01b03610100610140510151166001600160601b0360a01b82541617905561323933615798565b604051610160516101205182376020816101605181016009815203019020600160ff198254161790556040517f34288a60ac94463b3bd2c594dc78c87cba02f1270cf853cee3a2912bf04372373391806114736101043561016051610120516101005160e05186615b96565b0151905084806131f5565b906007830160005260206000209160005b601f198616811061330a5750918491600193600896601f198116106132f1575b505050811b01600782015561320d565b015160001960f88460031b161c191690558480806132e1565b919260206001819286850151815501940192016132c1565b01519050838061318e565b9250600684016000526020600020906000935b601f1984168510613384576001945083601f1981161061336b575b505050811b0160068201556131a6565b015160001960f88460031b161c1916905583808061335b565b81810151835560209485019460019093019290910190613340565b01519050838061312b565b9250600584016000526020600020906000935b601f1984168510613401576001945083601f198116106133e8575b505050811b016005820155613143565b015160001960f88460031b161c191690558380806133d8565b818101518355602094850194600190930192909101906133bd565b0151905083806130c8565b9250600484016000526020600020906000935b601f198416851061347e576001945083601f19811610613465575b505050811b0160048201556130e0565b015160001960f88460031b161c19169055838080613455565b8181015183556020948501946001909301929091019061343a565b01519050838061306e565b9250600384016000526020600020906000935b601f19841685106134fb576001945083601f198116106134e2575b505050811b016003820155613086565b015160001960f88460031b161c191690558380806134d2565b818101518355602094850194600190930192909101906134b7565b01519050848061300e565b826000526020600020906000601f198416905b81811061356f57509583600195969710613556575b505050811b019055613023565b015160001960f88460031b161c19169055848080613549565b9192602060018192868b015181550194019201613534565b015190508480612fb4565b826000526020600020906000601f198416905b8181106135e0575095836001959697106135c7575b505050811b019055612fc9565b015160001960f88460031b161c191690558480806135ba565b9192602060018192868b0151815501940192016135a5565b015190508380612f5a565b82600052602060002090600094601f198416955b8681106136505750836001959610613637575b505050811b018155612f6f565b015160001960f88460031b161c1916905583808061362a565b91926020600181928685015181550194019201613617565b60405162461bcd60e51b815260206004820152603660248201527f52756d61682053616b69742079616e6720646970696c696820746964616b206160448201527535ba34b31030ba30ba903a34b230b5903b30b634b21760511b6064820152608490fd5b60405162461bcd60e51b8152602060048201526024808201527f416c616d617420696e6920746572646166746172207365626167616920646f6b6044820152633a32b91760e11b6064820152608490fd5b60405162461bcd60e51b8152602060048201526024808201527f416e64612073756461682074657264616674617220736562616761692070617360448201526334b2b71760e11b6064820152608490fd5b3461027d57602036600319011261027d576001600160a01b0361378f6150e5565b16600052600160205260406000206137a6816153e1565b610d3160ff600184015416926137be600282016153e1565b906137d760046137d0600384016153e1565b92016153e1565b9160405195869586615356565b3461027d57600036600319011261027d576020600d54604051908152f35b3461027d57602060ff61382b8261381836615293565b81604051938285809451938492016152d1565b8101600281520301902054166040519015158152f35b3461027d57600036600319011261027d576000546040516001600160a01b039091168152602090f35b3461027d57602036600319011261027d57610d3161388e6138896150e5565b615ccf565b604051918291602083526020830190615331565b3461027d57602036600319011261027d576001600160a01b036138c36150e5565b168060005260016020526138de6102466040600020546153a7565b6000526001602052604060002060ff60018201541690610d31613900826153e1565b916137be600282016153e1565b3461027d57604036600319011261027d576139266150e5565b61392e6150fb565b3360005260019160208381526139486040600020546153a7565b151580613bb3575b61395990615990565b60018060a01b039081831690816000526005815261397e60ff60406000205416615a02565b816000526004815261399b33846005604060002001541614615a4e565b8285169182600052600882526139b860ff60406000205416615c0d565b82600052600782528360086040600020015416338114908115613baa575b5015613b275782600052600782526008604060002001805485811615613b12575b50506000908152600480835260408220018054949093825b868110613ade575b505050613a825750600160401b8210156108a85761047b8285927fd9a2627959a7f46a8b96c10424cdae1f1b65151551cd206b119aca54c0a86a5a97613a5f950181556151c2565b604080516001600160a01b039283168152929091166020830152819081016103b2565b6084906040519062461bcd60e51b82526004820152602f60248201527f50617369656e20696e6920737564616820646974756761736b616e206b65206460448201526e37b5ba32b9103a32b939b2b13aba1760891b6064820152fd5b8183613aea83896151c2565b90549060031b1c1614613b0557613b0090615c59565b613a0f565b5050505085878080613a17565b6001600160a01b0319163317905587806139f7565b60405162461bcd60e51b815260048101839052604f60248201527f50617369656e20696e6920746964616b2074657264616674617220646920727560448201527f6d61682073616b697420416e646120617461752073756461682064692d61737360648201526e34b3b71035b2902929903630b4b71760891b608482015260a490fd5b905015886139d6565b503360009081528482526040902084015460ff16613950565b3461027d57600036600319011261027d576040518060035480825282602080930160036000527fc2575a0e9e593c00f959f8c92f12db2869c3395a3b0502d05e2516446f71f85b9260005b85828210613c2e575050506124889250038361522c565b85546001600160a01b0316845260019586019588955093019201613c17565b3461027d57602036600319011261027d57613c666150e5565b600054906001600160a01b0390613c8033838516146156d3565b16908115613c98576001600160a01b03191617600055005b60405162461bcd60e51b8152602060048201526024808201527f416c616d61742073757065722061646d696e206261727520746964616b2076616044820152633634b21760e11b6064820152608490fd5b3461027d57602036600319011261027d576001600160a01b03613d0a6150e5565b166000526008602052602060ff604060002054166040519015158152f35b3461027d57602060ff613d3e8261381836615293565b8101600981520301902054166040519015158152f35b3461027d57602036600319011261027d57600435600654811015613d7d5761155360209161513e565b60405162461bcd60e51b815260206004820152601a60248201527f496e64656b7320646f6b74657220746964616b2076616c69642e0000000000006044820152606490fd5b3461027d5760e036600319011261027d576004356001600160401b03811161027d57613df2903690600401615111565b60805260c0526024356001600160401b03811161027d57613e17903690600401615111565b906044356001600160401b03811161027d57613e37903690600401615111565b92906064356001600160401b03811161027d57613e58903690600401615111565b906084356001600160401b03811161027d57613e78903690600401615111565b909160a4356001600160401b03811161027d57613e99903690600401615111565b94909560c4356001600160401b03811161027d57613ebb903690600401615111565b60a09b919b52336000526008602052613edb60ff60406000205416615bc1565b33600052600760205260406000206080516001600160401b0381116108a857613f0890610ddb83546153a7565b6000608051601f81116001146144cb5750600060805191826144be575b508160011b916000199060031b1c19161781555b6001600160401b038a116108a857613f588a6126e960028401546153a7565b896000601f821160011461445057600091614445575b508a60011b906000198c60031b1c19161760028201555b6001600160401b0382116108a85760038101613fa583610ddb83546153a7565b826000601f82116001146143e0576000916143d5575b508360011b906000198560031b1c19161790555b6001600160401b0384116108a857613ff784613fee60048401546153a7565b60048401615753565b836000601f82116001146143675760009161435c575b508460011b906000198660031b1c19161760048201555b6001600160401b0386116108a85761404c8661404360058401546153a7565b60058401615753565b856000601f82116001146142ee576000916142e3575b508660011b906000198860031b1c19161760058201555b6001600160401b0388116108a8576140a18861409860068401546153a7565b60068401615753565b876000601f821160011461427357600091614268575b508860011b906000198a60031b1c19161760068201555b60a0516001600160401b0381116108a8576140f9906140f060078401546153a7565b60078401615753565b60a0518c60006001601f8411146141f2576007925060009060a05192836141e7575b50508160011b916000199060031b1c1916179101555b604051998a9960e08b5260e08b016080519060c05191614150926157fc565b908b820360208d0152614162926157fc565b9089820360408b0152614174926157fc565b908782036060890152614186926157fc565b908582036080870152614198926157fc565b9083820360a08501526141aa926157fc565b9281840360c0830152339360a0516141c1926157fc565b037f5bf1a01557f5d2a881b530f82df1618e3c06d1a0b7ab3be7ff74e54ead39bd3491a2005b013590508f8f61411b565b9050600783016000528d60206000209160005b601f198516811061424d5750918391600193600795601f19811610614233575b505050811b01910155614131565b0135600019600384901b60f8161c191690558f8f81614225565b91600182946020938493013581550193019101908f91614205565b90508901358d6140b7565b90506006820160005260206000209060005b8b601f198c1682106142cb57505089601f198116106142b1575b5050600188811b0160068201556140ce565b8a013560001960038b901b60f8161c191690558c8061429f565b60018394602093948493013581550193019101614285565b90508701358d614062565b90506005820160005260206000209060005b601f1989168110614344575087601f1981161061432a575b5050600186811b016005820155614079565b880135600019600389901b60f8161c191690558c80614318565b9091602060018192858d013581550193019101614300565b90508501358d61400d565b90506004820160005260206000209060005b601f19871681106143bd575085601f198116106143a3575b5050600184811b016004820155614024565b860135600019600387901b60f8161c191690558c80614391565b9091602060018192858b013581550193019101614379565b90508401358e613fbb565b60008381526020812092505b601f198616811061442d575084601f19811610614413575b5050600183811b019055613fcf565b850135600019600386901b60f8161c191690558d80614404565b9091602060018192858a0135815501930191016143ec565b90508b01358d613f6e565b8c91601f198116600285016000526020600020936000905b8282106144a357505010614489575b505060018a811b016002820155613f85565b8c013560001960038d901b60f8161c191690558c80614477565b84013585556001909401936020938401938f9350018f614468565b905060c05101358e613f25565b82600052602060002060009260c051905b601f198416851061451e576001945083601f19811610614504575b505050811b018155613f39565b0135600019600384901b60f8161c191690558e80806144f7565b818101358355602094850194600190930192016144dc565b3461027d57604036600319011261027d5761454f6150e5565b6001600160a01b03166000908152600c602052604090208054602435919082101561027d57602091614580916151c2565b90546040519160031b1c8152f35b3461027d57608036600319011261027d576145a76150e5565b6024356001600160401b03811161027d576145c6903690600401615111565b906044356001600160401b03811161027d576145e6903690600401615111565b9390916064356001600160a01b038116900361027d573360005260016020526146136040600020546153a7565b1515806150c5575b61462490615990565b6001600160a01b03821660009081526008602052604090205460ff1661506e576001600160a01b03821660009081526005602052604090205460ff166150035761466f851515615afe565b61469160ff604051878682376020818981016009815203019020541615615b4a565b60018060a01b0360643516600052600160205260ff6001604060002001541615614fb3576064356001600160a01b03163303614f3d576001600160a01b03821660009081526008602052604090819020805460ff1916600117905551946146f7866151da565b61470236868461524d565b865261470f36828661524d565b6020870152604051614720816151f6565b600081526040870152604051614735816151f6565b60008152606087015260405161474a816151f6565b60008152608087015260405161475f816151f6565b6000815260a0870152604051614774816151f6565b6000815260c0870152604051614789816151f6565b600080825260e08801919091526001600160a01b0360643581166101008901528416815260076020526040902086518051919791906001600160401b0382116108a85781906147e2826147dc8c546153a7565b8c615753565b602090601f8311600114614ed157600092614ec6575b50508160011b916000199060031b1c19161787555b60208101518051906001600160401b0382116108a857819061483f8261483660018d01546153a7565b60018d01615753565b602090601f8311600114614e5457600092614e49575b50508160011b916000199060031b1c19161760018801555b60408101518051906001600160401b0382116108a857819061489f8261489660028d01546153a7565b60028d01615753565b602090601f8311600114614dd757600092614dcc575b50508160011b916000199060031b1c19161760028801555b60608101518051906001600160401b0382116108a85781906148ff826148f660038d01546153a7565b60038d01615753565b602090601f8311600114614d5a57600092614d4f575b50508160011b916000199060031b1c19161760038801555b60808101518051906001600160401b0382116108a857819061495f8261495660048d01546153a7565b60048d01615753565b602090601f8311600114614cdd57600092614cd2575b50508160011b916000199060031b1c19161760048801555b60a08101518051906001600160401b0382116108a85781906149bf826149b660058d01546153a7565b60058d01615753565b602090601f8311600114614c6057600092614c55575b50508160011b916000199060031b1c19161760058801555b60c08101518051906001600160401b0382116108a8578190614a1f82614a1660068d01546153a7565b60068d01615753565b602090601f8311600114614be357600092614bd8575b50508160011b916000199060031b1c19161760068801555b60e08101519687516001600160401b0381116108a857614a74816131d160078501546153a7565b6020601f8211600114614b3e579181600892611473979695947f34288a60ac94463b3bd2c594dc78c87cba02f1270cf853cee3a2912bf04372379b9c600092614b33575b50508160011b916000199060031b1c19161760078201555b019061010060018060a01b03910151166001600160601b0360a01b825416179055614afa84615798565b604051818682376020818381016009815203019020600160ff1982541617905560405194859460018060a01b0316976064359386615b96565b015190508c80614ab8565b6007830160005260206000209960005b601f1984168110614bc05750827f34288a60ac94463b3bd2c594dc78c87cba02f1270cf853cee3a2912bf04372379a9b6114739897969593600193600896601f19811610614ba7575b505050811b016007820155614ad0565b015160001960f88460031b161c191690558c8080614b97565b828201518c556001909b019a60209283019201614b4e565b015190508980614a35565b925060068a016000526020600020906000935b601f1984168510614c3a576001945083601f19811610614c21575b505050811b016006880155614a4d565b015160001960f88460031b161c19169055898080614c11565b81810151835560209485019460019093019290910190614bf6565b0151905089806149d5565b925060058a016000526020600020906000935b601f1984168510614cb7576001945083601f19811610614c9e575b505050811b0160058801556149ed565b015160001960f88460031b161c19169055898080614c8e565b81810151835560209485019460019093019290910190614c73565b015190508980614975565b925060048a016000526020600020906000935b601f1984168510614d34576001945083601f19811610614d1b575b505050811b01600488015561498d565b015160001960f88460031b161c19169055898080614d0b565b81810151835560209485019460019093019290910190614cf0565b015190508980614915565b925060038a016000526020600020906000935b601f1984168510614db1576001945083601f19811610614d98575b505050811b01600388015561492d565b015160001960f88460031b161c19169055898080614d88565b81810151835560209485019460019093019290910190614d6d565b0151905089806148b5565b925060028a016000526020600020906000935b601f1984168510614e2e576001945083601f19811610614e15575b505050811b0160028801556148cd565b015160001960f88460031b161c19169055898080614e05565b81810151835560209485019460019093019290910190614dea565b015190508980614855565b925060018a016000526020600020906000935b601f1984168510614eab576001945083601f19811610614e92575b505050811b01600188015561486d565b015160001960f88460031b161c19169055898080614e82565b81810151835560209485019460019093019290910190614e67565b0151905089806147f8565b9250896000526020600020906000935b601f1984168510614f22576001945083601f19811610614f09575b505050811b01875561480d565b015160001960f88460031b161c19169055898080614efc565b81810151835560209485019460019093019290910190614ee1565b60405162461bcd60e51b815260206004820152604260248201527f48616e79612061646d696e2052532070656e616e6767756e67206a617761622060448201527f79616e672062697361206d656e6461667461726b616e2070617369656e20696e606482015261349760f11b608482015260a490fd5b60405162461bcd60e51b815260206004820152602260248201527f41646d696e2052532079616e6720646972756a756b20746964616b20616b7469604482015261331760f11b6064820152608490fd5b60405162461bcd60e51b815260206004820152603f60248201527f416c616d617420696e6920746572646166746172207365626167616920646f6b60448201527f7465722c20746964616b2062697361206d656e6a6164692070617369656e2e006064820152608490fd5b60405162461bcd60e51b815260206004820152602960248201527f50617369656e207375646168207465726461667461722064656e67616e20616c60448201526830b6b0ba1034b7349760b91b6064820152608490fd5b5033600052600160205261462460ff60016040600020015416905061461b565b600435906001600160a01b038216820361027d57565b602435906001600160a01b038216820361027d57565b9181601f8401121561027d578235916001600160401b03831161027d576020838186019501011161027d57565b6006548110156151755760066000527ff652222313e28459528d920b65115c16c04f3efc82aaedc97be59f3f377c0d3f0190600090565b634e487b7160e01b600052603260045260246000fd5b6003548110156151755760036000527fc2575a0e9e593c00f959f8c92f12db2869c3395a3b0502d05e2516446f71f85b0190600090565b80548210156151755760005260206000200190600090565b61012081019081106001600160401b038211176108a857604052565b602081019081106001600160401b038211176108a857604052565b604081019081106001600160401b038211176108a857604052565b90601f801991011681019081106001600160401b038211176108a857604052565b9291926001600160401b0382116108a85760405191615276601f8201601f19166020018461522c565b82948184528183011161027d578281602093846000960137010152565b602060031982011261027d57600435906001600160401b03821161027d578060238301121561027d578160246152ce9360040135910161524d565b90565b60005b8381106152e45750506000910152565b81810151838201526020016152d4565b90815180825260208080930193019160005b828110615314575050505090565b83516001600160a01b031685529381019392810192600101615306565b9060209161534a815180928185528580860191016152d1565b601f01601f1916010190565b9390615399926152ce969461537661538b9360a0895260a0890190615331565b91151560208801528682036040880152615331565b908482036060860152615331565b916080818403910152615331565b90600182811c921680156153d7575b60208310146153c157565b634e487b7160e01b600052602260045260246000fd5b91607f16916153b6565b90604051918260008254926153f5846153a7565b9081845260019485811690816000146154645750600114615421575b505061541f9250038361522c565b565b9093915060005260209081600020936000915b81831061544c57505061541f93508201013880615411565b85548884018501529485019487945091830191615434565b91505061541f94506020925060ff191682840152151560051b8201013880615411565b9060a060031983011261027d576004356001600160a01b038116810361027d57916001600160401b039060243582811161027d57816154c891600401615111565b9390939260443581811161027d57836154e391600401615111565b9390939260643583811161027d57826154fe91600401615111565b9390939260843591821161027d5761551891600401615111565b9091565b94906152ce9896979461555361556f949561556193895260018060a01b0380971660208a01526101008060408b0152890190615331565b908782036060890152615331565b908582036080870152615331565b941660a083015260c082015260e0818403910152615331565b97946155f6906155e8615612966155da8c9d9e9d6101009c986155cc615604996155be6156209f9a610120808752860190615331565b908482036020860152615331565b916040818403910152615331565b8c810360608e015290615331565b908a820360808c0152615331565b9088820360a08a0152615331565b9086820360c0880152615331565b9084820360e0860152615331565b6001600160a01b03909416910152565b604090600319011261027d576004356001600160a01b038116810361027d5790602435801515810361027d5790565b608060031982011261027d576004356001600160a01b038116810361027d57916001600160401b0360243581811161027d578361569e91600401615111565b9390939260443583811161027d57826156b991600401615111565b9390939260643591821161027d5761551891600401615111565b156156da57565b60405162461bcd60e51b815260206004820152603460248201527f48616e79612073757065722061646d696e2079616e67206461706174206d656e6044820152733530b630b735b0b710333ab733b9b49034b7349760611b6064820152608490fd5b818110615747575050565b6000815560010161573c565b9190601f811161576257505050565b61541f926000526020600020906020601f840160051c8301931061578e575b601f0160051c019061573c565b9091508190615781565b600a54600160401b8110156108a8576001810180600a5581101561517557600a6000527fc65a7bb8d6351c1cf70c95a316cc6a92839c986682d98bc35f958f4883f9d2a80180546001600160a01b0319166001600160a01b03909216919091179055565b908060209392818452848401376000828201840152601f01601f1916010190565b96949261585b9461583f61584d936152ce9b999560808c5260808c01916157fc565b9189830360208b01526157fc565b9186830360408801526157fc565b9260608185039101526157fc565b1561587057565b60405162461bcd60e51b815260206004820152601960248201527f41646d696e20525320746964616b20646974656d756b616e2e000000000000006044820152606490fd5b6000929181546158c4816153a7565b9260019180831690811561591d57506001146158e1575b50505050565b90919293945060005260209081600020906000915b85831061590c57505050500190388080806158db565b8054858401529183019181016158f6565b60ff19168452505050811515909102019150388080806158db565b9060405191828154918282526020928383019160005283600020936000905b82821061596d5750505061541f9250038361522c565b85546001600160a01b031684526001958601958895509381019390910190615957565b1561599757565b60405162461bcd60e51b815260206004820152603c60248201527f48616e79612061646d696e2052532079616e6720616b7469662079616e67206460448201527f61706174206d656e6a616c616e6b616e2066756e67736920696e692e000000006064820152608490fd5b15615a0957565b60405162461bcd60e51b815260206004820152601760248201527f446f6b74657220746964616b207465726461667461722e0000000000000000006044820152606490fd5b15615a5557565b60405162461bcd60e51b815260206004820152602f60248201527f446f6b74657220696e6920746964616b2074657264616674617220646920727560448201526e36b0b41039b0b5b4ba1020b732309760891b6064820152608490fd5b15615ab957565b60405162461bcd60e51b815260206004820152601760248201527f446f6b74657220746964616b20646974656d756b616e2e0000000000000000006044820152606490fd5b15615b0557565b60405162461bcd60e51b815260206004820152601d60248201527f49442050617369656e20746964616b20626f6c6568206b6f736f6e672e0000006044820152606490fd5b15615b5157565b60405162461bcd60e51b815260206004820152601a60248201527f49442050617369656e20737564616820646967756e616b616e2e0000000000006044820152606490fd5b93615bb360409492615620949897986060885260608801916157fc565b9185830360208701526157fc565b15615bc857565b60405162461bcd60e51b815260206004820152601760248201527f50617369656e20746964616b20646974656d756b616e2e0000000000000000006044820152606490fd5b15615c1457565b60405162461bcd60e51b815260206004820152601760248201527f50617369656e20746964616b207465726461667461722e0000000000000000006044820152606490fd5b60001981146104da5760010190565b6001600160a01b03908116600090815260046020819052604082200180549390915b848110615c9b575050505050600090565b83615ca682856151c2565b9190548185169260031b1c1614615cc557615cc090615c59565b615c8a565b5050505050600190565b600080546001600160a01b0392831692168214615e065781815260ff602092600184526040928391615d03838320546153a7565b615db45780825260058652838383205416615d6657815260088552205416615d4657662ab735b737bbb760c91b905191615d3c83615211565b6007835282015290565b652830b9b4b2b760d11b905191615d5c83615211565b6006835282015290565b506004855220600301541615615d8c57652237b5ba32b960d11b905191615d5c83615211565b6d24b730b1ba34bb32a237b5ba32b960911b905191615daa83615211565b600e835282015290565b8152600180865291902001541615615ddd576641646d696e525360c81b905191615d3c83615211565b6e496e61637469766541646d696e525360881b905191615dfc83615211565b600f835282015290565b5050604051615e1481615211565b600a81526929bab832b920b236b4b760b11b60208201529056fea2646970667358221220d0691a73ad0e2c50ff243d358d3a13aeb3b7cefc215f41501a55146898ddf90064736f6c63430008130033",
  "immutableReferences": {},
  "source": "// SPDX-License-Identifier: MIT\r\npragma solidity ^0.8.0;\r\n\r\ncontract RekamMedisRS {\r\n    address public superAdmin;\r\n\r\n    struct AdminRS {\r\n        string namaRumahSakit;\r\n        bool aktif;\r\n        string alamatRumahSakit;\r\n        string kota;\r\n        string NIBRS;\r\n    }\r\n    mapping(address => AdminRS) public dataAdmin;\r\n    mapping(string => bool) public isNIBRSUsed;\r\n    address[] public daftarAdmin;\r\n\r\n    struct Dokter {\r\n        string nama;\r\n        string spesialisasi;\r\n        string nomorLisensi;\r\n        bool aktif;\r\n        address[] assignedPasien;\r\n        address adminRS;\r\n    }\r\n    mapping(address => Dokter) public dataDokter;\r\n    mapping(address => bool) public isDokter;\r\n    address[] public daftarDokter;\r\n\r\n    struct Pasien {\r\n        string nama;\r\n        string ID;\r\n        string golonganDarah;\r\n        string tanggalLahir;\r\n        string gender;\r\n        string alamat;\r\n        string noTelepon;\r\n        string email;\r\n        address rumahSakitPenanggungJawab;\r\n    }\r\n    mapping(address => Pasien) public dataPasien;\r\n    mapping(address => bool) public isPasien;\r\n    mapping(string => bool) public isPatientIDUsed;\r\n    address[] public daftarPasien;\r\n\r\n    struct RekamMedisData {\r\n        uint id;\r\n        address pasien;\r\n        string diagnosa;\r\n        string foto;\r\n        string catatan;\r\n        address pembuat;\r\n        uint256 timestampPembuatan;\r\n        string tipeRekamMedis;\r\n    }\r\n    mapping(uint => RekamMedisData) public rekamMedis;\r\n    mapping(address => uint[]) public rekamMedisByPasien;\r\n    uint public rekamMedisCount;\r\n\r\n    event AdminRSTerdaftar(\r\n        address indexed admin,\r\n        string namaRumahSakit,\r\n        string alamatRumahSakit,\r\n        string kota,\r\n        string NIBRS\r\n    );\r\n    event AdminRSStatusDiubah(address indexed admin, bool aktif);\r\n\r\n    event AdminRSInfoDiperbarui(\r\n        address indexed admin,\r\n        string namaRumahSakit,\r\n        string alamatRumahSakit,\r\n        string kota,\r\n        string NIBRS\r\n    );\r\n\r\n    event DokterTerdaftar(address indexed dokter, string nama, address adminRS);\r\n    event DokterStatusDiubah(address indexed dokter, bool aktif);\r\n    event DokterInfoDiperbarui(\r\n        address indexed dokter,\r\n        string nama,\r\n        string spesialisasi,\r\n        string nomorLisensi,\r\n        address indexed adminRS\r\n    );\r\n    event PasienTerdaftar(\r\n        address indexed pasien,\r\n        string nama,\r\n        string IDPasien,\r\n        address adminRS\r\n    );\r\n    event PasienPindahRS(\r\n        address indexed pasien,\r\n        address oldAdminRS,\r\n        address newAdminRS\r\n    );\r\n    event PasienDiassignKeDokter(address dokter, address pasien);\r\n    event PasienDiunassignDariDokter(address dokter, address pasien);\r\n\r\n    event RekamMedisDitambahkan(\r\n        uint id,\r\n        address pasien,\r\n        string diagnosa,\r\n        string foto,\r\n        string catatan,\r\n        string tipeRekamMedis,\r\n        address pembuat,\r\n        uint timestamp\r\n    );\r\n\r\n    event PasienDataDiperbarui(\r\n        address indexed pasien,\r\n        string nama,\r\n        string golonganDarah,\r\n        string tanggalLahir,\r\n        string gender,\r\n        string alamat,\r\n        string noTelepon,\r\n        string email\r\n    );\r\n\r\n    constructor() {\r\n        superAdmin = 0xB0dC0Bf642d339517438017Fc185Bb0f758A01D2;\r\n    }\r\n\r\n    modifier hanyaSuperAdmin() {\r\n        require(\r\n            msg.sender == superAdmin,\r\n            \"Hanya super admin yang dapat menjalankan fungsi ini.\"\r\n        );\r\n        _;\r\n    }\r\n\r\n    modifier hanyaAdminRS() {\r\n        require(\r\n            bytes(dataAdmin[msg.sender].namaRumahSakit).length > 0 &&\r\n                dataAdmin[msg.sender].aktif,\r\n            \"Hanya admin RS yang aktif yang dapat menjalankan fungsi ini.\"\r\n        );\r\n        _;\r\n    }\r\n\r\n    modifier hanyaDokterAktif() {\r\n        require(\r\n            isDokter[msg.sender] && dataDokter[msg.sender].aktif,\r\n            \"Hanya dokter yang aktif yang dapat menjalankan fungsi ini.\"\r\n        );\r\n        _;\r\n    }\r\n\r\n    modifier hanyaDokterAktifUntukPasien(address _pasien) {\r\n        require(\r\n            isDokter[msg.sender] && dataDokter[msg.sender].aktif,\r\n            \"Hanya dokter aktif.\"\r\n        );\r\n        require(isPasien[_pasien], \"Pasien tidak terdaftar.\");\r\n        require(\r\n            dataDokter[msg.sender].adminRS ==\r\n                dataPasien[_pasien].rumahSakitPenanggungJawab,\r\n            \"Dokter dan pasien tidak berada di rumah sakit yang sama.\"\r\n        );\r\n        bool assigned = false;\r\n        address[] storage listPasienDitugaskan = dataDokter[msg.sender]\r\n            .assignedPasien;\r\n        for (uint i = 0; i < listPasienDitugaskan.length; i++) {\r\n            if (listPasienDitugaskan[i] == _pasien) {\r\n                assigned = true;\r\n                break;\r\n            }\r\n        }\r\n        require(\r\n            assigned,\r\n            \"Dokter ini tidak ditugaskan untuk menangani pasien tersebut.\"\r\n        );\r\n        _;\r\n    }\r\n\r\n    modifier hanyaPasien(address _pasien) {\r\n        require(\r\n            msg.sender == _pasien,\r\n            \"Hanya pasien yang bersangkutan yang dapat menjalankan fungsi ini.\"\r\n        );\r\n        _;\r\n    }\r\n\r\n    function registerAdminRS(\r\n        address _admin,\r\n        string calldata _namaRS,\r\n        string calldata _alamatRS,\r\n        string calldata _kotaRS,\r\n        string calldata _NIBRS\r\n    ) external hanyaSuperAdmin {\r\n        require(\r\n            bytes(dataAdmin[_admin].namaRumahSakit).length == 0,\r\n            \"Admin RS sudah terdaftar dengan alamat ini.\"\r\n        );\r\n        require(\r\n            bytes(_namaRS).length > 0,\r\n            \"Nama Rumah Sakit tidak boleh kosong.\"\r\n        );\r\n        require(bytes(_NIBRS).length > 0, \"NIBRS tidak boleh kosong.\");\r\n        require(\r\n            !isNIBRSUsed[_NIBRS],\r\n            \"NIBRS sudah digunakan oleh Admin RS lain.\"\r\n        );\r\n\r\n        dataAdmin[_admin] = AdminRS({\r\n            namaRumahSakit: _namaRS,\r\n            aktif: true,\r\n            alamatRumahSakit: _alamatRS,\r\n            kota: _kotaRS,\r\n            NIBRS: _NIBRS\r\n        });\r\n        daftarAdmin.push(_admin);\r\n        isNIBRSUsed[_NIBRS] = true;\r\n\r\n        emit AdminRSTerdaftar(_admin, _namaRS, _alamatRS, _kotaRS, _NIBRS);\r\n    }\r\n\r\n    function updateAdminRSDetails(\r\n        address _admin,\r\n        string calldata _namaBaru,\r\n        string calldata _alamatBaru,\r\n        string calldata _kotaBaru,\r\n        string calldata _NIBRSBaru\r\n    ) external hanyaSuperAdmin {\r\n        require(\r\n            bytes(dataAdmin[_admin].namaRumahSakit).length != 0,\r\n            \"Admin RS tidak ditemukan.\"\r\n        );\r\n        require(\r\n            bytes(_namaBaru).length > 0,\r\n            \"Nama Rumah Sakit baru tidak boleh kosong.\"\r\n        );\r\n        require(bytes(_NIBRSBaru).length > 0, \"NIBRS baru tidak boleh kosong.\");\r\n\r\n        if (\r\n            keccak256(abi.encodePacked(dataAdmin[_admin].NIBRS)) !=\r\n            keccak256(abi.encodePacked(_NIBRSBaru))\r\n        ) {\r\n            require(\r\n                !isNIBRSUsed[_NIBRSBaru],\r\n                \"NIBRS baru sudah digunakan oleh Admin RS lain.\"\r\n            );\r\n            if (bytes(dataAdmin[_admin].NIBRS).length > 0) {\r\n                isNIBRSUsed[dataAdmin[_admin].NIBRS] = false;\r\n            }\r\n            isNIBRSUsed[_NIBRSBaru] = true;\r\n        }\r\n\r\n        AdminRS storage adminToUpdate = dataAdmin[_admin];\r\n        adminToUpdate.namaRumahSakit = _namaBaru;\r\n        adminToUpdate.alamatRumahSakit = _alamatBaru;\r\n        adminToUpdate.kota = _kotaBaru;\r\n        adminToUpdate.NIBRS = _NIBRSBaru;\r\n\r\n        emit AdminRSInfoDiperbarui(\r\n            _admin,\r\n            _namaBaru,\r\n            _alamatBaru,\r\n            _kotaBaru,\r\n            _NIBRSBaru\r\n        );\r\n    }\r\n\r\n    function setStatusAdminRS(\r\n        address _admin,\r\n        bool _aktif\r\n    ) external hanyaSuperAdmin {\r\n        require(\r\n            bytes(dataAdmin[_admin].namaRumahSakit).length != 0,\r\n            \"Admin RS tidak ditemukan.\"\r\n        );\r\n        dataAdmin[_admin].aktif = _aktif;\r\n        emit AdminRSStatusDiubah(_admin, _aktif);\r\n    }\r\n\r\n    function getAllAdminRSAddresses() external view returns (address[] memory) {\r\n        return daftarAdmin;\r\n    }\r\n\r\n    function totalAdmin() external view returns (uint) {\r\n        return daftarAdmin.length;\r\n    }\r\n\r\n    function getAdminByIndex(uint idx) external view returns (address) {\r\n        require(idx < daftarAdmin.length, \"Indeks admin RS tidak valid.\");\r\n        return daftarAdmin[idx];\r\n    }\r\n\r\n    function getAdminRS(\r\n        address _admin\r\n    )\r\n        external\r\n        view\r\n        returns (\r\n            string memory namaRumahSakit,\r\n            bool aktif,\r\n            string memory alamatRumahSakit,\r\n            string memory kota,\r\n            string memory NIBRS\r\n        )\r\n    {\r\n        require(\r\n            bytes(dataAdmin[_admin].namaRumahSakit).length > 0,\r\n            \"Admin RS tidak ditemukan.\"\r\n        );\r\n        AdminRS storage adminData = dataAdmin[_admin];\r\n        return (\r\n            adminData.namaRumahSakit,\r\n            adminData.aktif,\r\n            adminData.alamatRumahSakit,\r\n            adminData.kota,\r\n            adminData.NIBRS\r\n        );\r\n    }\r\n\r\n    function registerDokter(\r\n        address _dokter,\r\n        string calldata _nama,\r\n        string calldata _spesialisasi,\r\n        string calldata _nomorLisensi\r\n    ) external hanyaAdminRS {\r\n        require(\r\n            !isDokter[_dokter],\r\n            \"Alamat ini sudah terdaftar sebagai dokter.\"\r\n        );\r\n        require(\r\n            !isPasien[_dokter],\r\n            \"Alamat ini terdaftar sebagai pasien, tidak bisa menjadi dokter.\"\r\n        );\r\n        isDokter[_dokter] = true;\r\n        dataDokter[_dokter] = Dokter({\r\n            nama: _nama,\r\n            spesialisasi: _spesialisasi,\r\n            nomorLisensi: _nomorLisensi,\r\n            aktif: true,\r\n            assignedPasien: new address[](0),\r\n            adminRS: msg.sender\r\n        });\r\n        daftarDokter.push(_dokter);\r\n        emit DokterTerdaftar(_dokter, _nama, msg.sender);\r\n    }\r\n\r\n    function updateDokterInfo(\r\n        address _dokter,\r\n        string calldata _namaBaru,\r\n        string calldata _spesialisasiBaru,\r\n        string calldata _nomorLisensiBaru\r\n    ) external hanyaAdminRS {\r\n        require(isDokter[_dokter], \"Dokter tidak terdaftar di sistem.\");\r\n        require(\r\n            dataDokter[_dokter].adminRS == msg.sender,\r\n            \"Anda bukan admin RS yang berhak untuk dokter ini.\"\r\n        );\r\n\r\n        Dokter storage dokterToUpdate = dataDokter[_dokter];\r\n        dokterToUpdate.nama = _namaBaru;\r\n        dokterToUpdate.spesialisasi = _spesialisasiBaru;\r\n        dokterToUpdate.nomorLisensi = _nomorLisensiBaru;\r\n\r\n        emit DokterInfoDiperbarui(\r\n            _dokter,\r\n            _namaBaru,\r\n            _spesialisasiBaru,\r\n            _nomorLisensiBaru,\r\n            msg.sender\r\n        );\r\n    }\r\n\r\n    function setStatusDokter(\r\n        address _dokter,\r\n        bool _aktif\r\n    ) external hanyaAdminRS {\r\n        require(isDokter[_dokter], \"Dokter tidak terdaftar.\");\r\n        require(\r\n            dataDokter[_dokter].adminRS == msg.sender,\r\n            \"Dokter ini tidak terdaftar di rumah sakit Anda.\"\r\n        );\r\n        dataDokter[_dokter].aktif = _aktif;\r\n        emit DokterStatusDiubah(_dokter, _aktif);\r\n    }\r\n\r\n    function totalDokter() external view returns (uint) {\r\n        return daftarDokter.length;\r\n    }\r\n\r\n    function getDokterByIndex(uint idx) external view returns (address) {\r\n        require(idx < daftarDokter.length, \"Indeks dokter tidak valid.\");\r\n        return daftarDokter[idx];\r\n    }\r\n\r\n    function getDokter(\r\n        address _dokter\r\n    )\r\n        external\r\n        view\r\n        returns (\r\n            string memory nama,\r\n            string memory spesialisasi,\r\n            string memory nomorLisensi,\r\n            bool aktif,\r\n            address[] memory pasienList,\r\n            address adminRS\r\n        )\r\n    {\r\n        require(isDokter[_dokter], \"Dokter tidak ditemukan.\");\r\n        Dokter storage d = dataDokter[_dokter];\r\n        return (\r\n            d.nama,\r\n            d.spesialisasi,\r\n            d.nomorLisensi,\r\n            d.aktif,\r\n            d.assignedPasien,\r\n            d.adminRS\r\n        );\r\n    }\r\n\r\n    function getAssignedPatients(\r\n        address _dokter\r\n    ) external view returns (address[] memory) {\r\n        require(isDokter[_dokter], \"Dokter tidak ditemukan.\");\r\n        return dataDokter[_dokter].assignedPasien;\r\n    }\r\n\r\n    function registerPasien(\r\n        address _pasien,\r\n        string calldata _nama,\r\n        string calldata _IDPasien,\r\n        address _adminRS\r\n    ) external hanyaAdminRS {\r\n        require(\r\n            !isPasien[_pasien],\r\n            \"Pasien sudah terdaftar dengan alamat ini.\"\r\n        );\r\n        require(\r\n            !isDokter[_pasien],\r\n            \"Alamat ini terdaftar sebagai dokter, tidak bisa menjadi pasien.\"\r\n        );\r\n        require(bytes(_IDPasien).length > 0, \"ID Pasien tidak boleh kosong.\");\r\n        require(!isPatientIDUsed[_IDPasien], \"ID Pasien sudah digunakan.\");\r\n\r\n        require(\r\n            dataAdmin[_adminRS].aktif,\r\n            \"Admin RS yang dirujuk tidak aktif.\"\r\n        );\r\n        require(\r\n            msg.sender == _adminRS,\r\n            \"Hanya admin RS penanggung jawab yang bisa mendaftarkan pasien ini.\"\r\n        );\r\n\r\n        isPasien[_pasien] = true;\r\n        dataPasien[_pasien] = Pasien({\r\n            nama: _nama,\r\n            ID: _IDPasien,\r\n            golonganDarah: \"\",\r\n            tanggalLahir: \"\",\r\n            gender: \"\",\r\n            alamat: \"\",\r\n            noTelepon: \"\",\r\n            email: \"\",\r\n            rumahSakitPenanggungJawab: _adminRS\r\n        });\r\n        daftarPasien.push(_pasien);\r\n        isPatientIDUsed[_IDPasien] = true;\r\n        emit PasienTerdaftar(_pasien, _nama, _IDPasien, _adminRS);\r\n    }\r\n\r\n    function selfRegisterPasien(\r\n        string calldata _nama,\r\n        string calldata _IDPasien,\r\n        string calldata _golonganDarah,\r\n        string calldata _tanggalLahir,\r\n        string calldata _gender,\r\n        string calldata _alamat,\r\n        string calldata _noTelepon,\r\n        string calldata _email,\r\n        address _adminRS\r\n    ) external {\r\n        require(!isPasien[msg.sender], \"Anda sudah terdaftar sebagai pasien.\");\r\n        require(!isDokter[msg.sender], \"Alamat ini terdaftar sebagai dokter.\");\r\n        require(bytes(_IDPasien).length > 0, \"ID Pasien tidak boleh kosong.\");\r\n        require(!isPatientIDUsed[_IDPasien], \"ID Pasien sudah digunakan.\");\r\n        require(\r\n            dataAdmin[_adminRS].aktif,\r\n            \"Rumah Sakit yang dipilih tidak aktif atau tidak valid.\"\r\n        );\r\n\r\n        isPasien[msg.sender] = true;\r\n        dataPasien[msg.sender] = Pasien({\r\n            nama: _nama,\r\n            ID: _IDPasien,\r\n            golonganDarah: _golonganDarah,\r\n            tanggalLahir: _tanggalLahir,\r\n            gender: _gender,\r\n            alamat: _alamat,\r\n            noTelepon: _noTelepon,\r\n            email: _email,\r\n            rumahSakitPenanggungJawab: _adminRS\r\n        });\r\n        daftarPasien.push(msg.sender);\r\n        isPatientIDUsed[_IDPasien] = true;\r\n        emit PasienTerdaftar(msg.sender, _nama, _IDPasien, _adminRS);\r\n    }\r\n\r\n    function updatePasienData(\r\n        string calldata _nama,\r\n        string calldata _golonganDarah,\r\n        string calldata _tanggalLahir,\r\n        string calldata _gender,\r\n        string calldata _alamat,\r\n        string calldata _noTelepon,\r\n        string calldata _email\r\n    ) external hanyaPasien(msg.sender) {\r\n        require(isPasien[msg.sender], \"Pasien tidak ditemukan.\");\r\n\r\n        Pasien storage pasienToUpdate = dataPasien[msg.sender];\r\n        pasienToUpdate.nama = _nama;\r\n        pasienToUpdate.golonganDarah = _golonganDarah;\r\n        pasienToUpdate.tanggalLahir = _tanggalLahir;\r\n        pasienToUpdate.gender = _gender;\r\n        pasienToUpdate.alamat = _alamat;\r\n        pasienToUpdate.noTelepon = _noTelepon;\r\n        pasienToUpdate.email = _email;\r\n\r\n        emit PasienDataDiperbarui(\r\n            msg.sender,\r\n            _nama,\r\n            _golonganDarah,\r\n            _tanggalLahir,\r\n            _gender,\r\n            _alamat,\r\n            _noTelepon,\r\n            _email\r\n        );\r\n    }\r\n\r\n    function updatePasienRumahSakit(\r\n        address _newAdminRS\r\n    ) external hanyaPasien(msg.sender) {\r\n        require(isPasien[msg.sender], \"Pasien tidak ditemukan.\");\r\n        require(\r\n            dataAdmin[_newAdminRS].aktif,\r\n            \"Rumah Sakit baru tidak aktif atau tidak valid.\"\r\n        );\r\n        require(\r\n            dataPasien[msg.sender].rumahSakitPenanggungJawab != _newAdminRS,\r\n            \"Anda sudah terdaftar di rumah sakit ini.\"\r\n        );\r\n\r\n        address oldAdminRS = dataPasien[msg.sender].rumahSakitPenanggungJawab;\r\n        dataPasien[msg.sender].rumahSakitPenanggungJawab = _newAdminRS;\r\n\r\n        emit PasienPindahRS(msg.sender, oldAdminRS, _newAdminRS);\r\n    }\r\n\r\n    function getDaftarPasien() external view returns (address[] memory) {\r\n        return daftarPasien;\r\n    }\r\n\r\n    function getPasienData(\r\n        address _pasien\r\n    )\r\n        external\r\n        view\r\n        returns (\r\n            string memory nama,\r\n            string memory ID,\r\n            string memory golonganDarah,\r\n            string memory tanggalLahir,\r\n            string memory gender,\r\n            string memory alamat,\r\n            string memory noTelepon,\r\n            string memory email,\r\n            address rumahSakitPenanggungJawab\r\n        )\r\n    {\r\n        require(isPasien[_pasien], \"Pasien tidak ditemukan.\");\r\n        Pasien storage p = dataPasien[_pasien];\r\n        return (\r\n            p.nama,\r\n            p.ID,\r\n            p.golonganDarah,\r\n            p.tanggalLahir,\r\n            p.gender,\r\n            p.alamat,\r\n            p.noTelepon,\r\n            p.email,\r\n            p.rumahSakitPenanggungJawab\r\n        );\r\n    }\r\n\r\n    function assignPasienToDokter(\r\n        address _dokter,\r\n        address _pasien\r\n    ) external hanyaAdminRS {\r\n        require(isDokter[_dokter], \"Dokter tidak terdaftar.\");\r\n        require(\r\n            dataDokter[_dokter].adminRS == msg.sender,\r\n            \"Dokter ini tidak terdaftar di rumah sakit Anda.\"\r\n        );\r\n        require(isPasien[_pasien], \"Pasien tidak terdaftar.\");\r\n\r\n        require(\r\n            (dataPasien[_pasien].rumahSakitPenanggungJawab == msg.sender ||\r\n                dataPasien[_pasien].rumahSakitPenanggungJawab == address(0)),\r\n            \"Pasien ini tidak terdaftar di rumah sakit Anda atau sudah di-assign ke RS lain.\"\r\n        );\r\n\r\n        if (dataPasien[_pasien].rumahSakitPenanggungJawab == address(0)) {\r\n            dataPasien[_pasien].rumahSakitPenanggungJawab = msg.sender;\r\n        }\r\n\r\n        bool alreadyAssigned = false;\r\n        address[] storage listPasienDitugaskan = dataDokter[_dokter]\r\n            .assignedPasien;\r\n        for (uint i = 0; i < listPasienDitugaskan.length; i++) {\r\n            if (listPasienDitugaskan[i] == _pasien) {\r\n                alreadyAssigned = true;\r\n                break;\r\n            }\r\n        }\r\n        require(\r\n            !alreadyAssigned,\r\n            \"Pasien ini sudah ditugaskan ke dokter tersebut.\"\r\n        );\r\n\r\n        listPasienDitugaskan.push(_pasien);\r\n        emit PasienDiassignKeDokter(_dokter, _pasien);\r\n    }\r\n\r\n    function unassignPasienFromDokter(\r\n        address _dokter,\r\n        address _pasien\r\n    ) external hanyaAdminRS {\r\n        require(isDokter[_dokter], \"Dokter tidak terdaftar.\");\r\n        require(\r\n            dataDokter[_dokter].adminRS == msg.sender,\r\n            \"Dokter ini tidak terdaftar di rumah sakit Anda.\"\r\n        );\r\n        require(isPasien[_pasien], \"Pasien tidak terdaftar.\");\r\n        require(\r\n            dataPasien[_pasien].rumahSakitPenanggungJawab == msg.sender,\r\n            \"Pasien ini tidak terdaftar di rumah sakit Anda.\"\r\n        );\r\n\r\n        bool found = false;\r\n        address[] storage listPasienDitugaskan = dataDokter[_dokter]\r\n            .assignedPasien;\r\n        for (uint i = 0; i < listPasienDitugaskan.length; i++) {\r\n            if (listPasienDitugaskan[i] == _pasien) {\r\n                listPasienDitugaskan[i] = listPasienDitugaskan[\r\n                    listPasienDitugaskan.length - 1\r\n                ];\r\n                listPasienDitugaskan.pop();\r\n                found = true;\r\n                break;\r\n            }\r\n        }\r\n        require(found, \"Pasien tidak ditugaskan ke dokter ini.\");\r\n        emit PasienDiunassignDariDokter(_dokter, _pasien);\r\n    }\r\n\r\n    function isAssigned(\r\n        address _dokter,\r\n        address _pasien\r\n    ) internal view returns (bool) {\r\n        address[] storage list = dataDokter[_dokter].assignedPasien;\r\n        for (uint i = 0; i < list.length; i++) {\r\n            if (list[i] == _pasien) {\r\n                return true;\r\n            }\r\n        }\r\n        return false;\r\n    }\r\n\r\n    function tambahRekamMedis(\r\n        address _pasien,\r\n        string calldata _diagnosa,\r\n        string calldata _foto,\r\n        string calldata _catatan,\r\n        string calldata _tipeRekamMedis\r\n    ) external {\r\n        bool isValidActor = false;\r\n        if (msg.sender == _pasien && isPasien[msg.sender]) {\r\n            isValidActor = true;\r\n        } else if (isDokter[msg.sender] && dataDokter[msg.sender].aktif) {\r\n            if (\r\n                isPasien[_pasien] &&\r\n                dataDokter[msg.sender].adminRS ==\r\n                dataPasien[_pasien].rumahSakitPenanggungJawab &&\r\n                isAssigned(msg.sender, _pasien)\r\n            ) {\r\n                isValidActor = true;\r\n            }\r\n        }\r\n        require(\r\n            isValidActor,\r\n            \"Aktor tidak berhak menambah rekam medis untuk pasien ini.\"\r\n        );\r\n        require(isPasien[_pasien], \"Pasien tidak terdaftar.\");\r\n\r\n        rekamMedisCount++;\r\n        uint newId = rekamMedisCount;\r\n        rekamMedis[newId] = RekamMedisData({\r\n            id: newId,\r\n            pasien: _pasien,\r\n            diagnosa: _diagnosa,\r\n            foto: _foto,\r\n            catatan: _catatan,\r\n            pembuat: msg.sender,\r\n            timestampPembuatan: block.timestamp,\r\n            tipeRekamMedis: _tipeRekamMedis\r\n        });\r\n        rekamMedisByPasien[_pasien].push(newId);\r\n\r\n        emit RekamMedisDitambahkan(\r\n            newId,\r\n            _pasien,\r\n            _diagnosa,\r\n            _foto,\r\n            _catatan,\r\n            _tipeRekamMedis,\r\n            msg.sender,\r\n            block.timestamp\r\n        );\r\n    }\r\n\r\n    function getRekamMedisIdsByPasien(\r\n        address _pasien\r\n    ) external view returns (uint[] memory) {\r\n        require(isPasien[_pasien], \"Pasien tidak ditemukan.\");\r\n        return rekamMedisByPasien[_pasien];\r\n    }\r\n\r\n    function getRekamMedis(\r\n        uint _id\r\n    )\r\n        external\r\n        view\r\n        returns (\r\n            uint id,\r\n            address pasien,\r\n            string memory diagnosa,\r\n            string memory foto,\r\n            string memory catatan,\r\n            address pembuat,\r\n            uint256 timestampPembuatan,\r\n            string memory tipeRekamMedis\r\n        )\r\n    {\r\n        require(\r\n            rekamMedis[_id].pasien != address(0),\r\n            \"Rekam medis tidak ditemukan.\"\r\n        );\r\n        RekamMedisData storage r = rekamMedis[_id];\r\n        return (\r\n            r.id,\r\n            r.pasien,\r\n            r.diagnosa,\r\n            r.foto,\r\n            r.catatan,\r\n            r.pembuat,\r\n            r.timestampPembuatan,\r\n            r.tipeRekamMedis\r\n        );\r\n    }\r\n\r\n    function setSuperAdmin(address _newAdmin) external hanyaSuperAdmin {\r\n        require(\r\n            _newAdmin != address(0),\r\n            \"Alamat super admin baru tidak valid.\"\r\n        );\r\n        superAdmin = _newAdmin;\r\n    }\r\n\r\n    function getUserRole(address _user) public view returns (string memory) {\r\n        if (_user == superAdmin) return \"SuperAdmin\";\r\n\r\n        if (bytes(dataAdmin[_user].namaRumahSakit).length > 0) {\r\n            if (dataAdmin[_user].aktif) {\r\n                return \"AdminRS\";\r\n            } else {\r\n                return \"InactiveAdminRS\";\r\n            }\r\n        }\r\n\r\n        if (isDokter[_user]) {\r\n            if (dataDokter[_user].aktif) {\r\n                return \"Dokter\";\r\n            } else {\r\n                return \"InactiveDokter\";\r\n            }\r\n        }\r\n\r\n        if (isPasien[_user]) return \"Pasien\";\r\n\r\n        return \"Unknown\";\r\n    }\r\n}\r\n",
  "sourcePath": "D:\\TA\\rekam_medis_backend\\contracts\\RekamMedisRS.sol",
  "compiler": {
    "name": "solc",
    "version": "0.8.19+commit.7dd6d404.Emscripten.clang"
  },
  "schemaVersion": "3.4.16",
  "updatedAt": "2025-07-01T17:49:40.983Z",
  "networkType": "ethereum",
  "devdoc": {
    "kind": "dev",
    "methods": {},
    "version": 1
  },
  "userdoc": {
    "kind": "user",
    "methods": {},
    "version": 1
  }
}