{
  "contractName": "RekamMedisRS",
  "abi": [
    {
      "inputs": [],
      "stateMutability": "nonpayable",
      "type": "constructor"
    },
    {
      "anonymous": false,
      "inputs": [
        {
          "indexed": true,
          "internalType": "address",
          "name": "admin",
          "type": "address"
        },
        {
          "indexed": false,
          "internalType": "string",
          "name": "namaRumahSakit",
          "type": "string"
        },
        {
          "indexed": false,
          "internalType": "string",
          "name": "alamatRumahSakit",
          "type": "string"
        },
        {
          "indexed": false,
          "internalType": "string",
          "name": "kota",
          "type": "string"
        },
        {
          "indexed": false,
          "internalType": "string",
          "name": "NIBRS",
          "type": "string"
        }
      ],
      "name": "AdminRSInfoDiperbarui",
      "type": "event"
    },
    {
      "anonymous": false,
      "inputs": [
        {
          "indexed": true,
          "internalType": "address",
          "name": "admin",
          "type": "address"
        },
        {
          "indexed": false,
          "internalType": "bool",
          "name": "aktif",
          "type": "bool"
        }
      ],
      "name": "AdminRSStatusDiubah",
      "type": "event"
    },
    {
      "anonymous": false,
      "inputs": [
        {
          "indexed": true,
          "internalType": "address",
          "name": "admin",
          "type": "address"
        },
        {
          "indexed": false,
          "internalType": "string",
          "name": "namaRumahSakit",
          "type": "string"
        },
        {
          "indexed": false,
          "internalType": "string",
          "name": "alamatRumahSakit",
          "type": "string"
        },
        {
          "indexed": false,
          "internalType": "string",
          "name": "kota",
          "type": "string"
        },
        {
          "indexed": false,
          "internalType": "string",
          "name": "NIBRS",
          "type": "string"
        }
      ],
      "name": "AdminRSTerdaftar",
      "type": "event"
    },
    {
      "anonymous": false,
      "inputs": [
        {
          "indexed": true,
          "internalType": "address",
          "name": "dokter",
          "type": "address"
        },
        {
          "indexed": false,
          "internalType": "string",
          "name": "nama",
          "type": "string"
        },
        {
          "indexed": false,
          "internalType": "string",
          "name": "spesialisasi",
          "type": "string"
        },
        {
          "indexed": false,
          "internalType": "string",
          "name": "nomorLisensi",
          "type": "string"
        },
        {
          "indexed": true,
          "internalType": "address",
          "name": "adminRS",
          "type": "address"
        }
      ],
      "name": "DokterInfoDiperbarui",
      "type": "event"
    },
    {
      "anonymous": false,
      "inputs": [
        {
          "indexed": true,
          "internalType": "address",
          "name": "dokter",
          "type": "address"
        },
        {
          "indexed": false,
          "internalType": "bool",
          "name": "aktif",
          "type": "bool"
        }
      ],
      "name": "DokterStatusDiubah",
      "type": "event"
    },
    {
      "anonymous": false,
      "inputs": [
        {
          "indexed": true,
          "internalType": "address",
          "name": "dokter",
          "type": "address"
        },
        {
          "indexed": false,
          "internalType": "string",
          "name": "nama",
          "type": "string"
        },
        {
          "indexed": false,
          "internalType": "address",
          "name": "adminRS",
          "type": "address"
        }
      ],
      "name": "DokterTerdaftar",
      "type": "event"
    },
    {
      "anonymous": false,
      "inputs": [
        {
          "indexed": true,
          "internalType": "address",
          "name": "pasien",
          "type": "address"
        },
        {
          "indexed": false,
          "internalType": "string",
          "name": "nama",
          "type": "string"
        },
        {
          "indexed": false,
          "internalType": "string",
          "name": "golonganDarah",
          "type": "string"
        },
        {
          "indexed": false,
          "internalType": "string",
          "name": "tanggalLahir",
          "type": "string"
        },
        {
          "indexed": false,
          "internalType": "string",
          "name": "gender",
          "type": "string"
        },
        {
          "indexed": false,
          "internalType": "string",
          "name": "alamat",
          "type": "string"
        },
        {
          "indexed": false,
          "internalType": "string",
          "name": "noTelepon",
          "type": "string"
        },
        {
          "indexed": false,
          "internalType": "string",
          "name": "email",
          "type": "string"
        }
      ],
      "name": "PasienDataDiperbarui",
      "type": "event"
    },
    {
      "anonymous": false,
      "inputs": [
        {
          "indexed": false,
          "internalType": "address",
          "name": "dokter",
          "type": "address"
        },
        {
          "indexed": false,
          "internalType": "address",
          "name": "pasien",
          "type": "address"
        }
      ],
      "name": "PasienDiassignKeDokter",
      "type": "event"
    },
    {
      "anonymous": false,
      "inputs": [
        {
          "indexed": false,
          "internalType": "address",
          "name": "dokter",
          "type": "address"
        },
        {
          "indexed": false,
          "internalType": "address",
          "name": "pasien",
          "type": "address"
        }
      ],
      "name": "PasienDiunassignDariDokter",
      "type": "event"
    },
    {
      "anonymous": false,
      "inputs": [
        {
          "indexed": true,
          "internalType": "address",
          "name": "pasien",
          "type": "address"
        },
        {
          "indexed": false,
          "internalType": "address",
          "name": "oldAdminRS",
          "type": "address"
        },
        {
          "indexed": false,
          "internalType": "address",
          "name": "newAdminRS",
          "type": "address"
        }
      ],
      "name": "PasienPindahRS",
      "type": "event"
    },
    {
      "anonymous": false,
      "inputs": [
        {
          "indexed": true,
          "internalType": "address",
          "name": "pasien",
          "type": "address"
        },
        {
          "indexed": false,
          "internalType": "string",
          "name": "nama",
          "type": "string"
        },
        {
          "indexed": false,
          "internalType": "string",
          "name": "IDPasien",
          "type": "string"
        },
        {
          "indexed": false,
          "internalType": "address",
          "name": "adminRS",
          "type": "address"
        }
      ],
      "name": "PasienTerdaftar",
      "type": "event"
    },
    {
      "anonymous": false,
      "inputs": [
        {
          "indexed": false,
          "internalType": "uint256",
          "name": "id",
          "type": "uint256"
        },
        {
          "indexed": false,
          "internalType": "address",
          "name": "pasien",
          "type": "address"
        },
        {
          "indexed": false,
          "internalType": "string",
          "name": "diagnosa",
          "type": "string"
        },
        {
          "indexed": false,
          "internalType": "string",
          "name": "foto",
          "type": "string"
        },
        {
          "indexed": false,
          "internalType": "string",
          "name": "catatan",
          "type": "string"
        },
        {
          "indexed": false,
          "internalType": "string",
          "name": "tipeRekamMedis",
          "type": "string"
        },
        {
          "indexed": false,
          "internalType": "address",
          "name": "pembuat",
          "type": "address"
        },
        {
          "indexed": false,
          "internalType": "uint256",
          "name": "timestamp",
          "type": "uint256"
        }
      ],
      "name": "RekamMedisDitambahkan",
      "type": "event"
    },
    {
      "inputs": [
        {
          "internalType": "uint256",
          "name": "",
          "type": "uint256"
        }
      ],
      "name": "daftarAdmin",
      "outputs": [
        {
          "internalType": "address",
          "name": "",
          "type": "address"
        }
      ],
      "stateMutability": "view",
      "type": "function",
      "constant": true
    },
    {
      "inputs": [
        {
          "internalType": "uint256",
          "name": "",
          "type": "uint256"
        }
      ],
      "name": "daftarDokter",
      "outputs": [
        {
          "internalType": "address",
          "name": "",
          "type": "address"
        }
      ],
      "stateMutability": "view",
      "type": "function",
      "constant": true
    },
    {
      "inputs": [
        {
          "internalType": "uint256",
          "name": "",
          "type": "uint256"
        }
      ],
      "name": "daftarPasien",
      "outputs": [
        {
          "internalType": "address",
          "name": "",
          "type": "address"
        }
      ],
      "stateMutability": "view",
      "type": "function",
      "constant": true
    },
    {
      "inputs": [
        {
          "internalType": "address",
          "name": "",
          "type": "address"
        }
      ],
      "name": "dataAdmin",
      "outputs": [
        {
          "internalType": "string",
          "name": "namaRumahSakit",
          "type": "string"
        },
        {
          "internalType": "bool",
          "name": "aktif",
          "type": "bool"
        },
        {
          "internalType": "string",
          "name": "alamatRumahSakit",
          "type": "string"
        },
        {
          "internalType": "string",
          "name": "kota",
          "type": "string"
        },
        {
          "internalType": "string",
          "name": "NIBRS",
          "type": "string"
        }
      ],
      "stateMutability": "view",
      "type": "function",
      "constant": true
    },
    {
      "inputs": [
        {
          "internalType": "address",
          "name": "",
          "type": "address"
        }
      ],
      "name": "dataDokter",
      "outputs": [
        {
          "internalType": "string",
          "name": "nama",
          "type": "string"
        },
        {
          "internalType": "string",
          "name": "spesialisasi",
          "type": "string"
        },
        {
          "internalType": "string",
          "name": "nomorLisensi",
          "type": "string"
        },
        {
          "internalType": "bool",
          "name": "aktif",
          "type": "bool"
        },
        {
          "internalType": "address",
          "name": "adminRS",
          "type": "address"
        }
      ],
      "stateMutability": "view",
      "type": "function",
      "constant": true
    },
    {
      "inputs": [
        {
          "internalType": "address",
          "name": "",
          "type": "address"
        }
      ],
      "name": "dataPasien",
      "outputs": [
        {
          "internalType": "string",
          "name": "nama",
          "type": "string"
        },
        {
          "internalType": "string",
          "name": "ID",
          "type": "string"
        },
        {
          "internalType": "string",
          "name": "golonganDarah",
          "type": "string"
        },
        {
          "internalType": "string",
          "name": "tanggalLahir",
          "type": "string"
        },
        {
          "internalType": "string",
          "name": "gender",
          "type": "string"
        },
        {
          "internalType": "string",
          "name": "alamat",
          "type": "string"
        },
        {
          "internalType": "string",
          "name": "noTelepon",
          "type": "string"
        },
        {
          "internalType": "string",
          "name": "email",
          "type": "string"
        },
        {
          "internalType": "address",
          "name": "rumahSakitPenanggungJawab",
          "type": "address"
        }
      ],
      "stateMutability": "view",
      "type": "function",
      "constant": true
    },
    {
      "inputs": [
        {
          "internalType": "address",
          "name": "",
          "type": "address"
        }
      ],
      "name": "isDokter",
      "outputs": [
        {
          "internalType": "bool",
          "name": "",
          "type": "bool"
        }
      ],
      "stateMutability": "view",
      "type": "function",
      "constant": true
    },
    {
      "inputs": [
        {
          "internalType": "string",
          "name": "",
          "type": "string"
        }
      ],
      "name": "isNIBRSUsed",
      "outputs": [
        {
          "internalType": "bool",
          "name": "",
          "type": "bool"
        }
      ],
      "stateMutability": "view",
      "type": "function",
      "constant": true
    },
    {
      "inputs": [
        {
          "internalType": "address",
          "name": "",
          "type": "address"
        }
      ],
      "name": "isPasien",
      "outputs": [
        {
          "internalType": "bool",
          "name": "",
          "type": "bool"
        }
      ],
      "stateMutability": "view",
      "type": "function",
      "constant": true
    },
    {
      "inputs": [
        {
          "internalType": "string",
          "name": "",
          "type": "string"
        }
      ],
      "name": "isPatientIDUsed",
      "outputs": [
        {
          "internalType": "bool",
          "name": "",
          "type": "bool"
        }
      ],
      "stateMutability": "view",
      "type": "function",
      "constant": true
    },
    {
      "inputs": [
        {
          "internalType": "uint256",
          "name": "",
          "type": "uint256"
        }
      ],
      "name": "rekamMedis",
      "outputs": [
        {
          "internalType": "uint256",
          "name": "id",
          "type": "uint256"
        },
        {
          "internalType": "address",
          "name": "pasien",
          "type": "address"
        },
        {
          "internalType": "string",
          "name": "diagnosa",
          "type": "string"
        },
        {
          "internalType": "string",
          "name": "foto",
          "type": "string"
        },
        {
          "internalType": "string",
          "name": "catatan",
          "type": "string"
        },
        {
          "internalType": "address",
          "name": "pembuat",
          "type": "address"
        },
        {
          "internalType": "uint256",
          "name": "timestampPembuatan",
          "type": "uint256"
        },
        {
          "internalType": "string",
          "name": "tipeRekamMedis",
          "type": "string"
        }
      ],
      "stateMutability": "view",
      "type": "function",
      "constant": true
    },
    {
      "inputs": [
        {
          "internalType": "address",
          "name": "",
          "type": "address"
        },
        {
          "internalType": "uint256",
          "name": "",
          "type": "uint256"
        }
      ],
      "name": "rekamMedisByPasien",
      "outputs": [
        {
          "internalType": "uint256",
          "name": "",
          "type": "uint256"
        }
      ],
      "stateMutability": "view",
      "type": "function",
      "constant": true
    },
    {
      "inputs": [],
      "name": "rekamMedisCount",
      "outputs": [
        {
          "internalType": "uint256",
          "name": "",
          "type": "uint256"
        }
      ],
      "stateMutability": "view",
      "type": "function",
      "constant": true
    },
    {
      "inputs": [
        {
          "internalType": "address",
          "name": "_admin",
          "type": "address"
        },
        {
          "internalType": "string",
          "name": "_namaBaru",
          "type": "string"
        },
        {
          "internalType": "string",
          "name": "_alamatBaru",
          "type": "string"
        },
        {
          "internalType": "string",
          "name": "_kotaBaru",
          "type": "string"
        },
        {
          "internalType": "string",
          "name": "_NIBRSBaru",
          "type": "string"
        }
      ],
      "name": "updateAdminRSDetails",
      "outputs": [],
      "stateMutability": "nonpayable",
      "type": "function"
    },
    {
      "inputs": [
        {
          "internalType": "address",
          "name": "_admin",
          "type": "address"
        },
        {
          "internalType": "bool",
          "name": "_aktif",
          "type": "bool"
        }
      ],
      "name": "setStatusAdminRS",
      "outputs": [],
      "stateMutability": "nonpayable",
      "type": "function"
    },
    {
      "inputs": [],
      "name": "getAllAdminRSAddresses",
      "outputs": [
        {
          "internalType": "address[]",
          "name": "",
          "type": "address[]"
        }
      ],
      "stateMutability": "view",
      "type": "function",
      "constant": true
    },
    {
      "inputs": [],
      "name": "totalAdmin",
      "outputs": [
        {
          "internalType": "uint256",
          "name": "",
          "type": "uint256"
        }
      ],
      "stateMutability": "view",
      "type": "function",
      "constant": true
    },
    {
      "inputs": [
        {
          "internalType": "uint256",
          "name": "idx",
          "type": "uint256"
        }
      ],
      "name": "getAdminByIndex",
      "outputs": [
        {
          "internalType": "address",
          "name": "",
          "type": "address"
        }
      ],
      "stateMutability": "view",
      "type": "function",
      "constant": true
    },
    {
      "inputs": [
        {
          "internalType": "address",
          "name": "_admin",
          "type": "address"
        }
      ],
      "name": "getAdminRS",
      "outputs": [
        {
          "internalType": "string",
          "name": "namaRumahSakit",
          "type": "string"
        },
        {
          "internalType": "bool",
          "name": "aktif",
          "type": "bool"
        },
        {
          "internalType": "string",
          "name": "alamatRumahSakit",
          "type": "string"
        },
        {
          "internalType": "string",
          "name": "kota",
          "type": "string"
        },
        {
          "internalType": "string",
          "name": "NIBRS",
          "type": "string"
        }
      ],
      "stateMutability": "view",
      "type": "function",
      "constant": true
    },
    {
      "inputs": [
        {
          "internalType": "address",
          "name": "_dokter",
          "type": "address"
        },
        {
          "internalType": "string",
          "name": "_nama",
          "type": "string"
        },
        {
          "internalType": "string",
          "name": "_spesialisasi",
          "type": "string"
        },
        {
          "internalType": "string",
          "name": "_nomorLisensi",
          "type": "string"
        }
      ],
      "name": "registerDokter",
      "outputs": [],
      "stateMutability": "nonpayable",
      "type": "function"
    },
    {
      "inputs": [
        {
          "internalType": "address",
          "name": "_dokter",
          "type": "address"
        },
        {
          "internalType": "string",
          "name": "_namaBaru",
          "type": "string"
        },
        {
          "internalType": "string",
          "name": "_spesialisasiBaru",
          "type": "string"
        },
        {
          "internalType": "string",
          "name": "_nomorLisensiBaru",
          "type": "string"
        }
      ],
      "name": "updateDokterInfo",
      "outputs": [],
      "stateMutability": "nonpayable",
      "type": "function"
    },
    {
      "inputs": [
        {
          "internalType": "address",
          "name": "_dokter",
          "type": "address"
        },
        {
          "internalType": "bool",
          "name": "_aktif",
          "type": "bool"
        }
      ],
      "name": "setStatusDokter",
      "outputs": [],
      "stateMutability": "nonpayable",
      "type": "function"
    },
    {
      "inputs": [],
      "name": "totalDokter",
      "outputs": [
        {
          "internalType": "uint256",
          "name": "",
          "type": "uint256"
        }
      ],
      "stateMutability": "view",
      "type": "function",
      "constant": true
    },
    {
      "inputs": [
        {
          "internalType": "uint256",
          "name": "idx",
          "type": "uint256"
        }
      ],
      "name": "getDokterByIndex",
      "outputs": [
        {
          "internalType": "address",
          "name": "",
          "type": "address"
        }
      ],
      "stateMutability": "view",
      "type": "function",
      "constant": true
    },
    {
      "inputs": [
        {
          "internalType": "address",
          "name": "_dokter",
          "type": "address"
        }
      ],
      "name": "getDokter",
      "outputs": [
        {
          "internalType": "string",
          "name": "nama",
          "type": "string"
        },
        {
          "internalType": "string",
          "name": "spesialisasi",
          "type": "string"
        },
        {
          "internalType": "string",
          "name": "nomorLisensi",
          "type": "string"
        },
        {
          "internalType": "bool",
          "name": "aktif",
          "type": "bool"
        },
        {
          "internalType": "address[]",
          "name": "pasienList",
          "type": "address[]"
        },
        {
          "internalType": "address",
          "name": "adminRS",
          "type": "address"
        }
      ],
      "stateMutability": "view",
      "type": "function",
      "constant": true
    },
    {
      "inputs": [
        {
          "internalType": "address",
          "name": "_dokter",
          "type": "address"
        }
      ],
      "name": "getAssignedPatients",
      "outputs": [
        {
          "internalType": "address[]",
          "name": "",
          "type": "address[]"
        }
      ],
      "stateMutability": "view",
      "type": "function",
      "constant": true
    },
    {
      "inputs": [
        {
          "internalType": "address",
          "name": "_pasien",
          "type": "address"
        },
        {
          "internalType": "string",
          "name": "_nama",
          "type": "string"
        },
        {
          "internalType": "string",
          "name": "_IDPasien",
          "type": "string"
        },
        {
          "internalType": "address",
          "name": "_adminRS",
          "type": "address"
        }
      ],
      "name": "registerPasien",
      "outputs": [],
      "stateMutability": "nonpayable",
      "type": "function"
    },
    {
      "inputs": [
        {
          "internalType": "string",
          "name": "_nama",
          "type": "string"
        },
        {
          "internalType": "string",
          "name": "_IDPasien",
          "type": "string"
        },
        {
          "internalType": "string",
          "name": "_golonganDarah",
          "type": "string"
        },
        {
          "internalType": "string",
          "name": "_tanggalLahir",
          "type": "string"
        },
        {
          "internalType": "string",
          "name": "_gender",
          "type": "string"
        },
        {
          "internalType": "string",
          "name": "_alamat",
          "type": "string"
        },
        {
          "internalType": "string",
          "name": "_noTelepon",
          "type": "string"
        },
        {
          "internalType": "string",
          "name": "_email",
          "type": "string"
        },
        {
          "internalType": "address",
          "name": "_adminRS",
          "type": "address"
        }
      ],
      "name": "selfRegisterPasien",
      "outputs": [],
      "stateMutability": "nonpayable",
      "type": "function"
    },
    {
      "inputs": [
        {
          "internalType": "string",
          "name": "_nama",
          "type": "string"
        },
        {
          "internalType": "string",
          "name": "_golonganDarah",
          "type": "string"
        },
        {
          "internalType": "string",
          "name": "_tanggalLahir",
          "type": "string"
        },
        {
          "internalType": "string",
          "name": "_gender",
          "type": "string"
        },
        {
          "internalType": "string",
          "name": "_alamat",
          "type": "string"
        },
        {
          "internalType": "string",
          "name": "_noTelepon",
          "type": "string"
        },
        {
          "internalType": "string",
          "name": "_email",
          "type": "string"
        }
      ],
      "name": "updatePasienData",
      "outputs": [],
      "stateMutability": "nonpayable",
      "type": "function"
    },
    {
      "inputs": [
        {
          "internalType": "address",
          "name": "_newAdminRS",
          "type": "address"
        }
      ],
      "name": "updatePasienRumahSakit",
      "outputs": [],
      "stateMutability": "nonpayable",
      "type": "function"
    },
    {
      "inputs": [],
      "name": "getDaftarPasien",
      "outputs": [
        {
          "internalType": "address[]",
          "name": "",
          "type": "address[]"
        }
      ],
      "stateMutability": "view",
      "type": "function",
      "constant": true
    },
    {
      "inputs": [],
      "name": "totalPasien",
      "outputs": [
        {
          "internalType": "uint256",
          "name": "",
          "type": "uint256"
        }
      ],
      "stateMutability": "view",
      "type": "function",
      "constant": true
    },
    {
      "inputs": [
        {
          "internalType": "address",
          "name": "_pasien",
          "type": "address"
        }
      ],
      "name": "getPasienData",
      "outputs": [
        {
          "internalType": "string",
          "name": "nama",
          "type": "string"
        },
        {
          "internalType": "string",
          "name": "ID",
          "type": "string"
        },
        {
          "internalType": "string",
          "name": "golonganDarah",
          "type": "string"
        },
        {
          "internalType": "string",
          "name": "tanggalLahir",
          "type": "string"
        },
        {
          "internalType": "string",
          "name": "gender",
          "type": "string"
        },
        {
          "internalType": "string",
          "name": "alamat",
          "type": "string"
        },
        {
          "internalType": "string",
          "name": "noTelepon",
          "type": "string"
        },
        {
          "internalType": "string",
          "name": "email",
          "type": "string"
        },
        {
          "internalType": "address",
          "name": "rumahSakitPenanggungJawab",
          "type": "address"
        }
      ],
      "stateMutability": "view",
      "type": "function",
      "constant": true
    },
    {
      "inputs": [
        {
          "internalType": "address",
          "name": "_dokter",
          "type": "address"
        },
        {
          "internalType": "address",
          "name": "_pasien",
          "type": "address"
        }
      ],
      "name": "assignPasienToDokter",
      "outputs": [],
      "stateMutability": "nonpayable",
      "type": "function"
    },
    {
      "inputs": [
        {
          "internalType": "address",
          "name": "_dokter",
          "type": "address"
        },
        {
          "internalType": "address",
          "name": "_pasien",
          "type": "address"
        }
      ],
      "name": "unassignPasienFromDokter",
      "outputs": [],
      "stateMutability": "nonpayable",
      "type": "function"
    },
    {
      "inputs": [
        {
          "internalType": "address",
          "name": "_pasien",
          "type": "address"
        },
        {
          "internalType": "string",
          "name": "_diagnosa",
          "type": "string"
        },
        {
          "internalType": "string",
          "name": "_foto",
          "type": "string"
        },
        {
          "internalType": "string",
          "name": "_catatan",
          "type": "string"
        },
        {
          "internalType": "string",
          "name": "_tipeRekamMedis",
          "type": "string"
        }
      ],
      "name": "tambahRekamMedis",
      "outputs": [],
      "stateMutability": "nonpayable",
      "type": "function"
    },
    {
      "inputs": [
        {
          "internalType": "address",
          "name": "_pasien",
          "type": "address"
        }
      ],
      "name": "getRekamMedisIdsByPasien",
      "outputs": [
        {
          "internalType": "uint256[]",
          "name": "",
          "type": "uint256[]"
        }
      ],
      "stateMutability": "view",
      "type": "function",
      "constant": true
    },
    {
      "inputs": [
        {
          "internalType": "uint256",
          "name": "_id",
          "type": "uint256"
        }
      ],
      "name": "getRekamMedis",
      "outputs": [
        {
          "internalType": "uint256",
          "name": "id",
          "type": "uint256"
        },
        {
          "internalType": "address",
          "name": "pasien",
          "type": "address"
        },
        {
          "internalType": "string",
          "name": "diagnosa",
          "type": "string"
        },
        {
          "internalType": "string",
          "name": "foto",
          "type": "string"
        },
        {
          "internalType": "string",
          "name": "catatan",
          "type": "string"
        },
        {
          "internalType": "address",
          "name": "pembuat",
          "type": "address"
        },
        {
          "internalType": "uint256",
          "name": "timestampPembuatan",
          "type": "uint256"
        },
        {
          "internalType": "string",
          "name": "tipeRekamMedis",
          "type": "string"
        }
      ],
      "stateMutability": "view",
      "type": "function",
      "constant": true
    },
    {
      "inputs": [
        {
          "internalType": "address",
          "name": "_pasien",
          "type": "address"
        }
      ],
      "name": "getRekamMedisByPasienUntukAdminRS",
      "outputs": [
        {
          "components": [
            {
              "internalType": "uint256",
              "name": "id",
              "type": "uint256"
            },
            {
              "internalType": "address",
              "name": "pasien",
              "type": "address"
            },
            {
              "internalType": "string",
              "name": "diagnosa",
              "type": "string"
            },
            {
              "internalType": "string",
              "name": "foto",
              "type": "string"
            },
            {
              "internalType": "string",
              "name": "catatan",
              "type": "string"
            },
            {
              "internalType": "address",
              "name": "pembuat",
              "type": "address"
            },
            {
              "internalType": "uint256",
              "name": "timestampPembuatan",
              "type": "uint256"
            },
            {
              "internalType": "string",
              "name": "tipeRekamMedis",
              "type": "string"
            }
          ],
          "internalType": "struct RekamMedisRS.RekamMedisData[]",
          "name": "",
          "type": "tuple[]"
        }
      ],
      "stateMutability": "view",
      "type": "function",
      "constant": true
    },
    {
      "inputs": [
        {
          "internalType": "address",
          "name": "_user",
          "type": "address"
        }
      ],
      "name": "getUserRole",
      "outputs": [
        {
          "internalType": "string",
          "name": "",
          "type": "string"
        }
      ],
      "stateMutability": "view",
      "type": "function",
      "constant": true
    },
    {
      "inputs": [],
      "name": "getPasienByAdminRS",
      "outputs": [
        {
          "internalType": "address[]",
          "name": "",
          "type": "address[]"
        }
      ],
      "stateMutability": "view",
      "type": "function",
      "constant": true
    }
  ],
  "bytecode": "0x60806040523462000e2a576200001462000e4f565b601081526f52532053696c6f616d204d616c616e6760801b60208201526200003b62000e4f565b601e81527f4a6c2e2052617961204c616e67736570204e6f2e20322c204d616c616e67000060208201526200006f62000e4f565b9060068252654d616c616e6760d01b60208301526200008d62000e4f565b92600b84526a4e494252532d534d30303160a81b6020850152620000b062000e2f565b8181526001602082015282604082015283606082015284608082015273153f67a7b7169ce3f13f8a81dc9cae0bc27dbf216000526000602052604060002090805180519060018060401b0382116200070e57835490600182811c9216801562000e1f575b6020831014620007f35781601f84931162000dca575b50602090601f831160011462000d595760009262000d4d575b50508160011b916000199060031b1c19161782555b6200017860208201511515600184019060ff801983541691151516179055565b60408101518051906001600160401b0382116200070e57600284015490600182811c9216801562000d42575b6020831014620007f35781601f84931162000cea575b50602090601f831160011462000c735760009262000c67575b50508160011b916000199060031b1c19161760028301555b60608101518051906001600160401b0382116200070e576003840154600181811c9116801562000c5c575b6020821014620007f357601f811162000c10575b50602090601f831160011462000b985760809392916000918362000b8c575b50508160011b916000199060031b1c19161760038401555b01518051906001600160401b0382116200070e576004830154600181811c9116801562000b81575b6020821014620007f357601f811162000b35575b50602090601f831160011462000ac057600492916000918362000ab4575b50508160011b916000199060031b1c1916179101555b600254680100000000000000008110156200070e576001810180600255811015620006f85773153f67a7b7169ce3f13f8a81dc9cae0bc27dbf219460008051602062006bc483398151915294620003759260026000526020600020018760018060a01b0319825416179055604051602081845162000353818385890162000e6f565b81016001815203019020600160ff198254161790556040519485948562000ebb565b0390a26200038262000e4f565b600f81526e52532053696c6f616d20596f67796160881b6020820152604051606081016001600160401b038111828210176200070e57604052602881527f4a6c2e204c616b736461204164697375636970746f204e6f2e2033322c20596f6020820152676779616b6172746160c01b60408201526200040062000e4f565b90600a825269596f6779616b6172746160b01b60208301526200042262000e4f565b92600b84526a4e494252532d535930303160a81b60208501526200044562000e2f565b8181526001602082015282604082015283606082015284608082015273d95a4ee9149fcb31c535ef6cbd65f4c23d9f799760005260006020526040600020815180519060018060401b0382116200070e57825490600182811c9216801562000aa9575b6020831014620007f35781601f84931162000a54575b50602090601f8311600114620009e357600092620009d7575b50508160011b916000199060031b1c19161781555b6200050c60208301511515600183019060ff801983541691151516179055565b60408201518051906001600160401b0382116200070e57600283015490600182811c92168015620009cc575b6020831014620007f35781601f84931162000974575b50602090601f8311600114620008fd57600092620008f1575b50508160011b916000199060031b1c19161760028201555b60608201518051906001600160401b0382116200070e576003830154600181811c91168015620008e6575b6020821014620007f357601f81116200089a575b50602090601f8311600114620008205791806080949260049460009262000814575b50508160011b916000199060031b1c19161760038201555b0191015180519060018060401b0382116200070e57825490600182811c9216801562000809575b6020831014620007f35781601f8493116200079b575b50602090601f8311600114620007305760009262000724575b50508160011b916000199060031b1c19161790555b600254680100000000000000008110156200070e576001810180600255811015620006f85773d95a4ee9149fcb31c535ef6cbd65f4c23d9f79979460008051602062006bc483398151915294620006e59260026000526020600020018760018060a01b0319825416179055604051602081845162000353818385890162000e6f565b0390a2604051615cb5908162000f0f8239f35b634e487b7160e01b600052603260045260246000fd5b634e487b7160e01b600052604160045260246000fd5b0151905038806200064e565b6000858152602081209350601f198516905b81811062000782575090846001959493921062000768575b505050811b01905562000663565b015160001960f88460031b161c191690553880806200075a565b9293602060018192878601518155019501930162000742565b909150836000526020600020601f840160051c81019160208510620007e8575b90601f859493920160051c01905b818110620007d8575062000635565b60008155849350600101620007c9565b9091508190620007bb565b634e487b7160e01b600052602260045260246000fd5b91607f16916200061f565b015190503880620005e0565b906003840160005260206000209160005b601f1985168110620008815750926080949260019260049583601f1981161062000867575b505050811b016003820155620005f8565b015160001960f88460031b161c1916905538808062000856565b9192602060018192868501518155019401920162000831565b600384016000526020600020601f840160051c810160208510620008de575b601f830160051c82018110620008d1575050620005be565b60008155600101620008b9565b5080620008b9565b90607f1690620005aa565b01519050388062000567565b9250600284016000526020600020906000935b601f198416851062000958576001945083601f198116106200093e575b505050811b0160028201556200057f565b015160001960f88460031b161c191690553880806200092d565b8181015183556020948501946001909301929091019062000910565b909150600284016000526020600020601f840160051c810160208510620009c4575b90849392915b601f830160051c82018110620009b45750506200054e565b600081558594506001016200099c565b508062000996565b91607f169162000538565b015190503880620004d7565b9250836000526020600020906000935b601f198416851062000a38576001945083601f1981161062000a1e575b505050811b018155620004ec565b015160001960f88460031b161c1916905538808062000a10565b81810151835560209485019460019093019290910190620009f3565b909150836000526020600020601f840160051c81016020851062000aa1575b90849392915b601f830160051c8201811062000a91575050620004be565b6000815585945060010162000a79565b508062000a73565b91607f1691620004a8565b015190503880620002bb565b906004840160005260206000209160005b601f198516811062000b1c5750918391600193600495601f1981161062000b02575b505050811b01910155620002d1565b015160001960f88460031b161c1916905538808062000af3565b9192602060018192868501518155019401920162000ad1565b600484016000526020600020601f840160051c81016020851062000b79575b601f830160051c8201811062000b6c5750506200029d565b6000815560010162000b54565b508062000b54565b90607f169062000289565b01519050388062000249565b906003850160005260206000209160005b601f198516811062000bf7575091839160019360809695601f1981161062000bdd575b505050811b01600384015562000261565b015160001960f88460031b161c1916905538808062000bcc565b9192602060018192868501518155019401920162000ba9565b600385016000526020600020601f840160051c81016020851062000c54575b601f830160051c8201811062000c475750506200022a565b6000815560010162000c2f565b508062000c2f565b90607f169062000216565b015190503880620001d3565b9250600285016000526020600020906000935b601f198416851062000cce576001945083601f1981161062000cb4575b505050811b016002830155620001eb565b015160001960f88460031b161c1916905538808062000ca3565b8181015183556020948501946001909301929091019062000c86565b909150600285016000526020600020601f840160051c81016020851062000d3a575b90849392915b601f830160051c8201811062000d2a575050620001ba565b6000815585945060010162000d12565b508062000d0c565b91607f1691620001a4565b01519050388062000143565b9250846000526020600020906000935b601f198416851062000dae576001945083601f1981161062000d94575b505050811b01825562000158565b015160001960f88460031b161c1916905538808062000d86565b8181015183556020948501946001909301929091019062000d69565b909150846000526020600020601f840160051c81016020851062000e17575b90849392915b601f830160051c8201811062000e075750506200012a565b6000815585945060010162000def565b508062000de9565b91607f169162000114565b600080fd5b6040519060a082016001600160401b038111838210176200070e57604052565b60408051919082016001600160401b038111838210176200070e57604052565b60005b83811062000e835750506000910152565b818101518382015260200162000e72565b9060209162000eaf8151809281855285808601910162000e6f565b601f01601f1916010190565b9262000eed62000f0b959362000ede62000efc9460808852608088019062000e94565b90868203602088015262000e94565b90848203604086015262000e94565b91606081840391015262000e94565b9056fe6101c0604052600436101561001357600080fd5b60003560e01c80623861961461448a578062410cb31461443257806301c268fe14613cab578063046bdbcc14613c3d578063050567d214613c115780631132beb514613bd257806311c6554e146138c957806319d9d3dd1461384857806319e8f405146135805780631cf64afd146133ff5780632120e53f14613394578063278208511461335c5780632b7d8af81461331d5780632e2dd102146132ff5780633bf76303146132895780633cdd1591146127a55780633da05518146126bf5780633fd8308914611fbe5780634269965114611f9557806347960cb514611ec157806351887b6714611e2c5780635c4c934814611ded578063610a852614611729578063623785c1146116bb57806364319e331461169d5780636837008714611674578063786f3fbe146115cb5780637d3e9db8146115ad578063911b633a1461156b57806392fa9240146113d9578063932e0f6d146112fd578063a665102c1461123b578063abf72abb146111ba578063b75de7a814610d8f578063c0664b7e14610d20578063c3c0fdea14610c73578063c967ede814610ba6578063ddbd24d3146105c6578063e29993a5146102f2578063e5cc3394146102d45763f2ab4a99146101de57600080fd5b346102cf576101ec36615581565b6001600160a01b0390911690338290036102745760207fd2e4d0240eabf0011425eb3fffbc4f311cd4b564ba547aba4b3163fd046f6a9791836000526000825261024461023d6040600020546152f8565b1515615696565b83600052600082526102698160016040600020019060ff801983541691151516179055565b6040519015158152a2005b60405162461bcd60e51b815260206004820152602d60248201527f416e64612068616e79612062697361206d656e6775626168207374617475732060448201526c20b732309039b2b73234b9349760991b6064820152608490fd5b600080fd5b346102cf5760003660031901126102cf576020600954604051908152f35b346102cf5760403660031901126102cf5761030b614fe3565b610313614ff9565b90336000526020916000835261032d6040600020546152f8565b1515806105ac575b61033e90615624565b60018060a01b0391828116806000526004855261036260ff60406000205416615874565b80600052600390818652610381338660056040600020015416146158c0565b84841694856000526007875261039e60ff60406000205416615a7f565b85600052600687523381600860406000200154160361054f5760009160005282875260046040600020019160005b8354808210156105415788846103e284886150f7565b905490891b1c16146103fd57506103f890615acb565b6103cc565b9150919293949596506000199182820191821161052b576104338461042561045294886150f7565b905490891b1c1691866150f7565b90919082549060031b9160018060a01b03809116831b921b1916179055565b8254801561051557019261046684846150f7565b81939154921b1b191690555560015b156104c157604080516001600160a01b0392831681529290911660208301527f80b4d8d360eb6524bf34c2207f48a267b84469bad95c9e9540413349e9f416a59250819081015b0390a1005b60405162461bcd60e51b815260048101849052602660248201527f50617369656e20746964616b20646974756761736b616e206b6520646f6b7465604482015265391034b7349760d11b6064820152608490fd5b634e487b7160e01b600052603160045260246000fd5b634e487b7160e01b600052601160045260246000fd5b505093949550505050610475565b60405162461bcd60e51b815260048101889052602f60248201527f50617369656e20696e6920746964616b2074657264616674617220646920727560448201526e36b0b41039b0b5b4ba1020b732309760891b6064820152608490fd5b50336000908152808452604090206001015460ff16610335565b346102cf576105d4366155b0565b91949392903360005260006020526105f06040600020546152f8565b151580610b86575b61060190615624565b6001600160a01b03871660009081526004602052604090205460ff16610b2e576001600160a01b03871660009081526007602052604090205460ff16610ac3576001600160a01b03871660009081526004602052604090819020805460ff19166001179055519261067184615147565b60008452604051968760c08101106001600160401b0360c08a011117610902576106c0936106b49160c08a016040526106ab36898b61519e565b8a52369161519e565b6020880152369161519e565b60408501526001606085015260808401523360a084015260018060a01b038416600052600360205260406000209280518051906001600160401b0382116109025781906107178261071189546152f8565b8961577c565b602090601f8311600114610a5757600092610a4c575b50508160011b916000199060031b1c19161784555b60208101518051906001600160401b0382116109025781906107748261076b60018a01546152f8565b60018a0161577c565b602090601f83116001146109da576000926109cf575b50508160011b916000199060031b1c19161760018501555b60408101518051906001600160401b0382116109025781906107d4826107cb60028a01546152f8565b60028a0161577c565b602090601f831160011461095d57600092610952575b50508160011b916000199060031b1c19161760028501555b61082160608201511515600386019060ff801983541691151516179055565b60048401936080820151948551906001600160401b03821161090257600160401b96878311610902576020908254848455808510610935575b500190600052602060002060005b83811061091857505050506005019060a0600180821b03910151166001600160601b0360a01b82541617905560055492831015610902576108d4846104338560017f5c9d12a5bfda65f31ab460df37935bfe7b6cfa6a3787bf1f99858ccc15dc9277970160055561503c565b6108eb6040519283926040845260408401916157c1565b3360208301526001600160a01b03909416930390a2005b634e487b7160e01b600052604160045260246000fd5b82516001600160a01b031681830155602090920191600101610868565b61094c908460005285846000209182019101615765565b8a61085a565b0151905087806107ea565b9250600287016000526020600020906000935b601f19841685106109b4576001945083601f1981161061099b575b505050811b016002850155610802565b015160001960f88460031b161c1916905587808061098b565b81810151835560209485019460019093019290910190610970565b01519050878061078a565b9250600187016000526020600020906000935b601f1984168510610a31576001945083601f19811610610a18575b505050811b0160018501556107a2565b015160001960f88460031b161c19169055878080610a08565b818101518355602094850194600190930192909101906109ed565b01519050878061072d565b9250866000526020600020906000935b601f1984168510610aa8576001945083601f19811610610a8f575b505050811b018455610742565b015160001960f88460031b161c19169055878080610a82565b81810151835560209485019460019093019290910190610a67565b60405162461bcd60e51b815260206004820152603f60248201527f416c616d617420696e692074657264616674617220736562616761692070617360448201527f69656e2c20746964616b2062697361206d656e6a61646920646f6b7465722e006064820152608490fd5b60405162461bcd60e51b815260206004820152602a60248201527f416c616d617420696e692073756461682074657264616674617220736562616760448201526930b4903237b5ba32b91760b11b6064820152608490fd5b5033600052600060205261060160ff6001604060002001541690506105f8565b346102cf576020806003193601126102cf576001600160a01b03610bc8614fe3565b168060005260078252610be260ff60406000205416615a33565b600052600b8152604060002060405190818382549182815201908192600052846000209060005b86828210610c5f578686610c1f8288038361517d565b604051928392818401908285525180915260408401929160005b828110610c4857505050500390f35b835185528695509381019392810192600101610c39565b835485529093019260019283019201610c09565b346102cf5760203660031901126102cf57610cf36001600160a01b0380610c98614fe3565b1660005260036020526040600020610caf81615332565b91610d0f610cbf60018401615332565b91610d01610ccf60028601615332565b91600560ff600388015416960154169360405197889760a0895260a0890190615245565b908782036020890152615245565b908582036040870152615245565b911515606084015260808301520390f35b346102cf5760203660031901126102cf576001600160a01b03610d41614fe3565b16806000526004602052610d5c60ff60406000205416615924565b6000526003602052610d8b610d7760046040600020016157e2565b60405191829160208352602083019061526a565b0390f35b346102cf57610d9d366155b0565b95949290939195336000526000602052610dbb6040600020546152f8565b15158061119a575b610dcc90615624565b60018060a01b0391828716600052600460205260ff604060002054161561114b5782871660005260039788602052338460056040600020015416036110ec578388166000528860205260406000206001600160401b0380871161090257610e3d87610e3784546152f8565b8461577c565b866000601f82116001146110875760009161107c575b50600019888d1b1c1916600188901b1782555b8083116109025760018201610e8584610e7f83546152f8565b8361577c565b836000601f82116001146110195760009161100e575b50600019858e1b1c1916600185901b1790555b841161090257610ece84610ec560028401546152f8565b6002840161577c565b6000601f8511600114610f71579184939160027f4e15ca2ba26538cdb1e2f0d595a1ec96fe8fbb126404e0cc083426c33ccbdd959a9b9c610f619897610f4f96600091610f66575b508760011b9188600019911b1c1916179101555b610f4160405198899860608a5260608a01916157c1565b9187830360208901526157c1565b918483036040860152339816966157c1565b0390a3005b90508d01358f610f16565b99601f198516906002830160005260206000209160005b818110610ff65750917f4e15ca2ba26538cdb1e2f0d595a1ec96fe8fbb126404e0cc083426c33ccbdd959a9b9c87969492610f619998610f4f979510610fdc575b5050506002600186811b01910155610f2a565b60f888600019921b161c19908d01351690558c8080610fc9565b8b8e0135845560209d8e019d60019094019301610f88565b90508501358d610e9b565b60008381526020812092505b601f1987168110611064575085601f1981161061104c575b5050600184811b019055610eae565b860135600019868f1b60f8161c191690558c8061103d565b9091602060018192858b013581550193019101611025565b90508801358c610e53565b60008481526020812092508990601f198216905b8c8282106110d2575050106110ba575b5050600187811b018255610e66565b890135600019898e1b60f8161c191690558b806110ab565b84013585556001909401936020938401938c93500161109b565b60405162461bcd60e51b815260206004820152603160248201527f416e64612062756b616e2061646d696e2052532079616e672062657268616b206044820152703ab73a3ab5903237b5ba32b91034b7349760791b6064820152608490fd5b60405162461bcd60e51b815260206004820152602160248201527f446f6b74657220746964616b207465726461667461722064692073697374656d6044820152601760f91b6064820152608490fd5b50336000526000602052610dcc60ff600160406000200154169050610dc3565b346102cf5760203660031901126102cf57600435600052600a60205260406000208054610d8b60018060a01b0380600185015416936111fb60028201615332565b9161120860038301615332565b9061121560048401615332565b906005840154169161122e600760068601549501615332565b946040519889988961546d565b346102cf5760203660031901126102cf576001600160a01b038061125d614fe3565b1680600052600760205261127860ff60406000205416615a33565b6000526006602052604060002090600882015416610d8b61129883615332565b916112a560018501615332565b936112b260028201615332565b906112bf60038201615332565b6112cb60048301615332565b6112d760058401615332565b916112f060076112e960068701615332565b9501615332565b94604051998a998a6154d9565b346102cf577f3dcd68c14f5f191f12b3b56bf35d5d7eb22447e9ec685290967b4558822ca98a61132c36615581565b91909133600052602090600082526113486040600020546152f8565b1515806113bf575b61135990615624565b61139a60018060a01b0380951694856000526004845261138060ff60406000205416615874565b8560005260038452339060056040600020015416146158c0565b83600052600382526102698160036040600020019060ff801983541691151516179055565b50336000908152808352604090206001015460ff16611350565b346102cf576020806003193601126102cf576113f3614fe3565b336000526007825261140c60ff60406000205416615a33565b6001600160a01b03818116600081815280855260409020600101549092919060ff161561150f573360005260068452828160086040600020015416146114b957336000818152600690955260409485902060080180546001600160a01b03198116909517905584516001600160a01b03929094168216845291166020830152917f3457f52cd7f93503903afd272e58438c52a23561e74eddba2144dc53d7af0e449190819081015b0390a2005b60405162461bcd60e51b815260048101859052602860248201527f416e6461207375646168207465726461667461722064692072756d616820736160448201526735b4ba1034b7349760c11b6064820152608490fd5b60405162461bcd60e51b815260048101859052602e60248201527f52756d61682053616b6974206261727520746964616b20616b7469662061746160448201526d3a903a34b230b5903b30b634b21760911b6064820152608490fd5b346102cf5760203660031901126102cf576004356002548110156102cf576115946020916150c0565b905460405160039290921b1c6001600160a01b03168152f35b346102cf5760003660031901126102cf576020600554604051908152f35b346102cf5760203660031901126102cf576001600160a01b03806115ed614fe3565b166000526006602052604060002090610d8b61160883615332565b9161161560018501615332565b9361162260028201615332565b9161162f60038301615332565b61163b60048401615332565b61164760058501615332565b9161165460068601615332565b93600861166360078801615332565b9601541695604051998a998a6154d9565b346102cf5760203660031901126102cf576004356009548110156102cf57611594602091615089565b346102cf5760003660031901126102cf576020600254604051908152f35b346102cf5760203660031901126102cf576004356002548110156116e4576115946020916150c0565b60405162461bcd60e51b815260206004820152601c60248201527f496e64656b732061646d696e20525320746964616b2076616c69642e000000006044820152606490fd5b346102cf57611737366153d8565b9397959490939290916000336001600160a01b0389161480611dd5575b15611d23575060015b15611cb8576001600160a01b0387166000908152600760205260409020546117879060ff16615a7f565b611792600c54615acb565b9283600c556040516117a38161512b565b8481526001600160a01b03891660208201526117c036898c61519e565b60408201526117d0368c8461519e565b60608201526117e036848661519e565b60808201523360a08201524260c08201526117fc36878961519e565b60e082015284600052600a602052604060002090805182556001820160018060a01b036020830151166001600160601b0360a01b82541617905560408101518051906001600160401b0382116109025781906118688261185f60028801546152f8565b6002880161577c565b602090601f8311600114611c4657600092611c3b575b50508160011b916000199060031b1c19161760028301555b60608101518051906001600160401b0382116109025781906118c8826118bf60038801546152f8565b6003880161577c565b602090601f8311600114611bc957600092611bbe575b50508160011b916000199060031b1c19161760038301555b60808101518051906001600160401b038211610902576119268261191d60048701546152f8565b6004870161577c565b602090601f8311600114611b4b5760e093929160009183611b40575b50508160011b916000199060031b1c19161760048401555b6005830160018060a01b0360a0830151166001600160601b0360a01b82541617905560c0810151600684015501518051906001600160401b038211610902576119b3826119aa60078601546152f8565b6007860161577c565b602090601f8311600114611ad0576007929160009183611ac5575b50508160011b916000199060031b1c1916179101555b60018060a01b038816600052600b60205260406000209081549a600160401b8c101561090257611a8a60209b611ab49a611aa6987f6530349a6e8f9162290f6de52adc987794b9dcf2b88018454bede841bcf8c2829f80611a98986001611a4d930181556150f7565b81549060031b9083821b91600019901b19161790556040519e8f9e8f92835260018060a01b031691015260408d61010091829101528d01916157c1565b918a830360608c01526157c1565b9187830360808901526157c1565b9184830360a08601526157c1565b3360c08301524260e08301520390a1005b015190508e806119ce565b906007840160005260206000209160005b601f1985168110611b285750918391600193600795601f19811610611b0f575b505050811b019101556119e4565b015160001960f88460031b161c191690558e8080611b01565b91926020600181928685015181550194019201611ae1565b015190508f80611942565b906004850160005260206000209160005b601f1985168110611ba6575091839160019360e09695601f19811610611b8d575b505050811b01600484015561195a565b015160001960f88460031b161c191690558f8080611b7d565b91926020600181928685015181550194019201611b5c565b015190508e806118de565b9250600385016000526020600020906000935b601f1984168510611c20576001945083601f19811610611c07575b505050811b0160038301556118f6565b015160001960f88460031b161c191690558e8080611bf7565b81810151835560209485019460019093019290910190611bdc565b015190508e8061187e565b9250600285016000526020600020906000935b601f1984168510611c9d576001945083601f19811610611c84575b505050811b016002830155611896565b015160001960f88460031b161c191690558e8080611c74565b81810151835560209485019460019093019290910190611c59565b60405162461bcd60e51b815260206004820152603960248201527f416b746f7220746964616b2062657268616b206d656e616d6261682072656b6160448201527f6d206d6564697320756e74756b2070617369656e20696e692e000000000000006064820152608490fd5b33600052600460205260ff6040600020541680611dbe575b1561175d576001600160a01b03881660009081526007602052604090205460ff1680611d85575b80611d75575b1561175d5750600161175d565b50611d808833615ada565b611d68565b50336000908152600360209081526040808320600501546001600160a01b038c8116855260069093529220600801548116911614611d62565b50600360205260ff60036040600020015416611d3b565b5033600052600760205260ff60406000205416611754565b346102cf5760203660031901126102cf576001600160a01b03611e0e614fe3565b166000526004602052602060ff604060002054166040519015158152f35b346102cf5760003660031901126102cf576040518060095480825282602080930160096000527f6e1540171b6c0c960b71a7020d9f60077f6af931a8bbf590da0223dacf75c7af9260005b85828210611ea257505050611e8e9250038361517d565b610d8b60405192828493845283019061526a565b85546001600160a01b0316845260019586019588955093019201611e77565b346102cf5760203660031901126102cf576004356000818152600a60205260409020600101546001600160a01b039190821615611f5057600052600a6020526040600020610d8b8154918360018201541693600582015416600682015490611f2b60028401615332565b92611f3860038201615332565b61122e6007611f4960048501615332565b9301615332565b60405162461bcd60e51b815260206004820152601c60248201527f52656b616d206d6564697320746964616b20646974656d756b616e2e000000006044820152606490fd5b346102cf5760203660031901126102cf576004356005548110156102cf5761159460209161503c565b346102cf57611fcc366153d8565b9695949061016098949852336000526000602052611fee6040600020546152f8565b15158061269f575b611fff90615624565b6001600160a01b03841633036126345760018060a01b038416600052600060205261203161023d6040600020546152f8565b84156125dd5786156125985760018060a01b038416600052600060205260046040600020016040516120798161206b6020820180956156e2565b03601f19810183528261517d565b5190206040516020810190896101605183376120a56020828c810160008382015203808452018261517d565b5190200361248e575b6001600160a01b03841660009081526020819052604090206001600160401b038611610902576120e286610e7f83546152f8565b856000601f82116001146124295760009161241e575b508660011b906000198860031b1c19161781555b6001600160401b038911610902576002810161212c8a610e7f83546152f8565b896000601f82116001146123b9576000916123ae575b508a60011b906000198c60031b1c19161790555b6001600160401b0383116109025761217e8361217560038401546152f8565b6003840161577c565b60009083601f811160011461233c57600492600091612331575b508460011b906000198660031b1c19161760038201555b01976001600160401b038811610902576121d3886121cd8b546152f8565b8b61577c565b600098601f8911600114612291576114b49594926122649492612256928b807ff68ff1fa009966863b83cbda346b0b08fef5e65659e2c5538afce393cd565b5b9d9e600091612283575b508160011b916000199060031b1c19161790555b6122486040519a8b9a60808c5260808c01916157c1565b9189830360208b01526157c1565b9186830360408801526157c1565b8381036060850152610160516001600160a01b039092169690916157c1565b90506101605101358f61221d565b600081815260208120610160519b9091601f198c16905b8181106123195750926114b4989795928c9d6122649896938e7ff68ff1fa009966863b83cbda346b0b08fef5e65659e2c5538afce393cd565b5b9f61225698106122fe575b91505060018092501b019055612231565b60f86000199160031b161c199101351690558d80808f6122ed565b8d8301358455600190930192602092830192016122a8565b90508501358b612198565b5060038101600090815260208120909285601f1981165b808610612390576004955010612376575b5050600184811b0160038201556121af565b860135600019600387901b60f8161c191690558a80612364565b88830135845560209586019560019094019390920191879150612353565b90508301358b612142565b60008381526020812092505b601f198d16811061240657508b601f198116106123ec575b505060018a811b019055612156565b84013560001960038d901b60f8161c191690558a806123dd565b909160206001819285890135815501930191016123c5565b90508701358a6120f8565b60008381526020812092505b601f1989168110612476575087601f1981161061245c575b5050600186811b01815561210c565b880135600019600389901b60f8161c19169055898061244d565b9091602060018192858d013581550193019101612435565b60ff604051886101605182376020818a81016001815203019020541661253c5760018060a01b03841660005260006020526124d06004604060002001546152f8565b6124fd575b604051876101605182376020818981016001815203019020600160ff198254161790556120ae565b60018060a01b038416600052600060205261252760206004604060002001604051928380926156e2565b6001815203019020805460ff191690556124d5565b60405162461bcd60e51b815260206004820152602e60248201527f4e49425253206261727520737564616820646967756e616b616e206f6c65682060448201526d20b236b4b7102929903630b4b71760911b6064820152608490fd5b60405162461bcd60e51b815260206004820152601e60248201527f4e49425253206261727520746964616b20626f6c6568206b6f736f6e672e00006044820152606490fd5b60405162461bcd60e51b815260206004820152602960248201527f4e616d612052756d61682053616b6974206261727520746964616b20626f6c65604482015268341035b7b9b7b7339760b91b6064820152608490fd5b60405162461bcd60e51b815260206004820152603c60248201527f416e64612068616e79612062697361206d656d7065726261727569206465746160448201527f696c2072756d61682073616b697420416e64612073656e646972692e000000006064820152608490fd5b50336000526000602052611fff60ff600160406000200154169050611ff6565b346102cf5760203660031901126102cf5761276a6001600160a01b03806126e4614fe3565b168060005260046020526126ff60ff60406000205416615924565b600052600360205260406000209061279b60ff600384015416916005840154169161272984615332565b9361278661273960018301615332565b91612778612755600461274e60028501615332565b93016157e2565b93604051998a9960c08b5260c08b0190615245565b9089820360208b0152615245565b908782036040890152615245565b9115156060860152848203608086015261526a565b9060a08301520390f35b346102cf576101203660031901126102cf576004356001600160401b0381116102cf576127d690369060040161500f565b60e052610100526024356001600160401b0381116102cf576127fc90369060040161500f565b608052610140526044356001600160401b0381116102cf5761282290369060040161500f565b6064356001600160401b0381116102cf5761284190369060040161500f565b906084356001600160401b0381116102cf5761286190369060040161500f565b93909260a4356001600160401b0381116102cf5761288390369060040161500f565b919060c4356001600160401b0381116102cf576128a490369060040161500f565b93909460e4356001600160401b0381116102cf576128c690369060040161500f565b9099909890610104356001600160a01b03811690036102cf5733600052600760205260ff604060002054166132385733600052600460205260ff604060002054166131e7576129186080511515615970565b61294160ff604051608051610140518237602081608051810160088152030190205416156159bc565b610104356001600160a01b031660009081526020819052604090206001015460ff1615613183576129e6612a1099612a02976129d8612a1d9f6129f4973360005260076020526040600020600160ff198254161790556129a66040518060c05261510f565b6129b63660e0516101005161519e565b60c051526129ca366080516101405161519e565b602060c0510152369161519e565b604060c0510152369161519e565b606060c0510152369161519e565b608060c0510152369161519e565b60a060c0510152369161519e565b60c080510152369161519e565b60e060c051015260018060a01b03610104351661010060c0510152336000526006602052604060002060c051519081516001600160401b03811161090257612a6981610e3784546152f8565b6020601f821160011461311e57819293600092613113575b50508160011b916000199060031b1c19161781555b602060c05101519081516001600160401b038111610902576001820190612ac181610e3784546152f8565b6020601f82116001146130ad57819293946000926130a2575b50508160011b916000199060031b1c19161790555b604060c05101519081516001600160401b038111610902576002820190612b1a81610e3784546152f8565b6020601f821160011461303c5781929394600092613031575b50508160011b916000199060031b1c19161790555b606060c05101518051906001600160401b038211610902578190612b7c82612b7360038701546152f8565b6003870161577c565b602090601f8311600114612fbf57600092612fb4575b50508160011b916000199060031b1c19161760038201555b608060c05101518051906001600160401b038211610902578190612bd58261191d60048701546152f8565b602090601f8311600114612f4257600092612f37575b50508160011b916000199060031b1c19161760048201555b60a060c05101518051906001600160401b038211610902578190612c3782612c2e60058701546152f8565b6005870161577c565b602090601f8311600114612ec557600092612eba575b50508160011b916000199060031b1c19161760058201555b60c0805101518051906001600160401b038211610902578190612c9882612c8f60068701546152f8565b6006870161577c565b602090601f8311600114612e4857600092612e3d575b50508160011b916000199060031b1c19161760068201555b60e060c0510151908151916001600160401b03831161090257612cf983612cf060078501546152f8565b6007850161577c565b602090601f8411600114612dcb576008939160009183612dc0575b50508160011b916000199060031b1c19161760078201555b0160018060a01b0361010060c0510151166001600160601b0360a01b825416179055612d5733615851565b60405160805161014051823760208160805181016008815203019020600160ff198254161790556040517f34288a60ac94463b3bd2c594dc78c87cba02f1270cf853cee3a2912bf04372373391806114b4610104356080516101405160e0516101005186615a08565b015190508480612d14565b906007830160005260206000209160005b601f1986168110612e255750918491600193600896601f19811610612e0c575b505050811b016007820155612d2c565b015160001960f88460031b161c19169055848080612dfc565b91926020600181928685015181550194019201612ddc565b015190508380612cae565b9250600684016000526020600020906000935b601f1984168510612e9f576001945083601f19811610612e86575b505050811b016006820155612cc6565b015160001960f88460031b161c19169055838080612e76565b81810151835560209485019460019093019290910190612e5b565b015190508380612c4d565b9250600584016000526020600020906000935b601f1984168510612f1c576001945083601f19811610612f03575b505050811b016005820155612c65565b015160001960f88460031b161c19169055838080612ef3565b81810151835560209485019460019093019290910190612ed8565b015190508380612beb565b9250600484016000526020600020906000935b601f1984168510612f99576001945083601f19811610612f80575b505050811b016004820155612c03565b015160001960f88460031b161c19169055838080612f70565b81810151835560209485019460019093019290910190612f55565b015190508380612b92565b9250600384016000526020600020906000935b601f1984168510613016576001945083601f19811610612ffd575b505050811b016003820155612baa565b015160001960f88460031b161c19169055838080612fed565b81810151835560209485019460019093019290910190612fd2565b015190508480612b33565b826000526020600020906000601f198416905b81811061308a57509583600195969710613071575b505050811b019055612b48565b015160001960f88460031b161c19169055848080613064565b9192602060018192868b01518155019401920161304f565b015190508480612ada565b826000526020600020906000601f198416905b8181106130fb575095836001959697106130e2575b505050811b019055612aef565b015160001960f88460031b161c191690558480806130d5565b9192602060018192868b0151815501940192016130c0565b015190508380612a81565b82600052602060002090600094601f198416955b86811061316b5750836001959610613152575b505050811b018155612a96565b015160001960f88460031b161c19169055838080613145565b91926020600181928685015181550194019201613132565b60405162461bcd60e51b815260206004820152603660248201527f52756d61682053616b69742079616e6720646970696c696820746964616b206160448201527535ba34b31030ba30ba903a34b230b5903b30b634b21760511b6064820152608490fd5b60405162461bcd60e51b8152602060048201526024808201527f416c616d617420696e6920746572646166746172207365626167616920646f6b6044820152633a32b91760e11b6064820152608490fd5b60405162461bcd60e51b8152602060048201526024808201527f416e64612073756461682074657264616674617220736562616761692070617360448201526334b2b71760e11b6064820152608490fd5b346102cf5760203660031901126102cf576001600160a01b036132aa614fe3565b16600052600060205260406000206132c181615332565b610d8b60ff600184015416926132d960028201615332565b906132f260046132eb60038401615332565b9201615332565b91604051958695866152a7565b346102cf5760003660031901126102cf576020600c54604051908152f35b346102cf57602060ff61334682613333366151e4565b8160405193828580945193849201615222565b8101600181520301902054166040519015158152f35b346102cf5760203660031901126102cf57610d8b61338061337b614fe3565b615b57565b604051918291602083526020830190615245565b346102cf5760203660031901126102cf576001600160a01b036133b5614fe3565b168060005260006020526133d061023d6040600020546152f8565b6000526000602052604060002060ff60018201541690610d8b6133f282615332565b916132d960028201615332565b346102cf5760003660031901126102cf57336000526020600081526134286040600020546152f8565b151580613566575b61343990615624565b6000906000600954905b81811061350d57506134548361583a565b92613462604051948561517d565b808452613471601f199161583a565b0136838501376000805b82811061349957505050610d8b60405192828493845283019061526a565b6134a281615089565b60018060a01b03809254600392831b1c1660005260068652338260086040600020015416146134dc575b50506134d790615acb565b61347b565b926135059183946134ef6134d795615089565b9054911b1c166134ff8289615b43565b52615acb565b9190866134cc565b61351681615089565b905460039190911b1c6001600160a01b039081166000908152600685526040902060080154163314613551575b61354c90615acb565b613443565b9261355e61354c91615acb565b939050613543565b50336000908152808252604090206001015460ff16613430565b346102cf5760403660031901126102cf57613599614fe3565b6135a1614ff9565b33600052602091600083526135ba6040600020546152f8565b15158061382e575b6135cb90615624565b60018060a01b038082169384600052600481526135ef60ff60406000205416615874565b8460005260039485825261360e338460056040600020015416146158c0565b82851692836000526007835261362b60ff60406000205416615a7f565b83600052600683528060086040600020015416338114908115613825575b50156137a2578360005260068352600860406000200180548281161561378d575b5050956000916000528083526004604060002001936000978554985b898110613757575b505050506136fb5750600160401b8410156109025782610433856136d89360017fd9a2627959a7f46a8b96c10424cdae1f1b65151551cd206b119aca54c0a86a5a980181556150f7565b604080516001600160a01b039283168152929091166020830152819081016104bc565b6084906040519062461bcd60e51b82526004820152602f60248201527f50617369656e20696e6920737564616820646974756761736b616e206b65206460448201526e37b5ba32b9103a32b939b2b13aba1760891b6064820152fd5b8282613763838a6150f7565b905490871b1c161461377d5761377890615acb565b613686565b505050505060018680808061368e565b6001600160a01b03191633179055878061366a565b60405162461bcd60e51b815260048101849052604f60248201527f50617369656e20696e6920746964616b2074657264616674617220646920727560448201527f6d61682073616b697420416e646120617461752073756461682064692d61737360648201526e34b3b71035b2902929903630b4b71760891b608482015260a490fd5b90501588613649565b50336000908152808452604090206001015460ff166135c2565b346102cf5760003660031901126102cf576040518060025480825282602080930160026000527f405787fa12a823e0f2b7631cc41b3ba8828b3321ca811111fa75cd3aa3bb5ace9260005b858282106138aa57505050611e8e9250038361517d565b85546001600160a01b0316845260019586019588955093019201613893565b346102cf576020806003193601126102cf576138e3614fe3565b9033600052600081526138fa6040600020546152f8565b151580613bb8575b61390b90615624565b60018060a01b038092168060005260069081835233846008604060002001541603613b5957600052600b82526040600020908154906139498261583a565b92613957604051948561517d565b828452601f196139668461583a565b018560005b828110613b0f5750505060005b838110613a5b575050505060405191808301818452825180915260408401918060408360051b8701019401926000965b8388106139b55786860387f35b90919293948380613a4a600193603f198b8203018752895190815181528684830151168482015260e0613a23613a106139fd6040860151610100806040880152860190615245565b6060808701519086830390870152615245565b6080808601519085830390860152615245565b9260a08981830151169084015260c0808201519084015201519060e0818403910152615245565b9701930197019690939291936139a8565b80613a69613b0a92846150f7565b9054600391821b1c600052600a8852613aea60076040600020613ab960405194613a928661512b565b825486528d6001840154168d870152613aad60028401615332565b60408701528201615332565b6060850152613aca60048201615332565b60808501528b60058201541660a08501528781015460c085015201615332565b60e0820152613af98288615b43565b52613b048187615b43565b50615acb565b613978565b604051613b1b8161512b565b6000815260008382015260608060408301528080830152806080830152600060a0830152600060c083015260e082015282828901015201869061396b565b60405162461bcd60e51b815260048101849052603160248201527f416e646120746964616b2062657268616b206d656c696861742072656b616d2060448201527036b2b234b9903830b9b4b2b71034b7349760791b6064820152608490fd5b50336000908152808252604090206001015460ff16613902565b346102cf5760203660031901126102cf576001600160a01b03613bf3614fe3565b166000526007602052602060ff604060002054166040519015158152f35b346102cf57602060ff613c2782613333366151e4565b8101600881520301902054166040519015158152f35b346102cf5760203660031901126102cf57600435600554811015613c665761159460209161503c565b60405162461bcd60e51b815260206004820152601a60248201527f496e64656b7320646f6b74657220746964616b2076616c69642e0000000000006044820152606490fd5b346102cf5760e03660031901126102cf576004356001600160401b0381116102cf57613cdb90369060040161500f565b6101805260a0526024356001600160401b0381116102cf57613d0190369060040161500f565b906044356001600160401b0381116102cf57613d2190369060040161500f565b906064356001600160401b0381116102cf57613d4190369060040161500f565b906084356001600160401b0381116102cf57613d6190369060040161500f565b92909360a4356001600160401b0381116102cf57613d8390369060040161500f565b96909760c4356001600160401b0381116102cf57613da590369060040161500f565b906101a05261012052336000526007602052613dc860ff60406000205416615a33565b3360005260066020526040600020610180516001600160401b03811161090257613df690610e7f83546152f8565b600061018051601f81116001146143c5575060006101805191826143b8575b508160011b916000199060031b1c19161781555b6001600160401b038b1161090257613e488b610ec560028401546152f8565b8a6000601f82116001146143475760009161433c575b508b60011b906000198d60031b1c19161760028201555b6001600160401b0383116109025760038101613e9584610e7f83546152f8565b836000601f82116001146142d7576000916142cc575b508460011b906000198660031b1c19161790555b6001600160401b03851161090257613ee785613ede60048401546152f8565b6004840161577c565b846000601f821160011461425e57600091614253575b508560011b906000198760031b1c19161760048201555b6001600160401b03871161090257613f3c87613f3360058401546152f8565b6005840161577c565b866000601f82116001146141e3576000916141d8575b508760011b906000198960031b1c19161760058201555b6001600160401b03891161090257613f9189613f8860068401546152f8565b6006840161577c565b886000601f82116001146141685760009161415d575b508960011b906000198b60031b1c19161760068201555b610120516001600160401b03811161090257613fea90613fe160078401546152f8565b6007840161577c565b6101205160006001601f8311146140eb576007915060006101205191826140dd575b508160011b916000199060031b1c1916179101555b6040519960e08b5260e08b01610180519060a0519161403f926157c1565b908b820360208d0152614051926157c1565b9089820360408b0152614063926157c1565b908782036060890152614075926157c1565b908582036080870152614087926157c1565b9083820360a0850152614099926157c1565b81810360c0830152610120516101a05133939283926140b7926157c1565b037f5bf1a01557f5d2a881b530f82df1618e3c06d1a0b7ab3be7ff74e54ead39bd3491a2005b90506101a05101358e61400c565b600783016000526020600020906000601f198416905b818110614142575091839160079460019410614125575b5050811b01910155614021565b6101a0510135600019600384901b60f8161c191690558e80614118565b9192602060018192866101a051013581550194019201614101565b90508a01358c613fa7565b90506006820160005260206000209060005b8c601f198d1682106141c05750508a601f198116106141a6575b5050600189811b016006820155613fbe565b8b013560001960038c901b60f8161c191690558b80614194565b6001839460209394849301358155019301910161417a565b90508801358c613f52565b90506005820160005260206000209060005b8a601f198b16821061423b57505088601f19811610614221575b5050600187811b016005820155613f69565b89013560001960038a901b60f8161c191690558b8061420f565b600183946020939484930135815501930191016141f5565b90508601358c613efd565b90506004820160005260206000209060005b601f19881681106142b4575086601f1981161061429a575b5050600185811b016004820155613f14565b870135600019600388901b60f8161c191690558b80614288565b9091602060018192858c013581550193019101614270565b90508501358d613eab565b60008381526020812092505b601f1987168110614324575085601f1981161061430a575b5050600184811b019055613ebf565b860135600019600387901b60f8161c191690558c806142fb565b9091602060018192858b0135815501930191016142e3565b90508201358c613e5e565b9050601f198c1690600283016000528c60206000209260005b81811061439a575010614380575b505060018b811b016002820155613e75565b83013560001960038e901b60f8161c191690558b8061436e565b92936020919250600182918689013581550194019201908e91614360565b905060a05101358d613e15565b9082600052602060002090600090601f19841660a051925b81811061441a5750908460019594939210614400575b505050811b018155613e29565b0135600019600384901b60f8161c191690558d80806143f3565b919360206001819287870135815501950192016143dd565b346102cf5760403660031901126102cf5761444b614fe3565b6001600160a01b03166000908152600b60205260409020805460243591908210156102cf5760209161447c916150f7565b90546040519160031b1c8152f35b346102cf5760803660031901126102cf576144a3614fe3565b6024356001600160401b0381116102cf576144c290369060040161500f565b906044356001600160401b0381116102cf576144e290369060040161500f565b9390916064356001600160a01b03811690036102cf5733600052600060205261450f6040600020546152f8565b151580614fc3575b61452090615624565b6001600160a01b03821660009081526007602052604090205460ff16614f6c576001600160a01b03821660009081526004602052604090205460ff16614f015761456b851515615970565b61458d60ff6040518786823760208189810160088152030190205416156159bc565b6064356001600160a01b031660009081526020819052604090206001015460ff1615614eb1576064356001600160a01b03163303614e3b576001600160a01b03821660009081526007602052604090819020805460ff1916600117905551946145f58661510f565b61460036868461519e565b865261460d36828661519e565b602087015260405161461e81615147565b60008152604087015260405161463381615147565b60008152606087015260405161464881615147565b60008152608087015260405161465d81615147565b6000815260a087015260405161467281615147565b6000815260c087015260405161468781615147565b600080825260e08801919091526001600160a01b0360643581166101008901528416815260066020526040902086518051919791906001600160401b0382116109025781906146e0826146da8c546152f8565b8c61577c565b602090601f8311600114614dcf57600092614dc4575b50508160011b916000199060031b1c19161787555b60208101518051906001600160401b03821161090257819061473d8261473460018d01546152f8565b60018d0161577c565b602090601f8311600114614d5257600092614d47575b50508160011b916000199060031b1c19161760018801555b60408101518051906001600160401b03821161090257819061479d8261479460028d01546152f8565b60028d0161577c565b602090601f8311600114614cd557600092614cca575b50508160011b916000199060031b1c19161760028801555b60608101518051906001600160401b0382116109025781906147fd826147f460038d01546152f8565b60038d0161577c565b602090601f8311600114614c5857600092614c4d575b50508160011b916000199060031b1c19161760038801555b60808101518051906001600160401b03821161090257819061485d8261485460048d01546152f8565b60048d0161577c565b602090601f8311600114614bdb57600092614bd0575b50508160011b916000199060031b1c19161760048801555b60a08101518051906001600160401b0382116109025781906148bd826148b460058d01546152f8565b60058d0161577c565b602090601f8311600114614b5e57600092614b53575b50508160011b916000199060031b1c19161760058801555b60c08101518051906001600160401b03821161090257819061491d8261491460068d01546152f8565b60068d0161577c565b602090601f8311600114614ae157600092614ad6575b50508160011b916000199060031b1c19161760068801555b60e08101519687516001600160401b0381116109025761497281612cf060078501546152f8565b6020601f8211600114614a3c5791816008926114b4979695947f34288a60ac94463b3bd2c594dc78c87cba02f1270cf853cee3a2912bf04372379b9c600092614a31575b50508160011b916000199060031b1c19161760078201555b019061010060018060a01b03910151166001600160601b0360a01b8254161790556149f884615851565b604051818682376020818381016008815203019020600160ff1982541617905560405194859460018060a01b0316976064359386615a08565b015190508c806149b6565b6007830160005260206000209960005b601f1984168110614abe5750827f34288a60ac94463b3bd2c594dc78c87cba02f1270cf853cee3a2912bf04372379a9b6114b49897969593600193600896601f19811610614aa5575b505050811b0160078201556149ce565b015160001960f88460031b161c191690558c8080614a95565b828201518c556001909b019a60209283019201614a4c565b015190508980614933565b925060068a016000526020600020906000935b601f1984168510614b38576001945083601f19811610614b1f575b505050811b01600688015561494b565b015160001960f88460031b161c19169055898080614b0f565b81810151835560209485019460019093019290910190614af4565b0151905089806148d3565b925060058a016000526020600020906000935b601f1984168510614bb5576001945083601f19811610614b9c575b505050811b0160058801556148eb565b015160001960f88460031b161c19169055898080614b8c565b81810151835560209485019460019093019290910190614b71565b015190508980614873565b925060048a016000526020600020906000935b601f1984168510614c32576001945083601f19811610614c19575b505050811b01600488015561488b565b015160001960f88460031b161c19169055898080614c09565b81810151835560209485019460019093019290910190614bee565b015190508980614813565b925060038a016000526020600020906000935b601f1984168510614caf576001945083601f19811610614c96575b505050811b01600388015561482b565b015160001960f88460031b161c19169055898080614c86565b81810151835560209485019460019093019290910190614c6b565b0151905089806147b3565b925060028a016000526020600020906000935b601f1984168510614d2c576001945083601f19811610614d13575b505050811b0160028801556147cb565b015160001960f88460031b161c19169055898080614d03565b81810151835560209485019460019093019290910190614ce8565b015190508980614753565b925060018a016000526020600020906000935b601f1984168510614da9576001945083601f19811610614d90575b505050811b01600188015561476b565b015160001960f88460031b161c19169055898080614d80565b81810151835560209485019460019093019290910190614d65565b0151905089806146f6565b9250896000526020600020906000935b601f1984168510614e20576001945083601f19811610614e07575b505050811b01875561470b565b015160001960f88460031b161c19169055898080614dfa565b81810151835560209485019460019093019290910190614ddf565b60405162461bcd60e51b815260206004820152604260248201527f48616e79612061646d696e2052532070656e616e6767756e67206a617761622060448201527f79616e672062697361206d656e6461667461726b616e2070617369656e20696e606482015261349760f11b608482015260a490fd5b60405162461bcd60e51b815260206004820152602260248201527f41646d696e2052532079616e6720646972756a756b20746964616b20616b7469604482015261331760f11b6064820152608490fd5b60405162461bcd60e51b815260206004820152603f60248201527f416c616d617420696e6920746572646166746172207365626167616920646f6b60448201527f7465722c20746964616b2062697361206d656e6a6164692070617369656e2e006064820152608490fd5b60405162461bcd60e51b815260206004820152602960248201527f50617369656e207375646168207465726461667461722064656e67616e20616c60448201526830b6b0ba1034b7349760b91b6064820152608490fd5b5033600052600060205261452060ff600160406000200154169050614517565b600435906001600160a01b03821682036102cf57565b602435906001600160a01b03821682036102cf57565b9181601f840112156102cf578235916001600160401b0383116102cf57602083818601950101116102cf57565b6005548110156150735760056000527f036b6384b5eca791c62761152d0c79bb0604c104a5fb6f4eb0703f3154bb3db00190600090565b634e487b7160e01b600052603260045260246000fd5b6009548110156150735760096000527f6e1540171b6c0c960b71a7020d9f60077f6af931a8bbf590da0223dacf75c7af0190600090565b6002548110156150735760026000527f405787fa12a823e0f2b7631cc41b3ba8828b3321ca811111fa75cd3aa3bb5ace0190600090565b80548210156150735760005260206000200190600090565b61012081019081106001600160401b0382111761090257604052565b61010081019081106001600160401b0382111761090257604052565b602081019081106001600160401b0382111761090257604052565b604081019081106001600160401b0382111761090257604052565b90601f801991011681019081106001600160401b0382111761090257604052565b9291926001600160401b03821161090257604051916151c7601f8201601f19166020018461517d565b8294818452818301116102cf578281602093846000960137010152565b60206003198201126102cf57600435906001600160401b0382116102cf57806023830112156102cf5781602461521f9360040135910161519e565b90565b60005b8381106152355750506000910152565b8181015183820152602001615225565b9060209161525e81518092818552858086019101615222565b601f01601f1916010190565b90815180825260208080930193019160005b82811061528a575050505090565b83516001600160a01b03168552938101939281019260010161527c565b93906152ea9261521f96946152c76152dc9360a0895260a0890190615245565b91151560208801528682036040880152615245565b908482036060860152615245565b916080818403910152615245565b90600182811c92168015615328575b602083101461531257565b634e487b7160e01b600052602260045260246000fd5b91607f1691615307565b9060405191826000825492615346846152f8565b9081845260019485811690816000146153b55750600114615372575b50506153709250038361517d565b565b9093915060005260209081600020936000915b81831061539d57505061537093508201013880615362565b85548884018501529485019487945091830191615385565b91505061537094506020925060ff191682840152151560051b8201013880615362565b9060a06003198301126102cf576004356001600160a01b03811681036102cf57916001600160401b03906024358281116102cf57816154199160040161500f565b939093926044358181116102cf57836154349160040161500f565b939093926064358381116102cf578261544f9160040161500f565b939093926084359182116102cf576154699160040161500f565b9091565b949061521f989697946154a46154c094956154b293895260018060a01b0380971660208a01526101008060408b0152890190615245565b908782036060890152615245565b908582036080870152615245565b941660a083015260c082015260e0818403910152615245565b9794615547906155396155639661552b8c9d9e9d6101009c9861551d6155559961550f6155719f9a610120808752860190615245565b908482036020860152615245565b916040818403910152615245565b8c810360608e015290615245565b908a820360808c0152615245565b9088820360a08a0152615245565b9086820360c0880152615245565b9084820360e0860152615245565b6001600160a01b03909416910152565b60409060031901126102cf576004356001600160a01b03811681036102cf579060243580151581036102cf5790565b60806003198201126102cf576004356001600160a01b03811681036102cf57916001600160401b036024358181116102cf57836155ef9160040161500f565b939093926044358381116102cf578261560a9160040161500f565b939093926064359182116102cf576154699160040161500f565b1561562b57565b60405162461bcd60e51b815260206004820152603c60248201527f48616e79612061646d696e2052532079616e6720616b7469662079616e67206460448201527f61706174206d656e6a616c616e6b616e2066756e67736920696e692e000000006064820152608490fd5b1561569d57565b60405162461bcd60e51b815260206004820152601960248201527f41646d696e20525320746964616b20646974656d756b616e2e000000000000006044820152606490fd5b6000929181546156f1816152f8565b9260019180831690811561574a575060011461570e575b50505050565b90919293945060005260209081600020906000915b8583106157395750505050019038808080615708565b805485840152918301918101615723565b60ff1916845250505081151590910201915038808080615708565b818110615770575050565b60008155600101615765565b9190601f811161578b57505050565b615370926000526020600020906020601f840160051c830193106157b7575b601f0160051c0190615765565b90915081906157aa565b908060209392818452848401376000828201840152601f01601f1916010190565b9060405191828154918282526020928383019160005283600020936000905b828210615817575050506153709250038361517d565b85546001600160a01b031684526001958601958895509381019390910190615801565b6001600160401b0381116109025760051b60200190565b60095490600160401b821015610902576104338260016153709401600955615089565b1561587b57565b60405162461bcd60e51b815260206004820152601760248201527f446f6b74657220746964616b207465726461667461722e0000000000000000006044820152606490fd5b156158c757565b60405162461bcd60e51b815260206004820152602f60248201527f446f6b74657220696e6920746964616b2074657264616674617220646920727560448201526e36b0b41039b0b5b4ba1020b732309760891b6064820152608490fd5b1561592b57565b60405162461bcd60e51b815260206004820152601760248201527f446f6b74657220746964616b20646974656d756b616e2e0000000000000000006044820152606490fd5b1561597757565b60405162461bcd60e51b815260206004820152601d60248201527f49442050617369656e20746964616b20626f6c6568206b6f736f6e672e0000006044820152606490fd5b156159c357565b60405162461bcd60e51b815260206004820152601a60248201527f49442050617369656e20737564616820646967756e616b616e2e0000000000006044820152606490fd5b93615a2560409492615571949897986060885260608801916157c1565b9185830360208701526157c1565b15615a3a57565b60405162461bcd60e51b815260206004820152601760248201527f50617369656e20746964616b20646974656d756b616e2e0000000000000000006044820152606490fd5b15615a8657565b60405162461bcd60e51b815260206004820152601760248201527f50617369656e20746964616b207465726461667461722e0000000000000000006044820152606490fd5b600019811461052b5760010190565b9060018060a01b038092166000526003918260205260046040600020016000938154945b858110615b1057505050505050600090565b83615b1b82856150f7565b905490841b1c1684861614615b3857615b3390615acb565b615afe565b505050505050600190565b80518210156150735760209160051b010190565b60018060a01b0316600081815260ff6020928284526040928391615b7d838320546152f8565b615c2f5780825260048652838383205416615be057815260078552205416615bc057662ab735b737bbb760c91b905191615bb683615162565b6007835282015290565b652830b9b4b2b760d11b905191615bd683615162565b6006835282015290565b50600380865291902001541615615c0757652237b5ba32b960d11b905191615bd683615162565b6d24b730b1ba34bb32a237b5ba32b960911b905191615c2583615162565b600e835282015290565b815280855220600101541615615c56576641646d696e525360c81b905191615bb683615162565b6e496e61637469766541646d696e525360881b905191615c7583615162565b600f83528201529056fea2646970667358221220dd81d18277b16bd87979f042317d20d8b9f683852db279d75dd1150467fd82ce64736f6c63430008130033705805f9c18a9381be07edab4bcec28612355cb4fbde7b07f1fd23fee18aada8",
  "immutableReferences": {},
  "source": "// SPDX-License-Identifier: MIT\r\npragma solidity ^0.8.0;\r\n\r\ncontract RekamMedisRS {\r\n    struct AdminRS {\r\n        string namaRumahSakit;\r\n        bool aktif;\r\n        string alamatRumahSakit;\r\n        string kota;\r\n        string NIBRS;\r\n    }\r\n    mapping(address => AdminRS) public dataAdmin;\r\n    mapping(string => bool) public isNIBRSUsed;\r\n    address[] public daftarAdmin;\r\n\r\n    struct Dokter {\r\n        string nama;\r\n        string spesialisasi;\r\n        string nomorLisensi;\r\n        bool aktif;\r\n        address[] assignedPasien;\r\n        address adminRS;\r\n    }\r\n    mapping(address => Dokter) public dataDokter;\r\n    mapping(address => bool) public isDokter;\r\n    address[] public daftarDokter;\r\n\r\n    struct Pasien {\r\n        string nama;\r\n        string ID;\r\n        string golonganDarah;\r\n        string tanggalLahir;\r\n        string gender;\r\n        string alamat;\r\n        string noTelepon;\r\n        string email;\r\n        address rumahSakitPenanggungJawab;\r\n    }\r\n    mapping(address => Pasien) public dataPasien;\r\n    mapping(address => bool) public isPasien;\r\n    mapping(string => bool) public isPatientIDUsed;\r\n    address[] public daftarPasien;\r\n\r\n    struct RekamMedisData {\r\n        uint id;\r\n        address pasien;\r\n        string diagnosa;\r\n        string foto;\r\n        string catatan;\r\n        address pembuat;\r\n        uint256 timestampPembuatan;\r\n        string tipeRekamMedis;\r\n    }\r\n    mapping(uint => RekamMedisData) public rekamMedis;\r\n    mapping(address => uint[]) public rekamMedisByPasien;\r\n    uint public rekamMedisCount;\r\n\r\n    event AdminRSTerdaftar(\r\n        address indexed admin,\r\n        string namaRumahSakit,\r\n        string alamatRumahSakit,\r\n        string kota,\r\n        string NIBRS\r\n    );\r\n    event AdminRSStatusDiubah(address indexed admin, bool aktif);\r\n\r\n    event AdminRSInfoDiperbarui(\r\n        address indexed admin,\r\n        string namaRumahSakit,\r\n        string alamatRumahSakit,\r\n        string kota,\r\n        string NIBRS\r\n    );\r\n\r\n    event DokterTerdaftar(address indexed dokter, string nama, address adminRS);\r\n    event DokterStatusDiubah(address indexed dokter, bool aktif);\r\n    event DokterInfoDiperbarui(\r\n        address indexed dokter,\r\n        string nama,\r\n        string spesialisasi,\r\n        string nomorLisensi,\r\n        address indexed adminRS\r\n    );\r\n    event PasienTerdaftar(\r\n        address indexed pasien,\r\n        string nama,\r\n        string IDPasien,\r\n        address adminRS\r\n    );\r\n    event PasienPindahRS(\r\n        address indexed pasien,\r\n        address oldAdminRS,\r\n        address newAdminRS\r\n    );\r\n    event PasienDiassignKeDokter(address dokter, address pasien);\r\n    event PasienDiunassignDariDokter(address dokter, address pasien);\r\n\r\n    event RekamMedisDitambahkan(\r\n        uint id,\r\n        address pasien,\r\n        string diagnosa,\r\n        string foto,\r\n        string catatan,\r\n        string tipeRekamMedis,\r\n        address pembuat,\r\n        uint timestamp\r\n    );\r\n\r\n    event PasienDataDiperbarui(\r\n        address indexed pasien,\r\n        string nama,\r\n        string golonganDarah,\r\n        string tanggalLahir,\r\n        string gender,\r\n        string alamat,\r\n        string noTelepon,\r\n        string email\r\n    );\r\n\r\n    constructor() {\r\n        // Tambahkan Admin RS pertama\r\n        address admin1 = 0x153f67a7B7169Ce3F13F8A81DC9CAe0bC27dbf21;\r\n        string memory namaRS1 = \"RS Siloam Malang\";\r\n        string memory alamatRS1 = \"Jl. Raya Langsep No. 2, Malang\";\r\n        string memory kotaRS1 = \"Malang\";\r\n        string memory NIBRS1 = \"NIBRS-SM001\";\r\n\r\n        dataAdmin[admin1] = AdminRS({\r\n            namaRumahSakit: namaRS1,\r\n            aktif: true,\r\n            alamatRumahSakit: alamatRS1,\r\n            kota: kotaRS1,\r\n            NIBRS: NIBRS1\r\n        });\r\n        daftarAdmin.push(admin1);\r\n        isNIBRSUsed[NIBRS1] = true;\r\n        emit AdminRSTerdaftar(admin1, namaRS1, alamatRS1, kotaRS1, NIBRS1);\r\n\r\n        // Tambahkan Admin RS kedua\r\n        address admin2 = 0xd95A4eE9149fcb31C535eF6CbD65f4c23d9f7997;\r\n        string memory namaRS2 = \"RS Siloam Yogya\";\r\n        string memory alamatRS2 = \"Jl. Laksda Adisucipto No. 32, Yogyakarta\";\r\n        string memory kotaRS2 = \"Yogyakarta\";\r\n        string memory NIBRS2 = \"NIBRS-SY001\";\r\n\r\n        dataAdmin[admin2] = AdminRS({\r\n            namaRumahSakit: namaRS2,\r\n            aktif: true,\r\n            alamatRumahSakit: alamatRS2,\r\n            kota: kotaRS2,\r\n            NIBRS: NIBRS2\r\n        });\r\n        daftarAdmin.push(admin2);\r\n        isNIBRSUsed[NIBRS2] = true;\r\n        emit AdminRSTerdaftar(admin2, namaRS2, alamatRS2, kotaRS2, NIBRS2);\r\n    }\r\n\r\n    modifier hanyaAdminRS() {\r\n        require(\r\n            bytes(dataAdmin[msg.sender].namaRumahSakit).length > 0 &&\r\n                dataAdmin[msg.sender].aktif,\r\n            \"Hanya admin RS yang aktif yang dapat menjalankan fungsi ini.\"\r\n        );\r\n        _;\r\n    }\r\n\r\n    modifier hanyaDokterAktif() {\r\n        require(\r\n            isDokter[msg.sender] && dataDokter[msg.sender].aktif,\r\n            \"Hanya dokter yang aktif yang dapat menjalankan fungsi ini.\"\r\n        );\r\n        _;\r\n    }\r\n\r\n    modifier hanyaDokterAktifUntukPasien(address _pasien) {\r\n        require(\r\n            isDokter[msg.sender] && dataDokter[msg.sender].aktif,\r\n            \"Hanya dokter aktif.\"\r\n        );\r\n        require(isPasien[_pasien], \"Pasien tidak terdaftar.\");\r\n        require(\r\n            dataDokter[msg.sender].adminRS ==\r\n                dataPasien[_pasien].rumahSakitPenanggungJawab,\r\n            \"Dokter dan pasien tidak berada di rumah sakit yang sama.\"\r\n        );\r\n        bool assigned = false;\r\n        address[] storage listPasienDitugaskan = dataDokter[msg.sender]\r\n            .assignedPasien;\r\n        for (uint i = 0; i < listPasienDitugaskan.length; i++) {\r\n            if (listPasienDitugaskan[i] == _pasien) {\r\n                assigned = true;\r\n                break;\r\n            }\r\n        }\r\n        require(\r\n            assigned,\r\n            \"Dokter ini tidak ditugaskan untuk menangani pasien tersebut.\"\r\n        );\r\n        _;\r\n    }\r\n\r\n    modifier hanyaPasien(address _pasien) {\r\n        require(\r\n            msg.sender == _pasien,\r\n            \"Hanya pasien yang bersangkutan yang dapat menjalankan fungsi ini.\"\r\n        );\r\n        _;\r\n    }\r\n\r\n    // Fungsi updateAdminRSDetails agar Admin RS bisa memperbarui detailnya sendiri\r\n    function updateAdminRSDetails(\r\n        address _admin,\r\n        string calldata _namaBaru,\r\n        string calldata _alamatBaru,\r\n        string calldata _kotaBaru,\r\n        string calldata _NIBRSBaru\r\n    ) external hanyaAdminRS {\r\n        require(\r\n            msg.sender == _admin,\r\n            \"Anda hanya bisa memperbarui detail rumah sakit Anda sendiri.\"\r\n        );\r\n\r\n        require(\r\n            bytes(dataAdmin[_admin].namaRumahSakit).length != 0,\r\n            \"Admin RS tidak ditemukan.\"\r\n        );\r\n        require(\r\n            bytes(_namaBaru).length > 0,\r\n            \"Nama Rumah Sakit baru tidak boleh kosong.\"\r\n        );\r\n        require(bytes(_NIBRSBaru).length > 0, \"NIBRS baru tidak boleh kosong.\");\r\n\r\n        if (\r\n            keccak256(abi.encodePacked(dataAdmin[_admin].NIBRS)) !=\r\n            keccak256(abi.encodePacked(_NIBRSBaru))\r\n        ) {\r\n            require(\r\n                !isNIBRSUsed[_NIBRSBaru],\r\n                \"NIBRS baru sudah digunakan oleh Admin RS lain.\"\r\n            );\r\n            if (bytes(dataAdmin[_admin].NIBRS).length > 0) {\r\n                isNIBRSUsed[dataAdmin[_admin].NIBRS] = false;\r\n            }\r\n            isNIBRSUsed[_NIBRSBaru] = true;\r\n        }\r\n\r\n        AdminRS storage adminToUpdate = dataAdmin[_admin];\r\n        adminToUpdate.namaRumahSakit = _namaBaru;\r\n        adminToUpdate.alamatRumahSakit = _alamatBaru;\r\n        adminToUpdate.kota = _kotaBaru;\r\n        adminToUpdate.NIBRS = _NIBRSBaru;\r\n\r\n        emit AdminRSInfoDiperbarui(\r\n            _admin,\r\n            _namaBaru,\r\n            _alamatBaru,\r\n            _kotaBaru,\r\n            _NIBRSBaru\r\n        );\r\n    }\r\n\r\n    function setStatusAdminRS(address _admin, bool _aktif) external {\r\n        // <-- HAPUS `hanyaAdminRS` dari sini\r\n        // Pemeriksaan dilakukan di dalam, memastikan hanya pemilik akun yang bisa mengubah statusnya sendiri\r\n        require(\r\n            msg.sender == _admin,\r\n            \"Anda hanya bisa mengubah status Anda sendiri.\"\r\n        );\r\n        require(\r\n            bytes(dataAdmin[_admin].namaRumahSakit).length != 0,\r\n            \"Admin RS tidak ditemukan.\"\r\n        );\r\n        dataAdmin[_admin].aktif = _aktif;\r\n        emit AdminRSStatusDiubah(_admin, _aktif);\r\n    }\r\n\r\n    function getAllAdminRSAddresses() external view returns (address[] memory) {\r\n        return daftarAdmin;\r\n    }\r\n\r\n    function totalAdmin() external view returns (uint) {\r\n        return daftarAdmin.length;\r\n    }\r\n\r\n    function getAdminByIndex(uint idx) external view returns (address) {\r\n        require(idx < daftarAdmin.length, \"Indeks admin RS tidak valid.\");\r\n        return daftarAdmin[idx];\r\n    }\r\n\r\n    function getAdminRS(\r\n        address _admin\r\n    )\r\n        external\r\n        view\r\n        returns (\r\n            string memory namaRumahSakit,\r\n            bool aktif,\r\n            string memory alamatRumahSakit,\r\n            string memory kota,\r\n            string memory NIBRS\r\n        )\r\n    {\r\n        require(\r\n            bytes(dataAdmin[_admin].namaRumahSakit).length > 0,\r\n            \"Admin RS tidak ditemukan.\"\r\n        );\r\n        AdminRS storage adminData = dataAdmin[_admin];\r\n        return (\r\n            adminData.namaRumahSakit,\r\n            adminData.aktif,\r\n            adminData.alamatRumahSakit,\r\n            adminData.kota,\r\n            adminData.NIBRS\r\n        );\r\n    }\r\n\r\n    function registerDokter(\r\n        address _dokter,\r\n        string calldata _nama,\r\n        string calldata _spesialisasi,\r\n        string calldata _nomorLisensi\r\n    ) external hanyaAdminRS {\r\n        require(\r\n            !isDokter[_dokter],\r\n            \"Alamat ini sudah terdaftar sebagai dokter.\"\r\n        );\r\n        require(\r\n            !isPasien[_dokter],\r\n            \"Alamat ini terdaftar sebagai pasien, tidak bisa menjadi dokter.\"\r\n        );\r\n        isDokter[_dokter] = true;\r\n        dataDokter[_dokter] = Dokter({\r\n            nama: _nama,\r\n            spesialisasi: _spesialisasi,\r\n            nomorLisensi: _nomorLisensi,\r\n            aktif: true,\r\n            assignedPasien: new address[](0),\r\n            adminRS: msg.sender\r\n        });\r\n        daftarDokter.push(_dokter);\r\n        emit DokterTerdaftar(_dokter, _nama, msg.sender);\r\n    }\r\n\r\n    function updateDokterInfo(\r\n        address _dokter,\r\n        string calldata _namaBaru,\r\n        string calldata _spesialisasiBaru,\r\n        string calldata _nomorLisensiBaru\r\n    ) external hanyaAdminRS {\r\n        require(isDokter[_dokter], \"Dokter tidak terdaftar di sistem.\");\r\n        require(\r\n            dataDokter[_dokter].adminRS == msg.sender,\r\n            \"Anda bukan admin RS yang berhak untuk dokter ini.\"\r\n        );\r\n\r\n        Dokter storage dokterToUpdate = dataDokter[_dokter];\r\n        dokterToUpdate.nama = _namaBaru;\r\n        dokterToUpdate.spesialisasi = _spesialisasiBaru;\r\n        dokterToUpdate.nomorLisensi = _nomorLisensiBaru;\r\n\r\n        emit DokterInfoDiperbarui(\r\n            _dokter,\r\n            _namaBaru,\r\n            _spesialisasiBaru,\r\n            _nomorLisensiBaru,\r\n            msg.sender\r\n        );\r\n    }\r\n\r\n    function setStatusDokter(\r\n        address _dokter,\r\n        bool _aktif\r\n    ) external hanyaAdminRS {\r\n        require(isDokter[_dokter], \"Dokter tidak terdaftar.\");\r\n        require(\r\n            dataDokter[_dokter].adminRS == msg.sender,\r\n            \"Dokter ini tidak terdaftar di rumah sakit Anda.\"\r\n        );\r\n        dataDokter[_dokter].aktif = _aktif;\r\n        emit DokterStatusDiubah(_dokter, _aktif);\r\n    }\r\n\r\n    function totalDokter() external view returns (uint) {\r\n        return daftarDokter.length;\r\n    }\r\n\r\n    function getDokterByIndex(uint idx) external view returns (address) {\r\n        require(idx < daftarDokter.length, \"Indeks dokter tidak valid.\");\r\n        return daftarDokter[idx];\r\n    }\r\n\r\n    function getDokter(\r\n        address _dokter\r\n    )\r\n        external\r\n        view\r\n        returns (\r\n            string memory nama,\r\n            string memory spesialisasi,\r\n            string memory nomorLisensi,\r\n            bool aktif,\r\n            address[] memory pasienList,\r\n            address adminRS\r\n        )\r\n    {\r\n        require(isDokter[_dokter], \"Dokter tidak ditemukan.\");\r\n        Dokter storage d = dataDokter[_dokter];\r\n        return (\r\n            d.nama,\r\n            d.spesialisasi,\r\n            d.nomorLisensi,\r\n            d.aktif,\r\n            d.assignedPasien,\r\n            d.adminRS\r\n        );\r\n    }\r\n\r\n    function getAssignedPatients(\r\n        address _dokter\r\n    ) external view returns (address[] memory) {\r\n        require(isDokter[_dokter], \"Dokter tidak ditemukan.\");\r\n        return dataDokter[_dokter].assignedPasien;\r\n    }\r\n\r\n    function registerPasien(\r\n        address _pasien,\r\n        string calldata _nama,\r\n        string calldata _IDPasien,\r\n        address _adminRS\r\n    ) external hanyaAdminRS {\r\n        require(\r\n            !isPasien[_pasien],\r\n            \"Pasien sudah terdaftar dengan alamat ini.\"\r\n        );\r\n        require(\r\n            !isDokter[_pasien],\r\n            \"Alamat ini terdaftar sebagai dokter, tidak bisa menjadi pasien.\"\r\n        );\r\n        require(bytes(_IDPasien).length > 0, \"ID Pasien tidak boleh kosong.\");\r\n        require(!isPatientIDUsed[_IDPasien], \"ID Pasien sudah digunakan.\");\r\n\r\n        require(\r\n            dataAdmin[_adminRS].aktif,\r\n            \"Admin RS yang dirujuk tidak aktif.\"\r\n        );\r\n        require(\r\n            msg.sender == _adminRS,\r\n            \"Hanya admin RS penanggung jawab yang bisa mendaftarkan pasien ini.\"\r\n        );\r\n\r\n        isPasien[_pasien] = true;\r\n        dataPasien[_pasien] = Pasien({\r\n            nama: _nama,\r\n            ID: _IDPasien,\r\n            golonganDarah: \"\",\r\n            tanggalLahir: \"\",\r\n            gender: \"\",\r\n            alamat: \"\",\r\n            noTelepon: \"\",\r\n            email: \"\",\r\n            rumahSakitPenanggungJawab: _adminRS\r\n        });\r\n        daftarPasien.push(_pasien);\r\n        isPatientIDUsed[_IDPasien] = true;\r\n        emit PasienTerdaftar(_pasien, _nama, _IDPasien, _adminRS);\r\n    }\r\n\r\n    function selfRegisterPasien(\r\n        string calldata _nama,\r\n        string calldata _IDPasien,\r\n        string calldata _golonganDarah,\r\n        string calldata _tanggalLahir,\r\n        string calldata _gender,\r\n        string calldata _alamat,\r\n        string calldata _noTelepon,\r\n        string calldata _email,\r\n        address _adminRS\r\n    ) external {\r\n        require(!isPasien[msg.sender], \"Anda sudah terdaftar sebagai pasien.\");\r\n        require(!isDokter[msg.sender], \"Alamat ini terdaftar sebagai dokter.\");\r\n        require(bytes(_IDPasien).length > 0, \"ID Pasien tidak boleh kosong.\");\r\n        require(!isPatientIDUsed[_IDPasien], \"ID Pasien sudah digunakan.\");\r\n        require(\r\n            dataAdmin[_adminRS].aktif,\r\n            \"Rumah Sakit yang dipilih tidak aktif atau tidak valid.\"\r\n        );\r\n\r\n        isPasien[msg.sender] = true;\r\n        dataPasien[msg.sender] = Pasien({\r\n            nama: _nama,\r\n            ID: _IDPasien,\r\n            golonganDarah: _golonganDarah,\r\n            tanggalLahir: _tanggalLahir,\r\n            gender: _gender,\r\n            alamat: _alamat,\r\n            noTelepon: _noTelepon,\r\n            email: _email,\r\n            rumahSakitPenanggungJawab: _adminRS\r\n        });\r\n        daftarPasien.push(msg.sender);\r\n        isPatientIDUsed[_IDPasien] = true;\r\n        emit PasienTerdaftar(msg.sender, _nama, _IDPasien, _adminRS);\r\n    }\r\n\r\n    function updatePasienData(\r\n        string calldata _nama,\r\n        string calldata _golonganDarah,\r\n        string calldata _tanggalLahir,\r\n        string calldata _gender,\r\n        string calldata _alamat,\r\n        string calldata _noTelepon,\r\n        string calldata _email\r\n    ) external hanyaPasien(msg.sender) {\r\n        require(isPasien[msg.sender], \"Pasien tidak ditemukan.\");\r\n\r\n        Pasien storage pasienToUpdate = dataPasien[msg.sender];\r\n        pasienToUpdate.nama = _nama;\r\n        pasienToUpdate.golonganDarah = _golonganDarah;\r\n        pasienToUpdate.tanggalLahir = _tanggalLahir;\r\n        pasienToUpdate.gender = _gender;\r\n        pasienToUpdate.alamat = _alamat;\r\n        pasienToUpdate.noTelepon = _noTelepon;\r\n        pasienToUpdate.email = _email;\r\n\r\n        emit PasienDataDiperbarui(\r\n            msg.sender,\r\n            _nama,\r\n            _golonganDarah,\r\n            _tanggalLahir,\r\n            _gender,\r\n            _alamat,\r\n            _noTelepon,\r\n            _email\r\n        );\r\n    }\r\n\r\n    function updatePasienRumahSakit(\r\n        address _newAdminRS\r\n    ) external hanyaPasien(msg.sender) {\r\n        require(isPasien[msg.sender], \"Pasien tidak ditemukan.\");\r\n        require(\r\n            dataAdmin[_newAdminRS].aktif,\r\n            \"Rumah Sakit baru tidak aktif atau tidak valid.\"\r\n        );\r\n        require(\r\n            dataPasien[msg.sender].rumahSakitPenanggungJawab != _newAdminRS,\r\n            \"Anda sudah terdaftar di rumah sakit ini.\"\r\n        );\r\n\r\n        address oldAdminRS = dataPasien[msg.sender].rumahSakitPenanggungJawab;\r\n        dataPasien[msg.sender].rumahSakitPenanggungJawab = _newAdminRS;\r\n\r\n        emit PasienPindahRS(msg.sender, oldAdminRS, _newAdminRS);\r\n    }\r\n\r\n    function getDaftarPasien() external view returns (address[] memory) {\r\n        return daftarPasien;\r\n    }\r\n\r\n    function totalPasien() public view returns (uint) {\r\n        return daftarPasien.length;\r\n    }\r\n\r\n    function getPasienData(\r\n        address _pasien\r\n    )\r\n        external\r\n        view\r\n        returns (\r\n            string memory nama,\r\n            string memory ID,\r\n            string memory golonganDarah,\r\n            string memory tanggalLahir,\r\n            string memory gender,\r\n            string memory alamat,\r\n            string memory noTelepon,\r\n            string memory email,\r\n            address rumahSakitPenanggungJawab\r\n        )\r\n    {\r\n        require(isPasien[_pasien], \"Pasien tidak ditemukan.\");\r\n        Pasien storage p = dataPasien[_pasien];\r\n        return (\r\n            p.nama,\r\n            p.ID,\r\n            p.golonganDarah,\r\n            p.tanggalLahir,\r\n            p.gender,\r\n            p.alamat,\r\n            p.noTelepon,\r\n            p.email,\r\n            p.rumahSakitPenanggungJawab\r\n        );\r\n    }\r\n\r\n    function assignPasienToDokter(\r\n        address _dokter,\r\n        address _pasien\r\n    ) external hanyaAdminRS {\r\n        require(isDokter[_dokter], \"Dokter tidak terdaftar.\");\r\n        require(\r\n            dataDokter[_dokter].adminRS == msg.sender,\r\n            \"Dokter ini tidak terdaftar di rumah sakit Anda.\"\r\n        );\r\n        require(isPasien[_pasien], \"Pasien tidak terdaftar.\");\r\n\r\n        require(\r\n            (dataPasien[_pasien].rumahSakitPenanggungJawab == msg.sender ||\r\n                dataPasien[_pasien].rumahSakitPenanggungJawab == address(0)),\r\n            \"Pasien ini tidak terdaftar di rumah sakit Anda atau sudah di-assign ke RS lain.\"\r\n        );\r\n\r\n        if (dataPasien[_pasien].rumahSakitPenanggungJawab == address(0)) {\r\n            dataPasien[_pasien].rumahSakitPenanggungJawab = msg.sender;\r\n        }\r\n\r\n        bool alreadyAssigned = false;\r\n        address[] storage listPasienDitugaskan = dataDokter[_dokter]\r\n            .assignedPasien;\r\n        for (uint i = 0; i < listPasienDitugaskan.length; i++) {\r\n            if (listPasienDitugaskan[i] == _pasien) {\r\n                alreadyAssigned = true;\r\n                break;\r\n            }\r\n        }\r\n        require(\r\n            !alreadyAssigned,\r\n            \"Pasien ini sudah ditugaskan ke dokter tersebut.\"\r\n        );\r\n\r\n        listPasienDitugaskan.push(_pasien);\r\n        emit PasienDiassignKeDokter(_dokter, _pasien);\r\n    }\r\n\r\n    function unassignPasienFromDokter(\r\n        address _dokter,\r\n        address _pasien\r\n    ) external hanyaAdminRS {\r\n        require(isDokter[_dokter], \"Dokter tidak terdaftar.\");\r\n        require(\r\n            dataDokter[_dokter].adminRS == msg.sender,\r\n            \"Dokter ini tidak terdaftar di rumah sakit Anda.\"\r\n        );\r\n        require(isPasien[_pasien], \"Pasien tidak terdaftar.\");\r\n        require(\r\n            dataPasien[_pasien].rumahSakitPenanggungJawab == msg.sender,\r\n            \"Pasien ini tidak terdaftar di rumah sakit Anda.\"\r\n        );\r\n\r\n        bool found = false;\r\n        address[] storage listPasienDitugaskan = dataDokter[_dokter]\r\n            .assignedPasien;\r\n        for (uint i = 0; i < listPasienDitugaskan.length; i++) {\r\n            if (listPasienDitugaskan[i] == _pasien) {\r\n                listPasienDitugaskan[i] = listPasienDitugaskan[\r\n                    listPasienDitugaskan.length - 1\r\n                ];\r\n                listPasienDitugaskan.pop();\r\n                found = true;\r\n                break;\r\n            }\r\n        }\r\n        require(found, \"Pasien tidak ditugaskan ke dokter ini.\");\r\n        emit PasienDiunassignDariDokter(_dokter, _pasien);\r\n    }\r\n\r\n    function isAssigned(\r\n        address _dokter,\r\n        address _pasien\r\n    ) internal view returns (bool) {\r\n        address[] storage list = dataDokter[_dokter].assignedPasien;\r\n        for (uint i = 0; i < list.length; i++) {\r\n            if (list[i] == _pasien) {\r\n                return true;\r\n            }\r\n        }\r\n        return false;\r\n    }\r\n\r\n    function tambahRekamMedis(\r\n        address _pasien,\r\n        string calldata _diagnosa,\r\n        string calldata _foto,\r\n        string calldata _catatan,\r\n        string calldata _tipeRekamMedis\r\n    ) external {\r\n        bool isValidActor = false;\r\n        if (msg.sender == _pasien && isPasien[msg.sender]) {\r\n            isValidActor = true;\r\n        } else if (isDokter[msg.sender] && dataDokter[msg.sender].aktif) {\r\n            if (\r\n                isPasien[_pasien] &&\r\n                dataDokter[msg.sender].adminRS ==\r\n                dataPasien[_pasien].rumahSakitPenanggungJawab &&\r\n                isAssigned(msg.sender, _pasien)\r\n            ) {\r\n                isValidActor = true;\r\n            }\r\n        }\r\n        require(\r\n            isValidActor,\r\n            \"Aktor tidak berhak menambah rekam medis untuk pasien ini.\"\r\n        );\r\n        require(isPasien[_pasien], \"Pasien tidak terdaftar.\");\r\n\r\n        rekamMedisCount++;\r\n        uint newId = rekamMedisCount;\r\n        rekamMedis[newId] = RekamMedisData({\r\n            id: newId,\r\n            pasien: _pasien,\r\n            diagnosa: _diagnosa,\r\n            foto: _foto,\r\n            catatan: _catatan,\r\n            pembuat: msg.sender,\r\n            timestampPembuatan: block.timestamp,\r\n            tipeRekamMedis: _tipeRekamMedis\r\n        });\r\n        rekamMedisByPasien[_pasien].push(newId);\r\n\r\n        emit RekamMedisDitambahkan(\r\n            newId,\r\n            _pasien,\r\n            _diagnosa,\r\n            _foto,\r\n            _catatan,\r\n            _tipeRekamMedis,\r\n            msg.sender,\r\n            block.timestamp\r\n        );\r\n    }\r\n\r\n    function getRekamMedisIdsByPasien(\r\n        address _pasien\r\n    ) external view returns (uint[] memory) {\r\n        require(isPasien[_pasien], \"Pasien tidak ditemukan.\");\r\n        return rekamMedisByPasien[_pasien];\r\n    }\r\n\r\n    function getRekamMedis(\r\n        uint _id\r\n    )\r\n        external\r\n        view\r\n        returns (\r\n            uint id,\r\n            address pasien,\r\n            string memory diagnosa,\r\n            string memory foto,\r\n            string memory catatan,\r\n            address pembuat,\r\n            uint256 timestampPembuatan,\r\n            string memory tipeRekamMedis\r\n        )\r\n    {\r\n        require(\r\n            rekamMedis[_id].pasien != address(0),\r\n            \"Rekam medis tidak ditemukan.\"\r\n        );\r\n        RekamMedisData storage r = rekamMedis[_id];\r\n        return (\r\n            r.id,\r\n            r.pasien,\r\n            r.diagnosa,\r\n            r.foto,\r\n            r.catatan,\r\n            r.pembuat,\r\n            r.timestampPembuatan,\r\n            r.tipeRekamMedis\r\n        );\r\n    }\r\n\r\n    function getRekamMedisByPasienUntukAdminRS(\r\n        address _pasien\r\n    ) external view hanyaAdminRS returns (RekamMedisData[] memory) {\r\n        // 1. Verifikasi Berewenang\r\n        // Memastikan AdminRS yang memanggil fungsi ini adalah RS penanggung jawab pasien.\r\n        require(\r\n            dataPasien[_pasien].rumahSakitPenanggungJawab == msg.sender,\r\n            \"Anda tidak berhak melihat rekam medis pasien ini.\"\r\n        );\r\n\r\n        // 2. Ambil ID Rekam Medis\r\n        // Mengambil semua ID rekam medis yang dimiliki oleh pasien.\r\n        uint[] storage recordIds = rekamMedisByPasien[_pasien];\r\n\r\n        // 3. Siapkan Array untuk Hasil\r\n        // Membuat array di memori untuk menampung data rekam medis lengkap.\r\n        RekamMedisData[] memory records = new RekamMedisData[](\r\n            recordIds.length\r\n        );\r\n\r\n        // 4. Kumpulkan Data Lengkap\r\n        // Looping melalui setiap ID, ambil datanya dari mapping `rekamMedis`, dan masukkan ke array hasil.\r\n        for (uint i = 0; i < recordIds.length; i++) {\r\n            records[i] = rekamMedis[recordIds[i]];\r\n        }\r\n\r\n        // 5. Kembalikan Hasil\r\n        return records;\r\n    }\r\n\r\n    function getUserRole(address _user) public view returns (string memory) {\r\n        if (bytes(dataAdmin[_user].namaRumahSakit).length > 0) {\r\n            if (dataAdmin[_user].aktif) {\r\n                return \"AdminRS\";\r\n            } else {\r\n                return \"InactiveAdminRS\";\r\n            }\r\n        }\r\n\r\n        if (isDokter[_user]) {\r\n            if (dataDokter[_user].aktif) {\r\n                return \"Dokter\";\r\n            } else {\r\n                return \"InactiveDokter\";\r\n            }\r\n        }\r\n\r\n        if (isPasien[_user]) return \"Pasien\";\r\n\r\n        return \"Unknown\";\r\n    }\r\n\r\n    function getPasienByAdminRS()\r\n        external\r\n        view\r\n        hanyaAdminRS\r\n        returns (address[] memory)\r\n    {\r\n        address[] memory pasienDiRS;\r\n        uint count = 0;\r\n        for (uint i = 0; i < daftarPasien.length; i++) {\r\n            if (\r\n                dataPasien[daftarPasien[i]].rumahSakitPenanggungJawab ==\r\n                msg.sender\r\n            ) {\r\n                count++;\r\n            }\r\n        }\r\n\r\n        pasienDiRS = new address[](count);\r\n        uint currentIndex = 0;\r\n        for (uint i = 0; i < daftarPasien.length; i++) {\r\n            if (\r\n                dataPasien[daftarPasien[i]].rumahSakitPenanggungJawab ==\r\n                msg.sender\r\n            ) {\r\n                pasienDiRS[currentIndex] = daftarPasien[i];\r\n                currentIndex++;\r\n            }\r\n        }\r\n        return pasienDiRS;\r\n    }\r\n}\r\n",
  "sourcePath": "D:\\TA\\rekam_medis_smartcontract_solidity\\contracts\\RekamMedisRS.sol",
  "compiler": {
    "name": "solc",
    "version": "0.8.19+commit.7dd6d404.Emscripten.clang"
  },
  "schemaVersion": "3.4.16",
  "updatedAt": "2025-07-07T20:33:10.795Z",
  "networkType": "ethereum",
  "devdoc": {
    "kind": "dev",
    "methods": {},
    "version": 1
  },
  "userdoc": {
    "kind": "user",
    "methods": {},
    "version": 1
  }
}