{
  "contractName": "RekamMedisRS",
  "abi": [
    {
      "inputs": [],
      "stateMutability": "nonpayable",
      "type": "constructor"
    },
    {
      "anonymous": false,
      "inputs": [
        {
          "indexed": true,
          "internalType": "address",
          "name": "admin",
          "type": "address"
        },
        {
          "indexed": false,
          "internalType": "bool",
          "name": "aktif",
          "type": "bool"
        }
      ],
      "name": "AdminRSStatusDiubah",
      "type": "event"
    },
    {
      "anonymous": false,
      "inputs": [
        {
          "indexed": true,
          "internalType": "address",
          "name": "admin",
          "type": "address"
        },
        {
          "indexed": false,
          "internalType": "string",
          "name": "namaRumahSakit",
          "type": "string"
        }
      ],
      "name": "AdminRSTerdaftar",
      "type": "event"
    },
    {
      "anonymous": false,
      "inputs": [
        {
          "indexed": true,
          "internalType": "address",
          "name": "dokter",
          "type": "address"
        },
        {
          "indexed": false,
          "internalType": "string",
          "name": "nama",
          "type": "string"
        },
        {
          "indexed": false,
          "internalType": "string",
          "name": "spesialisasi",
          "type": "string"
        },
        {
          "indexed": false,
          "internalType": "string",
          "name": "nomorLisensi",
          "type": "string"
        },
        {
          "indexed": true,
          "internalType": "address",
          "name": "adminRS",
          "type": "address"
        }
      ],
      "name": "DokterInfoDiperbarui",
      "type": "event"
    },
    {
      "anonymous": false,
      "inputs": [
        {
          "indexed": true,
          "internalType": "address",
          "name": "dokter",
          "type": "address"
        },
        {
          "indexed": false,
          "internalType": "bool",
          "name": "aktif",
          "type": "bool"
        }
      ],
      "name": "DokterStatusDiubah",
      "type": "event"
    },
    {
      "anonymous": false,
      "inputs": [
        {
          "indexed": true,
          "internalType": "address",
          "name": "dokter",
          "type": "address"
        },
        {
          "indexed": false,
          "internalType": "string",
          "name": "nama",
          "type": "string"
        },
        {
          "indexed": false,
          "internalType": "address",
          "name": "adminRS",
          "type": "address"
        }
      ],
      "name": "DokterTerdaftar",
      "type": "event"
    },
    {
      "anonymous": false,
      "inputs": [
        {
          "indexed": false,
          "internalType": "address",
          "name": "dokter",
          "type": "address"
        },
        {
          "indexed": false,
          "internalType": "address",
          "name": "pasien",
          "type": "address"
        }
      ],
      "name": "PasienDiassignKeDokter",
      "type": "event"
    },
    {
      "anonymous": false,
      "inputs": [
        {
          "indexed": false,
          "internalType": "address",
          "name": "dokter",
          "type": "address"
        },
        {
          "indexed": false,
          "internalType": "address",
          "name": "pasien",
          "type": "address"
        }
      ],
      "name": "PasienDiunassignDariDokter",
      "type": "event"
    },
    {
      "anonymous": false,
      "inputs": [
        {
          "indexed": true,
          "internalType": "address",
          "name": "pasien",
          "type": "address"
        },
        {
          "indexed": false,
          "internalType": "address",
          "name": "adminRS",
          "type": "address"
        }
      ],
      "name": "PasienPindahRS",
      "type": "event"
    },
    {
      "anonymous": false,
      "inputs": [
        {
          "indexed": true,
          "internalType": "address",
          "name": "pasien",
          "type": "address"
        },
        {
          "indexed": false,
          "internalType": "string",
          "name": "nama",
          "type": "string"
        },
        {
          "indexed": false,
          "internalType": "address",
          "name": "adminRS",
          "type": "address"
        }
      ],
      "name": "PasienTerdaftar",
      "type": "event"
    },
    {
      "anonymous": false,
      "inputs": [
        {
          "indexed": false,
          "internalType": "uint256",
          "name": "id",
          "type": "uint256"
        },
        {
          "indexed": false,
          "internalType": "string",
          "name": "diagnosa",
          "type": "string"
        },
        {
          "indexed": false,
          "internalType": "string",
          "name": "catatan",
          "type": "string"
        },
        {
          "indexed": false,
          "internalType": "address",
          "name": "dokter",
          "type": "address"
        },
        {
          "indexed": false,
          "internalType": "uint256",
          "name": "timestamp",
          "type": "uint256"
        }
      ],
      "name": "RekamMedisDiperbarui",
      "type": "event"
    },
    {
      "anonymous": false,
      "inputs": [
        {
          "indexed": false,
          "internalType": "uint256",
          "name": "id",
          "type": "uint256"
        },
        {
          "indexed": false,
          "internalType": "address",
          "name": "pasien",
          "type": "address"
        },
        {
          "indexed": false,
          "internalType": "string",
          "name": "diagnosa",
          "type": "string"
        },
        {
          "indexed": false,
          "internalType": "bool",
          "name": "valid",
          "type": "bool"
        }
      ],
      "name": "RekamMedisDitambahkan",
      "type": "event"
    },
    {
      "inputs": [
        {
          "internalType": "uint256",
          "name": "",
          "type": "uint256"
        }
      ],
      "name": "daftarAdmin",
      "outputs": [
        {
          "internalType": "address",
          "name": "",
          "type": "address"
        }
      ],
      "stateMutability": "view",
      "type": "function",
      "constant": true
    },
    {
      "inputs": [
        {
          "internalType": "uint256",
          "name": "",
          "type": "uint256"
        }
      ],
      "name": "daftarDokter",
      "outputs": [
        {
          "internalType": "address",
          "name": "",
          "type": "address"
        }
      ],
      "stateMutability": "view",
      "type": "function",
      "constant": true
    },
    {
      "inputs": [
        {
          "internalType": "uint256",
          "name": "",
          "type": "uint256"
        }
      ],
      "name": "daftarPasien",
      "outputs": [
        {
          "internalType": "address",
          "name": "",
          "type": "address"
        }
      ],
      "stateMutability": "view",
      "type": "function",
      "constant": true
    },
    {
      "inputs": [
        {
          "internalType": "address",
          "name": "",
          "type": "address"
        }
      ],
      "name": "dataAdmin",
      "outputs": [
        {
          "internalType": "string",
          "name": "namaRumahSakit",
          "type": "string"
        },
        {
          "internalType": "bool",
          "name": "aktif",
          "type": "bool"
        }
      ],
      "stateMutability": "view",
      "type": "function",
      "constant": true
    },
    {
      "inputs": [
        {
          "internalType": "address",
          "name": "",
          "type": "address"
        }
      ],
      "name": "dataDokter",
      "outputs": [
        {
          "internalType": "string",
          "name": "nama",
          "type": "string"
        },
        {
          "internalType": "string",
          "name": "spesialisasi",
          "type": "string"
        },
        {
          "internalType": "string",
          "name": "nomorLisensi",
          "type": "string"
        },
        {
          "internalType": "bool",
          "name": "aktif",
          "type": "bool"
        },
        {
          "internalType": "address",
          "name": "adminRS",
          "type": "address"
        }
      ],
      "stateMutability": "view",
      "type": "function",
      "constant": true
    },
    {
      "inputs": [
        {
          "internalType": "address",
          "name": "",
          "type": "address"
        }
      ],
      "name": "dataPasien",
      "outputs": [
        {
          "internalType": "string",
          "name": "nama",
          "type": "string"
        },
        {
          "internalType": "string",
          "name": "golonganDarah",
          "type": "string"
        },
        {
          "internalType": "string",
          "name": "tanggalLahir",
          "type": "string"
        },
        {
          "internalType": "string",
          "name": "gender",
          "type": "string"
        },
        {
          "internalType": "string",
          "name": "alamat",
          "type": "string"
        },
        {
          "internalType": "string",
          "name": "noTelepon",
          "type": "string"
        },
        {
          "internalType": "string",
          "name": "email",
          "type": "string"
        },
        {
          "internalType": "address",
          "name": "rumahSakitPenanggungJawab",
          "type": "address"
        },
        {
          "internalType": "bool",
          "name": "exists",
          "type": "bool"
        }
      ],
      "stateMutability": "view",
      "type": "function",
      "constant": true
    },
    {
      "inputs": [
        {
          "internalType": "address",
          "name": "",
          "type": "address"
        }
      ],
      "name": "isDokter",
      "outputs": [
        {
          "internalType": "bool",
          "name": "",
          "type": "bool"
        }
      ],
      "stateMutability": "view",
      "type": "function",
      "constant": true
    },
    {
      "inputs": [
        {
          "internalType": "address",
          "name": "",
          "type": "address"
        }
      ],
      "name": "isPasien",
      "outputs": [
        {
          "internalType": "bool",
          "name": "",
          "type": "bool"
        }
      ],
      "stateMutability": "view",
      "type": "function",
      "constant": true
    },
    {
      "inputs": [
        {
          "internalType": "uint256",
          "name": "",
          "type": "uint256"
        }
      ],
      "name": "rekamMedis",
      "outputs": [
        {
          "internalType": "uint256",
          "name": "id",
          "type": "uint256"
        },
        {
          "internalType": "address",
          "name": "pasien",
          "type": "address"
        },
        {
          "internalType": "string",
          "name": "diagnosa",
          "type": "string"
        },
        {
          "internalType": "string",
          "name": "foto",
          "type": "string"
        },
        {
          "internalType": "string",
          "name": "catatan",
          "type": "string"
        },
        {
          "internalType": "bool",
          "name": "valid",
          "type": "bool"
        }
      ],
      "stateMutability": "view",
      "type": "function",
      "constant": true
    },
    {
      "inputs": [
        {
          "internalType": "address",
          "name": "",
          "type": "address"
        },
        {
          "internalType": "uint256",
          "name": "",
          "type": "uint256"
        }
      ],
      "name": "rekamMedisByPasien",
      "outputs": [
        {
          "internalType": "uint256",
          "name": "",
          "type": "uint256"
        }
      ],
      "stateMutability": "view",
      "type": "function",
      "constant": true
    },
    {
      "inputs": [],
      "name": "rekamMedisCount",
      "outputs": [
        {
          "internalType": "uint256",
          "name": "",
          "type": "uint256"
        }
      ],
      "stateMutability": "view",
      "type": "function",
      "constant": true
    },
    {
      "inputs": [
        {
          "internalType": "uint256",
          "name": "",
          "type": "uint256"
        },
        {
          "internalType": "uint256",
          "name": "",
          "type": "uint256"
        }
      ],
      "name": "rekamMedisUpdateHistory",
      "outputs": [
        {
          "internalType": "address",
          "name": "dokter",
          "type": "address"
        },
        {
          "internalType": "uint256",
          "name": "timestamp",
          "type": "uint256"
        }
      ],
      "stateMutability": "view",
      "type": "function",
      "constant": true
    },
    {
      "inputs": [
        {
          "internalType": "uint256",
          "name": "",
          "type": "uint256"
        },
        {
          "internalType": "uint256",
          "name": "",
          "type": "uint256"
        }
      ],
      "name": "rekamMedisVersions",
      "outputs": [
        {
          "internalType": "uint256",
          "name": "id",
          "type": "uint256"
        },
        {
          "internalType": "address",
          "name": "pasien",
          "type": "address"
        },
        {
          "internalType": "string",
          "name": "diagnosa",
          "type": "string"
        },
        {
          "internalType": "string",
          "name": "foto",
          "type": "string"
        },
        {
          "internalType": "string",
          "name": "catatan",
          "type": "string"
        },
        {
          "internalType": "bool",
          "name": "valid",
          "type": "bool"
        }
      ],
      "stateMutability": "view",
      "type": "function",
      "constant": true
    },
    {
      "inputs": [],
      "name": "superAdmin",
      "outputs": [
        {
          "internalType": "address",
          "name": "",
          "type": "address"
        }
      ],
      "stateMutability": "view",
      "type": "function",
      "constant": true
    },
    {
      "inputs": [
        {
          "internalType": "address",
          "name": "_admin",
          "type": "address"
        },
        {
          "internalType": "string",
          "name": "_namaRS",
          "type": "string"
        }
      ],
      "name": "registerAdminRS",
      "outputs": [],
      "stateMutability": "nonpayable",
      "type": "function"
    },
    {
      "inputs": [],
      "name": "getAllAdminRSAddresses",
      "outputs": [
        {
          "internalType": "address[]",
          "name": "",
          "type": "address[]"
        }
      ],
      "stateMutability": "view",
      "type": "function",
      "constant": true
    },
    {
      "inputs": [
        {
          "internalType": "address",
          "name": "_admin",
          "type": "address"
        },
        {
          "internalType": "bool",
          "name": "_aktif",
          "type": "bool"
        }
      ],
      "name": "setStatusAdminRS",
      "outputs": [],
      "stateMutability": "nonpayable",
      "type": "function"
    },
    {
      "inputs": [],
      "name": "totalAdmin",
      "outputs": [
        {
          "internalType": "uint256",
          "name": "",
          "type": "uint256"
        }
      ],
      "stateMutability": "view",
      "type": "function",
      "constant": true
    },
    {
      "inputs": [
        {
          "internalType": "uint256",
          "name": "idx",
          "type": "uint256"
        }
      ],
      "name": "getAdminByIndex",
      "outputs": [
        {
          "internalType": "address",
          "name": "",
          "type": "address"
        }
      ],
      "stateMutability": "view",
      "type": "function",
      "constant": true
    },
    {
      "inputs": [
        {
          "internalType": "address",
          "name": "_dokter",
          "type": "address"
        },
        {
          "internalType": "string",
          "name": "_nama",
          "type": "string"
        },
        {
          "internalType": "string",
          "name": "_spesialisasi",
          "type": "string"
        },
        {
          "internalType": "string",
          "name": "_nomorLisensi",
          "type": "string"
        }
      ],
      "name": "registerDokter",
      "outputs": [],
      "stateMutability": "nonpayable",
      "type": "function"
    },
    {
      "inputs": [
        {
          "internalType": "address",
          "name": "_dokter",
          "type": "address"
        },
        {
          "internalType": "string",
          "name": "_namaBaru",
          "type": "string"
        },
        {
          "internalType": "string",
          "name": "_spesialisasiBaru",
          "type": "string"
        },
        {
          "internalType": "string",
          "name": "_nomorLisensiBaru",
          "type": "string"
        }
      ],
      "name": "updateDokterInfo",
      "outputs": [],
      "stateMutability": "nonpayable",
      "type": "function"
    },
    {
      "inputs": [
        {
          "internalType": "address",
          "name": "_dokter",
          "type": "address"
        },
        {
          "internalType": "bool",
          "name": "_aktif",
          "type": "bool"
        }
      ],
      "name": "setStatusDokter",
      "outputs": [],
      "stateMutability": "nonpayable",
      "type": "function"
    },
    {
      "inputs": [],
      "name": "totalDokter",
      "outputs": [
        {
          "internalType": "uint256",
          "name": "",
          "type": "uint256"
        }
      ],
      "stateMutability": "view",
      "type": "function",
      "constant": true
    },
    {
      "inputs": [
        {
          "internalType": "uint256",
          "name": "idx",
          "type": "uint256"
        }
      ],
      "name": "getDokterByIndex",
      "outputs": [
        {
          "internalType": "address",
          "name": "",
          "type": "address"
        }
      ],
      "stateMutability": "view",
      "type": "function",
      "constant": true
    },
    {
      "inputs": [
        {
          "internalType": "address",
          "name": "_dokter",
          "type": "address"
        }
      ],
      "name": "getDokter",
      "outputs": [
        {
          "internalType": "string",
          "name": "nama",
          "type": "string"
        },
        {
          "internalType": "string",
          "name": "spesialisasi",
          "type": "string"
        },
        {
          "internalType": "string",
          "name": "nomorLisensi",
          "type": "string"
        },
        {
          "internalType": "bool",
          "name": "aktif",
          "type": "bool"
        },
        {
          "internalType": "address[]",
          "name": "pasienList",
          "type": "address[]"
        },
        {
          "internalType": "address",
          "name": "adminRS",
          "type": "address"
        }
      ],
      "stateMutability": "view",
      "type": "function",
      "constant": true
    },
    {
      "inputs": [
        {
          "internalType": "address",
          "name": "_pasien",
          "type": "address"
        },
        {
          "internalType": "string",
          "name": "_nama",
          "type": "string"
        },
        {
          "internalType": "address",
          "name": "_adminRS",
          "type": "address"
        }
      ],
      "name": "registerPasien",
      "outputs": [],
      "stateMutability": "nonpayable",
      "type": "function"
    },
    {
      "inputs": [
        {
          "internalType": "string",
          "name": "_nama",
          "type": "string"
        },
        {
          "internalType": "string",
          "name": "_golonganDarah",
          "type": "string"
        },
        {
          "internalType": "string",
          "name": "_tanggalLahir",
          "type": "string"
        },
        {
          "internalType": "string",
          "name": "_gender",
          "type": "string"
        },
        {
          "internalType": "string",
          "name": "_alamat",
          "type": "string"
        },
        {
          "internalType": "string",
          "name": "_noTelepon",
          "type": "string"
        },
        {
          "internalType": "string",
          "name": "_email",
          "type": "string"
        }
      ],
      "name": "selfRegisterPasien",
      "outputs": [],
      "stateMutability": "nonpayable",
      "type": "function"
    },
    {
      "inputs": [],
      "name": "getDaftarPasien",
      "outputs": [
        {
          "internalType": "address[]",
          "name": "",
          "type": "address[]"
        }
      ],
      "stateMutability": "view",
      "type": "function",
      "constant": true
    },
    {
      "inputs": [
        {
          "internalType": "address",
          "name": "_pasien",
          "type": "address"
        }
      ],
      "name": "getPasienData",
      "outputs": [
        {
          "internalType": "string",
          "name": "nama",
          "type": "string"
        },
        {
          "internalType": "string",
          "name": "golonganDarah",
          "type": "string"
        },
        {
          "internalType": "string",
          "name": "tanggalLahir",
          "type": "string"
        },
        {
          "internalType": "string",
          "name": "gender",
          "type": "string"
        },
        {
          "internalType": "string",
          "name": "alamat",
          "type": "string"
        },
        {
          "internalType": "string",
          "name": "noTelepon",
          "type": "string"
        },
        {
          "internalType": "string",
          "name": "email",
          "type": "string"
        },
        {
          "internalType": "address",
          "name": "rumahSakitPenanggungJawab",
          "type": "address"
        }
      ],
      "stateMutability": "view",
      "type": "function",
      "constant": true
    },
    {
      "inputs": [
        {
          "internalType": "address",
          "name": "_dokter",
          "type": "address"
        },
        {
          "internalType": "address",
          "name": "_pasien",
          "type": "address"
        }
      ],
      "name": "assignPasienToDokter",
      "outputs": [],
      "stateMutability": "nonpayable",
      "type": "function"
    },
    {
      "inputs": [
        {
          "internalType": "address",
          "name": "_dokter",
          "type": "address"
        },
        {
          "internalType": "address",
          "name": "_pasien",
          "type": "address"
        }
      ],
      "name": "unassignPasienFromDokter",
      "outputs": [],
      "stateMutability": "nonpayable",
      "type": "function"
    },
    {
      "inputs": [
        {
          "internalType": "address",
          "name": "_pasien",
          "type": "address"
        },
        {
          "internalType": "string",
          "name": "_diagnosa",
          "type": "string"
        },
        {
          "internalType": "string",
          "name": "_foto",
          "type": "string"
        },
        {
          "internalType": "string",
          "name": "_catatan",
          "type": "string"
        }
      ],
      "name": "tambahRekamMedis",
      "outputs": [],
      "stateMutability": "nonpayable",
      "type": "function"
    },
    {
      "inputs": [
        {
          "internalType": "uint256",
          "name": "_id",
          "type": "uint256"
        },
        {
          "internalType": "string",
          "name": "_diagnosa",
          "type": "string"
        },
        {
          "internalType": "string",
          "name": "_foto",
          "type": "string"
        },
        {
          "internalType": "string",
          "name": "_catatan",
          "type": "string"
        }
      ],
      "name": "updateRekamMedis",
      "outputs": [],
      "stateMutability": "nonpayable",
      "type": "function"
    },
    {
      "inputs": [
        {
          "internalType": "address",
          "name": "_pasien",
          "type": "address"
        }
      ],
      "name": "getRekamMedisIdsByPasien",
      "outputs": [
        {
          "internalType": "uint256[]",
          "name": "",
          "type": "uint256[]"
        }
      ],
      "stateMutability": "view",
      "type": "function",
      "constant": true
    },
    {
      "inputs": [
        {
          "internalType": "uint256",
          "name": "_id",
          "type": "uint256"
        }
      ],
      "name": "getRekamMedis",
      "outputs": [
        {
          "internalType": "uint256",
          "name": "id",
          "type": "uint256"
        },
        {
          "internalType": "address",
          "name": "pasien",
          "type": "address"
        },
        {
          "internalType": "string",
          "name": "diagnosa",
          "type": "string"
        },
        {
          "internalType": "string",
          "name": "foto",
          "type": "string"
        },
        {
          "internalType": "string",
          "name": "catatan",
          "type": "string"
        },
        {
          "internalType": "bool",
          "name": "valid",
          "type": "bool"
        }
      ],
      "stateMutability": "view",
      "type": "function",
      "constant": true
    },
    {
      "inputs": [
        {
          "internalType": "uint256",
          "name": "_id",
          "type": "uint256"
        }
      ],
      "name": "getRekamMedisVersions",
      "outputs": [
        {
          "components": [
            {
              "internalType": "uint256",
              "name": "id",
              "type": "uint256"
            },
            {
              "internalType": "address",
              "name": "pasien",
              "type": "address"
            },
            {
              "internalType": "string",
              "name": "diagnosa",
              "type": "string"
            },
            {
              "internalType": "string",
              "name": "foto",
              "type": "string"
            },
            {
              "internalType": "string",
              "name": "catatan",
              "type": "string"
            },
            {
              "internalType": "bool",
              "name": "valid",
              "type": "bool"
            }
          ],
          "internalType": "struct RekamMedisRS.RekamMedisData[]",
          "name": "",
          "type": "tuple[]"
        }
      ],
      "stateMutability": "view",
      "type": "function",
      "constant": true
    },
    {
      "inputs": [
        {
          "internalType": "uint256",
          "name": "_id",
          "type": "uint256"
        }
      ],
      "name": "getRekamMedisUpdateHistory",
      "outputs": [
        {
          "internalType": "address[]",
          "name": "actors",
          "type": "address[]"
        },
        {
          "internalType": "uint256[]",
          "name": "timestamps",
          "type": "uint256[]"
        }
      ],
      "stateMutability": "view",
      "type": "function",
      "constant": true
    },
    {
      "inputs": [
        {
          "internalType": "uint256",
          "name": "_id",
          "type": "uint256"
        }
      ],
      "name": "nonaktifkanRekamMedis",
      "outputs": [],
      "stateMutability": "nonpayable",
      "type": "function"
    },
    {
      "inputs": [
        {
          "internalType": "address",
          "name": "_newAdmin",
          "type": "address"
        }
      ],
      "name": "setSuperAdmin",
      "outputs": [],
      "stateMutability": "nonpayable",
      "type": "function"
    },
    {
      "inputs": [
        {
          "internalType": "address",
          "name": "_user",
          "type": "address"
        }
      ],
      "name": "getUserRole",
      "outputs": [
        {
          "internalType": "string",
          "name": "",
          "type": "string"
        }
      ],
      "stateMutability": "view",
      "type": "function",
      "constant": true
    }
  ],
  "bytecode": "0x6080806040523461003c57600080546001600160a01b03191673b0dc0bf642d339517438017fc185bb0f758a01d2179055614dab90816100428239f35b600080fdfe6080604052600436101561001257600080fd5b60003560e01c8062410cb314614066578063046bdbcc14613ff857806306e4ac8d14613704578063083d8824146136135780631132beb5146135d4578063157000521461353857806319d9d3dd146134b757806319e8f405146131fc57806327820851146131c457806329575f6a1461319b5780632e2dd1021461317d5780633aaec72814612a285780633bf76303146129c55780633da0551814612855578063426996511461282c57806347960cb51461279957806351887b67146127045780635c4c9348146126c55780635e6da24c146124a1578063623785c11461243357806364319e331461241557806368370087146123ba578063786f3fbe146122975780637d3e9db814612279578063911b633a14612237578063924b912314612129578063932e0f6d146120735780639725955014612027578063a665102c14611ef9578063abf72abb14611eb6578063ad3c970814611bf4578063b75de7a8146117f4578063c3c0fdea14611747578063c967ede8146116a3578063d688780214611516578063dd09a96814611493578063ddbd24d314610f37578063df83dde01461057c578063e29993a5146102b85763f2ab4a99146101d357600080fd5b346102b3576101e136614429565b60005490916001600160a01b03916101fc908316331461451e565b1690816000526001602052610215604060002054614230565b1561026e5760207fd2e4d0240eabf0011425eb3fffbc4f311cd4b564ba547aba4b3163fd046f6a979183600052600182526102638160016040600020019060ff801983541691151516179055565b6040519015158152a2005b60405162461bcd60e51b815260206004820152601960248201527f41646d696e20525320746964616b20646974656d756b616e2e000000000000006044820152606490fd5b600080fd5b346102b35760403660031901126102b3576102d16140be565b6102d96140d4565b336000526001916020928084526102f960ff8260406000200154166146ae565b60018060a01b039081831691826000526004865261031e60ff60406000205416614760565b8260005260039081875261033d338260056040600020015416146147ac565b80861690816000526007885261035a60ff6040600020541661485c565b81600052600688523381600760406000200154160361051f5760009485528288526040852091949392916004019084845b610437575b50505050509050156103e357604080516001600160a01b0392831681529290911660208301527f80b4d8d360eb6524bf34c2207f48a267b84469bad95c9e9540413349e9f416a59250819081015b0390a1005b60405162461bcd60e51b815260048101849052602660248201527f50617369656e20746964616b20646974756761736b616e206b6520646f6b7465604482015265391034b7349760d11b6064820152608490fd5b82548082101561051957878361044d848761416e565b905490881b1c161461046e5750956104668596976148a8565b90969561038b565b919395509193955060001991828201918211610503576104a3846104956104c2948861416e565b905490891b1c16918661416e565b90919082549060031b9160018060a01b03809116831b921b1916179055565b825480156104ed5701926104d6848461416e565b81939154921b1b1916905555808580808080610390565b634e487b7160e01b600052603160045260246000fd5b634e487b7160e01b600052601160045260246000fd5b50610390565b60405162461bcd60e51b815260048101899052602f60248201527f50617369656e20696e6920746964616b2074657264616674617220646920727560448201526e36b0b41039b0b5b4ba1020b732309760891b6064820152608490fd5b346102b35760603660031901126102b3576105956140be565b6024356001600160401b0381116102b3576105b4903690600401614186565b906044356001600160a01b03811690036102b3573360005260016020526105e560ff600160406000200154166146ae565b6001600160a01b03831660009081526007602052604090205460ff16610ee0576001600160a01b03831660009081526004602052604090205460ff16610e755760018060a01b0360443516600052600160205260ff6001604060002001541615610e25576044356001600160a01b03163303610daf576001600160a01b03831660009081526007602052604090819020805460ff19166001179055519261068b8461426a565b610696368484614587565b84526040516106a4816142bc565b6000815260208501526040516106b9816142bc565b6000815260408501526040516106ce816142bc565b6000815260608501526040516106e3816142bc565b6000815260808501526040516106f8816142bc565b6000815260a085015260405161070d816142bc565b600080825260c08601919091526001600160a01b03604435811660e087015260016101008701528216815260066020526040902084518051919591906001600160401b038211610ac957819061076d826107678a54614230565b8a6145e4565b602090601f8311600114610d4357600092610d38575b50508160011b916000199060031b1c19161785555b60208101518051906001600160401b038211610ac95781906107ca826107c160018b0154614230565b60018b016145e4565b602090601f8311600114610cc657600092610cbb575b50508160011b916000199060031b1c19161760018601555b60408101518051906001600160401b038211610ac957819061082a8261082160028b0154614230565b60028b016145e4565b602090601f8311600114610c4957600092610c3e575b50508160011b916000199060031b1c19161760028601555b60608101518051906001600160401b038211610ac957819061088a8261088160038b0154614230565b60038b016145e4565b602090601f8311600114610bcc57600092610bc1575b50508160011b916000199060031b1c19161760038601555b608081015180516001600160401b038111610ac9578060048801926108e7826108e18654614230565b866145e4565b602090601f8311600114610b5b57600092610b50575b50508160011b916000199060031b1c19161790555b60a081015180516001600160401b038111610ac95780600588019261093b826108e18654614230565b602090601f8311600114610aea57600092610adf575b50508160011b916000199060031b1c19161790555b60c08101519485516001600160401b038111610ac9576109968161098d6006850154614230565b600685016145e4565b6020601f8211600114610a4757908060079392600080516020614d568339815191529899600092610a3c575b50508160011b916000199060031b1c19161760068201555b019060018060a01b0360e08201511682549161010060ff60a01b910151151560a01b16916affffffffffffffffffffff60a81b1617179055610a1b81614629565b610a3760405192839260018060a01b0316956044359184614737565b0390a2005b0151905089806109c2565b6006830160005260206000209760005b601f1984168110610ab1575091600080516020614d5683398151915297986001926007959483601f19811610610a98575b505050811b0160068201556109da565b015160001960f88460031b161c19169055898080610a88565b828201518a5560019099019860209283019201610a57565b634e487b7160e01b600052604160045260246000fd5b015190508880610951565b6000858152602081209350601f198516905b818110610b385750908460019594939210610b1f575b505050811b019055610966565b015160001960f88460031b161c19169055888080610b12565b92936020600181928786015181550195019301610afc565b0151905088806108fd565b6000858152602081209350601f198516905b818110610ba95750908460019594939210610b90575b505050811b019055610912565b015160001960f88460031b161c19169055888080610b83565b92936020600181928786015181550195019301610b6d565b0151905087806108a0565b9250600388016000526020600020906000935b601f1984168510610c23576001945083601f19811610610c0a575b505050811b0160038601556108b8565b015160001960f88460031b161c19169055878080610bfa565b81810151835560209485019460019093019290910190610bdf565b015190508780610840565b9250600288016000526020600020906000935b601f1984168510610ca0576001945083601f19811610610c87575b505050811b016002860155610858565b015160001960f88460031b161c19169055878080610c77565b81810151835560209485019460019093019290910190610c5c565b0151905087806107e0565b9250600188016000526020600020906000935b601f1984168510610d1d576001945083601f19811610610d04575b505050811b0160018601556107f8565b015160001960f88460031b161c19169055878080610cf4565b81810151835560209485019460019093019290910190610cd9565b015190508780610783565b9250876000526020600020906000935b601f1984168510610d94576001945083601f19811610610d7b575b505050811b018555610798565b015160001960f88460031b161c19169055878080610d6e565b81810151835560209485019460019093019290910190610d53565b60405162461bcd60e51b815260206004820152604260248201527f48616e79612061646d696e2052532070656e616e6767756e67206a617761622060448201527f79616e672062697361206d656e6461667461726b616e2070617369656e20696e606482015261349760f11b608482015260a490fd5b60405162461bcd60e51b815260206004820152602260248201527f41646d696e2052532079616e6720646972756a756b20746964616b20616b7469604482015261331760f11b6064820152608490fd5b60405162461bcd60e51b815260206004820152603f60248201527f416c616d617420696e6920746572646166746172207365626167616920646f6b60448201527f7465722c20746964616b2062697361206d656e6a6164692070617369656e2e006064820152608490fd5b60405162461bcd60e51b815260206004820152602960248201527f50617369656e207375646168207465726461667461722064656e67616e20616c60448201526830b6b0ba1034b7349760b91b6064820152608490fd5b346102b357610f453661448a565b90959291949395336000526001602052610f6960ff600160406000200154166146ae565b6001600160a01b03841660009081526004602052604090205460ff1661143b576001600160a01b03841660009081526007602052604090205460ff166113d05761100f9160018060a01b03851660005260046020526040600020600160ff1982541617905561100360405194610fde866142bc565b6000865260405198610fef8a614286565b610ffa368c8b614587565b8a523691614587565b60208801523691614587565b60408501526001606085015260808401523360a084015260018060a01b038116600052600360205260406000209280518051906001600160401b038211610ac9578190611066826110608954614230565b896145e4565b602090601f831160011461136457600092611359575b50508160011b916000199060031b1c19161784555b60208101518051906001600160401b038211610ac95781906110c3826110ba60018a0154614230565b60018a016145e4565b602090601f83116001146112e7576000926112dc575b50508160011b916000199060031b1c19161760018501555b604081015180516001600160401b038111610ac95780600287019261111a826108e18654614230565b602090601f83116001146112765760009261126b575b50508160011b916000199060031b1c19161790555b61116460608201511515600386019060ff801983541691151516179055565b60048401936080820151948551906001600160401b038211610ac957600160401b96878311610ac957602090825484845580851061124e575b500190600052602060002060005b83811061123157505050506005019060a0600180821b03910151166001600160601b0360a01b82541617905560055492831015610ac957611217816104a38560017f5c9d12a5bfda65f31ab460df37935bfe7b6cfa6a3787bf1f99858ccc15dc927797016005556140ea565b610a3760405192839260018060a01b031695339184614737565b82516001600160a01b0316818301556020909201916001016111ab565b6112659084600052858460002091820191016145cd565b8a61119d565b015190508880611130565b6000858152602081209350601f198516905b8181106112c457509084600195949392106112ab575b505050811b019055611145565b015160001960f88460031b161c1916905588808061129e565b92936020600181928786015181550195019301611288565b0151905087806110d9565b9250600187016000526020600020906000935b601f198416851061133e576001945083601f19811610611325575b505050811b0160018501556110f1565b015160001960f88460031b161c19169055878080611315565b818101518355602094850194600190930192909101906112fa565b01519050878061107c565b9250866000526020600020906000935b601f19841685106113b5576001945083601f1981161061139c575b505050811b018455611091565b015160001960f88460031b161c1916905587808061138f565b81810151835560209485019460019093019290910190611374565b60405162461bcd60e51b815260206004820152603f60248201527f416c616d617420696e692074657264616674617220736562616761692070617360448201527f69656e2c20746964616b2062697361206d656e6a61646920646f6b7465722e006064820152608490fd5b60405162461bcd60e51b815260206004820152602a60248201527f416c616d617420696e692073756461682074657264616674617220736562616760448201526930b4903237b5ba32b91760b11b6064820152608490fd5b346102b3576114a136614458565b90600052600c60205260406000209081548110156102b3576114c291614502565b50805460018201546001600160a01b031691611512906114e4600282016142f8565b906114f1600382016142f8565b60ff6005611501600485016142f8565b93015416926040519687968761439e565b0390f35b346102b3576020806003193601126102b357600435600052600c815260406000209081549161154483614720565b9261155260405194856142d7565b8084528284018092600052836000206000915b8383106116285750505050604051918083019381845251809452604083019360408160051b85010192916000955b8287106115a05785850386f35b909192938280600192603f1989820301855287519081518152848060a01b0383830151168382015261160c6115f96115e6604085015160c08060408701528501906141f0565b60608086015190858303908601526141f0565b60808085015190848303908501526141f0565b9160a08091015115159101529601920196019592919092611593565b60068660019260409998995161163d81614286565b85548152848060a01b0385870154168382015261165c600287016142f8565b604082015261166d600387016142f8565b606082015261167e600487016142f8565b608082015260ff600587015416151560a0820152815201920192019190959495611565565b346102b3576020806003193601126102b3576001600160a01b036116c56140be565b1680600052600782526116df60ff60406000205416614810565b600052600a8152604060002090604051808383829554938481520190600052836000209260005b858282106117315750505061171d925003836142d7565b6115126040519282849384528301906143f5565b8554845260019586019588955093019201611706565b346102b35760203660031901126102b3576117c76001600160a01b038061176c6140be565b1660005260036020526040600020611783816142f8565b916117e3611793600184016142f8565b916117d56117a3600286016142f8565b91600560ff600388015416960154169360405197889760a0895260a08901906141f0565b9087820360208901526141f0565b9085820360408701526141f0565b911515606084015260808301520390f35b346102b3576118023661448a565b9594929093919533600052600160205261182660ff600160406000200154166146ae565b60018060a01b0391828716600052600460205260ff6040600020541615611ba5578287166000526003978860205233846005604060002001541603611b46578388166000528860205260406000206001600160401b03808711610ac957611897876118918454614230565b846145e4565b866000601f8211600114611ae157600091611ad6575b50600019888d1b1c1916600188901b1782555b808311610ac957600182016118df846118d98354614230565b836145e4565b836000601f8211600114611a7357600091611a68575b50600019858e1b1c1916600185901b1790555b8411610ac9576119288461191f6002840154614230565b600284016145e4565b6000601f85116001146119cb579184939160027f4e15ca2ba26538cdb1e2f0d595a1ec96fe8fbb126404e0cc083426c33ccbdd959a9b9c6119bb98976119a9966000916119c0575b508760011b9188600019911b1c1916179101555b61199b60405198899860608a5260608a019161468d565b91878303602089015261468d565b9184830360408601523398169661468d565b0390a3005b90508d01358f611970565b99601f198516906002830160005260206000209160005b818110611a505750917f4e15ca2ba26538cdb1e2f0d595a1ec96fe8fbb126404e0cc083426c33ccbdd959a9b9c879694926119bb99986119a9979510611a36575b5050506002600186811b01910155611984565b60f888600019921b161c19908d01351690558c8080611a23565b8b8e0135845560209d8e019d600190940193016119e2565b90508501358d6118f5565b60008381526020812092505b601f1987168110611abe575085601f19811610611aa6575b5050600184811b019055611908565b860135600019868f1b60f8161c191690558c80611a97565b9091602060018192858b013581550193019101611a7f565b90508801358c6118ad565b60008481526020812092508990601f198216905b8c828210611b2c57505010611b14575b5050600187811b0182556118c0565b890135600019898e1b60f8161c191690558b80611b05565b84013585556001909401936020938401938c935001611af5565b60405162461bcd60e51b815260206004820152603160248201527f416e64612062756b616e2061646d696e2052532079616e672062657268616b206044820152703ab73a3ab5903237b5ba32b91034b7349760791b6064820152608490fd5b60405162461bcd60e51b815260206004820152602160248201527f446f6b74657220746964616b207465726461667461722064692073697374656d6044820152601760f91b6064820152608490fd5b346102b357611c023661448a565b949160009693949660018060a01b038086169586331480611e9e575b15611de45750505060015b15611d7957611ca3611cc1928560005260209760068952611c5760ff60076040600020015460a01c1661485c565b611c97611c65600b546148a8565b9889600b5560405195611c7787614286565b8a8752898c880152611c8b8d36908b614587565b60408801523691614587565b60608501523691614587565b6080820152600160a0820152846000526009865260406000206148b7565b81600052600a8452604060002094855492600160401b841015610ac957611d12847f8647b41d1ffdc302f876f0e70e0c442d110a3c8bad284218f99616149394c997986001611d6d9701815561416e565b81549060031b9087821b91600019901b191617905584600052600d8652611d51604060002060405190611d44826142a1565b3382524289830152614b4d565b604051958695865285015260806040850152608084019161468d565b600160608301520390a1005b60405162461bcd60e51b815260206004820152603960248201527f416b746f7220746964616b2062657268616b206d656e616d6261682072656b6160448201527f6d206d6564697320756e74756b2070617369656e20696e692e000000000000006064820152608490fd5b33600052600460205260ff6040600020541680611e87575b611e08575b5050611c29565b86600052600660205260ff60076040600020015460a01c169182611e54575b5081611e43575b50611e3b575b8880611e01565b506001611e34565b611e4e915033614b9b565b89611e2e565b9091503360005260036020528060056040600020015416908760005260066020526007604060002001541614908a611e27565b50600360205260ff60036040600020015416611dfc565b5086600052600760205260ff60406000205416611c1e565b346102b35760203660031901126102b3576004356000908152600960205260409020805460018201546001600160a01b031691611512906114e4600282016142f8565b346102b35760203660031901126102b3576001600160a01b0380611f1b6140be565b16806000526007602052611f3660ff60406000205416614810565b6000526006602052611fc960406000209160078301541661201d611f59846142f8565b61200f611f68600187016142f8565b95612001611f78600283016142f8565b611ff3611f87600385016142f8565b611fe5611f96600487016142f8565b93611fd7611fb26006611fab60058b016142f8565b99016142f8565b996040519e8f9e8f926101008085528401906141f0565b9160208184039101526141f0565b8c810360408e0152906141f0565b908a820360608c01526141f0565b9088820360808a01526141f0565b9086820360a08801526141f0565b9084820360c08601526141f0565b9060e08301520390f35b346102b35761203536614458565b90600052600d602052604060002080548210156102b3576040916120589161446e565b506001808060a01b0382541691015482519182526020820152f35b346102b35760207f3dcd68c14f5f191f12b3b56bf35d5d7eb22447e9ec685290967b4558822ca98a6120a436614429565b92909233600052600182526120c360ff600160406000200154166146ae565b61210460018060a01b038095169485600052600484526120ea60ff60406000205416614760565b8560005260038452339060056040600020015416146147ac565b83600052600382526102638160036040600020019060ff801983541691151516179055565b346102b3576020806003193601126102b35760043580600052600d9081835260406000205461215781614720565b9261216560405194856142d7565b818452601f19928361217684614720565b01368787013761218583614720565b9361219360405195866142d7565b83855261219f84614720565b01368786013760005b8381106121d9576121cc8661151289886040519485946040865260408601906141b3565b91848303908501526143f5565b61223290826000528388526121f281604060002061446e565b50546001600160a01b03166122078289614c50565b5282600052838852600161221f82604060002061446e565b50015461222c8288614c50565b526148a8565b6121a8565b346102b35760203660031901126102b3576004356002548110156102b357612260602091614137565b905460405160039290921b1c6001600160a01b03168152f35b346102b35760003660031901126102b3576020600554604051908152f35b346102b35760203660031901126102b3576001600160a01b03806122b96140be565b1660005260066020526040600020906122d1826142f8565b906122de600184016142f8565b926122eb600282016142f8565b906122f8600382016142f8565b612304600483016142f8565b612310600584016142f8565b9161231d600685016142f8565b936007015494604051988998610120808b528a0161233a916141f0565b89810360208b015261234b916141f0565b88810360408a015261235c916141f0565b878103606089015261236d916141f0565b868103608088015261237e916141f0565b85810360a087015261238f916141f0565b84810360c08601526123a0916141f0565b91811660e084015260a01c60ff1615156101008301520390f35b346102b35760203660031901126102b3576004356008548110156102b35760086000527ff3f7a9fe364faab93b216da50a3214154f22a0a2b415b23a84c8169e8b636ee301546040516001600160a01b039091168152602090f35b346102b35760003660031901126102b3576020600254604051908152f35b346102b35760203660031901126102b35760043560025481101561245c57612260602091614137565b60405162461bcd60e51b815260206004820152601c60248201527f496e64656b732061646d696e20525320746964616b2076616c69642e000000006044820152606490fd5b346102b35760403660031901126102b3576124ba6140be565b6001600160401b03906024358281116102b3576124db903690600401614186565b909260018060a01b036124f38160005416331461451e565b83169384600052600190602092828452612511604060002054614230565b61266c57604051612521816142a1565b61252c368785614587565b81528481018481528860005284865260406000209151908151938411610ac957859161255c856108e18654614230565b8790601f8611600114612603576125a19591600091836125f8575b5050600019600383901b1c191690831b1783555b51151591019060ff801983541691151516179055565b600254600160401b811015610ac9577fc881e1c26fa1da107683b7f0c3f1689379721f2118918ff97cb8c0f0dfc9d354956104a382610a37956125e79401600255614137565b60405193838594855284019161468d565b015190508c80612577565b90601f1986169185600052896000209260005b8b82821061265657505091859391886125a199941061263d575b505050811b01835561258b565b015160001960f88460031b161c191690558c8080612630565b8385015186558b97909501949384019301612616565b60405162461bcd60e51b815260048101859052602b60248201527f41646d696e205253207375646168207465726461667461722064656e67616e2060448201526a30b630b6b0ba1034b7349760a91b6064820152608490fd5b346102b35760203660031901126102b3576001600160a01b036126e66140be565b166000526004602052602060ff604060002054166040519015158152f35b346102b35760003660031901126102b3576040518060085480825282602080930160086000527ff3f7a9fe364faab93b216da50a3214154f22a0a2b415b23a84c8169e8b636ee39260005b8582821061277a57505050612766925003836142d7565b6115126040519282849384528301906141b3565b85546001600160a01b031684526001958601958895509301920161274f565b346102b35760203660031901126102b3576004356000818152600960205260409020600101546001600160a01b0391906127d69083161515614c04565b60005260096020526040600020906115128254916001840154169260ff60058201541690612806600282016142f8565b9061281f6004612818600384016142f8565b92016142f8565b916040519687968761439e565b346102b35760203660031901126102b3576004356005548110156102b3576122606020916140ea565b346102b3576020806003193601126102b3576001600160a01b0390816128796140be565b16806000526004825260ff6040600020541615612980576000526003815260406000209060ff60038301541692600483019080600585015416926128bc856142f8565b946001936128d760026128d08785016142f8565b93016142f8565b93604051958685845491828152019360005285600020926000905b8282106129695750505050509261293c859361294a9361291b61295f9861292f9c9803876142d7565b6040519a8b9a60c08c5260c08c01906141f0565b918a8303908b01526141f0565b9087820360408901526141f0565b911515606086015284820360808601526141b3565b9060a08301520390f35b8454811686529487019493830193908301906128f2565b60405162461bcd60e51b815260048101839052601760248201527f446f6b74657220746964616b20646974656d756b616e2e0000000000000000006044820152606490fd5b346102b35760203660031901126102b3576001600160a01b036129e66140be565b166000526001602052612a1c604060002060ff6001612a04836142f8565b920154166040519283926040845260408401906141f0565b90151560208301520390f35b346102b35760803660031901126102b3576024356001600160401b0381116102b357612a58903690600401614186565b906044356001600160401b0381116102b357612a78903690600401614186565b92906064356001600160401b0381116102b357612a99903690600401614186565b919094600435600052600960205260018060a01b036001604060002001541633600052600460205260ff6040600020541680613166575b1561312b57806000526006602052612af560ff60076040600020015460a01c1661485c565b33600052600360205260018060a01b036005604060002001541681600052600660205260018060a01b0360076040600020015416036130c0576000903360005260036020526004604060002001906000918054925b838110613080575b505050501561301557600435600052600960205260406000209160018060a01b036001840154168015612fb75760ff60058501541615612f5957600435600052600c602052604060002084549160405192612bac84614286565b83526020830152612bbf600286016142f8565b6040830152612bd0600386016142f8565b6060830152612be1600486016142f8565b6080830152600160a08301528054600160401b811015610ac957612c0a91600182018155614502565b919091612f4357612c1a916148b7565b6001600160401b038511610ac957612c4285612c396002860154614230565b600286016145e4565b846000601f8211600114612ed557600091612eca575b508560011b906000198760031b1c19161760028401555b6001600160401b038211610ac9578190612c9982612c906003870154614230565b600387016145e4565b600090601f8311600114612e5957600092612e4e575b50508160011b916000199060031b1c19161760038201555b6001600160401b038211610ac957612cef82612ce66004840154614230565b600484016145e4565b6000601f8311600114612dbb57917fa06c67f47503323e059cd610f8be787c36f230a67a8ad4dc026d86692b66476b9591600482612d9f95600091612db0575b508360011b906000198560031b1c1916179101555b600435600052600d602052612d72604060002060405190612d64826142a1565b338252426020830152614b4d565b612d91604051958695600435875260a0602088015260a087019161468d565b91848303604086015261468d565b3360608301524260808301520390a1005b905084013589612d2f565b601f198316906004830160005260206000209160005b818110612e365750917fa06c67f47503323e059cd610f8be787c36f230a67a8ad4dc026d86692b66476b97939185612d9f969410612e1c575b50506004600183811b01910155612d44565b840135600019600385901b60f8161c191690558780612e0a565b9192602060018192868c013581550194019201612dd1565b013590508780612caf565b909250600384016000526020600020906000935b601f1984168510612eb2576001945083601f19811610612e98575b505050811b016003820155612cc7565b0135600019600384901b60f8161c19169055878080612e88565b81810135835560209485019460019093019201612e6d565b905086013588612c58565b90506002840160005260206000209060005b601f1988168110612f2b575086601f19811610612f11575b5050600185811b016002840155612c6f565b870135600019600388901b60f8161c191690558780612eff565b9091602060018192858c013581550193019101612ee7565b634e487b7160e01b600052600060045260246000fd5b60405162461bcd60e51b815260206004820152603060248201527f52656b616d206d6564697320696e6920737564616820746964616b2076616c6960448201526f3217b234b737b730b5ba34b335b0b71760811b6064820152608490fd5b60405162461bcd60e51b815260206004820152603060248201527f52656b616d206d6564697320746964616b20646974656d756b616e206174617560448201526f1024a2103a34b230b5903b30b634b21760811b6064820152608490fd5b60405162461bcd60e51b815260206004820152603c60248201527f446f6b74657220696e6920746964616b20646974756761736b616e20756e747560448201527f6b206d656e616e67616e692070617369656e2074657273656275742e000000006064820152608490fd5b8261308b828461416e565b905460039190911b1c6001600160a01b0316146130b0576130ab906148a8565b612b4a565b5050505050600187808080612b52565b60405162461bcd60e51b815260206004820152603860248201527f446f6b7465722064616e2070617369656e20746964616b20626572616461206460448201527f692072756d61682073616b69742079616e672073616d612e00000000000000006064820152608490fd5b60405162461bcd60e51b81526020600482015260136024820152722430b73cb0903237b5ba32b91030b5ba34b31760691b6044820152606490fd5b50600360205260ff60036040600020015416612ad0565b346102b35760003660031901126102b3576020600b54604051908152f35b346102b35760003660031901126102b3576000546040516001600160a01b039091168152602090f35b346102b35760203660031901126102b3576115126131e86131e36140be565b614c64565b6040519182916020835260208301906141f0565b346102b35760403660031901126102b3576132156140be565b61321d6140d4565b336000526020916001835261323c60ff600160406000200154166146ae565b60018060a01b0380821690816000526004855261326060ff60406000205416614760565b8160005260039485815261327f338360056040600020015416146147ac565b81851692836000526007825261329c60ff6040600020541661485c565b836000526006825282600760406000200154163381149081156134ae575b501561342b57836000526006825260076040600020018054848116156133e9575b50506000969296528181526004604060002001926000968454975b888110613366575050505050600160401b841015610ac957826104a3856133439360017fd9a2627959a7f46a8b96c10424cdae1f1b65151551cd206b119aca54c0a86a5a9801815561416e565b604080516001600160a01b039283168152929091166020830152819081016103de565b8282613372838961416e565b905490881b1c161461338c57613387906148a8565b6132f6565b60405162461bcd60e51b815260048101859052602f60248201527f50617369656e20696e6920737564616820646974756761736b616e206b65206460448201526e37b5ba32b9103a32b939b2b13aba1760891b6064820152608490fd5b33906001600160601b0360a01b16179055837f69d83204045c5e6656db57329ac5a8bb701f71f3c217dcf6092cee7cdf1ffae383604051338152a287806132db565b60405162461bcd60e51b815260048101839052604f60248201527f50617369656e20696e6920746964616b2074657264616674617220646920727560448201527f6d61682073616b697420416e646120617461752073756461682064692d61737360648201526e34b3b71035b2902929903630b4b71760891b608482015260a490fd5b905015886132ba565b346102b35760003660031901126102b3576040518060025480825282602080930160026000527f405787fa12a823e0f2b7631cc41b3ba8828b3321ca811111fa75cd3aa3bb5ace9260005b8582821061351957505050612766925003836142d7565b85546001600160a01b0316845260019586019588955093019201613502565b346102b35760203660031901126102b3576135516140be565b600054906001600160a01b039061356b338385161461451e565b16908115613583576001600160a01b03191617600055005b60405162461bcd60e51b8152602060048201526024808201527f416c616d61742073757065722061646d696e206261727520746964616b2076616044820152633634b21760e11b6064820152608490fd5b346102b35760203660031901126102b3576001600160a01b036135f56140be565b166000526007602052602060ff604060002054166040519015158152f35b346102b3576020806003193601126102b35760043590336000526001815261364560ff600160406000200154166146ae565b60008281526009825260409020600101546001600160a01b039061366c9082161515614c04565b8260005260098252806001604060002001541660005260068252339060076040600020015416036136b15760009182526009905260409020600501805460ff19169055005b6084906040519062461bcd60e51b82526004820152602660248201527f41646d696e20525320746964616b2062657268616b2061746173207061736965604482015265371034b7349760d11b6064820152fd5b346102b35760e03660031901126102b3576004356001600160401b0381116102b357613734903690600401614186565b906024356001600160401b0381116102b357613754903690600401614186565b906044356001600160401b0381116102b357613774903690600401614186565b906064356001600160401b0381116102b357613794903690600401614186565b906084356001600160401b0381116102b3576137b4903690600401614186565b909160a4356001600160401b0381116102b3576137d5903690600401614186565b9490956001600160401b0360c435116102b3576137f73660c435600401614186565b98909933600052600760205260ff60406000205416613fa75733600052600460205260ff60406000205416613f56578d9b336000526007602052604060002060ff1981541660011790558d6040519d61384f8f61426a565b369061385a92614587565b8d52369061386792614587565b60208c0152369061387792614587565b60408a0152369061388792614587565b6060880152369061389792614587565b608086015236906138a792614587565b60a084015236906138b792614587565b60c082015260e0810160009052610100810160019052336000526006602052604060002081518051906001600160401b038211610ac95781906138fe826108e18654614230565b602090601f8311600114613eea57600092613edf575b50508160011b916000199060031b1c19161781555b60208201518051906001600160401b038211610ac957819061395b826139526001870154614230565b600187016145e4565b602090601f8311600114613e6d57600092613e62575b50508160011b916000199060031b1c19161760018201555b60408201518051906001600160401b038211610ac95781906139bb826139b26002870154614230565b600287016145e4565b602090601f8311600114613df057600092613de5575b50508160011b916000199060031b1c19161760028201555b60608201518051906001600160401b038211610ac9578190613a1282612c906003870154614230565b602090601f8311600114613d7357600092613d68575b50508160011b916000199060031b1c19161760038201555b60808201518051906001600160401b038211610ac9578190613a7282613a696004870154614230565b600487016145e4565b602090601f8311600114613cf657600092613ceb575b50508160011b916000199060031b1c19161760048201555b60a08201518051906001600160401b038211610ac9578190613ad282613ac96005870154614230565b600587016145e4565b602090601f8311600114613c7957600092613c6e575b50508160011b916000199060031b1c19161760058201555b60c08201518051906001600160401b038211610ac957613b3082613b276006860154614230565b600686016145e4565b602090601f8311600114613be7579282613bcc9593600793600080516020614d568339815191529896600092613bdc575b50508160011b916000199060031b1c19161760068201555b019060018060a01b0360e08201511682549161010060ff60a01b910151151560a01b16916affffffffffffffffffffff60a81b1617179055613bba33614629565b6040519360408552604085019161468d565b91600060208201528033930390a2005b015190508980613b61565b906006840160005260206000209160005b601f1985168110613c56575083600793600080516020614d56833981519152989693600193613bcc9997601f19811610613c3d575b505050811b016006820155613b79565b015160001960f88460031b161c19169055898080613c2d565b91926020600181928685015181550194019201613bf8565b015190508680613ae8565b9250600584016000526020600020906000935b601f1984168510613cd0576001945083601f19811610613cb7575b505050811b016005820155613b00565b015160001960f88460031b161c19169055868080613ca7565b81810151835560209485019460019093019290910190613c8c565b015190508680613a88565b9250600484016000526020600020906000935b601f1984168510613d4d576001945083601f19811610613d34575b505050811b016004820155613aa0565b015160001960f88460031b161c19169055868080613d24565b81810151835560209485019460019093019290910190613d09565b015190508680613a28565b9250600384016000526020600020906000935b601f1984168510613dca576001945083601f19811610613db1575b505050811b016003820155613a40565b015160001960f88460031b161c19169055868080613da1565b81810151835560209485019460019093019290910190613d86565b0151905086806139d1565b9250600284016000526020600020906000935b601f1984168510613e47576001945083601f19811610613e2e575b505050811b0160028201556139e9565b015160001960f88460031b161c19169055868080613e1e565b81810151835560209485019460019093019290910190613e03565b015190508680613971565b9250600184016000526020600020906000935b601f1984168510613ec4576001945083601f19811610613eab575b505050811b016001820155613989565b015160001960f88460031b161c19169055868080613e9b565b81810151835560209485019460019093019290910190613e80565b015190508680613914565b9250836000526020600020906000935b601f1984168510613f3b576001945083601f19811610613f22575b505050811b018155613929565b015160001960f88460031b161c19169055868080613f15565b81810151835560209485019460019093019290910190613efa565b60405162461bcd60e51b8152602060048201526024808201527f416c616d617420696e6920746572646166746172207365626167616920646f6b6044820152633a32b91760e11b6064820152608490fd5b60405162461bcd60e51b8152602060048201526024808201527f416e64612073756461682074657264616674617220736562616761692070617360448201526334b2b71760e11b6064820152608490fd5b346102b35760203660031901126102b357600435600554811015614021576122606020916140ea565b60405162461bcd60e51b815260206004820152601a60248201527f496e64656b7320646f6b74657220746964616b2076616c69642e0000000000006044820152606490fd5b346102b35760403660031901126102b35761407f6140be565b6001600160a01b03166000908152600a60205260409020805460243591908210156102b3576020916140b09161416e565b90546040519160031b1c8152f35b600435906001600160a01b03821682036102b357565b602435906001600160a01b03821682036102b357565b6005548110156141215760056000527f036b6384b5eca791c62761152d0c79bb0604c104a5fb6f4eb0703f3154bb3db00190600090565b634e487b7160e01b600052603260045260246000fd5b6002548110156141215760026000527f405787fa12a823e0f2b7631cc41b3ba8828b3321ca811111fa75cd3aa3bb5ace0190600090565b80548210156141215760005260206000200190600090565b9181601f840112156102b3578235916001600160401b0383116102b357602083818601950101116102b357565b90815180825260208080930193019160005b8281106141d3575050505090565b83516001600160a01b0316855293810193928101926001016141c5565b919082519283825260005b84811061421c575050826000602080949584010152601f8019910116010190565b6020818301810151848301820152016141fb565b90600182811c92168015614260575b602083101461424a57565b634e487b7160e01b600052602260045260246000fd5b91607f169161423f565b61012081019081106001600160401b03821117610ac957604052565b60c081019081106001600160401b03821117610ac957604052565b604081019081106001600160401b03821117610ac957604052565b602081019081106001600160401b03821117610ac957604052565b90601f801991011681019081106001600160401b03821117610ac957604052565b906040519182600082549261430c84614230565b90818452600194858116908160001461437b5750600114614338575b5050614336925003836142d7565b565b9093915060005260209081600020936000915b81831061436357505061433693508201013880614328565b8554888401850152948501948794509183019161434b565b91505061433694506020925060ff191682840152151560051b8201013880614328565b9491936143d16143ed9460a0966143df949a999a8952600180891b0316602089015260c0604089015260c08801906141f0565b9086820360608801526141f0565b9084820360808601526141f0565b931515910152565b90815180825260208080930193019160005b828110614415575050505090565b835185529381019392810192600101614407565b60409060031901126102b3576004356001600160a01b03811681036102b3579060243580151581036102b35790565b60409060031901126102b3576004359060243590565b80548210156141215760005260206000209060011b0190600090565b60806003198201126102b3576004356001600160a01b03811681036102b357916001600160401b036024358181116102b357836144c991600401614186565b939093926044358381116102b357826144e491600401614186565b939093926064359182116102b3576144fe91600401614186565b9091565b8054821015614121576000526006602060002091020190600090565b1561452557565b60405162461bcd60e51b815260206004820152603460248201527f48616e79612073757065722061646d696e2079616e67206461706174206d656e6044820152733530b630b735b0b710333ab733b9b49034b7349760611b6064820152608490fd5b9291926001600160401b038211610ac957604051916145b0601f8201601f1916602001846142d7565b8294818452818301116102b3578281602093846000960137010152565b8181106145d8575050565b600081556001016145cd565b9190601f81116145f357505050565b614336926000526020600020906020601f840160051c8301931061461f575b601f0160051c01906145cd565b9091508190614612565b600854600160401b811015610ac95760018101806008558110156141215760086000527ff3f7a9fe364faab93b216da50a3214154f22a0a2b415b23a84c8169e8b636ee30180546001600160a01b0319166001600160a01b03909216919091179055565b908060209392818452848401376000828201840152601f01601f1916010190565b156146b557565b60405162461bcd60e51b815260206004820152603c60248201527f48616e79612061646d696e2052532079616e6720616b7469662079616e67206460448201527f61706174206d656e6a616c616e6b616e2066756e67736920696e692e000000006064820152608490fd5b6001600160401b038111610ac95760051b60200190565b916020916147509195949560408552604085019161468d565b6001600160a01b03909416910152565b1561476757565b60405162461bcd60e51b815260206004820152601760248201527f446f6b74657220746964616b207465726461667461722e0000000000000000006044820152606490fd5b156147b357565b60405162461bcd60e51b815260206004820152602f60248201527f446f6b74657220696e6920746964616b2074657264616674617220646920727560448201526e36b0b41039b0b5b4ba1020b732309760891b6064820152608490fd5b1561481757565b60405162461bcd60e51b815260206004820152601760248201527f50617369656e20746964616b20646974656d756b616e2e0000000000000000006044820152606490fd5b1561486357565b60405162461bcd60e51b815260206004820152601760248201527f50617369656e20746964616b207465726461667461722e0000000000000000006044820152606490fd5b60001981146105035760010190565b815181556001918282019260209360018060a01b0385840151166001600160601b0360a01b8254161790556002830160408301519081516001600160401b0392838211610ac957819061490e826108e18654614230565b8890601f8311600114614aea57600092614adf575b5050600019600383901b1c191690841b1790555b600384016060840151805190838211610ac957819061495a826108e18654614230565b8890601f8311600114614a7c57600092614a71575b5050600019600383901b1c191690841b1790555b60048401916080840151958651928311610ac9576149a5836108e18654614230565b80601f84116001146149fd575091808060a09593600597956143369a6000946149f2575b50501b916000199060031b1c19161790555b0151151591019060ff801983541691151516179055565b0151925038806149c9565b9193949596601f1984168660005283600020936000905b828210614a5a5750509260a0959285926143369a99966005999610614a41575b505050811b0190556149db565b015160001960f88460031b161c19169055388080614a34565b808886978294978701518155019601940190614a14565b01519050388061496f565b90869350601f19831691856000528a6000209260005b8c828210614ac95750508411614ab0575b505050811b019055614983565b015160001960f88460031b161c19169055388080614aa3565b8385015186558a97909501949384019301614a92565b015190503880614923565b90869350601f19831691856000528a6000209260005b8c828210614b375750508411614b1e575b505050811b019055614937565b015160001960f88460031b161c19169055388080614b11565b8385015186558a97909501949384019301614b00565b8054600160401b811015610ac957614b6a9160018201815561446e565b919091612f4357805182546001600160a01b0319166001600160a01b03919091161782556020015160019190910155565b9060018060a01b038092166000526003918260205260046040600020016000938154945b858110614bd157505050505050600090565b83614bdc828561416e565b905490841b1c1684861614614bf957614bf4906148a8565b614bbf565b505050505050600190565b15614c0b57565b60405162461bcd60e51b815260206004820152601c60248201527f52656b616d206d6564697320746964616b20646974656d756b616e2e000000006044820152606490fd5b80518210156141215760209160051b010190565b6000805490916001600160a01b0390811691168114614d2d578082526020916001835260409160ff6001848420015416614d14578082526004845260ff8383205416614cfc578152600783528190205460ff16614cdc57662ab735b737bbb760c91b905191614cd2836142a1565b6007835282015290565b652830b9b4b2b760d11b905191614cf2836142a1565b6006835282015290565b5050652237b5ba32b960d11b905191614cf2836142a1565b50506641646d696e525360c81b905191614cd2836142a1565b5050604051614d3b816142a1565b600a81526929bab832b920b236b4b760b11b60208201529056febc415dfc2764939233ab67a4f55915cc2bb9d94ecafbfb254036de3cd0dbb3a8a26469706673582212206d9bd6a1a5d769b499cfc4311581d1e85511883ca31903618ad3242cca293da264736f6c63430008130033",
  "immutableReferences": {},
  "source": "// SPDX-License-Identifier: MIT\r\npragma solidity ^0.8.0;\r\n\r\ncontract RekamMedisRS {\r\n    address public superAdmin;\r\n\r\n    struct AdminRS {\r\n        string namaRumahSakit;\r\n        bool aktif;\r\n    }\r\n    mapping(address => AdminRS) public dataAdmin;\r\n    address[] public daftarAdmin;\r\n\r\n    struct Dokter {\r\n        string nama;\r\n        string spesialisasi;\r\n        string nomorLisensi;\r\n        bool aktif;\r\n        address[] assignedPasien;\r\n        address adminRS; // Rumah sakit tempat dokter bertugas\r\n    }\r\n    mapping(address => Dokter) public dataDokter;\r\n    mapping(address => bool) public isDokter;\r\n    address[] public daftarDokter; // Ditambahkan untuk melacak semua dokter\r\n\r\n    struct Pasien {\r\n        string nama;\r\n        string golonganDarah;\r\n        string tanggalLahir;\r\n        string gender;\r\n        string alamat;\r\n        string noTelepon;\r\n        string email;\r\n        address rumahSakitPenanggungJawab;\r\n        bool exists;\r\n    }\r\n    mapping(address => Pasien) public dataPasien;\r\n    mapping(address => bool) public isPasien;\r\n    address[] public daftarPasien; // Ditambahkan untuk melacak semua pasien\r\n\r\n    struct UpdateInfo {\r\n        address dokter; // alamat aktor yang melakukan update/pembuatan (bisa dokter atau pasien)\r\n        uint256 timestamp; // waktu update (block.timestamp)\r\n    }\r\n\r\n    struct RekamMedisData {\r\n        uint id;\r\n        address pasien;\r\n        string diagnosa;\r\n        string foto;\r\n        string catatan;\r\n        bool valid;\r\n    }\r\n    mapping(uint => RekamMedisData) public rekamMedis;\r\n    mapping(address => uint[]) public rekamMedisByPasien;\r\n    uint public rekamMedisCount;\r\n\r\n    // History versi rekam medis\r\n    mapping(uint => RekamMedisData[]) public rekamMedisVersions;\r\n    mapping(uint => UpdateInfo[]) public rekamMedisUpdateHistory;\r\n\r\n    // Events\r\n    event AdminRSTerdaftar(address indexed admin, string namaRumahSakit);\r\n    event AdminRSStatusDiubah(address indexed admin, bool aktif);\r\n    event DokterTerdaftar(address indexed dokter, string nama, address adminRS);\r\n    event DokterStatusDiubah(address indexed dokter, bool aktif);\r\n    event DokterInfoDiperbarui(\r\n        // Event untuk update info dokter\r\n        address indexed dokter,\r\n        string nama,\r\n        string spesialisasi,\r\n        string nomorLisensi,\r\n        address indexed adminRS\r\n    );\r\n    event PasienTerdaftar(address indexed pasien, string nama, address adminRS);\r\n    event PasienPindahRS(address indexed pasien, address adminRS); // Belum ada fungsinya\r\n    event PasienDiassignKeDokter(address dokter, address pasien);\r\n    event RekamMedisDitambahkan(\r\n        uint id,\r\n        address pasien,\r\n        string diagnosa,\r\n        bool valid\r\n    );\r\n    event RekamMedisDiperbarui(\r\n        uint id,\r\n        string diagnosa,\r\n        string catatan,\r\n        address dokter, // Aktor yang memperbarui\r\n        uint timestamp\r\n    );\r\n\r\n    event PasienDiunassignDariDokter(address dokter, address pasien);\r\n\r\n    constructor() {\r\n        superAdmin = 0xB0dC0Bf642d339517438017Fc185Bb0f758A01D2; // Sesuai kode Anda\r\n    }\r\n\r\n    // Modifier\r\n    modifier hanyaSuperAdmin() {\r\n        require(\r\n            msg.sender == superAdmin,\r\n            \"Hanya super admin yang dapat menjalankan fungsi ini.\"\r\n        );\r\n        _;\r\n    }\r\n\r\n    modifier hanyaAdminRS() {\r\n        require(\r\n            dataAdmin[msg.sender].aktif,\r\n            \"Hanya admin RS yang aktif yang dapat menjalankan fungsi ini.\"\r\n        );\r\n        _;\r\n    }\r\n\r\n    modifier hanyaDokterAktif() {\r\n        require(\r\n            isDokter[msg.sender] && dataDokter[msg.sender].aktif,\r\n            \"Hanya dokter yang aktif yang dapat menjalankan fungsi ini.\"\r\n        );\r\n        _;\r\n    }\r\n\r\n    modifier hanyaDokterAktifUntukPasien(address _pasien) {\r\n        require(\r\n            isDokter[msg.sender] && dataDokter[msg.sender].aktif,\r\n            \"Hanya dokter aktif.\"\r\n        );\r\n        require(dataPasien[_pasien].exists, \"Pasien tidak terdaftar.\"); // Pastikan pasien ada\r\n        require(\r\n            dataDokter[msg.sender].adminRS ==\r\n                dataPasien[_pasien].rumahSakitPenanggungJawab,\r\n            \"Dokter dan pasien tidak berada di rumah sakit yang sama.\"\r\n        );\r\n        bool assigned = false;\r\n        address[] storage listPasienDitugaskan = dataDokter[msg.sender]\r\n            .assignedPasien;\r\n        for (uint i = 0; i < listPasienDitugaskan.length; i++) {\r\n            if (listPasienDitugaskan[i] == _pasien) {\r\n                assigned = true;\r\n                break;\r\n            }\r\n        }\r\n        require(\r\n            assigned,\r\n            \"Dokter ini tidak ditugaskan untuk menangani pasien tersebut.\"\r\n        );\r\n        _;\r\n    }\r\n\r\n    modifier hanyaPasien(address _pasien) {\r\n        // Modifier untuk pasien tertentu\r\n        require(\r\n            msg.sender == _pasien,\r\n            \"Hanya pasien yang bersangkutan yang dapat menjalankan fungsi ini.\"\r\n        );\r\n        _;\r\n    }\r\n\r\n    function registerAdminRS(\r\n        address _admin,\r\n        string calldata _namaRS\r\n    ) external hanyaSuperAdmin {\r\n        require(\r\n            bytes(dataAdmin[_admin].namaRumahSakit).length == 0,\r\n            \"Admin RS sudah terdaftar dengan alamat ini.\"\r\n        );\r\n        dataAdmin[_admin] = AdminRS({namaRumahSakit: _namaRS, aktif: true});\r\n        daftarAdmin.push(_admin);\r\n        emit AdminRSTerdaftar(_admin, _namaRS);\r\n    }\r\n\r\n    function getAllAdminRSAddresses() external view returns (address[] memory) {\r\n        return daftarAdmin;\r\n    }\r\n\r\n    function setStatusAdminRS(\r\n        address _admin,\r\n        bool _aktif\r\n    ) external hanyaSuperAdmin {\r\n        require(\r\n            bytes(dataAdmin[_admin].namaRumahSakit).length != 0,\r\n            \"Admin RS tidak ditemukan.\"\r\n        );\r\n        dataAdmin[_admin].aktif = _aktif;\r\n        emit AdminRSStatusDiubah(_admin, _aktif);\r\n    }\r\n\r\n    function totalAdmin() external view returns (uint) {\r\n        return daftarAdmin.length;\r\n    }\r\n\r\n    function getAdminByIndex(uint idx) external view returns (address) {\r\n        require(idx < daftarAdmin.length, \"Indeks admin RS tidak valid.\");\r\n        return daftarAdmin[idx];\r\n    }\r\n\r\n    function registerDokter(\r\n        address _dokter,\r\n        string calldata _nama,\r\n        string calldata _spesialisasi,\r\n        string calldata _nomorLisensi\r\n    ) external hanyaAdminRS {\r\n        require(\r\n            !isDokter[_dokter],\r\n            \"Alamat ini sudah terdaftar sebagai dokter.\"\r\n        );\r\n        require(\r\n            !isPasien[_dokter],\r\n            \"Alamat ini terdaftar sebagai pasien, tidak bisa menjadi dokter.\"\r\n        );\r\n        isDokter[_dokter] = true;\r\n        dataDokter[_dokter] = Dokter({\r\n            nama: _nama,\r\n            spesialisasi: _spesialisasi,\r\n            nomorLisensi: _nomorLisensi,\r\n            aktif: true,\r\n            assignedPasien: new address[](0),\r\n            adminRS: msg.sender\r\n        });\r\n        daftarDokter.push(_dokter);\r\n        emit DokterTerdaftar(_dokter, _nama, msg.sender);\r\n    }\r\n\r\n    function updateDokterInfo(\r\n        address _dokter,\r\n        string calldata _namaBaru,\r\n        string calldata _spesialisasiBaru,\r\n        string calldata _nomorLisensiBaru\r\n    ) external hanyaAdminRS {\r\n        require(isDokter[_dokter], \"Dokter tidak terdaftar di sistem.\");\r\n        require(\r\n            dataDokter[_dokter].adminRS == msg.sender,\r\n            \"Anda bukan admin RS yang berhak untuk dokter ini.\"\r\n        );\r\n\r\n        Dokter storage dokterToUpdate = dataDokter[_dokter];\r\n        dokterToUpdate.nama = _namaBaru;\r\n        dokterToUpdate.spesialisasi = _spesialisasiBaru;\r\n        dokterToUpdate.nomorLisensi = _nomorLisensiBaru;\r\n\r\n        emit DokterInfoDiperbarui(\r\n            _dokter,\r\n            _namaBaru,\r\n            _spesialisasiBaru,\r\n            _nomorLisensiBaru,\r\n            msg.sender\r\n        );\r\n    }\r\n\r\n    function setStatusDokter(\r\n        address _dokter,\r\n        bool _aktif\r\n    ) external hanyaAdminRS {\r\n        require(isDokter[_dokter], \"Dokter tidak terdaftar.\");\r\n        require(\r\n            dataDokter[_dokter].adminRS == msg.sender,\r\n            \"Dokter ini tidak terdaftar di rumah sakit Anda.\"\r\n        );\r\n        dataDokter[_dokter].aktif = _aktif;\r\n        emit DokterStatusDiubah(_dokter, _aktif);\r\n    }\r\n\r\n    function totalDokter() external view returns (uint) {\r\n        return daftarDokter.length;\r\n    }\r\n\r\n    function getDokterByIndex(uint idx) external view returns (address) {\r\n        require(idx < daftarDokter.length, \"Indeks dokter tidak valid.\");\r\n        return daftarDokter[idx];\r\n    }\r\n\r\n    function getDokter(\r\n        address _dokter\r\n    )\r\n        external\r\n        view\r\n        returns (\r\n            string memory nama,\r\n            string memory spesialisasi,\r\n            string memory nomorLisensi,\r\n            bool aktif,\r\n            address[] memory pasienList,\r\n            address adminRS\r\n        )\r\n    {\r\n        require(isDokter[_dokter], \"Dokter tidak ditemukan.\");\r\n        Dokter storage d = dataDokter[_dokter];\r\n        return (\r\n            d.nama,\r\n            d.spesialisasi,\r\n            d.nomorLisensi,\r\n            d.aktif,\r\n            d.assignedPasien,\r\n            d.adminRS\r\n        );\r\n    }\r\n\r\n    function registerPasien(\r\n        address _pasien,\r\n        string calldata _nama,\r\n        address _adminRS // Alamat Admin RS yang mendaftarkan\r\n    ) external hanyaAdminRS {\r\n        // Hanya admin RS yang aktif yang bisa mendaftarkan\r\n        require(\r\n            !isPasien[_pasien],\r\n            \"Pasien sudah terdaftar dengan alamat ini.\"\r\n        );\r\n        require(\r\n            !isDokter[_pasien],\r\n            \"Alamat ini terdaftar sebagai dokter, tidak bisa menjadi pasien.\"\r\n        );\r\n        require(\r\n            dataAdmin[_adminRS].aktif,\r\n            \"Admin RS yang dirujuk tidak aktif.\"\r\n        ); // Pastikan admin RS penanggung jawab aktif\r\n        require(\r\n            msg.sender == _adminRS,\r\n            \"Hanya admin RS penanggung jawab yang bisa mendaftarkan pasien ini.\"\r\n        );\r\n\r\n        isPasien[_pasien] = true;\r\n        dataPasien[_pasien] = Pasien({\r\n            nama: _nama,\r\n            golonganDarah: \"\",\r\n            tanggalLahir: \"\",\r\n            gender: \"\",\r\n            alamat: \"\",\r\n            noTelepon: \"\",\r\n            email: \"\",\r\n            rumahSakitPenanggungJawab: _adminRS,\r\n            exists: true\r\n        });\r\n        daftarPasien.push(_pasien);\r\n        emit PasienTerdaftar(_pasien, _nama, _adminRS);\r\n    }\r\n\r\n    function selfRegisterPasien(\r\n        string calldata _nama,\r\n        string calldata _golonganDarah,\r\n        string calldata _tanggalLahir,\r\n        string calldata _gender,\r\n        string calldata _alamat,\r\n        string calldata _noTelepon,\r\n        string calldata _email\r\n    ) external {\r\n        require(!isPasien[msg.sender], \"Anda sudah terdaftar sebagai pasien.\");\r\n        require(!isDokter[msg.sender], \"Alamat ini terdaftar sebagai dokter.\");\r\n\r\n        isPasien[msg.sender] = true;\r\n        dataPasien[msg.sender] = Pasien({\r\n            nama: _nama,\r\n            golonganDarah: _golonganDarah,\r\n            tanggalLahir: _tanggalLahir,\r\n            gender: _gender,\r\n            alamat: _alamat,\r\n            noTelepon: _noTelepon,\r\n            email: _email,\r\n            rumahSakitPenanggungJawab: address(0),\r\n            exists: true\r\n        });\r\n        daftarPasien.push(msg.sender);\r\n        emit PasienTerdaftar(msg.sender, _nama, address(0));\r\n    }\r\n\r\n    function getDaftarPasien() external view returns (address[] memory) {\r\n        return daftarPasien;\r\n    }\r\n\r\n    function getPasienData(\r\n        address _pasien\r\n    )\r\n        external\r\n        view\r\n        returns (\r\n            string memory nama,\r\n            string memory golonganDarah,\r\n            string memory tanggalLahir,\r\n            string memory gender,\r\n            string memory alamat,\r\n            string memory noTelepon,\r\n            string memory email,\r\n            address rumahSakitPenanggungJawab\r\n        )\r\n    {\r\n        require(isPasien[_pasien], \"Pasien tidak ditemukan.\");\r\n        Pasien storage p = dataPasien[_pasien];\r\n        return (\r\n            p.nama,\r\n            p.golonganDarah,\r\n            p.tanggalLahir,\r\n            p.gender,\r\n            p.alamat,\r\n            p.noTelepon,\r\n            p.email,\r\n            p.rumahSakitPenanggungJawab\r\n        );\r\n    }\r\n\r\n    function assignPasienToDokter(\r\n        address _dokter,\r\n        address _pasien\r\n    ) external hanyaAdminRS {\r\n        require(isDokter[_dokter], \"Dokter tidak terdaftar.\");\r\n        require(\r\n            dataDokter[_dokter].adminRS == msg.sender,\r\n            \"Dokter ini tidak terdaftar di rumah sakit Anda.\"\r\n        );\r\n        require(isPasien[_pasien], \"Pasien tidak terdaftar.\");\r\n        // Izinkan AdminRS assign pasien yang rumahSakitPenanggungJawab-nya address(0) atau RS-nya sama\r\n        require(\r\n            dataPasien[_pasien].rumahSakitPenanggungJawab == msg.sender ||\r\n                dataPasien[_pasien].rumahSakitPenanggungJawab == address(0),\r\n            \"Pasien ini tidak terdaftar di rumah sakit Anda atau sudah di-assign ke RS lain.\"\r\n        );\r\n        // Jika pasien self-register dan belum punya RS penanggung jawab, set RS penanggung jawabnya ke RS Admin ini\r\n        if (dataPasien[_pasien].rumahSakitPenanggungJawab == address(0)) {\r\n            dataPasien[_pasien].rumahSakitPenanggungJawab = msg.sender;\r\n            emit PasienPindahRS(_pasien, msg.sender); // Bisa pakai event ini atau buat baru\r\n        }\r\n\r\n        address[] storage listPasienDitugaskan = dataDokter[_dokter]\r\n            .assignedPasien;\r\n        for (uint i = 0; i < listPasienDitugaskan.length; i++) {\r\n            require(\r\n                listPasienDitugaskan[i] != _pasien,\r\n                \"Pasien ini sudah ditugaskan ke dokter tersebut.\"\r\n            );\r\n        }\r\n        listPasienDitugaskan.push(_pasien);\r\n        emit PasienDiassignKeDokter(_dokter, _pasien);\r\n    }\r\n\r\n    function unassignPasienFromDokter(\r\n        address _dokter,\r\n        address _pasien\r\n    ) external hanyaAdminRS {\r\n        require(isDokter[_dokter], \"Dokter tidak terdaftar.\");\r\n        require(\r\n            dataDokter[_dokter].adminRS == msg.sender,\r\n            \"Dokter ini tidak terdaftar di rumah sakit Anda.\"\r\n        );\r\n        require(isPasien[_pasien], \"Pasien tidak terdaftar.\");\r\n        require(\r\n            dataPasien[_pasien].rumahSakitPenanggungJawab == msg.sender,\r\n            \"Pasien ini tidak terdaftar di rumah sakit Anda.\"\r\n        );\r\n\r\n        bool found = false;\r\n        address[] storage listPasienDitugaskan = dataDokter[_dokter]\r\n            .assignedPasien;\r\n        for (uint i = 0; i < listPasienDitugaskan.length; i++) {\r\n            if (listPasienDitugaskan[i] == _pasien) {\r\n                // Geser elemen terakhir ke posisi saat ini dan kurangi panjang array\r\n                listPasienDitugaskan[i] = listPasienDitugaskan[\r\n                    listPasienDitugaskan.length - 1\r\n                ];\r\n                listPasienDitugaskan.pop();\r\n                found = true;\r\n                break;\r\n            }\r\n        }\r\n        require(found, \"Pasien tidak ditugaskan ke dokter ini.\");\r\n        emit PasienDiunassignDariDokter(_dokter, _pasien); // Tambahkan event ini juga di atas\r\n    }\r\n\r\n    function isAssigned(\r\n        address _dokter,\r\n        address _pasien\r\n    ) internal view returns (bool) {\r\n        address[] storage list = dataDokter[_dokter].assignedPasien;\r\n        for (uint i = 0; i < list.length; i++) {\r\n            if (list[i] == _pasien) {\r\n                return true;\r\n            }\r\n        }\r\n        return false;\r\n    }\r\n\r\n    // --- MODIFIKASI DI SINI ---\r\n    function tambahRekamMedis(\r\n        address _pasien,\r\n        string calldata _diagnosa,\r\n        string calldata _foto,\r\n        string calldata _catatan\r\n    ) external {\r\n        bool isValidActor = false;\r\n        if (msg.sender == _pasien && isPasien[_pasien]) {\r\n            isValidActor = true;\r\n        } else if (isDokter[msg.sender] && dataDokter[msg.sender].aktif) {\r\n            if (\r\n                dataPasien[_pasien].exists &&\r\n                dataDokter[msg.sender].adminRS ==\r\n                dataPasien[_pasien].rumahSakitPenanggungJawab &&\r\n                isAssigned(msg.sender, _pasien)\r\n            ) {\r\n                isValidActor = true;\r\n            }\r\n        }\r\n        require(\r\n            isValidActor,\r\n            \"Aktor tidak berhak menambah rekam medis untuk pasien ini.\"\r\n        );\r\n        require(dataPasien[_pasien].exists, \"Pasien tidak terdaftar.\"); // Pastikan pasien exist sebelum tambah RM\r\n\r\n        rekamMedisCount++;\r\n        uint newId = rekamMedisCount; // Gunakan variabel agar konsisten\r\n        rekamMedis[newId] = RekamMedisData({\r\n            id: newId,\r\n            pasien: _pasien,\r\n            diagnosa: _diagnosa,\r\n            foto: _foto,\r\n            catatan: _catatan,\r\n            valid: true\r\n        });\r\n        rekamMedisByPasien[_pasien].push(newId);\r\n\r\n        // --- BARIS TAMBAHAN UNTUK MENCATAT RIWAYAT PEMBUATAN AWAL ---\r\n        rekamMedisUpdateHistory[newId].push(\r\n            UpdateInfo({\r\n                dokter: msg.sender, // Menyimpan alamat msg.sender (pembuat)\r\n                timestamp: block.timestamp\r\n            })\r\n        );\r\n        // -----------------------------------------------------------\r\n\r\n        emit RekamMedisDitambahkan(newId, _pasien, _diagnosa, true);\r\n    }\r\n\r\n    function updateRekamMedis(\r\n        uint _id,\r\n        string calldata _diagnosa,\r\n        string calldata _foto,\r\n        string calldata _catatan\r\n    ) external hanyaDokterAktifUntukPasien(rekamMedis[_id].pasien) {\r\n        RekamMedisData storage r = rekamMedis[_id];\r\n        require(\r\n            r.pasien != address(0),\r\n            \"Rekam medis tidak ditemukan atau ID tidak valid.\"\r\n        ); // Pastikan RM ada\r\n        require(r.valid, \"Rekam medis ini sudah tidak valid/dinonaktifkan.\");\r\n\r\n        // Simpan versi lama sebelum update\r\n        rekamMedisVersions[_id].push(\r\n            RekamMedisData({\r\n                id: r.id,\r\n                pasien: r.pasien,\r\n                diagnosa: r.diagnosa,\r\n                foto: r.foto,\r\n                catatan: r.catatan,\r\n                valid: r.valid // Simpan status validitas sebelumnya juga\r\n            })\r\n        );\r\n\r\n        // Update data rekam medis utama\r\n        r.diagnosa = _diagnosa;\r\n        r.foto = _foto;\r\n        r.catatan = _catatan;\r\n        // r.valid tetap true karena ini adalah update aktif, kecuali ada logika lain\r\n\r\n        // Simpan info update (siapa dan kapan)\r\n        rekamMedisUpdateHistory[_id].push(\r\n            UpdateInfo({dokter: msg.sender, timestamp: block.timestamp})\r\n        );\r\n\r\n        emit RekamMedisDiperbarui(\r\n            _id,\r\n            _diagnosa,\r\n            _catatan,\r\n            msg.sender,\r\n            block.timestamp\r\n        );\r\n    }\r\n\r\n    function getRekamMedisIdsByPasien(\r\n        address _pasien\r\n    ) external view returns (uint[] memory) {\r\n        require(isPasien[_pasien], \"Pasien tidak ditemukan.\");\r\n        return rekamMedisByPasien[_pasien];\r\n    }\r\n\r\n    function getRekamMedis(\r\n        uint _id\r\n    )\r\n        external\r\n        view\r\n        returns (\r\n            uint id,\r\n            address pasien,\r\n            string memory diagnosa,\r\n            string memory foto,\r\n            string memory catatan,\r\n            bool valid\r\n        )\r\n    {\r\n        require(\r\n            rekamMedis[_id].pasien != address(0),\r\n            \"Rekam medis tidak ditemukan.\"\r\n        );\r\n        RekamMedisData storage r = rekamMedis[_id];\r\n        return (r.id, r.pasien, r.diagnosa, r.foto, r.catatan, r.valid);\r\n    }\r\n\r\n    function getRekamMedisVersions(\r\n        uint _id\r\n    ) external view returns (RekamMedisData[] memory) {\r\n        // Tidak perlu require di sini karena jika _id tidak ada, akan return array kosong\r\n        return rekamMedisVersions[_id];\r\n    }\r\n\r\n    function getRekamMedisUpdateHistory(\r\n        uint _id\r\n    )\r\n        external\r\n        view\r\n        returns (address[] memory actors, uint256[] memory timestamps)\r\n    {\r\n        // Tidak perlu require di sini, akan return array kosong jika tidak ada histori\r\n        uint len = rekamMedisUpdateHistory[_id].length;\r\n        actors = new address[](len); // 'actors' karena bisa dokter atau pasien\r\n        timestamps = new uint256[](len);\r\n        for (uint i = 0; i < len; i++) {\r\n            actors[i] = rekamMedisUpdateHistory[_id][i].dokter; // Tetap .dokter sesuai struct\r\n            timestamps[i] = rekamMedisUpdateHistory[_id][i].timestamp;\r\n        }\r\n        return (actors, timestamps);\r\n    }\r\n\r\n    function nonaktifkanRekamMedis(uint _id) external hanyaAdminRS {\r\n        require(\r\n            rekamMedis[_id].pasien != address(0),\r\n            \"Rekam medis tidak ditemukan.\"\r\n        );\r\n        // Pastikan adminRS yang menonaktifkan adalah admin dari RS tempat pasien terdaftar\r\n        require(\r\n            dataPasien[rekamMedis[_id].pasien].rumahSakitPenanggungJawab ==\r\n                msg.sender,\r\n            \"Admin RS tidak berhak atas pasien ini.\"\r\n        );\r\n        rekamMedis[_id].valid = false;\r\n        // Pertimbangkan untuk emit event di sini\r\n    }\r\n\r\n    function setSuperAdmin(address _newAdmin) external hanyaSuperAdmin {\r\n        require(\r\n            _newAdmin != address(0),\r\n            \"Alamat super admin baru tidak valid.\"\r\n        );\r\n        superAdmin = _newAdmin;\r\n    }\r\n\r\n    function getUserRole(address _user) public view returns (string memory) {\r\n        if (_user == superAdmin) return \"SuperAdmin\";\r\n        if (dataAdmin[_user].aktif) return \"AdminRS\"; // Cek status aktif juga\r\n        if (isDokter[_user]) return \"Dokter\";\r\n        if (isPasien[_user]) return \"Pasien\";\r\n        return \"Unknown\";\r\n    }\r\n}\r\n",
  "sourcePath": "D:\\TA\\rekam_medis_backend\\contracts\\RekamMedisRS.sol",
  "compiler": {
    "name": "solc",
    "version": "0.8.19+commit.7dd6d404.Emscripten.clang"
  },
  "schemaVersion": "3.4.16",
  "updatedAt": "2025-06-15T14:30:28.707Z",
  "networkType": "ethereum",
  "devdoc": {
    "kind": "dev",
    "methods": {},
    "version": 1
  },
  "userdoc": {
    "kind": "user",
    "methods": {},
    "version": 1
  }
}