{
  "contractName": "RekamMedisRS",
  "abi": [
    {
      "inputs": [],
      "stateMutability": "nonpayable",
      "type": "constructor"
    },
    {
      "anonymous": false,
      "inputs": [
        {
          "indexed": true,
          "internalType": "address",
          "name": "admin",
          "type": "address"
        },
        {
          "indexed": false,
          "internalType": "string",
          "name": "namaRumahSakit",
          "type": "string"
        },
        {
          "indexed": false,
          "internalType": "string",
          "name": "alamatRumahSakit",
          "type": "string"
        },
        {
          "indexed": false,
          "internalType": "string",
          "name": "kota",
          "type": "string"
        },
        {
          "indexed": false,
          "internalType": "string",
          "name": "NIBRS",
          "type": "string"
        }
      ],
      "name": "AdminRSInfoDiperbarui",
      "type": "event"
    },
    {
      "anonymous": false,
      "inputs": [
        {
          "indexed": true,
          "internalType": "address",
          "name": "admin",
          "type": "address"
        },
        {
          "indexed": false,
          "internalType": "bool",
          "name": "aktif",
          "type": "bool"
        }
      ],
      "name": "AdminRSStatusDiubah",
      "type": "event"
    },
    {
      "anonymous": false,
      "inputs": [
        {
          "indexed": true,
          "internalType": "address",
          "name": "admin",
          "type": "address"
        },
        {
          "indexed": false,
          "internalType": "string",
          "name": "namaRumahSakit",
          "type": "string"
        },
        {
          "indexed": false,
          "internalType": "string",
          "name": "alamatRumahSakit",
          "type": "string"
        },
        {
          "indexed": false,
          "internalType": "string",
          "name": "kota",
          "type": "string"
        },
        {
          "indexed": false,
          "internalType": "string",
          "name": "NIBRS",
          "type": "string"
        }
      ],
      "name": "AdminRSTerdaftar",
      "type": "event"
    },
    {
      "anonymous": false,
      "inputs": [
        {
          "indexed": true,
          "internalType": "address",
          "name": "dokter",
          "type": "address"
        },
        {
          "indexed": false,
          "internalType": "string",
          "name": "nama",
          "type": "string"
        },
        {
          "indexed": false,
          "internalType": "string",
          "name": "spesialisasi",
          "type": "string"
        },
        {
          "indexed": false,
          "internalType": "string",
          "name": "nomorLisensi",
          "type": "string"
        },
        {
          "indexed": true,
          "internalType": "address",
          "name": "adminRS",
          "type": "address"
        }
      ],
      "name": "DokterInfoDiperbarui",
      "type": "event"
    },
    {
      "anonymous": false,
      "inputs": [
        {
          "indexed": true,
          "internalType": "address",
          "name": "dokter",
          "type": "address"
        },
        {
          "indexed": false,
          "internalType": "bool",
          "name": "aktif",
          "type": "bool"
        }
      ],
      "name": "DokterStatusDiubah",
      "type": "event"
    },
    {
      "anonymous": false,
      "inputs": [
        {
          "indexed": true,
          "internalType": "address",
          "name": "dokter",
          "type": "address"
        },
        {
          "indexed": false,
          "internalType": "string",
          "name": "nama",
          "type": "string"
        },
        {
          "indexed": false,
          "internalType": "address",
          "name": "adminRS",
          "type": "address"
        }
      ],
      "name": "DokterTerdaftar",
      "type": "event"
    },
    {
      "anonymous": false,
      "inputs": [
        {
          "indexed": true,
          "internalType": "address",
          "name": "pasien",
          "type": "address"
        },
        {
          "indexed": false,
          "internalType": "string",
          "name": "nama",
          "type": "string"
        },
        {
          "indexed": false,
          "internalType": "string",
          "name": "golonganDarah",
          "type": "string"
        },
        {
          "indexed": false,
          "internalType": "string",
          "name": "tanggalLahir",
          "type": "string"
        },
        {
          "indexed": false,
          "internalType": "string",
          "name": "gender",
          "type": "string"
        },
        {
          "indexed": false,
          "internalType": "string",
          "name": "alamat",
          "type": "string"
        },
        {
          "indexed": false,
          "internalType": "string",
          "name": "noTelepon",
          "type": "string"
        },
        {
          "indexed": false,
          "internalType": "string",
          "name": "email",
          "type": "string"
        }
      ],
      "name": "PasienDataDiperbarui",
      "type": "event"
    },
    {
      "anonymous": false,
      "inputs": [
        {
          "indexed": false,
          "internalType": "address",
          "name": "dokter",
          "type": "address"
        },
        {
          "indexed": false,
          "internalType": "address",
          "name": "pasien",
          "type": "address"
        }
      ],
      "name": "PasienDiassignKeDokter",
      "type": "event"
    },
    {
      "anonymous": false,
      "inputs": [
        {
          "indexed": false,
          "internalType": "address",
          "name": "dokter",
          "type": "address"
        },
        {
          "indexed": false,
          "internalType": "address",
          "name": "pasien",
          "type": "address"
        }
      ],
      "name": "PasienDiunassignDariDokter",
      "type": "event"
    },
    {
      "anonymous": false,
      "inputs": [
        {
          "indexed": true,
          "internalType": "address",
          "name": "pasien",
          "type": "address"
        },
        {
          "indexed": false,
          "internalType": "address",
          "name": "oldAdminRS",
          "type": "address"
        },
        {
          "indexed": false,
          "internalType": "address",
          "name": "newAdminRS",
          "type": "address"
        }
      ],
      "name": "PasienPindahRS",
      "type": "event"
    },
    {
      "anonymous": false,
      "inputs": [
        {
          "indexed": true,
          "internalType": "address",
          "name": "pasien",
          "type": "address"
        },
        {
          "indexed": false,
          "internalType": "string",
          "name": "nama",
          "type": "string"
        },
        {
          "indexed": false,
          "internalType": "string",
          "name": "IDPasien",
          "type": "string"
        },
        {
          "indexed": false,
          "internalType": "address",
          "name": "adminRS",
          "type": "address"
        }
      ],
      "name": "PasienTerdaftar",
      "type": "event"
    },
    {
      "anonymous": false,
      "inputs": [
        {
          "indexed": false,
          "internalType": "uint256",
          "name": "id",
          "type": "uint256"
        },
        {
          "indexed": false,
          "internalType": "address",
          "name": "pasien",
          "type": "address"
        },
        {
          "indexed": false,
          "internalType": "string",
          "name": "diagnosa",
          "type": "string"
        },
        {
          "indexed": false,
          "internalType": "string",
          "name": "foto",
          "type": "string"
        },
        {
          "indexed": false,
          "internalType": "string",
          "name": "catatan",
          "type": "string"
        },
        {
          "indexed": false,
          "internalType": "string",
          "name": "tipeRekamMedis",
          "type": "string"
        },
        {
          "indexed": false,
          "internalType": "address",
          "name": "pembuat",
          "type": "address"
        },
        {
          "indexed": false,
          "internalType": "uint256",
          "name": "timestamp",
          "type": "uint256"
        }
      ],
      "name": "RekamMedisDitambahkan",
      "type": "event"
    },
    {
      "inputs": [
        {
          "internalType": "uint256",
          "name": "",
          "type": "uint256"
        }
      ],
      "name": "daftarAdmin",
      "outputs": [
        {
          "internalType": "address",
          "name": "",
          "type": "address"
        }
      ],
      "stateMutability": "view",
      "type": "function",
      "constant": true
    },
    {
      "inputs": [
        {
          "internalType": "uint256",
          "name": "",
          "type": "uint256"
        }
      ],
      "name": "daftarDokter",
      "outputs": [
        {
          "internalType": "address",
          "name": "",
          "type": "address"
        }
      ],
      "stateMutability": "view",
      "type": "function",
      "constant": true
    },
    {
      "inputs": [
        {
          "internalType": "uint256",
          "name": "",
          "type": "uint256"
        }
      ],
      "name": "daftarPasien",
      "outputs": [
        {
          "internalType": "address",
          "name": "",
          "type": "address"
        }
      ],
      "stateMutability": "view",
      "type": "function",
      "constant": true
    },
    {
      "inputs": [
        {
          "internalType": "address",
          "name": "",
          "type": "address"
        }
      ],
      "name": "dataAdmin",
      "outputs": [
        {
          "internalType": "string",
          "name": "namaRumahSakit",
          "type": "string"
        },
        {
          "internalType": "bool",
          "name": "aktif",
          "type": "bool"
        },
        {
          "internalType": "string",
          "name": "alamatRumahSakit",
          "type": "string"
        },
        {
          "internalType": "string",
          "name": "kota",
          "type": "string"
        },
        {
          "internalType": "string",
          "name": "NIBRS",
          "type": "string"
        }
      ],
      "stateMutability": "view",
      "type": "function",
      "constant": true
    },
    {
      "inputs": [
        {
          "internalType": "address",
          "name": "",
          "type": "address"
        }
      ],
      "name": "dataDokter",
      "outputs": [
        {
          "internalType": "string",
          "name": "nama",
          "type": "string"
        },
        {
          "internalType": "string",
          "name": "spesialisasi",
          "type": "string"
        },
        {
          "internalType": "string",
          "name": "nomorLisensi",
          "type": "string"
        },
        {
          "internalType": "bool",
          "name": "aktif",
          "type": "bool"
        },
        {
          "internalType": "address",
          "name": "adminRS",
          "type": "address"
        }
      ],
      "stateMutability": "view",
      "type": "function",
      "constant": true
    },
    {
      "inputs": [
        {
          "internalType": "address",
          "name": "",
          "type": "address"
        }
      ],
      "name": "dataPasien",
      "outputs": [
        {
          "internalType": "string",
          "name": "nama",
          "type": "string"
        },
        {
          "internalType": "string",
          "name": "ID",
          "type": "string"
        },
        {
          "internalType": "string",
          "name": "golonganDarah",
          "type": "string"
        },
        {
          "internalType": "string",
          "name": "tanggalLahir",
          "type": "string"
        },
        {
          "internalType": "string",
          "name": "gender",
          "type": "string"
        },
        {
          "internalType": "string",
          "name": "alamat",
          "type": "string"
        },
        {
          "internalType": "string",
          "name": "noTelepon",
          "type": "string"
        },
        {
          "internalType": "string",
          "name": "email",
          "type": "string"
        },
        {
          "internalType": "address",
          "name": "rumahSakitPenanggungJawab",
          "type": "address"
        }
      ],
      "stateMutability": "view",
      "type": "function",
      "constant": true
    },
    {
      "inputs": [
        {
          "internalType": "address",
          "name": "",
          "type": "address"
        }
      ],
      "name": "isDokter",
      "outputs": [
        {
          "internalType": "bool",
          "name": "",
          "type": "bool"
        }
      ],
      "stateMutability": "view",
      "type": "function",
      "constant": true
    },
    {
      "inputs": [
        {
          "internalType": "string",
          "name": "",
          "type": "string"
        }
      ],
      "name": "isNIBRSUsed",
      "outputs": [
        {
          "internalType": "bool",
          "name": "",
          "type": "bool"
        }
      ],
      "stateMutability": "view",
      "type": "function",
      "constant": true
    },
    {
      "inputs": [
        {
          "internalType": "address",
          "name": "",
          "type": "address"
        }
      ],
      "name": "isPasien",
      "outputs": [
        {
          "internalType": "bool",
          "name": "",
          "type": "bool"
        }
      ],
      "stateMutability": "view",
      "type": "function",
      "constant": true
    },
    {
      "inputs": [
        {
          "internalType": "string",
          "name": "",
          "type": "string"
        }
      ],
      "name": "isPatientIDUsed",
      "outputs": [
        {
          "internalType": "bool",
          "name": "",
          "type": "bool"
        }
      ],
      "stateMutability": "view",
      "type": "function",
      "constant": true
    },
    {
      "inputs": [
        {
          "internalType": "uint256",
          "name": "",
          "type": "uint256"
        }
      ],
      "name": "rekamMedis",
      "outputs": [
        {
          "internalType": "uint256",
          "name": "id",
          "type": "uint256"
        },
        {
          "internalType": "address",
          "name": "pasien",
          "type": "address"
        },
        {
          "internalType": "string",
          "name": "diagnosa",
          "type": "string"
        },
        {
          "internalType": "string",
          "name": "foto",
          "type": "string"
        },
        {
          "internalType": "string",
          "name": "catatan",
          "type": "string"
        },
        {
          "internalType": "address",
          "name": "pembuat",
          "type": "address"
        },
        {
          "internalType": "uint256",
          "name": "timestampPembuatan",
          "type": "uint256"
        },
        {
          "internalType": "string",
          "name": "tipeRekamMedis",
          "type": "string"
        }
      ],
      "stateMutability": "view",
      "type": "function",
      "constant": true
    },
    {
      "inputs": [
        {
          "internalType": "address",
          "name": "",
          "type": "address"
        },
        {
          "internalType": "uint256",
          "name": "",
          "type": "uint256"
        }
      ],
      "name": "rekamMedisByPasien",
      "outputs": [
        {
          "internalType": "uint256",
          "name": "",
          "type": "uint256"
        }
      ],
      "stateMutability": "view",
      "type": "function",
      "constant": true
    },
    {
      "inputs": [],
      "name": "rekamMedisCount",
      "outputs": [
        {
          "internalType": "uint256",
          "name": "",
          "type": "uint256"
        }
      ],
      "stateMutability": "view",
      "type": "function",
      "constant": true
    },
    {
      "inputs": [
        {
          "internalType": "address",
          "name": "_admin",
          "type": "address"
        },
        {
          "internalType": "string",
          "name": "_namaBaru",
          "type": "string"
        },
        {
          "internalType": "string",
          "name": "_alamatBaru",
          "type": "string"
        },
        {
          "internalType": "string",
          "name": "_kotaBaru",
          "type": "string"
        },
        {
          "internalType": "string",
          "name": "_NIBRSBaru",
          "type": "string"
        }
      ],
      "name": "updateAdminRSDetails",
      "outputs": [],
      "stateMutability": "nonpayable",
      "type": "function"
    },
    {
      "inputs": [
        {
          "internalType": "address",
          "name": "_admin",
          "type": "address"
        },
        {
          "internalType": "bool",
          "name": "_aktif",
          "type": "bool"
        }
      ],
      "name": "setStatusAdminRS",
      "outputs": [],
      "stateMutability": "nonpayable",
      "type": "function"
    },
    {
      "inputs": [],
      "name": "getAllAdminRSAddresses",
      "outputs": [
        {
          "internalType": "address[]",
          "name": "",
          "type": "address[]"
        }
      ],
      "stateMutability": "view",
      "type": "function",
      "constant": true
    },
    {
      "inputs": [],
      "name": "totalAdmin",
      "outputs": [
        {
          "internalType": "uint256",
          "name": "",
          "type": "uint256"
        }
      ],
      "stateMutability": "view",
      "type": "function",
      "constant": true
    },
    {
      "inputs": [
        {
          "internalType": "uint256",
          "name": "idx",
          "type": "uint256"
        }
      ],
      "name": "getAdminByIndex",
      "outputs": [
        {
          "internalType": "address",
          "name": "",
          "type": "address"
        }
      ],
      "stateMutability": "view",
      "type": "function",
      "constant": true
    },
    {
      "inputs": [
        {
          "internalType": "address",
          "name": "_admin",
          "type": "address"
        }
      ],
      "name": "getAdminRS",
      "outputs": [
        {
          "internalType": "string",
          "name": "namaRumahSakit",
          "type": "string"
        },
        {
          "internalType": "bool",
          "name": "aktif",
          "type": "bool"
        },
        {
          "internalType": "string",
          "name": "alamatRumahSakit",
          "type": "string"
        },
        {
          "internalType": "string",
          "name": "kota",
          "type": "string"
        },
        {
          "internalType": "string",
          "name": "NIBRS",
          "type": "string"
        }
      ],
      "stateMutability": "view",
      "type": "function",
      "constant": true
    },
    {
      "inputs": [
        {
          "internalType": "address",
          "name": "_dokter",
          "type": "address"
        },
        {
          "internalType": "string",
          "name": "_nama",
          "type": "string"
        },
        {
          "internalType": "string",
          "name": "_spesialisasi",
          "type": "string"
        },
        {
          "internalType": "string",
          "name": "_nomorLisensi",
          "type": "string"
        }
      ],
      "name": "registerDokter",
      "outputs": [],
      "stateMutability": "nonpayable",
      "type": "function"
    },
    {
      "inputs": [
        {
          "internalType": "address",
          "name": "_dokter",
          "type": "address"
        },
        {
          "internalType": "string",
          "name": "_namaBaru",
          "type": "string"
        },
        {
          "internalType": "string",
          "name": "_spesialisasiBaru",
          "type": "string"
        },
        {
          "internalType": "string",
          "name": "_nomorLisensiBaru",
          "type": "string"
        }
      ],
      "name": "updateDokterInfo",
      "outputs": [],
      "stateMutability": "nonpayable",
      "type": "function"
    },
    {
      "inputs": [
        {
          "internalType": "address",
          "name": "_dokter",
          "type": "address"
        },
        {
          "internalType": "bool",
          "name": "_aktif",
          "type": "bool"
        }
      ],
      "name": "setStatusDokter",
      "outputs": [],
      "stateMutability": "nonpayable",
      "type": "function"
    },
    {
      "inputs": [],
      "name": "totalDokter",
      "outputs": [
        {
          "internalType": "uint256",
          "name": "",
          "type": "uint256"
        }
      ],
      "stateMutability": "view",
      "type": "function",
      "constant": true
    },
    {
      "inputs": [
        {
          "internalType": "uint256",
          "name": "idx",
          "type": "uint256"
        }
      ],
      "name": "getDokterByIndex",
      "outputs": [
        {
          "internalType": "address",
          "name": "",
          "type": "address"
        }
      ],
      "stateMutability": "view",
      "type": "function",
      "constant": true
    },
    {
      "inputs": [
        {
          "internalType": "address",
          "name": "_dokter",
          "type": "address"
        }
      ],
      "name": "getDokter",
      "outputs": [
        {
          "internalType": "string",
          "name": "nama",
          "type": "string"
        },
        {
          "internalType": "string",
          "name": "spesialisasi",
          "type": "string"
        },
        {
          "internalType": "string",
          "name": "nomorLisensi",
          "type": "string"
        },
        {
          "internalType": "bool",
          "name": "aktif",
          "type": "bool"
        },
        {
          "internalType": "address[]",
          "name": "pasienList",
          "type": "address[]"
        },
        {
          "internalType": "address",
          "name": "adminRS",
          "type": "address"
        }
      ],
      "stateMutability": "view",
      "type": "function",
      "constant": true
    },
    {
      "inputs": [
        {
          "internalType": "address",
          "name": "_dokter",
          "type": "address"
        }
      ],
      "name": "getAssignedPatients",
      "outputs": [
        {
          "internalType": "address[]",
          "name": "",
          "type": "address[]"
        }
      ],
      "stateMutability": "view",
      "type": "function",
      "constant": true
    },
    {
      "inputs": [
        {
          "internalType": "address",
          "name": "_pasien",
          "type": "address"
        },
        {
          "internalType": "string",
          "name": "_nama",
          "type": "string"
        },
        {
          "internalType": "string",
          "name": "_IDPasien",
          "type": "string"
        },
        {
          "internalType": "address",
          "name": "_adminRS",
          "type": "address"
        }
      ],
      "name": "registerPasien",
      "outputs": [],
      "stateMutability": "nonpayable",
      "type": "function"
    },
    {
      "inputs": [
        {
          "internalType": "string",
          "name": "_nama",
          "type": "string"
        },
        {
          "internalType": "string",
          "name": "_IDPasien",
          "type": "string"
        },
        {
          "internalType": "string",
          "name": "_golonganDarah",
          "type": "string"
        },
        {
          "internalType": "string",
          "name": "_tanggalLahir",
          "type": "string"
        },
        {
          "internalType": "string",
          "name": "_gender",
          "type": "string"
        },
        {
          "internalType": "string",
          "name": "_alamat",
          "type": "string"
        },
        {
          "internalType": "string",
          "name": "_noTelepon",
          "type": "string"
        },
        {
          "internalType": "string",
          "name": "_email",
          "type": "string"
        },
        {
          "internalType": "address",
          "name": "_adminRS",
          "type": "address"
        }
      ],
      "name": "selfRegisterPasien",
      "outputs": [],
      "stateMutability": "nonpayable",
      "type": "function"
    },
    {
      "inputs": [
        {
          "internalType": "string",
          "name": "_nama",
          "type": "string"
        },
        {
          "internalType": "string",
          "name": "_golonganDarah",
          "type": "string"
        },
        {
          "internalType": "string",
          "name": "_tanggalLahir",
          "type": "string"
        },
        {
          "internalType": "string",
          "name": "_gender",
          "type": "string"
        },
        {
          "internalType": "string",
          "name": "_alamat",
          "type": "string"
        },
        {
          "internalType": "string",
          "name": "_noTelepon",
          "type": "string"
        },
        {
          "internalType": "string",
          "name": "_email",
          "type": "string"
        }
      ],
      "name": "updatePasienData",
      "outputs": [],
      "stateMutability": "nonpayable",
      "type": "function"
    },
    {
      "inputs": [
        {
          "internalType": "address",
          "name": "_newAdminRS",
          "type": "address"
        }
      ],
      "name": "updatePasienRumahSakit",
      "outputs": [],
      "stateMutability": "nonpayable",
      "type": "function"
    },
    {
      "inputs": [],
      "name": "getDaftarPasien",
      "outputs": [
        {
          "internalType": "address[]",
          "name": "",
          "type": "address[]"
        }
      ],
      "stateMutability": "view",
      "type": "function",
      "constant": true
    },
    {
      "inputs": [],
      "name": "totalPasien",
      "outputs": [
        {
          "internalType": "uint256",
          "name": "",
          "type": "uint256"
        }
      ],
      "stateMutability": "view",
      "type": "function",
      "constant": true
    },
    {
      "inputs": [
        {
          "internalType": "address",
          "name": "_pasien",
          "type": "address"
        }
      ],
      "name": "getPasienData",
      "outputs": [
        {
          "internalType": "string",
          "name": "nama",
          "type": "string"
        },
        {
          "internalType": "string",
          "name": "ID",
          "type": "string"
        },
        {
          "internalType": "string",
          "name": "golonganDarah",
          "type": "string"
        },
        {
          "internalType": "string",
          "name": "tanggalLahir",
          "type": "string"
        },
        {
          "internalType": "string",
          "name": "gender",
          "type": "string"
        },
        {
          "internalType": "string",
          "name": "alamat",
          "type": "string"
        },
        {
          "internalType": "string",
          "name": "noTelepon",
          "type": "string"
        },
        {
          "internalType": "string",
          "name": "email",
          "type": "string"
        },
        {
          "internalType": "address",
          "name": "rumahSakitPenanggungJawab",
          "type": "address"
        }
      ],
      "stateMutability": "view",
      "type": "function",
      "constant": true
    },
    {
      "inputs": [
        {
          "internalType": "address",
          "name": "_dokter",
          "type": "address"
        },
        {
          "internalType": "address",
          "name": "_pasien",
          "type": "address"
        }
      ],
      "name": "assignPasienToDokter",
      "outputs": [],
      "stateMutability": "nonpayable",
      "type": "function"
    },
    {
      "inputs": [
        {
          "internalType": "address",
          "name": "_dokter",
          "type": "address"
        },
        {
          "internalType": "address",
          "name": "_pasien",
          "type": "address"
        }
      ],
      "name": "unassignPasienFromDokter",
      "outputs": [],
      "stateMutability": "nonpayable",
      "type": "function"
    },
    {
      "inputs": [
        {
          "internalType": "address",
          "name": "_pasien",
          "type": "address"
        },
        {
          "internalType": "string",
          "name": "_diagnosa",
          "type": "string"
        },
        {
          "internalType": "string",
          "name": "_foto",
          "type": "string"
        },
        {
          "internalType": "string",
          "name": "_catatan",
          "type": "string"
        },
        {
          "internalType": "string",
          "name": "_tipeRekamMedis",
          "type": "string"
        }
      ],
      "name": "tambahRekamMedis",
      "outputs": [],
      "stateMutability": "nonpayable",
      "type": "function"
    },
    {
      "inputs": [
        {
          "internalType": "address",
          "name": "_pasien",
          "type": "address"
        }
      ],
      "name": "getRekamMedisIdsByPasien",
      "outputs": [
        {
          "internalType": "uint256[]",
          "name": "",
          "type": "uint256[]"
        }
      ],
      "stateMutability": "view",
      "type": "function",
      "constant": true
    },
    {
      "inputs": [
        {
          "internalType": "uint256",
          "name": "_id",
          "type": "uint256"
        }
      ],
      "name": "getRekamMedis",
      "outputs": [
        {
          "internalType": "uint256",
          "name": "id",
          "type": "uint256"
        },
        {
          "internalType": "address",
          "name": "pasien",
          "type": "address"
        },
        {
          "internalType": "string",
          "name": "diagnosa",
          "type": "string"
        },
        {
          "internalType": "string",
          "name": "foto",
          "type": "string"
        },
        {
          "internalType": "string",
          "name": "catatan",
          "type": "string"
        },
        {
          "internalType": "address",
          "name": "pembuat",
          "type": "address"
        },
        {
          "internalType": "uint256",
          "name": "timestampPembuatan",
          "type": "uint256"
        },
        {
          "internalType": "string",
          "name": "tipeRekamMedis",
          "type": "string"
        }
      ],
      "stateMutability": "view",
      "type": "function",
      "constant": true
    },
    {
      "inputs": [
        {
          "internalType": "address",
          "name": "_user",
          "type": "address"
        }
      ],
      "name": "getUserRole",
      "outputs": [
        {
          "internalType": "string",
          "name": "",
          "type": "string"
        }
      ],
      "stateMutability": "view",
      "type": "function",
      "constant": true
    },
    {
      "inputs": [],
      "name": "getPasienByAdminRS",
      "outputs": [
        {
          "internalType": "address[]",
          "name": "",
          "type": "address[]"
        }
      ],
      "stateMutability": "view",
      "type": "function",
      "constant": true
    }
  ],
  "bytecode": "0x60806040523462000e2a576200001462000e4f565b601081526f52532053696c6f616d204d616c616e6760801b60208201526200003b62000e4f565b601e81527f4a6c2e2052617961204c616e67736570204e6f2e20322c204d616c616e67000060208201526200006f62000e4f565b9060068252654d616c616e6760d01b60208301526200008d62000e4f565b92600b84526a4e494252532d534d30303160a81b6020850152620000b062000e2f565b8181526001602082015282604082015283606082015284608082015273153f67a7b7169ce3f13f8a81dc9cae0bc27dbf216000526000602052604060002090805180519060018060401b0382116200070e57835490600182811c9216801562000e1f575b6020831014620007f35781601f84931162000dca575b50602090601f831160011462000d595760009262000d4d575b50508160011b916000199060031b1c19161782555b6200017860208201511515600184019060ff801983541691151516179055565b60408101518051906001600160401b0382116200070e57600284015490600182811c9216801562000d42575b6020831014620007f35781601f84931162000cea575b50602090601f831160011462000c735760009262000c67575b50508160011b916000199060031b1c19161760028301555b60608101518051906001600160401b0382116200070e576003840154600181811c9116801562000c5c575b6020821014620007f357601f811162000c10575b50602090601f831160011462000b985760809392916000918362000b8c575b50508160011b916000199060031b1c19161760038401555b01518051906001600160401b0382116200070e576004830154600181811c9116801562000b81575b6020821014620007f357601f811162000b35575b50602090601f831160011462000ac057600492916000918362000ab4575b50508160011b916000199060031b1c1916179101555b600254680100000000000000008110156200070e576001810180600255811015620006f85773153f67a7b7169ce3f13f8a81dc9cae0bc27dbf2194600080516020620068e683398151915294620003759260026000526020600020018760018060a01b0319825416179055604051602081845162000353818385890162000e6f565b81016001815203019020600160ff198254161790556040519485948562000ebb565b0390a26200038262000e4f565b600f81526e52532053696c6f616d20596f67796160881b6020820152604051606081016001600160401b038111828210176200070e57604052602881527f4a6c2e204c616b736461204164697375636970746f204e6f2e2033322c20596f6020820152676779616b6172746160c01b60408201526200040062000e4f565b90600a825269596f6779616b6172746160b01b60208301526200042262000e4f565b92600b84526a4e494252532d535930303160a81b60208501526200044562000e2f565b8181526001602082015282604082015283606082015284608082015273d95a4ee9149fcb31c535ef6cbd65f4c23d9f799760005260006020526040600020815180519060018060401b0382116200070e57825490600182811c9216801562000aa9575b6020831014620007f35781601f84931162000a54575b50602090601f8311600114620009e357600092620009d7575b50508160011b916000199060031b1c19161781555b6200050c60208301511515600183019060ff801983541691151516179055565b60408201518051906001600160401b0382116200070e57600283015490600182811c92168015620009cc575b6020831014620007f35781601f84931162000974575b50602090601f8311600114620008fd57600092620008f1575b50508160011b916000199060031b1c19161760028201555b60608201518051906001600160401b0382116200070e576003830154600181811c91168015620008e6575b6020821014620007f357601f81116200089a575b50602090601f8311600114620008205791806080949260049460009262000814575b50508160011b916000199060031b1c19161760038201555b0191015180519060018060401b0382116200070e57825490600182811c9216801562000809575b6020831014620007f35781601f8493116200079b575b50602090601f8311600114620007305760009262000724575b50508160011b916000199060031b1c19161790555b600254680100000000000000008110156200070e576001810180600255811015620006f85773d95a4ee9149fcb31c535ef6cbd65f4c23d9f799794600080516020620068e683398151915294620006e59260026000526020600020018760018060a01b0319825416179055604051602081845162000353818385890162000e6f565b0390a26040516159d7908162000f0f8239f35b634e487b7160e01b600052603260045260246000fd5b634e487b7160e01b600052604160045260246000fd5b0151905038806200064e565b6000858152602081209350601f198516905b81811062000782575090846001959493921062000768575b505050811b01905562000663565b015160001960f88460031b161c191690553880806200075a565b9293602060018192878601518155019501930162000742565b909150836000526020600020601f840160051c81019160208510620007e8575b90601f859493920160051c01905b818110620007d8575062000635565b60008155849350600101620007c9565b9091508190620007bb565b634e487b7160e01b600052602260045260246000fd5b91607f16916200061f565b015190503880620005e0565b906003840160005260206000209160005b601f1985168110620008815750926080949260019260049583601f1981161062000867575b505050811b016003820155620005f8565b015160001960f88460031b161c1916905538808062000856565b9192602060018192868501518155019401920162000831565b600384016000526020600020601f840160051c810160208510620008de575b601f830160051c82018110620008d1575050620005be565b60008155600101620008b9565b5080620008b9565b90607f1690620005aa565b01519050388062000567565b9250600284016000526020600020906000935b601f198416851062000958576001945083601f198116106200093e575b505050811b0160028201556200057f565b015160001960f88460031b161c191690553880806200092d565b8181015183556020948501946001909301929091019062000910565b909150600284016000526020600020601f840160051c810160208510620009c4575b90849392915b601f830160051c82018110620009b45750506200054e565b600081558594506001016200099c565b508062000996565b91607f169162000538565b015190503880620004d7565b9250836000526020600020906000935b601f198416851062000a38576001945083601f1981161062000a1e575b505050811b018155620004ec565b015160001960f88460031b161c1916905538808062000a10565b81810151835560209485019460019093019290910190620009f3565b909150836000526020600020601f840160051c81016020851062000aa1575b90849392915b601f830160051c8201811062000a91575050620004be565b6000815585945060010162000a79565b508062000a73565b91607f1691620004a8565b015190503880620002bb565b906004840160005260206000209160005b601f198516811062000b1c5750918391600193600495601f1981161062000b02575b505050811b01910155620002d1565b015160001960f88460031b161c1916905538808062000af3565b9192602060018192868501518155019401920162000ad1565b600484016000526020600020601f840160051c81016020851062000b79575b601f830160051c8201811062000b6c5750506200029d565b6000815560010162000b54565b508062000b54565b90607f169062000289565b01519050388062000249565b906003850160005260206000209160005b601f198516811062000bf7575091839160019360809695601f1981161062000bdd575b505050811b01600384015562000261565b015160001960f88460031b161c1916905538808062000bcc565b9192602060018192868501518155019401920162000ba9565b600385016000526020600020601f840160051c81016020851062000c54575b601f830160051c8201811062000c475750506200022a565b6000815560010162000c2f565b508062000c2f565b90607f169062000216565b015190503880620001d3565b9250600285016000526020600020906000935b601f198416851062000cce576001945083601f1981161062000cb4575b505050811b016002830155620001eb565b015160001960f88460031b161c1916905538808062000ca3565b8181015183556020948501946001909301929091019062000c86565b909150600285016000526020600020601f840160051c81016020851062000d3a575b90849392915b601f830160051c8201811062000d2a575050620001ba565b6000815585945060010162000d12565b508062000d0c565b91607f1691620001a4565b01519050388062000143565b9250846000526020600020906000935b601f198416851062000dae576001945083601f1981161062000d94575b505050811b01825562000158565b015160001960f88460031b161c1916905538808062000d86565b8181015183556020948501946001909301929091019062000d69565b909150846000526020600020601f840160051c81016020851062000e17575b90849392915b601f830160051c8201811062000e075750506200012a565b6000815585945060010162000def565b508062000de9565b91607f169162000114565b600080fd5b6040519060a082016001600160401b038111838210176200070e57604052565b60408051919082016001600160401b038111838210176200070e57604052565b60005b83811062000e835750506000910152565b818101518382015260200162000e72565b9060209162000eaf8151809281855285808601910162000e6f565b601f01601f1916010190565b9262000eed62000f0b959362000ede62000efc9460808852608088019062000e94565b90868203602088015262000e94565b90848203604086015262000e94565b91606081840391015262000e94565b9056fe6101c0604052600436101561001357600080fd5b60003560e01c8062386196146141e9578062410cb31461419157806301c268fe14613a0a578063046bdbcc1461399c578063050567d2146139705780631132beb51461393157806319d9d3dd146138b057806319e8f405146135e85780631cf64afd1461344b5780632120e53f146133e057806327820851146133a85780632b7d8af8146133695780632e2dd1021461334b5780633bf76303146132d55780633cdd1591146127f25780633da055181461270c5780633fd830891461200b5780634269965114611fe257806347960cb514611f0e57806351887b6714611e795780635c4c934814611e3a578063610a852614611760578063623785c1146116f257806364319e33146116d457806368370087146116ab578063786f3fbe146116025780637d3e9db8146115e4578063911b633a146115a257806392fa924014611410578063932e0f6d14611334578063a665102c14611272578063abf72abb146111f1578063b75de7a814610dc6578063c0664b7e14610d57578063c3c0fdea14610caa578063c967ede814610bdd578063ddbd24d3146105fd578063e29993a514610329578063e5cc33941461030b5763f2ab4a99146101d357600080fd5b34610306576101e1366152b7565b9033600052602090600082526101fb60406000205461502e565b1515806102ec575b61020c9061535a565b6001600160a01b0316913383900361029157907fd2e4d0240eabf0011425eb3fffbc4f311cd4b564ba547aba4b3163fd046f6a9791836000526000825261026161025a60406000205461502e565b15156153cc565b83600052600082526102868160016040600020019060ff801983541691151516179055565b6040519015158152a2005b60405162461bcd60e51b815260048101839052602d60248201527f416e64612068616e79612062697361206d656e6775626168207374617475732060448201526c20b732309039b2b73234b9349760991b6064820152608490fd5b50336000908152808352604090206001015460ff16610203565b600080fd5b34610306576000366003190112610306576020600954604051908152f35b3461030657604036600319011261030657610342614d4b565b61034a614d61565b90336000526020916000835261036460406000205461502e565b1515806105e3575b6103759061535a565b60018060a01b0391828116806000526004855261039960ff604060002054166155aa565b806000526003908186526103b8338660056040600020015416146155f6565b8484169485600052600787526103d560ff604060002054166157b5565b8560005260068752338160086040600020015416036105865760009160005282875260046040600020019160005b8354808210156105785788846104198488614e49565b905490891b1c1614610434575061042f90615801565b610403565b915091929394959650600019918282019182116105625761046a8461045c6104899488614e49565b905490891b1c169186614e49565b90919082549060031b9160018060a01b03809116831b921b1916179055565b8254801561054c57019261049d8484614e49565b81939154921b1b191690555560015b156104f857604080516001600160a01b0392831681529290911660208301527f80b4d8d360eb6524bf34c2207f48a267b84469bad95c9e9540413349e9f416a59250819081015b0390a1005b60405162461bcd60e51b815260048101849052602660248201527f50617369656e20746964616b20646974756761736b616e206b6520646f6b7465604482015265391034b7349760d11b6064820152608490fd5b634e487b7160e01b600052603160045260246000fd5b634e487b7160e01b600052601160045260246000fd5b5050939495505050506104ac565b60405162461bcd60e51b815260048101889052602f60248201527f50617369656e20696e6920746964616b2074657264616674617220646920727560448201526e36b0b41039b0b5b4ba1020b732309760891b6064820152608490fd5b50336000908152808452604090206001015460ff1661036c565b346103065761060b366152e6565b919493929033600052600060205261062760406000205461502e565b151580610bbd575b6106389061535a565b6001600160a01b03871660009081526004602052604090205460ff16610b65576001600160a01b03871660009081526007602052604090205460ff16610afa576001600160a01b03871660009081526004602052604090819020805460ff1916600117905551926106a884614e7d565b60008452604051968760c08101106001600160401b0360c08a011117610939576106f7936106eb9160c08a016040526106e236898b614ed4565b8a523691614ed4565b60208801523691614ed4565b60408501526001606085015260808401523360a084015260018060a01b038416600052600360205260406000209280518051906001600160401b03821161093957819061074e82610748895461502e565b896154b2565b602090601f8311600114610a8e57600092610a83575b50508160011b916000199060031b1c19161784555b60208101518051906001600160401b0382116109395781906107ab826107a260018a015461502e565b60018a016154b2565b602090601f8311600114610a1157600092610a06575b50508160011b916000199060031b1c19161760018501555b60408101518051906001600160401b03821161093957819061080b8261080260028a015461502e565b60028a016154b2565b602090601f831160011461099457600092610989575b50508160011b916000199060031b1c19161760028501555b61085860608201511515600386019060ff801983541691151516179055565b60048401936080820151948551906001600160401b03821161093957600160401b9687831161093957602090825484845580851061096c575b500190600052602060002060005b83811061094f57505050506005019060a0600180821b03910151166001600160601b0360a01b825416179055600554928310156109395761090b8461046a8560017f5c9d12a5bfda65f31ab460df37935bfe7b6cfa6a3787bf1f99858ccc15dc92779701600555614da4565b6109226040519283926040845260408401916154f7565b3360208301526001600160a01b03909416930390a2005b634e487b7160e01b600052604160045260246000fd5b82516001600160a01b03168183015560209092019160010161089f565b61098390846000528584600020918201910161549b565b8a610891565b015190508780610821565b9250600287016000526020600020906000935b601f19841685106109eb576001945083601f198116106109d2575b505050811b016002850155610839565b015160001960f88460031b161c191690558780806109c2565b818101518355602094850194600190930192909101906109a7565b0151905087806107c1565b9250600187016000526020600020906000935b601f1984168510610a68576001945083601f19811610610a4f575b505050811b0160018501556107d9565b015160001960f88460031b161c19169055878080610a3f565b81810151835560209485019460019093019290910190610a24565b015190508780610764565b9250866000526020600020906000935b601f1984168510610adf576001945083601f19811610610ac6575b505050811b018455610779565b015160001960f88460031b161c19169055878080610ab9565b81810151835560209485019460019093019290910190610a9e565b60405162461bcd60e51b815260206004820152603f60248201527f416c616d617420696e692074657264616674617220736562616761692070617360448201527f69656e2c20746964616b2062697361206d656e6a61646920646f6b7465722e006064820152608490fd5b60405162461bcd60e51b815260206004820152602a60248201527f416c616d617420696e692073756461682074657264616674617220736562616760448201526930b4903237b5ba32b91760b11b6064820152608490fd5b5033600052600060205261063860ff60016040600020015416905061062f565b3461030657602080600319360112610306576001600160a01b03610bff614d4b565b168060005260078252610c1960ff60406000205416615769565b600052600b8152604060002060405190818382549182815201908192600052846000209060005b86828210610c96578686610c5682880383614eb3565b604051928392818401908285525180915260408401929160005b828110610c7f57505050500390f35b835185528695509381019392810192600101610c70565b835485529093019260019283019201610c40565b3461030657602036600319011261030657610d2a6001600160a01b0380610ccf614d4b565b1660005260036020526040600020610ce681615068565b91610d46610cf660018401615068565b91610d38610d0660028601615068565b91600560ff600388015416960154169360405197889760a0895260a0890190614fb8565b908782036020890152614fb8565b908582036040870152614fb8565b911515606084015260808301520390f35b34610306576020366003190112610306576001600160a01b03610d78614d4b565b16806000526004602052610d9360ff6040600020541661565a565b6000526003602052610dc2610dae6004604060002001615518565b604051918291602083526020830190614f7b565b0390f35b3461030657610dd4366152e6565b95949290939195336000526000602052610df260406000205461502e565b1515806111d1575b610e039061535a565b60018060a01b0391828716600052600460205260ff6040600020541615611182578287166000526003978860205233846005604060002001541603611123578388166000528860205260406000206001600160401b0380871161093957610e7487610e6e845461502e565b846154b2565b866000601f82116001146110be576000916110b3575b50600019888d1b1c1916600188901b1782555b8083116109395760018201610ebc84610eb6835461502e565b836154b2565b836000601f821160011461105057600091611045575b50600019858e1b1c1916600185901b1790555b841161093957610f0584610efc600284015461502e565b600284016154b2565b6000601f8511600114610fa8579184939160027f4e15ca2ba26538cdb1e2f0d595a1ec96fe8fbb126404e0cc083426c33ccbdd959a9b9c610f989897610f8696600091610f9d575b508760011b9188600019911b1c1916179101555b610f7860405198899860608a5260608a01916154f7565b9187830360208901526154f7565b918483036040860152339816966154f7565b0390a3005b90508d01358f610f4d565b99601f198516906002830160005260206000209160005b81811061102d5750917f4e15ca2ba26538cdb1e2f0d595a1ec96fe8fbb126404e0cc083426c33ccbdd959a9b9c87969492610f989998610f86979510611013575b5050506002600186811b01910155610f61565b60f888600019921b161c19908d01351690558c8080611000565b8b8e0135845560209d8e019d60019094019301610fbf565b90508501358d610ed2565b60008381526020812092505b601f198716811061109b575085601f19811610611083575b5050600184811b019055610ee5565b860135600019868f1b60f8161c191690558c80611074565b9091602060018192858b01358155019301910161105c565b90508801358c610e8a565b60008481526020812092508990601f198216905b8c828210611109575050106110f1575b5050600187811b018255610e9d565b890135600019898e1b60f8161c191690558b806110e2565b84013585556001909401936020938401938c9350016110d2565b60405162461bcd60e51b815260206004820152603160248201527f416e64612062756b616e2061646d696e2052532079616e672062657268616b206044820152703ab73a3ab5903237b5ba32b91034b7349760791b6064820152608490fd5b60405162461bcd60e51b815260206004820152602160248201527f446f6b74657220746964616b207465726461667461722064692073697374656d6044820152601760f91b6064820152608490fd5b50336000526000602052610e0360ff600160406000200154169050610dfa565b3461030657602036600319011261030657600435600052600a60205260406000208054610dc260018060a01b03806001850154169361123260028201615068565b9161123f60038301615068565b9061124c60048401615068565b9060058401541691611265600760068601549501615068565b94604051988998896151a3565b34610306576020366003190112610306576001600160a01b0380611294614d4b565b168060005260076020526112af60ff60406000205416615769565b6000526006602052604060002090600882015416610dc26112cf83615068565b916112dc60018501615068565b936112e960028201615068565b906112f660038201615068565b61130260048301615068565b61130e60058401615068565b91611327600761132060068701615068565b9501615068565b94604051998a998a61520f565b34610306577f3dcd68c14f5f191f12b3b56bf35d5d7eb22447e9ec685290967b4558822ca98a611363366152b7565b919091336000526020906000825261137f60406000205461502e565b1515806113f6575b6113909061535a565b6113d160018060a01b038095169485600052600484526113b760ff604060002054166155aa565b8560005260038452339060056040600020015416146155f6565b83600052600382526102868160036040600020019060ff801983541691151516179055565b50336000908152808352604090206001015460ff16611387565b34610306576020806003193601126103065761142a614d4b565b336000526007825261144360ff60406000205416615769565b6001600160a01b03818116600081815280855260409020600101549092919060ff1615611546573360005260068452828160086040600020015416146114f057336000818152600690955260409485902060080180546001600160a01b03198116909517905584516001600160a01b03929094168216845291166020830152917f3457f52cd7f93503903afd272e58438c52a23561e74eddba2144dc53d7af0e449190819081015b0390a2005b60405162461bcd60e51b815260048101859052602860248201527f416e6461207375646168207465726461667461722064692072756d616820736160448201526735b4ba1034b7349760c11b6064820152608490fd5b60405162461bcd60e51b815260048101859052602e60248201527f52756d61682053616b6974206261727520746964616b20616b7469662061746160448201526d3a903a34b230b5903b30b634b21760911b6064820152608490fd5b3461030657602036600319011261030657600435600254811015610306576115cb602091614e12565b905460405160039290921b1c6001600160a01b03168152f35b34610306576000366003190112610306576020600554604051908152f35b34610306576020366003190112610306576001600160a01b0380611624614d4b565b166000526006602052604060002090610dc261163f83615068565b9161164c60018501615068565b9361165960028201615068565b9161166660038301615068565b61167260048401615068565b61167e60058501615068565b9161168b60068601615068565b93600861169a60078801615068565b9601541695604051998a998a61520f565b3461030657602036600319011261030657600435600954811015610306576115cb602091614ddb565b34610306576000366003190112610306576020600254604051908152f35b346103065760203660031901126103065760043560025481101561171b576115cb602091614e12565b60405162461bcd60e51b815260206004820152601c60248201527f496e64656b732061646d696e20525320746964616b2076616c69642e000000006044820152606490fd5b346103065761176e3661510e565b94919293909596600060018060a01b038a16331480611e22575b15611d70575060015b15611d05576001600160a01b0389166000908152600760205260409020546117bb9060ff166157b5565b6117c6600c54615801565b9788600c55604051806101008101106001600160401b03610100830111176109395761010081016040528981526001600160a01b038b16602082015261180d368385614ed4565b604082015261181d368587614ed4565b606082015261182d368789614ed4565b60808201523360a08201524260c082015261184936898b614ed4565b60e082015289600052600a602052604060002090805182556001820160018060a01b036020830151166001600160601b0360a01b82541617905560408101518051906001600160401b0382116109395781906118b5826118ac600288015461502e565b600288016154b2565b602090601f8311600114611c9357600092611c88575b50508160011b916000199060031b1c19161760028301555b60608101518051906001600160401b0382116109395781906119158261190c600388015461502e565b600388016154b2565b602090601f8311600114611c1657600092611c0b575b50508160011b916000199060031b1c19161760038301555b60808101518051906001600160401b038211610939576119738261196a600487015461502e565b600487016154b2565b602090601f8311600114611b985760e093929160009183611b8d575b50508160011b916000199060031b1c19161760048401555b6005830160018060a01b0360a0830151166001600160601b0360a01b82541617905560c0810151600684015501518051906001600160401b03821161093957611a00826119f7600786015461502e565b600786016154b2565b602090601f8311600114611b1d576007929160009183611b12575b50508160011b916000199060031b1c1916179101555b6001600160a01b038a166000908152600b602052604090208054600160401b81101561093957600181018255611a6691614e49565b81549060031b908b821b91600019901b1916179055604051998a998a52600160a01b600190031660208a0152604089016101009052610100890190611aaa926154f7565b908782036060890152611abc926154f7565b908582036080870152611ace926154f7565b9083820360a0850152611ae0926154f7565b3360c08301524260e0830152037f6530349a6e8f9162290f6de52adc987794b9dcf2b88018454bede841bcf8c28291a1005b015190508e80611a1b565b906007840160005260206000209160005b601f1985168110611b755750918391600193600795601f19811610611b5c575b505050811b01910155611a31565b015160001960f88460031b161c191690558e8080611b4e565b91926020600181928685015181550194019201611b2e565b015190508f8061198f565b906004850160005260206000209160005b601f1985168110611bf3575091839160019360e09695601f19811610611bda575b505050811b0160048401556119a7565b015160001960f88460031b161c191690558f8080611bca565b91926020600181928685015181550194019201611ba9565b015190508e8061192b565b9250600385016000526020600020906000935b601f1984168510611c6d576001945083601f19811610611c54575b505050811b016003830155611943565b015160001960f88460031b161c191690558e8080611c44565b81810151835560209485019460019093019290910190611c29565b015190508e806118cb565b9250600285016000526020600020906000935b601f1984168510611cea576001945083601f19811610611cd1575b505050811b0160028301556118e3565b015160001960f88460031b161c191690558e8080611cc1565b81810151835560209485019460019093019290910190611ca6565b60405162461bcd60e51b815260206004820152603960248201527f416b746f7220746964616b2062657268616b206d656e616d6261682072656b6160448201527f6d206d6564697320756e74756b2070617369656e20696e692e000000000000006064820152608490fd5b33600052600460205260ff6040600020541680611e0b575b15611791576001600160a01b038a1660009081526007602052604090205460ff1680611dd2575b80611dc2575b1561179157506001611791565b50611dcd8a33615810565b611db5565b50336000908152600360209081526040808320600501546001600160a01b038e8116855260069093529220600801548116911614611daf565b50600360205260ff60036040600020015416611d88565b5033600052600760205260ff60406000205416611788565b34610306576020366003190112610306576001600160a01b03611e5b614d4b565b166000526004602052602060ff604060002054166040519015158152f35b34610306576000366003190112610306576040518060095480825282602080930160096000527f6e1540171b6c0c960b71a7020d9f60077f6af931a8bbf590da0223dacf75c7af9260005b85828210611eef57505050611edb92500383614eb3565b610dc2604051928284938452830190614f7b565b85546001600160a01b0316845260019586019588955093019201611ec4565b34610306576020366003190112610306576004356000818152600a60205260409020600101546001600160a01b039190821615611f9d57600052600a6020526040600020610dc28154918360018201541693600582015416600682015490611f7860028401615068565b92611f8560038201615068565b6112656007611f9660048501615068565b9301615068565b60405162461bcd60e51b815260206004820152601c60248201527f52656b616d206d6564697320746964616b20646974656d756b616e2e000000006044820152606490fd5b3461030657602036600319011261030657600435600554811015610306576115cb602091614da4565b34610306576120193661510e565b969594906101809894985233600052600060205261203b60406000205461502e565b1515806126ec575b61204c9061535a565b6001600160a01b03841633036126815760018060a01b038416600052600060205261207e61025a60406000205461502e565b841561262a5786156125e55760018060a01b038416600052600060205260046040600020016040516120c6816120b8602082018095615418565b03601f198101835282614eb3565b5190206040516020810190896101805183376120f26020828c8101600083820152038084520182614eb3565b519020036124db575b6001600160a01b03841660009081526020819052604090206001600160401b0386116109395761212f86610eb6835461502e565b856000601f82116001146124765760009161246b575b508660011b906000198860031b1c19161781555b6001600160401b03891161093957600281016121798a610eb6835461502e565b896000601f8211600114612406576000916123fb575b508a60011b906000198c60031b1c19161790555b6001600160401b038311610939576121cb836121c2600384015461502e565b600384016154b2565b60009083601f81116001146123895760049260009161237e575b508460011b906000198660031b1c19161760038201555b01976001600160401b038811610939576122208861221a8b5461502e565b8b6154b2565b600098601f89116001146122de576114eb9594926122b194926122a3928b807ff68ff1fa009966863b83cbda346b0b08fef5e65659e2c5538afce393cd565b5b9d9e6000916122d0575b508160011b916000199060031b1c19161790555b6122956040519a8b9a60808c5260808c01916154f7565b9189830360208b01526154f7565b9186830360408801526154f7565b8381036060850152610180516001600160a01b039092169690916154f7565b90506101805101358f61226a565b600081815260208120610180519b9091601f198c16905b8181106123665750926114eb989795928c9d6122b19896938e7ff68ff1fa009966863b83cbda346b0b08fef5e65659e2c5538afce393cd565b5b9f6122a3981061234b575b91505060018092501b01905561227e565b60f86000199160031b161c199101351690558d80808f61233a565b8d8301358455600190930192602092830192016122f5565b90508501358b6121e5565b5060038101600090815260208120909285601f1981165b8086106123dd5760049550106123c3575b5050600184811b0160038201556121fc565b860135600019600387901b60f8161c191690558a806123b1565b888301358455602095860195600190940193909201918791506123a0565b90508301358b61218f565b60008381526020812092505b601f198d16811061245357508b601f19811610612439575b505060018a811b0190556121a3565b84013560001960038d901b60f8161c191690558a8061242a565b90916020600181928589013581550193019101612412565b90508701358a612145565b60008381526020812092505b601f19891681106124c3575087601f198116106124a9575b5050600186811b018155612159565b880135600019600389901b60f8161c19169055898061249a565b9091602060018192858d013581550193019101612482565b60ff604051886101805182376020818a8101600181520301902054166125895760018060a01b038416600052600060205261251d60046040600020015461502e565b61254a575b604051876101805182376020818981016001815203019020600160ff198254161790556120fb565b60018060a01b03841660005260006020526125746020600460406000200160405192838092615418565b6001815203019020805460ff19169055612522565b60405162461bcd60e51b815260206004820152602e60248201527f4e49425253206261727520737564616820646967756e616b616e206f6c65682060448201526d20b236b4b7102929903630b4b71760911b6064820152608490fd5b60405162461bcd60e51b815260206004820152601e60248201527f4e49425253206261727520746964616b20626f6c6568206b6f736f6e672e00006044820152606490fd5b60405162461bcd60e51b815260206004820152602960248201527f4e616d612052756d61682053616b6974206261727520746964616b20626f6c65604482015268341035b7b9b7b7339760b91b6064820152608490fd5b60405162461bcd60e51b815260206004820152603c60248201527f416e64612068616e79612062697361206d656d7065726261727569206465746160448201527f696c2072756d61682073616b697420416e64612073656e646972692e000000006064820152608490fd5b5033600052600060205261204c60ff600160406000200154169050612043565b34610306576020366003190112610306576127b76001600160a01b0380612731614d4b565b1680600052600460205261274c60ff6040600020541661565a565b60005260036020526040600020906127e860ff600384015416916005840154169161277684615068565b936127d361278660018301615068565b916127c56127a2600461279b60028501615068565b9301615518565b93604051998a9960c08b5260c08b0190614fb8565b9089820360208b0152614fb8565b908782036040890152614fb8565b91151560608601528482036080860152614f7b565b9060a08301520390f35b3461030657610120366003190112610306576004356001600160401b03811161030657612823903690600401614d77565b60a0526080526024356001600160401b03811161030657612848903690600401614d77565b6101405260e0526044356001600160401b0381116103065761286e903690600401614d77565b6064356001600160401b0381116103065761288d903690600401614d77565b906084356001600160401b038111610306576128ad903690600401614d77565b93909260a4356001600160401b038111610306576128cf903690600401614d77565b919060c4356001600160401b038111610306576128f0903690600401614d77565b93909460e4356001600160401b03811161030657612912903690600401614d77565b9099909890610104356001600160a01b03811690036103065733600052600760205260ff604060002054166132845733600052600460205260ff60406000205416613233576129656101405115156156a6565b61298f60ff6040516101405160e051823760208161014051810160088152030190205416156156f2565b610104356001600160a01b031660009081526020819052604090206001015460ff16156131cf57612a37612a6499612a5597612a28612a739f612a46973360005260076020526040600020600160ff198254161790556129f56040518061010052614e61565b612a043660a051608051614ed4565b6101005152612a19366101405160e051614ed4565b60206101005101523691614ed4565b60406101005101523691614ed4565b60606101005101523691614ed4565b60806101005101523691614ed4565b60a06101005101523691614ed4565b60c06101005101523691614ed4565b60e061010051015260018060a01b03610104351661010080510152336000526006602052604060002061010051519081516001600160401b03811161093957612ac081610e6e845461502e565b6020601f821160011461316a5781929360009261315f575b50508160011b916000199060031b1c19161781555b60206101005101519081516001600160401b038111610939576001820190612b1981610e6e845461502e565b6020601f82116001146130f957819293946000926130ee575b50508160011b916000199060031b1c19161790555b60406101005101519081516001600160401b038111610939576002820190612b7381610e6e845461502e565b6020601f8211600114613088578192939460009261307d575b50508160011b916000199060031b1c19161790555b60606101005101518051906001600160401b038211610939578190612bd682612bcd600387015461502e565b600387016154b2565b602090601f831160011461300b57600092613000575b50508160011b916000199060031b1c19161760038201555b60806101005101518051906001600160401b038211610939578190612c308261196a600487015461502e565b602090601f8311600114612f8e57600092612f83575b50508160011b916000199060031b1c19161760048201555b60a06101005101518051906001600160401b038211610939578190612c9382612c8a600587015461502e565b600587016154b2565b602090601f8311600114612f1157600092612f06575b50508160011b916000199060031b1c19161760058201555b60c06101005101518051906001600160401b038211610939578190612cf682612ced600687015461502e565b600687016154b2565b602090601f8311600114612e9457600092612e89575b50508160011b916000199060031b1c19161760068201555b60e0610100510151908151916001600160401b038311610939576007820190612d5184610e6e845461502e565b602090601f8511600114612e1f576008949160009183612e14575b50508160011b916000199060031b1c19161790555b0160018060a01b0361010080510151166001600160601b0360a01b825416179055612dab33615587565b6040516101405160e05182376020816101405181016008815203019020600160ff198254161790556040517f34288a60ac94463b3bd2c594dc78c87cba02f1270cf853cee3a2912bf04372373391806114eb610104356101405160e05160a0516080518661573e565b015190508580612d6c565b90826000526020600020916000601f198716905b818110612e7157509160019391876008989410612e58575b505050811b019055612d81565b015160001960f88460031b161c19169055858080612e4b565b92936020600181928786015181550195019301612e33565b015190508380612d0c565b9250600684016000526020600020906000935b601f1984168510612eeb576001945083601f19811610612ed2575b505050811b016006820155612d24565b015160001960f88460031b161c19169055838080612ec2565b81810151835560209485019460019093019290910190612ea7565b015190508380612ca9565b9250600584016000526020600020906000935b601f1984168510612f68576001945083601f19811610612f4f575b505050811b016005820155612cc1565b015160001960f88460031b161c19169055838080612f3f565b81810151835560209485019460019093019290910190612f24565b015190508380612c46565b9250600484016000526020600020906000935b601f1984168510612fe5576001945083601f19811610612fcc575b505050811b016004820155612c5e565b015160001960f88460031b161c19169055838080612fbc565b81810151835560209485019460019093019290910190612fa1565b015190508380612bec565b9250600384016000526020600020906000935b601f1984168510613062576001945083601f19811610613049575b505050811b016003820155612c04565b015160001960f88460031b161c19169055838080613039565b8181015183556020948501946001909301929091019061301e565b015190508480612b8c565b826000526020600020906000601f198416905b8181106130d6575095836001959697106130bd575b505050811b019055612ba1565b015160001960f88460031b161c191690558480806130b0565b9192602060018192868b01518155019401920161309b565b015190508480612b32565b826000526020600020906000601f198416905b8181106131475750958360019596971061312e575b505050811b019055612b47565b015160001960f88460031b161c19169055848080613121565b9192602060018192868b01518155019401920161310c565b015190508380612ad8565b82600052602060002090600094601f198416955b8681106131b7575083600195961061319e575b505050811b018155612aed565b015160001960f88460031b161c19169055838080613191565b9192602060018192868501518155019401920161317e565b60405162461bcd60e51b815260206004820152603660248201527f52756d61682053616b69742079616e6720646970696c696820746964616b206160448201527535ba34b31030ba30ba903a34b230b5903b30b634b21760511b6064820152608490fd5b60405162461bcd60e51b8152602060048201526024808201527f416c616d617420696e6920746572646166746172207365626167616920646f6b6044820152633a32b91760e11b6064820152608490fd5b60405162461bcd60e51b8152602060048201526024808201527f416e64612073756461682074657264616674617220736562616761692070617360448201526334b2b71760e11b6064820152608490fd5b34610306576020366003190112610306576001600160a01b036132f6614d4b565b166000526000602052604060002061330d81615068565b610dc260ff6001840154169261332560028201615068565b9061333e600461333760038401615068565b9201615068565b9160405195869586614fdd565b34610306576000366003190112610306576020600c54604051908152f35b3461030657602060ff6133928261337f36614f1a565b8160405193828580945193849201614f58565b8101600181520301902054166040519015158152f35b3461030657602036600319011261030657610dc26133cc6133c7614d4b565b615879565b604051918291602083526020830190614fb8565b34610306576020366003190112610306576001600160a01b03613401614d4b565b1680600052600060205261341c61025a60406000205461502e565b6000526000602052604060002060ff60018201541690610dc261343e82615068565b9161332560028201615068565b34610306576000366003190112610306573360005260206000815261347460406000205461502e565b1515806135ce575b6134859061535a565b6000906000600954905b81811061357557506134a083615570565b926134ae6040519485614eb3565b8084526134bd601f1991615570565b0136838501376000805b8282106134e557505050610dc2604051928284938452830190614f7b565b6134ee82614ddb565b60018060a01b03809254600392831b1c16600052600686523382600860406000200154161461352a575b50509061352490615801565b906134c7565b61353384614ddb565b9054911b1c16855182101561355f578161355891866135249460051b89010152615801565b9086613518565b634e487b7160e01b600052603260045260246000fd5b61357e81614ddb565b905460039190911b1c6001600160a01b0390811660009081526006855260409020600801541633146135b9575b6135b490615801565b61348f565b926135c66135b491615801565b9390506135ab565b50336000908152808252604090206001015460ff1661347c565b3461030657604036600319011261030657613601614d4b565b613609614d61565b336000526020916000835261362260406000205461502e565b151580613896575b6136339061535a565b60018060a01b0380821693846000526004815261365760ff604060002054166155aa565b84600052600394858252613676338460056040600020015416146155f6565b82851692836000526007835261369360ff604060002054166157b5565b8360005260068352806008604060002001541633811490811561388d575b501561380a57836000526006835260086040600020018054828116156137f5575b5050956000916000528083526004604060002001936000978554985b8981106137bf575b505050506137635750600160401b841015610939578261046a856137409360017fd9a2627959a7f46a8b96c10424cdae1f1b65151551cd206b119aca54c0a86a5a98018155614e49565b604080516001600160a01b039283168152929091166020830152819081016104f3565b6084906040519062461bcd60e51b82526004820152602f60248201527f50617369656e20696e6920737564616820646974756761736b616e206b65206460448201526e37b5ba32b9103a32b939b2b13aba1760891b6064820152fd5b82826137cb838a614e49565b905490871b1c16146137e5576137e090615801565b6136ee565b50505050506001868080806136f6565b6001600160a01b0319163317905587806136d2565b60405162461bcd60e51b815260048101849052604f60248201527f50617369656e20696e6920746964616b2074657264616674617220646920727560448201527f6d61682073616b697420416e646120617461752073756461682064692d61737360648201526e34b3b71035b2902929903630b4b71760891b608482015260a490fd5b905015886136b1565b50336000908152808452604090206001015460ff1661362a565b34610306576000366003190112610306576040518060025480825282602080930160026000527f405787fa12a823e0f2b7631cc41b3ba8828b3321ca811111fa75cd3aa3bb5ace9260005b8582821061391257505050611edb92500383614eb3565b85546001600160a01b03168452600195860195889550930192016138fb565b34610306576020366003190112610306576001600160a01b03613952614d4b565b166000526007602052602060ff604060002054166040519015158152f35b3461030657602060ff6139868261337f36614f1a565b8101600881520301902054166040519015158152f35b34610306576020366003190112610306576004356005548110156139c5576115cb602091614da4565b60405162461bcd60e51b815260206004820152601a60248201527f496e64656b7320646f6b74657220746964616b2076616c69642e0000000000006044820152606490fd5b346103065760e0366003190112610306576004356001600160401b03811161030657613a3a903690600401614d77565b6101605260c0526024356001600160401b03811161030657613a60903690600401614d77565b906044356001600160401b03811161030657613a80903690600401614d77565b906064356001600160401b03811161030657613aa0903690600401614d77565b906084356001600160401b03811161030657613ac0903690600401614d77565b92909360a4356001600160401b03811161030657613ae2903690600401614d77565b96909760c4356001600160401b03811161030657613b04903690600401614d77565b906101a05261012052336000526007602052613b2760ff60406000205416615769565b3360005260066020526040600020610160516001600160401b03811161093957613b5590610eb6835461502e565b600061016051601f811160011461412457506000610160519182614117575b508160011b916000199060031b1c19161781555b6001600160401b038b1161093957613ba78b610efc600284015461502e565b8a6000601f82116001146140a65760009161409b575b508b60011b906000198d60031b1c19161760028201555b6001600160401b0383116109395760038101613bf484610eb6835461502e565b836000601f82116001146140365760009161402b575b508460011b906000198660031b1c19161790555b6001600160401b03851161093957613c4685613c3d600484015461502e565b600484016154b2565b846000601f8211600114613fbd57600091613fb2575b508560011b906000198760031b1c19161760048201555b6001600160401b03871161093957613c9b87613c92600584015461502e565b600584016154b2565b866000601f8211600114613f4257600091613f37575b508760011b906000198960031b1c19161760058201555b6001600160401b03891161093957613cf089613ce7600684015461502e565b600684016154b2565b886000601f8211600114613ec757600091613ebc575b508960011b906000198b60031b1c19161760068201555b610120516001600160401b03811161093957613d4990613d40600784015461502e565b600784016154b2565b6101205160006001601f831114613e4a57600791506000610120519182613e3c575b508160011b916000199060031b1c1916179101555b6040519960e08b5260e08b01610160519060c05191613d9e926154f7565b908b820360208d0152613db0926154f7565b9089820360408b0152613dc2926154f7565b908782036060890152613dd4926154f7565b908582036080870152613de6926154f7565b9083820360a0850152613df8926154f7565b81810360c0830152610120516101a0513393928392613e16926154f7565b037f5bf1a01557f5d2a881b530f82df1618e3c06d1a0b7ab3be7ff74e54ead39bd3491a2005b90506101a05101358e613d6b565b600783016000526020600020906000601f198416905b818110613ea1575091839160079460019410613e84575b5050811b01910155613d80565b6101a0510135600019600384901b60f8161c191690558e80613e77565b9192602060018192866101a051013581550194019201613e60565b90508a01358c613d06565b90506006820160005260206000209060005b8c601f198d168210613f1f5750508a601f19811610613f05575b5050600189811b016006820155613d1d565b8b013560001960038c901b60f8161c191690558b80613ef3565b60018394602093948493013581550193019101613ed9565b90508801358c613cb1565b90506005820160005260206000209060005b8a601f198b168210613f9a57505088601f19811610613f80575b5050600187811b016005820155613cc8565b89013560001960038a901b60f8161c191690558b80613f6e565b60018394602093948493013581550193019101613f54565b90508601358c613c5c565b90506004820160005260206000209060005b601f1988168110614013575086601f19811610613ff9575b5050600185811b016004820155613c73565b870135600019600388901b60f8161c191690558b80613fe7565b9091602060018192858c013581550193019101613fcf565b90508501358d613c0a565b60008381526020812092505b601f1987168110614083575085601f19811610614069575b5050600184811b019055613c1e565b860135600019600387901b60f8161c191690558c8061405a565b9091602060018192858b013581550193019101614042565b90508201358c613bbd565b9050601f198c1690600283016000528c60206000209260005b8181106140f95750106140df575b505060018b811b016002820155613bd4565b83013560001960038e901b60f8161c191690558b806140cd565b92936020919250600182918689013581550194019201908e916140bf565b905060c05101358d613b74565b9082600052602060002090600090601f19841660c051925b818110614179575090846001959493921061415f575b505050811b018155613b88565b0135600019600384901b60f8161c191690558d8080614152565b9193602060018192878701358155019501920161413c565b34610306576040366003190112610306576141aa614d4b565b6001600160a01b03166000908152600b6020526040902080546024359190821015610306576020916141db91614e49565b90546040519160031b1c8152f35b3461030657608036600319011261030657614202614d4b565b6024356001600160401b03811161030657614221903690600401614d77565b906044356001600160401b03811161030657614241903690600401614d77565b9390916064356001600160a01b03811690036103065733600052600060205261426e60406000205461502e565b151580614d2b575b61427f9061535a565b6001600160a01b03821660009081526007602052604090205460ff16614cd4576001600160a01b03821660009081526004602052604090205460ff16614c69576142ca8515156156a6565b6142ec60ff6040518786823760208189810160088152030190205416156156f2565b6064356001600160a01b031660009081526020819052604090206001015460ff1615614c19576064356001600160a01b03163303614ba3576001600160a01b03821660009081526007602052604090819020805460ff19166001179055519461435486614e61565b61435f368684614ed4565b865261436c368286614ed4565b602087015260405161437d81614e7d565b60008152604087015260405161439281614e7d565b6000815260608701526040516143a781614e7d565b6000815260808701526040516143bc81614e7d565b6000815260a08701526040516143d181614e7d565b6000815260c08701526040516143e681614e7d565b600080825260e08801919091526001600160a01b0360643581166101008901528416815260066020526040902086518051919791906001600160401b03821161093957819061443f826144398c5461502e565b8c6154b2565b602090601f8311600114614b3757600092614b2c575b50508160011b916000199060031b1c19161787555b60208101518051906001600160401b03821161093957819061449c8261449360018d015461502e565b60018d016154b2565b602090601f8311600114614aba57600092614aaf575b50508160011b916000199060031b1c19161760018801555b60408101518051906001600160401b0382116109395781906144fc826144f360028d015461502e565b60028d016154b2565b602090601f8311600114614a3d57600092614a32575b50508160011b916000199060031b1c19161760028801555b60608101518051906001600160401b03821161093957819061455c8261455360038d015461502e565b60038d016154b2565b602090601f83116001146149c0576000926149b5575b50508160011b916000199060031b1c19161760038801555b60808101518051906001600160401b0382116109395781906145bc826145b360048d015461502e565b60048d016154b2565b602090601f831160011461494357600092614938575b50508160011b916000199060031b1c19161760048801555b60a08101518051906001600160401b03821161093957819061461c8261461360058d015461502e565b60058d016154b2565b602090601f83116001146148c6576000926148bb575b50508160011b916000199060031b1c19161760058801555b60c08101518051906001600160401b03821161093957819061467c8261467360068d015461502e565b60068d016154b2565b602090601f83116001146148495760009261483e575b50508160011b916000199060031b1c19161760068801555b60e08101519687516001600160401b038111610939576146da816146d1600785015461502e565b600785016154b2565b6020601f82116001146147a45791816008926114eb979695947f34288a60ac94463b3bd2c594dc78c87cba02f1270cf853cee3a2912bf04372379b9c600092614799575b50508160011b916000199060031b1c19161760078201555b019061010060018060a01b03910151166001600160601b0360a01b82541617905561476084615587565b604051818682376020818381016008815203019020600160ff1982541617905560405194859460018060a01b031697606435938661573e565b015190508c8061471e565b6007830160005260206000209960005b601f19841681106148265750827f34288a60ac94463b3bd2c594dc78c87cba02f1270cf853cee3a2912bf04372379a9b6114eb9897969593600193600896601f1981161061480d575b505050811b016007820155614736565b015160001960f88460031b161c191690558c80806147fd565b828201518c556001909b019a602092830192016147b4565b015190508980614692565b925060068a016000526020600020906000935b601f19841685106148a0576001945083601f19811610614887575b505050811b0160068801556146aa565b015160001960f88460031b161c19169055898080614877565b8181015183556020948501946001909301929091019061485c565b015190508980614632565b925060058a016000526020600020906000935b601f198416851061491d576001945083601f19811610614904575b505050811b01600588015561464a565b015160001960f88460031b161c191690558980806148f4565b818101518355602094850194600190930192909101906148d9565b0151905089806145d2565b925060048a016000526020600020906000935b601f198416851061499a576001945083601f19811610614981575b505050811b0160048801556145ea565b015160001960f88460031b161c19169055898080614971565b81810151835560209485019460019093019290910190614956565b015190508980614572565b925060038a016000526020600020906000935b601f1984168510614a17576001945083601f198116106149fe575b505050811b01600388015561458a565b015160001960f88460031b161c191690558980806149ee565b818101518355602094850194600190930192909101906149d3565b015190508980614512565b925060028a016000526020600020906000935b601f1984168510614a94576001945083601f19811610614a7b575b505050811b01600288015561452a565b015160001960f88460031b161c19169055898080614a6b565b81810151835560209485019460019093019290910190614a50565b0151905089806144b2565b925060018a016000526020600020906000935b601f1984168510614b11576001945083601f19811610614af8575b505050811b0160018801556144ca565b015160001960f88460031b161c19169055898080614ae8565b81810151835560209485019460019093019290910190614acd565b015190508980614455565b9250896000526020600020906000935b601f1984168510614b88576001945083601f19811610614b6f575b505050811b01875561446a565b015160001960f88460031b161c19169055898080614b62565b81810151835560209485019460019093019290910190614b47565b60405162461bcd60e51b815260206004820152604260248201527f48616e79612061646d696e2052532070656e616e6767756e67206a617761622060448201527f79616e672062697361206d656e6461667461726b616e2070617369656e20696e606482015261349760f11b608482015260a490fd5b60405162461bcd60e51b815260206004820152602260248201527f41646d696e2052532079616e6720646972756a756b20746964616b20616b7469604482015261331760f11b6064820152608490fd5b60405162461bcd60e51b815260206004820152603f60248201527f416c616d617420696e6920746572646166746172207365626167616920646f6b60448201527f7465722c20746964616b2062697361206d656e6a6164692070617369656e2e006064820152608490fd5b60405162461bcd60e51b815260206004820152602960248201527f50617369656e207375646168207465726461667461722064656e67616e20616c60448201526830b6b0ba1034b7349760b91b6064820152608490fd5b5033600052600060205261427f60ff600160406000200154169050614276565b600435906001600160a01b038216820361030657565b602435906001600160a01b038216820361030657565b9181601f84011215610306578235916001600160401b038311610306576020838186019501011161030657565b60055481101561355f5760056000527f036b6384b5eca791c62761152d0c79bb0604c104a5fb6f4eb0703f3154bb3db00190600090565b60095481101561355f5760096000527f6e1540171b6c0c960b71a7020d9f60077f6af931a8bbf590da0223dacf75c7af0190600090565b60025481101561355f5760026000527f405787fa12a823e0f2b7631cc41b3ba8828b3321ca811111fa75cd3aa3bb5ace0190600090565b805482101561355f5760005260206000200190600090565b61012081019081106001600160401b0382111761093957604052565b602081019081106001600160401b0382111761093957604052565b604081019081106001600160401b0382111761093957604052565b90601f801991011681019081106001600160401b0382111761093957604052565b9291926001600160401b0382116109395760405191614efd601f8201601f191660200184614eb3565b829481845281830111610306578281602093846000960137010152565b602060031982011261030657600435906001600160401b038211610306578060238301121561030657816024614f5593600401359101614ed4565b90565b60005b838110614f6b5750506000910152565b8181015183820152602001614f5b565b90815180825260208080930193019160005b828110614f9b575050505090565b83516001600160a01b031685529381019392810192600101614f8d565b90602091614fd181518092818552858086019101614f58565b601f01601f1916010190565b939061502092614f559694614ffd6150129360a0895260a0890190614fb8565b91151560208801528682036040880152614fb8565b908482036060860152614fb8565b916080818403910152614fb8565b90600182811c9216801561505e575b602083101461504857565b634e487b7160e01b600052602260045260246000fd5b91607f169161503d565b906040519182600082549261507c8461502e565b9081845260019485811690816000146150eb57506001146150a8575b50506150a692500383614eb3565b565b9093915060005260209081600020936000915b8183106150d35750506150a693508201013880615098565b855488840185015294850194879450918301916150bb565b9150506150a694506020925060ff191682840152151560051b8201013880615098565b9060a0600319830112610306576004356001600160a01b038116810361030657916001600160401b0390602435828111610306578161514f91600401614d77565b93909392604435818111610306578361516a91600401614d77565b93909392606435838111610306578261518591600401614d77565b939093926084359182116103065761519f91600401614d77565b9091565b9490614f55989697946151da6151f694956151e893895260018060a01b0380971660208a01526101008060408b0152890190614fb8565b908782036060890152614fb8565b908582036080870152614fb8565b941660a083015260c082015260e0818403910152614fb8565b979461527d9061526f615299966152618c9d9e9d6101009c9861525361528b996152456152a79f9a610120808752860190614fb8565b908482036020860152614fb8565b916040818403910152614fb8565b8c810360608e015290614fb8565b908a820360808c0152614fb8565b9088820360a08a0152614fb8565b9086820360c0880152614fb8565b9084820360e0860152614fb8565b6001600160a01b03909416910152565b6040906003190112610306576004356001600160a01b0381168103610306579060243580151581036103065790565b6080600319820112610306576004356001600160a01b038116810361030657916001600160401b03602435818111610306578361532591600401614d77565b93909392604435838111610306578261534091600401614d77565b939093926064359182116103065761519f91600401614d77565b1561536157565b60405162461bcd60e51b815260206004820152603c60248201527f48616e79612061646d696e2052532079616e6720616b7469662079616e67206460448201527f61706174206d656e6a616c616e6b616e2066756e67736920696e692e000000006064820152608490fd5b156153d357565b60405162461bcd60e51b815260206004820152601960248201527f41646d696e20525320746964616b20646974656d756b616e2e000000000000006044820152606490fd5b6000929181546154278161502e565b926001918083169081156154805750600114615444575b50505050565b90919293945060005260209081600020906000915b85831061546f575050505001903880808061543e565b805485840152918301918101615459565b60ff191684525050508115159091020191503880808061543e565b8181106154a6575050565b6000815560010161549b565b9190601f81116154c157505050565b6150a6926000526020600020906020601f840160051c830193106154ed575b601f0160051c019061549b565b90915081906154e0565b908060209392818452848401376000828201840152601f01601f1916010190565b9060405191828154918282526020928383019160005283600020936000905b82821061554d575050506150a692500383614eb3565b85546001600160a01b031684526001958601958895509381019390910190615537565b6001600160401b0381116109395760051b60200190565b60095490600160401b8210156109395761046a8260016150a69401600955614ddb565b156155b157565b60405162461bcd60e51b815260206004820152601760248201527f446f6b74657220746964616b207465726461667461722e0000000000000000006044820152606490fd5b156155fd57565b60405162461bcd60e51b815260206004820152602f60248201527f446f6b74657220696e6920746964616b2074657264616674617220646920727560448201526e36b0b41039b0b5b4ba1020b732309760891b6064820152608490fd5b1561566157565b60405162461bcd60e51b815260206004820152601760248201527f446f6b74657220746964616b20646974656d756b616e2e0000000000000000006044820152606490fd5b156156ad57565b60405162461bcd60e51b815260206004820152601d60248201527f49442050617369656e20746964616b20626f6c6568206b6f736f6e672e0000006044820152606490fd5b156156f957565b60405162461bcd60e51b815260206004820152601a60248201527f49442050617369656e20737564616820646967756e616b616e2e0000000000006044820152606490fd5b9361575b604094926152a7949897986060885260608801916154f7565b9185830360208701526154f7565b1561577057565b60405162461bcd60e51b815260206004820152601760248201527f50617369656e20746964616b20646974656d756b616e2e0000000000000000006044820152606490fd5b156157bc57565b60405162461bcd60e51b815260206004820152601760248201527f50617369656e20746964616b207465726461667461722e0000000000000000006044820152606490fd5b60001981146105625760010190565b9060018060a01b038092166000526003918260205260046040600020016000938154945b85811061584657505050505050600090565b836158518285614e49565b905490841b1c168486161461586e5761586990615801565b615834565b505050505050600190565b60018060a01b0316600081815260ff602092828452604092839161589f8383205461502e565b6159515780825260048652838383205416615902578152600785522054166158e257662ab735b737bbb760c91b9051916158d883614e98565b6007835282015290565b652830b9b4b2b760d11b9051916158f883614e98565b6006835282015290565b5060038086529190200154161561592957652237b5ba32b960d11b9051916158f883614e98565b6d24b730b1ba34bb32a237b5ba32b960911b90519161594783614e98565b600e835282015290565b815280855220600101541615615978576641646d696e525360c81b9051916158d883614e98565b6e496e61637469766541646d696e525360881b90519161599783614e98565b600f83528201529056fea2646970667358221220bb0d7517807caf71d64f73d4782afec900f2c10a08d1bbeb5968409f990f855c64736f6c63430008130033705805f9c18a9381be07edab4bcec28612355cb4fbde7b07f1fd23fee18aada8",
  "immutableReferences": {},
  "source": "// SPDX-License-Identifier: MIT\r\npragma solidity ^0.8.0;\r\n\r\ncontract RekamMedisRS {\r\n    struct AdminRS {\r\n        string namaRumahSakit;\r\n        bool aktif;\r\n        string alamatRumahSakit;\r\n        string kota;\r\n        string NIBRS;\r\n    }\r\n    mapping(address => AdminRS) public dataAdmin;\r\n    mapping(string => bool) public isNIBRSUsed;\r\n    address[] public daftarAdmin;\r\n\r\n    struct Dokter {\r\n        string nama;\r\n        string spesialisasi;\r\n        string nomorLisensi;\r\n        bool aktif;\r\n        address[] assignedPasien;\r\n        address adminRS;\r\n    }\r\n    mapping(address => Dokter) public dataDokter;\r\n    mapping(address => bool) public isDokter;\r\n    address[] public daftarDokter;\r\n\r\n    struct Pasien {\r\n        string nama;\r\n        string ID;\r\n        string golonganDarah;\r\n        string tanggalLahir;\r\n        string gender;\r\n        string alamat;\r\n        string noTelepon;\r\n        string email;\r\n        address rumahSakitPenanggungJawab;\r\n    }\r\n    mapping(address => Pasien) public dataPasien;\r\n    mapping(address => bool) public isPasien;\r\n    mapping(string => bool) public isPatientIDUsed;\r\n    address[] public daftarPasien;\r\n\r\n    struct RekamMedisData {\r\n        uint id;\r\n        address pasien;\r\n        string diagnosa;\r\n        string foto;\r\n        string catatan;\r\n        address pembuat;\r\n        uint256 timestampPembuatan;\r\n        string tipeRekamMedis;\r\n    }\r\n    mapping(uint => RekamMedisData) public rekamMedis;\r\n    mapping(address => uint[]) public rekamMedisByPasien;\r\n    uint public rekamMedisCount;\r\n\r\n    event AdminRSTerdaftar(\r\n        address indexed admin,\r\n        string namaRumahSakit,\r\n        string alamatRumahSakit,\r\n        string kota,\r\n        string NIBRS\r\n    );\r\n    event AdminRSStatusDiubah(address indexed admin, bool aktif);\r\n\r\n    event AdminRSInfoDiperbarui(\r\n        address indexed admin,\r\n        string namaRumahSakit,\r\n        string alamatRumahSakit,\r\n        string kota,\r\n        string NIBRS\r\n    );\r\n\r\n    event DokterTerdaftar(address indexed dokter, string nama, address adminRS);\r\n    event DokterStatusDiubah(address indexed dokter, bool aktif);\r\n    event DokterInfoDiperbarui(\r\n        address indexed dokter,\r\n        string nama,\r\n        string spesialisasi,\r\n        string nomorLisensi,\r\n        address indexed adminRS\r\n    );\r\n    event PasienTerdaftar(\r\n        address indexed pasien,\r\n        string nama,\r\n        string IDPasien,\r\n        address adminRS\r\n    );\r\n    event PasienPindahRS(\r\n        address indexed pasien,\r\n        address oldAdminRS,\r\n        address newAdminRS\r\n    );\r\n    event PasienDiassignKeDokter(address dokter, address pasien);\r\n    event PasienDiunassignDariDokter(address dokter, address pasien);\r\n\r\n    event RekamMedisDitambahkan(\r\n        uint id,\r\n        address pasien,\r\n        string diagnosa,\r\n        string foto,\r\n        string catatan,\r\n        string tipeRekamMedis,\r\n        address pembuat,\r\n        uint timestamp\r\n    );\r\n\r\n    event PasienDataDiperbarui(\r\n        address indexed pasien,\r\n        string nama,\r\n        string golonganDarah,\r\n        string tanggalLahir,\r\n        string gender,\r\n        string alamat,\r\n        string noTelepon,\r\n        string email\r\n    );\r\n\r\n    constructor() {\r\n        // Tambahkan Admin RS pertama\r\n        address admin1 = 0x153f67a7B7169Ce3F13F8A81DC9CAe0bC27dbf21;\r\n        string memory namaRS1 = \"RS Siloam Malang\";\r\n        string memory alamatRS1 = \"Jl. Raya Langsep No. 2, Malang\";\r\n        string memory kotaRS1 = \"Malang\";\r\n        string memory NIBRS1 = \"NIBRS-SM001\";\r\n\r\n        dataAdmin[admin1] = AdminRS({\r\n            namaRumahSakit: namaRS1,\r\n            aktif: true,\r\n            alamatRumahSakit: alamatRS1,\r\n            kota: kotaRS1,\r\n            NIBRS: NIBRS1\r\n        });\r\n        daftarAdmin.push(admin1);\r\n        isNIBRSUsed[NIBRS1] = true;\r\n        emit AdminRSTerdaftar(admin1, namaRS1, alamatRS1, kotaRS1, NIBRS1);\r\n\r\n        // Tambahkan Admin RS kedua\r\n        address admin2 = 0xd95A4eE9149fcb31C535eF6CbD65f4c23d9f7997;\r\n        string memory namaRS2 = \"RS Siloam Yogya\";\r\n        string memory alamatRS2 = \"Jl. Laksda Adisucipto No. 32, Yogyakarta\";\r\n        string memory kotaRS2 = \"Yogyakarta\";\r\n        string memory NIBRS2 = \"NIBRS-SY001\";\r\n\r\n        dataAdmin[admin2] = AdminRS({\r\n            namaRumahSakit: namaRS2,\r\n            aktif: true,\r\n            alamatRumahSakit: alamatRS2,\r\n            kota: kotaRS2,\r\n            NIBRS: NIBRS2\r\n        });\r\n        daftarAdmin.push(admin2);\r\n        isNIBRSUsed[NIBRS2] = true;\r\n        emit AdminRSTerdaftar(admin2, namaRS2, alamatRS2, kotaRS2, NIBRS2);\r\n    }\r\n\r\n    modifier hanyaAdminRS() {\r\n        require(\r\n            bytes(dataAdmin[msg.sender].namaRumahSakit).length > 0 &&\r\n                dataAdmin[msg.sender].aktif,\r\n            \"Hanya admin RS yang aktif yang dapat menjalankan fungsi ini.\"\r\n        );\r\n        _;\r\n    }\r\n\r\n    modifier hanyaDokterAktif() {\r\n        require(\r\n            isDokter[msg.sender] && dataDokter[msg.sender].aktif,\r\n            \"Hanya dokter yang aktif yang dapat menjalankan fungsi ini.\"\r\n        );\r\n        _;\r\n    }\r\n\r\n    modifier hanyaDokterAktifUntukPasien(address _pasien) {\r\n        require(\r\n            isDokter[msg.sender] && dataDokter[msg.sender].aktif,\r\n            \"Hanya dokter aktif.\"\r\n        );\r\n        require(isPasien[_pasien], \"Pasien tidak terdaftar.\");\r\n        require(\r\n            dataDokter[msg.sender].adminRS ==\r\n                dataPasien[_pasien].rumahSakitPenanggungJawab,\r\n            \"Dokter dan pasien tidak berada di rumah sakit yang sama.\"\r\n        );\r\n        bool assigned = false;\r\n        address[] storage listPasienDitugaskan = dataDokter[msg.sender]\r\n            .assignedPasien;\r\n        for (uint i = 0; i < listPasienDitugaskan.length; i++) {\r\n            if (listPasienDitugaskan[i] == _pasien) {\r\n                assigned = true;\r\n                break;\r\n            }\r\n        }\r\n        require(\r\n            assigned,\r\n            \"Dokter ini tidak ditugaskan untuk menangani pasien tersebut.\"\r\n        );\r\n        _;\r\n    }\r\n\r\n    modifier hanyaPasien(address _pasien) {\r\n        require(\r\n            msg.sender == _pasien,\r\n            \"Hanya pasien yang bersangkutan yang dapat menjalankan fungsi ini.\"\r\n        );\r\n        _;\r\n    }\r\n\r\n    // Fungsi updateAdminRSDetails agar Admin RS bisa memperbarui detailnya sendiri\r\n    function updateAdminRSDetails(\r\n        address _admin,\r\n        string calldata _namaBaru,\r\n        string calldata _alamatBaru,\r\n        string calldata _kotaBaru,\r\n        string calldata _NIBRSBaru\r\n    ) external hanyaAdminRS {\r\n        require(msg.sender == _admin, \"Anda hanya bisa memperbarui detail rumah sakit Anda sendiri.\");\r\n\r\n        require(\r\n            bytes(dataAdmin[_admin].namaRumahSakit).length != 0,\r\n            \"Admin RS tidak ditemukan.\"\r\n        );\r\n        require(\r\n            bytes(_namaBaru).length > 0,\r\n            \"Nama Rumah Sakit baru tidak boleh kosong.\"\r\n        );\r\n        require(bytes(_NIBRSBaru).length > 0, \"NIBRS baru tidak boleh kosong.\");\r\n\r\n        if (\r\n            keccak256(abi.encodePacked(dataAdmin[_admin].NIBRS)) !=\r\n            keccak256(abi.encodePacked(_NIBRSBaru))\r\n        ) {\r\n            require(\r\n                !isNIBRSUsed[_NIBRSBaru],\r\n                \"NIBRS baru sudah digunakan oleh Admin RS lain.\"\r\n            );\r\n            if (bytes(dataAdmin[_admin].NIBRS).length > 0) {\r\n                isNIBRSUsed[dataAdmin[_admin].NIBRS] = false;\r\n            }\r\n            isNIBRSUsed[_NIBRSBaru] = true;\r\n        }\r\n\r\n        AdminRS storage adminToUpdate = dataAdmin[_admin];\r\n        adminToUpdate.namaRumahSakit = _namaBaru;\r\n        adminToUpdate.alamatRumahSakit = _alamatBaru;\r\n        adminToUpdate.kota = _kotaBaru;\r\n        adminToUpdate.NIBRS = _NIBRSBaru;\r\n\r\n        emit AdminRSInfoDiperbarui(\r\n            _admin,\r\n            _namaBaru,\r\n            _alamatBaru,\r\n            _kotaBaru,\r\n            _NIBRSBaru\r\n        );\r\n    }\r\n\r\n    // Fungsi setStatusAdminRS yang sudah diperbaiki\r\n    function setStatusAdminRS(\r\n        address _admin,\r\n        bool _aktif\r\n    ) external hanyaAdminRS { // <-- Sudah benar di sini\r\n        require(\r\n            msg.sender == _admin,\r\n            \"Anda hanya bisa mengubah status Anda sendiri.\"\r\n        );\r\n        require(\r\n            bytes(dataAdmin[_admin].namaRumahSakit).length != 0,\r\n            \"Admin RS tidak ditemukan.\"\r\n        );\r\n        dataAdmin[_admin].aktif = _aktif;\r\n        emit AdminRSStatusDiubah(_admin, _aktif);\r\n    }\r\n\r\n\r\n    function getAllAdminRSAddresses() external view returns (address[] memory) {\r\n        return daftarAdmin;\r\n    }\r\n\r\n    function totalAdmin() external view returns (uint) {\r\n        return daftarAdmin.length;\r\n    }\r\n\r\n    function getAdminByIndex(uint idx) external view returns (address) {\r\n        require(idx < daftarAdmin.length, \"Indeks admin RS tidak valid.\");\r\n        return daftarAdmin[idx];\r\n    }\r\n\r\n    function getAdminRS(\r\n        address _admin\r\n    )\r\n        external\r\n        view\r\n        returns (\r\n            string memory namaRumahSakit,\r\n            bool aktif,\r\n            string memory alamatRumahSakit,\r\n            string memory kota,\r\n            string memory NIBRS\r\n        )\r\n    {\r\n        require(\r\n            bytes(dataAdmin[_admin].namaRumahSakit).length > 0,\r\n            \"Admin RS tidak ditemukan.\"\r\n        );\r\n        AdminRS storage adminData = dataAdmin[_admin];\r\n        return (\r\n            adminData.namaRumahSakit,\r\n            adminData.aktif,\r\n            adminData.alamatRumahSakit,\r\n            adminData.kota,\r\n            adminData.NIBRS\r\n        );\r\n    }\r\n\r\n    function registerDokter(\r\n        address _dokter,\r\n        string calldata _nama,\r\n        string calldata _spesialisasi,\r\n        string calldata _nomorLisensi\r\n    ) external hanyaAdminRS {\r\n        require(\r\n            !isDokter[_dokter],\r\n            \"Alamat ini sudah terdaftar sebagai dokter.\"\r\n        );\r\n        require(\r\n            !isPasien[_dokter],\r\n            \"Alamat ini terdaftar sebagai pasien, tidak bisa menjadi dokter.\"\r\n        );\r\n        isDokter[_dokter] = true;\r\n        dataDokter[_dokter] = Dokter({\r\n            nama: _nama,\r\n            spesialisasi: _spesialisasi,\r\n            nomorLisensi: _nomorLisensi,\r\n            aktif: true,\r\n            assignedPasien: new address[](0),\r\n            adminRS: msg.sender\r\n        });\r\n        daftarDokter.push(_dokter);\r\n        emit DokterTerdaftar(_dokter, _nama, msg.sender);\r\n    }\r\n\r\n    function updateDokterInfo(\r\n        address _dokter,\r\n        string calldata _namaBaru,\r\n        string calldata _spesialisasiBaru,\r\n        string calldata _nomorLisensiBaru\r\n    ) external hanyaAdminRS {\r\n        require(isDokter[_dokter], \"Dokter tidak terdaftar di sistem.\");\r\n        require(\r\n            dataDokter[_dokter].adminRS == msg.sender,\r\n            \"Anda bukan admin RS yang berhak untuk dokter ini.\"\r\n        );\r\n\r\n        Dokter storage dokterToUpdate = dataDokter[_dokter];\r\n        dokterToUpdate.nama = _namaBaru;\r\n        dokterToUpdate.spesialisasi = _spesialisasiBaru;\r\n        dokterToUpdate.nomorLisensi = _nomorLisensiBaru;\r\n\r\n        emit DokterInfoDiperbarui(\r\n            _dokter,\r\n            _namaBaru,\r\n            _spesialisasiBaru,\r\n            _nomorLisensiBaru,\r\n            msg.sender\r\n        );\r\n    }\r\n\r\n    function setStatusDokter(\r\n        address _dokter,\r\n        bool _aktif\r\n    ) external hanyaAdminRS {\r\n        require(isDokter[_dokter], \"Dokter tidak terdaftar.\");\r\n        require(\r\n            dataDokter[_dokter].adminRS == msg.sender,\r\n            \"Dokter ini tidak terdaftar di rumah sakit Anda.\"\r\n        );\r\n        dataDokter[_dokter].aktif = _aktif;\r\n        emit DokterStatusDiubah(_dokter, _aktif);\r\n    }\r\n\r\n    function totalDokter() external view returns (uint) {\r\n        return daftarDokter.length;\r\n    }\r\n\r\n    function getDokterByIndex(uint idx) external view returns (address) {\r\n        require(idx < daftarDokter.length, \"Indeks dokter tidak valid.\");\r\n        return daftarDokter[idx];\r\n    }\r\n\r\n    function getDokter(\r\n        address _dokter\r\n    )\r\n        external\r\n        view\r\n        returns (\r\n            string memory nama,\r\n            string memory spesialisasi,\r\n            string memory nomorLisensi,\r\n            bool aktif,\r\n            address[] memory pasienList,\r\n            address adminRS\r\n        )\r\n    {\r\n        require(isDokter[_dokter], \"Dokter tidak ditemukan.\");\r\n        Dokter storage d = dataDokter[_dokter];\r\n        return (\r\n            d.nama,\r\n            d.spesialisasi,\r\n            d.nomorLisensi,\r\n            d.aktif,\r\n            d.assignedPasien,\r\n            d.adminRS\r\n        );\r\n    }\r\n\r\n    function getAssignedPatients(\r\n        address _dokter\r\n    ) external view returns (address[] memory) {\r\n        require(isDokter[_dokter], \"Dokter tidak ditemukan.\");\r\n        return dataDokter[_dokter].assignedPasien;\r\n    }\r\n\r\n    function registerPasien(\r\n        address _pasien,\r\n        string calldata _nama,\r\n        string calldata _IDPasien,\r\n        address _adminRS\r\n    ) external hanyaAdminRS {\r\n        require(\r\n            !isPasien[_pasien],\r\n            \"Pasien sudah terdaftar dengan alamat ini.\"\r\n        );\r\n        require(\r\n            !isDokter[_pasien],\r\n            \"Alamat ini terdaftar sebagai dokter, tidak bisa menjadi pasien.\"\r\n        );\r\n        require(bytes(_IDPasien).length > 0, \"ID Pasien tidak boleh kosong.\");\r\n        require(!isPatientIDUsed[_IDPasien], \"ID Pasien sudah digunakan.\");\r\n\r\n        require(\r\n            dataAdmin[_adminRS].aktif,\r\n            \"Admin RS yang dirujuk tidak aktif.\"\r\n        );\r\n        require(\r\n            msg.sender == _adminRS,\r\n            \"Hanya admin RS penanggung jawab yang bisa mendaftarkan pasien ini.\"\r\n        );\r\n\r\n        isPasien[_pasien] = true;\r\n        dataPasien[_pasien] = Pasien({\r\n            nama: _nama,\r\n            ID: _IDPasien,\r\n            golonganDarah: \"\",\r\n            tanggalLahir: \"\",\r\n            gender: \"\",\r\n            alamat: \"\",\r\n            noTelepon: \"\",\r\n            email: \"\",\r\n            rumahSakitPenanggungJawab: _adminRS\r\n        });\r\n        daftarPasien.push(_pasien);\r\n        isPatientIDUsed[_IDPasien] = true;\r\n        emit PasienTerdaftar(_pasien, _nama, _IDPasien, _adminRS);\r\n    }\r\n\r\n    function selfRegisterPasien(\r\n        string calldata _nama,\r\n        string calldata _IDPasien,\r\n        string calldata _golonganDarah,\r\n        string calldata _tanggalLahir,\r\n        string calldata _gender,\r\n        string calldata _alamat,\r\n        string calldata _noTelepon,\r\n        string calldata _email,\r\n        address _adminRS\r\n    ) external {\r\n        require(!isPasien[msg.sender], \"Anda sudah terdaftar sebagai pasien.\");\r\n        require(!isDokter[msg.sender], \"Alamat ini terdaftar sebagai dokter.\");\r\n        require(bytes(_IDPasien).length > 0, \"ID Pasien tidak boleh kosong.\");\r\n        require(!isPatientIDUsed[_IDPasien], \"ID Pasien sudah digunakan.\");\r\n        require(\r\n            dataAdmin[_adminRS].aktif,\r\n            \"Rumah Sakit yang dipilih tidak aktif atau tidak valid.\"\r\n        );\r\n\r\n        isPasien[msg.sender] = true;\r\n        dataPasien[msg.sender] = Pasien({\r\n            nama: _nama,\r\n            ID: _IDPasien,\r\n            golonganDarah: _golonganDarah,\r\n            tanggalLahir: _tanggalLahir,\r\n            gender: _gender,\r\n            alamat: _alamat,\r\n            noTelepon: _noTelepon,\r\n            email: _email,\r\n            rumahSakitPenanggungJawab: _adminRS\r\n        });\r\n        daftarPasien.push(msg.sender);\r\n        isPatientIDUsed[_IDPasien] = true;\r\n        emit PasienTerdaftar(msg.sender, _nama, _IDPasien, _adminRS);\r\n    }\r\n\r\n    function updatePasienData(\r\n        string calldata _nama,\r\n        string calldata _golonganDarah,\r\n        string calldata _tanggalLahir,\r\n        string calldata _gender,\r\n        string calldata _alamat,\r\n        string calldata _noTelepon,\r\n        string calldata _email\r\n    ) external hanyaPasien(msg.sender) {\r\n        require(isPasien[msg.sender], \"Pasien tidak ditemukan.\");\r\n\r\n        Pasien storage pasienToUpdate = dataPasien[msg.sender];\r\n        pasienToUpdate.nama = _nama;\r\n        pasienToUpdate.golonganDarah = _golonganDarah;\r\n        pasienToUpdate.tanggalLahir = _tanggalLahir;\r\n        pasienToUpdate.gender = _gender;\r\n        pasienToUpdate.alamat = _alamat;\r\n        pasienToUpdate.noTelepon = _noTelepon;\r\n        pasienToUpdate.email = _email;\r\n\r\n        emit PasienDataDiperbarui(\r\n            msg.sender,\r\n            _nama,\r\n            _golonganDarah,\r\n            _tanggalLahir,\r\n            _gender,\r\n            _alamat,\r\n            _noTelepon,\r\n            _email\r\n        );\r\n    }\r\n\r\n    function updatePasienRumahSakit(\r\n        address _newAdminRS\r\n    ) external hanyaPasien(msg.sender) {\r\n        require(isPasien[msg.sender], \"Pasien tidak ditemukan.\");\r\n        require(\r\n            dataAdmin[_newAdminRS].aktif,\r\n            \"Rumah Sakit baru tidak aktif atau tidak valid.\"\r\n        );\r\n        require(\r\n            dataPasien[msg.sender].rumahSakitPenanggungJawab != _newAdminRS,\r\n            \"Anda sudah terdaftar di rumah sakit ini.\"\r\n        );\r\n\r\n        address oldAdminRS = dataPasien[msg.sender].rumahSakitPenanggungJawab;\r\n        dataPasien[msg.sender].rumahSakitPenanggungJawab = _newAdminRS;\r\n\r\n        emit PasienPindahRS(msg.sender, oldAdminRS, _newAdminRS);\r\n    }\r\n\r\n    function getDaftarPasien() external view returns (address[] memory) {\r\n        return daftarPasien;\r\n    }\r\n\r\n    function totalPasien() public view returns (uint) {\r\n        return daftarPasien.length;\r\n    }\r\n\r\n    function getPasienData(\r\n        address _pasien\r\n    )\r\n        external\r\n        view\r\n        returns (\r\n            string memory nama,\r\n            string memory ID,\r\n            string memory golonganDarah,\r\n            string memory tanggalLahir,\r\n            string memory gender,\r\n            string memory alamat,\r\n            string memory noTelepon,\r\n            string memory email,\r\n            address rumahSakitPenanggungJawab\r\n        )\r\n    {\r\n        require(isPasien[_pasien], \"Pasien tidak ditemukan.\");\r\n        Pasien storage p = dataPasien[_pasien];\r\n        return (\r\n            p.nama,\r\n            p.ID,\r\n            p.golonganDarah,\r\n            p.tanggalLahir,\r\n            p.gender,\r\n            p.alamat,\r\n            p.noTelepon,\r\n            p.email,\r\n            p.rumahSakitPenanggungJawab\r\n        );\r\n    }\r\n\r\n    function assignPasienToDokter(\r\n        address _dokter,\r\n        address _pasien\r\n    ) external hanyaAdminRS {\r\n        require(isDokter[_dokter], \"Dokter tidak terdaftar.\");\r\n        require(\r\n            dataDokter[_dokter].adminRS == msg.sender,\r\n            \"Dokter ini tidak terdaftar di rumah sakit Anda.\"\r\n        );\r\n        require(isPasien[_pasien], \"Pasien tidak terdaftar.\");\r\n\r\n        require(\r\n            (dataPasien[_pasien].rumahSakitPenanggungJawab == msg.sender ||\r\n                dataPasien[_pasien].rumahSakitPenanggungJawab == address(0)),\r\n            \"Pasien ini tidak terdaftar di rumah sakit Anda atau sudah di-assign ke RS lain.\"\r\n        );\r\n\r\n        if (dataPasien[_pasien].rumahSakitPenanggungJawab == address(0)) {\r\n            dataPasien[_pasien].rumahSakitPenanggungJawab = msg.sender;\r\n        }\r\n\r\n        bool alreadyAssigned = false;\r\n        address[] storage listPasienDitugaskan = dataDokter[_dokter]\r\n            .assignedPasien;\r\n        for (uint i = 0; i < listPasienDitugaskan.length; i++) {\r\n            if (listPasienDitugaskan[i] == _pasien) {\r\n                alreadyAssigned = true;\r\n                break;\r\n            }\r\n        }\r\n        require(\r\n            !alreadyAssigned,\r\n            \"Pasien ini sudah ditugaskan ke dokter tersebut.\"\r\n        );\r\n\r\n        listPasienDitugaskan.push(_pasien);\r\n        emit PasienDiassignKeDokter(_dokter, _pasien);\r\n    }\r\n\r\n    function unassignPasienFromDokter(\r\n        address _dokter,\r\n        address _pasien\r\n    ) external hanyaAdminRS {\r\n        require(isDokter[_dokter], \"Dokter tidak terdaftar.\");\r\n        require(\r\n            dataDokter[_dokter].adminRS == msg.sender,\r\n            \"Dokter ini tidak terdaftar di rumah sakit Anda.\"\r\n        );\r\n        require(isPasien[_pasien], \"Pasien tidak terdaftar.\");\r\n        require(\r\n            dataPasien[_pasien].rumahSakitPenanggungJawab == msg.sender,\r\n            \"Pasien ini tidak terdaftar di rumah sakit Anda.\"\r\n        );\r\n\r\n        bool found = false;\r\n        address[] storage listPasienDitugaskan = dataDokter[_dokter]\r\n            .assignedPasien;\r\n        for (uint i = 0; i < listPasienDitugaskan.length; i++) {\r\n            if (listPasienDitugaskan[i] == _pasien) {\r\n                listPasienDitugaskan[i] = listPasienDitugaskan[\r\n                    listPasienDitugaskan.length - 1\r\n                ];\r\n                listPasienDitugaskan.pop();\r\n                found = true;\r\n                break;\r\n            }\r\n        }\r\n        require(found, \"Pasien tidak ditugaskan ke dokter ini.\");\r\n        emit PasienDiunassignDariDokter(_dokter, _pasien);\r\n    }\r\n\r\n    function isAssigned(\r\n        address _dokter,\r\n        address _pasien\r\n    ) internal view returns (bool) {\r\n        address[] storage list = dataDokter[_dokter].assignedPasien;\r\n        for (uint i = 0; i < list.length; i++) {\r\n            if (list[i] == _pasien) {\r\n                return true;\r\n            }\r\n        }\r\n        return false;\r\n    }\r\n\r\n    function tambahRekamMedis(\r\n        address _pasien,\r\n        string calldata _diagnosa,\r\n        string calldata _foto,\r\n        string calldata _catatan,\r\n        string calldata _tipeRekamMedis\r\n    ) external {\r\n        bool isValidActor = false;\r\n        if (msg.sender == _pasien && isPasien[msg.sender]) {\r\n            isValidActor = true;\r\n        } else if (isDokter[msg.sender] && dataDokter[msg.sender].aktif) {\r\n            if (\r\n                isPasien[_pasien] &&\r\n                dataDokter[msg.sender].adminRS ==\r\n                dataPasien[_pasien].rumahSakitPenanggungJawab &&\r\n                isAssigned(msg.sender, _pasien)\r\n            ) {\r\n                isValidActor = true;\r\n            }\r\n        }\r\n        require(\r\n            isValidActor,\r\n            \"Aktor tidak berhak menambah rekam medis untuk pasien ini.\"\r\n        );\r\n        require(isPasien[_pasien], \"Pasien tidak terdaftar.\");\r\n\r\n        rekamMedisCount++;\r\n        uint newId = rekamMedisCount;\r\n        rekamMedis[newId] = RekamMedisData({\r\n            id: newId,\r\n            pasien: _pasien,\r\n            diagnosa: _diagnosa,\r\n            foto: _foto,\r\n            catatan: _catatan,\r\n            pembuat: msg.sender,\r\n            timestampPembuatan: block.timestamp,\r\n            tipeRekamMedis: _tipeRekamMedis\r\n        });\r\n        rekamMedisByPasien[_pasien].push(newId);\r\n\r\n        emit RekamMedisDitambahkan(\r\n            newId,\r\n            _pasien,\r\n            _diagnosa,\r\n            _foto,\r\n            _catatan,\r\n            _tipeRekamMedis,\r\n            msg.sender,\r\n            block.timestamp\r\n        );\r\n    }\r\n\r\n    function getRekamMedisIdsByPasien(\r\n        address _pasien\r\n    ) external view returns (uint[] memory) {\r\n        require(isPasien[_pasien], \"Pasien tidak ditemukan.\");\r\n        return rekamMedisByPasien[_pasien];\r\n    }\r\n\r\n    function getRekamMedis(\r\n        uint _id\r\n    )\r\n        external\r\n        view\r\n        returns (\r\n            uint id,\r\n            address pasien,\r\n            string memory diagnosa,\r\n            string memory foto,\r\n            string memory catatan,\r\n            address pembuat,\r\n            uint256 timestampPembuatan,\r\n            string memory tipeRekamMedis\r\n        )\r\n    {\r\n        require(\r\n            rekamMedis[_id].pasien != address(0),\r\n            \"Rekam medis tidak ditemukan.\"\r\n        );\r\n        RekamMedisData storage r = rekamMedis[_id];\r\n        return (\r\n            r.id,\r\n            r.pasien,\r\n            r.diagnosa,\r\n            r.foto,\r\n            r.catatan,\r\n            r.pembuat,\r\n            r.timestampPembuatan,\r\n            r.tipeRekamMedis\r\n        );\r\n    }\r\n\r\n    function getUserRole(address _user) public view returns (string memory) {\r\n        if (bytes(dataAdmin[_user].namaRumahSakit).length > 0) {\r\n            if (dataAdmin[_user].aktif) {\r\n                return \"AdminRS\";\r\n            } else {\r\n                return \"InactiveAdminRS\";\r\n            }\r\n        }\r\n\r\n        if (isDokter[_user]) {\r\n            if (dataDokter[_user].aktif) {\r\n                return \"Dokter\";\r\n            } else {\r\n                return \"InactiveDokter\";\r\n            }\r\n        }\r\n\r\n        if (isPasien[_user]) return \"Pasien\";\r\n\r\n        return \"Unknown\";\r\n    }\r\n\r\n    function getPasienByAdminRS() external view hanyaAdminRS returns (address[] memory) {\r\n        address[] memory pasienDiRS;\r\n        uint count = 0;\r\n        for (uint i = 0; i < daftarPasien.length; i++) {\r\n            if (dataPasien[daftarPasien[i]].rumahSakitPenanggungJawab == msg.sender) {\r\n                count++;\r\n            }\r\n        }\r\n\r\n        pasienDiRS = new address[](count);\r\n        uint currentIndex = 0;\r\n        for (uint i = 0; i < daftarPasien.length; i++) {\r\n            if (dataPasien[daftarPasien[i]].rumahSakitPenanggungJawab == msg.sender) {\r\n                pasienDiRS[currentIndex] = daftarPasien[i];\r\n                currentIndex++;\r\n            }\r\n        }\r\n        return pasienDiRS;\r\n    }\r\n}",
  "sourcePath": "D:\\TA\\rekam_medis_smartcontract_solidity\\contracts\\RekamMedisRS.sol",
  "compiler": {
    "name": "solc",
    "version": "0.8.19+commit.7dd6d404.Emscripten.clang"
  },
  "schemaVersion": "3.4.16",
  "updatedAt": "2025-07-07T16:35:27.775Z",
  "networkType": "ethereum",
  "devdoc": {
    "kind": "dev",
    "methods": {},
    "version": 1
  },
  "userdoc": {
    "kind": "user",
    "methods": {},
    "version": 1
  }
}