{
  "contractName": "RekamMedisRS",
  "abi": [
    {
      "inputs": [],
      "stateMutability": "nonpayable",
      "type": "constructor"
    },
    {
      "anonymous": false,
      "inputs": [
        {
          "indexed": true,
          "internalType": "address",
          "name": "admin",
          "type": "address"
        },
        {
          "indexed": false,
          "internalType": "bool",
          "name": "aktif",
          "type": "bool"
        }
      ],
      "name": "AdminRSStatusDiubah",
      "type": "event"
    },
    {
      "anonymous": false,
      "inputs": [
        {
          "indexed": true,
          "internalType": "address",
          "name": "admin",
          "type": "address"
        },
        {
          "indexed": false,
          "internalType": "string",
          "name": "namaRumahSakit",
          "type": "string"
        }
      ],
      "name": "AdminRSTerdaftar",
      "type": "event"
    },
    {
      "anonymous": false,
      "inputs": [
        {
          "indexed": true,
          "internalType": "address",
          "name": "dokter",
          "type": "address"
        },
        {
          "indexed": false,
          "internalType": "string",
          "name": "nama",
          "type": "string"
        },
        {
          "indexed": false,
          "internalType": "string",
          "name": "spesialisasi",
          "type": "string"
        },
        {
          "indexed": false,
          "internalType": "string",
          "name": "nomorLisensi",
          "type": "string"
        },
        {
          "indexed": true,
          "internalType": "address",
          "name": "adminRS",
          "type": "address"
        }
      ],
      "name": "DokterInfoDiperbarui",
      "type": "event"
    },
    {
      "anonymous": false,
      "inputs": [
        {
          "indexed": true,
          "internalType": "address",
          "name": "dokter",
          "type": "address"
        },
        {
          "indexed": false,
          "internalType": "bool",
          "name": "aktif",
          "type": "bool"
        }
      ],
      "name": "DokterStatusDiubah",
      "type": "event"
    },
    {
      "anonymous": false,
      "inputs": [
        {
          "indexed": true,
          "internalType": "address",
          "name": "dokter",
          "type": "address"
        },
        {
          "indexed": false,
          "internalType": "string",
          "name": "nama",
          "type": "string"
        },
        {
          "indexed": false,
          "internalType": "address",
          "name": "adminRS",
          "type": "address"
        }
      ],
      "name": "DokterTerdaftar",
      "type": "event"
    },
    {
      "anonymous": false,
      "inputs": [
        {
          "indexed": false,
          "internalType": "address",
          "name": "dokter",
          "type": "address"
        },
        {
          "indexed": false,
          "internalType": "address",
          "name": "pasien",
          "type": "address"
        }
      ],
      "name": "PasienDiassignKeDokter",
      "type": "event"
    },
    {
      "anonymous": false,
      "inputs": [
        {
          "indexed": true,
          "internalType": "address",
          "name": "pasien",
          "type": "address"
        },
        {
          "indexed": false,
          "internalType": "address",
          "name": "adminRS",
          "type": "address"
        }
      ],
      "name": "PasienPindahRS",
      "type": "event"
    },
    {
      "anonymous": false,
      "inputs": [
        {
          "indexed": true,
          "internalType": "address",
          "name": "pasien",
          "type": "address"
        },
        {
          "indexed": false,
          "internalType": "string",
          "name": "nama",
          "type": "string"
        },
        {
          "indexed": false,
          "internalType": "address",
          "name": "adminRS",
          "type": "address"
        }
      ],
      "name": "PasienTerdaftar",
      "type": "event"
    },
    {
      "anonymous": false,
      "inputs": [
        {
          "indexed": false,
          "internalType": "uint256",
          "name": "id",
          "type": "uint256"
        },
        {
          "indexed": false,
          "internalType": "string",
          "name": "diagnosa",
          "type": "string"
        },
        {
          "indexed": false,
          "internalType": "string",
          "name": "catatan",
          "type": "string"
        },
        {
          "indexed": false,
          "internalType": "address",
          "name": "dokter",
          "type": "address"
        },
        {
          "indexed": false,
          "internalType": "uint256",
          "name": "timestamp",
          "type": "uint256"
        }
      ],
      "name": "RekamMedisDiperbarui",
      "type": "event"
    },
    {
      "anonymous": false,
      "inputs": [
        {
          "indexed": false,
          "internalType": "uint256",
          "name": "id",
          "type": "uint256"
        },
        {
          "indexed": false,
          "internalType": "address",
          "name": "pasien",
          "type": "address"
        },
        {
          "indexed": false,
          "internalType": "string",
          "name": "diagnosa",
          "type": "string"
        },
        {
          "indexed": false,
          "internalType": "bool",
          "name": "valid",
          "type": "bool"
        }
      ],
      "name": "RekamMedisDitambahkan",
      "type": "event"
    },
    {
      "inputs": [
        {
          "internalType": "uint256",
          "name": "",
          "type": "uint256"
        }
      ],
      "name": "daftarAdmin",
      "outputs": [
        {
          "internalType": "address",
          "name": "",
          "type": "address"
        }
      ],
      "stateMutability": "view",
      "type": "function",
      "constant": true
    },
    {
      "inputs": [
        {
          "internalType": "uint256",
          "name": "",
          "type": "uint256"
        }
      ],
      "name": "daftarDokter",
      "outputs": [
        {
          "internalType": "address",
          "name": "",
          "type": "address"
        }
      ],
      "stateMutability": "view",
      "type": "function",
      "constant": true
    },
    {
      "inputs": [
        {
          "internalType": "uint256",
          "name": "",
          "type": "uint256"
        }
      ],
      "name": "daftarPasien",
      "outputs": [
        {
          "internalType": "address",
          "name": "",
          "type": "address"
        }
      ],
      "stateMutability": "view",
      "type": "function",
      "constant": true
    },
    {
      "inputs": [
        {
          "internalType": "address",
          "name": "",
          "type": "address"
        }
      ],
      "name": "dataAdmin",
      "outputs": [
        {
          "internalType": "string",
          "name": "namaRumahSakit",
          "type": "string"
        },
        {
          "internalType": "bool",
          "name": "aktif",
          "type": "bool"
        }
      ],
      "stateMutability": "view",
      "type": "function",
      "constant": true
    },
    {
      "inputs": [
        {
          "internalType": "address",
          "name": "",
          "type": "address"
        }
      ],
      "name": "dataDokter",
      "outputs": [
        {
          "internalType": "string",
          "name": "nama",
          "type": "string"
        },
        {
          "internalType": "string",
          "name": "spesialisasi",
          "type": "string"
        },
        {
          "internalType": "string",
          "name": "nomorLisensi",
          "type": "string"
        },
        {
          "internalType": "bool",
          "name": "aktif",
          "type": "bool"
        },
        {
          "internalType": "address",
          "name": "adminRS",
          "type": "address"
        }
      ],
      "stateMutability": "view",
      "type": "function",
      "constant": true
    },
    {
      "inputs": [
        {
          "internalType": "address",
          "name": "",
          "type": "address"
        }
      ],
      "name": "dataPasien",
      "outputs": [
        {
          "internalType": "string",
          "name": "nama",
          "type": "string"
        },
        {
          "internalType": "uint256",
          "name": "umur",
          "type": "uint256"
        },
        {
          "internalType": "string",
          "name": "golonganDarah",
          "type": "string"
        },
        {
          "internalType": "string",
          "name": "tanggalLahir",
          "type": "string"
        },
        {
          "internalType": "string",
          "name": "gender",
          "type": "string"
        },
        {
          "internalType": "string",
          "name": "alamat",
          "type": "string"
        },
        {
          "internalType": "string",
          "name": "noTelepon",
          "type": "string"
        },
        {
          "internalType": "string",
          "name": "email",
          "type": "string"
        },
        {
          "internalType": "address",
          "name": "rumahSakitPenanggungJawab",
          "type": "address"
        },
        {
          "internalType": "bool",
          "name": "exists",
          "type": "bool"
        }
      ],
      "stateMutability": "view",
      "type": "function",
      "constant": true
    },
    {
      "inputs": [
        {
          "internalType": "address",
          "name": "",
          "type": "address"
        }
      ],
      "name": "isDokter",
      "outputs": [
        {
          "internalType": "bool",
          "name": "",
          "type": "bool"
        }
      ],
      "stateMutability": "view",
      "type": "function",
      "constant": true
    },
    {
      "inputs": [
        {
          "internalType": "address",
          "name": "",
          "type": "address"
        }
      ],
      "name": "isPasien",
      "outputs": [
        {
          "internalType": "bool",
          "name": "",
          "type": "bool"
        }
      ],
      "stateMutability": "view",
      "type": "function",
      "constant": true
    },
    {
      "inputs": [
        {
          "internalType": "uint256",
          "name": "",
          "type": "uint256"
        }
      ],
      "name": "rekamMedis",
      "outputs": [
        {
          "internalType": "uint256",
          "name": "id",
          "type": "uint256"
        },
        {
          "internalType": "address",
          "name": "pasien",
          "type": "address"
        },
        {
          "internalType": "string",
          "name": "diagnosa",
          "type": "string"
        },
        {
          "internalType": "string",
          "name": "foto",
          "type": "string"
        },
        {
          "internalType": "string",
          "name": "catatan",
          "type": "string"
        },
        {
          "internalType": "bool",
          "name": "valid",
          "type": "bool"
        }
      ],
      "stateMutability": "view",
      "type": "function",
      "constant": true
    },
    {
      "inputs": [
        {
          "internalType": "address",
          "name": "",
          "type": "address"
        },
        {
          "internalType": "uint256",
          "name": "",
          "type": "uint256"
        }
      ],
      "name": "rekamMedisByPasien",
      "outputs": [
        {
          "internalType": "uint256",
          "name": "",
          "type": "uint256"
        }
      ],
      "stateMutability": "view",
      "type": "function",
      "constant": true
    },
    {
      "inputs": [],
      "name": "rekamMedisCount",
      "outputs": [
        {
          "internalType": "uint256",
          "name": "",
          "type": "uint256"
        }
      ],
      "stateMutability": "view",
      "type": "function",
      "constant": true
    },
    {
      "inputs": [
        {
          "internalType": "uint256",
          "name": "",
          "type": "uint256"
        },
        {
          "internalType": "uint256",
          "name": "",
          "type": "uint256"
        }
      ],
      "name": "rekamMedisUpdateHistory",
      "outputs": [
        {
          "internalType": "address",
          "name": "dokter",
          "type": "address"
        },
        {
          "internalType": "uint256",
          "name": "timestamp",
          "type": "uint256"
        }
      ],
      "stateMutability": "view",
      "type": "function",
      "constant": true
    },
    {
      "inputs": [
        {
          "internalType": "uint256",
          "name": "",
          "type": "uint256"
        },
        {
          "internalType": "uint256",
          "name": "",
          "type": "uint256"
        }
      ],
      "name": "rekamMedisVersions",
      "outputs": [
        {
          "internalType": "uint256",
          "name": "id",
          "type": "uint256"
        },
        {
          "internalType": "address",
          "name": "pasien",
          "type": "address"
        },
        {
          "internalType": "string",
          "name": "diagnosa",
          "type": "string"
        },
        {
          "internalType": "string",
          "name": "foto",
          "type": "string"
        },
        {
          "internalType": "string",
          "name": "catatan",
          "type": "string"
        },
        {
          "internalType": "bool",
          "name": "valid",
          "type": "bool"
        }
      ],
      "stateMutability": "view",
      "type": "function",
      "constant": true
    },
    {
      "inputs": [],
      "name": "superAdmin",
      "outputs": [
        {
          "internalType": "address",
          "name": "",
          "type": "address"
        }
      ],
      "stateMutability": "view",
      "type": "function",
      "constant": true
    },
    {
      "inputs": [
        {
          "internalType": "address",
          "name": "_admin",
          "type": "address"
        },
        {
          "internalType": "string",
          "name": "_namaRS",
          "type": "string"
        }
      ],
      "name": "registerAdminRS",
      "outputs": [],
      "stateMutability": "nonpayable",
      "type": "function"
    },
    {
      "inputs": [],
      "name": "getAllAdminRSAddresses",
      "outputs": [
        {
          "internalType": "address[]",
          "name": "",
          "type": "address[]"
        }
      ],
      "stateMutability": "view",
      "type": "function",
      "constant": true
    },
    {
      "inputs": [
        {
          "internalType": "address",
          "name": "_admin",
          "type": "address"
        },
        {
          "internalType": "bool",
          "name": "_aktif",
          "type": "bool"
        }
      ],
      "name": "setStatusAdminRS",
      "outputs": [],
      "stateMutability": "nonpayable",
      "type": "function"
    },
    {
      "inputs": [],
      "name": "totalAdmin",
      "outputs": [
        {
          "internalType": "uint256",
          "name": "",
          "type": "uint256"
        }
      ],
      "stateMutability": "view",
      "type": "function",
      "constant": true
    },
    {
      "inputs": [
        {
          "internalType": "uint256",
          "name": "idx",
          "type": "uint256"
        }
      ],
      "name": "getAdminByIndex",
      "outputs": [
        {
          "internalType": "address",
          "name": "",
          "type": "address"
        }
      ],
      "stateMutability": "view",
      "type": "function",
      "constant": true
    },
    {
      "inputs": [
        {
          "internalType": "address",
          "name": "_dokter",
          "type": "address"
        },
        {
          "internalType": "string",
          "name": "_nama",
          "type": "string"
        },
        {
          "internalType": "string",
          "name": "_spesialisasi",
          "type": "string"
        },
        {
          "internalType": "string",
          "name": "_nomorLisensi",
          "type": "string"
        }
      ],
      "name": "registerDokter",
      "outputs": [],
      "stateMutability": "nonpayable",
      "type": "function"
    },
    {
      "inputs": [
        {
          "internalType": "address",
          "name": "_dokter",
          "type": "address"
        },
        {
          "internalType": "string",
          "name": "_namaBaru",
          "type": "string"
        },
        {
          "internalType": "string",
          "name": "_spesialisasiBaru",
          "type": "string"
        },
        {
          "internalType": "string",
          "name": "_nomorLisensiBaru",
          "type": "string"
        }
      ],
      "name": "updateDokterInfo",
      "outputs": [],
      "stateMutability": "nonpayable",
      "type": "function"
    },
    {
      "inputs": [
        {
          "internalType": "address",
          "name": "_dokter",
          "type": "address"
        },
        {
          "internalType": "bool",
          "name": "_aktif",
          "type": "bool"
        }
      ],
      "name": "setStatusDokter",
      "outputs": [],
      "stateMutability": "nonpayable",
      "type": "function"
    },
    {
      "inputs": [],
      "name": "totalDokter",
      "outputs": [
        {
          "internalType": "uint256",
          "name": "",
          "type": "uint256"
        }
      ],
      "stateMutability": "view",
      "type": "function",
      "constant": true
    },
    {
      "inputs": [
        {
          "internalType": "uint256",
          "name": "idx",
          "type": "uint256"
        }
      ],
      "name": "getDokterByIndex",
      "outputs": [
        {
          "internalType": "address",
          "name": "",
          "type": "address"
        }
      ],
      "stateMutability": "view",
      "type": "function",
      "constant": true
    },
    {
      "inputs": [
        {
          "internalType": "address",
          "name": "_dokter",
          "type": "address"
        }
      ],
      "name": "getDokter",
      "outputs": [
        {
          "internalType": "string",
          "name": "nama",
          "type": "string"
        },
        {
          "internalType": "string",
          "name": "spesialisasi",
          "type": "string"
        },
        {
          "internalType": "string",
          "name": "nomorLisensi",
          "type": "string"
        },
        {
          "internalType": "bool",
          "name": "aktif",
          "type": "bool"
        },
        {
          "internalType": "address[]",
          "name": "pasienList",
          "type": "address[]"
        },
        {
          "internalType": "address",
          "name": "adminRS",
          "type": "address"
        }
      ],
      "stateMutability": "view",
      "type": "function",
      "constant": true
    },
    {
      "inputs": [
        {
          "internalType": "address",
          "name": "_pasien",
          "type": "address"
        },
        {
          "internalType": "string",
          "name": "_nama",
          "type": "string"
        },
        {
          "internalType": "address",
          "name": "_adminRS",
          "type": "address"
        }
      ],
      "name": "registerPasien",
      "outputs": [],
      "stateMutability": "nonpayable",
      "type": "function"
    },
    {
      "inputs": [
        {
          "internalType": "string",
          "name": "_nama",
          "type": "string"
        },
        {
          "internalType": "uint256",
          "name": "_umur",
          "type": "uint256"
        },
        {
          "internalType": "string",
          "name": "_golonganDarah",
          "type": "string"
        },
        {
          "internalType": "string",
          "name": "_tanggalLahir",
          "type": "string"
        },
        {
          "internalType": "string",
          "name": "_gender",
          "type": "string"
        },
        {
          "internalType": "string",
          "name": "_alamat",
          "type": "string"
        },
        {
          "internalType": "string",
          "name": "_noTelepon",
          "type": "string"
        },
        {
          "internalType": "string",
          "name": "_email",
          "type": "string"
        },
        {
          "internalType": "address",
          "name": "_adminRS",
          "type": "address"
        }
      ],
      "name": "selfRegisterPasien",
      "outputs": [],
      "stateMutability": "nonpayable",
      "type": "function"
    },
    {
      "inputs": [],
      "name": "getDaftarPasien",
      "outputs": [
        {
          "internalType": "address[]",
          "name": "",
          "type": "address[]"
        }
      ],
      "stateMutability": "view",
      "type": "function",
      "constant": true
    },
    {
      "inputs": [
        {
          "internalType": "address",
          "name": "_pasien",
          "type": "address"
        }
      ],
      "name": "getPasienData",
      "outputs": [
        {
          "internalType": "string",
          "name": "nama",
          "type": "string"
        },
        {
          "internalType": "uint256",
          "name": "umur",
          "type": "uint256"
        },
        {
          "internalType": "string",
          "name": "golonganDarah",
          "type": "string"
        },
        {
          "internalType": "string",
          "name": "tanggalLahir",
          "type": "string"
        },
        {
          "internalType": "string",
          "name": "gender",
          "type": "string"
        },
        {
          "internalType": "string",
          "name": "alamat",
          "type": "string"
        },
        {
          "internalType": "string",
          "name": "noTelepon",
          "type": "string"
        },
        {
          "internalType": "string",
          "name": "email",
          "type": "string"
        },
        {
          "internalType": "address",
          "name": "rumahSakitPenanggungJawab",
          "type": "address"
        }
      ],
      "stateMutability": "view",
      "type": "function",
      "constant": true
    },
    {
      "inputs": [
        {
          "internalType": "address",
          "name": "_dokter",
          "type": "address"
        },
        {
          "internalType": "address",
          "name": "_pasien",
          "type": "address"
        }
      ],
      "name": "assignPasienToDokter",
      "outputs": [],
      "stateMutability": "nonpayable",
      "type": "function"
    },
    {
      "inputs": [
        {
          "internalType": "address",
          "name": "_pasien",
          "type": "address"
        },
        {
          "internalType": "string",
          "name": "_diagnosa",
          "type": "string"
        },
        {
          "internalType": "string",
          "name": "_foto",
          "type": "string"
        },
        {
          "internalType": "string",
          "name": "_catatan",
          "type": "string"
        }
      ],
      "name": "tambahRekamMedis",
      "outputs": [],
      "stateMutability": "nonpayable",
      "type": "function"
    },
    {
      "inputs": [
        {
          "internalType": "uint256",
          "name": "_id",
          "type": "uint256"
        },
        {
          "internalType": "string",
          "name": "_diagnosa",
          "type": "string"
        },
        {
          "internalType": "string",
          "name": "_foto",
          "type": "string"
        },
        {
          "internalType": "string",
          "name": "_catatan",
          "type": "string"
        }
      ],
      "name": "updateRekamMedis",
      "outputs": [],
      "stateMutability": "nonpayable",
      "type": "function"
    },
    {
      "inputs": [
        {
          "internalType": "address",
          "name": "_pasien",
          "type": "address"
        }
      ],
      "name": "getRekamMedisIdsByPasien",
      "outputs": [
        {
          "internalType": "uint256[]",
          "name": "",
          "type": "uint256[]"
        }
      ],
      "stateMutability": "view",
      "type": "function",
      "constant": true
    },
    {
      "inputs": [
        {
          "internalType": "uint256",
          "name": "_id",
          "type": "uint256"
        }
      ],
      "name": "getRekamMedis",
      "outputs": [
        {
          "internalType": "uint256",
          "name": "id",
          "type": "uint256"
        },
        {
          "internalType": "address",
          "name": "pasien",
          "type": "address"
        },
        {
          "internalType": "string",
          "name": "diagnosa",
          "type": "string"
        },
        {
          "internalType": "string",
          "name": "foto",
          "type": "string"
        },
        {
          "internalType": "string",
          "name": "catatan",
          "type": "string"
        },
        {
          "internalType": "bool",
          "name": "valid",
          "type": "bool"
        }
      ],
      "stateMutability": "view",
      "type": "function",
      "constant": true
    },
    {
      "inputs": [
        {
          "internalType": "uint256",
          "name": "_id",
          "type": "uint256"
        }
      ],
      "name": "getRekamMedisVersions",
      "outputs": [
        {
          "components": [
            {
              "internalType": "uint256",
              "name": "id",
              "type": "uint256"
            },
            {
              "internalType": "address",
              "name": "pasien",
              "type": "address"
            },
            {
              "internalType": "string",
              "name": "diagnosa",
              "type": "string"
            },
            {
              "internalType": "string",
              "name": "foto",
              "type": "string"
            },
            {
              "internalType": "string",
              "name": "catatan",
              "type": "string"
            },
            {
              "internalType": "bool",
              "name": "valid",
              "type": "bool"
            }
          ],
          "internalType": "struct RekamMedisRS.RekamMedisData[]",
          "name": "",
          "type": "tuple[]"
        }
      ],
      "stateMutability": "view",
      "type": "function",
      "constant": true
    },
    {
      "inputs": [
        {
          "internalType": "uint256",
          "name": "_id",
          "type": "uint256"
        }
      ],
      "name": "getRekamMedisUpdateHistory",
      "outputs": [
        {
          "internalType": "address[]",
          "name": "actors",
          "type": "address[]"
        },
        {
          "internalType": "uint256[]",
          "name": "timestamps",
          "type": "uint256[]"
        }
      ],
      "stateMutability": "view",
      "type": "function",
      "constant": true
    },
    {
      "inputs": [
        {
          "internalType": "uint256",
          "name": "_id",
          "type": "uint256"
        }
      ],
      "name": "nonaktifkanRekamMedis",
      "outputs": [],
      "stateMutability": "nonpayable",
      "type": "function"
    },
    {
      "inputs": [
        {
          "internalType": "address",
          "name": "_newAdmin",
          "type": "address"
        }
      ],
      "name": "setSuperAdmin",
      "outputs": [],
      "stateMutability": "nonpayable",
      "type": "function"
    },
    {
      "inputs": [
        {
          "internalType": "address",
          "name": "_user",
          "type": "address"
        }
      ],
      "name": "getUserRole",
      "outputs": [
        {
          "internalType": "string",
          "name": "",
          "type": "string"
        }
      ],
      "stateMutability": "view",
      "type": "function",
      "constant": true
    }
  ],
  "bytecode": "0x6080806040523461003c57600080546001600160a01b03191673b0dc0bf642d339517438017fc185bb0f758a01d2179055614ae690816100428239f35b600080fdfe6080604052600436101561001257600080fd5b60003560e01c8062410cb314613d9c578063046bdbcc14613d2e578063083d882414613c3d5780631132beb514613bfe5780631570005214613b6257806319d9d3dd14613ae157806319e8f405146138b357806326c249a114612f895780632782085114612f5157806329575f6a14612f285780632e2dd10214612f0a5780633aaec728146127b55780633bf76303146127525780633da05518146125e257806342699651146125b957806347960cb51461252657806351887b67146124915780635c4c9348146124525780635e6da24c1461221e578063623785c1146121b057806364319e33146121925780636837008714612137578063786f3fbe146120065780637d3e9db814611fe8578063911b633a14611fa6578063924b912314611e98578063932e0f6d14611de25780639725955014611d96578063a665102c14611c5b578063abf72abb14611c18578063ad3c970814611956578063b75de7a814611556578063c3c0fdea146114a9578063c967ede814611405578063d688780214611278578063dd09a968146111f5578063ddbd24d314610c7b578063df83dde0146102ad5763f2ab4a99146101c857600080fd5b346102a8576101d636614149565b60005490916001600160a01b03916101f1908316331461423e565b169081600052600160205261020a604060002054613f50565b156102635760207fd2e4d0240eabf0011425eb3fffbc4f311cd4b564ba547aba4b3163fd046f6a979183600052600182526102588160016040600020019060ff801983541691151516179055565b6040519015158152a2005b60405162461bcd60e51b815260206004820152601960248201527f41646d696e20525320746964616b20646974656d756b616e2e000000000000006044820152606490fd5b600080fd5b346102a85760603660031901126102a8576102c6613df4565b6024356001600160401b0381116102a8576102e5903690600401613ee3565b906044356001600160a01b03811690036102a85733600052600160205261031660ff600160406000200154166143ce565b6001600160a01b03831660009081526007602052604090205460ff16610c24576001600160a01b03831660009081526004602052604090205460ff16610bb95760018060a01b0360443516600052600160205260ff6001604060002001541615610b69576044356001600160a01b03163303610af3576001600160a01b03831660009081526007602052604090819020805460ff1916600117905551926103bc84613f8a565b6103c73684846142a7565b8452600060208501526040516103dc81613fdc565b6000815260408501526040516103f181613fdc565b60008152606085015260405161040681613fdc565b60008152608085015260405161041b81613fdc565b6000815260a085015260405161043081613fdc565b6000815260c085015260405161044581613fdc565b600080825260e08601919091526001600160a01b03604435811661010087015260016101208701528216815260066020526040902084518051919591906001600160401b03821161080d5781906104a6826104a08a54613f50565b8a614304565b602090601f8311600114610a8757600092610a7c575b50508160011b916000199060031b1c19161785555b6020810151600186015560408101518051906001600160401b03821161080d57819061050d8261050460028b0154613f50565b60028b01614304565b602090601f8311600114610a0a576000926109ff575b50508160011b916000199060031b1c19161760028601555b60608101518051906001600160401b03821161080d57819061056d8261056460038b0154613f50565b60038b01614304565b602090601f831160011461098d57600092610982575b50508160011b916000199060031b1c19161760038601555b60808101518051906001600160401b03821161080d5781906105cd826105c460048b0154613f50565b60048b01614304565b602090601f831160011461091057600092610905575b50508160011b916000199060031b1c19161760048601555b60a081015180516001600160401b03811161080d5780600588019261062a826106248654613f50565b86614304565b602090601f831160011461089f57600092610894575b50508160011b916000199060031b1c19161790555b60c081015180516001600160401b03811161080d5780600688019261067e826106248654613f50565b602090601f831160011461082e57600092610823575b50508160011b916000199060031b1c19161790555b60e08101519485516001600160401b03811161080d576106d9816106d06007850154613f50565b60078501614304565b6020601f821160011461078b57908060089392600080516020614a918339815191529899600092610780575b50508160011b916000199060031b1c19161760078201555b019060018060a01b036101008201511682549161012060ff60a01b910151151560a01b16916affffffffffffffffffffff60a81b161717905561075f81614349565b61077b60405192839260018060a01b0316956044359184614457565b0390a2005b015190508980610705565b6007830160005260206000209760005b601f19841681106107f5575091600080516020614a9183398151915297986001926008959483601f198116106107dc575b505050811b01600782015561071d565b015160001960f88460031b161c191690558980806107cc565b828201518a556001909901986020928301920161079b565b634e487b7160e01b600052604160045260246000fd5b015190508880610694565b6000858152602081209350601f198516905b81811061087c5750908460019594939210610863575b505050811b0190556106a9565b015160001960f88460031b161c19169055888080610856565b92936020600181928786015181550195019301610840565b015190508880610640565b6000858152602081209350601f198516905b8181106108ed57509084600195949392106108d4575b505050811b019055610655565b015160001960f88460031b161c191690558880806108c7565b929360206001819287860151815501950193016108b1565b0151905087806105e3565b9250600488016000526020600020906000935b601f1984168510610967576001945083601f1981161061094e575b505050811b0160048601556105fb565b015160001960f88460031b161c1916905587808061093e565b81810151835560209485019460019093019290910190610923565b015190508780610583565b9250600388016000526020600020906000935b601f19841685106109e4576001945083601f198116106109cb575b505050811b01600386015561059b565b015160001960f88460031b161c191690558780806109bb565b818101518355602094850194600190930192909101906109a0565b015190508780610523565b9250600288016000526020600020906000935b601f1984168510610a61576001945083601f19811610610a48575b505050811b01600286015561053b565b015160001960f88460031b161c19169055878080610a38565b81810151835560209485019460019093019290910190610a1d565b0151905087806104bc565b9250876000526020600020906000935b601f1984168510610ad8576001945083601f19811610610abf575b505050811b0185556104d1565b015160001960f88460031b161c19169055878080610ab2565b81810151835560209485019460019093019290910190610a97565b60405162461bcd60e51b815260206004820152604260248201527f48616e79612061646d696e2052532070656e616e6767756e67206a617761622060448201527f79616e672062697361206d656e6461667461726b616e2070617369656e20696e606482015261349760f11b608482015260a490fd5b60405162461bcd60e51b815260206004820152602260248201527f41646d696e2052532079616e6720646972756a756b20746964616b20616b7469604482015261331760f11b6064820152608490fd5b60405162461bcd60e51b815260206004820152603f60248201527f416c616d617420696e6920746572646166746172207365626167616920646f6b60448201527f7465722c20746964616b2062697361206d656e6a6164692070617369656e2e006064820152608490fd5b60405162461bcd60e51b815260206004820152602960248201527f50617369656e207375646168207465726461667461722064656e67616e20616c60448201526830b6b0ba1034b7349760b91b6064820152608490fd5b346102a857610c89366141aa565b90959291949395336000526001602052610cad60ff600160406000200154166143ce565b6001600160a01b03841660009081526004602052604090205460ff1661119d576001600160a01b03841660009081526007602052604090205460ff1661113257610d539160018060a01b03851660005260046020526040600020600160ff19825416179055610d4760405194610d2286613fdc565b6000865260405198610d338a613fa6565b610d3e368c8b6142a7565b8a5236916142a7565b602088015236916142a7565b60408501526001606085015260808401523360a084015260018060a01b038116600052600360205260406000209280518051906001600160401b03821161080d578190610daa82610da48954613f50565b89614304565b602090601f83116001146110c6576000926110bb575b50508160011b916000199060031b1c19161784555b60208101518051906001600160401b03821161080d578190610e0782610dfe60018a0154613f50565b60018a01614304565b602090601f83116001146110495760009261103e575b50508160011b916000199060031b1c19161760018501555b604081015180516001600160401b03811161080d57806002870192610e5e826106248654613f50565b602090601f8311600114610fd857600092610fcd575b50508160011b916000199060031b1c19161790555b610ea860608201511515600386019060ff801983541691151516179055565b60048401936080820151948551906001600160401b03821161080d57600160401b9687831161080d576020908254848455808510610fb0575b500190600052602060002060005b838110610f9357505050506005019060a0600180821b03910151166bffffffffffffffffffffffff60a01b8254161790556005549283101561080d57610f5c8360017f5c9d12a5bfda65f31ab460df37935bfe7b6cfa6a3787bf1f99858ccc15dc92779501600555613e0a565b81546001600160a01b0393841660039290921b82811b94901b191692909217905560405190939091829161077b9133919084614457565b82516001600160a01b031681830155602090920191600101610eef565b610fc79084600052858460002091820191016142ed565b8a610ee1565b015190508880610e74565b6000858152602081209350601f198516905b818110611026575090846001959493921061100d575b505050811b019055610e89565b015160001960f88460031b161c19169055888080611000565b92936020600181928786015181550195019301610fea565b015190508780610e1d565b9250600187016000526020600020906000935b601f19841685106110a0576001945083601f19811610611087575b505050811b016001850155610e35565b015160001960f88460031b161c19169055878080611077565b8181015183556020948501946001909301929091019061105c565b015190508780610dc0565b9250866000526020600020906000935b601f1984168510611117576001945083601f198116106110fe575b505050811b018455610dd5565b015160001960f88460031b161c191690558780806110f1565b818101518355602094850194600190930192909101906110d6565b60405162461bcd60e51b815260206004820152603f60248201527f416c616d617420696e692074657264616674617220736562616761692070617360448201527f69656e2c20746964616b2062697361206d656e6a61646920646f6b7465722e006064820152608490fd5b60405162461bcd60e51b815260206004820152602a60248201527f416c616d617420696e692073756461682074657264616674617220736562616760448201526930b4903237b5ba32b91760b11b6064820152608490fd5b346102a85761120336614178565b90600052600c60205260406000209081548110156102a85761122491614222565b50805460018201546001600160a01b0316916112749061124660028201614018565b9061125360038201614018565b60ff600561126360048501614018565b9301541692604051968796876140be565b0390f35b346102a8576020806003193601126102a857600435600052600c81526040600020908154916112a683614440565b926112b46040519485613ff7565b8084528284018092600052836000206000915b83831061138a5750505050604051918083019381845251809452604083019360408160051b85010192916000955b8287106113025785850386f35b909192938280600192603f1989820301855287519081518152848060a01b0383830151168382015261136e61135b611348604085015160c0806040870152850190613f10565b6060808601519085830390860152613f10565b6080808501519084830390850152613f10565b9160a080910151151591015296019201960195929190926112f5565b60068660019260409998995161139f81613fa6565b85548152848060a01b038587015416838201526113be60028701614018565b60408201526113cf60038701614018565b60608201526113e060048701614018565b608082015260ff600587015416151560a08201528152019201920191909594956112c7565b346102a8576020806003193601126102a8576001600160a01b03611427613df4565b16806000526007825261144160ff60406000205416614530565b600052600a8152604060002090604051808383829554938481520190600052836000209260005b858282106114935750505061147f92500383613ff7565b611274604051928284938452830190614115565b8554845260019586019588955093019201611468565b346102a85760203660031901126102a8576115296001600160a01b03806114ce613df4565b16600052600360205260406000206114e581614018565b916115456114f560018401614018565b9161153761150560028601614018565b91600560ff600388015416960154169360405197889760a0895260a0890190613f10565b908782036020890152613f10565b908582036040870152613f10565b911515606084015260808301520390f35b346102a857611564366141aa565b9594929093919533600052600160205261158860ff600160406000200154166143ce565b60018060a01b0391828716600052600460205260ff60406000205416156119075782871660005260039788602052338460056040600020015416036118a8578388166000528860205260406000206001600160401b0380871161080d576115f9876115f38454613f50565b84614304565b866000601f821160011461184357600091611838575b50600019888d1b1c1916600188901b1782555b80831161080d57600182016116418461163b8354613f50565b83614304565b836000601f82116001146117d5576000916117ca575b50600019858e1b1c1916600185901b1790555b841161080d5761168a846116816002840154613f50565b60028401614304565b6000601f851160011461172d579184939160027f4e15ca2ba26538cdb1e2f0d595a1ec96fe8fbb126404e0cc083426c33ccbdd959a9b9c61171d989761170b96600091611722575b508760011b9188600019911b1c1916179101555b6116fd60405198899860608a5260608a01916143ad565b9187830360208901526143ad565b918483036040860152339816966143ad565b0390a3005b90508d01358f6116d2565b99601f198516906002830160005260206000209160005b8181106117b25750917f4e15ca2ba26538cdb1e2f0d595a1ec96fe8fbb126404e0cc083426c33ccbdd959a9b9c8796949261171d999861170b979510611798575b5050506002600186811b019101556116e6565b60f888600019921b161c19908d01351690558c8080611785565b8b8e0135845560209d8e019d60019094019301611744565b90508501358d611657565b60008381526020812092505b601f1987168110611820575085601f19811610611808575b5050600184811b01905561166a565b860135600019868f1b60f8161c191690558c806117f9565b9091602060018192858b0135815501930191016117e1565b90508801358c61160f565b60008481526020812092508990601f198216905b8c82821061188e57505010611876575b5050600187811b018255611622565b890135600019898e1b60f8161c191690558b80611867565b84013585556001909401936020938401938c935001611857565b60405162461bcd60e51b815260206004820152603160248201527f416e64612062756b616e2061646d696e2052532079616e672062657268616b206044820152703ab73a3ab5903237b5ba32b91034b7349760791b6064820152608490fd5b60405162461bcd60e51b815260206004820152602160248201527f446f6b74657220746964616b207465726461667461722064692073697374656d6044820152601760f91b6064820152608490fd5b346102a857611964366141aa565b949160009693949660018060a01b038086169586331480611c00575b15611b465750505060015b15611adb57611a05611a239285600052602097600689526119b960ff60086040600020015460a01c1661457c565b6119f96119c7600b546145c8565b9889600b55604051956119d987613fa6565b8a8752898c8801526119ed8d36908b6142a7565b604088015236916142a7565b606085015236916142a7565b6080820152600160a0820152846000526009865260406000206145ed565b81600052600a8452604060002094855492600160401b84101561080d57611a74847f8647b41d1ffdc302f876f0e70e0c442d110a3c8bad284218f99616149394c997986001611acf97018155613e8e565b81549060031b9087821b91600019901b191617905584600052600d8652611ab3604060002060405190611aa682613fc1565b3382524289830152614888565b60405195869586528501526080604085015260808401916143ad565b600160608301520390a1005b60405162461bcd60e51b815260206004820152603960248201527f416b746f7220746964616b2062657268616b206d656e616d6261682072656b6160448201527f6d206d6564697320756e74756b2070617369656e20696e692e000000000000006064820152608490fd5b33600052600460205260ff6040600020541680611be9575b611b6a575b505061198b565b86600052600660205260ff60086040600020015460a01c169182611bb6575b5081611ba5575b50611b9d575b8880611b63565b506001611b96565b611bb09150336148d6565b89611b90565b9091503360005260036020528060056040600020015416908760005260066020526008604060002001541614908a611b89565b50600360205260ff60036040600020015416611b5e565b5086600052600760205260ff60406000205416611980565b346102a85760203660031901126102a8576004356000908152600960205260409020805460018201546001600160a01b0316916112749061124660028201614018565b346102a85760203660031901126102a8576001600160a01b0380611c7d613df4565b1680600052600760205260406000205460ff16611c9990614530565b60005260066020526040600020600181015491600882015416611cbb82614018565b91611cc860028201614018565b90611cd560038201614018565b611ce160048301614018565b611ced60058401614018565b91611cfa60068501614018565b93600701611d0790614018565b94604051988998610120808b528a01611d1f91613f10565b9060208a015288810360408a0152611d3691613f10565b8781036060890152611d4791613f10565b8681036080880152611d5891613f10565b85810360a0870152611d6991613f10565b84810360c0860152611d7a91613f10565b83810360e0850152611d8b91613f10565b906101008301520390f35b346102a857611da436614178565b90600052600d602052604060002080548210156102a857604091611dc79161418e565b506001808060a01b0382541691015482519182526020820152f35b346102a85760207f3dcd68c14f5f191f12b3b56bf35d5d7eb22447e9ec685290967b4558822ca98a611e1336614149565b9290923360005260018252611e3260ff600160406000200154166143ce565b611e7360018060a01b03809516948560005260048452611e5960ff60406000205416614480565b8560005260038452339060056040600020015416146144cc565b83600052600382526102588160036040600020019060ff801983541691151516179055565b346102a8576020806003193601126102a85760043580600052600d90818352604060002054611ec681614440565b92611ed46040519485613ff7565b818452601f199283611ee584614440565b013687870137611ef483614440565b93611f026040519586613ff7565b838552611f0e84614440565b01368786013760005b838110611f4857611f3b866112748988604051948594604086526040860190613ea6565b9184830390850152614115565b611fa19082600052838852611f6181604060002061418e565b50546001600160a01b0316611f76828961498b565b52826000528388526001611f8e82604060002061418e565b500154611f9b828861498b565b526145c8565b611f17565b346102a85760203660031901126102a8576004356002548110156102a857611fcf602091613e57565b905460405160039290921b1c6001600160a01b03168152f35b346102a85760003660031901126102a8576020600554604051908152f35b346102a85760203660031901126102a8576001600160a01b0380612028613df4565b16600052600660205260406000209061204082614018565b906001830154926002810161205490614018565b9061206160038201614018565b61206d60048301614018565b61207960058401614018565b9061208660068501614018565b9261209360078601614018565b946008015495604051998a99610140808c528b016120b091613f10565b9060208b015289810360408b01526120c791613f10565b88810360608a01526120d891613f10565b87810360808901526120e991613f10565b86810360a08801526120fa91613f10565b85810360c087015261210b91613f10565b84810360e086015261211c91613f10565b91811661010084015260a01c60ff1615156101208301520390f35b346102a85760203660031901126102a8576004356008548110156102a85760086000527ff3f7a9fe364faab93b216da50a3214154f22a0a2b415b23a84c8169e8b636ee301546040516001600160a01b039091168152602090f35b346102a85760003660031901126102a8576020600254604051908152f35b346102a85760203660031901126102a8576004356002548110156121d957611fcf602091613e57565b60405162461bcd60e51b815260206004820152601c60248201527f496e64656b732061646d696e20525320746964616b2076616c69642e000000006044820152606490fd5b346102a85760403660031901126102a857612237613df4565b6001600160401b036024358181116102a857612257903690600401613ee3565b909160018060a01b0380946122718260005416331461423e565b16938460005260019360209285845261228e604060002054613f50565b6123f95760405161229e81613fc1565b6122a93687856142a7565b8152848101878152886000528786526040600020915190815193841161080d5788916122d9856106248654613f50565b8790601f86116001146123905761231e959160009183612385575b5050600019600383901b1c191690831b1783555b51151591019060ff801983541691151516179055565b60025491600160401b83101561080d57612361837fc881e1c26fa1da107683b7f0c3f1689379721f2118918ff97cb8c0f0dfc9d3549761077b9501600255613e57565b819291549060031b9189831b921b19161790556040519383859485528401916143ad565b015190508c806122f4565b90601f1986169185600052896000209260005b8b8282106123e3575050918593918861231e9994106123ca575b505050811b018355612308565b015160001960f88460031b161c191690558c80806123bd565b8385015186558e979095019493840193016123a3565b60405162461bcd60e51b815260048101859052602b60248201527f41646d696e205253207375646168207465726461667461722064656e67616e2060448201526a30b630b6b0ba1034b7349760a91b6064820152608490fd5b346102a85760203660031901126102a8576001600160a01b03612473613df4565b166000526004602052602060ff604060002054166040519015158152f35b346102a85760003660031901126102a8576040518060085480825282602080930160086000527ff3f7a9fe364faab93b216da50a3214154f22a0a2b415b23a84c8169e8b636ee39260005b85828210612507575050506124f392500383613ff7565b611274604051928284938452830190613ea6565b85546001600160a01b03168452600195860195889550930192016124dc565b346102a85760203660031901126102a8576004356000818152600960205260409020600101546001600160a01b039190612563908316151561493f565b60005260096020526040600020906112748254916001840154169260ff6005820154169061259360028201614018565b906125ac60046125a560038401614018565b9201614018565b91604051968796876140be565b346102a85760203660031901126102a8576004356005548110156102a857611fcf602091613e0a565b346102a8576020806003193601126102a8576001600160a01b039081612606613df4565b16806000526004825260ff604060002054161561270d576000526003815260406000209060ff600383015416926004830190806005850154169261264985614018565b94600193612664600261265d878501614018565b9301614018565b93604051958685845491828152019360005285600020926000905b8282106126f6575050505050926126c985936126d7936126a86126ec986126bc9c980387613ff7565b6040519a8b9a60c08c5260c08c0190613f10565b918a8303908b0152613f10565b908782036040890152613f10565b91151560608601528482036080860152613ea6565b9060a08301520390f35b84548116865294870194938301939083019061267f565b60405162461bcd60e51b815260048101839052601760248201527f446f6b74657220746964616b20646974656d756b616e2e0000000000000000006044820152606490fd5b346102a85760203660031901126102a8576001600160a01b03612773613df4565b1660005260016020526127a9604060002060ff600161279183614018565b92015416604051928392604084526040840190613f10565b90151560208301520390f35b346102a85760803660031901126102a8576024356001600160401b0381116102a8576127e5903690600401613ee3565b906044356001600160401b0381116102a857612805903690600401613ee3565b92906064356001600160401b0381116102a857612826903690600401613ee3565b919094600435600052600960205260018060a01b036001604060002001541633600052600460205260ff6040600020541680612ef3575b15612eb85780600052600660205261288260ff60086040600020015460a01c1661457c565b33600052600360205260018060a01b036005604060002001541681600052600660205260018060a01b036008604060002001541603612e4d576000903360005260036020526004604060002001906000918054925b838110612e0d575b5050505015612da257600435600052600960205260406000209160018060a01b036001840154168015612d445760ff60058501541615612ce657600435600052600c60205260406000208454916040519261293984613fa6565b8352602083015261294c60028601614018565b604083015261295d60038601614018565b606083015261296e60048601614018565b6080830152600160a08301528054600160401b81101561080d5761299791600182018155614222565b919091612cd0576129a7916145ed565b6001600160401b03851161080d576129cf856129c66002860154613f50565b60028601614304565b846000601f8211600114612c6257600091612c57575b508560011b906000198760031b1c19161760028401555b6001600160401b03821161080d578190612a2682612a1d6003870154613f50565b60038701614304565b600090601f8311600114612be657600092612bdb575b50508160011b916000199060031b1c19161760038201555b6001600160401b03821161080d57612a7c82612a736004840154613f50565b60048401614304565b6000601f8311600114612b4857917fa06c67f47503323e059cd610f8be787c36f230a67a8ad4dc026d86692b66476b9591600482612b2c95600091612b3d575b508360011b906000198560031b1c1916179101555b600435600052600d602052612aff604060002060405190612af182613fc1565b338252426020830152614888565b612b1e604051958695600435875260a0602088015260a08701916143ad565b9184830360408601526143ad565b3360608301524260808301520390a1005b905084013589612abc565b601f198316906004830160005260206000209160005b818110612bc35750917fa06c67f47503323e059cd610f8be787c36f230a67a8ad4dc026d86692b66476b97939185612b2c969410612ba9575b50506004600183811b01910155612ad1565b840135600019600385901b60f8161c191690558780612b97565b9192602060018192868c013581550194019201612b5e565b013590508780612a3c565b909250600384016000526020600020906000935b601f1984168510612c3f576001945083601f19811610612c25575b505050811b016003820155612a54565b0135600019600384901b60f8161c19169055878080612c15565b81810135835560209485019460019093019201612bfa565b9050860135886129e5565b90506002840160005260206000209060005b601f1988168110612cb8575086601f19811610612c9e575b5050600185811b0160028401556129fc565b870135600019600388901b60f8161c191690558780612c8c565b9091602060018192858c013581550193019101612c74565b634e487b7160e01b600052600060045260246000fd5b60405162461bcd60e51b815260206004820152603060248201527f52656b616d206d6564697320696e6920737564616820746964616b2076616c6960448201526f3217b234b737b730b5ba34b335b0b71760811b6064820152608490fd5b60405162461bcd60e51b815260206004820152603060248201527f52656b616d206d6564697320746964616b20646974656d756b616e206174617560448201526f1024a2103a34b230b5903b30b634b21760811b6064820152608490fd5b60405162461bcd60e51b815260206004820152603c60248201527f446f6b74657220696e6920746964616b20646974756761736b616e20756e747560448201527f6b206d656e616e67616e692070617369656e2074657273656275742e000000006064820152608490fd5b82612e188284613e8e565b905460039190911b1c6001600160a01b031614612e3d57612e38906145c8565b6128d7565b50505050506001878080806128df565b60405162461bcd60e51b815260206004820152603860248201527f446f6b7465722064616e2070617369656e20746964616b20626572616461206460448201527f692072756d61682073616b69742079616e672073616d612e00000000000000006064820152608490fd5b60405162461bcd60e51b81526020600482015260136024820152722430b73cb0903237b5ba32b91030b5ba34b31760691b6044820152606490fd5b50600360205260ff6003604060002001541661285d565b346102a85760003660031901126102a8576020600b54604051908152f35b346102a85760003660031901126102a8576000546040516001600160a01b039091168152602090f35b346102a85760203660031901126102a857611274612f75612f70613df4565b61499f565b604051918291602083526020830190613f10565b346102a8576101203660031901126102a8576004356001600160401b0381116102a857612fba903690600401613ee3565b906044356001600160401b0381116102a857612fda903690600401613ee3565b906064356001600160401b0381116102a857612ffa903690600401613ee3565b906084356001600160401b0381116102a85761301a903690600401613ee3565b9060a4356001600160401b0381116102a85761303a903690600401613ee3565b909160c4356001600160401b0381116102a85761305b903690600401613ee3565b94909560e4356001600160401b0381116102a85761307d903690600401613ee3565b9099909890610104356001600160a01b03811690036102a85733600052600760205260ff604060002054166138625733600052600460205260ff604060002054166138115760018060a01b036101043516600052600160205260ff60016040600020015416156137ad578d9b336000526007602052604060002060ff1981541660011790558d6040519d6131108f613f8a565b369061311b926142a7565b8d528c60243590602001523690613131926142a7565b60408c01523690613141926142a7565b60608a01523690613151926142a7565b60808801523690613161926142a7565b60a08601523690613171926142a7565b60c08401523690613181926142a7565b60e0820152610104356001600160a01b0316610100820152600161012082015233600090815260066020526040902081518051906001600160401b03821161080d5781906131d3826106248654613f50565b602090601f831160011461374157600092613736575b50508160011b916000199060031b1c19161781555b60208201516001820155604082015180516001600160401b03811161080d57806002840192613231826106248654613f50565b602090601f83116001146136d0576000926136c5575b50508160011b916000199060031b1c19161790555b606082015180516001600160401b03811161080d57806003840192613285826106248654613f50565b602090601f831160011461365f57600092613654575b50508160011b916000199060031b1c19161790555b608082015180516001600160401b03811161080d578060048401926132d9826106248654613f50565b602090601f83116001146135ee576000926135e3575b50508160011b916000199060031b1c19161790555b60a082015180516001600160401b03811161080d5780600584019261332d826106248654613f50565b602090601f831160011461357d57600092613572575b50508160011b916000199060031b1c19161790555b60c082015180516001600160401b03811161080d57806006840192613381826106248654613f50565b602090601f831160011461350c57600092613501575b50508160011b916000199060031b1c19161790555b6007810160e08301518051906001600160401b03821161080d576133da826133d48554613f50565b85614304565b602090601f8311600114613481579282600893600080516020614a9183398151915298969361077b9896600092613476575b50508160011b916000199060031b1c19161790555b019060018060a01b036101008201511682549161012060ff60a01b910151151560a01b16916affffffffffffffffffffff60a81b161717905561346333614349565b6040519182913395610104359184614457565b015190508a8061340c565b90601f198316918460005260206000209260005b8181106134e9575093600080516020614a9183398151915298969361077b98969360019383600898106134d0575b505050811b019055613421565b015160001960f88460031b161c191690558a80806134c3565b92936020600181928786015181550195019301613495565b015190508780613397565b6000858152602081209350601f198516905b81811061355a5750908460019594939210613541575b505050811b0190556133ac565b015160001960f88460031b161c19169055878080613534565b9293602060018192878601518155019501930161351e565b015190508780613343565b6000858152602081209350601f198516905b8181106135cb57509084600195949392106135b2575b505050811b019055613358565b015160001960f88460031b161c191690558780806135a5565b9293602060018192878601518155019501930161358f565b0151905087806132ef565b6000858152602081209350601f198516905b81811061363c5750908460019594939210613623575b505050811b019055613304565b015160001960f88460031b161c19169055878080613616565b92936020600181928786015181550195019301613600565b01519050878061329b565b6000858152602081209350601f198516905b8181106136ad5750908460019594939210613694575b505050811b0190556132b0565b015160001960f88460031b161c19169055878080613687565b92936020600181928786015181550195019301613671565b015190508780613247565b6000858152602081209350601f198516905b81811061371e5750908460019594939210613705575b505050811b01905561325c565b015160001960f88460031b161c191690558780806136f8565b929360206001819287860151815501950193016136e2565b0151905086806131e9565b9250836000526020600020906000935b601f1984168510613792576001945083601f19811610613779575b505050811b0181556131fe565b015160001960f88460031b161c1916905586808061376c565b81810151835560209485019460019093019290910190613751565b60405162461bcd60e51b815260206004820152603660248201527f52756d61682053616b69742079616e6720646970696c696820746964616b206160448201527535ba34b31030ba30ba903a34b230b5903b30b634b21760511b6064820152608490fd5b60405162461bcd60e51b8152602060048201526024808201527f416c616d617420696e6920746572646166746172207365626167616920646f6b6044820152633a32b91760e11b6064820152608490fd5b60405162461bcd60e51b8152602060048201526024808201527f416e64612073756461682074657264616674617220736562616761692070617360448201526334b2b71760e11b6064820152608490fd5b346102a85760403660031901126102a8576138cc613df4565b6001600160a01b0390602480358381169291908390036102a85733600052836020926001845261390660ff600160406000200154166143ce565b1693846000526004835261392160ff60406000205416614480565b84600052600391828452613940338360056040600020015416146144cc565b846000526007845261395960ff6040600020541661457c565b846000526006845233826008604060002001541603613a86578560005282845260046040600020016000918154925b838110613a045750600160401b8310156139f0577fd9a2627959a7f46a8b96c10424cdae1f1b65151551cd206b119aca54c0a86a5a604089898989896139d48a8a600182018155613e8e565b81939154911b9185831b921b19161790558351928352820152a1005b634e487b7160e01b60009081526041600452fd5b8785613a108386613e8e565b905490891b1c1614613a2a57613a25906145c8565b613988565b60405162461bcd60e51b815260048101889052602f818401527f50617369656e20696e6920737564616820646974756761736b616e206b65206460448201526e37b5ba32b9103a32b939b2b13aba1760891b6064820152608490fd5b83602f6084926040519262461bcd60e51b845260048401528201527f50617369656e20696e6920746964616b2074657264616674617220646920727560448201526e36b0b41039b0b5b4ba1020b732309760891b6064820152fd5b346102a85760003660031901126102a8576040518060025480825282602080930160026000527f405787fa12a823e0f2b7631cc41b3ba8828b3321ca811111fa75cd3aa3bb5ace9260005b85828210613b43575050506124f392500383613ff7565b85546001600160a01b0316845260019586019588955093019201613b2c565b346102a85760203660031901126102a857613b7b613df4565b600054906001600160a01b0390613b95338385161461423e565b16908115613bad576001600160a01b03191617600055005b60405162461bcd60e51b8152602060048201526024808201527f416c616d61742073757065722061646d696e206261727520746964616b2076616044820152633634b21760e11b6064820152608490fd5b346102a85760203660031901126102a8576001600160a01b03613c1f613df4565b166000526007602052602060ff604060002054166040519015158152f35b346102a8576020806003193601126102a857600435903360005260018152613c6f60ff600160406000200154166143ce565b60008281526009825260409020600101546001600160a01b0390613c96908216151561493f565b826000526009825280600160406000200154166000526006825233906008604060002001541603613cdb5760009182526009905260409020600501805460ff19169055005b6084906040519062461bcd60e51b82526004820152602660248201527f41646d696e20525320746964616b2062657268616b2061746173207061736965604482015265371034b7349760d11b6064820152fd5b346102a85760203660031901126102a857600435600554811015613d5757611fcf602091613e0a565b60405162461bcd60e51b815260206004820152601a60248201527f496e64656b7320646f6b74657220746964616b2076616c69642e0000000000006044820152606490fd5b346102a85760403660031901126102a857613db5613df4565b6001600160a01b03166000908152600a60205260409020805460243591908210156102a857602091613de691613e8e565b90546040519160031b1c8152f35b600435906001600160a01b03821682036102a857565b600554811015613e415760056000527f036b6384b5eca791c62761152d0c79bb0604c104a5fb6f4eb0703f3154bb3db00190600090565b634e487b7160e01b600052603260045260246000fd5b600254811015613e415760026000527f405787fa12a823e0f2b7631cc41b3ba8828b3321ca811111fa75cd3aa3bb5ace0190600090565b8054821015613e415760005260206000200190600090565b90815180825260208080930193019160005b828110613ec6575050505090565b83516001600160a01b031685529381019392810192600101613eb8565b9181601f840112156102a8578235916001600160401b0383116102a857602083818601950101116102a857565b919082519283825260005b848110613f3c575050826000602080949584010152601f8019910116010190565b602081830181015184830182015201613f1b565b90600182811c92168015613f80575b6020831014613f6a57565b634e487b7160e01b600052602260045260246000fd5b91607f1691613f5f565b61014081019081106001600160401b0382111761080d57604052565b60c081019081106001600160401b0382111761080d57604052565b604081019081106001600160401b0382111761080d57604052565b602081019081106001600160401b0382111761080d57604052565b90601f801991011681019081106001600160401b0382111761080d57604052565b906040519182600082549261402c84613f50565b90818452600194858116908160001461409b5750600114614058575b505061405692500383613ff7565b565b9093915060005260209081600020936000915b81831061408357505061405693508201013880614048565b8554888401850152948501948794509183019161406b565b91505061405694506020925060ff191682840152151560051b8201013880614048565b9491936140f161410d9460a0966140ff949a999a8952600180891b0316602089015260c0604089015260c0880190613f10565b908682036060880152613f10565b908482036080860152613f10565b931515910152565b90815180825260208080930193019160005b828110614135575050505090565b835185529381019392810192600101614127565b60409060031901126102a8576004356001600160a01b03811681036102a8579060243580151581036102a85790565b60409060031901126102a8576004359060243590565b8054821015613e415760005260206000209060011b0190600090565b60806003198201126102a8576004356001600160a01b03811681036102a857916001600160401b036024358181116102a857836141e991600401613ee3565b939093926044358381116102a8578261420491600401613ee3565b939093926064359182116102a85761421e91600401613ee3565b9091565b8054821015613e41576000526006602060002091020190600090565b1561424557565b60405162461bcd60e51b815260206004820152603460248201527f48616e79612073757065722061646d696e2079616e67206461706174206d656e6044820152733530b630b735b0b710333ab733b9b49034b7349760611b6064820152608490fd5b9291926001600160401b03821161080d57604051916142d0601f8201601f191660200184613ff7565b8294818452818301116102a8578281602093846000960137010152565b8181106142f8575050565b600081556001016142ed565b9190601f811161431357505050565b614056926000526020600020906020601f840160051c8301931061433f575b601f0160051c01906142ed565b9091508190614332565b600854600160401b81101561080d576001810180600855811015613e415760086000527ff3f7a9fe364faab93b216da50a3214154f22a0a2b415b23a84c8169e8b636ee30180546001600160a01b0319166001600160a01b03909216919091179055565b908060209392818452848401376000828201840152601f01601f1916010190565b156143d557565b60405162461bcd60e51b815260206004820152603c60248201527f48616e79612061646d696e2052532079616e6720616b7469662079616e67206460448201527f61706174206d656e6a616c616e6b616e2066756e67736920696e692e000000006064820152608490fd5b6001600160401b03811161080d5760051b60200190565b91602091614470919594956040855260408501916143ad565b6001600160a01b03909416910152565b1561448757565b60405162461bcd60e51b815260206004820152601760248201527f446f6b74657220746964616b207465726461667461722e0000000000000000006044820152606490fd5b156144d357565b60405162461bcd60e51b815260206004820152602f60248201527f446f6b74657220696e6920746964616b2074657264616674617220646920727560448201526e36b0b41039b0b5b4ba1020b732309760891b6064820152608490fd5b1561453757565b60405162461bcd60e51b815260206004820152601760248201527f50617369656e20746964616b20646974656d756b616e2e0000000000000000006044820152606490fd5b1561458357565b60405162461bcd60e51b815260206004820152601760248201527f50617369656e20746964616b207465726461667461722e0000000000000000006044820152606490fd5b60001981146145d75760010190565b634e487b7160e01b600052601160045260246000fd5b815181556001918282019260209360018060a01b0385840151166bffffffffffffffffffffffff60a01b8254161790556002830160408301519081516001600160401b039283821161080d578190614649826106248654613f50565b8890601f83116001146148255760009261481a575b5050600019600383901b1c191690841b1790555b60038401606084015180519083821161080d578190614695826106248654613f50565b8890601f83116001146147b7576000926147ac575b5050600019600383901b1c191690841b1790555b6004840191608084015195865192831161080d576146e0836106248654613f50565b80601f8411600114614738575091808060a09593600597956140569a60009461472d575b50501b916000199060031b1c19161790555b0151151591019060ff801983541691151516179055565b015192503880614704565b9193949596601f1984168660005283600020936000905b8282106147955750509260a0959285926140569a9996600599961061477c575b505050811b019055614716565b015160001960f88460031b161c1916905538808061476f565b80888697829497870151815501960194019061474f565b0151905038806146aa565b90869350601f19831691856000528a6000209260005b8c82821061480457505084116147eb575b505050811b0190556146be565b015160001960f88460031b161c191690553880806147de565b8385015186558a979095019493840193016147cd565b01519050388061465e565b90869350601f19831691856000528a6000209260005b8c8282106148725750508411614859575b505050811b019055614672565b015160001960f88460031b161c1916905538808061484c565b8385015186558a9790950194938401930161483b565b8054600160401b81101561080d576148a59160018201815561418e565b919091612cd057805182546001600160a01b0319166001600160a01b03919091161782556020015160019190910155565b9060018060a01b038092166000526003918260205260046040600020016000938154945b85811061490c57505050505050600090565b836149178285613e8e565b905490841b1c16848616146149345761492f906145c8565b6148fa565b505050505050600190565b1561494657565b60405162461bcd60e51b815260206004820152601c60248201527f52656b616d206d6564697320746964616b20646974656d756b616e2e000000006044820152606490fd5b8051821015613e415760209160051b010190565b6000805490916001600160a01b0390811691168114614a68578082526020916001835260409160ff6001848420015416614a4f578082526004845260ff8383205416614a37578152600783528190205460ff16614a1757662ab735b737bbb760c91b905191614a0d83613fc1565b6007835282015290565b652830b9b4b2b760d11b905191614a2d83613fc1565b6006835282015290565b5050652237b5ba32b960d11b905191614a2d83613fc1565b50506641646d696e525360c81b905191614a0d83613fc1565b5050604051614a7681613fc1565b600a81526929bab832b920b236b4b760b11b60208201529056febc415dfc2764939233ab67a4f55915cc2bb9d94ecafbfb254036de3cd0dbb3a8a2646970667358221220dfc6ca8bf1bb16caae8828464e4da8a9684130e26126d4e27d7211a54f81f1fe64736f6c63430008130033",
  "immutableReferences": {},
  "source": "// SPDX-License-Identifier: MIT\r\npragma solidity ^0.8.0;\r\n\r\ncontract RekamMedisRS {\r\n    address public superAdmin;\r\n\r\n    struct AdminRS {\r\n        string namaRumahSakit;\r\n        bool aktif;\r\n    }\r\n    mapping(address => AdminRS) public dataAdmin;\r\n    address[] public daftarAdmin;\r\n\r\n    struct Dokter {\r\n        string nama;\r\n        string spesialisasi;\r\n        string nomorLisensi;\r\n        bool aktif;\r\n        address[] assignedPasien;\r\n        address adminRS; // Rumah sakit tempat dokter bertugas\r\n    }\r\n    mapping(address => Dokter) public dataDokter;\r\n    mapping(address => bool) public isDokter;\r\n    address[] public daftarDokter; // Ditambahkan untuk melacak semua dokter\r\n\r\n    struct Pasien {\r\n        string nama;\r\n        uint umur;\r\n        string golonganDarah;\r\n        string tanggalLahir;\r\n        string gender;\r\n        string alamat;\r\n        string noTelepon;\r\n        string email;\r\n        address rumahSakitPenanggungJawab;\r\n        bool exists;\r\n    }\r\n    mapping(address => Pasien) public dataPasien;\r\n    mapping(address => bool) public isPasien;\r\n    address[] public daftarPasien; // Ditambahkan untuk melacak semua pasien\r\n\r\n    struct UpdateInfo {\r\n        address dokter; // alamat aktor yang melakukan update/pembuatan (bisa dokter atau pasien)\r\n        uint256 timestamp; // waktu update (block.timestamp)\r\n    }\r\n\r\n    struct RekamMedisData {\r\n        uint id;\r\n        address pasien;\r\n        string diagnosa;\r\n        string foto;\r\n        string catatan;\r\n        bool valid;\r\n    }\r\n    mapping(uint => RekamMedisData) public rekamMedis;\r\n    mapping(address => uint[]) public rekamMedisByPasien;\r\n    uint public rekamMedisCount;\r\n\r\n    // History versi rekam medis\r\n    mapping(uint => RekamMedisData[]) public rekamMedisVersions;\r\n    mapping(uint => UpdateInfo[]) public rekamMedisUpdateHistory;\r\n\r\n    // Events\r\n    event AdminRSTerdaftar(address indexed admin, string namaRumahSakit);\r\n    event AdminRSStatusDiubah(address indexed admin, bool aktif);\r\n    event DokterTerdaftar(address indexed dokter, string nama, address adminRS);\r\n    event DokterStatusDiubah(address indexed dokter, bool aktif);\r\n    event DokterInfoDiperbarui(\r\n        // Event untuk update info dokter\r\n        address indexed dokter,\r\n        string nama,\r\n        string spesialisasi,\r\n        string nomorLisensi,\r\n        address indexed adminRS\r\n    );\r\n    event PasienTerdaftar(address indexed pasien, string nama, address adminRS);\r\n    event PasienPindahRS(address indexed pasien, address adminRS); // Belum ada fungsinya\r\n    event PasienDiassignKeDokter(address dokter, address pasien);\r\n    event RekamMedisDitambahkan(\r\n        uint id,\r\n        address pasien,\r\n        string diagnosa,\r\n        bool valid\r\n    );\r\n    event RekamMedisDiperbarui(\r\n        uint id,\r\n        string diagnosa,\r\n        string catatan,\r\n        address dokter, // Aktor yang memperbarui\r\n        uint timestamp\r\n    );\r\n\r\n    constructor() {\r\n        // Alamat superAdmin bisa di-set saat deployment atau diubah nanti\r\n        // Untuk pengembangan, msg.sender saat deployment akan jadi superAdmin awal\r\n        // superAdmin = msg.sender;\r\n        superAdmin = 0xB0dC0Bf642d339517438017Fc185Bb0f758A01D2; // Sesuai kode Anda\r\n    }\r\n\r\n    // Modifier\r\n    modifier hanyaSuperAdmin() {\r\n        require(\r\n            msg.sender == superAdmin,\r\n            \"Hanya super admin yang dapat menjalankan fungsi ini.\"\r\n        );\r\n        _;\r\n    }\r\n\r\n    modifier hanyaAdminRS() {\r\n        require(\r\n            dataAdmin[msg.sender].aktif,\r\n            \"Hanya admin RS yang aktif yang dapat menjalankan fungsi ini.\"\r\n        );\r\n        _;\r\n    }\r\n\r\n    modifier hanyaDokterAktif() {\r\n        require(\r\n            isDokter[msg.sender] && dataDokter[msg.sender].aktif,\r\n            \"Hanya dokter yang aktif yang dapat menjalankan fungsi ini.\"\r\n        );\r\n        _;\r\n    }\r\n\r\n    modifier hanyaDokterAktifUntukPasien(address _pasien) {\r\n        require(\r\n            isDokter[msg.sender] && dataDokter[msg.sender].aktif,\r\n            \"Hanya dokter aktif.\"\r\n        );\r\n        require(dataPasien[_pasien].exists, \"Pasien tidak terdaftar.\"); // Pastikan pasien ada\r\n        require(\r\n            dataDokter[msg.sender].adminRS ==\r\n                dataPasien[_pasien].rumahSakitPenanggungJawab,\r\n            \"Dokter dan pasien tidak berada di rumah sakit yang sama.\"\r\n        );\r\n        bool assigned = false;\r\n        address[] storage listPasienDitugaskan = dataDokter[msg.sender]\r\n            .assignedPasien;\r\n        for (uint i = 0; i < listPasienDitugaskan.length; i++) {\r\n            if (listPasienDitugaskan[i] == _pasien) {\r\n                assigned = true;\r\n                break;\r\n            }\r\n        }\r\n        require(\r\n            assigned,\r\n            \"Dokter ini tidak ditugaskan untuk menangani pasien tersebut.\"\r\n        );\r\n        _;\r\n    }\r\n\r\n    modifier hanyaPasien(address _pasien) {\r\n        // Modifier untuk pasien tertentu\r\n        require(\r\n            msg.sender == _pasien,\r\n            \"Hanya pasien yang bersangkutan yang dapat menjalankan fungsi ini.\"\r\n        );\r\n        _;\r\n    }\r\n\r\n    function registerAdminRS(\r\n        address _admin,\r\n        string calldata _namaRS\r\n    ) external hanyaSuperAdmin {\r\n        require(\r\n            bytes(dataAdmin[_admin].namaRumahSakit).length == 0,\r\n            \"Admin RS sudah terdaftar dengan alamat ini.\"\r\n        );\r\n        dataAdmin[_admin] = AdminRS({namaRumahSakit: _namaRS, aktif: true});\r\n        daftarAdmin.push(_admin);\r\n        emit AdminRSTerdaftar(_admin, _namaRS);\r\n    }\r\n\r\n    function getAllAdminRSAddresses() external view returns (address[] memory) {\r\n        return daftarAdmin;\r\n    }\r\n\r\n    function setStatusAdminRS(\r\n        address _admin,\r\n        bool _aktif\r\n    ) external hanyaSuperAdmin {\r\n        require(\r\n            bytes(dataAdmin[_admin].namaRumahSakit).length != 0,\r\n            \"Admin RS tidak ditemukan.\"\r\n        );\r\n        dataAdmin[_admin].aktif = _aktif;\r\n        emit AdminRSStatusDiubah(_admin, _aktif);\r\n    }\r\n\r\n    function totalAdmin() external view returns (uint) {\r\n        return daftarAdmin.length;\r\n    }\r\n\r\n    function getAdminByIndex(uint idx) external view returns (address) {\r\n        require(idx < daftarAdmin.length, \"Indeks admin RS tidak valid.\");\r\n        return daftarAdmin[idx];\r\n    }\r\n\r\n    function registerDokter(\r\n        address _dokter,\r\n        string calldata _nama,\r\n        string calldata _spesialisasi,\r\n        string calldata _nomorLisensi\r\n    ) external hanyaAdminRS {\r\n        require(\r\n            !isDokter[_dokter],\r\n            \"Alamat ini sudah terdaftar sebagai dokter.\"\r\n        );\r\n        require(\r\n            !isPasien[_dokter],\r\n            \"Alamat ini terdaftar sebagai pasien, tidak bisa menjadi dokter.\"\r\n        );\r\n        isDokter[_dokter] = true;\r\n        dataDokter[_dokter] = Dokter({\r\n            nama: _nama,\r\n            spesialisasi: _spesialisasi,\r\n            nomorLisensi: _nomorLisensi,\r\n            aktif: true,\r\n            assignedPasien: new address[](0),\r\n            adminRS: msg.sender\r\n        });\r\n        daftarDokter.push(_dokter);\r\n        emit DokterTerdaftar(_dokter, _nama, msg.sender);\r\n    }\r\n\r\n    function updateDokterInfo(\r\n        address _dokter,\r\n        string calldata _namaBaru,\r\n        string calldata _spesialisasiBaru,\r\n        string calldata _nomorLisensiBaru\r\n    ) external hanyaAdminRS {\r\n        require(isDokter[_dokter], \"Dokter tidak terdaftar di sistem.\");\r\n        require(\r\n            dataDokter[_dokter].adminRS == msg.sender,\r\n            \"Anda bukan admin RS yang berhak untuk dokter ini.\"\r\n        );\r\n\r\n        Dokter storage dokterToUpdate = dataDokter[_dokter];\r\n        dokterToUpdate.nama = _namaBaru;\r\n        dokterToUpdate.spesialisasi = _spesialisasiBaru;\r\n        dokterToUpdate.nomorLisensi = _nomorLisensiBaru;\r\n\r\n        emit DokterInfoDiperbarui(\r\n            _dokter,\r\n            _namaBaru,\r\n            _spesialisasiBaru,\r\n            _nomorLisensiBaru,\r\n            msg.sender\r\n        );\r\n    }\r\n\r\n    function setStatusDokter(\r\n        address _dokter,\r\n        bool _aktif\r\n    ) external hanyaAdminRS {\r\n        require(isDokter[_dokter], \"Dokter tidak terdaftar.\");\r\n        require(\r\n            dataDokter[_dokter].adminRS == msg.sender,\r\n            \"Dokter ini tidak terdaftar di rumah sakit Anda.\"\r\n        );\r\n        dataDokter[_dokter].aktif = _aktif;\r\n        emit DokterStatusDiubah(_dokter, _aktif);\r\n    }\r\n\r\n    function totalDokter() external view returns (uint) {\r\n        return daftarDokter.length;\r\n    }\r\n\r\n    function getDokterByIndex(uint idx) external view returns (address) {\r\n        require(idx < daftarDokter.length, \"Indeks dokter tidak valid.\");\r\n        return daftarDokter[idx];\r\n    }\r\n\r\n    function getDokter(\r\n        address _dokter\r\n    )\r\n        external\r\n        view\r\n        returns (\r\n            string memory nama,\r\n            string memory spesialisasi,\r\n            string memory nomorLisensi,\r\n            bool aktif,\r\n            address[] memory pasienList,\r\n            address adminRS\r\n        )\r\n    {\r\n        require(isDokter[_dokter], \"Dokter tidak ditemukan.\");\r\n        Dokter storage d = dataDokter[_dokter];\r\n        return (\r\n            d.nama,\r\n            d.spesialisasi,\r\n            d.nomorLisensi,\r\n            d.aktif,\r\n            d.assignedPasien,\r\n            d.adminRS\r\n        );\r\n    }\r\n\r\n    function registerPasien(\r\n        address _pasien,\r\n        string calldata _nama,\r\n        address _adminRS // Alamat Admin RS yang mendaftarkan\r\n    ) external hanyaAdminRS {\r\n        // Hanya admin RS yang aktif yang bisa mendaftarkan\r\n        require(\r\n            !isPasien[_pasien],\r\n            \"Pasien sudah terdaftar dengan alamat ini.\"\r\n        );\r\n        require(\r\n            !isDokter[_pasien],\r\n            \"Alamat ini terdaftar sebagai dokter, tidak bisa menjadi pasien.\"\r\n        );\r\n        require(\r\n            dataAdmin[_adminRS].aktif,\r\n            \"Admin RS yang dirujuk tidak aktif.\"\r\n        ); // Pastikan admin RS penanggung jawab aktif\r\n        require(\r\n            msg.sender == _adminRS,\r\n            \"Hanya admin RS penanggung jawab yang bisa mendaftarkan pasien ini.\"\r\n        );\r\n\r\n        isPasien[_pasien] = true;\r\n        dataPasien[_pasien] = Pasien({\r\n            nama: _nama,\r\n            umur: 0, // Bisa diisi nanti oleh pasien/admin\r\n            golonganDarah: \"\",\r\n            tanggalLahir: \"\",\r\n            gender: \"\",\r\n            alamat: \"\",\r\n            noTelepon: \"\",\r\n            email: \"\",\r\n            rumahSakitPenanggungJawab: _adminRS,\r\n            exists: true\r\n        });\r\n        daftarPasien.push(_pasien);\r\n        emit PasienTerdaftar(_pasien, _nama, _adminRS);\r\n    }\r\n\r\n    function selfRegisterPasien(\r\n        string calldata _nama,\r\n        uint _umur,\r\n        string calldata _golonganDarah,\r\n        string calldata _tanggalLahir,\r\n        string calldata _gender,\r\n        string calldata _alamat,\r\n        string calldata _noTelepon,\r\n        string calldata _email,\r\n        address _adminRS // Admin RS yang dipilih pasien sebagai penanggung jawab awal\r\n    ) external {\r\n        require(!isPasien[msg.sender], \"Anda sudah terdaftar sebagai pasien.\");\r\n        require(!isDokter[msg.sender], \"Alamat ini terdaftar sebagai dokter.\");\r\n        require(\r\n            dataAdmin[_adminRS].aktif,\r\n            \"Rumah Sakit yang dipilih tidak aktif atau tidak valid.\"\r\n        );\r\n\r\n        isPasien[msg.sender] = true;\r\n        dataPasien[msg.sender] = Pasien({\r\n            nama: _nama,\r\n            umur: _umur,\r\n            golonganDarah: _golonganDarah,\r\n            tanggalLahir: _tanggalLahir,\r\n            gender: _gender,\r\n            alamat: _alamat,\r\n            noTelepon: _noTelepon,\r\n            email: _email,\r\n            rumahSakitPenanggungJawab: _adminRS,\r\n            exists: true\r\n        });\r\n        daftarPasien.push(msg.sender);\r\n        emit PasienTerdaftar(msg.sender, _nama, _adminRS);\r\n    }\r\n\r\n    function getDaftarPasien() external view returns (address[] memory) {\r\n        return daftarPasien;\r\n    }\r\n\r\n    function getPasienData(\r\n        address _pasien\r\n    )\r\n        external\r\n        view\r\n        returns (\r\n            string memory nama,\r\n            uint umur,\r\n            string memory golonganDarah,\r\n            string memory tanggalLahir,\r\n            string memory gender,\r\n            string memory alamat,\r\n            string memory noTelepon,\r\n            string memory email,\r\n            address rumahSakitPenanggungJawab\r\n        )\r\n    {\r\n        require(isPasien[_pasien], \"Pasien tidak ditemukan.\");\r\n        Pasien storage p = dataPasien[_pasien];\r\n        return (\r\n            p.nama,\r\n            p.umur,\r\n            p.golonganDarah,\r\n            p.tanggalLahir,\r\n            p.gender,\r\n            p.alamat,\r\n            p.noTelepon,\r\n            p.email,\r\n            p.rumahSakitPenanggungJawab\r\n        );\r\n    }\r\n\r\n    function assignPasienToDokter(\r\n        address _dokter,\r\n        address _pasien\r\n    ) external hanyaAdminRS {\r\n        require(isDokter[_dokter], \"Dokter tidak terdaftar.\");\r\n        require(\r\n            dataDokter[_dokter].adminRS == msg.sender,\r\n            \"Dokter ini tidak terdaftar di rumah sakit Anda.\"\r\n        );\r\n        require(isPasien[_pasien], \"Pasien tidak terdaftar.\");\r\n        require(\r\n            dataPasien[_pasien].rumahSakitPenanggungJawab == msg.sender,\r\n            \"Pasien ini tidak terdaftar di rumah sakit Anda.\"\r\n        );\r\n\r\n        address[] storage listPasienDitugaskan = dataDokter[_dokter]\r\n            .assignedPasien;\r\n        for (uint i = 0; i < listPasienDitugaskan.length; i++) {\r\n            require(\r\n                listPasienDitugaskan[i] != _pasien,\r\n                \"Pasien ini sudah ditugaskan ke dokter tersebut.\"\r\n            );\r\n        }\r\n        listPasienDitugaskan.push(_pasien);\r\n        emit PasienDiassignKeDokter(_dokter, _pasien);\r\n    }\r\n\r\n    function isAssigned(\r\n        address _dokter,\r\n        address _pasien\r\n    ) internal view returns (bool) {\r\n        address[] storage list = dataDokter[_dokter].assignedPasien;\r\n        for (uint i = 0; i < list.length; i++) {\r\n            if (list[i] == _pasien) {\r\n                return true;\r\n            }\r\n        }\r\n        return false;\r\n    }\r\n\r\n    // --- MODIFIKASI DI SINI ---\r\n    function tambahRekamMedis(\r\n        address _pasien,\r\n        string calldata _diagnosa,\r\n        string calldata _foto,\r\n        string calldata _catatan\r\n    ) external {\r\n        bool isValidActor = false;\r\n        if (msg.sender == _pasien && isPasien[_pasien]) {\r\n            isValidActor = true;\r\n        } else if (isDokter[msg.sender] && dataDokter[msg.sender].aktif) {\r\n            if (\r\n                dataPasien[_pasien].exists &&\r\n                dataDokter[msg.sender].adminRS ==\r\n                dataPasien[_pasien].rumahSakitPenanggungJawab &&\r\n                isAssigned(msg.sender, _pasien)\r\n            ) {\r\n                isValidActor = true;\r\n            }\r\n        }\r\n        require(\r\n            isValidActor,\r\n            \"Aktor tidak berhak menambah rekam medis untuk pasien ini.\"\r\n        );\r\n        require(dataPasien[_pasien].exists, \"Pasien tidak terdaftar.\"); // Pastikan pasien exist sebelum tambah RM\r\n\r\n        rekamMedisCount++;\r\n        uint newId = rekamMedisCount; // Gunakan variabel agar konsisten\r\n        rekamMedis[newId] = RekamMedisData({\r\n            id: newId,\r\n            pasien: _pasien,\r\n            diagnosa: _diagnosa,\r\n            foto: _foto,\r\n            catatan: _catatan,\r\n            valid: true\r\n        });\r\n        rekamMedisByPasien[_pasien].push(newId);\r\n\r\n        // --- BARIS TAMBAHAN UNTUK MENCATAT RIWAYAT PEMBUATAN AWAL ---\r\n        rekamMedisUpdateHistory[newId].push(\r\n            UpdateInfo({\r\n                dokter: msg.sender, // Menyimpan alamat msg.sender (pembuat)\r\n                timestamp: block.timestamp\r\n            })\r\n        );\r\n        // -----------------------------------------------------------\r\n\r\n        emit RekamMedisDitambahkan(newId, _pasien, _diagnosa, true);\r\n    }\r\n\r\n    function updateRekamMedis(\r\n        uint _id,\r\n        string calldata _diagnosa,\r\n        string calldata _foto,\r\n        string calldata _catatan\r\n    ) external hanyaDokterAktifUntukPasien(rekamMedis[_id].pasien) {\r\n        RekamMedisData storage r = rekamMedis[_id];\r\n        require(\r\n            r.pasien != address(0),\r\n            \"Rekam medis tidak ditemukan atau ID tidak valid.\"\r\n        ); // Pastikan RM ada\r\n        require(r.valid, \"Rekam medis ini sudah tidak valid/dinonaktifkan.\");\r\n\r\n        // Simpan versi lama sebelum update\r\n        rekamMedisVersions[_id].push(\r\n            RekamMedisData({\r\n                id: r.id,\r\n                pasien: r.pasien,\r\n                diagnosa: r.diagnosa,\r\n                foto: r.foto,\r\n                catatan: r.catatan,\r\n                valid: r.valid // Simpan status validitas sebelumnya juga\r\n            })\r\n        );\r\n\r\n        // Update data rekam medis utama\r\n        r.diagnosa = _diagnosa;\r\n        r.foto = _foto;\r\n        r.catatan = _catatan;\r\n        // r.valid tetap true karena ini adalah update aktif, kecuali ada logika lain\r\n\r\n        // Simpan info update (siapa dan kapan)\r\n        rekamMedisUpdateHistory[_id].push(\r\n            UpdateInfo({dokter: msg.sender, timestamp: block.timestamp})\r\n        );\r\n\r\n        emit RekamMedisDiperbarui(\r\n            _id,\r\n            _diagnosa,\r\n            _catatan,\r\n            msg.sender,\r\n            block.timestamp\r\n        );\r\n    }\r\n\r\n    function getRekamMedisIdsByPasien(\r\n        address _pasien\r\n    ) external view returns (uint[] memory) {\r\n        require(isPasien[_pasien], \"Pasien tidak ditemukan.\");\r\n        return rekamMedisByPasien[_pasien];\r\n    }\r\n\r\n    function getRekamMedis(\r\n        uint _id\r\n    )\r\n        external\r\n        view\r\n        returns (\r\n            uint id,\r\n            address pasien,\r\n            string memory diagnosa,\r\n            string memory foto,\r\n            string memory catatan,\r\n            bool valid\r\n        )\r\n    {\r\n        require(\r\n            rekamMedis[_id].pasien != address(0),\r\n            \"Rekam medis tidak ditemukan.\"\r\n        );\r\n        RekamMedisData storage r = rekamMedis[_id];\r\n        return (r.id, r.pasien, r.diagnosa, r.foto, r.catatan, r.valid);\r\n    }\r\n\r\n    function getRekamMedisVersions(\r\n        uint _id\r\n    ) external view returns (RekamMedisData[] memory) {\r\n        // Tidak perlu require di sini karena jika _id tidak ada, akan return array kosong\r\n        return rekamMedisVersions[_id];\r\n    }\r\n\r\n    function getRekamMedisUpdateHistory(\r\n        uint _id\r\n    )\r\n        external\r\n        view\r\n        returns (address[] memory actors, uint256[] memory timestamps)\r\n    {\r\n        // Tidak perlu require di sini, akan return array kosong jika tidak ada histori\r\n        uint len = rekamMedisUpdateHistory[_id].length;\r\n        actors = new address[](len); // 'actors' karena bisa dokter atau pasien\r\n        timestamps = new uint256[](len);\r\n        for (uint i = 0; i < len; i++) {\r\n            actors[i] = rekamMedisUpdateHistory[_id][i].dokter; // Tetap .dokter sesuai struct\r\n            timestamps[i] = rekamMedisUpdateHistory[_id][i].timestamp;\r\n        }\r\n        return (actors, timestamps);\r\n    }\r\n\r\n    function nonaktifkanRekamMedis(uint _id) external hanyaAdminRS {\r\n        require(\r\n            rekamMedis[_id].pasien != address(0),\r\n            \"Rekam medis tidak ditemukan.\"\r\n        );\r\n        // Pastikan adminRS yang menonaktifkan adalah admin dari RS tempat pasien terdaftar\r\n        require(\r\n            dataPasien[rekamMedis[_id].pasien].rumahSakitPenanggungJawab ==\r\n                msg.sender,\r\n            \"Admin RS tidak berhak atas pasien ini.\"\r\n        );\r\n        rekamMedis[_id].valid = false;\r\n        // Pertimbangkan untuk emit event di sini\r\n    }\r\n\r\n    function setSuperAdmin(address _newAdmin) external hanyaSuperAdmin {\r\n        require(\r\n            _newAdmin != address(0),\r\n            \"Alamat super admin baru tidak valid.\"\r\n        );\r\n        superAdmin = _newAdmin;\r\n    }\r\n\r\n    function getUserRole(address _user) public view returns (string memory) {\r\n        if (_user == superAdmin) return \"SuperAdmin\";\r\n        if (dataAdmin[_user].aktif) return \"AdminRS\"; // Cek status aktif juga\r\n        if (isDokter[_user]) return \"Dokter\";\r\n        if (isPasien[_user]) return \"Pasien\";\r\n        return \"Unknown\";\r\n    }\r\n}\r\n",
  "sourcePath": "D:\\TA\\rekam_medis_backend\\contracts\\RekamMedisRS.sol",
  "compiler": {
    "name": "solc",
    "version": "0.8.19+commit.7dd6d404.Emscripten.clang"
  },
  "schemaVersion": "3.4.16",
  "updatedAt": "2025-05-30T08:56:36.948Z",
  "networkType": "ethereum",
  "devdoc": {
    "kind": "dev",
    "methods": {},
    "version": 1
  },
  "userdoc": {
    "kind": "user",
    "methods": {},
    "version": 1
  }
}