{
  "contractName": "RekamMedisRS",
  "abi": [
    {
      "inputs": [],
      "stateMutability": "nonpayable",
      "type": "constructor"
    },
    {
      "anonymous": false,
      "inputs": [
        {
          "indexed": true,
          "internalType": "address",
          "name": "admin",
          "type": "address"
        },
        {
          "indexed": false,
          "internalType": "bool",
          "name": "aktif",
          "type": "bool"
        }
      ],
      "name": "AdminRSStatusDiubah",
      "type": "event"
    },
    {
      "anonymous": false,
      "inputs": [
        {
          "indexed": true,
          "internalType": "address",
          "name": "admin",
          "type": "address"
        },
        {
          "indexed": false,
          "internalType": "string",
          "name": "namaRumahSakit",
          "type": "string"
        }
      ],
      "name": "AdminRSTerdaftar",
      "type": "event"
    },
    {
      "anonymous": false,
      "inputs": [
        {
          "indexed": true,
          "internalType": "address",
          "name": "dokter",
          "type": "address"
        },
        {
          "indexed": false,
          "internalType": "string",
          "name": "nama",
          "type": "string"
        },
        {
          "indexed": false,
          "internalType": "string",
          "name": "spesialisasi",
          "type": "string"
        },
        {
          "indexed": false,
          "internalType": "string",
          "name": "nomorLisensi",
          "type": "string"
        },
        {
          "indexed": true,
          "internalType": "address",
          "name": "adminRS",
          "type": "address"
        }
      ],
      "name": "DokterInfoDiperbarui",
      "type": "event"
    },
    {
      "anonymous": false,
      "inputs": [
        {
          "indexed": true,
          "internalType": "address",
          "name": "dokter",
          "type": "address"
        },
        {
          "indexed": false,
          "internalType": "bool",
          "name": "aktif",
          "type": "bool"
        }
      ],
      "name": "DokterStatusDiubah",
      "type": "event"
    },
    {
      "anonymous": false,
      "inputs": [
        {
          "indexed": true,
          "internalType": "address",
          "name": "dokter",
          "type": "address"
        },
        {
          "indexed": false,
          "internalType": "string",
          "name": "nama",
          "type": "string"
        },
        {
          "indexed": false,
          "internalType": "address",
          "name": "adminRS",
          "type": "address"
        }
      ],
      "name": "DokterTerdaftar",
      "type": "event"
    },
    {
      "anonymous": false,
      "inputs": [
        {
          "indexed": true,
          "internalType": "address",
          "name": "pasien",
          "type": "address"
        },
        {
          "indexed": false,
          "internalType": "string",
          "name": "nama",
          "type": "string"
        },
        {
          "indexed": false,
          "internalType": "string",
          "name": "golonganDarah",
          "type": "string"
        },
        {
          "indexed": false,
          "internalType": "string",
          "name": "tanggalLahir",
          "type": "string"
        },
        {
          "indexed": false,
          "internalType": "string",
          "name": "gender",
          "type": "string"
        },
        {
          "indexed": false,
          "internalType": "string",
          "name": "alamat",
          "type": "string"
        },
        {
          "indexed": false,
          "internalType": "string",
          "name": "noTelepon",
          "type": "string"
        },
        {
          "indexed": false,
          "internalType": "string",
          "name": "email",
          "type": "string"
        }
      ],
      "name": "PasienDataDiperbarui",
      "type": "event"
    },
    {
      "anonymous": false,
      "inputs": [
        {
          "indexed": false,
          "internalType": "address",
          "name": "dokter",
          "type": "address"
        },
        {
          "indexed": false,
          "internalType": "address",
          "name": "pasien",
          "type": "address"
        }
      ],
      "name": "PasienDiassignKeDokter",
      "type": "event"
    },
    {
      "anonymous": false,
      "inputs": [
        {
          "indexed": false,
          "internalType": "address",
          "name": "dokter",
          "type": "address"
        },
        {
          "indexed": false,
          "internalType": "address",
          "name": "pasien",
          "type": "address"
        }
      ],
      "name": "PasienDiunassignDariDokter",
      "type": "event"
    },
    {
      "anonymous": false,
      "inputs": [
        {
          "indexed": true,
          "internalType": "address",
          "name": "pasien",
          "type": "address"
        },
        {
          "indexed": false,
          "internalType": "address",
          "name": "adminRS",
          "type": "address"
        }
      ],
      "name": "PasienPindahRS",
      "type": "event"
    },
    {
      "anonymous": false,
      "inputs": [
        {
          "indexed": true,
          "internalType": "address",
          "name": "pasien",
          "type": "address"
        },
        {
          "indexed": true,
          "internalType": "address",
          "name": "oldAdminRS",
          "type": "address"
        },
        {
          "indexed": true,
          "internalType": "address",
          "name": "newAdminRS",
          "type": "address"
        }
      ],
      "name": "PasienRumahSakitDiperbarui",
      "type": "event"
    },
    {
      "anonymous": false,
      "inputs": [
        {
          "indexed": true,
          "internalType": "address",
          "name": "pasien",
          "type": "address"
        },
        {
          "indexed": false,
          "internalType": "string",
          "name": "nama",
          "type": "string"
        },
        {
          "indexed": false,
          "internalType": "address",
          "name": "adminRS",
          "type": "address"
        }
      ],
      "name": "PasienTerdaftar",
      "type": "event"
    },
    {
      "anonymous": false,
      "inputs": [
        {
          "indexed": false,
          "internalType": "uint256",
          "name": "id",
          "type": "uint256"
        },
        {
          "indexed": false,
          "internalType": "string",
          "name": "diagnosa",
          "type": "string"
        },
        {
          "indexed": false,
          "internalType": "string",
          "name": "catatan",
          "type": "string"
        },
        {
          "indexed": false,
          "internalType": "address",
          "name": "dokter",
          "type": "address"
        },
        {
          "indexed": false,
          "internalType": "uint256",
          "name": "timestamp",
          "type": "uint256"
        }
      ],
      "name": "RekamMedisDiperbarui",
      "type": "event"
    },
    {
      "anonymous": false,
      "inputs": [
        {
          "indexed": false,
          "internalType": "uint256",
          "name": "id",
          "type": "uint256"
        },
        {
          "indexed": false,
          "internalType": "address",
          "name": "pasien",
          "type": "address"
        },
        {
          "indexed": false,
          "internalType": "string",
          "name": "diagnosa",
          "type": "string"
        },
        {
          "indexed": false,
          "internalType": "bool",
          "name": "valid",
          "type": "bool"
        }
      ],
      "name": "RekamMedisDitambahkan",
      "type": "event"
    },
    {
      "inputs": [
        {
          "internalType": "uint256",
          "name": "",
          "type": "uint256"
        }
      ],
      "name": "daftarAdmin",
      "outputs": [
        {
          "internalType": "address",
          "name": "",
          "type": "address"
        }
      ],
      "stateMutability": "view",
      "type": "function",
      "constant": true
    },
    {
      "inputs": [
        {
          "internalType": "uint256",
          "name": "",
          "type": "uint256"
        }
      ],
      "name": "daftarDokter",
      "outputs": [
        {
          "internalType": "address",
          "name": "",
          "type": "address"
        }
      ],
      "stateMutability": "view",
      "type": "function",
      "constant": true
    },
    {
      "inputs": [
        {
          "internalType": "uint256",
          "name": "",
          "type": "uint256"
        }
      ],
      "name": "daftarPasien",
      "outputs": [
        {
          "internalType": "address",
          "name": "",
          "type": "address"
        }
      ],
      "stateMutability": "view",
      "type": "function",
      "constant": true
    },
    {
      "inputs": [
        {
          "internalType": "address",
          "name": "",
          "type": "address"
        }
      ],
      "name": "dataAdmin",
      "outputs": [
        {
          "internalType": "string",
          "name": "namaRumahSakit",
          "type": "string"
        },
        {
          "internalType": "bool",
          "name": "aktif",
          "type": "bool"
        }
      ],
      "stateMutability": "view",
      "type": "function",
      "constant": true
    },
    {
      "inputs": [
        {
          "internalType": "address",
          "name": "",
          "type": "address"
        }
      ],
      "name": "dataDokter",
      "outputs": [
        {
          "internalType": "string",
          "name": "nama",
          "type": "string"
        },
        {
          "internalType": "string",
          "name": "spesialisasi",
          "type": "string"
        },
        {
          "internalType": "string",
          "name": "nomorLisensi",
          "type": "string"
        },
        {
          "internalType": "bool",
          "name": "aktif",
          "type": "bool"
        },
        {
          "internalType": "address",
          "name": "adminRS",
          "type": "address"
        }
      ],
      "stateMutability": "view",
      "type": "function",
      "constant": true
    },
    {
      "inputs": [
        {
          "internalType": "address",
          "name": "",
          "type": "address"
        }
      ],
      "name": "dataPasien",
      "outputs": [
        {
          "internalType": "string",
          "name": "nama",
          "type": "string"
        },
        {
          "internalType": "string",
          "name": "golonganDarah",
          "type": "string"
        },
        {
          "internalType": "string",
          "name": "tanggalLahir",
          "type": "string"
        },
        {
          "internalType": "string",
          "name": "gender",
          "type": "string"
        },
        {
          "internalType": "string",
          "name": "alamat",
          "type": "string"
        },
        {
          "internalType": "string",
          "name": "noTelepon",
          "type": "string"
        },
        {
          "internalType": "string",
          "name": "email",
          "type": "string"
        },
        {
          "internalType": "address",
          "name": "rumahSakitPenanggungJawab",
          "type": "address"
        },
        {
          "internalType": "bool",
          "name": "exists",
          "type": "bool"
        }
      ],
      "stateMutability": "view",
      "type": "function",
      "constant": true
    },
    {
      "inputs": [
        {
          "internalType": "address",
          "name": "",
          "type": "address"
        }
      ],
      "name": "isDokter",
      "outputs": [
        {
          "internalType": "bool",
          "name": "",
          "type": "bool"
        }
      ],
      "stateMutability": "view",
      "type": "function",
      "constant": true
    },
    {
      "inputs": [
        {
          "internalType": "address",
          "name": "",
          "type": "address"
        }
      ],
      "name": "isPasien",
      "outputs": [
        {
          "internalType": "bool",
          "name": "",
          "type": "bool"
        }
      ],
      "stateMutability": "view",
      "type": "function",
      "constant": true
    },
    {
      "inputs": [
        {
          "internalType": "uint256",
          "name": "",
          "type": "uint256"
        }
      ],
      "name": "rekamMedis",
      "outputs": [
        {
          "internalType": "uint256",
          "name": "id",
          "type": "uint256"
        },
        {
          "internalType": "address",
          "name": "pasien",
          "type": "address"
        },
        {
          "internalType": "string",
          "name": "diagnosa",
          "type": "string"
        },
        {
          "internalType": "string",
          "name": "foto",
          "type": "string"
        },
        {
          "internalType": "string",
          "name": "catatan",
          "type": "string"
        },
        {
          "internalType": "bool",
          "name": "valid",
          "type": "bool"
        }
      ],
      "stateMutability": "view",
      "type": "function",
      "constant": true
    },
    {
      "inputs": [
        {
          "internalType": "address",
          "name": "",
          "type": "address"
        },
        {
          "internalType": "uint256",
          "name": "",
          "type": "uint256"
        }
      ],
      "name": "rekamMedisByPasien",
      "outputs": [
        {
          "internalType": "uint256",
          "name": "",
          "type": "uint256"
        }
      ],
      "stateMutability": "view",
      "type": "function",
      "constant": true
    },
    {
      "inputs": [],
      "name": "rekamMedisCount",
      "outputs": [
        {
          "internalType": "uint256",
          "name": "",
          "type": "uint256"
        }
      ],
      "stateMutability": "view",
      "type": "function",
      "constant": true
    },
    {
      "inputs": [
        {
          "internalType": "uint256",
          "name": "",
          "type": "uint256"
        },
        {
          "internalType": "uint256",
          "name": "",
          "type": "uint256"
        }
      ],
      "name": "rekamMedisUpdateHistory",
      "outputs": [
        {
          "internalType": "address",
          "name": "dokter",
          "type": "address"
        },
        {
          "internalType": "uint256",
          "name": "timestamp",
          "type": "uint256"
        }
      ],
      "stateMutability": "view",
      "type": "function",
      "constant": true
    },
    {
      "inputs": [
        {
          "internalType": "uint256",
          "name": "",
          "type": "uint256"
        },
        {
          "internalType": "uint256",
          "name": "",
          "type": "uint256"
        }
      ],
      "name": "rekamMedisVersions",
      "outputs": [
        {
          "internalType": "uint256",
          "name": "id",
          "type": "uint256"
        },
        {
          "internalType": "address",
          "name": "pasien",
          "type": "address"
        },
        {
          "internalType": "string",
          "name": "diagnosa",
          "type": "string"
        },
        {
          "internalType": "string",
          "name": "foto",
          "type": "string"
        },
        {
          "internalType": "string",
          "name": "catatan",
          "type": "string"
        },
        {
          "internalType": "bool",
          "name": "valid",
          "type": "bool"
        }
      ],
      "stateMutability": "view",
      "type": "function",
      "constant": true
    },
    {
      "inputs": [],
      "name": "superAdmin",
      "outputs": [
        {
          "internalType": "address",
          "name": "",
          "type": "address"
        }
      ],
      "stateMutability": "view",
      "type": "function",
      "constant": true
    },
    {
      "inputs": [
        {
          "internalType": "address",
          "name": "_admin",
          "type": "address"
        },
        {
          "internalType": "string",
          "name": "_namaRS",
          "type": "string"
        }
      ],
      "name": "registerAdminRS",
      "outputs": [],
      "stateMutability": "nonpayable",
      "type": "function"
    },
    {
      "inputs": [],
      "name": "getAllAdminRSAddresses",
      "outputs": [
        {
          "internalType": "address[]",
          "name": "",
          "type": "address[]"
        }
      ],
      "stateMutability": "view",
      "type": "function",
      "constant": true
    },
    {
      "inputs": [
        {
          "internalType": "address",
          "name": "_admin",
          "type": "address"
        },
        {
          "internalType": "bool",
          "name": "_aktif",
          "type": "bool"
        }
      ],
      "name": "setStatusAdminRS",
      "outputs": [],
      "stateMutability": "nonpayable",
      "type": "function"
    },
    {
      "inputs": [],
      "name": "totalAdmin",
      "outputs": [
        {
          "internalType": "uint256",
          "name": "",
          "type": "uint256"
        }
      ],
      "stateMutability": "view",
      "type": "function",
      "constant": true
    },
    {
      "inputs": [
        {
          "internalType": "uint256",
          "name": "idx",
          "type": "uint256"
        }
      ],
      "name": "getAdminByIndex",
      "outputs": [
        {
          "internalType": "address",
          "name": "",
          "type": "address"
        }
      ],
      "stateMutability": "view",
      "type": "function",
      "constant": true
    },
    {
      "inputs": [
        {
          "internalType": "address",
          "name": "_dokter",
          "type": "address"
        },
        {
          "internalType": "string",
          "name": "_nama",
          "type": "string"
        },
        {
          "internalType": "string",
          "name": "_spesialisasi",
          "type": "string"
        },
        {
          "internalType": "string",
          "name": "_nomorLisensi",
          "type": "string"
        }
      ],
      "name": "registerDokter",
      "outputs": [],
      "stateMutability": "nonpayable",
      "type": "function"
    },
    {
      "inputs": [
        {
          "internalType": "address",
          "name": "_dokter",
          "type": "address"
        },
        {
          "internalType": "string",
          "name": "_namaBaru",
          "type": "string"
        },
        {
          "internalType": "string",
          "name": "_spesialisasiBaru",
          "type": "string"
        },
        {
          "internalType": "string",
          "name": "_nomorLisensiBaru",
          "type": "string"
        }
      ],
      "name": "updateDokterInfo",
      "outputs": [],
      "stateMutability": "nonpayable",
      "type": "function"
    },
    {
      "inputs": [
        {
          "internalType": "address",
          "name": "_dokter",
          "type": "address"
        },
        {
          "internalType": "bool",
          "name": "_aktif",
          "type": "bool"
        }
      ],
      "name": "setStatusDokter",
      "outputs": [],
      "stateMutability": "nonpayable",
      "type": "function"
    },
    {
      "inputs": [],
      "name": "totalDokter",
      "outputs": [
        {
          "internalType": "uint256",
          "name": "",
          "type": "uint256"
        }
      ],
      "stateMutability": "view",
      "type": "function",
      "constant": true
    },
    {
      "inputs": [
        {
          "internalType": "uint256",
          "name": "idx",
          "type": "uint256"
        }
      ],
      "name": "getDokterByIndex",
      "outputs": [
        {
          "internalType": "address",
          "name": "",
          "type": "address"
        }
      ],
      "stateMutability": "view",
      "type": "function",
      "constant": true
    },
    {
      "inputs": [
        {
          "internalType": "address",
          "name": "_dokter",
          "type": "address"
        }
      ],
      "name": "getDokter",
      "outputs": [
        {
          "internalType": "string",
          "name": "nama",
          "type": "string"
        },
        {
          "internalType": "string",
          "name": "spesialisasi",
          "type": "string"
        },
        {
          "internalType": "string",
          "name": "nomorLisensi",
          "type": "string"
        },
        {
          "internalType": "bool",
          "name": "aktif",
          "type": "bool"
        },
        {
          "internalType": "address[]",
          "name": "pasienList",
          "type": "address[]"
        },
        {
          "internalType": "address",
          "name": "adminRS",
          "type": "address"
        }
      ],
      "stateMutability": "view",
      "type": "function",
      "constant": true
    },
    {
      "inputs": [
        {
          "internalType": "address",
          "name": "_pasien",
          "type": "address"
        },
        {
          "internalType": "string",
          "name": "_nama",
          "type": "string"
        },
        {
          "internalType": "address",
          "name": "_adminRS",
          "type": "address"
        }
      ],
      "name": "registerPasien",
      "outputs": [],
      "stateMutability": "nonpayable",
      "type": "function"
    },
    {
      "inputs": [
        {
          "internalType": "string",
          "name": "_nama",
          "type": "string"
        },
        {
          "internalType": "string",
          "name": "_golonganDarah",
          "type": "string"
        },
        {
          "internalType": "string",
          "name": "_tanggalLahir",
          "type": "string"
        },
        {
          "internalType": "string",
          "name": "_gender",
          "type": "string"
        },
        {
          "internalType": "string",
          "name": "_alamat",
          "type": "string"
        },
        {
          "internalType": "string",
          "name": "_noTelepon",
          "type": "string"
        },
        {
          "internalType": "string",
          "name": "_email",
          "type": "string"
        },
        {
          "internalType": "address",
          "name": "_adminRS",
          "type": "address"
        }
      ],
      "name": "selfRegisterPasien",
      "outputs": [],
      "stateMutability": "nonpayable",
      "type": "function"
    },
    {
      "inputs": [
        {
          "internalType": "string",
          "name": "_nama",
          "type": "string"
        },
        {
          "internalType": "string",
          "name": "_golonganDarah",
          "type": "string"
        },
        {
          "internalType": "string",
          "name": "_tanggalLahir",
          "type": "string"
        },
        {
          "internalType": "string",
          "name": "_gender",
          "type": "string"
        },
        {
          "internalType": "string",
          "name": "_alamat",
          "type": "string"
        },
        {
          "internalType": "string",
          "name": "_noTelepon",
          "type": "string"
        },
        {
          "internalType": "string",
          "name": "_email",
          "type": "string"
        }
      ],
      "name": "updatePasienData",
      "outputs": [],
      "stateMutability": "nonpayable",
      "type": "function"
    },
    {
      "inputs": [
        {
          "internalType": "address",
          "name": "_newAdminRS",
          "type": "address"
        }
      ],
      "name": "updatePasienRumahSakit",
      "outputs": [],
      "stateMutability": "nonpayable",
      "type": "function"
    },
    {
      "inputs": [],
      "name": "getDaftarPasien",
      "outputs": [
        {
          "internalType": "address[]",
          "name": "",
          "type": "address[]"
        }
      ],
      "stateMutability": "view",
      "type": "function",
      "constant": true
    },
    {
      "inputs": [
        {
          "internalType": "address",
          "name": "_pasien",
          "type": "address"
        }
      ],
      "name": "getPasienData",
      "outputs": [
        {
          "internalType": "string",
          "name": "nama",
          "type": "string"
        },
        {
          "internalType": "string",
          "name": "golonganDarah",
          "type": "string"
        },
        {
          "internalType": "string",
          "name": "tanggalLahir",
          "type": "string"
        },
        {
          "internalType": "string",
          "name": "gender",
          "type": "string"
        },
        {
          "internalType": "string",
          "name": "alamat",
          "type": "string"
        },
        {
          "internalType": "string",
          "name": "noTelepon",
          "type": "string"
        },
        {
          "internalType": "string",
          "name": "email",
          "type": "string"
        },
        {
          "internalType": "address",
          "name": "rumahSakitPenanggungJawab",
          "type": "address"
        }
      ],
      "stateMutability": "view",
      "type": "function",
      "constant": true
    },
    {
      "inputs": [
        {
          "internalType": "address",
          "name": "_dokter",
          "type": "address"
        },
        {
          "internalType": "address",
          "name": "_pasien",
          "type": "address"
        }
      ],
      "name": "assignPasienToDokter",
      "outputs": [],
      "stateMutability": "nonpayable",
      "type": "function"
    },
    {
      "inputs": [
        {
          "internalType": "address",
          "name": "_dokter",
          "type": "address"
        },
        {
          "internalType": "address",
          "name": "_pasien",
          "type": "address"
        }
      ],
      "name": "unassignPasienFromDokter",
      "outputs": [],
      "stateMutability": "nonpayable",
      "type": "function"
    },
    {
      "inputs": [
        {
          "internalType": "address",
          "name": "_pasien",
          "type": "address"
        },
        {
          "internalType": "string",
          "name": "_diagnosa",
          "type": "string"
        },
        {
          "internalType": "string",
          "name": "_foto",
          "type": "string"
        },
        {
          "internalType": "string",
          "name": "_catatan",
          "type": "string"
        }
      ],
      "name": "tambahRekamMedis",
      "outputs": [],
      "stateMutability": "nonpayable",
      "type": "function"
    },
    {
      "inputs": [
        {
          "internalType": "uint256",
          "name": "_id",
          "type": "uint256"
        },
        {
          "internalType": "string",
          "name": "_diagnosa",
          "type": "string"
        },
        {
          "internalType": "string",
          "name": "_foto",
          "type": "string"
        },
        {
          "internalType": "string",
          "name": "_catatan",
          "type": "string"
        }
      ],
      "name": "updateRekamMedis",
      "outputs": [],
      "stateMutability": "nonpayable",
      "type": "function"
    },
    {
      "inputs": [
        {
          "internalType": "address",
          "name": "_pasien",
          "type": "address"
        }
      ],
      "name": "getRekamMedisIdsByPasien",
      "outputs": [
        {
          "internalType": "uint256[]",
          "name": "",
          "type": "uint256[]"
        }
      ],
      "stateMutability": "view",
      "type": "function",
      "constant": true
    },
    {
      "inputs": [
        {
          "internalType": "uint256",
          "name": "_id",
          "type": "uint256"
        }
      ],
      "name": "getRekamMedis",
      "outputs": [
        {
          "internalType": "uint256",
          "name": "id",
          "type": "uint256"
        },
        {
          "internalType": "address",
          "name": "pasien",
          "type": "address"
        },
        {
          "internalType": "string",
          "name": "diagnosa",
          "type": "string"
        },
        {
          "internalType": "string",
          "name": "foto",
          "type": "string"
        },
        {
          "internalType": "string",
          "name": "catatan",
          "type": "string"
        },
        {
          "internalType": "bool",
          "name": "valid",
          "type": "bool"
        }
      ],
      "stateMutability": "view",
      "type": "function",
      "constant": true
    },
    {
      "inputs": [
        {
          "internalType": "uint256",
          "name": "_id",
          "type": "uint256"
        }
      ],
      "name": "getRekamMedisVersions",
      "outputs": [
        {
          "components": [
            {
              "internalType": "uint256",
              "name": "id",
              "type": "uint256"
            },
            {
              "internalType": "address",
              "name": "pasien",
              "type": "address"
            },
            {
              "internalType": "string",
              "name": "diagnosa",
              "type": "string"
            },
            {
              "internalType": "string",
              "name": "foto",
              "type": "string"
            },
            {
              "internalType": "string",
              "name": "catatan",
              "type": "string"
            },
            {
              "internalType": "bool",
              "name": "valid",
              "type": "bool"
            }
          ],
          "internalType": "struct RekamMedisRS.RekamMedisData[]",
          "name": "",
          "type": "tuple[]"
        }
      ],
      "stateMutability": "view",
      "type": "function",
      "constant": true
    },
    {
      "inputs": [
        {
          "internalType": "uint256",
          "name": "_id",
          "type": "uint256"
        }
      ],
      "name": "getRekamMedisUpdateHistory",
      "outputs": [
        {
          "internalType": "address[]",
          "name": "actors",
          "type": "address[]"
        },
        {
          "internalType": "uint256[]",
          "name": "timestamps",
          "type": "uint256[]"
        }
      ],
      "stateMutability": "view",
      "type": "function",
      "constant": true
    },
    {
      "inputs": [
        {
          "internalType": "uint256",
          "name": "_id",
          "type": "uint256"
        }
      ],
      "name": "nonaktifkanRekamMedis",
      "outputs": [],
      "stateMutability": "nonpayable",
      "type": "function"
    },
    {
      "inputs": [
        {
          "internalType": "address",
          "name": "_newAdmin",
          "type": "address"
        }
      ],
      "name": "setSuperAdmin",
      "outputs": [],
      "stateMutability": "nonpayable",
      "type": "function"
    },
    {
      "inputs": [
        {
          "internalType": "address",
          "name": "_user",
          "type": "address"
        }
      ],
      "name": "getUserRole",
      "outputs": [
        {
          "internalType": "string",
          "name": "",
          "type": "string"
        }
      ],
      "stateMutability": "view",
      "type": "function",
      "constant": true
    }
  ],
  "bytecode": "0x6080806040523461003d57600080546001600160a01b03191673b0dc0bf642d339517438017fc185bb0f758a01d217905561571b9081620000438239f35b600080fdfe60e0604052600436101561001257600080fd5b60003560e01c8062410cb31461498057806301c268fe14614206578063046bdbcc14614198578063083d8824146140a75780631132beb5146140685780631570005214613fcc57806319d9d3dd14613f4b57806319e8f40514613c905780632782085114613c5857806329575f6a14613c2f5780632e2dd10214613c115780633aaec728146134bc5780633bf76303146134595780633da05518146132e957806342699651146132c057806347960cb51461322d57806351887b67146131985780635c4c9348146131595780635e6da24c14612f35578063623785c114612ec757806364319e3314612ea95780636837008714612e4e578063786f3fbe14612d2b5780637d3e9db814612d0d578063911b633a14612ccb578063924b912314612bbd57806392fa924014612a4a578063932e0f6d1461299457806397259550146129485780639dbde1181461203d578063a665102c14611f0f578063abf72abb14611ecc578063ad3c970814611c0a578063b75de7a81461180a578063c3c0fdea1461175d578063c967ede8146116b9578063d68878021461152c578063dd09a968146114a9578063ddbd24d314610f4d578063df83dde014610592578063e29993a5146102ce5763f2ab4a99146101e957600080fd5b346102c9576101f736614d43565b60005490916001600160a01b03916102129083163314614e38565b169081600052600160205261022b604060002054614b4a565b156102845760207fd2e4d0240eabf0011425eb3fffbc4f311cd4b564ba547aba4b3163fd046f6a979183600052600182526102798160016040600020019060ff801983541691151516179055565b6040519015158152a2005b60405162461bcd60e51b815260206004820152601960248201527f41646d696e20525320746964616b20646974656d756b616e2e000000000000006044820152606490fd5b600080fd5b346102c95760403660031901126102c9576102e76149d8565b6102ef6149ee565b3360005260019160209280845261030f60ff826040600020015416614fc8565b60018060a01b039081831691826000526004865261033460ff6040600020541661507a565b82600052600390818752610353338260056040600020015416146150c6565b80861690816000526007885261037060ff604060002054166151cc565b8160005260068852338160076040600020015416036105355760009485528288526040852091949392916004019084845b61044d575b50505050509050156103f957604080516001600160a01b0392831681529290911660208301527f80b4d8d360eb6524bf34c2207f48a267b84469bad95c9e9540413349e9f416a59250819081015b0390a1005b60405162461bcd60e51b815260048101849052602660248201527f50617369656e20746964616b20646974756761736b616e206b6520646f6b7465604482015265391034b7349760d11b6064820152608490fd5b82548082101561052f5787836104638487614a88565b905490881b1c161461048457509561047c859697615218565b9096956103a1565b919395509193955060001991828201918211610519576104b9846104ab6104d89488614a88565b905490891b1c169186614a88565b90919082549060031b9160018060a01b03809116831b921b1916179055565b825480156105035701926104ec8484614a88565b81939154921b1b19169055558085808080806103a6565b634e487b7160e01b600052603160045260246000fd5b634e487b7160e01b600052601160045260246000fd5b506103a6565b60405162461bcd60e51b815260048101899052602f60248201527f50617369656e20696e6920746964616b2074657264616674617220646920727560448201526e36b0b41039b0b5b4ba1020b732309760891b6064820152608490fd5b346102c95760603660031901126102c9576105ab6149d8565b6024356001600160401b0381116102c9576105ca903690600401614aa0565b906044356001600160a01b03811690036102c9573360005260016020526105fb60ff60016040600020015416614fc8565b6001600160a01b03831660009081526007602052604090205460ff16610ef6576001600160a01b03831660009081526004602052604090205460ff16610e8b5760018060a01b0360443516600052600160205260ff6001604060002001541615610e3b576044356001600160a01b03163303610dc5576001600160a01b03831660009081526007602052604090819020805460ff1916600117905551926106a184614bba565b6106ac368484614ea1565b84526040516106ba81614bd6565b6000815260208501526040516106cf81614bd6565b6000815260408501526040516106e481614bd6565b6000815260608501526040516106f981614bd6565b60008152608085015260405161070e81614bd6565b6000815260a085015260405161072381614bd6565b600080825260c08601919091526001600160a01b03604435811660e087015260016101008701528216815260066020526040902084518051919591906001600160401b038211610adf5781906107838261077d8a54614b4a565b8a614efe565b602090601f8311600114610d5957600092610d4e575b50508160011b916000199060031b1c19161785555b60208101518051906001600160401b038211610adf5781906107e0826107d760018b0154614b4a565b60018b01614efe565b602090601f8311600114610cdc57600092610cd1575b50508160011b916000199060031b1c19161760018601555b60408101518051906001600160401b038211610adf5781906108408261083760028b0154614b4a565b60028b01614efe565b602090601f8311600114610c5f57600092610c54575b50508160011b916000199060031b1c19161760028601555b60608101518051906001600160401b038211610adf5781906108a08261089760038b0154614b4a565b60038b01614efe565b602090601f8311600114610be257600092610bd7575b50508160011b916000199060031b1c19161760038601555b608081015180516001600160401b038111610adf578060048801926108fd826108f78654614b4a565b86614efe565b602090601f8311600114610b7157600092610b66575b50508160011b916000199060031b1c19161790555b60a081015180516001600160401b038111610adf57806005880192610951826108f78654614b4a565b602090601f8311600114610b0057600092610af5575b50508160011b916000199060031b1c19161790555b60c08101519485516001600160401b038111610adf576109ac816109a36006850154614b4a565b60068501614efe565b6020601f8211600114610a5d579080600793926000805160206156c68339815191529899600092610a52575b50508160011b916000199060031b1c19161760068201555b019060018060a01b0360e08201511682549161010060ff60a01b910151151560a01b16916affffffffffffffffffffff60a81b1617179055610a3181614f43565b610a4d60405192839260018060a01b0316956044359184615051565b0390a2005b0151905089806109d8565b6006830160005260206000209760005b601f1984168110610ac75750916000805160206156c683398151915297986001926007959483601f19811610610aae575b505050811b0160068201556109f0565b015160001960f88460031b161c19169055898080610a9e565b828201518a5560019099019860209283019201610a6d565b634e487b7160e01b600052604160045260246000fd5b015190508880610967565b6000858152602081209350601f198516905b818110610b4e5750908460019594939210610b35575b505050811b01905561097c565b015160001960f88460031b161c19169055888080610b28565b92936020600181928786015181550195019301610b12565b015190508880610913565b6000858152602081209350601f198516905b818110610bbf5750908460019594939210610ba6575b505050811b019055610928565b015160001960f88460031b161c19169055888080610b99565b92936020600181928786015181550195019301610b83565b0151905087806108b6565b9250600388016000526020600020906000935b601f1984168510610c39576001945083601f19811610610c20575b505050811b0160038601556108ce565b015160001960f88460031b161c19169055878080610c10565b81810151835560209485019460019093019290910190610bf5565b015190508780610856565b9250600288016000526020600020906000935b601f1984168510610cb6576001945083601f19811610610c9d575b505050811b01600286015561086e565b015160001960f88460031b161c19169055878080610c8d565b81810151835560209485019460019093019290910190610c72565b0151905087806107f6565b9250600188016000526020600020906000935b601f1984168510610d33576001945083601f19811610610d1a575b505050811b01600186015561080e565b015160001960f88460031b161c19169055878080610d0a565b81810151835560209485019460019093019290910190610cef565b015190508780610799565b9250876000526020600020906000935b601f1984168510610daa576001945083601f19811610610d91575b505050811b0185556107ae565b015160001960f88460031b161c19169055878080610d84565b81810151835560209485019460019093019290910190610d69565b60405162461bcd60e51b815260206004820152604260248201527f48616e79612061646d696e2052532070656e616e6767756e67206a617761622060448201527f79616e672062697361206d656e6461667461726b616e2070617369656e20696e606482015261349760f11b608482015260a490fd5b60405162461bcd60e51b815260206004820152602260248201527f41646d696e2052532079616e6720646972756a756b20746964616b20616b7469604482015261331760f11b6064820152608490fd5b60405162461bcd60e51b815260206004820152603f60248201527f416c616d617420696e6920746572646166746172207365626167616920646f6b60448201527f7465722c20746964616b2062697361206d656e6a6164692070617369656e2e006064820152608490fd5b60405162461bcd60e51b815260206004820152602960248201527f50617369656e207375646168207465726461667461722064656e67616e20616c60448201526830b6b0ba1034b7349760b91b6064820152608490fd5b346102c957610f5b36614da4565b90959291949395336000526001602052610f7f60ff60016040600020015416614fc8565b6001600160a01b03841660009081526004602052604090205460ff16611451576001600160a01b03841660009081526007602052604090205460ff166113e6576110259160018060a01b03851660005260046020526040600020600160ff1982541617905561101960405194610ff486614bd6565b60008652604051986110058a614b84565b611010368c8b614ea1565b8a523691614ea1565b60208801523691614ea1565b60408501526001606085015260808401523360a084015260018060a01b038116600052600360205260406000209280518051906001600160401b038211610adf57819061107c826110768954614b4a565b89614efe565b602090601f831160011461137a5760009261136f575b50508160011b916000199060031b1c19161784555b60208101518051906001600160401b038211610adf5781906110d9826110d060018a0154614b4a565b60018a01614efe565b602090601f83116001146112fd576000926112f2575b50508160011b916000199060031b1c19161760018501555b604081015180516001600160401b038111610adf57806002870192611130826108f78654614b4a565b602090601f831160011461128c57600092611281575b50508160011b916000199060031b1c19161790555b61117a60608201511515600386019060ff801983541691151516179055565b60048401936080820151948551906001600160401b038211610adf57600160401b96878311610adf576020908254848455808510611264575b500190600052602060002060005b83811061124757505050506005019060a0600180821b03910151166001600160601b0360a01b82541617905560055492831015610adf5761122d816104b98560017f5c9d12a5bfda65f31ab460df37935bfe7b6cfa6a3787bf1f99858ccc15dc92779701600555614a04565b610a4d60405192839260018060a01b031695339184615051565b82516001600160a01b0316818301556020909201916001016111c1565b61127b908460005285846000209182019101614ee7565b8a6111b3565b015190508880611146565b6000858152602081209350601f198516905b8181106112da57509084600195949392106112c1575b505050811b01905561115b565b015160001960f88460031b161c191690558880806112b4565b9293602060018192878601518155019501930161129e565b0151905087806110ef565b9250600187016000526020600020906000935b601f1984168510611354576001945083601f1981161061133b575b505050811b016001850155611107565b015160001960f88460031b161c1916905587808061132b565b81810151835560209485019460019093019290910190611310565b015190508780611092565b9250866000526020600020906000935b601f19841685106113cb576001945083601f198116106113b2575b505050811b0184556110a7565b015160001960f88460031b161c191690558780806113a5565b8181015183556020948501946001909301929091019061138a565b60405162461bcd60e51b815260206004820152603f60248201527f416c616d617420696e692074657264616674617220736562616761692070617360448201527f69656e2c20746964616b2062697361206d656e6a61646920646f6b7465722e006064820152608490fd5b60405162461bcd60e51b815260206004820152602a60248201527f416c616d617420696e692073756461682074657264616674617220736562616760448201526930b4903237b5ba32b91760b11b6064820152608490fd5b346102c9576114b736614d72565b90600052600c60205260406000209081548110156102c9576114d891614e1c565b50805460018201546001600160a01b031691611528906114fa60028201614c12565b9061150760038201614c12565b60ff600561151760048501614c12565b930154169260405196879687614cb8565b0390f35b346102c9576020806003193601126102c957600435600052600c815260406000209081549161155a8361503a565b926115686040519485614bf1565b8084528284018092600052836000206000915b83831061163e5750505050604051918083019381845251809452604083019360408160051b85010192916000955b8287106115b65785850386f35b909192938280600192603f1989820301855287519081518152848060a01b0383830151168382015261162261160f6115fc604085015160c0806040870152850190614b0a565b6060808601519085830390860152614b0a565b6080808501519084830390850152614b0a565b9160a080910151151591015296019201960195929190926115a9565b60068660019260409998995161165381614b84565b85548152848060a01b0385870154168382015261167260028701614c12565b604082015261168360038701614c12565b606082015261169460048701614c12565b608082015260ff600587015416151560a082015281520192019201919095949561157b565b346102c9576020806003193601126102c9576001600160a01b036116db6149d8565b1680600052600782526116f560ff60406000205416615180565b600052600a8152604060002090604051808383829554938481520190600052836000209260005b858282106117475750505061173392500383614bf1565b611528604051928284938452830190614d0f565b855484526001958601958895509301920161171c565b346102c95760203660031901126102c9576117dd6001600160a01b03806117826149d8565b166000526003602052604060002061179981614c12565b916117f96117a960018401614c12565b916117eb6117b960028601614c12565b91600560ff600388015416960154169360405197889760a0895260a0890190614b0a565b908782036020890152614b0a565b908582036040870152614b0a565b911515606084015260808301520390f35b346102c95761181836614da4565b9594929093919533600052600160205261183c60ff60016040600020015416614fc8565b60018060a01b0391828716600052600460205260ff6040600020541615611bbb578287166000526003978860205233846005604060002001541603611b5c578388166000528860205260406000206001600160401b03808711610adf576118ad876118a78454614b4a565b84614efe565b866000601f8211600114611af757600091611aec575b50600019888d1b1c1916600188901b1782555b808311610adf57600182016118f5846118ef8354614b4a565b83614efe565b836000601f8211600114611a8957600091611a7e575b50600019858e1b1c1916600185901b1790555b8411610adf5761193e846119356002840154614b4a565b60028401614efe565b6000601f85116001146119e1579184939160027f4e15ca2ba26538cdb1e2f0d595a1ec96fe8fbb126404e0cc083426c33ccbdd959a9b9c6119d198976119bf966000916119d6575b508760011b9188600019911b1c1916179101555b6119b160405198899860608a5260608a0191614fa7565b918783036020890152614fa7565b91848303604086015233981696614fa7565b0390a3005b90508d01358f611986565b99601f198516906002830160005260206000209160005b818110611a665750917f4e15ca2ba26538cdb1e2f0d595a1ec96fe8fbb126404e0cc083426c33ccbdd959a9b9c879694926119d199986119bf979510611a4c575b5050506002600186811b0191015561199a565b60f888600019921b161c19908d01351690558c8080611a39565b8b8e0135845560209d8e019d600190940193016119f8565b90508501358d61190b565b60008381526020812092505b601f1987168110611ad4575085601f19811610611abc575b5050600184811b01905561191e565b860135600019868f1b60f8161c191690558c80611aad565b9091602060018192858b013581550193019101611a95565b90508801358c6118c3565b60008481526020812092508990601f198216905b8c828210611b4257505010611b2a575b5050600187811b0182556118d6565b890135600019898e1b60f8161c191690558b80611b1b565b84013585556001909401936020938401938c935001611b0b565b60405162461bcd60e51b815260206004820152603160248201527f416e64612062756b616e2061646d696e2052532079616e672062657268616b206044820152703ab73a3ab5903237b5ba32b91034b7349760791b6064820152608490fd5b60405162461bcd60e51b815260206004820152602160248201527f446f6b74657220746964616b207465726461667461722064692073697374656d6044820152601760f91b6064820152608490fd5b346102c957611c1836614da4565b949160009693949660018060a01b038086169586331480611eb4575b15611dfa5750505060015b15611d8f57611cb9611cd7928560005260209760068952611c6d60ff60076040600020015460a01c166151cc565b611cad611c7b600b54615218565b9889600b5560405195611c8d87614b84565b8a8752898c880152611ca18d36908b614ea1565b60408801523691614ea1565b60608501523691614ea1565b6080820152600160a082015284600052600986526040600020615227565b81600052600a8452604060002094855492600160401b841015610adf57611d28847f8647b41d1ffdc302f876f0e70e0c442d110a3c8bad284218f99616149394c997986001611d8397018155614a88565b81549060031b9087821b91600019901b191617905584600052600d8652611d67604060002060405190611d5a82614b9f565b33825242898301526154bd565b6040519586958652850152608060408501526080840191614fa7565b600160608301520390a1005b60405162461bcd60e51b815260206004820152603960248201527f416b746f7220746964616b2062657268616b206d656e616d6261682072656b6160448201527f6d206d6564697320756e74756b2070617369656e20696e692e000000000000006064820152608490fd5b33600052600460205260ff6040600020541680611e9d575b611e1e575b5050611c3f565b86600052600660205260ff60076040600020015460a01c169182611e6a575b5081611e59575b50611e51575b8880611e17565b506001611e4a565b611e6491503361550b565b89611e44565b9091503360005260036020528060056040600020015416908760005260066020526007604060002001541614908a611e3d565b50600360205260ff60036040600020015416611e12565b5086600052600760205260ff60406000205416611c34565b346102c95760203660031901126102c9576004356000908152600960205260409020805460018201546001600160a01b031691611528906114fa60028201614c12565b346102c95760203660031901126102c9576001600160a01b0380611f316149d8565b16806000526007602052611f4c60ff60406000205416615180565b6000526006602052611fdf604060002091600783015416612033611f6f84614c12565b612025611f7e60018701614c12565b95612017611f8e60028301614c12565b612009611f9d60038501614c12565b611ffb611fac60048701614c12565b93611fed611fc86006611fc160058b01614c12565b9901614c12565b996040519e8f9e8f92610100808552840190614b0a565b916020818403910152614b0a565b8c810360408e015290614b0a565b908a820360608c0152614b0a565b9088820360808a0152614b0a565b9086820360a0880152614b0a565b9084820360c0860152614b0a565b9060e08301520390f35b346102c9576101003660031901126102c9576004356001600160401b0381116102c95761206e903690600401614aa0565b906024356001600160401b0381116102c95761208e903690600401614aa0565b906044356001600160401b0381116102c9576120ae903690600401614aa0565b906064356001600160401b0381116102c9576120ce903690600401614aa0565b906084356001600160401b0381116102c9576120ee903690600401614aa0565b909160a4356001600160401b0381116102c95761210f903690600401614aa0565b9490956001600160401b0360c435116102c9576121313660c435600401614aa0565b909990989060e4356001600160a01b03811690036102c95733600052600760205260ff604060002054166128f75733600052600460205260ff604060002054166128a65760018060a01b0360e43516600052600160205260ff6001604060002001541615612842578d9b336000526007602052604060002060ff1981541660011790558d6040519d6121c28f614bba565b36906121cd92614ea1565b8d5236906121da92614ea1565b60208c015236906121ea92614ea1565b60408a015236906121fa92614ea1565b6060880152369061220a92614ea1565b6080860152369061221a92614ea1565b60a0840152369061222a92614ea1565b60c082015260e4356001600160a01b031660e0820152600161010082015233600090815260066020526040902081518051906001600160401b038211610adf57819061227a826108f78654614b4a565b602090601f83116001146127dc576000926127d1575b50508160011b916000199060031b1c19161781555b602082015180516001600160401b038111610adf578060018401926122ce826108f78654614b4a565b602090601f831160011461276b57600092612760575b50508160011b916000199060031b1c19161790555b604082015180516001600160401b038111610adf57806002840192612322826108f78654614b4a565b602090601f83116001146126fa576000926126ef575b50508160011b916000199060031b1c19161790555b606082015180516001600160401b038111610adf57806003840192612376826108f78654614b4a565b602090601f83116001146126895760009261267e575b50508160011b916000199060031b1c19161790555b608082015180516001600160401b038111610adf578060048401926123ca826108f78654614b4a565b602090601f83116001146126185760009261260d575b50508160011b916000199060031b1c19161790555b60a082015180516001600160401b038111610adf5780600584019261241e826108f78654614b4a565b602090601f83116001146125a75760009261259c575b50508160011b916000199060031b1c19161790555b6006810160c08301518051906001600160401b038211610adf57612477826124718554614b4a565b85614efe565b602090601f831160011461251c5792826007936000805160206156c6833981519152989693610a4d9896600092612511575b50508160011b916000199060031b1c19161790555b019060018060a01b0360e08201511682549161010060ff60a01b910151151560a01b16916affffffffffffffffffffff60a81b16171790556124ff33614f43565b604051918291339560e4359184615051565b015190508a806124a9565b90601f198316918460005260206000209260005b8181106125845750936000805160206156c6833981519152989693610a4d989693600193836007981061256b575b505050811b0190556124be565b015160001960f88460031b161c191690558a808061255e565b92936020600181928786015181550195019301612530565b015190508780612434565b6000858152602081209350601f198516905b8181106125f557509084600195949392106125dc575b505050811b019055612449565b015160001960f88460031b161c191690558780806125cf565b929360206001819287860151815501950193016125b9565b0151905087806123e0565b6000858152602081209350601f198516905b818110612666575090846001959493921061264d575b505050811b0190556123f5565b015160001960f88460031b161c19169055878080612640565b9293602060018192878601518155019501930161262a565b01519050878061238c565b6000858152602081209350601f198516905b8181106126d757509084600195949392106126be575b505050811b0190556123a1565b015160001960f88460031b161c191690558780806126b1565b9293602060018192878601518155019501930161269b565b015190508780612338565b6000858152602081209350601f198516905b818110612748575090846001959493921061272f575b505050811b01905561234d565b015160001960f88460031b161c19169055878080612722565b9293602060018192878601518155019501930161270c565b0151905087806122e4565b6000858152602081209350601f198516905b8181106127b957509084600195949392106127a0575b505050811b0190556122f9565b015160001960f88460031b161c19169055878080612793565b9293602060018192878601518155019501930161277d565b015190508680612290565b6000858152602081209350601f198516905b81811061282a5750908460019594939210612811575b505050811b0181556122a5565b015160001960f88460031b161c19169055868080612804565b929360206001819287860151815501950193016127ee565b60405162461bcd60e51b815260206004820152603660248201527f52756d61682053616b69742079616e6720646970696c696820746964616b206160448201527535ba34b31030ba30ba903a34b230b5903b30b634b21760511b6064820152608490fd5b60405162461bcd60e51b8152602060048201526024808201527f416c616d617420696e6920746572646166746172207365626167616920646f6b6044820152633a32b91760e11b6064820152608490fd5b60405162461bcd60e51b8152602060048201526024808201527f416e64612073756461682074657264616674617220736562616761692070617360448201526334b2b71760e11b6064820152608490fd5b346102c95761295636614d72565b90600052600d602052604060002080548210156102c95760409161297991614d88565b506001808060a01b0382541691015482519182526020820152f35b346102c95760207f3dcd68c14f5f191f12b3b56bf35d5d7eb22447e9ec685290967b4558822ca98a6129c536614d43565b92909233600052600182526129e460ff60016040600020015416614fc8565b612a2560018060a01b03809516948560005260048452612a0b60ff6040600020541661507a565b8560005260038452339060056040600020015416146150c6565b83600052600382526102798160036040600020019060ff801983541691151516179055565b346102c9576020806003193601126102c957612a646149d8565b3360005260068252612a8360ff60076040600020015460a01c1661512a565b60018060a01b0380911691826000526001815260ff6001604060002001541615612b6257336000526006815282826007604060002001541614612b0d5760069033600052526007604060002001805490836001600160601b0360a01b831617905516337fc38604f7a94ec611a30efc885ad307558bb96298a0437169df5bbfb4bbb46ae2600080a4005b6084906040519062461bcd60e51b82526004820152602860248201527f416e6461207375646168207465726461667461722064692072756d616820736160448201526735b4ba1034b7349760c11b6064820152fd5b6084906040519062461bcd60e51b82526004820152602e60248201527f52756d61682053616b6974206261727520746964616b20616b7469662061746160448201526d3a903a34b230b5903b30b634b21760911b6064820152fd5b346102c9576020806003193601126102c95760043580600052600d90818352604060002054612beb8161503a565b92612bf96040519485614bf1565b818452601f199283612c0a8461503a565b013687870137612c198361503a565b93612c276040519586614bf1565b838552612c338461503a565b01368786013760005b838110612c6d57612c60866115288988604051948594604086526040860190614acd565b9184830390850152614d0f565b612cc69082600052838852612c86816040600020614d88565b50546001600160a01b0316612c9b82896155c0565b52826000528388526001612cb3826040600020614d88565b500154612cc082886155c0565b52615218565b612c3c565b346102c95760203660031901126102c9576004356002548110156102c957612cf4602091614a51565b905460405160039290921b1c6001600160a01b03168152f35b346102c95760003660031901126102c9576020600554604051908152f35b346102c95760203660031901126102c9576001600160a01b0380612d4d6149d8565b166000526006602052604060002090612d6582614c12565b90612d7260018401614c12565b92612d7f60028201614c12565b90612d8c60038201614c12565b612d9860048301614c12565b612da460058401614c12565b91612db160068501614c12565b936007015494604051988998610120808b528a01612dce91614b0a565b89810360208b0152612ddf91614b0a565b88810360408a0152612df091614b0a565b8781036060890152612e0191614b0a565b8681036080880152612e1291614b0a565b85810360a0870152612e2391614b0a565b84810360c0860152612e3491614b0a565b91811660e084015260a01c60ff1615156101008301520390f35b346102c95760203660031901126102c9576004356008548110156102c95760086000527ff3f7a9fe364faab93b216da50a3214154f22a0a2b415b23a84c8169e8b636ee301546040516001600160a01b039091168152602090f35b346102c95760003660031901126102c9576020600254604051908152f35b346102c95760203660031901126102c957600435600254811015612ef057612cf4602091614a51565b60405162461bcd60e51b815260206004820152601c60248201527f496e64656b732061646d696e20525320746964616b2076616c69642e000000006044820152606490fd5b346102c95760403660031901126102c957612f4e6149d8565b6001600160401b03906024358281116102c957612f6f903690600401614aa0565b909260018060a01b03612f8781600054163314614e38565b83169384600052600190602092828452612fa5604060002054614b4a565b61310057604051612fb581614b9f565b612fc0368785614ea1565b81528481018481528860005284865260406000209151908151938411610adf578591612ff0856108f78654614b4a565b8790601f86116001146130975761303595916000918361308c575b5050600019600383901b1c191690831b1783555b51151591019060ff801983541691151516179055565b600254600160401b811015610adf577fc881e1c26fa1da107683b7f0c3f1689379721f2118918ff97cb8c0f0dfc9d354956104b982610a4d9561307b9401600255614a51565b604051938385948552840191614fa7565b015190508c8061300b565b90601f1986169185600052896000209260005b8b8282106130ea57505091859391886130359994106130d1575b505050811b01835561301f565b015160001960f88460031b161c191690558c80806130c4565b8385015186558b979095019493840193016130aa565b60405162461bcd60e51b815260048101859052602b60248201527f41646d696e205253207375646168207465726461667461722064656e67616e2060448201526a30b630b6b0ba1034b7349760a91b6064820152608490fd5b346102c95760203660031901126102c9576001600160a01b0361317a6149d8565b166000526004602052602060ff604060002054166040519015158152f35b346102c95760003660031901126102c9576040518060085480825282602080930160086000527ff3f7a9fe364faab93b216da50a3214154f22a0a2b415b23a84c8169e8b636ee39260005b8582821061320e575050506131fa92500383614bf1565b611528604051928284938452830190614acd565b85546001600160a01b03168452600195860195889550930192016131e3565b346102c95760203660031901126102c9576004356000818152600960205260409020600101546001600160a01b03919061326a9083161515615574565b60005260096020526040600020906115288254916001840154169260ff6005820154169061329a60028201614c12565b906132b360046132ac60038401614c12565b9201614c12565b9160405196879687614cb8565b346102c95760203660031901126102c9576004356005548110156102c957612cf4602091614a04565b346102c9576020806003193601126102c9576001600160a01b03908161330d6149d8565b16806000526004825260ff6040600020541615613414576000526003815260406000209060ff600383015416926004830190806005850154169261335085614c12565b9460019361336b6002613364878501614c12565b9301614c12565b93604051958685845491828152019360005285600020926000905b8282106133fd575050505050926133d085936133de936133af6133f3986133c39c980387614bf1565b6040519a8b9a60c08c5260c08c0190614b0a565b918a8303908b0152614b0a565b908782036040890152614b0a565b91151560608601528482036080860152614acd565b9060a08301520390f35b845481168652948701949383019390830190613386565b60405162461bcd60e51b815260048101839052601760248201527f446f6b74657220746964616b20646974656d756b616e2e0000000000000000006044820152606490fd5b346102c95760203660031901126102c9576001600160a01b0361347a6149d8565b1660005260016020526134b0604060002060ff600161349883614c12565b92015416604051928392604084526040840190614b0a565b90151560208301520390f35b346102c95760803660031901126102c9576024356001600160401b0381116102c9576134ec903690600401614aa0565b906044356001600160401b0381116102c95761350c903690600401614aa0565b92906064356001600160401b0381116102c95761352d903690600401614aa0565b919094600435600052600960205260018060a01b036001604060002001541633600052600460205260ff6040600020541680613bfa575b15613bbf5780600052600660205261358960ff60076040600020015460a01c166151cc565b33600052600360205260018060a01b036005604060002001541681600052600660205260018060a01b036007604060002001541603613b54576000903360005260036020526004604060002001906000918054925b838110613b14575b5050505015613aa957600435600052600960205260406000209160018060a01b036001840154168015613a4b5760ff600585015416156139ed57600435600052600c60205260406000208454916040519261364084614b84565b8352602083015261365360028601614c12565b604083015261366460038601614c12565b606083015261367560048601614c12565b6080830152600160a08301528054600160401b811015610adf5761369e91600182018155614e1c565b9190916139d7576136ae91615227565b6001600160401b038511610adf576136d6856136cd6002860154614b4a565b60028601614efe565b846000601f82116001146139695760009161395e575b508560011b906000198760031b1c19161760028401555b6001600160401b038211610adf57819061372d826137246003870154614b4a565b60038701614efe565b600090601f83116001146138ed576000926138e2575b50508160011b916000199060031b1c19161760038201555b6001600160401b038211610adf576137838261377a6004840154614b4a565b60048401614efe565b6000601f831160011461384f57917fa06c67f47503323e059cd610f8be787c36f230a67a8ad4dc026d86692b66476b959160048261383395600091613844575b508360011b906000198560031b1c1916179101555b600435600052600d6020526138066040600020604051906137f882614b9f565b3382524260208301526154bd565b613825604051958695600435875260a0602088015260a0870191614fa7565b918483036040860152614fa7565b3360608301524260808301520390a1005b9050840135896137c3565b601f198316906004830160005260206000209160005b8181106138ca5750917fa06c67f47503323e059cd610f8be787c36f230a67a8ad4dc026d86692b66476b979391856138339694106138b0575b50506004600183811b019101556137d8565b840135600019600385901b60f8161c19169055878061389e565b9192602060018192868c013581550194019201613865565b013590508780613743565b909250600384016000526020600020906000935b601f1984168510613946576001945083601f1981161061392c575b505050811b01600382015561375b565b0135600019600384901b60f8161c1916905587808061391c565b81810135835560209485019460019093019201613901565b9050860135886136ec565b90506002840160005260206000209060005b601f19881681106139bf575086601f198116106139a5575b5050600185811b016002840155613703565b870135600019600388901b60f8161c191690558780613993565b9091602060018192858c01358155019301910161397b565b634e487b7160e01b600052600060045260246000fd5b60405162461bcd60e51b815260206004820152603060248201527f52656b616d206d6564697320696e6920737564616820746964616b2076616c6960448201526f3217b234b737b730b5ba34b335b0b71760811b6064820152608490fd5b60405162461bcd60e51b815260206004820152603060248201527f52656b616d206d6564697320746964616b20646974656d756b616e206174617560448201526f1024a2103a34b230b5903b30b634b21760811b6064820152608490fd5b60405162461bcd60e51b815260206004820152603c60248201527f446f6b74657220696e6920746964616b20646974756761736b616e20756e747560448201527f6b206d656e616e67616e692070617369656e2074657273656275742e000000006064820152608490fd5b82613b1f8284614a88565b905460039190911b1c6001600160a01b031614613b4457613b3f90615218565b6135de565b50505050506001878080806135e6565b60405162461bcd60e51b815260206004820152603860248201527f446f6b7465722064616e2070617369656e20746964616b20626572616461206460448201527f692072756d61682073616b69742079616e672073616d612e00000000000000006064820152608490fd5b60405162461bcd60e51b81526020600482015260136024820152722430b73cb0903237b5ba32b91030b5ba34b31760691b6044820152606490fd5b50600360205260ff60036040600020015416613564565b346102c95760003660031901126102c9576020600b54604051908152f35b346102c95760003660031901126102c9576000546040516001600160a01b039091168152602090f35b346102c95760203660031901126102c957611528613c7c613c776149d8565b6155d4565b604051918291602083526020830190614b0a565b346102c95760403660031901126102c957613ca96149d8565b613cb16149ee565b3360005260209160018352613cd060ff60016040600020015416614fc8565b60018060a01b03808216908160005260048552613cf460ff6040600020541661507a565b81600052600394858152613d13338360056040600020015416146150c6565b818516928360005260078252613d3060ff604060002054166151cc565b83600052600682528260076040600020015416338114908115613f42575b5015613ebf5783600052600682526007604060002001805484811615613e7d575b50506000969296528181526004604060002001926000968454975b888110613dfa575050505050600160401b841015610adf57826104b985613dd79360017fd9a2627959a7f46a8b96c10424cdae1f1b65151551cd206b119aca54c0a86a5a98018155614a88565b604080516001600160a01b039283168152929091166020830152819081016103f4565b8282613e068389614a88565b905490881b1c1614613e2057613e1b90615218565b613d8a565b60405162461bcd60e51b815260048101859052602f60248201527f50617369656e20696e6920737564616820646974756761736b616e206b65206460448201526e37b5ba32b9103a32b939b2b13aba1760891b6064820152608490fd5b33906001600160601b0360a01b16179055837f69d83204045c5e6656db57329ac5a8bb701f71f3c217dcf6092cee7cdf1ffae383604051338152a28780613d6f565b60405162461bcd60e51b815260048101839052604f60248201527f50617369656e20696e6920746964616b2074657264616674617220646920727560448201527f6d61682073616b697420416e646120617461752073756461682064692d61737360648201526e34b3b71035b2902929903630b4b71760891b608482015260a490fd5b90501588613d4e565b346102c95760003660031901126102c9576040518060025480825282602080930160026000527f405787fa12a823e0f2b7631cc41b3ba8828b3321ca811111fa75cd3aa3bb5ace9260005b85828210613fad575050506131fa92500383614bf1565b85546001600160a01b0316845260019586019588955093019201613f96565b346102c95760203660031901126102c957613fe56149d8565b600054906001600160a01b0390613fff3383851614614e38565b16908115614017576001600160a01b03191617600055005b60405162461bcd60e51b8152602060048201526024808201527f416c616d61742073757065722061646d696e206261727520746964616b2076616044820152633634b21760e11b6064820152608490fd5b346102c95760203660031901126102c9576001600160a01b036140896149d8565b166000526007602052602060ff604060002054166040519015158152f35b346102c9576020806003193601126102c9576004359033600052600181526140d960ff60016040600020015416614fc8565b60008281526009825260409020600101546001600160a01b03906141009082161515615574565b8260005260098252806001604060002001541660005260068252339060076040600020015416036141455760009182526009905260409020600501805460ff19169055005b6084906040519062461bcd60e51b82526004820152602660248201527f41646d696e20525320746964616b2062657268616b2061746173207061736965604482015265371034b7349760d11b6064820152fd5b346102c95760203660031901126102c9576004356005548110156141c157612cf4602091614a04565b60405162461bcd60e51b815260206004820152601a60248201527f496e64656b7320646f6b74657220746964616b2076616c69642e0000000000006044820152606490fd5b346102c95760e03660031901126102c9576004356001600160401b0381116102c957614236903690600401614aa0565b60805260c0526024356001600160401b0381116102c95761425b903690600401614aa0565b906044356001600160401b0381116102c95761427b903690600401614aa0565b92906064356001600160401b0381116102c95761429c903690600401614aa0565b906084356001600160401b0381116102c9576142bc903690600401614aa0565b909160a4356001600160401b0381116102c9576142dd903690600401614aa0565b94909560c4356001600160401b0381116102c9576142ff903690600401614aa0565b60a09b919b5233600052600660205261432560ff60076040600020015460a01c1661512a565b33600052600660205260406000206080516001600160401b038111610adf57614352906118ef8354614b4a565b6000608051601f8111600114614915575060006080519182614908575b508160011b916000199060031b1c19161781555b6001600160401b038a11610adf576143ab8a6143a26001840154614b4a565b60018401614efe565b896000601f821160011461489a5760009161488f575b508a60011b906000198c60031b1c19161760018201555b6001600160401b038211610adf57600281016143f8836118ef8354614b4a565b826000601f821160011461482a5760009161481f575b508360011b906000198560031b1c19161790555b6001600160401b038411610adf5761444a846144416003840154614b4a565b60038401614efe565b836000601f82116001146147b1576000916147a6575b508460011b906000198660031b1c19161760038201555b6001600160401b038611610adf576144968661377a6004840154614b4a565b856000601f82116001146147385760009161472d575b508660011b906000198860031b1c19161760048201555b6001600160401b038811610adf576144eb886144e26005840154614b4a565b60058401614efe565b876000601f82116001146146bd576000916146b2575b508860011b906000198a60031b1c19161760058201555b60a0516001600160401b038111610adf576145439061453a6006840154614b4a565b60068401614efe565b60a0518c60006001601f84111461463c576006925060009060a0519283614631575b50508160011b916000199060031b1c1916179101555b604051998a9960e08b5260e08b016080519060c0519161459a92614fa7565b908b820360208d01526145ac92614fa7565b9089820360408b01526145be92614fa7565b9087820360608901526145d092614fa7565b9085820360808701526145e292614fa7565b9083820360a08501526145f492614fa7565b9281840360c0830152339360a05161460b92614fa7565b037f5bf1a01557f5d2a881b530f82df1618e3c06d1a0b7ab3be7ff74e54ead39bd3491a2005b013590508f8f614565565b9050600683016000528d60206000209160005b601f19851681106146975750918391600193600695601f1981161061467d575b505050811b0191015561457b565b0135600019600384901b60f8161c191690558f8f8161466f565b91600182946020938493013581550193019101908f9161464f565b90508901358d614501565b90506005820160005260206000209060005b8b601f198c16821061471557505089601f198116106146fb575b5050600188811b016005820155614518565b8a013560001960038b901b60f8161c191690558c806146e9565b600183946020939484930135815501930191016146cf565b90508701358d6144ac565b90506004820160005260206000209060005b601f198916811061478e575087601f19811610614774575b5050600186811b0160048201556144c3565b880135600019600389901b60f8161c191690558c80614762565b9091602060018192858d01358155019301910161474a565b90508501358d614460565b90506003820160005260206000209060005b601f1987168110614807575085601f198116106147ed575b5050600184811b016003820155614477565b860135600019600387901b60f8161c191690558c806147db565b9091602060018192858b0135815501930191016147c3565b90508401358e61440e565b60008381526020812092505b601f1986168110614877575084601f1981161061485d575b5050600183811b019055614422565b850135600019600386901b60f8161c191690558d8061484e565b9091602060018192858a013581550193019101614836565b90508b01358d6143c1565b8c91601f198116600185016000526020600020936000905b8282106148ed575050106148d3575b505060018a811b0160018201556143d8565b8c013560001960038d901b60f8161c191690558c806148c1565b84013585556001909401936020938401938f9350018f6148b2565b905060c05101358e61436f565b82600052602060002060009260c051905b601f1984168510614968576001945083601f1981161061494e575b505050811b018155614383565b0135600019600384901b60f8161c191690558e8080614941565b81810135835560209485019460019093019201614926565b346102c95760403660031901126102c9576149996149d8565b6001600160a01b03166000908152600a60205260409020805460243591908210156102c9576020916149ca91614a88565b90546040519160031b1c8152f35b600435906001600160a01b03821682036102c957565b602435906001600160a01b03821682036102c957565b600554811015614a3b5760056000527f036b6384b5eca791c62761152d0c79bb0604c104a5fb6f4eb0703f3154bb3db00190600090565b634e487b7160e01b600052603260045260246000fd5b600254811015614a3b5760026000527f405787fa12a823e0f2b7631cc41b3ba8828b3321ca811111fa75cd3aa3bb5ace0190600090565b8054821015614a3b5760005260206000200190600090565b9181601f840112156102c9578235916001600160401b0383116102c957602083818601950101116102c957565b90815180825260208080930193019160005b828110614aed575050505090565b83516001600160a01b031685529381019392810192600101614adf565b919082519283825260005b848110614b36575050826000602080949584010152601f8019910116010190565b602081830181015184830182015201614b15565b90600182811c92168015614b7a575b6020831014614b6457565b634e487b7160e01b600052602260045260246000fd5b91607f1691614b59565b60c081019081106001600160401b03821117610adf57604052565b604081019081106001600160401b03821117610adf57604052565b61012081019081106001600160401b03821117610adf57604052565b602081019081106001600160401b03821117610adf57604052565b90601f801991011681019081106001600160401b03821117610adf57604052565b9060405191826000825492614c2684614b4a565b908184526001948581169081600014614c955750600114614c52575b5050614c5092500383614bf1565b565b9093915060005260209081600020936000915b818310614c7d575050614c5093508201013880614c42565b85548884018501529485019487945091830191614c65565b915050614c5094506020925060ff191682840152151560051b8201013880614c42565b949193614ceb614d079460a096614cf9949a999a8952600180891b0316602089015260c0604089015260c0880190614b0a565b908682036060880152614b0a565b908482036080860152614b0a565b931515910152565b90815180825260208080930193019160005b828110614d2f575050505090565b835185529381019392810192600101614d21565b60409060031901126102c9576004356001600160a01b03811681036102c9579060243580151581036102c95790565b60409060031901126102c9576004359060243590565b8054821015614a3b5760005260206000209060011b0190600090565b60806003198201126102c9576004356001600160a01b03811681036102c957916001600160401b036024358181116102c95783614de391600401614aa0565b939093926044358381116102c95782614dfe91600401614aa0565b939093926064359182116102c957614e1891600401614aa0565b9091565b8054821015614a3b576000526006602060002091020190600090565b15614e3f57565b60405162461bcd60e51b815260206004820152603460248201527f48616e79612073757065722061646d696e2079616e67206461706174206d656e6044820152733530b630b735b0b710333ab733b9b49034b7349760611b6064820152608490fd5b9291926001600160401b038211610adf5760405191614eca601f8201601f191660200184614bf1565b8294818452818301116102c9578281602093846000960137010152565b818110614ef2575050565b60008155600101614ee7565b9190601f8111614f0d57505050565b614c50926000526020600020906020601f840160051c83019310614f39575b601f0160051c0190614ee7565b9091508190614f2c565b600854600160401b811015610adf576001810180600855811015614a3b5760086000527ff3f7a9fe364faab93b216da50a3214154f22a0a2b415b23a84c8169e8b636ee30180546001600160a01b0319166001600160a01b03909216919091179055565b908060209392818452848401376000828201840152601f01601f1916010190565b15614fcf57565b60405162461bcd60e51b815260206004820152603c60248201527f48616e79612061646d696e2052532079616e6720616b7469662079616e67206460448201527f61706174206d656e6a616c616e6b616e2066756e67736920696e692e000000006064820152608490fd5b6001600160401b038111610adf5760051b60200190565b9160209161506a91959495604085526040850191614fa7565b6001600160a01b03909416910152565b1561508157565b60405162461bcd60e51b815260206004820152601760248201527f446f6b74657220746964616b207465726461667461722e0000000000000000006044820152606490fd5b156150cd57565b60405162461bcd60e51b815260206004820152602f60248201527f446f6b74657220696e6920746964616b2074657264616674617220646920727560448201526e36b0b41039b0b5b4ba1020b732309760891b6064820152608490fd5b1561513157565b60405162461bcd60e51b815260206004820152602160248201527f446174612070617369656e20416e646120746964616b20646974656d756b616e6044820152601760f91b6064820152608490fd5b1561518757565b60405162461bcd60e51b815260206004820152601760248201527f50617369656e20746964616b20646974656d756b616e2e0000000000000000006044820152606490fd5b156151d357565b60405162461bcd60e51b815260206004820152601760248201527f50617369656e20746964616b207465726461667461722e0000000000000000006044820152606490fd5b60001981146105195760010190565b815181556001918282019260209360018060a01b0385840151166001600160601b0360a01b8254161790556002830160408301519081516001600160401b0392838211610adf57819061527e826108f78654614b4a565b8890601f831160011461545a5760009261544f575b5050600019600383901b1c191690841b1790555b600384016060840151805190838211610adf5781906152ca826108f78654614b4a565b8890601f83116001146153ec576000926153e1575b5050600019600383901b1c191690841b1790555b60048401916080840151958651928311610adf57615315836108f78654614b4a565b80601f841160011461536d575091808060a0959360059795614c509a600094615362575b50501b916000199060031b1c19161790555b0151151591019060ff801983541691151516179055565b015192503880615339565b9193949596601f1984168660005283600020936000905b8282106153ca5750509260a095928592614c509a999660059996106153b1575b505050811b01905561534b565b015160001960f88460031b161c191690553880806153a4565b808886978294978701518155019601940190615384565b0151905038806152df565b90869350601f19831691856000528a6000209260005b8c8282106154395750508411615420575b505050811b0190556152f3565b015160001960f88460031b161c19169055388080615413565b8385015186558a97909501949384019301615402565b015190503880615293565b90869350601f19831691856000528a6000209260005b8c8282106154a7575050841161548e575b505050811b0190556152a7565b015160001960f88460031b161c19169055388080615481565b8385015186558a97909501949384019301615470565b8054600160401b811015610adf576154da91600182018155614d88565b9190916139d757805182546001600160a01b0319166001600160a01b03919091161782556020015160019190910155565b9060018060a01b038092166000526003918260205260046040600020016000938154945b85811061554157505050505050600090565b8361554c8285614a88565b905490841b1c16848616146155695761556490615218565b61552f565b505050505050600190565b1561557b57565b60405162461bcd60e51b815260206004820152601c60248201527f52656b616d206d6564697320746964616b20646974656d756b616e2e000000006044820152606490fd5b8051821015614a3b5760209160051b010190565b6000805490916001600160a01b039081169116811461569d578082526020916001835260409160ff6001848420015416615684578082526004845260ff838320541661566c578152600783528190205460ff1661564c57662ab735b737bbb760c91b90519161564283614b9f565b6007835282015290565b652830b9b4b2b760d11b90519161566283614b9f565b6006835282015290565b5050652237b5ba32b960d11b90519161566283614b9f565b50506641646d696e525360c81b90519161564283614b9f565b50506040516156ab81614b9f565b600a81526929bab832b920b236b4b760b11b60208201529056febc415dfc2764939233ab67a4f55915cc2bb9d94ecafbfb254036de3cd0dbb3a8a2646970667358221220e88fdda68b9cf8a5dde614b68136ee7442e6cf88cc4c835083d95c7e4bce800164736f6c63430008130033",
  "immutableReferences": {},
  "source": "// SPDX-License-Identifier: MIT\r\npragma solidity ^0.8.0;\r\n\r\ncontract RekamMedisRS {\r\n    address public superAdmin;\r\n\r\n    struct AdminRS {\r\n        string namaRumahSakit;\r\n        bool aktif;\r\n    }\r\n    mapping(address => AdminRS) public dataAdmin;\r\n    address[] public daftarAdmin;\r\n\r\n    struct Dokter {\r\n        string nama;\r\n        string spesialisasi;\r\n        string nomorLisensi;\r\n        bool aktif;\r\n        address[] assignedPasien;\r\n        address adminRS; // Rumah sakit tempat dokter bertugas\r\n    }\r\n    mapping(address => Dokter) public dataDokter;\r\n    mapping(address => bool) public isDokter;\r\n    address[] public daftarDokter; // Ditambahkan untuk melacak semua dokter\r\n\r\n    struct Pasien {\r\n        string nama;\r\n        string golonganDarah;\r\n        string tanggalLahir;\r\n        string gender;\r\n        string alamat;\r\n        string noTelepon;\r\n        string email;\r\n        address rumahSakitPenanggungJawab;\r\n        bool exists;\r\n    }\r\n    mapping(address => Pasien) public dataPasien;\r\n    mapping(address => bool) public isPasien;\r\n    address[] public daftarPasien; // Ditambahkan untuk melacak semua pasien\r\n\r\n    struct UpdateInfo {\r\n        address dokter; // alamat aktor yang melakukan update/pembuatan (bisa dokter atau pasien)\r\n        uint256 timestamp; // waktu update (block.timestamp)\r\n    }\r\n\r\n    struct RekamMedisData {\r\n        uint id;\r\n        address pasien;\r\n        string diagnosa;\r\n        string foto;\r\n        string catatan;\r\n        bool valid;\r\n    }\r\n    mapping(uint => RekamMedisData) public rekamMedis;\r\n    mapping(address => uint[]) public rekamMedisByPasien;\r\n    uint public rekamMedisCount;\r\n\r\n    // History versi rekam medis\r\n    mapping(uint => RekamMedisData[]) public rekamMedisVersions;\r\n    mapping(uint => UpdateInfo[]) public rekamMedisUpdateHistory;\r\n\r\n    // Events\r\n    event AdminRSTerdaftar(address indexed admin, string namaRumahSakit);\r\n    event AdminRSStatusDiubah(address indexed admin, bool aktif);\r\n    event DokterTerdaftar(address indexed dokter, string nama, address adminRS);\r\n    event DokterStatusDiubah(address indexed dokter, bool aktif);\r\n    event DokterInfoDiperbarui(\r\n        // Event untuk update info dokter\r\n        address indexed dokter,\r\n        string nama,\r\n        string spesialisasi,\r\n        string nomorLisensi,\r\n        address indexed adminRS\r\n    );\r\n    event PasienTerdaftar(address indexed pasien, string nama, address adminRS);\r\n    event PasienPindahRS(address indexed pasien, address adminRS); // Belum ada fungsinya\r\n    event PasienDiassignKeDokter(address dokter, address pasien);\r\n    event RekamMedisDitambahkan(\r\n        uint id,\r\n        address pasien,\r\n        string diagnosa,\r\n        bool valid\r\n    );\r\n    event RekamMedisDiperbarui(\r\n        uint id,\r\n        string diagnosa,\r\n        string catatan,\r\n        address dokter, // Aktor yang memperbarui\r\n        uint timestamp\r\n    );\r\n\r\n    event PasienDiunassignDariDokter(address dokter, address pasien);\r\n\r\n    // --- EVENT BARU UNTUK PASIEN ---\r\n    event PasienDataDiperbarui(\r\n        address indexed pasien,\r\n        string nama,\r\n        string golonganDarah,\r\n        string tanggalLahir,\r\n        string gender,\r\n        string alamat,\r\n        string noTelepon,\r\n        string email\r\n    );\r\n    event PasienRumahSakitDiperbarui(\r\n        address indexed pasien,\r\n        address indexed oldAdminRS,\r\n        address indexed newAdminRS\r\n    );\r\n    // ----------------------------\r\n\r\n    constructor() {\r\n        superAdmin = 0xB0dC0Bf642d339517438017Fc185Bb0f758A01D2; // Sesuai kode Anda\r\n    }\r\n\r\n    // Modifier\r\n    modifier hanyaSuperAdmin() {\r\n        require(\r\n            msg.sender == superAdmin,\r\n            \"Hanya super admin yang dapat menjalankan fungsi ini.\"\r\n        );\r\n        _;\r\n    }\r\n\r\n    modifier hanyaAdminRS() {\r\n        require(\r\n            dataAdmin[msg.sender].aktif,\r\n            \"Hanya admin RS yang aktif yang dapat menjalankan fungsi ini.\"\r\n        );\r\n        _;\r\n    }\r\n\r\n    modifier hanyaDokterAktif() {\r\n        require(\r\n            isDokter[msg.sender] && dataDokter[msg.sender].aktif,\r\n            \"Hanya dokter yang aktif yang dapat menjalankan fungsi ini.\"\r\n        );\r\n        _;\r\n    }\r\n\r\n    modifier hanyaDokterAktifUntukPasien(address _pasien) {\r\n        require(\r\n            isDokter[msg.sender] && dataDokter[msg.sender].aktif,\r\n            \"Hanya dokter aktif.\"\r\n        );\r\n        require(dataPasien[_pasien].exists, \"Pasien tidak terdaftar.\"); // Pastikan pasien ada\r\n        require(\r\n            dataDokter[msg.sender].adminRS ==\r\n                dataPasien[_pasien].rumahSakitPenanggungJawab,\r\n            \"Dokter dan pasien tidak berada di rumah sakit yang sama.\"\r\n        );\r\n        bool assigned = false;\r\n        address[] storage listPasienDitugaskan = dataDokter[msg.sender]\r\n            .assignedPasien;\r\n        for (uint i = 0; i < listPasienDitugaskan.length; i++) {\r\n            if (listPasienDitugaskan[i] == _pasien) {\r\n                assigned = true;\r\n                break;\r\n            }\r\n        }\r\n        require(\r\n            assigned,\r\n            \"Dokter ini tidak ditugaskan untuk menangani pasien tersebut.\"\r\n        );\r\n        _;\r\n    }\r\n\r\n    modifier hanyaPasien(address _pasien) {\r\n        // Modifier untuk pasien tertentu\r\n        require(\r\n            msg.sender == _pasien,\r\n            \"Hanya pasien yang bersangkutan yang dapat menjalankan fungsi ini.\"\r\n        );\r\n        _;\r\n    }\r\n\r\n    function registerAdminRS(\r\n        address _admin,\r\n        string calldata _namaRS\r\n    ) external hanyaSuperAdmin {\r\n        require(\r\n            bytes(dataAdmin[_admin].namaRumahSakit).length == 0,\r\n            \"Admin RS sudah terdaftar dengan alamat ini.\"\r\n        );\r\n        dataAdmin[_admin] = AdminRS({namaRumahSakit: _namaRS, aktif: true});\r\n        daftarAdmin.push(_admin);\r\n        emit AdminRSTerdaftar(_admin, _namaRS);\r\n    }\r\n\r\n    function getAllAdminRSAddresses() external view returns (address[] memory) {\r\n        return daftarAdmin;\r\n    }\r\n\r\n    function setStatusAdminRS(\r\n        address _admin,\r\n        bool _aktif\r\n    ) external hanyaSuperAdmin {\r\n        require(\r\n            bytes(dataAdmin[_admin].namaRumahSakit).length != 0,\r\n            \"Admin RS tidak ditemukan.\"\r\n        );\r\n        dataAdmin[_admin].aktif = _aktif;\r\n        emit AdminRSStatusDiubah(_admin, _aktif);\r\n    }\r\n\r\n    function totalAdmin() external view returns (uint) {\r\n        return daftarAdmin.length;\r\n    }\r\n\r\n    function getAdminByIndex(uint idx) external view returns (address) {\r\n        require(idx < daftarAdmin.length, \"Indeks admin RS tidak valid.\");\r\n        return daftarAdmin[idx];\r\n    }\r\n\r\n    function registerDokter(\r\n        address _dokter,\r\n        string calldata _nama,\r\n        string calldata _spesialisasi,\r\n        string calldata _nomorLisensi\r\n    ) external hanyaAdminRS {\r\n        require(\r\n            !isDokter[_dokter],\r\n            \"Alamat ini sudah terdaftar sebagai dokter.\"\r\n        );\r\n        require(\r\n            !isPasien[_dokter],\r\n            \"Alamat ini terdaftar sebagai pasien, tidak bisa menjadi dokter.\"\r\n        );\r\n        isDokter[_dokter] = true;\r\n        dataDokter[_dokter] = Dokter({\r\n            nama: _nama,\r\n            spesialisasi: _spesialisasi,\r\n            nomorLisensi: _nomorLisensi,\r\n            aktif: true,\r\n            assignedPasien: new address[](0),\r\n            adminRS: msg.sender\r\n        });\r\n        daftarDokter.push(_dokter);\r\n        emit DokterTerdaftar(_dokter, _nama, msg.sender);\r\n    }\r\n\r\n    function updateDokterInfo(\r\n        address _dokter,\r\n        string calldata _namaBaru,\r\n        string calldata _spesialisasiBaru,\r\n        string calldata _nomorLisensiBaru\r\n    ) external hanyaAdminRS {\r\n        require(isDokter[_dokter], \"Dokter tidak terdaftar di sistem.\");\r\n        require(\r\n            dataDokter[_dokter].adminRS == msg.sender,\r\n            \"Anda bukan admin RS yang berhak untuk dokter ini.\"\r\n        );\r\n\r\n        Dokter storage dokterToUpdate = dataDokter[_dokter];\r\n        dokterToUpdate.nama = _namaBaru;\r\n        dokterToUpdate.spesialisasi = _spesialisasiBaru;\r\n        dokterToUpdate.nomorLisensi = _nomorLisensiBaru;\r\n\r\n        emit DokterInfoDiperbarui(\r\n            _dokter,\r\n            _namaBaru,\r\n            _spesialisasiBaru,\r\n            _nomorLisensiBaru,\r\n            msg.sender\r\n        );\r\n    }\r\n\r\n    function setStatusDokter(\r\n        address _dokter,\r\n        bool _aktif\r\n    ) external hanyaAdminRS {\r\n        require(isDokter[_dokter], \"Dokter tidak terdaftar.\");\r\n        require(\r\n            dataDokter[_dokter].adminRS == msg.sender,\r\n            \"Dokter ini tidak terdaftar di rumah sakit Anda.\"\r\n        );\r\n        dataDokter[_dokter].aktif = _aktif;\r\n        emit DokterStatusDiubah(_dokter, _aktif);\r\n    }\r\n\r\n    function totalDokter() external view returns (uint) {\r\n        return daftarDokter.length;\r\n    }\r\n\r\n    function getDokterByIndex(uint idx) external view returns (address) {\r\n        require(idx < daftarDokter.length, \"Indeks dokter tidak valid.\");\r\n        return daftarDokter[idx];\r\n    }\r\n\r\n    function getDokter(\r\n        address _dokter\r\n    )\r\n        external\r\n        view\r\n        returns (\r\n            string memory nama,\r\n            string memory spesialisasi,\r\n            string memory nomorLisensi,\r\n            bool aktif,\r\n            address[] memory pasienList,\r\n            address adminRS\r\n        )\r\n    {\r\n        require(isDokter[_dokter], \"Dokter tidak ditemukan.\");\r\n        Dokter storage d = dataDokter[_dokter];\r\n        return (\r\n            d.nama,\r\n            d.spesialisasi,\r\n            d.nomorLisensi,\r\n            d.aktif,\r\n            d.assignedPasien,\r\n            d.adminRS\r\n        );\r\n    }\r\n\r\n    function registerPasien(\r\n        address _pasien,\r\n        string calldata _nama,\r\n        address _adminRS // Alamat Admin RS yang mendaftarkan\r\n    ) external hanyaAdminRS {\r\n        // Hanya admin RS yang aktif yang bisa mendaftarkan\r\n        require(\r\n            !isPasien[_pasien],\r\n            \"Pasien sudah terdaftar dengan alamat ini.\"\r\n        );\r\n        require(\r\n            !isDokter[_pasien],\r\n            \"Alamat ini terdaftar sebagai dokter, tidak bisa menjadi pasien.\"\r\n        );\r\n        require(\r\n            dataAdmin[_adminRS].aktif,\r\n            \"Admin RS yang dirujuk tidak aktif.\"\r\n        ); // Pastikan admin RS penanggung jawab aktif\r\n        require(\r\n            msg.sender == _adminRS,\r\n            \"Hanya admin RS penanggung jawab yang bisa mendaftarkan pasien ini.\"\r\n        );\r\n\r\n        isPasien[_pasien] = true;\r\n        dataPasien[_pasien] = Pasien({\r\n            nama: _nama,\r\n            golonganDarah: \"\",\r\n            tanggalLahir: \"\",\r\n            gender: \"\",\r\n            alamat: \"\",\r\n            noTelepon: \"\",\r\n            email: \"\",\r\n            rumahSakitPenanggungJawab: _adminRS,\r\n            exists: true\r\n        });\r\n        daftarPasien.push(_pasien);\r\n        emit PasienTerdaftar(_pasien, _nama, _adminRS);\r\n    }\r\n\r\n    function selfRegisterPasien(\r\n        string calldata _nama,\r\n        string calldata _golonganDarah,\r\n        string calldata _tanggalLahir,\r\n        string calldata _gender,\r\n        string calldata _alamat,\r\n        string calldata _noTelepon,\r\n        string calldata _email,\r\n        address _adminRS // Admin RS yang dipilih pasien sebagai penanggung jawab awal\r\n    ) external {\r\n        require(!isPasien[msg.sender], \"Anda sudah terdaftar sebagai pasien.\");\r\n        require(!isDokter[msg.sender], \"Alamat ini terdaftar sebagai dokter.\");\r\n        require(\r\n            dataAdmin[_adminRS].aktif,\r\n            \"Rumah Sakit yang dipilih tidak aktif atau tidak valid.\"\r\n        );\r\n\r\n        isPasien[msg.sender] = true;\r\n        dataPasien[msg.sender] = Pasien({\r\n            nama: _nama,\r\n            golonganDarah: _golonganDarah,\r\n            tanggalLahir: _tanggalLahir,\r\n            gender: _gender,\r\n            alamat: _alamat,\r\n            noTelepon: _noTelepon,\r\n            email: _email,\r\n            rumahSakitPenanggungJawab: _adminRS,\r\n            exists: true\r\n        });\r\n        daftarPasien.push(msg.sender);\r\n        emit PasienTerdaftar(msg.sender, _nama, _adminRS);\r\n    }\r\n\r\n    // --- FUNGSI BARU UNTUK PASIEN: UPDATE DATA DIRI ---\r\n    function updatePasienData(\r\n        string calldata _nama,\r\n        string calldata _golonganDarah,\r\n        string calldata _tanggalLahir,\r\n        string calldata _gender,\r\n        string calldata _alamat,\r\n        string calldata _noTelepon,\r\n        string calldata _email\r\n    ) external hanyaPasien(msg.sender) {\r\n        require(\r\n            dataPasien[msg.sender].exists,\r\n            \"Data pasien Anda tidak ditemukan.\"\r\n        );\r\n\r\n        Pasien storage pasienToUpdate = dataPasien[msg.sender];\r\n        pasienToUpdate.nama = _nama;\r\n        pasienToUpdate.golonganDarah = _golonganDarah;\r\n        pasienToUpdate.tanggalLahir = _tanggalLahir;\r\n        pasienToUpdate.gender = _gender;\r\n        pasienToUpdate.alamat = _alamat;\r\n        pasienToUpdate.noTelepon = _noTelepon;\r\n        pasienToUpdate.email = _email;\r\n\r\n        emit PasienDataDiperbarui(\r\n            msg.sender,\r\n            _nama,\r\n            _golonganDarah,\r\n            _tanggalLahir,\r\n            _gender,\r\n            _alamat,\r\n            _noTelepon,\r\n            _email\r\n        );\r\n    }\r\n    // ------------------------------------------------\r\n\r\n    // --- FUNGSI BARU UNTUK PASIEN: UPDATE RUMAH SAKIT PENANGGUNG JAWAB ---\r\n    function updatePasienRumahSakit(\r\n        address _newAdminRS\r\n    ) external hanyaPasien(msg.sender) {\r\n        require(\r\n            dataPasien[msg.sender].exists,\r\n            \"Data pasien Anda tidak ditemukan.\"\r\n        );\r\n        require(\r\n            dataAdmin[_newAdminRS].aktif,\r\n            \"Rumah Sakit baru tidak aktif atau tidak valid.\"\r\n        );\r\n        require(\r\n            dataPasien[msg.sender].rumahSakitPenanggungJawab != _newAdminRS,\r\n            \"Anda sudah terdaftar di rumah sakit ini.\"\r\n        );\r\n\r\n        address oldAdminRS = dataPasien[msg.sender].rumahSakitPenanggungJawab;\r\n        dataPasien[msg.sender].rumahSakitPenanggungJawab = _newAdminRS;\r\n\r\n        emit PasienRumahSakitDiperbarui(msg.sender, oldAdminRS, _newAdminRS);\r\n    }\r\n    // ------------------------------------------------------------------\r\n\r\n    function getDaftarPasien() external view returns (address[] memory) {\r\n        return daftarPasien;\r\n    }\r\n\r\n    function getPasienData(\r\n        address _pasien\r\n    )\r\n        external\r\n        view\r\n        returns (\r\n            string memory nama,\r\n            string memory golonganDarah,\r\n            string memory tanggalLahir,\r\n            string memory gender,\r\n            string memory alamat,\r\n            string memory noTelepon,\r\n            string memory email,\r\n            address rumahSakitPenanggungJawab\r\n        )\r\n    {\r\n        require(isPasien[_pasien], \"Pasien tidak ditemukan.\");\r\n        Pasien storage p = dataPasien[_pasien];\r\n        return (\r\n            p.nama,\r\n            p.golonganDarah,\r\n            p.tanggalLahir,\r\n            p.gender,\r\n            p.alamat,\r\n            p.noTelepon,\r\n            p.email,\r\n            p.rumahSakitPenanggungJawab\r\n        );\r\n    }\r\n\r\n    function assignPasienToDokter(\r\n        address _dokter,\r\n        address _pasien\r\n    ) external hanyaAdminRS {\r\n        require(isDokter[_dokter], \"Dokter tidak terdaftar.\");\r\n        require(\r\n            dataDokter[_dokter].adminRS == msg.sender,\r\n            \"Dokter ini tidak terdaftar di rumah sakit Anda.\"\r\n        );\r\n        require(isPasien[_pasien], \"Pasien tidak terdaftar.\");\r\n        // Dikembalikan ke logika lama yang memungkinkan AdminRS meng-assign pasien yang rumahSakitPenanggungJawab-nya address(0)\r\n        require(\r\n            dataPasien[_pasien].rumahSakitPenanggungJawab == msg.sender ||\r\n                dataPasien[_pasien].rumahSakitPenanggungJawab == address(0),\r\n            \"Pasien ini tidak terdaftar di rumah sakit Anda atau sudah di-assign ke RS lain.\"\r\n        );\r\n        // Jika pasien self-register dan belum punya RS penanggung jawab, set RS penanggung jawabnya ke RS Admin ini\r\n        if (dataPasien[_pasien].rumahSakitPenanggungJawab == address(0)) {\r\n            dataPasien[_pasien].rumahSakitPenanggungJawab = msg.sender;\r\n            emit PasienPindahRS(_pasien, msg.sender);\r\n        }\r\n\r\n        address[] storage listPasienDitugaskan = dataDokter[_dokter]\r\n            .assignedPasien;\r\n        for (uint i = 0; i < listPasienDitugaskan.length; i++) {\r\n            require(\r\n                listPasienDitugaskan[i] != _pasien,\r\n                \"Pasien ini sudah ditugaskan ke dokter tersebut.\"\r\n            );\r\n        }\r\n        listPasienDitugaskan.push(_pasien);\r\n        emit PasienDiassignKeDokter(_dokter, _pasien);\r\n    }\r\n\r\n    function unassignPasienFromDokter(\r\n        address _dokter,\r\n        address _pasien\r\n    ) external hanyaAdminRS {\r\n        require(isDokter[_dokter], \"Dokter tidak terdaftar.\");\r\n        require(\r\n            dataDokter[_dokter].adminRS == msg.sender,\r\n            \"Dokter ini tidak terdaftar di rumah sakit Anda.\"\r\n        );\r\n        require(isPasien[_pasien], \"Pasien tidak terdaftar.\");\r\n        require(\r\n            dataPasien[_pasien].rumahSakitPenanggungJawab == msg.sender,\r\n            \"Pasien ini tidak terdaftar di rumah sakit Anda.\"\r\n        );\r\n\r\n        bool found = false;\r\n        address[] storage listPasienDitugaskan = dataDokter[_dokter]\r\n            .assignedPasien;\r\n        for (uint i = 0; i < listPasienDitugaskan.length; i++) {\r\n            if (listPasienDitugaskan[i] == _pasien) {\r\n                // Geser elemen terakhir ke posisi saat ini dan kurangi panjang array\r\n                listPasienDitugaskan[i] = listPasienDitugaskan[\r\n                    listPasienDitugaskan.length - 1\r\n                ];\r\n                listPasienDitugaskan.pop();\r\n                found = true;\r\n                break;\r\n            }\r\n        }\r\n        require(found, \"Pasien tidak ditugaskan ke dokter ini.\");\r\n        emit PasienDiunassignDariDokter(_dokter, _pasien); // Tambahkan event ini juga di atas\r\n    }\r\n\r\n    function isAssigned(\r\n        address _dokter,\r\n        address _pasien\r\n    ) internal view returns (bool) {\r\n        address[] storage list = dataDokter[_dokter].assignedPasien;\r\n        for (uint i = 0; i < list.length; i++) {\r\n            if (list[i] == _pasien) {\r\n                return true;\r\n            }\r\n        }\r\n        return false;\r\n    }\r\n\r\n    function tambahRekamMedis(\r\n        address _pasien,\r\n        string calldata _diagnosa,\r\n        string calldata _foto,\r\n        string calldata _catatan\r\n    ) external {\r\n        bool isValidActor = false;\r\n        if (msg.sender == _pasien && isPasien[_pasien]) {\r\n            isValidActor = true;\r\n        } else if (isDokter[msg.sender] && dataDokter[msg.sender].aktif) {\r\n            if (\r\n                dataPasien[_pasien].exists &&\r\n                dataDokter[msg.sender].adminRS ==\r\n                dataPasien[_pasien].rumahSakitPenanggungJawab &&\r\n                isAssigned(msg.sender, _pasien)\r\n            ) {\r\n                isValidActor = true;\r\n            }\r\n        }\r\n        require(\r\n            isValidActor,\r\n            \"Aktor tidak berhak menambah rekam medis untuk pasien ini.\"\r\n        );\r\n        require(dataPasien[_pasien].exists, \"Pasien tidak terdaftar.\"); // Pastikan pasien exist sebelum tambah RM\r\n\r\n        rekamMedisCount++;\r\n        uint newId = rekamMedisCount; // Gunakan variabel agar konsisten\r\n        rekamMedis[newId] = RekamMedisData({\r\n            id: newId,\r\n            pasien: _pasien,\r\n            diagnosa: _diagnosa,\r\n            foto: _foto,\r\n            catatan: _catatan,\r\n            valid: true\r\n        });\r\n        rekamMedisByPasien[_pasien].push(newId);\r\n\r\n        rekamMedisUpdateHistory[newId].push(\r\n            UpdateInfo({dokter: msg.sender, timestamp: block.timestamp})\r\n        );\r\n        emit RekamMedisDitambahkan(newId, _pasien, _diagnosa, true);\r\n    }\r\n\r\n    function updateRekamMedis(\r\n        uint _id,\r\n        string calldata _diagnosa,\r\n        string calldata _foto,\r\n        string calldata _catatan\r\n    ) external hanyaDokterAktifUntukPasien(rekamMedis[_id].pasien) {\r\n        RekamMedisData storage r = rekamMedis[_id];\r\n        require(\r\n            r.pasien != address(0),\r\n            \"Rekam medis tidak ditemukan atau ID tidak valid.\"\r\n        ); // Pastikan RM ada\r\n        require(r.valid, \"Rekam medis ini sudah tidak valid/dinonaktifkan.\");\r\n\r\n        // Simpan versi lama sebelum update\r\n        rekamMedisVersions[_id].push(\r\n            RekamMedisData({\r\n                id: r.id,\r\n                pasien: r.pasien,\r\n                diagnosa: r.diagnosa,\r\n                foto: r.foto,\r\n                catatan: r.catatan,\r\n                valid: r.valid // Simpan status validitas sebelumnya juga\r\n            })\r\n        );\r\n\r\n        // Update data rekam medis utama\r\n        r.diagnosa = _diagnosa;\r\n        r.foto = _foto;\r\n        r.catatan = _catatan;\r\n        // r.valid tetap true karena ini adalah update aktif, kecuali ada logika lain\r\n\r\n        // Simpan info update (siapa dan kapan)\r\n        rekamMedisUpdateHistory[_id].push(\r\n            UpdateInfo({dokter: msg.sender, timestamp: block.timestamp})\r\n        );\r\n\r\n        emit RekamMedisDiperbarui(\r\n            _id,\r\n            _diagnosa,\r\n            _catatan,\r\n            msg.sender,\r\n            block.timestamp\r\n        );\r\n    }\r\n\r\n    function getRekamMedisIdsByPasien(\r\n        address _pasien\r\n    ) external view returns (uint[] memory) {\r\n        require(isPasien[_pasien], \"Pasien tidak ditemukan.\");\r\n        return rekamMedisByPasien[_pasien];\r\n    }\r\n\r\n    function getRekamMedis(\r\n        uint _id\r\n    )\r\n        external\r\n        view\r\n        returns (\r\n            uint id,\r\n            address pasien,\r\n            string memory diagnosa,\r\n            string memory foto,\r\n            string memory catatan,\r\n            bool valid\r\n        )\r\n    {\r\n        require(\r\n            rekamMedis[_id].pasien != address(0),\r\n            \"Rekam medis tidak ditemukan.\"\r\n        );\r\n        RekamMedisData storage r = rekamMedis[_id];\r\n        return (r.id, r.pasien, r.diagnosa, r.foto, r.catatan, r.valid);\r\n    }\r\n\r\n    function getRekamMedisVersions(\r\n        uint _id\r\n    ) external view returns (RekamMedisData[] memory) {\r\n        // Tidak perlu require di sini karena jika _id tidak ada, akan return array kosong\r\n        return rekamMedisVersions[_id];\r\n    }\r\n\r\n    function getRekamMedisUpdateHistory(\r\n        uint _id\r\n    )\r\n        external\r\n        view\r\n        returns (address[] memory actors, uint256[] memory timestamps)\r\n    {\r\n        // Tidak perlu require di sini, akan return array kosong jika tidak ada histori\r\n        uint len = rekamMedisUpdateHistory[_id].length;\r\n        actors = new address[](len); // 'actors' karena bisa dokter atau pasien\r\n        timestamps = new uint256[](len);\r\n        for (uint i = 0; i < len; i++) {\r\n            actors[i] = rekamMedisUpdateHistory[_id][i].dokter; // Tetap .dokter sesuai struct\r\n            timestamps[i] = rekamMedisUpdateHistory[_id][i].timestamp;\r\n        }\r\n        return (actors, timestamps);\r\n    }\r\n\r\n    function nonaktifkanRekamMedis(uint _id) external hanyaAdminRS {\r\n        require(\r\n            rekamMedis[_id].pasien != address(0),\r\n            \"Rekam medis tidak ditemukan.\"\r\n        );\r\n        // Pastikan adminRS yang menonaktifkan adalah admin dari RS tempat pasien terdaftar\r\n        require(\r\n            dataPasien[rekamMedis[_id].pasien].rumahSakitPenanggungJawab ==\r\n                msg.sender,\r\n            \"Admin RS tidak berhak atas pasien ini.\"\r\n        );\r\n        rekamMedis[_id].valid = false;\r\n        // Pertimbangkan untuk emit event di sini\r\n    }\r\n\r\n    function setSuperAdmin(address _newAdmin) external hanyaSuperAdmin {\r\n        require(\r\n            _newAdmin != address(0),\r\n            \"Alamat super admin baru tidak valid.\"\r\n        );\r\n        superAdmin = _newAdmin;\r\n    }\r\n\r\n    function getUserRole(address _user) public view returns (string memory) {\r\n        if (_user == superAdmin) return \"SuperAdmin\";\r\n        if (dataAdmin[_user].aktif) return \"AdminRS\"; // Cek status aktif juga\r\n        if (isDokter[_user]) return \"Dokter\";\r\n        if (isPasien[_user]) return \"Pasien\";\r\n        return \"Unknown\";\r\n    }\r\n}\r\n",
  "sourcePath": "D:\\TA\\rekam_medis_backend\\contracts\\RekamMedisRS.sol",
  "compiler": {
    "name": "solc",
    "version": "0.8.19+commit.7dd6d404.Emscripten.clang"
  },
  "schemaVersion": "3.4.16",
  "updatedAt": "2025-06-15T17:57:19.694Z",
  "networkType": "ethereum",
  "devdoc": {
    "kind": "dev",
    "methods": {},
    "version": 1
  },
  "userdoc": {
    "kind": "user",
    "methods": {},
    "version": 1
  }
}