{
  "contractName": "RekamMedis",
  "abi": [
    {
      "inputs": [],
      "stateMutability": "nonpayable",
      "type": "constructor"
    },
    {
      "anonymous": false,
      "inputs": [
        {
          "indexed": false,
          "internalType": "address",
          "name": "newAdmin",
          "type": "address"
        }
      ],
      "name": "AdminDitetapkan",
      "type": "event"
    },
    {
      "anonymous": false,
      "inputs": [
        {
          "indexed": false,
          "internalType": "address",
          "name": "dokter",
          "type": "address"
        },
        {
          "indexed": false,
          "internalType": "bool",
          "name": "aktif",
          "type": "bool"
        }
      ],
      "name": "DokterStatusDiubah",
      "type": "event"
    },
    {
      "anonymous": false,
      "inputs": [
        {
          "indexed": false,
          "internalType": "address",
          "name": "dokter",
          "type": "address"
        },
        {
          "indexed": false,
          "internalType": "string",
          "name": "nama",
          "type": "string"
        }
      ],
      "name": "DokterTerdaftar",
      "type": "event"
    },
    {
      "anonymous": false,
      "inputs": [
        {
          "indexed": false,
          "internalType": "address",
          "name": "dokter",
          "type": "address"
        },
        {
          "indexed": false,
          "internalType": "address",
          "name": "pasien",
          "type": "address"
        }
      ],
      "name": "PasienDiassignKeDokter",
      "type": "event"
    },
    {
      "anonymous": false,
      "inputs": [
        {
          "indexed": false,
          "internalType": "address",
          "name": "pasien",
          "type": "address"
        }
      ],
      "name": "PasienTerdaftar",
      "type": "event"
    },
    {
      "anonymous": false,
      "inputs": [
        {
          "indexed": false,
          "internalType": "uint256",
          "name": "id",
          "type": "uint256"
        },
        {
          "indexed": false,
          "internalType": "string",
          "name": "diagnosa",
          "type": "string"
        },
        {
          "indexed": false,
          "internalType": "string",
          "name": "catatan",
          "type": "string"
        }
      ],
      "name": "RekamMedisDiperbarui",
      "type": "event"
    },
    {
      "anonymous": false,
      "inputs": [
        {
          "indexed": false,
          "internalType": "uint256",
          "name": "id",
          "type": "uint256"
        },
        {
          "indexed": false,
          "internalType": "address",
          "name": "pasien",
          "type": "address"
        },
        {
          "indexed": false,
          "internalType": "string",
          "name": "diagnosa",
          "type": "string"
        },
        {
          "indexed": false,
          "internalType": "bool",
          "name": "valid",
          "type": "bool"
        }
      ],
      "name": "RekamMedisDitambahkan",
      "type": "event"
    },
    {
      "inputs": [],
      "name": "admin",
      "outputs": [
        {
          "internalType": "address",
          "name": "",
          "type": "address"
        }
      ],
      "stateMutability": "view",
      "type": "function",
      "constant": true
    },
    {
      "inputs": [
        {
          "internalType": "uint256",
          "name": "",
          "type": "uint256"
        }
      ],
      "name": "daftarDokter",
      "outputs": [
        {
          "internalType": "address",
          "name": "",
          "type": "address"
        }
      ],
      "stateMutability": "view",
      "type": "function",
      "constant": true
    },
    {
      "inputs": [
        {
          "internalType": "uint256",
          "name": "",
          "type": "uint256"
        }
      ],
      "name": "daftarPasien",
      "outputs": [
        {
          "internalType": "address",
          "name": "",
          "type": "address"
        }
      ],
      "stateMutability": "view",
      "type": "function",
      "constant": true
    },
    {
      "inputs": [
        {
          "internalType": "address",
          "name": "",
          "type": "address"
        }
      ],
      "name": "dataDokter",
      "outputs": [
        {
          "internalType": "string",
          "name": "nama",
          "type": "string"
        },
        {
          "internalType": "bool",
          "name": "aktif",
          "type": "bool"
        }
      ],
      "stateMutability": "view",
      "type": "function",
      "constant": true
    },
    {
      "inputs": [
        {
          "internalType": "address",
          "name": "",
          "type": "address"
        }
      ],
      "name": "isDokter",
      "outputs": [
        {
          "internalType": "bool",
          "name": "",
          "type": "bool"
        }
      ],
      "stateMutability": "view",
      "type": "function",
      "constant": true
    },
    {
      "inputs": [
        {
          "internalType": "address",
          "name": "",
          "type": "address"
        }
      ],
      "name": "isPasien",
      "outputs": [
        {
          "internalType": "bool",
          "name": "",
          "type": "bool"
        }
      ],
      "stateMutability": "view",
      "type": "function",
      "constant": true
    },
    {
      "inputs": [
        {
          "internalType": "uint256",
          "name": "",
          "type": "uint256"
        }
      ],
      "name": "rekamMedis",
      "outputs": [
        {
          "internalType": "uint256",
          "name": "id",
          "type": "uint256"
        },
        {
          "internalType": "address",
          "name": "pasien",
          "type": "address"
        },
        {
          "internalType": "string",
          "name": "nama",
          "type": "string"
        },
        {
          "internalType": "uint256",
          "name": "umur",
          "type": "uint256"
        },
        {
          "internalType": "string",
          "name": "golonganDarah",
          "type": "string"
        },
        {
          "internalType": "string",
          "name": "tanggalLahir",
          "type": "string"
        },
        {
          "internalType": "string",
          "name": "gender",
          "type": "string"
        },
        {
          "internalType": "string",
          "name": "alamat",
          "type": "string"
        },
        {
          "internalType": "string",
          "name": "noTelepon",
          "type": "string"
        },
        {
          "internalType": "string",
          "name": "email",
          "type": "string"
        },
        {
          "internalType": "string",
          "name": "diagnosa",
          "type": "string"
        },
        {
          "internalType": "string",
          "name": "foto",
          "type": "string"
        },
        {
          "internalType": "string",
          "name": "catatan",
          "type": "string"
        },
        {
          "internalType": "bool",
          "name": "valid",
          "type": "bool"
        }
      ],
      "stateMutability": "view",
      "type": "function",
      "constant": true
    },
    {
      "inputs": [
        {
          "internalType": "address",
          "name": "",
          "type": "address"
        },
        {
          "internalType": "uint256",
          "name": "",
          "type": "uint256"
        }
      ],
      "name": "rekamMedisByPasien",
      "outputs": [
        {
          "internalType": "uint256",
          "name": "",
          "type": "uint256"
        }
      ],
      "stateMutability": "view",
      "type": "function",
      "constant": true
    },
    {
      "inputs": [],
      "name": "rekamMedisCount",
      "outputs": [
        {
          "internalType": "uint256",
          "name": "",
          "type": "uint256"
        }
      ],
      "stateMutability": "view",
      "type": "function",
      "constant": true
    },
    {
      "inputs": [
        {
          "internalType": "address",
          "name": "_dokter",
          "type": "address"
        },
        {
          "internalType": "string",
          "name": "_nama",
          "type": "string"
        }
      ],
      "name": "registerDokter",
      "outputs": [],
      "stateMutability": "nonpayable",
      "type": "function"
    },
    {
      "inputs": [],
      "name": "totalDokter",
      "outputs": [
        {
          "internalType": "uint256",
          "name": "",
          "type": "uint256"
        }
      ],
      "stateMutability": "view",
      "type": "function",
      "constant": true
    },
    {
      "inputs": [
        {
          "internalType": "uint256",
          "name": "index",
          "type": "uint256"
        }
      ],
      "name": "getDokterByIndex",
      "outputs": [
        {
          "internalType": "address",
          "name": "",
          "type": "address"
        }
      ],
      "stateMutability": "view",
      "type": "function",
      "constant": true
    },
    {
      "inputs": [
        {
          "internalType": "address",
          "name": "_dokter",
          "type": "address"
        },
        {
          "internalType": "bool",
          "name": "_aktif",
          "type": "bool"
        }
      ],
      "name": "setStatusDokter",
      "outputs": [],
      "stateMutability": "nonpayable",
      "type": "function"
    },
    {
      "inputs": [
        {
          "internalType": "address",
          "name": "_dokter",
          "type": "address"
        },
        {
          "internalType": "address",
          "name": "_pasien",
          "type": "address"
        }
      ],
      "name": "assignPasienToDokter",
      "outputs": [],
      "stateMutability": "nonpayable",
      "type": "function"
    },
    {
      "inputs": [
        {
          "internalType": "address",
          "name": "_dokter",
          "type": "address"
        },
        {
          "internalType": "address",
          "name": "_pasien",
          "type": "address"
        }
      ],
      "name": "isPasienAssignedToDokter",
      "outputs": [
        {
          "internalType": "bool",
          "name": "",
          "type": "bool"
        }
      ],
      "stateMutability": "view",
      "type": "function",
      "constant": true
    },
    {
      "inputs": [
        {
          "internalType": "address",
          "name": "_dokter",
          "type": "address"
        }
      ],
      "name": "getDokter",
      "outputs": [
        {
          "internalType": "string",
          "name": "nama",
          "type": "string"
        },
        {
          "internalType": "bool",
          "name": "aktif",
          "type": "bool"
        },
        {
          "internalType": "address[]",
          "name": "pasien",
          "type": "address[]"
        }
      ],
      "stateMutability": "view",
      "type": "function",
      "constant": true
    },
    {
      "inputs": [
        {
          "internalType": "address",
          "name": "_pasien",
          "type": "address"
        }
      ],
      "name": "registerPasien",
      "outputs": [],
      "stateMutability": "nonpayable",
      "type": "function"
    },
    {
      "inputs": [],
      "name": "selfRegisterPasien",
      "outputs": [],
      "stateMutability": "nonpayable",
      "type": "function"
    },
    {
      "inputs": [
        {
          "internalType": "address",
          "name": "_user",
          "type": "address"
        }
      ],
      "name": "getUserRole",
      "outputs": [
        {
          "internalType": "string",
          "name": "",
          "type": "string"
        }
      ],
      "stateMutability": "view",
      "type": "function",
      "constant": true
    },
    {
      "inputs": [
        {
          "internalType": "address",
          "name": "pasien",
          "type": "address"
        }
      ],
      "name": "getRekamMedisIdsByPasien",
      "outputs": [
        {
          "internalType": "uint256[]",
          "name": "",
          "type": "uint256[]"
        }
      ],
      "stateMutability": "view",
      "type": "function",
      "constant": true
    },
    {
      "inputs": [],
      "name": "getDaftarPasien",
      "outputs": [
        {
          "internalType": "address[]",
          "name": "",
          "type": "address[]"
        }
      ],
      "stateMutability": "view",
      "type": "function",
      "constant": true
    },
    {
      "inputs": [
        {
          "internalType": "address",
          "name": "_newAdmin",
          "type": "address"
        }
      ],
      "name": "setAdmin",
      "outputs": [],
      "stateMutability": "nonpayable",
      "type": "function"
    },
    {
      "inputs": [
        {
          "internalType": "address",
          "name": "_pasien",
          "type": "address"
        },
        {
          "internalType": "string",
          "name": "_nama",
          "type": "string"
        },
        {
          "internalType": "uint256",
          "name": "_umur",
          "type": "uint256"
        },
        {
          "internalType": "string",
          "name": "_golonganDarah",
          "type": "string"
        },
        {
          "internalType": "string",
          "name": "_tanggalLahir",
          "type": "string"
        },
        {
          "internalType": "string",
          "name": "_gender",
          "type": "string"
        },
        {
          "internalType": "string",
          "name": "_alamat",
          "type": "string"
        },
        {
          "internalType": "string",
          "name": "_noTelepon",
          "type": "string"
        },
        {
          "internalType": "string",
          "name": "_email",
          "type": "string"
        },
        {
          "internalType": "string",
          "name": "_diagnosa",
          "type": "string"
        },
        {
          "internalType": "string",
          "name": "_foto",
          "type": "string"
        },
        {
          "internalType": "string",
          "name": "_catatan",
          "type": "string"
        }
      ],
      "name": "tambahRekamMedis",
      "outputs": [],
      "stateMutability": "nonpayable",
      "type": "function"
    },
    {
      "inputs": [
        {
          "internalType": "uint256",
          "name": "_id",
          "type": "uint256"
        },
        {
          "internalType": "string",
          "name": "_nama",
          "type": "string"
        },
        {
          "internalType": "uint256",
          "name": "_umur",
          "type": "uint256"
        },
        {
          "internalType": "string",
          "name": "_golonganDarah",
          "type": "string"
        },
        {
          "internalType": "string",
          "name": "_tanggalLahir",
          "type": "string"
        },
        {
          "internalType": "string",
          "name": "_gender",
          "type": "string"
        },
        {
          "internalType": "string",
          "name": "_alamat",
          "type": "string"
        },
        {
          "internalType": "string",
          "name": "_noTelepon",
          "type": "string"
        },
        {
          "internalType": "string",
          "name": "_email",
          "type": "string"
        },
        {
          "internalType": "string",
          "name": "_diagnosa",
          "type": "string"
        },
        {
          "internalType": "string",
          "name": "_foto",
          "type": "string"
        },
        {
          "internalType": "string",
          "name": "_catatan",
          "type": "string"
        }
      ],
      "name": "updateRekamMedis",
      "outputs": [],
      "stateMutability": "nonpayable",
      "type": "function"
    },
    {
      "inputs": [
        {
          "internalType": "uint256",
          "name": "_id",
          "type": "uint256"
        }
      ],
      "name": "nonaktifkanRekamMedis",
      "outputs": [],
      "stateMutability": "nonpayable",
      "type": "function"
    }
  ],
  "bytecode": "0x6080806040523461003c57600080546001600160a01b03191673b0dc0bf642d339517438017fc185bb0f758a01d217905561318a90816100428239f35b600080fdfe6080604052600436101561001257600080fd5b60003560e01c8062410cb314612bff578063010ef3b314612abe578063046bdbcc14612a50578063083d882414612a0c578063107e202f146126315780631132beb5146125f257806319e8f4051461244857806327820851146124105780632e2dd102146123f2578063334181f21461232c5780633da055181461226b578063426996511461222957806351887b67146121905780635c4c93481461215157806368370087146120f657806368f5dc99146112f157806370419a81146112bb578063704b6c02146112445780637d3e9db814611226578063932e0f6d14611176578063abf72abb14610fe4578063c3c0fdea14610f81578063c967ede814610ecd578063f7dc57141461015c5763f851a4401461012e57600080fd5b34610157576000366003190112610157576000546040516001600160a01b039091168152602090f35b600080fd5b3461015757610180366003190112610157576024356001600160401b0381116101575761018d903690600401612d24565b6064356001600160401b038111610157576101ac903690600401612d24565b6084356001600160401b038111610157576101cb903690600401612d24565b9160a4356001600160401b038111610157576101eb903690600401612d24565b9060c4356001600160401b0381116101575761020b903690600401612d24565b60e4356001600160401b0381116101575761022a903690600401612d24565b610104356001600160401b0381116101575761024a903690600401612d24565b91610124356001600160401b0381116101575761026b903690600401612d24565b94610144356001600160401b0381116101575761028c903690600401612d24565b97610164356001600160401b038111610157576102ad903690600401612d24565b97600435600052600660205260018060a01b036001604060002001541633600052600260205260ff6040600020541680610eb6575b15610e53576102f19033613021565b15610dfd5760043560005260066020526040600020968051906001600160401b0382116107a957819061032760028b0154612df7565b601f8111610dc8575b50602090601f8311600114610d5657600092610d4b575b50508160011b916000199060031b1c19161760028801555b60443560038801558051906001600160401b0382116107a957819061038760048a0154612df7565b601f8111610d16575b50602090601f8311600114610ca457600092610c99575b50508160011b916000199060031b1c19161760048701555b8051906001600160401b0382116107a95781906103df6005890154612df7565b601f8111610c64575b50602090601f8311600114610bf257600092610be7575b50508160011b916000199060031b1c19161760058601555b8051906001600160401b0382116107a95781906104376006880154612df7565b601f8111610bb2575b50602090601f8311600114610b4057600092610b35575b50508160011b916000199060031b1c19161760068501555b8051906001600160401b0382116107a957819061048f6007870154612df7565b601f8111610b00575b50602090601f8311600114610a8e57600092610a83575b50508160011b916000199060031b1c19161760078401555b8051906001600160401b0382116107a95781906104e76008860154612df7565b601f8111610a4e575b50602090601f83116001146109dc576000926109d1575b50508160011b916000199060031b1c19161760088301555b8051906001600160401b0382116107a957819061053f6009850154612df7565b601f811161099c575b50602090601f831160011461092a5760009261091f575b50508160011b916000199060031b1c19161760098201555b81516001600160401b0381116107a957610594600a830154612df7565b601f81116108ea575b50806020601f821160011461087d57600091610872575b508160011b916000199060031b1c191617600a8201555b83516001600160401b0381116107a9576105e8600b830154612df7565b601f811161083d575b506020601f82116001146107ca578190600c9495966000926107bf575b50508160011b916000199060031b1c191617600b8201555b01918051926001600160401b0384116107a9576106438154612df7565b601f811161076c575b50602093601f81116001146106de57916106ce91836106c095947f2a3c8ca9ac6f36396c175111b8f04207d249d61d733222e37c97a5ed7cfa7e13976000916106d3575b508160011b916000199060031b1c19161790555b6040519384936004358552606060208601526060850190612d7a565b908382036040850152612d7a565b0390a1005b905083015188610690565b601f1981168260005260206000209060005b8181106107545750826106ce94927f2a3c8ca9ac6f36396c175111b8f04207d249d61d733222e37c97a5ed7cfa7e13986106c09897956001941061073b575b5050811b0190556106a4565b85015160001960f88460031b161c19169055888061072f565b858801518355602097880197600190930192016106f0565b61079990826000526020600020601f870160051c8101916020881061079f575b601f0160051c0190612f35565b8461064c565b909150819061078c565b634e487b7160e01b600052604160045260246000fd5b01519050868061060e565b600b830160005260206000209560005b601f19841681106108255750958291600c959697600194601f1981161061080c575b505050811b01600b820155610626565b015160001960f88460031b161c191690558680806107fc565b828201518855600190970196602092830192016107da565b61086c90600b84016000526020600020601f840160051c8101916020851061079f57601f0160051c0190612f35565b856105f1565b9050830151866105b4565b9150600a830160005260206000206000925b601f19831684106108d2576001935082601f198116106108b9575b5050811b01600a8201556105cb565b85015160001960f88460031b161c1916905586806108aa565b8581015182556020938401936001909201910161088f565b61091990600a84016000526020600020601f840160051c8101916020851061079f57601f0160051c0190612f35565b8561059d565b01519050868061055f565b9250600984016000526020600020906000935b601f1984168510610981576001945083601f19811610610968575b505050811b016009820155610577565b015160001960f88460031b161c19169055868080610958565b8181015183556020948501946001909301929091019061093d565b6109cb90600986016000526020600020601f850160051c8101916020861061079f57601f0160051c0190612f35565b87610548565b015190508780610507565b9250600885016000526020600020906000935b601f1984168510610a33576001945083601f19811610610a1a575b505050811b01600883015561051f565b015160001960f88460031b161c19169055878080610a0a565b818101518355602094850194600190930192909101906109ef565b610a7d90600887016000526020600020601f850160051c8101916020861061079f57601f0160051c0190612f35565b886104f0565b0151905088806104af565b9250600786016000526020600020906000935b601f1984168510610ae5576001945083601f19811610610acc575b505050811b0160078401556104c7565b015160001960f88460031b161c19169055888080610abc565b81810151835560209485019460019093019290910190610aa1565b610b2f90600788016000526020600020601f850160051c8101916020861061079f57601f0160051c0190612f35565b89610498565b015190508980610457565b9250600687016000526020600020906000935b601f1984168510610b97576001945083601f19811610610b7e575b505050811b01600685015561046f565b015160001960f88460031b161c19169055898080610b6e565b81810151835560209485019460019093019290910190610b53565b610be190600689016000526020600020601f850160051c8101916020861061079f57601f0160051c0190612f35565b8a610440565b015190508a806103ff565b9250600588016000526020600020906000935b601f1984168510610c49576001945083601f19811610610c30575b505050811b016005860155610417565b015160001960f88460031b161c191690558a8080610c20565b81810151835560209485019460019093019290910190610c05565b610c939060058a016000526020600020601f850160051c8101916020861061079f57601f0160051c0190612f35565b8b6103e8565b015190508b806103a7565b9250600489016000526020600020906000935b601f1984168510610cfb576001945083601f19811610610ce2575b505050811b0160048701556103bf565b015160001960f88460031b161c191690558b8080610cd2565b81810151835560209485019460019093019290910190610cb7565b610d459060048b016000526020600020601f850160051c8101916020861061079f57601f0160051c0190612f35565b8c610390565b015190508c80610347565b925060028a016000526020600020906000935b601f1984168510610dad576001945083601f19811610610d94575b505050811b01600288015561035f565b015160001960f88460031b161c191690558c8080610d84565b81810151835560209485019460019093019290910190610d69565b610df79060028c016000526020600020601f850160051c8101916020861061079f57601f0160051c0190612f35565b8d610330565b60405162461bcd60e51b815260206004820152602860248201527f446f6b74657220746964616b2064692d61737369676e20756e74756b2070617360448201526734b2b71034b7349760c11b6064820152608490fd5b60405162461bcd60e51b815260206004820152603560248201527f48616e796120646f6b74657220616b7469662079616e672062697361206d656d6044820152743832b93130b93ab4903932b5b0b69036b2b234b99760591b6064820152608490fd5b50600160205260ff600160406000200154166102e2565b3461015757602080600319360112610157576001600160a01b03610eef612c57565b1660005260078152604060002060405190818382549182815201908192600052846000209060005b86828210610f6d578686610f2d82880383612d03565b604051928392818401908285525180915260408401929160005b828110610f5657505050500390f35b835185528695509381019392810192600101610f47565b835485529093019260019283019201610f17565b34610157576020366003190112610157576001600160a01b03610fa2612c57565b166000526001602052610fd8604060002060ff6001610fc083612e31565b92015416604051928392604084526040840190612d7a565b90151560208301520390f35b34610157576020366003190112610157576004356000908152600660205260409020805460018201546001600160a01b03169161102360028201612e31565b9060038101546004820161103690612e31565b61104260058401612e31565b61104e60068501612e31565b61105a60078601612e31565b61106660088701612e31565b9161107360098801612e31565b93611080600a8901612e31565b9561108d600b8a01612e31565b9761109a600c8b01612e31565b99600d015460ff169a6040519d8e809e8152602001528c6101c06040819201528d016110c591612d7a565b9060608d01528b810360808d01526110dc91612d7a565b8a810360a08c01526110ed91612d7a565b89810360c08b01526110fe91612d7a565b88810360e08a015261110f91612d7a565b87810361010089015261112191612d7a565b86810361012088015261113391612d7a565b85810361014087015261114591612d7a565b84810361016086015261115791612d7a565b83810361018085015261116991612d7a565b9015156101a08301520390f35b346101575760403660031901126101575761118f612c57565b6024359081151591828103610157577f3dcd68c14f5f191f12b3b56bf35d5d7eb22447e9ec685290967b4558822ca98a9261121960409360018060a01b03906111dd82600054163314612ed7565b16928360005260026020526111f860ff866000205416612fb0565b836000526001602052600185600020019060ff801983541691151516179055565b82519182526020820152a1005b34610157576000366003190112610157576020600454604051908152f35b34610157576020366003190112610157577f4d644268affe3d5bee1f2f5cb981613ce82c79f04442f0d58c544d9cd09b2f8d6020611280612c57565b600054906001600160a01b039061129a3383851614612ed7565b1680916bffffffffffffffffffffffff60a01b1617600055604051908152a1005b346101575760403660031901126101575760206112e76112d9612c57565b6112e1612c6d565b90613021565b6040519015158152f35b34610157576101803660031901126101575761130b612c57565b6024356001600160401b0381116101575761132a903690600401612d24565b906064356001600160401b0381116101575761134a903690600401612d24565b916084356001600160401b0381116101575761136a903690600401612d24565b9260a4356001600160401b0381116101575761138a903690600401612d24565b9360c4356001600160401b038111610157576113aa903690600401612d24565b9460e4356001600160401b038111610157576113ca903690600401612d24565b610104356001600160401b038111610157576113ea903690600401612d24565b90610124356001600160401b0381116101575761140b903690600401612d24565b97610144356001600160401b0381116101575761142c903690600401612d24565b93610164356001600160401b0381116101575761144d903690600401612d24565b956001600160a01b038a16330361209657611469600854612ffc565b9788600855604051998a6101c08101106001600160401b036101c08d0111176107a9576101c08b01604052898b5260018060a01b038c1660208c015260408b015260443560608b015260808a015260a089015260c088015260e08701526101008601526101208501528561014085015261016084015261018083015260016101a08301526000526006602052604060002090805182556001820160018060a01b036020830151166bffffffffffffffffffffffff60a01b82541617905560408101518051906001600160401b0382116107a957819061154b6002860154612df7565b601f8111612061575b50602090601f8311600114611fef57600092611fe4575b50508160011b916000199060031b1c19161760028301555b6060810151600383015560808101518051906001600160401b0382116107a95781906115b26004860154612df7565b601f8111611faf575b50602090601f8311600114611f3d57600092611f32575b50508160011b916000199060031b1c19161760048301555b60a08101518051906001600160401b0382116107a957819061160f6005860154612df7565b601f8111611efd575b50602090601f8311600114611e8b57600092611e80575b50508160011b916000199060031b1c19161760058301555b60c08101518051906001600160401b0382116107a957819061166c6006860154612df7565b601f8111611e4b575b50602090601f8311600114611dd957600092611dce575b50508160011b916000199060031b1c19161760068301555b60e08101518051906001600160401b0382116107a95781906116c96007860154612df7565b601f8111611d99575b50602090601f8311600114611d2757600092611d1c575b50508160011b916000199060031b1c19161760078301555b6101008101518051906001600160401b0382116107a95781906117276008860154612df7565b601f8111611ce7575b50602090601f8311600114611c7557600092611c6a575b50508160011b916000199060031b1c19161760088301555b6101208101518051906001600160401b0382116107a95781906117856009860154612df7565b601f8111611c35575b50602090601f8311600114611bc357600092611bb8575b50508160011b916000199060031b1c19161760098301555b6101408101518051906001600160401b0382116107a95781906117e3600a860154612df7565b601f8111611b83575b50602090601f8311600114611b1157600092611b06575b50508160011b916000199060031b1c191617600a8301555b6101608101518051906001600160401b0382116107a9578190611841600b860154612df7565b601f8111611ad1575b50602090601f8311600114611a5f57600092611a54575b50508160011b916000199060031b1c191617600b8301555b600c82016101808201518051906001600160401b0382116107a95761189e8354612df7565b601f8111611a22575b50602090601f83116001146119af5792826101a0936118f9979693600d966000926119a4575b50508160011b916000199060031b1c19161790555b0151151591019060ff801983541691151516179055565b6001600160a01b038116600090815260076020526040902060085481549391600160401b8510156107a957846119559160017f8647b41d1ffdc302f876f0e70e0c442d110a3c8bad284218f99616149394c99797018155612cd0565b819291549060031b91821b91600019901b191617905561199860085491604051938493845260018060a01b03166020840152608060408401526080830190612d7a565b600160608301520390a1005b015190508a806118cd565b90601f198316918460005260206000209260005b818110611a0a5750936118f9979693600d9693600193836101a098106119f1575b505050811b0190556118e2565b015160001960f88460031b161c191690558a80806119e4565b929360206001819287860151815501950193016119c3565b611a4e90846000526020600020601f850160051c8101916020861061079f57601f0160051c0190612f35565b876118a7565b015190508680611861565b9250600b85016000526020600020906000935b601f1984168510611ab6576001945083601f19811610611a9d575b505050811b01600b830155611879565b015160001960f88460031b161c19169055868080611a8d565b81810151835560209485019460019093019290910190611a72565b611b0090600b87016000526020600020601f850160051c8101916020861061079f57601f0160051c0190612f35565b8761184a565b015190508680611803565b9250600a85016000526020600020906000935b601f1984168510611b68576001945083601f19811610611b4f575b505050811b01600a83015561181b565b015160001960f88460031b161c19169055868080611b3f565b81810151835560209485019460019093019290910190611b24565b611bb290600a87016000526020600020601f850160051c8101916020861061079f57601f0160051c0190612f35565b876117ec565b0151905086806117a5565b9250600985016000526020600020906000935b601f1984168510611c1a576001945083601f19811610611c01575b505050811b0160098301556117bd565b015160001960f88460031b161c19169055868080611bf1565b81810151835560209485019460019093019290910190611bd6565b611c6490600987016000526020600020601f850160051c8101916020861061079f57601f0160051c0190612f35565b8761178e565b015190508680611747565b9250600885016000526020600020906000935b601f1984168510611ccc576001945083601f19811610611cb3575b505050811b01600883015561175f565b015160001960f88460031b161c19169055868080611ca3565b81810151835560209485019460019093019290910190611c88565b611d1690600887016000526020600020601f850160051c8101916020861061079f57601f0160051c0190612f35565b87611730565b0151905086806116e9565b9250600785016000526020600020906000935b601f1984168510611d7e576001945083601f19811610611d65575b505050811b016007830155611701565b015160001960f88460031b161c19169055868080611d55565b81810151835560209485019460019093019290910190611d3a565b611dc890600787016000526020600020601f850160051c8101916020861061079f57601f0160051c0190612f35565b876116d2565b01519050868061168c565b9250600685016000526020600020906000935b601f1984168510611e30576001945083601f19811610611e17575b505050811b0160068301556116a4565b015160001960f88460031b161c19169055868080611e07565b81810151835560209485019460019093019290910190611dec565b611e7a90600687016000526020600020601f850160051c8101916020861061079f57601f0160051c0190612f35565b87611675565b01519050868061162f565b9250600585016000526020600020906000935b601f1984168510611ee2576001945083601f19811610611ec9575b505050811b016005830155611647565b015160001960f88460031b161c19169055868080611eb9565b81810151835560209485019460019093019290910190611e9e565b611f2c90600587016000526020600020601f850160051c8101916020861061079f57601f0160051c0190612f35565b87611618565b0151905086806115d2565b9250600485016000526020600020906000935b601f1984168510611f94576001945083601f19811610611f7b575b505050811b0160048301556115ea565b015160001960f88460031b161c19169055868080611f6b565b81810151835560209485019460019093019290910190611f50565b611fde90600487016000526020600020601f850160051c8101916020861061079f57601f0160051c0190612f35565b876115bb565b01519050868061156b565b9250600285016000526020600020906000935b601f1984168510612046576001945083601f1981161061202d575b505050811b016002830155611583565b015160001960f88460031b161c1916905586808061201d565b81810151835560209485019460019093019290910190612002565b61209090600287016000526020600020601f850160051c8101916020861061079f57601f0160051c0190612f35565b87611554565b60405162461bcd60e51b815260206004820152603260248201527f48616e79612070617369656e2079616e672062697361206d656d62756174207260448201527132b5b0b69036b2b234b99036b2b932b5b09760711b6064820152608490fd5b34610157576020366003190112610157576004356005548110156101575760056000527f036b6384b5eca791c62761152d0c79bb0604c104a5fb6f4eb0703f3154bb3db001546040516001600160a01b039091168152602090f35b34610157576020366003190112610157576001600160a01b03612172612c57565b166000526002602052602060ff604060002054166040519015158152f35b34610157576000366003190112610157576040518060055480825282602080930160056000527f036b6384b5eca791c62761152d0c79bb0604c104a5fb6f4eb0703f3154bb3db09260005b8582821061220a575050506121f292500383612d03565b612206604051928284938452830190612dba565b0390f35b85546001600160a01b03168452600195860195889550930192016121db565b346101575760203660031901126101575760043560045481101561015757612252602091612c83565b905460405160039290921b1c6001600160a01b03168152f35b3461015757602080600319360112610157576001600160a01b03908161228f612c57565b1660005260019081815260406000209260ff8385015416916122b46002860195612e31565b93604051928383885491828152019760005283600020916000905b82821061231557612301896122068a8a8a8f826122ed910383612d03565b604051958695606087526060870190612d7a565b921515908501528382036040850152612dba565b835481168a529885019892840192908401906122cf565b346101575760003660031901126101575733600052600360205260ff604060002054166123a1573360005260036020526040600020600160ff1982541617905561237533612f4c565b7f4b58b2df530813522df235c26662546cdf2164ef8e0f7c6d18f415d15da470586020604051338152a1005b60405162461bcd60e51b8152602060048201526024808201527f416e64612073756461682074657264616674617220736562616761692050617360448201526334b2b71760e11b6064820152608490fd5b34610157576000366003190112610157576020600854604051908152f35b346101575760203660031901126101575761220661243461242f612c57565b613089565b604051918291602083526020830190612d7a565b3461015757604036600319011261015757612461612c57565b612469612c6d565b9060018060a01b03809161248282600054163314612ed7565b168060005281602093600285526124a060ff60406000205416612fb0565b168060005260039384815260ff60406000205416156125ae5782600052600181526002604060002001946000948654955b8681106125345750600160401b8610156107a957612518867fd9a2627959a7f46a8b96c10424cdae1f1b65151551cd206b119aca54c0a86a5a986001604099018155612cd0565b81939154911b9185831b921b19161790558351928352820152a1005b8482612540838b612cd0565b905490861b1c161461255a5761255590612ffc565b6124d1565b60405162461bcd60e51b815260048101859052602660248201527f50617369656e20737564616820646974756761736b616e206b6520646f6b7465604482015265391034b7349760d11b6064820152608490fd5b6064906040519062461bcd60e51b82526004820152601760248201527f50617369656e20746964616b207465726461667461722e0000000000000000006044820152fd5b34610157576020366003190112610157576001600160a01b03612613612c57565b166000526003602052602060ff604060002054166040519015158152f35b346101575760403660031901126101575761264a612c57565b6024356001600160401b03811161015757612669903690600401612d24565b61267e60018060a01b03600054163314612ed7565b6001600160a01b03821660009081526002602052604090205460ff166129c7576001600160a01b03821660009081526003602052604090205460ff166129735760018060a01b03821660005260026020526040600020600160ff1982541617905560405191602083018381106001600160401b038211176107a9576040526000835260405192606084018481106001600160401b038211176107a957604052828452602084019060018252604085015260018060a01b038216600052600160205260406000209084518051906001600160401b0382116107a9576127628454612df7565b601f8111612941575b50602090601f83116001146128ce579282604095936127bc936002966000926128c3575b50508160011b916000199060031b1c19161783555b511515600183019060ff801983541691151516179055565b01930151928351906001600160401b0382116107a957600160401b948583116107a95760209082548484558085106128a6575b500190600052602060002060005b8381106128895750505050600454928310156107a9576128448360017fc38147498c0c3f6433ae14d0586b30fef7b292e301be82700c6478971c423dce9501600455612c83565b81549060031b9060018060a01b038416821b9160018060a01b03901b19161790556106ce60405192839260018060a01b03168352604060208401526040830190612d7a565b82516001600160a01b0316818301556020909201916001016127fd565b6128bd908460005285846000209182019101612f35565b876127ef565b015190508a8061278f565b908460005260206000209160005b601f19851681106129295750836127bc936002969360019360409997601f19811610612910575b505050811b0183556127a4565b015160001960f88460031b161c191690558a8080612903565b919260206001819286850151815501940192016128dc565b61296d90856000526020600020601f850160051c8101916020861061079f57601f0160051c0190612f35565b8761276b565b60405162461bcd60e51b815260206004820152602660248201527f416c616d6174207375646168207465726461667461722073656261676169205060448201526530b9b4b2b71760d11b6064820152608490fd5b60405162461bcd60e51b815260206004820152601760248201527f446f6b746572207375646168207465726461667461722e0000000000000000006044820152606490fd5b3461015757602036600319011261015757612a3260018060a01b03600054163314612ed7565b6004356000908152600660205260409020600d01805460ff19169055005b3461015757602036600319011261015757600435600454811015612a7957612252602091612c83565b60405162461bcd60e51b815260206004820152601960248201527f496e64657820646f6b74657220746964616b2076616c69642e000000000000006044820152606490fd5b346101575760208060031936011261015757612ad8612c57565b9060018060a01b03612aef81600054163314612ed7565b8216806000526002825260ff60406000205416612bab57806000526003825260ff60406000205416612b6657612b5d7f4b58b2df530813522df235c26662546cdf2164ef8e0f7c6d18f415d15da470589382600052600384526040600020600160ff19825416179055612f4c565b604051908152a1005b60405162461bcd60e51b815260048101839052601760248201527f50617369656e207375646168207465726461667461722e0000000000000000006044820152606490fd5b60405162461bcd60e51b815260048101839052602660248201527f416c616d6174207375646168207465726461667461722073656261676169204460448201526537b5ba32b91760d11b6064820152608490fd5b3461015757604036600319011261015757612c18612c57565b6001600160a01b031660009081526007602052604090208054602435919082101561015757602091612c4991612cd0565b90546040519160031b1c8152f35b600435906001600160a01b038216820361015757565b602435906001600160a01b038216820361015757565b600454811015612cba5760046000527f8a35acfbc15ff81a39ae7d344fd709f28e8600b4aa8c65c6b64bfe7fe36bd19b0190600090565b634e487b7160e01b600052603260045260246000fd5b8054821015612cba5760005260206000200190600090565b604081019081106001600160401b038211176107a957604052565b90601f801991011681019081106001600160401b038211176107a957604052565b81601f82011215610157578035906001600160401b0382116107a95760405192612d58601f8401601f191660200185612d03565b8284526020838301011161015757816000926020809301838601378301015290565b919082519283825260005b848110612da6575050826000602080949584010152601f8019910116010190565b602081830181015184830182015201612d85565b90815180825260208080930193019160005b828110612dda575050505090565b83516001600160a01b031685529381019392810192600101612dcc565b90600182811c92168015612e27575b6020831014612e1157565b634e487b7160e01b600052602260045260246000fd5b91607f1691612e06565b9060405191826000825492612e4584612df7565b908184526001948581169081600014612eb45750600114612e71575b5050612e6f92500383612d03565b565b9093915060005260209081600020936000915b818310612e9c575050612e6f93508201013880612e61565b85548884018501529485019487945091830191612e84565b915050612e6f94506020925060ff191682840152151560051b8201013880612e61565b15612ede57565b60405162461bcd60e51b815260206004820152602960248201527f48616e79612061646d696e2079616e672062697361206d656c616b756b616e2060448201526830b5b9b49034b7349760b91b6064820152608490fd5b818110612f40575050565b60008155600101612f35565b600554600160401b8110156107a9576001810180600555811015612cba5760056000527f036b6384b5eca791c62761152d0c79bb0604c104a5fb6f4eb0703f3154bb3db00180546001600160a01b0319166001600160a01b03909216919091179055565b15612fb757565b60405162461bcd60e51b815260206004820152601760248201527f446f6b74657220746964616b207465726461667461722e0000000000000000006044820152606490fd5b600019811461300b5760010190565b634e487b7160e01b600052601160045260246000fd5b60018060a01b038091166000526001908160205260026040600020016000938154945b85811061305657505050505050600090565b836130618285612cd0565b9190548185169260031b1c16146130805761307b90612ffc565b613044565b50505050905090565b6000546001600160a01b03918216911681146131325780600052600260205260ff6040600020541661310f57600052600360205260ff604060002054166130ed576040516130d681612ce8565b60078152662ab735b737bbb760c91b602082015290565b6040516130f981612ce8565b60068152652830b9b4b2b760d11b602082015290565b5060405161311c81612ce8565b60068152652237b5ba32b960d11b602082015290565b5060405161313f81612ce8565b600581526420b236b4b760d91b60208201529056fea2646970667358221220d67b4f0438dfd7dd4dbaab70402c47819e66e6b4dd2b04db7989cda37c137fec64736f6c63430008130033",
  "immutableReferences": {},
  "source": "// SPDX-License-Identifier: MIT\r\npragma solidity >=0.4.22 <0.9.0;\r\n\r\ncontract RekamMedis {\r\n    address public admin;\r\n\r\n    struct Dokter {\r\n        string nama;\r\n        bool aktif;\r\n        address[] assignedPasien;\r\n    }\r\n\r\n    mapping(address => Dokter) public dataDokter;\r\n    mapping(address => bool) public isDokter;\r\n    mapping(address => bool) public isPasien;\r\n\r\n    address[] public daftarDokter; // daftar semua alamat dokter\r\n    address[] public daftarPasien; // daftar semua alamat pasien\r\n\r\n    struct RekamMedisData {\r\n        uint id;\r\n        address pasien;\r\n        string nama;\r\n        uint umur;\r\n        string golonganDarah;\r\n        string tanggalLahir;\r\n        string gender;\r\n        string alamat;\r\n        string noTelepon;\r\n        string email;\r\n        string diagnosa;\r\n        string foto;\r\n        string catatan;\r\n        bool valid;\r\n    }\r\n\r\n    mapping(uint => RekamMedisData) public rekamMedis;\r\n    mapping(address => uint[]) public rekamMedisByPasien;\r\n    uint public rekamMedisCount;\r\n\r\n    event RekamMedisDitambahkan(\r\n        uint id,\r\n        address pasien,\r\n        string diagnosa,\r\n        bool valid\r\n    );\r\n    event RekamMedisDiperbarui(uint id, string diagnosa, string catatan);\r\n    event AdminDitetapkan(address newAdmin);\r\n    event DokterTerdaftar(address dokter, string nama);\r\n    event DokterStatusDiubah(address dokter, bool aktif);\r\n    event PasienDiassignKeDokter(address dokter, address pasien);\r\n    event PasienTerdaftar(address pasien);\r\n\r\n    constructor() {\r\n        admin = 0xB0dC0Bf642d339517438017Fc185Bb0f758A01D2;\r\n    }\r\n\r\n    modifier hanyaAdmin() {\r\n        require(\r\n            msg.sender == admin,\r\n            \"Hanya admin yang bisa melakukan aksi ini.\"\r\n        );\r\n        _;\r\n    }\r\n\r\n    modifier hanyaDokterAktif() {\r\n        require(\r\n            isDokter[msg.sender] && dataDokter[msg.sender].aktif,\r\n            \"Hanya dokter aktif yang bisa memperbarui rekam medis.\"\r\n        );\r\n        _;\r\n    }\r\n\r\n    modifier hanyaDokterAktifUntukPasien(address _pasien) {\r\n        require(\r\n            isDokter[msg.sender] && dataDokter[msg.sender].aktif,\r\n            \"Hanya dokter aktif yang bisa memperbarui rekam medis.\"\r\n        );\r\n        require(\r\n            isPasienAssignedToDokter(msg.sender, _pasien),\r\n            \"Dokter tidak di-assign untuk pasien ini.\"\r\n        );\r\n        _;\r\n    }\r\n\r\n    modifier hanyaPasien(address pasien) {\r\n        require(\r\n            msg.sender == pasien,\r\n            \"Hanya pasien yang bisa membuat rekam medis mereka.\"\r\n        );\r\n        _;\r\n    }\r\n\r\n    // Register dokter baru dengan nama dan aktifkan langsung\r\n    function registerDokter(\r\n        address _dokter,\r\n        string memory _nama\r\n    ) public hanyaAdmin {\r\n        require(!isDokter[_dokter], \"Dokter sudah terdaftar.\");\r\n        require(!isPasien[_dokter], \"Alamat sudah terdaftar sebagai Pasien.\");\r\n        isDokter[_dokter] = true;\r\n        dataDokter[_dokter] = Dokter({\r\n            nama: _nama,\r\n            aktif: true,\r\n            assignedPasien: new address[](0)\r\n        });\r\n        daftarDokter.push(_dokter);\r\n        emit DokterTerdaftar(_dokter, _nama);\r\n    }\r\n\r\n    // Ambil total dokter terdaftar\r\n    function totalDokter() public view returns (uint) {\r\n        return daftarDokter.length;\r\n    }\r\n\r\n    // Ambil alamat dokter berdasarkan index\r\n    function getDokterByIndex(uint index) public view returns (address) {\r\n        require(index < daftarDokter.length, \"Index dokter tidak valid.\");\r\n        return daftarDokter[index];\r\n    }\r\n\r\n    // Set status dokter aktif/nonaktif\r\n    function setStatusDokter(address _dokter, bool _aktif) public hanyaAdmin {\r\n        require(isDokter[_dokter], \"Dokter tidak terdaftar.\");\r\n        dataDokter[_dokter].aktif = _aktif;\r\n        emit DokterStatusDiubah(_dokter, _aktif);\r\n    }\r\n\r\n    // Assign pasien ke dokter tertentu\r\n    function assignPasienToDokter(\r\n        address _dokter,\r\n        address _pasien\r\n    ) public hanyaAdmin {\r\n        require(isDokter[_dokter], \"Dokter tidak terdaftar.\");\r\n        require(isPasien[_pasien], \"Pasien tidak terdaftar.\");\r\n\r\n        address[] storage pasienDokter = dataDokter[_dokter].assignedPasien;\r\n        for (uint i = 0; i < pasienDokter.length; i++) {\r\n            if (pasienDokter[i] == _pasien) {\r\n                revert(\"Pasien sudah ditugaskan ke dokter ini.\");\r\n            }\r\n        }\r\n        pasienDokter.push(_pasien);\r\n        emit PasienDiassignKeDokter(_dokter, _pasien);\r\n    }\r\n\r\n    // Cek apakah pasien sudah diassign ke dokter\r\n    function isPasienAssignedToDokter(\r\n        address _dokter,\r\n        address _pasien\r\n    ) public view returns (bool) {\r\n        address[] storage pasienList = dataDokter[_dokter].assignedPasien;\r\n        for (uint i = 0; i < pasienList.length; i++) {\r\n            if (pasienList[i] == _pasien) {\r\n                return true;\r\n            }\r\n        }\r\n        return false;\r\n    }\r\n\r\n    // Get data dokter\r\n    function getDokter(\r\n        address _dokter\r\n    )\r\n        public\r\n        view\r\n        returns (string memory nama, bool aktif, address[] memory pasien)\r\n    {\r\n        Dokter storage d = dataDokter[_dokter];\r\n        return (d.nama, d.aktif, d.assignedPasien);\r\n    }\r\n\r\n    // Register pasien oleh admin\r\n    function registerPasien(address _pasien) public hanyaAdmin {\r\n        require(!isDokter[_pasien], \"Alamat sudah terdaftar sebagai Dokter.\");\r\n        require(!isPasien[_pasien], \"Pasien sudah terdaftar.\");\r\n        isPasien[_pasien] = true;\r\n        daftarPasien.push(_pasien);\r\n        emit PasienTerdaftar(_pasien);\r\n    }\r\n\r\n    // Self register pasien\r\n    function selfRegisterPasien() public {\r\n        require(!isPasien[msg.sender], \"Anda sudah terdaftar sebagai Pasien.\");\r\n        isPasien[msg.sender] = true;\r\n        daftarPasien.push(msg.sender);\r\n        emit PasienTerdaftar(msg.sender);\r\n    }\r\n\r\n    // Get role user\r\n    function getUserRole(address _user) public view returns (string memory) {\r\n        if (_user == admin) return \"Admin\";\r\n        if (isDokter[_user]) return \"Dokter\";\r\n        if (isPasien[_user]) return \"Pasien\";\r\n        return \"Unknown\";\r\n    }\r\n\r\n    // Ambil daftar rekam medis milik pasien\r\n    function getRekamMedisIdsByPasien(\r\n        address pasien\r\n    ) public view returns (uint[] memory) {\r\n        return rekamMedisByPasien[pasien];\r\n    }\r\n\r\n    // Ambil daftar semua pasien\r\n    function getDaftarPasien() public view returns (address[] memory) {\r\n        return daftarPasien;\r\n    }\r\n\r\n    // Set admin baru\r\n    function setAdmin(address _newAdmin) public hanyaAdmin {\r\n        admin = _newAdmin;\r\n        emit AdminDitetapkan(_newAdmin);\r\n    }\r\n\r\n    // Tambah rekam medis pasien\r\n    function tambahRekamMedis(\r\n        address _pasien,\r\n        string memory _nama,\r\n        uint _umur,\r\n        string memory _golonganDarah,\r\n        string memory _tanggalLahir,\r\n        string memory _gender,\r\n        string memory _alamat,\r\n        string memory _noTelepon,\r\n        string memory _email,\r\n        string memory _diagnosa,\r\n        string memory _foto,\r\n        string memory _catatan\r\n    ) public hanyaPasien(_pasien) {\r\n        rekamMedisCount++;\r\n        rekamMedis[rekamMedisCount] = RekamMedisData(\r\n            rekamMedisCount,\r\n            _pasien,\r\n            _nama,\r\n            _umur,\r\n            _golonganDarah,\r\n            _tanggalLahir,\r\n            _gender,\r\n            _alamat,\r\n            _noTelepon,\r\n            _email,\r\n            _diagnosa,\r\n            _foto,\r\n            _catatan,\r\n            true\r\n        );\r\n        rekamMedisByPasien[_pasien].push(rekamMedisCount);\r\n        emit RekamMedisDitambahkan(rekamMedisCount, _pasien, _diagnosa, true);\r\n    }\r\n\r\n    // Update rekam medis dokter aktif\r\n    function updateRekamMedis(\r\n        uint _id,\r\n        string memory _nama,\r\n        uint _umur,\r\n        string memory _golonganDarah,\r\n        string memory _tanggalLahir,\r\n        string memory _gender,\r\n        string memory _alamat,\r\n        string memory _noTelepon,\r\n        string memory _email,\r\n        string memory _diagnosa,\r\n        string memory _foto,\r\n        string memory _catatan\r\n    ) public hanyaDokterAktifUntukPasien(rekamMedis[_id].pasien) {\r\n        RekamMedisData storage rekam = rekamMedis[_id];\r\n        rekam.nama = _nama;\r\n        rekam.umur = _umur;\r\n        rekam.golonganDarah = _golonganDarah;\r\n        rekam.tanggalLahir = _tanggalLahir;\r\n        rekam.gender = _gender;\r\n        rekam.alamat = _alamat;\r\n        rekam.noTelepon = _noTelepon;\r\n        rekam.email = _email;\r\n        rekam.diagnosa = _diagnosa;\r\n        rekam.foto = _foto;\r\n        rekam.catatan = _catatan;\r\n        emit RekamMedisDiperbarui(_id, _diagnosa, _catatan);\r\n    }\r\n\r\n    // Nonaktifkan rekam medis (admin)\r\n    function nonaktifkanRekamMedis(uint _id) public hanyaAdmin {\r\n        rekamMedis[_id].valid = false;\r\n    }\r\n}\r\n",
  "sourcePath": "D:\\RekamMedisBlockchain\\contracts\\RekamMedis.sol",
  "compiler": {
    "name": "solc",
    "version": "0.8.19+commit.7dd6d404.Emscripten.clang"
  },
  "schemaVersion": "3.4.16",
  "updatedAt": "2025-05-16T01:22:33.118Z",
  "networkType": "ethereum",
  "devdoc": {
    "kind": "dev",
    "methods": {},
    "version": 1
  },
  "userdoc": {
    "kind": "user",
    "methods": {},
    "version": 1
  }
}