{
  "contractName": "RekamMedisRS",
  "abi": [
    {
      "inputs": [],
      "stateMutability": "nonpayable",
      "type": "constructor"
    },
    {
      "anonymous": false,
      "inputs": [
        {
          "indexed": true,
          "internalType": "address",
          "name": "admin",
          "type": "address"
        },
        {
          "indexed": false,
          "internalType": "bool",
          "name": "aktif",
          "type": "bool"
        }
      ],
      "name": "AdminRSStatusDiubah",
      "type": "event"
    },
    {
      "anonymous": false,
      "inputs": [
        {
          "indexed": true,
          "internalType": "address",
          "name": "admin",
          "type": "address"
        },
        {
          "indexed": false,
          "internalType": "string",
          "name": "namaRumahSakit",
          "type": "string"
        }
      ],
      "name": "AdminRSTerdaftar",
      "type": "event"
    },
    {
      "anonymous": false,
      "inputs": [
        {
          "indexed": true,
          "internalType": "address",
          "name": "dokter",
          "type": "address"
        },
        {
          "indexed": false,
          "internalType": "bool",
          "name": "aktif",
          "type": "bool"
        }
      ],
      "name": "DokterStatusDiubah",
      "type": "event"
    },
    {
      "anonymous": false,
      "inputs": [
        {
          "indexed": true,
          "internalType": "address",
          "name": "dokter",
          "type": "address"
        },
        {
          "indexed": false,
          "internalType": "string",
          "name": "nama",
          "type": "string"
        },
        {
          "indexed": false,
          "internalType": "address",
          "name": "adminRS",
          "type": "address"
        }
      ],
      "name": "DokterTerdaftar",
      "type": "event"
    },
    {
      "anonymous": false,
      "inputs": [
        {
          "indexed": false,
          "internalType": "address",
          "name": "dokter",
          "type": "address"
        },
        {
          "indexed": false,
          "internalType": "address",
          "name": "pasien",
          "type": "address"
        }
      ],
      "name": "PasienDiassignKeDokter",
      "type": "event"
    },
    {
      "anonymous": false,
      "inputs": [
        {
          "indexed": true,
          "internalType": "address",
          "name": "pasien",
          "type": "address"
        },
        {
          "indexed": false,
          "internalType": "address",
          "name": "adminRS",
          "type": "address"
        }
      ],
      "name": "PasienPindahRS",
      "type": "event"
    },
    {
      "anonymous": false,
      "inputs": [
        {
          "indexed": true,
          "internalType": "address",
          "name": "pasien",
          "type": "address"
        },
        {
          "indexed": false,
          "internalType": "string",
          "name": "nama",
          "type": "string"
        },
        {
          "indexed": false,
          "internalType": "address",
          "name": "adminRS",
          "type": "address"
        }
      ],
      "name": "PasienTerdaftar",
      "type": "event"
    },
    {
      "anonymous": false,
      "inputs": [
        {
          "indexed": false,
          "internalType": "uint256",
          "name": "id",
          "type": "uint256"
        },
        {
          "indexed": false,
          "internalType": "string",
          "name": "diagnosa",
          "type": "string"
        },
        {
          "indexed": false,
          "internalType": "string",
          "name": "catatan",
          "type": "string"
        },
        {
          "indexed": false,
          "internalType": "address",
          "name": "dokter",
          "type": "address"
        },
        {
          "indexed": false,
          "internalType": "uint256",
          "name": "timestamp",
          "type": "uint256"
        }
      ],
      "name": "RekamMedisDiperbarui",
      "type": "event"
    },
    {
      "anonymous": false,
      "inputs": [
        {
          "indexed": false,
          "internalType": "uint256",
          "name": "id",
          "type": "uint256"
        },
        {
          "indexed": false,
          "internalType": "address",
          "name": "pasien",
          "type": "address"
        },
        {
          "indexed": false,
          "internalType": "string",
          "name": "diagnosa",
          "type": "string"
        },
        {
          "indexed": false,
          "internalType": "bool",
          "name": "valid",
          "type": "bool"
        }
      ],
      "name": "RekamMedisDitambahkan",
      "type": "event"
    },
    {
      "inputs": [
        {
          "internalType": "uint256",
          "name": "",
          "type": "uint256"
        }
      ],
      "name": "daftarAdmin",
      "outputs": [
        {
          "internalType": "address",
          "name": "",
          "type": "address"
        }
      ],
      "stateMutability": "view",
      "type": "function",
      "constant": true
    },
    {
      "inputs": [
        {
          "internalType": "uint256",
          "name": "",
          "type": "uint256"
        }
      ],
      "name": "daftarDokter",
      "outputs": [
        {
          "internalType": "address",
          "name": "",
          "type": "address"
        }
      ],
      "stateMutability": "view",
      "type": "function",
      "constant": true
    },
    {
      "inputs": [
        {
          "internalType": "uint256",
          "name": "",
          "type": "uint256"
        }
      ],
      "name": "daftarPasien",
      "outputs": [
        {
          "internalType": "address",
          "name": "",
          "type": "address"
        }
      ],
      "stateMutability": "view",
      "type": "function",
      "constant": true
    },
    {
      "inputs": [
        {
          "internalType": "address",
          "name": "",
          "type": "address"
        }
      ],
      "name": "dataAdmin",
      "outputs": [
        {
          "internalType": "string",
          "name": "namaRumahSakit",
          "type": "string"
        },
        {
          "internalType": "bool",
          "name": "aktif",
          "type": "bool"
        }
      ],
      "stateMutability": "view",
      "type": "function",
      "constant": true
    },
    {
      "inputs": [
        {
          "internalType": "address",
          "name": "",
          "type": "address"
        }
      ],
      "name": "dataDokter",
      "outputs": [
        {
          "internalType": "string",
          "name": "nama",
          "type": "string"
        },
        {
          "internalType": "string",
          "name": "spesialisasi",
          "type": "string"
        },
        {
          "internalType": "string",
          "name": "nomorLisensi",
          "type": "string"
        },
        {
          "internalType": "bool",
          "name": "aktif",
          "type": "bool"
        },
        {
          "internalType": "address",
          "name": "adminRS",
          "type": "address"
        }
      ],
      "stateMutability": "view",
      "type": "function",
      "constant": true
    },
    {
      "inputs": [
        {
          "internalType": "address",
          "name": "",
          "type": "address"
        }
      ],
      "name": "dataPasien",
      "outputs": [
        {
          "internalType": "string",
          "name": "nama",
          "type": "string"
        },
        {
          "internalType": "uint256",
          "name": "umur",
          "type": "uint256"
        },
        {
          "internalType": "string",
          "name": "golonganDarah",
          "type": "string"
        },
        {
          "internalType": "string",
          "name": "tanggalLahir",
          "type": "string"
        },
        {
          "internalType": "string",
          "name": "gender",
          "type": "string"
        },
        {
          "internalType": "string",
          "name": "alamat",
          "type": "string"
        },
        {
          "internalType": "string",
          "name": "noTelepon",
          "type": "string"
        },
        {
          "internalType": "string",
          "name": "email",
          "type": "string"
        },
        {
          "internalType": "address",
          "name": "rumahSakitPenanggungJawab",
          "type": "address"
        },
        {
          "internalType": "bool",
          "name": "exists",
          "type": "bool"
        }
      ],
      "stateMutability": "view",
      "type": "function",
      "constant": true
    },
    {
      "inputs": [
        {
          "internalType": "address",
          "name": "",
          "type": "address"
        }
      ],
      "name": "isDokter",
      "outputs": [
        {
          "internalType": "bool",
          "name": "",
          "type": "bool"
        }
      ],
      "stateMutability": "view",
      "type": "function",
      "constant": true
    },
    {
      "inputs": [
        {
          "internalType": "address",
          "name": "",
          "type": "address"
        }
      ],
      "name": "isPasien",
      "outputs": [
        {
          "internalType": "bool",
          "name": "",
          "type": "bool"
        }
      ],
      "stateMutability": "view",
      "type": "function",
      "constant": true
    },
    {
      "inputs": [
        {
          "internalType": "uint256",
          "name": "",
          "type": "uint256"
        }
      ],
      "name": "rekamMedis",
      "outputs": [
        {
          "internalType": "uint256",
          "name": "id",
          "type": "uint256"
        },
        {
          "internalType": "address",
          "name": "pasien",
          "type": "address"
        },
        {
          "internalType": "string",
          "name": "diagnosa",
          "type": "string"
        },
        {
          "internalType": "string",
          "name": "foto",
          "type": "string"
        },
        {
          "internalType": "string",
          "name": "catatan",
          "type": "string"
        },
        {
          "internalType": "bool",
          "name": "valid",
          "type": "bool"
        }
      ],
      "stateMutability": "view",
      "type": "function",
      "constant": true
    },
    {
      "inputs": [
        {
          "internalType": "address",
          "name": "",
          "type": "address"
        },
        {
          "internalType": "uint256",
          "name": "",
          "type": "uint256"
        }
      ],
      "name": "rekamMedisByPasien",
      "outputs": [
        {
          "internalType": "uint256",
          "name": "",
          "type": "uint256"
        }
      ],
      "stateMutability": "view",
      "type": "function",
      "constant": true
    },
    {
      "inputs": [],
      "name": "rekamMedisCount",
      "outputs": [
        {
          "internalType": "uint256",
          "name": "",
          "type": "uint256"
        }
      ],
      "stateMutability": "view",
      "type": "function",
      "constant": true
    },
    {
      "inputs": [
        {
          "internalType": "uint256",
          "name": "",
          "type": "uint256"
        },
        {
          "internalType": "uint256",
          "name": "",
          "type": "uint256"
        }
      ],
      "name": "rekamMedisUpdateHistory",
      "outputs": [
        {
          "internalType": "address",
          "name": "dokter",
          "type": "address"
        },
        {
          "internalType": "uint256",
          "name": "timestamp",
          "type": "uint256"
        }
      ],
      "stateMutability": "view",
      "type": "function",
      "constant": true
    },
    {
      "inputs": [
        {
          "internalType": "uint256",
          "name": "",
          "type": "uint256"
        },
        {
          "internalType": "uint256",
          "name": "",
          "type": "uint256"
        }
      ],
      "name": "rekamMedisVersions",
      "outputs": [
        {
          "internalType": "uint256",
          "name": "id",
          "type": "uint256"
        },
        {
          "internalType": "address",
          "name": "pasien",
          "type": "address"
        },
        {
          "internalType": "string",
          "name": "diagnosa",
          "type": "string"
        },
        {
          "internalType": "string",
          "name": "foto",
          "type": "string"
        },
        {
          "internalType": "string",
          "name": "catatan",
          "type": "string"
        },
        {
          "internalType": "bool",
          "name": "valid",
          "type": "bool"
        }
      ],
      "stateMutability": "view",
      "type": "function",
      "constant": true
    },
    {
      "inputs": [],
      "name": "superAdmin",
      "outputs": [
        {
          "internalType": "address",
          "name": "",
          "type": "address"
        }
      ],
      "stateMutability": "view",
      "type": "function",
      "constant": true
    },
    {
      "inputs": [
        {
          "internalType": "address",
          "name": "_admin",
          "type": "address"
        },
        {
          "internalType": "string",
          "name": "_namaRS",
          "type": "string"
        }
      ],
      "name": "registerAdminRS",
      "outputs": [],
      "stateMutability": "nonpayable",
      "type": "function"
    },
    {
      "inputs": [],
      "name": "getAllAdminRSAddresses",
      "outputs": [
        {
          "internalType": "address[]",
          "name": "",
          "type": "address[]"
        }
      ],
      "stateMutability": "view",
      "type": "function",
      "constant": true
    },
    {
      "inputs": [
        {
          "internalType": "address",
          "name": "_admin",
          "type": "address"
        },
        {
          "internalType": "bool",
          "name": "_aktif",
          "type": "bool"
        }
      ],
      "name": "setStatusAdminRS",
      "outputs": [],
      "stateMutability": "nonpayable",
      "type": "function"
    },
    {
      "inputs": [],
      "name": "totalAdmin",
      "outputs": [
        {
          "internalType": "uint256",
          "name": "",
          "type": "uint256"
        }
      ],
      "stateMutability": "view",
      "type": "function",
      "constant": true
    },
    {
      "inputs": [
        {
          "internalType": "uint256",
          "name": "idx",
          "type": "uint256"
        }
      ],
      "name": "getAdminByIndex",
      "outputs": [
        {
          "internalType": "address",
          "name": "",
          "type": "address"
        }
      ],
      "stateMutability": "view",
      "type": "function",
      "constant": true
    },
    {
      "inputs": [
        {
          "internalType": "address",
          "name": "_dokter",
          "type": "address"
        },
        {
          "internalType": "bool",
          "name": "_aktif",
          "type": "bool"
        }
      ],
      "name": "setStatusDokter",
      "outputs": [],
      "stateMutability": "nonpayable",
      "type": "function"
    },
    {
      "inputs": [],
      "name": "totalDokter",
      "outputs": [
        {
          "internalType": "uint256",
          "name": "",
          "type": "uint256"
        }
      ],
      "stateMutability": "view",
      "type": "function",
      "constant": true
    },
    {
      "inputs": [
        {
          "internalType": "address",
          "name": "_dokter",
          "type": "address"
        },
        {
          "internalType": "string",
          "name": "_nama",
          "type": "string"
        },
        {
          "internalType": "string",
          "name": "_spesialisasi",
          "type": "string"
        },
        {
          "internalType": "string",
          "name": "_nomorLisensi",
          "type": "string"
        }
      ],
      "name": "registerDokter",
      "outputs": [],
      "stateMutability": "nonpayable",
      "type": "function"
    },
    {
      "inputs": [
        {
          "internalType": "uint256",
          "name": "idx",
          "type": "uint256"
        }
      ],
      "name": "getDokterByIndex",
      "outputs": [
        {
          "internalType": "address",
          "name": "",
          "type": "address"
        }
      ],
      "stateMutability": "view",
      "type": "function",
      "constant": true
    },
    {
      "inputs": [
        {
          "internalType": "address",
          "name": "_dokter",
          "type": "address"
        }
      ],
      "name": "getDokter",
      "outputs": [
        {
          "internalType": "string",
          "name": "nama",
          "type": "string"
        },
        {
          "internalType": "string",
          "name": "spesialisasi",
          "type": "string"
        },
        {
          "internalType": "string",
          "name": "nomorLisensi",
          "type": "string"
        },
        {
          "internalType": "bool",
          "name": "aktif",
          "type": "bool"
        },
        {
          "internalType": "address[]",
          "name": "pasienList",
          "type": "address[]"
        },
        {
          "internalType": "address",
          "name": "adminRS",
          "type": "address"
        }
      ],
      "stateMutability": "view",
      "type": "function",
      "constant": true
    },
    {
      "inputs": [
        {
          "internalType": "address",
          "name": "_pasien",
          "type": "address"
        },
        {
          "internalType": "string",
          "name": "_nama",
          "type": "string"
        },
        {
          "internalType": "address",
          "name": "_adminRS",
          "type": "address"
        }
      ],
      "name": "registerPasien",
      "outputs": [],
      "stateMutability": "nonpayable",
      "type": "function"
    },
    {
      "inputs": [
        {
          "internalType": "string",
          "name": "_nama",
          "type": "string"
        },
        {
          "internalType": "uint256",
          "name": "_umur",
          "type": "uint256"
        },
        {
          "internalType": "string",
          "name": "_golonganDarah",
          "type": "string"
        },
        {
          "internalType": "string",
          "name": "_tanggalLahir",
          "type": "string"
        },
        {
          "internalType": "string",
          "name": "_gender",
          "type": "string"
        },
        {
          "internalType": "string",
          "name": "_alamat",
          "type": "string"
        },
        {
          "internalType": "string",
          "name": "_noTelepon",
          "type": "string"
        },
        {
          "internalType": "string",
          "name": "_email",
          "type": "string"
        },
        {
          "internalType": "address",
          "name": "_adminRS",
          "type": "address"
        }
      ],
      "name": "selfRegisterPasien",
      "outputs": [],
      "stateMutability": "nonpayable",
      "type": "function"
    },
    {
      "inputs": [],
      "name": "getDaftarPasien",
      "outputs": [
        {
          "internalType": "address[]",
          "name": "",
          "type": "address[]"
        }
      ],
      "stateMutability": "view",
      "type": "function",
      "constant": true
    },
    {
      "inputs": [
        {
          "internalType": "address",
          "name": "_pasien",
          "type": "address"
        }
      ],
      "name": "getPasienData",
      "outputs": [
        {
          "internalType": "string",
          "name": "nama",
          "type": "string"
        },
        {
          "internalType": "uint256",
          "name": "umur",
          "type": "uint256"
        },
        {
          "internalType": "string",
          "name": "golonganDarah",
          "type": "string"
        },
        {
          "internalType": "string",
          "name": "tanggalLahir",
          "type": "string"
        },
        {
          "internalType": "string",
          "name": "gender",
          "type": "string"
        },
        {
          "internalType": "string",
          "name": "alamat",
          "type": "string"
        },
        {
          "internalType": "string",
          "name": "noTelepon",
          "type": "string"
        },
        {
          "internalType": "string",
          "name": "email",
          "type": "string"
        },
        {
          "internalType": "address",
          "name": "rumahSakitPenanggungJawab",
          "type": "address"
        }
      ],
      "stateMutability": "view",
      "type": "function",
      "constant": true
    },
    {
      "inputs": [
        {
          "internalType": "address",
          "name": "_dokter",
          "type": "address"
        },
        {
          "internalType": "address",
          "name": "_pasien",
          "type": "address"
        }
      ],
      "name": "assignPasienToDokter",
      "outputs": [],
      "stateMutability": "nonpayable",
      "type": "function"
    },
    {
      "inputs": [
        {
          "internalType": "address",
          "name": "_pasien",
          "type": "address"
        },
        {
          "internalType": "string",
          "name": "_diagnosa",
          "type": "string"
        },
        {
          "internalType": "string",
          "name": "_foto",
          "type": "string"
        },
        {
          "internalType": "string",
          "name": "_catatan",
          "type": "string"
        }
      ],
      "name": "tambahRekamMedis",
      "outputs": [],
      "stateMutability": "nonpayable",
      "type": "function"
    },
    {
      "inputs": [
        {
          "internalType": "uint256",
          "name": "_id",
          "type": "uint256"
        },
        {
          "internalType": "string",
          "name": "_diagnosa",
          "type": "string"
        },
        {
          "internalType": "string",
          "name": "_foto",
          "type": "string"
        },
        {
          "internalType": "string",
          "name": "_catatan",
          "type": "string"
        }
      ],
      "name": "updateRekamMedis",
      "outputs": [],
      "stateMutability": "nonpayable",
      "type": "function"
    },
    {
      "inputs": [
        {
          "internalType": "address",
          "name": "_pasien",
          "type": "address"
        }
      ],
      "name": "getRekamMedisIdsByPasien",
      "outputs": [
        {
          "internalType": "uint256[]",
          "name": "",
          "type": "uint256[]"
        }
      ],
      "stateMutability": "view",
      "type": "function",
      "constant": true
    },
    {
      "inputs": [
        {
          "internalType": "uint256",
          "name": "_id",
          "type": "uint256"
        }
      ],
      "name": "getRekamMedis",
      "outputs": [
        {
          "internalType": "address",
          "name": "pasien",
          "type": "address"
        },
        {
          "internalType": "string",
          "name": "diagnosa",
          "type": "string"
        },
        {
          "internalType": "string",
          "name": "foto",
          "type": "string"
        },
        {
          "internalType": "string",
          "name": "catatan",
          "type": "string"
        },
        {
          "internalType": "bool",
          "name": "valid",
          "type": "bool"
        }
      ],
      "stateMutability": "view",
      "type": "function",
      "constant": true
    },
    {
      "inputs": [
        {
          "internalType": "uint256",
          "name": "_id",
          "type": "uint256"
        }
      ],
      "name": "getRekamMedisVersions",
      "outputs": [
        {
          "components": [
            {
              "internalType": "uint256",
              "name": "id",
              "type": "uint256"
            },
            {
              "internalType": "address",
              "name": "pasien",
              "type": "address"
            },
            {
              "internalType": "string",
              "name": "diagnosa",
              "type": "string"
            },
            {
              "internalType": "string",
              "name": "foto",
              "type": "string"
            },
            {
              "internalType": "string",
              "name": "catatan",
              "type": "string"
            },
            {
              "internalType": "bool",
              "name": "valid",
              "type": "bool"
            }
          ],
          "internalType": "struct RekamMedisRS.RekamMedisData[]",
          "name": "",
          "type": "tuple[]"
        }
      ],
      "stateMutability": "view",
      "type": "function",
      "constant": true
    },
    {
      "inputs": [
        {
          "internalType": "uint256",
          "name": "_id",
          "type": "uint256"
        }
      ],
      "name": "getRekamMedisUpdateHistory",
      "outputs": [
        {
          "internalType": "address[]",
          "name": "",
          "type": "address[]"
        },
        {
          "internalType": "uint256[]",
          "name": "",
          "type": "uint256[]"
        }
      ],
      "stateMutability": "view",
      "type": "function",
      "constant": true
    },
    {
      "inputs": [
        {
          "internalType": "uint256",
          "name": "_id",
          "type": "uint256"
        }
      ],
      "name": "nonaktifkanRekamMedis",
      "outputs": [],
      "stateMutability": "nonpayable",
      "type": "function"
    },
    {
      "inputs": [
        {
          "internalType": "address",
          "name": "_newAdmin",
          "type": "address"
        }
      ],
      "name": "setSuperAdmin",
      "outputs": [],
      "stateMutability": "nonpayable",
      "type": "function"
    },
    {
      "inputs": [
        {
          "internalType": "address",
          "name": "_user",
          "type": "address"
        }
      ],
      "name": "getUserRole",
      "outputs": [
        {
          "internalType": "string",
          "name": "",
          "type": "string"
        }
      ],
      "stateMutability": "view",
      "type": "function",
      "constant": true
    }
  ],
  "bytecode": "0x6080806040523461003c57600080546001600160a01b03191673b0dc0bf642d339517438017fc185bb0f758a01d21790556141d590816100428239f35b600080fdfe6080604052600436101561001257600080fd5b60003560e01c8062410cb314613661578063046bdbcc14613602578063083d8824146135b65780631132beb514613577578063157000521461353057806319d9d3dd146134af57806319e8f4051461327757806326c249a114612a1257806327820851146129da57806329575f6a146129b15780632e2dd102146129935780633aaec728146123515780633bf76303146122ee5780633da05518146121e057806342699651146121b757806347960cb51461211157806351887b671461207c5780635c4c93481461203d5780635e6da24c14611e1d578063623785c114611daf57806364319e3314611d915780636837008714611d36578063786f3fbe14611c055780637d3e9db814611be7578063911b633a14611ba5578063924b912314611a97578063932e0f6d146119e15780639725955014611995578063a665102c146118d1578063abf72abb1461188e578063ad3c97081461138f578063c3c0fdea146112e2578063c967ede814611257578063d6887802146110ca578063dd09a96814611047578063ddbd24d314610b24578063df83dde0146102a25763f2ab4a99146101bd57600080fd5b3461029d576101cb366139b7565b60005490916001600160a01b03916101e69083163314613b03565b16908160005260016020526101ff604060002054613815565b156102585760207fd2e4d0240eabf0011425eb3fffbc4f311cd4b564ba547aba4b3163fd046f6a9791836000526001825261024d8160016040600020019060ff801983541691151516179055565b6040519015158152a2005b60405162461bcd60e51b815260206004820152601960248201527f41646d696e20525320746964616b20646974656d756b616e2e000000000000006044820152606490fd5b600080fd5b3461029d57606036600319011261029d576102bb6136b9565b6024356001600160401b03811161029d576102da9036906004016137a8565b906044356001600160a01b038116900361029d5733600052600160205261030b60ff60016040600020015416613c6b565b6001600160a01b03831660009081526006602052604090205460ff16610adf576001600160a01b0383166000908152600460205260409020546103519060ff1615613d87565b60018060a01b0360443516600052600160205261037860ff60016040600020015416613dca565b6001600160a01b03831660009081526006602052604090819020805460ff1916600117905551926103a88461384f565b6103b3368484613b44565b8452600060208501526040516103c8816138a1565b6000815260408501526040516103dd816138a1565b6000815260608501526040516103f2816138a1565b600081526080850152604051610407816138a1565b6000815260a085015260405161041c816138a1565b6000815260c0850152604051610431816138a1565b600080825260e08601919091526001600160a01b03604435811661010087015260016101208701528216815260056020526040902084518051919591906001600160401b0382116107f95781906104928261048c8a54613815565b8a613ba1565b602090601f8311600114610a7357600092610a68575b50508160011b916000199060031b1c19161785555b6020810151600186015560408101518051906001600160401b0382116107f95781906104f9826104f060028b0154613815565b60028b01613ba1565b602090601f83116001146109f6576000926109eb575b50508160011b916000199060031b1c19161760028601555b60608101518051906001600160401b0382116107f95781906105598261055060038b0154613815565b60038b01613ba1565b602090601f83116001146109795760009261096e575b50508160011b916000199060031b1c19161760038601555b60808101518051906001600160401b0382116107f95781906105b9826105b060048b0154613815565b60048b01613ba1565b602090601f83116001146108fc576000926108f1575b50508160011b916000199060031b1c19161760048601555b60a081015180516001600160401b0381116107f957806005880192610616826106108654613815565b86613ba1565b602090601f831160011461088b57600092610880575b50508160011b916000199060031b1c19161790555b60c081015180516001600160401b0381116107f95780600688019261066a826106108654613815565b602090601f831160011461081a5760009261080f575b50508160011b916000199060031b1c19161790555b60e08101519485516001600160401b0381116107f9576106c5816106bc6007850154613815565b60078501613ba1565b6020601f821160011461077757908060089392600080516020614180833981519152989960009261076c575b50508160011b916000199060031b1c19161760078201555b019060018060a01b036101008201511682549161012060ff60a01b910151151560a01b16916affffffffffffffffffffff60a81b161717905561074b81613be6565b61076760405192839260018060a01b0316956044359184613d5e565b0390a2005b0151905089806106f1565b6007830160005260206000209760005b601f19841681106107e157509160008051602061418083398151915297986001926008959483601f198116106107c8575b505050811b016007820155610709565b015160001960f88460031b161c191690558980806107b8565b828201518a5560019099019860209283019201610787565b634e487b7160e01b600052604160045260246000fd5b015190508880610680565b6000858152602081209350601f198516905b818110610868575090846001959493921061084f575b505050811b019055610695565b015160001960f88460031b161c19169055888080610842565b9293602060018192878601518155019501930161082c565b01519050888061062c565b6000858152602081209350601f198516905b8181106108d957509084600195949392106108c0575b505050811b019055610641565b015160001960f88460031b161c191690558880806108b3565b9293602060018192878601518155019501930161089d565b0151905087806105cf565b9250600488016000526020600020906000935b601f1984168510610953576001945083601f1981161061093a575b505050811b0160048601556105e7565b015160001960f88460031b161c1916905587808061092a565b8181015183556020948501946001909301929091019061090f565b01519050878061056f565b9250600388016000526020600020906000935b601f19841685106109d0576001945083601f198116106109b7575b505050811b016003860155610587565b015160001960f88460031b161c191690558780806109a7565b8181015183556020948501946001909301929091019061098c565b01519050878061050f565b9250600288016000526020600020906000935b601f1984168510610a4d576001945083601f19811610610a34575b505050811b016002860155610527565b015160001960f88460031b161c19169055878080610a24565b81810151835560209485019460019093019290910190610a09565b0151905087806104a8565b9250876000526020600020906000935b601f1984168510610ac4576001945083601f19811610610aab575b505050811b0185556104bd565b015160001960f88460031b161c19169055878080610a9e565b81810151835560209485019460019093019290910190610a83565b60405162461bcd60e51b815260206004820152601760248201527f50617369656e207375646168207465726461667461722e0000000000000000006044820152606490fd5b3461029d57610b3236613a6f565b90959291949395336000526001602052610b5660ff60016040600020015416613c6b565b6001600160a01b03841660009081526004602052604090205460ff16611012576001600160a01b03841660009081526006602052604090205460ff16610fd657610bfc9160018060a01b03851660005260046020526040600020600160ff19825416179055610bf060405194610bcb866138a1565b6000865260405198610bdc8a613886565b610be7368c8b613b44565b8a523691613b44565b60208801523691613b44565b60408501526001606085015260808401523360a084015260018060a01b038116600052600360205260406000209280518051906001600160401b0382116107f9578190610c5382610c4d8954613815565b89613ba1565b602090601f8311600114610f6a57600092610f5f575b50508160011b916000199060031b1c19161784555b60208101518051906001600160401b0382116107f9578190610cb082610ca760018a0154613815565b60018a01613ba1565b602090601f8311600114610eed57600092610ee2575b50508160011b916000199060031b1c19161760018501555b604081015180516001600160401b0381116107f957806002870192610d07826106108654613815565b602090601f8311600114610e7c57600092610e71575b50508160011b916000199060031b1c19161790555b610d5160608201511515600386019060ff801983541691151516179055565b60048401936080820151948551906001600160401b0382116107f957600160401b968783116107f9576020908254848455808510610e54575b500190600052602060002060005b838110610e3757505050506005019060a0600180821b03910151166001600160601b0360a01b825416179055600c54928310156107f957610e008360017f5c9d12a5bfda65f31ab460df37935bfe7b6cfa6a3787bf1f99858ccc15dc92779501600c556136cf565b81546001600160a01b0393841660039290921b82811b94901b19169290921790556040519093909182916107679133919084613d5e565b82516001600160a01b031681830155602090920191600101610d98565b610e6b908460005285846000209182019101613b8a565b8a610d8a565b015190508880610d1d565b6000858152602081209350601f198516905b818110610eca5750908460019594939210610eb1575b505050811b019055610d32565b015160001960f88460031b161c19169055888080610ea4565b92936020600181928786015181550195019301610e8e565b015190508780610cc6565b9250600187016000526020600020906000935b601f1984168510610f44576001945083601f19811610610f2b575b505050811b016001850155610cde565b015160001960f88460031b161c19169055878080610f1b565b81810151835560209485019460019093019290910190610f00565b015190508780610c69565b9250866000526020600020906000935b601f1984168510610fbb576001945083601f19811610610fa2575b505050811b018455610c7e565b015160001960f88460031b161c19169055878080610f95565b81810151835560209485019460019093019290910190610f7a565b60405162461bcd60e51b815260206004820152601460248201527320b630b6b0ba1036b4b634b5903830b9b4b2b71760611b6044820152606490fd5b60405162461bcd60e51b815260206004820152600d60248201526c29bab230b4103237b5ba32b91760991b6044820152606490fd5b3461029d57611055366139e6565b90600052600a602052604060002090815481101561029d5761107691613ae7565b50805460018201546001600160a01b0316916110c690611098600282016138dd565b906110a5600382016138dd565b60ff60056110b5600485016138dd565b930154169260405196879687613a18565b0390f35b3461029d5760208060031936011261029d57600435600052600a81526040600020908154916110f883613d47565b9261110660405194856138bc565b8084528284018092600052836000206000915b8383106111dc5750505050604051918083019381845251809452604083019360408160051b85010192916000955b8287106111545785850386f35b909192938280600192603f1989820301855287519081518152848060a01b038383015116838201526111c06111ad61119a604085015160c08060408701528501906137d5565b60608086015190858303908601526137d5565b60808085015190848303908501526137d5565b9160a08091015115159101529601920196019592919092611147565b6006866001926040999899516111f181613886565b85548152848060a01b03858701541683820152611210600287016138dd565b6040820152611221600387016138dd565b6060820152611232600487016138dd565b608082015260ff600587015416151560a0820152815201920192019190959495611119565b3461029d5760208060031936011261029d576001600160a01b036112796136b9565b1660005260088152604060002090604051808383829554938481520190600052836000209260005b858282106112cc575050506112b8925003836138bc565b6110c6604051928284938452830190613983565b85548452600195860195889550930192016112a1565b3461029d57602036600319011261029d576113626001600160a01b03806113076136b9565b166000526003602052604060002061131e816138dd565b9161137e61132e600184016138dd565b9161137061133e600286016138dd565b91600560ff600388015416960154169360405197889760a0895260a08901906137d5565b9087820360208901526137d5565b9085820360408701526137d5565b911515606084015260808301520390f35b3461029d5761139d36613a6f565b9495946001600160a01b03949392909160003387891603611830575060015b156117fb57858716600052600660205260ff60406000205416156117b6576114316113e8600954613f14565b9182600955604051946113fa86613886565b83865261142560208701978a8c1689526114168d8b3691613b44565b96604089019788523691613b44565b60608701523691613b44565b6080840152600160a084015260005260076020526040600020928251845585600185019151166001600160601b0360a01b825416179055518051906001600160401b0382116107f95781906114968261148d6002880154613815565b60028801613ba1565b602090601f831160011461174457600092611739575b50508160011b916000199060031b1c19161760028301555b60608101518051906001600160401b0382116107f95781906114f6826114ed6003880154613815565b60038801613ba1565b602090601f83116001146116c7576000926116bc575b50508160011b916000199060031b1c19161760038301555b6004820160808201518051906001600160401b0382116107f9576115528261154c8554613815565b85613ba1565b602090601f831160011461164a57928260a0936115a297969360059660009261163f575b50508160011b916000199060031b1c19161790555b0151151591019060ff801983541691151516179055565b818316600052600860205260406000209360095491855492600160401b8410156107f9576115fa847f8647b41d1ffdc302f876f0e70e0c442d110a3c8bad284218f99616149394c99798600161163397018155613753565b819291549060031b91821b91600019901b1916179055600954936040519586958652166020850152608060408501526080840191613c4a565b600160608301520390a1005b015190508c80611576565b90601f198316918460005260206000209260005b8181106116a45750936115a2979693600596936001938360a0981061168b575b505050811b01905561158b565b015160001960f88460031b161c191690558c808061167e565b9293602060018192878601518155019501930161165e565b01519050888061150c565b9250600385016000526020600020906000935b601f198416851061171e576001945083601f19811610611705575b505050811b016003830155611524565b015160001960f88460031b161c191690558880806116f5565b818101518355602094850194600190930192909101906116da565b0151905088806114ac565b9250600285016000526020600020906000935b601f198416851061179b576001945083601f19811610611782575b505050811b0160028301556114c4565b015160001960f88460031b161c19169055888080611772565b81810151835560209485019460019093019290910190611757565b60405162461bcd60e51b815260206004820152601760248201527f50617369656e20746964616b207465726461667461722e0000000000000000006044820152606490fd5b60405162461bcd60e51b815260206004820152600d60248201526c2a34b230b5903132b93430b59760991b6044820152606490fd5b33600052600460205260ff6040600020541661184c575b6113bc565b6003602052866005604060002001541687891660005260056020528760086040600020015416036113bc576118818833613f39565b15611847575060016113bc565b3461029d57602036600319011261029d576004356000908152600760205260409020805460018201546001600160a01b0316916110c690611098600282016138dd565b3461029d57602036600319011261029d576118ea6136b9565b6118f390613e0e565b95604098979895919594929451988998610120808b528a01611914916137d5565b9060208a015288810360408a015261192b916137d5565b878103606089015261193c916137d5565b868103608088015261194d916137d5565b85810360a087015261195e916137d5565b84810360c086015261196f916137d5565b83810360e0850152611980916137d5565b6001600160a01b039091166101008301520390f35b3461029d576119a3366139e6565b90600052600b6020526040600020805482101561029d576040916119c6916139fc565b506001808060a01b0382541691015482519182526020820152f35b3461029d5760207f3dcd68c14f5f191f12b3b56bf35d5d7eb22447e9ec685290967b4558822ca98a611a12366139b7565b9290923360005260018252611a3160ff60016040600020015416613c6b565b611a7260018060a01b03809516948560005260048452611a5860ff60406000205416613caf565b856000526003845233906005604060002001541614613cfb565b836000526003825261024d8160036040600020019060ff801983541691151516179055565b3461029d5760208060031936011261029d5760043580600052600b90818352604060002054611ac581613d47565b92611ad360405194856138bc565b818452601f199283611ae484613d47565b013687870137611af383613d47565b93611b0160405195866138bc565b838552611b0d84613d47565b01368786013760005b838110611b4757611b3a866110c6898860405194859460408652604086019061376b565b9184830390850152613983565b611ba09082600052838852611b608160406000206139fc565b50546001600160a01b0316611b75828961407a565b52826000528388526001611b8d8260406000206139fc565b500154611b9a828861407a565b52613f14565b611b16565b3461029d57602036600319011261029d5760043560025481101561029d57611bce60209161371c565b905460405160039290921b1c6001600160a01b03168152f35b3461029d57600036600319011261029d576020600c54604051908152f35b3461029d57602036600319011261029d576001600160a01b0380611c276136b9565b166000526005602052604060002090611c3f826138dd565b9060018301549260028101611c53906138dd565b90611c60600382016138dd565b611c6c600483016138dd565b611c78600584016138dd565b90611c85600685016138dd565b92611c92600786016138dd565b946008015495604051998a99610140808c528b01611caf916137d5565b9060208b015289810360408b0152611cc6916137d5565b88810360608a0152611cd7916137d5565b8781036080890152611ce8916137d5565b86810360a0880152611cf9916137d5565b85810360c0870152611d0a916137d5565b84810360e0860152611d1b916137d5565b91811661010084015260a01c60ff1615156101208301520390f35b3461029d57602036600319011261029d57600435600d5481101561029d57600d6000527fd7b6990105719101dabeb77144f2a3385c8033acd3af97e9423a695e81ad1eb501546040516001600160a01b039091168152602090f35b3461029d57600036600319011261029d576020600254604051908152f35b3461029d57602036600319011261029d57600435600254811015611dd857611bce60209161371c565b60405162461bcd60e51b815260206004820152601760248201527f496e6465782061646d696e20525320696e76616c69642e0000000000000000006044820152606490fd5b3461029d57604036600319011261029d57611e366136b9565b6001600160401b0360243581811161029d57611e569036906004016137a8565b909160018060a01b038094611e7082600054163314613b03565b169384600052600193602092858452611e8d604060002054613815565b611ff857604051611e9d8161386b565b611ea8368785613b44565b815284810187815288600052878652604060002091519081519384116107f9578891611ed8856106108654613815565b8790601f8611600114611f8f57611f1d959160009183611f84575b5050600019600383901b1c191690831b1783555b51151591019060ff801983541691151516179055565b60025491600160401b8310156107f957611f60837fc881e1c26fa1da107683b7f0c3f1689379721f2118918ff97cb8c0f0dfc9d35497610767950160025561371c565b819291549060031b9189831b921b1916179055604051938385948552840191613c4a565b015190508c80611ef3565b90601f1986169185600052896000209260005b8b828210611fe25750509185939188611f1d999410611fc9575b505050811b018355611f07565b015160001960f88460031b161c191690558c8080611fbc565b8385015186558e97909501949384019301611fa2565b60405162461bcd60e51b815260048101859052601960248201527f41646d696e205253207375646168207465726461667461722e000000000000006044820152606490fd5b3461029d57602036600319011261029d576001600160a01b0361205e6136b9565b166000526004602052602060ff604060002054166040519015158152f35b3461029d57600036600319011261029d5760405180600d54808252826020809301600d6000527fd7b6990105719101dabeb77144f2a3385c8033acd3af97e9423a695e81ad1eb59260005b858282106120f2575050506120de925003836138bc565b6110c660405192828493845283019061376b565b85546001600160a01b03168452600195860195889550930192016120c7565b3461029d57602036600319011261029d576004356000526007602052604060002060018060a01b0360018201541660ff6005830154166121ab612156600285016138dd565b9361219d612172600461216b600385016138dd565b93016138dd565b9161218f604051978897885260a0602089015260a08801906137d5565b9086820360408801526137d5565b9084820360608601526137d5565b90151560808301520390f35b3461029d57602036600319011261029d57600435600c5481101561029d57611bce6020916136cf565b3461029d5760208060031936011261029d576001600160a01b0390816122046136b9565b166000526003815260406000209060ff6003830154169260048301908060058501541692612231856138dd565b94600193612245600261216b8785016138dd565b93604051958685845491828152019360005285600020926000905b8282106122d7575050505050926122aa85936122b8936122896122cd9861229d9c9803876138bc565b6040519a8b9a60c08c5260c08c01906137d5565b918a8303908b01526137d5565b9087820360408901526137d5565b9115156060860152848203608086015261376b565b9060a08301520390f35b845481168652948701949383019390830190612260565b3461029d57602036600319011261029d576001600160a01b0361230f6136b9565b166000526001602052612345604060002060ff600161232d836138dd565b920154166040519283926040845260408401906137d5565b90151560208301520390f35b3461029d57608036600319011261029d576024356001600160401b03811161029d576123819036906004016137a8565b906044356001600160401b03811161029d576123a19036906004016137a8565b6064939193356001600160401b03811161029d576123c39036906004016137a8565b949091600435600052600760205260018060a01b036001604060002001541633600052600460205260ff604060002054168061297c575b156129415733600052600360205260018060a01b036005604060002001541681600052600560205260018060a01b0360086040600020015416036128fc576000903360005260036020526004604060002001906000918054925b8381106128bc575b505050501561286b576004356000526007602052604060002091600a60205260406000208054600160401b8110156107f95761249d91600182018155613ae7565b612674578381036127ef575b506001600160401b0385116107f9576124d2856124c96002860154613815565b60028601613ba1565b846000601f821160011461278157600091612776575b508560011b906000198760031b1c19161760028401555b6001600160401b0382116107f9578190612529826125206003870154613815565b60038701613ba1565b600090601f8311600114612705576000926126fa575b50508160011b916000199060031b1c19161760038201555b6001600160401b0385116107f95760040161257c856125768354613815565b83613ba1565b846000601f82116001146126955760009161268a575b508560011b906000198760031b1c19161790555b600435600052600b602052604060002090604051946125c48661386b565b33865260208601924284528054600160401b8110156107f9576125ec916001820181556139fc565b612674576001612663947fa06c67f47503323e059cd610f8be787c36f230a67a8ad4dc026d86692b66476b98828060a01b039051166001600160601b0360a01b84541617835551910155612655604051958695600435875260a0602088015260a0870191613c4a565b918483036040860152613c4a565b3360608301524260808301520390a1005b634e487b7160e01b600052600060045260246000fd5b905082013586612592565b60008381526020812092505b601f19881681106126e2575086601f198116106126c8575b5050600185811b0190556125a6565b830135600019600388901b60f8161c1916905585806126b9565b909160206001819285880135815501930191016126a1565b01359050878061253f565b909250600384016000526020600020906000935b601f198416851061275e576001945083601f19811610612744575b505050811b016003820155612557565b0135600019600384901b60f8161c19169055878080612734565b81810135835560209485019460019093019201612719565b9050860135886124e8565b90506002840160005260206000209060005b601f19881681106127d7575086601f198116106127bd575b5050600185811b0160028401556124ff565b870135600019600388901b60f8161c1916905587806127ab565b9091602060018192858c013581550193019101612793565b61286590845481556001810160018060a01b036001870154166001600160601b0360a01b8254161790556128296002860160028301613fa2565b6128396003860160038301613fa2565b6128496004860160048301613fa2565b600560ff818701541691019060ff801983541691151516179055565b876124a9565b60405162461bcd60e51b8152602060048201526024808201527f446f6b74657220746964616b20646961737369676e206b652070617369656e2060448201526334b7349760e11b6064820152608490fd5b826128c78284613753565b905460039190911b1c6001600160a01b0316146128ec576128e790613f14565b612454565b505050505060018780808061245c565b60405162461bcd60e51b815260206004820152601760248201527f446f6b74657220262070617369656e20626564612052530000000000000000006044820152606490fd5b60405162461bcd60e51b81526020600482015260136024820152722430b73cb0903237b5ba32b91030b5ba34b31760691b6044820152606490fd5b50600360205260ff600360406000200154166123fa565b3461029d57600036600319011261029d576020600954604051908152f35b3461029d57600036600319011261029d576000546040516001600160a01b039091168152602090f35b3461029d57602036600319011261029d576110c66129fe6129f96136b9565b61408e565b6040519182916020835260208301906137d5565b3461029d5761012036600319011261029d576004356001600160401b03811161029d57612a439036906004016137a8565b906044356001600160401b03811161029d57612a639036906004016137a8565b906064356001600160401b03811161029d57612a839036906004016137a8565b906084356001600160401b03811161029d57612aa39036906004016137a8565b9060a4356001600160401b03811161029d57612ac39036906004016137a8565b909160c4356001600160401b03811161029d57612ae49036906004016137a8565b94909560e4356001600160401b03811161029d57612b069036906004016137a8565b9099909890610104356001600160a01b038116900361029d5733600052600660205260ff6040600020541661323d578d9b33600052600460205260406000205460ff1615612b5390613d87565b610104356001600160a01b031660009081526001602081905260409091200154612b7f9060ff16613dca565b336000526006602052604060002060ff1981541660011790558d6040519d612ba68f61384f565b3690612bb192613b44565b8d528c60243590602001523690612bc792613b44565b60408c01523690612bd792613b44565b60608a01523690612be792613b44565b60808801523690612bf792613b44565b60a08601523690612c0792613b44565b60c08401523690612c1792613b44565b60e0820152610104356001600160a01b0316610100820152600161012082015233600090815260056020526040902081518051906001600160401b0382116107f9578190612c69826106108654613815565b602090601f83116001146131d1576000926131c6575b50508160011b916000199060031b1c19161781555b60208201516001820155604082015180516001600160401b0381116107f957806002840192612cc7826106108654613815565b602090601f831160011461316057600092613155575b50508160011b916000199060031b1c19161790555b606082015180516001600160401b0381116107f957806003840192612d1b826106108654613815565b602090601f83116001146130ef576000926130e4575b50508160011b916000199060031b1c19161790555b608082015180516001600160401b0381116107f957806004840192612d6f826106108654613815565b602090601f831160011461307e57600092613073575b50508160011b916000199060031b1c19161790555b60a082015180516001600160401b0381116107f957806005840192612dc3826106108654613815565b602090601f831160011461300d57600092613002575b50508160011b916000199060031b1c19161790555b60c082015180516001600160401b0381116107f957806006840192612e17826106108654613815565b602090601f8311600114612f9c57600092612f91575b50508160011b916000199060031b1c19161790555b6007810160e08301518051906001600160401b0382116107f957612e6a8261154c8554613815565b602090601f8311600114612f115792826008936000805160206141808339815191529896936107679896600092612f06575b50508160011b916000199060031b1c19161790555b019060018060a01b036101008201511682549161012060ff60a01b910151151560a01b16916affffffffffffffffffffff60a81b1617179055612ef333613be6565b6040519182913395610104359184613d5e565b015190508a80612e9c565b90601f198316918460005260206000209260005b818110612f795750936000805160206141808339815191529896936107679896936001938360089810612f60575b505050811b019055612eb1565b015160001960f88460031b161c191690558a8080612f53565b92936020600181928786015181550195019301612f25565b015190508780612e2d565b6000858152602081209350601f198516905b818110612fea5750908460019594939210612fd1575b505050811b019055612e42565b015160001960f88460031b161c19169055878080612fc4565b92936020600181928786015181550195019301612fae565b015190508780612dd9565b6000858152602081209350601f198516905b81811061305b5750908460019594939210613042575b505050811b019055612dee565b015160001960f88460031b161c19169055878080613035565b9293602060018192878601518155019501930161301f565b015190508780612d85565b6000858152602081209350601f198516905b8181106130cc57509084600195949392106130b3575b505050811b019055612d9a565b015160001960f88460031b161c191690558780806130a6565b92936020600181928786015181550195019301613090565b015190508780612d31565b6000858152602081209350601f198516905b81811061313d5750908460019594939210613124575b505050811b019055612d46565b015160001960f88460031b161c19169055878080613117565b92936020600181928786015181550195019301613101565b015190508780612cdd565b6000858152602081209350601f198516905b8181106131ae5750908460019594939210613195575b505050811b019055612cf2565b015160001960f88460031b161c19169055878080613188565b92936020600181928786015181550195019301613172565b015190508680612c7f565b9250836000526020600020906000935b601f1984168510613222576001945083601f19811610613209575b505050811b018155612c94565b015160001960f88460031b161c191690558680806131fc565b818101518355602094850194600190930192909101906131e1565b60405162461bcd60e51b815260206004820152601260248201527120b732309039bab230b4103830b9b4b2b71760711b6044820152606490fd5b3461029d57604036600319011261029d576132906136b9565b6001600160a01b03906024803583811692919083900361029d573360005283602092600184526132ca60ff60016040600020015416613c6b565b169384600052600483526132e560ff60406000205416613caf565b836000526006835260ff604060002054161561346b578460005260039182845261331a33836005604060002001541614613cfb565b846000526005845233826008604060002001541603613428578560005282845260046040600020016000918154925b8381106133c55750600160401b8310156133b1577fd9a2627959a7f46a8b96c10424cdae1f1b65151551cd206b119aca54c0a86a5a604089898989896133958a8a600182018155613753565b81939154911b9185831b921b19161790558351928352820152a1005b634e487b7160e01b60009081526041600452fd5b87856133d18386613753565b905490891b1c16146133eb576133e690613f14565b613349565b60405162461bcd60e51b815260048101889052601681840152752830b9b4b2b71039bab230b4103234b0b9b9b4b3b71760511b6044820152606490fd5b83601b6064926040519262461bcd60e51b845260048401528201527f50617369656e2062756b616e206d696c696b20525320616e64612e00000000006044820152fd5b60405162461bcd60e51b8152600481018490526017818401527f50617369656e2062656c756d207465726461667461722e0000000000000000006044820152606490fd5b3461029d57600036600319011261029d576040518060025480825282602080930160026000527f405787fa12a823e0f2b7631cc41b3ba8828b3321ca811111fa75cd3aa3bb5ace9260005b85828210613511575050506120de925003836138bc565b85546001600160a01b03168452600195860195889550930192016134fa565b3461029d57602036600319011261029d576135496136b9565b600054906001600160a01b03906135633383851614613b03565b6001600160a01b0319909216911617600055005b3461029d57602036600319011261029d576001600160a01b036135986136b9565b166000526006602052602060ff604060002054166040519015158152f35b3461029d57602036600319011261029d573360005260016020526135e460ff60016040600020015416613c6b565b6004356000908152600760205260409020600501805460ff19169055005b3461029d57602036600319011261029d57600435600c5481101561362b57611bce6020916136cf565b60405162461bcd60e51b815260206004820152600e60248201526d24b73232bc1034b73b30b634b21760911b6044820152606490fd5b3461029d57604036600319011261029d5761367a6136b9565b6001600160a01b031660009081526008602052604090208054602435919082101561029d576020916136ab91613753565b90546040519160031b1c8152f35b600435906001600160a01b038216820361029d57565b600c5481101561370657600c6000527fdf6966c971051c3d54ec59162606531493a51404a002842f56009d7e5cf4a8c70190600090565b634e487b7160e01b600052603260045260246000fd5b6002548110156137065760026000527f405787fa12a823e0f2b7631cc41b3ba8828b3321ca811111fa75cd3aa3bb5ace0190600090565b80548210156137065760005260206000200190600090565b90815180825260208080930193019160005b82811061378b575050505090565b83516001600160a01b03168552938101939281019260010161377d565b9181601f8401121561029d578235916001600160401b03831161029d576020838186019501011161029d57565b919082519283825260005b848110613801575050826000602080949584010152601f8019910116010190565b6020818301810151848301820152016137e0565b90600182811c92168015613845575b602083101461382f57565b634e487b7160e01b600052602260045260246000fd5b91607f1691613824565b61014081019081106001600160401b038211176107f957604052565b604081019081106001600160401b038211176107f957604052565b60c081019081106001600160401b038211176107f957604052565b602081019081106001600160401b038211176107f957604052565b90601f801991011681019081106001600160401b038211176107f957604052565b90604051918260008254926138f184613815565b908184526001948581169081600014613960575060011461391d575b505061391b925003836138bc565b565b9093915060005260209081600020936000915b81831061394857505061391b9350820101388061390d565b85548884018501529485019487945091830191613930565b91505061391b94506020925060ff191682840152151560051b820101388061390d565b90815180825260208080930193019160005b8281106139a3575050505090565b835185529381019392810192600101613995565b604090600319011261029d576004356001600160a01b038116810361029d5790602435801515810361029d5790565b604090600319011261029d576004359060243590565b80548210156137065760005260206000209060011b0190600090565b949193613a4b613a679460a096613a59949a999a8952600180891b0316602089015260c0604089015260c08801906137d5565b9086820360608801526137d5565b9084820360808601526137d5565b931515910152565b608060031982011261029d576004356001600160a01b038116810361029d57916001600160401b0360243581811161029d5783613aae916004016137a8565b9390939260443583811161029d5782613ac9916004016137a8565b9390939260643591821161029d57613ae3916004016137a8565b9091565b8054821015613706576000526006602060002091020190600090565b15613b0a57565b60405162461bcd60e51b81526020600482015260126024820152712430b73cb09039bab832b91030b236b4b71760711b6044820152606490fd5b9291926001600160401b0382116107f95760405191613b6d601f8201601f1916602001846138bc565b82948184528183011161029d578281602093846000960137010152565b818110613b95575050565b60008155600101613b8a565b9190601f8111613bb057505050565b61391b926000526020600020906020601f840160051c83019310613bdc575b601f0160051c0190613b8a565b9091508190613bcf565b600d54600160401b8110156107f9576001810180600d5581101561370657600d6000527fd7b6990105719101dabeb77144f2a3385c8033acd3af97e9423a695e81ad1eb50180546001600160a01b0319166001600160a01b03909216919091179055565b908060209392818452848401376000828201840152601f01601f1916010190565b15613c7257565b60405162461bcd60e51b81526020600482015260156024820152742430b73cb09030b236b4b71029299030b5ba34b31760591b6044820152606490fd5b15613cb657565b60405162461bcd60e51b815260206004820152601760248201527f446f6b7465722062656c756d207465726461667461722e0000000000000000006044820152606490fd5b15613d0257565b60405162461bcd60e51b815260206004820152601b60248201527f446f6b7465722062756b616e206d696c696b20525320616e64612e00000000006044820152606490fd5b6001600160401b0381116107f95760051b60200190565b91602091613d7791959495604085526040850191613c4a565b6001600160a01b03909416910152565b15613d8e57565b60405162461bcd60e51b815260206004820152601460248201527320b630b6b0ba1036b4b634b5903237b5ba32b91760611b6044820152606490fd5b15613dd157565b60405162461bcd60e51b815260206004820152601560248201527420b236b4b7102929903a34b230b59030b5ba34b31760591b6044820152606490fd5b9060018060a01b038092166000818152600660205260409160ff838320541615613ea35781526005602052209060018201549260088301541691613e51816138dd565b9392613e5f600283016138dd565b92613e6c600384016138dd565b92613e79600482016138dd565b92613e86600583016138dd565b92613e9f6007613e98600686016138dd565b94016138dd565b9190565b50919080935051613eb3816138a1565b82815292828151613ec3816138a1565b818152928251613ed2816138a1565b828152928051613ee1816138a1565b838152928151613ef0816138a1565b818152928251613eff816138a1565b8281529251613f0d816138a1565b8281529190565b6000198114613f235760010190565b634e487b7160e01b600052601160045260246000fd5b9060018060a01b038092166000526003918260205260046040600020016000938154945b858110613f6f57505050505050600090565b83613f7a8285613753565b905490841b1c1684861614613f9757613f9290613f14565b613f5d565b505050505050600190565b9080821461407657613fb48154613815565b906001600160401b0382116107f9578190613fd3826106108654613815565b600090601f831160011461400a57600092613fff575b50508160011b916000199060031b1c1916179055565b015490503880613fe9565b81526020808220858352818320935090601f1985169083905b82821061405d575050908460019594939210614044575b505050811b019055565b015460001960f88460031b161c1916905538808061403a565b8495819295850154815560018091019601940190614023565b5050565b80518210156137065760209160051b010190565b6000805490916001600160a01b0390811691168114614157578082526020916001835260409160ff600184842001541661413e578082526004845260ff8383205416614126578152600683528190205460ff1661410657662ab735b737bbb760c91b9051916140fc8361386b565b6007835282015290565b652830b9b4b2b760d11b90519161411c8361386b565b6006835282015290565b5050652237b5ba32b960d11b90519161411c8361386b565b50506641646d696e525360c81b9051916140fc8361386b565b50506040516141658161386b565b600a81526929bab832b920b236b4b760b11b60208201529056febc415dfc2764939233ab67a4f55915cc2bb9d94ecafbfb254036de3cd0dbb3a8a264697066735822122080259f79238573b3bb66b7548328d9b0e5c3cdbe51c90a56992a61068ab87d8964736f6c63430008130033",
  "immutableReferences": {},
  "source": "// SPDX-License-Identifier: MIT\r\npragma solidity ^0.8.0;\r\n\r\ncontract RekamMedisRS {\r\n    address public superAdmin;\r\n\r\n    struct AdminRS {\r\n        string namaRumahSakit;\r\n        bool aktif;\r\n    }\r\n    mapping(address => AdminRS) public dataAdmin;\r\n    address[] public daftarAdmin;\r\n\r\n    struct Dokter {\r\n        string nama;\r\n        string spesialisasi;\r\n        string nomorLisensi;\r\n        bool aktif;\r\n        address[] assignedPasien;\r\n        address adminRS; // Rumah sakit tempat dokter bertugas\r\n    }\r\n    mapping(address => Dokter) public dataDokter;\r\n    mapping(address => bool) public isDokter;\r\n\r\n    struct Pasien {\r\n        string nama;\r\n        uint umur;\r\n        string golonganDarah;\r\n        string tanggalLahir;\r\n        string gender;\r\n        string alamat;\r\n        string noTelepon;\r\n        string email;\r\n        address rumahSakitPenanggungJawab;\r\n        bool exists;\r\n    }\r\n    mapping(address => Pasien) public dataPasien;\r\n    mapping(address => bool) public isPasien;\r\n\r\n    struct UpdateInfo {\r\n        address dokter; // alamat dokter yang update\r\n        uint256 timestamp; // waktu update (block.timestamp)\r\n    }\r\n\r\n    struct RekamMedisData {\r\n        uint id;\r\n        address pasien;\r\n        string diagnosa;\r\n        string foto;\r\n        string catatan;\r\n        bool valid;\r\n    }\r\n    mapping(uint => RekamMedisData) public rekamMedis;\r\n    mapping(address => uint[]) public rekamMedisByPasien;\r\n    uint public rekamMedisCount;\r\n\r\n    // History versi rekam medis\r\n    mapping(uint => RekamMedisData[]) public rekamMedisVersions;\r\n    mapping(uint => UpdateInfo[]) public rekamMedisUpdateHistory;\r\n\r\n    // Events\r\n    event AdminRSTerdaftar(address indexed admin, string namaRumahSakit);\r\n    event AdminRSStatusDiubah(address indexed admin, bool aktif);\r\n    event DokterTerdaftar(address indexed dokter, string nama, address adminRS);\r\n    event DokterStatusDiubah(address indexed dokter, bool aktif);\r\n    event PasienTerdaftar(address indexed pasien, string nama, address adminRS);\r\n    event PasienPindahRS(address indexed pasien, address adminRS);\r\n    event PasienDiassignKeDokter(address dokter, address pasien);\r\n    event RekamMedisDitambahkan(\r\n        uint id,\r\n        address pasien,\r\n        string diagnosa,\r\n        bool valid\r\n    );\r\n    event RekamMedisDiperbarui(\r\n        uint id,\r\n        string diagnosa,\r\n        string catatan,\r\n        address dokter,\r\n        uint timestamp\r\n    );\r\n\r\n    constructor() {\r\n        superAdmin = 0xB0dC0Bf642d339517438017Fc185Bb0f758A01D2;\r\n    }\r\n\r\n    // Modifier\r\n    modifier hanyaSuperAdmin() {\r\n        require(msg.sender == superAdmin, \"Hanya super admin.\");\r\n        _;\r\n    }\r\n\r\n    modifier hanyaAdminRS() {\r\n        require(dataAdmin[msg.sender].aktif, \"Hanya admin RS aktif.\");\r\n        _;\r\n    }\r\n\r\n    modifier hanyaDokterAktif() {\r\n        require(\r\n            isDokter[msg.sender] && dataDokter[msg.sender].aktif,\r\n            \"Hanya dokter aktif.\"\r\n        );\r\n        _;\r\n    }\r\n\r\n    modifier hanyaDokterAktifUntukPasien(address _pasien) {\r\n        require(\r\n            isDokter[msg.sender] && dataDokter[msg.sender].aktif,\r\n            \"Hanya dokter aktif.\"\r\n        );\r\n        require(\r\n            dataDokter[msg.sender].adminRS ==\r\n                dataPasien[_pasien].rumahSakitPenanggungJawab,\r\n            \"Dokter & pasien beda RS\"\r\n        );\r\n        bool assigned = false;\r\n        address[] storage list = dataDokter[msg.sender].assignedPasien;\r\n        for (uint i = 0; i < list.length; i++) {\r\n            if (list[i] == _pasien) {\r\n                assigned = true;\r\n                break;\r\n            }\r\n        }\r\n        require(assigned, \"Dokter tidak diassign ke pasien ini.\");\r\n        _;\r\n    }\r\n\r\n    modifier hanyaPasien(address _pasien) {\r\n        require(msg.sender == _pasien, \"Hanya pasien.\");\r\n        _;\r\n    }\r\n\r\n\r\n    // Fungsi SuperAdmin mendaftarkan Admin RS baru\r\n    function registerAdminRS(\r\n        address _admin,\r\n        string calldata _namaRS\r\n    ) external hanyaSuperAdmin {\r\n        require(\r\n            bytes(dataAdmin[_admin].namaRumahSakit).length == 0,\r\n            \"Admin RS sudah terdaftar.\"\r\n        );\r\n        dataAdmin[_admin] = AdminRS({namaRumahSakit: _namaRS, aktif: true});\r\n        daftarAdmin.push(_admin);\r\n        emit AdminRSTerdaftar(_admin, _namaRS);\r\n    }\r\n    function getAllAdminRSAddresses() external view returns (address[] memory) {\r\n        return daftarAdmin;\r\n    }\r\n    // SuperAdmin ubah status admin RS (aktif/nonaktif)\r\n    function setStatusAdminRS(\r\n        address _admin,\r\n        bool _aktif\r\n    ) external hanyaSuperAdmin {\r\n        require(\r\n            bytes(dataAdmin[_admin].namaRumahSakit).length != 0,\r\n            \"Admin RS tidak ditemukan.\"\r\n        );\r\n        dataAdmin[_admin].aktif = _aktif;\r\n        emit AdminRSStatusDiubah(_admin, _aktif);\r\n    }\r\n\r\n    // Ambil total admin RS\r\n    function totalAdmin() external view returns (uint) {\r\n        return daftarAdmin.length;\r\n    }\r\n\r\n    // Ambil admin RS by index\r\n    function getAdminByIndex(uint idx) external view returns (address) {\r\n        require(idx < daftarAdmin.length, \"Index admin RS invalid.\");\r\n        return daftarAdmin[idx];\r\n    }\r\n\r\n    // // Admin RS mendaftarkan dokter baru\r\n    // function registerDokter(\r\n    //     address _dokter,\r\n    //     string calldata _nama,\r\n    //     string calldata _spesialisasi,\r\n    //     string calldata _nomorLisensi\r\n    // ) external hanyaAdminRS {\r\n    //     require(!isDokter[_dokter], \"Sudah dokter.\");\r\n    //     require(!isPasien[_dokter], \"Alamat milik pasien.\");\r\n    //     isDokter[_dokter] = true;\r\n    //     dataDokter[_dokter] = Dokter({\r\n    //         nama: _nama,\r\n    //         spesialisasi: _spesialisasi,\r\n    //         nomorLisensi: _nomorLisensi,\r\n    //         aktif: true,\r\n    //         assignedPasien: new address,\r\n    //         adminRS: msg.sender\r\n    //     });\r\n    //     emit DokterTerdaftar(_dokter, _nama, msg.sender);\r\n    // }\r\n\r\n    // Admin RS ubah status dokter\r\n    function setStatusDokter(\r\n        address _dokter,\r\n        bool _aktif\r\n    ) external hanyaAdminRS {\r\n        require(isDokter[_dokter], \"Dokter belum terdaftar.\");\r\n        require(\r\n            dataDokter[_dokter].adminRS == msg.sender,\r\n            \"Dokter bukan milik RS anda.\"\r\n        );\r\n        dataDokter[_dokter].aktif = _aktif;\r\n        emit DokterStatusDiubah(_dokter, _aktif);\r\n    }\r\n\r\n    // Ambil total dokter terdaftar (semua RS)\r\n    function totalDokter() external view returns (uint) {\r\n        return daftarDokter.length;\r\n    }\r\n\r\n    address[] public daftarDokter;\r\n\r\n    // Admin RS bisa panggil fungsi ini agar menambah daftarDokter (supaya totalDokter, getDokterByIndex jalan)\r\n    // Jangan lupa push saat registerDokter:\r\n    // daftarDokter.push(_dokter);\r\n    // Jadi tambahkan push di registerDokter:\r\n    // daftarDokter.push(_dokter);\r\n\r\n    // Admin RS mendaftarkan dokter baru dan simpan daftar\r\n    function registerDokter(\r\n        address _dokter,\r\n        string calldata _nama,\r\n        string calldata _spesialisasi,\r\n        string calldata _nomorLisensi\r\n    ) external hanyaAdminRS {\r\n        require(!isDokter[_dokter], \"Sudah dokter.\");\r\n        require(!isPasien[_dokter], \"Alamat milik pasien.\");\r\n        isDokter[_dokter] = true;\r\n        dataDokter[_dokter] = Dokter({\r\n            nama: _nama,\r\n            spesialisasi: _spesialisasi,\r\n            nomorLisensi: _nomorLisensi,\r\n            aktif: true,\r\n            assignedPasien: new address[](0),\r\n            adminRS: msg.sender\r\n        });\r\n        daftarDokter.push(_dokter);\r\n        emit DokterTerdaftar(_dokter, _nama, msg.sender);\r\n    }\r\n\r\n    // Ambil dokter by index\r\n    function getDokterByIndex(uint idx) external view returns (address) {\r\n        require(idx < daftarDokter.length, \"Index invalid.\");\r\n        return daftarDokter[idx];\r\n    }\r\n\r\n    // Ambil detail dokter\r\n    function getDokter(\r\n        address _dokter\r\n    )\r\n        external\r\n        view\r\n        returns (\r\n            string memory nama,\r\n            string memory spesialisasi,\r\n            string memory nomorLisensi,\r\n            bool aktif,\r\n            address[] memory pasienList,\r\n            address adminRS\r\n        )\r\n    {\r\n        Dokter storage d = dataDokter[_dokter];\r\n        return (\r\n            d.nama,\r\n            d.spesialisasi,\r\n            d.nomorLisensi,\r\n            d.aktif,\r\n            d.assignedPasien,\r\n            d.adminRS\r\n        );\r\n    }\r\n\r\n    // Admin RS mendaftarkan pasien baru\r\n    function registerPasien(\r\n        address _pasien,\r\n        string calldata _nama,\r\n        address _adminRS\r\n    ) external hanyaAdminRS {\r\n        require(!isPasien[_pasien], \"Pasien sudah terdaftar.\");\r\n        require(!isDokter[_pasien], \"Alamat milik dokter.\");\r\n        require(dataAdmin[_adminRS].aktif, \"Admin RS tidak aktif.\");\r\n        isPasien[_pasien] = true;\r\n        dataPasien[_pasien] = Pasien({\r\n            nama: _nama,\r\n            umur: 0,\r\n            golonganDarah: \"\",\r\n            tanggalLahir: \"\",\r\n            gender: \"\",\r\n            alamat: \"\",\r\n            noTelepon: \"\",\r\n            email: \"\",\r\n            rumahSakitPenanggungJawab: _adminRS,\r\n            exists: true\r\n        });\r\n        daftarPasien.push(_pasien);\r\n        emit PasienTerdaftar(_pasien, _nama, _adminRS);\r\n    }\r\n\r\n    // Pasien bisa register sendiri (mandiri)\r\n    function selfRegisterPasien(\r\n        string calldata _nama,\r\n        uint _umur,\r\n        string calldata _golonganDarah,\r\n        string calldata _tanggalLahir,\r\n        string calldata _gender,\r\n        string calldata _alamat,\r\n        string calldata _noTelepon,\r\n        string calldata _email,\r\n        address _adminRS\r\n    ) external {\r\n        require(!isPasien[msg.sender], \"Anda sudah pasien.\");\r\n        require(!isDokter[msg.sender], \"Alamat milik dokter.\");\r\n        require(dataAdmin[_adminRS].aktif, \"Admin RS tidak aktif.\");\r\n        isPasien[msg.sender] = true;\r\n        dataPasien[msg.sender] = Pasien({\r\n            nama: _nama,\r\n            umur: _umur,\r\n            golonganDarah: _golonganDarah,\r\n            tanggalLahir: _tanggalLahir,\r\n            gender: _gender,\r\n            alamat: _alamat,\r\n            noTelepon: _noTelepon,\r\n            email: _email,\r\n            rumahSakitPenanggungJawab: _adminRS,\r\n            exists: true\r\n        });\r\n        daftarPasien.push(msg.sender);\r\n        emit PasienTerdaftar(msg.sender, _nama, _adminRS);\r\n    }\r\n\r\n    // Ambil daftar pasien\r\n    address[] public daftarPasien;\r\n\r\n    function getDaftarPasien() external view returns (address[] memory) {\r\n        return daftarPasien;\r\n    }\r\n\r\n    // Ambil detail pasien\r\n    function getPasienData(\r\n        address _pasien\r\n    )\r\n        external\r\n        view\r\n        returns (\r\n            string memory nama,\r\n            uint umur,\r\n            string memory golonganDarah,\r\n            string memory tanggalLahir,\r\n            string memory gender,\r\n            string memory alamat,\r\n            string memory noTelepon,\r\n            string memory email,\r\n            address rumahSakitPenanggungJawab\r\n        )\r\n    {\r\n        if (!isPasien[_pasien]) {\r\n            return (\"\", 0, \"\", \"\", \"\", \"\", \"\", \"\", address(0));\r\n        }\r\n        Pasien storage p = dataPasien[_pasien];\r\n        return (\r\n            p.nama,\r\n            p.umur,\r\n            p.golonganDarah,\r\n            p.tanggalLahir,\r\n            p.gender,\r\n            p.alamat,\r\n            p.noTelepon,\r\n            p.email,\r\n            p.rumahSakitPenanggungJawab\r\n        );\r\n    }\r\n\r\n    // Admin RS assign pasien ke dokter\r\n    function assignPasienToDokter(\r\n        address _dokter,\r\n        address _pasien\r\n    ) external hanyaAdminRS {\r\n        require(isDokter[_dokter], \"Dokter belum terdaftar.\");\r\n        require(isPasien[_pasien], \"Pasien belum terdaftar.\");\r\n        require(\r\n            dataDokter[_dokter].adminRS == msg.sender,\r\n            \"Dokter bukan milik RS anda.\"\r\n        );\r\n        require(\r\n            dataPasien[_pasien].rumahSakitPenanggungJawab == msg.sender,\r\n            \"Pasien bukan milik RS anda.\"\r\n        );\r\n\r\n        address[] storage list = dataDokter[_dokter].assignedPasien;\r\n        for (uint i = 0; i < list.length; i++) {\r\n            require(list[i] != _pasien, \"Pasien sudah diassign.\");\r\n        }\r\n        list.push(_pasien);\r\n        emit PasienDiassignKeDokter(_dokter, _pasien);\r\n    }\r\n\r\n    // Tambah rekam medis (oleh pasien sendiri atau dokter aktif RS pasien)\r\n    function tambahRekamMedis(\r\n        address _pasien,\r\n        string calldata _diagnosa,\r\n        string calldata _foto,\r\n        string calldata _catatan\r\n    ) external {\r\n        bool isValidActor = false;\r\n        if (msg.sender == _pasien) {\r\n            isValidActor = true;\r\n        } else if (isDokter[msg.sender]) {\r\n            if (\r\n                dataDokter[msg.sender].adminRS ==\r\n                dataPasien[_pasien].rumahSakitPenanggungJawab\r\n            ) {\r\n                if (isAssigned(msg.sender, _pasien)) {\r\n                    isValidActor = true;\r\n                }\r\n            }\r\n        }\r\n        require(isValidActor, \"Tidak berhak.\");\r\n        require(isPasien[_pasien], \"Pasien tidak terdaftar.\");\r\n\r\n        rekamMedisCount++;\r\n        rekamMedis[rekamMedisCount] = RekamMedisData({\r\n            id: rekamMedisCount,\r\n            pasien: _pasien,\r\n            diagnosa: _diagnosa,\r\n            foto: _foto,\r\n            catatan: _catatan,\r\n            valid: true\r\n        });\r\n        rekamMedisByPasien[_pasien].push(rekamMedisCount);\r\n        emit RekamMedisDitambahkan(rekamMedisCount, _pasien, _diagnosa, true);\r\n    }\r\n\r\n    function isAssigned(\r\n        address _dokter,\r\n        address _pasien\r\n    ) internal view returns (bool) {\r\n        address[] storage list = dataDokter[_dokter].assignedPasien;\r\n        for (uint i = 0; i < list.length; i++) {\r\n            if (list[i] == _pasien) {\r\n                return true;\r\n            }\r\n        }\r\n        return false;\r\n    }\r\n\r\n    function updateRekamMedis(\r\n        uint _id,\r\n        string calldata _diagnosa,\r\n        string calldata _foto,\r\n        string calldata _catatan\r\n    ) external hanyaDokterAktifUntukPasien(rekamMedis[_id].pasien) {\r\n        RekamMedisData storage r = rekamMedis[_id];\r\n        rekamMedisVersions[_id].push(r);\r\n\r\n        r.diagnosa = _diagnosa;\r\n        r.foto = _foto;\r\n        r.catatan = _catatan;\r\n\r\n        // Simpan info update\r\n        rekamMedisUpdateHistory[_id].push(\r\n            UpdateInfo({dokter: msg.sender, timestamp: block.timestamp})\r\n        );\r\n\r\n        emit RekamMedisDiperbarui(\r\n            _id,\r\n            _diagnosa,\r\n            _catatan,\r\n            msg.sender,\r\n            block.timestamp\r\n        );\r\n    }\r\n\r\n    // Ambil rekam medis by pasien\r\n    function getRekamMedisIdsByPasien(\r\n        address _pasien\r\n    ) external view returns (uint[] memory) {\r\n        return rekamMedisByPasien[_pasien];\r\n    }\r\n\r\n    // Ambil detail rekam medis\r\n    function getRekamMedis(\r\n        uint _id\r\n    )\r\n        external\r\n        view\r\n        returns (\r\n            address pasien,\r\n            string memory diagnosa,\r\n            string memory foto,\r\n            string memory catatan,\r\n            bool valid\r\n        )\r\n    {\r\n        RekamMedisData storage r = rekamMedis[_id];\r\n        return (r.pasien, r.diagnosa, r.foto, r.catatan, r.valid);\r\n    }\r\n\r\n    // Ambil versi rekam medis\r\n    function getRekamMedisVersions(\r\n        uint _id\r\n    ) external view returns (RekamMedisData[] memory) {\r\n        return rekamMedisVersions[_id];\r\n    }\r\n    function getRekamMedisUpdateHistory(\r\n        uint _id\r\n    ) external view returns (address[] memory, uint256[] memory) {\r\n        uint len = rekamMedisUpdateHistory[_id].length;\r\n        address[] memory dokters = new address[](len);\r\n        uint256[] memory times = new uint256[](len);\r\n        for (uint i = 0; i < len; i++) {\r\n            dokters[i] = rekamMedisUpdateHistory[_id][i].dokter;\r\n            times[i] = rekamMedisUpdateHistory[_id][i].timestamp;\r\n        }\r\n        return (dokters, times);\r\n    }\r\n\r\n    // Nonaktifkan rekam medis (admin RS saja)\r\n    function nonaktifkanRekamMedis(uint _id) external hanyaAdminRS {\r\n        rekamMedis[_id].valid = false;\r\n    }\r\n\r\n    // Ganti superAdmin\r\n    function setSuperAdmin(address _newAdmin) external hanyaSuperAdmin {\r\n        superAdmin = _newAdmin;\r\n    }\r\n\r\n    // Ambil role user\r\n    function getUserRole(address _user) public view returns (string memory) {\r\n        if (_user == superAdmin) return \"SuperAdmin\";\r\n        if (dataAdmin[_user].aktif) return \"AdminRS\";\r\n        if (isDokter[_user]) return \"Dokter\";\r\n        if (isPasien[_user]) return \"Pasien\";\r\n        return \"Unknown\";\r\n    }\r\n}\r\n",
  "sourcePath": "D:\\TA\\rekam_medis_backend\\contracts\\RekamMedisRS.sol",
  "compiler": {
    "name": "solc",
    "version": "0.8.19+commit.7dd6d404.Emscripten.clang"
  },
  "schemaVersion": "3.4.16",
  "updatedAt": "2025-05-29T19:50:10.236Z",
  "networkType": "ethereum",
  "devdoc": {
    "kind": "dev",
    "methods": {},
    "version": 1
  },
  "userdoc": {
    "kind": "user",
    "methods": {},
    "version": 1
  }
}