{
  "contractName": "RekamMedisRS",
  "abi": [
    {
      "inputs": [],
      "stateMutability": "nonpayable",
      "type": "constructor"
    },
    {
      "anonymous": false,
      "inputs": [
        {
          "indexed": true,
          "internalType": "address",
          "name": "admin",
          "type": "address"
        },
        {
          "indexed": false,
          "internalType": "bool",
          "name": "aktif",
          "type": "bool"
        }
      ],
      "name": "AdminRSStatusDiubah",
      "type": "event"
    },
    {
      "anonymous": false,
      "inputs": [
        {
          "indexed": true,
          "internalType": "address",
          "name": "admin",
          "type": "address"
        },
        {
          "indexed": false,
          "internalType": "string",
          "name": "namaRumahSakit",
          "type": "string"
        }
      ],
      "name": "AdminRSTerdaftar",
      "type": "event"
    },
    {
      "anonymous": false,
      "inputs": [
        {
          "indexed": true,
          "internalType": "address",
          "name": "dokter",
          "type": "address"
        },
        {
          "indexed": false,
          "internalType": "bool",
          "name": "aktif",
          "type": "bool"
        }
      ],
      "name": "DokterStatusDiubah",
      "type": "event"
    },
    {
      "anonymous": false,
      "inputs": [
        {
          "indexed": true,
          "internalType": "address",
          "name": "dokter",
          "type": "address"
        },
        {
          "indexed": false,
          "internalType": "string",
          "name": "nama",
          "type": "string"
        },
        {
          "indexed": false,
          "internalType": "address",
          "name": "adminRS",
          "type": "address"
        }
      ],
      "name": "DokterTerdaftar",
      "type": "event"
    },
    {
      "anonymous": false,
      "inputs": [
        {
          "indexed": false,
          "internalType": "address",
          "name": "dokter",
          "type": "address"
        },
        {
          "indexed": false,
          "internalType": "address",
          "name": "pasien",
          "type": "address"
        }
      ],
      "name": "PasienDiassignKeDokter",
      "type": "event"
    },
    {
      "anonymous": false,
      "inputs": [
        {
          "indexed": true,
          "internalType": "address",
          "name": "pasien",
          "type": "address"
        },
        {
          "indexed": false,
          "internalType": "address",
          "name": "adminRS",
          "type": "address"
        }
      ],
      "name": "PasienPindahRS",
      "type": "event"
    },
    {
      "anonymous": false,
      "inputs": [
        {
          "indexed": true,
          "internalType": "address",
          "name": "pasien",
          "type": "address"
        },
        {
          "indexed": false,
          "internalType": "string",
          "name": "nama",
          "type": "string"
        },
        {
          "indexed": false,
          "internalType": "address",
          "name": "adminRS",
          "type": "address"
        }
      ],
      "name": "PasienTerdaftar",
      "type": "event"
    },
    {
      "anonymous": false,
      "inputs": [
        {
          "indexed": false,
          "internalType": "uint256",
          "name": "id",
          "type": "uint256"
        },
        {
          "indexed": false,
          "internalType": "string",
          "name": "diagnosa",
          "type": "string"
        },
        {
          "indexed": false,
          "internalType": "string",
          "name": "catatan",
          "type": "string"
        }
      ],
      "name": "RekamMedisDiperbarui",
      "type": "event"
    },
    {
      "anonymous": false,
      "inputs": [
        {
          "indexed": false,
          "internalType": "uint256",
          "name": "id",
          "type": "uint256"
        },
        {
          "indexed": false,
          "internalType": "address",
          "name": "pasien",
          "type": "address"
        },
        {
          "indexed": false,
          "internalType": "string",
          "name": "diagnosa",
          "type": "string"
        },
        {
          "indexed": false,
          "internalType": "bool",
          "name": "valid",
          "type": "bool"
        }
      ],
      "name": "RekamMedisDitambahkan",
      "type": "event"
    },
    {
      "inputs": [
        {
          "internalType": "uint256",
          "name": "",
          "type": "uint256"
        }
      ],
      "name": "daftarAdmin",
      "outputs": [
        {
          "internalType": "address",
          "name": "",
          "type": "address"
        }
      ],
      "stateMutability": "view",
      "type": "function",
      "constant": true
    },
    {
      "inputs": [
        {
          "internalType": "uint256",
          "name": "",
          "type": "uint256"
        }
      ],
      "name": "daftarDokter",
      "outputs": [
        {
          "internalType": "address",
          "name": "",
          "type": "address"
        }
      ],
      "stateMutability": "view",
      "type": "function",
      "constant": true
    },
    {
      "inputs": [
        {
          "internalType": "uint256",
          "name": "",
          "type": "uint256"
        }
      ],
      "name": "daftarPasien",
      "outputs": [
        {
          "internalType": "address",
          "name": "",
          "type": "address"
        }
      ],
      "stateMutability": "view",
      "type": "function",
      "constant": true
    },
    {
      "inputs": [
        {
          "internalType": "address",
          "name": "",
          "type": "address"
        }
      ],
      "name": "dataAdmin",
      "outputs": [
        {
          "internalType": "string",
          "name": "namaRumahSakit",
          "type": "string"
        },
        {
          "internalType": "bool",
          "name": "aktif",
          "type": "bool"
        }
      ],
      "stateMutability": "view",
      "type": "function",
      "constant": true
    },
    {
      "inputs": [
        {
          "internalType": "address",
          "name": "",
          "type": "address"
        }
      ],
      "name": "dataDokter",
      "outputs": [
        {
          "internalType": "string",
          "name": "nama",
          "type": "string"
        },
        {
          "internalType": "string",
          "name": "spesialisasi",
          "type": "string"
        },
        {
          "internalType": "string",
          "name": "nomorLisensi",
          "type": "string"
        },
        {
          "internalType": "bool",
          "name": "aktif",
          "type": "bool"
        },
        {
          "internalType": "address",
          "name": "adminRS",
          "type": "address"
        }
      ],
      "stateMutability": "view",
      "type": "function",
      "constant": true
    },
    {
      "inputs": [
        {
          "internalType": "address",
          "name": "",
          "type": "address"
        }
      ],
      "name": "dataPasien",
      "outputs": [
        {
          "internalType": "string",
          "name": "nama",
          "type": "string"
        },
        {
          "internalType": "uint256",
          "name": "umur",
          "type": "uint256"
        },
        {
          "internalType": "string",
          "name": "golonganDarah",
          "type": "string"
        },
        {
          "internalType": "string",
          "name": "tanggalLahir",
          "type": "string"
        },
        {
          "internalType": "string",
          "name": "gender",
          "type": "string"
        },
        {
          "internalType": "string",
          "name": "alamat",
          "type": "string"
        },
        {
          "internalType": "string",
          "name": "noTelepon",
          "type": "string"
        },
        {
          "internalType": "string",
          "name": "email",
          "type": "string"
        },
        {
          "internalType": "address",
          "name": "rumahSakitPenanggungJawab",
          "type": "address"
        },
        {
          "internalType": "bool",
          "name": "exists",
          "type": "bool"
        }
      ],
      "stateMutability": "view",
      "type": "function",
      "constant": true
    },
    {
      "inputs": [
        {
          "internalType": "address",
          "name": "",
          "type": "address"
        }
      ],
      "name": "isDokter",
      "outputs": [
        {
          "internalType": "bool",
          "name": "",
          "type": "bool"
        }
      ],
      "stateMutability": "view",
      "type": "function",
      "constant": true
    },
    {
      "inputs": [
        {
          "internalType": "address",
          "name": "",
          "type": "address"
        }
      ],
      "name": "isPasien",
      "outputs": [
        {
          "internalType": "bool",
          "name": "",
          "type": "bool"
        }
      ],
      "stateMutability": "view",
      "type": "function",
      "constant": true
    },
    {
      "inputs": [
        {
          "internalType": "uint256",
          "name": "",
          "type": "uint256"
        }
      ],
      "name": "rekamMedis",
      "outputs": [
        {
          "internalType": "uint256",
          "name": "id",
          "type": "uint256"
        },
        {
          "internalType": "address",
          "name": "pasien",
          "type": "address"
        },
        {
          "internalType": "string",
          "name": "diagnosa",
          "type": "string"
        },
        {
          "internalType": "string",
          "name": "foto",
          "type": "string"
        },
        {
          "internalType": "string",
          "name": "catatan",
          "type": "string"
        },
        {
          "internalType": "bool",
          "name": "valid",
          "type": "bool"
        }
      ],
      "stateMutability": "view",
      "type": "function",
      "constant": true
    },
    {
      "inputs": [
        {
          "internalType": "address",
          "name": "",
          "type": "address"
        },
        {
          "internalType": "uint256",
          "name": "",
          "type": "uint256"
        }
      ],
      "name": "rekamMedisByPasien",
      "outputs": [
        {
          "internalType": "uint256",
          "name": "",
          "type": "uint256"
        }
      ],
      "stateMutability": "view",
      "type": "function",
      "constant": true
    },
    {
      "inputs": [],
      "name": "rekamMedisCount",
      "outputs": [
        {
          "internalType": "uint256",
          "name": "",
          "type": "uint256"
        }
      ],
      "stateMutability": "view",
      "type": "function",
      "constant": true
    },
    {
      "inputs": [
        {
          "internalType": "uint256",
          "name": "",
          "type": "uint256"
        },
        {
          "internalType": "uint256",
          "name": "",
          "type": "uint256"
        }
      ],
      "name": "rekamMedisUpdateHistory",
      "outputs": [
        {
          "internalType": "address",
          "name": "dokter",
          "type": "address"
        },
        {
          "internalType": "uint256",
          "name": "timestamp",
          "type": "uint256"
        }
      ],
      "stateMutability": "view",
      "type": "function",
      "constant": true
    },
    {
      "inputs": [
        {
          "internalType": "uint256",
          "name": "",
          "type": "uint256"
        },
        {
          "internalType": "uint256",
          "name": "",
          "type": "uint256"
        }
      ],
      "name": "rekamMedisVersions",
      "outputs": [
        {
          "internalType": "uint256",
          "name": "id",
          "type": "uint256"
        },
        {
          "internalType": "address",
          "name": "pasien",
          "type": "address"
        },
        {
          "internalType": "string",
          "name": "diagnosa",
          "type": "string"
        },
        {
          "internalType": "string",
          "name": "foto",
          "type": "string"
        },
        {
          "internalType": "string",
          "name": "catatan",
          "type": "string"
        },
        {
          "internalType": "bool",
          "name": "valid",
          "type": "bool"
        }
      ],
      "stateMutability": "view",
      "type": "function",
      "constant": true
    },
    {
      "inputs": [],
      "name": "superAdmin",
      "outputs": [
        {
          "internalType": "address",
          "name": "",
          "type": "address"
        }
      ],
      "stateMutability": "view",
      "type": "function",
      "constant": true
    },
    {
      "inputs": [
        {
          "internalType": "address",
          "name": "_admin",
          "type": "address"
        },
        {
          "internalType": "string",
          "name": "_namaRS",
          "type": "string"
        }
      ],
      "name": "registerAdminRS",
      "outputs": [],
      "stateMutability": "nonpayable",
      "type": "function"
    },
    {
      "inputs": [
        {
          "internalType": "address",
          "name": "_admin",
          "type": "address"
        },
        {
          "internalType": "bool",
          "name": "_aktif",
          "type": "bool"
        }
      ],
      "name": "setStatusAdminRS",
      "outputs": [],
      "stateMutability": "nonpayable",
      "type": "function"
    },
    {
      "inputs": [],
      "name": "totalAdmin",
      "outputs": [
        {
          "internalType": "uint256",
          "name": "",
          "type": "uint256"
        }
      ],
      "stateMutability": "view",
      "type": "function",
      "constant": true
    },
    {
      "inputs": [
        {
          "internalType": "uint256",
          "name": "idx",
          "type": "uint256"
        }
      ],
      "name": "getAdminByIndex",
      "outputs": [
        {
          "internalType": "address",
          "name": "",
          "type": "address"
        }
      ],
      "stateMutability": "view",
      "type": "function",
      "constant": true
    },
    {
      "inputs": [
        {
          "internalType": "address",
          "name": "_dokter",
          "type": "address"
        },
        {
          "internalType": "bool",
          "name": "_aktif",
          "type": "bool"
        }
      ],
      "name": "setStatusDokter",
      "outputs": [],
      "stateMutability": "nonpayable",
      "type": "function"
    },
    {
      "inputs": [],
      "name": "totalDokter",
      "outputs": [
        {
          "internalType": "uint256",
          "name": "",
          "type": "uint256"
        }
      ],
      "stateMutability": "view",
      "type": "function",
      "constant": true
    },
    {
      "inputs": [
        {
          "internalType": "address",
          "name": "_dokter",
          "type": "address"
        },
        {
          "internalType": "string",
          "name": "_nama",
          "type": "string"
        },
        {
          "internalType": "string",
          "name": "_spesialisasi",
          "type": "string"
        },
        {
          "internalType": "string",
          "name": "_nomorLisensi",
          "type": "string"
        }
      ],
      "name": "registerDokter",
      "outputs": [],
      "stateMutability": "nonpayable",
      "type": "function"
    },
    {
      "inputs": [
        {
          "internalType": "uint256",
          "name": "idx",
          "type": "uint256"
        }
      ],
      "name": "getDokterByIndex",
      "outputs": [
        {
          "internalType": "address",
          "name": "",
          "type": "address"
        }
      ],
      "stateMutability": "view",
      "type": "function",
      "constant": true
    },
    {
      "inputs": [
        {
          "internalType": "address",
          "name": "_dokter",
          "type": "address"
        }
      ],
      "name": "getDokter",
      "outputs": [
        {
          "internalType": "string",
          "name": "nama",
          "type": "string"
        },
        {
          "internalType": "string",
          "name": "spesialisasi",
          "type": "string"
        },
        {
          "internalType": "string",
          "name": "nomorLisensi",
          "type": "string"
        },
        {
          "internalType": "bool",
          "name": "aktif",
          "type": "bool"
        },
        {
          "internalType": "address[]",
          "name": "pasienList",
          "type": "address[]"
        },
        {
          "internalType": "address",
          "name": "adminRS",
          "type": "address"
        }
      ],
      "stateMutability": "view",
      "type": "function",
      "constant": true
    },
    {
      "inputs": [
        {
          "internalType": "address",
          "name": "_pasien",
          "type": "address"
        },
        {
          "internalType": "string",
          "name": "_nama",
          "type": "string"
        },
        {
          "internalType": "address",
          "name": "_adminRS",
          "type": "address"
        }
      ],
      "name": "registerPasien",
      "outputs": [],
      "stateMutability": "nonpayable",
      "type": "function"
    },
    {
      "inputs": [
        {
          "internalType": "string",
          "name": "_nama",
          "type": "string"
        },
        {
          "internalType": "uint256",
          "name": "_umur",
          "type": "uint256"
        },
        {
          "internalType": "string",
          "name": "_golonganDarah",
          "type": "string"
        },
        {
          "internalType": "string",
          "name": "_tanggalLahir",
          "type": "string"
        },
        {
          "internalType": "string",
          "name": "_gender",
          "type": "string"
        },
        {
          "internalType": "string",
          "name": "_alamat",
          "type": "string"
        },
        {
          "internalType": "string",
          "name": "_noTelepon",
          "type": "string"
        },
        {
          "internalType": "string",
          "name": "_email",
          "type": "string"
        },
        {
          "internalType": "address",
          "name": "_adminRS",
          "type": "address"
        }
      ],
      "name": "selfRegisterPasien",
      "outputs": [],
      "stateMutability": "nonpayable",
      "type": "function"
    },
    {
      "inputs": [],
      "name": "getDaftarPasien",
      "outputs": [
        {
          "internalType": "address[]",
          "name": "",
          "type": "address[]"
        }
      ],
      "stateMutability": "view",
      "type": "function",
      "constant": true
    },
    {
      "inputs": [
        {
          "internalType": "address",
          "name": "_pasien",
          "type": "address"
        }
      ],
      "name": "getPasienData",
      "outputs": [
        {
          "internalType": "string",
          "name": "nama",
          "type": "string"
        },
        {
          "internalType": "uint256",
          "name": "umur",
          "type": "uint256"
        },
        {
          "internalType": "string",
          "name": "golonganDarah",
          "type": "string"
        },
        {
          "internalType": "string",
          "name": "tanggalLahir",
          "type": "string"
        },
        {
          "internalType": "string",
          "name": "gender",
          "type": "string"
        },
        {
          "internalType": "string",
          "name": "alamat",
          "type": "string"
        },
        {
          "internalType": "string",
          "name": "noTelepon",
          "type": "string"
        },
        {
          "internalType": "string",
          "name": "email",
          "type": "string"
        },
        {
          "internalType": "address",
          "name": "rumahSakitPenanggungJawab",
          "type": "address"
        }
      ],
      "stateMutability": "view",
      "type": "function",
      "constant": true
    },
    {
      "inputs": [
        {
          "internalType": "address",
          "name": "_dokter",
          "type": "address"
        },
        {
          "internalType": "address",
          "name": "_pasien",
          "type": "address"
        }
      ],
      "name": "assignPasienToDokter",
      "outputs": [],
      "stateMutability": "nonpayable",
      "type": "function"
    },
    {
      "inputs": [
        {
          "internalType": "address",
          "name": "_pasien",
          "type": "address"
        },
        {
          "internalType": "string",
          "name": "_diagnosa",
          "type": "string"
        },
        {
          "internalType": "string",
          "name": "_foto",
          "type": "string"
        },
        {
          "internalType": "string",
          "name": "_catatan",
          "type": "string"
        }
      ],
      "name": "tambahRekamMedis",
      "outputs": [],
      "stateMutability": "nonpayable",
      "type": "function"
    },
    {
      "inputs": [
        {
          "internalType": "uint256",
          "name": "_id",
          "type": "uint256"
        },
        {
          "internalType": "string",
          "name": "_diagnosa",
          "type": "string"
        },
        {
          "internalType": "string",
          "name": "_foto",
          "type": "string"
        },
        {
          "internalType": "string",
          "name": "_catatan",
          "type": "string"
        }
      ],
      "name": "updateRekamMedis",
      "outputs": [],
      "stateMutability": "nonpayable",
      "type": "function"
    },
    {
      "inputs": [
        {
          "internalType": "address",
          "name": "_pasien",
          "type": "address"
        }
      ],
      "name": "getRekamMedisIdsByPasien",
      "outputs": [
        {
          "internalType": "uint256[]",
          "name": "",
          "type": "uint256[]"
        }
      ],
      "stateMutability": "view",
      "type": "function",
      "constant": true
    },
    {
      "inputs": [
        {
          "internalType": "uint256",
          "name": "_id",
          "type": "uint256"
        }
      ],
      "name": "getRekamMedis",
      "outputs": [
        {
          "internalType": "address",
          "name": "pasien",
          "type": "address"
        },
        {
          "internalType": "string",
          "name": "diagnosa",
          "type": "string"
        },
        {
          "internalType": "string",
          "name": "foto",
          "type": "string"
        },
        {
          "internalType": "string",
          "name": "catatan",
          "type": "string"
        },
        {
          "internalType": "bool",
          "name": "valid",
          "type": "bool"
        }
      ],
      "stateMutability": "view",
      "type": "function",
      "constant": true
    },
    {
      "inputs": [
        {
          "internalType": "uint256",
          "name": "_id",
          "type": "uint256"
        }
      ],
      "name": "getRekamMedisVersions",
      "outputs": [
        {
          "components": [
            {
              "internalType": "uint256",
              "name": "id",
              "type": "uint256"
            },
            {
              "internalType": "address",
              "name": "pasien",
              "type": "address"
            },
            {
              "internalType": "string",
              "name": "diagnosa",
              "type": "string"
            },
            {
              "internalType": "string",
              "name": "foto",
              "type": "string"
            },
            {
              "internalType": "string",
              "name": "catatan",
              "type": "string"
            },
            {
              "internalType": "bool",
              "name": "valid",
              "type": "bool"
            }
          ],
          "internalType": "struct RekamMedisRS.RekamMedisData[]",
          "name": "",
          "type": "tuple[]"
        }
      ],
      "stateMutability": "view",
      "type": "function",
      "constant": true
    },
    {
      "inputs": [
        {
          "internalType": "uint256",
          "name": "_id",
          "type": "uint256"
        }
      ],
      "name": "getRekamMedisUpdateHistory",
      "outputs": [
        {
          "internalType": "address[]",
          "name": "",
          "type": "address[]"
        },
        {
          "internalType": "uint256[]",
          "name": "",
          "type": "uint256[]"
        }
      ],
      "stateMutability": "view",
      "type": "function",
      "constant": true
    },
    {
      "inputs": [
        {
          "internalType": "uint256",
          "name": "_id",
          "type": "uint256"
        }
      ],
      "name": "nonaktifkanRekamMedis",
      "outputs": [],
      "stateMutability": "nonpayable",
      "type": "function"
    },
    {
      "inputs": [
        {
          "internalType": "address",
          "name": "_newAdmin",
          "type": "address"
        }
      ],
      "name": "setSuperAdmin",
      "outputs": [],
      "stateMutability": "nonpayable",
      "type": "function"
    },
    {
      "inputs": [
        {
          "internalType": "address",
          "name": "_user",
          "type": "address"
        }
      ],
      "name": "getUserRole",
      "outputs": [
        {
          "internalType": "string",
          "name": "",
          "type": "string"
        }
      ],
      "stateMutability": "view",
      "type": "function",
      "constant": true
    }
  ],
  "bytecode": "0x6080806040523461003c57600080546001600160a01b03191673b0dc0bf642d339517438017fc185bb0f758a01d217905561413d90816100428239f35b600080fdfe6080604052600436101561001257600080fd5b60003560e01c8062410cb3146135c9578063046bdbcc1461356a578063083d88241461351e5780631132beb5146134df578063157000521461349857806319e8f4051461326057806326c249a1146129fb57806327820851146129c357806329575f6a1461299a5780632e2dd1021461297c5780633aaec728146123465780633bf76303146122e35780633da05518146121d557806342699651146121ac57806347960cb51461210657806351887b67146120715780635c4c9348146120325780635e6da24c14611e12578063623785c114611da457806364319e3314611d865780636837008714611d2b578063786f3fbe14611bfa5780637d3e9db814611bdc578063911b633a14611b9a578063924b912314611a8c578063932e0f6d146119d6578063972595501461198a578063a665102c146118c6578063abf72abb14611883578063ad3c970814611384578063c3c0fdea146112d7578063c967ede81461124c578063d6887802146110bf578063dd09a9681461103c578063ddbd24d314610b19578063df83dde0146102975763f2ab4a99146101b257600080fd5b34610292576101c03661391f565b60005490916001600160a01b03916101db9083163314613a6b565b16908160005260016020526101f4604060002054613740565b1561024d5760207fd2e4d0240eabf0011425eb3fffbc4f311cd4b564ba547aba4b3163fd046f6a979183600052600182526102428160016040600020019060ff801983541691151516179055565b6040519015158152a2005b60405162461bcd60e51b815260206004820152601960248201527f41646d696e20525320746964616b20646974656d756b616e2e000000000000006044820152606490fd5b600080fd5b34610292576060366003190112610292576102b0613621565b6024356001600160401b038111610292576102cf9036906004016136d3565b906044356001600160a01b03811690036102925733600052600160205261030060ff60016040600020015416613bd3565b6001600160a01b03831660009081526006602052604090205460ff16610ad4576001600160a01b0383166000908152600460205260409020546103469060ff1615613cef565b60018060a01b0360443516600052600160205261036d60ff60016040600020015416613d32565b6001600160a01b03831660009081526006602052604090819020805460ff19166001179055519261039d8461377a565b6103a8368484613aac565b8452600060208501526040516103bd816137cc565b6000815260408501526040516103d2816137cc565b6000815260608501526040516103e7816137cc565b6000815260808501526040516103fc816137cc565b6000815260a0850152604051610411816137cc565b6000815260c0850152604051610426816137cc565b600080825260e08601919091526001600160a01b03604435811661010087015260016101208701528216815260056020526040902084518051919591906001600160401b0382116107ee578190610487826104818a54613740565b8a613b09565b602090601f8311600114610a6857600092610a5d575b50508160011b916000199060031b1c19161785555b6020810151600186015560408101518051906001600160401b0382116107ee5781906104ee826104e560028b0154613740565b60028b01613b09565b602090601f83116001146109eb576000926109e0575b50508160011b916000199060031b1c19161760028601555b60608101518051906001600160401b0382116107ee57819061054e8261054560038b0154613740565b60038b01613b09565b602090601f831160011461096e57600092610963575b50508160011b916000199060031b1c19161760038601555b60808101518051906001600160401b0382116107ee5781906105ae826105a560048b0154613740565b60048b01613b09565b602090601f83116001146108f1576000926108e6575b50508160011b916000199060031b1c19161760048601555b60a081015180516001600160401b0381116107ee5780600588019261060b826106058654613740565b86613b09565b602090601f831160011461088057600092610875575b50508160011b916000199060031b1c19161790555b60c081015180516001600160401b0381116107ee5780600688019261065f826106058654613740565b602090601f831160011461080f57600092610804575b50508160011b916000199060031b1c19161790555b60e08101519485516001600160401b0381116107ee576106ba816106b16007850154613740565b60078501613b09565b6020601f821160011461076c579080600893926000805160206140e88339815191529899600092610761575b50508160011b916000199060031b1c19161760078201555b019060018060a01b036101008201511682549161012060ff60a01b910151151560a01b16916affffffffffffffffffffff60a81b161717905561074081613b4e565b61075c60405192839260018060a01b0316956044359184613cc6565b0390a2005b0151905089806106e6565b6007830160005260206000209760005b601f19841681106107d65750916000805160206140e883398151915297986001926008959483601f198116106107bd575b505050811b0160078201556106fe565b015160001960f88460031b161c191690558980806107ad565b828201518a556001909901986020928301920161077c565b634e487b7160e01b600052604160045260246000fd5b015190508880610675565b6000858152602081209350601f198516905b81811061085d5750908460019594939210610844575b505050811b01905561068a565b015160001960f88460031b161c19169055888080610837565b92936020600181928786015181550195019301610821565b015190508880610621565b6000858152602081209350601f198516905b8181106108ce57509084600195949392106108b5575b505050811b019055610636565b015160001960f88460031b161c191690558880806108a8565b92936020600181928786015181550195019301610892565b0151905087806105c4565b9250600488016000526020600020906000935b601f1984168510610948576001945083601f1981161061092f575b505050811b0160048601556105dc565b015160001960f88460031b161c1916905587808061091f565b81810151835560209485019460019093019290910190610904565b015190508780610564565b9250600388016000526020600020906000935b601f19841685106109c5576001945083601f198116106109ac575b505050811b01600386015561057c565b015160001960f88460031b161c1916905587808061099c565b81810151835560209485019460019093019290910190610981565b015190508780610504565b9250600288016000526020600020906000935b601f1984168510610a42576001945083601f19811610610a29575b505050811b01600286015561051c565b015160001960f88460031b161c19169055878080610a19565b818101518355602094850194600190930192909101906109fe565b01519050878061049d565b9250876000526020600020906000935b601f1984168510610ab9576001945083601f19811610610aa0575b505050811b0185556104b2565b015160001960f88460031b161c19169055878080610a93565b81810151835560209485019460019093019290910190610a78565b60405162461bcd60e51b815260206004820152601760248201527f50617369656e207375646168207465726461667461722e0000000000000000006044820152606490fd5b3461029257610b27366139d7565b90959291949395336000526001602052610b4b60ff60016040600020015416613bd3565b6001600160a01b03841660009081526004602052604090205460ff16611007576001600160a01b03841660009081526006602052604090205460ff16610fcb57610bf19160018060a01b03851660005260046020526040600020600160ff19825416179055610be560405194610bc0866137cc565b6000865260405198610bd18a6137b1565b610bdc368c8b613aac565b8a523691613aac565b60208801523691613aac565b60408501526001606085015260808401523360a084015260018060a01b038116600052600360205260406000209280518051906001600160401b0382116107ee578190610c4882610c428954613740565b89613b09565b602090601f8311600114610f5f57600092610f54575b50508160011b916000199060031b1c19161784555b60208101518051906001600160401b0382116107ee578190610ca582610c9c60018a0154613740565b60018a01613b09565b602090601f8311600114610ee257600092610ed7575b50508160011b916000199060031b1c19161760018501555b604081015180516001600160401b0381116107ee57806002870192610cfc826106058654613740565b602090601f8311600114610e7157600092610e66575b50508160011b916000199060031b1c19161790555b610d4660608201511515600386019060ff801983541691151516179055565b60048401936080820151948551906001600160401b0382116107ee57600160401b968783116107ee576020908254848455808510610e49575b500190600052602060002060005b838110610e2c57505050506005019060a0600180821b03910151166001600160601b0360a01b825416179055600c54928310156107ee57610df58360017f5c9d12a5bfda65f31ab460df37935bfe7b6cfa6a3787bf1f99858ccc15dc92779501600c55613637565b81546001600160a01b0393841660039290921b82811b94901b191692909217905560405190939091829161075c9133919084613cc6565b82516001600160a01b031681830155602090920191600101610d8d565b610e60908460005285846000209182019101613af2565b8a610d7f565b015190508880610d12565b6000858152602081209350601f198516905b818110610ebf5750908460019594939210610ea6575b505050811b019055610d27565b015160001960f88460031b161c19169055888080610e99565b92936020600181928786015181550195019301610e83565b015190508780610cbb565b9250600187016000526020600020906000935b601f1984168510610f39576001945083601f19811610610f20575b505050811b016001850155610cd3565b015160001960f88460031b161c19169055878080610f10565b81810151835560209485019460019093019290910190610ef5565b015190508780610c5e565b9250866000526020600020906000935b601f1984168510610fb0576001945083601f19811610610f97575b505050811b018455610c73565b015160001960f88460031b161c19169055878080610f8a565b81810151835560209485019460019093019290910190610f6f565b60405162461bcd60e51b815260206004820152601460248201527320b630b6b0ba1036b4b634b5903830b9b4b2b71760611b6044820152606490fd5b60405162461bcd60e51b815260206004820152600d60248201526c29bab230b4103237b5ba32b91760991b6044820152606490fd5b346102925761104a3661394e565b90600052600a60205260406000209081548110156102925761106b91613a4f565b50805460018201546001600160a01b0316916110bb9061108d60028201613808565b9061109a60038201613808565b60ff60056110aa60048501613808565b930154169260405196879687613980565b0390f35b346102925760208060031936011261029257600435600052600a81526040600020908154916110ed83613caf565b926110fb60405194856137e7565b8084528284018092600052836000206000915b8383106111d15750505050604051918083019381845251809452604083019360408160051b85010192916000955b8287106111495785850386f35b909192938280600192603f1989820301855287519081518152848060a01b038383015116838201526111b56111a261118f604085015160c0806040870152850190613700565b6060808601519085830390860152613700565b6080808501519084830390850152613700565b9160a0809101511515910152960192019601959291909261113c565b6006866001926040999899516111e6816137b1565b85548152848060a01b0385870154168382015261120560028701613808565b604082015261121660038701613808565b606082015261122760048701613808565b608082015260ff600587015416151560a082015281520192019201919095949561110e565b3461029257602080600319360112610292576001600160a01b0361126e613621565b1660005260088152604060002090604051808383829554938481520190600052836000209260005b858282106112c1575050506112ad925003836137e7565b6110bb6040519282849384528301906138eb565b8554845260019586019588955093019201611296565b34610292576020366003190112610292576113576001600160a01b03806112fc613621565b166000526003602052604060002061131381613808565b9161137361132360018401613808565b9161136561133360028601613808565b91600560ff600388015416960154169360405197889760a0895260a0890190613700565b908782036020890152613700565b908582036040870152613700565b911515606084015260808301520390f35b3461029257611392366139d7565b9495946001600160a01b03949392909160003387891603611825575060015b156117f057858716600052600660205260ff60406000205416156117ab576114266113dd600954613e7c565b9182600955604051946113ef866137b1565b83865261141a60208701978a8c16895261140b8d8b3691613aac565b96604089019788523691613aac565b60608701523691613aac565b6080840152600160a084015260005260076020526040600020928251845585600185019151166001600160601b0360a01b825416179055518051906001600160401b0382116107ee57819061148b826114826002880154613740565b60028801613b09565b602090601f83116001146117395760009261172e575b50508160011b916000199060031b1c19161760028301555b60608101518051906001600160401b0382116107ee5781906114eb826114e26003880154613740565b60038801613b09565b602090601f83116001146116bc576000926116b1575b50508160011b916000199060031b1c19161760038301555b6004820160808201518051906001600160401b0382116107ee57611547826115418554613740565b85613b09565b602090601f831160011461163f57928260a093611597979693600596600092611634575b50508160011b916000199060031b1c19161790555b0151151591019060ff801983541691151516179055565b818316600052600860205260406000209360095491855492600160401b8410156107ee576115ef847f8647b41d1ffdc302f876f0e70e0c442d110a3c8bad284218f99616149394c997986001611628970181556136bb565b819291549060031b91821b91600019901b1916179055600954936040519586958652166020850152608060408501526080840191613bb2565b600160608301520390a1005b015190508c8061156b565b90601f198316918460005260206000209260005b818110611699575093611597979693600596936001938360a09810611680575b505050811b019055611580565b015160001960f88460031b161c191690558c8080611673565b92936020600181928786015181550195019301611653565b015190508880611501565b9250600385016000526020600020906000935b601f1984168510611713576001945083601f198116106116fa575b505050811b016003830155611519565b015160001960f88460031b161c191690558880806116ea565b818101518355602094850194600190930192909101906116cf565b0151905088806114a1565b9250600285016000526020600020906000935b601f1984168510611790576001945083601f19811610611777575b505050811b0160028301556114b9565b015160001960f88460031b161c19169055888080611767565b8181015183556020948501946001909301929091019061174c565b60405162461bcd60e51b815260206004820152601760248201527f50617369656e20746964616b207465726461667461722e0000000000000000006044820152606490fd5b60405162461bcd60e51b815260206004820152600d60248201526c2a34b230b5903132b93430b59760991b6044820152606490fd5b33600052600460205260ff60406000205416611841575b6113b1565b6003602052866005604060002001541687891660005260056020528760086040600020015416036113b1576118768833613ea1565b1561183c575060016113b1565b34610292576020366003190112610292576004356000908152600760205260409020805460018201546001600160a01b0316916110bb9061108d60028201613808565b34610292576020366003190112610292576118df613621565b6118e890613d76565b95604098979895919594929451988998610120808b528a0161190991613700565b9060208a015288810360408a015261192091613700565b878103606089015261193191613700565b868103608088015261194291613700565b85810360a087015261195391613700565b84810360c086015261196491613700565b83810360e085015261197591613700565b6001600160a01b039091166101008301520390f35b34610292576119983661394e565b90600052600b60205260406000208054821015610292576040916119bb91613964565b506001808060a01b0382541691015482519182526020820152f35b346102925760207f3dcd68c14f5f191f12b3b56bf35d5d7eb22447e9ec685290967b4558822ca98a611a073661391f565b9290923360005260018252611a2660ff60016040600020015416613bd3565b611a6760018060a01b03809516948560005260048452611a4d60ff60406000205416613c17565b856000526003845233906005604060002001541614613c63565b83600052600382526102428160036040600020019060ff801983541691151516179055565b34610292576020806003193601126102925760043580600052600b90818352604060002054611aba81613caf565b92611ac860405194856137e7565b818452601f199283611ad984613caf565b013687870137611ae883613caf565b93611af660405195866137e7565b838552611b0284613caf565b01368786013760005b838110611b3c57611b2f866110bb89886040519485946040865260408601906138ae565b91848303908501526138eb565b611b959082600052838852611b55816040600020613964565b50546001600160a01b0316611b6a8289613fe2565b52826000528388526001611b82826040600020613964565b500154611b8f8288613fe2565b52613e7c565b611b0b565b346102925760203660031901126102925760043560025481101561029257611bc3602091613684565b905460405160039290921b1c6001600160a01b03168152f35b34610292576000366003190112610292576020600c54604051908152f35b34610292576020366003190112610292576001600160a01b0380611c1c613621565b166000526005602052604060002090611c3482613808565b9060018301549260028101611c4890613808565b90611c5560038201613808565b611c6160048301613808565b611c6d60058401613808565b90611c7a60068501613808565b92611c8760078601613808565b946008015495604051998a99610140808c528b01611ca491613700565b9060208b015289810360408b0152611cbb91613700565b88810360608a0152611ccc91613700565b8781036080890152611cdd91613700565b86810360a0880152611cee91613700565b85810360c0870152611cff91613700565b84810360e0860152611d1091613700565b91811661010084015260a01c60ff1615156101208301520390f35b3461029257602036600319011261029257600435600d5481101561029257600d6000527fd7b6990105719101dabeb77144f2a3385c8033acd3af97e9423a695e81ad1eb501546040516001600160a01b039091168152602090f35b34610292576000366003190112610292576020600254604051908152f35b3461029257602036600319011261029257600435600254811015611dcd57611bc3602091613684565b60405162461bcd60e51b815260206004820152601760248201527f496e6465782061646d696e20525320696e76616c69642e0000000000000000006044820152606490fd5b3461029257604036600319011261029257611e2b613621565b6001600160401b0360243581811161029257611e4b9036906004016136d3565b909160018060a01b038094611e6582600054163314613a6b565b169384600052600193602092858452611e82604060002054613740565b611fed57604051611e9281613796565b611e9d368785613aac565b815284810187815288600052878652604060002091519081519384116107ee578891611ecd856106058654613740565b8790601f8611600114611f8457611f12959160009183611f79575b5050600019600383901b1c191690831b1783555b51151591019060ff801983541691151516179055565b60025491600160401b8310156107ee57611f55837fc881e1c26fa1da107683b7f0c3f1689379721f2118918ff97cb8c0f0dfc9d3549761075c9501600255613684565b819291549060031b9189831b921b1916179055604051938385948552840191613bb2565b015190508c80611ee8565b90601f1986169185600052896000209260005b8b828210611fd75750509185939188611f12999410611fbe575b505050811b018355611efc565b015160001960f88460031b161c191690558c8080611fb1565b8385015186558e97909501949384019301611f97565b60405162461bcd60e51b815260048101859052601960248201527f41646d696e205253207375646168207465726461667461722e000000000000006044820152606490fd5b34610292576020366003190112610292576001600160a01b03612053613621565b166000526004602052602060ff604060002054166040519015158152f35b346102925760003660031901126102925760405180600d54808252826020809301600d6000527fd7b6990105719101dabeb77144f2a3385c8033acd3af97e9423a695e81ad1eb59260005b858282106120e7575050506120d3925003836137e7565b6110bb6040519282849384528301906138ae565b85546001600160a01b03168452600195860195889550930192016120bc565b34610292576020366003190112610292576004356000526007602052604060002060018060a01b0360018201541660ff6005830154166121a061214b60028501613808565b93612192612167600461216060038501613808565b9301613808565b91612184604051978897885260a0602089015260a0880190613700565b908682036040880152613700565b908482036060860152613700565b90151560808301520390f35b3461029257602036600319011261029257600435600c5481101561029257611bc3602091613637565b3461029257602080600319360112610292576001600160a01b0390816121f9613621565b166000526003815260406000209060ff600383015416926004830190806005850154169261222685613808565b9460019361223a6002612160878501613808565b93604051958685845491828152019360005285600020926000905b8282106122cc5750505050509261229f85936122ad9361227e6122c2986122929c9803876137e7565b6040519a8b9a60c08c5260c08c0190613700565b918a8303908b0152613700565b908782036040890152613700565b911515606086015284820360808601526138ae565b9060a08301520390f35b845481168652948701949383019390830190612255565b34610292576020366003190112610292576001600160a01b03612304613621565b16600052600160205261233a604060002060ff600161232283613808565b92015416604051928392604084526040840190613700565b90151560208301520390f35b34610292576080366003190112610292576024356001600160401b038111610292576123769036906004016136d3565b906044356001600160401b038111610292576123969036906004016136d3565b6064939193356001600160401b038111610292576123b89036906004016136d3565b949091600435600052600760205260018060a01b036001604060002001541633600052600460205260ff6040600020541680612965575b1561292a5733600052600360205260018060a01b036005604060002001541681600052600560205260018060a01b0360086040600020015416036128e5576000903360005260036020526004604060002001906000918054925b8381106128a5575b5050505015612854576004356000526007602052604060002091600a60205260406000208054600160401b8110156107ee5761249291600182018155613a4f565b61265d578381036127d8575b506001600160401b0385116107ee576124c7856124be6002860154613740565b60028601613b09565b846000601f821160011461276a5760009161275f575b508560011b906000198760031b1c19161760028401555b6001600160401b0382116107ee57819061251e826125156003870154613740565b60038701613b09565b600090601f83116001146126ee576000926126e3575b50508160011b916000199060031b1c19161760038201555b6001600160401b0385116107ee576004016125718561256b8354613740565b83613b09565b846000601f821160011461267e57600091612673575b508560011b906000198760031b1c19161790555b600435600052600b602052604060002090604051946125b986613796565b33865260208601924284528054600160401b8110156107ee576125e191600182018155613964565b61265d576001612658947f2a3c8ca9ac6f36396c175111b8f04207d249d61d733222e37c97a5ed7cfa7e1398828060a01b039051166001600160601b0360a01b8454161783555191015561264a6040519586956004358752606060208801526060870191613bb2565b918483036040860152613bb2565b0390a1005b634e487b7160e01b600052600060045260246000fd5b905082013586612587565b60008381526020812092505b601f19881681106126cb575086601f198116106126b1575b5050600185811b01905561259b565b830135600019600388901b60f8161c1916905585806126a2565b9091602060018192858801358155019301910161268a565b013590508780612534565b909250600384016000526020600020906000935b601f1984168510612747576001945083601f1981161061272d575b505050811b01600382015561254c565b0135600019600384901b60f8161c1916905587808061271d565b81810135835560209485019460019093019201612702565b9050860135886124dd565b90506002840160005260206000209060005b601f19881681106127c0575086601f198116106127a6575b5050600185811b0160028401556124f4565b870135600019600388901b60f8161c191690558780612794565b9091602060018192858c01358155019301910161277c565b61284e90845481556001810160018060a01b036001870154166001600160601b0360a01b8254161790556128126002860160028301613f0a565b6128226003860160038301613f0a565b6128326004860160048301613f0a565b600560ff818701541691019060ff801983541691151516179055565b8761249e565b60405162461bcd60e51b8152602060048201526024808201527f446f6b74657220746964616b20646961737369676e206b652070617369656e2060448201526334b7349760e11b6064820152608490fd5b826128b082846136bb565b905460039190911b1c6001600160a01b0316146128d5576128d090613e7c565b612449565b5050505050600187808080612451565b60405162461bcd60e51b815260206004820152601760248201527f446f6b74657220262070617369656e20626564612052530000000000000000006044820152606490fd5b60405162461bcd60e51b81526020600482015260136024820152722430b73cb0903237b5ba32b91030b5ba34b31760691b6044820152606490fd5b50600360205260ff600360406000200154166123ef565b34610292576000366003190112610292576020600954604051908152f35b34610292576000366003190112610292576000546040516001600160a01b039091168152602090f35b34610292576020366003190112610292576110bb6129e76129e2613621565b613ff6565b604051918291602083526020830190613700565b3461029257610120366003190112610292576004356001600160401b03811161029257612a2c9036906004016136d3565b906044356001600160401b03811161029257612a4c9036906004016136d3565b906064356001600160401b03811161029257612a6c9036906004016136d3565b906084356001600160401b03811161029257612a8c9036906004016136d3565b9060a4356001600160401b03811161029257612aac9036906004016136d3565b909160c4356001600160401b03811161029257612acd9036906004016136d3565b94909560e4356001600160401b03811161029257612aef9036906004016136d3565b9099909890610104356001600160a01b03811690036102925733600052600660205260ff60406000205416613226578d9b33600052600460205260406000205460ff1615612b3c90613cef565b610104356001600160a01b031660009081526001602081905260409091200154612b689060ff16613d32565b336000526006602052604060002060ff1981541660011790558d6040519d612b8f8f61377a565b3690612b9a92613aac565b8d528c60243590602001523690612bb092613aac565b60408c01523690612bc092613aac565b60608a01523690612bd092613aac565b60808801523690612be092613aac565b60a08601523690612bf092613aac565b60c08401523690612c0092613aac565b60e0820152610104356001600160a01b0316610100820152600161012082015233600090815260056020526040902081518051906001600160401b0382116107ee578190612c52826106058654613740565b602090601f83116001146131ba576000926131af575b50508160011b916000199060031b1c19161781555b60208201516001820155604082015180516001600160401b0381116107ee57806002840192612cb0826106058654613740565b602090601f83116001146131495760009261313e575b50508160011b916000199060031b1c19161790555b606082015180516001600160401b0381116107ee57806003840192612d04826106058654613740565b602090601f83116001146130d8576000926130cd575b50508160011b916000199060031b1c19161790555b608082015180516001600160401b0381116107ee57806004840192612d58826106058654613740565b602090601f83116001146130675760009261305c575b50508160011b916000199060031b1c19161790555b60a082015180516001600160401b0381116107ee57806005840192612dac826106058654613740565b602090601f8311600114612ff657600092612feb575b50508160011b916000199060031b1c19161790555b60c082015180516001600160401b0381116107ee57806006840192612e00826106058654613740565b602090601f8311600114612f8557600092612f7a575b50508160011b916000199060031b1c19161790555b6007810160e08301518051906001600160401b0382116107ee57612e53826115418554613740565b602090601f8311600114612efa5792826008936000805160206140e883398151915298969361075c9896600092612eef575b50508160011b916000199060031b1c19161790555b019060018060a01b036101008201511682549161012060ff60a01b910151151560a01b16916affffffffffffffffffffff60a81b1617179055612edc33613b4e565b6040519182913395610104359184613cc6565b015190508a80612e85565b90601f198316918460005260206000209260005b818110612f625750936000805160206140e883398151915298969361075c9896936001938360089810612f49575b505050811b019055612e9a565b015160001960f88460031b161c191690558a8080612f3c565b92936020600181928786015181550195019301612f0e565b015190508780612e16565b6000858152602081209350601f198516905b818110612fd35750908460019594939210612fba575b505050811b019055612e2b565b015160001960f88460031b161c19169055878080612fad565b92936020600181928786015181550195019301612f97565b015190508780612dc2565b6000858152602081209350601f198516905b818110613044575090846001959493921061302b575b505050811b019055612dd7565b015160001960f88460031b161c1916905587808061301e565b92936020600181928786015181550195019301613008565b015190508780612d6e565b6000858152602081209350601f198516905b8181106130b5575090846001959493921061309c575b505050811b019055612d83565b015160001960f88460031b161c1916905587808061308f565b92936020600181928786015181550195019301613079565b015190508780612d1a565b6000858152602081209350601f198516905b818110613126575090846001959493921061310d575b505050811b019055612d2f565b015160001960f88460031b161c19169055878080613100565b929360206001819287860151815501950193016130ea565b015190508780612cc6565b6000858152602081209350601f198516905b818110613197575090846001959493921061317e575b505050811b019055612cdb565b015160001960f88460031b161c19169055878080613171565b9293602060018192878601518155019501930161315b565b015190508680612c68565b9250836000526020600020906000935b601f198416851061320b576001945083601f198116106131f2575b505050811b018155612c7d565b015160001960f88460031b161c191690558680806131e5565b818101518355602094850194600190930192909101906131ca565b60405162461bcd60e51b815260206004820152601260248201527120b732309039bab230b4103830b9b4b2b71760711b6044820152606490fd5b3461029257604036600319011261029257613279613621565b6001600160a01b039060248035838116929190839003610292573360005283602092600184526132b360ff60016040600020015416613bd3565b169384600052600483526132ce60ff60406000205416613c17565b836000526006835260ff6040600020541615613454578460005260039182845261330333836005604060002001541614613c63565b846000526005845233826008604060002001541603613411578560005282845260046040600020016000918154925b8381106133ae5750600160401b83101561339a577fd9a2627959a7f46a8b96c10424cdae1f1b65151551cd206b119aca54c0a86a5a6040898989898961337e8a8a6001820181556136bb565b81939154911b9185831b921b19161790558351928352820152a1005b634e487b7160e01b60009081526041600452fd5b87856133ba83866136bb565b905490891b1c16146133d4576133cf90613e7c565b613332565b60405162461bcd60e51b815260048101889052601681840152752830b9b4b2b71039bab230b4103234b0b9b9b4b3b71760511b6044820152606490fd5b83601b6064926040519262461bcd60e51b845260048401528201527f50617369656e2062756b616e206d696c696b20525320616e64612e00000000006044820152fd5b60405162461bcd60e51b8152600481018490526017818401527f50617369656e2062656c756d207465726461667461722e0000000000000000006044820152606490fd5b34610292576020366003190112610292576134b1613621565b600054906001600160a01b03906134cb3383851614613a6b565b6001600160a01b0319909216911617600055005b34610292576020366003190112610292576001600160a01b03613500613621565b166000526006602052602060ff604060002054166040519015158152f35b346102925760203660031901126102925733600052600160205261354c60ff60016040600020015416613bd3565b6004356000908152600760205260409020600501805460ff19169055005b3461029257602036600319011261029257600435600c5481101561359357611bc3602091613637565b60405162461bcd60e51b815260206004820152600e60248201526d24b73232bc1034b73b30b634b21760911b6044820152606490fd5b34610292576040366003190112610292576135e2613621565b6001600160a01b031660009081526008602052604090208054602435919082101561029257602091613613916136bb565b90546040519160031b1c8152f35b600435906001600160a01b038216820361029257565b600c5481101561366e57600c6000527fdf6966c971051c3d54ec59162606531493a51404a002842f56009d7e5cf4a8c70190600090565b634e487b7160e01b600052603260045260246000fd5b60025481101561366e5760026000527f405787fa12a823e0f2b7631cc41b3ba8828b3321ca811111fa75cd3aa3bb5ace0190600090565b805482101561366e5760005260206000200190600090565b9181601f84011215610292578235916001600160401b038311610292576020838186019501011161029257565b919082519283825260005b84811061372c575050826000602080949584010152601f8019910116010190565b60208183018101518483018201520161370b565b90600182811c92168015613770575b602083101461375a57565b634e487b7160e01b600052602260045260246000fd5b91607f169161374f565b61014081019081106001600160401b038211176107ee57604052565b604081019081106001600160401b038211176107ee57604052565b60c081019081106001600160401b038211176107ee57604052565b602081019081106001600160401b038211176107ee57604052565b90601f801991011681019081106001600160401b038211176107ee57604052565b906040519182600082549261381c84613740565b90818452600194858116908160001461388b5750600114613848575b5050613846925003836137e7565b565b9093915060005260209081600020936000915b81831061387357505061384693508201013880613838565b8554888401850152948501948794509183019161385b565b91505061384694506020925060ff191682840152151560051b8201013880613838565b90815180825260208080930193019160005b8281106138ce575050505090565b83516001600160a01b0316855293810193928101926001016138c0565b90815180825260208080930193019160005b82811061390b575050505090565b8351855293810193928101926001016138fd565b6040906003190112610292576004356001600160a01b0381168103610292579060243580151581036102925790565b6040906003190112610292576004359060243590565b805482101561366e5760005260206000209060011b0190600090565b9491936139b36139cf9460a0966139c1949a999a8952600180891b0316602089015260c0604089015260c0880190613700565b908682036060880152613700565b908482036080860152613700565b931515910152565b6080600319820112610292576004356001600160a01b038116810361029257916001600160401b036024358181116102925783613a16916004016136d3565b939093926044358381116102925782613a31916004016136d3565b9390939260643591821161029257613a4b916004016136d3565b9091565b805482101561366e576000526006602060002091020190600090565b15613a7257565b60405162461bcd60e51b81526020600482015260126024820152712430b73cb09039bab832b91030b236b4b71760711b6044820152606490fd5b9291926001600160401b0382116107ee5760405191613ad5601f8201601f1916602001846137e7565b829481845281830111610292578281602093846000960137010152565b818110613afd575050565b60008155600101613af2565b9190601f8111613b1857505050565b613846926000526020600020906020601f840160051c83019310613b44575b601f0160051c0190613af2565b9091508190613b37565b600d54600160401b8110156107ee576001810180600d5581101561366e57600d6000527fd7b6990105719101dabeb77144f2a3385c8033acd3af97e9423a695e81ad1eb50180546001600160a01b0319166001600160a01b03909216919091179055565b908060209392818452848401376000828201840152601f01601f1916010190565b15613bda57565b60405162461bcd60e51b81526020600482015260156024820152742430b73cb09030b236b4b71029299030b5ba34b31760591b6044820152606490fd5b15613c1e57565b60405162461bcd60e51b815260206004820152601760248201527f446f6b7465722062656c756d207465726461667461722e0000000000000000006044820152606490fd5b15613c6a57565b60405162461bcd60e51b815260206004820152601b60248201527f446f6b7465722062756b616e206d696c696b20525320616e64612e00000000006044820152606490fd5b6001600160401b0381116107ee5760051b60200190565b91602091613cdf91959495604085526040850191613bb2565b6001600160a01b03909416910152565b15613cf657565b60405162461bcd60e51b815260206004820152601460248201527320b630b6b0ba1036b4b634b5903237b5ba32b91760611b6044820152606490fd5b15613d3957565b60405162461bcd60e51b815260206004820152601560248201527420b236b4b7102929903a34b230b59030b5ba34b31760591b6044820152606490fd5b9060018060a01b038092166000818152600660205260409160ff838320541615613e0b5781526005602052209060018201549260088301541691613db981613808565b9392613dc760028301613808565b92613dd460038401613808565b92613de160048201613808565b92613dee60058301613808565b92613e076007613e0060068601613808565b9401613808565b9190565b50919080935051613e1b816137cc565b82815292828151613e2b816137cc565b818152928251613e3a816137cc565b828152928051613e49816137cc565b838152928151613e58816137cc565b818152928251613e67816137cc565b8281529251613e75816137cc565b8281529190565b6000198114613e8b5760010190565b634e487b7160e01b600052601160045260246000fd5b9060018060a01b038092166000526003918260205260046040600020016000938154945b858110613ed757505050505050600090565b83613ee282856136bb565b905490841b1c1684861614613eff57613efa90613e7c565b613ec5565b505050505050600190565b90808214613fde57613f1c8154613740565b906001600160401b0382116107ee578190613f3b826106058654613740565b600090601f8311600114613f7257600092613f67575b50508160011b916000199060031b1c1916179055565b015490503880613f51565b81526020808220858352818320935090601f1985169083905b828210613fc5575050908460019594939210613fac575b505050811b019055565b015460001960f88460031b161c19169055388080613fa2565b8495819295850154815560018091019601940190613f8b565b5050565b805182101561366e5760209160051b010190565b6000805490916001600160a01b03908116911681146140bf578082526020916001835260409160ff60018484200154166140a6578082526004845260ff838320541661408e578152600683528190205460ff1661406e57662ab735b737bbb760c91b90519161406483613796565b6007835282015290565b652830b9b4b2b760d11b90519161408483613796565b6006835282015290565b5050652237b5ba32b960d11b90519161408483613796565b50506641646d696e525360c81b90519161406483613796565b50506040516140cd81613796565b600a81526929bab832b920b236b4b760b11b60208201529056febc415dfc2764939233ab67a4f55915cc2bb9d94ecafbfb254036de3cd0dbb3a8a2646970667358221220bace58fd5b0398c617e4c3e5cbed7dfbea0183eb75f3c060dfb738cccbf9d59f64736f6c63430008130033",
  "immutableReferences": {},
  "source": "// SPDX-License-Identifier: MIT\r\npragma solidity ^0.8.0;\r\n\r\ncontract RekamMedisRS {\r\n    address public superAdmin;\r\n\r\n    struct AdminRS {\r\n        string namaRumahSakit;\r\n        bool aktif;\r\n    }\r\n    mapping(address => AdminRS) public dataAdmin;\r\n    address[] public daftarAdmin;\r\n\r\n    struct Dokter {\r\n        string nama;\r\n        string spesialisasi;\r\n        string nomorLisensi;\r\n        bool aktif;\r\n        address[] assignedPasien;\r\n        address adminRS; // Rumah sakit tempat dokter bertugas\r\n    }\r\n    mapping(address => Dokter) public dataDokter;\r\n    mapping(address => bool) public isDokter;\r\n\r\n    struct Pasien {\r\n        string nama;\r\n        uint umur;\r\n        string golonganDarah;\r\n        string tanggalLahir;\r\n        string gender;\r\n        string alamat;\r\n        string noTelepon;\r\n        string email;\r\n        address rumahSakitPenanggungJawab;\r\n        bool exists;\r\n    }\r\n    mapping(address => Pasien) public dataPasien;\r\n    mapping(address => bool) public isPasien;\r\n\r\n\r\nstruct UpdateInfo {\r\n    address dokter; // alamat dokter yang update\r\n    uint256 timestamp; // waktu update (block.timestamp)\r\n}\r\n\r\n    struct RekamMedisData {\r\n        uint id;\r\n        address pasien;\r\n        string diagnosa;\r\n        string foto;\r\n        string catatan;\r\n        bool valid;\r\n    }\r\n    mapping(uint => RekamMedisData) public rekamMedis;\r\n    mapping(address => uint[]) public rekamMedisByPasien;\r\n    uint public rekamMedisCount;\r\n\r\n    // History versi rekam medis\r\n    mapping(uint => RekamMedisData[]) public rekamMedisVersions;\r\n    mapping(uint => UpdateInfo[]) public rekamMedisUpdateHistory;\r\n\r\n    // Events\r\n    event AdminRSTerdaftar(address indexed admin, string namaRumahSakit);\r\n    event AdminRSStatusDiubah(address indexed admin, bool aktif);\r\n    event DokterTerdaftar(address indexed dokter, string nama, address adminRS);\r\n    event DokterStatusDiubah(address indexed dokter, bool aktif);\r\n    event PasienTerdaftar(address indexed pasien, string nama, address adminRS);\r\n    event PasienPindahRS(address indexed pasien, address adminRS);\r\n    event PasienDiassignKeDokter(address dokter, address pasien);\r\n    event RekamMedisDitambahkan(\r\n        uint id,\r\n        address pasien,\r\n        string diagnosa,\r\n        bool valid\r\n    );\r\n    event RekamMedisDiperbarui(uint id, string diagnosa, string catatan);\r\n\r\n    constructor() {\r\n        superAdmin = 0xB0dC0Bf642d339517438017Fc185Bb0f758A01D2;\r\n    }\r\n\r\n    // Modifier\r\n    modifier hanyaSuperAdmin() {\r\n        require(msg.sender == superAdmin, \"Hanya super admin.\");\r\n        _;\r\n    }\r\n\r\n    modifier hanyaAdminRS() {\r\n        require(dataAdmin[msg.sender].aktif, \"Hanya admin RS aktif.\");\r\n        _;\r\n    }\r\n\r\n    modifier hanyaDokterAktif() {\r\n        require(\r\n            isDokter[msg.sender] && dataDokter[msg.sender].aktif,\r\n            \"Hanya dokter aktif.\"\r\n        );\r\n        _;\r\n    }\r\n\r\n    modifier hanyaDokterAktifUntukPasien(address _pasien) {\r\n        require(\r\n            isDokter[msg.sender] && dataDokter[msg.sender].aktif,\r\n            \"Hanya dokter aktif.\"\r\n        );\r\n        require(\r\n            dataDokter[msg.sender].adminRS ==\r\n                dataPasien[_pasien].rumahSakitPenanggungJawab,\r\n            \"Dokter & pasien beda RS\"\r\n        );\r\n        bool assigned = false;\r\n        address[] storage list = dataDokter[msg.sender].assignedPasien;\r\n        for (uint i = 0; i < list.length; i++) {\r\n            if (list[i] == _pasien) {\r\n                assigned = true;\r\n                break;\r\n            }\r\n        }\r\n        require(assigned, \"Dokter tidak diassign ke pasien ini.\");\r\n        _;\r\n    }\r\n\r\n    modifier hanyaPasien(address _pasien) {\r\n        require(msg.sender == _pasien, \"Hanya pasien.\");\r\n        _;\r\n    }\r\n\r\n    // Fungsi SuperAdmin mendaftarkan Admin RS baru\r\n    function registerAdminRS(\r\n        address _admin,\r\n        string calldata _namaRS\r\n    ) external hanyaSuperAdmin {\r\n        require(\r\n            bytes(dataAdmin[_admin].namaRumahSakit).length == 0,\r\n            \"Admin RS sudah terdaftar.\"\r\n        );\r\n        dataAdmin[_admin] = AdminRS({namaRumahSakit: _namaRS, aktif: true});\r\n        daftarAdmin.push(_admin);\r\n        emit AdminRSTerdaftar(_admin, _namaRS);\r\n    }\r\n\r\n    // SuperAdmin ubah status admin RS (aktif/nonaktif)\r\n    function setStatusAdminRS(\r\n        address _admin,\r\n        bool _aktif\r\n    ) external hanyaSuperAdmin {\r\n        require(\r\n            bytes(dataAdmin[_admin].namaRumahSakit).length != 0,\r\n            \"Admin RS tidak ditemukan.\"\r\n        );\r\n        dataAdmin[_admin].aktif = _aktif;\r\n        emit AdminRSStatusDiubah(_admin, _aktif);\r\n    }\r\n\r\n    // Ambil total admin RS\r\n    function totalAdmin() external view returns (uint) {\r\n        return daftarAdmin.length;\r\n    }\r\n\r\n    // Ambil admin RS by index\r\n    function getAdminByIndex(uint idx) external view returns (address) {\r\n        require(idx < daftarAdmin.length, \"Index admin RS invalid.\");\r\n        return daftarAdmin[idx];\r\n    }\r\n\r\n    // // Admin RS mendaftarkan dokter baru\r\n    // function registerDokter(\r\n    //     address _dokter,\r\n    //     string calldata _nama,\r\n    //     string calldata _spesialisasi,\r\n    //     string calldata _nomorLisensi\r\n    // ) external hanyaAdminRS {\r\n    //     require(!isDokter[_dokter], \"Sudah dokter.\");\r\n    //     require(!isPasien[_dokter], \"Alamat milik pasien.\");\r\n    //     isDokter[_dokter] = true;\r\n    //     dataDokter[_dokter] = Dokter({\r\n    //         nama: _nama,\r\n    //         spesialisasi: _spesialisasi,\r\n    //         nomorLisensi: _nomorLisensi,\r\n    //         aktif: true,\r\n    //         assignedPasien: new address,\r\n    //         adminRS: msg.sender\r\n    //     });\r\n    //     emit DokterTerdaftar(_dokter, _nama, msg.sender);\r\n    // }\r\n\r\n    // Admin RS ubah status dokter\r\n    function setStatusDokter(\r\n        address _dokter,\r\n        bool _aktif\r\n    ) external hanyaAdminRS {\r\n        require(isDokter[_dokter], \"Dokter belum terdaftar.\");\r\n        require(\r\n            dataDokter[_dokter].adminRS == msg.sender,\r\n            \"Dokter bukan milik RS anda.\"\r\n        );\r\n        dataDokter[_dokter].aktif = _aktif;\r\n        emit DokterStatusDiubah(_dokter, _aktif);\r\n    }\r\n\r\n    // Ambil total dokter terdaftar (semua RS)\r\n    function totalDokter() external view returns (uint) {\r\n        return daftarDokter.length;\r\n    }\r\n\r\n    address[] public daftarDokter;\r\n\r\n    // Admin RS bisa panggil fungsi ini agar menambah daftarDokter (supaya totalDokter, getDokterByIndex jalan)\r\n    // Jangan lupa push saat registerDokter:\r\n    // daftarDokter.push(_dokter);\r\n    // Jadi tambahkan push di registerDokter:\r\n    // daftarDokter.push(_dokter);\r\n\r\n    // Admin RS mendaftarkan dokter baru dan simpan daftar\r\n    function registerDokter(\r\n        address _dokter,\r\n        string calldata _nama,\r\n        string calldata _spesialisasi,\r\n        string calldata _nomorLisensi\r\n    ) external hanyaAdminRS {\r\n        require(!isDokter[_dokter], \"Sudah dokter.\");\r\n        require(!isPasien[_dokter], \"Alamat milik pasien.\");\r\n        isDokter[_dokter] = true;\r\n        dataDokter[_dokter] = Dokter({\r\n            nama: _nama,\r\n            spesialisasi: _spesialisasi,\r\n            nomorLisensi: _nomorLisensi,\r\n            aktif: true,\r\n            assignedPasien: new address[](0),\r\n            adminRS: msg.sender\r\n        });\r\n        daftarDokter.push(_dokter);\r\n        emit DokterTerdaftar(_dokter, _nama, msg.sender);\r\n    }\r\n\r\n    // Ambil dokter by index\r\n    function getDokterByIndex(uint idx) external view returns (address) {\r\n        require(idx < daftarDokter.length, \"Index invalid.\");\r\n        return daftarDokter[idx];\r\n    }\r\n\r\n    // Ambil detail dokter\r\n    function getDokter(\r\n        address _dokter\r\n    )\r\n        external\r\n        view\r\n        returns (\r\n            string memory nama,\r\n            string memory spesialisasi,\r\n            string memory nomorLisensi,\r\n            bool aktif,\r\n            address[] memory pasienList,\r\n            address adminRS\r\n        )\r\n    {\r\n        Dokter storage d = dataDokter[_dokter];\r\n        return (\r\n            d.nama,\r\n            d.spesialisasi,\r\n            d.nomorLisensi,\r\n            d.aktif,\r\n            d.assignedPasien,\r\n            d.adminRS\r\n        );\r\n    }\r\n\r\n    // Admin RS mendaftarkan pasien baru\r\n    function registerPasien(\r\n        address _pasien,\r\n        string calldata _nama,\r\n        address _adminRS\r\n    ) external hanyaAdminRS {\r\n        require(!isPasien[_pasien], \"Pasien sudah terdaftar.\");\r\n        require(!isDokter[_pasien], \"Alamat milik dokter.\");\r\n        require(dataAdmin[_adminRS].aktif, \"Admin RS tidak aktif.\");\r\n        isPasien[_pasien] = true;\r\n        dataPasien[_pasien] = Pasien({\r\n            nama: _nama,\r\n            umur: 0,\r\n            golonganDarah: \"\",\r\n            tanggalLahir: \"\",\r\n            gender: \"\",\r\n            alamat: \"\",\r\n            noTelepon: \"\",\r\n            email: \"\",\r\n            rumahSakitPenanggungJawab: _adminRS,\r\n            exists: true\r\n        });\r\n        daftarPasien.push(_pasien);\r\n        emit PasienTerdaftar(_pasien, _nama, _adminRS);\r\n    }\r\n\r\n    // Pasien bisa register sendiri (mandiri)\r\n    function selfRegisterPasien(\r\n        string calldata _nama,\r\n        uint _umur,\r\n        string calldata _golonganDarah,\r\n        string calldata _tanggalLahir,\r\n        string calldata _gender,\r\n        string calldata _alamat,\r\n        string calldata _noTelepon,\r\n        string calldata _email,\r\n        address _adminRS\r\n    ) external {\r\n        require(!isPasien[msg.sender], \"Anda sudah pasien.\");\r\n        require(!isDokter[msg.sender], \"Alamat milik dokter.\");\r\n        require(dataAdmin[_adminRS].aktif, \"Admin RS tidak aktif.\");\r\n        isPasien[msg.sender] = true;\r\n        dataPasien[msg.sender] = Pasien({\r\n            nama: _nama,\r\n            umur: _umur,\r\n            golonganDarah: _golonganDarah,\r\n            tanggalLahir: _tanggalLahir,\r\n            gender: _gender,\r\n            alamat: _alamat,\r\n            noTelepon: _noTelepon,\r\n            email: _email,\r\n            rumahSakitPenanggungJawab: _adminRS,\r\n            exists: true\r\n        });\r\n        daftarPasien.push(msg.sender);\r\n        emit PasienTerdaftar(msg.sender, _nama, _adminRS);\r\n    }\r\n\r\n    // Ambil daftar pasien\r\n    address[] public daftarPasien;\r\n\r\n    function getDaftarPasien() external view returns (address[] memory) {\r\n        return daftarPasien;\r\n    }\r\n\r\n    // Ambil detail pasien\r\n    function getPasienData(\r\n        address _pasien\r\n    )\r\n        external\r\n        view\r\n        returns (\r\n            string memory nama,\r\n            uint umur,\r\n            string memory golonganDarah,\r\n            string memory tanggalLahir,\r\n            string memory gender,\r\n            string memory alamat,\r\n            string memory noTelepon,\r\n            string memory email,\r\n            address rumahSakitPenanggungJawab\r\n        )\r\n    {\r\n        if (!isPasien[_pasien]) {\r\n            return (\"\", 0, \"\", \"\", \"\", \"\", \"\", \"\", address(0));\r\n        }\r\n        Pasien storage p = dataPasien[_pasien];\r\n        return (\r\n            p.nama,\r\n            p.umur,\r\n            p.golonganDarah,\r\n            p.tanggalLahir,\r\n            p.gender,\r\n            p.alamat,\r\n            p.noTelepon,\r\n            p.email,\r\n            p.rumahSakitPenanggungJawab\r\n        );\r\n    }\r\n\r\n    // Admin RS assign pasien ke dokter\r\n    function assignPasienToDokter(\r\n        address _dokter,\r\n        address _pasien\r\n    ) external hanyaAdminRS {\r\n        require(isDokter[_dokter], \"Dokter belum terdaftar.\");\r\n        require(isPasien[_pasien], \"Pasien belum terdaftar.\");\r\n        require(\r\n            dataDokter[_dokter].adminRS == msg.sender,\r\n            \"Dokter bukan milik RS anda.\"\r\n        );\r\n        require(\r\n            dataPasien[_pasien].rumahSakitPenanggungJawab == msg.sender,\r\n            \"Pasien bukan milik RS anda.\"\r\n        );\r\n\r\n        address[] storage list = dataDokter[_dokter].assignedPasien;\r\n        for (uint i = 0; i < list.length; i++) {\r\n            require(list[i] != _pasien, \"Pasien sudah diassign.\");\r\n        }\r\n        list.push(_pasien);\r\n        emit PasienDiassignKeDokter(_dokter, _pasien);\r\n    }\r\n\r\n    // Tambah rekam medis (oleh pasien sendiri atau dokter aktif RS pasien)\r\n    function tambahRekamMedis(\r\n        address _pasien,\r\n        string calldata _diagnosa,\r\n        string calldata _foto,\r\n        string calldata _catatan\r\n    ) external {\r\n        bool isValidActor = false;\r\n        if (msg.sender == _pasien) {\r\n            isValidActor = true;\r\n        } else if (isDokter[msg.sender]) {\r\n            if (\r\n                dataDokter[msg.sender].adminRS ==\r\n                dataPasien[_pasien].rumahSakitPenanggungJawab\r\n            ) {\r\n                if (isAssigned(msg.sender, _pasien)) {\r\n                    isValidActor = true;\r\n                }\r\n            }\r\n        }\r\n        require(isValidActor, \"Tidak berhak.\");\r\n        require(isPasien[_pasien], \"Pasien tidak terdaftar.\");\r\n\r\n        rekamMedisCount++;\r\n        rekamMedis[rekamMedisCount] = RekamMedisData({\r\n            id: rekamMedisCount,\r\n            pasien: _pasien,\r\n            diagnosa: _diagnosa,\r\n            foto: _foto,\r\n            catatan: _catatan,\r\n            valid: true\r\n        });\r\n        rekamMedisByPasien[_pasien].push(rekamMedisCount);\r\n        emit RekamMedisDitambahkan(rekamMedisCount, _pasien, _diagnosa, true);\r\n    }\r\n\r\n    function isAssigned(\r\n        address _dokter,\r\n        address _pasien\r\n    ) internal view returns (bool) {\r\n        address[] storage list = dataDokter[_dokter].assignedPasien;\r\n        for (uint i = 0; i < list.length; i++) {\r\n            if (list[i] == _pasien) {\r\n                return true;\r\n            }\r\n        }\r\n        return false;\r\n    }\r\n\r\nfunction updateRekamMedis(\r\n    uint _id,\r\n    string calldata _diagnosa,\r\n    string calldata _foto,\r\n    string calldata _catatan\r\n) external hanyaDokterAktifUntukPasien(rekamMedis[_id].pasien) {\r\n    RekamMedisData storage r = rekamMedis[_id];\r\n    rekamMedisVersions[_id].push(r);\r\n\r\n    r.diagnosa = _diagnosa;\r\n    r.foto = _foto;\r\n    r.catatan = _catatan;\r\n\r\n    // Simpan info update\r\n    rekamMedisUpdateHistory[_id].push(UpdateInfo({\r\n        dokter: msg.sender,\r\n        timestamp: block.timestamp\r\n    }));\r\n\r\n    emit RekamMedisDiperbarui(_id, _diagnosa, _catatan);\r\n}\r\n\r\n\r\n    // Ambil rekam medis by pasien\r\n    function getRekamMedisIdsByPasien(\r\n        address _pasien\r\n    ) external view returns (uint[] memory) {\r\n        return rekamMedisByPasien[_pasien];\r\n    }\r\n\r\n    // Ambil detail rekam medis\r\n    function getRekamMedis(\r\n        uint _id\r\n    )\r\n        external\r\n        view\r\n        returns (\r\n            address pasien,\r\n            string memory diagnosa,\r\n            string memory foto,\r\n            string memory catatan,\r\n            bool valid\r\n        )\r\n    {\r\n        RekamMedisData storage r = rekamMedis[_id];\r\n        return (r.pasien, r.diagnosa, r.foto, r.catatan, r.valid);\r\n    }\r\n\r\n    // Ambil versi rekam medis\r\n    function getRekamMedisVersions(\r\n        uint _id\r\n    ) external view returns (RekamMedisData[] memory) {\r\n        return rekamMedisVersions[_id];\r\n    }\r\nfunction getRekamMedisUpdateHistory(uint _id) external view returns (address[] memory, uint256[] memory) {\r\n    uint len = rekamMedisUpdateHistory[_id].length;\r\n    address[] memory dokters = new address[](len);\r\n    uint256[] memory times = new uint256[](len);\r\n    for (uint i = 0; i < len; i++) {\r\n        dokters[i] = rekamMedisUpdateHistory[_id][i].dokter;\r\n        times[i] = rekamMedisUpdateHistory[_id][i].timestamp;\r\n    }\r\n    return (dokters, times);\r\n}\r\n\r\n    // Nonaktifkan rekam medis (admin RS saja)\r\n    function nonaktifkanRekamMedis(uint _id) external hanyaAdminRS {\r\n        rekamMedis[_id].valid = false;\r\n    }\r\n\r\n    // Ganti superAdmin\r\n    function setSuperAdmin(address _newAdmin) external hanyaSuperAdmin {\r\n        superAdmin = _newAdmin;\r\n    }\r\n\r\n    // Ambil role user\r\n    function getUserRole(address _user) public view returns (string memory) {\r\n        if (_user == superAdmin) return \"SuperAdmin\";\r\n        if (dataAdmin[_user].aktif) return \"AdminRS\";\r\n        if (isDokter[_user]) return \"Dokter\";\r\n        if (isPasien[_user]) return \"Pasien\";\r\n        return \"Unknown\";\r\n    }\r\n}\r\n",
  "sourcePath": "D:\\TA\\rekam_medis_backend\\contracts\\RekamMedisRS.sol",
  "compiler": {
    "name": "solc",
    "version": "0.8.19+commit.7dd6d404.Emscripten.clang"
  },
  "schemaVersion": "3.4.16",
  "updatedAt": "2025-05-29T16:04:48.958Z",
  "networkType": "ethereum",
  "devdoc": {
    "kind": "dev",
    "methods": {},
    "version": 1
  },
  "userdoc": {
    "kind": "user",
    "methods": {},
    "version": 1
  }
}