{
  "contractName": "RekamMedis",
  "abi": [
    {
      "inputs": [],
      "stateMutability": "nonpayable",
      "type": "constructor"
    },
    {
      "anonymous": false,
      "inputs": [
        {
          "indexed": false,
          "internalType": "address",
          "name": "newAdmin",
          "type": "address"
        }
      ],
      "name": "AdminDitetapkan",
      "type": "event"
    },
    {
      "anonymous": false,
      "inputs": [
        {
          "indexed": false,
          "internalType": "address",
          "name": "dokter",
          "type": "address"
        },
        {
          "indexed": false,
          "internalType": "bool",
          "name": "aktif",
          "type": "bool"
        }
      ],
      "name": "DokterStatusDiubah",
      "type": "event"
    },
    {
      "anonymous": false,
      "inputs": [
        {
          "indexed": false,
          "internalType": "address",
          "name": "dokter",
          "type": "address"
        },
        {
          "indexed": false,
          "internalType": "string",
          "name": "nama",
          "type": "string"
        }
      ],
      "name": "DokterTerdaftar",
      "type": "event"
    },
    {
      "anonymous": false,
      "inputs": [
        {
          "indexed": false,
          "internalType": "address",
          "name": "dokter",
          "type": "address"
        },
        {
          "indexed": false,
          "internalType": "address",
          "name": "pasien",
          "type": "address"
        }
      ],
      "name": "PasienDiassignKeDokter",
      "type": "event"
    },
    {
      "anonymous": false,
      "inputs": [
        {
          "indexed": false,
          "internalType": "uint256",
          "name": "id",
          "type": "uint256"
        },
        {
          "indexed": false,
          "internalType": "string",
          "name": "diagnosa",
          "type": "string"
        },
        {
          "indexed": false,
          "internalType": "string",
          "name": "catatan",
          "type": "string"
        }
      ],
      "name": "RekamMedisDiperbarui",
      "type": "event"
    },
    {
      "anonymous": false,
      "inputs": [
        {
          "indexed": false,
          "internalType": "uint256",
          "name": "id",
          "type": "uint256"
        },
        {
          "indexed": false,
          "internalType": "address",
          "name": "pasien",
          "type": "address"
        },
        {
          "indexed": false,
          "internalType": "string",
          "name": "diagnosa",
          "type": "string"
        },
        {
          "indexed": false,
          "internalType": "bool",
          "name": "valid",
          "type": "bool"
        }
      ],
      "name": "RekamMedisDitambahkan",
      "type": "event"
    },
    {
      "inputs": [],
      "name": "admin",
      "outputs": [
        {
          "internalType": "address",
          "name": "",
          "type": "address"
        }
      ],
      "stateMutability": "view",
      "type": "function",
      "constant": true
    },
    {
      "inputs": [
        {
          "internalType": "uint256",
          "name": "",
          "type": "uint256"
        }
      ],
      "name": "daftarDokter",
      "outputs": [
        {
          "internalType": "address",
          "name": "",
          "type": "address"
        }
      ],
      "stateMutability": "view",
      "type": "function",
      "constant": true
    },
    {
      "inputs": [
        {
          "internalType": "address",
          "name": "",
          "type": "address"
        }
      ],
      "name": "dataDokter",
      "outputs": [
        {
          "internalType": "string",
          "name": "nama",
          "type": "string"
        },
        {
          "internalType": "bool",
          "name": "aktif",
          "type": "bool"
        }
      ],
      "stateMutability": "view",
      "type": "function",
      "constant": true
    },
    {
      "inputs": [
        {
          "internalType": "address",
          "name": "",
          "type": "address"
        }
      ],
      "name": "isDokter",
      "outputs": [
        {
          "internalType": "bool",
          "name": "",
          "type": "bool"
        }
      ],
      "stateMutability": "view",
      "type": "function",
      "constant": true
    },
    {
      "inputs": [
        {
          "internalType": "address",
          "name": "",
          "type": "address"
        }
      ],
      "name": "isPasien",
      "outputs": [
        {
          "internalType": "bool",
          "name": "",
          "type": "bool"
        }
      ],
      "stateMutability": "view",
      "type": "function",
      "constant": true
    },
    {
      "inputs": [
        {
          "internalType": "uint256",
          "name": "",
          "type": "uint256"
        }
      ],
      "name": "rekamMedis",
      "outputs": [
        {
          "internalType": "uint256",
          "name": "id",
          "type": "uint256"
        },
        {
          "internalType": "address",
          "name": "pasien",
          "type": "address"
        },
        {
          "internalType": "string",
          "name": "nama",
          "type": "string"
        },
        {
          "internalType": "uint256",
          "name": "umur",
          "type": "uint256"
        },
        {
          "internalType": "string",
          "name": "golonganDarah",
          "type": "string"
        },
        {
          "internalType": "string",
          "name": "tanggalLahir",
          "type": "string"
        },
        {
          "internalType": "string",
          "name": "gender",
          "type": "string"
        },
        {
          "internalType": "string",
          "name": "alamat",
          "type": "string"
        },
        {
          "internalType": "string",
          "name": "noTelepon",
          "type": "string"
        },
        {
          "internalType": "string",
          "name": "email",
          "type": "string"
        },
        {
          "internalType": "string",
          "name": "diagnosa",
          "type": "string"
        },
        {
          "internalType": "string",
          "name": "foto",
          "type": "string"
        },
        {
          "internalType": "string",
          "name": "catatan",
          "type": "string"
        },
        {
          "internalType": "bool",
          "name": "valid",
          "type": "bool"
        }
      ],
      "stateMutability": "view",
      "type": "function",
      "constant": true
    },
    {
      "inputs": [
        {
          "internalType": "address",
          "name": "",
          "type": "address"
        },
        {
          "internalType": "uint256",
          "name": "",
          "type": "uint256"
        }
      ],
      "name": "rekamMedisByPasien",
      "outputs": [
        {
          "internalType": "uint256",
          "name": "",
          "type": "uint256"
        }
      ],
      "stateMutability": "view",
      "type": "function",
      "constant": true
    },
    {
      "inputs": [],
      "name": "rekamMedisCount",
      "outputs": [
        {
          "internalType": "uint256",
          "name": "",
          "type": "uint256"
        }
      ],
      "stateMutability": "view",
      "type": "function",
      "constant": true
    },
    {
      "inputs": [
        {
          "internalType": "address",
          "name": "_dokter",
          "type": "address"
        },
        {
          "internalType": "string",
          "name": "_nama",
          "type": "string"
        }
      ],
      "name": "registerDokter",
      "outputs": [],
      "stateMutability": "nonpayable",
      "type": "function"
    },
    {
      "inputs": [],
      "name": "totalDokter",
      "outputs": [
        {
          "internalType": "uint256",
          "name": "",
          "type": "uint256"
        }
      ],
      "stateMutability": "view",
      "type": "function",
      "constant": true
    },
    {
      "inputs": [
        {
          "internalType": "uint256",
          "name": "index",
          "type": "uint256"
        }
      ],
      "name": "getDokterByIndex",
      "outputs": [
        {
          "internalType": "address",
          "name": "",
          "type": "address"
        }
      ],
      "stateMutability": "view",
      "type": "function",
      "constant": true
    },
    {
      "inputs": [
        {
          "internalType": "address",
          "name": "_dokter",
          "type": "address"
        },
        {
          "internalType": "bool",
          "name": "_aktif",
          "type": "bool"
        }
      ],
      "name": "setStatusDokter",
      "outputs": [],
      "stateMutability": "nonpayable",
      "type": "function"
    },
    {
      "inputs": [
        {
          "internalType": "address",
          "name": "_dokter",
          "type": "address"
        },
        {
          "internalType": "address",
          "name": "_pasien",
          "type": "address"
        }
      ],
      "name": "assignPasienToDokter",
      "outputs": [],
      "stateMutability": "nonpayable",
      "type": "function"
    },
    {
      "inputs": [
        {
          "internalType": "address",
          "name": "_dokter",
          "type": "address"
        }
      ],
      "name": "getDokter",
      "outputs": [
        {
          "internalType": "string",
          "name": "nama",
          "type": "string"
        },
        {
          "internalType": "bool",
          "name": "aktif",
          "type": "bool"
        },
        {
          "internalType": "address[]",
          "name": "pasien",
          "type": "address[]"
        }
      ],
      "stateMutability": "view",
      "type": "function",
      "constant": true
    },
    {
      "inputs": [
        {
          "internalType": "address",
          "name": "_pasien",
          "type": "address"
        }
      ],
      "name": "registerPasien",
      "outputs": [],
      "stateMutability": "nonpayable",
      "type": "function"
    },
    {
      "inputs": [],
      "name": "selfRegisterPasien",
      "outputs": [],
      "stateMutability": "nonpayable",
      "type": "function"
    },
    {
      "inputs": [
        {
          "internalType": "address",
          "name": "_user",
          "type": "address"
        }
      ],
      "name": "getUserRole",
      "outputs": [
        {
          "internalType": "string",
          "name": "",
          "type": "string"
        }
      ],
      "stateMutability": "view",
      "type": "function",
      "constant": true
    },
    {
      "inputs": [
        {
          "internalType": "address",
          "name": "pasien",
          "type": "address"
        }
      ],
      "name": "getRekamMedisIdsByPasien",
      "outputs": [
        {
          "internalType": "uint256[]",
          "name": "",
          "type": "uint256[]"
        }
      ],
      "stateMutability": "view",
      "type": "function",
      "constant": true
    },
    {
      "inputs": [
        {
          "internalType": "address",
          "name": "_newAdmin",
          "type": "address"
        }
      ],
      "name": "setAdmin",
      "outputs": [],
      "stateMutability": "nonpayable",
      "type": "function"
    },
    {
      "inputs": [
        {
          "internalType": "address",
          "name": "_pasien",
          "type": "address"
        },
        {
          "internalType": "string",
          "name": "_nama",
          "type": "string"
        },
        {
          "internalType": "uint256",
          "name": "_umur",
          "type": "uint256"
        },
        {
          "internalType": "string",
          "name": "_golonganDarah",
          "type": "string"
        },
        {
          "internalType": "string",
          "name": "_tanggalLahir",
          "type": "string"
        },
        {
          "internalType": "string",
          "name": "_gender",
          "type": "string"
        },
        {
          "internalType": "string",
          "name": "_alamat",
          "type": "string"
        },
        {
          "internalType": "string",
          "name": "_noTelepon",
          "type": "string"
        },
        {
          "internalType": "string",
          "name": "_email",
          "type": "string"
        },
        {
          "internalType": "string",
          "name": "_diagnosa",
          "type": "string"
        },
        {
          "internalType": "string",
          "name": "_foto",
          "type": "string"
        },
        {
          "internalType": "string",
          "name": "_catatan",
          "type": "string"
        }
      ],
      "name": "tambahRekamMedis",
      "outputs": [],
      "stateMutability": "nonpayable",
      "type": "function"
    },
    {
      "inputs": [
        {
          "internalType": "uint256",
          "name": "_id",
          "type": "uint256"
        },
        {
          "internalType": "string",
          "name": "_diagnosa",
          "type": "string"
        },
        {
          "internalType": "string",
          "name": "_catatan",
          "type": "string"
        }
      ],
      "name": "updateRekamMedis",
      "outputs": [],
      "stateMutability": "nonpayable",
      "type": "function"
    },
    {
      "inputs": [
        {
          "internalType": "uint256",
          "name": "_id",
          "type": "uint256"
        }
      ],
      "name": "nonaktifkanRekamMedis",
      "outputs": [],
      "stateMutability": "nonpayable",
      "type": "function"
    }
  ],
  "bytecode": "0x6080806040523461003c57600080546001600160a01b03191673b0dc0bf642d339517438017fc185bb0f758a01d21790556124b290816100428239f35b600080fdfe6080604052600436101561001257600080fd5b60003560e01c8062410cb314612046578063010ef3b314611f8d578063046bdbcc14611f1f578063083d882414611edb578063107e202f14611b005780631132beb514611ac157806319e8f405146118f957806327820851146118bd5780632e2dd1021461189f578063334181f21461180b5780633da055181461172857806342699651146116e65780635c4c9348146116a757806368f5dc9914610897578063704b6c02146108205780637d3e9db814610802578063932e0f6d14610752578063abf72abb146105c0578063bb2be1cc14610252578063c3c0fdea146101ef578063c967ede81461013b5763f851a4401461010d57600080fd5b34610136576000366003190112610136576000546040516001600160a01b039091168152602090f35b600080fd5b3461013657602080600319360112610136576001600160a01b0361015d61209e565b1660005260068152604060002060405190818382549182815201908192600052846000209060005b868282106101db57868661019b82880383612134565b604051928392818401908285525180915260408401929160005b8281106101c457505050500390f35b8351855286955093810193928101926001016101b5565b835485529093019260019283019201610185565b34610136576020366003190112610136576001600160a01b0361021061209e565b166000526001602052610246604060002060ff600161022e83612225565b920154166040519283926040845260408401906121ab565b90151560208301520390f35b34610136576060366003190112610136576001600160401b0360043560243582811161013657610286903690600401612155565b6044358381116101365761029e903690600401612155565b90336000526020936002855260ff60406000205416806105aa575b15610547578360005260058552604060002090600a820191835192828411610490576102e581546121eb565b93601f94858111610519575b50888582116001146104b1579080600c9493926000916104a6575b508160011b916000199060031b1c19161790555b019184519182116104905761033583546121eb565b818111610458575b50869082116001146103c957927f2a3c8ca9ac6f36396c175111b8f04207d249d61d733222e37c97a5ed7cfa7e1396959492826103ab936103b9966000916103be575b508160011b916000199060031b1c19161790555b6060604051968796875286015260608501906121ab565b9083820360408501526121ab565b0390a1005b90508501518a610380565b601f1982169083600052876000209160005b8181106104415750836103b996937f2a3c8ca9ac6f36396c175111b8f04207d249d61d733222e37c97a5ed7cfa7e139a999896936103ab9660019410610428575b5050811b019055610394565b87015160001960f88460031b161c191690558a8061041c565b91928960018192868b0151815501940192016103db565b6104819084600052886000208380860160051c8201928b8710610487575b0160051c0190612329565b8761033d565b92508192610476565b634e487b7160e01b600052604160045260246000fd5b90508701518b61030c565b601f19821690836000528a6000209160005b8c828210610503575050918391600c969594600194106104ea575b5050811b019055610320565b89015160001960f88460031b161c191690558b806104de565b600184958293958d0151815501940192016104c3565b61054190836000528a6000208780850160051c8201928d8610610487570160051c0190612329565b896102f1565b60405162461bcd60e51b815260048101869052603560248201527f48616e796120646f6b74657220616b7469662079616e672062697361206d656d6044820152743832b93130b93ab4903932b5b0b69036b2b234b99760591b6064820152608490fd5b506001855260ff600160406000200154166102b9565b34610136576020366003190112610136576004356000908152600560205260409020805460018201546001600160a01b0316916105ff60028201612225565b9060038101546004820161061290612225565b61061e60058401612225565b61062a60068501612225565b61063660078601612225565b61064260088701612225565b9161064f60098801612225565b9361065c600a8901612225565b95610669600b8a01612225565b97610676600c8b01612225565b99600d015460ff169a6040519d8e809e8152602001528c6101c06040819201528d016106a1916121ab565b9060608d01528b810360808d01526106b8916121ab565b8a810360a08c01526106c9916121ab565b89810360c08b01526106da916121ab565b88810360e08a01526106eb916121ab565b8781036101008901526106fd916121ab565b86810361012088015261070f916121ab565b858103610140870152610721916121ab565b848103610160860152610733916121ab565b838103610180850152610745916121ab565b9015156101a08301520390f35b346101365760403660031901126101365761076b61209e565b6024359081151591828103610136577f3dcd68c14f5f191f12b3b56bf35d5d7eb22447e9ec685290967b4558822ca98a926107f560409360018060a01b03906107b9826000541633146122cb565b16928360005260026020526107d460ff866000205416612340565b836000526001602052600185600020019060ff801983541691151516179055565b82519182526020820152a1005b34610136576000366003190112610136576020600454604051908152f35b34610136576020366003190112610136577f4d644268affe3d5bee1f2f5cb981613ce82c79f04442f0d58c544d9cd09b2f8d602061085c61209e565b600054906001600160a01b039061087633838516146122cb565b1680916bffffffffffffffffffffffff60a01b1617600055604051908152a1005b3461013657610180366003190112610136576108b161209e565b6024356001600160401b038111610136576108d0903690600401612155565b906064356001600160401b038111610136576108f0903690600401612155565b916084356001600160401b03811161013657610910903690600401612155565b9260a4356001600160401b03811161013657610930903690600401612155565b9360c4356001600160401b03811161013657610950903690600401612155565b9460e4356001600160401b03811161013657610970903690600401612155565b610104356001600160401b03811161013657610990903690600401612155565b90610124356001600160401b038111610136576109b1903690600401612155565b97610144356001600160401b038111610136576109d2903690600401612155565b93610164356001600160401b038111610136576109f3903690600401612155565b956001600160a01b038a16330361164757610a0f60075461238c565b9788600755604051998a6101c08101106001600160401b036101c08d011117610490576101c08b01604052898b5260018060a01b038c1660208c015260408b015260443560608b015260808a015260a089015260c088015260e08701526101008601526101208501528561014085015261016084015261018083015260016101a08301526000526005602052604060002090805182556001820160018060a01b036020830151166bffffffffffffffffffffffff60a01b82541617905560408101518051906001600160401b038211610490578190610af160028601546121eb565b601f8111611612575b50602090601f83116001146115a057600092611595575b50508160011b916000199060031b1c19161760028301555b6060810151600383015560808101518051906001600160401b038211610490578190610b5860048601546121eb565b601f8111611560575b50602090601f83116001146114ee576000926114e3575b50508160011b916000199060031b1c19161760048301555b60a08101518051906001600160401b038211610490578190610bb560058601546121eb565b601f81116114ae575b50602090601f831160011461143c57600092611431575b50508160011b916000199060031b1c19161760058301555b60c08101518051906001600160401b038211610490578190610c1260068601546121eb565b601f81116113fc575b50602090601f831160011461138a5760009261137f575b50508160011b916000199060031b1c19161760068301555b60e08101518051906001600160401b038211610490578190610c6f60078601546121eb565b601f811161134a575b50602090601f83116001146112d8576000926112cd575b50508160011b916000199060031b1c19161760078301555b6101008101518051906001600160401b038211610490578190610ccd60088601546121eb565b601f8111611298575b50602090601f83116001146112265760009261121b575b50508160011b916000199060031b1c19161760088301555b6101208101518051906001600160401b038211610490578190610d2b60098601546121eb565b601f81116111e6575b50602090601f831160011461117457600092611169575b50508160011b916000199060031b1c19161760098301555b6101408101518051906001600160401b038211610490578190610d89600a8601546121eb565b601f8111611134575b50602090601f83116001146110c2576000926110b7575b50508160011b916000199060031b1c191617600a8301555b6101608101518051906001600160401b038211610490578190610de7600b8601546121eb565b601f8111611082575b50602090601f831160011461101057600092611005575b50508160011b916000199060031b1c191617600b8301555b600c82016101808201518051906001600160401b03821161049057610e4483546121eb565b601f8111610fc8575b50602090601f8311600114610f555792826101a093610e9f979693600d96600092610f4a575b50508160011b916000199060031b1c19161790555b0151151591019060ff801983541691151516179055565b6001600160a01b038116600090815260066020526040902060075481549391600160401b8510156104905784610efb9160017f8647b41d1ffdc302f876f0e70e0c442d110a3c8bad284218f99616149394c99797018155612101565b819291549060031b91821b91600019901b1916179055610f3e60075491604051938493845260018060a01b031660208401526080604084015260808301906121ab565b600160608301520390a1005b015190508a80610e73565b90601f198316918460005260206000209260005b818110610fb0575093610e9f979693600d9693600193836101a09810610f97575b505050811b019055610e88565b015160001960f88460031b161c191690558a8080610f8a565b92936020600181928786015181550195019301610f69565b610ff590846000526020600020601f850160051c81019160208610610ffb575b601f0160051c0190612329565b87610e4d565b9091508190610fe8565b015190508680610e07565b9250600b85016000526020600020906000935b601f1984168510611067576001945083601f1981161061104e575b505050811b01600b830155610e1f565b015160001960f88460031b161c1916905586808061103e565b81810151835560209485019460019093019290910190611023565b6110b190600b87016000526020600020601f850160051c81019160208610610ffb57601f0160051c0190612329565b87610df0565b015190508680610da9565b9250600a85016000526020600020906000935b601f1984168510611119576001945083601f19811610611100575b505050811b01600a830155610dc1565b015160001960f88460031b161c191690558680806110f0565b818101518355602094850194600190930192909101906110d5565b61116390600a87016000526020600020601f850160051c81019160208610610ffb57601f0160051c0190612329565b87610d92565b015190508680610d4b565b9250600985016000526020600020906000935b601f19841685106111cb576001945083601f198116106111b2575b505050811b016009830155610d63565b015160001960f88460031b161c191690558680806111a2565b81810151835560209485019460019093019290910190611187565b61121590600987016000526020600020601f850160051c81019160208610610ffb57601f0160051c0190612329565b87610d34565b015190508680610ced565b9250600885016000526020600020906000935b601f198416851061127d576001945083601f19811610611264575b505050811b016008830155610d05565b015160001960f88460031b161c19169055868080611254565b81810151835560209485019460019093019290910190611239565b6112c790600887016000526020600020601f850160051c81019160208610610ffb57601f0160051c0190612329565b87610cd6565b015190508680610c8f565b9250600785016000526020600020906000935b601f198416851061132f576001945083601f19811610611316575b505050811b016007830155610ca7565b015160001960f88460031b161c19169055868080611306565b818101518355602094850194600190930192909101906112eb565b61137990600787016000526020600020601f850160051c81019160208610610ffb57601f0160051c0190612329565b87610c78565b015190508680610c32565b9250600685016000526020600020906000935b601f19841685106113e1576001945083601f198116106113c8575b505050811b016006830155610c4a565b015160001960f88460031b161c191690558680806113b8565b8181015183556020948501946001909301929091019061139d565b61142b90600687016000526020600020601f850160051c81019160208610610ffb57601f0160051c0190612329565b87610c1b565b015190508680610bd5565b9250600585016000526020600020906000935b601f1984168510611493576001945083601f1981161061147a575b505050811b016005830155610bed565b015160001960f88460031b161c1916905586808061146a565b8181015183556020948501946001909301929091019061144f565b6114dd90600587016000526020600020601f850160051c81019160208610610ffb57601f0160051c0190612329565b87610bbe565b015190508680610b78565b9250600485016000526020600020906000935b601f1984168510611545576001945083601f1981161061152c575b505050811b016004830155610b90565b015160001960f88460031b161c1916905586808061151c565b81810151835560209485019460019093019290910190611501565b61158f90600487016000526020600020601f850160051c81019160208610610ffb57601f0160051c0190612329565b87610b61565b015190508680610b11565b9250600285016000526020600020906000935b601f19841685106115f7576001945083601f198116106115de575b505050811b016002830155610b29565b015160001960f88460031b161c191690558680806115ce565b818101518355602094850194600190930192909101906115b3565b61164190600287016000526020600020601f850160051c81019160208610610ffb57601f0160051c0190612329565b87610afa565b60405162461bcd60e51b815260206004820152603260248201527f48616e79612070617369656e2079616e672062697361206d656d62756174207260448201527132b5b0b69036b2b234b99036b2b932b5b09760711b6064820152608490fd5b34610136576020366003190112610136576001600160a01b036116c861209e565b166000526002602052602060ff604060002054166040519015158152f35b34610136576020366003190112610136576004356004548110156101365761170f6020916120b4565b905460405160039290921b1c6001600160a01b03168152f35b3461013657602080600319360112610136576001600160a01b03908161174c61209e565b16600052600180825260406000209260ff828501541661176f6002860195612225565b93604051808288549182815201908198600052836000209060005b8181106117f657505050906117a28184930382612134565b6117b7604051976060895260608901906121ab565b93151582880152868403604088015251928381520195926000905b8382106117df5786880387f35b8451811688529682019693820193908501906117d2565b8254881684529285019291880191880161178a565b346101365760003660031901126101365733600052600360205260ff6040600020541661184e57336000908152600360205260409020805460ff19166001179055005b60405162461bcd60e51b8152602060048201526024808201527f416e64612073756461682074657264616674617220736562616761692050617360448201526334b2b71760e11b6064820152608490fd5b34610136576000366003190112610136576020600754604051908152f35b34610136576020366003190112610136576118f56118e16118dc61209e565b6123b1565b6040519182916020835260208301906121ab565b0390f35b346101365760403660031901126101365761191261209e565b6024906001600160a01b038235818116929083900361013657819061193c826000541633146122cb565b1692836000526020916002835261195a60ff60406000205416612340565b8360005260039182845260ff6040600020541615611a7e57856000526001845260026040600020016000918154925b838110611a055750600160401b8310156119f1577fd9a2627959a7f46a8b96c10424cdae1f1b65151551cd206b119aca54c0a86a5a604089898989896119d58a8a600182018155612101565b81939154911b9185831b921b19161790558351928352820152a1005b634e487b7160e01b60009081526041600452fd5b8785611a118386612101565b905490891b1c1614611a2b57611a269061238c565b611989565b60405162461bcd60e51b8152600481018890526026818401527f50617369656e20737564616820646974756761736b616e206b6520646f6b7465604482015265391034b7349760d11b6064820152608490fd5b8360176064926040519262461bcd60e51b845260048401528201527f50617369656e20746964616b207465726461667461722e0000000000000000006044820152fd5b34610136576020366003190112610136576001600160a01b03611ae261209e565b166000526003602052602060ff604060002054166040519015158152f35b3461013657604036600319011261013657611b1961209e565b6024356001600160401b03811161013657611b38903690600401612155565b611b4d60018060a01b036000541633146122cb565b6001600160a01b03821660009081526002602052604090205460ff16611e96576001600160a01b03821660009081526003602052604090205460ff16611e425760018060a01b03821660005260026020526040600020600160ff1982541617905560405191602083018381106001600160401b03821117610490576040526000835260405192606084018481106001600160401b0382111761049057604052828452602084019060018252604085015260018060a01b038216600052600160205260406000209084518051906001600160401b03821161049057611c3184546121eb565b601f8111611e10575b50602090601f8311600114611d9d57928260409593611c8b93600296600092611d92575b50508160011b916000199060031b1c19161783555b511515600183019060ff801983541691151516179055565b01930151928351906001600160401b03821161049057600160401b94858311610490576020908254848455808510611d75575b500190600052602060002060005b838110611d5857505050506004549283101561049057611d138360017fc38147498c0c3f6433ae14d0586b30fef7b292e301be82700c6478971c423dce95016004556120b4565b81549060031b9060018060a01b038416821b9160018060a01b03901b19161790556103b960405192839260018060a01b031683526040602084015260408301906121ab565b82516001600160a01b031681830155602090920191600101611ccc565b611d8c908460005285846000209182019101612329565b87611cbe565b015190508a80611c5e565b908460005260206000209160005b601f1985168110611df8575083611c8b936002969360019360409997601f19811610611ddf575b505050811b018355611c73565b015160001960f88460031b161c191690558a8080611dd2565b91926020600181928685015181550194019201611dab565b611e3c90856000526020600020601f850160051c81019160208610610ffb57601f0160051c0190612329565b87611c3a565b60405162461bcd60e51b815260206004820152602660248201527f416c616d6174207375646168207465726461667461722073656261676169205060448201526530b9b4b2b71760d11b6064820152608490fd5b60405162461bcd60e51b815260206004820152601760248201527f446f6b746572207375646168207465726461667461722e0000000000000000006044820152606490fd5b3461013657602036600319011261013657611f0160018060a01b036000541633146122cb565b6004356000908152600560205260409020600d01805460ff19169055005b3461013657602036600319011261013657600435600454811015611f485761170f6020916120b4565b60405162461bcd60e51b815260206004820152601960248201527f496e64657820646f6b74657220746964616b2076616c69642e000000000000006044820152606490fd5b3461013657602036600319011261013657611fa661209e565b6000546001600160a01b039190611fc090831633146122cb565b1680600052600260205260ff60406000205416611ff2576000908152600360205260409020805460ff19166001179055005b60405162461bcd60e51b815260206004820152602660248201527f416c616d6174207375646168207465726461667461722073656261676169204460448201526537b5ba32b91760d11b6064820152608490fd5b346101365760403660031901126101365761205f61209e565b6001600160a01b03166000908152600660205260409020805460243591908210156101365760209161209091612101565b90546040519160031b1c8152f35b600435906001600160a01b038216820361013657565b6004548110156120eb5760046000527f8a35acfbc15ff81a39ae7d344fd709f28e8600b4aa8c65c6b64bfe7fe36bd19b0190600090565b634e487b7160e01b600052603260045260246000fd5b80548210156120eb5760005260206000200190600090565b604081019081106001600160401b0382111761049057604052565b90601f801991011681019081106001600160401b0382111761049057604052565b81601f82011215610136578035906001600160401b0382116104905760405192612189601f8401601f191660200185612134565b8284526020838301011161013657816000926020809301838601378301015290565b919082519283825260005b8481106121d7575050826000602080949584010152601f8019910116010190565b6020818301810151848301820152016121b6565b90600182811c9216801561221b575b602083101461220557565b634e487b7160e01b600052602260045260246000fd5b91607f16916121fa565b9060405191826000825492612239846121eb565b9081845260019485811690816000146122a85750600114612265575b505061226392500383612134565b565b9093915060005260209081600020936000915b81831061229057505061226393508201013880612255565b85548884018501529485019487945091830191612278565b91505061226394506020925060ff191682840152151560051b8201013880612255565b156122d257565b60405162461bcd60e51b815260206004820152602960248201527f48616e79612061646d696e2079616e672062697361206d656c616b756b616e2060448201526830b5b9b49034b7349760b91b6064820152608490fd5b818110612334575050565b60008155600101612329565b1561234757565b60405162461bcd60e51b815260206004820152601760248201527f446f6b74657220746964616b207465726461667461722e0000000000000000006044820152606490fd5b600019811461239b5760010190565b634e487b7160e01b600052601160045260246000fd5b6000546001600160a01b039182169116811461245a5780600052600260205260ff6040600020541661243757600052600360205260ff60406000205416612415576040516123fe81612119565b60078152662ab735b737bbb760c91b602082015290565b60405161242181612119565b60068152652830b9b4b2b760d11b602082015290565b5060405161244481612119565b60068152652237b5ba32b960d11b602082015290565b5060405161246781612119565b600581526420b236b4b760d91b60208201529056fea2646970667358221220af289599cccce58baff6d16e011e79d090428b00a3ce4e042c982cddf2fd247264736f6c63430008130033",
  "immutableReferences": {},
  "source": "// SPDX-License-Identifier: MIT\r\npragma solidity >=0.4.22 <0.9.0;\r\n\r\ncontract RekamMedis {\r\n    address public admin;\r\n\r\n    struct Dokter {\r\n        string nama;\r\n        bool aktif;\r\n        address[] assignedPasien;\r\n    }\r\n\r\n    mapping(address => Dokter) public dataDokter;\r\n    mapping(address => bool) public isDokter;\r\n    mapping(address => bool) public isPasien;\r\n\r\n    address[] public daftarDokter; // daftar semua alamat dokter\r\n\r\n    struct RekamMedisData {\r\n        uint id;\r\n        address pasien;\r\n        string nama;\r\n        uint umur;\r\n        string golonganDarah;\r\n        string tanggalLahir;\r\n        string gender;\r\n        string alamat;\r\n        string noTelepon;\r\n        string email;\r\n        string diagnosa;\r\n        string foto;\r\n        string catatan;\r\n        bool valid;\r\n    }\r\n\r\n    mapping(uint => RekamMedisData) public rekamMedis;\r\n    mapping(address => uint[]) public rekamMedisByPasien;\r\n    uint public rekamMedisCount;\r\n\r\n    event RekamMedisDitambahkan(\r\n        uint id,\r\n        address pasien,\r\n        string diagnosa,\r\n        bool valid\r\n    );\r\n    event RekamMedisDiperbarui(uint id, string diagnosa, string catatan);\r\n    event AdminDitetapkan(address newAdmin);\r\n    event DokterTerdaftar(address dokter, string nama);\r\n    event DokterStatusDiubah(address dokter, bool aktif);\r\n    event PasienDiassignKeDokter(address dokter, address pasien);\r\n\r\n    constructor() {\r\n        admin = 0xB0dC0Bf642d339517438017Fc185Bb0f758A01D2;\r\n    }\r\n\r\n    modifier hanyaAdmin() {\r\n        require(\r\n            msg.sender == admin,\r\n            \"Hanya admin yang bisa melakukan aksi ini.\"\r\n        );\r\n        _;\r\n    }\r\n\r\n    modifier hanyaDokterAktif() {\r\n        require(\r\n            isDokter[msg.sender] && dataDokter[msg.sender].aktif,\r\n            \"Hanya dokter aktif yang bisa memperbarui rekam medis.\"\r\n        );\r\n        _;\r\n    }\r\n\r\n    modifier hanyaPasien(address pasien) {\r\n        require(\r\n            msg.sender == pasien,\r\n            \"Hanya pasien yang bisa membuat rekam medis mereka.\"\r\n        );\r\n        _;\r\n    }\r\n\r\n    // Register dokter baru dengan nama dan aktifkan langsung\r\n    function registerDokter(\r\n        address _dokter,\r\n        string memory _nama\r\n    ) public hanyaAdmin {\r\n        require(!isDokter[_dokter], \"Dokter sudah terdaftar.\");\r\n        require(!isPasien[_dokter], \"Alamat sudah terdaftar sebagai Pasien.\"); // Cek jika sudah pasien\r\n        isDokter[_dokter] = true;\r\n        dataDokter[_dokter] = Dokter({\r\n            nama: _nama,\r\n            aktif: true,\r\n            assignedPasien: new address[](0)\r\n        });\r\n        daftarDokter.push(_dokter);\r\n        emit DokterTerdaftar(_dokter, _nama);\r\n    }\r\n\r\n    // Ambil total dokter terdaftar\r\n    function totalDokter() public view returns (uint) {\r\n        return daftarDokter.length;\r\n    }\r\n\r\n    // Ambil alamat dokter berdasarkan index\r\n    function getDokterByIndex(uint index) public view returns (address) {\r\n        require(index < daftarDokter.length, \"Index dokter tidak valid.\");\r\n        return daftarDokter[index];\r\n    }\r\n\r\n    // Set status dokter aktif/nonaktif\r\n    function setStatusDokter(address _dokter, bool _aktif) public hanyaAdmin {\r\n        require(isDokter[_dokter], \"Dokter tidak terdaftar.\");\r\n        dataDokter[_dokter].aktif = _aktif;\r\n        emit DokterStatusDiubah(_dokter, _aktif);\r\n    }\r\n\r\n    // Assign pasien ke dokter tertentu\r\n    function assignPasienToDokter(\r\n        address _dokter,\r\n        address _pasien\r\n    ) public hanyaAdmin {\r\n        require(isDokter[_dokter], \"Dokter tidak terdaftar.\");\r\n        require(isPasien[_pasien], \"Pasien tidak terdaftar.\");\r\n\r\n        address[] storage daftarPasien = dataDokter[_dokter].assignedPasien;\r\n        for (uint i = 0; i < daftarPasien.length; i++) {\r\n            if (daftarPasien[i] == _pasien) {\r\n                revert(\"Pasien sudah ditugaskan ke dokter ini.\");\r\n            }\r\n        }\r\n        daftarPasien.push(_pasien);\r\n        emit PasienDiassignKeDokter(_dokter, _pasien);\r\n    }\r\n\r\n    // Get data dokter\r\n    function getDokter(\r\n        address _dokter\r\n    )\r\n        public\r\n        view\r\n        returns (string memory nama, bool aktif, address[] memory pasien)\r\n    {\r\n        Dokter storage d = dataDokter[_dokter];\r\n        return (d.nama, d.aktif, d.assignedPasien);\r\n    }\r\n\r\n    // Register pasien oleh admin\r\n    function registerPasien(address _pasien) public hanyaAdmin {\r\n        require(!isDokter[_pasien], \"Alamat sudah terdaftar sebagai Dokter.\"); // Cek jika sudah dokter\r\n        isPasien[_pasien] = true;\r\n    }\r\n\r\n    // Self register pasien\r\n    function selfRegisterPasien() public {\r\n        require(!isPasien[msg.sender], \"Anda sudah terdaftar sebagai Pasien.\");\r\n        isPasien[msg.sender] = true;\r\n    }\r\n\r\n    // Get role user\r\n    function getUserRole(address _user) public view returns (string memory) {\r\n        if (_user == admin) return \"Admin\";\r\n        if (isDokter[_user]) return \"Dokter\";\r\n        if (isPasien[_user]) return \"Pasien\";\r\n        return \"Unknown\";\r\n    }\r\n\r\n    // Rekam medis pasien\r\n    function getRekamMedisIdsByPasien(\r\n        address pasien\r\n    ) public view returns (uint[] memory) {\r\n        return rekamMedisByPasien[pasien];\r\n    }\r\n\r\n    // Set admin baru\r\n    function setAdmin(address _newAdmin) public hanyaAdmin {\r\n        admin = _newAdmin;\r\n        emit AdminDitetapkan(_newAdmin);\r\n    }\r\n\r\n    // Tambah rekam medis pasien\r\n    function tambahRekamMedis(\r\n        address _pasien,\r\n        string memory _nama,\r\n        uint _umur,\r\n        string memory _golonganDarah,\r\n        string memory _tanggalLahir,\r\n        string memory _gender,\r\n        string memory _alamat,\r\n        string memory _noTelepon,\r\n        string memory _email,\r\n        string memory _diagnosa,\r\n        string memory _foto,\r\n        string memory _catatan\r\n    ) public hanyaPasien(_pasien) {\r\n        rekamMedisCount++;\r\n        rekamMedis[rekamMedisCount] = RekamMedisData(\r\n            rekamMedisCount,\r\n            _pasien,\r\n            _nama,\r\n            _umur,\r\n            _golonganDarah,\r\n            _tanggalLahir,\r\n            _gender,\r\n            _alamat,\r\n            _noTelepon,\r\n            _email,\r\n            _diagnosa,\r\n            _foto,\r\n            _catatan,\r\n            true\r\n        );\r\n        rekamMedisByPasien[_pasien].push(rekamMedisCount);\r\n        emit RekamMedisDitambahkan(rekamMedisCount, _pasien, _diagnosa, true);\r\n    }\r\n\r\n    // Update rekam medis dokter aktif\r\n    function updateRekamMedis(\r\n        uint _id,\r\n        string memory _diagnosa,\r\n        string memory _catatan\r\n    ) public hanyaDokterAktif {\r\n        RekamMedisData storage rekam = rekamMedis[_id];\r\n        rekam.diagnosa = _diagnosa;\r\n        rekam.catatan = _catatan;\r\n        emit RekamMedisDiperbarui(_id, _diagnosa, _catatan);\r\n    }\r\n\r\n    // Nonaktifkan rekam medis (admin)\r\n    function nonaktifkanRekamMedis(uint _id) public hanyaAdmin {\r\n        rekamMedis[_id].valid = false;\r\n    }\r\n}\r\n",
  "sourcePath": "D:\\RekamMedisBlockchain\\contracts\\RekamMedis.sol",
  "compiler": {
    "name": "solc",
    "version": "0.8.19+commit.7dd6d404.Emscripten.clang"
  },
  "schemaVersion": "3.4.16",
  "updatedAt": "2025-05-15T22:51:55.361Z",
  "networkType": "ethereum",
  "devdoc": {
    "kind": "dev",
    "methods": {},
    "version": 1
  },
  "userdoc": {
    "kind": "user",
    "methods": {},
    "version": 1
  }
}