{
  "contractName": "RekamMedisRS",
  "abi": [
    {
      "inputs": [],
      "stateMutability": "nonpayable",
      "type": "constructor"
    },
    {
      "anonymous": false,
      "inputs": [
        {
          "indexed": true,
          "internalType": "address",
          "name": "admin",
          "type": "address"
        },
        {
          "indexed": false,
          "internalType": "string",
          "name": "namaRumahSakit",
          "type": "string"
        },
        {
          "indexed": false,
          "internalType": "string",
          "name": "alamatRumahSakit",
          "type": "string"
        },
        {
          "indexed": false,
          "internalType": "string",
          "name": "kota",
          "type": "string"
        },
        {
          "indexed": false,
          "internalType": "string",
          "name": "IDRS",
          "type": "string"
        }
      ],
      "name": "AdminRSInfoDiperbarui",
      "type": "event"
    },
    {
      "anonymous": false,
      "inputs": [
        {
          "indexed": true,
          "internalType": "address",
          "name": "admin",
          "type": "address"
        },
        {
          "indexed": false,
          "internalType": "bool",
          "name": "aktif",
          "type": "bool"
        }
      ],
      "name": "AdminRSStatusDiubah",
      "type": "event"
    },
    {
      "anonymous": false,
      "inputs": [
        {
          "indexed": true,
          "internalType": "address",
          "name": "admin",
          "type": "address"
        },
        {
          "indexed": false,
          "internalType": "string",
          "name": "namaRumahSakit",
          "type": "string"
        },
        {
          "indexed": false,
          "internalType": "string",
          "name": "alamatRumahSakit",
          "type": "string"
        },
        {
          "indexed": false,
          "internalType": "string",
          "name": "kota",
          "type": "string"
        },
        {
          "indexed": false,
          "internalType": "string",
          "name": "IDRS",
          "type": "string"
        }
      ],
      "name": "AdminRSTerdaftar",
      "type": "event"
    },
    {
      "anonymous": false,
      "inputs": [
        {
          "indexed": true,
          "internalType": "address",
          "name": "dokter",
          "type": "address"
        },
        {
          "indexed": false,
          "internalType": "string",
          "name": "nama",
          "type": "string"
        },
        {
          "indexed": false,
          "internalType": "string",
          "name": "spesialisasi",
          "type": "string"
        },
        {
          "indexed": false,
          "internalType": "string",
          "name": "nomorLisensi",
          "type": "string"
        },
        {
          "indexed": true,
          "internalType": "address",
          "name": "adminRS",
          "type": "address"
        }
      ],
      "name": "DokterInfoDiperbarui",
      "type": "event"
    },
    {
      "anonymous": false,
      "inputs": [
        {
          "indexed": true,
          "internalType": "address",
          "name": "dokter",
          "type": "address"
        },
        {
          "indexed": false,
          "internalType": "bool",
          "name": "aktif",
          "type": "bool"
        }
      ],
      "name": "DokterStatusDiubah",
      "type": "event"
    },
    {
      "anonymous": false,
      "inputs": [
        {
          "indexed": true,
          "internalType": "address",
          "name": "dokter",
          "type": "address"
        },
        {
          "indexed": false,
          "internalType": "string",
          "name": "nama",
          "type": "string"
        },
        {
          "indexed": false,
          "internalType": "address",
          "name": "adminRS",
          "type": "address"
        }
      ],
      "name": "DokterTerdaftar",
      "type": "event"
    },
    {
      "anonymous": false,
      "inputs": [
        {
          "indexed": true,
          "internalType": "address",
          "name": "pasien",
          "type": "address"
        },
        {
          "indexed": false,
          "internalType": "string",
          "name": "nama",
          "type": "string"
        },
        {
          "indexed": false,
          "internalType": "string",
          "name": "golonganDarah",
          "type": "string"
        },
        {
          "indexed": false,
          "internalType": "string",
          "name": "tanggalLahir",
          "type": "string"
        },
        {
          "indexed": false,
          "internalType": "string",
          "name": "gender",
          "type": "string"
        },
        {
          "indexed": false,
          "internalType": "string",
          "name": "alamat",
          "type": "string"
        },
        {
          "indexed": false,
          "internalType": "string",
          "name": "noTelepon",
          "type": "string"
        },
        {
          "indexed": false,
          "internalType": "string",
          "name": "email",
          "type": "string"
        }
      ],
      "name": "PasienDataDiperbarui",
      "type": "event"
    },
    {
      "anonymous": false,
      "inputs": [
        {
          "indexed": false,
          "internalType": "address",
          "name": "dokter",
          "type": "address"
        },
        {
          "indexed": false,
          "internalType": "address",
          "name": "pasien",
          "type": "address"
        }
      ],
      "name": "PasienDiassignKeDokter",
      "type": "event"
    },
    {
      "anonymous": false,
      "inputs": [
        {
          "indexed": false,
          "internalType": "address",
          "name": "dokter",
          "type": "address"
        },
        {
          "indexed": false,
          "internalType": "address",
          "name": "pasien",
          "type": "address"
        }
      ],
      "name": "PasienDiunassignDariDokter",
      "type": "event"
    },
    {
      "anonymous": false,
      "inputs": [
        {
          "indexed": true,
          "internalType": "address",
          "name": "pasien",
          "type": "address"
        },
        {
          "indexed": false,
          "internalType": "address",
          "name": "oldAdminRS",
          "type": "address"
        },
        {
          "indexed": false,
          "internalType": "address",
          "name": "newAdminRS",
          "type": "address"
        }
      ],
      "name": "PasienPindahRS",
      "type": "event"
    },
    {
      "anonymous": false,
      "inputs": [
        {
          "indexed": true,
          "internalType": "address",
          "name": "pasien",
          "type": "address"
        },
        {
          "indexed": false,
          "internalType": "string",
          "name": "nama",
          "type": "string"
        },
        {
          "indexed": false,
          "internalType": "string",
          "name": "IDPasien",
          "type": "string"
        },
        {
          "indexed": false,
          "internalType": "address",
          "name": "adminRS",
          "type": "address"
        }
      ],
      "name": "PasienTerdaftar",
      "type": "event"
    },
    {
      "anonymous": false,
      "inputs": [
        {
          "indexed": false,
          "internalType": "uint256",
          "name": "id",
          "type": "uint256"
        },
        {
          "indexed": false,
          "internalType": "address",
          "name": "pasien",
          "type": "address"
        },
        {
          "indexed": false,
          "internalType": "string",
          "name": "diagnosa",
          "type": "string"
        },
        {
          "indexed": false,
          "internalType": "string",
          "name": "foto",
          "type": "string"
        },
        {
          "indexed": false,
          "internalType": "string",
          "name": "catatan",
          "type": "string"
        },
        {
          "indexed": false,
          "internalType": "string",
          "name": "tipeRekamMedis",
          "type": "string"
        },
        {
          "indexed": false,
          "internalType": "address",
          "name": "pembuat",
          "type": "address"
        },
        {
          "indexed": false,
          "internalType": "uint256",
          "name": "timestamp",
          "type": "uint256"
        }
      ],
      "name": "RekamMedisDitambahkan",
      "type": "event"
    },
    {
      "inputs": [
        {
          "internalType": "uint256",
          "name": "",
          "type": "uint256"
        }
      ],
      "name": "daftarAdmin",
      "outputs": [
        {
          "internalType": "address",
          "name": "",
          "type": "address"
        }
      ],
      "stateMutability": "view",
      "type": "function",
      "constant": true
    },
    {
      "inputs": [
        {
          "internalType": "uint256",
          "name": "",
          "type": "uint256"
        }
      ],
      "name": "daftarDokter",
      "outputs": [
        {
          "internalType": "address",
          "name": "",
          "type": "address"
        }
      ],
      "stateMutability": "view",
      "type": "function",
      "constant": true
    },
    {
      "inputs": [
        {
          "internalType": "uint256",
          "name": "",
          "type": "uint256"
        }
      ],
      "name": "daftarPasien",
      "outputs": [
        {
          "internalType": "address",
          "name": "",
          "type": "address"
        }
      ],
      "stateMutability": "view",
      "type": "function",
      "constant": true
    },
    {
      "inputs": [
        {
          "internalType": "address",
          "name": "",
          "type": "address"
        }
      ],
      "name": "dataAdmin",
      "outputs": [
        {
          "internalType": "string",
          "name": "namaRumahSakit",
          "type": "string"
        },
        {
          "internalType": "bool",
          "name": "aktif",
          "type": "bool"
        },
        {
          "internalType": "string",
          "name": "alamatRumahSakit",
          "type": "string"
        },
        {
          "internalType": "string",
          "name": "kota",
          "type": "string"
        },
        {
          "internalType": "string",
          "name": "IDRS",
          "type": "string"
        }
      ],
      "stateMutability": "view",
      "type": "function",
      "constant": true
    },
    {
      "inputs": [
        {
          "internalType": "address",
          "name": "",
          "type": "address"
        }
      ],
      "name": "dataDokter",
      "outputs": [
        {
          "internalType": "string",
          "name": "nama",
          "type": "string"
        },
        {
          "internalType": "string",
          "name": "spesialisasi",
          "type": "string"
        },
        {
          "internalType": "string",
          "name": "nomorLisensi",
          "type": "string"
        },
        {
          "internalType": "bool",
          "name": "aktif",
          "type": "bool"
        },
        {
          "internalType": "address",
          "name": "adminRS",
          "type": "address"
        }
      ],
      "stateMutability": "view",
      "type": "function",
      "constant": true
    },
    {
      "inputs": [
        {
          "internalType": "address",
          "name": "",
          "type": "address"
        }
      ],
      "name": "dataPasien",
      "outputs": [
        {
          "internalType": "string",
          "name": "nama",
          "type": "string"
        },
        {
          "internalType": "string",
          "name": "ID",
          "type": "string"
        },
        {
          "internalType": "string",
          "name": "golonganDarah",
          "type": "string"
        },
        {
          "internalType": "string",
          "name": "tanggalLahir",
          "type": "string"
        },
        {
          "internalType": "string",
          "name": "gender",
          "type": "string"
        },
        {
          "internalType": "string",
          "name": "alamat",
          "type": "string"
        },
        {
          "internalType": "string",
          "name": "noTelepon",
          "type": "string"
        },
        {
          "internalType": "string",
          "name": "email",
          "type": "string"
        },
        {
          "internalType": "address",
          "name": "rumahSakitPenanggungJawab",
          "type": "address"
        }
      ],
      "stateMutability": "view",
      "type": "function",
      "constant": true
    },
    {
      "inputs": [
        {
          "internalType": "address",
          "name": "",
          "type": "address"
        }
      ],
      "name": "isDokter",
      "outputs": [
        {
          "internalType": "bool",
          "name": "",
          "type": "bool"
        }
      ],
      "stateMutability": "view",
      "type": "function",
      "constant": true
    },
    {
      "inputs": [
        {
          "internalType": "string",
          "name": "",
          "type": "string"
        }
      ],
      "name": "isIDRSUsed",
      "outputs": [
        {
          "internalType": "bool",
          "name": "",
          "type": "bool"
        }
      ],
      "stateMutability": "view",
      "type": "function",
      "constant": true
    },
    {
      "inputs": [
        {
          "internalType": "address",
          "name": "",
          "type": "address"
        }
      ],
      "name": "isPasien",
      "outputs": [
        {
          "internalType": "bool",
          "name": "",
          "type": "bool"
        }
      ],
      "stateMutability": "view",
      "type": "function",
      "constant": true
    },
    {
      "inputs": [
        {
          "internalType": "string",
          "name": "",
          "type": "string"
        }
      ],
      "name": "isPatientIDUsed",
      "outputs": [
        {
          "internalType": "bool",
          "name": "",
          "type": "bool"
        }
      ],
      "stateMutability": "view",
      "type": "function",
      "constant": true
    },
    {
      "inputs": [
        {
          "internalType": "uint256",
          "name": "",
          "type": "uint256"
        }
      ],
      "name": "rekamMedis",
      "outputs": [
        {
          "internalType": "uint256",
          "name": "id",
          "type": "uint256"
        },
        {
          "internalType": "address",
          "name": "pasien",
          "type": "address"
        },
        {
          "internalType": "string",
          "name": "diagnosa",
          "type": "string"
        },
        {
          "internalType": "string",
          "name": "foto",
          "type": "string"
        },
        {
          "internalType": "string",
          "name": "catatan",
          "type": "string"
        },
        {
          "internalType": "address",
          "name": "pembuat",
          "type": "address"
        },
        {
          "internalType": "uint256",
          "name": "timestampPembuatan",
          "type": "uint256"
        },
        {
          "internalType": "string",
          "name": "tipeRekamMedis",
          "type": "string"
        }
      ],
      "stateMutability": "view",
      "type": "function",
      "constant": true
    },
    {
      "inputs": [
        {
          "internalType": "address",
          "name": "",
          "type": "address"
        },
        {
          "internalType": "uint256",
          "name": "",
          "type": "uint256"
        }
      ],
      "name": "rekamMedisByPasien",
      "outputs": [
        {
          "internalType": "uint256",
          "name": "",
          "type": "uint256"
        }
      ],
      "stateMutability": "view",
      "type": "function",
      "constant": true
    },
    {
      "inputs": [],
      "name": "rekamMedisCount",
      "outputs": [
        {
          "internalType": "uint256",
          "name": "",
          "type": "uint256"
        }
      ],
      "stateMutability": "view",
      "type": "function",
      "constant": true
    },
    {
      "inputs": [],
      "name": "superAdmin",
      "outputs": [
        {
          "internalType": "address",
          "name": "",
          "type": "address"
        }
      ],
      "stateMutability": "view",
      "type": "function",
      "constant": true
    },
    {
      "inputs": [
        {
          "internalType": "address",
          "name": "_admin",
          "type": "address"
        },
        {
          "internalType": "string",
          "name": "_namaRS",
          "type": "string"
        },
        {
          "internalType": "string",
          "name": "_alamatRS",
          "type": "string"
        },
        {
          "internalType": "string",
          "name": "_kotaRS",
          "type": "string"
        },
        {
          "internalType": "string",
          "name": "_IDRS",
          "type": "string"
        }
      ],
      "name": "registerAdminRS",
      "outputs": [],
      "stateMutability": "nonpayable",
      "type": "function"
    },
    {
      "inputs": [
        {
          "internalType": "address",
          "name": "_admin",
          "type": "address"
        },
        {
          "internalType": "string",
          "name": "_namaBaru",
          "type": "string"
        },
        {
          "internalType": "string",
          "name": "_alamatBaru",
          "type": "string"
        },
        {
          "internalType": "string",
          "name": "_kotaBaru",
          "type": "string"
        },
        {
          "internalType": "string",
          "name": "_IDRSBaru",
          "type": "string"
        }
      ],
      "name": "updateAdminRSDetails",
      "outputs": [],
      "stateMutability": "nonpayable",
      "type": "function"
    },
    {
      "inputs": [
        {
          "internalType": "address",
          "name": "_admin",
          "type": "address"
        },
        {
          "internalType": "bool",
          "name": "_aktif",
          "type": "bool"
        }
      ],
      "name": "setStatusAdminRS",
      "outputs": [],
      "stateMutability": "nonpayable",
      "type": "function"
    },
    {
      "inputs": [],
      "name": "getAllAdminRSAddresses",
      "outputs": [
        {
          "internalType": "address[]",
          "name": "",
          "type": "address[]"
        }
      ],
      "stateMutability": "view",
      "type": "function",
      "constant": true
    },
    {
      "inputs": [],
      "name": "totalAdmin",
      "outputs": [
        {
          "internalType": "uint256",
          "name": "",
          "type": "uint256"
        }
      ],
      "stateMutability": "view",
      "type": "function",
      "constant": true
    },
    {
      "inputs": [
        {
          "internalType": "uint256",
          "name": "idx",
          "type": "uint256"
        }
      ],
      "name": "getAdminByIndex",
      "outputs": [
        {
          "internalType": "address",
          "name": "",
          "type": "address"
        }
      ],
      "stateMutability": "view",
      "type": "function",
      "constant": true
    },
    {
      "inputs": [
        {
          "internalType": "address",
          "name": "_admin",
          "type": "address"
        }
      ],
      "name": "getAdminRS",
      "outputs": [
        {
          "internalType": "string",
          "name": "namaRumahSakit",
          "type": "string"
        },
        {
          "internalType": "bool",
          "name": "aktif",
          "type": "bool"
        },
        {
          "internalType": "string",
          "name": "alamatRumahSakit",
          "type": "string"
        },
        {
          "internalType": "string",
          "name": "kota",
          "type": "string"
        },
        {
          "internalType": "string",
          "name": "IDRS",
          "type": "string"
        }
      ],
      "stateMutability": "view",
      "type": "function",
      "constant": true
    },
    {
      "inputs": [
        {
          "internalType": "address",
          "name": "_dokter",
          "type": "address"
        },
        {
          "internalType": "string",
          "name": "_nama",
          "type": "string"
        },
        {
          "internalType": "string",
          "name": "_spesialisasi",
          "type": "string"
        },
        {
          "internalType": "string",
          "name": "_nomorLisensi",
          "type": "string"
        }
      ],
      "name": "registerDokter",
      "outputs": [],
      "stateMutability": "nonpayable",
      "type": "function"
    },
    {
      "inputs": [
        {
          "internalType": "address",
          "name": "_dokter",
          "type": "address"
        },
        {
          "internalType": "string",
          "name": "_namaBaru",
          "type": "string"
        },
        {
          "internalType": "string",
          "name": "_spesialisasiBaru",
          "type": "string"
        },
        {
          "internalType": "string",
          "name": "_nomorLisensiBaru",
          "type": "string"
        }
      ],
      "name": "updateDokterInfo",
      "outputs": [],
      "stateMutability": "nonpayable",
      "type": "function"
    },
    {
      "inputs": [
        {
          "internalType": "address",
          "name": "_dokter",
          "type": "address"
        },
        {
          "internalType": "bool",
          "name": "_aktif",
          "type": "bool"
        }
      ],
      "name": "setStatusDokter",
      "outputs": [],
      "stateMutability": "nonpayable",
      "type": "function"
    },
    {
      "inputs": [],
      "name": "totalDokter",
      "outputs": [
        {
          "internalType": "uint256",
          "name": "",
          "type": "uint256"
        }
      ],
      "stateMutability": "view",
      "type": "function",
      "constant": true
    },
    {
      "inputs": [
        {
          "internalType": "uint256",
          "name": "idx",
          "type": "uint256"
        }
      ],
      "name": "getDokterByIndex",
      "outputs": [
        {
          "internalType": "address",
          "name": "",
          "type": "address"
        }
      ],
      "stateMutability": "view",
      "type": "function",
      "constant": true
    },
    {
      "inputs": [
        {
          "internalType": "address",
          "name": "_dokter",
          "type": "address"
        }
      ],
      "name": "getDokter",
      "outputs": [
        {
          "internalType": "string",
          "name": "nama",
          "type": "string"
        },
        {
          "internalType": "string",
          "name": "spesialisasi",
          "type": "string"
        },
        {
          "internalType": "string",
          "name": "nomorLisensi",
          "type": "string"
        },
        {
          "internalType": "bool",
          "name": "aktif",
          "type": "bool"
        },
        {
          "internalType": "address[]",
          "name": "pasienList",
          "type": "address[]"
        },
        {
          "internalType": "address",
          "name": "adminRS",
          "type": "address"
        }
      ],
      "stateMutability": "view",
      "type": "function",
      "constant": true
    },
    {
      "inputs": [
        {
          "internalType": "address",
          "name": "_dokter",
          "type": "address"
        }
      ],
      "name": "getAssignedPatients",
      "outputs": [
        {
          "internalType": "address[]",
          "name": "",
          "type": "address[]"
        }
      ],
      "stateMutability": "view",
      "type": "function",
      "constant": true
    },
    {
      "inputs": [
        {
          "internalType": "address",
          "name": "_pasien",
          "type": "address"
        },
        {
          "internalType": "string",
          "name": "_nama",
          "type": "string"
        },
        {
          "internalType": "string",
          "name": "_IDPasien",
          "type": "string"
        },
        {
          "internalType": "address",
          "name": "_adminRS",
          "type": "address"
        }
      ],
      "name": "registerPasien",
      "outputs": [],
      "stateMutability": "nonpayable",
      "type": "function"
    },
    {
      "inputs": [
        {
          "internalType": "string",
          "name": "_nama",
          "type": "string"
        },
        {
          "internalType": "string",
          "name": "_IDPasien",
          "type": "string"
        },
        {
          "internalType": "string",
          "name": "_golonganDarah",
          "type": "string"
        },
        {
          "internalType": "string",
          "name": "_tanggalLahir",
          "type": "string"
        },
        {
          "internalType": "string",
          "name": "_gender",
          "type": "string"
        },
        {
          "internalType": "string",
          "name": "_alamat",
          "type": "string"
        },
        {
          "internalType": "string",
          "name": "_noTelepon",
          "type": "string"
        },
        {
          "internalType": "string",
          "name": "_email",
          "type": "string"
        },
        {
          "internalType": "address",
          "name": "_adminRS",
          "type": "address"
        }
      ],
      "name": "selfRegisterPasien",
      "outputs": [],
      "stateMutability": "nonpayable",
      "type": "function"
    },
    {
      "inputs": [
        {
          "internalType": "string",
          "name": "_nama",
          "type": "string"
        },
        {
          "internalType": "string",
          "name": "_golonganDarah",
          "type": "string"
        },
        {
          "internalType": "string",
          "name": "_tanggalLahir",
          "type": "string"
        },
        {
          "internalType": "string",
          "name": "_gender",
          "type": "string"
        },
        {
          "internalType": "string",
          "name": "_alamat",
          "type": "string"
        },
        {
          "internalType": "string",
          "name": "_noTelepon",
          "type": "string"
        },
        {
          "internalType": "string",
          "name": "_email",
          "type": "string"
        }
      ],
      "name": "updatePasienData",
      "outputs": [],
      "stateMutability": "nonpayable",
      "type": "function"
    },
    {
      "inputs": [
        {
          "internalType": "address",
          "name": "_newAdminRS",
          "type": "address"
        }
      ],
      "name": "updatePasienRumahSakit",
      "outputs": [],
      "stateMutability": "nonpayable",
      "type": "function"
    },
    {
      "inputs": [],
      "name": "getDaftarPasien",
      "outputs": [
        {
          "internalType": "address[]",
          "name": "",
          "type": "address[]"
        }
      ],
      "stateMutability": "view",
      "type": "function",
      "constant": true
    },
    {
      "inputs": [
        {
          "internalType": "address",
          "name": "_pasien",
          "type": "address"
        }
      ],
      "name": "getPasienData",
      "outputs": [
        {
          "internalType": "string",
          "name": "nama",
          "type": "string"
        },
        {
          "internalType": "string",
          "name": "ID",
          "type": "string"
        },
        {
          "internalType": "string",
          "name": "golonganDarah",
          "type": "string"
        },
        {
          "internalType": "string",
          "name": "tanggalLahir",
          "type": "string"
        },
        {
          "internalType": "string",
          "name": "gender",
          "type": "string"
        },
        {
          "internalType": "string",
          "name": "alamat",
          "type": "string"
        },
        {
          "internalType": "string",
          "name": "noTelepon",
          "type": "string"
        },
        {
          "internalType": "string",
          "name": "email",
          "type": "string"
        },
        {
          "internalType": "address",
          "name": "rumahSakitPenanggungJawab",
          "type": "address"
        }
      ],
      "stateMutability": "view",
      "type": "function",
      "constant": true
    },
    {
      "inputs": [
        {
          "internalType": "address",
          "name": "_dokter",
          "type": "address"
        },
        {
          "internalType": "address",
          "name": "_pasien",
          "type": "address"
        }
      ],
      "name": "assignPasienToDokter",
      "outputs": [],
      "stateMutability": "nonpayable",
      "type": "function"
    },
    {
      "inputs": [
        {
          "internalType": "address",
          "name": "_dokter",
          "type": "address"
        },
        {
          "internalType": "address",
          "name": "_pasien",
          "type": "address"
        }
      ],
      "name": "unassignPasienFromDokter",
      "outputs": [],
      "stateMutability": "nonpayable",
      "type": "function"
    },
    {
      "inputs": [
        {
          "internalType": "address",
          "name": "_pasien",
          "type": "address"
        },
        {
          "internalType": "string",
          "name": "_diagnosa",
          "type": "string"
        },
        {
          "internalType": "string",
          "name": "_foto",
          "type": "string"
        },
        {
          "internalType": "string",
          "name": "_catatan",
          "type": "string"
        },
        {
          "internalType": "string",
          "name": "_tipeRekamMedis",
          "type": "string"
        }
      ],
      "name": "tambahRekamMedis",
      "outputs": [],
      "stateMutability": "nonpayable",
      "type": "function"
    },
    {
      "inputs": [
        {
          "internalType": "address",
          "name": "_pasien",
          "type": "address"
        }
      ],
      "name": "getRekamMedisIdsByPasien",
      "outputs": [
        {
          "internalType": "uint256[]",
          "name": "",
          "type": "uint256[]"
        }
      ],
      "stateMutability": "view",
      "type": "function",
      "constant": true
    },
    {
      "inputs": [
        {
          "internalType": "uint256",
          "name": "_id",
          "type": "uint256"
        }
      ],
      "name": "getRekamMedis",
      "outputs": [
        {
          "internalType": "uint256",
          "name": "id",
          "type": "uint256"
        },
        {
          "internalType": "address",
          "name": "pasien",
          "type": "address"
        },
        {
          "internalType": "string",
          "name": "diagnosa",
          "type": "string"
        },
        {
          "internalType": "string",
          "name": "foto",
          "type": "string"
        },
        {
          "internalType": "string",
          "name": "catatan",
          "type": "string"
        },
        {
          "internalType": "address",
          "name": "pembuat",
          "type": "address"
        },
        {
          "internalType": "uint256",
          "name": "timestampPembuatan",
          "type": "uint256"
        },
        {
          "internalType": "string",
          "name": "tipeRekamMedis",
          "type": "string"
        }
      ],
      "stateMutability": "view",
      "type": "function",
      "constant": true
    },
    {
      "inputs": [
        {
          "internalType": "address",
          "name": "_newAdmin",
          "type": "address"
        }
      ],
      "name": "setSuperAdmin",
      "outputs": [],
      "stateMutability": "nonpayable",
      "type": "function"
    },
    {
      "inputs": [
        {
          "internalType": "address",
          "name": "_user",
          "type": "address"
        }
      ],
      "name": "getUserRole",
      "outputs": [
        {
          "internalType": "string",
          "name": "",
          "type": "string"
        }
      ],
      "stateMutability": "view",
      "type": "function",
      "constant": true
    }
  ],
  "bytecode": "0x6080806040523461003d57600080546001600160a01b03191673b0dc0bf642d339517438017fc185bb0f758a01d2179055615e8c9081620000438239f35b600080fdfe610180604052600436101561001357600080fd5b60003560e01c8062386196146145b6578062410cb31461455e57806301c268fe14613dea578063046bdbcc14613d7c578063050567d214613d505780631132beb514613d115780631570005214613c7557806319d9d3dd14613bf457806319e8f405146139355780632120e53f146138ca578063278208511461389257806329575f6a146138695780632e2dd1021461384b5780633bf76303146137d55780633cdd159114612cac5780633da0551814612bc65780633fd83089146125f657806342699651146125cd57806347960cb5146124f957806351887b67146124645780635c4c934814612425578063610a852614611d4b578063623785c114611cdd57806364319e3314611cbf5780636837008714611c64578063786f3fbe14611bbb5780637d3e9db814611b9d5780638e9c9198146115ab578063911b633a1461156957806392fa9240146113d9578063932e0f6d146112f85780639c44bed9146112b9578063a665102c146111f7578063abf72abb14611176578063b75de7a814610d35578063c0664b7e14610cc6578063c3c0fdea14610c19578063c967ede814610b4c578063ddbd24d31461056c578063e29993a5146102825763f2ab4a99146101de57600080fd5b3461027d5760207fd2e4d0240eabf0011425eb3fffbc4f311cd4b564ba547aba4b3163fd046f6a9761020f36615658565b6000549093916001600160a01b039161022b90831633146156fb565b1692836000526001825261024d6102466040600020546153cf565b1515615891565b83600052600182526102728160016040600020019060ff801983541691151516179055565b6040519015158152a2005b600080fd5b3461027d57604036600319011261027d5761029b61510d565b6102a3615123565b336000526001916020928084526102be6040600020546153cf565b151580610553575b6102cf906159b8565b60018060a01b03908183169182600052600586526102f460ff60406000205416615a2a565b826000526004865261031133826005604060002001541614615a76565b808516806000526008875261032d60ff60406000205416615c35565b8060005260078752338260086040600020015416036104f657929190600092600052600487526004604060002001826000905b61040b575b505050509050156103b757604080516001600160a01b0392831681529290911660208301527f80b4d8d360eb6524bf34c2207f48a267b84469bad95c9e9540413349e9f416a59250819081015b0390a1005b60405162461bcd60e51b815260048101849052602660248201527f50617369656e20746964616b20646974756761736b616e206b6520646f6b7465604482015265391034b7349760d11b6064820152608490fd5b8154808210156104f05783908761042284866151ea565b939054600394851b1c16146104475750509461043f849596615c81565b909594610360565b94965094509092600019918282019182116104da5761047b8461046d61049a94886151ea565b905490891b1c1691866151ea565b90919082549060031b9160018060a01b03809116831b921b1916179055565b825480156104c45701926104ae84846151ea565b81939154921b1b19169055558085808080610365565b634e487b7160e01b600052603160045260246000fd5b634e487b7160e01b600052601160045260246000fd5b50610365565b60405162461bcd60e51b815260048101889052602f60248201527f50617369656e20696e6920746964616b2074657264616674617220646920727560448201526e36b0b41039b0b5b4ba1020b732309760891b6064820152608490fd5b503360009081528185526040902081015460ff166102c6565b3461027d5761057a36615687565b91949392903360005260016020526105966040600020546153cf565b151580610b2c575b6105a7906159b8565b6001600160a01b03871660009081526005602052604090205460ff16610ad4576001600160a01b03871660009081526008602052604090205460ff16610a69576001600160a01b03871660009081526005602052604090819020805460ff1916600117905551926106178461521e565b60008452604051968760c08101106001600160401b0360c08a0111176108a8576106669361065a9160c08a0160405261065136898b615275565b8a523691615275565b60208801523691615275565b60408501526001606085015260808401523360a084015260018060a01b038416600052600460205260406000209280518051906001600160401b0382116108a85781906106bd826106b789546153cf565b8961577b565b602090601f83116001146109fd576000926109f2575b50508160011b916000199060031b1c19161784555b60208101518051906001600160401b0382116108a857819061071a8261071160018a01546153cf565b60018a0161577b565b602090601f831160011461098057600092610975575b50508160011b916000199060031b1c19161760018501555b60408101518051906001600160401b0382116108a857819061077a8261077160028a01546153cf565b60028a0161577b565b602090601f8311600114610903576000926108f8575b50508160011b916000199060031b1c19161760028501555b6107c760608201511515600386019060ff801983541691151516179055565b60048401936080820151948551906001600160401b0382116108a857600160401b968783116108a85760209082548484558085106108db575b500190600052602060002060005b8381106108be57505050506005019060a0600180821b03910151166001600160601b0360a01b825416179055600654928310156108a85761087a8461047b8560017f5c9d12a5bfda65f31ab460df37935bfe7b6cfa6a3787bf1f99858ccc15dc92779701600655615166565b610891604051928392604084526040840191615824565b3360208301526001600160a01b03909416930390a2005b634e487b7160e01b600052604160045260246000fd5b82516001600160a01b03168183015560209092019160010161080e565b6108f2908460005285846000209182019101615764565b8a610800565b015190508780610790565b9250600287016000526020600020906000935b601f198416851061095a576001945083601f19811610610941575b505050811b0160028501556107a8565b015160001960f88460031b161c19169055878080610931565b81810151835560209485019460019093019290910190610916565b015190508780610730565b9250600187016000526020600020906000935b601f19841685106109d7576001945083601f198116106109be575b505050811b016001850155610748565b015160001960f88460031b161c191690558780806109ae565b81810151835560209485019460019093019290910190610993565b0151905087806106d3565b9250866000526020600020906000935b601f1984168510610a4e576001945083601f19811610610a35575b505050811b0184556106e8565b015160001960f88460031b161c19169055878080610a28565b81810151835560209485019460019093019290910190610a0d565b60405162461bcd60e51b815260206004820152603f60248201527f416c616d617420696e692074657264616674617220736562616761692070617360448201527f69656e2c20746964616b2062697361206d656e6a61646920646f6b7465722e006064820152608490fd5b60405162461bcd60e51b815260206004820152602a60248201527f416c616d617420696e692073756461682074657264616674617220736562616760448201526930b4903237b5ba32b91760b11b6064820152608490fd5b503360005260016020526105a760ff60016040600020015416905061059e565b3461027d5760208060031936011261027d576001600160a01b03610b6e61510d565b168060005260088252610b8860ff60406000205416615be9565b600052600c8152604060002060405190818382549182815201908192600052846000209060005b86828210610c05578686610bc582880383615254565b604051928392818401908285525180915260408401929160005b828110610bee57505050500390f35b835185528695509381019392810192600101610bdf565b835485529093019260019283019201610baf565b3461027d57602036600319011261027d57610c996001600160a01b0380610c3e61510d565b1660005260046020526040600020610c5581615409565b91610cb5610c6560018401615409565b91610ca7610c7560028601615409565b91600560ff600388015416960154169360405197889760a0895260a0890190615359565b908782036020890152615359565b908582036040870152615359565b911515606084015260808301520390f35b3461027d57602036600319011261027d576001600160a01b03610ce761510d565b16806000526005602052610d0260ff60406000205416615ada565b6000526004602052610d31610d1d6004604060002001615960565b60405191829160208352602083019061531c565b0390f35b3461027d57610d4336615687565b95949290939195336000526001602052610d616040600020546153cf565b151580611156575b610d72906159b8565b60018060a01b0391828716600052600560205260ff6040600020541615611107578287166000526004602052338360056040600020015416036110a857828716600052600460205260406000206001600160401b0385116108a857610de185610ddb83546153cf565b8361577b565b846000601f821160011461104257600091611037575b508560011b906000198760031b1c19161781555b6001600160401b0389116108a857610e3389610e2a60018401546153cf565b6001840161577b565b60009089601f8111600114610fc757600292600091610fbc575b508a60011b906000198c60031b1c19161760018201555b01976001600160401b0383116108a857610e8883610e828b546153cf565b8b61577b565b600098601f8411600114610f295791610f07918493610f1996957f4e15ca2ba26538cdb1e2f0d595a1ec96fe8fbb126404e0cc083426c33ccbdd959a9b9c600091610f1e575b508560011b906000198760031b1c19161790555b610ef960405198899860608a5260608a0191615824565b918783036020890152615824565b91848303604086015233981696615824565b0390a3005b90508b01358d610ece565b601f1984168160005260206000209060005b818110610fa4575091610f0793917f4e15ca2ba26538cdb1e2f0d595a1ec96fe8fbb126404e0cc083426c33ccbdd959a9b9c87610f199998979510610f8a575b5050600185811b019055610ee2565b8c0135600019600388901b60f8161c191690558c80610f7b565b8a8d0135835560209c8d019c60019093019201610f3b565b90508301358b610e4d565b506001810160005260206000206000925b601f198c16841061101f57600293508b601f19811610611005575b505060018a811b016001820155610e64565b84013560001960038d901b60f8161c191690558a80610ff3565b84810135825560209384019360019092019101610fd8565b90508601358a610df7565b60008381526020812092508790601f198216905b81811061108d575010611073575b5050600185811b018155610e0b565b870135600019600388901b60f8161c191690558980611064565b8a84013585556001909401936020938401938a935001611056565b60405162461bcd60e51b815260206004820152603160248201527f416e64612062756b616e2061646d696e2052532079616e672062657268616b206044820152703ab73a3ab5903237b5ba32b91034b7349760791b6064820152608490fd5b60405162461bcd60e51b815260206004820152602160248201527f446f6b74657220746964616b207465726461667461722064692073697374656d6044820152601760f91b6064820152608490fd5b50336000526001602052610d7260ff600160406000200154169050610d69565b3461027d57602036600319011261027d57600435600052600b60205260406000208054610d3160018060a01b0380600185015416936111b760028201615409565b916111c460038301615409565b906111d160048401615409565b90600584015416916111ea600760068601549501615409565b9460405198899889615544565b3461027d57602036600319011261027d576001600160a01b038061121961510d565b1680600052600860205261123460ff60406000205416615be9565b6000526007602052604060002090600882015416610d3161125483615409565b9161126160018501615409565b9361126e60028201615409565b9061127b60038201615409565b61128760048301615409565b61129360058401615409565b916112ac60076112a560068701615409565b9501615409565b94604051998a998a6155b0565b3461027d57602060ff6112e2826112cf366152bb565b81604051938285809451938492016152f9565b8101600281520301902054166040519015158152f35b3461027d577f3dcd68c14f5f191f12b3b56bf35d5d7eb22447e9ec685290967b4558822ca98a61132736615658565b91909133600052602090600182526113436040600020546153cf565b1515806113ba575b611354906159b8565b61139560018060a01b0380951694856000526005845261137b60ff60406000205416615a2a565b856000526004845233906005604060002001541614615a76565b83600052600482526102728160036040600020019060ff801983541691151516179055565b50336000526001825261135460ff60016040600020015416905061134b565b3461027d5760208060031936011261027d576113f361510d565b336000526008825261140c60ff60406000205416615be9565b60018060a01b039081811691826000526001845260ff600160406000200154161561150d573360005260078452828160086040600020015416146114b757336000818152600790955260409485902060080180546001600160a01b03198116909517905584516001600160a01b03929094168216845291166020830152917f3457f52cd7f93503903afd272e58438c52a23561e74eddba2144dc53d7af0e449190819081015b0390a2005b60405162461bcd60e51b815260048101859052602860248201527f416e6461207375646168207465726461667461722064692072756d616820736160448201526735b4ba1034b7349760c11b6064820152608490fd5b60405162461bcd60e51b815260048101859052602e60248201527f52756d61682053616b6974206261727520746964616b20616b7469662061746160448201526d3a903a34b230b5903b30b634b21760911b6064820152608490fd5b3461027d57602036600319011261027d5760043560035481101561027d576115926020916151b3565b905460405160039290921b1c6001600160a01b03168152f35b3461027d576115b9366154af565b9260018060a09a979698999a9493941b03966115da886000541633146156fb565b87871660005260016020526115f36040600020546153cf565b611b44578815611af3578415611aae5760ff6040518686823760208188810160028152030190205416611a58576040518060a08101106001600160401b0360a0830111176108a85760a0810160405261164d368b8d615275565b815260016020820152611661368389615275565b6040820152611671368585615275565b6060820152611681368787615275565b6080820152888816600052600160205260406000209080518051906001600160401b0382116108a85781906116c0826116ba87546153cf565b8761577b565b602090601f83116001146119f2576000926119e7575b50508160011b916000199060031b1c19161782555b61170a60208201511515600184019060ff801983541691151516179055565b604081015180516001600160401b0381116108a8578060028501926117398261173386546153cf565b8661577b565b602090601f831160011461198157600092611976575b50508160011b916000199060031b1c19161790555b606081015180516001600160401b0381116108a85760038401916117928261178c85546153cf565b8561577b565b602090601f831160011461190a57608094939291600091836118ff575b50508160011b916000199060031b1c19161790555b0151908151906001600160401b0382116108a8576004829101926117ec8261173386546153cf565b602090601f83116001146118995760009261188e575b50508160011b916000199060031b1c19161790555b60035495600160401b8710156108a8577f705805f9c18a9381be07edab4bcec28612355cb4fbde7b07f1fd23fee18aada8996118608961047b8a60016114b29c016003556151b3565b604051878782376020818981016002815203019020600160ff19825416179055604051998a99169b89615845565b015190508d80611802565b6000858152602081209350601f198516905b8181106118e757509084600195949392106118ce575b505050811b019055611817565b015160001960f88460031b161c191690558d80806118c1565b929360206001819287860151815501950193016118ab565b0151905038806117af565b90601f198316918460005260206000209260005b81811061195e575091600193918560809897969410611945575b505050811b0190556117c4565b015160001960f88460031b161c19169055388080611938565b9293602060018192878601518155019501930161191e565b015190508f8061174f565b6000858152602081209350601f198516905b8181106119cf57509084600195949392106119b6575b505050811b019055611764565b015160001960f88460031b161c191690558f80806119a9565b92936020600181928786015181550195019301611993565b015190508e806116d6565b6000868152602081209350601f198516905b818110611a405750908460019594939210611a27575b505050811b0182556116eb565b015160001960f88460031b161c191690558e8080611a1a565b92936020600181928786015181550195019301611a04565b60405162461bcd60e51b815260206004820152602860248201527f4944525320737564616820646967756e616b616e206f6c65682041646d696e206044820152672929903630b4b71760c11b6064820152608490fd5b60405162461bcd60e51b815260206004820152601860248201527f4944525320746964616b20626f6c6568206b6f736f6e672e00000000000000006044820152606490fd5b60405162461bcd60e51b8152602060048201526024808201527f4e616d612052756d61682053616b697420746964616b20626f6c6568206b6f7360448201526337b7339760e11b6064820152608490fd5b60405162461bcd60e51b815260206004820152602b60248201527f41646d696e205253207375646168207465726461667461722064656e67616e2060448201526a30b630b6b0ba1034b7349760a91b6064820152608490fd5b3461027d57600036600319011261027d576020600654604051908152f35b3461027d57602036600319011261027d576001600160a01b0380611bdd61510d565b166000526007602052604060002090610d31611bf883615409565b91611c0560018501615409565b93611c1260028201615409565b91611c1f60038301615409565b611c2b60048401615409565b611c3760058501615409565b91611c4460068601615409565b936008611c5360078801615409565b9601541695604051998a998a6155b0565b3461027d57602036600319011261027d57600435600a5481101561027d57600a6000527fc65a7bb8d6351c1cf70c95a316cc6a92839c986682d98bc35f958f4883f9d2a801546040516001600160a01b039091168152602090f35b3461027d57600036600319011261027d576020600354604051908152f35b3461027d57602036600319011261027d57600435600354811015611d06576115926020916151b3565b60405162461bcd60e51b815260206004820152601c60248201527f496e64656b732061646d696e20525320746964616b2076616c69642e000000006044820152606490fd5b3461027d57611d59366154af565b94919293909596600060018060a01b038a1633148061240d575b1561235b575060015b156122f0576001600160a01b038916600090815260086020526040902054611da69060ff16615c35565b611db1600d54615c81565b9788600d55604051806101008101106001600160401b03610100830111176108a85761010081016040528981526001600160a01b038b166020820152611df8368385615275565b6040820152611e08368587615275565b6060820152611e18368789615275565b60808201523360a08201524260c0820152611e3436898b615275565b60e082015289600052600b602052604060002090805182556001820160018060a01b036020830151166001600160601b0360a01b82541617905560408101518051906001600160401b0382116108a8578190611ea082611e9760028801546153cf565b6002880161577b565b602090601f831160011461227e57600092612273575b50508160011b916000199060031b1c19161760028301555b60608101518051906001600160401b0382116108a8578190611f0082611ef760038801546153cf565b6003880161577b565b602090601f8311600114612201576000926121f6575b50508160011b916000199060031b1c19161760038301555b60808101518051906001600160401b0382116108a857611f5e82611f5560048701546153cf565b6004870161577b565b602090601f83116001146121835760e093929160009183612178575b50508160011b916000199060031b1c19161760048401555b6005830160018060a01b0360a0830151166001600160601b0360a01b82541617905560c0810151600684015501518051906001600160401b0382116108a857611feb82611fe260078601546153cf565b6007860161577b565b602090601f83116001146121085760079291600091836120fd575b50508160011b916000199060031b1c1916179101555b6001600160a01b038a166000908152600c602052604090208054600160401b8110156108a857600181018255612051916151ea565b81549060031b908b821b91600019901b1916179055604051998a998a52600160a01b600190031660208a015260408901610100905261010089019061209592615824565b9087820360608901526120a792615824565b9085820360808701526120b992615824565b9083820360a08501526120cb92615824565b3360c08301524260e0830152037f6530349a6e8f9162290f6de52adc987794b9dcf2b88018454bede841bcf8c28291a1005b015190508e80612006565b906007840160005260206000209160005b601f19851681106121605750918391600193600795601f19811610612147575b505050811b0191015561201c565b015160001960f88460031b161c191690558e8080612139565b91926020600181928685015181550194019201612119565b015190508f80611f7a565b906004850160005260206000209160005b601f19851681106121de575091839160019360e09695601f198116106121c5575b505050811b016004840155611f92565b015160001960f88460031b161c191690558f80806121b5565b91926020600181928685015181550194019201612194565b015190508e80611f16565b9250600385016000526020600020906000935b601f1984168510612258576001945083601f1981161061223f575b505050811b016003830155611f2e565b015160001960f88460031b161c191690558e808061222f565b81810151835560209485019460019093019290910190612214565b015190508e80611eb6565b9250600285016000526020600020906000935b601f19841685106122d5576001945083601f198116106122bc575b505050811b016002830155611ece565b015160001960f88460031b161c191690558e80806122ac565b81810151835560209485019460019093019290910190612291565b60405162461bcd60e51b815260206004820152603960248201527f416b746f7220746964616b2062657268616b206d656e616d6261682072656b6160448201527f6d206d6564697320756e74756b2070617369656e20696e692e000000000000006064820152608490fd5b33600052600560205260ff60406000205416806123f6575b15611d7c576001600160a01b038a1660009081526008602052604090205460ff16806123bd575b806123ad575b15611d7c57506001611d7c565b506123b88a33615c90565b6123a0565b50336000908152600460209081526040808320600501546001600160a01b038e811685526007909352922060080154811691161461239a565b50600460205260ff60036040600020015416612373565b5033600052600860205260ff60406000205416611d73565b3461027d57602036600319011261027d576001600160a01b0361244661510d565b166000526005602052602060ff604060002054166040519015158152f35b3461027d57600036600319011261027d5760405180600a54808252826020809301600a6000527fc65a7bb8d6351c1cf70c95a316cc6a92839c986682d98bc35f958f4883f9d2a89260005b858282106124da575050506124c692500383615254565b610d3160405192828493845283019061531c565b85546001600160a01b03168452600195860195889550930192016124af565b3461027d57602036600319011261027d576004356000818152600b60205260409020600101546001600160a01b03919082161561258857600052600b6020526040600020610d31815491836001820154169360058201541660068201549061256360028401615409565b9261257060038201615409565b6111ea600761258160048501615409565b9301615409565b60405162461bcd60e51b815260206004820152601c60248201527f52656b616d206d6564697320746964616b20646974656d756b616e2e000000006044820152606490fd5b3461027d57602036600319011261027d5760043560065481101561027d57611592602091615166565b3461027d57612604366154af565b979460018060a09693969594951b0396612623886000541633146156fb565b878716600052600160205261263f6102466040600020546153cf565b8015612b6f578915612b2a5787871660005260016020526004604060002001604051612681816126736020820180956158dd565b03601f198101835282615254565b5190208a6040516126a960208281810194808d87378101600083820152038084520182615254565b51902003612a33575b878716600052600160205260406000206001600160401b0382116108a8576126de82610ddb83546153cf565b816000601f82116001146129cc576000916129c1575b508260011b906000198460031b1c19161781555b6001600160401b0384116108a8576127308461272760028401546153cf565b6002840161577b565b836000601f821160011461295357600091612948575b508460011b906000198660031b1c19161760028201555b6001600160401b0386116108a85760038101906127848761277e84546153cf565b8461577b565b60009187601f81116001146128de576004936000916128d3575b508860011b906000198a60031b1c19161790555b016001600160401b038b116108a8576127cf8b610ddb83546153cf565b6000601f8c1160011461284057916114b2979593918c7ff68ff1fa009966863b83cbda346b0b08fef5e65659e2c5538afce393cd565b5b9c9d989694600091612835575b508860011b906000198a60031b1c19161790555b604051998a99169b89615845565b90508701358e612813565b601f198c16908260005260206000209160005b8181106128bb5750916114b299979593918e7ff68ff1fa009966863b83cbda346b0b08fef5e65659e2c5538afce393cd565b5b9e9f9a989694106128a1575b5050600188811b019055612827565b88013560001960038b901b60f8161c191690558d80612892565b9192602060018192868e013581550194019201612853565b90508701358e61279e565b508060005260206000206000935b601f198a168510612930576004945089601f19811610612916575b5050600188811b0190556127b2565b88013560001960038b901b60f8161c191690558d80612907565b888101358255602094850194600190920191016128ec565b90508301358c612746565b90506002820160005260206000209060005b601f19871681106129a9575085601f1981161061298f575b5050600184811b01600282015561275d565b840135600019600387901b60f8161c191690558b8061297d565b90916020600181928589013581550193019101612965565b90508a01358c6126f4565b60008381526020812092505b8c601f1986168210612a1b57505083601f19811610612a01575b5050600182811b018155612708565b8b0135600019600385901b60f8161c191690558b806129f2565b600183946020939484930135815501930191016129d8565b60ff6040518b8882376020818d810160028152030190205416612acf578787166000526001602052612a6c6004604060002001546153cf565b612a96575b6040518a8782376020818c81016002815203019020600160ff198254161790556126b2565b8787166000526001602052612aba60206004604060002001604051928380926158dd565b6002815203019020805460ff19169055612a71565b60405162461bcd60e51b815260206004820152602d60248201527f49445253206261727520737564616820646967756e616b616e206f6c6568204160448201526c3236b4b7102929903630b4b71760991b6064820152608490fd5b60405162461bcd60e51b815260206004820152601d60248201527f49445253206261727520746964616b20626f6c6568206b6f736f6e672e0000006044820152606490fd5b60405162461bcd60e51b815260206004820152602960248201527f4e616d612052756d61682053616b6974206261727520746964616b20626f6c65604482015268341035b7b9b7b7339760b91b6064820152608490fd5b3461027d57602036600319011261027d57612c716001600160a01b0380612beb61510d565b16806000526005602052612c0660ff60406000205416615ada565b6000526004602052604060002090612ca260ff6003840154169160058401541691612c3084615409565b93612c8d612c4060018301615409565b91612c7f612c5c6004612c5560028501615409565b9301615960565b93604051998a9960c08b5260c08b0190615359565b9089820360208b0152615359565b908782036040890152615359565b9115156060860152848203608086015261531c565b9060a08301520390f35b3461027d5761012036600319011261027d576004356001600160401b03811161027d57612cdd903690600401615139565b608052610120526024356001600160401b03811161027d57612d03903690600401615139565b61016052610100526044356001600160401b03811161027d57612d2a903690600401615139565b6064356001600160401b03811161027d57612d49903690600401615139565b906084356001600160401b03811161027d57612d69903690600401615139565b93909260a4356001600160401b03811161027d57612d8b903690600401615139565b919060c4356001600160401b03811161027d57612dac903690600401615139565b93909460e4356001600160401b03811161027d57612dce903690600401615139565b9099909890610104356001600160a01b038116900361027d5733600052600860205260ff604060002054166137845733600052600560205260ff6040600020541661373357612e21610160511515615b26565b612e4c60ff604051610160516101005182376020816101605181016009815203019020541615615b72565b60018060a01b036101043516600052600160205260ff60016040600020015416156136cf57612ef4612f2199612f1297612ee5612f309f612f03973360005260086020526040600020600160ff19825416179055612eb06040518061014052615202565b612ec03660805161012051615275565b6101405152612ed6366101605161010051615275565b60206101405101523691615275565b60406101405101523691615275565b60606101405101523691615275565b60806101405101523691615275565b60a06101405101523691615275565b60c06101405101523691615275565b60e061014051015260018060a01b036101043516610100610140510152336000526007602052604060002061014051519081516001600160401b0381116108a857612f7f8161277e84546153cf565b6020601f821160011461366a5781929360009261365f575b50508160011b916000199060031b1c19161781555b60206101405101518051906001600160401b0382116108a8578190612fe182612fd860018701546153cf565b6001870161577b565b602090601f83116001146135ed576000926135e2575b50508160011b916000199060031b1c19161760018201555b60406101405101518051906001600160401b0382116108a85781906130448261303b60028701546153cf565b6002870161577b565b602090601f831160011461357057600092613565575b50508160011b916000199060031b1c19161760028201555b60606101405101518051906001600160401b0382116108a85781906130a78261309e60038701546153cf565b6003870161577b565b602090601f83116001146134f3576000926134e8575b50508160011b916000199060031b1c19161760038201555b60806101405101518051906001600160401b0382116108a857819061310182611f5560048701546153cf565b602090601f83116001146134765760009261346b575b50508160011b916000199060031b1c19161760048201555b60a06101405101518051906001600160401b0382116108a85781906131648261315b60058701546153cf565b6005870161577b565b602090601f83116001146133f9576000926133ee575b50508160011b916000199060031b1c19161760058201555b60c06101405101518051906001600160401b0382116108a85781906131c7826131be60068701546153cf565b6006870161577b565b602090601f831160011461337c57600092613371575b50508160011b916000199060031b1c19161760068201555b60e0610140510151908151916001600160401b0383116108a8576132298361322060078501546153cf565b6007850161577b565b602090601f84116001146132ff5760089391600091836132f4575b50508160011b916000199060031b1c19161760078201555b0160018060a01b03610100610140510151166001600160601b0360a01b825416179055613288336157c0565b604051610160516101005182376020816101605181016009815203019020600160ff198254161790556040517f34288a60ac94463b3bd2c594dc78c87cba02f1270cf853cee3a2912bf04372373391806114b26101043561016051610100516080516101205186615bbe565b015190508480613244565b906007830160005260206000209160005b601f19861681106133595750918491600193600896601f19811610613340575b505050811b01600782015561325c565b015160001960f88460031b161c19169055848080613330565b91926020600181928685015181550194019201613310565b0151905083806131dd565b9250600684016000526020600020906000935b601f19841685106133d3576001945083601f198116106133ba575b505050811b0160068201556131f5565b015160001960f88460031b161c191690558380806133aa565b8181015183556020948501946001909301929091019061338f565b01519050838061317a565b9250600584016000526020600020906000935b601f1984168510613450576001945083601f19811610613437575b505050811b016005820155613192565b015160001960f88460031b161c19169055838080613427565b8181015183556020948501946001909301929091019061340c565b015190508380613117565b9250600484016000526020600020906000935b601f19841685106134cd576001945083601f198116106134b4575b505050811b01600482015561312f565b015160001960f88460031b161c191690558380806134a4565b81810151835560209485019460019093019290910190613489565b0151905083806130bd565b9250600384016000526020600020906000935b601f198416851061354a576001945083601f19811610613531575b505050811b0160038201556130d5565b015160001960f88460031b161c19169055838080613521565b81810151835560209485019460019093019290910190613506565b01519050838061305a565b9250600284016000526020600020906000935b601f19841685106135c7576001945083601f198116106135ae575b505050811b016002820155613072565b015160001960f88460031b161c1916905583808061359e565b81810151835560209485019460019093019290910190613583565b015190508380612ff7565b9250600184016000526020600020906000935b601f1984168510613644576001945083601f1981161061362b575b505050811b01600182015561300f565b015160001960f88460031b161c1916905583808061361b565b81810151835560209485019460019093019290910190613600565b015190508380612f97565b82600052602060002090600094601f198416955b8681106136b7575083600195961061369e575b505050811b018155612fac565b015160001960f88460031b161c19169055838080613691565b9192602060018192868501518155019401920161367e565b60405162461bcd60e51b815260206004820152603660248201527f52756d61682053616b69742079616e6720646970696c696820746964616b206160448201527535ba34b31030ba30ba903a34b230b5903b30b634b21760511b6064820152608490fd5b60405162461bcd60e51b8152602060048201526024808201527f416c616d617420696e6920746572646166746172207365626167616920646f6b6044820152633a32b91760e11b6064820152608490fd5b60405162461bcd60e51b8152602060048201526024808201527f416e64612073756461682074657264616674617220736562616761692070617360448201526334b2b71760e11b6064820152608490fd5b3461027d57602036600319011261027d576001600160a01b036137f661510d565b166000526001602052604060002061380d81615409565b610d3160ff6001840154169261382560028201615409565b9061383e600461383760038401615409565b9201615409565b916040519586958661537e565b3461027d57600036600319011261027d576020600d54604051908152f35b3461027d57600036600319011261027d576000546040516001600160a01b039091168152602090f35b3461027d57602036600319011261027d57610d316138b66138b161510d565b615cf7565b604051918291602083526020830190615359565b3461027d57602036600319011261027d576001600160a01b036138eb61510d565b168060005260016020526139066102466040600020546153cf565b6000526001602052604060002060ff60018201541690610d3161392882615409565b9161382560028201615409565b3461027d57604036600319011261027d5761394e61510d565b613956615123565b3360005260019160208381526139706040600020546153cf565b151580613bdb575b613981906159b8565b60018060a01b03908183169081600052600581526139a660ff60406000205416615a2a565b81600052600481526139c333846005604060002001541614615a76565b8285169182600052600882526139e060ff60406000205416615c35565b82600052600782528360086040600020015416338114908115613bd2575b5015613b4f5782600052600782526008604060002001805485811615613b3a575b50506000908152600480835260408220018054949093825b868110613b06575b505050613aaa5750600160401b8210156108a85761047b8285927fd9a2627959a7f46a8b96c10424cdae1f1b65151551cd206b119aca54c0a86a5a97613a87950181556151ea565b604080516001600160a01b039283168152929091166020830152819081016103b2565b6084906040519062461bcd60e51b82526004820152602f60248201527f50617369656e20696e6920737564616820646974756761736b616e206b65206460448201526e37b5ba32b9103a32b939b2b13aba1760891b6064820152fd5b8183613b1283896151ea565b90549060031b1c1614613b2d57613b2890615c81565b613a37565b5050505085878080613a3f565b6001600160a01b031916331790558780613a1f565b60405162461bcd60e51b815260048101839052604f60248201527f50617369656e20696e6920746964616b2074657264616674617220646920727560448201527f6d61682073616b697420416e646120617461752073756461682064692d61737360648201526e34b3b71035b2902929903630b4b71760891b608482015260a490fd5b905015886139fe565b503360009081528482526040902084015460ff16613978565b3461027d57600036600319011261027d576040518060035480825282602080930160036000527fc2575a0e9e593c00f959f8c92f12db2869c3395a3b0502d05e2516446f71f85b9260005b85828210613c56575050506124c692500383615254565b85546001600160a01b0316845260019586019588955093019201613c3f565b3461027d57602036600319011261027d57613c8e61510d565b600054906001600160a01b0390613ca833838516146156fb565b16908115613cc0576001600160a01b03191617600055005b60405162461bcd60e51b8152602060048201526024808201527f416c616d61742073757065722061646d696e206261727520746964616b2076616044820152633634b21760e11b6064820152608490fd5b3461027d57602036600319011261027d576001600160a01b03613d3261510d565b166000526008602052602060ff604060002054166040519015158152f35b3461027d57602060ff613d66826112cf366152bb565b8101600981520301902054166040519015158152f35b3461027d57602036600319011261027d57600435600654811015613da557611592602091615166565b60405162461bcd60e51b815260206004820152601a60248201527f496e64656b7320646f6b74657220746964616b2076616c69642e0000000000006044820152606490fd5b3461027d5760e036600319011261027d576004356001600160401b03811161027d57613e1a903690600401615139565b60a05260e0526024356001600160401b03811161027d57613e3f903690600401615139565b906044356001600160401b03811161027d57613e5f903690600401615139565b92906064356001600160401b03811161027d57613e80903690600401615139565b906084356001600160401b03811161027d57613ea0903690600401615139565b909160a4356001600160401b03811161027d57613ec1903690600401615139565b94909560c4356001600160401b03811161027d57613ee3903690600401615139565b60c09b919b52336000526008602052613f0360ff60406000205416615be9565b336000526007602052604060002060a0516001600160401b0381116108a857613f3090610ddb83546153cf565b600060a051601f81116001146144f35750600060a05191826144e6575b508160011b916000199060031b1c19161781555b6001600160401b038a116108a857613f808a61272760028401546153cf565b896000601f82116001146144785760009161446d575b508a60011b906000198c60031b1c19161760028201555b6001600160401b0382116108a85760038101613fcd83610ddb83546153cf565b826000601f8211600114614408576000916143fd575b508360011b906000198560031b1c19161790555b6001600160401b0384116108a85761401f8461401660048401546153cf565b6004840161577b565b836000601f821160011461438f57600091614384575b508460011b906000198660031b1c19161760048201555b6001600160401b0386116108a8576140748661406b60058401546153cf565b6005840161577b565b856000601f82116001146143165760009161430b575b508660011b906000198860031b1c19161760058201555b6001600160401b0388116108a8576140c9886140c060068401546153cf565b6006840161577b565b876000601f821160011461429b57600091614290575b508860011b906000198a60031b1c19161760068201555b60c0516001600160401b0381116108a8576141219061411860078401546153cf565b6007840161577b565b60c0518c60006001601f84111461421a576007925060009060c051928361420f575b50508160011b916000199060031b1c1916179101555b604051998a9960e08b5260e08b0160a0519060e0519161417892615824565b908b820360208d015261418a92615824565b9089820360408b015261419c92615824565b9087820360608901526141ae92615824565b9085820360808701526141c092615824565b9083820360a08501526141d292615824565b9281840360c0830152339360c0516141e992615824565b037f5bf1a01557f5d2a881b530f82df1618e3c06d1a0b7ab3be7ff74e54ead39bd3491a2005b013590508f8f614143565b9050600783016000528d60206000209160005b601f19851681106142755750918391600193600795601f1981161061425b575b505050811b01910155614159565b0135600019600384901b60f8161c191690558f8f8161424d565b91600182946020938493013581550193019101908f9161422d565b90508901358d6140df565b90506006820160005260206000209060005b8b601f198c1682106142f357505089601f198116106142d9575b5050600188811b0160068201556140f6565b8a013560001960038b901b60f8161c191690558c806142c7565b600183946020939484930135815501930191016142ad565b90508701358d61408a565b90506005820160005260206000209060005b601f198916811061436c575087601f19811610614352575b5050600186811b0160058201556140a1565b880135600019600389901b60f8161c191690558c80614340565b9091602060018192858d013581550193019101614328565b90508501358d614035565b90506004820160005260206000209060005b601f19871681106143e5575085601f198116106143cb575b5050600184811b01600482015561404c565b860135600019600387901b60f8161c191690558c806143b9565b9091602060018192858b0135815501930191016143a1565b90508401358e613fe3565b60008381526020812092505b601f1986168110614455575084601f1981161061443b575b5050600183811b019055613ff7565b850135600019600386901b60f8161c191690558d8061442c565b9091602060018192858a013581550193019101614414565b90508b01358d613f96565b8c91601f198116600285016000526020600020936000905b8282106144cb575050106144b1575b505060018a811b016002820155613fad565b8c013560001960038d901b60f8161c191690558c8061449f565b84013585556001909401936020938401938f9350018f614490565b905060e05101358e613f4d565b82600052602060002060009260e051905b601f1984168510614546576001945083601f1981161061452c575b505050811b018155613f61565b0135600019600384901b60f8161c191690558e808061451f565b81810135835560209485019460019093019201614504565b3461027d57604036600319011261027d5761457761510d565b6001600160a01b03166000908152600c602052604090208054602435919082101561027d576020916145a8916151ea565b90546040519160031b1c8152f35b3461027d57608036600319011261027d576145cf61510d565b6024356001600160401b03811161027d576145ee903690600401615139565b906044356001600160401b03811161027d5761460e903690600401615139565b9390916064356001600160a01b038116900361027d5733600052600160205261463b6040600020546153cf565b1515806150ed575b61464c906159b8565b6001600160a01b03821660009081526008602052604090205460ff16615096576001600160a01b03821660009081526005602052604090205460ff1661502b57614697851515615b26565b6146b960ff604051878682376020818981016009815203019020541615615b72565b60018060a01b0360643516600052600160205260ff6001604060002001541615614fdb576064356001600160a01b03163303614f65576001600160a01b03821660009081526008602052604090819020805460ff19166001179055519461471f86615202565b61472a368684615275565b8652614737368286615275565b60208701526040516147488161521e565b60008152604087015260405161475d8161521e565b6000815260608701526040516147728161521e565b6000815260808701526040516147878161521e565b6000815260a087015260405161479c8161521e565b6000815260c08701526040516147b18161521e565b600080825260e08801919091526001600160a01b0360643581166101008901528416815260076020526040902086518051919791906001600160401b0382116108a857819061480a826148048c546153cf565b8c61577b565b602090601f8311600114614ef957600092614eee575b50508160011b916000199060031b1c19161787555b60208101518051906001600160401b0382116108a85781906148678261485e60018d01546153cf565b60018d0161577b565b602090601f8311600114614e7c57600092614e71575b50508160011b916000199060031b1c19161760018801555b60408101518051906001600160401b0382116108a85781906148c7826148be60028d01546153cf565b60028d0161577b565b602090601f8311600114614dff57600092614df4575b50508160011b916000199060031b1c19161760028801555b60608101518051906001600160401b0382116108a85781906149278261491e60038d01546153cf565b60038d0161577b565b602090601f8311600114614d8257600092614d77575b50508160011b916000199060031b1c19161760038801555b60808101518051906001600160401b0382116108a85781906149878261497e60048d01546153cf565b60048d0161577b565b602090601f8311600114614d0557600092614cfa575b50508160011b916000199060031b1c19161760048801555b60a08101518051906001600160401b0382116108a85781906149e7826149de60058d01546153cf565b60058d0161577b565b602090601f8311600114614c8857600092614c7d575b50508160011b916000199060031b1c19161760058801555b60c08101518051906001600160401b0382116108a8578190614a4782614a3e60068d01546153cf565b60068d0161577b565b602090601f8311600114614c0b57600092614c00575b50508160011b916000199060031b1c19161760068801555b60e08101519687516001600160401b0381116108a857614a9c8161322060078501546153cf565b6020601f8211600114614b665791816008926114b2979695947f34288a60ac94463b3bd2c594dc78c87cba02f1270cf853cee3a2912bf04372379b9c600092614b5b575b50508160011b916000199060031b1c19161760078201555b019061010060018060a01b03910151166001600160601b0360a01b825416179055614b22846157c0565b604051818682376020818381016009815203019020600160ff1982541617905560405194859460018060a01b0316976064359386615bbe565b015190508c80614ae0565b6007830160005260206000209960005b601f1984168110614be85750827f34288a60ac94463b3bd2c594dc78c87cba02f1270cf853cee3a2912bf04372379a9b6114b29897969593600193600896601f19811610614bcf575b505050811b016007820155614af8565b015160001960f88460031b161c191690558c8080614bbf565b828201518c556001909b019a60209283019201614b76565b015190508980614a5d565b925060068a016000526020600020906000935b601f1984168510614c62576001945083601f19811610614c49575b505050811b016006880155614a75565b015160001960f88460031b161c19169055898080614c39565b81810151835560209485019460019093019290910190614c1e565b0151905089806149fd565b925060058a016000526020600020906000935b601f1984168510614cdf576001945083601f19811610614cc6575b505050811b016005880155614a15565b015160001960f88460031b161c19169055898080614cb6565b81810151835560209485019460019093019290910190614c9b565b01519050898061499d565b925060048a016000526020600020906000935b601f1984168510614d5c576001945083601f19811610614d43575b505050811b0160048801556149b5565b015160001960f88460031b161c19169055898080614d33565b81810151835560209485019460019093019290910190614d18565b01519050898061493d565b925060038a016000526020600020906000935b601f1984168510614dd9576001945083601f19811610614dc0575b505050811b016003880155614955565b015160001960f88460031b161c19169055898080614db0565b81810151835560209485019460019093019290910190614d95565b0151905089806148dd565b925060028a016000526020600020906000935b601f1984168510614e56576001945083601f19811610614e3d575b505050811b0160028801556148f5565b015160001960f88460031b161c19169055898080614e2d565b81810151835560209485019460019093019290910190614e12565b01519050898061487d565b925060018a016000526020600020906000935b601f1984168510614ed3576001945083601f19811610614eba575b505050811b016001880155614895565b015160001960f88460031b161c19169055898080614eaa565b81810151835560209485019460019093019290910190614e8f565b015190508980614820565b9250896000526020600020906000935b601f1984168510614f4a576001945083601f19811610614f31575b505050811b018755614835565b015160001960f88460031b161c19169055898080614f24565b81810151835560209485019460019093019290910190614f09565b60405162461bcd60e51b815260206004820152604260248201527f48616e79612061646d696e2052532070656e616e6767756e67206a617761622060448201527f79616e672062697361206d656e6461667461726b616e2070617369656e20696e606482015261349760f11b608482015260a490fd5b60405162461bcd60e51b815260206004820152602260248201527f41646d696e2052532079616e6720646972756a756b20746964616b20616b7469604482015261331760f11b6064820152608490fd5b60405162461bcd60e51b815260206004820152603f60248201527f416c616d617420696e6920746572646166746172207365626167616920646f6b60448201527f7465722c20746964616b2062697361206d656e6a6164692070617369656e2e006064820152608490fd5b60405162461bcd60e51b815260206004820152602960248201527f50617369656e207375646168207465726461667461722064656e67616e20616c60448201526830b6b0ba1034b7349760b91b6064820152608490fd5b5033600052600160205261464c60ff600160406000200154169050614643565b600435906001600160a01b038216820361027d57565b602435906001600160a01b038216820361027d57565b9181601f8401121561027d578235916001600160401b03831161027d576020838186019501011161027d57565b60065481101561519d5760066000527ff652222313e28459528d920b65115c16c04f3efc82aaedc97be59f3f377c0d3f0190600090565b634e487b7160e01b600052603260045260246000fd5b60035481101561519d5760036000527fc2575a0e9e593c00f959f8c92f12db2869c3395a3b0502d05e2516446f71f85b0190600090565b805482101561519d5760005260206000200190600090565b61012081019081106001600160401b038211176108a857604052565b602081019081106001600160401b038211176108a857604052565b604081019081106001600160401b038211176108a857604052565b90601f801991011681019081106001600160401b038211176108a857604052565b9291926001600160401b0382116108a8576040519161529e601f8201601f191660200184615254565b82948184528183011161027d578281602093846000960137010152565b602060031982011261027d57600435906001600160401b03821161027d578060238301121561027d578160246152f693600401359101615275565b90565b60005b83811061530c5750506000910152565b81810151838201526020016152fc565b90815180825260208080930193019160005b82811061533c575050505090565b83516001600160a01b03168552938101939281019260010161532e565b90602091615372815180928185528580860191016152f9565b601f01601f1916010190565b93906153c1926152f6969461539e6153b39360a0895260a0890190615359565b91151560208801528682036040880152615359565b908482036060860152615359565b916080818403910152615359565b90600182811c921680156153ff575b60208310146153e957565b634e487b7160e01b600052602260045260246000fd5b91607f16916153de565b906040519182600082549261541d846153cf565b90818452600194858116908160001461548c5750600114615449575b505061544792500383615254565b565b9093915060005260209081600020936000915b81831061547457505061544793508201013880615439565b8554888401850152948501948794509183019161545c565b91505061544794506020925060ff191682840152151560051b8201013880615439565b9060a060031983011261027d576004356001600160a01b038116810361027d57916001600160401b039060243582811161027d57816154f091600401615139565b9390939260443581811161027d578361550b91600401615139565b9390939260643583811161027d578261552691600401615139565b9390939260843591821161027d5761554091600401615139565b9091565b94906152f69896979461557b615597949561558993895260018060a01b0380971660208a01526101008060408b0152890190615359565b908782036060890152615359565b908582036080870152615359565b941660a083015260c082015260e0818403910152615359565b979461561e9061561061563a966156028c9d9e9d6101009c986155f461562c996155e66156489f9a610120808752860190615359565b908482036020860152615359565b916040818403910152615359565b8c810360608e015290615359565b908a820360808c0152615359565b9088820360a08a0152615359565b9086820360c0880152615359565b9084820360e0860152615359565b6001600160a01b03909416910152565b604090600319011261027d576004356001600160a01b038116810361027d5790602435801515810361027d5790565b608060031982011261027d576004356001600160a01b038116810361027d57916001600160401b0360243581811161027d57836156c691600401615139565b9390939260443583811161027d57826156e191600401615139565b9390939260643591821161027d5761554091600401615139565b1561570257565b60405162461bcd60e51b815260206004820152603460248201527f48616e79612073757065722061646d696e2079616e67206461706174206d656e6044820152733530b630b735b0b710333ab733b9b49034b7349760611b6064820152608490fd5b81811061576f575050565b60008155600101615764565b9190601f811161578a57505050565b615447926000526020600020906020601f840160051c830193106157b6575b601f0160051c0190615764565b90915081906157a9565b600a54600160401b8110156108a8576001810180600a5581101561519d57600a6000527fc65a7bb8d6351c1cf70c95a316cc6a92839c986682d98bc35f958f4883f9d2a80180546001600160a01b0319166001600160a01b03909216919091179055565b908060209392818452848401376000828201840152601f01601f1916010190565b96949261588394615867615875936152f69b999560808c5260808c0191615824565b9189830360208b0152615824565b918683036040880152615824565b926060818503910152615824565b1561589857565b60405162461bcd60e51b815260206004820152601960248201527f41646d696e20525320746964616b20646974656d756b616e2e000000000000006044820152606490fd5b6000929181546158ec816153cf565b926001918083169081156159455750600114615909575b50505050565b90919293945060005260209081600020906000915b8583106159345750505050019038808080615903565b80548584015291830191810161591e565b60ff1916845250505081151590910201915038808080615903565b9060405191828154918282526020928383019160005283600020936000905b8282106159955750505061544792500383615254565b85546001600160a01b03168452600195860195889550938101939091019061597f565b156159bf57565b60405162461bcd60e51b815260206004820152603c60248201527f48616e79612061646d696e2052532079616e6720616b7469662079616e67206460448201527f61706174206d656e6a616c616e6b616e2066756e67736920696e692e000000006064820152608490fd5b15615a3157565b60405162461bcd60e51b815260206004820152601760248201527f446f6b74657220746964616b207465726461667461722e0000000000000000006044820152606490fd5b15615a7d57565b60405162461bcd60e51b815260206004820152602f60248201527f446f6b74657220696e6920746964616b2074657264616674617220646920727560448201526e36b0b41039b0b5b4ba1020b732309760891b6064820152608490fd5b15615ae157565b60405162461bcd60e51b815260206004820152601760248201527f446f6b74657220746964616b20646974656d756b616e2e0000000000000000006044820152606490fd5b15615b2d57565b60405162461bcd60e51b815260206004820152601d60248201527f49442050617369656e20746964616b20626f6c6568206b6f736f6e672e0000006044820152606490fd5b15615b7957565b60405162461bcd60e51b815260206004820152601a60248201527f49442050617369656e20737564616820646967756e616b616e2e0000000000006044820152606490fd5b93615bdb6040949261564894989798606088526060880191615824565b918583036020870152615824565b15615bf057565b60405162461bcd60e51b815260206004820152601760248201527f50617369656e20746964616b20646974656d756b616e2e0000000000000000006044820152606490fd5b15615c3c57565b60405162461bcd60e51b815260206004820152601760248201527f50617369656e20746964616b207465726461667461722e0000000000000000006044820152606490fd5b60001981146104da5760010190565b6001600160a01b03908116600090815260046020819052604082200180549390915b848110615cc3575050505050600090565b83615cce82856151ea565b9190548185169260031b1c1614615ced57615ce890615c81565b615cb2565b5050505050600190565b600080546001600160a01b0392831692168214615e2e5781815260ff602092600184526040928391615d2b838320546153cf565b615ddc5780825260058652838383205416615d8e57815260088552205416615d6e57662ab735b737bbb760c91b905191615d6483615239565b6007835282015290565b652830b9b4b2b760d11b905191615d8483615239565b6006835282015290565b506004855220600301541615615db457652237b5ba32b960d11b905191615d8483615239565b6d24b730b1ba34bb32a237b5ba32b960911b905191615dd283615239565b600e835282015290565b8152600180865291902001541615615e05576641646d696e525360c81b905191615d6483615239565b6e496e61637469766541646d696e525360881b905191615e2483615239565b600f835282015290565b5050604051615e3c81615239565b600a81526929bab832b920b236b4b760b11b60208201529056fea2646970667358221220b26dae98ab0c62d14cce1ccbd7a31812e1eacc1fe497dd3604bc99378879738864736f6c63430008130033",
  "immutableReferences": {},
  "source": "// SPDX-License-Identifier: MIT\r\npragma solidity ^0.8.0;\r\n\r\ncontract RekamMedisRS {\r\n    address public superAdmin;\r\n\r\n    struct AdminRS {\r\n        string namaRumahSakit;\r\n        bool aktif;\r\n        string alamatRumahSakit;\r\n        string kota;\r\n        string IDRS; // ID unik Rumah Sakit\r\n    }\r\n    mapping(address => AdminRS) public dataAdmin;\r\n    mapping(string => bool) public isIDRSUsed; // Untuk memastikan IDRS unik\r\n    address[] public daftarAdmin;\r\n\r\n    struct Dokter {\r\n        string nama;\r\n        string spesialisasi;\r\n        string nomorLisensi;\r\n        bool aktif;\r\n        address[] assignedPasien;\r\n        address adminRS; // Rumah sakit tempat dokter bertugas (alamat AdminRS)\r\n    }\r\n    mapping(address => Dokter) public dataDokter;\r\n    mapping(address => bool) public isDokter;\r\n    address[] public daftarDokter;\r\n\r\n    // Modifikasi struct Pasien: Tambah ID, hapus exists (isPasien mapping sudah cukup)\r\n    struct Pasien {\r\n        string nama;\r\n        string ID; // <--- ATRIBUT BARU: ID unik Pasien\r\n        string golonganDarah;\r\n        string tanggalLahir;\r\n        string gender;\r\n        string alamat;\r\n        string noTelepon;\r\n        string email;\r\n        address rumahSakitPenanggungJawab; // Alamat AdminRS penanggung jawab\r\n        // bool exists; // DIHAPUS: isPasien mapping sudah menangani ini\r\n    }\r\n    mapping(address => Pasien) public dataPasien;\r\n    mapping(address => bool) public isPasien;\r\n    mapping(string => bool) public isPatientIDUsed; // <--- BARU: Untuk cek keunikan ID Pasien\r\n    address[] public daftarPasien;\r\n\r\n    // Modifikasi struct RekamMedisData: Hapus 'valid'\r\n    struct RekamMedisData {\r\n        uint id;\r\n        address pasien;\r\n        string diagnosa;\r\n        string foto;\r\n        string catatan;\r\n        // bool valid; // <--- DIHAPUS\r\n        address pembuat;\r\n        uint256 timestampPembuatan;\r\n        string tipeRekamMedis;\r\n    }\r\n    mapping(uint => RekamMedisData) public rekamMedis;\r\n    mapping(address => uint[]) public rekamMedisByPasien;\r\n    uint public rekamMedisCount;\r\n\r\n    // Events (dimodifikasi/ditambah)\r\n    event AdminRSTerdaftar(\r\n        address indexed admin,\r\n        string namaRumahSakit,\r\n        string alamatRumahSakit,\r\n        string kota,\r\n        string IDRS\r\n    );\r\n    event AdminRSStatusDiubah(address indexed admin, bool aktif);\r\n\r\n    event AdminRSInfoDiperbarui(\r\n        address indexed admin,\r\n        string namaRumahSakit,\r\n        string alamatRumahSakit,\r\n        string kota,\r\n        string IDRS\r\n    );\r\n\r\n    event DokterTerdaftar(address indexed dokter, string nama, address adminRS);\r\n    event DokterStatusDiubah(address indexed dokter, bool aktif);\r\n    event DokterInfoDiperbarui(\r\n        address indexed dokter,\r\n        string nama,\r\n        string spesialisasi,\r\n        string nomorLisensi,\r\n        address indexed adminRS\r\n    );\r\n    // Modifikasi event PasienTerdaftar: Tambah ID pasien\r\n    event PasienTerdaftar(\r\n        address indexed pasien,\r\n        string nama,\r\n        string IDPasien,\r\n        address adminRS\r\n    ); // <--- IDPasien BARU\r\n    event PasienPindahRS(\r\n        address indexed pasien,\r\n        address oldAdminRS,\r\n        address newAdminRS\r\n    );\r\n    event PasienDiassignKeDokter(address dokter, address pasien);\r\n    event PasienDiunassignDariDokter(address dokter, address pasien);\r\n\r\n    // Modifikasi event RekamMedisDitambahkan: Hapus 'valid'\r\n    event RekamMedisDitambahkan(\r\n        uint id,\r\n        address pasien,\r\n        string diagnosa,\r\n        string foto,\r\n        string catatan,\r\n        string tipeRekamMedis,\r\n        address pembuat,\r\n        uint timestamp\r\n        // bool valid // <--- DIHAPUS\r\n    );\r\n\r\n    event PasienDataDiperbarui(\r\n        address indexed pasien,\r\n        string nama,\r\n        string golonganDarah,\r\n        string tanggalLahir,\r\n        string gender,\r\n        string alamat,\r\n        string noTelepon,\r\n        string email\r\n    );\r\n\r\n    constructor() {\r\n        superAdmin = 0xB0dC0Bf642d339517438017Fc185Bb0f758A01D2;\r\n    }\r\n\r\n    // Modifier\r\n    modifier hanyaSuperAdmin() {\r\n        require(\r\n            msg.sender == superAdmin,\r\n            \"Hanya super admin yang dapat menjalankan fungsi ini.\"\r\n        );\r\n        _;\r\n    }\r\n\r\n    modifier hanyaAdminRS() {\r\n        require(\r\n            bytes(dataAdmin[msg.sender].namaRumahSakit).length > 0 &&\r\n                dataAdmin[msg.sender].aktif, // Pastikan admin RS terdaftar dan aktif\r\n            \"Hanya admin RS yang aktif yang dapat menjalankan fungsi ini.\"\r\n        );\r\n        _;\r\n    }\r\n\r\n    modifier hanyaDokterAktif() {\r\n        require(\r\n            isDokter[msg.sender] && dataDokter[msg.sender].aktif,\r\n            \"Hanya dokter yang aktif yang dapat menjalankan fungsi ini.\"\r\n        );\r\n        _;\r\n    }\r\n\r\n    modifier hanyaDokterAktifUntukPasien(address _pasien) {\r\n        require(\r\n            isDokter[msg.sender] && dataDokter[msg.sender].aktif,\r\n            \"Hanya dokter aktif.\"\r\n        );\r\n        require(isPasien[_pasien], \"Pasien tidak terdaftar.\"); // Ganti: Cek pasien exist via isPasien mapping\r\n        require(\r\n            dataDokter[msg.sender].adminRS ==\r\n                dataPasien[_pasien].rumahSakitPenanggungJawab,\r\n            \"Dokter dan pasien tidak berada di rumah sakit yang sama.\"\r\n        );\r\n        bool assigned = false;\r\n        address[] storage listPasienDitugaskan = dataDokter[msg.sender]\r\n            .assignedPasien;\r\n        for (uint i = 0; i < listPasienDitugaskan.length; i++) {\r\n            if (listPasienDitugaskan[i] == _pasien) {\r\n                assigned = true;\r\n                break;\r\n            }\r\n        }\r\n        require(\r\n            assigned,\r\n            \"Dokter ini tidak ditugaskan untuk menangani pasien tersebut.\"\r\n        );\r\n        _;\r\n    }\r\n\r\n    modifier hanyaPasien(address _pasien) {\r\n        require(\r\n            msg.sender == _pasien,\r\n            \"Hanya pasien yang bersangkutan yang dapat menjalankan fungsi ini.\"\r\n        );\r\n        _;\r\n    }\r\n\r\n    // --- Admin RS Functions ---\r\n\r\n    function registerAdminRS(\r\n        address _admin,\r\n        string calldata _namaRS,\r\n        string calldata _alamatRS,\r\n        string calldata _kotaRS,\r\n        string calldata _IDRS\r\n    ) external hanyaSuperAdmin {\r\n        require(\r\n            bytes(dataAdmin[_admin].namaRumahSakit).length == 0,\r\n            \"Admin RS sudah terdaftar dengan alamat ini.\"\r\n        );\r\n        require(\r\n            bytes(_namaRS).length > 0,\r\n            \"Nama Rumah Sakit tidak boleh kosong.\"\r\n        );\r\n        require(bytes(_IDRS).length > 0, \"IDRS tidak boleh kosong.\");\r\n        require(!isIDRSUsed[_IDRS], \"IDRS sudah digunakan oleh Admin RS lain.\");\r\n\r\n        dataAdmin[_admin] = AdminRS({\r\n            namaRumahSakit: _namaRS,\r\n            aktif: true,\r\n            alamatRumahSakit: _alamatRS,\r\n            kota: _kotaRS,\r\n            IDRS: _IDRS\r\n        });\r\n        daftarAdmin.push(_admin);\r\n        isIDRSUsed[_IDRS] = true;\r\n\r\n        emit AdminRSTerdaftar(_admin, _namaRS, _alamatRS, _kotaRS, _IDRS);\r\n    }\r\n\r\n    function updateAdminRSDetails(\r\n        address _admin,\r\n        string calldata _namaBaru,\r\n        string calldata _alamatBaru,\r\n        string calldata _kotaBaru,\r\n        string calldata _IDRSBaru\r\n    ) external hanyaSuperAdmin {\r\n        require(\r\n            bytes(dataAdmin[_admin].namaRumahSakit).length != 0,\r\n            \"Admin RS tidak ditemukan.\"\r\n        );\r\n        require(\r\n            bytes(_namaBaru).length > 0,\r\n            \"Nama Rumah Sakit baru tidak boleh kosong.\"\r\n        );\r\n        require(bytes(_IDRSBaru).length > 0, \"IDRS baru tidak boleh kosong.\");\r\n\r\n        if (\r\n            keccak256(abi.encodePacked(dataAdmin[_admin].IDRS)) !=\r\n            keccak256(abi.encodePacked(_IDRSBaru))\r\n        ) {\r\n            require(\r\n                !isIDRSUsed[_IDRSBaru],\r\n                \"IDRS baru sudah digunakan oleh Admin RS lain.\"\r\n            );\r\n            if (bytes(dataAdmin[_admin].IDRS).length > 0) {\r\n                isIDRSUsed[dataAdmin[_admin].IDRS] = false;\r\n            }\r\n            isIDRSUsed[_IDRSBaru] = true;\r\n        }\r\n\r\n        AdminRS storage adminToUpdate = dataAdmin[_admin];\r\n        adminToUpdate.namaRumahSakit = _namaBaru;\r\n        adminToUpdate.alamatRumahSakit = _alamatBaru;\r\n        adminToUpdate.kota = _kotaBaru;\r\n        adminToUpdate.IDRS = _IDRSBaru;\r\n\r\n        emit AdminRSInfoDiperbarui(\r\n            _admin,\r\n            _namaBaru,\r\n            _alamatBaru,\r\n            _kotaBaru,\r\n            _IDRSBaru\r\n        );\r\n    }\r\n\r\n    function setStatusAdminRS(\r\n        address _admin,\r\n        bool _aktif\r\n    ) external hanyaSuperAdmin {\r\n        require(\r\n            bytes(dataAdmin[_admin].namaRumahSakit).length != 0,\r\n            \"Admin RS tidak ditemukan.\"\r\n        );\r\n        dataAdmin[_admin].aktif = _aktif;\r\n        emit AdminRSStatusDiubah(_admin, _aktif);\r\n    }\r\n\r\n    function getAllAdminRSAddresses() external view returns (address[] memory) {\r\n        return daftarAdmin;\r\n    }\r\n\r\n    function totalAdmin() external view returns (uint) {\r\n        return daftarAdmin.length;\r\n    }\r\n\r\n    function getAdminByIndex(uint idx) external view returns (address) {\r\n        require(idx < daftarAdmin.length, \"Indeks admin RS tidak valid.\");\r\n        return daftarAdmin[idx];\r\n    }\r\n\r\n    function getAdminRS(\r\n        address _admin\r\n    )\r\n        external\r\n        view\r\n        returns (\r\n            string memory namaRumahSakit,\r\n            bool aktif,\r\n            string memory alamatRumahSakit,\r\n            string memory kota,\r\n            string memory IDRS\r\n        )\r\n    {\r\n        require(\r\n            bytes(dataAdmin[_admin].namaRumahSakit).length > 0,\r\n            \"Admin RS tidak ditemukan.\"\r\n        );\r\n        AdminRS storage adminData = dataAdmin[_admin];\r\n        return (\r\n            adminData.namaRumahSakit,\r\n            adminData.aktif,\r\n            adminData.alamatRumahSakit,\r\n            adminData.kota,\r\n            adminData.IDRS\r\n        );\r\n    }\r\n\r\n    // --- Dokter Functions ---\r\n    function registerDokter(\r\n        address _dokter,\r\n        string calldata _nama,\r\n        string calldata _spesialisasi,\r\n        string calldata _nomorLisensi\r\n    ) external hanyaAdminRS {\r\n        require(\r\n            !isDokter[_dokter],\r\n            \"Alamat ini sudah terdaftar sebagai dokter.\"\r\n        );\r\n        require(\r\n            !isPasien[_dokter],\r\n            \"Alamat ini terdaftar sebagai pasien, tidak bisa menjadi dokter.\"\r\n        );\r\n        isDokter[_dokter] = true;\r\n        dataDokter[_dokter] = Dokter({\r\n            nama: _nama,\r\n            spesialisasi: _spesialisasi,\r\n            nomorLisensi: _nomorLisensi,\r\n            aktif: true,\r\n            assignedPasien: new address[](0),\r\n            adminRS: msg.sender\r\n        });\r\n        daftarDokter.push(_dokter);\r\n        emit DokterTerdaftar(_dokter, _nama, msg.sender);\r\n    }\r\n\r\n    function updateDokterInfo(\r\n        address _dokter,\r\n        string calldata _namaBaru,\r\n        string calldata _spesialisasiBaru,\r\n        string calldata _nomorLisensiBaru\r\n    ) external hanyaAdminRS {\r\n        require(isDokter[_dokter], \"Dokter tidak terdaftar di sistem.\");\r\n        require(\r\n            dataDokter[_dokter].adminRS == msg.sender,\r\n            \"Anda bukan admin RS yang berhak untuk dokter ini.\"\r\n        );\r\n\r\n        Dokter storage dokterToUpdate = dataDokter[_dokter];\r\n        dokterToUpdate.nama = _namaBaru;\r\n        dokterToUpdate.spesialisasi = _spesialisasiBaru;\r\n        dokterToUpdate.nomorLisensi = _nomorLisensiBaru;\r\n\r\n        emit DokterInfoDiperbarui(\r\n            _dokter,\r\n            _namaBaru,\r\n            _spesialisasiBaru,\r\n            _nomorLisensiBaru,\r\n            msg.sender\r\n        );\r\n    }\r\n\r\n    function setStatusDokter(\r\n        address _dokter,\r\n        bool _aktif\r\n    ) external hanyaAdminRS {\r\n        require(isDokter[_dokter], \"Dokter tidak terdaftar.\");\r\n        require(\r\n            dataDokter[_dokter].adminRS == msg.sender,\r\n            \"Dokter ini tidak terdaftar di rumah sakit Anda.\"\r\n        );\r\n        dataDokter[_dokter].aktif = _aktif;\r\n        emit DokterStatusDiubah(_dokter, _aktif);\r\n    }\r\n\r\n    function totalDokter() external view returns (uint) {\r\n        return daftarDokter.length;\r\n    }\r\n\r\n    function getDokterByIndex(uint idx) external view returns (address) {\r\n        require(idx < daftarDokter.length, \"Indeks dokter tidak valid.\");\r\n        return daftarDokter[idx];\r\n    }\r\n\r\n    function getDokter(\r\n        address _dokter\r\n    )\r\n        external\r\n        view\r\n        returns (\r\n            string memory nama,\r\n            string memory spesialisasi,\r\n            string memory nomorLisensi,\r\n            bool aktif,\r\n            address[] memory pasienList,\r\n            address adminRS\r\n        )\r\n    {\r\n        require(isDokter[_dokter], \"Dokter tidak ditemukan.\");\r\n        Dokter storage d = dataDokter[_dokter];\r\n        return (\r\n            d.nama,\r\n            d.spesialisasi,\r\n            d.nomorLisensi,\r\n            d.aktif,\r\n            d.assignedPasien,\r\n            d.adminRS\r\n        );\r\n    }\r\n\r\n    function getAssignedPatients(\r\n        address _dokter\r\n    ) external view returns (address[] memory) {\r\n        require(isDokter[_dokter], \"Dokter tidak ditemukan.\");\r\n        return dataDokter[_dokter].assignedPasien;\r\n    }\r\n\r\n    // --- Pasien Functions ---\r\n\r\n    // Modifikasi registerPasien: Tambah ID pasien\r\n    function registerPasien(\r\n        address _pasien,\r\n        string calldata _nama,\r\n        string calldata _IDPasien, // <--- PARAMETER BARU: ID Pasien\r\n        address _adminRS\r\n    ) external hanyaAdminRS {\r\n        require(\r\n            !isPasien[_pasien],\r\n            \"Pasien sudah terdaftar dengan alamat ini.\"\r\n        );\r\n        require(\r\n            !isDokter[_pasien],\r\n            \"Alamat ini terdaftar sebagai dokter, tidak bisa menjadi pasien.\"\r\n        );\r\n        require(bytes(_IDPasien).length > 0, \"ID Pasien tidak boleh kosong.\");\r\n        require(!isPatientIDUsed[_IDPasien], \"ID Pasien sudah digunakan.\");\r\n\r\n        require(\r\n            dataAdmin[_adminRS].aktif,\r\n            \"Admin RS yang dirujuk tidak aktif.\"\r\n        );\r\n        require(\r\n            msg.sender == _adminRS,\r\n            \"Hanya admin RS penanggung jawab yang bisa mendaftarkan pasien ini.\"\r\n        );\r\n\r\n        isPasien[_pasien] = true;\r\n        dataPasien[_pasien] = Pasien({\r\n            nama: _nama,\r\n            ID: _IDPasien,\r\n            golonganDarah: \"\",\r\n            tanggalLahir: \"\",\r\n            gender: \"\",\r\n            alamat: \"\",\r\n            noTelepon: \"\",\r\n            email: \"\",\r\n            rumahSakitPenanggungJawab: _adminRS\r\n        });\r\n        daftarPasien.push(_pasien);\r\n        isPatientIDUsed[_IDPasien] = true;\r\n        emit PasienTerdaftar(_pasien, _nama, _IDPasien, _adminRS);\r\n    }\r\n\r\n    // Modifikasi selfRegisterPasien: Tambah ID pasien\r\n    function selfRegisterPasien(\r\n        string calldata _nama,\r\n        string calldata _IDPasien, // <--- PARAMETER BARU: ID Pasien\r\n        string calldata _golonganDarah,\r\n        string calldata _tanggalLahir,\r\n        string calldata _gender,\r\n        string calldata _alamat,\r\n        string calldata _noTelepon,\r\n        string calldata _email,\r\n        address _adminRS\r\n    ) external {\r\n        require(!isPasien[msg.sender], \"Anda sudah terdaftar sebagai pasien.\");\r\n        require(!isDokter[msg.sender], \"Alamat ini terdaftar sebagai dokter.\");\r\n        require(bytes(_IDPasien).length > 0, \"ID Pasien tidak boleh kosong.\");\r\n        require(!isPatientIDUsed[_IDPasien], \"ID Pasien sudah digunakan.\");\r\n        require(\r\n            dataAdmin[_adminRS].aktif,\r\n            \"Rumah Sakit yang dipilih tidak aktif atau tidak valid.\"\r\n        );\r\n\r\n        isPasien[msg.sender] = true;\r\n        dataPasien[msg.sender] = Pasien({\r\n            nama: _nama,\r\n            ID: _IDPasien,\r\n            golonganDarah: _golonganDarah,\r\n            tanggalLahir: _tanggalLahir,\r\n            gender: _gender,\r\n            alamat: _alamat,\r\n            noTelepon: _noTelepon,\r\n            email: _email,\r\n            rumahSakitPenanggungJawab: _adminRS\r\n        });\r\n        daftarPasien.push(msg.sender);\r\n        isPatientIDUsed[_IDPasien] = true;\r\n        emit PasienTerdaftar(msg.sender, _nama, _IDPasien, _adminRS);\r\n    }\r\n\r\n    function updatePasienData(\r\n        string calldata _nama,\r\n        string calldata _golonganDarah,\r\n        string calldata _tanggalLahir,\r\n        string calldata _gender,\r\n        string calldata _alamat,\r\n        string calldata _noTelepon,\r\n        string calldata _email\r\n    ) external hanyaPasien(msg.sender) {\r\n        require(isPasien[msg.sender], \"Pasien tidak ditemukan.\"); // Ganti: Cek pasien exist via isPasien mapping\r\n\r\n        Pasien storage pasienToUpdate = dataPasien[msg.sender];\r\n        pasienToUpdate.nama = _nama;\r\n        pasienToUpdate.golonganDarah = _golonganDarah;\r\n        pasienToUpdate.tanggalLahir = _tanggalLahir;\r\n        pasienToUpdate.gender = _gender;\r\n        pasienToUpdate.alamat = _alamat;\r\n        pasienToUpdate.noTelepon = _noTelepon;\r\n        pasienToUpdate.email = _email;\r\n\r\n        emit PasienDataDiperbarui(\r\n            msg.sender,\r\n            _nama,\r\n            _golonganDarah,\r\n            _tanggalLahir,\r\n            _gender,\r\n            _alamat,\r\n            _noTelepon,\r\n            _email\r\n        );\r\n    }\r\n\r\n    function updatePasienRumahSakit(\r\n        address _newAdminRS\r\n    ) external hanyaPasien(msg.sender) {\r\n        require(isPasien[msg.sender], \"Pasien tidak ditemukan.\"); // Ganti: Cek pasien exist via isPasien mapping\r\n        require(\r\n            dataAdmin[_newAdminRS].aktif,\r\n            \"Rumah Sakit baru tidak aktif atau tidak valid.\"\r\n        );\r\n        require(\r\n            dataPasien[msg.sender].rumahSakitPenanggungJawab != _newAdminRS,\r\n            \"Anda sudah terdaftar di rumah sakit ini.\"\r\n        );\r\n\r\n        address oldAdminRS = dataPasien[msg.sender].rumahSakitPenanggungJawab;\r\n        dataPasien[msg.sender].rumahSakitPenanggungJawab = _newAdminRS;\r\n\r\n        emit PasienPindahRS(msg.sender, oldAdminRS, _newAdminRS);\r\n    }\r\n\r\n    function getDaftarPasien() external view returns (address[] memory) {\r\n        return daftarPasien;\r\n    }\r\n\r\n    // Modifikasi getPasienData: Mengembalikan ID pasien\r\n    function getPasienData(\r\n        address _pasien\r\n    )\r\n        external\r\n        view\r\n        returns (\r\n            string memory nama,\r\n            string memory ID, // <--- BARU: return ID\r\n            string memory golonganDarah,\r\n            string memory tanggalLahir,\r\n            string memory gender,\r\n            string memory alamat,\r\n            string memory noTelepon,\r\n            string memory email,\r\n            address rumahSakitPenanggungJawab\r\n        )\r\n    {\r\n        require(isPasien[_pasien], \"Pasien tidak ditemukan.\");\r\n        Pasien storage p = dataPasien[_pasien];\r\n        return (\r\n            p.nama,\r\n            p.ID, // <--- Return ID\r\n            p.golonganDarah,\r\n            p.tanggalLahir,\r\n            p.gender,\r\n            p.alamat,\r\n            p.noTelepon,\r\n            p.email,\r\n            p.rumahSakitPenanggungJawab\r\n        );\r\n    }\r\n\r\n    function assignPasienToDokter(\r\n        address _dokter,\r\n        address _pasien\r\n    ) external hanyaAdminRS {\r\n        require(isDokter[_dokter], \"Dokter tidak terdaftar.\");\r\n        require(\r\n            dataDokter[_dokter].adminRS == msg.sender,\r\n            \"Dokter ini tidak terdaftar di rumah sakit Anda.\"\r\n        );\r\n        require(isPasien[_pasien], \"Pasien tidak terdaftar.\"); // Ganti: Cek pasien exist via isPasien mapping\r\n\r\n        require(\r\n            // Cek apakah pasien ini adalah tanggung jawab RS admin yang login, atau belum punya RS penanggung jawab\r\n            (dataPasien[_pasien].rumahSakitPenanggungJawab == msg.sender ||\r\n                dataPasien[_pasien].rumahSakitPenanggungJawab == address(0)),\r\n            \"Pasien ini tidak terdaftar di rumah sakit Anda atau sudah di-assign ke RS lain.\"\r\n        );\r\n\r\n        // Jika pasien belum punya RS penanggung jawab, assign sekarang\r\n        if (dataPasien[_pasien].rumahSakitPenanggungJawab == address(0)) {\r\n            dataPasien[_pasien].rumahSakitPenanggungJawab = msg.sender;\r\n        }\r\n\r\n        bool alreadyAssigned = false;\r\n        address[] storage listPasienDitugaskan = dataDokter[_dokter]\r\n            .assignedPasien;\r\n        for (uint i = 0; i < listPasienDitugaskan.length; i++) {\r\n            if (listPasienDitugaskan[i] == _pasien) {\r\n                alreadyAssigned = true;\r\n                break;\r\n            }\r\n        }\r\n        require(\r\n            !alreadyAssigned,\r\n            \"Pasien ini sudah ditugaskan ke dokter tersebut.\"\r\n        );\r\n\r\n        listPasienDitugaskan.push(_pasien);\r\n        emit PasienDiassignKeDokter(_dokter, _pasien);\r\n    }\r\n\r\n    function unassignPasienFromDokter(\r\n        address _dokter,\r\n        address _pasien\r\n    ) external hanyaAdminRS {\r\n        require(isDokter[_dokter], \"Dokter tidak terdaftar.\");\r\n        require(\r\n            dataDokter[_dokter].adminRS == msg.sender,\r\n            \"Dokter ini tidak terdaftar di rumah sakit Anda.\"\r\n        );\r\n        require(isPasien[_pasien], \"Pasien tidak terdaftar.\");\r\n        require(\r\n            dataPasien[_pasien].rumahSakitPenanggungJawab == msg.sender,\r\n            \"Pasien ini tidak terdaftar di rumah sakit Anda.\"\r\n        );\r\n\r\n        bool found = false;\r\n        address[] storage listPasienDitugaskan = dataDokter[_dokter]\r\n            .assignedPasien;\r\n        for (uint i = 0; i < listPasienDitugaskan.length; i++) {\r\n            if (listPasienDitugaskan[i] == _pasien) {\r\n                listPasienDitugaskan[i] = listPasienDitugaskan[\r\n                    listPasienDitugaskan.length - 1\r\n                ];\r\n                listPasienDitugaskan.pop();\r\n                found = true;\r\n                break;\r\n            }\r\n        }\r\n        require(found, \"Pasien tidak ditugaskan ke dokter ini.\");\r\n        emit PasienDiunassignDariDokter(_dokter, _pasien);\r\n    }\r\n\r\n    function isAssigned(\r\n        address _dokter,\r\n        address _pasien\r\n    ) internal view returns (bool) {\r\n        address[] storage list = dataDokter[_dokter].assignedPasien;\r\n        for (uint i = 0; i < list.length; i++) {\r\n            if (list[i] == _pasien) {\r\n                return true;\r\n            }\r\n        }\r\n        return false;\r\n    }\r\n\r\n    // --- Rekam Medis Functions ---\r\n    function tambahRekamMedis(\r\n        address _pasien,\r\n        string calldata _diagnosa,\r\n        string calldata _foto,\r\n        string calldata _catatan,\r\n        string calldata _tipeRekamMedis\r\n    ) external {\r\n        bool isValidActor = false;\r\n        if (msg.sender == _pasien && isPasien[msg.sender]) {\r\n            isValidActor = true;\r\n        } else if (isDokter[msg.sender] && dataDokter[msg.sender].aktif) {\r\n            if (\r\n                // Pastikan pasien terdaftar dan dokter berhak di RS yang sama dan ditugaskan\r\n                isPasien[_pasien] &&\r\n                dataDokter[msg.sender].adminRS ==\r\n                dataPasien[_pasien].rumahSakitPenanggungJawab &&\r\n                isAssigned(msg.sender, _pasien)\r\n            ) {\r\n                isValidActor = true;\r\n            }\r\n        }\r\n        require(\r\n            isValidActor,\r\n            \"Aktor tidak berhak menambah rekam medis untuk pasien ini.\"\r\n        );\r\n        require(isPasien[_pasien], \"Pasien tidak terdaftar.\"); // Cek pasien exist via isPasien mapping\r\n\r\n        rekamMedisCount++;\r\n        uint newId = rekamMedisCount;\r\n        rekamMedis[newId] = RekamMedisData({\r\n            id: newId,\r\n            pasien: _pasien,\r\n            diagnosa: _diagnosa,\r\n            foto: _foto,\r\n            catatan: _catatan,\r\n            pembuat: msg.sender,\r\n            timestampPembuatan: block.timestamp,\r\n            tipeRekamMedis: _tipeRekamMedis\r\n        });\r\n        rekamMedisByPasien[_pasien].push(newId);\r\n\r\n        emit RekamMedisDitambahkan(\r\n            newId,\r\n            _pasien,\r\n            _diagnosa,\r\n            _foto,\r\n            _catatan,\r\n            _tipeRekamMedis,\r\n            msg.sender,\r\n            block.timestamp\r\n        );\r\n    }\r\n\r\n    function getRekamMedisIdsByPasien(\r\n        address _pasien\r\n    ) external view returns (uint[] memory) {\r\n        require(isPasien[_pasien], \"Pasien tidak ditemukan.\");\r\n        return rekamMedisByPasien[_pasien];\r\n    }\r\n\r\n    // Modifikasi getRekamMedis: Hapus 'valid' dari return\r\n    function getRekamMedis(\r\n        uint _id\r\n    )\r\n        external\r\n        view\r\n        returns (\r\n            uint id,\r\n            address pasien,\r\n            string memory diagnosa,\r\n            string memory foto,\r\n            string memory catatan,\r\n            // bool valid, // <--- DIHAPUS\r\n            address pembuat,\r\n            uint256 timestampPembuatan,\r\n            string memory tipeRekamMedis\r\n        )\r\n    {\r\n        require(\r\n            rekamMedis[_id].pasien != address(0),\r\n            \"Rekam medis tidak ditemukan.\"\r\n        );\r\n        RekamMedisData storage r = rekamMedis[_id];\r\n        return (\r\n            r.id,\r\n            r.pasien,\r\n            r.diagnosa,\r\n            r.foto,\r\n            r.catatan,\r\n            // r.valid, // <--- DIHAPUS\r\n            r.pembuat,\r\n            r.timestampPembuatan,\r\n            r.tipeRekamMedis\r\n        );\r\n    }\r\n\r\n    // FUNGSI NONAKTIFKAN REKAM MEDIS DIHAPUS KARENA ATRIBUT VALID DIHAPUS\r\n\r\n    // --- Super Admin Functions ---\r\n    function setSuperAdmin(address _newAdmin) external hanyaSuperAdmin {\r\n        require(\r\n            _newAdmin != address(0),\r\n            \"Alamat super admin baru tidak valid.\"\r\n        );\r\n        superAdmin = _newAdmin;\r\n    }\r\n\r\n    // MODIFIKASI: Fungsi getUserRole untuk AdminRS dan Dokter non-aktif\r\n    function getUserRole(address _user) public view returns (string memory) {\r\n        if (_user == superAdmin) return \"SuperAdmin\";\r\n\r\n        // Cek apakah user adalah AdminRS TERDAFTAR terlebih dahulu\r\n        if (bytes(dataAdmin[_user].namaRumahSakit).length > 0) {\r\n            if (dataAdmin[_user].aktif) {\r\n                return \"AdminRS\"; // Admin RS Aktif\r\n            } else {\r\n                return \"InactiveAdminRS\"; // Admin RS Terdaftar tapi Non-aktif\r\n            }\r\n        }\r\n\r\n        // Cek apakah user adalah Dokter TERDAFTAR\r\n        if (isDokter[_user]) {\r\n            if (dataDokter[_user].aktif) {\r\n                return \"Dokter\"; // Dokter Aktif\r\n            } else {\r\n                return \"InactiveDokter\"; // Dokter Terdaftar tapi Non-aktif\r\n            }\r\n        }\r\n\r\n        // Kemudian cek role Pasien (Pasien dianggap selalu 'aktif' untuk validitas loginnya)\r\n        if (isPasien[_user]) return \"Pasien\";\r\n\r\n        return \"Unknown\"; // Role tidak dikenal\r\n    }\r\n}\r\n",
  "sourcePath": "D:\\TA\\rekam_medis_backend\\contracts\\RekamMedisRS.sol",
  "compiler": {
    "name": "solc",
    "version": "0.8.19+commit.7dd6d404.Emscripten.clang"
  },
  "schemaVersion": "3.4.16",
  "updatedAt": "2025-07-01T17:18:55.713Z",
  "networkType": "ethereum",
  "devdoc": {
    "kind": "dev",
    "methods": {},
    "version": 1
  },
  "userdoc": {
    "kind": "user",
    "methods": {},
    "version": 1
  }
}