{
  "contractName": "RekamMedis",
  "abi": [
    {
      "inputs": [],
      "stateMutability": "nonpayable",
      "type": "constructor"
    },
    {
      "anonymous": false,
      "inputs": [
        {
          "indexed": false,
          "internalType": "address",
          "name": "newAdmin",
          "type": "address"
        }
      ],
      "name": "AdminDitetapkan",
      "type": "event"
    },
    {
      "anonymous": false,
      "inputs": [
        {
          "indexed": false,
          "internalType": "uint256",
          "name": "id",
          "type": "uint256"
        },
        {
          "indexed": false,
          "internalType": "string",
          "name": "diagnosa",
          "type": "string"
        },
        {
          "indexed": false,
          "internalType": "string",
          "name": "catatan",
          "type": "string"
        }
      ],
      "name": "RekamMedisDiperbarui",
      "type": "event"
    },
    {
      "anonymous": false,
      "inputs": [
        {
          "indexed": false,
          "internalType": "uint256",
          "name": "id",
          "type": "uint256"
        },
        {
          "indexed": false,
          "internalType": "address",
          "name": "pasien",
          "type": "address"
        },
        {
          "indexed": false,
          "internalType": "string",
          "name": "diagnosa",
          "type": "string"
        },
        {
          "indexed": false,
          "internalType": "bool",
          "name": "valid",
          "type": "bool"
        }
      ],
      "name": "RekamMedisDitambahkan",
      "type": "event"
    },
    {
      "inputs": [],
      "name": "admin",
      "outputs": [
        {
          "internalType": "address",
          "name": "",
          "type": "address"
        }
      ],
      "stateMutability": "view",
      "type": "function",
      "constant": true
    },
    {
      "inputs": [
        {
          "internalType": "address",
          "name": "",
          "type": "address"
        }
      ],
      "name": "isDokter",
      "outputs": [
        {
          "internalType": "bool",
          "name": "",
          "type": "bool"
        }
      ],
      "stateMutability": "view",
      "type": "function",
      "constant": true
    },
    {
      "inputs": [
        {
          "internalType": "address",
          "name": "",
          "type": "address"
        }
      ],
      "name": "isPasien",
      "outputs": [
        {
          "internalType": "bool",
          "name": "",
          "type": "bool"
        }
      ],
      "stateMutability": "view",
      "type": "function",
      "constant": true
    },
    {
      "inputs": [
        {
          "internalType": "uint256",
          "name": "",
          "type": "uint256"
        }
      ],
      "name": "rekamMedis",
      "outputs": [
        {
          "internalType": "uint256",
          "name": "id",
          "type": "uint256"
        },
        {
          "internalType": "address",
          "name": "pasien",
          "type": "address"
        },
        {
          "internalType": "string",
          "name": "nama",
          "type": "string"
        },
        {
          "internalType": "uint256",
          "name": "umur",
          "type": "uint256"
        },
        {
          "internalType": "string",
          "name": "golonganDarah",
          "type": "string"
        },
        {
          "internalType": "string",
          "name": "tanggalLahir",
          "type": "string"
        },
        {
          "internalType": "string",
          "name": "gender",
          "type": "string"
        },
        {
          "internalType": "string",
          "name": "alamat",
          "type": "string"
        },
        {
          "internalType": "string",
          "name": "noTelepon",
          "type": "string"
        },
        {
          "internalType": "string",
          "name": "email",
          "type": "string"
        },
        {
          "internalType": "string",
          "name": "diagnosa",
          "type": "string"
        },
        {
          "internalType": "string",
          "name": "foto",
          "type": "string"
        },
        {
          "internalType": "string",
          "name": "catatan",
          "type": "string"
        },
        {
          "internalType": "bool",
          "name": "valid",
          "type": "bool"
        }
      ],
      "stateMutability": "view",
      "type": "function",
      "constant": true
    },
    {
      "inputs": [
        {
          "internalType": "address",
          "name": "",
          "type": "address"
        },
        {
          "internalType": "uint256",
          "name": "",
          "type": "uint256"
        }
      ],
      "name": "rekamMedisByPasien",
      "outputs": [
        {
          "internalType": "uint256",
          "name": "",
          "type": "uint256"
        }
      ],
      "stateMutability": "view",
      "type": "function",
      "constant": true
    },
    {
      "inputs": [],
      "name": "rekamMedisCount",
      "outputs": [
        {
          "internalType": "uint256",
          "name": "",
          "type": "uint256"
        }
      ],
      "stateMutability": "view",
      "type": "function",
      "constant": true
    },
    {
      "inputs": [
        {
          "internalType": "address",
          "name": "_dokter",
          "type": "address"
        }
      ],
      "name": "registerDokter",
      "outputs": [],
      "stateMutability": "nonpayable",
      "type": "function"
    },
    {
      "inputs": [
        {
          "internalType": "address",
          "name": "_pasien",
          "type": "address"
        }
      ],
      "name": "registerPasien",
      "outputs": [],
      "stateMutability": "nonpayable",
      "type": "function"
    },
    {
      "inputs": [],
      "name": "selfRegisterPasien",
      "outputs": [],
      "stateMutability": "nonpayable",
      "type": "function"
    },
    {
      "inputs": [
        {
          "internalType": "address",
          "name": "_user",
          "type": "address"
        }
      ],
      "name": "getUserRole",
      "outputs": [
        {
          "internalType": "string",
          "name": "",
          "type": "string"
        }
      ],
      "stateMutability": "view",
      "type": "function",
      "constant": true
    },
    {
      "inputs": [
        {
          "internalType": "address",
          "name": "pasien",
          "type": "address"
        }
      ],
      "name": "getRekamMedisIdsByPasien",
      "outputs": [
        {
          "internalType": "uint256[]",
          "name": "",
          "type": "uint256[]"
        }
      ],
      "stateMutability": "view",
      "type": "function",
      "constant": true
    },
    {
      "inputs": [
        {
          "internalType": "address",
          "name": "_newAdmin",
          "type": "address"
        }
      ],
      "name": "setAdmin",
      "outputs": [],
      "stateMutability": "nonpayable",
      "type": "function"
    },
    {
      "inputs": [
        {
          "internalType": "address",
          "name": "_pasien",
          "type": "address"
        },
        {
          "internalType": "string",
          "name": "_nama",
          "type": "string"
        },
        {
          "internalType": "uint256",
          "name": "_umur",
          "type": "uint256"
        },
        {
          "internalType": "string",
          "name": "_golonganDarah",
          "type": "string"
        },
        {
          "internalType": "string",
          "name": "_tanggalLahir",
          "type": "string"
        },
        {
          "internalType": "string",
          "name": "_gender",
          "type": "string"
        },
        {
          "internalType": "string",
          "name": "_alamat",
          "type": "string"
        },
        {
          "internalType": "string",
          "name": "_noTelepon",
          "type": "string"
        },
        {
          "internalType": "string",
          "name": "_email",
          "type": "string"
        },
        {
          "internalType": "string",
          "name": "_diagnosa",
          "type": "string"
        },
        {
          "internalType": "string",
          "name": "_foto",
          "type": "string"
        },
        {
          "internalType": "string",
          "name": "_catatan",
          "type": "string"
        }
      ],
      "name": "tambahRekamMedis",
      "outputs": [],
      "stateMutability": "nonpayable",
      "type": "function"
    },
    {
      "inputs": [
        {
          "internalType": "uint256",
          "name": "_id",
          "type": "uint256"
        },
        {
          "internalType": "string",
          "name": "_diagnosa",
          "type": "string"
        },
        {
          "internalType": "string",
          "name": "_catatan",
          "type": "string"
        }
      ],
      "name": "updateRekamMedis",
      "outputs": [],
      "stateMutability": "nonpayable",
      "type": "function"
    },
    {
      "inputs": [
        {
          "internalType": "uint256",
          "name": "_id",
          "type": "uint256"
        }
      ],
      "name": "nonaktifkanRekamMedis",
      "outputs": [],
      "stateMutability": "nonpayable",
      "type": "function"
    }
  ],
  "bytecode": "0x6080806040523461003c57600080546001600160a01b03191673b0dc0bf642d339517438017fc185bb0f758a01d2179055611c8190816100428239f35b600080fdfe6080604052600436101561001257600080fd5b60003560e01c8062410cb3146118d5578063010ef3b314611886578063083d8824146118425780631132beb51461180357806327820851146117c75780632e2dd102146117a9578063334181f21461171557806346d24603146116c45780635c4c93481461168557806368f5dc9914610743578063704b6c02146106cc578063abf72abb1461053a578063bb2be1cc146101a2578063c967ede8146100ee5763f851a440146100c057600080fd5b346100e95760003660031901126100e9576000546040516001600160a01b039091168152602090f35b600080fd5b346100e9576020806003193601126100e9576001600160a01b0361011061192d565b1660005260048152604060002060405190818382549182815201908192600052846000209060005b8682821061018e57868661014e828803836119cc565b604051928392818401908285525180915260408401929160005b82811061017757505050500390f35b835185528695509381019392810192600101610168565b835485529093019260019283019201610138565b346100e95760603660031901126100e9576001600160401b036004356024358281116100e9576101d69036906004016119ed565b6044358381116100e9576101ee9036906004016119ed565b9033600052600160209481865260ff604060002054168015610526575b156104bb578460005260038652604060002091600a8301928451938385116103ee576102378154611a43565b94601f95868111610475575b508986821160011461040f579080600c949392600091610404575b50600019600383901b1c191690851b1790555b019285519283116103ee576102868454611a43565b8181116103a8575b5087908311600114610319579282806102fb9461030997947f2a3c8ca9ac6f36396c175111b8f04207d249d61d733222e37c97a5ed7cfa7e139b9a999760009361030e575b501b916000199060031b1c19161790555b606060405196879687528601526060850190611971565b908382036040850152611971565b0390a1005b88015192508c6102d3565b601f9291921982169084600052886000209160005b8181106103935750927f2a3c8ca9ac6f36396c175111b8f04207d249d61d733222e37c97a5ed7cfa7e1399989795926102fb95928261030999961061037a575b5050811b0190556102e4565b87015160001960f88460031b161c191690558a8061036e565b88830151845592850192918a01918a0161032e565b84600052886000208280860160051c8201928b87106103e5575b0160051c019083905b8281106103d957505061028e565b600081550183906103cb565b925081926103c2565b634e487b7160e01b600052604160045260246000fd5b90508801518c61025e565b60008381528b8120601f198416959493879390928e5b8c89831061045f5750505082600c9710610446575b5050811b019055610271565b8a015160001960f88460031b161c191690558c8061043a565b830151845589959093019291820191018e610425565b826000528a6000208780840160051c8201928d85106104b2575b0160051c019085905b8281106104a6575050610243565b60008155018590610498565b9250819261048f565b60405162461bcd60e51b815260048101879052603a60248201527f48616e796120646f6b74657220617461752061646d696e2079616e672062697360448201527f61206d656d70657262617275692072656b616d206d656469732e0000000000006064820152608490fd5b506000546001600160a01b0316331461020b565b346100e95760203660031901126100e9576004356000908152600360205260409020805460018201546001600160a01b03169161057960028201611a7d565b9060038101546004820161058c90611a7d565b61059860058401611a7d565b6105a460068501611a7d565b6105b060078601611a7d565b6105bc60088701611a7d565b916105c960098801611a7d565b936105d6600a8901611a7d565b956105e3600b8a01611a7d565b976105f0600c8b01611a7d565b99600d015460ff169a6040519d8e809e8152602001528c6101c06040819201528d0161061b91611971565b9060608d01528b810360808d015261063291611971565b8a810360a08c015261064391611971565b89810360c08b015261065491611971565b88810360e08a015261066591611971565b87810361010089015261067791611971565b86810361012088015261068991611971565b85810361014087015261069b91611971565b8481036101608601526106ad91611971565b8381036101808501526106bf91611971565b9015156101a08301520390f35b346100e95760203660031901126100e9577f4d644268affe3d5bee1f2f5cb981613ce82c79f04442f0d58c544d9cd09b2f8d602061070861192d565b600054906001600160a01b03906107223383851614611b23565b1680916bffffffffffffffffffffffff60a01b1617600055604051908152a1005b346100e9576101803660031901126100e95761075d61192d565b6024356001600160401b0381116100e95761077c9036906004016119ed565b906064356001600160401b0381116100e95761079c9036906004016119ed565b6084356001600160401b0381116100e9576107bb9036906004016119ed565b9260a4356001600160401b0381116100e9576107db9036906004016119ed565b9360c4356001600160401b0381116100e9576107fb9036906004016119ed565b9460e4356001600160401b0381116100e95761081b9036906004016119ed565b95610104356001600160401b0381116100e95761083c9036906004016119ed565b610124356001600160401b0381116100e95761085c9036906004016119ed565b97610144356001600160401b0381116100e95761087d9036906004016119ed565b92610164356001600160401b0381116100e95761089e9036906004016119ed565b946001600160a01b038a1633036116255760055496600019881461160f5760018801600555604051998a6101c08101106001600160401b036101c08d0111176103ee576001996101c08c016040528a8a018c528a8060a01b038d1660208d015260408c015260443560608c015260808b015260a08a015260c089015260e088015261010087015261012086015286610140860152610160850152610180840152816101a08401520160005260036020526040600020815181556001810160018060a01b036020840151166bffffffffffffffffffffffff60a01b82541617905560408201518051906001600160401b0382116103ee5781906109a36002850154611a43565b601f81116115bc575b50602090601f831160011461154a5760009261153f575b50508160011b916000199060031b1c19161760028201555b6060820151600382015560808201518051906001600160401b0382116103ee578190610a0a6004850154611a43565b601f81116114ec575b50602090601f831160011461147a5760009261146f575b50508160011b916000199060031b1c19161760048201555b60a08201518051906001600160401b0382116103ee578190610a676005850154611a43565b601f811161141c575b50602090601f83116001146113aa5760009261139f575b50508160011b916000199060031b1c19161760058201555b60c08201518051906001600160401b0382116103ee578190610ac46006850154611a43565b601f811161134c575b50602090601f83116001146112da576000926112cf575b50508160011b916000199060031b1c19161760068201555b60e08201518051906001600160401b0382116103ee578190610b216007850154611a43565b601f811161127c575b50602090601f831160011461120a576000926111ff575b50508160011b916000199060031b1c19161760078201555b6101008201518051906001600160401b0382116103ee578190610b7f6008850154611a43565b601f81116111ac575b50602090601f831160011461113a5760009261112f575b50508160011b916000199060031b1c19161760088201555b6101208201518051906001600160401b0382116103ee578190610bdd6009850154611a43565b601f81116110dc575b50602090601f831160011461106a5760009261105f575b50508160011b916000199060031b1c19161760098201555b6101408201518051906001600160401b0382116103ee578190610c3b600a850154611a43565b601f811161100c575b50602090601f8311600114610f9a57600092610f8f575b50508160011b916000199060031b1c191617600a8201555b6101608201518051906001600160401b0382116103ee578190610c99600b850154611a43565b601f8111610f3c575b50602090601f8311600114610eca57600092610ebf575b50508160011b916000199060031b1c191617600b8201555b6101808201518051906001600160401b0382116103ee57610cf5600c840154611a43565b601f8111610e78575b50602090601f8311600114610e025791806101a09492600d94600092610df7575b50508160011b916000199060031b1c191617600c8201555b01910151151560ff8019835416911617905560018060a01b0381166000526004602052604060002091600554835493680100000000000000008510156103ee5784610da89160017f8647b41d1ffdc302f876f0e70e0c442d110a3c8bad284218f99616149394c99797018155611943565b819291549060031b91821b91600019901b1916179055610deb60055491604051938493845260018060a01b03166020840152608060408401526080830190611971565b600160608301520390a1005b015190508880610d1f565b90600c840160005260206000209160005b601f1985168110610e605750926101a09492600192600d9583601f19811610610e47575b505050811b01600c820155610d37565b015160001960f88460031b161c19169055888080610e37565b91926020600181928685015181550194019201610e13565b600c84016000526020600020601f840160051c810160208510610eb8575b601f830160051c82018110610eac575050610cfe565b60008155600101610e96565b5080610e96565b015190508680610cb9565b9250600b84016000526020600020906000935b601f1984168510610f21576001945083601f19811610610f08575b505050811b01600b820155610cd1565b015160001960f88460031b161c19169055868080610ef8565b81810151835560209485019460019093019290910190610edd565b909150600b84016000526020600020601f840160051c810160208510610f88575b90849392915b601f830160051c82018110610f79575050610ca2565b60008155859450600101610f63565b5080610f5d565b015190508680610c5b565b9250600a84016000526020600020906000935b601f1984168510610ff1576001945083601f19811610610fd8575b505050811b01600a820155610c73565b015160001960f88460031b161c19169055868080610fc8565b81810151835560209485019460019093019290910190610fad565b909150600a84016000526020600020601f840160051c810160208510611058575b90849392915b601f830160051c82018110611049575050610c44565b60008155859450600101611033565b508061102d565b015190508680610bfd565b9250600984016000526020600020906000935b601f19841685106110c1576001945083601f198116106110a8575b505050811b016009820155610c15565b015160001960f88460031b161c19169055868080611098565b8181015183556020948501946001909301929091019061107d565b909150600984016000526020600020601f840160051c810160208510611128575b90849392915b601f830160051c82018110611119575050610be6565b60008155859450600101611103565b50806110fd565b015190508680610b9f565b9250600884016000526020600020906000935b601f1984168510611191576001945083601f19811610611178575b505050811b016008820155610bb7565b015160001960f88460031b161c19169055868080611168565b8181015183556020948501946001909301929091019061114d565b909150600884016000526020600020601f840160051c8101602085106111f8575b90849392915b601f830160051c820181106111e9575050610b88565b600081558594506001016111d3565b50806111cd565b015190508680610b41565b9250600784016000526020600020906000935b601f1984168510611261576001945083601f19811610611248575b505050811b016007820155610b59565b015160001960f88460031b161c19169055868080611238565b8181015183556020948501946001909301929091019061121d565b909150600784016000526020600020601f840160051c8101602085106112c8575b90849392915b601f830160051c820181106112b9575050610b2a565b600081558594506001016112a3565b508061129d565b015190508680610ae4565b9250600684016000526020600020906000935b601f1984168510611331576001945083601f19811610611318575b505050811b016006820155610afc565b015160001960f88460031b161c19169055868080611308565b818101518355602094850194600190930192909101906112ed565b909150600684016000526020600020601f840160051c810160208510611398575b90849392915b601f830160051c82018110611389575050610acd565b60008155859450600101611373565b508061136d565b015190508680610a87565b9250600584016000526020600020906000935b601f1984168510611401576001945083601f198116106113e8575b505050811b016005820155610a9f565b015160001960f88460031b161c191690558680806113d8565b818101518355602094850194600190930192909101906113bd565b909150600584016000526020600020601f840160051c810160208510611468575b90849392915b601f830160051c82018110611459575050610a70565b60008155859450600101611443565b508061143d565b015190508680610a2a565b9250600484016000526020600020906000935b601f19841685106114d1576001945083601f198116106114b8575b505050811b016004820155610a42565b015160001960f88460031b161c191690558680806114a8565b8181015183556020948501946001909301929091019061148d565b909150600484016000526020600020601f840160051c810160208510611538575b90849392915b601f830160051c82018110611529575050610a13565b60008155859450600101611513565b508061150d565b0151905086806109c3565b9250600284016000526020600020906000935b601f19841685106115a1576001945083601f19811610611588575b505050811b0160028201556109db565b015160001960f88460031b161c19169055868080611578565b8181015183556020948501946001909301929091019061155d565b909150600284016000526020600020601f840160051c810160208510611608575b90849392915b601f830160051c820181106115f95750506109ac565b600081558594506001016115e3565b50806115dd565b634e487b7160e01b600052601160045260246000fd5b60405162461bcd60e51b815260206004820152603260248201527f48616e79612070617369656e2079616e672062697361206d656d62756174207260448201527132b5b0b69036b2b234b99036b2b932b5b09760711b6064820152608490fd5b346100e95760203660031901126100e9576001600160a01b036116a661192d565b166000526001602052602060ff604060002054166040519015158152f35b346100e95760203660031901126100e9576116dd61192d565b6000546001600160a01b0391906116f79083163314611b23565b1660005260016020526040600020600160ff19825416179055600080f35b346100e95760003660031901126100e95733600052600260205260ff6040600020541661175857336000908152600260205260409020805460ff19166001179055005b60405162461bcd60e51b8152602060048201526024808201527f416e64612073756461682074657264616674617220736562616761692050617360448201526334b2b71760e11b6064820152608490fd5b346100e95760003660031901126100e9576020600554604051908152f35b346100e95760203660031901126100e9576117ff6117eb6117e661192d565b611b81565b604051918291602083526020830190611971565b0390f35b346100e95760203660031901126100e9576001600160a01b0361182461192d565b166000526002602052602060ff604060002054166040519015158152f35b346100e95760203660031901126100e95761186860018060a01b03600054163314611b23565b6004356000908152600360205260409020600d01805460ff19169055005b346100e95760203660031901126100e95761189f61192d565b6000546001600160a01b0391906118b99083163314611b23565b166000908152600260205260409020805460ff19166001179055005b346100e95760403660031901126100e9576118ee61192d565b6001600160a01b03166000908152600460205260409020805460243591908210156100e95760209161191f91611943565b90546040519160031b1c8152f35b600435906001600160a01b03821682036100e957565b805482101561195b5760005260206000200190600090565b634e487b7160e01b600052603260045260246000fd5b919082519283825260005b84811061199d575050826000602080949584010152601f8019910116010190565b60208183018101518483018201520161197c565b604081019081106001600160401b038211176103ee57604052565b90601f801991011681019081106001600160401b038211176103ee57604052565b81601f820112156100e9578035906001600160401b0382116103ee5760405192611a21601f8401601f1916602001856119cc565b828452602083830101116100e957816000926020809301838601378301015290565b90600182811c92168015611a73575b6020831014611a5d57565b634e487b7160e01b600052602260045260246000fd5b91607f1691611a52565b9060405191826000825492611a9184611a43565b908184526001948581169081600014611b005750600114611abd575b5050611abb925003836119cc565b565b9093915060005260209081600020936000915b818310611ae8575050611abb93508201013880611aad565b85548884018501529485019487945091830191611ad0565b915050611abb94506020925060ff191682840152151560051b8201013880611aad565b15611b2a57565b60405162461bcd60e51b815260206004820152602960248201527f48616e79612061646d696e2079616e672062697361206d656c616b756b616e2060448201526830b5b9b49034b7349760b91b6064820152608490fd5b6000546001600160a01b0391821691168103611bb95750604051611ba4816119b1565b600581526420b236b4b760d91b602082015290565b600052600160205260ff60406000205416600014611bf357604051611bdd816119b1565b60068152652237b5ba32b960d11b602082015290565b600260205260406000205460ff1615611c2857604051611c12816119b1565b60068152652830b9b4b2b760d11b602082015290565b604051611c34816119b1565b60078152662ab735b737bbb760c91b60208201529056fea26469706673582212208149c1b6383f3c909b9dd5e2819e314195383bf89fff7b392da34cdb3735d1ce64736f6c63430008130033",
  "immutableReferences": {},
  "source": "// SPDX-License-Identifier: MIT\r\npragma solidity >=0.4.22 <0.9.0;\r\n\r\ncontract RekamMedis {\r\n    address public admin;\r\n    mapping(address => bool) public isDokter;\r\n    mapping(address => bool) public isPasien;\r\n\r\n    struct RekamMedisData {\r\n        uint id;\r\n        address pasien;\r\n        string nama;\r\n        uint umur;\r\n        string golonganDarah;\r\n        string tanggalLahir;\r\n        string gender;\r\n        string alamat;\r\n        string noTelepon;\r\n        string email;\r\n        string diagnosa;\r\n        string foto;\r\n        string catatan;\r\n        bool valid;\r\n    }\r\n\r\n    mapping(uint => RekamMedisData) public rekamMedis;\r\n    mapping(address => uint[]) public rekamMedisByPasien;\r\n    uint public rekamMedisCount;\r\n\r\n    event RekamMedisDitambahkan(\r\n        uint id,\r\n        address pasien,\r\n        string diagnosa,\r\n        bool valid\r\n    );\r\n    event RekamMedisDiperbarui(uint id, string diagnosa, string catatan);\r\n    event AdminDitetapkan(address newAdmin);\r\n\r\n    constructor() {\r\n        admin = 0xB0dC0Bf642d339517438017Fc185Bb0f758A01D2;\r\n    }\r\n\r\n    modifier hanyaAdmin() {\r\n        require(\r\n            msg.sender == admin,\r\n            \"Hanya admin yang bisa melakukan aksi ini.\"\r\n        );\r\n        _;\r\n    }\r\n\r\n    modifier hanyaDokter() {\r\n        require(\r\n            isDokter[msg.sender] || msg.sender == admin,\r\n            \"Hanya dokter atau admin yang bisa memperbarui rekam medis.\"\r\n        );\r\n        _;\r\n    }\r\n\r\n    modifier hanyaPasien(address pasien) {\r\n        require(\r\n            msg.sender == pasien,\r\n            \"Hanya pasien yang bisa membuat rekam medis mereka.\"\r\n        );\r\n        _;\r\n    }\r\n\r\n    // Register roles by Admin\r\n    function registerDokter(address _dokter) public hanyaAdmin {\r\n        isDokter[_dokter] = true;\r\n    }\r\n\r\n    function registerPasien(address _pasien) public hanyaAdmin {\r\n        isPasien[_pasien] = true;\r\n    }\r\n\r\n    // Self-register pasien\r\n    function selfRegisterPasien() public {\r\n        require(!isPasien[msg.sender], \"Anda sudah terdaftar sebagai Pasien.\");\r\n        isPasien[msg.sender] = true;\r\n    }\r\n\r\n    // Getter untuk role user\r\n    function getUserRole(address _user) public view returns (string memory) {\r\n        if (_user == admin) {\r\n            return \"Admin\";\r\n        } else if (isDokter[_user]) {\r\n            return \"Dokter\";\r\n        } else if (isPasien[_user]) {\r\n            return \"Pasien\";\r\n        } else {\r\n            return \"Unknown\";\r\n        }\r\n    }\r\n\r\n    // Getter seluruh daftar rekam medis milik pasien\r\n    function getRekamMedisIdsByPasien(\r\n        address pasien\r\n    ) public view returns (uint[] memory) {\r\n        return rekamMedisByPasien[pasien];\r\n    }\r\n\r\n    // Ganti admin\r\n    function setAdmin(address _newAdmin) public hanyaAdmin {\r\n        admin = _newAdmin;\r\n        emit AdminDitetapkan(_newAdmin);\r\n    }\r\n\r\n    // Tambah rekam medis (pasien hanya bisa buat untuk dirinya sendiri)\r\n    function tambahRekamMedis(\r\n        address _pasien,\r\n        string memory _nama,\r\n        uint _umur,\r\n        string memory _golonganDarah,\r\n        string memory _tanggalLahir,\r\n        string memory _gender,\r\n        string memory _alamat,\r\n        string memory _noTelepon,\r\n        string memory _email,\r\n        string memory _diagnosa,\r\n        string memory _foto,\r\n        string memory _catatan\r\n    ) public hanyaPasien(_pasien) {\r\n        rekamMedisCount++;\r\n        rekamMedis[rekamMedisCount] = RekamMedisData(\r\n            rekamMedisCount,\r\n            _pasien,\r\n            _nama,\r\n            _umur,\r\n            _golonganDarah,\r\n            _tanggalLahir,\r\n            _gender,\r\n            _alamat,\r\n            _noTelepon,\r\n            _email,\r\n            _diagnosa,\r\n            _foto,\r\n            _catatan,\r\n            true\r\n        );\r\n        rekamMedisByPasien[_pasien].push(rekamMedisCount);\r\n        emit RekamMedisDitambahkan(rekamMedisCount, _pasien, _diagnosa, true);\r\n    }\r\n\r\n    // Update rekam medis oleh dokter\r\n    function updateRekamMedis(\r\n        uint _id,\r\n        string memory _diagnosa,\r\n        string memory _catatan\r\n    ) public hanyaDokter {\r\n        RekamMedisData storage rekam = rekamMedis[_id];\r\n        rekam.diagnosa = _diagnosa;\r\n        rekam.catatan = _catatan;\r\n        emit RekamMedisDiperbarui(_id, _diagnosa, _catatan);\r\n    }\r\n\r\n    // Nonaktifkan rekam medis (admin)\r\n    function nonaktifkanRekamMedis(uint _id) public hanyaAdmin {\r\n        rekamMedis[_id].valid = false;\r\n    }\r\n}\r\n",
  "sourcePath": "D:\\RekamMedisBlockchain\\contracts\\RekamMedis.sol",
  "compiler": {
    "name": "solc",
    "version": "0.8.19+commit.7dd6d404.Emscripten.clang"
  },
  "schemaVersion": "3.4.16",
  "updatedAt": "2025-05-15T17:29:53.753Z",
  "networkType": "ethereum",
  "devdoc": {
    "kind": "dev",
    "methods": {},
    "version": 1
  },
  "userdoc": {
    "kind": "user",
    "methods": {},
    "version": 1
  }
}