{
  "contractName": "RekamMedisRS",
  "abi": [
    {
      "inputs": [],
      "stateMutability": "nonpayable",
      "type": "constructor"
    },
    {
      "anonymous": false,
      "inputs": [
        {
          "indexed": true,
          "internalType": "address",
          "name": "admin",
          "type": "address"
        },
        {
          "indexed": false,
          "internalType": "bool",
          "name": "aktif",
          "type": "bool"
        }
      ],
      "name": "AdminRSStatusDiubah",
      "type": "event"
    },
    {
      "anonymous": false,
      "inputs": [
        {
          "indexed": true,
          "internalType": "address",
          "name": "admin",
          "type": "address"
        },
        {
          "indexed": false,
          "internalType": "string",
          "name": "namaRumahSakit",
          "type": "string"
        }
      ],
      "name": "AdminRSTerdaftar",
      "type": "event"
    },
    {
      "anonymous": false,
      "inputs": [
        {
          "indexed": true,
          "internalType": "address",
          "name": "dokter",
          "type": "address"
        },
        {
          "indexed": false,
          "internalType": "string",
          "name": "nama",
          "type": "string"
        },
        {
          "indexed": false,
          "internalType": "string",
          "name": "spesialisasi",
          "type": "string"
        },
        {
          "indexed": false,
          "internalType": "string",
          "name": "nomorLisensi",
          "type": "string"
        },
        {
          "indexed": true,
          "internalType": "address",
          "name": "adminRS",
          "type": "address"
        }
      ],
      "name": "DokterInfoDiperbarui",
      "type": "event"
    },
    {
      "anonymous": false,
      "inputs": [
        {
          "indexed": true,
          "internalType": "address",
          "name": "dokter",
          "type": "address"
        },
        {
          "indexed": false,
          "internalType": "bool",
          "name": "aktif",
          "type": "bool"
        }
      ],
      "name": "DokterStatusDiubah",
      "type": "event"
    },
    {
      "anonymous": false,
      "inputs": [
        {
          "indexed": true,
          "internalType": "address",
          "name": "dokter",
          "type": "address"
        },
        {
          "indexed": false,
          "internalType": "string",
          "name": "nama",
          "type": "string"
        },
        {
          "indexed": false,
          "internalType": "address",
          "name": "adminRS",
          "type": "address"
        }
      ],
      "name": "DokterTerdaftar",
      "type": "event"
    },
    {
      "anonymous": false,
      "inputs": [
        {
          "indexed": false,
          "internalType": "address",
          "name": "dokter",
          "type": "address"
        },
        {
          "indexed": false,
          "internalType": "address",
          "name": "pasien",
          "type": "address"
        }
      ],
      "name": "PasienDiassignKeDokter",
      "type": "event"
    },
    {
      "anonymous": false,
      "inputs": [
        {
          "indexed": true,
          "internalType": "address",
          "name": "pasien",
          "type": "address"
        },
        {
          "indexed": false,
          "internalType": "address",
          "name": "adminRS",
          "type": "address"
        }
      ],
      "name": "PasienPindahRS",
      "type": "event"
    },
    {
      "anonymous": false,
      "inputs": [
        {
          "indexed": true,
          "internalType": "address",
          "name": "pasien",
          "type": "address"
        },
        {
          "indexed": false,
          "internalType": "string",
          "name": "nama",
          "type": "string"
        },
        {
          "indexed": false,
          "internalType": "address",
          "name": "adminRS",
          "type": "address"
        }
      ],
      "name": "PasienTerdaftar",
      "type": "event"
    },
    {
      "anonymous": false,
      "inputs": [
        {
          "indexed": false,
          "internalType": "uint256",
          "name": "id",
          "type": "uint256"
        },
        {
          "indexed": false,
          "internalType": "string",
          "name": "diagnosa",
          "type": "string"
        },
        {
          "indexed": false,
          "internalType": "string",
          "name": "catatan",
          "type": "string"
        },
        {
          "indexed": false,
          "internalType": "address",
          "name": "dokter",
          "type": "address"
        },
        {
          "indexed": false,
          "internalType": "uint256",
          "name": "timestamp",
          "type": "uint256"
        }
      ],
      "name": "RekamMedisDiperbarui",
      "type": "event"
    },
    {
      "anonymous": false,
      "inputs": [
        {
          "indexed": false,
          "internalType": "uint256",
          "name": "id",
          "type": "uint256"
        },
        {
          "indexed": false,
          "internalType": "address",
          "name": "pasien",
          "type": "address"
        },
        {
          "indexed": false,
          "internalType": "string",
          "name": "diagnosa",
          "type": "string"
        },
        {
          "indexed": false,
          "internalType": "bool",
          "name": "valid",
          "type": "bool"
        }
      ],
      "name": "RekamMedisDitambahkan",
      "type": "event"
    },
    {
      "inputs": [
        {
          "internalType": "uint256",
          "name": "",
          "type": "uint256"
        }
      ],
      "name": "daftarAdmin",
      "outputs": [
        {
          "internalType": "address",
          "name": "",
          "type": "address"
        }
      ],
      "stateMutability": "view",
      "type": "function",
      "constant": true
    },
    {
      "inputs": [
        {
          "internalType": "uint256",
          "name": "",
          "type": "uint256"
        }
      ],
      "name": "daftarDokter",
      "outputs": [
        {
          "internalType": "address",
          "name": "",
          "type": "address"
        }
      ],
      "stateMutability": "view",
      "type": "function",
      "constant": true
    },
    {
      "inputs": [
        {
          "internalType": "uint256",
          "name": "",
          "type": "uint256"
        }
      ],
      "name": "daftarPasien",
      "outputs": [
        {
          "internalType": "address",
          "name": "",
          "type": "address"
        }
      ],
      "stateMutability": "view",
      "type": "function",
      "constant": true
    },
    {
      "inputs": [
        {
          "internalType": "address",
          "name": "",
          "type": "address"
        }
      ],
      "name": "dataAdmin",
      "outputs": [
        {
          "internalType": "string",
          "name": "namaRumahSakit",
          "type": "string"
        },
        {
          "internalType": "bool",
          "name": "aktif",
          "type": "bool"
        }
      ],
      "stateMutability": "view",
      "type": "function",
      "constant": true
    },
    {
      "inputs": [
        {
          "internalType": "address",
          "name": "",
          "type": "address"
        }
      ],
      "name": "dataDokter",
      "outputs": [
        {
          "internalType": "string",
          "name": "nama",
          "type": "string"
        },
        {
          "internalType": "string",
          "name": "spesialisasi",
          "type": "string"
        },
        {
          "internalType": "string",
          "name": "nomorLisensi",
          "type": "string"
        },
        {
          "internalType": "bool",
          "name": "aktif",
          "type": "bool"
        },
        {
          "internalType": "address",
          "name": "adminRS",
          "type": "address"
        }
      ],
      "stateMutability": "view",
      "type": "function",
      "constant": true
    },
    {
      "inputs": [
        {
          "internalType": "address",
          "name": "",
          "type": "address"
        }
      ],
      "name": "dataPasien",
      "outputs": [
        {
          "internalType": "string",
          "name": "nama",
          "type": "string"
        },
        {
          "internalType": "string",
          "name": "golonganDarah",
          "type": "string"
        },
        {
          "internalType": "string",
          "name": "tanggalLahir",
          "type": "string"
        },
        {
          "internalType": "string",
          "name": "gender",
          "type": "string"
        },
        {
          "internalType": "string",
          "name": "alamat",
          "type": "string"
        },
        {
          "internalType": "string",
          "name": "noTelepon",
          "type": "string"
        },
        {
          "internalType": "string",
          "name": "email",
          "type": "string"
        },
        {
          "internalType": "address",
          "name": "rumahSakitPenanggungJawab",
          "type": "address"
        },
        {
          "internalType": "bool",
          "name": "exists",
          "type": "bool"
        }
      ],
      "stateMutability": "view",
      "type": "function",
      "constant": true
    },
    {
      "inputs": [
        {
          "internalType": "address",
          "name": "",
          "type": "address"
        }
      ],
      "name": "isDokter",
      "outputs": [
        {
          "internalType": "bool",
          "name": "",
          "type": "bool"
        }
      ],
      "stateMutability": "view",
      "type": "function",
      "constant": true
    },
    {
      "inputs": [
        {
          "internalType": "address",
          "name": "",
          "type": "address"
        }
      ],
      "name": "isPasien",
      "outputs": [
        {
          "internalType": "bool",
          "name": "",
          "type": "bool"
        }
      ],
      "stateMutability": "view",
      "type": "function",
      "constant": true
    },
    {
      "inputs": [
        {
          "internalType": "uint256",
          "name": "",
          "type": "uint256"
        }
      ],
      "name": "rekamMedis",
      "outputs": [
        {
          "internalType": "uint256",
          "name": "id",
          "type": "uint256"
        },
        {
          "internalType": "address",
          "name": "pasien",
          "type": "address"
        },
        {
          "internalType": "string",
          "name": "diagnosa",
          "type": "string"
        },
        {
          "internalType": "string",
          "name": "foto",
          "type": "string"
        },
        {
          "internalType": "string",
          "name": "catatan",
          "type": "string"
        },
        {
          "internalType": "bool",
          "name": "valid",
          "type": "bool"
        }
      ],
      "stateMutability": "view",
      "type": "function",
      "constant": true
    },
    {
      "inputs": [
        {
          "internalType": "address",
          "name": "",
          "type": "address"
        },
        {
          "internalType": "uint256",
          "name": "",
          "type": "uint256"
        }
      ],
      "name": "rekamMedisByPasien",
      "outputs": [
        {
          "internalType": "uint256",
          "name": "",
          "type": "uint256"
        }
      ],
      "stateMutability": "view",
      "type": "function",
      "constant": true
    },
    {
      "inputs": [],
      "name": "rekamMedisCount",
      "outputs": [
        {
          "internalType": "uint256",
          "name": "",
          "type": "uint256"
        }
      ],
      "stateMutability": "view",
      "type": "function",
      "constant": true
    },
    {
      "inputs": [
        {
          "internalType": "uint256",
          "name": "",
          "type": "uint256"
        },
        {
          "internalType": "uint256",
          "name": "",
          "type": "uint256"
        }
      ],
      "name": "rekamMedisUpdateHistory",
      "outputs": [
        {
          "internalType": "address",
          "name": "dokter",
          "type": "address"
        },
        {
          "internalType": "uint256",
          "name": "timestamp",
          "type": "uint256"
        }
      ],
      "stateMutability": "view",
      "type": "function",
      "constant": true
    },
    {
      "inputs": [
        {
          "internalType": "uint256",
          "name": "",
          "type": "uint256"
        },
        {
          "internalType": "uint256",
          "name": "",
          "type": "uint256"
        }
      ],
      "name": "rekamMedisVersions",
      "outputs": [
        {
          "internalType": "uint256",
          "name": "id",
          "type": "uint256"
        },
        {
          "internalType": "address",
          "name": "pasien",
          "type": "address"
        },
        {
          "internalType": "string",
          "name": "diagnosa",
          "type": "string"
        },
        {
          "internalType": "string",
          "name": "foto",
          "type": "string"
        },
        {
          "internalType": "string",
          "name": "catatan",
          "type": "string"
        },
        {
          "internalType": "bool",
          "name": "valid",
          "type": "bool"
        }
      ],
      "stateMutability": "view",
      "type": "function",
      "constant": true
    },
    {
      "inputs": [],
      "name": "superAdmin",
      "outputs": [
        {
          "internalType": "address",
          "name": "",
          "type": "address"
        }
      ],
      "stateMutability": "view",
      "type": "function",
      "constant": true
    },
    {
      "inputs": [
        {
          "internalType": "address",
          "name": "_admin",
          "type": "address"
        },
        {
          "internalType": "string",
          "name": "_namaRS",
          "type": "string"
        }
      ],
      "name": "registerAdminRS",
      "outputs": [],
      "stateMutability": "nonpayable",
      "type": "function"
    },
    {
      "inputs": [],
      "name": "getAllAdminRSAddresses",
      "outputs": [
        {
          "internalType": "address[]",
          "name": "",
          "type": "address[]"
        }
      ],
      "stateMutability": "view",
      "type": "function",
      "constant": true
    },
    {
      "inputs": [
        {
          "internalType": "address",
          "name": "_admin",
          "type": "address"
        },
        {
          "internalType": "bool",
          "name": "_aktif",
          "type": "bool"
        }
      ],
      "name": "setStatusAdminRS",
      "outputs": [],
      "stateMutability": "nonpayable",
      "type": "function"
    },
    {
      "inputs": [],
      "name": "totalAdmin",
      "outputs": [
        {
          "internalType": "uint256",
          "name": "",
          "type": "uint256"
        }
      ],
      "stateMutability": "view",
      "type": "function",
      "constant": true
    },
    {
      "inputs": [
        {
          "internalType": "uint256",
          "name": "idx",
          "type": "uint256"
        }
      ],
      "name": "getAdminByIndex",
      "outputs": [
        {
          "internalType": "address",
          "name": "",
          "type": "address"
        }
      ],
      "stateMutability": "view",
      "type": "function",
      "constant": true
    },
    {
      "inputs": [
        {
          "internalType": "address",
          "name": "_dokter",
          "type": "address"
        },
        {
          "internalType": "string",
          "name": "_nama",
          "type": "string"
        },
        {
          "internalType": "string",
          "name": "_spesialisasi",
          "type": "string"
        },
        {
          "internalType": "string",
          "name": "_nomorLisensi",
          "type": "string"
        }
      ],
      "name": "registerDokter",
      "outputs": [],
      "stateMutability": "nonpayable",
      "type": "function"
    },
    {
      "inputs": [
        {
          "internalType": "address",
          "name": "_dokter",
          "type": "address"
        },
        {
          "internalType": "string",
          "name": "_namaBaru",
          "type": "string"
        },
        {
          "internalType": "string",
          "name": "_spesialisasiBaru",
          "type": "string"
        },
        {
          "internalType": "string",
          "name": "_nomorLisensiBaru",
          "type": "string"
        }
      ],
      "name": "updateDokterInfo",
      "outputs": [],
      "stateMutability": "nonpayable",
      "type": "function"
    },
    {
      "inputs": [
        {
          "internalType": "address",
          "name": "_dokter",
          "type": "address"
        },
        {
          "internalType": "bool",
          "name": "_aktif",
          "type": "bool"
        }
      ],
      "name": "setStatusDokter",
      "outputs": [],
      "stateMutability": "nonpayable",
      "type": "function"
    },
    {
      "inputs": [],
      "name": "totalDokter",
      "outputs": [
        {
          "internalType": "uint256",
          "name": "",
          "type": "uint256"
        }
      ],
      "stateMutability": "view",
      "type": "function",
      "constant": true
    },
    {
      "inputs": [
        {
          "internalType": "uint256",
          "name": "idx",
          "type": "uint256"
        }
      ],
      "name": "getDokterByIndex",
      "outputs": [
        {
          "internalType": "address",
          "name": "",
          "type": "address"
        }
      ],
      "stateMutability": "view",
      "type": "function",
      "constant": true
    },
    {
      "inputs": [
        {
          "internalType": "address",
          "name": "_dokter",
          "type": "address"
        }
      ],
      "name": "getDokter",
      "outputs": [
        {
          "internalType": "string",
          "name": "nama",
          "type": "string"
        },
        {
          "internalType": "string",
          "name": "spesialisasi",
          "type": "string"
        },
        {
          "internalType": "string",
          "name": "nomorLisensi",
          "type": "string"
        },
        {
          "internalType": "bool",
          "name": "aktif",
          "type": "bool"
        },
        {
          "internalType": "address[]",
          "name": "pasienList",
          "type": "address[]"
        },
        {
          "internalType": "address",
          "name": "adminRS",
          "type": "address"
        }
      ],
      "stateMutability": "view",
      "type": "function",
      "constant": true
    },
    {
      "inputs": [
        {
          "internalType": "address",
          "name": "_pasien",
          "type": "address"
        },
        {
          "internalType": "string",
          "name": "_nama",
          "type": "string"
        },
        {
          "internalType": "address",
          "name": "_adminRS",
          "type": "address"
        }
      ],
      "name": "registerPasien",
      "outputs": [],
      "stateMutability": "nonpayable",
      "type": "function"
    },
    {
      "inputs": [
        {
          "internalType": "string",
          "name": "_nama",
          "type": "string"
        },
        {
          "internalType": "string",
          "name": "_golonganDarah",
          "type": "string"
        },
        {
          "internalType": "string",
          "name": "_tanggalLahir",
          "type": "string"
        },
        {
          "internalType": "string",
          "name": "_gender",
          "type": "string"
        },
        {
          "internalType": "string",
          "name": "_alamat",
          "type": "string"
        },
        {
          "internalType": "string",
          "name": "_noTelepon",
          "type": "string"
        },
        {
          "internalType": "string",
          "name": "_email",
          "type": "string"
        },
        {
          "internalType": "address",
          "name": "_adminRS",
          "type": "address"
        }
      ],
      "name": "selfRegisterPasien",
      "outputs": [],
      "stateMutability": "nonpayable",
      "type": "function"
    },
    {
      "inputs": [],
      "name": "getDaftarPasien",
      "outputs": [
        {
          "internalType": "address[]",
          "name": "",
          "type": "address[]"
        }
      ],
      "stateMutability": "view",
      "type": "function",
      "constant": true
    },
    {
      "inputs": [
        {
          "internalType": "address",
          "name": "_pasien",
          "type": "address"
        }
      ],
      "name": "getPasienData",
      "outputs": [
        {
          "internalType": "string",
          "name": "nama",
          "type": "string"
        },
        {
          "internalType": "string",
          "name": "golonganDarah",
          "type": "string"
        },
        {
          "internalType": "string",
          "name": "tanggalLahir",
          "type": "string"
        },
        {
          "internalType": "string",
          "name": "gender",
          "type": "string"
        },
        {
          "internalType": "string",
          "name": "alamat",
          "type": "string"
        },
        {
          "internalType": "string",
          "name": "noTelepon",
          "type": "string"
        },
        {
          "internalType": "string",
          "name": "email",
          "type": "string"
        },
        {
          "internalType": "address",
          "name": "rumahSakitPenanggungJawab",
          "type": "address"
        }
      ],
      "stateMutability": "view",
      "type": "function",
      "constant": true
    },
    {
      "inputs": [
        {
          "internalType": "address",
          "name": "_dokter",
          "type": "address"
        },
        {
          "internalType": "address",
          "name": "_pasien",
          "type": "address"
        }
      ],
      "name": "assignPasienToDokter",
      "outputs": [],
      "stateMutability": "nonpayable",
      "type": "function"
    },
    {
      "inputs": [
        {
          "internalType": "address",
          "name": "_pasien",
          "type": "address"
        },
        {
          "internalType": "string",
          "name": "_diagnosa",
          "type": "string"
        },
        {
          "internalType": "string",
          "name": "_foto",
          "type": "string"
        },
        {
          "internalType": "string",
          "name": "_catatan",
          "type": "string"
        }
      ],
      "name": "tambahRekamMedis",
      "outputs": [],
      "stateMutability": "nonpayable",
      "type": "function"
    },
    {
      "inputs": [
        {
          "internalType": "uint256",
          "name": "_id",
          "type": "uint256"
        },
        {
          "internalType": "string",
          "name": "_diagnosa",
          "type": "string"
        },
        {
          "internalType": "string",
          "name": "_foto",
          "type": "string"
        },
        {
          "internalType": "string",
          "name": "_catatan",
          "type": "string"
        }
      ],
      "name": "updateRekamMedis",
      "outputs": [],
      "stateMutability": "nonpayable",
      "type": "function"
    },
    {
      "inputs": [
        {
          "internalType": "address",
          "name": "_pasien",
          "type": "address"
        }
      ],
      "name": "getRekamMedisIdsByPasien",
      "outputs": [
        {
          "internalType": "uint256[]",
          "name": "",
          "type": "uint256[]"
        }
      ],
      "stateMutability": "view",
      "type": "function",
      "constant": true
    },
    {
      "inputs": [
        {
          "internalType": "uint256",
          "name": "_id",
          "type": "uint256"
        }
      ],
      "name": "getRekamMedis",
      "outputs": [
        {
          "internalType": "uint256",
          "name": "id",
          "type": "uint256"
        },
        {
          "internalType": "address",
          "name": "pasien",
          "type": "address"
        },
        {
          "internalType": "string",
          "name": "diagnosa",
          "type": "string"
        },
        {
          "internalType": "string",
          "name": "foto",
          "type": "string"
        },
        {
          "internalType": "string",
          "name": "catatan",
          "type": "string"
        },
        {
          "internalType": "bool",
          "name": "valid",
          "type": "bool"
        }
      ],
      "stateMutability": "view",
      "type": "function",
      "constant": true
    },
    {
      "inputs": [
        {
          "internalType": "uint256",
          "name": "_id",
          "type": "uint256"
        }
      ],
      "name": "getRekamMedisVersions",
      "outputs": [
        {
          "components": [
            {
              "internalType": "uint256",
              "name": "id",
              "type": "uint256"
            },
            {
              "internalType": "address",
              "name": "pasien",
              "type": "address"
            },
            {
              "internalType": "string",
              "name": "diagnosa",
              "type": "string"
            },
            {
              "internalType": "string",
              "name": "foto",
              "type": "string"
            },
            {
              "internalType": "string",
              "name": "catatan",
              "type": "string"
            },
            {
              "internalType": "bool",
              "name": "valid",
              "type": "bool"
            }
          ],
          "internalType": "struct RekamMedisRS.RekamMedisData[]",
          "name": "",
          "type": "tuple[]"
        }
      ],
      "stateMutability": "view",
      "type": "function",
      "constant": true
    },
    {
      "inputs": [
        {
          "internalType": "uint256",
          "name": "_id",
          "type": "uint256"
        }
      ],
      "name": "getRekamMedisUpdateHistory",
      "outputs": [
        {
          "internalType": "address[]",
          "name": "actors",
          "type": "address[]"
        },
        {
          "internalType": "uint256[]",
          "name": "timestamps",
          "type": "uint256[]"
        }
      ],
      "stateMutability": "view",
      "type": "function",
      "constant": true
    },
    {
      "inputs": [
        {
          "internalType": "uint256",
          "name": "_id",
          "type": "uint256"
        }
      ],
      "name": "nonaktifkanRekamMedis",
      "outputs": [],
      "stateMutability": "nonpayable",
      "type": "function"
    },
    {
      "inputs": [
        {
          "internalType": "address",
          "name": "_newAdmin",
          "type": "address"
        }
      ],
      "name": "setSuperAdmin",
      "outputs": [],
      "stateMutability": "nonpayable",
      "type": "function"
    },
    {
      "inputs": [
        {
          "internalType": "address",
          "name": "_user",
          "type": "address"
        }
      ],
      "name": "getUserRole",
      "outputs": [
        {
          "internalType": "string",
          "name": "",
          "type": "string"
        }
      ],
      "stateMutability": "view",
      "type": "function",
      "constant": true
    }
  ],
  "bytecode": "0x6080806040523461003c57600080546001600160a01b03191673b0dc0bf642d339517438017fc185bb0f758a01d2179055614a9990816100428239f35b600080fdfe6080604052600436101561001257600080fd5b60003560e01c8062410cb314613d4f578063046bdbcc14613ce1578063083d882414613bf05780631132beb514613bb15780631570005214613b1557806319d9d3dd14613a9457806319e8f40514613866578063278208511461382e57806329575f6a146138055780632e2dd102146137e75780633aaec728146130925780633bf763031461302f5780633da0551814612ebf5780634269965114612e9657806347960cb514612e0357806351887b6714612d6e5780635c4c934814612d2f5780635e6da24c14612afb578063623785c114612a8d57806364319e3314612a6f5780636837008714612a14578063786f3fbe146128f15780637d3e9db8146128d3578063911b633a14612891578063924b912314612783578063932e0f6d146126cd57806397259550146126815780639dbde11814611d76578063a665102c14611c48578063abf72abb14611c05578063ad3c970814611943578063b75de7a814611543578063c3c0fdea14611496578063c967ede8146113f2578063d688780214611265578063dd09a968146111e2578063ddbd24d314610c68578063df83dde0146102ad5763f2ab4a99146101c857600080fd5b346102a8576101d6366140fc565b60005490916001600160a01b03916101f190831633146141f1565b169081600052600160205261020a604060002054613f03565b156102635760207fd2e4d0240eabf0011425eb3fffbc4f311cd4b564ba547aba4b3163fd046f6a979183600052600182526102588160016040600020019060ff801983541691151516179055565b6040519015158152a2005b60405162461bcd60e51b815260206004820152601960248201527f41646d696e20525320746964616b20646974656d756b616e2e000000000000006044820152606490fd5b600080fd5b346102a85760603660031901126102a8576102c6613da7565b6024356001600160401b0381116102a8576102e5903690600401613ed6565b906044356001600160a01b03811690036102a85733600052600160205261031660ff60016040600020015416614381565b6001600160a01b03831660009081526007602052604090205460ff16610c11576001600160a01b03831660009081526004602052604090205460ff16610ba65760018060a01b0360443516600052600160205260ff6001604060002001541615610b56576044356001600160a01b03163303610ae0576001600160a01b03831660009081526007602052604090819020805460ff1916600117905551926103bc84613f73565b6103c736848461425a565b84526040516103d581613f8f565b6000815260208501526040516103ea81613f8f565b6000815260408501526040516103ff81613f8f565b60008152606085015260405161041481613f8f565b60008152608085015260405161042981613f8f565b6000815260a085015260405161043e81613f8f565b600080825260c08601919091526001600160a01b03604435811660e087015260016101008701528216815260066020526040902084518051919591906001600160401b0382116107fa57819061049e826104988a54613f03565b8a6142b7565b602090601f8311600114610a7457600092610a69575b50508160011b916000199060031b1c19161785555b60208101518051906001600160401b0382116107fa5781906104fb826104f260018b0154613f03565b60018b016142b7565b602090601f83116001146109f7576000926109ec575b50508160011b916000199060031b1c19161760018601555b60408101518051906001600160401b0382116107fa57819061055b8261055260028b0154613f03565b60028b016142b7565b602090601f831160011461097a5760009261096f575b50508160011b916000199060031b1c19161760028601555b60608101518051906001600160401b0382116107fa5781906105bb826105b260038b0154613f03565b60038b016142b7565b602090601f83116001146108fd576000926108f2575b50508160011b916000199060031b1c19161760038601555b608081015180516001600160401b0381116107fa57806004880192610618826106128654613f03565b866142b7565b602090601f831160011461088c57600092610881575b50508160011b916000199060031b1c19161790555b60a081015180516001600160401b0381116107fa5780600588019261066c826106128654613f03565b602090601f831160011461081b57600092610810575b50508160011b916000199060031b1c19161790555b60c08101519485516001600160401b0381116107fa576106c7816106be6006850154613f03565b600685016142b7565b6020601f821160011461077857908060079392600080516020614a44833981519152989960009261076d575b50508160011b916000199060031b1c19161760068201555b019060018060a01b0360e08201511682549161010060ff60a01b910151151560a01b16916affffffffffffffffffffff60a81b161717905561074c816142fc565b61076860405192839260018060a01b031695604435918461440a565b0390a2005b0151905089806106f3565b6006830160005260206000209760005b601f19841681106107e2575091600080516020614a4483398151915297986001926007959483601f198116106107c9575b505050811b01600682015561070b565b015160001960f88460031b161c191690558980806107b9565b828201518a5560019099019860209283019201610788565b634e487b7160e01b600052604160045260246000fd5b015190508880610682565b6000858152602081209350601f198516905b8181106108695750908460019594939210610850575b505050811b019055610697565b015160001960f88460031b161c19169055888080610843565b9293602060018192878601518155019501930161082d565b01519050888061062e565b6000858152602081209350601f198516905b8181106108da57509084600195949392106108c1575b505050811b019055610643565b015160001960f88460031b161c191690558880806108b4565b9293602060018192878601518155019501930161089e565b0151905087806105d1565b9250600388016000526020600020906000935b601f1984168510610954576001945083601f1981161061093b575b505050811b0160038601556105e9565b015160001960f88460031b161c1916905587808061092b565b81810151835560209485019460019093019290910190610910565b015190508780610571565b9250600288016000526020600020906000935b601f19841685106109d1576001945083601f198116106109b8575b505050811b016002860155610589565b015160001960f88460031b161c191690558780806109a8565b8181015183556020948501946001909301929091019061098d565b015190508780610511565b9250600188016000526020600020906000935b601f1984168510610a4e576001945083601f19811610610a35575b505050811b016001860155610529565b015160001960f88460031b161c19169055878080610a25565b81810151835560209485019460019093019290910190610a0a565b0151905087806104b4565b9250876000526020600020906000935b601f1984168510610ac5576001945083601f19811610610aac575b505050811b0185556104c9565b015160001960f88460031b161c19169055878080610a9f565b81810151835560209485019460019093019290910190610a84565b60405162461bcd60e51b815260206004820152604260248201527f48616e79612061646d696e2052532070656e616e6767756e67206a617761622060448201527f79616e672062697361206d656e6461667461726b616e2070617369656e20696e606482015261349760f11b608482015260a490fd5b60405162461bcd60e51b815260206004820152602260248201527f41646d696e2052532079616e6720646972756a756b20746964616b20616b7469604482015261331760f11b6064820152608490fd5b60405162461bcd60e51b815260206004820152603f60248201527f416c616d617420696e6920746572646166746172207365626167616920646f6b60448201527f7465722c20746964616b2062697361206d656e6a6164692070617369656e2e006064820152608490fd5b60405162461bcd60e51b815260206004820152602960248201527f50617369656e207375646168207465726461667461722064656e67616e20616c60448201526830b6b0ba1034b7349760b91b6064820152608490fd5b346102a857610c763661415d565b90959291949395336000526001602052610c9a60ff60016040600020015416614381565b6001600160a01b03841660009081526004602052604090205460ff1661118a576001600160a01b03841660009081526007602052604090205460ff1661111f57610d409160018060a01b03851660005260046020526040600020600160ff19825416179055610d3460405194610d0f86613f8f565b6000865260405198610d208a613f3d565b610d2b368c8b61425a565b8a52369161425a565b6020880152369161425a565b60408501526001606085015260808401523360a084015260018060a01b038116600052600360205260406000209280518051906001600160401b0382116107fa578190610d9782610d918954613f03565b896142b7565b602090601f83116001146110b3576000926110a8575b50508160011b916000199060031b1c19161784555b60208101518051906001600160401b0382116107fa578190610df482610deb60018a0154613f03565b60018a016142b7565b602090601f83116001146110365760009261102b575b50508160011b916000199060031b1c19161760018501555b604081015180516001600160401b0381116107fa57806002870192610e4b826106128654613f03565b602090601f8311600114610fc557600092610fba575b50508160011b916000199060031b1c19161790555b610e9560608201511515600386019060ff801983541691151516179055565b60048401936080820151948551906001600160401b0382116107fa57600160401b968783116107fa576020908254848455808510610f9d575b500190600052602060002060005b838110610f8057505050506005019060a0600180821b03910151166bffffffffffffffffffffffff60a01b825416179055600554928310156107fa57610f498360017f5c9d12a5bfda65f31ab460df37935bfe7b6cfa6a3787bf1f99858ccc15dc92779501600555613dbd565b81546001600160a01b0393841660039290921b82811b94901b1916929092179055604051909390918291610768913391908461440a565b82516001600160a01b031681830155602090920191600101610edc565b610fb49084600052858460002091820191016142a0565b8a610ece565b015190508880610e61565b6000858152602081209350601f198516905b8181106110135750908460019594939210610ffa575b505050811b019055610e76565b015160001960f88460031b161c19169055888080610fed565b92936020600181928786015181550195019301610fd7565b015190508780610e0a565b9250600187016000526020600020906000935b601f198416851061108d576001945083601f19811610611074575b505050811b016001850155610e22565b015160001960f88460031b161c19169055878080611064565b81810151835560209485019460019093019290910190611049565b015190508780610dad565b9250866000526020600020906000935b601f1984168510611104576001945083601f198116106110eb575b505050811b018455610dc2565b015160001960f88460031b161c191690558780806110de565b818101518355602094850194600190930192909101906110c3565b60405162461bcd60e51b815260206004820152603f60248201527f416c616d617420696e692074657264616674617220736562616761692070617360448201527f69656e2c20746964616b2062697361206d656e6a61646920646f6b7465722e006064820152608490fd5b60405162461bcd60e51b815260206004820152602a60248201527f416c616d617420696e692073756461682074657264616674617220736562616760448201526930b4903237b5ba32b91760b11b6064820152608490fd5b346102a8576111f03661412b565b90600052600c60205260406000209081548110156102a857611211916141d5565b50805460018201546001600160a01b0316916112619061123360028201613fcb565b9061124060038201613fcb565b60ff600561125060048501613fcb565b930154169260405196879687614071565b0390f35b346102a8576020806003193601126102a857600435600052600c8152604060002090815491611293836143f3565b926112a16040519485613faa565b8084528284018092600052836000206000915b8383106113775750505050604051918083019381845251809452604083019360408160051b85010192916000955b8287106112ef5785850386f35b909192938280600192603f1989820301855287519081518152848060a01b0383830151168382015261135b611348611335604085015160c0806040870152850190613e96565b6060808601519085830390860152613e96565b6080808501519084830390850152613e96565b9160a080910151151591015296019201960195929190926112e2565b60068660019260409998995161138c81613f3d565b85548152848060a01b038587015416838201526113ab60028701613fcb565b60408201526113bc60038701613fcb565b60608201526113cd60048701613fcb565b608082015260ff600587015416151560a08201528152019201920191909594956112b4565b346102a8576020806003193601126102a8576001600160a01b03611414613da7565b16806000526007825261142e60ff604060002054166144e3565b600052600a8152604060002090604051808383829554938481520190600052836000209260005b858282106114805750505061146c92500383613faa565b6112616040519282849384528301906140c8565b8554845260019586019588955093019201611455565b346102a85760203660031901126102a8576115166001600160a01b03806114bb613da7565b16600052600360205260406000206114d281613fcb565b916115326114e260018401613fcb565b916115246114f260028601613fcb565b91600560ff600388015416960154169360405197889760a0895260a0890190613e96565b908782036020890152613e96565b908582036040870152613e96565b911515606084015260808301520390f35b346102a8576115513661415d565b9594929093919533600052600160205261157560ff60016040600020015416614381565b60018060a01b0391828716600052600460205260ff60406000205416156118f4578287166000526003978860205233846005604060002001541603611895578388166000528860205260406000206001600160401b038087116107fa576115e6876115e08454613f03565b846142b7565b866000601f821160011461183057600091611825575b50600019888d1b1c1916600188901b1782555b8083116107fa576001820161162e846116288354613f03565b836142b7565b836000601f82116001146117c2576000916117b7575b50600019858e1b1c1916600185901b1790555b84116107fa576116778461166e6002840154613f03565b600284016142b7565b6000601f851160011461171a579184939160027f4e15ca2ba26538cdb1e2f0d595a1ec96fe8fbb126404e0cc083426c33ccbdd959a9b9c61170a98976116f89660009161170f575b508760011b9188600019911b1c1916179101555b6116ea60405198899860608a5260608a0191614360565b918783036020890152614360565b91848303604086015233981696614360565b0390a3005b90508d01358f6116bf565b99601f198516906002830160005260206000209160005b81811061179f5750917f4e15ca2ba26538cdb1e2f0d595a1ec96fe8fbb126404e0cc083426c33ccbdd959a9b9c8796949261170a99986116f8979510611785575b5050506002600186811b019101556116d3565b60f888600019921b161c19908d01351690558c8080611772565b8b8e0135845560209d8e019d60019094019301611731565b90508501358d611644565b60008381526020812092505b601f198716811061180d575085601f198116106117f5575b5050600184811b019055611657565b860135600019868f1b60f8161c191690558c806117e6565b9091602060018192858b0135815501930191016117ce565b90508801358c6115fc565b60008481526020812092508990601f198216905b8c82821061187b57505010611863575b5050600187811b01825561160f565b890135600019898e1b60f8161c191690558b80611854565b84013585556001909401936020938401938c935001611844565b60405162461bcd60e51b815260206004820152603160248201527f416e64612062756b616e2061646d696e2052532079616e672062657268616b206044820152703ab73a3ab5903237b5ba32b91034b7349760791b6064820152608490fd5b60405162461bcd60e51b815260206004820152602160248201527f446f6b74657220746964616b207465726461667461722064692073697374656d6044820152601760f91b6064820152608490fd5b346102a8576119513661415d565b949160009693949660018060a01b038086169586331480611bed575b15611b335750505060015b15611ac8576119f2611a109285600052602097600689526119a660ff60076040600020015460a01c1661452f565b6119e66119b4600b5461457b565b9889600b55604051956119c687613f3d565b8a8752898c8801526119da8d36908b61425a565b6040880152369161425a565b6060850152369161425a565b6080820152600160a0820152846000526009865260406000206145a0565b81600052600a8452604060002094855492600160401b8410156107fa57611a61847f8647b41d1ffdc302f876f0e70e0c442d110a3c8bad284218f99616149394c997986001611abc97018155613e41565b81549060031b9087821b91600019901b191617905584600052600d8652611aa0604060002060405190611a9382613f58565b338252428983015261483b565b6040519586958652850152608060408501526080840191614360565b600160608301520390a1005b60405162461bcd60e51b815260206004820152603960248201527f416b746f7220746964616b2062657268616b206d656e616d6261682072656b6160448201527f6d206d6564697320756e74756b2070617369656e20696e692e000000000000006064820152608490fd5b33600052600460205260ff6040600020541680611bd6575b611b57575b5050611978565b86600052600660205260ff60076040600020015460a01c169182611ba3575b5081611b92575b50611b8a575b8880611b50565b506001611b83565b611b9d915033614889565b89611b7d565b9091503360005260036020528060056040600020015416908760005260066020526007604060002001541614908a611b76565b50600360205260ff60036040600020015416611b4b565b5086600052600760205260ff6040600020541661196d565b346102a85760203660031901126102a8576004356000908152600960205260409020805460018201546001600160a01b0316916112619061123360028201613fcb565b346102a85760203660031901126102a8576001600160a01b0380611c6a613da7565b16806000526007602052611c8560ff604060002054166144e3565b6000526006602052611d18604060002091600783015416611d6c611ca884613fcb565b611d5e611cb760018701613fcb565b95611d50611cc760028301613fcb565b611d42611cd660038501613fcb565b611d34611ce560048701613fcb565b93611d26611d016006611cfa60058b01613fcb565b9901613fcb565b996040519e8f9e8f92610100808552840190613e96565b916020818403910152613e96565b8c810360408e015290613e96565b908a820360608c0152613e96565b9088820360808a0152613e96565b9086820360a0880152613e96565b9084820360c0860152613e96565b9060e08301520390f35b346102a8576101003660031901126102a8576004356001600160401b0381116102a857611da7903690600401613ed6565b906024356001600160401b0381116102a857611dc7903690600401613ed6565b906044356001600160401b0381116102a857611de7903690600401613ed6565b906064356001600160401b0381116102a857611e07903690600401613ed6565b906084356001600160401b0381116102a857611e27903690600401613ed6565b909160a4356001600160401b0381116102a857611e48903690600401613ed6565b94909560c4356001600160401b0381116102a857611e6a903690600401613ed6565b909990989060e4356001600160a01b03811690036102a85733600052600760205260ff604060002054166126305733600052600460205260ff604060002054166125df5760018060a01b0360e43516600052600160205260ff600160406000200154161561257b578d9b336000526007602052604060002060ff1981541660011790558d6040519d611efb8f613f73565b3690611f069261425a565b8d523690611f139261425a565b60208c01523690611f239261425a565b60408a01523690611f339261425a565b60608801523690611f439261425a565b60808601523690611f539261425a565b60a08401523690611f639261425a565b60c082015260e4356001600160a01b031660e0820152600161010082015233600090815260066020526040902081518051906001600160401b0382116107fa578190611fb3826106128654613f03565b602090601f83116001146125155760009261250a575b50508160011b916000199060031b1c19161781555b602082015180516001600160401b0381116107fa57806001840192612007826106128654613f03565b602090601f83116001146124a457600092612499575b50508160011b916000199060031b1c19161790555b604082015180516001600160401b0381116107fa5780600284019261205b826106128654613f03565b602090601f831160011461243357600092612428575b50508160011b916000199060031b1c19161790555b606082015180516001600160401b0381116107fa578060038401926120af826106128654613f03565b602090601f83116001146123c2576000926123b7575b50508160011b916000199060031b1c19161790555b608082015180516001600160401b0381116107fa57806004840192612103826106128654613f03565b602090601f831160011461235157600092612346575b50508160011b916000199060031b1c19161790555b60a082015180516001600160401b0381116107fa57806005840192612157826106128654613f03565b602090601f83116001146122e0576000926122d5575b50508160011b916000199060031b1c19161790555b6006810160c08301518051906001600160401b0382116107fa576121b0826121aa8554613f03565b856142b7565b602090601f8311600114612255579282600793600080516020614a44833981519152989693610768989660009261224a575b50508160011b916000199060031b1c19161790555b019060018060a01b0360e08201511682549161010060ff60a01b910151151560a01b16916affffffffffffffffffffff60a81b1617179055612238336142fc565b604051918291339560e435918461440a565b015190508a806121e2565b90601f198316918460005260206000209260005b8181106122bd575093600080516020614a4483398151915298969361076898969360019383600798106122a4575b505050811b0190556121f7565b015160001960f88460031b161c191690558a8080612297565b92936020600181928786015181550195019301612269565b01519050878061216d565b6000858152602081209350601f198516905b81811061232e5750908460019594939210612315575b505050811b019055612182565b015160001960f88460031b161c19169055878080612308565b929360206001819287860151815501950193016122f2565b015190508780612119565b6000858152602081209350601f198516905b81811061239f5750908460019594939210612386575b505050811b01905561212e565b015160001960f88460031b161c19169055878080612379565b92936020600181928786015181550195019301612363565b0151905087806120c5565b6000858152602081209350601f198516905b81811061241057509084600195949392106123f7575b505050811b0190556120da565b015160001960f88460031b161c191690558780806123ea565b929360206001819287860151815501950193016123d4565b015190508780612071565b6000858152602081209350601f198516905b8181106124815750908460019594939210612468575b505050811b019055612086565b015160001960f88460031b161c1916905587808061245b565b92936020600181928786015181550195019301612445565b01519050878061201d565b6000858152602081209350601f198516905b8181106124f257509084600195949392106124d9575b505050811b019055612032565b015160001960f88460031b161c191690558780806124cc565b929360206001819287860151815501950193016124b6565b015190508680611fc9565b6000858152602081209350601f198516905b818110612563575090846001959493921061254a575b505050811b018155611fde565b015160001960f88460031b161c1916905586808061253d565b92936020600181928786015181550195019301612527565b60405162461bcd60e51b815260206004820152603660248201527f52756d61682053616b69742079616e6720646970696c696820746964616b206160448201527535ba34b31030ba30ba903a34b230b5903b30b634b21760511b6064820152608490fd5b60405162461bcd60e51b8152602060048201526024808201527f416c616d617420696e6920746572646166746172207365626167616920646f6b6044820152633a32b91760e11b6064820152608490fd5b60405162461bcd60e51b8152602060048201526024808201527f416e64612073756461682074657264616674617220736562616761692070617360448201526334b2b71760e11b6064820152608490fd5b346102a85761268f3661412b565b90600052600d602052604060002080548210156102a8576040916126b291614141565b506001808060a01b0382541691015482519182526020820152f35b346102a85760207f3dcd68c14f5f191f12b3b56bf35d5d7eb22447e9ec685290967b4558822ca98a6126fe366140fc565b929092336000526001825261271d60ff60016040600020015416614381565b61275e60018060a01b0380951694856000526004845261274460ff60406000205416614433565b85600052600384523390600560406000200154161461447f565b83600052600382526102588160036040600020019060ff801983541691151516179055565b346102a8576020806003193601126102a85760043580600052600d908183526040600020546127b1816143f3565b926127bf6040519485613faa565b818452601f1992836127d0846143f3565b0136878701376127df836143f3565b936127ed6040519586613faa565b8385526127f9846143f3565b01368786013760005b83811061283357612826866112618988604051948594604086526040860190613e59565b91848303908501526140c8565b61288c908260005283885261284c816040600020614141565b50546001600160a01b0316612861828961493e565b52826000528388526001612879826040600020614141565b500154612886828861493e565b5261457b565b612802565b346102a85760203660031901126102a8576004356002548110156102a8576128ba602091613e0a565b905460405160039290921b1c6001600160a01b03168152f35b346102a85760003660031901126102a8576020600554604051908152f35b346102a85760203660031901126102a8576001600160a01b0380612913613da7565b16600052600660205260406000209061292b82613fcb565b9061293860018401613fcb565b9261294560028201613fcb565b9061295260038201613fcb565b61295e60048301613fcb565b61296a60058401613fcb565b9161297760068501613fcb565b936007015494604051988998610120808b528a0161299491613e96565b89810360208b01526129a591613e96565b88810360408a01526129b691613e96565b87810360608901526129c791613e96565b86810360808801526129d891613e96565b85810360a08701526129e991613e96565b84810360c08601526129fa91613e96565b91811660e084015260a01c60ff1615156101008301520390f35b346102a85760203660031901126102a8576004356008548110156102a85760086000527ff3f7a9fe364faab93b216da50a3214154f22a0a2b415b23a84c8169e8b636ee301546040516001600160a01b039091168152602090f35b346102a85760003660031901126102a8576020600254604051908152f35b346102a85760203660031901126102a857600435600254811015612ab6576128ba602091613e0a565b60405162461bcd60e51b815260206004820152601c60248201527f496e64656b732061646d696e20525320746964616b2076616c69642e000000006044820152606490fd5b346102a85760403660031901126102a857612b14613da7565b6001600160401b036024358181116102a857612b34903690600401613ed6565b909160018060a01b038094612b4e826000541633146141f1565b169384600052600193602092858452612b6b604060002054613f03565b612cd657604051612b7b81613f58565b612b8636878561425a565b815284810187815288600052878652604060002091519081519384116107fa578891612bb6856106128654613f03565b8790601f8611600114612c6d57612bfb959160009183612c62575b5050600019600383901b1c191690831b1783555b51151591019060ff801983541691151516179055565b60025491600160401b8310156107fa57612c3e837fc881e1c26fa1da107683b7f0c3f1689379721f2118918ff97cb8c0f0dfc9d354976107689501600255613e0a565b819291549060031b9189831b921b1916179055604051938385948552840191614360565b015190508c80612bd1565b90601f1986169185600052896000209260005b8b828210612cc05750509185939188612bfb999410612ca7575b505050811b018355612be5565b015160001960f88460031b161c191690558c8080612c9a565b8385015186558e97909501949384019301612c80565b60405162461bcd60e51b815260048101859052602b60248201527f41646d696e205253207375646168207465726461667461722064656e67616e2060448201526a30b630b6b0ba1034b7349760a91b6064820152608490fd5b346102a85760203660031901126102a8576001600160a01b03612d50613da7565b166000526004602052602060ff604060002054166040519015158152f35b346102a85760003660031901126102a8576040518060085480825282602080930160086000527ff3f7a9fe364faab93b216da50a3214154f22a0a2b415b23a84c8169e8b636ee39260005b85828210612de457505050612dd092500383613faa565b611261604051928284938452830190613e59565b85546001600160a01b0316845260019586019588955093019201612db9565b346102a85760203660031901126102a8576004356000818152600960205260409020600101546001600160a01b039190612e4090831615156148f2565b60005260096020526040600020906112618254916001840154169260ff60058201541690612e7060028201613fcb565b90612e896004612e8260038401613fcb565b9201613fcb565b9160405196879687614071565b346102a85760203660031901126102a8576004356005548110156102a8576128ba602091613dbd565b346102a8576020806003193601126102a8576001600160a01b039081612ee3613da7565b16806000526004825260ff6040600020541615612fea576000526003815260406000209060ff6003830154169260048301908060058501541692612f2685613fcb565b94600193612f416002612f3a878501613fcb565b9301613fcb565b93604051958685845491828152019360005285600020926000905b828210612fd357505050505092612fa68593612fb493612f85612fc998612f999c980387613faa565b6040519a8b9a60c08c5260c08c0190613e96565b918a8303908b0152613e96565b908782036040890152613e96565b91151560608601528482036080860152613e59565b9060a08301520390f35b845481168652948701949383019390830190612f5c565b60405162461bcd60e51b815260048101839052601760248201527f446f6b74657220746964616b20646974656d756b616e2e0000000000000000006044820152606490fd5b346102a85760203660031901126102a8576001600160a01b03613050613da7565b166000526001602052613086604060002060ff600161306e83613fcb565b92015416604051928392604084526040840190613e96565b90151560208301520390f35b346102a85760803660031901126102a8576024356001600160401b0381116102a8576130c2903690600401613ed6565b906044356001600160401b0381116102a8576130e2903690600401613ed6565b92906064356001600160401b0381116102a857613103903690600401613ed6565b919094600435600052600960205260018060a01b036001604060002001541633600052600460205260ff60406000205416806137d0575b156137955780600052600660205261315f60ff60076040600020015460a01c1661452f565b33600052600360205260018060a01b036005604060002001541681600052600660205260018060a01b03600760406000200154160361372a576000903360005260036020526004604060002001906000918054925b8381106136ea575b505050501561367f57600435600052600960205260406000209160018060a01b0360018401541680156136215760ff600585015416156135c357600435600052600c60205260406000208454916040519261321684613f3d565b8352602083015261322960028601613fcb565b604083015261323a60038601613fcb565b606083015261324b60048601613fcb565b6080830152600160a08301528054600160401b8110156107fa57613274916001820181556141d5565b9190916135ad57613284916145a0565b6001600160401b0385116107fa576132ac856132a36002860154613f03565b600286016142b7565b846000601f821160011461353f57600091613534575b508560011b906000198760031b1c19161760028401555b6001600160401b0382116107fa578190613303826132fa6003870154613f03565b600387016142b7565b600090601f83116001146134c3576000926134b8575b50508160011b916000199060031b1c19161760038201555b6001600160401b0382116107fa57613359826133506004840154613f03565b600484016142b7565b6000601f831160011461342557917fa06c67f47503323e059cd610f8be787c36f230a67a8ad4dc026d86692b66476b95916004826134099560009161341a575b508360011b906000198560031b1c1916179101555b600435600052600d6020526133dc6040600020604051906133ce82613f58565b33825242602083015261483b565b6133fb604051958695600435875260a0602088015260a0870191614360565b918483036040860152614360565b3360608301524260808301520390a1005b905084013589613399565b601f198316906004830160005260206000209160005b8181106134a05750917fa06c67f47503323e059cd610f8be787c36f230a67a8ad4dc026d86692b66476b97939185613409969410613486575b50506004600183811b019101556133ae565b840135600019600385901b60f8161c191690558780613474565b9192602060018192868c01358155019401920161343b565b013590508780613319565b909250600384016000526020600020906000935b601f198416851061351c576001945083601f19811610613502575b505050811b016003820155613331565b0135600019600384901b60f8161c191690558780806134f2565b818101358355602094850194600190930192016134d7565b9050860135886132c2565b90506002840160005260206000209060005b601f1988168110613595575086601f1981161061357b575b5050600185811b0160028401556132d9565b870135600019600388901b60f8161c191690558780613569565b9091602060018192858c013581550193019101613551565b634e487b7160e01b600052600060045260246000fd5b60405162461bcd60e51b815260206004820152603060248201527f52656b616d206d6564697320696e6920737564616820746964616b2076616c6960448201526f3217b234b737b730b5ba34b335b0b71760811b6064820152608490fd5b60405162461bcd60e51b815260206004820152603060248201527f52656b616d206d6564697320746964616b20646974656d756b616e206174617560448201526f1024a2103a34b230b5903b30b634b21760811b6064820152608490fd5b60405162461bcd60e51b815260206004820152603c60248201527f446f6b74657220696e6920746964616b20646974756761736b616e20756e747560448201527f6b206d656e616e67616e692070617369656e2074657273656275742e000000006064820152608490fd5b826136f58284613e41565b905460039190911b1c6001600160a01b03161461371a576137159061457b565b6131b4565b50505050506001878080806131bc565b60405162461bcd60e51b815260206004820152603860248201527f446f6b7465722064616e2070617369656e20746964616b20626572616461206460448201527f692072756d61682073616b69742079616e672073616d612e00000000000000006064820152608490fd5b60405162461bcd60e51b81526020600482015260136024820152722430b73cb0903237b5ba32b91030b5ba34b31760691b6044820152606490fd5b50600360205260ff6003604060002001541661313a565b346102a85760003660031901126102a8576020600b54604051908152f35b346102a85760003660031901126102a8576000546040516001600160a01b039091168152602090f35b346102a85760203660031901126102a85761126161385261384d613da7565b614952565b604051918291602083526020830190613e96565b346102a85760403660031901126102a85761387f613da7565b6001600160a01b0390602480358381169291908390036102a8573360005283602092600184526138b960ff60016040600020015416614381565b169384600052600483526138d460ff60406000205416614433565b846000526003918284526138f33383600560406000200154161461447f565b846000526007845261390c60ff6040600020541661452f565b846000526006845233826007604060002001541603613a39578560005282845260046040600020016000918154925b8381106139b75750600160401b8310156139a3577fd9a2627959a7f46a8b96c10424cdae1f1b65151551cd206b119aca54c0a86a5a604089898989896139878a8a600182018155613e41565b81939154911b9185831b921b19161790558351928352820152a1005b634e487b7160e01b60009081526041600452fd5b87856139c38386613e41565b905490891b1c16146139dd576139d89061457b565b61393b565b60405162461bcd60e51b815260048101889052602f818401527f50617369656e20696e6920737564616820646974756761736b616e206b65206460448201526e37b5ba32b9103a32b939b2b13aba1760891b6064820152608490fd5b83602f6084926040519262461bcd60e51b845260048401528201527f50617369656e20696e6920746964616b2074657264616674617220646920727560448201526e36b0b41039b0b5b4ba1020b732309760891b6064820152fd5b346102a85760003660031901126102a8576040518060025480825282602080930160026000527f405787fa12a823e0f2b7631cc41b3ba8828b3321ca811111fa75cd3aa3bb5ace9260005b85828210613af657505050612dd092500383613faa565b85546001600160a01b0316845260019586019588955093019201613adf565b346102a85760203660031901126102a857613b2e613da7565b600054906001600160a01b0390613b4833838516146141f1565b16908115613b60576001600160a01b03191617600055005b60405162461bcd60e51b8152602060048201526024808201527f416c616d61742073757065722061646d696e206261727520746964616b2076616044820152633634b21760e11b6064820152608490fd5b346102a85760203660031901126102a8576001600160a01b03613bd2613da7565b166000526007602052602060ff604060002054166040519015158152f35b346102a8576020806003193601126102a857600435903360005260018152613c2260ff60016040600020015416614381565b60008281526009825260409020600101546001600160a01b0390613c4990821615156148f2565b826000526009825280600160406000200154166000526006825233906007604060002001541603613c8e5760009182526009905260409020600501805460ff19169055005b6084906040519062461bcd60e51b82526004820152602660248201527f41646d696e20525320746964616b2062657268616b2061746173207061736965604482015265371034b7349760d11b6064820152fd5b346102a85760203660031901126102a857600435600554811015613d0a576128ba602091613dbd565b60405162461bcd60e51b815260206004820152601a60248201527f496e64656b7320646f6b74657220746964616b2076616c69642e0000000000006044820152606490fd5b346102a85760403660031901126102a857613d68613da7565b6001600160a01b03166000908152600a60205260409020805460243591908210156102a857602091613d9991613e41565b90546040519160031b1c8152f35b600435906001600160a01b03821682036102a857565b600554811015613df45760056000527f036b6384b5eca791c62761152d0c79bb0604c104a5fb6f4eb0703f3154bb3db00190600090565b634e487b7160e01b600052603260045260246000fd5b600254811015613df45760026000527f405787fa12a823e0f2b7631cc41b3ba8828b3321ca811111fa75cd3aa3bb5ace0190600090565b8054821015613df45760005260206000200190600090565b90815180825260208080930193019160005b828110613e79575050505090565b83516001600160a01b031685529381019392810192600101613e6b565b919082519283825260005b848110613ec2575050826000602080949584010152601f8019910116010190565b602081830181015184830182015201613ea1565b9181601f840112156102a8578235916001600160401b0383116102a857602083818601950101116102a857565b90600182811c92168015613f33575b6020831014613f1d57565b634e487b7160e01b600052602260045260246000fd5b91607f1691613f12565b60c081019081106001600160401b038211176107fa57604052565b604081019081106001600160401b038211176107fa57604052565b61012081019081106001600160401b038211176107fa57604052565b602081019081106001600160401b038211176107fa57604052565b90601f801991011681019081106001600160401b038211176107fa57604052565b9060405191826000825492613fdf84613f03565b90818452600194858116908160001461404e575060011461400b575b505061400992500383613faa565b565b9093915060005260209081600020936000915b81831061403657505061400993508201013880613ffb565b8554888401850152948501948794509183019161401e565b91505061400994506020925060ff191682840152151560051b8201013880613ffb565b9491936140a46140c09460a0966140b2949a999a8952600180891b0316602089015260c0604089015260c0880190613e96565b908682036060880152613e96565b908482036080860152613e96565b931515910152565b90815180825260208080930193019160005b8281106140e8575050505090565b8351855293810193928101926001016140da565b60409060031901126102a8576004356001600160a01b03811681036102a8579060243580151581036102a85790565b60409060031901126102a8576004359060243590565b8054821015613df45760005260206000209060011b0190600090565b60806003198201126102a8576004356001600160a01b03811681036102a857916001600160401b036024358181116102a8578361419c91600401613ed6565b939093926044358381116102a857826141b791600401613ed6565b939093926064359182116102a8576141d191600401613ed6565b9091565b8054821015613df4576000526006602060002091020190600090565b156141f857565b60405162461bcd60e51b815260206004820152603460248201527f48616e79612073757065722061646d696e2079616e67206461706174206d656e6044820152733530b630b735b0b710333ab733b9b49034b7349760611b6064820152608490fd5b9291926001600160401b0382116107fa5760405191614283601f8201601f191660200184613faa565b8294818452818301116102a8578281602093846000960137010152565b8181106142ab575050565b600081556001016142a0565b9190601f81116142c657505050565b614009926000526020600020906020601f840160051c830193106142f2575b601f0160051c01906142a0565b90915081906142e5565b600854600160401b8110156107fa576001810180600855811015613df45760086000527ff3f7a9fe364faab93b216da50a3214154f22a0a2b415b23a84c8169e8b636ee30180546001600160a01b0319166001600160a01b03909216919091179055565b908060209392818452848401376000828201840152601f01601f1916010190565b1561438857565b60405162461bcd60e51b815260206004820152603c60248201527f48616e79612061646d696e2052532079616e6720616b7469662079616e67206460448201527f61706174206d656e6a616c616e6b616e2066756e67736920696e692e000000006064820152608490fd5b6001600160401b0381116107fa5760051b60200190565b9160209161442391959495604085526040850191614360565b6001600160a01b03909416910152565b1561443a57565b60405162461bcd60e51b815260206004820152601760248201527f446f6b74657220746964616b207465726461667461722e0000000000000000006044820152606490fd5b1561448657565b60405162461bcd60e51b815260206004820152602f60248201527f446f6b74657220696e6920746964616b2074657264616674617220646920727560448201526e36b0b41039b0b5b4ba1020b732309760891b6064820152608490fd5b156144ea57565b60405162461bcd60e51b815260206004820152601760248201527f50617369656e20746964616b20646974656d756b616e2e0000000000000000006044820152606490fd5b1561453657565b60405162461bcd60e51b815260206004820152601760248201527f50617369656e20746964616b207465726461667461722e0000000000000000006044820152606490fd5b600019811461458a5760010190565b634e487b7160e01b600052601160045260246000fd5b815181556001918282019260209360018060a01b0385840151166bffffffffffffffffffffffff60a01b8254161790556002830160408301519081516001600160401b03928382116107fa5781906145fc826106128654613f03565b8890601f83116001146147d8576000926147cd575b5050600019600383901b1c191690841b1790555b6003840160608401518051908382116107fa578190614648826106128654613f03565b8890601f831160011461476a5760009261475f575b5050600019600383901b1c191690841b1790555b600484019160808401519586519283116107fa57614693836106128654613f03565b80601f84116001146146eb575091808060a09593600597956140099a6000946146e0575b50501b916000199060031b1c19161790555b0151151591019060ff801983541691151516179055565b0151925038806146b7565b9193949596601f1984168660005283600020936000905b8282106147485750509260a0959285926140099a9996600599961061472f575b505050811b0190556146c9565b015160001960f88460031b161c19169055388080614722565b808886978294978701518155019601940190614702565b01519050388061465d565b90869350601f19831691856000528a6000209260005b8c8282106147b7575050841161479e575b505050811b019055614671565b015160001960f88460031b161c19169055388080614791565b8385015186558a97909501949384019301614780565b015190503880614611565b90869350601f19831691856000528a6000209260005b8c828210614825575050841161480c575b505050811b019055614625565b015160001960f88460031b161c191690553880806147ff565b8385015186558a979095019493840193016147ee565b8054600160401b8110156107fa5761485891600182018155614141565b9190916135ad57805182546001600160a01b0319166001600160a01b03919091161782556020015160019190910155565b9060018060a01b038092166000526003918260205260046040600020016000938154945b8581106148bf57505050505050600090565b836148ca8285613e41565b905490841b1c16848616146148e7576148e29061457b565b6148ad565b505050505050600190565b156148f957565b60405162461bcd60e51b815260206004820152601c60248201527f52656b616d206d6564697320746964616b20646974656d756b616e2e000000006044820152606490fd5b8051821015613df45760209160051b010190565b6000805490916001600160a01b0390811691168114614a1b578082526020916001835260409160ff6001848420015416614a02578082526004845260ff83832054166149ea578152600783528190205460ff166149ca57662ab735b737bbb760c91b9051916149c083613f58565b6007835282015290565b652830b9b4b2b760d11b9051916149e083613f58565b6006835282015290565b5050652237b5ba32b960d11b9051916149e083613f58565b50506641646d696e525360c81b9051916149c083613f58565b5050604051614a2981613f58565b600a81526929bab832b920b236b4b760b11b60208201529056febc415dfc2764939233ab67a4f55915cc2bb9d94ecafbfb254036de3cd0dbb3a8a2646970667358221220ec36ab9656a9a8d9f30cccacf8927458c8ac4ddbe77ac7e11e88c444969e095364736f6c63430008130033",
  "immutableReferences": {},
  "source": "// SPDX-License-Identifier: MIT\r\npragma solidity ^0.8.0;\r\n\r\ncontract RekamMedisRS {\r\n    address public superAdmin;\r\n\r\n    struct AdminRS {\r\n        string namaRumahSakit;\r\n        bool aktif;\r\n    }\r\n    mapping(address => AdminRS) public dataAdmin;\r\n    address[] public daftarAdmin;\r\n\r\n    struct Dokter {\r\n        string nama;\r\n        string spesialisasi;\r\n        string nomorLisensi;\r\n        bool aktif;\r\n        address[] assignedPasien;\r\n        address adminRS; // Rumah sakit tempat dokter bertugas\r\n    }\r\n    mapping(address => Dokter) public dataDokter;\r\n    mapping(address => bool) public isDokter;\r\n    address[] public daftarDokter; // Ditambahkan untuk melacak semua dokter\r\n\r\n    struct Pasien {\r\n        string nama;\r\n        string golonganDarah;\r\n        string tanggalLahir;\r\n        string gender;\r\n        string alamat;\r\n        string noTelepon;\r\n        string email;\r\n        address rumahSakitPenanggungJawab;\r\n        bool exists;\r\n    }\r\n    mapping(address => Pasien) public dataPasien;\r\n    mapping(address => bool) public isPasien;\r\n    address[] public daftarPasien; // Ditambahkan untuk melacak semua pasien\r\n\r\n    struct UpdateInfo {\r\n        address dokter; // alamat aktor yang melakukan update/pembuatan (bisa dokter atau pasien)\r\n        uint256 timestamp; // waktu update (block.timestamp)\r\n    }\r\n\r\n    struct RekamMedisData {\r\n        uint id;\r\n        address pasien;\r\n        string diagnosa;\r\n        string foto;\r\n        string catatan;\r\n        bool valid;\r\n    }\r\n    mapping(uint => RekamMedisData) public rekamMedis;\r\n    mapping(address => uint[]) public rekamMedisByPasien;\r\n    uint public rekamMedisCount;\r\n\r\n    // History versi rekam medis\r\n    mapping(uint => RekamMedisData[]) public rekamMedisVersions;\r\n    mapping(uint => UpdateInfo[]) public rekamMedisUpdateHistory;\r\n\r\n    // Events\r\n    event AdminRSTerdaftar(address indexed admin, string namaRumahSakit);\r\n    event AdminRSStatusDiubah(address indexed admin, bool aktif);\r\n    event DokterTerdaftar(address indexed dokter, string nama, address adminRS);\r\n    event DokterStatusDiubah(address indexed dokter, bool aktif);\r\n    event DokterInfoDiperbarui(\r\n        // Event untuk update info dokter\r\n        address indexed dokter,\r\n        string nama,\r\n        string spesialisasi,\r\n        string nomorLisensi,\r\n        address indexed adminRS\r\n    );\r\n    event PasienTerdaftar(address indexed pasien, string nama, address adminRS);\r\n    event PasienPindahRS(address indexed pasien, address adminRS); // Belum ada fungsinya\r\n    event PasienDiassignKeDokter(address dokter, address pasien);\r\n    event RekamMedisDitambahkan(\r\n        uint id,\r\n        address pasien,\r\n        string diagnosa,\r\n        bool valid\r\n    );\r\n    event RekamMedisDiperbarui(\r\n        uint id,\r\n        string diagnosa,\r\n        string catatan,\r\n        address dokter, // Aktor yang memperbarui\r\n        uint timestamp\r\n    );\r\n\r\n    constructor() {\r\n        superAdmin = 0xB0dC0Bf642d339517438017Fc185Bb0f758A01D2; // Sesuai kode Anda\r\n    }\r\n\r\n    // Modifier\r\n    modifier hanyaSuperAdmin() {\r\n        require(\r\n            msg.sender == superAdmin,\r\n            \"Hanya super admin yang dapat menjalankan fungsi ini.\"\r\n        );\r\n        _;\r\n    }\r\n\r\n    modifier hanyaAdminRS() {\r\n        require(\r\n            dataAdmin[msg.sender].aktif,\r\n            \"Hanya admin RS yang aktif yang dapat menjalankan fungsi ini.\"\r\n        );\r\n        _;\r\n    }\r\n\r\n    modifier hanyaDokterAktif() {\r\n        require(\r\n            isDokter[msg.sender] && dataDokter[msg.sender].aktif,\r\n            \"Hanya dokter yang aktif yang dapat menjalankan fungsi ini.\"\r\n        );\r\n        _;\r\n    }\r\n\r\n    modifier hanyaDokterAktifUntukPasien(address _pasien) {\r\n        require(\r\n            isDokter[msg.sender] && dataDokter[msg.sender].aktif,\r\n            \"Hanya dokter aktif.\"\r\n        );\r\n        require(dataPasien[_pasien].exists, \"Pasien tidak terdaftar.\"); // Pastikan pasien ada\r\n        require(\r\n            dataDokter[msg.sender].adminRS ==\r\n                dataPasien[_pasien].rumahSakitPenanggungJawab,\r\n            \"Dokter dan pasien tidak berada di rumah sakit yang sama.\"\r\n        );\r\n        bool assigned = false;\r\n        address[] storage listPasienDitugaskan = dataDokter[msg.sender]\r\n            .assignedPasien;\r\n        for (uint i = 0; i < listPasienDitugaskan.length; i++) {\r\n            if (listPasienDitugaskan[i] == _pasien) {\r\n                assigned = true;\r\n                break;\r\n            }\r\n        }\r\n        require(\r\n            assigned,\r\n            \"Dokter ini tidak ditugaskan untuk menangani pasien tersebut.\"\r\n        );\r\n        _;\r\n    }\r\n\r\n    modifier hanyaPasien(address _pasien) {\r\n        // Modifier untuk pasien tertentu\r\n        require(\r\n            msg.sender == _pasien,\r\n            \"Hanya pasien yang bersangkutan yang dapat menjalankan fungsi ini.\"\r\n        );\r\n        _;\r\n    }\r\n\r\n    function registerAdminRS(\r\n        address _admin,\r\n        string calldata _namaRS\r\n    ) external hanyaSuperAdmin {\r\n        require(\r\n            bytes(dataAdmin[_admin].namaRumahSakit).length == 0,\r\n            \"Admin RS sudah terdaftar dengan alamat ini.\"\r\n        );\r\n        dataAdmin[_admin] = AdminRS({namaRumahSakit: _namaRS, aktif: true});\r\n        daftarAdmin.push(_admin);\r\n        emit AdminRSTerdaftar(_admin, _namaRS);\r\n    }\r\n\r\n    function getAllAdminRSAddresses() external view returns (address[] memory) {\r\n        return daftarAdmin;\r\n    }\r\n\r\n    function setStatusAdminRS(\r\n        address _admin,\r\n        bool _aktif\r\n    ) external hanyaSuperAdmin {\r\n        require(\r\n            bytes(dataAdmin[_admin].namaRumahSakit).length != 0,\r\n            \"Admin RS tidak ditemukan.\"\r\n        );\r\n        dataAdmin[_admin].aktif = _aktif;\r\n        emit AdminRSStatusDiubah(_admin, _aktif);\r\n    }\r\n\r\n    function totalAdmin() external view returns (uint) {\r\n        return daftarAdmin.length;\r\n    }\r\n\r\n    function getAdminByIndex(uint idx) external view returns (address) {\r\n        require(idx < daftarAdmin.length, \"Indeks admin RS tidak valid.\");\r\n        return daftarAdmin[idx];\r\n    }\r\n\r\n    function registerDokter(\r\n        address _dokter,\r\n        string calldata _nama,\r\n        string calldata _spesialisasi,\r\n        string calldata _nomorLisensi\r\n    ) external hanyaAdminRS {\r\n        require(\r\n            !isDokter[_dokter],\r\n            \"Alamat ini sudah terdaftar sebagai dokter.\"\r\n        );\r\n        require(\r\n            !isPasien[_dokter],\r\n            \"Alamat ini terdaftar sebagai pasien, tidak bisa menjadi dokter.\"\r\n        );\r\n        isDokter[_dokter] = true;\r\n        dataDokter[_dokter] = Dokter({\r\n            nama: _nama,\r\n            spesialisasi: _spesialisasi,\r\n            nomorLisensi: _nomorLisensi,\r\n            aktif: true,\r\n            assignedPasien: new address[](0),\r\n            adminRS: msg.sender\r\n        });\r\n        daftarDokter.push(_dokter);\r\n        emit DokterTerdaftar(_dokter, _nama, msg.sender);\r\n    }\r\n\r\n    function updateDokterInfo(\r\n        address _dokter,\r\n        string calldata _namaBaru,\r\n        string calldata _spesialisasiBaru,\r\n        string calldata _nomorLisensiBaru\r\n    ) external hanyaAdminRS {\r\n        require(isDokter[_dokter], \"Dokter tidak terdaftar di sistem.\");\r\n        require(\r\n            dataDokter[_dokter].adminRS == msg.sender,\r\n            \"Anda bukan admin RS yang berhak untuk dokter ini.\"\r\n        );\r\n\r\n        Dokter storage dokterToUpdate = dataDokter[_dokter];\r\n        dokterToUpdate.nama = _namaBaru;\r\n        dokterToUpdate.spesialisasi = _spesialisasiBaru;\r\n        dokterToUpdate.nomorLisensi = _nomorLisensiBaru;\r\n\r\n        emit DokterInfoDiperbarui(\r\n            _dokter,\r\n            _namaBaru,\r\n            _spesialisasiBaru,\r\n            _nomorLisensiBaru,\r\n            msg.sender\r\n        );\r\n    }\r\n\r\n    function setStatusDokter(\r\n        address _dokter,\r\n        bool _aktif\r\n    ) external hanyaAdminRS {\r\n        require(isDokter[_dokter], \"Dokter tidak terdaftar.\");\r\n        require(\r\n            dataDokter[_dokter].adminRS == msg.sender,\r\n            \"Dokter ini tidak terdaftar di rumah sakit Anda.\"\r\n        );\r\n        dataDokter[_dokter].aktif = _aktif;\r\n        emit DokterStatusDiubah(_dokter, _aktif);\r\n    }\r\n\r\n    function totalDokter() external view returns (uint) {\r\n        return daftarDokter.length;\r\n    }\r\n\r\n    function getDokterByIndex(uint idx) external view returns (address) {\r\n        require(idx < daftarDokter.length, \"Indeks dokter tidak valid.\");\r\n        return daftarDokter[idx];\r\n    }\r\n\r\n    function getDokter(\r\n        address _dokter\r\n    )\r\n        external\r\n        view\r\n        returns (\r\n            string memory nama,\r\n            string memory spesialisasi,\r\n            string memory nomorLisensi,\r\n            bool aktif,\r\n            address[] memory pasienList,\r\n            address adminRS\r\n        )\r\n    {\r\n        require(isDokter[_dokter], \"Dokter tidak ditemukan.\");\r\n        Dokter storage d = dataDokter[_dokter];\r\n        return (\r\n            d.nama,\r\n            d.spesialisasi,\r\n            d.nomorLisensi,\r\n            d.aktif,\r\n            d.assignedPasien,\r\n            d.adminRS\r\n        );\r\n    }\r\n\r\n    function registerPasien(\r\n        address _pasien,\r\n        string calldata _nama,\r\n        address _adminRS // Alamat Admin RS yang mendaftarkan\r\n    ) external hanyaAdminRS {\r\n        // Hanya admin RS yang aktif yang bisa mendaftarkan\r\n        require(\r\n            !isPasien[_pasien],\r\n            \"Pasien sudah terdaftar dengan alamat ini.\"\r\n        );\r\n        require(\r\n            !isDokter[_pasien],\r\n            \"Alamat ini terdaftar sebagai dokter, tidak bisa menjadi pasien.\"\r\n        );\r\n        require(\r\n            dataAdmin[_adminRS].aktif,\r\n            \"Admin RS yang dirujuk tidak aktif.\"\r\n        ); // Pastikan admin RS penanggung jawab aktif\r\n        require(\r\n            msg.sender == _adminRS,\r\n            \"Hanya admin RS penanggung jawab yang bisa mendaftarkan pasien ini.\"\r\n        );\r\n\r\n        isPasien[_pasien] = true;\r\n        dataPasien[_pasien] = Pasien({\r\n            nama: _nama,\r\n            golonganDarah: \"\",\r\n            tanggalLahir: \"\",\r\n            gender: \"\",\r\n            alamat: \"\",\r\n            noTelepon: \"\",\r\n            email: \"\",\r\n            rumahSakitPenanggungJawab: _adminRS,\r\n            exists: true\r\n        });\r\n        daftarPasien.push(_pasien);\r\n        emit PasienTerdaftar(_pasien, _nama, _adminRS);\r\n    }\r\n\r\n    function selfRegisterPasien(\r\n        string calldata _nama,\r\n        string calldata _golonganDarah,\r\n        string calldata _tanggalLahir,\r\n        string calldata _gender,\r\n        string calldata _alamat,\r\n        string calldata _noTelepon,\r\n        string calldata _email,\r\n        address _adminRS // Admin RS yang dipilih pasien sebagai penanggung jawab awal\r\n    ) external {\r\n        require(!isPasien[msg.sender], \"Anda sudah terdaftar sebagai pasien.\");\r\n        require(!isDokter[msg.sender], \"Alamat ini terdaftar sebagai dokter.\");\r\n        require(\r\n            dataAdmin[_adminRS].aktif,\r\n            \"Rumah Sakit yang dipilih tidak aktif atau tidak valid.\"\r\n        );\r\n\r\n        isPasien[msg.sender] = true;\r\n        dataPasien[msg.sender] = Pasien({\r\n            nama: _nama,\r\n            golonganDarah: _golonganDarah,\r\n            tanggalLahir: _tanggalLahir,\r\n            gender: _gender,\r\n            alamat: _alamat,\r\n            noTelepon: _noTelepon,\r\n            email: _email,\r\n            rumahSakitPenanggungJawab: _adminRS,\r\n            exists: true\r\n        });\r\n        daftarPasien.push(msg.sender);\r\n        emit PasienTerdaftar(msg.sender, _nama, _adminRS);\r\n    }\r\n\r\n    function getDaftarPasien() external view returns (address[] memory) {\r\n        return daftarPasien;\r\n    }\r\n\r\n    function getPasienData(\r\n        address _pasien\r\n    )\r\n        external\r\n        view\r\n        returns (\r\n            string memory nama,\r\n            string memory golonganDarah,\r\n            string memory tanggalLahir,\r\n            string memory gender,\r\n            string memory alamat,\r\n            string memory noTelepon,\r\n            string memory email,\r\n            address rumahSakitPenanggungJawab\r\n        )\r\n    {\r\n        require(isPasien[_pasien], \"Pasien tidak ditemukan.\");\r\n        Pasien storage p = dataPasien[_pasien];\r\n        return (\r\n            p.nama,\r\n            p.golonganDarah,\r\n            p.tanggalLahir,\r\n            p.gender,\r\n            p.alamat,\r\n            p.noTelepon,\r\n            p.email,\r\n            p.rumahSakitPenanggungJawab\r\n        );\r\n    }\r\n\r\n    function assignPasienToDokter(\r\n        address _dokter,\r\n        address _pasien\r\n    ) external hanyaAdminRS {\r\n        require(isDokter[_dokter], \"Dokter tidak terdaftar.\");\r\n        require(\r\n            dataDokter[_dokter].adminRS == msg.sender,\r\n            \"Dokter ini tidak terdaftar di rumah sakit Anda.\"\r\n        );\r\n        require(isPasien[_pasien], \"Pasien tidak terdaftar.\");\r\n        require(\r\n            dataPasien[_pasien].rumahSakitPenanggungJawab == msg.sender,\r\n            \"Pasien ini tidak terdaftar di rumah sakit Anda.\"\r\n        );\r\n\r\n        address[] storage listPasienDitugaskan = dataDokter[_dokter]\r\n            .assignedPasien;\r\n        for (uint i = 0; i < listPasienDitugaskan.length; i++) {\r\n            require(\r\n                listPasienDitugaskan[i] != _pasien,\r\n                \"Pasien ini sudah ditugaskan ke dokter tersebut.\"\r\n            );\r\n        }\r\n        listPasienDitugaskan.push(_pasien);\r\n        emit PasienDiassignKeDokter(_dokter, _pasien);\r\n    }\r\n\r\n    function isAssigned(\r\n        address _dokter,\r\n        address _pasien\r\n    ) internal view returns (bool) {\r\n        address[] storage list = dataDokter[_dokter].assignedPasien;\r\n        for (uint i = 0; i < list.length; i++) {\r\n            if (list[i] == _pasien) {\r\n                return true;\r\n            }\r\n        }\r\n        return false;\r\n    }\r\n\r\n    // --- MODIFIKASI DI SINI ---\r\n    function tambahRekamMedis(\r\n        address _pasien,\r\n        string calldata _diagnosa,\r\n        string calldata _foto,\r\n        string calldata _catatan\r\n    ) external {\r\n        bool isValidActor = false;\r\n        if (msg.sender == _pasien && isPasien[_pasien]) {\r\n            isValidActor = true;\r\n        } else if (isDokter[msg.sender] && dataDokter[msg.sender].aktif) {\r\n            if (\r\n                dataPasien[_pasien].exists &&\r\n                dataDokter[msg.sender].adminRS ==\r\n                dataPasien[_pasien].rumahSakitPenanggungJawab &&\r\n                isAssigned(msg.sender, _pasien)\r\n            ) {\r\n                isValidActor = true;\r\n            }\r\n        }\r\n        require(\r\n            isValidActor,\r\n            \"Aktor tidak berhak menambah rekam medis untuk pasien ini.\"\r\n        );\r\n        require(dataPasien[_pasien].exists, \"Pasien tidak terdaftar.\"); // Pastikan pasien exist sebelum tambah RM\r\n\r\n        rekamMedisCount++;\r\n        uint newId = rekamMedisCount; // Gunakan variabel agar konsisten\r\n        rekamMedis[newId] = RekamMedisData({\r\n            id: newId,\r\n            pasien: _pasien,\r\n            diagnosa: _diagnosa,\r\n            foto: _foto,\r\n            catatan: _catatan,\r\n            valid: true\r\n        });\r\n        rekamMedisByPasien[_pasien].push(newId);\r\n\r\n        // --- BARIS TAMBAHAN UNTUK MENCATAT RIWAYAT PEMBUATAN AWAL ---\r\n        rekamMedisUpdateHistory[newId].push(\r\n            UpdateInfo({\r\n                dokter: msg.sender, // Menyimpan alamat msg.sender (pembuat)\r\n                timestamp: block.timestamp\r\n            })\r\n        );\r\n        // -----------------------------------------------------------\r\n\r\n        emit RekamMedisDitambahkan(newId, _pasien, _diagnosa, true);\r\n    }\r\n\r\n    function updateRekamMedis(\r\n        uint _id,\r\n        string calldata _diagnosa,\r\n        string calldata _foto,\r\n        string calldata _catatan\r\n    ) external hanyaDokterAktifUntukPasien(rekamMedis[_id].pasien) {\r\n        RekamMedisData storage r = rekamMedis[_id];\r\n        require(\r\n            r.pasien != address(0),\r\n            \"Rekam medis tidak ditemukan atau ID tidak valid.\"\r\n        ); // Pastikan RM ada\r\n        require(r.valid, \"Rekam medis ini sudah tidak valid/dinonaktifkan.\");\r\n\r\n        // Simpan versi lama sebelum update\r\n        rekamMedisVersions[_id].push(\r\n            RekamMedisData({\r\n                id: r.id,\r\n                pasien: r.pasien,\r\n                diagnosa: r.diagnosa,\r\n                foto: r.foto,\r\n                catatan: r.catatan,\r\n                valid: r.valid // Simpan status validitas sebelumnya juga\r\n            })\r\n        );\r\n\r\n        // Update data rekam medis utama\r\n        r.diagnosa = _diagnosa;\r\n        r.foto = _foto;\r\n        r.catatan = _catatan;\r\n        // r.valid tetap true karena ini adalah update aktif, kecuali ada logika lain\r\n\r\n        // Simpan info update (siapa dan kapan)\r\n        rekamMedisUpdateHistory[_id].push(\r\n            UpdateInfo({dokter: msg.sender, timestamp: block.timestamp})\r\n        );\r\n\r\n        emit RekamMedisDiperbarui(\r\n            _id,\r\n            _diagnosa,\r\n            _catatan,\r\n            msg.sender,\r\n            block.timestamp\r\n        );\r\n    }\r\n\r\n    function getRekamMedisIdsByPasien(\r\n        address _pasien\r\n    ) external view returns (uint[] memory) {\r\n        require(isPasien[_pasien], \"Pasien tidak ditemukan.\");\r\n        return rekamMedisByPasien[_pasien];\r\n    }\r\n\r\n    function getRekamMedis(\r\n        uint _id\r\n    )\r\n        external\r\n        view\r\n        returns (\r\n            uint id,\r\n            address pasien,\r\n            string memory diagnosa,\r\n            string memory foto,\r\n            string memory catatan,\r\n            bool valid\r\n        )\r\n    {\r\n        require(\r\n            rekamMedis[_id].pasien != address(0),\r\n            \"Rekam medis tidak ditemukan.\"\r\n        );\r\n        RekamMedisData storage r = rekamMedis[_id];\r\n        return (r.id, r.pasien, r.diagnosa, r.foto, r.catatan, r.valid);\r\n    }\r\n\r\n    function getRekamMedisVersions(\r\n        uint _id\r\n    ) external view returns (RekamMedisData[] memory) {\r\n        // Tidak perlu require di sini karena jika _id tidak ada, akan return array kosong\r\n        return rekamMedisVersions[_id];\r\n    }\r\n\r\n    function getRekamMedisUpdateHistory(\r\n        uint _id\r\n    )\r\n        external\r\n        view\r\n        returns (address[] memory actors, uint256[] memory timestamps)\r\n    {\r\n        // Tidak perlu require di sini, akan return array kosong jika tidak ada histori\r\n        uint len = rekamMedisUpdateHistory[_id].length;\r\n        actors = new address[](len); // 'actors' karena bisa dokter atau pasien\r\n        timestamps = new uint256[](len);\r\n        for (uint i = 0; i < len; i++) {\r\n            actors[i] = rekamMedisUpdateHistory[_id][i].dokter; // Tetap .dokter sesuai struct\r\n            timestamps[i] = rekamMedisUpdateHistory[_id][i].timestamp;\r\n        }\r\n        return (actors, timestamps);\r\n    }\r\n\r\n    function nonaktifkanRekamMedis(uint _id) external hanyaAdminRS {\r\n        require(\r\n            rekamMedis[_id].pasien != address(0),\r\n            \"Rekam medis tidak ditemukan.\"\r\n        );\r\n        // Pastikan adminRS yang menonaktifkan adalah admin dari RS tempat pasien terdaftar\r\n        require(\r\n            dataPasien[rekamMedis[_id].pasien].rumahSakitPenanggungJawab ==\r\n                msg.sender,\r\n            \"Admin RS tidak berhak atas pasien ini.\"\r\n        );\r\n        rekamMedis[_id].valid = false;\r\n        // Pertimbangkan untuk emit event di sini\r\n    }\r\n\r\n    function setSuperAdmin(address _newAdmin) external hanyaSuperAdmin {\r\n        require(\r\n            _newAdmin != address(0),\r\n            \"Alamat super admin baru tidak valid.\"\r\n        );\r\n        superAdmin = _newAdmin;\r\n    }\r\n\r\n    function getUserRole(address _user) public view returns (string memory) {\r\n        if (_user == superAdmin) return \"SuperAdmin\";\r\n        if (dataAdmin[_user].aktif) return \"AdminRS\"; // Cek status aktif juga\r\n        if (isDokter[_user]) return \"Dokter\";\r\n        if (isPasien[_user]) return \"Pasien\";\r\n        return \"Unknown\";\r\n    }\r\n}\r\n",
  "sourcePath": "D:\\TA\\rekam_medis_backend\\contracts\\RekamMedisRS.sol",
  "compiler": {
    "name": "solc",
    "version": "0.8.19+commit.7dd6d404.Emscripten.clang"
  },
  "schemaVersion": "3.4.16",
  "updatedAt": "2025-05-31T13:26:00.508Z",
  "networkType": "ethereum",
  "devdoc": {
    "kind": "dev",
    "methods": {},
    "version": 1
  },
  "userdoc": {
    "kind": "user",
    "methods": {},
    "version": 1
  }
}