{
  "contractName": "RekamMedis",
  "abi": [
    {
      "inputs": [],
      "stateMutability": "nonpayable",
      "type": "constructor"
    },
    {
      "anonymous": false,
      "inputs": [
        {
          "indexed": false,
          "internalType": "address",
          "name": "newAdmin",
          "type": "address"
        }
      ],
      "name": "AdminDitetapkan",
      "type": "event"
    },
    {
      "anonymous": false,
      "inputs": [
        {
          "indexed": false,
          "internalType": "address",
          "name": "dokter",
          "type": "address"
        },
        {
          "indexed": false,
          "internalType": "bool",
          "name": "aktif",
          "type": "bool"
        }
      ],
      "name": "DokterStatusDiubah",
      "type": "event"
    },
    {
      "anonymous": false,
      "inputs": [
        {
          "indexed": false,
          "internalType": "address",
          "name": "dokter",
          "type": "address"
        },
        {
          "indexed": false,
          "internalType": "string",
          "name": "nama",
          "type": "string"
        },
        {
          "indexed": false,
          "internalType": "string",
          "name": "spesialisasi",
          "type": "string"
        },
        {
          "indexed": false,
          "internalType": "string",
          "name": "nomorLisensi",
          "type": "string"
        }
      ],
      "name": "DokterTerdaftar",
      "type": "event"
    },
    {
      "anonymous": false,
      "inputs": [
        {
          "indexed": false,
          "internalType": "address",
          "name": "dokter",
          "type": "address"
        },
        {
          "indexed": false,
          "internalType": "address",
          "name": "pasien",
          "type": "address"
        }
      ],
      "name": "PasienDiassignKeDokter",
      "type": "event"
    },
    {
      "anonymous": false,
      "inputs": [
        {
          "indexed": false,
          "internalType": "address",
          "name": "pasien",
          "type": "address"
        }
      ],
      "name": "PasienTerdaftar",
      "type": "event"
    },
    {
      "anonymous": false,
      "inputs": [
        {
          "indexed": false,
          "internalType": "uint256",
          "name": "id",
          "type": "uint256"
        },
        {
          "indexed": false,
          "internalType": "string",
          "name": "diagnosa",
          "type": "string"
        },
        {
          "indexed": false,
          "internalType": "string",
          "name": "catatan",
          "type": "string"
        }
      ],
      "name": "RekamMedisDiperbarui",
      "type": "event"
    },
    {
      "anonymous": false,
      "inputs": [
        {
          "indexed": false,
          "internalType": "uint256",
          "name": "id",
          "type": "uint256"
        },
        {
          "indexed": false,
          "internalType": "address",
          "name": "pasien",
          "type": "address"
        },
        {
          "indexed": false,
          "internalType": "string",
          "name": "diagnosa",
          "type": "string"
        },
        {
          "indexed": false,
          "internalType": "bool",
          "name": "valid",
          "type": "bool"
        }
      ],
      "name": "RekamMedisDitambahkan",
      "type": "event"
    },
    {
      "inputs": [],
      "name": "admin",
      "outputs": [
        {
          "internalType": "address",
          "name": "",
          "type": "address"
        }
      ],
      "stateMutability": "view",
      "type": "function",
      "constant": true
    },
    {
      "inputs": [
        {
          "internalType": "uint256",
          "name": "",
          "type": "uint256"
        }
      ],
      "name": "daftarDokter",
      "outputs": [
        {
          "internalType": "address",
          "name": "",
          "type": "address"
        }
      ],
      "stateMutability": "view",
      "type": "function",
      "constant": true
    },
    {
      "inputs": [
        {
          "internalType": "uint256",
          "name": "",
          "type": "uint256"
        }
      ],
      "name": "daftarPasien",
      "outputs": [
        {
          "internalType": "address",
          "name": "",
          "type": "address"
        }
      ],
      "stateMutability": "view",
      "type": "function",
      "constant": true
    },
    {
      "inputs": [
        {
          "internalType": "address",
          "name": "",
          "type": "address"
        }
      ],
      "name": "dataDokter",
      "outputs": [
        {
          "internalType": "string",
          "name": "nama",
          "type": "string"
        },
        {
          "internalType": "string",
          "name": "spesialisasi",
          "type": "string"
        },
        {
          "internalType": "string",
          "name": "nomorLisensi",
          "type": "string"
        },
        {
          "internalType": "bool",
          "name": "aktif",
          "type": "bool"
        }
      ],
      "stateMutability": "view",
      "type": "function",
      "constant": true
    },
    {
      "inputs": [
        {
          "internalType": "address",
          "name": "",
          "type": "address"
        }
      ],
      "name": "isDokter",
      "outputs": [
        {
          "internalType": "bool",
          "name": "",
          "type": "bool"
        }
      ],
      "stateMutability": "view",
      "type": "function",
      "constant": true
    },
    {
      "inputs": [
        {
          "internalType": "address",
          "name": "",
          "type": "address"
        }
      ],
      "name": "isPasien",
      "outputs": [
        {
          "internalType": "bool",
          "name": "",
          "type": "bool"
        }
      ],
      "stateMutability": "view",
      "type": "function",
      "constant": true
    },
    {
      "inputs": [
        {
          "internalType": "uint256",
          "name": "",
          "type": "uint256"
        }
      ],
      "name": "rekamMedis",
      "outputs": [
        {
          "internalType": "uint256",
          "name": "id",
          "type": "uint256"
        },
        {
          "internalType": "address",
          "name": "pasien",
          "type": "address"
        },
        {
          "internalType": "string",
          "name": "nama",
          "type": "string"
        },
        {
          "internalType": "uint256",
          "name": "umur",
          "type": "uint256"
        },
        {
          "internalType": "string",
          "name": "golonganDarah",
          "type": "string"
        },
        {
          "internalType": "string",
          "name": "tanggalLahir",
          "type": "string"
        },
        {
          "internalType": "string",
          "name": "gender",
          "type": "string"
        },
        {
          "internalType": "string",
          "name": "alamat",
          "type": "string"
        },
        {
          "internalType": "string",
          "name": "noTelepon",
          "type": "string"
        },
        {
          "internalType": "string",
          "name": "email",
          "type": "string"
        },
        {
          "internalType": "string",
          "name": "diagnosa",
          "type": "string"
        },
        {
          "internalType": "string",
          "name": "foto",
          "type": "string"
        },
        {
          "internalType": "string",
          "name": "catatan",
          "type": "string"
        },
        {
          "internalType": "bool",
          "name": "valid",
          "type": "bool"
        }
      ],
      "stateMutability": "view",
      "type": "function",
      "constant": true
    },
    {
      "inputs": [
        {
          "internalType": "address",
          "name": "",
          "type": "address"
        },
        {
          "internalType": "uint256",
          "name": "",
          "type": "uint256"
        }
      ],
      "name": "rekamMedisByPasien",
      "outputs": [
        {
          "internalType": "uint256",
          "name": "",
          "type": "uint256"
        }
      ],
      "stateMutability": "view",
      "type": "function",
      "constant": true
    },
    {
      "inputs": [],
      "name": "rekamMedisCount",
      "outputs": [
        {
          "internalType": "uint256",
          "name": "",
          "type": "uint256"
        }
      ],
      "stateMutability": "view",
      "type": "function",
      "constant": true
    },
    {
      "inputs": [
        {
          "internalType": "uint256",
          "name": "",
          "type": "uint256"
        },
        {
          "internalType": "uint256",
          "name": "",
          "type": "uint256"
        }
      ],
      "name": "rekamMedisVersions",
      "outputs": [
        {
          "internalType": "uint256",
          "name": "id",
          "type": "uint256"
        },
        {
          "internalType": "address",
          "name": "pasien",
          "type": "address"
        },
        {
          "internalType": "string",
          "name": "nama",
          "type": "string"
        },
        {
          "internalType": "uint256",
          "name": "umur",
          "type": "uint256"
        },
        {
          "internalType": "string",
          "name": "golonganDarah",
          "type": "string"
        },
        {
          "internalType": "string",
          "name": "tanggalLahir",
          "type": "string"
        },
        {
          "internalType": "string",
          "name": "gender",
          "type": "string"
        },
        {
          "internalType": "string",
          "name": "alamat",
          "type": "string"
        },
        {
          "internalType": "string",
          "name": "noTelepon",
          "type": "string"
        },
        {
          "internalType": "string",
          "name": "email",
          "type": "string"
        },
        {
          "internalType": "string",
          "name": "diagnosa",
          "type": "string"
        },
        {
          "internalType": "string",
          "name": "foto",
          "type": "string"
        },
        {
          "internalType": "string",
          "name": "catatan",
          "type": "string"
        },
        {
          "internalType": "bool",
          "name": "valid",
          "type": "bool"
        }
      ],
      "stateMutability": "view",
      "type": "function",
      "constant": true
    },
    {
      "inputs": [
        {
          "internalType": "address",
          "name": "_dokter",
          "type": "address"
        },
        {
          "internalType": "string",
          "name": "_nama",
          "type": "string"
        },
        {
          "internalType": "string",
          "name": "_spesialisasi",
          "type": "string"
        },
        {
          "internalType": "string",
          "name": "_nomorLisensi",
          "type": "string"
        }
      ],
      "name": "registerDokter",
      "outputs": [],
      "stateMutability": "nonpayable",
      "type": "function"
    },
    {
      "inputs": [],
      "name": "totalDokter",
      "outputs": [
        {
          "internalType": "uint256",
          "name": "",
          "type": "uint256"
        }
      ],
      "stateMutability": "view",
      "type": "function",
      "constant": true
    },
    {
      "inputs": [
        {
          "internalType": "uint256",
          "name": "index",
          "type": "uint256"
        }
      ],
      "name": "getDokterByIndex",
      "outputs": [
        {
          "internalType": "address",
          "name": "",
          "type": "address"
        }
      ],
      "stateMutability": "view",
      "type": "function",
      "constant": true
    },
    {
      "inputs": [
        {
          "internalType": "address",
          "name": "_dokter",
          "type": "address"
        },
        {
          "internalType": "bool",
          "name": "_aktif",
          "type": "bool"
        }
      ],
      "name": "setStatusDokter",
      "outputs": [],
      "stateMutability": "nonpayable",
      "type": "function"
    },
    {
      "inputs": [
        {
          "internalType": "address",
          "name": "_dokter",
          "type": "address"
        },
        {
          "internalType": "string",
          "name": "_nama",
          "type": "string"
        },
        {
          "internalType": "string",
          "name": "_spesialisasi",
          "type": "string"
        },
        {
          "internalType": "string",
          "name": "_nomorLisensi",
          "type": "string"
        }
      ],
      "name": "updateDataDokter",
      "outputs": [],
      "stateMutability": "nonpayable",
      "type": "function"
    },
    {
      "inputs": [
        {
          "internalType": "address",
          "name": "_dokter",
          "type": "address"
        },
        {
          "internalType": "address",
          "name": "_pasien",
          "type": "address"
        }
      ],
      "name": "assignPasienToDokter",
      "outputs": [],
      "stateMutability": "nonpayable",
      "type": "function"
    },
    {
      "inputs": [
        {
          "internalType": "address",
          "name": "_dokter",
          "type": "address"
        },
        {
          "internalType": "address",
          "name": "_pasien",
          "type": "address"
        }
      ],
      "name": "isPasienAssignedToDokter",
      "outputs": [
        {
          "internalType": "bool",
          "name": "",
          "type": "bool"
        }
      ],
      "stateMutability": "view",
      "type": "function",
      "constant": true
    },
    {
      "inputs": [
        {
          "internalType": "address",
          "name": "_dokter",
          "type": "address"
        }
      ],
      "name": "getAssignedPasienByDokter",
      "outputs": [
        {
          "internalType": "address[]",
          "name": "",
          "type": "address[]"
        }
      ],
      "stateMutability": "view",
      "type": "function",
      "constant": true
    },
    {
      "inputs": [
        {
          "internalType": "address",
          "name": "_dokter",
          "type": "address"
        }
      ],
      "name": "getDokter",
      "outputs": [
        {
          "internalType": "string",
          "name": "nama",
          "type": "string"
        },
        {
          "internalType": "string",
          "name": "spesialisasi",
          "type": "string"
        },
        {
          "internalType": "string",
          "name": "nomorLisensi",
          "type": "string"
        },
        {
          "internalType": "bool",
          "name": "aktif",
          "type": "bool"
        },
        {
          "internalType": "address[]",
          "name": "pasien",
          "type": "address[]"
        }
      ],
      "stateMutability": "view",
      "type": "function",
      "constant": true
    },
    {
      "inputs": [
        {
          "internalType": "address",
          "name": "_pasien",
          "type": "address"
        }
      ],
      "name": "registerPasien",
      "outputs": [],
      "stateMutability": "nonpayable",
      "type": "function"
    },
    {
      "inputs": [],
      "name": "selfRegisterPasien",
      "outputs": [],
      "stateMutability": "nonpayable",
      "type": "function"
    },
    {
      "inputs": [
        {
          "internalType": "address",
          "name": "_user",
          "type": "address"
        }
      ],
      "name": "getUserRole",
      "outputs": [
        {
          "internalType": "string",
          "name": "",
          "type": "string"
        }
      ],
      "stateMutability": "view",
      "type": "function",
      "constant": true
    },
    {
      "inputs": [
        {
          "internalType": "address",
          "name": "pasien",
          "type": "address"
        }
      ],
      "name": "getRekamMedisIdsByPasien",
      "outputs": [
        {
          "internalType": "uint256[]",
          "name": "",
          "type": "uint256[]"
        }
      ],
      "stateMutability": "view",
      "type": "function",
      "constant": true
    },
    {
      "inputs": [],
      "name": "getDaftarPasien",
      "outputs": [
        {
          "internalType": "address[]",
          "name": "",
          "type": "address[]"
        }
      ],
      "stateMutability": "view",
      "type": "function",
      "constant": true
    },
    {
      "inputs": [
        {
          "internalType": "address",
          "name": "_pasien",
          "type": "address"
        }
      ],
      "name": "getNamaPasien",
      "outputs": [
        {
          "internalType": "string",
          "name": "",
          "type": "string"
        }
      ],
      "stateMutability": "view",
      "type": "function",
      "constant": true
    },
    {
      "inputs": [
        {
          "internalType": "address",
          "name": "_newAdmin",
          "type": "address"
        }
      ],
      "name": "setAdmin",
      "outputs": [],
      "stateMutability": "nonpayable",
      "type": "function"
    },
    {
      "inputs": [
        {
          "internalType": "address",
          "name": "_pasien",
          "type": "address"
        },
        {
          "internalType": "string",
          "name": "_nama",
          "type": "string"
        },
        {
          "internalType": "uint256",
          "name": "_umur",
          "type": "uint256"
        },
        {
          "internalType": "string",
          "name": "_golonganDarah",
          "type": "string"
        },
        {
          "internalType": "string",
          "name": "_tanggalLahir",
          "type": "string"
        },
        {
          "internalType": "string",
          "name": "_gender",
          "type": "string"
        },
        {
          "internalType": "string",
          "name": "_alamat",
          "type": "string"
        },
        {
          "internalType": "string",
          "name": "_noTelepon",
          "type": "string"
        },
        {
          "internalType": "string",
          "name": "_email",
          "type": "string"
        },
        {
          "internalType": "string",
          "name": "_diagnosa",
          "type": "string"
        },
        {
          "internalType": "string",
          "name": "_foto",
          "type": "string"
        },
        {
          "internalType": "string",
          "name": "_catatan",
          "type": "string"
        }
      ],
      "name": "tambahRekamMedis",
      "outputs": [],
      "stateMutability": "nonpayable",
      "type": "function"
    },
    {
      "inputs": [
        {
          "internalType": "uint256",
          "name": "_id",
          "type": "uint256"
        },
        {
          "internalType": "string",
          "name": "_nama",
          "type": "string"
        },
        {
          "internalType": "uint256",
          "name": "_umur",
          "type": "uint256"
        },
        {
          "internalType": "string",
          "name": "_golonganDarah",
          "type": "string"
        },
        {
          "internalType": "string",
          "name": "_tanggalLahir",
          "type": "string"
        },
        {
          "internalType": "string",
          "name": "_gender",
          "type": "string"
        },
        {
          "internalType": "string",
          "name": "_alamat",
          "type": "string"
        },
        {
          "internalType": "string",
          "name": "_noTelepon",
          "type": "string"
        },
        {
          "internalType": "string",
          "name": "_email",
          "type": "string"
        },
        {
          "internalType": "string",
          "name": "_diagnosa",
          "type": "string"
        },
        {
          "internalType": "string",
          "name": "_foto",
          "type": "string"
        },
        {
          "internalType": "string",
          "name": "_catatan",
          "type": "string"
        }
      ],
      "name": "updateRekamMedis",
      "outputs": [],
      "stateMutability": "nonpayable",
      "type": "function"
    },
    {
      "inputs": [
        {
          "internalType": "uint256",
          "name": "_id",
          "type": "uint256"
        }
      ],
      "name": "getRekamMedisVersions",
      "outputs": [
        {
          "components": [
            {
              "internalType": "uint256",
              "name": "id",
              "type": "uint256"
            },
            {
              "internalType": "address",
              "name": "pasien",
              "type": "address"
            },
            {
              "internalType": "string",
              "name": "nama",
              "type": "string"
            },
            {
              "internalType": "uint256",
              "name": "umur",
              "type": "uint256"
            },
            {
              "internalType": "string",
              "name": "golonganDarah",
              "type": "string"
            },
            {
              "internalType": "string",
              "name": "tanggalLahir",
              "type": "string"
            },
            {
              "internalType": "string",
              "name": "gender",
              "type": "string"
            },
            {
              "internalType": "string",
              "name": "alamat",
              "type": "string"
            },
            {
              "internalType": "string",
              "name": "noTelepon",
              "type": "string"
            },
            {
              "internalType": "string",
              "name": "email",
              "type": "string"
            },
            {
              "internalType": "string",
              "name": "diagnosa",
              "type": "string"
            },
            {
              "internalType": "string",
              "name": "foto",
              "type": "string"
            },
            {
              "internalType": "string",
              "name": "catatan",
              "type": "string"
            },
            {
              "internalType": "bool",
              "name": "valid",
              "type": "bool"
            }
          ],
          "internalType": "struct RekamMedis.RekamMedisData[]",
          "name": "",
          "type": "tuple[]"
        }
      ],
      "stateMutability": "view",
      "type": "function",
      "constant": true
    },
    {
      "inputs": [
        {
          "internalType": "uint256",
          "name": "_id",
          "type": "uint256"
        }
      ],
      "name": "nonaktifkanRekamMedis",
      "outputs": [],
      "stateMutability": "nonpayable",
      "type": "function"
    }
  ],
  "bytecode": "0x6080806040523461002857600080546001600160a01b031916331790556142d0908161002e8239f35b600080fdfe6080604052600436101561001257600080fd5b60003560e01c8062410cb31461397a578063010ef3b314613839578063046bdbcc146137cb578063083d8824146137875780631132beb51461374857806319e8f4051461359e578063278208511461357a5780632e2dd1021461355c578063334181f214613496578063350ee3fc1461342b5780633da0551814613373578063426996511461333157806351887b671461329c5780635c4c93481461325d578063683700871461320257806368f5dc9914611d2e57806370419a8114611cf8578063704b6c0214611c865780637d3e9db814611c68578063932e0f6d14611bb8578063abf72abb14611b75578063ae28c7a914611b3d578063c3c0fdea14611a9d578063c967ede8146119e9578063d688780214611721578063dd09a96814611639578063ddbd24d3146110e7578063e05c8a0e14610e45578063f7dc5714146101935763f851a4401461016557600080fd5b3461018e57600036600319011261018e576000546040516001600160a01b039091168152602090f35b600080fd5b3461018e5761018036600319011261018e576024356001600160401b03811161018e576101c4903690600401613b53565b6064356001600160401b03811161018e576101e3903690600401613b53565b6084356001600160401b03811161018e57610202903690600401613b53565b9160a4356001600160401b03811161018e57610222903690600401613b53565b9060c4356001600160401b03811161018e57610242903690600401613b53565b60e4356001600160401b03811161018e57610261903690600401613b53565b610104356001600160401b03811161018e57610281903690600401613b53565b91610124356001600160401b03811161018e576102a2903690600401613b53565b94610144356001600160401b03811161018e576102c3903690600401613b53565b97610164356001600160401b03811161018e576102e4903690600401613b53565b97600435600052600660205260018060a01b036001604060002001541633600052600260205260ff6040600020541680610e2e575b15610dcb576103289033613f8c565b15610d75576004356000526006602052604060002096600960205260406000208054600160401b8110156107f25761036591600182018155613d6e565b610d5f57888103610c69575b508051906001600160401b0382116107f257819061039f8261039660028d0154613ba9565b60028d01613e72565b602090601f8311600114610bf757600092610bec575b50508160011b916000199060031b1c19161760028801555b60443560038801558051906001600160401b0382116107f2578190610402826103f960048c0154613ba9565b60048c01613e72565b602090601f8311600114610b7a57600092610b6f575b50508160011b916000199060031b1c19161760048701555b8051906001600160401b0382116107f257819061045d8261045460058b0154613ba9565b60058b01613e72565b602090601f8311600114610afd57600092610af2575b50508160011b916000199060031b1c19161760058601555b8051906001600160401b0382116107f25781906104b8826104af60068a0154613ba9565b60068a01613e72565b602090601f8311600114610a8057600092610a75575b50508160011b916000199060031b1c19161760068501555b8051906001600160401b0382116107f25781906105138261050a6007890154613ba9565b60078901613e72565b602090601f8311600114610a03576000926109f8575b50508160011b916000199060031b1c19161760078401555b8051906001600160401b0382116107f257819061056e826105656008880154613ba9565b60088801613e72565b602090601f83116001146109865760009261097b575b50508160011b916000199060031b1c19161760088301555b8051906001600160401b0382116107f25781906105c9826105c06009870154613ba9565b60098701613e72565b602090601f8311600114610909576000926108fe575b50508160011b916000199060031b1c19161760098201555b81516001600160401b0381116107f25761062181610618600a850154613ba9565b600a8501613e72565b806020601f821160011461089157600091610886575b508160011b916000199060031b1c191617600a8201555b83516001600160401b0381116107f2576106788161066f600b850154613ba9565b600b8501613e72565b6020601f8211600114610813578190600c949596600092610808575b50508160011b916000199060031b1c191617600b8201555b01918051926001600160401b0384116107f2576106d3846106cd8354613ba9565b83613e72565b602093601f81116001146107645791610754918361074695947f2a3c8ca9ac6f36396c175111b8f04207d249d61d733222e37c97a5ed7cfa7e1397600091610759575b508160011b916000199060031b1c19161790555b6040519384936004358552606060208601526060850190613a63565b908382036040850152613a63565b0390a1005b905083015188610716565b601f1981168260005260206000209060005b8181106107da57508261075494927f2a3c8ca9ac6f36396c175111b8f04207d249d61d733222e37c97a5ed7cfa7e1398610746989795600194106107c1575b5050811b01905561072a565b85015160001960f88460031b161c1916905588806107b5565b85880151835560209788019760019093019201610776565b634e487b7160e01b600052604160045260246000fd5b015190508680610694565b600b830160005260206000209560005b601f198416811061086e5750958291600c959697600194601f19811610610855575b505050811b01600b8201556106ac565b015160001960f88460031b161c19169055868080610845565b82820151885560019097019660209283019201610823565b905083015186610637565b9150600a830160005260206000206000925b601f19831684106108e6576001935082601f198116106108cd575b5050811b01600a82015561064e565b85015160001960f88460031b161c1916905586806108be565b858101518255602093840193600190920191016108a3565b0151905086806105df565b9250600984016000526020600020906000935b601f1984168510610960576001945083601f19811610610947575b505050811b0160098201556105f7565b015160001960f88460031b161c19169055868080610937565b8181015183556020948501946001909301929091019061091c565b015190508780610584565b9250600885016000526020600020906000935b601f19841685106109dd576001945083601f198116106109c4575b505050811b01600883015561059c565b015160001960f88460031b161c191690558780806109b4565b81810151835560209485019460019093019290910190610999565b015190508880610529565b9250600786016000526020600020906000935b601f1984168510610a5a576001945083601f19811610610a41575b505050811b016007840155610541565b015160001960f88460031b161c19169055888080610a31565b81810151835560209485019460019093019290910190610a16565b0151905089806104ce565b9250600687016000526020600020906000935b601f1984168510610ad7576001945083601f19811610610abe575b505050811b0160068501556104e6565b015160001960f88460031b161c19169055898080610aae565b81810151835560209485019460019093019290910190610a93565b015190508a80610473565b9250600588016000526020600020906000935b601f1984168510610b54576001945083601f19811610610b3b575b505050811b01600586015561048b565b015160001960f88460031b161c191690558a8080610b2b565b81810151835560209485019460019093019290910190610b10565b015190508b80610418565b9250600489016000526020600020906000935b601f1984168510610bd1576001945083601f19811610610bb8575b505050811b016004870155610430565b015160001960f88460031b161c191690558b8080610ba8565b81810151835560209485019460019093019290910190610b8d565b015190508c806103b5565b925060028a016000526020600020906000935b601f1984168510610c4e576001945083601f19811610610c35575b505050811b0160028801556103cd565b015160001960f88460031b161c191690558c8080610c25565b81810151835560209485019460019093019290910190610c0a565b610d5990895481556001810160018060a01b0360018c0154166001600160601b0360a01b825416179055610ca360028b01600283016141c2565b60038a01546003820155610cbd60048b01600483016141c2565b610ccd60058b01600583016141c2565b610cdd60068b01600683016141c2565b610ced60078b01600783016141c2565b610cfd60088b01600883016141c2565b610d0d60098b01600983016141c2565b610d1d600a8b01600a83016141c2565b610d2d600b8b01600b83016141c2565b610d3d600c8b01600c83016141c2565b600d60ff818c01541691019060ff801983541691151516179055565b8b610371565b634e487b7160e01b600052600060045260246000fd5b60405162461bcd60e51b815260206004820152602860248201527f446f6b74657220746964616b2064692d61737369676e20756e74756b2070617360448201526734b2b71034b7349760c11b6064820152608490fd5b60405162461bcd60e51b815260206004820152603560248201527f48616e796120646f6b74657220616b7469662079616e672062697361206d656d6044820152743832b93130b93ab4903932b5b0b69036b2b234b99760591b6064820152608490fd5b50600160205260ff60036040600020015416610319565b3461018e57610e5336613d8a565b60005490939192916001600160a01b0391610e719083163314613dfd565b168060005260209060028252610e8e60ff60406000205416613f1b565b80600052600193848352604060002084516001600160401b03958682116107f2578190610ec582610ebf8654613ba9565b86613e72565b8690601f831160011461108457600092611079575b5050600019600383901b1c191690871b1790555b8160005284835284604060002001908051908582116107f2578190610f1782610ebf8654613ba9565b8590601f83116001146110165760009261100b575b5050600019600383901b1c191690861b1790555b60005282815260026040600020019380519283116107f257610f6c83610f668754613ba9565b87613e72565b81601f8411600114610fa85750928293918392600094610f9d575b50501b916000199060031b1c1916179055600080f35b015192508580610f87565b919083601f1981168760005284600020946000905b88838310610ff15750505010610fd8575b505050811b019055005b015160001960f88460031b161c19169055838080610fce565b858701518855909601959485019487935090810190610fbd565b015190508880610f2c565b90889350601f1983169185600052876000209260005b89828210611063575050841161104a575b505050811b019055610f40565b015160001960f88460031b161c1916905588808061103d565b8385015186558c9790950194938401930161102c565b015190508980610eda565b90899350601f1983169185600052886000209260005b8a8282106110d157505084116110b8575b505050811b019055610eee565b015160001960f88460031b161c191690558980806110ab565b8385015186558d9790950194938401930161109a565b3461018e576110f536613d8a565b929061110c60018060a01b03600054163314613dfd565b6001600160a01b03821660009081526002602052604090205460ff166115f4576001600160a01b03821660009081526003602052604090205460ff166115a0576001600160a01b03821660009081526002602052604090819020805460ff19166001179055519361117c85613afc565b600085526040519460a086018681106001600160401b038211176107f25760405284865282602087015281604087015260016060870152608086015260018060a01b0383166000526001602052604060002085518051906001600160401b0382116107f25781906111f182610ebf8654613ba9565b602090601f831160011461153457600092611529575b50508160011b916000199060031b1c19161781555b60208601518051906001600160401b0382116107f257819061124e826112456001870154613ba9565b60018701613e72565b602090601f83116001146114b7576000926114ac575b50508160011b916000199060031b1c19161760018201555b60408601518051906001600160401b0382116107f2576112ac826112a36002860154613ba9565b60028601613e72565b602090601f83116001146114375791806080949260049460009261142c575b50508160011b916000199060031b1c19161760028201555b61130260608901511515600383019060ff801983541691151516179055565b01950151948551906001600160401b0382116107f257600160401b968783116107f257602090825484845580851061140f575b500190600052602060002060005b8381106113f25750505050600454948510156107f2576113e4610754926113918760017f5e399ee004ff4fef571265f7bdd2e8ec7d18b86f1aeab0d8009f0df31b27259299016004556139fe565b81549060031b9060018060a01b038816821b9160018060a01b03901b19161790556113d660405196879660018060a01b03168752608060208801526080870190613a63565b908582036040870152613a63565b908382036060850152613a63565b82516001600160a01b031681830155602090920191600101611343565b611426908460005285846000209182019101613e5b565b89611335565b015190508a806112cb565b906002840160005260206000209160005b601f19851681106114945750926080949260019260049583601f1981161061147b575b505050811b0160028201556112e3565b015160001960f88460031b161c191690558a808061146b565b91926020600181928685015181550194019201611448565b015190508880611264565b9250600184016000526020600020906000935b601f198416851061150e576001945083601f198116106114f5575b505050811b01600182015561127c565b015160001960f88460031b161c191690558880806114e5565b818101518355602094850194600190930192909101906114ca565b015190508880611207565b9250836000526020600020906000935b601f1984168510611585576001945083601f1981161061156c575b505050811b01815561121c565b015160001960f88460031b161c1916905588808061155f565b81810151835560209485019460019093019290910190611544565b60405162461bcd60e51b815260206004820152602660248201527f416c616d6174207375646168207465726461667461722073656261676169205060448201526530b9b4b2b71760d11b6064820152608490fd5b60405162461bcd60e51b815260206004820152601760248201527f446f6b746572207375646168207465726461667461722e0000000000000000006044820152606490fd5b3461018e57604036600319011261018e576024356004356000526009602052604060002090815481101561018e5761167091613d6e565b50805460018201546001600160a01b03169161171d9061169260028201613be3565b9060038101546116a460048301613be3565b6116b060058401613be3565b6116bc60068501613be3565b6116c860078601613be3565b6116d460088701613be3565b916116e160098801613be3565b936116ee600a8901613be3565b956116fb600b8a01613be3565b9760ff600d61170c600c8d01613be3565b9b0154169a6040519e8f9e8f613c89565b0390f35b3461018e5760208060031936011261018e57600435600052600990818152604060002080546001600160401b0381116107f257916040519260059461176a8383881b0186613b32565b81855260009384528284208386019491855b8484106118e9575050505050604051928184019082855251809152604081818601961b85010192916000955b8287106117b55785850386f35b909192938280600192603f1989820301855287519081518152848060a01b038383015116838201526118cc6118b86118a461189061187c61186861185661184361183061181360408c015160408c6101c091829101528c0190613a63565b6060808d0151908c01526080808d0151908c8303908d0152613a63565b60a0808c0151908b8303908c0152613a63565b60c0808b0151908a8303908b0152613a63565b60e089015188820360e08a0152613a63565b610100808901519088830390890152613a63565b610120808801519087830390880152613a63565b610140808701519086830390870152613a63565b610160808601519085830390860152613a63565b610180808501519084830390850152613a63565b916101a080910151151591015296019201960195929190926117a8565b600e8660019260409a989a516118fe81613ae0565b86548152848060a01b0385880154168382015261191d60028801613be3565b60408201526003870154606082015261193860048801613be3565b60808201526119488d8801613be3565b60a082015261195960068801613be3565b60c082015261196a60078801613be3565b60e082015261197b60088801613be3565b61010082015261198c868801613be3565b61012082015261199e600a8801613be3565b6101408201526119b0600b8801613be3565b6101608201526119c2600c8801613be3565b61018082015260ff600d8801541615156101a082015281520193019301929196949661177c565b3461018e5760208060031936011261018e576001600160a01b03611a0b6139d2565b1660005260078152604060002060405190818382549182815201908192600052846000209060005b86828210611a89578686611a4982880383613b32565b604051928392818401908285525180915260408401929160005b828110611a7257505050500390f35b835185528695509381019392810192600101611a63565b835485529093019260019283019201611a33565b3461018e57602036600319011261018e576001600160a01b03611abe6139d2565b166000526001602052611b156040600020611ad881613be3565b90611b31611ae860018301613be3565b91611b2360ff6003611afc60028501613be3565b9301541693604051968796608088526080880190613a63565b908682036020880152613a63565b908482036040860152613a63565b90151560608301520390f35b3461018e57602036600319011261018e5761171d611b61611b5c6139d2565b614117565b604051918291602083526020830190613a63565b3461018e57602036600319011261018e576004356000908152600660205260409020805460018201546001600160a01b03169161171d9061169260028201613be3565b3461018e57604036600319011261018e57611bd16139d2565b602435908115159182810361018e577f3dcd68c14f5f191f12b3b56bf35d5d7eb22447e9ec685290967b4558822ca98a92611c5b60409360018060a01b0390611c1f82600054163314613dfd565b1692836000526002602052611c3a60ff866000205416613f1b565b836000526001602052600385600020019060ff801983541691151516179055565b82519182526020820152a1005b3461018e57600036600319011261018e576020600454604051908152f35b3461018e57602036600319011261018e577f4d644268affe3d5bee1f2f5cb981613ce82c79f04442f0d58c544d9cd09b2f8d6020611cc26139d2565b600054906001600160a01b0390611cdc3383851614613dfd565b1680916001600160601b0360a01b1617600055604051908152a1005b3461018e57604036600319011261018e576020611d24611d166139d2565b611d1e6139e8565b90613f8c565b6040519015158152f35b3461018e5761018036600319011261018e57611d486139d2565b6024356001600160401b03811161018e57611d67903690600401613b53565b906064356001600160401b03811161018e57611d87903690600401613b53565b916084356001600160401b03811161018e57611da7903690600401613b53565b9260a4356001600160401b03811161018e57611dc7903690600401613b53565b9360c4356001600160401b03811161018e57611de7903690600401613b53565b9460e4356001600160401b03811161018e57611e07903690600401613b53565b610104356001600160401b03811161018e57611e27903690600401613b53565b90610124356001600160401b03811161018e57611e48903690600401613b53565b97610144356001600160401b03811161018e57611e69903690600401613b53565b936001600160401b03610164351161018e57611e8b3661016435600401613b53565b95336001600160a01b038b161480156131ee575b1561318357611eaf600854613f67565b978860085560018060a01b036000541633146000146128eb5750505050505050505060085460405191611ee183613ae0565b8183526001600160a01b03841660208401526040808401919091526000606084015251611f0d81613afc565b600081526080830152604051611f2281613afc565b6000815260a0830152604051611f3781613afc565b6000815260c0830152604051611f4c81613afc565b6000815260e0830152604051611f6181613afc565b60008152610100830152604051611f7781613afc565b60008152610120830152604051611f8d81613afc565b60008152610140830152604051611fa381613afc565b60008152610160830152604051611fb981613afc565b6000815261018083015260016101a08301526000526006602052604060002090805182556001820160018060a01b036020830151166001600160601b0360a01b82541617905560408101518051906001600160401b0382116107f2578190612031826120286002880154613ba9565b60028801613e72565b602090601f83116001146128795760009261286e575b50508160011b916000199060031b1c19161760028301555b6060810151600383015560808101518051906001600160401b0382116107f257819061209b826120926004880154613ba9565b60048801613e72565b602090601f83116001146127fc576000926127f1575b50508160011b916000199060031b1c19161760048301555b60a08101518051906001600160401b0382116107f25781906120fb826120f26005880154613ba9565b60058801613e72565b602090601f831160011461277f57600092612774575b50508160011b916000199060031b1c19161760058301555b60c081015180516001600160401b0381116107f25780600685019261215282610ebf8654613ba9565b602090601f831160011461270e57600092612703575b50508160011b916000199060031b1c19161790555b60e081015180516001600160401b0381116107f2578060078501926121a682610ebf8654613ba9565b602090601f831160011461269d57600092612692575b50508160011b916000199060031b1c19161790555b61010081015180516001600160401b0381116107f2578060088501926121fb82610ebf8654613ba9565b602090601f831160011461262c57600092612621575b50508160011b916000199060031b1c19161790555b61012081015180516001600160401b0381116107f25780600985019261225082610ebf8654613ba9565b602090601f83116001146125bb576000926125b0575b50508160011b916000199060031b1c19161790555b61014081015180516001600160401b0381116107f25780600a8501926122a582610ebf8654613ba9565b602090601f831160011461254a5760009261253f575b50508160011b916000199060031b1c19161790555b61016081015180516001600160401b0381116107f25780600b8501926122fa82610ebf8654613ba9565b602090601f83116001146124d9576000926124ce575b50508160011b916000199060031b1c19161790555b600c82016101808201518051906001600160401b0382116107f2576123548261234e8554613ba9565b85613e72565b602090601f831160011461245b5792826101a0936123a5979693600d96600092612450575b50508160011b916000199060031b1c19161790555b0151151591019060ff801983541691151516179055565b6001600160a01b038116600090815260076020526040902060085481549391600160401b8510156107f257846124019160017f8647b41d1ffdc302f876f0e70e0c442d110a3c8bad284218f99616149394c99797018155613a4b565b819291549060031b91821b91600019901b191617905561244460085491604051938493845260018060a01b03166020840152608060408401526080830190613a63565b600160608301520390a1005b015190508a80612379565b90601f198316918460005260206000209260005b8181106124b65750936123a5979693600d9693600193836101a0981061249d575b505050811b01905561238e565b015160001960f88460031b161c191690558a8080612490565b9293602060018192878601518155019501930161246f565b015190508780612310565b6000858152602081209350601f198516905b818110612527575090846001959493921061250e575b505050811b019055612325565b015160001960f88460031b161c19169055878080612501565b929360206001819287860151815501950193016124eb565b0151905087806122bb565b6000858152602081209350601f198516905b818110612598575090846001959493921061257f575b505050811b0190556122d0565b015160001960f88460031b161c19169055878080612572565b9293602060018192878601518155019501930161255c565b015190508780612266565b6000858152602081209350601f198516905b81811061260957509084600195949392106125f0575b505050811b01905561227b565b015160001960f88460031b161c191690558780806125e3565b929360206001819287860151815501950193016125cd565b015190508780612211565b6000858152602081209350601f198516905b81811061267a5750908460019594939210612661575b505050811b019055612226565b015160001960f88460031b161c19169055878080612654565b9293602060018192878601518155019501930161263e565b0151905087806121bc565b6000858152602081209350601f198516905b8181106126eb57509084600195949392106126d2575b505050811b0190556121d1565b015160001960f88460031b161c191690558780806126c5565b929360206001819287860151815501950193016126af565b015190508780612168565b6000858152602081209350601f198516905b81811061275c5750908460019594939210612743575b505050811b01905561217d565b015160001960f88460031b161c19169055878080612736565b92936020600181928786015181550195019301612720565b015190508680612111565b9250600585016000526020600020906000935b601f19841685106127d6576001945083601f198116106127bd575b505050811b016005830155612129565b015160001960f88460031b161c191690558680806127ad565b81810151835560209485019460019093019290910190612792565b0151905086806120b1565b9250600485016000526020600020906000935b601f1984168510612853576001945083601f1981161061283a575b505050811b0160048301556120c9565b015160001960f88460031b161c1916905586808061282a565b8181015183556020948501946001909301929091019061280f565b015190508680612047565b9250600285016000526020600020906000935b601f19841685106128d0576001945083601f198116106128b7575b505050811b01600283015561205f565b015160001960f88460031b161c191690558680806128a7565b8181015183556020948501946001909301929091019061288c565b604051996128f88b613ae0565b898b5260018060a01b038c1660208c015260408b015260443560608b015260808a015260a089015260c088015260e08701526101008601526101208501528561014085015261016084015261018083015260016101a08301526000526006602052604060002090805182556001820160018060a01b036020830151166001600160601b0360a01b82541617905560408101518051906001600160401b0382116107f25781906129ae826120286002880154613ba9565b602090601f831160011461311157600092613106575b50508160011b916000199060031b1c19161760028301555b6060810151600383015560808101518051906001600160401b0382116107f2578190612a0f826120926004880154613ba9565b602090601f831160011461309457600092613089575b50508160011b916000199060031b1c19161760048301555b60a08101518051906001600160401b0382116107f2578190612a66826120f26005880154613ba9565b602090601f83116001146130175760009261300c575b50508160011b916000199060031b1c19161760058301555b60c081015180516001600160401b0381116107f257806006850192612abd82610ebf8654613ba9565b602090601f8311600114612fa657600092612f9b575b50508160011b916000199060031b1c19161790555b60e081015180516001600160401b0381116107f257806007850192612b1182610ebf8654613ba9565b602090601f8311600114612f3557600092612f2a575b50508160011b916000199060031b1c19161790555b61010081015180516001600160401b0381116107f257806008850192612b6682610ebf8654613ba9565b602090601f8311600114612ec457600092612eb9575b50508160011b916000199060031b1c19161790555b61012081015180516001600160401b0381116107f257806009850192612bbb82610ebf8654613ba9565b602090601f8311600114612e5357600092612e48575b50508160011b916000199060031b1c19161790555b61014081015180516001600160401b0381116107f25780600a850192612c1082610ebf8654613ba9565b602090601f8311600114612de257600092612dd7575b50508160011b916000199060031b1c19161790555b61016081015180516001600160401b0381116107f25780600b850192612c6582610ebf8654613ba9565b602090601f8311600114612d7157600092612d66575b50508160011b916000199060031b1c19161790555b600c82016101808201518051906001600160401b0382116107f257612cb98261234e8554613ba9565b602090601f8311600114612d0d5792826101a093612d08979693600d966000926124505750508160011b916000199060031b1c19161790550151151591019060ff801983541691151516179055565b6123a5565b90601f198316918460005260206000209260005b818110612d4e575093612d08979693600d9693600193836101a0981061249d57505050811b01905561238e565b92936020600181928786015181550195019301612d21565b015190508780612c7b565b6000858152602081209350601f198516905b818110612dbf5750908460019594939210612da6575b505050811b019055612c90565b015160001960f88460031b161c19169055878080612d99565b92936020600181928786015181550195019301612d83565b015190508780612c26565b6000858152602081209350601f198516905b818110612e305750908460019594939210612e17575b505050811b019055612c3b565b015160001960f88460031b161c19169055878080612e0a565b92936020600181928786015181550195019301612df4565b015190508780612bd1565b6000858152602081209350601f198516905b818110612ea15750908460019594939210612e88575b505050811b019055612be6565b015160001960f88460031b161c19169055878080612e7b565b92936020600181928786015181550195019301612e65565b015190508780612b7c565b6000858152602081209350601f198516905b818110612f125750908460019594939210612ef9575b505050811b019055612b91565b015160001960f88460031b161c19169055878080612eec565b92936020600181928786015181550195019301612ed6565b015190508780612b27565b6000858152602081209350601f198516905b818110612f835750908460019594939210612f6a575b505050811b019055612b3c565b015160001960f88460031b161c19169055878080612f5d565b92936020600181928786015181550195019301612f47565b015190508780612ad3565b6000858152602081209350601f198516905b818110612ff45750908460019594939210612fdb575b505050811b019055612ae8565b015160001960f88460031b161c19169055878080612fce565b92936020600181928786015181550195019301612fb8565b015190508680612a7c565b9250600585016000526020600020906000935b601f198416851061306e576001945083601f19811610613055575b505050811b016005830155612a94565b015160001960f88460031b161c19169055868080613045565b8181015183556020948501946001909301929091019061302a565b015190508680612a25565b9250600485016000526020600020906000935b601f19841685106130eb576001945083601f198116106130d2575b505050811b016004830155612a3d565b015160001960f88460031b161c191690558680806130c2565b818101518355602094850194600190930192909101906130a7565b0151905086806129c4565b9250600285016000526020600020906000935b601f1984168510613168576001945083601f1981161061314f575b505050811b0160028301556129dc565b015160001960f88460031b161c1916905586808061313f565b81810151835560209485019460019093019290910190613124565b60405162461bcd60e51b815260206004820152603760248201527f48616e79612070617369656e20617461752061646d696e2079616e672062697360448201527f61206d656e616d6261682072656b616d206d656469732e0000000000000000006064820152608490fd5b506000546001600160a01b03163314611e9f565b3461018e57602036600319011261018e5760043560055481101561018e5760056000527f036b6384b5eca791c62761152d0c79bb0604c104a5fb6f4eb0703f3154bb3db001546040516001600160a01b039091168152602090f35b3461018e57602036600319011261018e576001600160a01b0361327e6139d2565b166000526002602052602060ff604060002054166040519015158152f35b3461018e57600036600319011261018e576040518060055480825282602080930160056000527f036b6384b5eca791c62761152d0c79bb0604c104a5fb6f4eb0703f3154bb3db09260005b85828210613312575050506132fe92500383613b32565b61171d604051928284938452830190613aa3565b85546001600160a01b03168452600195860195889550930192016132e7565b3461018e57602036600319011261018e5760043560045481101561018e5761335a6020916139fe565b905460405160039290921b1c6001600160a01b03168152f35b3461018e57602036600319011261018e576001600160a01b036133946139d2565b1660005260016020526133fa604060002061171d60ff6003830154166133b983613be3565b926134166133c960018301613be3565b916134086133e560046133de60028501613be3565b9301613ff4565b9360405198899860a08a5260a08a0190613a63565b9088820360208a0152613a63565b908682036040880152613a63565b91151560608501528382036080850152613aa3565b3461018e57602036600319011261018e576001600160a01b0361344c6139d2565b1680600052600260205261346760ff60406000205416613f1b565b600052600160205261171d6134826004604060002001613ff4565b604051918291602083526020830190613aa3565b3461018e57600036600319011261018e5733600052600360205260ff6040600020541661350b573360005260036020526040600020600160ff198254161790556134df33613eb7565b7f4b58b2df530813522df235c26662546cdf2164ef8e0f7c6d18f415d15da470586020604051338152a1005b60405162461bcd60e51b8152602060048201526024808201527f416e64612073756461682074657264616674617220736562616761692050617360448201526334b2b71760e11b6064820152608490fd5b3461018e57600036600319011261018e576020600854604051908152f35b3461018e57602036600319011261018e5761171d611b616135996139d2565b61404c565b3461018e57604036600319011261018e576135b76139d2565b6135bf6139e8565b9060018060a01b0380916135d882600054163314613dfd565b168060005281602093600285526135f660ff60406000205416613f1b565b168060005260039384815260ff60406000205416156137045782600052600181526004604060002001946000948654955b86811061368a5750600160401b8610156107f25761366e867fd9a2627959a7f46a8b96c10424cdae1f1b65151551cd206b119aca54c0a86a5a986001604099018155613a4b565b81939154911b9185831b921b19161790558351928352820152a1005b8482613696838b613a4b565b905490861b1c16146136b0576136ab90613f67565b613627565b60405162461bcd60e51b815260048101859052602660248201527f50617369656e20737564616820646974756761736b616e206b6520646f6b7465604482015265391034b7349760d11b6064820152608490fd5b6064906040519062461bcd60e51b82526004820152601760248201527f50617369656e20746964616b207465726461667461722e0000000000000000006044820152fd5b3461018e57602036600319011261018e576001600160a01b036137696139d2565b166000526003602052602060ff604060002054166040519015158152f35b3461018e57602036600319011261018e576137ad60018060a01b03600054163314613dfd565b6004356000908152600660205260409020600d01805460ff19169055005b3461018e57602036600319011261018e576004356004548110156137f45761335a6020916139fe565b60405162461bcd60e51b815260206004820152601960248201527f496e64657820646f6b74657220746964616b2076616c69642e000000000000006044820152606490fd5b3461018e5760208060031936011261018e576138536139d2565b9060018060a01b0361386a81600054163314613dfd565b8216806000526002825260ff6040600020541661392657806000526003825260ff604060002054166138e1576138d87f4b58b2df530813522df235c26662546cdf2164ef8e0f7c6d18f415d15da470589382600052600384526040600020600160ff19825416179055613eb7565b604051908152a1005b60405162461bcd60e51b815260048101839052601760248201527f50617369656e207375646168207465726461667461722e0000000000000000006044820152606490fd5b60405162461bcd60e51b815260048101839052602660248201527f416c616d6174207375646168207465726461667461722073656261676169204460448201526537b5ba32b91760d11b6064820152608490fd5b3461018e57604036600319011261018e576139936139d2565b6001600160a01b031660009081526007602052604090208054602435919082101561018e576020916139c491613a4b565b90546040519160031b1c8152f35b600435906001600160a01b038216820361018e57565b602435906001600160a01b038216820361018e57565b600454811015613a355760046000527f8a35acfbc15ff81a39ae7d344fd709f28e8600b4aa8c65c6b64bfe7fe36bd19b0190600090565b634e487b7160e01b600052603260045260246000fd5b8054821015613a355760005260206000200190600090565b919082519283825260005b848110613a8f575050826000602080949584010152601f8019910116010190565b602081830181015184830182015201613a6e565b90815180825260208080930193019160005b828110613ac3575050505090565b83516001600160a01b031685529381019392810192600101613ab5565b6101c081019081106001600160401b038211176107f257604052565b602081019081106001600160401b038211176107f257604052565b604081019081106001600160401b038211176107f257604052565b90601f801991011681019081106001600160401b038211176107f257604052565b81601f8201121561018e578035906001600160401b0382116107f25760405192613b87601f8401601f191660200185613b32565b8284526020838301011161018e57816000926020809301838601378301015290565b90600182811c92168015613bd9575b6020831014613bc357565b634e487b7160e01b600052602260045260246000fd5b91607f1691613bb8565b9060405191826000825492613bf784613ba9565b908184526001948581169081600014613c665750600114613c23575b5050613c2192500383613b32565b565b9093915060005260209081600020936000915b818310613c4e575050613c2193508201013880613c13565b85548884018501529485019487945091830191613c36565b915050613c2194506020925060ff191682840152151560051b8201013880613c13565b9d9e9d6101a09c98613d0d829f9c9699613cff613d669f9a613cf1613d579f989d613d399c613d489f613d2a9c613cde91613d1b9c8c5260018060a01b031660208c01526101c08060408d01528b0190613a63565b9160608a015288820360808a0152613a63565b9086820360a0880152613a63565b9084820360c0860152613a63565b9160e0818403910152613a63565b8c81036101008e015290613a63565b908a82036101208c0152613a63565b908882036101408a0152613a63565b90868203610160880152613a63565b90848203610180860152613a63565b931515910152565b8054821015613a3557600052600e602060002091020190600090565b90608060031983011261018e576004356001600160a01b038116810361018e57916001600160401b039160243583811161018e5782613dcb91600401613b53565b9260443581811161018e5783613de391600401613b53565b9260643591821161018e57613dfa91600401613b53565b90565b15613e0457565b60405162461bcd60e51b815260206004820152602960248201527f48616e79612061646d696e2079616e672062697361206d656c616b756b616e2060448201526830b5b9b49034b7349760b91b6064820152608490fd5b818110613e66575050565b60008155600101613e5b565b9190601f8111613e8157505050565b613c21926000526020600020906020601f840160051c83019310613ead575b601f0160051c0190613e5b565b9091508190613ea0565b600554600160401b8110156107f2576001810180600555811015613a355760056000527f036b6384b5eca791c62761152d0c79bb0604c104a5fb6f4eb0703f3154bb3db00180546001600160a01b0319166001600160a01b03909216919091179055565b15613f2257565b60405162461bcd60e51b815260206004820152601760248201527f446f6b74657220746964616b207465726461667461722e0000000000000000006044820152606490fd5b6000198114613f765760010190565b634e487b7160e01b600052601160045260246000fd5b60018060a01b038091166000526001908160205260046040600020016000938154945b858110613fc157505050505050600090565b83613fcc8285613a4b565b9190548185169260031b1c1614613feb57613fe690613f67565b613faf565b50505050905090565b9060405191828154918282526020928383019160005283600020936000905b82821061402957505050613c2192500383613b32565b85546001600160a01b031684526001958601958895509381019390910190614013565b6000546001600160a01b03918216911681146140f55780600052600260205260ff604060002054166140d257600052600360205260ff604060002054166140b05760405161409981613b17565b60078152662ab735b737bbb760c91b602082015290565b6040516140bc81613b17565b60068152652830b9b4b2b760d11b602082015290565b506040516140df81613b17565b60068152652237b5ba32b960d11b602082015290565b5060405161410281613b17565b600581526420b236b4b760d91b602082015290565b6001600160a01b03166000908152600760209081526040808320905181548082529184528284208184019282908490875b878282106141ac5750505061415f92500382613b32565b80511561419757511561418357613dfa926006600293604093518352522001613be3565b634e487b7160e01b83526032600452602483fd5b505050604051906141a782613afc565b815290565b8554845260019586019587955093019201614148565b90808214614296576141d48154613ba9565b906001600160401b0382116107f25781906141f382610ebf8654613ba9565b600090601f831160011461422a5760009261421f575b50508160011b916000199060031b1c1916179055565b015490503880614209565b81526020808220858352818320935090601f1985169083905b82821061427d575050908460019594939210614264575b505050811b019055565b015460001960f88460031b161c1916905538808061425a565b8495819295850154815560018091019601940190614243565b505056fea2646970667358221220fde91062e98781e066c849fac750636efbe85beb2b210954f62706cffdd35a9064736f6c63430008130033",
  "immutableReferences": {},
  "source": "// SPDX-License-Identifier: MIT\r\npragma solidity >=0.4.22 <0.9.0;\r\n\r\ncontract RekamMedis {\r\n    address public admin;\r\n\r\n    struct Dokter {\r\n        string nama;\r\n        string spesialisasi;\r\n        string nomorLisensi;\r\n        bool aktif;\r\n        address[] assignedPasien;\r\n    }\r\n\r\n    mapping(address => Dokter) public dataDokter;\r\n    mapping(address => bool) public isDokter;\r\n    mapping(address => bool) public isPasien;\r\n\r\n    address[] public daftarDokter; // daftar semua alamat dokter\r\n    address[] public daftarPasien; // daftar semua alamat pasien\r\n\r\n    struct RekamMedisData {\r\n        uint id;\r\n        address pasien;\r\n        string nama;\r\n        uint umur;\r\n        string golonganDarah;\r\n        string tanggalLahir;\r\n        string gender;\r\n        string alamat;\r\n        string noTelepon;\r\n        string email;\r\n        string diagnosa;\r\n        string foto;\r\n        string catatan;\r\n        bool valid;\r\n    }\r\n\r\n    mapping(uint => RekamMedisData) public rekamMedis;\r\n    mapping(address => uint[]) public rekamMedisByPasien;\r\n\r\n    uint public rekamMedisCount;\r\n\r\n    // Versi history rekam medis\r\n    mapping(uint => RekamMedisData[]) public rekamMedisVersions;\r\n\r\n    // Events\r\n    event RekamMedisDitambahkan(\r\n        uint id,\r\n        address pasien,\r\n        string diagnosa,\r\n        bool valid\r\n    );\r\n    event RekamMedisDiperbarui(uint id, string diagnosa, string catatan);\r\n    event AdminDitetapkan(address newAdmin);\r\n    event DokterTerdaftar(\r\n        address dokter,\r\n        string nama,\r\n        string spesialisasi,\r\n        string nomorLisensi\r\n    );\r\n    event DokterStatusDiubah(address dokter, bool aktif);\r\n    event PasienDiassignKeDokter(address dokter, address pasien);\r\n    event PasienTerdaftar(address pasien);\r\n\r\n    constructor() {\r\n        admin = msg.sender; // Set pembuat kontrak sebagai admin awal\r\n    }\r\n\r\n    modifier hanyaAdmin() {\r\n        require(\r\n            msg.sender == admin,\r\n            \"Hanya admin yang bisa melakukan aksi ini.\"\r\n        );\r\n        _;\r\n    }\r\n\r\n    modifier hanyaDokterAktif() {\r\n        require(\r\n            isDokter[msg.sender] && dataDokter[msg.sender].aktif,\r\n            \"Hanya dokter aktif yang bisa memperbarui rekam medis.\"\r\n        );\r\n        _;\r\n    }\r\n\r\n    modifier hanyaDokterAktifUntukPasien(address _pasien) {\r\n        require(\r\n            isDokter[msg.sender] && dataDokter[msg.sender].aktif,\r\n            \"Hanya dokter aktif yang bisa memperbarui rekam medis.\"\r\n        );\r\n        require(\r\n            isPasienAssignedToDokter(msg.sender, _pasien),\r\n            \"Dokter tidak di-assign untuk pasien ini.\"\r\n        );\r\n        _;\r\n    }\r\n\r\n    modifier hanyaPasien(address pasien) {\r\n        require(\r\n            msg.sender == pasien,\r\n            \"Hanya pasien yang bisa membuat rekam medis mereka.\"\r\n        );\r\n        _;\r\n    }\r\n\r\n    // Register dokter baru dengan tambahan spesialisasi dan nomor lisensi\r\n    function registerDokter(\r\n        address _dokter,\r\n        string memory _nama,\r\n        string memory _spesialisasi,\r\n        string memory _nomorLisensi\r\n    ) public hanyaAdmin {\r\n        require(!isDokter[_dokter], \"Dokter sudah terdaftar.\");\r\n        require(!isPasien[_dokter], \"Alamat sudah terdaftar sebagai Pasien.\");\r\n        isDokter[_dokter] = true;\r\n        dataDokter[_dokter] = Dokter({\r\n            nama: _nama,\r\n            spesialisasi: _spesialisasi,\r\n            nomorLisensi: _nomorLisensi,\r\n            aktif: true,\r\n            assignedPasien: new address[](0)\r\n        });\r\n        daftarDokter.push(_dokter);\r\n        emit DokterTerdaftar(_dokter, _nama, _spesialisasi, _nomorLisensi);\r\n    }\r\n\r\n    function totalDokter() public view returns (uint) {\r\n        return daftarDokter.length;\r\n    }\r\n\r\n    function getDokterByIndex(uint index) public view returns (address) {\r\n        require(index < daftarDokter.length, \"Index dokter tidak valid.\");\r\n        return daftarDokter[index];\r\n    }\r\n\r\n    // Set status dokter aktif/nonaktif (tidak perlu ubah spesialisasi dan lisensi di sini)\r\n    function setStatusDokter(address _dokter, bool _aktif) public hanyaAdmin {\r\n        require(isDokter[_dokter], \"Dokter tidak terdaftar.\");\r\n        dataDokter[_dokter].aktif = _aktif;\r\n        emit DokterStatusDiubah(_dokter, _aktif);\r\n    }\r\n\r\n    // Update data dokter (misal untuk update nama, spesialisasi, atau nomor lisensi)\r\n    function updateDataDokter(\r\n        address _dokter,\r\n        string memory _nama,\r\n        string memory _spesialisasi,\r\n        string memory _nomorLisensi\r\n    ) public hanyaAdmin {\r\n        require(isDokter[_dokter], \"Dokter tidak terdaftar.\");\r\n        dataDokter[_dokter].nama = _nama;\r\n        dataDokter[_dokter].spesialisasi = _spesialisasi;\r\n        dataDokter[_dokter].nomorLisensi = _nomorLisensi;\r\n        // Emit event jika perlu dibuat event update dokter (tidak wajib)\r\n    }\r\n\r\n    function assignPasienToDokter(\r\n        address _dokter,\r\n        address _pasien\r\n    ) public hanyaAdmin {\r\n        require(isDokter[_dokter], \"Dokter tidak terdaftar.\");\r\n        require(isPasien[_pasien], \"Pasien tidak terdaftar.\");\r\n        address[] storage pasienDokter = dataDokter[_dokter].assignedPasien;\r\n        for (uint i = 0; i < pasienDokter.length; i++) {\r\n            require(\r\n                pasienDokter[i] != _pasien,\r\n                \"Pasien sudah ditugaskan ke dokter ini.\"\r\n            );\r\n        }\r\n        pasienDokter.push(_pasien);\r\n        emit PasienDiassignKeDokter(_dokter, _pasien);\r\n    }\r\n\r\n    function isPasienAssignedToDokter(\r\n        address _dokter,\r\n        address _pasien\r\n    ) public view returns (bool) {\r\n        address[] storage pasienList = dataDokter[_dokter].assignedPasien;\r\n        for (uint i = 0; i < pasienList.length; i++) {\r\n            if (pasienList[i] == _pasien) {\r\n                return true;\r\n            }\r\n        }\r\n        return false;\r\n    }\r\n\r\n    function getAssignedPasienByDokter(\r\n        address _dokter\r\n    ) public view returns (address[] memory) {\r\n        require(isDokter[_dokter], \"Dokter tidak terdaftar.\");\r\n        return dataDokter[_dokter].assignedPasien;\r\n    }\r\n\r\n    // Get data dokter lengkap termasuk spesialisasi dan nomor lisensi\r\n    function getDokter(\r\n        address _dokter\r\n    )\r\n        public\r\n        view\r\n        returns (\r\n            string memory nama,\r\n            string memory spesialisasi,\r\n            string memory nomorLisensi,\r\n            bool aktif,\r\n            address[] memory pasien\r\n        )\r\n    {\r\n        Dokter storage d = dataDokter[_dokter];\r\n        return (\r\n            d.nama,\r\n            d.spesialisasi,\r\n            d.nomorLisensi,\r\n            d.aktif,\r\n            d.assignedPasien\r\n        );\r\n    }\r\n\r\n    // Daftarkan pasien oleh admin tanpa menyimpan nama secara terpisah,\r\n    // nama pasien diambil dari data rekam medis pertama\r\n    function registerPasien(address _pasien) public hanyaAdmin {\r\n        require(!isDokter[_pasien], \"Alamat sudah terdaftar sebagai Dokter.\");\r\n        require(!isPasien[_pasien], \"Pasien sudah terdaftar.\");\r\n        isPasien[_pasien] = true;\r\n        daftarPasien.push(_pasien);\r\n        emit PasienTerdaftar(_pasien);\r\n    }\r\n\r\n    // Self register pasien tanpa nama (bisa dikembangkan)\r\n    function selfRegisterPasien() public {\r\n        require(!isPasien[msg.sender], \"Anda sudah terdaftar sebagai Pasien.\");\r\n        isPasien[msg.sender] = true;\r\n        daftarPasien.push(msg.sender);\r\n        emit PasienTerdaftar(msg.sender);\r\n    }\r\n\r\n    // Ambil role user\r\n    function getUserRole(address _user) public view returns (string memory) {\r\n        if (_user == admin) return \"Admin\";\r\n        if (isDokter[_user]) return \"Dokter\";\r\n        if (isPasien[_user]) return \"Pasien\";\r\n        return \"Unknown\";\r\n    }\r\n\r\n    // Ambil daftar rekam medis milik pasien\r\n    function getRekamMedisIdsByPasien(\r\n        address pasien\r\n    ) public view returns (uint[] memory) {\r\n        return rekamMedisByPasien[pasien];\r\n    }\r\n\r\n    // Ambil daftar semua pasien\r\n    function getDaftarPasien() public view returns (address[] memory) {\r\n        return daftarPasien;\r\n    }\r\n\r\n    // Ambil nama pasien dari rekam medis pertama (jika ada)\r\n    function getNamaPasien(\r\n        address _pasien\r\n    ) public view returns (string memory) {\r\n        uint[] memory ids = rekamMedisByPasien[_pasien];\r\n        if (ids.length == 0) {\r\n            return \"\";\r\n        }\r\n        return rekamMedis[ids[0]].nama;\r\n    }\r\n\r\n    // Set admin baru\r\n    function setAdmin(address _newAdmin) public hanyaAdmin {\r\n        admin = _newAdmin;\r\n        emit AdminDitetapkan(_newAdmin);\r\n    }\r\n\r\n    // Tambah rekam medis pasien (self data input)\r\n    function tambahRekamMedis(\r\n        address _pasien,\r\n        string memory _nama,\r\n        uint _umur,\r\n        string memory _golonganDarah,\r\n        string memory _tanggalLahir,\r\n        string memory _gender,\r\n        string memory _alamat,\r\n        string memory _noTelepon,\r\n        string memory _email,\r\n        string memory _diagnosa,\r\n        string memory _foto,\r\n        string memory _catatan\r\n    ) public {\r\n        require(\r\n            msg.sender == _pasien || msg.sender == admin,\r\n            \"Hanya pasien atau admin yang bisa menambah rekam medis.\"\r\n        );\r\n\r\n        rekamMedisCount++;\r\n\r\n        if (msg.sender == admin) {\r\n            // Jika admin, simpan hanya nama, sisanya kosong atau default\r\n            rekamMedis[rekamMedisCount] = RekamMedisData(\r\n                rekamMedisCount,\r\n                _pasien,\r\n                _nama,\r\n                0, // umur default\r\n                \"\", // golonganDarah kosong\r\n                \"\", // tanggalLahir kosong\r\n                \"\", // gender kosong\r\n                \"\", // alamat kosong\r\n                \"\", // noTelepon kosong\r\n                \"\", // email kosong\r\n                \"\", // diagnosa kosong\r\n                \"\", // foto kosong\r\n                \"\", // catatan kosong\r\n                true\r\n            );\r\n        } else {\r\n            // Jika pasien, simpan semua data sesuai input\r\n            rekamMedis[rekamMedisCount] = RekamMedisData(\r\n                rekamMedisCount,\r\n                _pasien,\r\n                _nama,\r\n                _umur,\r\n                _golonganDarah,\r\n                _tanggalLahir,\r\n                _gender,\r\n                _alamat,\r\n                _noTelepon,\r\n                _email,\r\n                _diagnosa,\r\n                _foto,\r\n                _catatan,\r\n                true\r\n            );\r\n        }\r\n\r\n        rekamMedisByPasien[_pasien].push(rekamMedisCount);\r\n        emit RekamMedisDitambahkan(rekamMedisCount, _pasien, _diagnosa, true);\r\n    }\r\n\r\n    // Update rekam medis dokter aktif\r\n    function updateRekamMedis(\r\n        uint _id,\r\n        string memory _nama,\r\n        uint _umur,\r\n        string memory _golonganDarah,\r\n        string memory _tanggalLahir,\r\n        string memory _gender,\r\n        string memory _alamat,\r\n        string memory _noTelepon,\r\n        string memory _email,\r\n        string memory _diagnosa,\r\n        string memory _foto,\r\n        string memory _catatan\r\n    ) public hanyaDokterAktifUntukPasien(rekamMedis[_id].pasien) {\r\n        RekamMedisData storage rekam = rekamMedis[_id];\r\n        rekamMedisVersions[_id].push(rekam);\r\n        rekam.nama = _nama;\r\n        rekam.umur = _umur;\r\n        rekam.golonganDarah = _golonganDarah;\r\n        rekam.tanggalLahir = _tanggalLahir;\r\n        rekam.gender = _gender;\r\n        rekam.alamat = _alamat;\r\n        rekam.noTelepon = _noTelepon;\r\n        rekam.email = _email;\r\n        rekam.diagnosa = _diagnosa;\r\n        rekam.foto = _foto;\r\n        rekam.catatan = _catatan;\r\n        emit RekamMedisDiperbarui(_id, _diagnosa, _catatan);\r\n    }\r\n\r\n    // Fungsi untuk ambil versi rekam medis\r\n    function getRekamMedisVersions(\r\n        uint _id\r\n    ) public view returns (RekamMedisData[] memory) {\r\n        return rekamMedisVersions[_id];\r\n    }\r\n\r\n    // Nonaktifkan rekam medis (admin)\r\n    function nonaktifkanRekamMedis(uint _id) public hanyaAdmin {\r\n        rekamMedis[_id].valid = false;\r\n    }\r\n}\r\n",
  "sourcePath": "D:\\TA\\Rekam_Medis_Blockchain\\rekam_medis_backend\\contracts\\RekamMedis.sol",
  "compiler": {
    "name": "solc",
    "version": "0.8.19+commit.7dd6d404.Emscripten.clang"
  },
  "schemaVersion": "3.4.16",
  "updatedAt": "2025-05-21T19:46:04.885Z",
  "networkType": "ethereum",
  "devdoc": {
    "kind": "dev",
    "methods": {},
    "version": 1
  },
  "userdoc": {
    "kind": "user",
    "methods": {},
    "version": 1
  }
}