{
  "contractName": "RekamMedis",
  "abi": [
    {
      "inputs": [],
      "stateMutability": "nonpayable",
      "type": "constructor"
    },
    {
      "anonymous": false,
      "inputs": [
        {
          "indexed": false,
          "internalType": "address",
          "name": "newAdmin",
          "type": "address"
        }
      ],
      "name": "AdminDitetapkan",
      "type": "event"
    },
    {
      "anonymous": false,
      "inputs": [
        {
          "indexed": false,
          "internalType": "uint256",
          "name": "id",
          "type": "uint256"
        },
        {
          "indexed": false,
          "internalType": "string",
          "name": "diagnosa",
          "type": "string"
        },
        {
          "indexed": false,
          "internalType": "string",
          "name": "catatan",
          "type": "string"
        }
      ],
      "name": "RekamMedisDiperbarui",
      "type": "event"
    },
    {
      "anonymous": false,
      "inputs": [
        {
          "indexed": false,
          "internalType": "uint256",
          "name": "id",
          "type": "uint256"
        },
        {
          "indexed": false,
          "internalType": "address",
          "name": "pasien",
          "type": "address"
        },
        {
          "indexed": false,
          "internalType": "string",
          "name": "diagnosa",
          "type": "string"
        },
        {
          "indexed": false,
          "internalType": "bool",
          "name": "valid",
          "type": "bool"
        }
      ],
      "name": "RekamMedisDitambahkan",
      "type": "event"
    },
    {
      "inputs": [],
      "name": "admin",
      "outputs": [
        {
          "internalType": "address",
          "name": "",
          "type": "address"
        }
      ],
      "stateMutability": "view",
      "type": "function"
    },
    {
      "inputs": [
        {
          "internalType": "address",
          "name": "",
          "type": "address"
        }
      ],
      "name": "isDokter",
      "outputs": [
        {
          "internalType": "bool",
          "name": "",
          "type": "bool"
        }
      ],
      "stateMutability": "view",
      "type": "function"
    },
    {
      "inputs": [
        {
          "internalType": "address",
          "name": "",
          "type": "address"
        }
      ],
      "name": "isPasien",
      "outputs": [
        {
          "internalType": "bool",
          "name": "",
          "type": "bool"
        }
      ],
      "stateMutability": "view",
      "type": "function"
    },
    {
      "inputs": [
        {
          "internalType": "uint256",
          "name": "",
          "type": "uint256"
        }
      ],
      "name": "rekamMedis",
      "outputs": [
        {
          "internalType": "uint256",
          "name": "id",
          "type": "uint256"
        },
        {
          "internalType": "address",
          "name": "pasien",
          "type": "address"
        },
        {
          "internalType": "string",
          "name": "nama",
          "type": "string"
        },
        {
          "internalType": "uint256",
          "name": "umur",
          "type": "uint256"
        },
        {
          "internalType": "string",
          "name": "golonganDarah",
          "type": "string"
        },
        {
          "internalType": "string",
          "name": "tanggalLahir",
          "type": "string"
        },
        {
          "internalType": "string",
          "name": "gender",
          "type": "string"
        },
        {
          "internalType": "string",
          "name": "alamat",
          "type": "string"
        },
        {
          "internalType": "string",
          "name": "noTelepon",
          "type": "string"
        },
        {
          "internalType": "string",
          "name": "email",
          "type": "string"
        },
        {
          "internalType": "string",
          "name": "diagnosa",
          "type": "string"
        },
        {
          "internalType": "string",
          "name": "foto",
          "type": "string"
        },
        {
          "internalType": "string",
          "name": "catatan",
          "type": "string"
        },
        {
          "internalType": "bool",
          "name": "valid",
          "type": "bool"
        }
      ],
      "stateMutability": "view",
      "type": "function"
    },
    {
      "inputs": [
        {
          "internalType": "address",
          "name": "",
          "type": "address"
        },
        {
          "internalType": "uint256",
          "name": "",
          "type": "uint256"
        }
      ],
      "name": "rekamMedisByPasien",
      "outputs": [
        {
          "internalType": "uint256",
          "name": "",
          "type": "uint256"
        }
      ],
      "stateMutability": "view",
      "type": "function"
    },
    {
      "inputs": [],
      "name": "rekamMedisCount",
      "outputs": [
        {
          "internalType": "uint256",
          "name": "",
          "type": "uint256"
        }
      ],
      "stateMutability": "view",
      "type": "function"
    },
    {
      "inputs": [
        {
          "internalType": "address",
          "name": "_dokter",
          "type": "address"
        }
      ],
      "name": "registerDokter",
      "outputs": [],
      "stateMutability": "nonpayable",
      "type": "function"
    },
    {
      "inputs": [
        {
          "internalType": "address",
          "name": "_pasien",
          "type": "address"
        }
      ],
      "name": "registerPasien",
      "outputs": [],
      "stateMutability": "nonpayable",
      "type": "function"
    },
    {
      "inputs": [
        {
          "internalType": "address",
          "name": "_user",
          "type": "address"
        }
      ],
      "name": "getUserRole",
      "outputs": [
        {
          "internalType": "string",
          "name": "",
          "type": "string"
        }
      ],
      "stateMutability": "view",
      "type": "function"
    },
    {
      "inputs": [
        {
          "internalType": "address",
          "name": "_newAdmin",
          "type": "address"
        }
      ],
      "name": "setAdmin",
      "outputs": [],
      "stateMutability": "nonpayable",
      "type": "function"
    },
    {
      "inputs": [
        {
          "internalType": "address",
          "name": "_pasien",
          "type": "address"
        },
        {
          "internalType": "string",
          "name": "_nama",
          "type": "string"
        },
        {
          "internalType": "uint256",
          "name": "_umur",
          "type": "uint256"
        },
        {
          "internalType": "string",
          "name": "_golonganDarah",
          "type": "string"
        },
        {
          "internalType": "string",
          "name": "_tanggalLahir",
          "type": "string"
        },
        {
          "internalType": "string",
          "name": "_gender",
          "type": "string"
        },
        {
          "internalType": "string",
          "name": "_alamat",
          "type": "string"
        },
        {
          "internalType": "string",
          "name": "_noTelepon",
          "type": "string"
        },
        {
          "internalType": "string",
          "name": "_email",
          "type": "string"
        },
        {
          "internalType": "string",
          "name": "_diagnosa",
          "type": "string"
        },
        {
          "internalType": "string",
          "name": "_foto",
          "type": "string"
        },
        {
          "internalType": "string",
          "name": "_catatan",
          "type": "string"
        }
      ],
      "name": "tambahRekamMedis",
      "outputs": [],
      "stateMutability": "nonpayable",
      "type": "function"
    },
    {
      "inputs": [
        {
          "internalType": "uint256",
          "name": "_id",
          "type": "uint256"
        },
        {
          "internalType": "string",
          "name": "_diagnosa",
          "type": "string"
        },
        {
          "internalType": "string",
          "name": "_catatan",
          "type": "string"
        }
      ],
      "name": "updateRekamMedis",
      "outputs": [],
      "stateMutability": "nonpayable",
      "type": "function"
    },
    {
      "inputs": [
        {
          "internalType": "uint256",
          "name": "_id",
          "type": "uint256"
        }
      ],
      "name": "nonaktifkanRekamMedis",
      "outputs": [],
      "stateMutability": "nonpayable",
      "type": "function"
    }
  ],
  "bytecode": "0x6080806040523461003c57600080546001600160a01b03191673153f67a7b7169ce3f13f8a81dc9cae0bc27dbf21179055611b2390816100428239f35b600080fdfe6080604052600436101561001257600080fd5b60003560e01c8062410cb314611777578063010ef3b314611728578063083d8824146116e45780631132beb5146116a557806327820851146116695780632e2dd1021461164b57806346d24603146115fa5780635c4c9348146115bb57806368f5dc9914610679578063704b6c0214610602578063abf72abb14610470578063bb2be1cc146100d85763f851a440146100aa57600080fd5b346100d35760003660031901126100d3576000546040516001600160a01b039091168152602090f35b600080fd5b346100d35760603660031901126100d3576001600160401b036004356024358281116100d35761010c90369060040161188f565b6044358381116100d35761012490369060040161188f565b9033600052600160209481865260ff60406000205416801561045c575b156103f1578460005260038652604060002091600a8301928451938385116103245761016d81546118e5565b94601f958681116103ab575b5089868211600114610345579080600c94939260009161033a575b50600019600383901b1c191690851b1790555b01928551928311610324576101bc84546118e5565b8181116102de575b508790831160011461024f579282806102319461023f97947f2a3c8ca9ac6f36396c175111b8f04207d249d61d733222e37c97a5ed7cfa7e139b9a9997600093610244575b501b916000199060031b1c19161790555b606060405196879687528601526060850190611813565b908382036040850152611813565b0390a1005b88015192508c610209565b601f9291921982169084600052886000209160005b8181106102c95750927f2a3c8ca9ac6f36396c175111b8f04207d249d61d733222e37c97a5ed7cfa7e13999897959261023195928261023f9996106102b0575b5050811b01905561021a565b87015160001960f88460031b161c191690558a806102a4565b88830151845592850192918a01918a01610264565b84600052886000208280860160051c8201928b871061031b575b0160051c019083905b82811061030f5750506101c4565b60008155018390610301565b925081926102f8565b634e487b7160e01b600052604160045260246000fd5b90508801518c610194565b60008381528b8120601f198416959493879390928e5b8c8983106103955750505082600c971061037c575b5050811b0190556101a7565b8a015160001960f88460031b161c191690558c80610370565b830151845589959093019291820191018e61035b565b826000528a6000208780840160051c8201928d85106103e8575b0160051c019085905b8281106103dc575050610179565b600081550185906103ce565b925081926103c5565b60405162461bcd60e51b815260048101879052603a60248201527f48616e796120646f6b74657220617461752061646d696e2079616e672062697360448201527f61206d656d70657262617275692072656b616d206d656469732e0000000000006064820152608490fd5b506000546001600160a01b03163314610141565b346100d35760203660031901126100d3576004356000908152600360205260409020805460018201546001600160a01b0316916104af6002820161191f565b906003810154600482016104c29061191f565b6104ce6005840161191f565b6104da6006850161191f565b6104e66007860161191f565b6104f26008870161191f565b916104ff6009880161191f565b9361050c600a890161191f565b95610519600b8a0161191f565b97610526600c8b0161191f565b99600d015460ff169a6040519d8e809e8152602001528c6101c06040819201528d0161055191611813565b9060608d01528b810360808d015261056891611813565b8a810360a08c015261057991611813565b89810360c08b015261058a91611813565b88810360e08a015261059b91611813565b8781036101008901526105ad91611813565b8681036101208801526105bf91611813565b8581036101408701526105d191611813565b8481036101608601526105e391611813565b8381036101808501526105f591611813565b9015156101a08301520390f35b346100d35760203660031901126100d3577f4d644268affe3d5bee1f2f5cb981613ce82c79f04442f0d58c544d9cd09b2f8d602061063e6117cf565b600054906001600160a01b039061065833838516146119c5565b1680916bffffffffffffffffffffffff60a01b1617600055604051908152a1005b346100d3576101803660031901126100d3576106936117cf565b6024356001600160401b0381116100d3576106b290369060040161188f565b906064356001600160401b0381116100d3576106d290369060040161188f565b6084356001600160401b0381116100d3576106f190369060040161188f565b9260a4356001600160401b0381116100d35761071190369060040161188f565b9360c4356001600160401b0381116100d35761073190369060040161188f565b9460e4356001600160401b0381116100d35761075190369060040161188f565b95610104356001600160401b0381116100d35761077290369060040161188f565b610124356001600160401b0381116100d35761079290369060040161188f565b97610144356001600160401b0381116100d3576107b390369060040161188f565b92610164356001600160401b0381116100d3576107d490369060040161188f565b946001600160a01b038a16330361155b576005549660001988146115455760018801600555604051998a6101c08101106001600160401b036101c08d011117610324576001996101c08c016040528a8a018c528a8060a01b038d1660208d015260408c015260443560608c015260808b015260a08a015260c089015260e088015261010087015261012086015286610140860152610160850152610180840152816101a08401520160005260036020526040600020815181556001810160018060a01b036020840151166bffffffffffffffffffffffff60a01b82541617905560408201518051906001600160401b0382116103245781906108d960028501546118e5565b601f81116114f2575b50602090601f831160011461148057600092611475575b50508160011b916000199060031b1c19161760028201555b6060820151600382015560808201518051906001600160401b03821161032457819061094060048501546118e5565b601f8111611422575b50602090601f83116001146113b0576000926113a5575b50508160011b916000199060031b1c19161760048201555b60a08201518051906001600160401b03821161032457819061099d60058501546118e5565b601f8111611352575b50602090601f83116001146112e0576000926112d5575b50508160011b916000199060031b1c19161760058201555b60c08201518051906001600160401b0382116103245781906109fa60068501546118e5565b601f8111611282575b50602090601f831160011461121057600092611205575b50508160011b916000199060031b1c19161760068201555b60e08201518051906001600160401b038211610324578190610a5760078501546118e5565b601f81116111b2575b50602090601f831160011461114057600092611135575b50508160011b916000199060031b1c19161760078201555b6101008201518051906001600160401b038211610324578190610ab560088501546118e5565b601f81116110e2575b50602090601f831160011461107057600092611065575b50508160011b916000199060031b1c19161760088201555b6101208201518051906001600160401b038211610324578190610b1360098501546118e5565b601f8111611012575b50602090601f8311600114610fa057600092610f95575b50508160011b916000199060031b1c19161760098201555b6101408201518051906001600160401b038211610324578190610b71600a8501546118e5565b601f8111610f42575b50602090601f8311600114610ed057600092610ec5575b50508160011b916000199060031b1c191617600a8201555b6101608201518051906001600160401b038211610324578190610bcf600b8501546118e5565b601f8111610e72575b50602090601f8311600114610e0057600092610df5575b50508160011b916000199060031b1c191617600b8201555b6101808201518051906001600160401b03821161032457610c2b600c8401546118e5565b601f8111610dae575b50602090601f8311600114610d385791806101a09492600d94600092610d2d575b50508160011b916000199060031b1c191617600c8201555b01910151151560ff8019835416911617905560018060a01b0381166000526004602052604060002091600554835493680100000000000000008510156103245784610cde9160017f8647b41d1ffdc302f876f0e70e0c442d110a3c8bad284218f99616149394c997970181556117e5565b819291549060031b91821b91600019901b1916179055610d2160055491604051938493845260018060a01b03166020840152608060408401526080830190611813565b600160608301520390a1005b015190508880610c55565b90600c840160005260206000209160005b601f1985168110610d965750926101a09492600192600d9583601f19811610610d7d575b505050811b01600c820155610c6d565b015160001960f88460031b161c19169055888080610d6d565b91926020600181928685015181550194019201610d49565b600c84016000526020600020601f840160051c810160208510610dee575b601f830160051c82018110610de2575050610c34565b60008155600101610dcc565b5080610dcc565b015190508680610bef565b9250600b84016000526020600020906000935b601f1984168510610e57576001945083601f19811610610e3e575b505050811b01600b820155610c07565b015160001960f88460031b161c19169055868080610e2e565b81810151835560209485019460019093019290910190610e13565b909150600b84016000526020600020601f840160051c810160208510610ebe575b90849392915b601f830160051c82018110610eaf575050610bd8565b60008155859450600101610e99565b5080610e93565b015190508680610b91565b9250600a84016000526020600020906000935b601f1984168510610f27576001945083601f19811610610f0e575b505050811b01600a820155610ba9565b015160001960f88460031b161c19169055868080610efe565b81810151835560209485019460019093019290910190610ee3565b909150600a84016000526020600020601f840160051c810160208510610f8e575b90849392915b601f830160051c82018110610f7f575050610b7a565b60008155859450600101610f69565b5080610f63565b015190508680610b33565b9250600984016000526020600020906000935b601f1984168510610ff7576001945083601f19811610610fde575b505050811b016009820155610b4b565b015160001960f88460031b161c19169055868080610fce565b81810151835560209485019460019093019290910190610fb3565b909150600984016000526020600020601f840160051c81016020851061105e575b90849392915b601f830160051c8201811061104f575050610b1c565b60008155859450600101611039565b5080611033565b015190508680610ad5565b9250600884016000526020600020906000935b601f19841685106110c7576001945083601f198116106110ae575b505050811b016008820155610aed565b015160001960f88460031b161c1916905586808061109e565b81810151835560209485019460019093019290910190611083565b909150600884016000526020600020601f840160051c81016020851061112e575b90849392915b601f830160051c8201811061111f575050610abe565b60008155859450600101611109565b5080611103565b015190508680610a77565b9250600784016000526020600020906000935b601f1984168510611197576001945083601f1981161061117e575b505050811b016007820155610a8f565b015160001960f88460031b161c1916905586808061116e565b81810151835560209485019460019093019290910190611153565b909150600784016000526020600020601f840160051c8101602085106111fe575b90849392915b601f830160051c820181106111ef575050610a60565b600081558594506001016111d9565b50806111d3565b015190508680610a1a565b9250600684016000526020600020906000935b601f1984168510611267576001945083601f1981161061124e575b505050811b016006820155610a32565b015160001960f88460031b161c1916905586808061123e565b81810151835560209485019460019093019290910190611223565b909150600684016000526020600020601f840160051c8101602085106112ce575b90849392915b601f830160051c820181106112bf575050610a03565b600081558594506001016112a9565b50806112a3565b0151905086806109bd565b9250600584016000526020600020906000935b601f1984168510611337576001945083601f1981161061131e575b505050811b0160058201556109d5565b015160001960f88460031b161c1916905586808061130e565b818101518355602094850194600190930192909101906112f3565b909150600584016000526020600020601f840160051c81016020851061139e575b90849392915b601f830160051c8201811061138f5750506109a6565b60008155859450600101611379565b5080611373565b015190508680610960565b9250600484016000526020600020906000935b601f1984168510611407576001945083601f198116106113ee575b505050811b016004820155610978565b015160001960f88460031b161c191690558680806113de565b818101518355602094850194600190930192909101906113c3565b909150600484016000526020600020601f840160051c81016020851061146e575b90849392915b601f830160051c8201811061145f575050610949565b60008155859450600101611449565b5080611443565b0151905086806108f9565b9250600284016000526020600020906000935b601f19841685106114d7576001945083601f198116106114be575b505050811b016002820155610911565b015160001960f88460031b161c191690558680806114ae565b81810151835560209485019460019093019290910190611493565b909150600284016000526020600020601f840160051c81016020851061153e575b90849392915b601f830160051c8201811061152f5750506108e2565b60008155859450600101611519565b5080611513565b634e487b7160e01b600052601160045260246000fd5b60405162461bcd60e51b815260206004820152603260248201527f48616e79612070617369656e2079616e672062697361206d656d62756174207260448201527132b5b0b69036b2b234b99036b2b932b5b09760711b6064820152608490fd5b346100d35760203660031901126100d3576001600160a01b036115dc6117cf565b166000526001602052602060ff604060002054166040519015158152f35b346100d35760203660031901126100d3576116136117cf565b6000546001600160a01b03919061162d90831633146119c5565b1660005260016020526040600020600160ff19825416179055600080f35b346100d35760003660031901126100d3576020600554604051908152f35b346100d35760203660031901126100d3576116a161168d6116886117cf565b611a23565b604051918291602083526020830190611813565b0390f35b346100d35760203660031901126100d3576001600160a01b036116c66117cf565b166000526002602052602060ff604060002054166040519015158152f35b346100d35760203660031901126100d35761170a60018060a01b036000541633146119c5565b6004356000908152600360205260409020600d01805460ff19169055005b346100d35760203660031901126100d3576117416117cf565b6000546001600160a01b03919061175b90831633146119c5565b166000908152600260205260409020805460ff19166001179055005b346100d35760403660031901126100d3576117906117cf565b6001600160a01b03166000908152600460205260409020805460243591908210156100d3576020916117c1916117e5565b90546040519160031b1c8152f35b600435906001600160a01b03821682036100d357565b80548210156117fd5760005260206000200190600090565b634e487b7160e01b600052603260045260246000fd5b919082519283825260005b84811061183f575050826000602080949584010152601f8019910116010190565b60208183018101518483018201520161181e565b604081019081106001600160401b0382111761032457604052565b90601f801991011681019081106001600160401b0382111761032457604052565b81601f820112156100d3578035906001600160401b03821161032457604051926118c3601f8401601f19166020018561186e565b828452602083830101116100d357816000926020809301838601378301015290565b90600182811c92168015611915575b60208310146118ff57565b634e487b7160e01b600052602260045260246000fd5b91607f16916118f4565b9060405191826000825492611933846118e5565b9081845260019485811690816000146119a2575060011461195f575b505061195d9250038361186e565b565b9093915060005260209081600020936000915b81831061198a57505061195d9350820101388061194f565b85548884018501529485019487945091830191611972565b91505061195d94506020925060ff191682840152151560051b820101388061194f565b156119cc57565b60405162461bcd60e51b815260206004820152602960248201527f48616e79612061646d696e2079616e672062697361206d656c616b756b616e2060448201526830b5b9b49034b7349760b91b6064820152608490fd5b6000546001600160a01b0391821691168103611a5b5750604051611a4681611853565b600581526420b236b4b760d91b602082015290565b600052600160205260ff60406000205416600014611a9557604051611a7f81611853565b60068152652237b5ba32b960d11b602082015290565b600260205260406000205460ff1615611aca57604051611ab481611853565b60068152652830b9b4b2b760d11b602082015290565b604051611ad681611853565b60078152662ab735b737bbb760c91b60208201529056fea2646970667358221220260e7323145b9ed2e1f9e925b1896a94d2be66769874f30c6af0d80c7586f2c764736f6c63430008130033",
  "immutableReferences": {},
  "source": "// SPDX-License-Identifier: MIT\r\npragma solidity >=0.4.22 <0.9.0;\r\n\r\ncontract RekamMedis {\r\n    address public admin;\r\n    mapping(address => bool) public isDokter;\r\n    mapping(address => bool) public isPasien;\r\n\r\n    struct RekamMedisData {\r\n        uint id;\r\n        address pasien;\r\n        string nama;\r\n        uint umur;\r\n        string golonganDarah;\r\n        string tanggalLahir;\r\n        string gender;\r\n        string alamat;\r\n        string noTelepon;\r\n        string email;\r\n        string diagnosa;\r\n        string foto;\r\n        string catatan;\r\n        bool valid;\r\n    }\r\n\r\n    mapping(uint => RekamMedisData) public rekamMedis;\r\n    mapping(address => uint[]) public rekamMedisByPasien;\r\n    uint public rekamMedisCount;\r\n\r\n    event RekamMedisDitambahkan(\r\n        uint id,\r\n        address pasien,\r\n        string diagnosa,\r\n        bool valid\r\n    );\r\n    event RekamMedisDiperbarui(uint id, string diagnosa, string catatan);\r\n    event AdminDitetapkan(address newAdmin);\r\n\r\n    constructor() {\r\n        admin = 0x153f67a7B7169Ce3F13F8A81DC9CAe0bC27dbf21;\r\n    }\r\n\r\n    modifier hanyaAdmin() {\r\n        require(\r\n            msg.sender == admin,\r\n            \"Hanya admin yang bisa melakukan aksi ini.\"\r\n        );\r\n        _;\r\n    }\r\n\r\n    modifier hanyaDokter() {\r\n        require(\r\n            isDokter[msg.sender] || msg.sender == admin,\r\n            \"Hanya dokter atau admin yang bisa memperbarui rekam medis.\"\r\n        );\r\n        _;\r\n    }\r\n\r\n    modifier hanyaPasien(address pasien) {\r\n        require(\r\n            msg.sender == pasien,\r\n            \"Hanya pasien yang bisa membuat rekam medis mereka.\"\r\n        );\r\n        _;\r\n    }\r\n\r\n    // Register roles by Admin\r\n    function registerDokter(address _dokter) public hanyaAdmin {\r\n        isDokter[_dokter] = true;\r\n    }\r\n\r\n    function registerPasien(address _pasien) public hanyaAdmin {\r\n        isPasien[_pasien] = true;\r\n    }\r\n\r\n    // Retrieve role as string\r\n    function getUserRole(address _user) public view returns (string memory) {\r\n        if (_user == admin) {\r\n            return \"Admin\";\r\n        } else if (isDokter[_user]) {\r\n            return \"Dokter\";\r\n        } else if (isPasien[_user]) {\r\n            return \"Pasien\";\r\n        } else {\r\n            return \"Unknown\";\r\n        }\r\n    }\r\n\r\n    // Change admin\r\n    function setAdmin(address _newAdmin) public hanyaAdmin {\r\n        admin = _newAdmin;\r\n        emit AdminDitetapkan(_newAdmin);\r\n    }\r\n\r\n    // Add medical record (Pasien)\r\n    function tambahRekamMedis(\r\n        address _pasien,\r\n        string memory _nama,\r\n        uint _umur,\r\n        string memory _golonganDarah,\r\n        string memory _tanggalLahir,\r\n        string memory _gender,\r\n        string memory _alamat,\r\n        string memory _noTelepon,\r\n        string memory _email,\r\n        string memory _diagnosa,\r\n        string memory _foto,\r\n        string memory _catatan\r\n    ) public hanyaPasien(_pasien) {\r\n        rekamMedisCount++;\r\n        rekamMedis[rekamMedisCount] = RekamMedisData(\r\n            rekamMedisCount,\r\n            _pasien,\r\n            _nama,\r\n            _umur,\r\n            _golonganDarah,\r\n            _tanggalLahir,\r\n            _gender,\r\n            _alamat,\r\n            _noTelepon,\r\n            _email,\r\n            _diagnosa,\r\n            _foto,\r\n            _catatan,\r\n            true\r\n        );\r\n        rekamMedisByPasien[_pasien].push(rekamMedisCount);\r\n        emit RekamMedisDitambahkan(rekamMedisCount, _pasien, _diagnosa, true);\r\n    }\r\n\r\n    // Update medical record (Dokter)\r\n    function updateRekamMedis(\r\n        uint _id,\r\n        string memory _diagnosa,\r\n        string memory _catatan\r\n    ) public hanyaDokter {\r\n        RekamMedisData storage rekam = rekamMedis[_id];\r\n        rekam.diagnosa = _diagnosa;\r\n        rekam.catatan = _catatan;\r\n        emit RekamMedisDiperbarui(_id, _diagnosa, _catatan);\r\n    }\r\n\r\n    // Deactivate a record (Admin)\r\n    function nonaktifkanRekamMedis(uint _id) public hanyaAdmin {\r\n        rekamMedis[_id].valid = false;\r\n    }\r\n}\r\n",
  "sourcePath": "D:\\RekamMedisBlockchain\\contracts\\RekamMedis.sol",
  "compiler": {
    "name": "solc",
    "version": "0.8.19+commit.7dd6d404.Emscripten.clang"
  },
  "schemaVersion": "3.4.16",
  "updatedAt": "2025-05-11T12:04:45.668Z",
  "devdoc": {
    "kind": "dev",
    "methods": {},
    "version": 1
  },
  "userdoc": {
    "kind": "user",
    "methods": {},
    "version": 1
  }
}