{
  "contractName": "RekamMedisRS",
  "abi": [
    {
      "inputs": [],
      "stateMutability": "nonpayable",
      "type": "constructor"
    },
    {
      "anonymous": false,
      "inputs": [
        {
          "indexed": true,
          "internalType": "address",
          "name": "admin",
          "type": "address"
        },
        {
          "indexed": false,
          "internalType": "string",
          "name": "namaRumahSakit",
          "type": "string"
        },
        {
          "indexed": false,
          "internalType": "string",
          "name": "alamatRumahSakit",
          "type": "string"
        },
        {
          "indexed": false,
          "internalType": "string",
          "name": "kota",
          "type": "string"
        },
        {
          "indexed": false,
          "internalType": "string",
          "name": "NIBRS",
          "type": "string"
        }
      ],
      "name": "AdminRSInfoDiperbarui",
      "type": "event"
    },
    {
      "anonymous": false,
      "inputs": [
        {
          "indexed": true,
          "internalType": "address",
          "name": "admin",
          "type": "address"
        },
        {
          "indexed": false,
          "internalType": "bool",
          "name": "aktif",
          "type": "bool"
        }
      ],
      "name": "AdminRSStatusDiubah",
      "type": "event"
    },
    {
      "anonymous": false,
      "inputs": [
        {
          "indexed": true,
          "internalType": "address",
          "name": "admin",
          "type": "address"
        },
        {
          "indexed": false,
          "internalType": "string",
          "name": "namaRumahSakit",
          "type": "string"
        },
        {
          "indexed": false,
          "internalType": "string",
          "name": "alamatRumahSakit",
          "type": "string"
        },
        {
          "indexed": false,
          "internalType": "string",
          "name": "kota",
          "type": "string"
        },
        {
          "indexed": false,
          "internalType": "string",
          "name": "NIBRS",
          "type": "string"
        }
      ],
      "name": "AdminRSTerdaftar",
      "type": "event"
    },
    {
      "anonymous": false,
      "inputs": [
        {
          "indexed": true,
          "internalType": "address",
          "name": "dokter",
          "type": "address"
        },
        {
          "indexed": false,
          "internalType": "string",
          "name": "nama",
          "type": "string"
        },
        {
          "indexed": false,
          "internalType": "string",
          "name": "spesialisasi",
          "type": "string"
        },
        {
          "indexed": false,
          "internalType": "string",
          "name": "nomorLisensi",
          "type": "string"
        },
        {
          "indexed": true,
          "internalType": "address",
          "name": "adminRS",
          "type": "address"
        }
      ],
      "name": "DokterInfoDiperbarui",
      "type": "event"
    },
    {
      "anonymous": false,
      "inputs": [
        {
          "indexed": true,
          "internalType": "address",
          "name": "dokter",
          "type": "address"
        },
        {
          "indexed": false,
          "internalType": "bool",
          "name": "aktif",
          "type": "bool"
        }
      ],
      "name": "DokterStatusDiubah",
      "type": "event"
    },
    {
      "anonymous": false,
      "inputs": [
        {
          "indexed": true,
          "internalType": "address",
          "name": "dokter",
          "type": "address"
        },
        {
          "indexed": false,
          "internalType": "string",
          "name": "nama",
          "type": "string"
        },
        {
          "indexed": false,
          "internalType": "address",
          "name": "adminRS",
          "type": "address"
        }
      ],
      "name": "DokterTerdaftar",
      "type": "event"
    },
    {
      "anonymous": false,
      "inputs": [
        {
          "indexed": true,
          "internalType": "address",
          "name": "pasien",
          "type": "address"
        },
        {
          "indexed": false,
          "internalType": "string",
          "name": "nama",
          "type": "string"
        },
        {
          "indexed": false,
          "internalType": "string",
          "name": "golonganDarah",
          "type": "string"
        },
        {
          "indexed": false,
          "internalType": "string",
          "name": "tanggalLahir",
          "type": "string"
        },
        {
          "indexed": false,
          "internalType": "string",
          "name": "gender",
          "type": "string"
        },
        {
          "indexed": false,
          "internalType": "string",
          "name": "alamat",
          "type": "string"
        },
        {
          "indexed": false,
          "internalType": "string",
          "name": "noTelepon",
          "type": "string"
        },
        {
          "indexed": false,
          "internalType": "string",
          "name": "email",
          "type": "string"
        }
      ],
      "name": "PasienDataDiperbarui",
      "type": "event"
    },
    {
      "anonymous": false,
      "inputs": [
        {
          "indexed": false,
          "internalType": "address",
          "name": "dokter",
          "type": "address"
        },
        {
          "indexed": false,
          "internalType": "address",
          "name": "pasien",
          "type": "address"
        }
      ],
      "name": "PasienDiassignKeDokter",
      "type": "event"
    },
    {
      "anonymous": false,
      "inputs": [
        {
          "indexed": false,
          "internalType": "address",
          "name": "dokter",
          "type": "address"
        },
        {
          "indexed": false,
          "internalType": "address",
          "name": "pasien",
          "type": "address"
        }
      ],
      "name": "PasienDiunassignDariDokter",
      "type": "event"
    },
    {
      "anonymous": false,
      "inputs": [
        {
          "indexed": true,
          "internalType": "address",
          "name": "pasien",
          "type": "address"
        },
        {
          "indexed": false,
          "internalType": "address",
          "name": "oldAdminRS",
          "type": "address"
        },
        {
          "indexed": false,
          "internalType": "address",
          "name": "newAdminRS",
          "type": "address"
        }
      ],
      "name": "PasienPindahRS",
      "type": "event"
    },
    {
      "anonymous": false,
      "inputs": [
        {
          "indexed": true,
          "internalType": "address",
          "name": "pasien",
          "type": "address"
        },
        {
          "indexed": false,
          "internalType": "string",
          "name": "nama",
          "type": "string"
        },
        {
          "indexed": false,
          "internalType": "string",
          "name": "IDPasien",
          "type": "string"
        },
        {
          "indexed": false,
          "internalType": "address",
          "name": "adminRS",
          "type": "address"
        }
      ],
      "name": "PasienTerdaftar",
      "type": "event"
    },
    {
      "anonymous": false,
      "inputs": [
        {
          "indexed": false,
          "internalType": "uint256",
          "name": "id",
          "type": "uint256"
        },
        {
          "indexed": false,
          "internalType": "address",
          "name": "pasien",
          "type": "address"
        },
        {
          "indexed": false,
          "internalType": "string",
          "name": "diagnosa",
          "type": "string"
        },
        {
          "indexed": false,
          "internalType": "string",
          "name": "foto",
          "type": "string"
        },
        {
          "indexed": false,
          "internalType": "string",
          "name": "catatan",
          "type": "string"
        },
        {
          "indexed": false,
          "internalType": "string",
          "name": "tipeRekamMedis",
          "type": "string"
        },
        {
          "indexed": false,
          "internalType": "address",
          "name": "pembuat",
          "type": "address"
        },
        {
          "indexed": false,
          "internalType": "uint256",
          "name": "timestamp",
          "type": "uint256"
        }
      ],
      "name": "RekamMedisDitambahkan",
      "type": "event"
    },
    {
      "inputs": [
        {
          "internalType": "uint256",
          "name": "",
          "type": "uint256"
        }
      ],
      "name": "daftarAdmin",
      "outputs": [
        {
          "internalType": "address",
          "name": "",
          "type": "address"
        }
      ],
      "stateMutability": "view",
      "type": "function",
      "constant": true
    },
    {
      "inputs": [
        {
          "internalType": "uint256",
          "name": "",
          "type": "uint256"
        }
      ],
      "name": "daftarDokter",
      "outputs": [
        {
          "internalType": "address",
          "name": "",
          "type": "address"
        }
      ],
      "stateMutability": "view",
      "type": "function",
      "constant": true
    },
    {
      "inputs": [
        {
          "internalType": "uint256",
          "name": "",
          "type": "uint256"
        }
      ],
      "name": "daftarPasien",
      "outputs": [
        {
          "internalType": "address",
          "name": "",
          "type": "address"
        }
      ],
      "stateMutability": "view",
      "type": "function",
      "constant": true
    },
    {
      "inputs": [
        {
          "internalType": "address",
          "name": "",
          "type": "address"
        }
      ],
      "name": "dataAdmin",
      "outputs": [
        {
          "internalType": "string",
          "name": "namaRumahSakit",
          "type": "string"
        },
        {
          "internalType": "bool",
          "name": "aktif",
          "type": "bool"
        },
        {
          "internalType": "string",
          "name": "alamatRumahSakit",
          "type": "string"
        },
        {
          "internalType": "string",
          "name": "kota",
          "type": "string"
        },
        {
          "internalType": "string",
          "name": "NIBRS",
          "type": "string"
        }
      ],
      "stateMutability": "view",
      "type": "function",
      "constant": true
    },
    {
      "inputs": [
        {
          "internalType": "address",
          "name": "",
          "type": "address"
        }
      ],
      "name": "dataDokter",
      "outputs": [
        {
          "internalType": "string",
          "name": "nama",
          "type": "string"
        },
        {
          "internalType": "string",
          "name": "spesialisasi",
          "type": "string"
        },
        {
          "internalType": "string",
          "name": "nomorLisensi",
          "type": "string"
        },
        {
          "internalType": "bool",
          "name": "aktif",
          "type": "bool"
        },
        {
          "internalType": "address",
          "name": "adminRS",
          "type": "address"
        }
      ],
      "stateMutability": "view",
      "type": "function",
      "constant": true
    },
    {
      "inputs": [
        {
          "internalType": "address",
          "name": "",
          "type": "address"
        }
      ],
      "name": "dataPasien",
      "outputs": [
        {
          "internalType": "string",
          "name": "nama",
          "type": "string"
        },
        {
          "internalType": "string",
          "name": "ID",
          "type": "string"
        },
        {
          "internalType": "string",
          "name": "golonganDarah",
          "type": "string"
        },
        {
          "internalType": "string",
          "name": "tanggalLahir",
          "type": "string"
        },
        {
          "internalType": "string",
          "name": "gender",
          "type": "string"
        },
        {
          "internalType": "string",
          "name": "alamat",
          "type": "string"
        },
        {
          "internalType": "string",
          "name": "noTelepon",
          "type": "string"
        },
        {
          "internalType": "string",
          "name": "email",
          "type": "string"
        },
        {
          "internalType": "address",
          "name": "rumahSakitPenanggungJawab",
          "type": "address"
        }
      ],
      "stateMutability": "view",
      "type": "function",
      "constant": true
    },
    {
      "inputs": [
        {
          "internalType": "address",
          "name": "",
          "type": "address"
        }
      ],
      "name": "isDokter",
      "outputs": [
        {
          "internalType": "bool",
          "name": "",
          "type": "bool"
        }
      ],
      "stateMutability": "view",
      "type": "function",
      "constant": true
    },
    {
      "inputs": [
        {
          "internalType": "string",
          "name": "",
          "type": "string"
        }
      ],
      "name": "isNIBRSUsed",
      "outputs": [
        {
          "internalType": "bool",
          "name": "",
          "type": "bool"
        }
      ],
      "stateMutability": "view",
      "type": "function",
      "constant": true
    },
    {
      "inputs": [
        {
          "internalType": "address",
          "name": "",
          "type": "address"
        }
      ],
      "name": "isPasien",
      "outputs": [
        {
          "internalType": "bool",
          "name": "",
          "type": "bool"
        }
      ],
      "stateMutability": "view",
      "type": "function",
      "constant": true
    },
    {
      "inputs": [
        {
          "internalType": "string",
          "name": "",
          "type": "string"
        }
      ],
      "name": "isPatientIDUsed",
      "outputs": [
        {
          "internalType": "bool",
          "name": "",
          "type": "bool"
        }
      ],
      "stateMutability": "view",
      "type": "function",
      "constant": true
    },
    {
      "inputs": [
        {
          "internalType": "uint256",
          "name": "",
          "type": "uint256"
        }
      ],
      "name": "rekamMedis",
      "outputs": [
        {
          "internalType": "uint256",
          "name": "id",
          "type": "uint256"
        },
        {
          "internalType": "address",
          "name": "pasien",
          "type": "address"
        },
        {
          "internalType": "string",
          "name": "diagnosa",
          "type": "string"
        },
        {
          "internalType": "string",
          "name": "foto",
          "type": "string"
        },
        {
          "internalType": "string",
          "name": "catatan",
          "type": "string"
        },
        {
          "internalType": "address",
          "name": "pembuat",
          "type": "address"
        },
        {
          "internalType": "uint256",
          "name": "timestampPembuatan",
          "type": "uint256"
        },
        {
          "internalType": "string",
          "name": "tipeRekamMedis",
          "type": "string"
        }
      ],
      "stateMutability": "view",
      "type": "function",
      "constant": true
    },
    {
      "inputs": [
        {
          "internalType": "address",
          "name": "",
          "type": "address"
        },
        {
          "internalType": "uint256",
          "name": "",
          "type": "uint256"
        }
      ],
      "name": "rekamMedisByPasien",
      "outputs": [
        {
          "internalType": "uint256",
          "name": "",
          "type": "uint256"
        }
      ],
      "stateMutability": "view",
      "type": "function",
      "constant": true
    },
    {
      "inputs": [],
      "name": "rekamMedisCount",
      "outputs": [
        {
          "internalType": "uint256",
          "name": "",
          "type": "uint256"
        }
      ],
      "stateMutability": "view",
      "type": "function",
      "constant": true
    },
    {
      "inputs": [],
      "name": "superAdmin",
      "outputs": [
        {
          "internalType": "address",
          "name": "",
          "type": "address"
        }
      ],
      "stateMutability": "view",
      "type": "function",
      "constant": true
    },
    {
      "inputs": [
        {
          "internalType": "address",
          "name": "_admin",
          "type": "address"
        },
        {
          "internalType": "string",
          "name": "_namaRS",
          "type": "string"
        },
        {
          "internalType": "string",
          "name": "_alamatRS",
          "type": "string"
        },
        {
          "internalType": "string",
          "name": "_kotaRS",
          "type": "string"
        },
        {
          "internalType": "string",
          "name": "_NIBRS",
          "type": "string"
        }
      ],
      "name": "registerAdminRS",
      "outputs": [],
      "stateMutability": "nonpayable",
      "type": "function"
    },
    {
      "inputs": [
        {
          "internalType": "address",
          "name": "_admin",
          "type": "address"
        },
        {
          "internalType": "string",
          "name": "_namaBaru",
          "type": "string"
        },
        {
          "internalType": "string",
          "name": "_alamatBaru",
          "type": "string"
        },
        {
          "internalType": "string",
          "name": "_kotaBaru",
          "type": "string"
        },
        {
          "internalType": "string",
          "name": "_NIBRSBaru",
          "type": "string"
        }
      ],
      "name": "updateAdminRSDetails",
      "outputs": [],
      "stateMutability": "nonpayable",
      "type": "function"
    },
    {
      "inputs": [
        {
          "internalType": "address",
          "name": "_admin",
          "type": "address"
        },
        {
          "internalType": "bool",
          "name": "_aktif",
          "type": "bool"
        }
      ],
      "name": "setStatusAdminRS",
      "outputs": [],
      "stateMutability": "nonpayable",
      "type": "function"
    },
    {
      "inputs": [],
      "name": "getAllAdminRSAddresses",
      "outputs": [
        {
          "internalType": "address[]",
          "name": "",
          "type": "address[]"
        }
      ],
      "stateMutability": "view",
      "type": "function",
      "constant": true
    },
    {
      "inputs": [],
      "name": "totalAdmin",
      "outputs": [
        {
          "internalType": "uint256",
          "name": "",
          "type": "uint256"
        }
      ],
      "stateMutability": "view",
      "type": "function",
      "constant": true
    },
    {
      "inputs": [
        {
          "internalType": "uint256",
          "name": "idx",
          "type": "uint256"
        }
      ],
      "name": "getAdminByIndex",
      "outputs": [
        {
          "internalType": "address",
          "name": "",
          "type": "address"
        }
      ],
      "stateMutability": "view",
      "type": "function",
      "constant": true
    },
    {
      "inputs": [
        {
          "internalType": "address",
          "name": "_admin",
          "type": "address"
        }
      ],
      "name": "getAdminRS",
      "outputs": [
        {
          "internalType": "string",
          "name": "namaRumahSakit",
          "type": "string"
        },
        {
          "internalType": "bool",
          "name": "aktif",
          "type": "bool"
        },
        {
          "internalType": "string",
          "name": "alamatRumahSakit",
          "type": "string"
        },
        {
          "internalType": "string",
          "name": "kota",
          "type": "string"
        },
        {
          "internalType": "string",
          "name": "NIBRS",
          "type": "string"
        }
      ],
      "stateMutability": "view",
      "type": "function",
      "constant": true
    },
    {
      "inputs": [
        {
          "internalType": "address",
          "name": "_dokter",
          "type": "address"
        },
        {
          "internalType": "string",
          "name": "_nama",
          "type": "string"
        },
        {
          "internalType": "string",
          "name": "_spesialisasi",
          "type": "string"
        },
        {
          "internalType": "string",
          "name": "_nomorLisensi",
          "type": "string"
        }
      ],
      "name": "registerDokter",
      "outputs": [],
      "stateMutability": "nonpayable",
      "type": "function"
    },
    {
      "inputs": [
        {
          "internalType": "address",
          "name": "_dokter",
          "type": "address"
        },
        {
          "internalType": "string",
          "name": "_namaBaru",
          "type": "string"
        },
        {
          "internalType": "string",
          "name": "_spesialisasiBaru",
          "type": "string"
        },
        {
          "internalType": "string",
          "name": "_nomorLisensiBaru",
          "type": "string"
        }
      ],
      "name": "updateDokterInfo",
      "outputs": [],
      "stateMutability": "nonpayable",
      "type": "function"
    },
    {
      "inputs": [
        {
          "internalType": "address",
          "name": "_dokter",
          "type": "address"
        },
        {
          "internalType": "bool",
          "name": "_aktif",
          "type": "bool"
        }
      ],
      "name": "setStatusDokter",
      "outputs": [],
      "stateMutability": "nonpayable",
      "type": "function"
    },
    {
      "inputs": [],
      "name": "totalDokter",
      "outputs": [
        {
          "internalType": "uint256",
          "name": "",
          "type": "uint256"
        }
      ],
      "stateMutability": "view",
      "type": "function",
      "constant": true
    },
    {
      "inputs": [
        {
          "internalType": "uint256",
          "name": "idx",
          "type": "uint256"
        }
      ],
      "name": "getDokterByIndex",
      "outputs": [
        {
          "internalType": "address",
          "name": "",
          "type": "address"
        }
      ],
      "stateMutability": "view",
      "type": "function",
      "constant": true
    },
    {
      "inputs": [
        {
          "internalType": "address",
          "name": "_dokter",
          "type": "address"
        }
      ],
      "name": "getDokter",
      "outputs": [
        {
          "internalType": "string",
          "name": "nama",
          "type": "string"
        },
        {
          "internalType": "string",
          "name": "spesialisasi",
          "type": "string"
        },
        {
          "internalType": "string",
          "name": "nomorLisensi",
          "type": "string"
        },
        {
          "internalType": "bool",
          "name": "aktif",
          "type": "bool"
        },
        {
          "internalType": "address[]",
          "name": "pasienList",
          "type": "address[]"
        },
        {
          "internalType": "address",
          "name": "adminRS",
          "type": "address"
        }
      ],
      "stateMutability": "view",
      "type": "function",
      "constant": true
    },
    {
      "inputs": [
        {
          "internalType": "address",
          "name": "_dokter",
          "type": "address"
        }
      ],
      "name": "getAssignedPatients",
      "outputs": [
        {
          "internalType": "address[]",
          "name": "",
          "type": "address[]"
        }
      ],
      "stateMutability": "view",
      "type": "function",
      "constant": true
    },
    {
      "inputs": [
        {
          "internalType": "address",
          "name": "_pasien",
          "type": "address"
        },
        {
          "internalType": "string",
          "name": "_nama",
          "type": "string"
        },
        {
          "internalType": "string",
          "name": "_IDPasien",
          "type": "string"
        },
        {
          "internalType": "address",
          "name": "_adminRS",
          "type": "address"
        }
      ],
      "name": "registerPasien",
      "outputs": [],
      "stateMutability": "nonpayable",
      "type": "function"
    },
    {
      "inputs": [
        {
          "internalType": "string",
          "name": "_nama",
          "type": "string"
        },
        {
          "internalType": "string",
          "name": "_IDPasien",
          "type": "string"
        },
        {
          "internalType": "string",
          "name": "_golonganDarah",
          "type": "string"
        },
        {
          "internalType": "string",
          "name": "_tanggalLahir",
          "type": "string"
        },
        {
          "internalType": "string",
          "name": "_gender",
          "type": "string"
        },
        {
          "internalType": "string",
          "name": "_alamat",
          "type": "string"
        },
        {
          "internalType": "string",
          "name": "_noTelepon",
          "type": "string"
        },
        {
          "internalType": "string",
          "name": "_email",
          "type": "string"
        },
        {
          "internalType": "address",
          "name": "_adminRS",
          "type": "address"
        }
      ],
      "name": "selfRegisterPasien",
      "outputs": [],
      "stateMutability": "nonpayable",
      "type": "function"
    },
    {
      "inputs": [
        {
          "internalType": "string",
          "name": "_nama",
          "type": "string"
        },
        {
          "internalType": "string",
          "name": "_golonganDarah",
          "type": "string"
        },
        {
          "internalType": "string",
          "name": "_tanggalLahir",
          "type": "string"
        },
        {
          "internalType": "string",
          "name": "_gender",
          "type": "string"
        },
        {
          "internalType": "string",
          "name": "_alamat",
          "type": "string"
        },
        {
          "internalType": "string",
          "name": "_noTelepon",
          "type": "string"
        },
        {
          "internalType": "string",
          "name": "_email",
          "type": "string"
        }
      ],
      "name": "updatePasienData",
      "outputs": [],
      "stateMutability": "nonpayable",
      "type": "function"
    },
    {
      "inputs": [
        {
          "internalType": "address",
          "name": "_newAdminRS",
          "type": "address"
        }
      ],
      "name": "updatePasienRumahSakit",
      "outputs": [],
      "stateMutability": "nonpayable",
      "type": "function"
    },
    {
      "inputs": [],
      "name": "getDaftarPasien",
      "outputs": [
        {
          "internalType": "address[]",
          "name": "",
          "type": "address[]"
        }
      ],
      "stateMutability": "view",
      "type": "function",
      "constant": true
    },
    {
      "inputs": [],
      "name": "totalPasien",
      "outputs": [
        {
          "internalType": "uint256",
          "name": "",
          "type": "uint256"
        }
      ],
      "stateMutability": "view",
      "type": "function",
      "constant": true
    },
    {
      "inputs": [
        {
          "internalType": "address",
          "name": "_pasien",
          "type": "address"
        }
      ],
      "name": "getPasienData",
      "outputs": [
        {
          "internalType": "string",
          "name": "nama",
          "type": "string"
        },
        {
          "internalType": "string",
          "name": "ID",
          "type": "string"
        },
        {
          "internalType": "string",
          "name": "golonganDarah",
          "type": "string"
        },
        {
          "internalType": "string",
          "name": "tanggalLahir",
          "type": "string"
        },
        {
          "internalType": "string",
          "name": "gender",
          "type": "string"
        },
        {
          "internalType": "string",
          "name": "alamat",
          "type": "string"
        },
        {
          "internalType": "string",
          "name": "noTelepon",
          "type": "string"
        },
        {
          "internalType": "string",
          "name": "email",
          "type": "string"
        },
        {
          "internalType": "address",
          "name": "rumahSakitPenanggungJawab",
          "type": "address"
        }
      ],
      "stateMutability": "view",
      "type": "function",
      "constant": true
    },
    {
      "inputs": [
        {
          "internalType": "address",
          "name": "_dokter",
          "type": "address"
        },
        {
          "internalType": "address",
          "name": "_pasien",
          "type": "address"
        }
      ],
      "name": "assignPasienToDokter",
      "outputs": [],
      "stateMutability": "nonpayable",
      "type": "function"
    },
    {
      "inputs": [
        {
          "internalType": "address",
          "name": "_dokter",
          "type": "address"
        },
        {
          "internalType": "address",
          "name": "_pasien",
          "type": "address"
        }
      ],
      "name": "unassignPasienFromDokter",
      "outputs": [],
      "stateMutability": "nonpayable",
      "type": "function"
    },
    {
      "inputs": [
        {
          "internalType": "address",
          "name": "_pasien",
          "type": "address"
        },
        {
          "internalType": "string",
          "name": "_diagnosa",
          "type": "string"
        },
        {
          "internalType": "string",
          "name": "_foto",
          "type": "string"
        },
        {
          "internalType": "string",
          "name": "_catatan",
          "type": "string"
        },
        {
          "internalType": "string",
          "name": "_tipeRekamMedis",
          "type": "string"
        }
      ],
      "name": "tambahRekamMedis",
      "outputs": [],
      "stateMutability": "nonpayable",
      "type": "function"
    },
    {
      "inputs": [
        {
          "internalType": "address",
          "name": "_pasien",
          "type": "address"
        }
      ],
      "name": "getRekamMedisIdsByPasien",
      "outputs": [
        {
          "internalType": "uint256[]",
          "name": "",
          "type": "uint256[]"
        }
      ],
      "stateMutability": "view",
      "type": "function",
      "constant": true
    },
    {
      "inputs": [
        {
          "internalType": "uint256",
          "name": "_id",
          "type": "uint256"
        }
      ],
      "name": "getRekamMedis",
      "outputs": [
        {
          "internalType": "uint256",
          "name": "id",
          "type": "uint256"
        },
        {
          "internalType": "address",
          "name": "pasien",
          "type": "address"
        },
        {
          "internalType": "string",
          "name": "diagnosa",
          "type": "string"
        },
        {
          "internalType": "string",
          "name": "foto",
          "type": "string"
        },
        {
          "internalType": "string",
          "name": "catatan",
          "type": "string"
        },
        {
          "internalType": "address",
          "name": "pembuat",
          "type": "address"
        },
        {
          "internalType": "uint256",
          "name": "timestampPembuatan",
          "type": "uint256"
        },
        {
          "internalType": "string",
          "name": "tipeRekamMedis",
          "type": "string"
        }
      ],
      "stateMutability": "view",
      "type": "function",
      "constant": true
    },
    {
      "inputs": [
        {
          "internalType": "address",
          "name": "_newAdmin",
          "type": "address"
        }
      ],
      "name": "setSuperAdmin",
      "outputs": [],
      "stateMutability": "nonpayable",
      "type": "function"
    },
    {
      "inputs": [
        {
          "internalType": "address",
          "name": "_user",
          "type": "address"
        }
      ],
      "name": "getUserRole",
      "outputs": [
        {
          "internalType": "string",
          "name": "",
          "type": "string"
        }
      ],
      "stateMutability": "view",
      "type": "function",
      "constant": true
    }
  ],
  "bytecode": "0x6080806040523461003d57600080546001600160a01b03191673b0dc0bf642d339517438017fc185bb0f758a01d2179055615eb99081620000438239f35b600080fdfe6101a0604052600436101561001357600080fd5b60003560e01c8062386196146145da578062410cb31461458257806301c268fe14613e00578063046bdbcc14613d92578063050567d214613d665780631132beb514613d275780631570005214613c8b57806319d9d3dd14613c0a57806319e8f4051461394b5780632120e53f146138e057806327820851146138a857806329575f6a1461387f5780632b7d8af8146138405780632e2dd102146138225780633bf76303146137ac5780633cdd159114612c985780633da0551814612bb25780633fd83089146125e157806342699651146125b857806347960cb5146124e457806351887b671461244f5780635c4c934814612410578063610a852614611d36578063623785c114611cc857806364319e3314611caa5780636837008714611c4f578063786f3fbe14611ba65780637d3e9db814611b885780638e9c919814611595578063911b633a1461155357806392fa9240146113c3578063932e0f6d146112e2578063a665102c14611220578063abf72abb1461119f578063b75de7a814610d5e578063c0664b7e14610cef578063c3c0fdea14610c42578063c967ede814610b75578063ddbd24d314610595578063e29993a5146102ab578063e5cc33941461028d5763f2ab4a99146101e957600080fd5b346102885760207fd2e4d0240eabf0011425eb3fffbc4f311cd4b564ba547aba4b3163fd046f6a9761021a36615685565b6000549093916001600160a01b03916102369083163314615728565b169283600052600182526102586102516040600020546153fc565b15156158be565b836000526001825261027d8160016040600020019060ff801983541691151516179055565b6040519015158152a2005b600080fd5b34610288576000366003190112610288576020600a54604051908152f35b34610288576040366003190112610288576102c461513a565b6102cc615150565b336000526001916020928084526102e76040600020546153fc565b15158061057c575b6102f8906159e5565b60018060a01b039081831691826000526005865261031d60ff60406000205416615a57565b826000526004865261033a33826005604060002001541614615aa3565b808516806000526008875261035660ff60406000205416615c62565b80600052600787523382600860406000200154160361051f57929190600092600052600487526004604060002001826000905b610434575b505050509050156103e057604080516001600160a01b0392831681529290911660208301527f80b4d8d360eb6524bf34c2207f48a267b84469bad95c9e9540413349e9f416a59250819081015b0390a1005b60405162461bcd60e51b815260048101849052602660248201527f50617369656e20746964616b20646974756761736b616e206b6520646f6b7465604482015265391034b7349760d11b6064820152608490fd5b8154808210156105195783908761044b8486615217565b939054600394851b1c161461047057505094610468849596615cae565b909594610389565b9496509450909260001991828201918211610503576104a4846104966104c39488615217565b905490891b1c169186615217565b90919082549060031b9160018060a01b03809116831b921b1916179055565b825480156104ed5701926104d78484615217565b81939154921b1b1916905555808580808061038e565b634e487b7160e01b600052603160045260246000fd5b634e487b7160e01b600052601160045260246000fd5b5061038e565b60405162461bcd60e51b815260048101889052602f60248201527f50617369656e20696e6920746964616b2074657264616674617220646920727560448201526e36b0b41039b0b5b4ba1020b732309760891b6064820152608490fd5b503360009081528185526040902081015460ff166102ef565b34610288576105a3366156b4565b91949392903360005260016020526105bf6040600020546153fc565b151580610b55575b6105d0906159e5565b6001600160a01b03871660009081526005602052604090205460ff16610afd576001600160a01b03871660009081526008602052604090205460ff16610a92576001600160a01b03871660009081526005602052604090819020805460ff1916600117905551926106408461524b565b60008452604051968760c08101106001600160401b0360c08a0111176108d15761068f936106839160c08a0160405261067a36898b6152a2565b8a5236916152a2565b602088015236916152a2565b60408501526001606085015260808401523360a084015260018060a01b038416600052600460205260406000209280518051906001600160401b0382116108d15781906106e6826106e089546153fc565b896157a8565b602090601f8311600114610a2657600092610a1b575b50508160011b916000199060031b1c19161784555b60208101518051906001600160401b0382116108d15781906107438261073a60018a01546153fc565b60018a016157a8565b602090601f83116001146109a95760009261099e575b50508160011b916000199060031b1c19161760018501555b60408101518051906001600160401b0382116108d15781906107a38261079a60028a01546153fc565b60028a016157a8565b602090601f831160011461092c57600092610921575b50508160011b916000199060031b1c19161760028501555b6107f060608201511515600386019060ff801983541691151516179055565b60048401936080820151948551906001600160401b0382116108d157600160401b968783116108d1576020908254848455808510610904575b500190600052602060002060005b8381106108e757505050506005019060a0600180821b03910151166001600160601b0360a01b825416179055600654928310156108d1576108a3846104a48560017f5c9d12a5bfda65f31ab460df37935bfe7b6cfa6a3787bf1f99858ccc15dc92779701600655615193565b6108ba604051928392604084526040840191615851565b3360208301526001600160a01b03909416930390a2005b634e487b7160e01b600052604160045260246000fd5b82516001600160a01b031681830155602090920191600101610837565b61091b908460005285846000209182019101615791565b8a610829565b0151905087806107b9565b9250600287016000526020600020906000935b601f1984168510610983576001945083601f1981161061096a575b505050811b0160028501556107d1565b015160001960f88460031b161c1916905587808061095a565b8181015183556020948501946001909301929091019061093f565b015190508780610759565b9250600187016000526020600020906000935b601f1984168510610a00576001945083601f198116106109e7575b505050811b016001850155610771565b015160001960f88460031b161c191690558780806109d7565b818101518355602094850194600190930192909101906109bc565b0151905087806106fc565b9250866000526020600020906000935b601f1984168510610a77576001945083601f19811610610a5e575b505050811b018455610711565b015160001960f88460031b161c19169055878080610a51565b81810151835560209485019460019093019290910190610a36565b60405162461bcd60e51b815260206004820152603f60248201527f416c616d617420696e692074657264616674617220736562616761692070617360448201527f69656e2c20746964616b2062697361206d656e6a61646920646f6b7465722e006064820152608490fd5b60405162461bcd60e51b815260206004820152602a60248201527f416c616d617420696e692073756461682074657264616674617220736562616760448201526930b4903237b5ba32b91760b11b6064820152608490fd5b503360005260016020526105d060ff6001604060002001541690506105c7565b3461028857602080600319360112610288576001600160a01b03610b9761513a565b168060005260088252610bb160ff60406000205416615c16565b600052600c8152604060002060405190818382549182815201908192600052846000209060005b86828210610c2e578686610bee82880383615281565b604051928392818401908285525180915260408401929160005b828110610c1757505050500390f35b835185528695509381019392810192600101610c08565b835485529093019260019283019201610bd8565b3461028857602036600319011261028857610cc26001600160a01b0380610c6761513a565b1660005260046020526040600020610c7e81615436565b91610cde610c8e60018401615436565b91610cd0610c9e60028601615436565b91600560ff600388015416960154169360405197889760a0895260a0890190615386565b908782036020890152615386565b908582036040870152615386565b911515606084015260808301520390f35b34610288576020366003190112610288576001600160a01b03610d1061513a565b16806000526005602052610d2b60ff60406000205416615b07565b6000526004602052610d5a610d46600460406000200161598d565b604051918291602083526020830190615349565b0390f35b3461028857610d6c366156b4565b95949290939195336000526001602052610d8a6040600020546153fc565b15158061117f575b610d9b906159e5565b60018060a01b0391828716600052600560205260ff6040600020541615611130578287166000526004602052338360056040600020015416036110d157828716600052600460205260406000206001600160401b0385116108d157610e0a85610e0483546153fc565b836157a8565b846000601f821160011461106b57600091611060575b508560011b906000198760031b1c19161781555b6001600160401b0389116108d157610e5c89610e5360018401546153fc565b600184016157a8565b60009089601f8111600114610ff057600292600091610fe5575b508a60011b906000198c60031b1c19161760018201555b01976001600160401b0383116108d157610eb183610eab8b546153fc565b8b6157a8565b600098601f8411600114610f525791610f30918493610f4296957f4e15ca2ba26538cdb1e2f0d595a1ec96fe8fbb126404e0cc083426c33ccbdd959a9b9c600091610f47575b508560011b906000198760031b1c19161790555b610f2260405198899860608a5260608a0191615851565b918783036020890152615851565b91848303604086015233981696615851565b0390a3005b90508b01358d610ef7565b601f1984168160005260206000209060005b818110610fcd575091610f3093917f4e15ca2ba26538cdb1e2f0d595a1ec96fe8fbb126404e0cc083426c33ccbdd959a9b9c87610f429998979510610fb3575b5050600185811b019055610f0b565b8c0135600019600388901b60f8161c191690558c80610fa4565b8a8d0135835560209c8d019c60019093019201610f64565b90508301358b610e76565b506001810160005260206000206000925b601f198c16841061104857600293508b601f1981161061102e575b505060018a811b016001820155610e8d565b84013560001960038d901b60f8161c191690558a8061101c565b84810135825560209384019360019092019101611001565b90508601358a610e20565b60008381526020812092508790601f198216905b8181106110b657501061109c575b5050600185811b018155610e34565b870135600019600388901b60f8161c19169055898061108d565b8a84013585556001909401936020938401938a93500161107f565b60405162461bcd60e51b815260206004820152603160248201527f416e64612062756b616e2061646d696e2052532079616e672062657268616b206044820152703ab73a3ab5903237b5ba32b91034b7349760791b6064820152608490fd5b60405162461bcd60e51b815260206004820152602160248201527f446f6b74657220746964616b207465726461667461722064692073697374656d6044820152601760f91b6064820152608490fd5b50336000526001602052610d9b60ff600160406000200154169050610d92565b3461028857602036600319011261028857600435600052600b60205260406000208054610d5a60018060a01b0380600185015416936111e060028201615436565b916111ed60038301615436565b906111fa60048401615436565b9060058401541691611213600760068601549501615436565b9460405198899889615571565b34610288576020366003190112610288576001600160a01b038061124261513a565b1680600052600860205261125d60ff60406000205416615c16565b6000526007602052604060002090600882015416610d5a61127d83615436565b9161128a60018501615436565b9361129760028201615436565b906112a460038201615436565b6112b060048301615436565b6112bc60058401615436565b916112d560076112ce60068701615436565b9501615436565b94604051998a998a6155dd565b34610288577f3dcd68c14f5f191f12b3b56bf35d5d7eb22447e9ec685290967b4558822ca98a61131136615685565b919091336000526020906001825261132d6040600020546153fc565b1515806113a4575b61133e906159e5565b61137f60018060a01b0380951694856000526005845261136560ff60406000205416615a57565b856000526004845233906005604060002001541614615aa3565b836000526004825261027d8160036040600020019060ff801983541691151516179055565b50336000526001825261133e60ff600160406000200154169050611335565b3461028857602080600319360112610288576113dd61513a565b33600052600882526113f660ff60406000205416615c16565b60018060a01b039081811691826000526001845260ff60016040600020015416156114f7573360005260078452828160086040600020015416146114a157336000818152600790955260409485902060080180546001600160a01b03198116909517905584516001600160a01b03929094168216845291166020830152917f3457f52cd7f93503903afd272e58438c52a23561e74eddba2144dc53d7af0e449190819081015b0390a2005b60405162461bcd60e51b815260048101859052602860248201527f416e6461207375646168207465726461667461722064692072756d616820736160448201526735b4ba1034b7349760c11b6064820152608490fd5b60405162461bcd60e51b815260048101859052602e60248201527f52756d61682053616b6974206261727520746964616b20616b7469662061746160448201526d3a903a34b230b5903b30b634b21760911b6064820152608490fd5b34610288576020366003190112610288576004356003548110156102885761157c6020916151e0565b905460405160039290921b1c6001600160a01b03168152f35b34610288576115a3366154dc565b9260018060a09a979698999a9493941b03966115c488600054163314615728565b87871660005260016020526115dd6040600020546153fc565b611b2f578815611ade578415611a995760ff6040518686823760208188810160028152030190205416611a42576040518060a08101106001600160401b0360a0830111176108d15760a08101604052611637368b8d6152a2565b81526001602082015261164b3683896152a2565b604082015261165b3685856152a2565b606082015261166b3687876152a2565b6080820152888816600052600160205260406000209080518051906001600160401b0382116108d15781906116aa826116a487546153fc565b876157a8565b602090601f83116001146119dc576000926119d1575b50508160011b916000199060031b1c19161782555b6116f460208201511515600184019060ff801983541691151516179055565b604081015180516001600160401b0381116108d1578060028501926117238261171d86546153fc565b866157a8565b602090601f831160011461196b57600092611960575b50508160011b916000199060031b1c19161790555b606081015180516001600160401b0381116108d157600384019161177c8261177685546153fc565b856157a8565b602090601f83116001146118f457608094939291600091836118e9575b50508160011b916000199060031b1c19161790555b0151908151906001600160401b0382116108d1576004829101926117d68261171d86546153fc565b602090601f831160011461188357600092611878575b50508160011b916000199060031b1c19161790555b60035495600160401b8710156108d1577f705805f9c18a9381be07edab4bcec28612355cb4fbde7b07f1fd23fee18aada89961184a896104a48a600161149c9c016003556151e0565b604051878782376020818981016002815203019020600160ff19825416179055604051998a99169b89615872565b015190508d806117ec565b6000858152602081209350601f198516905b8181106118d157509084600195949392106118b8575b505050811b019055611801565b015160001960f88460031b161c191690558d80806118ab565b92936020600181928786015181550195019301611895565b015190503880611799565b90601f198316918460005260206000209260005b81811061194857509160019391856080989796941061192f575b505050811b0190556117ae565b015160001960f88460031b161c19169055388080611922565b92936020600181928786015181550195019301611908565b015190508f80611739565b6000858152602081209350601f198516905b8181106119b957509084600195949392106119a0575b505050811b01905561174e565b015160001960f88460031b161c191690558f8080611993565b9293602060018192878601518155019501930161197d565b015190508e806116c0565b6000868152602081209350601f198516905b818110611a2a5750908460019594939210611a11575b505050811b0182556116d5565b015160001960f88460031b161c191690558e8080611a04565b929360206001819287860151815501950193016119ee565b60405162461bcd60e51b815260206004820152602960248201527f4e4942525320737564616820646967756e616b616e206f6c65682041646d696e604482015268102929903630b4b71760b91b6064820152608490fd5b60405162461bcd60e51b815260206004820152601960248201527f4e4942525320746964616b20626f6c6568206b6f736f6e672e000000000000006044820152606490fd5b60405162461bcd60e51b8152602060048201526024808201527f4e616d612052756d61682053616b697420746964616b20626f6c6568206b6f7360448201526337b7339760e11b6064820152608490fd5b60405162461bcd60e51b815260206004820152602b60248201527f41646d696e205253207375646168207465726461667461722064656e67616e2060448201526a30b630b6b0ba1034b7349760a91b6064820152608490fd5b34610288576000366003190112610288576020600654604051908152f35b34610288576020366003190112610288576001600160a01b0380611bc861513a565b166000526007602052604060002090610d5a611be383615436565b91611bf060018501615436565b93611bfd60028201615436565b91611c0a60038301615436565b611c1660048401615436565b611c2260058501615436565b91611c2f60068601615436565b936008611c3e60078801615436565b9601541695604051998a998a6155dd565b3461028857602036600319011261028857600435600a5481101561028857600a6000527fc65a7bb8d6351c1cf70c95a316cc6a92839c986682d98bc35f958f4883f9d2a801546040516001600160a01b039091168152602090f35b34610288576000366003190112610288576020600354604051908152f35b3461028857602036600319011261028857600435600354811015611cf15761157c6020916151e0565b60405162461bcd60e51b815260206004820152601c60248201527f496e64656b732061646d696e20525320746964616b2076616c69642e000000006044820152606490fd5b3461028857611d44366154dc565b94919293909596600060018060a01b038a163314806123f8575b15612346575060015b156122db576001600160a01b038916600090815260086020526040902054611d919060ff16615c62565b611d9c600d54615cae565b9788600d55604051806101008101106001600160401b03610100830111176108d15761010081016040528981526001600160a01b038b166020820152611de33683856152a2565b6040820152611df33685876152a2565b6060820152611e033687896152a2565b60808201523360a08201524260c0820152611e1f36898b6152a2565b60e082015289600052600b602052604060002090805182556001820160018060a01b036020830151166001600160601b0360a01b82541617905560408101518051906001600160401b0382116108d1578190611e8b82611e8260028801546153fc565b600288016157a8565b602090601f83116001146122695760009261225e575b50508160011b916000199060031b1c19161760028301555b60608101518051906001600160401b0382116108d1578190611eeb82611ee260038801546153fc565b600388016157a8565b602090601f83116001146121ec576000926121e1575b50508160011b916000199060031b1c19161760038301555b60808101518051906001600160401b0382116108d157611f4982611f4060048701546153fc565b600487016157a8565b602090601f831160011461216e5760e093929160009183612163575b50508160011b916000199060031b1c19161760048401555b6005830160018060a01b0360a0830151166001600160601b0360a01b82541617905560c0810151600684015501518051906001600160401b0382116108d157611fd682611fcd60078601546153fc565b600786016157a8565b602090601f83116001146120f35760079291600091836120e8575b50508160011b916000199060031b1c1916179101555b6001600160a01b038a166000908152600c602052604090208054600160401b8110156108d15760018101825561203c91615217565b81549060031b908b821b91600019901b1916179055604051998a998a52600160a01b600190031660208a015260408901610100905261010089019061208092615851565b90878203606089015261209292615851565b9085820360808701526120a492615851565b9083820360a08501526120b692615851565b3360c08301524260e0830152037f6530349a6e8f9162290f6de52adc987794b9dcf2b88018454bede841bcf8c28291a1005b015190508e80611ff1565b906007840160005260206000209160005b601f198516811061214b5750918391600193600795601f19811610612132575b505050811b01910155612007565b015160001960f88460031b161c191690558e8080612124565b91926020600181928685015181550194019201612104565b015190508f80611f65565b906004850160005260206000209160005b601f19851681106121c9575091839160019360e09695601f198116106121b0575b505050811b016004840155611f7d565b015160001960f88460031b161c191690558f80806121a0565b9192602060018192868501518155019401920161217f565b015190508e80611f01565b9250600385016000526020600020906000935b601f1984168510612243576001945083601f1981161061222a575b505050811b016003830155611f19565b015160001960f88460031b161c191690558e808061221a565b818101518355602094850194600190930192909101906121ff565b015190508e80611ea1565b9250600285016000526020600020906000935b601f19841685106122c0576001945083601f198116106122a7575b505050811b016002830155611eb9565b015160001960f88460031b161c191690558e8080612297565b8181015183556020948501946001909301929091019061227c565b60405162461bcd60e51b815260206004820152603960248201527f416b746f7220746964616b2062657268616b206d656e616d6261682072656b6160448201527f6d206d6564697320756e74756b2070617369656e20696e692e000000000000006064820152608490fd5b33600052600560205260ff60406000205416806123e1575b15611d67576001600160a01b038a1660009081526008602052604090205460ff16806123a8575b80612398575b15611d6757506001611d67565b506123a38a33615cbd565b61238b565b50336000908152600460209081526040808320600501546001600160a01b038e8116855260079093529220600801548116911614612385565b50600460205260ff6003604060002001541661235e565b5033600052600860205260ff60406000205416611d5e565b34610288576020366003190112610288576001600160a01b0361243161513a565b166000526005602052602060ff604060002054166040519015158152f35b346102885760003660031901126102885760405180600a54808252826020809301600a6000527fc65a7bb8d6351c1cf70c95a316cc6a92839c986682d98bc35f958f4883f9d2a89260005b858282106124c5575050506124b192500383615281565b610d5a604051928284938452830190615349565b85546001600160a01b031684526001958601958895509301920161249a565b34610288576020366003190112610288576004356000818152600b60205260409020600101546001600160a01b03919082161561257357600052600b6020526040600020610d5a815491836001820154169360058201541660068201549061254e60028401615436565b9261255b60038201615436565b611213600761256c60048501615436565b9301615436565b60405162461bcd60e51b815260206004820152601c60248201527f52656b616d206d6564697320746964616b20646974656d756b616e2e000000006044820152606490fd5b34610288576020366003190112610288576004356006548110156102885761157c602091615193565b34610288576125ef366154dc565b979460018060a09693969594951b039661260e88600054163314615728565b878716600052600160205261262a6102516040600020546153fc565b8015612b5b578915612b16578787166000526001602052600460406000200160405161266c8161265e60208201809561590a565b03601f198101835282615281565b5190208a60405161269460208281810194808d87378101600083820152038084520182615281565b51902003612a1e575b878716600052600160205260406000206001600160401b0382116108d1576126c982610e0483546153fc565b816000601f82116001146129b7576000916129ac575b508260011b906000198460031b1c19161781555b6001600160401b0384116108d15761271b8461271260028401546153fc565b600284016157a8565b836000601f821160011461293e57600091612933575b508460011b906000198660031b1c19161760028201555b6001600160401b0386116108d157600381019061276f8761276984546153fc565b846157a8565b60009187601f81116001146128c9576004936000916128be575b508860011b906000198a60031b1c19161790555b016001600160401b038b116108d1576127ba8b610e0483546153fc565b6000601f8c1160011461282b579161149c979593918c7ff68ff1fa009966863b83cbda346b0b08fef5e65659e2c5538afce393cd565b5b9c9d989694600091612820575b508860011b906000198a60031b1c19161790555b604051998a99169b89615872565b90508701358e6127fe565b601f198c16908260005260206000209160005b8181106128a657509161149c99979593918e7ff68ff1fa009966863b83cbda346b0b08fef5e65659e2c5538afce393cd565b5b9e9f9a9896941061288c575b5050600188811b019055612812565b88013560001960038b901b60f8161c191690558d8061287d565b9192602060018192868e01358155019401920161283e565b90508701358e612789565b508060005260206000206000935b601f198a16851061291b576004945089601f19811610612901575b5050600188811b01905561279d565b88013560001960038b901b60f8161c191690558d806128f2565b888101358255602094850194600190920191016128d7565b90508301358c612731565b90506002820160005260206000209060005b601f1987168110612994575085601f1981161061297a575b5050600184811b016002820155612748565b840135600019600387901b60f8161c191690558b80612968565b90916020600181928589013581550193019101612950565b90508a01358c6126df565b60008381526020812092505b8c601f1986168210612a0657505083601f198116106129ec575b5050600182811b0181556126f3565b8b0135600019600385901b60f8161c191690558b806129dd565b600183946020939484930135815501930191016129c3565b60ff6040518b8882376020818d810160028152030190205416612aba578787166000526001602052612a576004604060002001546153fc565b612a81575b6040518a8782376020818c81016002815203019020600160ff1982541617905561269d565b8787166000526001602052612aa5602060046040600020016040519283809261590a565b6002815203019020805460ff19169055612a5c565b60405162461bcd60e51b815260206004820152602e60248201527f4e49425253206261727520737564616820646967756e616b616e206f6c65682060448201526d20b236b4b7102929903630b4b71760911b6064820152608490fd5b60405162461bcd60e51b815260206004820152601e60248201527f4e49425253206261727520746964616b20626f6c6568206b6f736f6e672e00006044820152606490fd5b60405162461bcd60e51b815260206004820152602960248201527f4e616d612052756d61682053616b6974206261727520746964616b20626f6c65604482015268341035b7b9b7b7339760b91b6064820152608490fd5b3461028857602036600319011261028857612c5d6001600160a01b0380612bd761513a565b16806000526005602052612bf260ff60406000205416615b07565b6000526004602052604060002090612c8e60ff6003840154169160058401541691612c1c84615436565b93612c79612c2c60018301615436565b91612c6b612c486004612c4160028501615436565b930161598d565b93604051998a9960c08b5260c08b0190615386565b9089820360208b0152615386565b908782036040890152615386565b91151560608601528482036080860152615349565b9060a08301520390f35b3461028857610120366003190112610288576004356001600160401b03811161028857612cc9903690600401615166565b60c0526080526024356001600160401b03811161028857612cee903690600401615166565b61012052610100526044356001600160401b03811161028857612d15903690600401615166565b6064356001600160401b03811161028857612d34903690600401615166565b906084356001600160401b03811161028857612d54903690600401615166565b93909260a4356001600160401b03811161028857612d76903690600401615166565b919060c4356001600160401b03811161028857612d97903690600401615166565b93909460e4356001600160401b03811161028857612db9903690600401615166565b9099909890610104356001600160a01b03811690036102885733600052600860205260ff6040600020541661375b5733600052600560205260ff6040600020541661370a57612e0c610120511515615b53565b612e3760ff604051610120516101005182376020816101205181016009815203019020541615615b9f565b60018060a01b036101043516600052600160205260ff60016040600020015416156136a657612ede612f0b99612efc97612ecf612f1a9f612eed973360005260086020526040600020600160ff19825416179055612e9b604051806101405261522f565b612eaa3660c0516080516152a2565b6101405152612ec03661012051610100516152a2565b602061014051015236916152a2565b604061014051015236916152a2565b606061014051015236916152a2565b608061014051015236916152a2565b60a061014051015236916152a2565b60c061014051015236916152a2565b60e061014051015260018060a01b036101043516610100610140510152336000526007602052604060002061014051519081516001600160401b0381116108d157612f698161276984546153fc565b6020601f821160011461364157819293600092613636575b50508160011b916000199060031b1c19161781555b60206101405101518051906001600160401b0382116108d1578190612fcb82612fc260018701546153fc565b600187016157a8565b602090601f83116001146135c4576000926135b9575b50508160011b916000199060031b1c19161760018201555b60406101405101518051906001600160401b0382116108d157819061302e8261302560028701546153fc565b600287016157a8565b602090601f83116001146135475760009261353c575b50508160011b916000199060031b1c19161760028201555b60606101405101518051906001600160401b0382116108d15781906130918261308860038701546153fc565b600387016157a8565b602090601f83116001146134ca576000926134bf575b50508160011b916000199060031b1c19161760038201555b60806101405101518051906001600160401b0382116108d15781906130eb82611f4060048701546153fc565b602090601f831160011461344d57600092613442575b50508160011b916000199060031b1c19161760048201555b60a06101405101518051906001600160401b0382116108d157819061314e8261314560058701546153fc565b600587016157a8565b602090601f83116001146133d0576000926133c5575b50508160011b916000199060031b1c19161760058201555b60c06101405101518051906001600160401b0382116108d15781906131b1826131a860068701546153fc565b600687016157a8565b602090601f831160011461335357600092613348575b50508160011b916000199060031b1c19161760068201555b60e0610140510151908151916001600160401b0383116108d157600782019061320c8461276984546153fc565b602090601f85116001146132de5760089491600091836132d3575b50508160011b916000199060031b1c19161790555b0160018060a01b03610100610140510151166001600160601b0360a01b825416179055613268336157ed565b604051610120516101005182376020816101205181016009815203019020600160ff198254161790556040517f34288a60ac94463b3bd2c594dc78c87cba02f1270cf853cee3a2912bf043723733918061149c61010435610120516101005160c05160805186615beb565b015190508580613227565b90826000526020600020916000601f198716905b81811061333057509160019391876008989410613317575b505050811b01905561323c565b015160001960f88460031b161c1916905585808061330a565b929360206001819287860151815501950193016132f2565b0151905083806131c7565b9250600684016000526020600020906000935b601f19841685106133aa576001945083601f19811610613391575b505050811b0160068201556131df565b015160001960f88460031b161c19169055838080613381565b81810151835560209485019460019093019290910190613366565b015190508380613164565b9250600584016000526020600020906000935b601f1984168510613427576001945083601f1981161061340e575b505050811b01600582015561317c565b015160001960f88460031b161c191690558380806133fe565b818101518355602094850194600190930192909101906133e3565b015190508380613101565b9250600484016000526020600020906000935b601f19841685106134a4576001945083601f1981161061348b575b505050811b016004820155613119565b015160001960f88460031b161c1916905583808061347b565b81810151835560209485019460019093019290910190613460565b0151905083806130a7565b9250600384016000526020600020906000935b601f1984168510613521576001945083601f19811610613508575b505050811b0160038201556130bf565b015160001960f88460031b161c191690558380806134f8565b818101518355602094850194600190930192909101906134dd565b015190508380613044565b9250600284016000526020600020906000935b601f198416851061359e576001945083601f19811610613585575b505050811b01600282015561305c565b015160001960f88460031b161c19169055838080613575565b8181015183556020948501946001909301929091019061355a565b015190508380612fe1565b9250600184016000526020600020906000935b601f198416851061361b576001945083601f19811610613602575b505050811b016001820155612ff9565b015160001960f88460031b161c191690558380806135f2565b818101518355602094850194600190930192909101906135d7565b015190508380612f81565b82600052602060002090600094601f198416955b86811061368e5750836001959610613675575b505050811b018155612f96565b015160001960f88460031b161c19169055838080613668565b91926020600181928685015181550194019201613655565b60405162461bcd60e51b815260206004820152603660248201527f52756d61682053616b69742079616e6720646970696c696820746964616b206160448201527535ba34b31030ba30ba903a34b230b5903b30b634b21760511b6064820152608490fd5b60405162461bcd60e51b8152602060048201526024808201527f416c616d617420696e6920746572646166746172207365626167616920646f6b6044820152633a32b91760e11b6064820152608490fd5b60405162461bcd60e51b8152602060048201526024808201527f416e64612073756461682074657264616674617220736562616761692070617360448201526334b2b71760e11b6064820152608490fd5b34610288576020366003190112610288576001600160a01b036137cd61513a565b16600052600160205260406000206137e481615436565b610d5a60ff600184015416926137fc60028201615436565b90613815600461380e60038401615436565b9201615436565b91604051958695866153ab565b34610288576000366003190112610288576020600d54604051908152f35b3461028857602060ff61386982613856366152e8565b8160405193828580945193849201615326565b8101600281520301902054166040519015158152f35b34610288576000366003190112610288576000546040516001600160a01b039091168152602090f35b3461028857602036600319011261028857610d5a6138cc6138c761513a565b615d24565b604051918291602083526020830190615386565b34610288576020366003190112610288576001600160a01b0361390161513a565b1680600052600160205261391c6102516040600020546153fc565b6000526001602052604060002060ff60018201541690610d5a61393e82615436565b916137fc60028201615436565b346102885760403660031901126102885761396461513a565b61396c615150565b3360005260019160208381526139866040600020546153fc565b151580613bf1575b613997906159e5565b60018060a01b03908183169081600052600581526139bc60ff60406000205416615a57565b81600052600481526139d933846005604060002001541614615aa3565b8285169182600052600882526139f660ff60406000205416615c62565b82600052600782528360086040600020015416338114908115613be8575b5015613b655782600052600782526008604060002001805485811615613b50575b50506000908152600480835260408220018054949093825b868110613b1c575b505050613ac05750600160401b8210156108d1576104a48285927fd9a2627959a7f46a8b96c10424cdae1f1b65151551cd206b119aca54c0a86a5a97613a9d95018155615217565b604080516001600160a01b039283168152929091166020830152819081016103db565b6084906040519062461bcd60e51b82526004820152602f60248201527f50617369656e20696e6920737564616820646974756761736b616e206b65206460448201526e37b5ba32b9103a32b939b2b13aba1760891b6064820152fd5b8183613b288389615217565b90549060031b1c1614613b4357613b3e90615cae565b613a4d565b5050505085878080613a55565b6001600160a01b031916331790558780613a35565b60405162461bcd60e51b815260048101839052604f60248201527f50617369656e20696e6920746964616b2074657264616674617220646920727560448201527f6d61682073616b697420416e646120617461752073756461682064692d61737360648201526e34b3b71035b2902929903630b4b71760891b608482015260a490fd5b90501588613a14565b503360009081528482526040902084015460ff1661398e565b34610288576000366003190112610288576040518060035480825282602080930160036000527fc2575a0e9e593c00f959f8c92f12db2869c3395a3b0502d05e2516446f71f85b9260005b85828210613c6c575050506124b192500383615281565b85546001600160a01b0316845260019586019588955093019201613c55565b3461028857602036600319011261028857613ca461513a565b600054906001600160a01b0390613cbe3383851614615728565b16908115613cd6576001600160a01b03191617600055005b60405162461bcd60e51b8152602060048201526024808201527f416c616d61742073757065722061646d696e206261727520746964616b2076616044820152633634b21760e11b6064820152608490fd5b34610288576020366003190112610288576001600160a01b03613d4861513a565b166000526008602052602060ff604060002054166040519015158152f35b3461028857602060ff613d7c82613856366152e8565b8101600981520301902054166040519015158152f35b3461028857602036600319011261028857600435600654811015613dbb5761157c602091615193565b60405162461bcd60e51b815260206004820152601a60248201527f496e64656b7320646f6b74657220746964616b2076616c69642e0000000000006044820152606490fd5b346102885760e0366003190112610288576004356001600160401b03811161028857613e30903690600401615166565b6101605260e0526024356001600160401b03811161028857613e56903690600401615166565b906044356001600160401b03811161028857613e76903690600401615166565b906064356001600160401b03811161028857613e96903690600401615166565b906084356001600160401b03811161028857613eb6903690600401615166565b92909360a4356001600160401b03811161028857613ed8903690600401615166565b9690976001600160401b0360c4351161028857613efa3660c435600401615166565b906101805260a052336000526008602052613f1c60ff60406000205416615c16565b3360005260076020526040600020610160516001600160401b0381116108d157613f4a90610e0483546153fc565b600061016051601f811160011461451557506000610160519182614508575b508160011b916000199060031b1c19161781555b6001600160401b038b116108d157613f9c8b61271260028401546153fc565b8a6000601f82116001146144975760009161448c575b508b60011b906000198d60031b1c19161760028201555b6001600160401b0383116108d15760038101613fe984610e0483546153fc565b836000601f82116001146144275760009161441c575b508460011b906000198660031b1c19161790555b6001600160401b0385116108d15761403b8561403260048401546153fc565b600484016157a8565b846000601f82116001146143ae576000916143a3575b508560011b906000198760031b1c19161760048201555b6001600160401b0387116108d1576140908761408760058401546153fc565b600584016157a8565b866000601f821160011461433357600091614328575b508760011b906000198960031b1c19161760058201555b6001600160401b0389116108d1576140e5896140dc60068401546153fc565b600684016157a8565b886000601f82116001146142b8576000916142ad575b508960011b906000198b60031b1c19161760068201555b60a0516001600160401b0381116108d15761413d9061413460078401546153fc565b600784016157a8565b60a05160006001601f83111461423b5760079150600060a051918261422d575b508160011b916000199060031b1c1916179101555b6040519960e08b5260e08b01610160519060e0519161419092615851565b908b820360208d01526141a292615851565b9089820360408b01526141b492615851565b9087820360608901526141c692615851565b9085820360808701526141d892615851565b9083820360a08501526141ea92615851565b81810360c083015260a05161018051339392839261420792615851565b037f5bf1a01557f5d2a881b530f82df1618e3c06d1a0b7ab3be7ff74e54ead39bd3491a2005b90506101805101358e61415d565b600783016000526020600020906000601f198416905b818110614292575091839160079460019410614275575b5050811b01910155614172565b610180510135600019600384901b60f8161c191690558e80614268565b91926020600181928661018051013581550194019201614251565b90508a01358c6140fb565b90506006820160005260206000209060005b8c601f198d1682106143105750508a601f198116106142f6575b5050600189811b016006820155614112565b8b013560001960038c901b60f8161c191690558b806142e4565b600183946020939484930135815501930191016142ca565b90508801358c6140a6565b90506005820160005260206000209060005b8a601f198b16821061438b57505088601f19811610614371575b5050600187811b0160058201556140bd565b89013560001960038a901b60f8161c191690558b8061435f565b60018394602093948493013581550193019101614345565b90508601358c614051565b90506004820160005260206000209060005b601f1988168110614404575086601f198116106143ea575b5050600185811b016004820155614068565b870135600019600388901b60f8161c191690558b806143d8565b9091602060018192858c0135815501930191016143c0565b90508501358d613fff565b60008381526020812092505b601f1987168110614474575085601f1981161061445a575b5050600184811b019055614013565b860135600019600387901b60f8161c191690558c8061444b565b9091602060018192858b013581550193019101614433565b90508201358c613fb2565b9050601f198c1690600283016000528c60206000209260005b8181106144ea5750106144d0575b505060018b811b016002820155613fc9565b83013560001960038e901b60f8161c191690558b806144be565b92936020919250600182918689013581550194019201908e916144b0565b905060e05101358d613f69565b9082600052602060002090600090601f19841660e051925b81811061456a5750908460019594939210614550575b505050811b018155613f7d565b0135600019600384901b60f8161c191690558d8080614543565b9193602060018192878701358155019501920161452d565b346102885760403660031901126102885761459b61513a565b6001600160a01b03166000908152600c6020526040902080546024359190821015610288576020916145cc91615217565b90546040519160031b1c8152f35b34610288576080366003190112610288576145f361513a565b6024356001600160401b03811161028857614612903690600401615166565b906044356001600160401b03811161028857614632903690600401615166565b9390916064356001600160a01b03811690036102885733600052600160205261465f6040600020546153fc565b15158061511a575b614670906159e5565b6001600160a01b03821660009081526008602052604090205460ff166150c3576001600160a01b03821660009081526005602052604090205460ff16615058576146bb851515615b53565b6146dd60ff604051878682376020818981016009815203019020541615615b9f565b60018060a01b0360643516600052600160205260ff6001604060002001541615615008576064356001600160a01b03163303614f92576001600160a01b03821660009081526008602052604090819020805460ff1916600117905551946147438661522f565b61474e3686846152a2565b865261475b3682866152a2565b602087015260405161476c8161524b565b6000815260408701526040516147818161524b565b6000815260608701526040516147968161524b565b6000815260808701526040516147ab8161524b565b6000815260a08701526040516147c08161524b565b6000815260c08701526040516147d58161524b565b600080825260e08801919091526001600160a01b0360643581166101008901528416815260076020526040902086518051919791906001600160401b0382116108d157819061482e826148288c546153fc565b8c6157a8565b602090601f8311600114614f2657600092614f1b575b50508160011b916000199060031b1c19161787555b60208101518051906001600160401b0382116108d157819061488b8261488260018d01546153fc565b60018d016157a8565b602090601f8311600114614ea957600092614e9e575b50508160011b916000199060031b1c19161760018801555b60408101518051906001600160401b0382116108d15781906148eb826148e260028d01546153fc565b60028d016157a8565b602090601f8311600114614e2c57600092614e21575b50508160011b916000199060031b1c19161760028801555b60608101518051906001600160401b0382116108d157819061494b8261494260038d01546153fc565b60038d016157a8565b602090601f8311600114614daf57600092614da4575b50508160011b916000199060031b1c19161760038801555b60808101518051906001600160401b0382116108d15781906149ab826149a260048d01546153fc565b60048d016157a8565b602090601f8311600114614d3257600092614d27575b50508160011b916000199060031b1c19161760048801555b60a08101518051906001600160401b0382116108d1578190614a0b82614a0260058d01546153fc565b60058d016157a8565b602090601f8311600114614cb557600092614caa575b50508160011b916000199060031b1c19161760058801555b60c08101518051906001600160401b0382116108d1578190614a6b82614a6260068d01546153fc565b60068d016157a8565b602090601f8311600114614c3857600092614c2d575b50508160011b916000199060031b1c19161760068801555b60e08101519687516001600160401b0381116108d157614ac981614ac060078501546153fc565b600785016157a8565b6020601f8211600114614b9357918160089261149c979695947f34288a60ac94463b3bd2c594dc78c87cba02f1270cf853cee3a2912bf04372379b9c600092614b88575b50508160011b916000199060031b1c19161760078201555b019061010060018060a01b03910151166001600160601b0360a01b825416179055614b4f846157ed565b604051818682376020818381016009815203019020600160ff1982541617905560405194859460018060a01b0316976064359386615beb565b015190508c80614b0d565b6007830160005260206000209960005b601f1984168110614c155750827f34288a60ac94463b3bd2c594dc78c87cba02f1270cf853cee3a2912bf04372379a9b61149c9897969593600193600896601f19811610614bfc575b505050811b016007820155614b25565b015160001960f88460031b161c191690558c8080614bec565b828201518c556001909b019a60209283019201614ba3565b015190508980614a81565b925060068a016000526020600020906000935b601f1984168510614c8f576001945083601f19811610614c76575b505050811b016006880155614a99565b015160001960f88460031b161c19169055898080614c66565b81810151835560209485019460019093019290910190614c4b565b015190508980614a21565b925060058a016000526020600020906000935b601f1984168510614d0c576001945083601f19811610614cf3575b505050811b016005880155614a39565b015160001960f88460031b161c19169055898080614ce3565b81810151835560209485019460019093019290910190614cc8565b0151905089806149c1565b925060048a016000526020600020906000935b601f1984168510614d89576001945083601f19811610614d70575b505050811b0160048801556149d9565b015160001960f88460031b161c19169055898080614d60565b81810151835560209485019460019093019290910190614d45565b015190508980614961565b925060038a016000526020600020906000935b601f1984168510614e06576001945083601f19811610614ded575b505050811b016003880155614979565b015160001960f88460031b161c19169055898080614ddd565b81810151835560209485019460019093019290910190614dc2565b015190508980614901565b925060028a016000526020600020906000935b601f1984168510614e83576001945083601f19811610614e6a575b505050811b016002880155614919565b015160001960f88460031b161c19169055898080614e5a565b81810151835560209485019460019093019290910190614e3f565b0151905089806148a1565b925060018a016000526020600020906000935b601f1984168510614f00576001945083601f19811610614ee7575b505050811b0160018801556148b9565b015160001960f88460031b161c19169055898080614ed7565b81810151835560209485019460019093019290910190614ebc565b015190508980614844565b9250896000526020600020906000935b601f1984168510614f77576001945083601f19811610614f5e575b505050811b018755614859565b015160001960f88460031b161c19169055898080614f51565b81810151835560209485019460019093019290910190614f36565b60405162461bcd60e51b815260206004820152604260248201527f48616e79612061646d696e2052532070656e616e6767756e67206a617761622060448201527f79616e672062697361206d656e6461667461726b616e2070617369656e20696e606482015261349760f11b608482015260a490fd5b60405162461bcd60e51b815260206004820152602260248201527f41646d696e2052532079616e6720646972756a756b20746964616b20616b7469604482015261331760f11b6064820152608490fd5b60405162461bcd60e51b815260206004820152603f60248201527f416c616d617420696e6920746572646166746172207365626167616920646f6b60448201527f7465722c20746964616b2062697361206d656e6a6164692070617369656e2e006064820152608490fd5b60405162461bcd60e51b815260206004820152602960248201527f50617369656e207375646168207465726461667461722064656e67616e20616c60448201526830b6b0ba1034b7349760b91b6064820152608490fd5b5033600052600160205261467060ff600160406000200154169050614667565b600435906001600160a01b038216820361028857565b602435906001600160a01b038216820361028857565b9181601f84011215610288578235916001600160401b038311610288576020838186019501011161028857565b6006548110156151ca5760066000527ff652222313e28459528d920b65115c16c04f3efc82aaedc97be59f3f377c0d3f0190600090565b634e487b7160e01b600052603260045260246000fd5b6003548110156151ca5760036000527fc2575a0e9e593c00f959f8c92f12db2869c3395a3b0502d05e2516446f71f85b0190600090565b80548210156151ca5760005260206000200190600090565b61012081019081106001600160401b038211176108d157604052565b602081019081106001600160401b038211176108d157604052565b604081019081106001600160401b038211176108d157604052565b90601f801991011681019081106001600160401b038211176108d157604052565b9291926001600160401b0382116108d157604051916152cb601f8201601f191660200184615281565b829481845281830111610288578281602093846000960137010152565b602060031982011261028857600435906001600160401b038211610288578060238301121561028857816024615323936004013591016152a2565b90565b60005b8381106153395750506000910152565b8181015183820152602001615329565b90815180825260208080930193019160005b828110615369575050505090565b83516001600160a01b03168552938101939281019260010161535b565b9060209161539f81518092818552858086019101615326565b601f01601f1916010190565b93906153ee9261532396946153cb6153e09360a0895260a0890190615386565b91151560208801528682036040880152615386565b908482036060860152615386565b916080818403910152615386565b90600182811c9216801561542c575b602083101461541657565b634e487b7160e01b600052602260045260246000fd5b91607f169161540b565b906040519182600082549261544a846153fc565b9081845260019485811690816000146154b95750600114615476575b505061547492500383615281565b565b9093915060005260209081600020936000915b8183106154a157505061547493508201013880615466565b85548884018501529485019487945091830191615489565b91505061547494506020925060ff191682840152151560051b8201013880615466565b9060a0600319830112610288576004356001600160a01b038116810361028857916001600160401b0390602435828111610288578161551d91600401615166565b93909392604435818111610288578361553891600401615166565b93909392606435838111610288578261555391600401615166565b939093926084359182116102885761556d91600401615166565b9091565b9490615323989697946155a86155c494956155b693895260018060a01b0380971660208a01526101008060408b0152890190615386565b908782036060890152615386565b908582036080870152615386565b941660a083015260c082015260e0818403910152615386565b979461564b9061563d6156679661562f8c9d9e9d6101009c98615621615659996156136156759f9a610120808752860190615386565b908482036020860152615386565b916040818403910152615386565b8c810360608e015290615386565b908a820360808c0152615386565b9088820360a08a0152615386565b9086820360c0880152615386565b9084820360e0860152615386565b6001600160a01b03909416910152565b6040906003190112610288576004356001600160a01b0381168103610288579060243580151581036102885790565b6080600319820112610288576004356001600160a01b038116810361028857916001600160401b0360243581811161028857836156f391600401615166565b93909392604435838111610288578261570e91600401615166565b939093926064359182116102885761556d91600401615166565b1561572f57565b60405162461bcd60e51b815260206004820152603460248201527f48616e79612073757065722061646d696e2079616e67206461706174206d656e6044820152733530b630b735b0b710333ab733b9b49034b7349760611b6064820152608490fd5b81811061579c575050565b60008155600101615791565b9190601f81116157b757505050565b615474926000526020600020906020601f840160051c830193106157e3575b601f0160051c0190615791565b90915081906157d6565b600a54600160401b8110156108d1576001810180600a558110156151ca57600a6000527fc65a7bb8d6351c1cf70c95a316cc6a92839c986682d98bc35f958f4883f9d2a80180546001600160a01b0319166001600160a01b03909216919091179055565b908060209392818452848401376000828201840152601f01601f1916010190565b9694926158b0946158946158a2936153239b999560808c5260808c0191615851565b9189830360208b0152615851565b918683036040880152615851565b926060818503910152615851565b156158c557565b60405162461bcd60e51b815260206004820152601960248201527f41646d696e20525320746964616b20646974656d756b616e2e000000000000006044820152606490fd5b600092918154615919816153fc565b926001918083169081156159725750600114615936575b50505050565b90919293945060005260209081600020906000915b8583106159615750505050019038808080615930565b80548584015291830191810161594b565b60ff1916845250505081151590910201915038808080615930565b9060405191828154918282526020928383019160005283600020936000905b8282106159c25750505061547492500383615281565b85546001600160a01b0316845260019586019588955093810193909101906159ac565b156159ec57565b60405162461bcd60e51b815260206004820152603c60248201527f48616e79612061646d696e2052532079616e6720616b7469662079616e67206460448201527f61706174206d656e6a616c616e6b616e2066756e67736920696e692e000000006064820152608490fd5b15615a5e57565b60405162461bcd60e51b815260206004820152601760248201527f446f6b74657220746964616b207465726461667461722e0000000000000000006044820152606490fd5b15615aaa57565b60405162461bcd60e51b815260206004820152602f60248201527f446f6b74657220696e6920746964616b2074657264616674617220646920727560448201526e36b0b41039b0b5b4ba1020b732309760891b6064820152608490fd5b15615b0e57565b60405162461bcd60e51b815260206004820152601760248201527f446f6b74657220746964616b20646974656d756b616e2e0000000000000000006044820152606490fd5b15615b5a57565b60405162461bcd60e51b815260206004820152601d60248201527f49442050617369656e20746964616b20626f6c6568206b6f736f6e672e0000006044820152606490fd5b15615ba657565b60405162461bcd60e51b815260206004820152601a60248201527f49442050617369656e20737564616820646967756e616b616e2e0000000000006044820152606490fd5b93615c086040949261567594989798606088526060880191615851565b918583036020870152615851565b15615c1d57565b60405162461bcd60e51b815260206004820152601760248201527f50617369656e20746964616b20646974656d756b616e2e0000000000000000006044820152606490fd5b15615c6957565b60405162461bcd60e51b815260206004820152601760248201527f50617369656e20746964616b207465726461667461722e0000000000000000006044820152606490fd5b60001981146105035760010190565b6001600160a01b03908116600090815260046020819052604082200180549390915b848110615cf0575050505050600090565b83615cfb8285615217565b9190548185169260031b1c1614615d1a57615d1590615cae565b615cdf565b5050505050600190565b600080546001600160a01b0392831692168214615e5b5781815260ff602092600184526040928391615d58838320546153fc565b615e095780825260058652838383205416615dbb57815260088552205416615d9b57662ab735b737bbb760c91b905191615d9183615266565b6007835282015290565b652830b9b4b2b760d11b905191615db183615266565b6006835282015290565b506004855220600301541615615de157652237b5ba32b960d11b905191615db183615266565b6d24b730b1ba34bb32a237b5ba32b960911b905191615dff83615266565b600e835282015290565b8152600180865291902001541615615e32576641646d696e525360c81b905191615d9183615266565b6e496e61637469766541646d696e525360881b905191615e5183615266565b600f835282015290565b5050604051615e6981615266565b600a81526929bab832b920b236b4b760b11b60208201529056fea2646970667358221220ae316d7169e51f27b3f1d7434f20e2e1a9259b43ef3f900dbcef565e4a494ce664736f6c63430008130033",
  "immutableReferences": {},
  "source": "// SPDX-License-Identifier: MIT\r\npragma solidity ^0.8.0;\r\n\r\ncontract RekamMedisRS {\r\n    address public superAdmin;\r\n\r\n    struct AdminRS {\r\n        string namaRumahSakit;\r\n        bool aktif;\r\n        string alamatRumahSakit;\r\n        string kota;\r\n        string NIBRS;\r\n    }\r\n    mapping(address => AdminRS) public dataAdmin;\r\n    mapping(string => bool) public isNIBRSUsed;\r\n    address[] public daftarAdmin;\r\n\r\n    struct Dokter {\r\n        string nama;\r\n        string spesialisasi;\r\n        string nomorLisensi;\r\n        bool aktif;\r\n        address[] assignedPasien;\r\n        address adminRS;\r\n    }\r\n    mapping(address => Dokter) public dataDokter;\r\n    mapping(address => bool) public isDokter;\r\n    address[] public daftarDokter;\r\n\r\n    struct Pasien {\r\n        string nama;\r\n        string ID;\r\n        string golonganDarah;\r\n        string tanggalLahir;\r\n        string gender;\r\n        string alamat;\r\n        string noTelepon;\r\n        string email;\r\n        address rumahSakitPenanggungJawab;\r\n    }\r\n    mapping(address => Pasien) public dataPasien;\r\n    mapping(address => bool) public isPasien;\r\n    mapping(string => bool) public isPatientIDUsed;\r\n    address[] public daftarPasien;\r\n\r\n    struct RekamMedisData {\r\n        uint id;\r\n        address pasien;\r\n        string diagnosa;\r\n        string foto;\r\n        string catatan;\r\n        address pembuat;\r\n        uint256 timestampPembuatan;\r\n        string tipeRekamMedis;\r\n    }\r\n    mapping(uint => RekamMedisData) public rekamMedis;\r\n    mapping(address => uint[]) public rekamMedisByPasien;\r\n    uint public rekamMedisCount;\r\n\r\n    event AdminRSTerdaftar(\r\n        address indexed admin,\r\n        string namaRumahSakit,\r\n        string alamatRumahSakit,\r\n        string kota,\r\n        string NIBRS\r\n    );\r\n    event AdminRSStatusDiubah(address indexed admin, bool aktif);\r\n\r\n    event AdminRSInfoDiperbarui(\r\n        address indexed admin,\r\n        string namaRumahSakit,\r\n        string alamatRumahSakit,\r\n        string kota,\r\n        string NIBRS\r\n    );\r\n\r\n    event DokterTerdaftar(address indexed dokter, string nama, address adminRS);\r\n    event DokterStatusDiubah(address indexed dokter, bool aktif);\r\n    event DokterInfoDiperbarui(\r\n        address indexed dokter,\r\n        string nama,\r\n        string spesialisasi,\r\n        string nomorLisensi,\r\n        address indexed adminRS\r\n    );\r\n    event PasienTerdaftar(\r\n        address indexed pasien,\r\n        string nama,\r\n        string IDPasien,\r\n        address adminRS\r\n    );\r\n    event PasienPindahRS(\r\n        address indexed pasien,\r\n        address oldAdminRS,\r\n        address newAdminRS\r\n    );\r\n    event PasienDiassignKeDokter(address dokter, address pasien);\r\n    event PasienDiunassignDariDokter(address dokter, address pasien);\r\n\r\n    event RekamMedisDitambahkan(\r\n        uint id,\r\n        address pasien,\r\n        string diagnosa,\r\n        string foto,\r\n        string catatan,\r\n        string tipeRekamMedis,\r\n        address pembuat,\r\n        uint timestamp\r\n    );\r\n\r\n    event PasienDataDiperbarui(\r\n        address indexed pasien,\r\n        string nama,\r\n        string golonganDarah,\r\n        string tanggalLahir,\r\n        string gender,\r\n        string alamat,\r\n        string noTelepon,\r\n        string email\r\n    );\r\n\r\n    constructor() {\r\n        superAdmin = 0xB0dC0Bf642d339517438017Fc185Bb0f758A01D2;\r\n    }\r\n\r\n    modifier hanyaSuperAdmin() {\r\n        require(\r\n            msg.sender == superAdmin,\r\n            \"Hanya super admin yang dapat menjalankan fungsi ini.\"\r\n        );\r\n        _;\r\n    }\r\n\r\n    modifier hanyaAdminRS() {\r\n        require(\r\n            bytes(dataAdmin[msg.sender].namaRumahSakit).length > 0 &&\r\n                dataAdmin[msg.sender].aktif,\r\n            \"Hanya admin RS yang aktif yang dapat menjalankan fungsi ini.\"\r\n        );\r\n        _;\r\n    }\r\n\r\n    modifier hanyaDokterAktif() {\r\n        require(\r\n            isDokter[msg.sender] && dataDokter[msg.sender].aktif,\r\n            \"Hanya dokter yang aktif yang dapat menjalankan fungsi ini.\"\r\n        );\r\n        _;\r\n    }\r\n\r\n    modifier hanyaDokterAktifUntukPasien(address _pasien) {\r\n        require(\r\n            isDokter[msg.sender] && dataDokter[msg.sender].aktif,\r\n            \"Hanya dokter aktif.\"\r\n        );\r\n        require(isPasien[_pasien], \"Pasien tidak terdaftar.\");\r\n        require(\r\n            dataDokter[msg.sender].adminRS ==\r\n                dataPasien[_pasien].rumahSakitPenanggungJawab,\r\n            \"Dokter dan pasien tidak berada di rumah sakit yang sama.\"\r\n        );\r\n        bool assigned = false;\r\n        address[] storage listPasienDitugaskan = dataDokter[msg.sender]\r\n            .assignedPasien;\r\n        for (uint i = 0; i < listPasienDitugaskan.length; i++) {\r\n            if (listPasienDitugaskan[i] == _pasien) {\r\n                assigned = true;\r\n                break;\r\n            }\r\n        }\r\n        require(\r\n            assigned,\r\n            \"Dokter ini tidak ditugaskan untuk menangani pasien tersebut.\"\r\n        );\r\n        _;\r\n    }\r\n\r\n    modifier hanyaPasien(address _pasien) {\r\n        require(\r\n            msg.sender == _pasien,\r\n            \"Hanya pasien yang bersangkutan yang dapat menjalankan fungsi ini.\"\r\n        );\r\n        _;\r\n    }\r\n\r\n    function registerAdminRS(\r\n        address _admin,\r\n        string calldata _namaRS,\r\n        string calldata _alamatRS,\r\n        string calldata _kotaRS,\r\n        string calldata _NIBRS\r\n    ) external hanyaSuperAdmin {\r\n        require(\r\n            bytes(dataAdmin[_admin].namaRumahSakit).length == 0,\r\n            \"Admin RS sudah terdaftar dengan alamat ini.\"\r\n        );\r\n        require(\r\n            bytes(_namaRS).length > 0,\r\n            \"Nama Rumah Sakit tidak boleh kosong.\"\r\n        );\r\n        require(bytes(_NIBRS).length > 0, \"NIBRS tidak boleh kosong.\");\r\n        require(\r\n            !isNIBRSUsed[_NIBRS],\r\n            \"NIBRS sudah digunakan oleh Admin RS lain.\"\r\n        );\r\n\r\n        dataAdmin[_admin] = AdminRS({\r\n            namaRumahSakit: _namaRS,\r\n            aktif: true,\r\n            alamatRumahSakit: _alamatRS,\r\n            kota: _kotaRS,\r\n            NIBRS: _NIBRS\r\n        });\r\n        daftarAdmin.push(_admin);\r\n        isNIBRSUsed[_NIBRS] = true;\r\n\r\n        emit AdminRSTerdaftar(_admin, _namaRS, _alamatRS, _kotaRS, _NIBRS);\r\n    }\r\n\r\n    function updateAdminRSDetails(\r\n        address _admin,\r\n        string calldata _namaBaru,\r\n        string calldata _alamatBaru,\r\n        string calldata _kotaBaru,\r\n        string calldata _NIBRSBaru\r\n    ) external hanyaSuperAdmin {\r\n        require(\r\n            bytes(dataAdmin[_admin].namaRumahSakit).length != 0,\r\n            \"Admin RS tidak ditemukan.\"\r\n        );\r\n        require(\r\n            bytes(_namaBaru).length > 0,\r\n            \"Nama Rumah Sakit baru tidak boleh kosong.\"\r\n        );\r\n        require(bytes(_NIBRSBaru).length > 0, \"NIBRS baru tidak boleh kosong.\");\r\n\r\n        if (\r\n            keccak256(abi.encodePacked(dataAdmin[_admin].NIBRS)) !=\r\n            keccak256(abi.encodePacked(_NIBRSBaru))\r\n        ) {\r\n            require(\r\n                !isNIBRSUsed[_NIBRSBaru],\r\n                \"NIBRS baru sudah digunakan oleh Admin RS lain.\"\r\n            );\r\n            if (bytes(dataAdmin[_admin].NIBRS).length > 0) {\r\n                isNIBRSUsed[dataAdmin[_admin].NIBRS] = false;\r\n            }\r\n            isNIBRSUsed[_NIBRSBaru] = true;\r\n        }\r\n\r\n        AdminRS storage adminToUpdate = dataAdmin[_admin];\r\n        adminToUpdate.namaRumahSakit = _namaBaru;\r\n        adminToUpdate.alamatRumahSakit = _alamatBaru;\r\n        adminToUpdate.kota = _kotaBaru;\r\n        adminToUpdate.NIBRS = _NIBRSBaru;\r\n\r\n        emit AdminRSInfoDiperbarui(\r\n            _admin,\r\n            _namaBaru,\r\n            _alamatBaru,\r\n            _kotaBaru,\r\n            _NIBRSBaru\r\n        );\r\n    }\r\n\r\n    function setStatusAdminRS(\r\n        address _admin,\r\n        bool _aktif\r\n    ) external hanyaSuperAdmin {\r\n        require(\r\n            bytes(dataAdmin[_admin].namaRumahSakit).length != 0,\r\n            \"Admin RS tidak ditemukan.\"\r\n        );\r\n        dataAdmin[_admin].aktif = _aktif;\r\n        emit AdminRSStatusDiubah(_admin, _aktif);\r\n    }\r\n\r\n    function getAllAdminRSAddresses() external view returns (address[] memory) {\r\n        return daftarAdmin;\r\n    }\r\n\r\n    function totalAdmin() external view returns (uint) {\r\n        return daftarAdmin.length;\r\n    }\r\n\r\n    function getAdminByIndex(uint idx) external view returns (address) {\r\n        require(idx < daftarAdmin.length, \"Indeks admin RS tidak valid.\");\r\n        return daftarAdmin[idx];\r\n    }\r\n\r\n    function getAdminRS(\r\n        address _admin\r\n    )\r\n        external\r\n        view\r\n        returns (\r\n            string memory namaRumahSakit,\r\n            bool aktif,\r\n            string memory alamatRumahSakit,\r\n            string memory kota,\r\n            string memory NIBRS\r\n        )\r\n    {\r\n        require(\r\n            bytes(dataAdmin[_admin].namaRumahSakit).length > 0,\r\n            \"Admin RS tidak ditemukan.\"\r\n        );\r\n        AdminRS storage adminData = dataAdmin[_admin];\r\n        return (\r\n            adminData.namaRumahSakit,\r\n            adminData.aktif,\r\n            adminData.alamatRumahSakit,\r\n            adminData.kota,\r\n            adminData.NIBRS\r\n        );\r\n    }\r\n\r\n    function registerDokter(\r\n        address _dokter,\r\n        string calldata _nama,\r\n        string calldata _spesialisasi,\r\n        string calldata _nomorLisensi\r\n    ) external hanyaAdminRS {\r\n        require(\r\n            !isDokter[_dokter],\r\n            \"Alamat ini sudah terdaftar sebagai dokter.\"\r\n        );\r\n        require(\r\n            !isPasien[_dokter],\r\n            \"Alamat ini terdaftar sebagai pasien, tidak bisa menjadi dokter.\"\r\n        );\r\n        isDokter[_dokter] = true;\r\n        dataDokter[_dokter] = Dokter({\r\n            nama: _nama,\r\n            spesialisasi: _spesialisasi,\r\n            nomorLisensi: _nomorLisensi,\r\n            aktif: true,\r\n            assignedPasien: new address[](0),\r\n            adminRS: msg.sender\r\n        });\r\n        daftarDokter.push(_dokter);\r\n        emit DokterTerdaftar(_dokter, _nama, msg.sender);\r\n    }\r\n\r\n    function updateDokterInfo(\r\n        address _dokter,\r\n        string calldata _namaBaru,\r\n        string calldata _spesialisasiBaru,\r\n        string calldata _nomorLisensiBaru\r\n    ) external hanyaAdminRS {\r\n        require(isDokter[_dokter], \"Dokter tidak terdaftar di sistem.\");\r\n        require(\r\n            dataDokter[_dokter].adminRS == msg.sender,\r\n            \"Anda bukan admin RS yang berhak untuk dokter ini.\"\r\n        );\r\n\r\n        Dokter storage dokterToUpdate = dataDokter[_dokter];\r\n        dokterToUpdate.nama = _namaBaru;\r\n        dokterToUpdate.spesialisasi = _spesialisasiBaru;\r\n        dokterToUpdate.nomorLisensi = _nomorLisensiBaru;\r\n\r\n        emit DokterInfoDiperbarui(\r\n            _dokter,\r\n            _namaBaru,\r\n            _spesialisasiBaru,\r\n            _nomorLisensiBaru,\r\n            msg.sender\r\n        );\r\n    }\r\n\r\n    function setStatusDokter(\r\n        address _dokter,\r\n        bool _aktif\r\n    ) external hanyaAdminRS {\r\n        require(isDokter[_dokter], \"Dokter tidak terdaftar.\");\r\n        require(\r\n            dataDokter[_dokter].adminRS == msg.sender,\r\n            \"Dokter ini tidak terdaftar di rumah sakit Anda.\"\r\n        );\r\n        dataDokter[_dokter].aktif = _aktif;\r\n        emit DokterStatusDiubah(_dokter, _aktif);\r\n    }\r\n\r\n    function totalDokter() external view returns (uint) {\r\n        return daftarDokter.length;\r\n    }\r\n\r\n    function getDokterByIndex(uint idx) external view returns (address) {\r\n        require(idx < daftarDokter.length, \"Indeks dokter tidak valid.\");\r\n        return daftarDokter[idx];\r\n    }\r\n\r\n    function getDokter(\r\n        address _dokter\r\n    )\r\n        external\r\n        view\r\n        returns (\r\n            string memory nama,\r\n            string memory spesialisasi,\r\n            string memory nomorLisensi,\r\n            bool aktif,\r\n            address[] memory pasienList,\r\n            address adminRS\r\n        )\r\n    {\r\n        require(isDokter[_dokter], \"Dokter tidak ditemukan.\");\r\n        Dokter storage d = dataDokter[_dokter];\r\n        return (\r\n            d.nama,\r\n            d.spesialisasi,\r\n            d.nomorLisensi,\r\n            d.aktif,\r\n            d.assignedPasien,\r\n            d.adminRS\r\n        );\r\n    }\r\n\r\n    function getAssignedPatients(\r\n        address _dokter\r\n    ) external view returns (address[] memory) {\r\n        require(isDokter[_dokter], \"Dokter tidak ditemukan.\");\r\n        return dataDokter[_dokter].assignedPasien;\r\n    }\r\n\r\n    function registerPasien(\r\n        address _pasien,\r\n        string calldata _nama,\r\n        string calldata _IDPasien,\r\n        address _adminRS\r\n    ) external hanyaAdminRS {\r\n        require(\r\n            !isPasien[_pasien],\r\n            \"Pasien sudah terdaftar dengan alamat ini.\"\r\n        );\r\n        require(\r\n            !isDokter[_pasien],\r\n            \"Alamat ini terdaftar sebagai dokter, tidak bisa menjadi pasien.\"\r\n        );\r\n        require(bytes(_IDPasien).length > 0, \"ID Pasien tidak boleh kosong.\");\r\n        require(!isPatientIDUsed[_IDPasien], \"ID Pasien sudah digunakan.\");\r\n\r\n        require(\r\n            dataAdmin[_adminRS].aktif,\r\n            \"Admin RS yang dirujuk tidak aktif.\"\r\n        );\r\n        require(\r\n            msg.sender == _adminRS,\r\n            \"Hanya admin RS penanggung jawab yang bisa mendaftarkan pasien ini.\"\r\n        );\r\n\r\n        isPasien[_pasien] = true;\r\n        dataPasien[_pasien] = Pasien({\r\n            nama: _nama,\r\n            ID: _IDPasien,\r\n            golonganDarah: \"\",\r\n            tanggalLahir: \"\",\r\n            gender: \"\",\r\n            alamat: \"\",\r\n            noTelepon: \"\",\r\n            email: \"\",\r\n            rumahSakitPenanggungJawab: _adminRS\r\n        });\r\n        daftarPasien.push(_pasien);\r\n        isPatientIDUsed[_IDPasien] = true;\r\n        emit PasienTerdaftar(_pasien, _nama, _IDPasien, _adminRS);\r\n    }\r\n\r\n    function selfRegisterPasien(\r\n        string calldata _nama,\r\n        string calldata _IDPasien,\r\n        string calldata _golonganDarah,\r\n        string calldata _tanggalLahir,\r\n        string calldata _gender,\r\n        string calldata _alamat,\r\n        string calldata _noTelepon,\r\n        string calldata _email,\r\n        address _adminRS\r\n    ) external {\r\n        require(!isPasien[msg.sender], \"Anda sudah terdaftar sebagai pasien.\");\r\n        require(!isDokter[msg.sender], \"Alamat ini terdaftar sebagai dokter.\");\r\n        require(bytes(_IDPasien).length > 0, \"ID Pasien tidak boleh kosong.\");\r\n        require(!isPatientIDUsed[_IDPasien], \"ID Pasien sudah digunakan.\");\r\n        require(\r\n            dataAdmin[_adminRS].aktif,\r\n            \"Rumah Sakit yang dipilih tidak aktif atau tidak valid.\"\r\n        );\r\n\r\n        isPasien[msg.sender] = true;\r\n        dataPasien[msg.sender] = Pasien({\r\n            nama: _nama,\r\n            ID: _IDPasien,\r\n            golonganDarah: _golonganDarah,\r\n            tanggalLahir: _tanggalLahir,\r\n            gender: _gender,\r\n            alamat: _alamat,\r\n            noTelepon: _noTelepon,\r\n            email: _email,\r\n            rumahSakitPenanggungJawab: _adminRS\r\n        });\r\n        daftarPasien.push(msg.sender);\r\n        isPatientIDUsed[_IDPasien] = true;\r\n        emit PasienTerdaftar(msg.sender, _nama, _IDPasien, _adminRS);\r\n    }\r\n\r\n    function updatePasienData(\r\n        string calldata _nama,\r\n        string calldata _golonganDarah,\r\n        string calldata _tanggalLahir,\r\n        string calldata _gender,\r\n        string calldata _alamat,\r\n        string calldata _noTelepon,\r\n        string calldata _email\r\n    ) external hanyaPasien(msg.sender) {\r\n        require(isPasien[msg.sender], \"Pasien tidak ditemukan.\");\r\n\r\n        Pasien storage pasienToUpdate = dataPasien[msg.sender];\r\n        pasienToUpdate.nama = _nama;\r\n        pasienToUpdate.golonganDarah = _golonganDarah;\r\n        pasienToUpdate.tanggalLahir = _tanggalLahir;\r\n        pasienToUpdate.gender = _gender;\r\n        pasienToUpdate.alamat = _alamat;\r\n        pasienToUpdate.noTelepon = _noTelepon;\r\n        pasienToUpdate.email = _email;\r\n\r\n        emit PasienDataDiperbarui(\r\n            msg.sender,\r\n            _nama,\r\n            _golonganDarah,\r\n            _tanggalLahir,\r\n            _gender,\r\n            _alamat,\r\n            _noTelepon,\r\n            _email\r\n        );\r\n    }\r\n\r\n    function updatePasienRumahSakit(\r\n        address _newAdminRS\r\n    ) external hanyaPasien(msg.sender) {\r\n        require(isPasien[msg.sender], \"Pasien tidak ditemukan.\");\r\n        require(\r\n            dataAdmin[_newAdminRS].aktif,\r\n            \"Rumah Sakit baru tidak aktif atau tidak valid.\"\r\n        );\r\n        require(\r\n            dataPasien[msg.sender].rumahSakitPenanggungJawab != _newAdminRS,\r\n            \"Anda sudah terdaftar di rumah sakit ini.\"\r\n        );\r\n\r\n        address oldAdminRS = dataPasien[msg.sender].rumahSakitPenanggungJawab;\r\n        dataPasien[msg.sender].rumahSakitPenanggungJawab = _newAdminRS;\r\n\r\n        emit PasienPindahRS(msg.sender, oldAdminRS, _newAdminRS);\r\n    }\r\n\r\n    function getDaftarPasien() external view returns (address[] memory) {\r\n        return daftarPasien;\r\n    }\r\n\r\n    function totalPasien() public view returns (uint) {\r\n        return daftarPasien.length;\r\n    }\r\n\r\n    function getPasienData(\r\n        address _pasien\r\n    )\r\n        external\r\n        view\r\n        returns (\r\n            string memory nama,\r\n            string memory ID,\r\n            string memory golonganDarah,\r\n            string memory tanggalLahir,\r\n            string memory gender,\r\n            string memory alamat,\r\n            string memory noTelepon,\r\n            string memory email,\r\n            address rumahSakitPenanggungJawab\r\n        )\r\n    {\r\n        require(isPasien[_pasien], \"Pasien tidak ditemukan.\");\r\n        Pasien storage p = dataPasien[_pasien];\r\n        return (\r\n            p.nama,\r\n            p.ID,\r\n            p.golonganDarah,\r\n            p.tanggalLahir,\r\n            p.gender,\r\n            p.alamat,\r\n            p.noTelepon,\r\n            p.email,\r\n            p.rumahSakitPenanggungJawab\r\n        );\r\n    }\r\n\r\n    function assignPasienToDokter(\r\n        address _dokter,\r\n        address _pasien\r\n    ) external hanyaAdminRS {\r\n        require(isDokter[_dokter], \"Dokter tidak terdaftar.\");\r\n        require(\r\n            dataDokter[_dokter].adminRS == msg.sender,\r\n            \"Dokter ini tidak terdaftar di rumah sakit Anda.\"\r\n        );\r\n        require(isPasien[_pasien], \"Pasien tidak terdaftar.\");\r\n\r\n        require(\r\n            (dataPasien[_pasien].rumahSakitPenanggungJawab == msg.sender ||\r\n                dataPasien[_pasien].rumahSakitPenanggungJawab == address(0)),\r\n            \"Pasien ini tidak terdaftar di rumah sakit Anda atau sudah di-assign ke RS lain.\"\r\n        );\r\n\r\n        if (dataPasien[_pasien].rumahSakitPenanggungJawab == address(0)) {\r\n            dataPasien[_pasien].rumahSakitPenanggungJawab = msg.sender;\r\n        }\r\n\r\n        bool alreadyAssigned = false;\r\n        address[] storage listPasienDitugaskan = dataDokter[_dokter]\r\n            .assignedPasien;\r\n        for (uint i = 0; i < listPasienDitugaskan.length; i++) {\r\n            if (listPasienDitugaskan[i] == _pasien) {\r\n                alreadyAssigned = true;\r\n                break;\r\n            }\r\n        }\r\n        require(\r\n            !alreadyAssigned,\r\n            \"Pasien ini sudah ditugaskan ke dokter tersebut.\"\r\n        );\r\n\r\n        listPasienDitugaskan.push(_pasien);\r\n        emit PasienDiassignKeDokter(_dokter, _pasien);\r\n    }\r\n\r\n    function unassignPasienFromDokter(\r\n        address _dokter,\r\n        address _pasien\r\n    ) external hanyaAdminRS {\r\n        require(isDokter[_dokter], \"Dokter tidak terdaftar.\");\r\n        require(\r\n            dataDokter[_dokter].adminRS == msg.sender,\r\n            \"Dokter ini tidak terdaftar di rumah sakit Anda.\"\r\n        );\r\n        require(isPasien[_pasien], \"Pasien tidak terdaftar.\");\r\n        require(\r\n            dataPasien[_pasien].rumahSakitPenanggungJawab == msg.sender,\r\n            \"Pasien ini tidak terdaftar di rumah sakit Anda.\"\r\n        );\r\n\r\n        bool found = false;\r\n        address[] storage listPasienDitugaskan = dataDokter[_dokter]\r\n            .assignedPasien;\r\n        for (uint i = 0; i < listPasienDitugaskan.length; i++) {\r\n            if (listPasienDitugaskan[i] == _pasien) {\r\n                listPasienDitugaskan[i] = listPasienDitugaskan[\r\n                    listPasienDitugaskan.length - 1\r\n                ];\r\n                listPasienDitugaskan.pop();\r\n                found = true;\r\n                break;\r\n            }\r\n        }\r\n        require(found, \"Pasien tidak ditugaskan ke dokter ini.\");\r\n        emit PasienDiunassignDariDokter(_dokter, _pasien);\r\n    }\r\n\r\n    function isAssigned(\r\n        address _dokter,\r\n        address _pasien\r\n    ) internal view returns (bool) {\r\n        address[] storage list = dataDokter[_dokter].assignedPasien;\r\n        for (uint i = 0; i < list.length; i++) {\r\n            if (list[i] == _pasien) {\r\n                return true;\r\n            }\r\n        }\r\n        return false;\r\n    }\r\n\r\n    function tambahRekamMedis(\r\n        address _pasien,\r\n        string calldata _diagnosa,\r\n        string calldata _foto,\r\n        string calldata _catatan,\r\n        string calldata _tipeRekamMedis\r\n    ) external {\r\n        bool isValidActor = false;\r\n        if (msg.sender == _pasien && isPasien[msg.sender]) {\r\n            isValidActor = true;\r\n        } else if (isDokter[msg.sender] && dataDokter[msg.sender].aktif) {\r\n            if (\r\n                isPasien[_pasien] &&\r\n                dataDokter[msg.sender].adminRS ==\r\n                dataPasien[_pasien].rumahSakitPenanggungJawab &&\r\n                isAssigned(msg.sender, _pasien)\r\n            ) {\r\n                isValidActor = true;\r\n            }\r\n        }\r\n        require(\r\n            isValidActor,\r\n            \"Aktor tidak berhak menambah rekam medis untuk pasien ini.\"\r\n        );\r\n        require(isPasien[_pasien], \"Pasien tidak terdaftar.\");\r\n\r\n        rekamMedisCount++;\r\n        uint newId = rekamMedisCount;\r\n        rekamMedis[newId] = RekamMedisData({\r\n            id: newId,\r\n            pasien: _pasien,\r\n            diagnosa: _diagnosa,\r\n            foto: _foto,\r\n            catatan: _catatan,\r\n            pembuat: msg.sender,\r\n            timestampPembuatan: block.timestamp,\r\n            tipeRekamMedis: _tipeRekamMedis\r\n        });\r\n        rekamMedisByPasien[_pasien].push(newId);\r\n\r\n        emit RekamMedisDitambahkan(\r\n            newId,\r\n            _pasien,\r\n            _diagnosa,\r\n            _foto,\r\n            _catatan,\r\n            _tipeRekamMedis,\r\n            msg.sender,\r\n            block.timestamp\r\n        );\r\n    }\r\n\r\n    function getRekamMedisIdsByPasien(\r\n        address _pasien\r\n    ) external view returns (uint[] memory) {\r\n        require(isPasien[_pasien], \"Pasien tidak ditemukan.\");\r\n        return rekamMedisByPasien[_pasien];\r\n    }\r\n\r\n    function getRekamMedis(\r\n        uint _id\r\n    )\r\n        external\r\n        view\r\n        returns (\r\n            uint id,\r\n            address pasien,\r\n            string memory diagnosa,\r\n            string memory foto,\r\n            string memory catatan,\r\n            address pembuat,\r\n            uint256 timestampPembuatan,\r\n            string memory tipeRekamMedis\r\n        )\r\n    {\r\n        require(\r\n            rekamMedis[_id].pasien != address(0),\r\n            \"Rekam medis tidak ditemukan.\"\r\n        );\r\n        RekamMedisData storage r = rekamMedis[_id];\r\n        return (\r\n            r.id,\r\n            r.pasien,\r\n            r.diagnosa,\r\n            r.foto,\r\n            r.catatan,\r\n            r.pembuat,\r\n            r.timestampPembuatan,\r\n            r.tipeRekamMedis\r\n        );\r\n    }\r\n\r\n    function setSuperAdmin(address _newAdmin) external hanyaSuperAdmin {\r\n        require(\r\n            _newAdmin != address(0),\r\n            \"Alamat super admin baru tidak valid.\"\r\n        );\r\n        superAdmin = _newAdmin;\r\n    }\r\n\r\n    function getUserRole(address _user) public view returns (string memory) {\r\n        if (_user == superAdmin) return \"SuperAdmin\";\r\n\r\n        if (bytes(dataAdmin[_user].namaRumahSakit).length > 0) {\r\n            if (dataAdmin[_user].aktif) {\r\n                return \"AdminRS\";\r\n            } else {\r\n                return \"InactiveAdminRS\";\r\n            }\r\n        }\r\n\r\n        if (isDokter[_user]) {\r\n            if (dataDokter[_user].aktif) {\r\n                return \"Dokter\";\r\n            } else {\r\n                return \"InactiveDokter\";\r\n            }\r\n        }\r\n\r\n        if (isPasien[_user]) return \"Pasien\";\r\n\r\n        return \"Unknown\";\r\n    }\r\n}\r\n",
  "sourcePath": "D:\\TA\\rekam_medis_backend\\contracts\\RekamMedisRS.sol",
  "compiler": {
    "name": "solc",
    "version": "0.8.19+commit.7dd6d404.Emscripten.clang"
  },
  "schemaVersion": "3.4.16",
  "updatedAt": "2025-07-02T15:04:00.960Z",
  "networkType": "ethereum",
  "devdoc": {
    "kind": "dev",
    "methods": {},
    "version": 1
  },
  "userdoc": {
    "kind": "user",
    "methods": {},
    "version": 1
  }
}