{
  "contractName": "RekamMedisRS",
  "abi": [
    {
      "inputs": [],
      "stateMutability": "nonpayable",
      "type": "constructor"
    },
    {
      "anonymous": false,
      "inputs": [
        {
          "indexed": true,
          "internalType": "address",
          "name": "admin",
          "type": "address"
        },
        {
          "indexed": false,
          "internalType": "bool",
          "name": "aktif",
          "type": "bool"
        }
      ],
      "name": "AdminRSStatusDiubah",
      "type": "event"
    },
    {
      "anonymous": false,
      "inputs": [
        {
          "indexed": true,
          "internalType": "address",
          "name": "admin",
          "type": "address"
        },
        {
          "indexed": false,
          "internalType": "string",
          "name": "namaRumahSakit",
          "type": "string"
        }
      ],
      "name": "AdminRSTerdaftar",
      "type": "event"
    },
    {
      "anonymous": false,
      "inputs": [
        {
          "indexed": true,
          "internalType": "address",
          "name": "dokter",
          "type": "address"
        },
        {
          "indexed": false,
          "internalType": "string",
          "name": "nama",
          "type": "string"
        },
        {
          "indexed": false,
          "internalType": "string",
          "name": "spesialisasi",
          "type": "string"
        },
        {
          "indexed": false,
          "internalType": "string",
          "name": "nomorLisensi",
          "type": "string"
        },
        {
          "indexed": true,
          "internalType": "address",
          "name": "adminRS",
          "type": "address"
        }
      ],
      "name": "DokterInfoDiperbarui",
      "type": "event"
    },
    {
      "anonymous": false,
      "inputs": [
        {
          "indexed": true,
          "internalType": "address",
          "name": "dokter",
          "type": "address"
        },
        {
          "indexed": false,
          "internalType": "bool",
          "name": "aktif",
          "type": "bool"
        }
      ],
      "name": "DokterStatusDiubah",
      "type": "event"
    },
    {
      "anonymous": false,
      "inputs": [
        {
          "indexed": true,
          "internalType": "address",
          "name": "dokter",
          "type": "address"
        },
        {
          "indexed": false,
          "internalType": "string",
          "name": "nama",
          "type": "string"
        },
        {
          "indexed": false,
          "internalType": "address",
          "name": "adminRS",
          "type": "address"
        }
      ],
      "name": "DokterTerdaftar",
      "type": "event"
    },
    {
      "anonymous": false,
      "inputs": [
        {
          "indexed": true,
          "internalType": "address",
          "name": "pasien",
          "type": "address"
        },
        {
          "indexed": false,
          "internalType": "string",
          "name": "nama",
          "type": "string"
        },
        {
          "indexed": false,
          "internalType": "string",
          "name": "golonganDarah",
          "type": "string"
        },
        {
          "indexed": false,
          "internalType": "string",
          "name": "tanggalLahir",
          "type": "string"
        },
        {
          "indexed": false,
          "internalType": "string",
          "name": "gender",
          "type": "string"
        },
        {
          "indexed": false,
          "internalType": "string",
          "name": "alamat",
          "type": "string"
        },
        {
          "indexed": false,
          "internalType": "string",
          "name": "noTelepon",
          "type": "string"
        },
        {
          "indexed": false,
          "internalType": "string",
          "name": "email",
          "type": "string"
        }
      ],
      "name": "PasienDataDiperbarui",
      "type": "event"
    },
    {
      "anonymous": false,
      "inputs": [
        {
          "indexed": false,
          "internalType": "address",
          "name": "dokter",
          "type": "address"
        },
        {
          "indexed": false,
          "internalType": "address",
          "name": "pasien",
          "type": "address"
        }
      ],
      "name": "PasienDiassignKeDokter",
      "type": "event"
    },
    {
      "anonymous": false,
      "inputs": [
        {
          "indexed": false,
          "internalType": "address",
          "name": "dokter",
          "type": "address"
        },
        {
          "indexed": false,
          "internalType": "address",
          "name": "pasien",
          "type": "address"
        }
      ],
      "name": "PasienDiunassignDariDokter",
      "type": "event"
    },
    {
      "anonymous": false,
      "inputs": [
        {
          "indexed": true,
          "internalType": "address",
          "name": "pasien",
          "type": "address"
        },
        {
          "indexed": false,
          "internalType": "address",
          "name": "oldAdminRS",
          "type": "address"
        },
        {
          "indexed": false,
          "internalType": "address",
          "name": "newAdminRS",
          "type": "address"
        }
      ],
      "name": "PasienPindahRS",
      "type": "event"
    },
    {
      "anonymous": false,
      "inputs": [
        {
          "indexed": true,
          "internalType": "address",
          "name": "pasien",
          "type": "address"
        },
        {
          "indexed": false,
          "internalType": "string",
          "name": "nama",
          "type": "string"
        },
        {
          "indexed": false,
          "internalType": "address",
          "name": "adminRS",
          "type": "address"
        }
      ],
      "name": "PasienTerdaftar",
      "type": "event"
    },
    {
      "anonymous": false,
      "inputs": [
        {
          "indexed": false,
          "internalType": "uint256",
          "name": "id",
          "type": "uint256"
        },
        {
          "indexed": false,
          "internalType": "address",
          "name": "pasien",
          "type": "address"
        },
        {
          "indexed": false,
          "internalType": "string",
          "name": "diagnosa",
          "type": "string"
        },
        {
          "indexed": false,
          "internalType": "string",
          "name": "foto",
          "type": "string"
        },
        {
          "indexed": false,
          "internalType": "string",
          "name": "catatan",
          "type": "string"
        },
        {
          "indexed": false,
          "internalType": "string",
          "name": "tipeRekamMedis",
          "type": "string"
        },
        {
          "indexed": false,
          "internalType": "address",
          "name": "pembuat",
          "type": "address"
        },
        {
          "indexed": false,
          "internalType": "uint256",
          "name": "timestamp",
          "type": "uint256"
        },
        {
          "indexed": false,
          "internalType": "bool",
          "name": "valid",
          "type": "bool"
        }
      ],
      "name": "RekamMedisDitambahkan",
      "type": "event"
    },
    {
      "inputs": [
        {
          "internalType": "uint256",
          "name": "",
          "type": "uint256"
        }
      ],
      "name": "daftarAdmin",
      "outputs": [
        {
          "internalType": "address",
          "name": "",
          "type": "address"
        }
      ],
      "stateMutability": "view",
      "type": "function",
      "constant": true
    },
    {
      "inputs": [
        {
          "internalType": "uint256",
          "name": "",
          "type": "uint256"
        }
      ],
      "name": "daftarDokter",
      "outputs": [
        {
          "internalType": "address",
          "name": "",
          "type": "address"
        }
      ],
      "stateMutability": "view",
      "type": "function",
      "constant": true
    },
    {
      "inputs": [
        {
          "internalType": "uint256",
          "name": "",
          "type": "uint256"
        }
      ],
      "name": "daftarPasien",
      "outputs": [
        {
          "internalType": "address",
          "name": "",
          "type": "address"
        }
      ],
      "stateMutability": "view",
      "type": "function",
      "constant": true
    },
    {
      "inputs": [
        {
          "internalType": "address",
          "name": "",
          "type": "address"
        }
      ],
      "name": "dataAdmin",
      "outputs": [
        {
          "internalType": "string",
          "name": "namaRumahSakit",
          "type": "string"
        },
        {
          "internalType": "bool",
          "name": "aktif",
          "type": "bool"
        }
      ],
      "stateMutability": "view",
      "type": "function",
      "constant": true
    },
    {
      "inputs": [
        {
          "internalType": "address",
          "name": "",
          "type": "address"
        }
      ],
      "name": "dataDokter",
      "outputs": [
        {
          "internalType": "string",
          "name": "nama",
          "type": "string"
        },
        {
          "internalType": "string",
          "name": "spesialisasi",
          "type": "string"
        },
        {
          "internalType": "string",
          "name": "nomorLisensi",
          "type": "string"
        },
        {
          "internalType": "bool",
          "name": "aktif",
          "type": "bool"
        },
        {
          "internalType": "address",
          "name": "adminRS",
          "type": "address"
        }
      ],
      "stateMutability": "view",
      "type": "function",
      "constant": true
    },
    {
      "inputs": [
        {
          "internalType": "address",
          "name": "",
          "type": "address"
        }
      ],
      "name": "dataPasien",
      "outputs": [
        {
          "internalType": "string",
          "name": "nama",
          "type": "string"
        },
        {
          "internalType": "string",
          "name": "golonganDarah",
          "type": "string"
        },
        {
          "internalType": "string",
          "name": "tanggalLahir",
          "type": "string"
        },
        {
          "internalType": "string",
          "name": "gender",
          "type": "string"
        },
        {
          "internalType": "string",
          "name": "alamat",
          "type": "string"
        },
        {
          "internalType": "string",
          "name": "noTelepon",
          "type": "string"
        },
        {
          "internalType": "string",
          "name": "email",
          "type": "string"
        },
        {
          "internalType": "address",
          "name": "rumahSakitPenanggungJawab",
          "type": "address"
        },
        {
          "internalType": "bool",
          "name": "exists",
          "type": "bool"
        }
      ],
      "stateMutability": "view",
      "type": "function",
      "constant": true
    },
    {
      "inputs": [
        {
          "internalType": "address",
          "name": "",
          "type": "address"
        }
      ],
      "name": "isDokter",
      "outputs": [
        {
          "internalType": "bool",
          "name": "",
          "type": "bool"
        }
      ],
      "stateMutability": "view",
      "type": "function",
      "constant": true
    },
    {
      "inputs": [
        {
          "internalType": "address",
          "name": "",
          "type": "address"
        }
      ],
      "name": "isPasien",
      "outputs": [
        {
          "internalType": "bool",
          "name": "",
          "type": "bool"
        }
      ],
      "stateMutability": "view",
      "type": "function",
      "constant": true
    },
    {
      "inputs": [
        {
          "internalType": "uint256",
          "name": "",
          "type": "uint256"
        }
      ],
      "name": "rekamMedis",
      "outputs": [
        {
          "internalType": "uint256",
          "name": "id",
          "type": "uint256"
        },
        {
          "internalType": "address",
          "name": "pasien",
          "type": "address"
        },
        {
          "internalType": "string",
          "name": "diagnosa",
          "type": "string"
        },
        {
          "internalType": "string",
          "name": "foto",
          "type": "string"
        },
        {
          "internalType": "string",
          "name": "catatan",
          "type": "string"
        },
        {
          "internalType": "bool",
          "name": "valid",
          "type": "bool"
        },
        {
          "internalType": "address",
          "name": "pembuat",
          "type": "address"
        },
        {
          "internalType": "uint256",
          "name": "timestampPembuatan",
          "type": "uint256"
        },
        {
          "internalType": "string",
          "name": "tipeRekamMedis",
          "type": "string"
        }
      ],
      "stateMutability": "view",
      "type": "function",
      "constant": true
    },
    {
      "inputs": [
        {
          "internalType": "address",
          "name": "",
          "type": "address"
        },
        {
          "internalType": "uint256",
          "name": "",
          "type": "uint256"
        }
      ],
      "name": "rekamMedisByPasien",
      "outputs": [
        {
          "internalType": "uint256",
          "name": "",
          "type": "uint256"
        }
      ],
      "stateMutability": "view",
      "type": "function",
      "constant": true
    },
    {
      "inputs": [],
      "name": "rekamMedisCount",
      "outputs": [
        {
          "internalType": "uint256",
          "name": "",
          "type": "uint256"
        }
      ],
      "stateMutability": "view",
      "type": "function",
      "constant": true
    },
    {
      "inputs": [],
      "name": "superAdmin",
      "outputs": [
        {
          "internalType": "address",
          "name": "",
          "type": "address"
        }
      ],
      "stateMutability": "view",
      "type": "function",
      "constant": true
    },
    {
      "inputs": [
        {
          "internalType": "address",
          "name": "_admin",
          "type": "address"
        },
        {
          "internalType": "string",
          "name": "_namaRS",
          "type": "string"
        }
      ],
      "name": "registerAdminRS",
      "outputs": [],
      "stateMutability": "nonpayable",
      "type": "function"
    },
    {
      "inputs": [],
      "name": "getAllAdminRSAddresses",
      "outputs": [
        {
          "internalType": "address[]",
          "name": "",
          "type": "address[]"
        }
      ],
      "stateMutability": "view",
      "type": "function",
      "constant": true
    },
    {
      "inputs": [
        {
          "internalType": "address",
          "name": "_admin",
          "type": "address"
        },
        {
          "internalType": "bool",
          "name": "_aktif",
          "type": "bool"
        }
      ],
      "name": "setStatusAdminRS",
      "outputs": [],
      "stateMutability": "nonpayable",
      "type": "function"
    },
    {
      "inputs": [],
      "name": "totalAdmin",
      "outputs": [
        {
          "internalType": "uint256",
          "name": "",
          "type": "uint256"
        }
      ],
      "stateMutability": "view",
      "type": "function",
      "constant": true
    },
    {
      "inputs": [
        {
          "internalType": "uint256",
          "name": "idx",
          "type": "uint256"
        }
      ],
      "name": "getAdminByIndex",
      "outputs": [
        {
          "internalType": "address",
          "name": "",
          "type": "address"
        }
      ],
      "stateMutability": "view",
      "type": "function",
      "constant": true
    },
    {
      "inputs": [
        {
          "internalType": "address",
          "name": "_adminRS",
          "type": "address"
        }
      ],
      "name": "getNamaRumahSakitByAdmin",
      "outputs": [
        {
          "internalType": "string",
          "name": "",
          "type": "string"
        }
      ],
      "stateMutability": "view",
      "type": "function",
      "constant": true
    },
    {
      "inputs": [
        {
          "internalType": "address",
          "name": "_dokter",
          "type": "address"
        },
        {
          "internalType": "string",
          "name": "_nama",
          "type": "string"
        },
        {
          "internalType": "string",
          "name": "_spesialisasi",
          "type": "string"
        },
        {
          "internalType": "string",
          "name": "_nomorLisensi",
          "type": "string"
        }
      ],
      "name": "registerDokter",
      "outputs": [],
      "stateMutability": "nonpayable",
      "type": "function"
    },
    {
      "inputs": [
        {
          "internalType": "address",
          "name": "_dokter",
          "type": "address"
        },
        {
          "internalType": "string",
          "name": "_namaBaru",
          "type": "string"
        },
        {
          "internalType": "string",
          "name": "_spesialisasiBaru",
          "type": "string"
        },
        {
          "internalType": "string",
          "name": "_nomorLisensiBaru",
          "type": "string"
        }
      ],
      "name": "updateDokterInfo",
      "outputs": [],
      "stateMutability": "nonpayable",
      "type": "function"
    },
    {
      "inputs": [
        {
          "internalType": "address",
          "name": "_dokter",
          "type": "address"
        },
        {
          "internalType": "bool",
          "name": "_aktif",
          "type": "bool"
        }
      ],
      "name": "setStatusDokter",
      "outputs": [],
      "stateMutability": "nonpayable",
      "type": "function"
    },
    {
      "inputs": [],
      "name": "totalDokter",
      "outputs": [
        {
          "internalType": "uint256",
          "name": "",
          "type": "uint256"
        }
      ],
      "stateMutability": "view",
      "type": "function",
      "constant": true
    },
    {
      "inputs": [
        {
          "internalType": "uint256",
          "name": "idx",
          "type": "uint256"
        }
      ],
      "name": "getDokterByIndex",
      "outputs": [
        {
          "internalType": "address",
          "name": "",
          "type": "address"
        }
      ],
      "stateMutability": "view",
      "type": "function",
      "constant": true
    },
    {
      "inputs": [
        {
          "internalType": "address",
          "name": "_dokter",
          "type": "address"
        }
      ],
      "name": "getDokter",
      "outputs": [
        {
          "internalType": "string",
          "name": "nama",
          "type": "string"
        },
        {
          "internalType": "string",
          "name": "spesialisasi",
          "type": "string"
        },
        {
          "internalType": "string",
          "name": "nomorLisensi",
          "type": "string"
        },
        {
          "internalType": "bool",
          "name": "aktif",
          "type": "bool"
        },
        {
          "internalType": "address[]",
          "name": "pasienList",
          "type": "address[]"
        },
        {
          "internalType": "address",
          "name": "adminRS",
          "type": "address"
        }
      ],
      "stateMutability": "view",
      "type": "function",
      "constant": true
    },
    {
      "inputs": [
        {
          "internalType": "address",
          "name": "_dokter",
          "type": "address"
        }
      ],
      "name": "getAssignedPatients",
      "outputs": [
        {
          "internalType": "address[]",
          "name": "",
          "type": "address[]"
        }
      ],
      "stateMutability": "view",
      "type": "function",
      "constant": true
    },
    {
      "inputs": [
        {
          "internalType": "address",
          "name": "_pasien",
          "type": "address"
        },
        {
          "internalType": "string",
          "name": "_nama",
          "type": "string"
        },
        {
          "internalType": "address",
          "name": "_adminRS",
          "type": "address"
        }
      ],
      "name": "registerPasien",
      "outputs": [],
      "stateMutability": "nonpayable",
      "type": "function"
    },
    {
      "inputs": [
        {
          "internalType": "string",
          "name": "_nama",
          "type": "string"
        },
        {
          "internalType": "string",
          "name": "_golonganDarah",
          "type": "string"
        },
        {
          "internalType": "string",
          "name": "_tanggalLahir",
          "type": "string"
        },
        {
          "internalType": "string",
          "name": "_gender",
          "type": "string"
        },
        {
          "internalType": "string",
          "name": "_alamat",
          "type": "string"
        },
        {
          "internalType": "string",
          "name": "_noTelepon",
          "type": "string"
        },
        {
          "internalType": "string",
          "name": "_email",
          "type": "string"
        },
        {
          "internalType": "address",
          "name": "_adminRS",
          "type": "address"
        }
      ],
      "name": "selfRegisterPasien",
      "outputs": [],
      "stateMutability": "nonpayable",
      "type": "function"
    },
    {
      "inputs": [
        {
          "internalType": "string",
          "name": "_nama",
          "type": "string"
        },
        {
          "internalType": "string",
          "name": "_golonganDarah",
          "type": "string"
        },
        {
          "internalType": "string",
          "name": "_tanggalLahir",
          "type": "string"
        },
        {
          "internalType": "string",
          "name": "_gender",
          "type": "string"
        },
        {
          "internalType": "string",
          "name": "_alamat",
          "type": "string"
        },
        {
          "internalType": "string",
          "name": "_noTelepon",
          "type": "string"
        },
        {
          "internalType": "string",
          "name": "_email",
          "type": "string"
        }
      ],
      "name": "updatePasienData",
      "outputs": [],
      "stateMutability": "nonpayable",
      "type": "function"
    },
    {
      "inputs": [
        {
          "internalType": "address",
          "name": "_newAdminRS",
          "type": "address"
        }
      ],
      "name": "updatePasienRumahSakit",
      "outputs": [],
      "stateMutability": "nonpayable",
      "type": "function"
    },
    {
      "inputs": [],
      "name": "getDaftarPasien",
      "outputs": [
        {
          "internalType": "address[]",
          "name": "",
          "type": "address[]"
        }
      ],
      "stateMutability": "view",
      "type": "function",
      "constant": true
    },
    {
      "inputs": [
        {
          "internalType": "address",
          "name": "_pasien",
          "type": "address"
        }
      ],
      "name": "getPasienData",
      "outputs": [
        {
          "internalType": "string",
          "name": "nama",
          "type": "string"
        },
        {
          "internalType": "string",
          "name": "golonganDarah",
          "type": "string"
        },
        {
          "internalType": "string",
          "name": "tanggalLahir",
          "type": "string"
        },
        {
          "internalType": "string",
          "name": "gender",
          "type": "string"
        },
        {
          "internalType": "string",
          "name": "alamat",
          "type": "string"
        },
        {
          "internalType": "string",
          "name": "noTelepon",
          "type": "string"
        },
        {
          "internalType": "string",
          "name": "email",
          "type": "string"
        },
        {
          "internalType": "address",
          "name": "rumahSakitPenanggungJawab",
          "type": "address"
        }
      ],
      "stateMutability": "view",
      "type": "function",
      "constant": true
    },
    {
      "inputs": [
        {
          "internalType": "address",
          "name": "_dokter",
          "type": "address"
        },
        {
          "internalType": "address",
          "name": "_pasien",
          "type": "address"
        }
      ],
      "name": "assignPasienToDokter",
      "outputs": [],
      "stateMutability": "nonpayable",
      "type": "function"
    },
    {
      "inputs": [
        {
          "internalType": "address",
          "name": "_dokter",
          "type": "address"
        },
        {
          "internalType": "address",
          "name": "_pasien",
          "type": "address"
        }
      ],
      "name": "unassignPasienFromDokter",
      "outputs": [],
      "stateMutability": "nonpayable",
      "type": "function"
    },
    {
      "inputs": [
        {
          "internalType": "address",
          "name": "_pasien",
          "type": "address"
        },
        {
          "internalType": "string",
          "name": "_diagnosa",
          "type": "string"
        },
        {
          "internalType": "string",
          "name": "_foto",
          "type": "string"
        },
        {
          "internalType": "string",
          "name": "_catatan",
          "type": "string"
        },
        {
          "internalType": "string",
          "name": "_tipeRekamMedis",
          "type": "string"
        }
      ],
      "name": "tambahRekamMedis",
      "outputs": [],
      "stateMutability": "nonpayable",
      "type": "function"
    },
    {
      "inputs": [
        {
          "internalType": "address",
          "name": "_pasien",
          "type": "address"
        }
      ],
      "name": "getRekamMedisIdsByPasien",
      "outputs": [
        {
          "internalType": "uint256[]",
          "name": "",
          "type": "uint256[]"
        }
      ],
      "stateMutability": "view",
      "type": "function",
      "constant": true
    },
    {
      "inputs": [
        {
          "internalType": "uint256",
          "name": "_id",
          "type": "uint256"
        }
      ],
      "name": "getRekamMedis",
      "outputs": [
        {
          "internalType": "uint256",
          "name": "id",
          "type": "uint256"
        },
        {
          "internalType": "address",
          "name": "pasien",
          "type": "address"
        },
        {
          "internalType": "string",
          "name": "diagnosa",
          "type": "string"
        },
        {
          "internalType": "string",
          "name": "foto",
          "type": "string"
        },
        {
          "internalType": "string",
          "name": "catatan",
          "type": "string"
        },
        {
          "internalType": "bool",
          "name": "valid",
          "type": "bool"
        },
        {
          "internalType": "address",
          "name": "pembuat",
          "type": "address"
        },
        {
          "internalType": "uint256",
          "name": "timestampPembuatan",
          "type": "uint256"
        },
        {
          "internalType": "string",
          "name": "tipeRekamMedis",
          "type": "string"
        }
      ],
      "stateMutability": "view",
      "type": "function",
      "constant": true
    },
    {
      "inputs": [
        {
          "internalType": "uint256",
          "name": "_id",
          "type": "uint256"
        }
      ],
      "name": "nonaktifkanRekamMedis",
      "outputs": [],
      "stateMutability": "nonpayable",
      "type": "function"
    },
    {
      "inputs": [
        {
          "internalType": "address",
          "name": "_newAdmin",
          "type": "address"
        }
      ],
      "name": "setSuperAdmin",
      "outputs": [],
      "stateMutability": "nonpayable",
      "type": "function"
    },
    {
      "inputs": [
        {
          "internalType": "address",
          "name": "_user",
          "type": "address"
        }
      ],
      "name": "getUserRole",
      "outputs": [
        {
          "internalType": "string",
          "name": "",
          "type": "string"
        }
      ],
      "stateMutability": "view",
      "type": "function",
      "constant": true
    }
  ],
  "bytecode": "0x6080806040523461003c57600080546001600160a01b03191673b0dc0bf642d339517438017fc185bb0f758a01d2179055614e1b90816100428239f35b600080fdfe60e0604052600436101561001257600080fd5b60003560e01c8062410cb3146142d657806301c268fe14613b43578063046bdbcc14613ad8578063083d8824146139e75780631132beb5146139a8578063157000521461390c57806319d9d3dd146138a857806319e8f4051461362d578063278208511461360957806329575f6a146135e05780632e2dd102146135c25780633bf763031461355f5780633da0551814613479578063426996511461345057806347960cb5146133b957806351887b67146133415780635c4c9348146133025780635e6da24c146130e1578063610a85261461296c578063623785c1146128ff57806364319e33146128e15780636837008714612898578063786f3fbe146127755780637d3e9db814612757578063911b633a1461271557806392fa924014612598578063932e0f6d146124ee5780639dbde11814611bfa578063a665102c14611acc578063abf72abb14611a42578063b75de7a814611664578063bcff1f90146115fc578063c0664b7e1461158d578063c3c0fdea146114e0578063c967ede814611413578063ddbd24d314610ea6578063df83dde014610502578063e29993a5146102605763f2ab4a99146101c857600080fd5b3461025b5760207fd2e4d0240eabf0011425eb3fffbc4f311cd4b564ba547aba4b3163fd046f6a976101f936614635565b6000549093916001600160a01b039161021590831633146146dc565b16928360005260018252610237610230604060002054614468565b15156148c3565b83600052600182526102508160016040600020016147e7565b6040519015158152a2005b600080fd5b3461025b57604036600319011261025b5761027961432e565b610281614344565b336000526001916020928084526102a160ff82604060002001541661490b565b60018060a01b03908183169182600052600486526102c660ff604060002054166149a5565b826000526003908187526102e5338260056040600020015416146149eb565b80861690816000526007885261030260ff60406000205416614b4b565b8160005260068852338160076040600020015416036104b75760009485528288526040852091949392916004019084845b6103cf575b505050505090501561037b577f80b4d8d360eb6524bf34c2207f48a267b84469bad95c9e9540413349e9f416a5925061037660405192839283614aeb565b0390a1005b60405162461bcd60e51b815260048101849052602660248201527f50617369656e20746964616b20646974756761736b616e206b6520646f6b7465604482015265391034b7349760d11b6064820152608490fd5b8254808210156104b15787836103e584876143a6565b905490881b1c16146104065750956103fe859697614b91565b909695610333565b91939550919395506000199182820191821161049b5761043b8461042d61045a94886143a6565b905490891b1c1691866143a6565b90919082549060031b9160018060a01b03809116831b921b1916179055565b8254801561048557019261046e84846143a6565b81939154921b1b1916905555808580808080610338565b634e487b7160e01b600052603160045260246000fd5b634e487b7160e01b600052601160045260246000fd5b50610338565b60405162461bcd60e51b815260048101899052602f6024820152600080516020614da683398151915260448201526e36b0b41039b0b5b4ba1020b732309760891b6064820152608490fd5b3461025b57606036600319011261025b5761051b61432e565b6024356001600160401b03811161025b5761053a9036906004016143be565b906044356001600160a01b038116900361025b5733600052600160205261056b60ff6001604060002001541661490b565b6001600160a01b03831660009081526007602052604090205460ff16610e4f576001600160a01b03831660009081526004602052604090205460ff16610df65760018060a01b0360443516600052600160205260ff6001604060002001541615610da6576044356001600160a01b03163303610d30576001600160a01b03831660009081526007602052604090819020805460ff191660011790555192610611846144a2565b61061c368484614745565b845260405161062a816144be565b60008152602085015260405161063f816144be565b600081526040850152604051610654816144be565b600081526060850152604051610669816144be565b60008152608085015260405161067e816144be565b6000815260a0850152604051610693816144be565b600080825260c08601919091526001600160a01b03604435811660e087015260016101008701528216815260066020526040902084518051919591906001600160401b038211610a4a5781906106f3826106ed8a54614468565b8a6147a2565b602090601f8311600114610cc457600092610cb9575b50508160011b916000199060031b1c19161785555b60208101518051906001600160401b038211610a4a5781906107508261074760018b0154614468565b60018b016147a2565b602090601f8311600114610c4757600092610c3c575b50508160011b916000199060031b1c19161760018601555b60408101518051906001600160401b038211610a4a5781906107b0826107a760028b0154614468565b60028b016147a2565b602090601f8311600114610bca57600092610bbf575b50508160011b916000199060031b1c19161760028601555b60608101518051906001600160401b038211610a4a5781906108108261080760038b0154614468565b60038b016147a2565b602090601f8311600114610b4d57600092610b42575b50508160011b916000199060031b1c19161760038601555b608081015180516001600160401b038111610a4a5780600488019261086d826108678654614468565b866147a2565b602090601f8311600114610adc57600092610ad1575b50508160011b916000199060031b1c19161790555b60a081015180516001600160401b038111610a4a578060058801926108c1826108678654614468565b602090601f8311600114610a6b57600092610a60575b50508160011b916000199060031b1c19161790555b60c081015180519095906001600160401b038111610a4a5761091e816109156006850154614468565b600685016147a2565b6020601f82116001146109c857908060079392600080516020614dc683398151915298996000926109bd575b50508160011b916000199060031b1c19161760068201555b019060018060a01b0360e08201511682549161010060ff60a01b910151151560a01b169160018060a81b0319161717905561099c816147f8565b6109b860405192839260018060a01b031695604435918461497c565b0390a2005b01519050898061094a565b6006830160005260206000209760005b601f1984168110610a32575091600080516020614dc683398151915297986001926007959483601f19811610610a19575b505050811b016006820155610962565b015160001960f88460031b161c19169055898080610a09565b828201518a55600190990198602092830192016109d8565b634e487b7160e01b600052604160045260246000fd5b0151905088806108d7565b6000858152602081209350601f198516905b818110610ab95750908460019594939210610aa0575b505050811b0190556108ec565b015160001960f88460031b161c19169055888080610a93565b92936020600181928786015181550195019301610a7d565b015190508880610883565b6000858152602081209350601f198516905b818110610b2a5750908460019594939210610b11575b505050811b019055610898565b015160001960f88460031b161c19169055888080610b04565b92936020600181928786015181550195019301610aee565b015190508780610826565b9250600388016000526020600020906000935b601f1984168510610ba4576001945083601f19811610610b8b575b505050811b01600386015561083e565b015160001960f88460031b161c19169055878080610b7b565b81810151835560209485019460019093019290910190610b60565b0151905087806107c6565b9250600288016000526020600020906000935b601f1984168510610c21576001945083601f19811610610c08575b505050811b0160028601556107de565b015160001960f88460031b161c19169055878080610bf8565b81810151835560209485019460019093019290910190610bdd565b015190508780610766565b9250600188016000526020600020906000935b601f1984168510610c9e576001945083601f19811610610c85575b505050811b01600186015561077e565b015160001960f88460031b161c19169055878080610c75565b81810151835560209485019460019093019290910190610c5a565b015190508780610709565b9250876000526020600020906000935b601f1984168510610d15576001945083601f19811610610cfc575b505050811b01855561071e565b015160001960f88460031b161c19169055878080610cef565b81810151835560209485019460019093019290910190610cd4565b60405162461bcd60e51b815260206004820152604260248201527f48616e79612061646d696e2052532070656e616e6767756e67206a617761622060448201527f79616e672062697361206d656e6461667461726b616e2070617369656e20696e606482015261349760f11b608482015260a490fd5b60405162461bcd60e51b815260206004820152602260248201527f41646d696e2052532079616e6720646972756a756b20746964616b20616b7469604482015261331760f11b6064820152608490fd5b60405162461bcd60e51b815260206004820152603f6024820152600080516020614d4683398151915260448201527f7465722c20746964616b2062697361206d656e6a6164692070617369656e2e006064820152608490fd5b60405162461bcd60e51b815260206004820152602960248201527f50617369656e207375646168207465726461667461722064656e67616e20616c60448201526830b6b0ba1034b7349760b91b6064820152608490fd5b3461025b57610eb436614664565b919493959290336000526001602052610ed760ff6001604060002001541661490b565b6001600160a01b03841660009081526004602052604090205460ff166113bb576001600160a01b03841660009081526007602052604090205460ff16611350576001600160a01b03841660009081526004602052604090819020805460ff191660011790555192610f47846144be565b60008452604051966001600160401b0360c0890190811190891117610a4a57610f9593610f899160c08a01604052610f80368c8b614745565b8a523691614745565b60208801523691614745565b60408501526001606085015260808401523360a084015260018060a01b0381166000526003602052604060002092805180519060018060401b038211610a4a578190610feb82610fe58954614468565b896147a2565b602090601f83116001146112e4576000926112d9575b50508160011b916000199060031b1c19161784555b60208101518051906001600160401b038211610a4a5781906110488261103f60018a0154614468565b60018a016147a2565b602090601f83116001146112675760009261125c575b50508160011b916000199060031b1c19161760018501555b604081015180516001600160401b038111610a4a5780600287019261109f826108678654614468565b602090601f83116001146111f6576000926111eb575b50508160011b916000199060031b1c19161790555b6110dd60608201511515600386016147e7565b60808101518051909490600482016001600160401b038211610a4a57600160401b96878311610a4a5760209082548484558085106111ce575b500190600052602060002060005b8381106111b15750505060a090920151600591820180546001600160a01b0319166001600160a01b039290921691909117905554938410159050610a4a576111978161043b8560017f5c9d12a5bfda65f31ab460df37935bfe7b6cfa6a3787bf1f99858ccc15dc9277970160055561435a565b6109b860405192839260018060a01b03169533918461497c565b82516001600160a01b031681830155602090920191600101611124565b6111e590846000528584600020918201910161478b565b8a611116565b0151905088806110b5565b6000858152602081209350601f198516905b818110611244575090846001959493921061122b575b505050811b0190556110ca565b015160001960f88460031b161c1916905588808061121e565b92936020600181928786015181550195019301611208565b01519050878061105e565b9250600187016000526020600020906000935b601f19841685106112be576001945083601f198116106112a5575b505050811b016001850155611076565b015160001960f88460031b161c19169055878080611295565b8181015183556020948501946001909301929091019061127a565b015190508780611001565b9250866000526020600020906000935b601f1984168510611335576001945083601f1981161061131c575b505050811b018455611016565b015160001960f88460031b161c1916905587808061130f565b818101518355602094850194600190930192909101906112f4565b60405162461bcd60e51b815260206004820152603f60248201527f416c616d617420696e692074657264616674617220736562616761692070617360448201527f69656e2c20746964616b2062697361206d656e6a61646920646f6b7465722e006064820152608490fd5b60405162461bcd60e51b815260206004820152602a60248201527f416c616d617420696e692073756461682074657264616674617220736562616760448201526930b4903237b5ba32b91760b11b6064820152608490fd5b3461025b5760208060031936011261025b576001600160a01b0361143561432e565b16806000526007825261144f60ff60406000205416614b05565b600052600a8152604060002060405190818382549182815201908192600052846000209060005b868282106114cc57868661148c828803836144f4565b604051928392818401908285525180915260408401929160005b8281106114b557505050500390f35b8351855286955093810193928101926001016114a6565b835485529093019260019283019201611476565b3461025b57602036600319011261025b576115606001600160a01b038061150561432e565b166000526003602052604060002061151c81614517565b9161157c61152c60018401614517565b9161156e61153c60028601614517565b91600560ff600388015416960154169360405197889760a0895260a0890190614428565b908782036020890152614428565b908582036040870152614428565b911515606084015260808301520390f35b3461025b57602036600319011261025b576001600160a01b036115ae61432e565b168060005260046020526115c960ff60406000205416614a4f565b60005260036020526115f86115e4600460406000200161486b565b6040519182916020835260208301906143eb565b0390f35b3461025b57602036600319011261025b576001600160a01b0361161d61432e565b16806000526001602052611638610230604060002054614468565b60005260016020526115f86116506040600020614517565b604051918291602083526020830190614428565b3461025b5761167236614664565b9594929093919533600052600160205261169660ff6001604060002001541661490b565b60018060a01b0391828716600052600460205260ff60406000205416156119f357828716600052600397886020523384600560406000200154160361199457878416600090815260208a9052604090206001600160401b03808711610a4a57611709876117038454614468565b846147a2565b866000601f821160011461192f57600091611924575b50600019888d1b1c1916600188901b1782555b808311610a4a57600182016117518461174b8354614468565b836147a2565b836000601f82116001146118c1576000916118b6575b50600019858e1b1c1916600185901b1790555b8411610a4a5761179a846117916002840154614468565b600284016147a2565b6000601f851160011461182b57918493916002600080516020614d668339815191529a9b9c61181b989761180996600091611820575b508760011b9188600019911b1c1916179101555b6117fb60405198899860608a5260608a019161484a565b91878303602089015261484a565b9184830360408601523398169661484a565b0390a3005b90508d01358f6117d0565b99601f198516906002830160005260206000209160005b81811061189e575091600080516020614d668339815191529a9b9c8796949261181b9998611809979510611884575b5050506002600186811b019101556117e4565b60f888600019921b161c19908d01351690558c8080611871565b8b8e0135845560209d8e019d60019094019301611842565b90508501358d611767565b60008381526020812092505b601f198716811061190c575085601f198116106118f4575b5050600184811b01905561177a565b860135600019868f1b60f8161c191690558c806118e5565b9091602060018192858b0135815501930191016118cd565b90508801358c61171f565b60008481526020812092508990601f198216905b8c82821061197a57505010611962575b5050600187811b018255611732565b890135600019898e1b60f8161c191690558b80611953565b84013585556001909401936020938401938c935001611943565b60405162461bcd60e51b815260206004820152603160248201527f416e64612062756b616e2061646d696e2052532079616e672062657268616b206044820152703ab73a3ab5903237b5ba32b91034b7349760791b6064820152608490fd5b60405162461bcd60e51b815260206004820152602160248201527f446f6b74657220746964616b207465726461667461722064692073697374656d6044820152601760f91b6064820152608490fd5b3461025b57602036600319011261025b57600435600052600960205260ff60406000206115f8815460018060a01b03928360018201541691611a8660028301614517565b90611a9360038401614517565b611a9f60048501614517565b90600585015493611ab7600760068801549701614517565b966040519a8b9a8760081c169616948a6145bd565b3461025b57602036600319011261025b576001600160a01b0380611aee61432e565b16806000526007602052611b0960ff60406000205416614b05565b6000526006602052611b9c604060002091600783015416611bf0611b2c84614517565b611be2611b3b60018701614517565b95611bd4611b4b60028301614517565b611bc6611b5a60038501614517565b611bb8611b6960048701614517565b93611baa611b856006611b7e60058b01614517565b9901614517565b996040519e8f9e8f92610100808552840190614428565b916020818403910152614428565b8c810360408e015290614428565b908a820360608c0152614428565b9088820360808a0152614428565b9086820360a0880152614428565b9084820360c0860152614428565b9060e08301520390f35b3461025b5761010036600319011261025b576004356001600160401b03811161025b57611c2b9036906004016143be565b906024356001600160401b03811161025b57611c4b9036906004016143be565b906044356001600160401b03811161025b57611c6b9036906004016143be565b906064356001600160401b03811161025b57611c8b9036906004016143be565b906084356001600160401b03811161025b57611cab9036906004016143be565b909160a4356001600160401b03811161025b57611ccc9036906004016143be565b90959094906001600160401b0360c4351161025b57611cf03660c4356004016143be565b909990989060e4356001600160a01b038116900361025b5733600052600760205260ff6040600020541661249d5733600052600460205260ff6040600020541661245e5760018060a01b0360e43516600052600160205260ff60016040600020015416156123fa578d9b336000526007602052604060002060ff1981541660011790558d6040519d611d818f6144a2565b3690611d8c92614745565b8d523690611d9992614745565b60208c01523690611da992614745565b60408a01523690611db992614745565b60608801523690611dc992614745565b60808601523690611dd992614745565b60a08401523690611de992614745565b60c082015260e4356001600160a01b031660e0820152600161010082015233600090815260066020526040902081518051906001600160401b038211610a4a578190611e39826108678654614468565b602090601f831160011461239457600092612389575b50508160011b916000199060031b1c19161781555b602082015180516001600160401b038111610a4a57806001840192611e8d826108678654614468565b602090601f831160011461232357600092612318575b50508160011b916000199060031b1c19161790555b604082015180516001600160401b038111610a4a57806002840192611ee1826108678654614468565b602090601f83116001146122b2576000926122a7575b50508160011b916000199060031b1c19161790555b606082015180516001600160401b038111610a4a57806003840192611f35826108678654614468565b602090601f831160011461224157600092612236575b50508160011b916000199060031b1c19161790555b608082015180516001600160401b038111610a4a57806004840192611f89826108678654614468565b602090601f83116001146121d0576000926121c5575b50508160011b916000199060031b1c19161790555b60a082015180516001600160401b038111610a4a57806005840192611fdd826108678654614468565b602090601f831160011461215f57600092612154575b50508160011b916000199060031b1c19161790555b60c0820151805160068301916001600160401b038211610a4a57612036826120308554614468565b856147a2565b602090601f83116001146120d4579282600793600080516020614dc68339815191529896936109b898966000926120c9575b50508160011b916000199060031b1c19161790555b019060018060a01b0360e08201511682549161010060ff60a01b910151151560a01b169160018060a81b031916171790556120b7336147f8565b604051918291339560e435918461497c565b015190508a80612068565b90601f198316918460005260206000209260005b81811061213c575093600080516020614dc68339815191529896936109b89896936001938360079810612123575b505050811b01905561207d565b015160001960f88460031b161c191690558a8080612116565b929360206001819287860151815501950193016120e8565b015190508780611ff3565b6000858152602081209350601f198516905b8181106121ad5750908460019594939210612194575b505050811b019055612008565b015160001960f88460031b161c19169055878080612187565b92936020600181928786015181550195019301612171565b015190508780611f9f565b6000858152602081209350601f198516905b81811061221e5750908460019594939210612205575b505050811b019055611fb4565b015160001960f88460031b161c191690558780806121f8565b929360206001819287860151815501950193016121e2565b015190508780611f4b565b6000858152602081209350601f198516905b81811061228f5750908460019594939210612276575b505050811b019055611f60565b015160001960f88460031b161c19169055878080612269565b92936020600181928786015181550195019301612253565b015190508780611ef7565b6000858152602081209350601f198516905b81811061230057509084600195949392106122e7575b505050811b019055611f0c565b015160001960f88460031b161c191690558780806122da565b929360206001819287860151815501950193016122c4565b015190508780611ea3565b6000858152602081209350601f198516905b8181106123715750908460019594939210612358575b505050811b019055611eb8565b015160001960f88460031b161c1916905587808061234b565b92936020600181928786015181550195019301612335565b015190508680611e4f565b6000858152602081209350601f198516905b8181106123e257509084600195949392106123c9575b505050811b018155611e64565b015160001960f88460031b161c191690558680806123bc565b929360206001819287860151815501950193016123a6565b60405162461bcd60e51b815260206004820152603660248201527f52756d61682053616b69742079616e6720646970696c696820746964616b206160448201527535ba34b31030ba30ba903a34b230b5903b30b634b21760511b6064820152608490fd5b60405162461bcd60e51b815260206004820152602480820152600080516020614d468339815191526044820152633a32b91760e11b6064820152608490fd5b60405162461bcd60e51b8152602060048201526024808201527f416e64612073756461682074657264616674617220736562616761692070617360448201526334b2b71760e11b6064820152608490fd5b3461025b5760207f3dcd68c14f5f191f12b3b56bf35d5d7eb22447e9ec685290967b4558822ca98a61251f36614635565b929092336000526001825261253e60ff6001604060002001541661490b565b61257f60018060a01b0380951694856000526004845261256560ff604060002054166149a5565b8560005260038452339060056040600020015416146149eb565b83600052600382526102508160036040600020016147e7565b3461025b5760208060031936011261025b576125b261432e565b33600052600682526125d160ff60076040600020015460a01c16614a95565b60018060a01b039081811691826000526001845260ff60016040600020015416156126b9573360005260068452828160076040600020015416146126635760067f3457f52cd7f93503903afd272e58438c52a23561e74eddba2144dc53d7af0e4493943360005252600760406000200180549460018060a01b031986161790556109b860405192839233961683614aeb565b60405162461bcd60e51b815260048101859052602860248201527f416e6461207375646168207465726461667461722064692072756d616820736160448201526735b4ba1034b7349760c11b6064820152608490fd5b60405162461bcd60e51b815260048101859052602e60248201527f52756d61682053616b6974206261727520746964616b20616b7469662061746160448201526d3a903a34b230b5903b30b634b21760911b6064820152608490fd5b3461025b57602036600319011261025b5760043560025481101561025b5761273e60209161438b565b905460405160039290921b1c6001600160a01b03168152f35b3461025b57600036600319011261025b576020600554604051908152f35b3461025b57602036600319011261025b576001600160a01b038061279761432e565b1660005260066020526040600020906127af82614517565b906127bc60018401614517565b926127c960028201614517565b906127d660038201614517565b6127e260048301614517565b6127ee60058401614517565b916127fb60068501614517565b936007015494604051988998610120808b528a0161281891614428565b89810360208b015261282991614428565b88810360408a015261283a91614428565b878103606089015261284b91614428565b868103608088015261285c91614428565b85810360a087015261286d91614428565b84810360c086015261287e91614428565b91811660e084015260a01c60ff1615156101008301520390f35b3461025b57602036600319011261025b5760043560085481101561025b576008600052600080516020614d8683398151915201546040516001600160a01b039091168152602090f35b3461025b57600036600319011261025b576020600254604051908152f35b3461025b57602036600319011261025b576004356002548110156129285761273e60209161438b565b60405162461bcd60e51b815260206004820152601c60248201527b24b73232b5b99030b236b4b7102929903a34b230b5903b30b634b21760211b6044820152606490fd5b3461025b5760a036600319011261025b5761298561432e565b6024356001600160401b03811161025b576129a49036906004016143be565b916044356001600160401b03811161025b576129c49036906004016143be565b93906064356001600160401b03811161025b576129e59036906004016143be565b916084356001600160401b03811161025b57612a059036906004016143be565b90939092906000336001600160a01b03891614806130c9575b15613011575060015b15612faa576001600160a01b038716600090815260066020526040902060070154612a579060a01c60ff16614b4b565b612a62600b54614b91565b9283600b55604051612a73816144a2565b8481526001600160a01b0389166020820152612a9036898c614745565b6040820152612aa0368c84614745565b6060820152612ab0368486614745565b6080820152600160a08201523360c08201524260e0820152612ad3368789614745565b610100820152846000526009602052604060002090805182556001820160018060a01b0360208301511660018060a01b0319825416179055604081015180519060018060401b038211610a4a578190612b3c82612b336002880154614468565b600288016147a2565b602090601f8311600114612f3857600092612f2d575b50508160011b916000199060031b1c19161760028301555b60608101518051906001600160401b038211610a4a578190612b9c82612b936003880154614468565b600388016147a2565b602090601f8311600114612ebb57600092612eb0575b50508160011b916000199060031b1c19161760038301555b60808101518051906001600160401b038211610a4a57612bfa82612bf16004870154614468565b600487016147a2565b602090601f8311600114612e3c5761010093929160009183612e31575b50508160011b916000199060031b1c19161760048401555b60058301612c4360a08301511515826147e7565b60c08201518154600160a81b859003801990911660089290921b1617905560e0810151600684015501518051906001600160401b038211610a4a57612c9882612c8f6007860154614468565b600786016147a2565b602090601f8311600114612dc1576007929160009183612db6575b50508160011b916000199060031b1c1916179101555b6001600160a01b0388166000908152600a6020526040902080549a909190600160401b8c1015610a4a57612d7360209b612d9d9a612d8f987f26764b1f4210925da7eff6d12dd330825db4d73c680962a3d4e880a2e13cd5eb9f80612d81986001612d36930181556143a6565b81549060031b9083821b91600019901b19161790556040519e8f9e8f92835260018060a01b031691015260408d61012091829101528d019161484a565b918a830360608c015261484a565b91878303608089015261484a565b9184830360a086015261484a565b3360c08301524260e083015260016101008301520390a1005b015190508e80612cb3565b906007840160005260206000209160005b601f1985168110612e195750918391600193600795601f19811610612e00575b505050811b01910155612cc9565b015160001960f88460031b161c191690558e8080612df2565b91926020600181928685015181550194019201612dd2565b015190508f80612c17565b906004850160005260206000209160005b601f1985168110612e9857509183916001936101009695601f19811610612e7f575b505050811b016004840155612c2f565b015160001960f88460031b161c191690558f8080612e6f565b91926020600181928685015181550194019201612e4d565b015190508e80612bb2565b9250600385016000526020600020906000935b601f1984168510612f12576001945083601f19811610612ef9575b505050811b016003830155612bca565b015160001960f88460031b161c191690558e8080612ee9565b81810151835560209485019460019093019290910190612ece565b015190508e80612b52565b9250600285016000526020600020906000935b601f1984168510612f8f576001945083601f19811610612f76575b505050811b016002830155612b6a565b015160001960f88460031b161c191690558e8080612f66565b81810151835560209485019460019093019290910190612f4b565b60405162461bcd60e51b815260206004820152603960248201527f416b746f7220746964616b2062657268616b206d656e616d6261682072656b61604482015278369036b2b234b9903ab73a3ab5903830b9b4b2b71034b7349760391b6064820152608490fd5b33600052600460205260ff60406000205416806130b2575b15612a27576001600160a01b03881660009081526006602052604090206007015460a01c60ff1680613079575b80613069575b15612a2757506001612a27565b506130748833614ba0565b61305c565b50336000908152600360209081526040808320600501546001600160a01b038c8116855260069093529220600701548116911614613056565b50600360205260ff60036040600020015416613029565b5033600052600760205260ff60406000205416612a1e565b3461025b57604036600319011261025b576130fa61432e565b6001600160401b039060243582811161025b5761311b9036906004016143be565b909260018060a01b03613133816000541633146146dc565b83169384600052600190602092828452613151604060002054614468565b6132a9576040516040810181811083821117610a4a57604052613175368785614745565b81528481018481528860005284865260406000209151908151938411610a4a5785916131a5856108678654614468565b8790601f8611600114613240576131de959160009183613235575b5050600019600383901b1c191690831b1783555b51151591016147e7565b600254600160401b811015610a4a577fc881e1c26fa1da107683b7f0c3f1689379721f2118918ff97cb8c0f0dfc9d3549561043b826109b895613224940160025561438b565b60405193838594855284019161484a565b015190508c806131c0565b90601f1986169185600052896000209260005b8b82821061329357505091859391886131de99941061327a575b505050811b0183556131d4565b015160001960f88460031b161c191690558c808061326d565b8385015186558b97909501949384019301613253565b60405162461bcd60e51b815260048101859052602b60248201527f41646d696e205253207375646168207465726461667461722064656e67616e2060448201526a30b630b6b0ba1034b7349760a91b6064820152608490fd5b3461025b57602036600319011261025b576001600160a01b0361332361432e565b166000526004602052602060ff604060002054166040519015158152f35b3461025b57600036600319011261025b57604051806008548082528260208093016008600052836000209260005b8582821061339a57505050613386925003836144f4565b6115f86040519282849384528301906143eb565b85546001600160a01b031684526001958601958895509301920161336f565b3461025b57602036600319011261025b5760043560008181526009602052604090206001015460ff916001600160a01b03916133f89083161515614c09565b60005260096020526115f86040600020805490836001820154169160058201549060068301549261342b60028201614517565b61343760038301614517565b90611ab7600761344960048601614517565b9401614517565b3461025b57602036600319011261025b5760043560055481101561025b5761273e60209161435a565b3461025b57602036600319011261025b576135246001600160a01b038061349e61432e565b168060005260046020526134b960ff60406000205416614a4f565b600052600360205260406000209061355560ff60038401541691600584015416916134e384614517565b936135406134f360018301614517565b9161353261350f600461350860028501614517565b930161486b565b93604051998a9960c08b5260c08b0190614428565b9089820360208b0152614428565b908782036040890152614428565b911515606086015284820360808601526143eb565b9060a08301520390f35b3461025b57602036600319011261025b576001600160a01b0361358061432e565b1660005260016020526135b6604060002060ff600161359e83614517565b92015416604051928392604084526040840190614428565b90151560208301520390f35b3461025b57600036600319011261025b576020600b54604051908152f35b3461025b57600036600319011261025b576000546040516001600160a01b039091168152602090f35b3461025b57602036600319011261025b576115f861165061362861432e565b614c54565b3461025b57604036600319011261025b5761364661432e565b61364e614344565b33600052600191602083815261366d60ff85604060002001541661490b565b60018060a01b0380831691826000526004815261369160ff604060002054166149a5565b826000526003928382526136b0338460056040600020015416146149eb565b8286169283600052600783526136cd60ff60406000205416614b4b565b8360005260068352806007604060002001541633811490811561389f575b501561382e5783600052600683526007604060002001805482811615613819575b5050936000916000528083526004604060002001936000958554965b8781106137e4575b505050506137885750600160401b821015610a4a5761043b8285927fd9a2627959a7f46a8b96c10424cdae1f1b65151551cd206b119aca54c0a86a5a97613779950181556143a6565b61037660405192839283614aeb565b6084906040519062461bcd60e51b82526004820152602f60248201527f50617369656e20696e6920737564616820646974756761736b616e206b65206460448201526e37b5ba32b9103a32b939b2b13aba1760891b6064820152fd5b82826137f0838a6143a6565b905490871b1c161461380a5761380590614b91565b613728565b50505050508587808080613730565b6001600160a01b03191633179055888061370c565b60405162461bcd60e51b815260048101849052604f6024820152600080516020614da683398151915260448201527f6d61682073616b697420416e646120617461752073756461682064692d61737360648201526e34b3b71035b2902929903630b4b71760891b608482015260a490fd5b905015896136eb565b3461025b57600036600319011261025b57604051806002548082528260208093016002600052836000209260005b858282106138ed57505050613386925003836144f4565b85546001600160a01b03168452600195860195889550930192016138d6565b3461025b57602036600319011261025b5761392561432e565b600054906001600160a01b039061393f33838516146146dc565b16908115613957576001600160a01b03191617600055005b60405162461bcd60e51b8152602060048201526024808201527f416c616d61742073757065722061646d696e206261727520746964616b2076616044820152633634b21760e11b6064820152608490fd5b3461025b57602036600319011261025b576001600160a01b036139c961432e565b166000526007602052602060ff604060002054166040519015158152f35b3461025b5760208060031936011261025b57600435903360005260018152613a1960ff6001604060002001541661490b565b60008281526009825260409020600101546001600160a01b0390613a409082161515614c09565b826000526009825280600160406000200154166000526006825233906007604060002001541603613a855760009182526009905260409020600501805460ff19169055005b6084906040519062461bcd60e51b82526004820152602660248201527f41646d696e20525320746964616b2062657268616b2061746173207061736965604482015265371034b7349760d11b6064820152fd5b3461025b57602036600319011261025b57600435600554811015613b015761273e60209161435a565b60405162461bcd60e51b815260206004820152601a60248201527924b73232b5b9903237b5ba32b9103a34b230b5903b30b634b21760311b6044820152606490fd5b3461025b5760e036600319011261025b576004356001600160401b03811161025b57613b739036906004016143be565b60c05260a0526024356001600160401b03811161025b57613b989036906004016143be565b906044356001600160401b03811161025b57613bb89036906004016143be565b92906064356001600160401b03811161025b57613bd99036906004016143be565b906084356001600160401b03811161025b57613bf99036906004016143be565b90916001600160401b0360a4351161025b57613c1a3660a4356004016143be565b909590949060c4356001600160401b03811161025b57613c3e9036906004016143be565b60809b919b52336000526006602052613c6460ff60076040600020015460a01c16614a95565b33600090815260066020526040902060c0516001600160401b038111610a4a57613c929061174b8354614468565b600060c051601f81116001146142695750600060c051918261425c575b508160011b916000199060031b1c19161781555b6001600160401b038a11610a4a57613ceb8a613ce26001840154614468565b600184016147a2565b896000601f82116001146141ee576000916141e3575b508a60011b906000198c60031b1c19161760018201555b6001600160401b038211610a4a57613d37826117916002840154614468565b816000601f82116001146141755760009161416a575b508260011b906000198460031b1c19161760028201555b6001600160401b038411610a4a57613d8c84613d836003840154614468565b600384016147a2565b836000601f82116001146140fc576000916140f1575b508460011b906000198660031b1c19161760038201555b6001600160401b038611610a4a57613de186613dd86004840154614468565b600484016147a2565b856000601f821160011461408357600091614078575b508660011b906000198860031b1c19161760048201555b6001600160401b038811610a4a57613e3688613e2d6005840154614468565b600584016147a2565b876000601f821160011461400857600091613ffd575b508860011b906000198a60031b1c19161760058201555b6080516001600160401b038111610a4a57613e8e90613e856006840154614468565b600684016147a2565b6080518c60006001601f841114613f8757600692506000906080519283613f7c575b50508160011b916000199060031b1c1916179101555b604051998a9960e08b5260e08b0160c0519060a05191613ee59261484a565b908b820360208d0152613ef79261484a565b9089820360408b0152613f099261484a565b908782036060890152613f1b9261484a565b908582036080870152613f2d9261484a565b9083820360a0850152613f3f9261484a565b9281840360c08301523393608051613f569261484a565b037f5bf1a01557f5d2a881b530f82df1618e3c06d1a0b7ab3be7ff74e54ead39bd3491a2005b013590508f8f613eb0565b9050600683016000528d60206000209160005b601f1985168110613fe25750918391600193600695601f19811610613fc8575b505050811b01910155613ec6565b0135600019600384901b60f8161c191690558f8f81613fba565b91600182946020938493013581550193019101908f91613f9a565b90508901358d613e4c565b90506005820160005260206000209060005b8b601f198c16821061406057505089601f19811610614046575b5050600188811b016005820155613e63565b8a013560001960038b901b60f8161c191690558c80614034565b6001839460209394849301358155019301910161401a565b90508701358d613df7565b90506004820160005260206000209060005b601f19891681106140d9575087601f198116106140bf575b5050600186811b016004820155613e0e565b880135600019600389901b60f8161c191690558c806140ad565b9091602060018192858d013581550193019101614095565b90508501358d613da2565b90506003820160005260206000209060005b601f1987168110614152575085601f19811610614138575b5050600184811b016003820155613db9565b860135600019600387901b60f8161c191690558c80614126565b9091602060018192858b01358155019301910161410e565b90508301358d613d4d565b90506002820160005260206000209060005b601f19851681106141cb575083601f198116106141b1575b5050600182811b016002820155613d64565b840135600019600385901b60f8161c191690558c8061419f565b90916020600181928589013581550193019101614187565b90508b01358d613d01565b8c91601f198116600185016000526020600020936000905b82821061424157505010614227575b505060018a811b016001820155613d18565b8c013560001960038d901b60f8161c191690558c80614215565b84013585556001909401936020938401938f9350018f614206565b905060a05101358e613caf565b9082600052602060002090600090601f19841660a051925b8181106142be57509084600195949392106142a4575b505050811b018155613cc3565b0135600019600384901b60f8161c191690558e8080614297565b91936020600181928787013581550195019201614281565b3461025b57604036600319011261025b576142ef61432e565b6001600160a01b03166000908152600a602052604090208054602435919082101561025b57602091614320916143a6565b90546040519160031b1c8152f35b600435906001600160a01b038216820361025b57565b602435906001600160a01b038216820361025b57565b60055481101561437557600560005260206000200190600090565b634e487b7160e01b600052603260045260246000fd5b60025481101561437557600260005260206000200190600090565b80548210156143755760005260206000200190600090565b9181601f8401121561025b578235916001600160401b03831161025b576020838186019501011161025b57565b90815180825260208080930193019160005b82811061440b575050505090565b83516001600160a01b0316855293810193928101926001016143fd565b919082519283825260005b848110614454575050826000602080949584010152601f8019910116010190565b602081830181015184830182015201614433565b90600182811c92168015614498575b602083101461448257565b634e487b7160e01b600052602260045260246000fd5b91607f1691614477565b61012081019081106001600160401b03821117610a4a57604052565b602081019081106001600160401b03821117610a4a57604052565b604081019081106001600160401b03821117610a4a57604052565b601f909101601f19168101906001600160401b03821190821017610a4a57604052565b906040519182600082549261452b84614468565b90818452600194858116908160001461459a5750600114614557575b5050614555925003836144f4565b565b9093915060005260209081600020936000915b81831061458257505061455593508201013880614547565b8554888401850152948501948794509183019161456a565b91505061455594506020925060ff191682840152151560051b8201013880614547565b9597949061461192946145f56146329b9995614603938a5260018060a01b0380981660208b01526101208060408c01528a0190614428565b9088820360608a0152614428565b908682036080880152614428565b95151560a08501521660c083015260e0820152610100818403910152614428565b90565b604090600319011261025b576004356001600160a01b038116810361025b5790602435801515810361025b5790565b608060031982011261025b576004356001600160a01b038116810361025b57916001600160401b0360243581811161025b57836146a3916004016143be565b9390939260443583811161025b57826146be916004016143be565b9390939260643591821161025b576146d8916004016143be565b9091565b156146e357565b60405162461bcd60e51b815260206004820152603460248201527f48616e79612073757065722061646d696e2079616e67206461706174206d656e6044820152733530b630b735b0b710333ab733b9b49034b7349760611b6064820152608490fd5b9192916001600160401b038211610a4a576040519161476e601f8201601f1916602001846144f4565b82948184528183011161025b578281602093846000960137010152565b818110614796575050565b6000815560010161478b565b9190601f81116147b157505050565b614555926000526020600020906020601f840160051c830193106147dd575b601f0160051c019061478b565b90915081906147d0565b9060ff801983541691151516179055565b600854600160401b811015610a4a576001810180600855811015614375576008600052600080516020614d868339815191520180546001600160a01b0319166001600160a01b03909216919091179055565b908060209392818452848401376000828201840152601f01601f1916010190565b9060405191828154918282526020928383019160005283600020936000905b8282106148a057505050614555925003836144f4565b85546001600160a01b03168452600195860195889550938101939091019061488a565b156148ca57565b60405162461bcd60e51b815260206004820152601960248201527820b236b4b7102929903a34b230b5903234ba32b6bab5b0b71760391b6044820152606490fd5b1561491257565b60405162461bcd60e51b815260206004820152603c60248201527f48616e79612061646d696e2052532079616e6720616b7469662079616e67206460448201527b30b830ba1036b2b73530b630b735b0b710333ab733b9b49034b7349760211b6064820152608490fd5b916020916149959195949560408552604085019161484a565b6001600160a01b03909416910152565b156149ac57565b60405162461bcd60e51b81526020600482015260176024820152762237b5ba32b9103a34b230b5903a32b93230b33a30b91760491b6044820152606490fd5b156149f257565b60405162461bcd60e51b815260206004820152602f60248201527f446f6b74657220696e6920746964616b2074657264616674617220646920727560448201526e36b0b41039b0b5b4ba1020b732309760891b6064820152608490fd5b15614a5657565b60405162461bcd60e51b81526020600482015260176024820152762237b5ba32b9103a34b230b5903234ba32b6bab5b0b71760491b6044820152606490fd5b15614a9c57565b60405162461bcd60e51b815260206004820152602160248201527f446174612070617369656e20416e646120746964616b20646974656d756b616e6044820152601760f91b6064820152608490fd5b6001600160a01b0391821681529116602082015260400190565b15614b0c57565b60405162461bcd60e51b81526020600482015260176024820152762830b9b4b2b7103a34b230b5903234ba32b6bab5b0b71760491b6044820152606490fd5b15614b5257565b60405162461bcd60e51b81526020600482015260176024820152762830b9b4b2b7103a34b230b5903a32b93230b33a30b91760491b6044820152606490fd5b600019811461049b5760010190565b9060018060a01b038092166000526003918260205260046040600020016000938154945b858110614bd657505050505050600090565b83614be182856143a6565b905490841b1c1684861614614bfe57614bf990614b91565b614bc4565b505050505050600190565b15614c1057565b60405162461bcd60e51b815260206004820152601c60248201527b2932b5b0b69036b2b234b9903a34b230b5903234ba32b6bab5b0b71760211b6044820152606490fd5b6000805490916001600160a01b0390811691168114614d1d578082526020916001835260409160ff6001848420015416614d04578082526004845260ff8383205416614cec578152600783528190205460ff16614ccc57662ab735b737bbb760c91b905191614cc2836144d9565b6007835282015290565b652830b9b4b2b760d11b905191614ce2836144d9565b6006835282015290565b5050652237b5ba32b960d11b905191614ce2836144d9565b50506641646d696e525360c81b905191614cc2836144d9565b5050604051614d2b816144d9565b600a81526929bab832b920b236b4b760b11b60208201529056fe416c616d617420696e6920746572646166746172207365626167616920646f6b4e15ca2ba26538cdb1e2f0d595a1ec96fe8fbb126404e0cc083426c33ccbdd95f3f7a9fe364faab93b216da50a3214154f22a0a2b415b23a84c8169e8b636ee350617369656e20696e6920746964616b20746572646166746172206469207275bc415dfc2764939233ab67a4f55915cc2bb9d94ecafbfb254036de3cd0dbb3a8a2646970667358221220cdb0a2287f57e0adecaf9152354b1f9379c002556d06dce724b4f6f31419728464736f6c63430008130033",
  "immutableReferences": {},
  "source": "// SPDX-License-Identifier: MIT\r\npragma solidity ^0.8.0;\r\n\r\ncontract RekamMedisRS {\r\n    address public superAdmin;\r\n\r\n    struct AdminRS {\r\n        string namaRumahSakit;\r\n        bool aktif;\r\n    }\r\n    mapping(address => AdminRS) public dataAdmin;\r\n    address[] public daftarAdmin;\r\n\r\n    struct Dokter {\r\n        string nama;\r\n        string spesialisasi;\r\n        string nomorLisensi;\r\n        bool aktif;\r\n        address[] assignedPasien;\r\n        address adminRS; // Rumah sakit tempat dokter bertugas (alamat AdminRS)\r\n    }\r\n    mapping(address => Dokter) public dataDokter;\r\n    mapping(address => bool) public isDokter;\r\n    address[] public daftarDokter;\r\n\r\n    struct Pasien {\r\n        string nama;\r\n        string golonganDarah;\r\n        string tanggalLahir;\r\n        string gender;\r\n        string alamat;\r\n        string noTelepon;\r\n        string email;\r\n        address rumahSakitPenanggungJawab; // Alamat AdminRS penanggung jawab\r\n        bool exists;\r\n    }\r\n    mapping(address => Pasien) public dataPasien;\r\n    mapping(address => bool) public isPasien;\r\n    address[] public daftarPasien;\r\n\r\n    // Struct RekamMedisData yang disederhanakan\r\n    struct RekamMedisData {\r\n        uint id;\r\n        address pasien;\r\n        string diagnosa;\r\n        string foto;\r\n        string catatan;\r\n        bool valid; // Tetap dipertahankan untuk menandai RM tidak berlaku\r\n        address pembuat; // Pembuat RM ini\r\n        uint256 timestampPembuatan; // Waktu pembuatan RM ini\r\n        string tipeRekamMedis; // Jenis rekam medis (Pemeriksaan, Lab, Resep, dll.)\r\n    }\r\n    mapping(uint => RekamMedisData) public rekamMedis;\r\n    mapping(address => uint[]) public rekamMedisByPasien; // Daftar ID RM untuk pasien\r\n    uint public rekamMedisCount;\r\n\r\n    // mapping rekamMedisVersions, rekamMedisUpdateHistory, struct UpdateInfo,\r\n    // dan struct FullRMHistoryEntry DIHAPUS karena tidak ada lagi versi atau history update per ID RM yang kompleks.\r\n\r\n    // Events (dimodifikasi)\r\n    event AdminRSTerdaftar(address indexed admin, string namaRumahSakit);\r\n    event AdminRSStatusDiubah(address indexed admin, bool aktif);\r\n    event DokterTerdaftar(address indexed dokter, string nama, address adminRS);\r\n    event DokterStatusDiubah(address indexed dokter, bool aktif);\r\n    event DokterInfoDiperbarui(\r\n        address indexed dokter,\r\n        string nama,\r\n        string spesialisasi,\r\n        string nomorLisensi,\r\n        address indexed adminRS\r\n    );\r\n    event PasienTerdaftar(address indexed pasien, string nama, address adminRS);\r\n    event PasienPindahRS(\r\n        address indexed pasien,\r\n        address oldAdminRS,\r\n        address newAdminRS\r\n    );\r\n    event PasienDiassignKeDokter(address dokter, address pasien);\r\n    event PasienDiunassignDariDokter(address dokter, address pasien);\r\n\r\n    // Event RekamMedisDitambahkan dimodifikasi\r\n    event RekamMedisDitambahkan(\r\n        uint id,\r\n        address pasien,\r\n        string diagnosa,\r\n        string foto,\r\n        string catatan,\r\n        string tipeRekamMedis,\r\n        address pembuat,\r\n        uint timestamp,\r\n        bool valid\r\n    );\r\n    // Event RekamMedisDiperbarui DIHAPUS (karena tidak ada update)\r\n\r\n    event PasienDataDiperbarui(\r\n        address indexed pasien,\r\n        string nama,\r\n        string golonganDarah,\r\n        string tanggalLahir,\r\n        string gender,\r\n        string alamat,\r\n        string noTelepon,\r\n        string email\r\n    );\r\n\r\n    constructor() {\r\n        superAdmin = 0xB0dC0Bf642d339517438017Fc185Bb0f758A01D2; // << GANTI DENGAN ALAMAT SUPER ADMIN ANDA >>\r\n    }\r\n\r\n    // Modifier (Tidak ada perubahan di sini)\r\n    modifier hanyaSuperAdmin() {\r\n        require(\r\n            msg.sender == superAdmin,\r\n            \"Hanya super admin yang dapat menjalankan fungsi ini.\"\r\n        );\r\n        _;\r\n    }\r\n\r\n    modifier hanyaAdminRS() {\r\n        require(\r\n            dataAdmin[msg.sender].aktif,\r\n            \"Hanya admin RS yang aktif yang dapat menjalankan fungsi ini.\"\r\n        );\r\n        _;\r\n    }\r\n\r\n    modifier hanyaDokterAktif() {\r\n        require(\r\n            isDokter[msg.sender] && dataDokter[msg.sender].aktif,\r\n            \"Hanya dokter yang aktif yang dapat menjalankan fungsi ini.\"\r\n        );\r\n        _;\r\n    }\r\n\r\n    // Modifier hanyaDokterAktifUntukPasien ini masih digunakan oleh 'tambahRekamMedis'\r\n    modifier hanyaDokterAktifUntukPasien(address _pasien) {\r\n        require(\r\n            isDokter[msg.sender] && dataDokter[msg.sender].aktif,\r\n            \"Hanya dokter aktif.\"\r\n        );\r\n        require(dataPasien[_pasien].exists, \"Pasien tidak terdaftar.\");\r\n        require(\r\n            dataDokter[msg.sender].adminRS ==\r\n                dataPasien[_pasien].rumahSakitPenanggungJawab,\r\n            \"Dokter dan pasien tidak berada di rumah sakit yang sama.\"\r\n        );\r\n        bool assigned = false;\r\n        address[] storage listPasienDitugaskan = dataDokter[msg.sender]\r\n            .assignedPasien;\r\n        for (uint i = 0; i < listPasienDitugaskan.length; i++) {\r\n            if (listPasienDitugaskan[i] == _pasien) {\r\n                assigned = true;\r\n                break;\r\n            }\r\n        }\r\n        require(\r\n            assigned,\r\n            \"Dokter ini tidak ditugaskan untuk menangani pasien tersebut.\"\r\n        );\r\n        _;\r\n    }\r\n\r\n    modifier hanyaPasien(address _pasien) {\r\n        require(\r\n            msg.sender == _pasien,\r\n            \"Hanya pasien yang bersangkutan yang dapat menjalankan fungsi ini.\"\r\n        );\r\n        _;\r\n    }\r\n\r\n    // --- Admin RS Functions (Tidak ada perubahan signifikan) ---\r\n    function registerAdminRS(\r\n        address _admin,\r\n        string calldata _namaRS\r\n    ) external hanyaSuperAdmin {\r\n        require(\r\n            bytes(dataAdmin[_admin].namaRumahSakit).length == 0,\r\n            \"Admin RS sudah terdaftar dengan alamat ini.\"\r\n        );\r\n        dataAdmin[_admin] = AdminRS({namaRumahSakit: _namaRS, aktif: true});\r\n        daftarAdmin.push(_admin);\r\n        emit AdminRSTerdaftar(_admin, _namaRS);\r\n    }\r\n\r\n    function getAllAdminRSAddresses() external view returns (address[] memory) {\r\n        return daftarAdmin;\r\n    }\r\n\r\n    function setStatusAdminRS(\r\n        address _admin,\r\n        bool _aktif\r\n    ) external hanyaSuperAdmin {\r\n        require(\r\n            bytes(dataAdmin[_admin].namaRumahSakit).length != 0,\r\n            \"Admin RS tidak ditemukan.\"\r\n        );\r\n        dataAdmin[_admin].aktif = _aktif;\r\n        emit AdminRSStatusDiubah(_admin, _aktif);\r\n    }\r\n\r\n    function totalAdmin() external view returns (uint) {\r\n        return daftarAdmin.length;\r\n    }\r\n\r\n    function getAdminByIndex(uint idx) external view returns (address) {\r\n        require(idx < daftarAdmin.length, \"Indeks admin RS tidak valid.\");\r\n        return daftarAdmin[idx];\r\n    }\r\n\r\n    function getNamaRumahSakitByAdmin(\r\n        address _adminRS\r\n    ) external view returns (string memory) {\r\n        require(\r\n            bytes(dataAdmin[_adminRS].namaRumahSakit).length > 0,\r\n            \"Admin RS tidak ditemukan.\"\r\n        );\r\n        return dataAdmin[_adminRS].namaRumahSakit;\r\n    }\r\n\r\n    // --- Dokter Functions (Tidak ada perubahan signifikan) ---\r\n    function registerDokter(\r\n        address _dokter,\r\n        string calldata _nama,\r\n        string calldata _spesialisasi,\r\n        string calldata _nomorLisensi\r\n    ) external hanyaAdminRS {\r\n        require(\r\n            !isDokter[_dokter],\r\n            \"Alamat ini sudah terdaftar sebagai dokter.\"\r\n        );\r\n        require(\r\n            !isPasien[_dokter],\r\n            \"Alamat ini terdaftar sebagai pasien, tidak bisa menjadi dokter.\"\r\n        );\r\n        isDokter[_dokter] = true;\r\n        dataDokter[_dokter] = Dokter({\r\n            nama: _nama,\r\n            spesialisasi: _spesialisasi,\r\n            nomorLisensi: _nomorLisensi,\r\n            aktif: true,\r\n            assignedPasien: new address[](0),\r\n            adminRS: msg.sender\r\n        });\r\n        daftarDokter.push(_dokter);\r\n        emit DokterTerdaftar(_dokter, _nama, msg.sender);\r\n    }\r\n\r\n    function updateDokterInfo(\r\n        address _dokter,\r\n        string calldata _namaBaru,\r\n        string calldata _spesialisasiBaru,\r\n        string calldata _nomorLisensiBaru\r\n    ) external hanyaAdminRS {\r\n        require(isDokter[_dokter], \"Dokter tidak terdaftar di sistem.\");\r\n        require(\r\n            dataDokter[_dokter].adminRS == msg.sender,\r\n            \"Anda bukan admin RS yang berhak untuk dokter ini.\"\r\n        );\r\n\r\n        Dokter storage dokterToUpdate = dataDokter[_dokter];\r\n        dokterToUpdate.nama = _namaBaru;\r\n        dokterToUpdate.spesialisasi = _spesialisasiBaru;\r\n        dokterToUpdate.nomorLisensi = _nomorLisensiBaru;\r\n\r\n        emit DokterInfoDiperbarui(\r\n            _dokter,\r\n            _namaBaru,\r\n            _spesialisasiBaru,\r\n            _nomorLisensiBaru,\r\n            msg.sender\r\n        );\r\n    }\r\n\r\n    function setStatusDokter(\r\n        address _dokter,\r\n        bool _aktif\r\n    ) external hanyaAdminRS {\r\n        require(isDokter[_dokter], \"Dokter tidak terdaftar.\");\r\n        require(\r\n            dataDokter[_dokter].adminRS == msg.sender,\r\n            \"Dokter ini tidak terdaftar di rumah sakit Anda.\"\r\n        );\r\n        dataDokter[_dokter].aktif = _aktif;\r\n        emit DokterStatusDiubah(_dokter, _aktif);\r\n    }\r\n\r\n    function totalDokter() external view returns (uint) {\r\n        return daftarDokter.length;\r\n    }\r\n\r\n    function getDokterByIndex(uint idx) external view returns (address) {\r\n        require(idx < daftarDokter.length, \"Indeks dokter tidak valid.\");\r\n        return daftarDokter[idx];\r\n    }\r\n\r\n    function getDokter(\r\n        address _dokter\r\n    )\r\n        external\r\n        view\r\n        returns (\r\n            string memory nama,\r\n            string memory spesialisasi,\r\n            string memory nomorLisensi,\r\n            bool aktif,\r\n            address[] memory pasienList,\r\n            address adminRS\r\n        )\r\n    {\r\n        require(isDokter[_dokter], \"Dokter tidak ditemukan.\");\r\n        Dokter storage d = dataDokter[_dokter];\r\n        return (\r\n            d.nama,\r\n            d.spesialisasi,\r\n            d.nomorLisensi,\r\n            d.aktif,\r\n            d.assignedPasien,\r\n            d.adminRS\r\n        );\r\n    }\r\n\r\n    function getAssignedPatients(\r\n        address _dokter\r\n    ) external view returns (address[] memory) {\r\n        require(isDokter[_dokter], \"Dokter tidak ditemukan.\");\r\n        return dataDokter[_dokter].assignedPasien;\r\n    }\r\n\r\n    // --- Pasien Functions ---\r\n    function registerPasien(\r\n        address _pasien,\r\n        string calldata _nama,\r\n        address _adminRS\r\n    ) external hanyaAdminRS {\r\n        require(\r\n            !isPasien[_pasien],\r\n            \"Pasien sudah terdaftar dengan alamat ini.\"\r\n        );\r\n        require(\r\n            !isDokter[_pasien],\r\n            \"Alamat ini terdaftar sebagai dokter, tidak bisa menjadi pasien.\"\r\n        );\r\n        require(\r\n            dataAdmin[_adminRS].aktif,\r\n            \"Admin RS yang dirujuk tidak aktif.\"\r\n        );\r\n        require(\r\n            msg.sender == _adminRS,\r\n            \"Hanya admin RS penanggung jawab yang bisa mendaftarkan pasien ini.\"\r\n        );\r\n\r\n        isPasien[_pasien] = true;\r\n        dataPasien[_pasien] = Pasien({\r\n            nama: _nama,\r\n            golonganDarah: \"\",\r\n            tanggalLahir: \"\",\r\n            gender: \"\",\r\n            alamat: \"\",\r\n            noTelepon: \"\",\r\n            email: \"\",\r\n            rumahSakitPenanggungJawab: _adminRS,\r\n            exists: true\r\n        });\r\n        daftarPasien.push(_pasien);\r\n        emit PasienTerdaftar(_pasien, _nama, _adminRS);\r\n    }\r\n\r\n    function selfRegisterPasien(\r\n        string calldata _nama,\r\n        string calldata _golonganDarah,\r\n        string calldata _tanggalLahir,\r\n        string calldata _gender,\r\n        string calldata _alamat,\r\n        string calldata _noTelepon,\r\n        string calldata _email,\r\n        address _adminRS\r\n    ) external {\r\n        require(!isPasien[msg.sender], \"Anda sudah terdaftar sebagai pasien.\");\r\n        require(!isDokter[msg.sender], \"Alamat ini terdaftar sebagai dokter.\");\r\n        require(\r\n            dataAdmin[_adminRS].aktif,\r\n            \"Rumah Sakit yang dipilih tidak aktif atau tidak valid.\"\r\n        );\r\n\r\n        isPasien[msg.sender] = true;\r\n        dataPasien[msg.sender] = Pasien({\r\n            nama: _nama,\r\n            golonganDarah: _golonganDarah,\r\n            tanggalLahir: _tanggalLahir,\r\n            gender: _gender,\r\n            alamat: _alamat,\r\n            noTelepon: _noTelepon,\r\n            email: _email,\r\n            rumahSakitPenanggungJawab: _adminRS,\r\n            exists: true\r\n        });\r\n        daftarPasien.push(msg.sender);\r\n        emit PasienTerdaftar(msg.sender, _nama, _adminRS);\r\n    }\r\n\r\n    function updatePasienData(\r\n        string calldata _nama,\r\n        string calldata _golonganDarah,\r\n        string calldata _tanggalLahir,\r\n        string calldata _gender,\r\n        string calldata _alamat,\r\n        string calldata _noTelepon,\r\n        string calldata _email\r\n    ) external hanyaPasien(msg.sender) {\r\n        require(\r\n            dataPasien[msg.sender].exists,\r\n            \"Data pasien Anda tidak ditemukan.\"\r\n        );\r\n\r\n        Pasien storage pasienToUpdate = dataPasien[msg.sender];\r\n        pasienToUpdate.nama = _nama;\r\n        pasienToUpdate.golonganDarah = _golonganDarah;\r\n        pasienToUpdate.tanggalLahir = _tanggalLahir;\r\n        pasienToUpdate.gender = _gender;\r\n        pasienToUpdate.alamat = _alamat;\r\n        pasienToUpdate.noTelepon = _noTelepon;\r\n        pasienToUpdate.email = _email;\r\n\r\n        emit PasienDataDiperbarui(\r\n            msg.sender,\r\n            _nama,\r\n            _golonganDarah,\r\n            _tanggalLahir,\r\n            _gender,\r\n            _alamat,\r\n            _noTelepon,\r\n            _email\r\n        );\r\n    }\r\n\r\n    function updatePasienRumahSakit(\r\n        address _newAdminRS\r\n    ) external hanyaPasien(msg.sender) {\r\n        require(\r\n            dataPasien[msg.sender].exists,\r\n            \"Data pasien Anda tidak ditemukan.\"\r\n        );\r\n        require(\r\n            dataAdmin[_newAdminRS].aktif,\r\n            \"Rumah Sakit baru tidak aktif atau tidak valid.\"\r\n        );\r\n        require(\r\n            dataPasien[msg.sender].rumahSakitPenanggungJawab != _newAdminRS,\r\n            \"Anda sudah terdaftar di rumah sakit ini.\"\r\n        );\r\n\r\n        address oldAdminRS = dataPasien[msg.sender].rumahSakitPenanggungJawab;\r\n        dataPasien[msg.sender].rumahSakitPenanggungJawab = _newAdminRS;\r\n\r\n        emit PasienPindahRS(msg.sender, oldAdminRS, _newAdminRS);\r\n    }\r\n\r\n    function getDaftarPasien() external view returns (address[] memory) {\r\n        return daftarPasien;\r\n    }\r\n\r\n    function getPasienData(\r\n        address _pasien\r\n    )\r\n        external\r\n        view\r\n        returns (\r\n            string memory nama,\r\n            string memory golonganDarah,\r\n            string memory tanggalLahir,\r\n            string memory gender,\r\n            string memory alamat,\r\n            string memory noTelepon,\r\n            string memory email,\r\n            address rumahSakitPenanggungJawab\r\n        )\r\n    {\r\n        require(isPasien[_pasien], \"Pasien tidak ditemukan.\");\r\n        Pasien storage p = dataPasien[_pasien];\r\n        return (\r\n            p.nama,\r\n            p.golonganDarah,\r\n            p.tanggalLahir,\r\n            p.gender,\r\n            p.alamat,\r\n            p.noTelepon,\r\n            p.email,\r\n            p.rumahSakitPenanggungJawab\r\n        );\r\n    }\r\n\r\n    function assignPasienToDokter(\r\n        address _dokter,\r\n        address _pasien\r\n    ) external hanyaAdminRS {\r\n        require(isDokter[_dokter], \"Dokter tidak terdaftar.\");\r\n        require(\r\n            dataDokter[_dokter].adminRS == msg.sender,\r\n            \"Dokter ini tidak terdaftar di rumah sakit Anda.\"\r\n        );\r\n        require(isPasien[_pasien], \"Pasien tidak terdaftar.\");\r\n\r\n        require(\r\n            dataPasien[_pasien].rumahSakitPenanggungJawab == msg.sender ||\r\n                dataPasien[_pasien].rumahSakitPenanggungJawab == address(0),\r\n            \"Pasien ini tidak terdaftar di rumah sakit Anda atau sudah di-assign ke RS lain.\"\r\n        );\r\n\r\n        if (dataPasien[_pasien].rumahSakitPenanggungJawab == address(0)) {\r\n            dataPasien[_pasien].rumahSakitPenanggungJawab = msg.sender;\r\n        }\r\n\r\n        bool alreadyAssigned = false;\r\n        address[] storage listPasienDitugaskan = dataDokter[_dokter]\r\n            .assignedPasien;\r\n        for (uint i = 0; i < listPasienDitugaskan.length; i++) {\r\n            if (listPasienDitugaskan[i] == _pasien) {\r\n                alreadyAssigned = true;\r\n                break;\r\n            }\r\n        }\r\n        require(\r\n            !alreadyAssigned,\r\n            \"Pasien ini sudah ditugaskan ke dokter tersebut.\"\r\n        );\r\n\r\n        listPasienDitugaskan.push(_pasien);\r\n        emit PasienDiassignKeDokter(_dokter, _pasien);\r\n    }\r\n\r\n    function unassignPasienFromDokter(\r\n        address _dokter,\r\n        address _pasien\r\n    ) external hanyaAdminRS {\r\n        require(isDokter[_dokter], \"Dokter tidak terdaftar.\");\r\n        require(\r\n            dataDokter[_dokter].adminRS == msg.sender,\r\n            \"Dokter ini tidak terdaftar di rumah sakit Anda.\"\r\n        );\r\n        require(isPasien[_pasien], \"Pasien tidak terdaftar.\");\r\n        require(\r\n            dataPasien[_pasien].rumahSakitPenanggungJawab == msg.sender,\r\n            \"Pasien ini tidak terdaftar di rumah sakit Anda.\"\r\n        );\r\n\r\n        bool found = false;\r\n        address[] storage listPasienDitugaskan = dataDokter[_dokter]\r\n            .assignedPasien;\r\n        for (uint i = 0; i < listPasienDitugaskan.length; i++) {\r\n            if (listPasienDitugaskan[i] == _pasien) {\r\n                listPasienDitugaskan[i] = listPasienDitugaskan[\r\n                    listPasienDitugaskan.length - 1\r\n                ];\r\n                listPasienDitugaskan.pop();\r\n                found = true;\r\n                break;\r\n            }\r\n        }\r\n        require(found, \"Pasien tidak ditugaskan ke dokter ini.\");\r\n        emit PasienDiunassignDariDokter(_dokter, _pasien);\r\n    }\r\n\r\n    function isAssigned(\r\n        address _dokter,\r\n        address _pasien\r\n    ) internal view returns (bool) {\r\n        address[] storage list = dataDokter[_dokter].assignedPasien;\r\n        for (uint i = 0; i < list.length; i++) {\r\n            if (list[i] == _pasien) {\r\n                return true;\r\n            }\r\n        }\r\n        return false;\r\n    }\r\n\r\n    // --- Rekam Medis Functions ---\r\n    // Fungsi tambahRekamMedis dimodifikasi untuk menerima tipeRekamMedis\r\n    // dan sekarang selalu membuat Rekam Medis baru, bukan update versi.\r\n    function tambahRekamMedis(\r\n        address _pasien,\r\n        string calldata _diagnosa,\r\n        string calldata _foto,\r\n        string calldata _catatan,\r\n        string calldata _tipeRekamMedis // BARU\r\n    ) external {\r\n        bool isValidActor = false;\r\n        if (msg.sender == _pasien && isPasien[msg.sender]) {\r\n            isValidActor = true;\r\n        } else if (isDokter[msg.sender] && dataDokter[msg.sender].aktif) {\r\n            if (\r\n                dataPasien[_pasien].exists &&\r\n                dataDokter[msg.sender].adminRS ==\r\n                dataPasien[_pasien].rumahSakitPenanggungJawab &&\r\n                isAssigned(msg.sender, _pasien)\r\n            ) {\r\n                isValidActor = true;\r\n            }\r\n        }\r\n        require(\r\n            isValidActor,\r\n            \"Aktor tidak berhak menambah rekam medis untuk pasien ini.\"\r\n        );\r\n        require(dataPasien[_pasien].exists, \"Pasien tidak terdaftar.\");\r\n\r\n        rekamMedisCount++;\r\n        uint newId = rekamMedisCount;\r\n        rekamMedis[newId] = RekamMedisData({\r\n            id: newId,\r\n            pasien: _pasien,\r\n            diagnosa: _diagnosa,\r\n            foto: _foto,\r\n            catatan: _catatan,\r\n            valid: true,\r\n            pembuat: msg.sender,\r\n            timestampPembuatan: block.timestamp,\r\n            tipeRekamMedis: _tipeRekamMedis\r\n        });\r\n        rekamMedisByPasien[_pasien].push(newId);\r\n\r\n        emit RekamMedisDitambahkan(\r\n            newId,\r\n            _pasien,\r\n            _diagnosa,\r\n            _foto,\r\n            _catatan,\r\n            _tipeRekamMedis,\r\n            msg.sender,\r\n            block.timestamp,\r\n            true\r\n        );\r\n    }\r\n\r\n    // Fungsi updateRekamMedis DIHAPUS (karena setiap perubahan adalah RM baru)\r\n    // Fungsi getRekamMedisVersions DIHAPUS\r\n    // Fungsi getRekamMedisUpdateHistory DIHAPUS\r\n    // Fungsi getFullRekamMedisHistory DIHAPUS (semua ini diganti oleh model 'RM baru')\r\n\r\n    function getRekamMedisIdsByPasien(\r\n        address _pasien\r\n    ) external view returns (uint[] memory) {\r\n        require(isPasien[_pasien], \"Pasien tidak ditemukan.\");\r\n        return rekamMedisByPasien[_pasien];\r\n    }\r\n\r\n    // Fungsi getRekamMedis disesuaikan dengan struct RekamMedisData yang baru\r\n    function getRekamMedis(\r\n        uint _id\r\n    )\r\n        external\r\n        view\r\n        returns (\r\n            uint id,\r\n            address pasien,\r\n            string memory diagnosa,\r\n            string memory foto,\r\n            string memory catatan,\r\n            bool valid,\r\n            address pembuat,\r\n            uint256 timestampPembuatan,\r\n            string memory tipeRekamMedis\r\n        )\r\n    {\r\n        require(\r\n            rekamMedis[_id].pasien != address(0),\r\n            \"Rekam medis tidak ditemukan.\"\r\n        );\r\n        RekamMedisData storage r = rekamMedis[_id];\r\n        return (\r\n            r.id,\r\n            r.pasien,\r\n            r.diagnosa,\r\n            r.foto,\r\n            r.catatan,\r\n            r.valid,\r\n            r.pembuat,\r\n            r.timestampPembuatan,\r\n            r.tipeRekamMedis\r\n        );\r\n    }\r\n\r\n    // Fungsi nonaktifkanRekamMedis tetap sama, ia akan menonaktifkan RM spesifik\r\n    function nonaktifkanRekamMedis(uint _id) external hanyaAdminRS {\r\n        require(\r\n            rekamMedis[_id].pasien != address(0),\r\n            \"Rekam medis tidak ditemukan.\"\r\n        );\r\n        require(\r\n            dataPasien[rekamMedis[_id].pasien].rumahSakitPenanggungJawab ==\r\n                msg.sender,\r\n            \"Admin RS tidak berhak atas pasien ini.\"\r\n        );\r\n        rekamMedis[_id].valid = false;\r\n    }\r\n\r\n    // --- Super Admin Functions (Tidak ada perubahan) ---\r\n    function setSuperAdmin(address _newAdmin) external hanyaSuperAdmin {\r\n        require(\r\n            _newAdmin != address(0),\r\n            \"Alamat super admin baru tidak valid.\"\r\n        );\r\n        superAdmin = _newAdmin;\r\n    }\r\n\r\n    // --- Utility Functions (Tidak ada perubahan) ---\r\n    function getUserRole(address _user) public view returns (string memory) {\r\n        if (_user == superAdmin) return \"SuperAdmin\";\r\n        if (dataAdmin[_user].aktif) return \"AdminRS\";\r\n        if (isDokter[_user]) return \"Dokter\";\r\n        if (isPasien[_user]) return \"Pasien\";\r\n        return \"Unknown\";\r\n    }\r\n}\r\n",
  "sourcePath": "D:\\TA\\rekam_medis_backend\\contracts\\RekamMedisRS.sol",
  "compiler": {
    "name": "solc",
    "version": "0.8.19+commit.7dd6d404.Emscripten.clang"
  },
  "schemaVersion": "3.4.16",
  "updatedAt": "2025-06-27T14:19:43.392Z",
  "networkType": "ethereum",
  "devdoc": {
    "kind": "dev",
    "methods": {},
    "version": 1
  },
  "userdoc": {
    "kind": "user",
    "methods": {},
    "version": 1
  }
}