{
  "contractName": "RekamMedisRS",
  "abi": [
    {
      "inputs": [],
      "stateMutability": "nonpayable",
      "type": "constructor"
    },
    {
      "anonymous": false,
      "inputs": [
        {
          "indexed": true,
          "internalType": "address",
          "name": "admin",
          "type": "address"
        },
        {
          "indexed": false,
          "internalType": "string",
          "name": "namaRumahSakit",
          "type": "string"
        },
        {
          "indexed": false,
          "internalType": "string",
          "name": "alamatRumahSakit",
          "type": "string"
        },
        {
          "indexed": false,
          "internalType": "string",
          "name": "kota",
          "type": "string"
        },
        {
          "indexed": false,
          "internalType": "string",
          "name": "NIBRS",
          "type": "string"
        }
      ],
      "name": "AdminRSTerdaftar",
      "type": "event"
    },
    {
      "anonymous": false,
      "inputs": [
        {
          "indexed": true,
          "internalType": "address",
          "name": "dokter",
          "type": "address"
        },
        {
          "indexed": false,
          "internalType": "string",
          "name": "nama",
          "type": "string"
        },
        {
          "indexed": false,
          "internalType": "string",
          "name": "spesialisasi",
          "type": "string"
        },
        {
          "indexed": false,
          "internalType": "string",
          "name": "nomorLisensi",
          "type": "string"
        },
        {
          "indexed": true,
          "internalType": "address",
          "name": "adminRS",
          "type": "address"
        }
      ],
      "name": "DokterInfoDiperbarui",
      "type": "event"
    },
    {
      "anonymous": false,
      "inputs": [
        {
          "indexed": true,
          "internalType": "address",
          "name": "dokter",
          "type": "address"
        },
        {
          "indexed": false,
          "internalType": "bool",
          "name": "aktif",
          "type": "bool"
        }
      ],
      "name": "DokterStatusDiubah",
      "type": "event"
    },
    {
      "anonymous": false,
      "inputs": [
        {
          "indexed": true,
          "internalType": "address",
          "name": "dokter",
          "type": "address"
        },
        {
          "indexed": false,
          "internalType": "string",
          "name": "nama",
          "type": "string"
        },
        {
          "indexed": false,
          "internalType": "address",
          "name": "adminRS",
          "type": "address"
        }
      ],
      "name": "DokterTerdaftar",
      "type": "event"
    },
    {
      "anonymous": false,
      "inputs": [
        {
          "indexed": true,
          "internalType": "address",
          "name": "pasien",
          "type": "address"
        },
        {
          "indexed": false,
          "internalType": "string",
          "name": "nama",
          "type": "string"
        },
        {
          "indexed": false,
          "internalType": "string",
          "name": "NIK",
          "type": "string"
        },
        {
          "indexed": false,
          "internalType": "string",
          "name": "golonganDarah",
          "type": "string"
        },
        {
          "indexed": false,
          "internalType": "string",
          "name": "tanggalLahir",
          "type": "string"
        },
        {
          "indexed": false,
          "internalType": "string",
          "name": "gender",
          "type": "string"
        },
        {
          "indexed": false,
          "internalType": "string",
          "name": "alamat",
          "type": "string"
        },
        {
          "indexed": false,
          "internalType": "string",
          "name": "noTelepon",
          "type": "string"
        },
        {
          "indexed": false,
          "internalType": "string",
          "name": "email",
          "type": "string"
        }
      ],
      "name": "PasienDataDiperbarui",
      "type": "event"
    },
    {
      "anonymous": false,
      "inputs": [
        {
          "indexed": false,
          "internalType": "address",
          "name": "dokter",
          "type": "address"
        },
        {
          "indexed": false,
          "internalType": "address",
          "name": "pasien",
          "type": "address"
        }
      ],
      "name": "PasienDiassignKeDokter",
      "type": "event"
    },
    {
      "anonymous": false,
      "inputs": [
        {
          "indexed": false,
          "internalType": "address",
          "name": "dokter",
          "type": "address"
        },
        {
          "indexed": false,
          "internalType": "address",
          "name": "pasien",
          "type": "address"
        }
      ],
      "name": "PasienDiunassignDariDokter",
      "type": "event"
    },
    {
      "anonymous": false,
      "inputs": [
        {
          "indexed": true,
          "internalType": "address",
          "name": "pasien",
          "type": "address"
        },
        {
          "indexed": false,
          "internalType": "address",
          "name": "oldAdminRS",
          "type": "address"
        },
        {
          "indexed": false,
          "internalType": "address",
          "name": "newAdminRS",
          "type": "address"
        }
      ],
      "name": "PasienPindahRS",
      "type": "event"
    },
    {
      "anonymous": false,
      "inputs": [
        {
          "indexed": true,
          "internalType": "address",
          "name": "pasien",
          "type": "address"
        },
        {
          "indexed": false,
          "internalType": "string",
          "name": "nama",
          "type": "string"
        },
        {
          "indexed": false,
          "internalType": "string",
          "name": "IDPasien",
          "type": "string"
        },
        {
          "indexed": false,
          "internalType": "string",
          "name": "NIKPasien",
          "type": "string"
        },
        {
          "indexed": false,
          "internalType": "address",
          "name": "adminRS",
          "type": "address"
        }
      ],
      "name": "PasienTerdaftar",
      "type": "event"
    },
    {
      "anonymous": false,
      "inputs": [
        {
          "indexed": false,
          "internalType": "uint256",
          "name": "id",
          "type": "uint256"
        },
        {
          "indexed": false,
          "internalType": "address",
          "name": "pasien",
          "type": "address"
        },
        {
          "indexed": false,
          "internalType": "string",
          "name": "diagnosa",
          "type": "string"
        },
        {
          "indexed": false,
          "internalType": "string",
          "name": "foto",
          "type": "string"
        },
        {
          "indexed": false,
          "internalType": "string",
          "name": "catatan",
          "type": "string"
        },
        {
          "indexed": false,
          "internalType": "string",
          "name": "tipeRekamMedis",
          "type": "string"
        },
        {
          "indexed": false,
          "internalType": "address",
          "name": "pembuat",
          "type": "address"
        },
        {
          "indexed": false,
          "internalType": "uint256",
          "name": "timestamp",
          "type": "uint256"
        }
      ],
      "name": "RekamMedisDitambahkan",
      "type": "event"
    },
    {
      "inputs": [
        {
          "internalType": "uint256",
          "name": "",
          "type": "uint256"
        }
      ],
      "name": "daftarAdmin",
      "outputs": [
        {
          "internalType": "address",
          "name": "",
          "type": "address"
        }
      ],
      "stateMutability": "view",
      "type": "function",
      "constant": true
    },
    {
      "inputs": [
        {
          "internalType": "uint256",
          "name": "",
          "type": "uint256"
        }
      ],
      "name": "daftarDokter",
      "outputs": [
        {
          "internalType": "address",
          "name": "",
          "type": "address"
        }
      ],
      "stateMutability": "view",
      "type": "function",
      "constant": true
    },
    {
      "inputs": [
        {
          "internalType": "uint256",
          "name": "",
          "type": "uint256"
        }
      ],
      "name": "daftarPasien",
      "outputs": [
        {
          "internalType": "address",
          "name": "",
          "type": "address"
        }
      ],
      "stateMutability": "view",
      "type": "function",
      "constant": true
    },
    {
      "inputs": [
        {
          "internalType": "address",
          "name": "",
          "type": "address"
        }
      ],
      "name": "dataAdmin",
      "outputs": [
        {
          "internalType": "string",
          "name": "namaRumahSakit",
          "type": "string"
        },
        {
          "internalType": "bool",
          "name": "aktif",
          "type": "bool"
        },
        {
          "internalType": "string",
          "name": "alamatRumahSakit",
          "type": "string"
        },
        {
          "internalType": "string",
          "name": "kota",
          "type": "string"
        },
        {
          "internalType": "string",
          "name": "NIBRS",
          "type": "string"
        }
      ],
      "stateMutability": "view",
      "type": "function",
      "constant": true
    },
    {
      "inputs": [
        {
          "internalType": "address",
          "name": "",
          "type": "address"
        }
      ],
      "name": "dataDokter",
      "outputs": [
        {
          "internalType": "string",
          "name": "nama",
          "type": "string"
        },
        {
          "internalType": "string",
          "name": "spesialisasi",
          "type": "string"
        },
        {
          "internalType": "string",
          "name": "nomorLisensi",
          "type": "string"
        },
        {
          "internalType": "bool",
          "name": "aktif",
          "type": "bool"
        },
        {
          "internalType": "address",
          "name": "adminRS",
          "type": "address"
        }
      ],
      "stateMutability": "view",
      "type": "function",
      "constant": true
    },
    {
      "inputs": [
        {
          "internalType": "address",
          "name": "",
          "type": "address"
        }
      ],
      "name": "dataPasien",
      "outputs": [
        {
          "internalType": "string",
          "name": "nama",
          "type": "string"
        },
        {
          "internalType": "string",
          "name": "ID",
          "type": "string"
        },
        {
          "internalType": "string",
          "name": "NIK",
          "type": "string"
        },
        {
          "internalType": "string",
          "name": "golonganDarah",
          "type": "string"
        },
        {
          "internalType": "string",
          "name": "tanggalLahir",
          "type": "string"
        },
        {
          "internalType": "string",
          "name": "gender",
          "type": "string"
        },
        {
          "internalType": "string",
          "name": "alamat",
          "type": "string"
        },
        {
          "internalType": "string",
          "name": "noTelepon",
          "type": "string"
        },
        {
          "internalType": "string",
          "name": "email",
          "type": "string"
        },
        {
          "internalType": "address",
          "name": "rumahSakitPenanggungJawab",
          "type": "address"
        }
      ],
      "stateMutability": "view",
      "type": "function",
      "constant": true
    },
    {
      "inputs": [
        {
          "internalType": "address",
          "name": "",
          "type": "address"
        }
      ],
      "name": "isDokter",
      "outputs": [
        {
          "internalType": "bool",
          "name": "",
          "type": "bool"
        }
      ],
      "stateMutability": "view",
      "type": "function",
      "constant": true
    },
    {
      "inputs": [
        {
          "internalType": "string",
          "name": "",
          "type": "string"
        }
      ],
      "name": "isNIBRSUsed",
      "outputs": [
        {
          "internalType": "bool",
          "name": "",
          "type": "bool"
        }
      ],
      "stateMutability": "view",
      "type": "function",
      "constant": true
    },
    {
      "inputs": [
        {
          "internalType": "address",
          "name": "",
          "type": "address"
        }
      ],
      "name": "isPasien",
      "outputs": [
        {
          "internalType": "bool",
          "name": "",
          "type": "bool"
        }
      ],
      "stateMutability": "view",
      "type": "function",
      "constant": true
    },
    {
      "inputs": [
        {
          "internalType": "string",
          "name": "",
          "type": "string"
        }
      ],
      "name": "isPatientIDUsed",
      "outputs": [
        {
          "internalType": "bool",
          "name": "",
          "type": "bool"
        }
      ],
      "stateMutability": "view",
      "type": "function",
      "constant": true
    },
    {
      "inputs": [
        {
          "internalType": "string",
          "name": "",
          "type": "string"
        }
      ],
      "name": "isPatientNIKUsed",
      "outputs": [
        {
          "internalType": "bool",
          "name": "",
          "type": "bool"
        }
      ],
      "stateMutability": "view",
      "type": "function",
      "constant": true
    },
    {
      "inputs": [
        {
          "internalType": "uint256",
          "name": "",
          "type": "uint256"
        }
      ],
      "name": "rekamMedis",
      "outputs": [
        {
          "internalType": "uint256",
          "name": "id",
          "type": "uint256"
        },
        {
          "internalType": "address",
          "name": "pasien",
          "type": "address"
        },
        {
          "internalType": "string",
          "name": "diagnosa",
          "type": "string"
        },
        {
          "internalType": "string",
          "name": "foto",
          "type": "string"
        },
        {
          "internalType": "string",
          "name": "catatan",
          "type": "string"
        },
        {
          "internalType": "address",
          "name": "pembuat",
          "type": "address"
        },
        {
          "internalType": "uint256",
          "name": "timestampPembuatan",
          "type": "uint256"
        },
        {
          "internalType": "string",
          "name": "tipeRekamMedis",
          "type": "string"
        }
      ],
      "stateMutability": "view",
      "type": "function",
      "constant": true
    },
    {
      "inputs": [
        {
          "internalType": "address",
          "name": "",
          "type": "address"
        },
        {
          "internalType": "uint256",
          "name": "",
          "type": "uint256"
        }
      ],
      "name": "rekamMedisByPasien",
      "outputs": [
        {
          "internalType": "uint256",
          "name": "",
          "type": "uint256"
        }
      ],
      "stateMutability": "view",
      "type": "function",
      "constant": true
    },
    {
      "inputs": [],
      "name": "rekamMedisCount",
      "outputs": [
        {
          "internalType": "uint256",
          "name": "",
          "type": "uint256"
        }
      ],
      "stateMutability": "view",
      "type": "function",
      "constant": true
    },
    {
      "inputs": [],
      "name": "getAllAdminRSAddresses",
      "outputs": [
        {
          "internalType": "address[]",
          "name": "",
          "type": "address[]"
        }
      ],
      "stateMutability": "view",
      "type": "function",
      "constant": true
    },
    {
      "inputs": [],
      "name": "totalAdmin",
      "outputs": [
        {
          "internalType": "uint256",
          "name": "",
          "type": "uint256"
        }
      ],
      "stateMutability": "view",
      "type": "function",
      "constant": true
    },
    {
      "inputs": [
        {
          "internalType": "uint256",
          "name": "idx",
          "type": "uint256"
        }
      ],
      "name": "getAdminByIndex",
      "outputs": [
        {
          "internalType": "address",
          "name": "",
          "type": "address"
        }
      ],
      "stateMutability": "view",
      "type": "function",
      "constant": true
    },
    {
      "inputs": [
        {
          "internalType": "address",
          "name": "_admin",
          "type": "address"
        }
      ],
      "name": "getAdminRS",
      "outputs": [
        {
          "internalType": "string",
          "name": "namaRumahSakit",
          "type": "string"
        },
        {
          "internalType": "bool",
          "name": "aktif",
          "type": "bool"
        },
        {
          "internalType": "string",
          "name": "alamatRumahSakit",
          "type": "string"
        },
        {
          "internalType": "string",
          "name": "kota",
          "type": "string"
        },
        {
          "internalType": "string",
          "name": "NIBRS",
          "type": "string"
        }
      ],
      "stateMutability": "view",
      "type": "function",
      "constant": true
    },
    {
      "inputs": [
        {
          "internalType": "address",
          "name": "_dokter",
          "type": "address"
        },
        {
          "internalType": "string",
          "name": "_nama",
          "type": "string"
        },
        {
          "internalType": "string",
          "name": "_spesialisasi",
          "type": "string"
        },
        {
          "internalType": "string",
          "name": "_nomorLisensi",
          "type": "string"
        }
      ],
      "name": "registerDokter",
      "outputs": [],
      "stateMutability": "nonpayable",
      "type": "function"
    },
    {
      "inputs": [
        {
          "internalType": "address",
          "name": "_dokter",
          "type": "address"
        },
        {
          "internalType": "string",
          "name": "_namaBaru",
          "type": "string"
        },
        {
          "internalType": "string",
          "name": "_spesialisasiBaru",
          "type": "string"
        },
        {
          "internalType": "string",
          "name": "_nomorLisensiBaru",
          "type": "string"
        }
      ],
      "name": "updateDokterInfo",
      "outputs": [],
      "stateMutability": "nonpayable",
      "type": "function"
    },
    {
      "inputs": [
        {
          "internalType": "address",
          "name": "_dokter",
          "type": "address"
        },
        {
          "internalType": "bool",
          "name": "_aktif",
          "type": "bool"
        }
      ],
      "name": "setStatusDokter",
      "outputs": [],
      "stateMutability": "nonpayable",
      "type": "function"
    },
    {
      "inputs": [],
      "name": "totalDokter",
      "outputs": [
        {
          "internalType": "uint256",
          "name": "",
          "type": "uint256"
        }
      ],
      "stateMutability": "view",
      "type": "function",
      "constant": true
    },
    {
      "inputs": [
        {
          "internalType": "uint256",
          "name": "idx",
          "type": "uint256"
        }
      ],
      "name": "getDokterByIndex",
      "outputs": [
        {
          "internalType": "address",
          "name": "",
          "type": "address"
        }
      ],
      "stateMutability": "view",
      "type": "function",
      "constant": true
    },
    {
      "inputs": [
        {
          "internalType": "address",
          "name": "_dokter",
          "type": "address"
        }
      ],
      "name": "getDokter",
      "outputs": [
        {
          "internalType": "string",
          "name": "nama",
          "type": "string"
        },
        {
          "internalType": "string",
          "name": "spesialisasi",
          "type": "string"
        },
        {
          "internalType": "string",
          "name": "nomorLisensi",
          "type": "string"
        },
        {
          "internalType": "bool",
          "name": "aktif",
          "type": "bool"
        },
        {
          "internalType": "address[]",
          "name": "pasienList",
          "type": "address[]"
        },
        {
          "internalType": "address",
          "name": "adminRS",
          "type": "address"
        }
      ],
      "stateMutability": "view",
      "type": "function",
      "constant": true
    },
    {
      "inputs": [
        {
          "internalType": "address",
          "name": "_dokter",
          "type": "address"
        }
      ],
      "name": "getAssignedPatients",
      "outputs": [
        {
          "internalType": "address[]",
          "name": "",
          "type": "address[]"
        }
      ],
      "stateMutability": "view",
      "type": "function",
      "constant": true
    },
    {
      "inputs": [
        {
          "internalType": "address",
          "name": "_pasien",
          "type": "address"
        },
        {
          "internalType": "string",
          "name": "_nama",
          "type": "string"
        },
        {
          "internalType": "string",
          "name": "_IDPasien",
          "type": "string"
        },
        {
          "internalType": "string",
          "name": "_NIKPasien",
          "type": "string"
        },
        {
          "internalType": "address",
          "name": "_adminRS",
          "type": "address"
        }
      ],
      "name": "registerPasien",
      "outputs": [],
      "stateMutability": "nonpayable",
      "type": "function"
    },
    {
      "inputs": [
        {
          "internalType": "string",
          "name": "_nama",
          "type": "string"
        },
        {
          "internalType": "string",
          "name": "_IDPasien",
          "type": "string"
        },
        {
          "internalType": "string",
          "name": "_NIKPasien",
          "type": "string"
        },
        {
          "internalType": "string",
          "name": "_golonganDarah",
          "type": "string"
        },
        {
          "internalType": "string",
          "name": "_tanggalLahir",
          "type": "string"
        },
        {
          "internalType": "string",
          "name": "_gender",
          "type": "string"
        },
        {
          "internalType": "string",
          "name": "_alamat",
          "type": "string"
        },
        {
          "internalType": "string",
          "name": "_noTelepon",
          "type": "string"
        },
        {
          "internalType": "string",
          "name": "_email",
          "type": "string"
        },
        {
          "internalType": "address",
          "name": "_adminRS",
          "type": "address"
        }
      ],
      "name": "selfRegisterPasien",
      "outputs": [],
      "stateMutability": "nonpayable",
      "type": "function"
    },
    {
      "inputs": [
        {
          "internalType": "string",
          "name": "_nama",
          "type": "string"
        },
        {
          "internalType": "string",
          "name": "_NIK",
          "type": "string"
        },
        {
          "internalType": "string",
          "name": "_golonganDarah",
          "type": "string"
        },
        {
          "internalType": "string",
          "name": "_tanggalLahir",
          "type": "string"
        },
        {
          "internalType": "string",
          "name": "_gender",
          "type": "string"
        },
        {
          "internalType": "string",
          "name": "_alamat",
          "type": "string"
        },
        {
          "internalType": "string",
          "name": "_noTelepon",
          "type": "string"
        },
        {
          "internalType": "string",
          "name": "_email",
          "type": "string"
        }
      ],
      "name": "updatePasienData",
      "outputs": [],
      "stateMutability": "nonpayable",
      "type": "function"
    },
    {
      "inputs": [
        {
          "internalType": "address",
          "name": "_newAdminRS",
          "type": "address"
        }
      ],
      "name": "updatePasienRumahSakit",
      "outputs": [],
      "stateMutability": "nonpayable",
      "type": "function"
    },
    {
      "inputs": [],
      "name": "getDaftarPasien",
      "outputs": [
        {
          "internalType": "address[]",
          "name": "",
          "type": "address[]"
        }
      ],
      "stateMutability": "view",
      "type": "function",
      "constant": true
    },
    {
      "inputs": [],
      "name": "totalPasien",
      "outputs": [
        {
          "internalType": "uint256",
          "name": "",
          "type": "uint256"
        }
      ],
      "stateMutability": "view",
      "type": "function",
      "constant": true
    },
    {
      "inputs": [
        {
          "internalType": "address",
          "name": "_pasien",
          "type": "address"
        }
      ],
      "name": "getPasienData",
      "outputs": [
        {
          "internalType": "string",
          "name": "nama",
          "type": "string"
        },
        {
          "internalType": "string",
          "name": "ID",
          "type": "string"
        },
        {
          "internalType": "string",
          "name": "NIK",
          "type": "string"
        },
        {
          "internalType": "string",
          "name": "golonganDarah",
          "type": "string"
        },
        {
          "internalType": "string",
          "name": "tanggalLahir",
          "type": "string"
        },
        {
          "internalType": "string",
          "name": "gender",
          "type": "string"
        },
        {
          "internalType": "string",
          "name": "alamat",
          "type": "string"
        },
        {
          "internalType": "string",
          "name": "noTelepon",
          "type": "string"
        },
        {
          "internalType": "string",
          "name": "email",
          "type": "string"
        },
        {
          "internalType": "address",
          "name": "rumahSakitPenanggungJawab",
          "type": "address"
        }
      ],
      "stateMutability": "view",
      "type": "function",
      "constant": true
    },
    {
      "inputs": [
        {
          "internalType": "address",
          "name": "_dokter",
          "type": "address"
        },
        {
          "internalType": "address",
          "name": "_pasien",
          "type": "address"
        }
      ],
      "name": "assignPasienToDokter",
      "outputs": [],
      "stateMutability": "nonpayable",
      "type": "function"
    },
    {
      "inputs": [
        {
          "internalType": "address",
          "name": "_dokter",
          "type": "address"
        },
        {
          "internalType": "address",
          "name": "_pasien",
          "type": "address"
        }
      ],
      "name": "unassignPasienFromDokter",
      "outputs": [],
      "stateMutability": "nonpayable",
      "type": "function"
    },
    {
      "inputs": [
        {
          "internalType": "address",
          "name": "_pasien",
          "type": "address"
        },
        {
          "internalType": "string",
          "name": "_diagnosa",
          "type": "string"
        },
        {
          "internalType": "string",
          "name": "_foto",
          "type": "string"
        },
        {
          "internalType": "string",
          "name": "_catatan",
          "type": "string"
        },
        {
          "internalType": "string",
          "name": "_tipeRekamMedis",
          "type": "string"
        }
      ],
      "name": "tambahRekamMedis",
      "outputs": [],
      "stateMutability": "nonpayable",
      "type": "function"
    },
    {
      "inputs": [
        {
          "internalType": "address",
          "name": "_pasien",
          "type": "address"
        }
      ],
      "name": "getRekamMedisIdsByPasien",
      "outputs": [
        {
          "internalType": "uint256[]",
          "name": "",
          "type": "uint256[]"
        }
      ],
      "stateMutability": "view",
      "type": "function",
      "constant": true
    },
    {
      "inputs": [
        {
          "internalType": "uint256",
          "name": "_id",
          "type": "uint256"
        }
      ],
      "name": "getRekamMedis",
      "outputs": [
        {
          "internalType": "uint256",
          "name": "id",
          "type": "uint256"
        },
        {
          "internalType": "address",
          "name": "pasien",
          "type": "address"
        },
        {
          "internalType": "string",
          "name": "diagnosa",
          "type": "string"
        },
        {
          "internalType": "string",
          "name": "foto",
          "type": "string"
        },
        {
          "internalType": "string",
          "name": "catatan",
          "type": "string"
        },
        {
          "internalType": "address",
          "name": "pembuat",
          "type": "address"
        },
        {
          "internalType": "uint256",
          "name": "timestampPembuatan",
          "type": "uint256"
        },
        {
          "internalType": "string",
          "name": "tipeRekamMedis",
          "type": "string"
        }
      ],
      "stateMutability": "view",
      "type": "function",
      "constant": true
    },
    {
      "inputs": [
        {
          "internalType": "address",
          "name": "_pasien",
          "type": "address"
        }
      ],
      "name": "getRekamMedisByPasienUntukAdminRS",
      "outputs": [
        {
          "components": [
            {
              "internalType": "uint256",
              "name": "id",
              "type": "uint256"
            },
            {
              "internalType": "address",
              "name": "pasien",
              "type": "address"
            },
            {
              "internalType": "string",
              "name": "diagnosa",
              "type": "string"
            },
            {
              "internalType": "string",
              "name": "foto",
              "type": "string"
            },
            {
              "internalType": "string",
              "name": "catatan",
              "type": "string"
            },
            {
              "internalType": "address",
              "name": "pembuat",
              "type": "address"
            },
            {
              "internalType": "uint256",
              "name": "timestampPembuatan",
              "type": "uint256"
            },
            {
              "internalType": "string",
              "name": "tipeRekamMedis",
              "type": "string"
            }
          ],
          "internalType": "struct RekamMedisRS.RekamMedisData[]",
          "name": "",
          "type": "tuple[]"
        }
      ],
      "stateMutability": "view",
      "type": "function",
      "constant": true
    },
    {
      "inputs": [
        {
          "internalType": "address",
          "name": "_user",
          "type": "address"
        }
      ],
      "name": "getUserRole",
      "outputs": [
        {
          "internalType": "string",
          "name": "",
          "type": "string"
        }
      ],
      "stateMutability": "view",
      "type": "function",
      "constant": true
    },
    {
      "inputs": [],
      "name": "getPasienByAdminRS",
      "outputs": [
        {
          "internalType": "address[]",
          "name": "",
          "type": "address[]"
        }
      ],
      "stateMutability": "view",
      "type": "function",
      "constant": true
    }
  ],
  "bytecode": "0x60806040523462000e2a576200001462000e4f565b601081526f52532053696c6f616d204d616c616e6760801b60208201526200003b62000e4f565b601e81527f4a6c2e2052617961204c616e67736570204e6f2e20322c204d616c616e67000060208201526200006f62000e4f565b9060068252654d616c616e6760d01b60208301526200008d62000e4f565b92600b84526a4e494252532d534d30303160a81b6020850152620000b062000e2f565b8181526001602082015282604082015283606082015284608082015273153f67a7b7169ce3f13f8a81dc9cae0bc27dbf216000526000602052604060002090805180519060018060401b0382116200070e57835490600182811c9216801562000e1f575b6020831014620007f35781601f84931162000dca575b50602090601f831160011462000d595760009262000d4d575b50508160011b916000199060031b1c19161782555b6200017860208201511515600184019060ff801983541691151516179055565b60408101518051906001600160401b0382116200070e57600284015490600182811c9216801562000d42575b6020831014620007f35781601f84931162000cea575b50602090601f831160011462000c735760009262000c67575b50508160011b916000199060031b1c19161760028301555b60608101518051906001600160401b0382116200070e576003840154600181811c9116801562000c5c575b6020821014620007f357601f811162000c10575b50602090601f831160011462000b985760809392916000918362000b8c575b50508160011b916000199060031b1c19161760038401555b01518051906001600160401b0382116200070e576004830154600181811c9116801562000b81575b6020821014620007f357601f811162000b35575b50602090601f831160011462000ac057600492916000918362000ab4575b50508160011b916000199060031b1c1916179101555b600254680100000000000000008110156200070e576001810180600255811015620006f85773153f67a7b7169ce3f13f8a81dc9cae0bc27dbf219460008051602062006a7483398151915294620003759260026000526020600020018760018060a01b0319825416179055604051602081845162000353818385890162000e6f565b81016001815203019020600160ff198254161790556040519485948562000ebb565b0390a26200038262000e4f565b600f81526e52532053696c6f616d20596f67796160881b6020820152604051606081016001600160401b038111828210176200070e57604052602881527f4a6c2e204c616b736461204164697375636970746f204e6f2e2033322c20596f6020820152676779616b6172746160c01b60408201526200040062000e4f565b90600a825269596f6779616b6172746160b01b60208301526200042262000e4f565b92600b84526a4e494252532d535930303160a81b60208501526200044562000e2f565b8181526001602082015282604082015283606082015284608082015273d95a4ee9149fcb31c535ef6cbd65f4c23d9f799760005260006020526040600020815180519060018060401b0382116200070e57825490600182811c9216801562000aa9575b6020831014620007f35781601f84931162000a54575b50602090601f8311600114620009e357600092620009d7575b50508160011b916000199060031b1c19161781555b6200050c60208301511515600183019060ff801983541691151516179055565b60408201518051906001600160401b0382116200070e57600283015490600182811c92168015620009cc575b6020831014620007f35781601f84931162000974575b50602090601f8311600114620008fd57600092620008f1575b50508160011b916000199060031b1c19161760028201555b60608201518051906001600160401b0382116200070e576003830154600181811c91168015620008e6575b6020821014620007f357601f81116200089a575b50602090601f8311600114620008205791806080949260049460009262000814575b50508160011b916000199060031b1c19161760038201555b0191015180519060018060401b0382116200070e57825490600182811c9216801562000809575b6020831014620007f35781601f8493116200079b575b50602090601f8311600114620007305760009262000724575b50508160011b916000199060031b1c19161790555b600254680100000000000000008110156200070e576001810180600255811015620006f85773d95a4ee9149fcb31c535ef6cbd65f4c23d9f79979460008051602062006a7483398151915294620006e59260026000526020600020018760018060a01b0319825416179055604051602081845162000353818385890162000e6f565b0390a2604051615b65908162000f0f8239f35b634e487b7160e01b600052603260045260246000fd5b634e487b7160e01b600052604160045260246000fd5b0151905038806200064e565b6000858152602081209350601f198516905b81811062000782575090846001959493921062000768575b505050811b01905562000663565b015160001960f88460031b161c191690553880806200075a565b9293602060018192878601518155019501930162000742565b909150836000526020600020601f840160051c81019160208510620007e8575b90601f859493920160051c01905b818110620007d8575062000635565b60008155849350600101620007c9565b9091508190620007bb565b634e487b7160e01b600052602260045260246000fd5b91607f16916200061f565b015190503880620005e0565b906003840160005260206000209160005b601f1985168110620008815750926080949260019260049583601f1981161062000867575b505050811b016003820155620005f8565b015160001960f88460031b161c1916905538808062000856565b9192602060018192868501518155019401920162000831565b600384016000526020600020601f840160051c810160208510620008de575b601f830160051c82018110620008d1575050620005be565b60008155600101620008b9565b5080620008b9565b90607f1690620005aa565b01519050388062000567565b9250600284016000526020600020906000935b601f198416851062000958576001945083601f198116106200093e575b505050811b0160028201556200057f565b015160001960f88460031b161c191690553880806200092d565b8181015183556020948501946001909301929091019062000910565b909150600284016000526020600020601f840160051c810160208510620009c4575b90849392915b601f830160051c82018110620009b45750506200054e565b600081558594506001016200099c565b508062000996565b91607f169162000538565b015190503880620004d7565b9250836000526020600020906000935b601f198416851062000a38576001945083601f1981161062000a1e575b505050811b018155620004ec565b015160001960f88460031b161c1916905538808062000a10565b81810151835560209485019460019093019290910190620009f3565b909150836000526020600020601f840160051c81016020851062000aa1575b90849392915b601f830160051c8201811062000a91575050620004be565b6000815585945060010162000a79565b508062000a73565b91607f1691620004a8565b015190503880620002bb565b906004840160005260206000209160005b601f198516811062000b1c5750918391600193600495601f1981161062000b02575b505050811b01910155620002d1565b015160001960f88460031b161c1916905538808062000af3565b9192602060018192868501518155019401920162000ad1565b600484016000526020600020601f840160051c81016020851062000b79575b601f830160051c8201811062000b6c5750506200029d565b6000815560010162000b54565b508062000b54565b90607f169062000289565b01519050388062000249565b906003850160005260206000209160005b601f198516811062000bf7575091839160019360809695601f1981161062000bdd575b505050811b01600384015562000261565b015160001960f88460031b161c1916905538808062000bcc565b9192602060018192868501518155019401920162000ba9565b600385016000526020600020601f840160051c81016020851062000c54575b601f830160051c8201811062000c475750506200022a565b6000815560010162000c2f565b508062000c2f565b90607f169062000216565b015190503880620001d3565b9250600285016000526020600020906000935b601f198416851062000cce576001945083601f1981161062000cb4575b505050811b016002830155620001eb565b015160001960f88460031b161c1916905538808062000ca3565b8181015183556020948501946001909301929091019062000c86565b909150600285016000526020600020601f840160051c81016020851062000d3a575b90849392915b601f830160051c8201811062000d2a575050620001ba565b6000815585945060010162000d12565b508062000d0c565b91607f1691620001a4565b01519050388062000143565b9250846000526020600020906000935b601f198416851062000dae576001945083601f1981161062000d94575b505050811b01825562000158565b015160001960f88460031b161c1916905538808062000d86565b8181015183556020948501946001909301929091019062000d69565b909150846000526020600020601f840160051c81016020851062000e17575b90849392915b601f830160051c8201811062000e075750506200012a565b6000815585945060010162000def565b508062000de9565b91607f169162000114565b600080fd5b6040519060a082016001600160401b038111838210176200070e57604052565b60408051919082016001600160401b038111838210176200070e57604052565b60005b83811062000e835750506000910152565b818101518382015260200162000e72565b9060209162000eaf8151809281855285808601910162000e6f565b601f01601f1916010190565b9262000eed62000f0b959362000ede62000efc9460808852608088019062000e94565b90868203602088015262000e94565b90848203604086015262000e94565b91606081840391015262000e94565b9056fe610260604052600436101561001357600080fd5b60003560e01c8062410cb314614e89578063046bdbcc14614e1b578063050567d214614def5780630a0d67291461412e5780631132beb5146140ef57806311c6554e14613de65780631788411b146133b957806319d9d3dd1461333857806319e8f405146130705780631cf64afd14612eef5780632120e53f14612e3d5780632782085114612e055780632b7d8af814612dd95780632e2dd10214612dbb5780633bf7630314612d455780633da0551814612c5f5780634269965114612c3657806347960cb514612b6257806351887b6714612acd5780635c4c934814612a8e578063610a852614612343578063623785c1146122d557806364319e33146122b7578063683700871461228e578063786f3fbe146121d85780637d3e9db8146121ba578063911b633a1461217857806392fa924014611fe7578063932e0f6d14611eec578063a665102c14611e1d578063abf72abb14611d9c578063b75de7a814611971578063c0664b7e14611902578063c3c0fdea14611855578063c967ede814611788578063cfb8579e14611749578063ddbd24d31461117f578063e29993a514610eab578063e5cc339414610e8d5763e5dea464146101d457600080fd5b34610e885760a0366003190112610e88576101ed614ee1565b6024356001600160401b038111610e885761020c903690600401615116565b906044356001600160401b038111610e885761022c903690600401615116565b9390916064356001600160401b038111610e885761024e903690600401615116565b906084356001600160a01b0381169003610e88573360005260006020526102796040600020546151f6565b151580610e68575b61028a906154cc565b6001600160a01b03841660009081526007602052604090205460ff16610e11576001600160a01b03841660009081526004602052604090205460ff16610da6576102d58715156156f1565b6102f760ff604051898882376020818b8101600881520301902054161561573d565b610302821515615789565b61032460ff6040518484823760208186810160098152030190205416156157d5565b6084356001600160a01b031660009081526020819052604090206001015460ff1615610d56576084356001600160a01b03163303610ce0576001600160a01b03841660009081526007602052604090819020805460ff19166001179055519661038c88614fe0565b61039736888661506f565b88526103a436828861506f565b60208901526103b436848461506f565b60408901526040516103c581615018565b6000815260608901526040516103da81615018565b6000815260808901526040516103ef81615018565b6000815260a089015260405161040481615018565b6000815260c089015260405161041981615018565b6000815260e089015260405161042e81615018565b60008082526101008a01919091526001600160a01b0360843581166101208b01528616815260066020526040902088518051919991906001600160401b0382116108e8578190610489828d61048381546151f6565b9061556c565b602090601f8311600114610c7457600092610c69575b50508160011b916000199060031b1c19161789555b60208101518051906001600160401b0382116108e85781906104e6828d60016104df818301546151f6565b910161556c565b602090601f8311600114610bf757600092610bec575b50508160011b916000199060031b1c19161760018a01555b60408101518051906001600160401b0382116108e857819061053f828d60026104df818301546151f6565b602090601f8311600114610b7a57600092610b6f575b50508160011b916000199060031b1c19161760028a01555b60608101518051906001600160401b0382116108e8578190610598828d60036104df818301546151f6565b602090601f8311600114610afd57600092610af2575b50508160011b916000199060031b1c19161760038a01555b60808101518051906001600160401b0382116108e85781906105f1828d60046104df818301546151f6565b602090601f8311600114610a8057600092610a75575b50508160011b916000199060031b1c19161760048a01555b60a08101518051906001600160401b0382116108e857819061064a828d60056104df818301546151f6565b602090601f8311600114610a03576000926109f8575b50508160011b916000199060031b1c19161760058a01555b60c08101518051906001600160401b0382116108e85781906106a3828d60066104df818301546151f6565b602090601f83116001146109865760009261097b575b50508160011b916000199060031b1c19161760068a01555b60e08101518051906001600160401b0382116108e85781906106fc828d60076104df818301546151f6565b602090601f8311600114610909576000926108fe575b50508160011b916000199060031b1c19161760078a01555b6101008101519889516001600160401b0381116108e85761075b8161075260088501546151f6565b6008850161556c565b6020601f821160011461084c57918160099261083c9998979695947f95224f05331a37376934686bef8f2d81b0a089124f71ffd7f0add127fa930baf9d9e600092610841575b50508160011b916000199060031b1c19161760088201555b019061012060018060a01b03910151166001600160601b0360a01b8254161790556107e3866155b1565b604051818882376020818381016008815203019020600160ff19825416179055604051838382376020818581016009815203019020600160ff1982541617905560405196879660018060a01b0316996084359588615821565b0390a2005b0151905038806107a1565b6008830160005260206000209b60005b601f19841681106108d05750827f95224f05331a37376934686bef8f2d81b0a089124f71ffd7f0add127fa930baf9c9d61083c9a999897969593600193600996601f198116106108b7575b505050811b0160088201556107b9565b015160001960f88460031b161c191690553880806108a7565b828201518e556001909d019c6020928301920161085c565b634e487b7160e01b600052604160045260246000fd5b015190503880610712565b925060078c016000526020600020906000935b601f1984168510610960576001945083601f19811610610947575b505050811b0160078a015561072a565b015160001960f88460031b161c19169055388080610937565b8181015183556020948501946001909301929091019061091c565b0151905038806106b9565b925060068c016000526020600020906000935b601f19841685106109dd576001945083601f198116106109c4575b505050811b0160068a01556106d1565b015160001960f88460031b161c191690553880806109b4565b81810151835560209485019460019093019290910190610999565b015190503880610660565b925060058c016000526020600020906000935b601f1984168510610a5a576001945083601f19811610610a41575b505050811b0160058a0155610678565b015160001960f88460031b161c19169055388080610a31565b81810151835560209485019460019093019290910190610a16565b015190503880610607565b925060048c016000526020600020906000935b601f1984168510610ad7576001945083601f19811610610abe575b505050811b0160048a015561061f565b015160001960f88460031b161c19169055388080610aae565b81810151835560209485019460019093019290910190610a93565b0151905038806105ae565b925060038c016000526020600020906000935b601f1984168510610b54576001945083601f19811610610b3b575b505050811b0160038a01556105c6565b015160001960f88460031b161c19169055388080610b2b565b81810151835560209485019460019093019290910190610b10565b015190503880610555565b925060028c016000526020600020906000935b601f1984168510610bd1576001945083601f19811610610bb8575b505050811b0160028a015561056d565b015160001960f88460031b161c19169055388080610ba8565b81810151835560209485019460019093019290910190610b8d565b0151905038806104fc565b925060018c016000526020600020906000935b601f1984168510610c4e576001945083601f19811610610c35575b505050811b0160018a0155610514565b015160001960f88460031b161c19169055388080610c25565b81810151835560209485019460019093019290910190610c0a565b01519050388061049f565b92508b6000526020600020906000935b601f1984168510610cc5576001945083601f19811610610cac575b505050811b0189556104b4565b015160001960f88460031b161c19169055388080610c9f565b81810151835560209485019460019093019290910190610c84565b60405162461bcd60e51b815260206004820152604260248201527f48616e79612061646d696e2052532070656e616e6767756e67206a617761622060448201527f79616e672062697361206d656e6461667461726b616e2070617369656e20696e606482015261349760f11b608482015260a490fd5b60405162461bcd60e51b815260206004820152602260248201527f41646d696e2052532079616e6720646972756a756b20746964616b20616b7469604482015261331760f11b6064820152608490fd5b60405162461bcd60e51b815260206004820152603f60248201527f416c616d617420696e6920746572646166746172207365626167616920646f6b60448201527f7465722c20746964616b2062697361206d656e6a6164692070617369656e2e006064820152608490fd5b60405162461bcd60e51b815260206004820152602960248201527f50617369656e207375646168207465726461667461722064656e67616e20616c60448201526830b6b0ba1034b7349760b91b6064820152608490fd5b5033600052600060205261028a60ff600160406000200154169050610281565b600080fd5b34610e88576000366003190112610e88576020600a54604051908152f35b34610e88576040366003190112610e8857610ec4614ee1565b610ecc614ef7565b903360005260209160008352610ee66040600020546151f6565b151580611165575b610ef7906154cc565b60018060a01b03918281168060005260048552610f1b60ff604060002054166155f5565b80600052600390818652610f3a33866005604060002001541614615641565b848416948560005260078752610f5760ff6040600020541661592f565b8560005260068752338160096040600020015416036111085760009160005282875260046040600020019160005b8354808210156110fa578884610f9b8488614fc8565b905490891b1c1614610fb65750610fb19061597b565b610f85565b915091929394959650600019918282019182116110e457610fec84610fde61100b9488614fc8565b905490891b1c169186614fc8565b90919082549060031b9160018060a01b03809116831b921b1916179055565b825480156110ce57019261101f8484614fc8565b81939154921b1b191690555560015b1561107a57604080516001600160a01b0392831681529290911660208301527f80b4d8d360eb6524bf34c2207f48a267b84469bad95c9e9540413349e9f416a59250819081015b0390a1005b60405162461bcd60e51b815260048101849052602660248201527f50617369656e20746964616b20646974756761736b616e206b6520646f6b7465604482015265391034b7349760d11b6064820152608490fd5b634e487b7160e01b600052603160045260246000fd5b634e487b7160e01b600052601160045260246000fd5b50509394955050505061102e565b60405162461bcd60e51b815260048101889052602f60248201527f50617369656e20696e6920746964616b2074657264616674617220646920727560448201526e36b0b41039b0b5b4ba1020b732309760891b6064820152608490fd5b50336000908152808452604090206001015460ff16610eee565b34610e885761118d366153fc565b91949392903360005260006020526111a96040600020546151f6565b151580611729575b6111ba906154cc565b6001600160a01b03871660009081526004602052604090205460ff166116d1576001600160a01b03871660009081526007602052604090205460ff16611666576001600160a01b03871660009081526004602052604090819020805460ff19166001179055519261122a84615018565b60008452604051968760c08101106001600160401b0360c08a0111176108e8576112799361126d9160c08a0160405261126436898b61506f565b8a52369161506f565b6020880152369161506f565b60408501526001606085015260808401523360a084015260018060a01b038416600052600360205260406000209280518051906001600160401b0382116108e85781906112d0826112ca89546151f6565b8961556c565b602090601f83116001146115fa576000926115ef575b50508160011b916000199060031b1c19161784555b60208101518051906001600160401b0382116108e857819061132d8261132460018a01546151f6565b60018a0161556c565b602090601f831160011461157d57600092611572575b50508160011b916000199060031b1c19161760018501555b60408101518051906001600160401b0382116108e857819061138d8261138460028a01546151f6565b60028a0161556c565b602090601f8311600114611500576000926114f5575b50508160011b916000199060031b1c19161760028501555b6113da60608201511515600386019060ff801983541691151516179055565b60048401936080820151948551906001600160401b0382116108e857600160401b968783116108e85760209082548484558085106114d8575b500190600052602060002060005b8381106114bb57505050506005019060a0600180821b03910151166001600160601b0360a01b825416179055600554928310156108e85761148d84610fec8560017f5c9d12a5bfda65f31ab460df37935bfe7b6cfa6a3787bf1f99858ccc15dc92779701600555614f0d565b6114a46040519283926040845260408401916155d4565b3360208301526001600160a01b03909416930390a2005b82516001600160a01b031681830155602090920191600101611421565b6114ef908460005285846000209182019101615555565b8a611413565b0151905087806113a3565b9250600287016000526020600020906000935b601f1984168510611557576001945083601f1981161061153e575b505050811b0160028501556113bb565b015160001960f88460031b161c1916905587808061152e565b81810151835560209485019460019093019290910190611513565b015190508780611343565b9250600187016000526020600020906000935b601f19841685106115d4576001945083601f198116106115bb575b505050811b01600185015561135b565b015160001960f88460031b161c191690558780806115ab565b81810151835560209485019460019093019290910190611590565b0151905087806112e6565b9250866000526020600020906000935b601f198416851061164b576001945083601f19811610611632575b505050811b0184556112fb565b015160001960f88460031b161c19169055878080611625565b8181015183556020948501946001909301929091019061160a565b60405162461bcd60e51b815260206004820152603f60248201527f416c616d617420696e692074657264616674617220736562616761692070617360448201527f69656e2c20746964616b2062697361206d656e6a61646920646f6b7465722e006064820152608490fd5b60405162461bcd60e51b815260206004820152602a60248201527f416c616d617420696e692073756461682074657264616674617220736562616760448201526930b4903237b5ba32b91760b11b6064820152608490fd5b503360005260006020526111ba60ff6001604060002001541690506111b1565b34610e8857602060ff6117728261175f366150b5565b81604051938285809451938492016150f3565b8101600981520301902054166040519015158152f35b34610e8857602080600319360112610e88576001600160a01b036117aa614ee1565b1680600052600782526117c460ff60406000205416615860565b600052600c8152604060002060405190818382549182815201908192600052846000209060005b868282106118415786866118018288038361504e565b604051928392818401908285525180915260408401929160005b82811061182a57505050500390f35b83518552869550938101939281019260010161181b565b8354855290930192600192830192016117eb565b34610e88576020366003190112610e88576118d56001600160a01b038061187a614ee1565b166000526003602052604060002061189181615230565b916118f16118a160018401615230565b916118e36118b160028601615230565b91600560ff600388015416960154169360405197889760a0895260a0890190615143565b908782036020890152615143565b908582036040870152615143565b911515606084015260808301520390f35b34610e88576020366003190112610e88576001600160a01b03611923614ee1565b1680600052600460205261193e60ff604060002054166156a5565b600052600360205261196d6119596004604060002001615474565b604051918291602083526020830190615168565b0390f35b34610e885761197f366153fc565b9594929093919533600052600060205261199d6040600020546151f6565b151580611d7c575b6119ae906154cc565b60018060a01b0391828716600052600460205260ff6040600020541615611d2d578287166000526003978860205233846005604060002001541603611cce578388166000528860205260406000206001600160401b038087116108e857611a1f87611a1984546151f6565b8461556c565b866000601f8211600114611c6957600091611c5e575b50600019888d1b1c1916600188901b1782555b8083116108e85760018201611a6784611a6183546151f6565b8361556c565b836000601f8211600114611bfb57600091611bf0575b50600019858e1b1c1916600185901b1790555b84116108e857611ab084611aa760028401546151f6565b6002840161556c565b6000601f8511600114611b53579184939160027f4e15ca2ba26538cdb1e2f0d595a1ec96fe8fbb126404e0cc083426c33ccbdd959a9b9c611b439897611b3196600091611b48575b508760011b9188600019911b1c1916179101555b611b2360405198899860608a5260608a01916155d4565b9187830360208901526155d4565b918483036040860152339816966155d4565b0390a3005b90508d01358f611af8565b99601f198516906002830160005260206000209160005b818110611bd85750917f4e15ca2ba26538cdb1e2f0d595a1ec96fe8fbb126404e0cc083426c33ccbdd959a9b9c87969492611b439998611b31979510611bbe575b5050506002600186811b01910155611b0c565b60f888600019921b161c19908d01351690558c8080611bab565b8b8e0135845560209d8e019d60019094019301611b6a565b90508501358d611a7d565b60008381526020812092505b601f1987168110611c46575085601f19811610611c2e575b5050600184811b019055611a90565b860135600019868f1b60f8161c191690558c80611c1f565b9091602060018192858b013581550193019101611c07565b90508801358c611a35565b60008481526020812092508990601f198216905b8c828210611cb457505010611c9c575b5050600187811b018255611a48565b890135600019898e1b60f8161c191690558b80611c8d565b84013585556001909401936020938401938c935001611c7d565b60405162461bcd60e51b815260206004820152603160248201527f416e64612062756b616e2061646d696e2052532079616e672062657268616b206044820152703ab73a3ab5903237b5ba32b91034b7349760791b6064820152608490fd5b60405162461bcd60e51b815260206004820152602160248201527f446f6b74657220746964616b207465726461667461722064692073697374656d6044820152601760f91b6064820152608490fd5b503360005260006020526119ae60ff6001604060002001541690506119a5565b34610e88576020366003190112610e8857600435600052600b6020526040600020805461196d60018060a01b038060018501541693611ddd60028201615230565b91611dea60038301615230565b90611df760048401615230565b9060058401541691611e10600760068601549501615230565b94604051988998896152d6565b34610e88576020366003190112610e88576001600160a01b0380611e3f614ee1565b16806000526007602052611e5a60ff60406000205416615860565b600052600660205260406000209060098201541661196d611e7a83615230565b91611e8760018501615230565b93611e9460028201615230565b90611ea160038201615230565b611ead60048301615230565b611eb960058401615230565b90611ec660068501615230565b92611edf6008611ed860078801615230565b9601615230565b956040519a8b9a8b615342565b34610e88576040366003190112610e8857611f05614ee1565b60243580151590818103610e88577f3dcd68c14f5f191f12b3b56bf35d5d7eb22447e9ec685290967b4558822ca98a9133600052611fc460209260008452611f516040600020546151f6565b151580611fcd575b611f62906154cc565b611fa360018060a01b03809716968760005260048652611f8960ff604060002054166155f5565b876000526003865233906005604060002001541614615641565b856000526003845260036040600020019060ff801983541691151516179055565b604051908152a2005b50336000908152808552604090206001015460ff16611f59565b34610e8857602080600319360112610e8857612001614ee1565b336000526007825261201a60ff60406000205416615860565b6001600160a01b03818116600081815280855260409020600101549092919060ff161561211c573360005260068452828160096040600020015416146120c657336000818152600690955260409485902060090180546001600160a01b03198116909517905584516001600160a01b03929094168216845291166020830152917f3457f52cd7f93503903afd272e58438c52a23561e74eddba2144dc53d7af0e4491908190810161083c565b60405162461bcd60e51b815260048101859052602860248201527f416e6461207375646168207465726461667461722064692072756d616820736160448201526735b4ba1034b7349760c11b6064820152608490fd5b60405162461bcd60e51b815260048101859052602e60248201527f52756d61682053616b6974206261727520746964616b20616b7469662061746160448201526d3a903a34b230b5903b30b634b21760911b6064820152608490fd5b34610e88576020366003190112610e8857600435600254811015610e88576121a1602091614f91565b905460405160039290921b1c6001600160a01b03168152f35b34610e88576000366003190112610e88576020600554604051908152f35b34610e88576020366003190112610e88576001600160a01b03806121fa614ee1565b16600052600660205260406000209061196d61221583615230565b9161222260018501615230565b9361222f60028201615230565b9161223c60038301615230565b61224860048401615230565b61225460058501615230565b9061226160068601615230565b9261226e60078701615230565b94600961227d60088901615230565b97015416966040519a8b9a8b615342565b34610e88576020366003190112610e8857600435600a54811015610e88576121a1602091614f5a565b34610e88576000366003190112610e88576020600254604051908152f35b34610e88576020366003190112610e88576004356002548110156122fe576121a1602091614f91565b60405162461bcd60e51b815260206004820152601c60248201527f496e64656b732061646d696e20525320746964616b2076616c69642e000000006044820152606490fd5b34610e885760a0366003190112610e885761235c614ee1565b6024356001600160401b038111610e885761237b903690600401615116565b916044356001600160401b038111610e885761239b903690600401615116565b93906064356001600160401b038111610e88576123bc903690600401615116565b916084356001600160401b038111610e88576123dc903690600401615116565b90939092906000336001600160a01b0389161480612a76575b156129c4575060015b15612959576001600160a01b0387166000908152600760205260409020546124289060ff1661592f565b612433600d5461597b565b9283600d5560405161244481614ffc565b8481526001600160a01b038916602082015261246136898c61506f565b6040820152612471368c8461506f565b606082015261248136848661506f565b60808201523360a08201524260c082015261249d36878961506f565b60e082015284600052600b602052604060002090805182556001820160018060a01b036020830151166001600160601b0360a01b82541617905560408101518051906001600160401b0382116108e85781906125098261250060028801546151f6565b6002880161556c565b602090601f83116001146128e7576000926128dc575b50508160011b916000199060031b1c19161760028301555b60608101518051906001600160401b0382116108e85781906125698261256060038801546151f6565b6003880161556c565b602090601f831160011461286a5760009261285f575b50508160011b916000199060031b1c19161760038301555b60808101518051906001600160401b0382116108e8576125c7826125be60048701546151f6565b6004870161556c565b602090601f83116001146127ec5760e0939291600091836127e1575b50508160011b916000199060031b1c19161760048401555b6005830160018060a01b0360a0830151166001600160601b0360a01b82541617905560c0810151600684015501518051906001600160401b0382116108e8576126548261264b60078601546151f6565b6007860161556c565b602090601f8311600114612771576007929160009183612766575b50508160011b916000199060031b1c1916179101555b60018060a01b038816600052600c60205260406000209081549a600160401b8c10156108e85761272b60209b6127559a612747987f6530349a6e8f9162290f6de52adc987794b9dcf2b88018454bede841bcf8c2829f806127399860016126ee93018155614fc8565b81549060031b9083821b91600019901b19161790556040519e8f9e8f92835260018060a01b031691015260408d61010091829101528d01916155d4565b918a830360608c01526155d4565b9187830360808901526155d4565b9184830360a08601526155d4565b3360c08301524260e08301520390a1005b015190508e8061266f565b906007840160005260206000209160005b601f19851681106127c95750918391600193600795601f198116106127b0575b505050811b01910155612685565b015160001960f88460031b161c191690558e80806127a2565b91926020600181928685015181550194019201612782565b015190508f806125e3565b906004850160005260206000209160005b601f1985168110612847575091839160019360e09695601f1981161061282e575b505050811b0160048401556125fb565b015160001960f88460031b161c191690558f808061281e565b919260206001819286850151815501940192016127fd565b015190508e8061257f565b9250600385016000526020600020906000935b601f19841685106128c1576001945083601f198116106128a8575b505050811b016003830155612597565b015160001960f88460031b161c191690558e8080612898565b8181015183556020948501946001909301929091019061287d565b015190508e8061251f565b9250600285016000526020600020906000935b601f198416851061293e576001945083601f19811610612925575b505050811b016002830155612537565b015160001960f88460031b161c191690558e8080612915565b818101518355602094850194600190930192909101906128fa565b60405162461bcd60e51b815260206004820152603960248201527f416b746f7220746964616b2062657268616b206d656e616d6261682072656b6160448201527f6d206d6564697320756e74756b2070617369656e20696e692e000000000000006064820152608490fd5b33600052600460205260ff6040600020541680612a5f575b156123fe576001600160a01b03881660009081526007602052604090205460ff1680612a26575b80612a16575b156123fe575060016123fe565b50612a21883361598a565b612a09565b50336000908152600360209081526040808320600501546001600160a01b038c8116855260069093529220600901548116911614612a03565b50600360205260ff600360406000200154166129dc565b5033600052600760205260ff604060002054166123f5565b34610e88576020366003190112610e88576001600160a01b03612aaf614ee1565b166000526004602052602060ff604060002054166040519015158152f35b34610e88576000366003190112610e885760405180600a54808252826020809301600a6000527fc65a7bb8d6351c1cf70c95a316cc6a92839c986682d98bc35f958f4883f9d2a89260005b85828210612b4357505050612b2f9250038361504e565b61196d604051928284938452830190615168565b85546001600160a01b0316845260019586019588955093019201612b18565b34610e88576020366003190112610e88576004356000818152600b60205260409020600101546001600160a01b039190821615612bf157600052600b602052604060002061196d8154918360018201541693600582015416600682015490612bcc60028401615230565b92612bd960038201615230565b611e106007612bea60048501615230565b9301615230565b60405162461bcd60e51b815260206004820152601c60248201527f52656b616d206d6564697320746964616b20646974656d756b616e2e000000006044820152606490fd5b34610e88576020366003190112610e8857600435600554811015610e88576121a1602091614f0d565b34610e88576020366003190112610e8857612d0a6001600160a01b0380612c84614ee1565b16806000526004602052612c9f60ff604060002054166156a5565b6000526003602052604060002090612d3b60ff6003840154169160058401541691612cc984615230565b93612d26612cd960018301615230565b91612d18612cf56004612cee60028501615230565b9301615474565b93604051998a9960c08b5260c08b0190615143565b9089820360208b0152615143565b908782036040890152615143565b91151560608601528482036080860152615168565b9060a08301520390f35b34610e88576020366003190112610e88576001600160a01b03612d66614ee1565b1660005260006020526040600020612d7d81615230565b61196d60ff60018401541692612d9560028201615230565b90612dae6004612da760038401615230565b9201615230565b91604051958695866151a5565b34610e88576000366003190112610e88576020600d54604051908152f35b34610e8857602060ff612def8261175f366150b5565b8101600181520301902054166040519015158152f35b34610e88576020366003190112610e885761196d612e29612e24614ee1565b615a07565b604051918291602083526020830190615143565b34610e88576020366003190112610e88576001600160a01b03612e5e614ee1565b16806000526000602052612e766040600020546151f6565b15612eaa576000526000602052604060002060ff6001820154169061196d612e9d82615230565b91612d9560028201615230565b60405162461bcd60e51b815260206004820152601960248201527f41646d696e20525320746964616b20646974656d756b616e2e000000000000006044820152606490fd5b34610e88576000366003190112610e885733600052602060008152612f186040600020546151f6565b151580613056575b612f29906154cc565b6000906000600a54905b818110612ffd5750612f448361553e565b92612f52604051948561504e565b808452612f61601f199161553e565b0136838501376000805b828110612f895750505061196d604051928284938452830190615168565b612f9281614f5a565b60018060a01b03809254600392831b1c166000526006865233826009604060002001541614612fcc575b5050612fc79061597b565b612f6b565b92612ff5918394612fdf612fc795614f5a565b9054911b1c16612fef82896159f3565b5261597b565b919086612fbc565b61300681614f5a565b905460039190911b1c6001600160a01b039081166000908152600685526040902060090154163314613041575b61303c9061597b565b612f33565b9261304e61303c9161597b565b939050613033565b50336000908152808252604090206001015460ff16612f20565b34610e88576040366003190112610e8857613089614ee1565b613091614ef7565b33600052602091600083526130aa6040600020546151f6565b15158061331e575b6130bb906154cc565b60018060a01b038082169384600052600481526130df60ff604060002054166155f5565b846000526003948582526130fe33846005604060002001541614615641565b82851692836000526007835261311b60ff6040600020541661592f565b83600052600683528060096040600020015416338114908115613315575b5015613292578360005260068352600960406000200180548281161561327d575b5050956000916000528083526004604060002001936000978554985b898110613247575b505050506131eb5750600160401b8410156108e85782610fec856131c89360017fd9a2627959a7f46a8b96c10424cdae1f1b65151551cd206b119aca54c0a86a5a98018155614fc8565b604080516001600160a01b03928316815292909116602083015281908101611075565b6084906040519062461bcd60e51b82526004820152602f60248201527f50617369656e20696e6920737564616820646974756761736b616e206b65206460448201526e37b5ba32b9103a32b939b2b13aba1760891b6064820152fd5b8282613253838a614fc8565b905490871b1c161461326d576132689061597b565b613176565b505050505060018680808061317e565b6001600160a01b03191633179055878061315a565b60405162461bcd60e51b815260048101849052604f60248201527f50617369656e20696e6920746964616b2074657264616674617220646920727560448201527f6d61682073616b697420416e646120617461752073756461682064692d61737360648201526e34b3b71035b2902929903630b4b71760891b608482015260a490fd5b90501588613139565b50336000908152808452604090206001015460ff166130b2565b34610e88576000366003190112610e88576040518060025480825282602080930160026000527f405787fa12a823e0f2b7631cc41b3ba8828b3321ca811111fa75cd3aa3bb5ace9260005b8582821061339a57505050612b2f9250038361504e565b85546001600160a01b0316845260019586019588955093019201613383565b34610e8857610100366003190112610e88576004356001600160401b038111610e88576133ea903690600401615116565b90610120526024356001600160401b038111610e885761340e903690600401615116565b610220526044356001600160401b038111610e8857613431903690600401615116565b906064356001600160401b038111610e8857613451903690600401615116565b906084356001600160401b038111610e8857613471903690600401615116565b9290936001600160401b0360a43511610e88576134933660a435600401615116565b9690976001600160401b0360c43511610e88576134b53660c435600401615116565b610180526101005260e4356001600160401b038111610e88576134dc903690600401615116565b6101405260a0523360005260076020526134fd60ff60406000205416615860565b3360005260066020526002604060002001604051613531816135236020820180956158ac565b03601f19810183528261504e565b51902060405160208101906102205184833761356060208261022051810160008382015203808452018261504e565b51902003613cdc575b33600052600660205260406000206001600160401b038b116108e8576135938b611a6183546151f6565b8a6000601f8211600114613c6b57600091613c5d575b508b60011b906000198d60031b1c19161781555b610220516001600160401b0381116108e8576135e16002830191611a6183546151f6565b600061022051601f8111600114613bf657506000610220519182613beb575b508160011b916000199060031b1c19161790555b6001600160401b0383116108e85761363c8361363360038401546151f6565b6003840161556c565b826000601f8211600114613b7d57600091613b72575b508360011b906000198560031b1c19161760038201555b6001600160401b0385116108e8576136918561368860048401546151f6565b6004840161556c565b846000601f8211600114613b0457600091613af9575b508560011b906000198760031b1c19161760048201555b6001600160401b0387116108e8576136e6876136dd60058401546151f6565b6005840161556c565b866000601f8211600114613a8957600091613a7e575b508760011b906000198960031b1c19161760058201555b6001600160401b0389116108e85761373b8961373260068401546151f6565b6006840161556c565b886000601f8211600114613a0e57600091613a03575b508960011b906000198b60031b1c19161760068201555b610180516001600160401b0381116108e8576137949061378b60078401546151f6565b6007840161556c565b600061018051601f811160011461399157506000610180519182613983575b508160011b916000199060031b1c19161760078201555b610140516001600160401b0381116108e8576137f6906137ed60088401546151f6565b6008840161556c565b6101405160006001601f83111461391157600891506000610140519182613904575b508160011b916000199060031b1c1916179101555b604051996101008b526101008b016101205191613849926155d4565b8a810360208c01526102205161385e926155d4565b9089820360408b0152613870926155d4565b908782036060890152613882926155d4565b908582036080870152613894926155d4565b9083820360a08501526138a6926155d4565b81810360c0830152610180519061010051916138c1926155d4565b81810360e08301526101405160a05133939283926138de926155d4565b037fb5951fd8739506c8cb2388cb4e71a5bbfbc8253099dee853100fb5de84f5b69491a2005b905060a05101358e613818565b60088301600052602060002090600090601f19841660a051925b81811061396b57509160019391856008969410613951575b505050811b0191015561382d565b0135600019600384901b60f8161c191690558e8080613943565b9193602060018192878701358155019501920161392b565b90506101005101358d6137b3565b60078301600052602060002060009261010051905b601f19841685106139eb576001945083601f198116106139d1575b505050811b0160078201556137ca565b0135600019600384901b60f8161c191690558d80806139c1565b818101358355602094850194600190930192016139a6565b90508a01358c613751565b90506006820160005260206000209060005b8c601f198d168210613a665750508a601f19811610613a4c575b5050600189811b016006820155613768565b8b013560001960038c901b60f8161c191690558b80613a3a565b60018394602093948493013581550193019101613a20565b90508801358c6136fc565b90506005820160005260206000209060005b8a601f198b168210613ae157505088601f19811610613ac7575b5050600187811b016005820155613713565b89013560001960038a901b60f8161c191690558b80613ab5565b60018394602093948493013581550193019101613a9b565b90508601358c6136a7565b90506004820160005260206000209060005b601f1988168110613b5a575086601f19811610613b40575b5050600185811b0160048201556136be565b870135600019600388901b60f8161c191690558b80613b2e565b9091602060018192858c013581550193019101613b16565b90508401358c613652565b90506003820160005260206000209060005b601f1986168110613bd3575084601f19811610613bb9575b5050600183811b016003820155613669565b850135600019600386901b60f8161c191690558b80613ba7565b9091602060018192858a013581550193019101613b8f565b90508401358e613600565b90601f198216908360005260206000209160005b818110613c4557509083600194939210613c2b575b5050811b019055613614565b860135600019600384901b60f8161c191690558e80613c1f565b9192602060018192868b013581550194019201613c0a565b90506101205101358c6135a9565b9050816000528b602060002091600061012051925b601f1981168210613cc257601f198116109050613ca8575b50505060018b811b0181556135bd565b013560001960038e901b60f8161c191690558b8080613c98565b909193602060018192878701358155019501920190613c80565b613cea610220511515615789565b60ff6040516102205183823760208161022051810160098152030190205416613d8e57336000526006602052613d276002604060002001546151f6565b613d57575b604051610220518282376020816102205181016009815203019020600160ff19825416179055613569565b336000526006602052613d7960206002604060002001604051928380926158ac565b6009815203019020805460ff19169055613d2c565b60405162461bcd60e51b815260206004820152602a60248201527f4e494b206261727520737564616820646967756e616b616e206f6c656820706160448201526939b4b2b7103630b4b71760b11b6064820152608490fd5b34610e8857602080600319360112610e8857613e00614ee1565b903360005260008152613e176040600020546151f6565b1515806140d5575b613e28906154cc565b60018060a01b03809216806000526006908183523384600960406000200154160361407657600052600c8252604060002090815490613e668261553e565b92613e74604051948561504e565b828452601f19613e838461553e565b018560005b82811061402c5750505060005b838110613f78575050505060405191808301818452825180915260408401918060408360051b8701019401926000965b838810613ed25786860387f35b90919293948380613f67600193603f198b8203018752895190815181528684830151168482015260e0613f40613f2d613f1a6040860151610100806040880152860190615143565b6060808701519086830390870152615143565b6080808601519085830390860152615143565b9260a08981830151169084015260c0808201519084015201519060e0818403910152615143565b970193019701969093929193613ec5565b80613f866140279284614fc8565b9054600391821b1c600052600b885261400760076040600020613fd660405194613faf86614ffc565b825486528d6001840154168d870152613fca60028401615230565b60408701528201615230565b6060850152613fe760048201615230565b60808501528b60058201541660a08501528781015460c085015201615230565b60e082015261401682886159f3565b5261402181876159f3565b5061597b565b613e95565b60405161403881614ffc565b6000815260008382015260608060408301528080830152806080830152600060a0830152600060c083015260e0820152828289010152018690613e88565b60405162461bcd60e51b815260048101849052603160248201527f416e646120746964616b2062657268616b206d656c696861742072656b616d2060448201527036b2b234b9903830b9b4b2b71034b7349760791b6064820152608490fd5b50336000908152808252604090206001015460ff16613e1f565b34610e88576020366003190112610e88576001600160a01b03614110614ee1565b166000526007602052602060ff604060002054166040519015158152f35b34610e8857610140366003190112610e88576004356001600160401b038111610e885761415f903690600401615116565b6102405260c0526024356001600160401b038111610e8857614185903690600401615116565b6101e05260e0526044356001600160401b038111610e88576141ab903690600401615116565b6101a052610160526064356001600160401b038111610e88576141d2903690600401615116565b906084356001600160401b038111610e88576141f2903690600401615116565b60a4939193356001600160401b038111610e8857614214903690600401615116565b9260c4356001600160401b038111610e8857614234903690600401615116565b91909260e4356001600160401b038111610e8857614256903690600401615116565b969097610104356001600160401b038111610e8857614279903690600401615116565b6080526101c052610124356001600160a01b0381169003610e885733600052600760205260ff60406000205416614d9e5733600052600460205260ff60406000205416614d4d576142ce6101e05115156156f1565b6142f860ff6040516101e05160e05182376020816101e0518101600881520301902054161561573d565b6143066101a0511515615789565b61433160ff6040516101a0516101605182376020816101a051810160098152030190205416156157d5565b610124356001600160a01b031660009081526020819052604090206001015460ff1615614ce95761441d9961440e976143e16143f0936143ff973360005260076020526040600020600160ff198254161790556143946040518061020052614fe0565b6143a4366102405160c05161506f565b61020051526143b9366101e05160e05161506f565b60206102005101526143d2366101a0516101605161506f565b6040610200510152369161506f565b6060610200510152369161506f565b6080610200510152369161506f565b60a0610200510152369161506f565b60c0610200510152369161506f565b60e0610200510152614435366080516101c05161506f565b61010061020051015260018060a01b036101243516610120610200510152336000526006602052604060002061020051518051906001600160401b0382116108e857819061448d8261448786546151f6565b8661556c565b602090601f8311600114614c7d57600092614c72575b50508160011b916000199060031b1c19161781555b60206102005101518051906001600160401b0382116108e85781906144ed826144e460018701546151f6565b6001870161556c565b602090601f8311600114614c0057600092614bf5575b50508160011b916000199060031b1c19161760018201555b60406102005101518051906001600160401b0382116108e85781906145508261454760028701546151f6565b6002870161556c565b602090601f8311600114614b8357600092614b78575b50508160011b916000199060031b1c19161760028201555b60606102005101518051906001600160401b0382116108e85781906145b3826145aa60038701546151f6565b6003870161556c565b602090601f8311600114614b0657600092614afb575b50508160011b916000199060031b1c19161760038201555b60806102005101518051906001600160401b0382116108e857819061460d826125be60048701546151f6565b602090601f8311600114614a8957600092614a7e575b50508160011b916000199060031b1c19161760048201555b60a06102005101518051906001600160401b0382116108e85781906146708261466760058701546151f6565b6005870161556c565b602090601f8311600114614a0c57600092614a01575b50508160011b916000199060031b1c19161760058201555b60c06102005101518051906001600160401b0382116108e85781906146d3826146ca60068701546151f6565b6006870161556c565b602090601f831160011461498f57600092614984575b50508160011b916000199060031b1c19161760068201555b60e06102005101518051906001600160401b0382116108e85781906147368261472d60078701546151f6565b6007870161556c565b602090601f831160011461491257600092614907575b50508160011b916000199060031b1c19161760078201555b610100610200510151908151916001600160401b0383116108e8576147908361075260088501546151f6565b602090601f841160011461489557600993916000918361488a575b50508160011b916000199060031b1c19161760088201555b0160018060a01b03610120610200510151166001600160601b0360a01b8254161790556147ef336155b1565b6040516101e05160e05182376020816101e05181016008815203019020600160ff198254161790556040516101a0516101605182376020816101a05181016009815203019020600160ff198254161790556040517f95224f05331a37376934686bef8f2d81b0a089124f71ffd7f0add127fa930baf33918061083c610124356101a051610160516101e05160e0516102405160c05188615821565b0151905084806147ab565b906008830160005260206000209160005b601f19861681106148ef5750918491600193600996601f198116106148d6575b505050811b0160088201556147c3565b015160001960f88460031b161c191690558480806148c6565b919260206001819286850151815501940192016148a6565b01519050838061474c565b9250600784016000526020600020906000935b601f1984168510614969576001945083601f19811610614950575b505050811b016007820155614764565b015160001960f88460031b161c19169055838080614940565b81810151835560209485019460019093019290910190614925565b0151905083806146e9565b9250600684016000526020600020906000935b601f19841685106149e6576001945083601f198116106149cd575b505050811b016006820155614701565b015160001960f88460031b161c191690558380806149bd565b818101518355602094850194600190930192909101906149a2565b015190508380614686565b9250600584016000526020600020906000935b601f1984168510614a63576001945083601f19811610614a4a575b505050811b01600582015561469e565b015160001960f88460031b161c19169055838080614a3a565b81810151835560209485019460019093019290910190614a1f565b015190508380614623565b9250600484016000526020600020906000935b601f1984168510614ae0576001945083601f19811610614ac7575b505050811b01600482015561463b565b015160001960f88460031b161c19169055838080614ab7565b81810151835560209485019460019093019290910190614a9c565b0151905083806145c9565b9250600384016000526020600020906000935b601f1984168510614b5d576001945083601f19811610614b44575b505050811b0160038201556145e1565b015160001960f88460031b161c19169055838080614b34565b81810151835560209485019460019093019290910190614b19565b015190508380614566565b9250600284016000526020600020906000935b601f1984168510614bda576001945083601f19811610614bc1575b505050811b01600282015561457e565b015160001960f88460031b161c19169055838080614bb1565b81810151835560209485019460019093019290910190614b96565b015190508380614503565b9250600184016000526020600020906000935b601f1984168510614c57576001945083601f19811610614c3e575b505050811b01600182015561451b565b015160001960f88460031b161c19169055838080614c2e565b81810151835560209485019460019093019290910190614c13565b0151905083806144a3565b9250836000526020600020906000935b601f1984168510614cce576001945083601f19811610614cb5575b505050811b0181556144b8565b015160001960f88460031b161c19169055838080614ca8565b81810151835560209485019460019093019290910190614c8d565b60405162461bcd60e51b815260206004820152603660248201527f52756d61682053616b69742079616e6720646970696c696820746964616b206160448201527535ba34b31030ba30ba903a34b230b5903b30b634b21760511b6064820152608490fd5b60405162461bcd60e51b8152602060048201526024808201527f416c616d617420696e6920746572646166746172207365626167616920646f6b6044820152633a32b91760e11b6064820152608490fd5b60405162461bcd60e51b8152602060048201526024808201527f416e64612073756461682074657264616674617220736562616761692070617360448201526334b2b71760e11b6064820152608490fd5b34610e8857602060ff614e058261175f366150b5565b8101600881520301902054166040519015158152f35b34610e88576020366003190112610e8857600435600554811015614e44576121a1602091614f0d565b60405162461bcd60e51b815260206004820152601a60248201527f496e64656b7320646f6b74657220746964616b2076616c69642e0000000000006044820152606490fd5b34610e88576040366003190112610e8857614ea2614ee1565b6001600160a01b03166000908152600c6020526040902080546024359190821015610e8857602091614ed391614fc8565b90546040519160031b1c8152f35b600435906001600160a01b0382168203610e8857565b602435906001600160a01b0382168203610e8857565b600554811015614f445760056000527f036b6384b5eca791c62761152d0c79bb0604c104a5fb6f4eb0703f3154bb3db00190600090565b634e487b7160e01b600052603260045260246000fd5b600a54811015614f4457600a6000527fc65a7bb8d6351c1cf70c95a316cc6a92839c986682d98bc35f958f4883f9d2a80190600090565b600254811015614f445760026000527f405787fa12a823e0f2b7631cc41b3ba8828b3321ca811111fa75cd3aa3bb5ace0190600090565b8054821015614f445760005260206000200190600090565b61014081019081106001600160401b038211176108e857604052565b61010081019081106001600160401b038211176108e857604052565b602081019081106001600160401b038211176108e857604052565b604081019081106001600160401b038211176108e857604052565b90601f801991011681019081106001600160401b038211176108e857604052565b9291926001600160401b0382116108e85760405191615098601f8201601f19166020018461504e565b829481845281830111610e88578281602093846000960137010152565b6020600319820112610e8857600435906001600160401b038211610e885780602383011215610e88578160246150f09360040135910161506f565b90565b60005b8381106151065750506000910152565b81810151838201526020016150f6565b9181601f84011215610e88578235916001600160401b038311610e885760208381860195010111610e8857565b9060209161515c815180928185528580860191016150f3565b601f01601f1916010190565b90815180825260208080930193019160005b828110615188575050505090565b83516001600160a01b03168552938101939281019260010161517a565b93906151e8926150f096946151c56151da9360a0895260a0890190615143565b91151560208801528682036040880152615143565b908482036060860152615143565b916080818403910152615143565b90600182811c92168015615226575b602083101461521057565b634e487b7160e01b600052602260045260246000fd5b91607f1691615205565b9060405191826000825492615244846151f6565b9081845260019485811690816000146152b35750600114615270575b505061526e9250038361504e565b565b9093915060005260209081600020936000915b81831061529b57505061526e93508201013880615260565b85548884018501529485019487945091830191615283565b91505061526e94506020925060ff191682840152151560051b8201013880615260565b94906150f09896979461530d615329949561531b93895260018060a01b0380971660208a01526101008060408b0152890190615143565b908782036060890152615143565b908582036080870152615143565b941660a083015260c082015260e0818403910152615143565b98956153b36153dd966153a58c9d9e9d6101209c986153976153cf996153896153ec9f9a61537b6153c19b610140808952880190615143565b908682036020880152615143565b908482036040860152615143565b916060818403910152615143565b8c810360808e015290615143565b908a820360a08c0152615143565b9088820360c08a0152615143565b9086820360e0880152615143565b90848203610100860152615143565b6001600160a01b03909416910152565b6080600319820112610e88576004356001600160a01b0381168103610e8857916001600160401b03602435818111610e88578361543b91600401615116565b93909392604435838111610e88578261545691600401615116565b93909392606435918211610e885761547091600401615116565b9091565b9060405191828154918282526020928383019160005283600020936000905b8282106154a95750505061526e9250038361504e565b85546001600160a01b031684526001958601958895509381019390910190615493565b156154d357565b60405162461bcd60e51b815260206004820152603c60248201527f48616e79612061646d696e2052532079616e6720616b7469662079616e67206460448201527f61706174206d656e6a616c616e6b616e2066756e67736920696e692e000000006064820152608490fd5b6001600160401b0381116108e85760051b60200190565b818110615560575050565b60008155600101615555565b9190601f811161557b57505050565b61526e926000526020600020906020601f840160051c830193106155a7575b601f0160051c0190615555565b909150819061559a565b600a5490600160401b8210156108e857610fec82600161526e9401600a55614f5a565b908060209392818452848401376000828201840152601f01601f1916010190565b156155fc57565b60405162461bcd60e51b815260206004820152601760248201527f446f6b74657220746964616b207465726461667461722e0000000000000000006044820152606490fd5b1561564857565b60405162461bcd60e51b815260206004820152602f60248201527f446f6b74657220696e6920746964616b2074657264616674617220646920727560448201526e36b0b41039b0b5b4ba1020b732309760891b6064820152608490fd5b156156ac57565b60405162461bcd60e51b815260206004820152601760248201527f446f6b74657220746964616b20646974656d756b616e2e0000000000000000006044820152606490fd5b156156f857565b60405162461bcd60e51b815260206004820152601d60248201527f49442050617369656e20746964616b20626f6c6568206b6f736f6e672e0000006044820152606490fd5b1561574457565b60405162461bcd60e51b815260206004820152601a60248201527f49442050617369656e20737564616820646967756e616b616e2e0000000000006044820152606490fd5b1561579057565b60405162461bcd60e51b815260206004820152601e60248201527f4e494b2050617369656e20746964616b20626f6c6568206b6f736f6e672e00006044820152606490fd5b156157dc57565b60405162461bcd60e51b815260206004820152601b60248201527f4e494b2050617369656e20737564616820646967756e616b616e2e00000000006044820152606490fd5b9591926153ec9461584461585293606098969b9a9b60808b5260808b01916155d4565b9188830360208a01526155d4565b9185830360408701526155d4565b1561586757565b60405162461bcd60e51b815260206004820152601760248201527f50617369656e20746964616b20646974656d756b616e2e0000000000000000006044820152606490fd5b6000929181546158bb816151f6565b9260019180831690811561591457506001146158d8575b50505050565b90919293945060005260209081600020906000915b85831061590357505050500190388080806158d2565b8054858401529183019181016158ed565b60ff19168452505050811515909102019150388080806158d2565b1561593657565b60405162461bcd60e51b815260206004820152601760248201527f50617369656e20746964616b207465726461667461722e0000000000000000006044820152606490fd5b60001981146110e45760010190565b9060018060a01b038092166000526003918260205260046040600020016000938154945b8581106159c057505050505050600090565b836159cb8285614fc8565b905490841b1c16848616146159e8576159e39061597b565b6159ae565b505050505050600190565b8051821015614f445760209160051b010190565b60018060a01b0316600081815260ff6020928284526040928391615a2d838320546151f6565b615adf5780825260048652838383205416615a9057815260078552205416615a7057662ab735b737bbb760c91b905191615a6683615033565b6007835282015290565b652830b9b4b2b760d11b905191615a8683615033565b6006835282015290565b50600380865291902001541615615ab757652237b5ba32b960d11b905191615a8683615033565b6d24b730b1ba34bb32a237b5ba32b960911b905191615ad583615033565b600e835282015290565b815280855220600101541615615b06576641646d696e525360c81b905191615a6683615033565b6e496e61637469766541646d696e525360881b905191615b2583615033565b600f83528201529056fea264697066735822122035b168fbee97db70223fe094075c1918c9da900b8f6853c0349efabe1950224f64736f6c63430008130033705805f9c18a9381be07edab4bcec28612355cb4fbde7b07f1fd23fee18aada8",
  "immutableReferences": {},
  "source": "// SPDX-License-Identifier: MIT\r\npragma solidity ^0.8.19;\r\n\r\ncontract RekamMedisRS {\r\n    struct AdminRS {\r\n        string namaRumahSakit;\r\n        bool aktif;\r\n        string alamatRumahSakit;\r\n        string kota;\r\n        string NIBRS;\r\n    }\r\n    mapping(address => AdminRS) public dataAdmin;\r\n    mapping(string => bool) public isNIBRSUsed;\r\n    address[] public daftarAdmin;\r\n\r\n    struct Dokter {\r\n        string nama;\r\n        string spesialisasi;\r\n        string nomorLisensi;\r\n        bool aktif;\r\n        address[] assignedPasien;\r\n        address adminRS;\r\n    }\r\n    mapping(address => Dokter) public dataDokter;\r\n    mapping(address => bool) public isDokter;\r\n    address[] public daftarDokter;\r\n\r\n    struct Pasien {\r\n        string nama;\r\n        string ID;\r\n        string NIK;\r\n        string golonganDarah;\r\n        string tanggalLahir;\r\n        string gender;\r\n        string alamat;\r\n        string noTelepon;\r\n        string email;\r\n        address rumahSakitPenanggungJawab;\r\n    }\r\n    mapping(address => Pasien) public dataPasien;\r\n    mapping(address => bool) public isPasien;\r\n    mapping(string => bool) public isPatientIDUsed;\r\n    mapping(string => bool) public isPatientNIKUsed;\r\n    address[] public daftarPasien;\r\n\r\n    struct RekamMedisData {\r\n        uint id;\r\n        address pasien;\r\n        string diagnosa;\r\n        string foto;\r\n        string catatan;\r\n        address pembuat;\r\n        uint256 timestampPembuatan;\r\n        string tipeRekamMedis;\r\n    }\r\n    mapping(uint => RekamMedisData) public rekamMedis;\r\n    mapping(address => uint[]) public rekamMedisByPasien;\r\n    uint public rekamMedisCount;\r\n\r\n    event AdminRSTerdaftar(\r\n        address indexed admin,\r\n        string namaRumahSakit,\r\n        string alamatRumahSakit,\r\n        string kota,\r\n        string NIBRS\r\n    );\r\n\r\n    event DokterTerdaftar(address indexed dokter, string nama, address adminRS);\r\n    event DokterStatusDiubah(address indexed dokter, bool aktif);\r\n    event DokterInfoDiperbarui(\r\n        address indexed dokter,\r\n        string nama,\r\n        string spesialisasi,\r\n        string nomorLisensi,\r\n        address indexed adminRS\r\n    );\r\n    event PasienTerdaftar(\r\n        address indexed pasien,\r\n        string nama,\r\n        string IDPasien,\r\n        string NIKPasien,\r\n        address adminRS\r\n    );\r\n    event PasienPindahRS(\r\n        address indexed pasien,\r\n        address oldAdminRS,\r\n        address newAdminRS\r\n    );\r\n    event PasienDiassignKeDokter(address dokter, address pasien);\r\n    event PasienDiunassignDariDokter(address dokter, address pasien);\r\n\r\n    event RekamMedisDitambahkan(\r\n        uint id,\r\n        address pasien,\r\n        string diagnosa,\r\n        string foto,\r\n        string catatan,\r\n        string tipeRekamMedis,\r\n        address pembuat,\r\n        uint timestamp\r\n    );\r\n\r\n    event PasienDataDiperbarui(\r\n        address indexed pasien,\r\n        string nama,\r\n        string NIK,\r\n        string golonganDarah,\r\n        string tanggalLahir,\r\n        string gender,\r\n        string alamat,\r\n        string noTelepon,\r\n        string email\r\n    );\r\n\r\n    constructor() {\r\n        // Tambahkan Admin RS pertama\r\n        address admin1 = 0x153f67a7B7169Ce3F13F8A81DC9CAe0bC27dbf21;\r\n        string memory namaRS1 = \"RS Siloam Malang\";\r\n        string memory alamatRS1 = \"Jl. Raya Langsep No. 2, Malang\";\r\n        string memory kotaRS1 = \"Malang\";\r\n        string memory NIBRS1 = \"NIBRS-SM001\";\r\n\r\n        dataAdmin[admin1] = AdminRS({\r\n            namaRumahSakit: namaRS1,\r\n            aktif: true,\r\n            alamatRumahSakit: alamatRS1,\r\n            kota: kotaRS1,\r\n            NIBRS: NIBRS1\r\n        });\r\n        daftarAdmin.push(admin1);\r\n        isNIBRSUsed[NIBRS1] = true;\r\n        emit AdminRSTerdaftar(admin1, namaRS1, alamatRS1, kotaRS1, NIBRS1);\r\n\r\n        // Tambahkan Admin RS kedua\r\n        address admin2 = 0xd95A4eE9149fcb31C535eF6CbD65f4c23d9f7997;\r\n        string memory namaRS2 = \"RS Siloam Yogya\";\r\n        string memory alamatRS2 = \"Jl. Laksda Adisucipto No. 32, Yogyakarta\";\r\n        string memory kotaRS2 = \"Yogyakarta\";\r\n        string memory NIBRS2 = \"NIBRS-SY001\";\r\n\r\n        dataAdmin[admin2] = AdminRS({\r\n            namaRumahSakit: namaRS2,\r\n            aktif: true,\r\n            alamatRumahSakit: alamatRS2,\r\n            kota: kotaRS2,\r\n            NIBRS: NIBRS2\r\n        });\r\n        daftarAdmin.push(admin2);\r\n        isNIBRSUsed[NIBRS2] = true;\r\n        emit AdminRSTerdaftar(admin2, namaRS2, alamatRS2, kotaRS2, NIBRS2);\r\n    }\r\n\r\n    modifier hanyaAdminRS() {\r\n        require(\r\n            bytes(dataAdmin[msg.sender].namaRumahSakit).length > 0 &&\r\n                dataAdmin[msg.sender].aktif,\r\n            \"Hanya admin RS yang aktif yang dapat menjalankan fungsi ini.\"\r\n        );\r\n        _;\r\n    }\r\n\r\n    modifier hanyaDokterAktif() {\r\n        require(\r\n            isDokter[msg.sender] && dataDokter[msg.sender].aktif,\r\n            \"Hanya dokter yang aktif yang dapat menjalankan fungsi ini.\"\r\n        );\r\n        _;\r\n    }\r\n\r\n    modifier hanyaDokterAktifUntukPasien(address _pasien) {\r\n        require(\r\n            isDokter[msg.sender] && dataDokter[msg.sender].aktif,\r\n            \"Hanya dokter aktif.\"\r\n        );\r\n        require(isPasien[_pasien], \"Pasien tidak terdaftar.\");\r\n        require(\r\n            dataDokter[msg.sender].adminRS ==\r\n                dataPasien[_pasien].rumahSakitPenanggungJawab,\r\n            \"Dokter dan pasien tidak berada di rumah sakit yang sama.\"\r\n        );\r\n        bool assigned = false;\r\n        address[] storage listPasienDitugaskan = dataDokter[msg.sender]\r\n            .assignedPasien;\r\n        for (uint i = 0; i < listPasienDitugaskan.length; i++) {\r\n            if (listPasienDitugaskan[i] == _pasien) {\r\n                assigned = true;\r\n                break;\r\n            }\r\n        }\r\n        require(\r\n            assigned,\r\n            \"Dokter ini tidak ditugaskan untuk menangani pasien tersebut.\"\r\n        );\r\n        _;\r\n    }\r\n\r\n    modifier hanyaPasien(address _pasien) {\r\n        require(\r\n            msg.sender == _pasien,\r\n            \"Hanya pasien yang bersangkutan yang dapat menjalankan fungsi ini.\"\r\n        );\r\n        _;\r\n    }\r\n\r\n    // Fungsi updateAdminRSDetails telah dihapus sepenuhnya\r\n\r\n    function getAllAdminRSAddresses() external view returns (address[] memory) {\r\n        return daftarAdmin;\r\n    }\r\n\r\n    function totalAdmin() external view returns (uint) {\r\n        return daftarAdmin.length;\r\n    }\r\n\r\n    function getAdminByIndex(uint idx) external view returns (address) {\r\n        require(idx < daftarAdmin.length, \"Indeks admin RS tidak valid.\");\r\n        return daftarAdmin[idx];\r\n    }\r\n\r\n    function getAdminRS(\r\n        address _admin\r\n    )\r\n        external\r\n        view\r\n        returns (\r\n            string memory namaRumahSakit,\r\n            bool aktif,\r\n            string memory alamatRumahSakit,\r\n            string memory kota,\r\n            string memory NIBRS\r\n        )\r\n    {\r\n        require(\r\n            bytes(dataAdmin[_admin].namaRumahSakit).length > 0,\r\n            \"Admin RS tidak ditemukan.\"\r\n        );\r\n        AdminRS storage adminData = dataAdmin[_admin];\r\n        return (\r\n            adminData.namaRumahSakit,\r\n            adminData.aktif,\r\n            adminData.alamatRumahSakit,\r\n            adminData.kota,\r\n            adminData.NIBRS\r\n        );\r\n    }\r\n\r\n    function registerDokter(\r\n        address _dokter,\r\n        string calldata _nama,\r\n        string calldata _spesialisasi,\r\n        string calldata _nomorLisensi\r\n    ) external hanyaAdminRS {\r\n        require(\r\n            !isDokter[_dokter],\r\n            \"Alamat ini sudah terdaftar sebagai dokter.\"\r\n        );\r\n        require(\r\n            !isPasien[_dokter],\r\n            \"Alamat ini terdaftar sebagai pasien, tidak bisa menjadi dokter.\"\r\n        );\r\n        isDokter[_dokter] = true;\r\n        dataDokter[_dokter] = Dokter({\r\n            nama: _nama,\r\n            spesialisasi: _spesialisasi,\r\n            nomorLisensi: _nomorLisensi,\r\n            aktif: true,\r\n            assignedPasien: new address[](0),\r\n            adminRS: msg.sender\r\n        });\r\n        daftarDokter.push(_dokter);\r\n        emit DokterTerdaftar(_dokter, _nama, msg.sender);\r\n    }\r\n\r\n    function updateDokterInfo(\r\n        address _dokter,\r\n        string calldata _namaBaru,\r\n        string calldata _spesialisasiBaru,\r\n        string calldata _nomorLisensiBaru\r\n    ) external hanyaAdminRS {\r\n        require(isDokter[_dokter], \"Dokter tidak terdaftar di sistem.\");\r\n        require(\r\n            dataDokter[_dokter].adminRS == msg.sender,\r\n            \"Anda bukan admin RS yang berhak untuk dokter ini.\"\r\n        );\r\n\r\n        Dokter storage dokterToUpdate = dataDokter[_dokter];\r\n        dokterToUpdate.nama = _namaBaru;\r\n        dokterToUpdate.spesialisasi = _spesialisasiBaru;\r\n        dokterToUpdate.nomorLisensi = _nomorLisensiBaru;\r\n\r\n        emit DokterInfoDiperbarui(\r\n            _dokter,\r\n            _namaBaru,\r\n            _spesialisasiBaru,\r\n            _nomorLisensiBaru,\r\n            msg.sender\r\n        );\r\n    }\r\n\r\n    function setStatusDokter(\r\n        address _dokter,\r\n        bool _aktif\r\n    ) external hanyaAdminRS {\r\n        require(isDokter[_dokter], \"Dokter tidak terdaftar.\");\r\n        require(\r\n            dataDokter[_dokter].adminRS == msg.sender,\r\n            \"Dokter ini tidak terdaftar di rumah sakit Anda.\"\r\n        );\r\n        dataDokter[_dokter].aktif = _aktif;\r\n        emit DokterStatusDiubah(_dokter, _aktif);\r\n    }\r\n\r\n    function totalDokter() external view returns (uint) {\r\n        return daftarDokter.length;\r\n    }\r\n\r\n    function getDokterByIndex(uint idx) external view returns (address) {\r\n        require(idx < daftarDokter.length, \"Indeks dokter tidak valid.\");\r\n        return daftarDokter[idx];\r\n    }\r\n\r\n    function getDokter(\r\n        address _dokter\r\n    )\r\n        external\r\n        view\r\n        returns (\r\n            string memory nama,\r\n            string memory spesialisasi,\r\n            string memory nomorLisensi,\r\n            bool aktif,\r\n            address[] memory pasienList,\r\n            address adminRS\r\n        )\r\n    {\r\n        require(isDokter[_dokter], \"Dokter tidak ditemukan.\");\r\n        Dokter storage d = dataDokter[_dokter];\r\n        return (\r\n            d.nama,\r\n            d.spesialisasi,\r\n            d.nomorLisensi,\r\n            d.aktif,\r\n            d.assignedPasien,\r\n            d.adminRS\r\n        );\r\n    }\r\n\r\n    function getAssignedPatients(\r\n        address _dokter\r\n    ) external view returns (address[] memory) {\r\n        require(isDokter[_dokter], \"Dokter tidak ditemukan.\");\r\n        return dataDokter[_dokter].assignedPasien;\r\n    }\r\n\r\n    function registerPasien(\r\n        address _pasien,\r\n        string calldata _nama,\r\n        string calldata _IDPasien,\r\n        string calldata _NIKPasien,\r\n        address _adminRS\r\n    ) external hanyaAdminRS {\r\n        require(\r\n            !isPasien[_pasien],\r\n            \"Pasien sudah terdaftar dengan alamat ini.\"\r\n        );\r\n        require(\r\n            !isDokter[_pasien],\r\n            \"Alamat ini terdaftar sebagai dokter, tidak bisa menjadi pasien.\"\r\n        );\r\n        require(bytes(_IDPasien).length > 0, \"ID Pasien tidak boleh kosong.\");\r\n        require(!isPatientIDUsed[_IDPasien], \"ID Pasien sudah digunakan.\");\r\n        require(bytes(_NIKPasien).length > 0, \"NIK Pasien tidak boleh kosong.\");\r\n        require(!isPatientNIKUsed[_NIKPasien], \"NIK Pasien sudah digunakan.\");\r\n\r\n        require(\r\n            dataAdmin[_adminRS].aktif,\r\n            \"Admin RS yang dirujuk tidak aktif.\"\r\n        );\r\n        require(\r\n            msg.sender == _adminRS,\r\n            \"Hanya admin RS penanggung jawab yang bisa mendaftarkan pasien ini.\"\r\n        );\r\n\r\n        isPasien[_pasien] = true;\r\n        dataPasien[_pasien] = Pasien({\r\n            nama: _nama,\r\n            ID: _IDPasien,\r\n            NIK: _NIKPasien,\r\n            golonganDarah: \"\",\r\n            tanggalLahir: \"\",\r\n            gender: \"\",\r\n            alamat: \"\",\r\n            noTelepon: \"\",\r\n            email: \"\",\r\n            rumahSakitPenanggungJawab: _adminRS\r\n        });\r\n        daftarPasien.push(_pasien);\r\n        isPatientIDUsed[_IDPasien] = true;\r\n        isPatientNIKUsed[_NIKPasien] = true;\r\n        emit PasienTerdaftar(_pasien, _nama, _IDPasien, _NIKPasien, _adminRS);\r\n    }\r\n\r\n    function selfRegisterPasien(\r\n        string calldata _nama,\r\n        string calldata _IDPasien,\r\n        string calldata _NIKPasien,\r\n        string calldata _golonganDarah,\r\n        string calldata _tanggalLahir,\r\n        string calldata _gender,\r\n        string calldata _alamat,\r\n        string calldata _noTelepon,\r\n        string calldata _email,\r\n        address _adminRS\r\n    ) external {\r\n        require(!isPasien[msg.sender], \"Anda sudah terdaftar sebagai pasien.\");\r\n        require(!isDokter[msg.sender], \"Alamat ini terdaftar sebagai dokter.\");\r\n        require(bytes(_IDPasien).length > 0, \"ID Pasien tidak boleh kosong.\");\r\n        require(!isPatientIDUsed[_IDPasien], \"ID Pasien sudah digunakan.\");\r\n        require(bytes(_NIKPasien).length > 0, \"NIK Pasien tidak boleh kosong.\");\r\n        require(!isPatientNIKUsed[_NIKPasien], \"NIK Pasien sudah digunakan.\");\r\n        require(\r\n            dataAdmin[_adminRS].aktif,\r\n            \"Rumah Sakit yang dipilih tidak aktif atau tidak valid.\"\r\n        );\r\n\r\n        isPasien[msg.sender] = true;\r\n        dataPasien[msg.sender] = Pasien({\r\n            nama: _nama,\r\n            ID: _IDPasien,\r\n            NIK: _NIKPasien,\r\n            golonganDarah: _golonganDarah,\r\n            tanggalLahir: _tanggalLahir,\r\n            gender: _gender,\r\n            alamat: _alamat,\r\n            noTelepon: _noTelepon,\r\n            email: _email,\r\n            rumahSakitPenanggungJawab: _adminRS\r\n        });\r\n        daftarPasien.push(msg.sender);\r\n        isPatientIDUsed[_IDPasien] = true;\r\n        isPatientNIKUsed[_NIKPasien] = true;\r\n        emit PasienTerdaftar(\r\n            msg.sender,\r\n            _nama,\r\n            _IDPasien,\r\n            _NIKPasien,\r\n            _adminRS\r\n        );\r\n    }\r\n\r\n    function updatePasienData(\r\n        string calldata _nama,\r\n        string calldata _NIK,\r\n        string calldata _golonganDarah,\r\n        string calldata _tanggalLahir,\r\n        string calldata _gender,\r\n        string calldata _alamat,\r\n        string calldata _noTelepon,\r\n        string calldata _email\r\n    ) external hanyaPasien(msg.sender) {\r\n        require(isPasien[msg.sender], \"Pasien tidak ditemukan.\");\r\n\r\n        // Validasi NIK baru jika ada perubahan\r\n        if (\r\n            keccak256(abi.encodePacked(dataPasien[msg.sender].NIK)) !=\r\n            keccak256(abi.encodePacked(_NIK))\r\n        ) {\r\n            require(bytes(_NIK).length > 0, \"NIK Pasien tidak boleh kosong.\");\r\n            require(\r\n                !isPatientNIKUsed[_NIK],\r\n                \"NIK baru sudah digunakan oleh pasien lain.\"\r\n            );\r\n            // Nonaktifkan NIK lama (jika ada) dan aktifkan NIK baru\r\n            if (bytes(dataPasien[msg.sender].NIK).length > 0) {\r\n                isPatientNIKUsed[dataPasien[msg.sender].NIK] = false;\r\n            }\r\n            isPatientNIKUsed[_NIK] = true;\r\n        }\r\n\r\n        Pasien storage pasienToUpdate = dataPasien[msg.sender];\r\n        pasienToUpdate.nama = _nama;\r\n        pasienToUpdate.NIK = _NIK;\r\n        pasienToUpdate.golonganDarah = _golonganDarah;\r\n        pasienToUpdate.tanggalLahir = _tanggalLahir;\r\n        pasienToUpdate.gender = _gender;\r\n        pasienToUpdate.alamat = _alamat;\r\n        pasienToUpdate.noTelepon = _noTelepon;\r\n        pasienToUpdate.email = _email;\r\n\r\n        emit PasienDataDiperbarui(\r\n            msg.sender,\r\n            _nama,\r\n            _NIK,\r\n            _golonganDarah,\r\n            _tanggalLahir,\r\n            _gender,\r\n            _alamat,\r\n            _noTelepon,\r\n            _email\r\n        );\r\n    }\r\n\r\n    function updatePasienRumahSakit(\r\n        address _newAdminRS\r\n    ) external hanyaPasien(msg.sender) {\r\n        require(isPasien[msg.sender], \"Pasien tidak ditemukan.\");\r\n        require(\r\n            dataAdmin[_newAdminRS].aktif,\r\n            \"Rumah Sakit baru tidak aktif atau tidak valid.\"\r\n        );\r\n        require(\r\n            dataPasien[msg.sender].rumahSakitPenanggungJawab != _newAdminRS,\r\n            \"Anda sudah terdaftar di rumah sakit ini.\"\r\n        );\r\n\r\n        address oldAdminRS = dataPasien[msg.sender].rumahSakitPenanggungJawab;\r\n        dataPasien[msg.sender].rumahSakitPenanggungJawab = _newAdminRS;\r\n\r\n        emit PasienPindahRS(msg.sender, oldAdminRS, _newAdminRS);\r\n    }\r\n\r\n    function getDaftarPasien() external view returns (address[] memory) {\r\n        return daftarPasien;\r\n    }\r\n\r\n    function totalPasien() public view returns (uint) {\r\n        return daftarPasien.length;\r\n    }\r\n\r\n    function getPasienData(\r\n        address _pasien\r\n    )\r\n        external\r\n        view\r\n        returns (\r\n            string memory nama,\r\n            string memory ID,\r\n            string memory NIK,\r\n            string memory golonganDarah,\r\n            string memory tanggalLahir,\r\n            string memory gender,\r\n            string memory alamat,\r\n            string memory noTelepon,\r\n            string memory email,\r\n            address rumahSakitPenanggungJawab\r\n        )\r\n    {\r\n        require(isPasien[_pasien], \"Pasien tidak ditemukan.\");\r\n        Pasien storage p = dataPasien[_pasien];\r\n        return (\r\n            p.nama,\r\n            p.ID,\r\n            p.NIK,\r\n            p.golonganDarah,\r\n            p.tanggalLahir,\r\n            p.gender,\r\n            p.alamat,\r\n            p.noTelepon,\r\n            p.email,\r\n            p.rumahSakitPenanggungJawab\r\n        );\r\n    }\r\n\r\n    function assignPasienToDokter(\r\n        address _dokter,\r\n        address _pasien\r\n    ) external hanyaAdminRS {\r\n        require(isDokter[_dokter], \"Dokter tidak terdaftar.\");\r\n        require(\r\n            dataDokter[_dokter].adminRS == msg.sender,\r\n            \"Dokter ini tidak terdaftar di rumah sakit Anda.\"\r\n        );\r\n        require(isPasien[_pasien], \"Pasien tidak terdaftar.\");\r\n\r\n        require(\r\n            (dataPasien[_pasien].rumahSakitPenanggungJawab == msg.sender ||\r\n                dataPasien[_pasien].rumahSakitPenanggungJawab == address(0)),\r\n            \"Pasien ini tidak terdaftar di rumah sakit Anda atau sudah di-assign ke RS lain.\"\r\n        );\r\n\r\n        if (dataPasien[_pasien].rumahSakitPenanggungJawab == address(0)) {\r\n            dataPasien[_pasien].rumahSakitPenanggungJawab = msg.sender;\r\n        }\r\n\r\n        bool alreadyAssigned = false;\r\n        address[] storage listPasienDitugaskan = dataDokter[_dokter]\r\n            .assignedPasien;\r\n        for (uint i = 0; i < listPasienDitugaskan.length; i++) {\r\n            if (listPasienDitugaskan[i] == _pasien) {\r\n                alreadyAssigned = true;\r\n                break;\r\n            }\r\n        }\r\n        require(\r\n            !alreadyAssigned,\r\n            \"Pasien ini sudah ditugaskan ke dokter tersebut.\"\r\n        );\r\n\r\n        listPasienDitugaskan.push(_pasien);\r\n        emit PasienDiassignKeDokter(_dokter, _pasien);\r\n    }\r\n\r\n    function unassignPasienFromDokter(\r\n        address _dokter,\r\n        address _pasien\r\n    ) external hanyaAdminRS {\r\n        require(isDokter[_dokter], \"Dokter tidak terdaftar.\");\r\n        require(\r\n            dataDokter[_dokter].adminRS == msg.sender,\r\n            \"Dokter ini tidak terdaftar di rumah sakit Anda.\"\r\n        );\r\n        require(isPasien[_pasien], \"Pasien tidak terdaftar.\");\r\n        require(\r\n            dataPasien[_pasien].rumahSakitPenanggungJawab == msg.sender,\r\n            \"Pasien ini tidak terdaftar di rumah sakit Anda.\"\r\n        );\r\n\r\n        bool found = false;\r\n        address[] storage listPasienDitugaskan = dataDokter[_dokter]\r\n            .assignedPasien;\r\n        for (uint i = 0; i < listPasienDitugaskan.length; i++) {\r\n            if (listPasienDitugaskan[i] == _pasien) {\r\n                listPasienDitugaskan[i] = listPasienDitugaskan[\r\n                    listPasienDitugaskan.length - 1\r\n                ];\r\n                listPasienDitugaskan.pop();\r\n                found = true;\r\n                break;\r\n            }\r\n        }\r\n        require(found, \"Pasien tidak ditugaskan ke dokter ini.\");\r\n        emit PasienDiunassignDariDokter(_dokter, _pasien);\r\n    }\r\n\r\n    function isAssigned(\r\n        address _dokter,\r\n        address _pasien\r\n    ) internal view returns (bool) {\r\n        address[] storage list = dataDokter[_dokter].assignedPasien;\r\n        for (uint i = 0; i < list.length; i++) {\r\n            if (list[i] == _pasien) {\r\n                return true;\r\n            }\r\n        }\r\n        return false;\r\n    }\r\n\r\n    function tambahRekamMedis(\r\n        address _pasien,\r\n        string calldata _diagnosa,\r\n        string calldata _foto,\r\n        string calldata _catatan,\r\n        string calldata _tipeRekamMedis\r\n    ) external {\r\n        bool isValidActor = false;\r\n        if (msg.sender == _pasien && isPasien[msg.sender]) {\r\n            isValidActor = true;\r\n        } else if (isDokter[msg.sender] && dataDokter[msg.sender].aktif) {\r\n            if (\r\n                isPasien[_pasien] &&\r\n                dataDokter[msg.sender].adminRS ==\r\n                dataPasien[_pasien].rumahSakitPenanggungJawab &&\r\n                isAssigned(msg.sender, _pasien)\r\n            ) {\r\n                isValidActor = true;\r\n            }\r\n        }\r\n        require(\r\n            isValidActor,\r\n            \"Aktor tidak berhak menambah rekam medis untuk pasien ini.\"\r\n        );\r\n        require(isPasien[_pasien], \"Pasien tidak terdaftar.\");\r\n\r\n        rekamMedisCount++;\r\n        uint newId = rekamMedisCount;\r\n        rekamMedis[newId] = RekamMedisData({\r\n            id: newId,\r\n            pasien: _pasien,\r\n            diagnosa: _diagnosa,\r\n            foto: _foto,\r\n            catatan: _catatan,\r\n            pembuat: msg.sender,\r\n            timestampPembuatan: block.timestamp,\r\n            tipeRekamMedis: _tipeRekamMedis\r\n        });\r\n        rekamMedisByPasien[_pasien].push(newId);\r\n\r\n        emit RekamMedisDitambahkan(\r\n            newId,\r\n            _pasien,\r\n            _diagnosa,\r\n            _foto,\r\n            _catatan,\r\n            _tipeRekamMedis,\r\n            msg.sender,\r\n            block.timestamp\r\n        );\r\n    }\r\n\r\n    function getRekamMedisIdsByPasien(\r\n        address _pasien\r\n    ) external view returns (uint[] memory) {\r\n        require(isPasien[_pasien], \"Pasien tidak ditemukan.\");\r\n        return rekamMedisByPasien[_pasien];\r\n    }\r\n\r\n    function getRekamMedis(\r\n        uint _id\r\n    )\r\n        external\r\n        view\r\n        returns (\r\n            uint id,\r\n            address pasien,\r\n            string memory diagnosa,\r\n            string memory foto,\r\n            string memory catatan,\r\n            address pembuat,\r\n            uint256 timestampPembuatan,\r\n            string memory tipeRekamMedis\r\n        )\r\n    {\r\n        require(\r\n            rekamMedis[_id].pasien != address(0),\r\n            \"Rekam medis tidak ditemukan.\"\r\n        );\r\n        RekamMedisData storage r = rekamMedis[_id];\r\n        return (\r\n            r.id,\r\n            r.pasien,\r\n            r.diagnosa,\r\n            r.foto,\r\n            r.catatan,\r\n            r.pembuat,\r\n            r.timestampPembuatan,\r\n            r.tipeRekamMedis\r\n        );\r\n    }\r\n\r\n    function getRekamMedisByPasienUntukAdminRS(\r\n        address _pasien\r\n    ) external view hanyaAdminRS returns (RekamMedisData[] memory) {\r\n        // 1. Verifikasi Berewenang\r\n        // Memastikan AdminRS yang memanggil fungsi ini adalah RS penanggung jawab pasien.\r\n        require(\r\n            dataPasien[_pasien].rumahSakitPenanggungJawab == msg.sender,\r\n            \"Anda tidak berhak melihat rekam medis pasien ini.\"\r\n        );\r\n\r\n        // 2. Ambil ID Rekam Medis\r\n        // Mengambil semua ID rekam medis yang dimiliki oleh pasien.\r\n        uint[] storage recordIds = rekamMedisByPasien[_pasien];\r\n\r\n        // 3. Siapkan Array untuk Hasil\r\n        // Membuat array di memori untuk menampung data rekam medis lengkap.\r\n        RekamMedisData[] memory records = new RekamMedisData[](\r\n            recordIds.length\r\n        );\r\n\r\n        // 4. Kumpulkan Data Lengkap\r\n        // Looping melalui setiap ID, ambil datanya dari mapping `rekamMedis`, dan masukkan ke array hasil.\r\n        for (uint i = 0; i < recordIds.length; i++) {\r\n            records[i] = rekamMedis[recordIds[i]];\r\n        }\r\n\r\n        // 5. Kembalikan Hasil\r\n        return records;\r\n    }\r\n\r\n    function getUserRole(address _user) public view returns (string memory) {\r\n        if (bytes(dataAdmin[_user].namaRumahSakit).length > 0) {\r\n            if (dataAdmin[_user].aktif) {\r\n                return \"AdminRS\";\r\n            } else {\r\n                return \"InactiveAdminRS\";\r\n            }\r\n        }\r\n\r\n        if (isDokter[_user]) {\r\n            if (dataDokter[_user].aktif) {\r\n                return \"Dokter\";\r\n            } else {\r\n                return \"InactiveDokter\";\r\n            }\r\n        }\r\n\r\n        if (isPasien[_user]) return \"Pasien\";\r\n\r\n        return \"Unknown\";\r\n    }\r\n\r\n    function getPasienByAdminRS()\r\n        external\r\n        view\r\n        hanyaAdminRS\r\n        returns (address[] memory)\r\n    {\r\n        address[] memory pasienDiRS;\r\n        uint count = 0;\r\n        for (uint i = 0; i < daftarPasien.length; i++) {\r\n            if (\r\n                dataPasien[daftarPasien[i]].rumahSakitPenanggungJawab ==\r\n                msg.sender\r\n            ) {\r\n                count++;\r\n            }\r\n        }\r\n\r\n        pasienDiRS = new address[](count);\r\n        uint currentIndex = 0;\r\n        for (uint i = 0; i < daftarPasien.length; i++) {\r\n            if (\r\n                dataPasien[daftarPasien[i]].rumahSakitPenanggungJawab ==\r\n                msg.sender\r\n            ) {\r\n                pasienDiRS[currentIndex] = daftarPasien[i];\r\n                currentIndex++;\r\n            }\r\n        }\r\n        return pasienDiRS;\r\n    }\r\n}\r\n",
  "sourcePath": "D:\\TA\\rekam_medis_smartcontract_solidity\\contracts\\RekamMedisRS.sol",
  "compiler": {
    "name": "solc",
    "version": "0.8.19+commit.7dd6d404.Emscripten.clang"
  },
  "schemaVersion": "3.4.16",
  "updatedAt": "2025-07-09T15:42:28.359Z",
  "networkType": "ethereum",
  "devdoc": {
    "kind": "dev",
    "methods": {},
    "version": 1
  },
  "userdoc": {
    "kind": "user",
    "methods": {},
    "version": 1
  }
}