{
  "contractName": "RekamMedis",
  "abi": [
    {
      "inputs": [],
      "stateMutability": "nonpayable",
      "type": "constructor"
    },
    {
      "anonymous": false,
      "inputs": [
        {
          "indexed": false,
          "internalType": "address",
          "name": "newAdmin",
          "type": "address"
        }
      ],
      "name": "AdminDitetapkan",
      "type": "event"
    },
    {
      "anonymous": false,
      "inputs": [
        {
          "indexed": false,
          "internalType": "address",
          "name": "dokter",
          "type": "address"
        },
        {
          "indexed": false,
          "internalType": "bool",
          "name": "aktif",
          "type": "bool"
        }
      ],
      "name": "DokterStatusDiubah",
      "type": "event"
    },
    {
      "anonymous": false,
      "inputs": [
        {
          "indexed": false,
          "internalType": "address",
          "name": "dokter",
          "type": "address"
        },
        {
          "indexed": false,
          "internalType": "string",
          "name": "nama",
          "type": "string"
        },
        {
          "indexed": false,
          "internalType": "string",
          "name": "spesialisasi",
          "type": "string"
        },
        {
          "indexed": false,
          "internalType": "string",
          "name": "nomorLisensi",
          "type": "string"
        }
      ],
      "name": "DokterTerdaftar",
      "type": "event"
    },
    {
      "anonymous": false,
      "inputs": [
        {
          "indexed": false,
          "internalType": "address",
          "name": "dokter",
          "type": "address"
        },
        {
          "indexed": false,
          "internalType": "address",
          "name": "pasien",
          "type": "address"
        }
      ],
      "name": "PasienDiassignKeDokter",
      "type": "event"
    },
    {
      "anonymous": false,
      "inputs": [
        {
          "indexed": false,
          "internalType": "address",
          "name": "pasien",
          "type": "address"
        },
        {
          "indexed": false,
          "internalType": "string",
          "name": "nama",
          "type": "string"
        }
      ],
      "name": "PasienTerdaftar",
      "type": "event"
    },
    {
      "anonymous": false,
      "inputs": [
        {
          "indexed": false,
          "internalType": "uint256",
          "name": "id",
          "type": "uint256"
        },
        {
          "indexed": false,
          "internalType": "string",
          "name": "diagnosa",
          "type": "string"
        },
        {
          "indexed": false,
          "internalType": "string",
          "name": "catatan",
          "type": "string"
        }
      ],
      "name": "RekamMedisDiperbarui",
      "type": "event"
    },
    {
      "anonymous": false,
      "inputs": [
        {
          "indexed": false,
          "internalType": "uint256",
          "name": "id",
          "type": "uint256"
        },
        {
          "indexed": false,
          "internalType": "address",
          "name": "pasien",
          "type": "address"
        },
        {
          "indexed": false,
          "internalType": "string",
          "name": "diagnosa",
          "type": "string"
        },
        {
          "indexed": false,
          "internalType": "bool",
          "name": "valid",
          "type": "bool"
        }
      ],
      "name": "RekamMedisDitambahkan",
      "type": "event"
    },
    {
      "inputs": [],
      "name": "admin",
      "outputs": [
        {
          "internalType": "address",
          "name": "",
          "type": "address"
        }
      ],
      "stateMutability": "view",
      "type": "function",
      "constant": true
    },
    {
      "inputs": [
        {
          "internalType": "uint256",
          "name": "",
          "type": "uint256"
        }
      ],
      "name": "daftarDokter",
      "outputs": [
        {
          "internalType": "address",
          "name": "",
          "type": "address"
        }
      ],
      "stateMutability": "view",
      "type": "function",
      "constant": true
    },
    {
      "inputs": [
        {
          "internalType": "uint256",
          "name": "",
          "type": "uint256"
        }
      ],
      "name": "daftarPasien",
      "outputs": [
        {
          "internalType": "address",
          "name": "",
          "type": "address"
        }
      ],
      "stateMutability": "view",
      "type": "function",
      "constant": true
    },
    {
      "inputs": [
        {
          "internalType": "address",
          "name": "",
          "type": "address"
        }
      ],
      "name": "dataDokter",
      "outputs": [
        {
          "internalType": "string",
          "name": "nama",
          "type": "string"
        },
        {
          "internalType": "string",
          "name": "spesialisasi",
          "type": "string"
        },
        {
          "internalType": "string",
          "name": "nomorLisensi",
          "type": "string"
        },
        {
          "internalType": "bool",
          "name": "aktif",
          "type": "bool"
        }
      ],
      "stateMutability": "view",
      "type": "function",
      "constant": true
    },
    {
      "inputs": [
        {
          "internalType": "address",
          "name": "",
          "type": "address"
        }
      ],
      "name": "dataPasien",
      "outputs": [
        {
          "internalType": "string",
          "name": "nama",
          "type": "string"
        },
        {
          "internalType": "uint256",
          "name": "umur",
          "type": "uint256"
        },
        {
          "internalType": "string",
          "name": "golonganDarah",
          "type": "string"
        },
        {
          "internalType": "string",
          "name": "tanggalLahir",
          "type": "string"
        },
        {
          "internalType": "string",
          "name": "gender",
          "type": "string"
        },
        {
          "internalType": "string",
          "name": "alamat",
          "type": "string"
        },
        {
          "internalType": "string",
          "name": "noTelepon",
          "type": "string"
        },
        {
          "internalType": "string",
          "name": "email",
          "type": "string"
        },
        {
          "internalType": "bool",
          "name": "exists",
          "type": "bool"
        }
      ],
      "stateMutability": "view",
      "type": "function",
      "constant": true
    },
    {
      "inputs": [
        {
          "internalType": "address",
          "name": "",
          "type": "address"
        }
      ],
      "name": "isDokter",
      "outputs": [
        {
          "internalType": "bool",
          "name": "",
          "type": "bool"
        }
      ],
      "stateMutability": "view",
      "type": "function",
      "constant": true
    },
    {
      "inputs": [
        {
          "internalType": "address",
          "name": "",
          "type": "address"
        }
      ],
      "name": "isPasien",
      "outputs": [
        {
          "internalType": "bool",
          "name": "",
          "type": "bool"
        }
      ],
      "stateMutability": "view",
      "type": "function",
      "constant": true
    },
    {
      "inputs": [
        {
          "internalType": "uint256",
          "name": "",
          "type": "uint256"
        }
      ],
      "name": "rekamMedis",
      "outputs": [
        {
          "internalType": "uint256",
          "name": "id",
          "type": "uint256"
        },
        {
          "internalType": "address",
          "name": "pasien",
          "type": "address"
        },
        {
          "internalType": "string",
          "name": "diagnosa",
          "type": "string"
        },
        {
          "internalType": "string",
          "name": "foto",
          "type": "string"
        },
        {
          "internalType": "string",
          "name": "catatan",
          "type": "string"
        },
        {
          "internalType": "bool",
          "name": "valid",
          "type": "bool"
        }
      ],
      "stateMutability": "view",
      "type": "function",
      "constant": true
    },
    {
      "inputs": [
        {
          "internalType": "address",
          "name": "",
          "type": "address"
        },
        {
          "internalType": "uint256",
          "name": "",
          "type": "uint256"
        }
      ],
      "name": "rekamMedisByPasien",
      "outputs": [
        {
          "internalType": "uint256",
          "name": "",
          "type": "uint256"
        }
      ],
      "stateMutability": "view",
      "type": "function",
      "constant": true
    },
    {
      "inputs": [],
      "name": "rekamMedisCount",
      "outputs": [
        {
          "internalType": "uint256",
          "name": "",
          "type": "uint256"
        }
      ],
      "stateMutability": "view",
      "type": "function",
      "constant": true
    },
    {
      "inputs": [
        {
          "internalType": "uint256",
          "name": "",
          "type": "uint256"
        },
        {
          "internalType": "uint256",
          "name": "",
          "type": "uint256"
        }
      ],
      "name": "rekamMedisVersions",
      "outputs": [
        {
          "internalType": "uint256",
          "name": "id",
          "type": "uint256"
        },
        {
          "internalType": "address",
          "name": "pasien",
          "type": "address"
        },
        {
          "internalType": "string",
          "name": "diagnosa",
          "type": "string"
        },
        {
          "internalType": "string",
          "name": "foto",
          "type": "string"
        },
        {
          "internalType": "string",
          "name": "catatan",
          "type": "string"
        },
        {
          "internalType": "bool",
          "name": "valid",
          "type": "bool"
        }
      ],
      "stateMutability": "view",
      "type": "function",
      "constant": true
    },
    {
      "inputs": [
        {
          "internalType": "address",
          "name": "_user",
          "type": "address"
        }
      ],
      "name": "getUserRole",
      "outputs": [
        {
          "internalType": "string",
          "name": "",
          "type": "string"
        }
      ],
      "stateMutability": "view",
      "type": "function",
      "constant": true
    },
    {
      "inputs": [
        {
          "internalType": "address",
          "name": "_dokter",
          "type": "address"
        },
        {
          "internalType": "string",
          "name": "_nama",
          "type": "string"
        },
        {
          "internalType": "string",
          "name": "_spesialisasi",
          "type": "string"
        },
        {
          "internalType": "string",
          "name": "_nomorLisensi",
          "type": "string"
        }
      ],
      "name": "registerDokter",
      "outputs": [],
      "stateMutability": "nonpayable",
      "type": "function"
    },
    {
      "inputs": [],
      "name": "totalDokter",
      "outputs": [
        {
          "internalType": "uint256",
          "name": "",
          "type": "uint256"
        }
      ],
      "stateMutability": "view",
      "type": "function",
      "constant": true
    },
    {
      "inputs": [
        {
          "internalType": "uint256",
          "name": "idx",
          "type": "uint256"
        }
      ],
      "name": "getDokterByIndex",
      "outputs": [
        {
          "internalType": "address",
          "name": "",
          "type": "address"
        }
      ],
      "stateMutability": "view",
      "type": "function",
      "constant": true
    },
    {
      "inputs": [
        {
          "internalType": "address",
          "name": "_dokter",
          "type": "address"
        },
        {
          "internalType": "bool",
          "name": "_aktif",
          "type": "bool"
        }
      ],
      "name": "setStatusDokter",
      "outputs": [],
      "stateMutability": "nonpayable",
      "type": "function"
    },
    {
      "inputs": [
        {
          "internalType": "address",
          "name": "_dokter",
          "type": "address"
        },
        {
          "internalType": "string",
          "name": "_nama",
          "type": "string"
        },
        {
          "internalType": "string",
          "name": "_spesialisasi",
          "type": "string"
        },
        {
          "internalType": "string",
          "name": "_nomorLisensi",
          "type": "string"
        }
      ],
      "name": "updateDataDokter",
      "outputs": [],
      "stateMutability": "nonpayable",
      "type": "function"
    },
    {
      "inputs": [
        {
          "internalType": "address",
          "name": "_dokter",
          "type": "address"
        }
      ],
      "name": "getDokter",
      "outputs": [
        {
          "internalType": "string",
          "name": "nama",
          "type": "string"
        },
        {
          "internalType": "string",
          "name": "spesialisasi",
          "type": "string"
        },
        {
          "internalType": "string",
          "name": "nomorLisensi",
          "type": "string"
        },
        {
          "internalType": "bool",
          "name": "aktif",
          "type": "bool"
        },
        {
          "internalType": "address[]",
          "name": "pasienList",
          "type": "address[]"
        }
      ],
      "stateMutability": "view",
      "type": "function",
      "constant": true
    },
    {
      "inputs": [
        {
          "internalType": "string",
          "name": "_nama",
          "type": "string"
        },
        {
          "internalType": "uint256",
          "name": "_umur",
          "type": "uint256"
        },
        {
          "internalType": "string",
          "name": "_golonganDarah",
          "type": "string"
        },
        {
          "internalType": "string",
          "name": "_tanggalLahir",
          "type": "string"
        },
        {
          "internalType": "string",
          "name": "_gender",
          "type": "string"
        },
        {
          "internalType": "string",
          "name": "_alamat",
          "type": "string"
        },
        {
          "internalType": "string",
          "name": "_noTelepon",
          "type": "string"
        },
        {
          "internalType": "string",
          "name": "_email",
          "type": "string"
        }
      ],
      "name": "selfRegisterPasien",
      "outputs": [],
      "stateMutability": "nonpayable",
      "type": "function"
    },
    {
      "inputs": [],
      "name": "getDaftarPasien",
      "outputs": [
        {
          "internalType": "address[]",
          "name": "",
          "type": "address[]"
        }
      ],
      "stateMutability": "view",
      "type": "function",
      "constant": true
    },
    {
      "inputs": [
        {
          "internalType": "address",
          "name": "_pasien",
          "type": "address"
        }
      ],
      "name": "getPasienData",
      "outputs": [
        {
          "internalType": "string",
          "name": "nama",
          "type": "string"
        },
        {
          "internalType": "uint256",
          "name": "umur",
          "type": "uint256"
        },
        {
          "internalType": "string",
          "name": "golonganDarah",
          "type": "string"
        },
        {
          "internalType": "string",
          "name": "tanggalLahir",
          "type": "string"
        },
        {
          "internalType": "string",
          "name": "gender",
          "type": "string"
        },
        {
          "internalType": "string",
          "name": "alamat",
          "type": "string"
        },
        {
          "internalType": "string",
          "name": "noTelepon",
          "type": "string"
        },
        {
          "internalType": "string",
          "name": "email",
          "type": "string"
        }
      ],
      "stateMutability": "view",
      "type": "function",
      "constant": true
    },
    {
      "inputs": [
        {
          "internalType": "address",
          "name": "_dokter",
          "type": "address"
        },
        {
          "internalType": "address",
          "name": "_pasien",
          "type": "address"
        }
      ],
      "name": "assignPasienToDokter",
      "outputs": [],
      "stateMutability": "nonpayable",
      "type": "function"
    },
    {
      "inputs": [
        {
          "internalType": "address",
          "name": "_dokter",
          "type": "address"
        }
      ],
      "name": "getAssignedPasienByDokter",
      "outputs": [
        {
          "internalType": "address[]",
          "name": "",
          "type": "address[]"
        }
      ],
      "stateMutability": "view",
      "type": "function",
      "constant": true
    },
    {
      "inputs": [
        {
          "internalType": "address",
          "name": "_pasien",
          "type": "address"
        },
        {
          "internalType": "string",
          "name": "_diagnosa",
          "type": "string"
        },
        {
          "internalType": "string",
          "name": "_foto",
          "type": "string"
        },
        {
          "internalType": "string",
          "name": "_catatan",
          "type": "string"
        }
      ],
      "name": "tambahRekamMedis",
      "outputs": [],
      "stateMutability": "nonpayable",
      "type": "function"
    },
    {
      "inputs": [
        {
          "internalType": "uint256",
          "name": "_id",
          "type": "uint256"
        },
        {
          "internalType": "string",
          "name": "_diagnosa",
          "type": "string"
        },
        {
          "internalType": "string",
          "name": "_foto",
          "type": "string"
        },
        {
          "internalType": "string",
          "name": "_catatan",
          "type": "string"
        }
      ],
      "name": "updateRekamMedis",
      "outputs": [],
      "stateMutability": "nonpayable",
      "type": "function"
    },
    {
      "inputs": [
        {
          "internalType": "address",
          "name": "_pasien",
          "type": "address"
        }
      ],
      "name": "getRekamMedisIdsByPasien",
      "outputs": [
        {
          "internalType": "uint256[]",
          "name": "",
          "type": "uint256[]"
        }
      ],
      "stateMutability": "view",
      "type": "function",
      "constant": true
    },
    {
      "inputs": [
        {
          "internalType": "uint256",
          "name": "_id",
          "type": "uint256"
        }
      ],
      "name": "getRekamMedis",
      "outputs": [
        {
          "internalType": "address",
          "name": "pasien",
          "type": "address"
        },
        {
          "internalType": "string",
          "name": "diagnosa",
          "type": "string"
        },
        {
          "internalType": "string",
          "name": "foto",
          "type": "string"
        },
        {
          "internalType": "string",
          "name": "catatan",
          "type": "string"
        },
        {
          "internalType": "bool",
          "name": "valid",
          "type": "bool"
        }
      ],
      "stateMutability": "view",
      "type": "function",
      "constant": true
    },
    {
      "inputs": [
        {
          "internalType": "uint256",
          "name": "_id",
          "type": "uint256"
        }
      ],
      "name": "getRekamMedisVersions",
      "outputs": [
        {
          "components": [
            {
              "internalType": "uint256",
              "name": "id",
              "type": "uint256"
            },
            {
              "internalType": "address",
              "name": "pasien",
              "type": "address"
            },
            {
              "internalType": "string",
              "name": "diagnosa",
              "type": "string"
            },
            {
              "internalType": "string",
              "name": "foto",
              "type": "string"
            },
            {
              "internalType": "string",
              "name": "catatan",
              "type": "string"
            },
            {
              "internalType": "bool",
              "name": "valid",
              "type": "bool"
            }
          ],
          "internalType": "struct RekamMedis.RekamMedisData[]",
          "name": "",
          "type": "tuple[]"
        }
      ],
      "stateMutability": "view",
      "type": "function",
      "constant": true
    },
    {
      "inputs": [
        {
          "internalType": "uint256",
          "name": "_id",
          "type": "uint256"
        }
      ],
      "name": "nonaktifkanRekamMedis",
      "outputs": [],
      "stateMutability": "nonpayable",
      "type": "function"
    },
    {
      "inputs": [
        {
          "internalType": "address",
          "name": "_newAdmin",
          "type": "address"
        }
      ],
      "name": "setAdmin",
      "outputs": [],
      "stateMutability": "nonpayable",
      "type": "function"
    }
  ],
  "bytecode": "0x6080806040523461003c57600080546001600160a01b03191673b0dc0bf642d339517438017fc185bb0f758a01d21790556131e390816100428239f35b600080fdfe6080604052600436101561001257600080fd5b60003560e01c8062410cb3146129aa578063046bdbcc1461294b578063083d8824146129055780631132beb5146128c657806319e8f4051461271b57806327820851146126e35780632e2dd102146126c5578063350ee3fc1461265a5780633aaec728146120ed5780633da0551814612043578063426996511461200157806347960cb514611f5b57806351887b6714611ec65780635c4c934814611e875780635c87c3aa146115725780636837008714611517578063704b6c02146114a5578063786f3fbe146113835780637d3e9db814611365578063932e0f6d146112b5578063a665102c14611206578063abf72abb146111c3578063ad3c970814610d08578063c3c0fdea14610c68578063c967ede814610bb4578063d688780214610a1f578063dd09a96814610994578063ddbd24d314610449578063e05c8a0e146101935763f851a4401461016557600080fd5b3461018e57600036600319011261018e576000546040516001600160a01b039091168152602090f35b600080fd5b3461018e576101a136612cba565b93949560018060a0959394951b03906101bf82600054163314612e19565b169081600052602093600285526101dd60ff60406000205416612f17565b826000526001968786526040600020906001600160401b03998a82116103575781906102138261020d8654612b11565b86612eb1565b600090601f83116001146103e6576000926103db575b5050600019600383901b1c191690891b1790555b8260005286855286604060002001918882116103575781906102638261020d8654612b11565b600090601f83116001146103785760009261036d575b5050600019600383901b1c191690871b1790555b6000528382526002604060002001948311610357576102b6836102b08754612b11565b87612eb1565b600091601f84116001146102f457509282939183926000946102e9575b50501b916000199060031b1c1916179055600080f35b0135925085806102d3565b9183601f1981168760005284600020946000905b8883831061033d5750505010610323575b505050811b019055005b0135600019600384901b60f8161c19169055838080610319565b868601358855909601959384019387935090810190610308565b634e487b7160e01b600052604160045260246000fd5b013590508980610279565b899350601f1983169185600052886000209260005b8a8282106103c557505084116103ab575b505050811b01905561028d565b0135600019600384901b60f8161c1916905589808061039e565b8385013586558d9790950194928301920161038d565b013590508b80610229565b8b9350601f19831691856000528a6000209260005b8c8282106104335750508411610419575b505050811b01905561023d565b0135600019600384901b60f8161c191690558b808061040c565b8385013586558f979095019492830192016103fb565b3461018e5761045736612cba565b909195939461047160018060a01b03600054163314612e19565b6001600160a01b03851660009081526002602052604090205460ff1661095f576001600160a01b03851660009081526004602052604090205460ff16610923576001600160a01b03851660009081526002602052604090819020805460ff1916600117905551936104e185612b66565b600085526040519460a086018681106001600160401b038211176103575760405261050d368985612e54565b865261051a368a84612e54565b602087015261052a368587612e54565b604087015260016060870152608086015260018060a01b0386166000526001602052604060002085518051906001600160401b0382116103575781906105748261020d8654612b11565b602090601f83116001146108b7576000926108ac575b50508160011b916000199060031b1c19161781555b60208601518051906001600160401b0382116103575781906105d1826105c86001870154612b11565b60018701612eb1565b602090601f831160011461083a5760009261082f575b50508160011b916000199060031b1c19161760018201555b60408601518051906001600160401b0382116103575761062f826106266002860154612b11565b60028601612eb1565b602090601f83116001146107ba579180608094926004946000926107af575b50508160011b916000199060031b1c19161760028201555b61068560608901511515600383019060ff801983541691151516179055565b01950151948551906001600160401b03821161035757600160401b96878311610357576020908254848455808510610792575b500190600052602060002060005b838110610775575050505060075494851015610357577f5e399ee004ff4fef571265f7bdd2e8ec7d18b86f1aeab0d8009f0df31b27259297610754610762936107188860016107709a01600755612a18565b81546001600160a01b039b8c1660039290921b82811b9c901b19169a909a179055604051988952608060208a0181905298998a998a0191612ef6565b918783036040890152612ef6565b918483036060860152612ef6565b0390a1005b82516001600160a01b0316818301556020909201916001016106c6565b6107a9908460005285846000209182019101612e9a565b8c6106b8565b015190508d8061064e565b906002840160005260206000209160005b601f19851681106108175750926080949260019260049583601f198116106107fe575b505050811b016002820155610666565b015160001960f88460031b161c191690558d80806107ee565b919260206001819286850151815501940192016107cb565b015190508b806105e7565b9250600184016000526020600020906000935b601f1984168510610891576001945083601f19811610610878575b505050811b0160018201556105ff565b015160001960f88460031b161c191690558b8080610868565b8181015183556020948501946001909301929091019061084d565b015190508b8061058a565b9250836000526020600020906000935b601f1984168510610908576001945083601f198116106108ef575b505050811b01815561059f565b015160001960f88460031b161c191690558b80806108e2565b818101518355602094850194600190930192909101906108c7565b60405162461bcd60e51b815260206004820152601460248201527320b630b6b0ba1036b4b634b5903830b9b4b2b71760611b6044820152606490fd5b60405162461bcd60e51b815260206004820152600d60248201526c29bab230b4103237b5ba32b91760991b6044820152606490fd5b3461018e57604036600319011261018e57602435600435600052600a602052604060002090815481101561018e576109cb91612d32565b50805460018201546001600160a01b031691610a1b906109ed60028201612bbd565b906109fa60038201612bbd565b60ff6005610a0a60048501612bbd565b930154169260405196879687612c63565b0390f35b3461018e5760208060031936011261018e57600435600052600a81526040600020908154916001600160401b0383116103575760405191600593610a678282871b0185612b9c565b8084528184018093600052826000206000915b838310610b3a5750505050604051928184019082855251809152604081818601961b85010192916000955b828710610ab25785850386f35b909192938280600192603f1989820301855287519081518152848060a01b03838301511683820152610b1e610b0b610af8604085015160c0806040870152850190612a67565b6060808601519085830390860152612a67565b6080808501519084830390850152612a67565b9160a08091015115159101529601920196019592919092610aa5565b600685600192604099979951610b4f81612b4b565b85548152848060a01b03858701541683820152610b6e60028701612bbd565b6040820152610b7f60038701612bbd565b6060820152610b9060048701612bbd565b608082015260ff8c87015416151560a0820152815201920192019190959395610a7a565b3461018e5760208060031936011261018e576001600160a01b03610bd6612a02565b1660005260068152604060002060405190818382549182815201908192600052846000209060005b86828210610c54578686610c1482880383612b9c565b604051928392818401908285525180915260408401929160005b828110610c3d57505050500390f35b835185528695509381019392810192600101610c2e565b835485529093019260019283019201610bfe565b3461018e57602036600319011261018e576001600160a01b03610c89612a02565b166000526001602052610ce06040600020610ca381612bbd565b90610cfc610cb360018301612bbd565b91610cee60ff6003610cc760028501612bbd565b9301541693604051968796608088526080880190612a67565b908682036020880152612a67565b908482036040860152612a67565b90151560608301520390f35b3461018e57610d1636612cba565b9495946001600160a01b039493929091338688161480156111b6575b1561117157858716600052600460205260ff604060002054161561112c57610da7610d5e6009546130b0565b918260095560405194610d7086612b4b565b838652610d9b60208701978a8c168952610d8c8d8b3691612e54565b96604089019788523691612e54565b60608701523691612e54565b6080840152600160a084015260005260056020526040600020928251845585600185019151166001600160601b0360a01b825416179055518051906001600160401b038211610357578190610e0c82610e036002880154612b11565b60028801612eb1565b602090601f83116001146110ba576000926110af575b50508160011b916000199060031b1c19161760028301555b60608101518051906001600160401b038211610357578190610e6c82610e636003880154612b11565b60038801612eb1565b602090601f831160011461103d57600092611032575b50508160011b916000199060031b1c19161760038301555b6004820160808201518051906001600160401b03821161035757610ec882610ec28554612b11565b85612eb1565b602090601f8311600114610fc057928260a093610f18979693600596600092610fb5575b50508160011b916000199060031b1c19161790555b0151151591019060ff801983541691151516179055565b818316600052600660205260406000209360095491855492600160401b84101561035757610f70847f8647b41d1ffdc302f876f0e70e0c442d110a3c8bad284218f99616149394c997986001610fa997018155612a4f565b819291549060031b91821b91600019901b1916179055600954936040519586958652166020850152608060408501526080840191612ef6565b600160608301520390a1005b015190508c80610eec565b90601f198316918460005260206000209260005b81811061101a575093610f18979693600596936001938360a09810611001575b505050811b019055610f01565b015160001960f88460031b161c191690558c8080610ff4565b92936020600181928786015181550195019301610fd4565b015190508880610e82565b9250600385016000526020600020906000935b601f1984168510611094576001945083601f1981161061107b575b505050811b016003830155610e9a565b015160001960f88460031b161c1916905588808061106b565b81810151835560209485019460019093019290910190611050565b015190508880610e22565b9250600285016000526020600020906000935b601f1984168510611111576001945083601f198116106110f8575b505050811b016002830155610e3a565b015160001960f88460031b161c191690558880806110e8565b818101518355602094850194600190930192909101906110cd565b60405162461bcd60e51b815260206004820152601760248201527f50617369656e20746964616b207465726461667461722e0000000000000000006044820152606490fd5b60405162461bcd60e51b815260206004820152601860248201527f48616e79612070617369656e20617461752061646d696e2e00000000000000006044820152606490fd5b5085600054163314610d32565b3461018e57602036600319011261018e576004356000908152600560205260409020805460018201546001600160a01b031691610a1b906109ed60028201612bbd565b3461018e57602036600319011261018e5761121f612a02565b61122890612fbb565b94604097969794919493929351978897610100808a52890161124991612a67565b906020890152878103604089015261126091612a67565b868103606088015261127191612a67565b858103608087015261128291612a67565b84810360a086015261129391612a67565b83810360c08501526112a491612a67565b82810360e0840152610a1b91612a67565b3461018e57604036600319011261018e576112ce612a02565b602435908115159182810361018e577f3dcd68c14f5f191f12b3b56bf35d5d7eb22447e9ec685290967b4558822ca98a9261135860409360018060a01b039061131c82600054163314612e19565b169283600052600260205261133760ff866000205416612f17565b836000526001602052600385600020019060ff801983541691151516179055565b82519182526020820152a1005b3461018e57600036600319011261018e576020600754604051908152f35b3461018e57602036600319011261018e576001600160a01b036113a4612a02565b16600052600360205260406000206113bb81612bbd565b6001820154916113cd60028201612bbd565b906113da60038201612bbd565b6113e660048301612bbd565b6113f260058401612bbd565b906113ff60068501612bbd565b9261140c60078601612bbd565b946008015460ff1695604051988998610120808b528a0161142c91612a67565b9060208a015288810360408a015261144391612a67565b878103606089015261145491612a67565b868103608088015261146591612a67565b85810360a087015261147691612a67565b84810360c086015261148791612a67565b83810360e085015261149891612a67565b9015156101008301520390f35b3461018e57602036600319011261018e577f4d644268affe3d5bee1f2f5cb981613ce82c79f04442f0d58c544d9cd09b2f8d60206114e1612a02565b600054906001600160a01b03906114fb3383851614612e19565b1680916001600160601b0360a01b1617600055604051908152a1005b3461018e57602036600319011261018e5760043560085481101561018e5760086000527ff3f7a9fe364faab93b216da50a3214154f22a0a2b415b23a84c8169e8b636ee301546040516001600160a01b039091168152602090f35b3461018e5761010036600319011261018e576004356001600160401b03811161018e576115a3903690600401612ae4565b906044356001600160401b03811161018e576115c3903690600401612ae4565b906064356001600160401b03811161018e576115e3903690600401612ae4565b916084356001600160401b03811161018e57611603903690600401612ae4565b94909260a4356001600160401b03811161018e57611625903690600401612ae4565b9160c4356001600160401b03811161018e57611645903690600401612ae4565b9290936001600160401b0360e4351161018e576116673660e435600401612ae4565b97909833600052600460205260ff60406000205416611e4d5733600052600260205260ff60406000205416611e11573360005260046020526040600020600160ff198254161790556040519b8c6001600160401b03610120828181011092011117610357578c8f8f61172e986117469f61170c6117229861173a9f6116fb611718966060986101208b016040523691612e54565b885260243560208901523691612e54565b60408601523691612e54565b9101523691612e54565b60808b01523691612e54565b60a08801523691612e54565b60c08501523691612e54565b60e0820152600161010082015233600052600360205260406000209080518051906001600160401b038211610357578190611785826102b08754612b11565b602090601f8311600114611da557600092611d9a575b50508160011b916000199060031b1c19161782555b6020810151600183015560408101518051906001600160401b0382116103575781906117e382610e036002880154612b11565b602090601f8311600114611d2857600092611d1d575b50508160011b916000199060031b1c19161760028301555b60608101518051906001600160401b03821161035757819061183a82610e636003880154612b11565b602090601f8311600114611cab57600092611ca0575b50508160011b916000199060031b1c19161760038301555b60808101518051906001600160401b03821161035757819061189a826118916004880154612b11565b60048801612eb1565b602090601f8311600114611c2e57600092611c23575b50508160011b916000199060031b1c19161760048301555b60a08101518051906001600160401b0382116103575781906118fa826118f16005880154612b11565b60058801612eb1565b602090601f8311600114611bb157600092611ba6575b50508160011b916000199060031b1c19161760058301555b60c08101518051906001600160401b03821161035757819061195a826119516006880154612b11565b60068801612eb1565b602090601f8311600114611b3457600092611b29575b50508160011b916000199060031b1c19161760068301555b6007820160e08201518051906001600160401b038211610357576119b082610ec28554612b11565b602090601f8311600114611ab7579282610100936119ff979693600896600092611aac5750508160011b916000199060031b1c19161790550151151591019060ff801983541691151516179055565b60085491600160401b831015610357576001830180600855831015611a96577fbf053d6e768d58295aaf9541196adab7535b80d2c6c4c10ebf3d6948396c25b19260086000527ff3f7a9fe364faab93b216da50a3214154f22a0a2b415b23a84c8169e8b636ee301336001600160601b0360a01b825416179055610770604051928392338452604060208501526040840191612ef6565b634e487b7160e01b600052603260045260246000fd5b015190508a80610eec565b90601f198316918460005260206000209260005b818110611b115750936119ff97969360089693600193836101009810611af857505050811b019055610f01565b015160001960f88460031b161c191690558a8080610ff4565b92936020600181928786015181550195019301611acb565b015190508680611970565b9250600685016000526020600020906000935b601f1984168510611b8b576001945083601f19811610611b72575b505050811b016006830155611988565b015160001960f88460031b161c19169055868080611b62565b81810151835560209485019460019093019290910190611b47565b015190508680611910565b9250600585016000526020600020906000935b601f1984168510611c08576001945083601f19811610611bef575b505050811b016005830155611928565b015160001960f88460031b161c19169055868080611bdf565b81810151835560209485019460019093019290910190611bc4565b0151905086806118b0565b9250600485016000526020600020906000935b601f1984168510611c85576001945083601f19811610611c6c575b505050811b0160048301556118c8565b015160001960f88460031b161c19169055868080611c5c565b81810151835560209485019460019093019290910190611c41565b015190508680611850565b9250600385016000526020600020906000935b601f1984168510611d02576001945083601f19811610611ce9575b505050811b016003830155611868565b015160001960f88460031b161c19169055868080611cd9565b81810151835560209485019460019093019290910190611cbe565b0151905086806117f9565b9250600285016000526020600020906000935b601f1984168510611d7f576001945083601f19811610611d66575b505050811b016002830155611811565b015160001960f88460031b161c19169055868080611d56565b81810151835560209485019460019093019290910190611d3b565b01519050868061179b565b9250846000526020600020906000935b601f1984168510611df6576001945083601f19811610611ddd575b505050811b0182556117b0565b015160001960f88460031b161c19169055868080611dd0565b81810151835560209485019460019093019290910190611db5565b60405162461bcd60e51b815260206004820152601460248201527320b630b6b0ba1036b4b634b5903237b5ba32b91760611b6044820152606490fd5b60405162461bcd60e51b815260206004820152601260248201527120b732309039bab230b4103830b9b4b2b71760711b6044820152606490fd5b3461018e57602036600319011261018e576001600160a01b03611ea8612a02565b166000526002602052602060ff604060002054166040519015158152f35b3461018e57600036600319011261018e576040518060085480825282602080930160086000527ff3f7a9fe364faab93b216da50a3214154f22a0a2b415b23a84c8169e8b636ee39260005b85828210611f3c57505050611f2892500383612b9c565b610a1b604051928284938452830190612aa7565b85546001600160a01b0316845260019586019588955093019201611f11565b3461018e57602036600319011261018e576004356000526005602052604060002060018060a01b0360018201541660ff600583015416611ff5611fa060028501612bbd565b93611fe7611fbc6004611fb560038501612bbd565b9301612bbd565b91611fd9604051978897885260a0602089015260a0880190612a67565b908682036040880152612a67565b908482036060860152612a67565b90151560808301520390f35b3461018e57602036600319011261018e5760043560075481101561018e5761202a602091612a18565b905460405160039290921b1c6001600160a01b03168152f35b3461018e57602036600319011261018e576001600160a01b03612064612a02565b1660005260016020526120ca6040600020610a1b60ff60038301541661208983612bbd565b926120d861209960018301612bbd565b91611fd96120b560046120ae60028501612bbd565b9301612f63565b9360405198899860a08a5260a08a0190612a67565b9088820360208a0152612a67565b91151560608501528382036080850152612aa7565b3461018e57608036600319011261018e576024356001600160401b03811161018e5761211d903690600401612ae4565b906044356001600160401b03811161018e5761213d903690600401612ae4565b92906064356001600160401b03811161018e5761215e903690600401612ae4565b919094600435600052600560205260018060a01b036001604060002001541633600052600260205260ff6040600020541680612643575b15612608576000903360005260016020526004604060002001906000918054925b8381106125c8575b5050505015612577576004356000526005602052604060002091600a60205260406000208054600160401b811015610357576121ff91600182018155612d32565b612561578381036124e5575b506001600160401b0385116103575761222b856106266002860154612b11565b846000601f82116001146124775760009161246c575b508560011b906000198760031b1c19161760028401555b6001600160401b03821161035757612280826122776003860154612b11565b60038601612eb1565b600090601f83116001146123f9576004939291600091836123ee575b50508160011b916000199060031b1c19161760038201555b016001600160401b038211610357576122d7826122d18354612b11565b83612eb1565b6000601f831160011461236157917f2a3c8ca9ac6f36396c175111b8f04207d249d61d733222e37c97a5ed7cfa7e1395918161077094600091612356575b508260011b906000198460031b1c19161790555b6123486040519586956004358752606060208801526060870191612ef6565b918483036040860152612ef6565b905083013588612315565b601f198316908260005260206000209160005b8181106123d65750917f2a3c8ca9ac6f36396c175111b8f04207d249d61d733222e37c97a5ed7cfa7e13979391856107709694106123bc575b5050600182811b019055612329565b840135600019600385901b60f8161c1916905587806123ad565b9192602060018192868c013581550194019201612374565b01359050888061229c565b6003840160005260206000209160005b601f1985168110612454575091839160019360049695601f1981161061243a575b505050811b0160038201556122b4565b0135600019600384901b60f8161c1916905588808061242a565b90926020600181928686013581550194019101612409565b905086013588612241565b90506002840160005260206000209060005b601f19881681106124cd575086601f198116106124b3575b5050600185811b016002840155612258565b870135600019600388901b60f8161c1916905587806124a1565b9091602060018192858c013581550193019101612489565b61255b90845481556001810160018060a01b036001870154166001600160601b0360a01b82541617905561251f60028601600283016130d5565b61252f60038601600383016130d5565b61253f60048601600483016130d5565b600560ff818701541691019060ff801983541691151516179055565b8761220b565b634e487b7160e01b600052600060045260246000fd5b60405162461bcd60e51b8152602060048201526024808201527f446f6b74657220746964616b20646961737369676e206b652070617369656e2060448201526334b7349760e11b6064820152608490fd5b826125d38284612a4f565b905460039190911b1c6001600160a01b0316146125f8576125f3906130b0565b6121b6565b50505050506001878080806121be565b60405162461bcd60e51b81526020600482015260136024820152722430b73cb0903237b5ba32b91030b5ba34b31760691b6044820152606490fd5b50600160205260ff60036040600020015416612195565b3461018e57602036600319011261018e576001600160a01b0361267b612a02565b1680600052600260205261269660ff60406000205416612f17565b6000526001602052610a1b6126b16004604060002001612f63565b604051918291602083526020830190612aa7565b3461018e57600036600319011261018e576020600954604051908152f35b3461018e57602036600319011261018e57610a1b612707612702612a02565b612d4e565b604051918291602083526020830190612a67565b3461018e57604036600319011261018e57612734612a02565b6001600160a01b039060248035838116929083900361018e57839061275e82600054163314612e19565b1692836000526020916002835261277c60ff60406000205416612f17565b836000526004835260ff604060002054161561288357846000526001835260046040600020016000918154925b8381106128265750600160401b831015612812577fd9a2627959a7f46a8b96c10424cdae1f1b65151551cd206b119aca54c0a86a5a6040888888886127f48989600182018155612a4f565b819291549060031b9185831b921b19161790558351928352820152a1005b634e487b7160e01b60009081526041600452fd5b86856128328386612a4f565b90549060031b1c161461284d57612848906130b0565b6127a9565b60405162461bcd60e51b815260048101879052600f818401526e29bab230b4103234b0b9b9b4b3b71760891b6044820152606490fd5b8260176064926040519262461bcd60e51b845260048401528201527f50617369656e2062656c756d207465726461667461722e0000000000000000006044820152fd5b3461018e57602036600319011261018e576001600160a01b036128e7612a02565b166000526004602052602060ff604060002054166040519015158152f35b3461018e57602036600319011261018e5761292b60018060a01b03600054163314612e19565b6004356000526005602052600560406000200160ff198154169055600080f35b3461018e57602036600319011261018e576004356007548110156129745761202a602091612a18565b60405162461bcd60e51b815260206004820152600e60248201526d24b73232bc1034b73b30b634b21760911b6044820152606490fd5b3461018e57604036600319011261018e576129c3612a02565b6001600160a01b031660009081526006602052604090208054602435919082101561018e576020916129f491612a4f565b90546040519160031b1c8152f35b600435906001600160a01b038216820361018e57565b600754811015611a965760076000527fa66cc928b5edb82af9bd49922954155ab7b0942694bea4ce44661d9a8736c6880190600090565b8054821015611a965760005260206000200190600090565b919082519283825260005b848110612a93575050826000602080949584010152601f8019910116010190565b602081830181015184830182015201612a72565b90815180825260208080930193019160005b828110612ac7575050505090565b83516001600160a01b031685529381019392810192600101612ab9565b9181601f8401121561018e578235916001600160401b03831161018e576020838186019501011161018e57565b90600182811c92168015612b41575b6020831014612b2b57565b634e487b7160e01b600052602260045260246000fd5b91607f1691612b20565b60c081019081106001600160401b0382111761035757604052565b602081019081106001600160401b0382111761035757604052565b604081019081106001600160401b0382111761035757604052565b90601f801991011681019081106001600160401b0382111761035757604052565b9060405191826000825492612bd184612b11565b908184526001948581169081600014612c405750600114612bfd575b5050612bfb92500383612b9c565b565b9093915060005260209081600020936000915b818310612c28575050612bfb93508201013880612bed565b85548884018501529485019487945091830191612c10565b915050612bfb94506020925060ff191682840152151560051b8201013880612bed565b949193612c96612cb29460a096612ca4949a999a8952600180891b0316602089015260c0604089015260c0880190612a67565b908682036060880152612a67565b908482036080860152612a67565b931515910152565b608060031982011261018e576004356001600160a01b038116810361018e57916001600160401b0360243581811161018e5783612cf991600401612ae4565b9390939260443583811161018e5782612d1491600401612ae4565b9390939260643591821161018e57612d2e91600401612ae4565b9091565b8054821015611a96576000526006602060002091020190600090565b6000546001600160a01b0391821691168114612df75780600052600260205260ff60406000205416612dd457600052600460205260ff60406000205416612db257604051612d9b81612b81565b60078152662ab735b737bbb760c91b602082015290565b604051612dbe81612b81565b60068152652830b9b4b2b760d11b602082015290565b50604051612de181612b81565b60068152652237b5ba32b960d11b602082015290565b50604051612e0481612b81565b600581526420b236b4b760d91b602082015290565b15612e2057565b60405162461bcd60e51b815260206004820152600c60248201526b2430b73cb09030b236b4b71760a11b6044820152606490fd5b9291926001600160401b0382116103575760405191612e7d601f8201601f191660200184612b9c565b82948184528183011161018e578281602093846000960137010152565b818110612ea5575050565b60008155600101612e9a565b9190601f8111612ec057505050565b612bfb926000526020600020906020601f840160051c83019310612eec575b601f0160051c0190612e9a565b9091508190612edf565b908060209392818452848401376000828201840152601f01601f1916010190565b15612f1e57565b60405162461bcd60e51b815260206004820152601760248201527f446f6b7465722062656c756d207465726461667461722e0000000000000000006044820152606490fd5b9060405191828154918282526020928383019160005283600020936000905b828210612f9857505050612bfb92500383612b9c565b85546001600160a01b031684526001958601958895509381019390910190612f82565b6001600160a01b03166000818152600460205260408082205490929060ff161561304157815260036020522090600182015491612ff781612bbd565b929161300560028301612bbd565b9161301260038201612bbd565b9161301f60048301612bbd565b9161302c60058201612bbd565b9161303e6007611fb560068501612bbd565b90565b508192915161304f81612b66565b818152928192815161306081612b66565b83815292825161306f81612b66565b81815292805161307e81612b66565b82815292815161308d81612b66565b83815292825161309c81612b66565b8181529251906130ab82612b66565b815290565b60001981146130bf5760010190565b634e487b7160e01b600052601160045260246000fd5b908082146131a9576130e78154612b11565b906001600160401b0382116103575781906131068261020d8654612b11565b600090601f831160011461313d57600092613132575b50508160011b916000199060031b1c1916179055565b01549050388061311c565b81526020808220858352818320935090601f1985169083905b828210613190575050908460019594939210613177575b505050811b019055565b015460001960f88460031b161c1916905538808061316d565b8495819295850154815560018091019601940190613156565b505056fea2646970667358221220541b925f1fdbdd0e5226c3bed531f1e43e847b2b53222c059f2a4904ac7c13b764736f6c63430008130033",
  "immutableReferences": {},
  "source": "// SPDX-License-Identifier: MIT\r\npragma solidity >=0.4.22 <0.9.0;\r\n\r\ncontract RekamMedis {\r\n    address public admin;\r\n\r\n    struct Dokter {\r\n        string nama;\r\n        string spesialisasi;\r\n        string nomorLisensi;\r\n        bool aktif;\r\n        address[] assignedPasien;\r\n    }\r\n\r\n    struct Pasien {\r\n        string nama;\r\n        uint umur;\r\n        string golonganDarah;\r\n        string tanggalLahir;\r\n        string gender;\r\n        string alamat;\r\n        string noTelepon;\r\n        string email;\r\n        bool exists;\r\n    }\r\n\r\n    struct RekamMedisData {\r\n        uint id;\r\n        address pasien;\r\n        string diagnosa;\r\n        string foto;\r\n        string catatan;\r\n        bool valid;\r\n    }\r\n\r\n    mapping(address => Dokter) public dataDokter;\r\n    mapping(address => bool) public isDokter;\r\n\r\n    mapping(address => Pasien) public dataPasien;\r\n    mapping(address => bool) public isPasien;\r\n\r\n    mapping(uint => RekamMedisData) public rekamMedis;\r\n    mapping(address => uint[]) public rekamMedisByPasien;\r\n\r\n    address[] public daftarDokter;\r\n    address[] public daftarPasien;\r\n    uint public rekamMedisCount;\r\n\r\n    // history versions\r\n    mapping(uint => RekamMedisData[]) public rekamMedisVersions;\r\n\r\n    // Events\r\n    event AdminDitetapkan(address newAdmin);\r\n    event DokterTerdaftar(\r\n        address dokter,\r\n        string nama,\r\n        string spesialisasi,\r\n        string nomorLisensi\r\n    );\r\n    event DokterStatusDiubah(address dokter, bool aktif);\r\n    event PasienTerdaftar(address pasien, string nama);\r\n    event PasienDiassignKeDokter(address dokter, address pasien);\r\n    event RekamMedisDitambahkan(\r\n        uint id,\r\n        address pasien,\r\n        string diagnosa,\r\n        bool valid\r\n    );\r\n    event RekamMedisDiperbarui(uint id, string diagnosa, string catatan);\r\n\r\n    constructor() {\r\n        admin = 0xB0dC0Bf642d339517438017Fc185Bb0f758A01D2;\r\n    }\r\n\r\n    modifier hanyaAdmin() {\r\n        require(msg.sender == admin, \"Hanya admin.\");\r\n        _;\r\n    }\r\n\r\n    modifier hanyaDokterAktif() {\r\n        require(\r\n            isDokter[msg.sender] && dataDokter[msg.sender].aktif,\r\n            \"Hanya dokter aktif.\"\r\n        );\r\n        _;\r\n    }\r\n\r\n    modifier hanyaDokterAktifUntukPasien(address _pasien) {\r\n        require(\r\n            isDokter[msg.sender] && dataDokter[msg.sender].aktif,\r\n            \"Hanya dokter aktif.\"\r\n        );\r\n        bool assigned = false;\r\n        address[] storage list = dataDokter[msg.sender].assignedPasien;\r\n        for (uint i = 0; i < list.length; i++) {\r\n            if (list[i] == _pasien) {\r\n                assigned = true;\r\n                break;\r\n            }\r\n        }\r\n        require(assigned, \"Dokter tidak diassign ke pasien ini.\");\r\n        _;\r\n    }\r\n\r\n    modifier hanyaPasien(address _pasien) {\r\n        require(msg.sender == _pasien, \"Hanya pasien.\");\r\n        _;\r\n    }\r\n\r\n    // Ambil role user\r\n    function getUserRole(address _user) public view returns (string memory) {\r\n        if (_user == admin) return \"Admin\";\r\n        if (isDokter[_user]) return \"Dokter\";\r\n        if (isPasien[_user]) return \"Pasien\";\r\n        return \"Unknown\";\r\n    }\r\n    // --- Dokter management ---\r\n    function registerDokter(\r\n        address _dokter,\r\n        string calldata _nama,\r\n        string calldata _spesialisasi,\r\n        string calldata _nomorLisensi\r\n    ) external hanyaAdmin {\r\n        require(!isDokter[_dokter], \"Sudah dokter.\");\r\n        require(!isPasien[_dokter], \"Alamat milik pasien.\");\r\n        isDokter[_dokter] = true;\r\n        dataDokter[_dokter] = Dokter({\r\n            nama: _nama,\r\n            spesialisasi: _spesialisasi,\r\n            nomorLisensi: _nomorLisensi,\r\n            aktif: true,\r\n            assignedPasien: new address[](0)\r\n        });\r\n        daftarDokter.push(_dokter);\r\n        emit DokterTerdaftar(_dokter, _nama, _spesialisasi, _nomorLisensi);\r\n    }\r\n\r\n    function totalDokter() external view returns (uint) {\r\n        return daftarDokter.length;\r\n    }\r\n\r\n    function getDokterByIndex(uint idx) external view returns (address) {\r\n        require(idx < daftarDokter.length, \"Index invalid.\");\r\n        return daftarDokter[idx];\r\n    }\r\n\r\n    function setStatusDokter(address _dokter, bool _aktif) external hanyaAdmin {\r\n        require(isDokter[_dokter], \"Dokter belum terdaftar.\");\r\n        dataDokter[_dokter].aktif = _aktif;\r\n        emit DokterStatusDiubah(_dokter, _aktif);\r\n    }\r\n\r\n    function updateDataDokter(\r\n        address _dokter,\r\n        string calldata _nama,\r\n        string calldata _spesialisasi,\r\n        string calldata _nomorLisensi\r\n    ) external hanyaAdmin {\r\n        require(isDokter[_dokter], \"Dokter belum terdaftar.\");\r\n        dataDokter[_dokter].nama = _nama;\r\n        dataDokter[_dokter].spesialisasi = _spesialisasi;\r\n        dataDokter[_dokter].nomorLisensi = _nomorLisensi;\r\n        // Could emit an UpdateDokter event here if desired\r\n    }\r\n\r\n    function getDokter(\r\n        address _dokter\r\n    )\r\n        external\r\n        view\r\n        returns (\r\n            string memory nama,\r\n            string memory spesialisasi,\r\n            string memory nomorLisensi,\r\n            bool aktif,\r\n            address[] memory pasienList\r\n        )\r\n    {\r\n        Dokter storage d = dataDokter[_dokter];\r\n        return (\r\n            d.nama,\r\n            d.spesialisasi,\r\n            d.nomorLisensi,\r\n            d.aktif,\r\n            d.assignedPasien\r\n        );\r\n    }\r\n\r\n    function selfRegisterPasien(\r\n        string calldata _nama,\r\n        uint _umur,\r\n        string calldata _golonganDarah,\r\n        string calldata _tanggalLahir,\r\n        string calldata _gender,\r\n        string calldata _alamat,\r\n        string calldata _noTelepon,\r\n        string calldata _email\r\n    ) external {\r\n        require(!isPasien[msg.sender], \"Anda sudah pasien.\");\r\n        require(!isDokter[msg.sender], \"Alamat milik dokter.\");\r\n        isPasien[msg.sender] = true;\r\n        dataPasien[msg.sender] = Pasien({\r\n            nama: _nama,\r\n            umur: _umur,\r\n            golonganDarah: _golonganDarah,\r\n            tanggalLahir: _tanggalLahir,\r\n            gender: _gender,\r\n            alamat: _alamat,\r\n            noTelepon: _noTelepon,\r\n            email: _email,\r\n            exists: true\r\n        });\r\n        daftarPasien.push(msg.sender);\r\n        emit PasienTerdaftar(msg.sender, _nama);\r\n    }\r\n\r\n    function getDaftarPasien() external view returns (address[] memory) {\r\n        return daftarPasien;\r\n    }\r\n\r\nfunction getPasienData(\r\n    address _pasien\r\n)\r\n    external\r\n    view\r\n    returns (\r\n        string memory nama,\r\n        uint umur,\r\n        string memory golonganDarah,\r\n        string memory tanggalLahir,\r\n        string memory gender,\r\n        string memory alamat,\r\n        string memory noTelepon,\r\n        string memory email\r\n    )\r\n{\r\n    if (!isPasien[_pasien]) {\r\n        // kembalikan nilai kosong jika pasien belum terdaftar\r\n        return (\"\", 0, \"\", \"\", \"\", \"\", \"\", \"\");\r\n    }\r\n    Pasien storage p = dataPasien[_pasien];\r\n    return (\r\n        p.nama,\r\n        p.umur,\r\n        p.golonganDarah,\r\n        p.tanggalLahir,\r\n        p.gender,\r\n        p.alamat,\r\n        p.noTelepon,\r\n        p.email\r\n    );\r\n}\r\n\r\n\r\n    // --- Assignment ---\r\n    function assignPasienToDokter(\r\n        address _dokter,\r\n        address _pasien\r\n    ) external hanyaAdmin {\r\n        require(isDokter[_dokter], \"Dokter belum terdaftar.\");\r\n        require(isPasien[_pasien], \"Pasien belum terdaftar.\");\r\n        address[] storage list = dataDokter[_dokter].assignedPasien;\r\n        for (uint i = 0; i < list.length; i++) {\r\n            require(list[i] != _pasien, \"Sudah diassign.\");\r\n        }\r\n        list.push(_pasien);\r\n        emit PasienDiassignKeDokter(_dokter, _pasien);\r\n    }\r\n\r\n    function getAssignedPasienByDokter(\r\n        address _dokter\r\n    ) external view returns (address[] memory) {\r\n        require(isDokter[_dokter], \"Dokter belum terdaftar.\");\r\n        return dataDokter[_dokter].assignedPasien;\r\n    }\r\n\r\n    // --- Rekam Medis ---\r\n    function tambahRekamMedis(\r\n        address _pasien,\r\n        string calldata _diagnosa,\r\n        string calldata _foto,\r\n        string calldata _catatan\r\n    ) external {\r\n        require(\r\n            msg.sender == _pasien || msg.sender == admin,\r\n            \"Hanya pasien atau admin.\"\r\n        );\r\n        require(isPasien[_pasien], \"Pasien tidak terdaftar.\");\r\n\r\n        rekamMedisCount++;\r\n        rekamMedis[rekamMedisCount] = RekamMedisData({\r\n            id: rekamMedisCount,\r\n            pasien: _pasien,\r\n            diagnosa: _diagnosa,\r\n            foto: _foto,\r\n            catatan: _catatan,\r\n            valid: true\r\n        });\r\n        rekamMedisByPasien[_pasien].push(rekamMedisCount);\r\n        emit RekamMedisDitambahkan(rekamMedisCount, _pasien, _diagnosa, true);\r\n    }\r\n\r\n    function updateRekamMedis(\r\n        uint _id,\r\n        string calldata _diagnosa,\r\n        string calldata _foto,\r\n        string calldata _catatan\r\n    ) external hanyaDokterAktifUntukPasien(rekamMedis[_id].pasien) {\r\n        RekamMedisData storage r = rekamMedis[_id];\r\n        rekamMedisVersions[_id].push(r);\r\n\r\n        r.diagnosa = _diagnosa;\r\n        r.foto = _foto;\r\n        r.catatan = _catatan;\r\n        emit RekamMedisDiperbarui(_id, _diagnosa, _catatan);\r\n    }\r\n\r\n    function getRekamMedisIdsByPasien(\r\n        address _pasien\r\n    ) external view returns (uint[] memory) {\r\n        return rekamMedisByPasien[_pasien];\r\n    }\r\n\r\n    function getRekamMedis(\r\n        uint _id\r\n    )\r\n        external\r\n        view\r\n        returns (\r\n            address pasien,\r\n            string memory diagnosa,\r\n            string memory foto,\r\n            string memory catatan,\r\n            bool valid\r\n        )\r\n    {\r\n        RekamMedisData storage r = rekamMedis[_id];\r\n        return (r.pasien, r.diagnosa, r.foto, r.catatan, r.valid);\r\n    }\r\n\r\n    function getRekamMedisVersions(\r\n        uint _id\r\n    ) external view returns (RekamMedisData[] memory) {\r\n        return rekamMedisVersions[_id];\r\n    }\r\n\r\n    function nonaktifkanRekamMedis(uint _id) external hanyaAdmin {\r\n        rekamMedis[_id].valid = false;\r\n    }\r\n\r\n    function setAdmin(address _newAdmin) external hanyaAdmin {\r\n        admin = _newAdmin;\r\n        emit AdminDitetapkan(_newAdmin);\r\n    }\r\n}\r\n",
  "sourcePath": "D:\\TA\\Rekam_Medis_Blockchain\\rekam_medis_backend\\contracts\\RekamMedis.sol",
  "compiler": {
    "name": "solc",
    "version": "0.8.19+commit.7dd6d404.Emscripten.clang"
  },
  "schemaVersion": "3.4.16",
  "updatedAt": "2025-05-22T09:31:16.355Z",
  "networkType": "ethereum",
  "devdoc": {
    "kind": "dev",
    "methods": {},
    "version": 1
  },
  "userdoc": {
    "kind": "user",
    "methods": {},
    "version": 1
  }
}