{
  "contractName": "RekamMedis",
  "abi": [
    {
      "inputs": [],
      "stateMutability": "nonpayable",
      "type": "constructor"
    },
    {
      "anonymous": false,
      "inputs": [
        {
          "indexed": false,
          "internalType": "address",
          "name": "newAdmin",
          "type": "address"
        }
      ],
      "name": "AdminDitetapkan",
      "type": "event"
    },
    {
      "anonymous": false,
      "inputs": [
        {
          "indexed": false,
          "internalType": "address",
          "name": "dokter",
          "type": "address"
        },
        {
          "indexed": false,
          "internalType": "bool",
          "name": "aktif",
          "type": "bool"
        }
      ],
      "name": "DokterStatusDiubah",
      "type": "event"
    },
    {
      "anonymous": false,
      "inputs": [
        {
          "indexed": false,
          "internalType": "address",
          "name": "dokter",
          "type": "address"
        },
        {
          "indexed": false,
          "internalType": "string",
          "name": "nama",
          "type": "string"
        }
      ],
      "name": "DokterTerdaftar",
      "type": "event"
    },
    {
      "anonymous": false,
      "inputs": [
        {
          "indexed": false,
          "internalType": "address",
          "name": "dokter",
          "type": "address"
        },
        {
          "indexed": false,
          "internalType": "address",
          "name": "pasien",
          "type": "address"
        }
      ],
      "name": "PasienDiassignKeDokter",
      "type": "event"
    },
    {
      "anonymous": false,
      "inputs": [
        {
          "indexed": false,
          "internalType": "address",
          "name": "pasien",
          "type": "address"
        }
      ],
      "name": "PasienTerdaftar",
      "type": "event"
    },
    {
      "anonymous": false,
      "inputs": [
        {
          "indexed": false,
          "internalType": "uint256",
          "name": "id",
          "type": "uint256"
        },
        {
          "indexed": false,
          "internalType": "string",
          "name": "diagnosa",
          "type": "string"
        },
        {
          "indexed": false,
          "internalType": "string",
          "name": "catatan",
          "type": "string"
        }
      ],
      "name": "RekamMedisDiperbarui",
      "type": "event"
    },
    {
      "anonymous": false,
      "inputs": [
        {
          "indexed": false,
          "internalType": "uint256",
          "name": "id",
          "type": "uint256"
        },
        {
          "indexed": false,
          "internalType": "address",
          "name": "pasien",
          "type": "address"
        },
        {
          "indexed": false,
          "internalType": "string",
          "name": "diagnosa",
          "type": "string"
        },
        {
          "indexed": false,
          "internalType": "bool",
          "name": "valid",
          "type": "bool"
        }
      ],
      "name": "RekamMedisDitambahkan",
      "type": "event"
    },
    {
      "inputs": [],
      "name": "admin",
      "outputs": [
        {
          "internalType": "address",
          "name": "",
          "type": "address"
        }
      ],
      "stateMutability": "view",
      "type": "function",
      "constant": true
    },
    {
      "inputs": [
        {
          "internalType": "uint256",
          "name": "",
          "type": "uint256"
        }
      ],
      "name": "daftarDokter",
      "outputs": [
        {
          "internalType": "address",
          "name": "",
          "type": "address"
        }
      ],
      "stateMutability": "view",
      "type": "function",
      "constant": true
    },
    {
      "inputs": [
        {
          "internalType": "uint256",
          "name": "",
          "type": "uint256"
        }
      ],
      "name": "daftarPasien",
      "outputs": [
        {
          "internalType": "address",
          "name": "",
          "type": "address"
        }
      ],
      "stateMutability": "view",
      "type": "function",
      "constant": true
    },
    {
      "inputs": [
        {
          "internalType": "address",
          "name": "",
          "type": "address"
        }
      ],
      "name": "dataDokter",
      "outputs": [
        {
          "internalType": "string",
          "name": "nama",
          "type": "string"
        },
        {
          "internalType": "bool",
          "name": "aktif",
          "type": "bool"
        }
      ],
      "stateMutability": "view",
      "type": "function",
      "constant": true
    },
    {
      "inputs": [
        {
          "internalType": "address",
          "name": "",
          "type": "address"
        }
      ],
      "name": "isDokter",
      "outputs": [
        {
          "internalType": "bool",
          "name": "",
          "type": "bool"
        }
      ],
      "stateMutability": "view",
      "type": "function",
      "constant": true
    },
    {
      "inputs": [
        {
          "internalType": "address",
          "name": "",
          "type": "address"
        }
      ],
      "name": "isPasien",
      "outputs": [
        {
          "internalType": "bool",
          "name": "",
          "type": "bool"
        }
      ],
      "stateMutability": "view",
      "type": "function",
      "constant": true
    },
    {
      "inputs": [
        {
          "internalType": "uint256",
          "name": "",
          "type": "uint256"
        }
      ],
      "name": "rekamMedis",
      "outputs": [
        {
          "internalType": "uint256",
          "name": "id",
          "type": "uint256"
        },
        {
          "internalType": "address",
          "name": "pasien",
          "type": "address"
        },
        {
          "internalType": "string",
          "name": "nama",
          "type": "string"
        },
        {
          "internalType": "uint256",
          "name": "umur",
          "type": "uint256"
        },
        {
          "internalType": "string",
          "name": "golonganDarah",
          "type": "string"
        },
        {
          "internalType": "string",
          "name": "tanggalLahir",
          "type": "string"
        },
        {
          "internalType": "string",
          "name": "gender",
          "type": "string"
        },
        {
          "internalType": "string",
          "name": "alamat",
          "type": "string"
        },
        {
          "internalType": "string",
          "name": "noTelepon",
          "type": "string"
        },
        {
          "internalType": "string",
          "name": "email",
          "type": "string"
        },
        {
          "internalType": "string",
          "name": "diagnosa",
          "type": "string"
        },
        {
          "internalType": "string",
          "name": "foto",
          "type": "string"
        },
        {
          "internalType": "string",
          "name": "catatan",
          "type": "string"
        },
        {
          "internalType": "bool",
          "name": "valid",
          "type": "bool"
        }
      ],
      "stateMutability": "view",
      "type": "function",
      "constant": true
    },
    {
      "inputs": [
        {
          "internalType": "address",
          "name": "",
          "type": "address"
        },
        {
          "internalType": "uint256",
          "name": "",
          "type": "uint256"
        }
      ],
      "name": "rekamMedisByPasien",
      "outputs": [
        {
          "internalType": "uint256",
          "name": "",
          "type": "uint256"
        }
      ],
      "stateMutability": "view",
      "type": "function",
      "constant": true
    },
    {
      "inputs": [],
      "name": "rekamMedisCount",
      "outputs": [
        {
          "internalType": "uint256",
          "name": "",
          "type": "uint256"
        }
      ],
      "stateMutability": "view",
      "type": "function",
      "constant": true
    },
    {
      "inputs": [
        {
          "internalType": "address",
          "name": "_dokter",
          "type": "address"
        },
        {
          "internalType": "string",
          "name": "_nama",
          "type": "string"
        }
      ],
      "name": "registerDokter",
      "outputs": [],
      "stateMutability": "nonpayable",
      "type": "function"
    },
    {
      "inputs": [],
      "name": "totalDokter",
      "outputs": [
        {
          "internalType": "uint256",
          "name": "",
          "type": "uint256"
        }
      ],
      "stateMutability": "view",
      "type": "function",
      "constant": true
    },
    {
      "inputs": [
        {
          "internalType": "uint256",
          "name": "index",
          "type": "uint256"
        }
      ],
      "name": "getDokterByIndex",
      "outputs": [
        {
          "internalType": "address",
          "name": "",
          "type": "address"
        }
      ],
      "stateMutability": "view",
      "type": "function",
      "constant": true
    },
    {
      "inputs": [
        {
          "internalType": "address",
          "name": "_dokter",
          "type": "address"
        },
        {
          "internalType": "bool",
          "name": "_aktif",
          "type": "bool"
        }
      ],
      "name": "setStatusDokter",
      "outputs": [],
      "stateMutability": "nonpayable",
      "type": "function"
    },
    {
      "inputs": [
        {
          "internalType": "address",
          "name": "_dokter",
          "type": "address"
        },
        {
          "internalType": "address",
          "name": "_pasien",
          "type": "address"
        }
      ],
      "name": "assignPasienToDokter",
      "outputs": [],
      "stateMutability": "nonpayable",
      "type": "function"
    },
    {
      "inputs": [
        {
          "internalType": "address",
          "name": "_dokter",
          "type": "address"
        }
      ],
      "name": "getDokter",
      "outputs": [
        {
          "internalType": "string",
          "name": "nama",
          "type": "string"
        },
        {
          "internalType": "bool",
          "name": "aktif",
          "type": "bool"
        },
        {
          "internalType": "address[]",
          "name": "pasien",
          "type": "address[]"
        }
      ],
      "stateMutability": "view",
      "type": "function",
      "constant": true
    },
    {
      "inputs": [
        {
          "internalType": "address",
          "name": "_pasien",
          "type": "address"
        }
      ],
      "name": "registerPasien",
      "outputs": [],
      "stateMutability": "nonpayable",
      "type": "function"
    },
    {
      "inputs": [],
      "name": "selfRegisterPasien",
      "outputs": [],
      "stateMutability": "nonpayable",
      "type": "function"
    },
    {
      "inputs": [
        {
          "internalType": "address",
          "name": "_user",
          "type": "address"
        }
      ],
      "name": "getUserRole",
      "outputs": [
        {
          "internalType": "string",
          "name": "",
          "type": "string"
        }
      ],
      "stateMutability": "view",
      "type": "function",
      "constant": true
    },
    {
      "inputs": [
        {
          "internalType": "address",
          "name": "pasien",
          "type": "address"
        }
      ],
      "name": "getRekamMedisIdsByPasien",
      "outputs": [
        {
          "internalType": "uint256[]",
          "name": "",
          "type": "uint256[]"
        }
      ],
      "stateMutability": "view",
      "type": "function",
      "constant": true
    },
    {
      "inputs": [],
      "name": "getDaftarPasien",
      "outputs": [
        {
          "internalType": "address[]",
          "name": "",
          "type": "address[]"
        }
      ],
      "stateMutability": "view",
      "type": "function",
      "constant": true
    },
    {
      "inputs": [
        {
          "internalType": "address",
          "name": "_newAdmin",
          "type": "address"
        }
      ],
      "name": "setAdmin",
      "outputs": [],
      "stateMutability": "nonpayable",
      "type": "function"
    },
    {
      "inputs": [
        {
          "internalType": "address",
          "name": "_pasien",
          "type": "address"
        },
        {
          "internalType": "string",
          "name": "_nama",
          "type": "string"
        },
        {
          "internalType": "uint256",
          "name": "_umur",
          "type": "uint256"
        },
        {
          "internalType": "string",
          "name": "_golonganDarah",
          "type": "string"
        },
        {
          "internalType": "string",
          "name": "_tanggalLahir",
          "type": "string"
        },
        {
          "internalType": "string",
          "name": "_gender",
          "type": "string"
        },
        {
          "internalType": "string",
          "name": "_alamat",
          "type": "string"
        },
        {
          "internalType": "string",
          "name": "_noTelepon",
          "type": "string"
        },
        {
          "internalType": "string",
          "name": "_email",
          "type": "string"
        },
        {
          "internalType": "string",
          "name": "_diagnosa",
          "type": "string"
        },
        {
          "internalType": "string",
          "name": "_foto",
          "type": "string"
        },
        {
          "internalType": "string",
          "name": "_catatan",
          "type": "string"
        }
      ],
      "name": "tambahRekamMedis",
      "outputs": [],
      "stateMutability": "nonpayable",
      "type": "function"
    },
    {
      "inputs": [
        {
          "internalType": "uint256",
          "name": "_id",
          "type": "uint256"
        },
        {
          "internalType": "string",
          "name": "_diagnosa",
          "type": "string"
        },
        {
          "internalType": "string",
          "name": "_catatan",
          "type": "string"
        }
      ],
      "name": "updateRekamMedis",
      "outputs": [],
      "stateMutability": "nonpayable",
      "type": "function"
    },
    {
      "inputs": [
        {
          "internalType": "uint256",
          "name": "_id",
          "type": "uint256"
        }
      ],
      "name": "nonaktifkanRekamMedis",
      "outputs": [],
      "stateMutability": "nonpayable",
      "type": "function"
    }
  ],
  "bytecode": "0x6080806040523461003c57600080546001600160a01b03191673b0dc0bf642d339517438017fc185bb0f758a01d21790556126f190816100428239f35b600080fdfe6080604052600436101561001257600080fd5b60003560e01c8062410cb3146121e4578063010ef3b3146120a3578063046bdbcc14612035578063083d882414611ff1578063107e202f14611c165780631132beb514611bd757806319e8f40514611a0f57806327820851146119d75780632e2dd102146119b9578063334181f2146118f35780633da055181461183257806342699651146117f057806351887b67146117575780635c4c93481461171857806368370087146116bd57806368f5dc99146108ad578063704b6c02146108365780637d3e9db814610818578063932e0f6d14610768578063abf72abb146105d6578063bb2be1cc14610268578063c3c0fdea14610205578063c967ede8146101515763f851a4401461012357600080fd5b3461014c57600036600319011261014c576000546040516001600160a01b039091168152602090f35b600080fd5b3461014c5760208060031936011261014c576001600160a01b0361017361223c565b1660005260078152604060002060405190818382549182815201908192600052846000209060005b868282106101f15786866101b1828803836122d2565b604051928392818401908285525180915260408401929160005b8281106101da57505050500390f35b8351855286955093810193928101926001016101cb565b83548552909301926001928301920161019b565b3461014c57602036600319011261014c576001600160a01b0361022661223c565b16600052600160205261025c604060002060ff600161024483612400565b92015416604051928392604084526040840190612349565b90151560208301520390f35b3461014c57606036600319011261014c576001600160401b0360043560243582811161014c5761029c9036906004016122f3565b60443583811161014c576102b49036906004016122f3565b90336000526020936002855260ff60406000205416806105c0575b1561055d578360005260068552604060002090600a8201918351928284116104a6576102fb81546123c6565b93601f9485811161052f575b50888582116001146104c7579080600c9493926000916104bc575b508160011b916000199060031b1c19161790555b019184519182116104a65761034b83546123c6565b81811161046e575b50869082116001146103df57927f2a3c8ca9ac6f36396c175111b8f04207d249d61d733222e37c97a5ed7cfa7e1396959492826103c1936103cf966000916103d4575b508160011b916000199060031b1c19161790555b606060405196879687528601526060850190612349565b908382036040850152612349565b0390a1005b90508501518a610396565b601f1982169083600052876000209160005b8181106104575750836103cf96937f2a3c8ca9ac6f36396c175111b8f04207d249d61d733222e37c97a5ed7cfa7e139a999896936103c1966001941061043e575b5050811b0190556103aa565b87015160001960f88460031b161c191690558a80610432565b91928960018192868b0151815501940192016103f1565b6104979084600052886000208380860160051c8201928b871061049d575b0160051c0190612504565b87610353565b9250819261048c565b634e487b7160e01b600052604160045260246000fd5b90508701518b610322565b601f19821690836000528a6000209160005b8c828210610519575050918391600c96959460019410610500575b5050811b019055610336565b89015160001960f88460031b161c191690558b806104f4565b600184958293958d0151815501940192016104d9565b61055790836000528a6000208780850160051c8201928d861061049d570160051c0190612504565b89610307565b60405162461bcd60e51b815260048101869052603560248201527f48616e796120646f6b74657220616b7469662079616e672062697361206d656d6044820152743832b93130b93ab4903932b5b0b69036b2b234b99760591b6064820152608490fd5b506001855260ff600160406000200154166102cf565b3461014c57602036600319011261014c576004356000908152600660205260409020805460018201546001600160a01b03169161061560028201612400565b9060038101546004820161062890612400565b61063460058401612400565b61064060068501612400565b61064c60078601612400565b61065860088701612400565b9161066560098801612400565b93610672600a8901612400565b9561067f600b8a01612400565b9761068c600c8b01612400565b99600d015460ff169a6040519d8e809e8152602001528c6101c06040819201528d016106b791612349565b9060608d01528b810360808d01526106ce91612349565b8a810360a08c01526106df91612349565b89810360c08b01526106f091612349565b88810360e08a015261070191612349565b87810361010089015261071391612349565b86810361012088015261072591612349565b85810361014087015261073791612349565b84810361016086015261074991612349565b83810361018085015261075b91612349565b9015156101a08301520390f35b3461014c57604036600319011261014c5761078161223c565b602435908115159182810361014c577f3dcd68c14f5f191f12b3b56bf35d5d7eb22447e9ec685290967b4558822ca98a9261080b60409360018060a01b03906107cf826000541633146124a6565b16928360005260026020526107ea60ff86600020541661257f565b836000526001602052600185600020019060ff801983541691151516179055565b82519182526020820152a1005b3461014c57600036600319011261014c576020600454604051908152f35b3461014c57602036600319011261014c577f4d644268affe3d5bee1f2f5cb981613ce82c79f04442f0d58c544d9cd09b2f8d602061087261223c565b600054906001600160a01b039061088c33838516146124a6565b1680916bffffffffffffffffffffffff60a01b1617600055604051908152a1005b3461014c5761018036600319011261014c576108c761223c565b6024356001600160401b03811161014c576108e69036906004016122f3565b906064356001600160401b03811161014c576109069036906004016122f3565b916084356001600160401b03811161014c576109269036906004016122f3565b9260a4356001600160401b03811161014c576109469036906004016122f3565b9360c4356001600160401b03811161014c576109669036906004016122f3565b9460e4356001600160401b03811161014c576109869036906004016122f3565b610104356001600160401b03811161014c576109a69036906004016122f3565b90610124356001600160401b03811161014c576109c79036906004016122f3565b97610144356001600160401b03811161014c576109e89036906004016122f3565b93610164356001600160401b03811161014c57610a099036906004016122f3565b956001600160a01b038a16330361165d57610a256008546125cb565b9788600855604051998a6101c08101106001600160401b036101c08d0111176104a6576101c08b01604052898b5260018060a01b038c1660208c015260408b015260443560608b015260808a015260a089015260c088015260e08701526101008601526101208501528561014085015261016084015261018083015260016101a08301526000526006602052604060002090805182556001820160018060a01b036020830151166bffffffffffffffffffffffff60a01b82541617905560408101518051906001600160401b0382116104a6578190610b0760028601546123c6565b601f8111611628575b50602090601f83116001146115b6576000926115ab575b50508160011b916000199060031b1c19161760028301555b6060810151600383015560808101518051906001600160401b0382116104a6578190610b6e60048601546123c6565b601f8111611576575b50602090601f8311600114611504576000926114f9575b50508160011b916000199060031b1c19161760048301555b60a08101518051906001600160401b0382116104a6578190610bcb60058601546123c6565b601f81116114c4575b50602090601f831160011461145257600092611447575b50508160011b916000199060031b1c19161760058301555b60c08101518051906001600160401b0382116104a6578190610c2860068601546123c6565b601f8111611412575b50602090601f83116001146113a057600092611395575b50508160011b916000199060031b1c19161760068301555b60e08101518051906001600160401b0382116104a6578190610c8560078601546123c6565b601f8111611360575b50602090601f83116001146112ee576000926112e3575b50508160011b916000199060031b1c19161760078301555b6101008101518051906001600160401b0382116104a6578190610ce360088601546123c6565b601f81116112ae575b50602090601f831160011461123c57600092611231575b50508160011b916000199060031b1c19161760088301555b6101208101518051906001600160401b0382116104a6578190610d4160098601546123c6565b601f81116111fc575b50602090601f831160011461118a5760009261117f575b50508160011b916000199060031b1c19161760098301555b6101408101518051906001600160401b0382116104a6578190610d9f600a8601546123c6565b601f811161114a575b50602090601f83116001146110d8576000926110cd575b50508160011b916000199060031b1c191617600a8301555b6101608101518051906001600160401b0382116104a6578190610dfd600b8601546123c6565b601f8111611098575b50602090601f83116001146110265760009261101b575b50508160011b916000199060031b1c191617600b8301555b600c82016101808201518051906001600160401b0382116104a657610e5a83546123c6565b601f8111610fde575b50602090601f8311600114610f6b5792826101a093610eb5979693600d96600092610f60575b50508160011b916000199060031b1c19161790555b0151151591019060ff801983541691151516179055565b6001600160a01b038116600090815260076020526040902060085481549391600160401b8510156104a65784610f119160017f8647b41d1ffdc302f876f0e70e0c442d110a3c8bad284218f99616149394c9979701815561229f565b819291549060031b91821b91600019901b1916179055610f5460085491604051938493845260018060a01b03166020840152608060408401526080830190612349565b600160608301520390a1005b015190508a80610e89565b90601f198316918460005260206000209260005b818110610fc6575093610eb5979693600d9693600193836101a09810610fad575b505050811b019055610e9e565b015160001960f88460031b161c191690558a8080610fa0565b92936020600181928786015181550195019301610f7f565b61100b90846000526020600020601f850160051c81019160208610611011575b601f0160051c0190612504565b87610e63565b9091508190610ffe565b015190508680610e1d565b9250600b85016000526020600020906000935b601f198416851061107d576001945083601f19811610611064575b505050811b01600b830155610e35565b015160001960f88460031b161c19169055868080611054565b81810151835560209485019460019093019290910190611039565b6110c790600b87016000526020600020601f850160051c8101916020861061101157601f0160051c0190612504565b87610e06565b015190508680610dbf565b9250600a85016000526020600020906000935b601f198416851061112f576001945083601f19811610611116575b505050811b01600a830155610dd7565b015160001960f88460031b161c19169055868080611106565b818101518355602094850194600190930192909101906110eb565b61117990600a87016000526020600020601f850160051c8101916020861061101157601f0160051c0190612504565b87610da8565b015190508680610d61565b9250600985016000526020600020906000935b601f19841685106111e1576001945083601f198116106111c8575b505050811b016009830155610d79565b015160001960f88460031b161c191690558680806111b8565b8181015183556020948501946001909301929091019061119d565b61122b90600987016000526020600020601f850160051c8101916020861061101157601f0160051c0190612504565b87610d4a565b015190508680610d03565b9250600885016000526020600020906000935b601f1984168510611293576001945083601f1981161061127a575b505050811b016008830155610d1b565b015160001960f88460031b161c1916905586808061126a565b8181015183556020948501946001909301929091019061124f565b6112dd90600887016000526020600020601f850160051c8101916020861061101157601f0160051c0190612504565b87610cec565b015190508680610ca5565b9250600785016000526020600020906000935b601f1984168510611345576001945083601f1981161061132c575b505050811b016007830155610cbd565b015160001960f88460031b161c1916905586808061131c565b81810151835560209485019460019093019290910190611301565b61138f90600787016000526020600020601f850160051c8101916020861061101157601f0160051c0190612504565b87610c8e565b015190508680610c48565b9250600685016000526020600020906000935b601f19841685106113f7576001945083601f198116106113de575b505050811b016006830155610c60565b015160001960f88460031b161c191690558680806113ce565b818101518355602094850194600190930192909101906113b3565b61144190600687016000526020600020601f850160051c8101916020861061101157601f0160051c0190612504565b87610c31565b015190508680610beb565b9250600585016000526020600020906000935b601f19841685106114a9576001945083601f19811610611490575b505050811b016005830155610c03565b015160001960f88460031b161c19169055868080611480565b81810151835560209485019460019093019290910190611465565b6114f390600587016000526020600020601f850160051c8101916020861061101157601f0160051c0190612504565b87610bd4565b015190508680610b8e565b9250600485016000526020600020906000935b601f198416851061155b576001945083601f19811610611542575b505050811b016004830155610ba6565b015160001960f88460031b161c19169055868080611532565b81810151835560209485019460019093019290910190611517565b6115a590600487016000526020600020601f850160051c8101916020861061101157601f0160051c0190612504565b87610b77565b015190508680610b27565b9250600285016000526020600020906000935b601f198416851061160d576001945083601f198116106115f4575b505050811b016002830155610b3f565b015160001960f88460031b161c191690558680806115e4565b818101518355602094850194600190930192909101906115c9565b61165790600287016000526020600020601f850160051c8101916020861061101157601f0160051c0190612504565b87610b10565b60405162461bcd60e51b815260206004820152603260248201527f48616e79612070617369656e2079616e672062697361206d656d62756174207260448201527132b5b0b69036b2b234b99036b2b932b5b09760711b6064820152608490fd5b3461014c57602036600319011261014c5760043560055481101561014c5760056000527f036b6384b5eca791c62761152d0c79bb0604c104a5fb6f4eb0703f3154bb3db001546040516001600160a01b039091168152602090f35b3461014c57602036600319011261014c576001600160a01b0361173961223c565b166000526002602052602060ff604060002054166040519015158152f35b3461014c57600036600319011261014c576040518060055480825282602080930160056000527f036b6384b5eca791c62761152d0c79bb0604c104a5fb6f4eb0703f3154bb3db09260005b858282106117d1575050506117b9925003836122d2565b6117cd604051928284938452830190612389565b0390f35b85546001600160a01b03168452600195860195889550930192016117a2565b3461014c57602036600319011261014c5760043560045481101561014c57611819602091612252565b905460405160039290921b1c6001600160a01b03168152f35b3461014c5760208060031936011261014c576001600160a01b03908161185661223c565b1660005260019081815260406000209260ff83850154169161187b6002860195612400565b93604051928383885491828152019760005283600020916000905b8282106118dc576118c8896117cd8a8a8a8f826118b49103836122d2565b604051958695606087526060870190612349565b921515908501528382036040850152612389565b835481168a52988501989284019290840190611896565b3461014c57600036600319011261014c5733600052600360205260ff60406000205416611968573360005260036020526040600020600160ff1982541617905561193c3361251b565b7f4b58b2df530813522df235c26662546cdf2164ef8e0f7c6d18f415d15da470586020604051338152a1005b60405162461bcd60e51b8152602060048201526024808201527f416e64612073756461682074657264616674617220736562616761692050617360448201526334b2b71760e11b6064820152608490fd5b3461014c57600036600319011261014c576020600854604051908152f35b3461014c57602036600319011261014c576117cd6119fb6119f661223c565b6125f0565b604051918291602083526020830190612349565b3461014c57604036600319011261014c57611a2861223c565b6024906001600160a01b038235818116929083900361014c578190611a52826000541633146124a6565b16928360005260209160028352611a7060ff6040600020541661257f565b8360005260039182845260ff6040600020541615611b9457856000526001845260026040600020016000918154925b838110611b1b5750600160401b831015611b07577fd9a2627959a7f46a8b96c10424cdae1f1b65151551cd206b119aca54c0a86a5a60408989898989611aeb8a8a60018201815561229f565b81939154911b9185831b921b19161790558351928352820152a1005b634e487b7160e01b60009081526041600452fd5b8785611b27838661229f565b905490891b1c1614611b4157611b3c906125cb565b611a9f565b60405162461bcd60e51b8152600481018890526026818401527f50617369656e20737564616820646974756761736b616e206b6520646f6b7465604482015265391034b7349760d11b6064820152608490fd5b8360176064926040519262461bcd60e51b845260048401528201527f50617369656e20746964616b207465726461667461722e0000000000000000006044820152fd5b3461014c57602036600319011261014c576001600160a01b03611bf861223c565b166000526003602052602060ff604060002054166040519015158152f35b3461014c57604036600319011261014c57611c2f61223c565b6024356001600160401b03811161014c57611c4e9036906004016122f3565b611c6360018060a01b036000541633146124a6565b6001600160a01b03821660009081526002602052604090205460ff16611fac576001600160a01b03821660009081526003602052604090205460ff16611f585760018060a01b03821660005260026020526040600020600160ff1982541617905560405191602083018381106001600160401b038211176104a6576040526000835260405192606084018481106001600160401b038211176104a657604052828452602084019060018252604085015260018060a01b038216600052600160205260406000209084518051906001600160401b0382116104a657611d4784546123c6565b601f8111611f26575b50602090601f8311600114611eb357928260409593611da193600296600092611ea8575b50508160011b916000199060031b1c19161783555b511515600183019060ff801983541691151516179055565b01930151928351906001600160401b0382116104a657600160401b948583116104a6576020908254848455808510611e8b575b500190600052602060002060005b838110611e6e5750505050600454928310156104a657611e298360017fc38147498c0c3f6433ae14d0586b30fef7b292e301be82700c6478971c423dce9501600455612252565b81549060031b9060018060a01b038416821b9160018060a01b03901b19161790556103cf60405192839260018060a01b03168352604060208401526040830190612349565b82516001600160a01b031681830155602090920191600101611de2565b611ea2908460005285846000209182019101612504565b87611dd4565b015190508a80611d74565b908460005260206000209160005b601f1985168110611f0e575083611da1936002969360019360409997601f19811610611ef5575b505050811b018355611d89565b015160001960f88460031b161c191690558a8080611ee8565b91926020600181928685015181550194019201611ec1565b611f5290856000526020600020601f850160051c8101916020861061101157601f0160051c0190612504565b87611d50565b60405162461bcd60e51b815260206004820152602660248201527f416c616d6174207375646168207465726461667461722073656261676169205060448201526530b9b4b2b71760d11b6064820152608490fd5b60405162461bcd60e51b815260206004820152601760248201527f446f6b746572207375646168207465726461667461722e0000000000000000006044820152606490fd5b3461014c57602036600319011261014c5761201760018060a01b036000541633146124a6565b6004356000908152600660205260409020600d01805460ff19169055005b3461014c57602036600319011261014c5760043560045481101561205e57611819602091612252565b60405162461bcd60e51b815260206004820152601960248201527f496e64657820646f6b74657220746964616b2076616c69642e000000000000006044820152606490fd5b3461014c5760208060031936011261014c576120bd61223c565b9060018060a01b036120d4816000541633146124a6565b8216806000526002825260ff6040600020541661219057806000526003825260ff6040600020541661214b576121427f4b58b2df530813522df235c26662546cdf2164ef8e0f7c6d18f415d15da470589382600052600384526040600020600160ff1982541617905561251b565b604051908152a1005b60405162461bcd60e51b815260048101839052601760248201527f50617369656e207375646168207465726461667461722e0000000000000000006044820152606490fd5b60405162461bcd60e51b815260048101839052602660248201527f416c616d6174207375646168207465726461667461722073656261676169204460448201526537b5ba32b91760d11b6064820152608490fd5b3461014c57604036600319011261014c576121fd61223c565b6001600160a01b031660009081526007602052604090208054602435919082101561014c5760209161222e9161229f565b90546040519160031b1c8152f35b600435906001600160a01b038216820361014c57565b6004548110156122895760046000527f8a35acfbc15ff81a39ae7d344fd709f28e8600b4aa8c65c6b64bfe7fe36bd19b0190600090565b634e487b7160e01b600052603260045260246000fd5b80548210156122895760005260206000200190600090565b604081019081106001600160401b038211176104a657604052565b90601f801991011681019081106001600160401b038211176104a657604052565b81601f8201121561014c578035906001600160401b0382116104a65760405192612327601f8401601f1916602001856122d2565b8284526020838301011161014c57816000926020809301838601378301015290565b919082519283825260005b848110612375575050826000602080949584010152601f8019910116010190565b602081830181015184830182015201612354565b90815180825260208080930193019160005b8281106123a9575050505090565b83516001600160a01b03168552938101939281019260010161239b565b90600182811c921680156123f6575b60208310146123e057565b634e487b7160e01b600052602260045260246000fd5b91607f16916123d5565b9060405191826000825492612414846123c6565b9081845260019485811690816000146124835750600114612440575b505061243e925003836122d2565b565b9093915060005260209081600020936000915b81831061246b57505061243e93508201013880612430565b85548884018501529485019487945091830191612453565b91505061243e94506020925060ff191682840152151560051b8201013880612430565b156124ad57565b60405162461bcd60e51b815260206004820152602960248201527f48616e79612061646d696e2079616e672062697361206d656c616b756b616e2060448201526830b5b9b49034b7349760b91b6064820152608490fd5b81811061250f575050565b60008155600101612504565b600554600160401b8110156104a65760018101806005558110156122895760056000527f036b6384b5eca791c62761152d0c79bb0604c104a5fb6f4eb0703f3154bb3db00180546001600160a01b0319166001600160a01b03909216919091179055565b1561258657565b60405162461bcd60e51b815260206004820152601760248201527f446f6b74657220746964616b207465726461667461722e0000000000000000006044820152606490fd5b60001981146125da5760010190565b634e487b7160e01b600052601160045260246000fd5b6000546001600160a01b03918216911681146126995780600052600260205260ff6040600020541661267657600052600360205260ff604060002054166126545760405161263d816122b7565b60078152662ab735b737bbb760c91b602082015290565b604051612660816122b7565b60068152652830b9b4b2b760d11b602082015290565b50604051612683816122b7565b60068152652237b5ba32b960d11b602082015290565b506040516126a6816122b7565b600581526420b236b4b760d91b60208201529056fea2646970667358221220cf097a200964ab234e7add2cb6593b01f196ef6871edf2390ab63f5de736832464736f6c63430008130033",
  "immutableReferences": {},
  "source": "// SPDX-License-Identifier: MIT\r\npragma solidity >=0.4.22 <0.9.0;\r\n\r\ncontract RekamMedis {\r\n    address public admin;\r\n\r\n    struct Dokter {\r\n        string nama;\r\n        bool aktif;\r\n        address[] assignedPasien;\r\n    }\r\n\r\n    mapping(address => Dokter) public dataDokter;\r\n    mapping(address => bool) public isDokter;\r\n    mapping(address => bool) public isPasien;\r\n\r\n    address[] public daftarDokter; // daftar semua alamat dokter\r\n    address[] public daftarPasien; // daftar semua alamat pasien\r\n\r\n    struct RekamMedisData {\r\n        uint id;\r\n        address pasien;\r\n        string nama;\r\n        uint umur;\r\n        string golonganDarah;\r\n        string tanggalLahir;\r\n        string gender;\r\n        string alamat;\r\n        string noTelepon;\r\n        string email;\r\n        string diagnosa;\r\n        string foto;\r\n        string catatan;\r\n        bool valid;\r\n    }\r\n\r\n    mapping(uint => RekamMedisData) public rekamMedis;\r\n    mapping(address => uint[]) public rekamMedisByPasien;\r\n    uint public rekamMedisCount;\r\n\r\n    event RekamMedisDitambahkan(\r\n        uint id,\r\n        address pasien,\r\n        string diagnosa,\r\n        bool valid\r\n    );\r\n    event RekamMedisDiperbarui(uint id, string diagnosa, string catatan);\r\n    event AdminDitetapkan(address newAdmin);\r\n    event DokterTerdaftar(address dokter, string nama);\r\n    event DokterStatusDiubah(address dokter, bool aktif);\r\n    event PasienDiassignKeDokter(address dokter, address pasien);\r\n    event PasienTerdaftar(address pasien);\r\n\r\n    constructor() {\r\n        admin = 0xB0dC0Bf642d339517438017Fc185Bb0f758A01D2;\r\n    }\r\n\r\n    modifier hanyaAdmin() {\r\n        require(\r\n            msg.sender == admin,\r\n            \"Hanya admin yang bisa melakukan aksi ini.\"\r\n        );\r\n        _;\r\n    }\r\n\r\n    modifier hanyaDokterAktif() {\r\n        require(\r\n            isDokter[msg.sender] && dataDokter[msg.sender].aktif,\r\n            \"Hanya dokter aktif yang bisa memperbarui rekam medis.\"\r\n        );\r\n        _;\r\n    }\r\n\r\n    modifier hanyaPasien(address pasien) {\r\n        require(\r\n            msg.sender == pasien,\r\n            \"Hanya pasien yang bisa membuat rekam medis mereka.\"\r\n        );\r\n        _;\r\n    }\r\n\r\n    // Register dokter baru dengan nama dan aktifkan langsung\r\n    function registerDokter(\r\n        address _dokter,\r\n        string memory _nama\r\n    ) public hanyaAdmin {\r\n        require(!isDokter[_dokter], \"Dokter sudah terdaftar.\");\r\n        require(!isPasien[_dokter], \"Alamat sudah terdaftar sebagai Pasien.\");\r\n        isDokter[_dokter] = true;\r\n        dataDokter[_dokter] = Dokter({\r\n            nama: _nama,\r\n            aktif: true,\r\n            assignedPasien: new address[](0)\r\n        });\r\n        daftarDokter.push(_dokter);\r\n        emit DokterTerdaftar(_dokter, _nama);\r\n    }\r\n\r\n    // Ambil total dokter terdaftar\r\n    function totalDokter() public view returns (uint) {\r\n        return daftarDokter.length;\r\n    }\r\n\r\n    // Ambil alamat dokter berdasarkan index\r\n    function getDokterByIndex(uint index) public view returns (address) {\r\n        require(index < daftarDokter.length, \"Index dokter tidak valid.\");\r\n        return daftarDokter[index];\r\n    }\r\n\r\n    // Set status dokter aktif/nonaktif\r\n    function setStatusDokter(address _dokter, bool _aktif) public hanyaAdmin {\r\n        require(isDokter[_dokter], \"Dokter tidak terdaftar.\");\r\n        dataDokter[_dokter].aktif = _aktif;\r\n        emit DokterStatusDiubah(_dokter, _aktif);\r\n    }\r\n\r\n    // Assign pasien ke dokter tertentu\r\n    function assignPasienToDokter(\r\n        address _dokter,\r\n        address _pasien\r\n    ) public hanyaAdmin {\r\n        require(isDokter[_dokter], \"Dokter tidak terdaftar.\");\r\n        require(isPasien[_pasien], \"Pasien tidak terdaftar.\");\r\n\r\n        address[] storage daftarPasien = dataDokter[_dokter].assignedPasien;\r\n        for (uint i = 0; i < daftarPasien.length; i++) {\r\n            if (daftarPasien[i] == _pasien) {\r\n                revert(\"Pasien sudah ditugaskan ke dokter ini.\");\r\n            }\r\n        }\r\n        daftarPasien.push(_pasien);\r\n        emit PasienDiassignKeDokter(_dokter, _pasien);\r\n    }\r\n\r\n    // Get data dokter\r\n    function getDokter(\r\n        address _dokter\r\n    )\r\n        public\r\n        view\r\n        returns (string memory nama, bool aktif, address[] memory pasien)\r\n    {\r\n        Dokter storage d = dataDokter[_dokter];\r\n        return (d.nama, d.aktif, d.assignedPasien);\r\n    }\r\n\r\n    // Register pasien oleh admin\r\n    function registerPasien(address _pasien) public hanyaAdmin {\r\n        require(!isDokter[_pasien], \"Alamat sudah terdaftar sebagai Dokter.\");\r\n        require(!isPasien[_pasien], \"Pasien sudah terdaftar.\");\r\n        isPasien[_pasien] = true;\r\n        daftarPasien.push(_pasien);\r\n        emit PasienTerdaftar(_pasien);\r\n    }\r\n\r\n    // Self register pasien\r\n    function selfRegisterPasien() public {\r\n        require(!isPasien[msg.sender], \"Anda sudah terdaftar sebagai Pasien.\");\r\n        isPasien[msg.sender] = true;\r\n        daftarPasien.push(msg.sender);\r\n        emit PasienTerdaftar(msg.sender);\r\n    }\r\n\r\n    // Get role user\r\n    function getUserRole(address _user) public view returns (string memory) {\r\n        if (_user == admin) return \"Admin\";\r\n        if (isDokter[_user]) return \"Dokter\";\r\n        if (isPasien[_user]) return \"Pasien\";\r\n        return \"Unknown\";\r\n    }\r\n\r\n    // Ambil daftar rekam medis milik pasien\r\n    function getRekamMedisIdsByPasien(\r\n        address pasien\r\n    ) public view returns (uint[] memory) {\r\n        return rekamMedisByPasien[pasien];\r\n    }\r\n\r\n    // Ambil daftar semua pasien\r\n    function getDaftarPasien() public view returns (address[] memory) {\r\n        return daftarPasien;\r\n    }\r\n\r\n    // Set admin baru\r\n    function setAdmin(address _newAdmin) public hanyaAdmin {\r\n        admin = _newAdmin;\r\n        emit AdminDitetapkan(_newAdmin);\r\n    }\r\n\r\n    // Tambah rekam medis pasien\r\n    function tambahRekamMedis(\r\n        address _pasien,\r\n        string memory _nama,\r\n        uint _umur,\r\n        string memory _golonganDarah,\r\n        string memory _tanggalLahir,\r\n        string memory _gender,\r\n        string memory _alamat,\r\n        string memory _noTelepon,\r\n        string memory _email,\r\n        string memory _diagnosa,\r\n        string memory _foto,\r\n        string memory _catatan\r\n    ) public hanyaPasien(_pasien) {\r\n        rekamMedisCount++;\r\n        rekamMedis[rekamMedisCount] = RekamMedisData(\r\n            rekamMedisCount,\r\n            _pasien,\r\n            _nama,\r\n            _umur,\r\n            _golonganDarah,\r\n            _tanggalLahir,\r\n            _gender,\r\n            _alamat,\r\n            _noTelepon,\r\n            _email,\r\n            _diagnosa,\r\n            _foto,\r\n            _catatan,\r\n            true\r\n        );\r\n        rekamMedisByPasien[_pasien].push(rekamMedisCount);\r\n        emit RekamMedisDitambahkan(rekamMedisCount, _pasien, _diagnosa, true);\r\n    }\r\n\r\n    // Update rekam medis dokter aktif\r\n    function updateRekamMedis(\r\n        uint _id,\r\n        string memory _diagnosa,\r\n        string memory _catatan\r\n    ) public hanyaDokterAktif {\r\n        RekamMedisData storage rekam = rekamMedis[_id];\r\n        rekam.diagnosa = _diagnosa;\r\n        rekam.catatan = _catatan;\r\n        emit RekamMedisDiperbarui(_id, _diagnosa, _catatan);\r\n    }\r\n\r\n    // Nonaktifkan rekam medis (admin)\r\n    function nonaktifkanRekamMedis(uint _id) public hanyaAdmin {\r\n        rekamMedis[_id].valid = false;\r\n    }\r\n}\r\n",
  "sourcePath": "D:\\RekamMedisBlockchain\\contracts\\RekamMedis.sol",
  "compiler": {
    "name": "solc",
    "version": "0.8.19+commit.7dd6d404.Emscripten.clang"
  },
  "schemaVersion": "3.4.16",
  "updatedAt": "2025-05-15T23:58:54.151Z",
  "networkType": "ethereum",
  "devdoc": {
    "kind": "dev",
    "methods": {},
    "version": 1
  },
  "userdoc": {
    "kind": "user",
    "methods": {},
    "version": 1
  }
}