{
  "contractName": "RekamMedisRS",
  "abi": [
    {
      "inputs": [],
      "stateMutability": "nonpayable",
      "type": "constructor"
    },
    {
      "anonymous": false,
      "inputs": [
        {
          "indexed": true,
          "internalType": "address",
          "name": "admin",
          "type": "address"
        },
        {
          "indexed": false,
          "internalType": "bool",
          "name": "aktif",
          "type": "bool"
        }
      ],
      "name": "AdminRSStatusDiubah",
      "type": "event"
    },
    {
      "anonymous": false,
      "inputs": [
        {
          "indexed": true,
          "internalType": "address",
          "name": "admin",
          "type": "address"
        },
        {
          "indexed": false,
          "internalType": "string",
          "name": "namaRumahSakit",
          "type": "string"
        }
      ],
      "name": "AdminRSTerdaftar",
      "type": "event"
    },
    {
      "anonymous": false,
      "inputs": [
        {
          "indexed": true,
          "internalType": "address",
          "name": "dokter",
          "type": "address"
        },
        {
          "indexed": false,
          "internalType": "string",
          "name": "nama",
          "type": "string"
        },
        {
          "indexed": false,
          "internalType": "string",
          "name": "spesialisasi",
          "type": "string"
        },
        {
          "indexed": false,
          "internalType": "string",
          "name": "nomorLisensi",
          "type": "string"
        },
        {
          "indexed": true,
          "internalType": "address",
          "name": "adminRS",
          "type": "address"
        }
      ],
      "name": "DokterInfoDiperbarui",
      "type": "event"
    },
    {
      "anonymous": false,
      "inputs": [
        {
          "indexed": true,
          "internalType": "address",
          "name": "dokter",
          "type": "address"
        },
        {
          "indexed": false,
          "internalType": "bool",
          "name": "aktif",
          "type": "bool"
        }
      ],
      "name": "DokterStatusDiubah",
      "type": "event"
    },
    {
      "anonymous": false,
      "inputs": [
        {
          "indexed": true,
          "internalType": "address",
          "name": "dokter",
          "type": "address"
        },
        {
          "indexed": false,
          "internalType": "string",
          "name": "nama",
          "type": "string"
        },
        {
          "indexed": false,
          "internalType": "address",
          "name": "adminRS",
          "type": "address"
        }
      ],
      "name": "DokterTerdaftar",
      "type": "event"
    },
    {
      "anonymous": false,
      "inputs": [
        {
          "indexed": false,
          "internalType": "address",
          "name": "dokter",
          "type": "address"
        },
        {
          "indexed": false,
          "internalType": "address",
          "name": "pasien",
          "type": "address"
        }
      ],
      "name": "PasienDiassignKeDokter",
      "type": "event"
    },
    {
      "anonymous": false,
      "inputs": [
        {
          "indexed": true,
          "internalType": "address",
          "name": "pasien",
          "type": "address"
        },
        {
          "indexed": false,
          "internalType": "address",
          "name": "adminRS",
          "type": "address"
        }
      ],
      "name": "PasienPindahRS",
      "type": "event"
    },
    {
      "anonymous": false,
      "inputs": [
        {
          "indexed": true,
          "internalType": "address",
          "name": "pasien",
          "type": "address"
        },
        {
          "indexed": false,
          "internalType": "string",
          "name": "nama",
          "type": "string"
        },
        {
          "indexed": false,
          "internalType": "address",
          "name": "adminRS",
          "type": "address"
        }
      ],
      "name": "PasienTerdaftar",
      "type": "event"
    },
    {
      "anonymous": false,
      "inputs": [
        {
          "indexed": false,
          "internalType": "uint256",
          "name": "id",
          "type": "uint256"
        },
        {
          "indexed": false,
          "internalType": "string",
          "name": "diagnosa",
          "type": "string"
        },
        {
          "indexed": false,
          "internalType": "string",
          "name": "catatan",
          "type": "string"
        },
        {
          "indexed": false,
          "internalType": "address",
          "name": "dokter",
          "type": "address"
        },
        {
          "indexed": false,
          "internalType": "uint256",
          "name": "timestamp",
          "type": "uint256"
        }
      ],
      "name": "RekamMedisDiperbarui",
      "type": "event"
    },
    {
      "anonymous": false,
      "inputs": [
        {
          "indexed": false,
          "internalType": "uint256",
          "name": "id",
          "type": "uint256"
        },
        {
          "indexed": false,
          "internalType": "address",
          "name": "pasien",
          "type": "address"
        },
        {
          "indexed": false,
          "internalType": "string",
          "name": "diagnosa",
          "type": "string"
        },
        {
          "indexed": false,
          "internalType": "bool",
          "name": "valid",
          "type": "bool"
        }
      ],
      "name": "RekamMedisDitambahkan",
      "type": "event"
    },
    {
      "inputs": [
        {
          "internalType": "uint256",
          "name": "",
          "type": "uint256"
        }
      ],
      "name": "daftarAdmin",
      "outputs": [
        {
          "internalType": "address",
          "name": "",
          "type": "address"
        }
      ],
      "stateMutability": "view",
      "type": "function",
      "constant": true
    },
    {
      "inputs": [
        {
          "internalType": "uint256",
          "name": "",
          "type": "uint256"
        }
      ],
      "name": "daftarDokter",
      "outputs": [
        {
          "internalType": "address",
          "name": "",
          "type": "address"
        }
      ],
      "stateMutability": "view",
      "type": "function",
      "constant": true
    },
    {
      "inputs": [
        {
          "internalType": "uint256",
          "name": "",
          "type": "uint256"
        }
      ],
      "name": "daftarPasien",
      "outputs": [
        {
          "internalType": "address",
          "name": "",
          "type": "address"
        }
      ],
      "stateMutability": "view",
      "type": "function",
      "constant": true
    },
    {
      "inputs": [
        {
          "internalType": "address",
          "name": "",
          "type": "address"
        }
      ],
      "name": "dataAdmin",
      "outputs": [
        {
          "internalType": "string",
          "name": "namaRumahSakit",
          "type": "string"
        },
        {
          "internalType": "bool",
          "name": "aktif",
          "type": "bool"
        }
      ],
      "stateMutability": "view",
      "type": "function",
      "constant": true
    },
    {
      "inputs": [
        {
          "internalType": "address",
          "name": "",
          "type": "address"
        }
      ],
      "name": "dataDokter",
      "outputs": [
        {
          "internalType": "string",
          "name": "nama",
          "type": "string"
        },
        {
          "internalType": "string",
          "name": "spesialisasi",
          "type": "string"
        },
        {
          "internalType": "string",
          "name": "nomorLisensi",
          "type": "string"
        },
        {
          "internalType": "bool",
          "name": "aktif",
          "type": "bool"
        },
        {
          "internalType": "address",
          "name": "adminRS",
          "type": "address"
        }
      ],
      "stateMutability": "view",
      "type": "function",
      "constant": true
    },
    {
      "inputs": [
        {
          "internalType": "address",
          "name": "",
          "type": "address"
        }
      ],
      "name": "dataPasien",
      "outputs": [
        {
          "internalType": "string",
          "name": "nama",
          "type": "string"
        },
        {
          "internalType": "uint256",
          "name": "umur",
          "type": "uint256"
        },
        {
          "internalType": "string",
          "name": "golonganDarah",
          "type": "string"
        },
        {
          "internalType": "string",
          "name": "tanggalLahir",
          "type": "string"
        },
        {
          "internalType": "string",
          "name": "gender",
          "type": "string"
        },
        {
          "internalType": "string",
          "name": "alamat",
          "type": "string"
        },
        {
          "internalType": "string",
          "name": "noTelepon",
          "type": "string"
        },
        {
          "internalType": "string",
          "name": "email",
          "type": "string"
        },
        {
          "internalType": "address",
          "name": "rumahSakitPenanggungJawab",
          "type": "address"
        },
        {
          "internalType": "bool",
          "name": "exists",
          "type": "bool"
        }
      ],
      "stateMutability": "view",
      "type": "function",
      "constant": true
    },
    {
      "inputs": [
        {
          "internalType": "address",
          "name": "",
          "type": "address"
        }
      ],
      "name": "isDokter",
      "outputs": [
        {
          "internalType": "bool",
          "name": "",
          "type": "bool"
        }
      ],
      "stateMutability": "view",
      "type": "function",
      "constant": true
    },
    {
      "inputs": [
        {
          "internalType": "address",
          "name": "",
          "type": "address"
        }
      ],
      "name": "isPasien",
      "outputs": [
        {
          "internalType": "bool",
          "name": "",
          "type": "bool"
        }
      ],
      "stateMutability": "view",
      "type": "function",
      "constant": true
    },
    {
      "inputs": [
        {
          "internalType": "uint256",
          "name": "",
          "type": "uint256"
        }
      ],
      "name": "rekamMedis",
      "outputs": [
        {
          "internalType": "uint256",
          "name": "id",
          "type": "uint256"
        },
        {
          "internalType": "address",
          "name": "pasien",
          "type": "address"
        },
        {
          "internalType": "string",
          "name": "diagnosa",
          "type": "string"
        },
        {
          "internalType": "string",
          "name": "foto",
          "type": "string"
        },
        {
          "internalType": "string",
          "name": "catatan",
          "type": "string"
        },
        {
          "internalType": "bool",
          "name": "valid",
          "type": "bool"
        }
      ],
      "stateMutability": "view",
      "type": "function",
      "constant": true
    },
    {
      "inputs": [
        {
          "internalType": "address",
          "name": "",
          "type": "address"
        },
        {
          "internalType": "uint256",
          "name": "",
          "type": "uint256"
        }
      ],
      "name": "rekamMedisByPasien",
      "outputs": [
        {
          "internalType": "uint256",
          "name": "",
          "type": "uint256"
        }
      ],
      "stateMutability": "view",
      "type": "function",
      "constant": true
    },
    {
      "inputs": [],
      "name": "rekamMedisCount",
      "outputs": [
        {
          "internalType": "uint256",
          "name": "",
          "type": "uint256"
        }
      ],
      "stateMutability": "view",
      "type": "function",
      "constant": true
    },
    {
      "inputs": [
        {
          "internalType": "uint256",
          "name": "",
          "type": "uint256"
        },
        {
          "internalType": "uint256",
          "name": "",
          "type": "uint256"
        }
      ],
      "name": "rekamMedisUpdateHistory",
      "outputs": [
        {
          "internalType": "address",
          "name": "dokter",
          "type": "address"
        },
        {
          "internalType": "uint256",
          "name": "timestamp",
          "type": "uint256"
        }
      ],
      "stateMutability": "view",
      "type": "function",
      "constant": true
    },
    {
      "inputs": [
        {
          "internalType": "uint256",
          "name": "",
          "type": "uint256"
        },
        {
          "internalType": "uint256",
          "name": "",
          "type": "uint256"
        }
      ],
      "name": "rekamMedisVersions",
      "outputs": [
        {
          "internalType": "uint256",
          "name": "id",
          "type": "uint256"
        },
        {
          "internalType": "address",
          "name": "pasien",
          "type": "address"
        },
        {
          "internalType": "string",
          "name": "diagnosa",
          "type": "string"
        },
        {
          "internalType": "string",
          "name": "foto",
          "type": "string"
        },
        {
          "internalType": "string",
          "name": "catatan",
          "type": "string"
        },
        {
          "internalType": "bool",
          "name": "valid",
          "type": "bool"
        }
      ],
      "stateMutability": "view",
      "type": "function",
      "constant": true
    },
    {
      "inputs": [],
      "name": "superAdmin",
      "outputs": [
        {
          "internalType": "address",
          "name": "",
          "type": "address"
        }
      ],
      "stateMutability": "view",
      "type": "function",
      "constant": true
    },
    {
      "inputs": [
        {
          "internalType": "address",
          "name": "_admin",
          "type": "address"
        },
        {
          "internalType": "string",
          "name": "_namaRS",
          "type": "string"
        }
      ],
      "name": "registerAdminRS",
      "outputs": [],
      "stateMutability": "nonpayable",
      "type": "function"
    },
    {
      "inputs": [],
      "name": "getAllAdminRSAddresses",
      "outputs": [
        {
          "internalType": "address[]",
          "name": "",
          "type": "address[]"
        }
      ],
      "stateMutability": "view",
      "type": "function",
      "constant": true
    },
    {
      "inputs": [
        {
          "internalType": "address",
          "name": "_admin",
          "type": "address"
        },
        {
          "internalType": "bool",
          "name": "_aktif",
          "type": "bool"
        }
      ],
      "name": "setStatusAdminRS",
      "outputs": [],
      "stateMutability": "nonpayable",
      "type": "function"
    },
    {
      "inputs": [],
      "name": "totalAdmin",
      "outputs": [
        {
          "internalType": "uint256",
          "name": "",
          "type": "uint256"
        }
      ],
      "stateMutability": "view",
      "type": "function",
      "constant": true
    },
    {
      "inputs": [
        {
          "internalType": "uint256",
          "name": "idx",
          "type": "uint256"
        }
      ],
      "name": "getAdminByIndex",
      "outputs": [
        {
          "internalType": "address",
          "name": "",
          "type": "address"
        }
      ],
      "stateMutability": "view",
      "type": "function",
      "constant": true
    },
    {
      "inputs": [
        {
          "internalType": "address",
          "name": "_dokter",
          "type": "address"
        },
        {
          "internalType": "bool",
          "name": "_aktif",
          "type": "bool"
        }
      ],
      "name": "setStatusDokter",
      "outputs": [],
      "stateMutability": "nonpayable",
      "type": "function"
    },
    {
      "inputs": [],
      "name": "totalDokter",
      "outputs": [
        {
          "internalType": "uint256",
          "name": "",
          "type": "uint256"
        }
      ],
      "stateMutability": "view",
      "type": "function",
      "constant": true
    },
    {
      "inputs": [
        {
          "internalType": "address",
          "name": "_dokter",
          "type": "address"
        },
        {
          "internalType": "string",
          "name": "_nama",
          "type": "string"
        },
        {
          "internalType": "string",
          "name": "_spesialisasi",
          "type": "string"
        },
        {
          "internalType": "string",
          "name": "_nomorLisensi",
          "type": "string"
        }
      ],
      "name": "registerDokter",
      "outputs": [],
      "stateMutability": "nonpayable",
      "type": "function"
    },
    {
      "inputs": [
        {
          "internalType": "uint256",
          "name": "idx",
          "type": "uint256"
        }
      ],
      "name": "getDokterByIndex",
      "outputs": [
        {
          "internalType": "address",
          "name": "",
          "type": "address"
        }
      ],
      "stateMutability": "view",
      "type": "function",
      "constant": true
    },
    {
      "inputs": [
        {
          "internalType": "address",
          "name": "_dokter",
          "type": "address"
        },
        {
          "internalType": "string",
          "name": "_namaBaru",
          "type": "string"
        },
        {
          "internalType": "string",
          "name": "_spesialisasiBaru",
          "type": "string"
        },
        {
          "internalType": "string",
          "name": "_nomorLisensiBaru",
          "type": "string"
        }
      ],
      "name": "updateDokterInfo",
      "outputs": [],
      "stateMutability": "nonpayable",
      "type": "function"
    },
    {
      "inputs": [
        {
          "internalType": "address",
          "name": "_dokter",
          "type": "address"
        }
      ],
      "name": "getDokter",
      "outputs": [
        {
          "internalType": "string",
          "name": "nama",
          "type": "string"
        },
        {
          "internalType": "string",
          "name": "spesialisasi",
          "type": "string"
        },
        {
          "internalType": "string",
          "name": "nomorLisensi",
          "type": "string"
        },
        {
          "internalType": "bool",
          "name": "aktif",
          "type": "bool"
        },
        {
          "internalType": "address[]",
          "name": "pasienList",
          "type": "address[]"
        },
        {
          "internalType": "address",
          "name": "adminRS",
          "type": "address"
        }
      ],
      "stateMutability": "view",
      "type": "function",
      "constant": true
    },
    {
      "inputs": [
        {
          "internalType": "address",
          "name": "_pasien",
          "type": "address"
        },
        {
          "internalType": "string",
          "name": "_nama",
          "type": "string"
        },
        {
          "internalType": "address",
          "name": "_adminRS",
          "type": "address"
        }
      ],
      "name": "registerPasien",
      "outputs": [],
      "stateMutability": "nonpayable",
      "type": "function"
    },
    {
      "inputs": [
        {
          "internalType": "string",
          "name": "_nama",
          "type": "string"
        },
        {
          "internalType": "uint256",
          "name": "_umur",
          "type": "uint256"
        },
        {
          "internalType": "string",
          "name": "_golonganDarah",
          "type": "string"
        },
        {
          "internalType": "string",
          "name": "_tanggalLahir",
          "type": "string"
        },
        {
          "internalType": "string",
          "name": "_gender",
          "type": "string"
        },
        {
          "internalType": "string",
          "name": "_alamat",
          "type": "string"
        },
        {
          "internalType": "string",
          "name": "_noTelepon",
          "type": "string"
        },
        {
          "internalType": "string",
          "name": "_email",
          "type": "string"
        },
        {
          "internalType": "address",
          "name": "_adminRS",
          "type": "address"
        }
      ],
      "name": "selfRegisterPasien",
      "outputs": [],
      "stateMutability": "nonpayable",
      "type": "function"
    },
    {
      "inputs": [],
      "name": "getDaftarPasien",
      "outputs": [
        {
          "internalType": "address[]",
          "name": "",
          "type": "address[]"
        }
      ],
      "stateMutability": "view",
      "type": "function",
      "constant": true
    },
    {
      "inputs": [
        {
          "internalType": "address",
          "name": "_pasien",
          "type": "address"
        }
      ],
      "name": "getPasienData",
      "outputs": [
        {
          "internalType": "string",
          "name": "nama",
          "type": "string"
        },
        {
          "internalType": "uint256",
          "name": "umur",
          "type": "uint256"
        },
        {
          "internalType": "string",
          "name": "golonganDarah",
          "type": "string"
        },
        {
          "internalType": "string",
          "name": "tanggalLahir",
          "type": "string"
        },
        {
          "internalType": "string",
          "name": "gender",
          "type": "string"
        },
        {
          "internalType": "string",
          "name": "alamat",
          "type": "string"
        },
        {
          "internalType": "string",
          "name": "noTelepon",
          "type": "string"
        },
        {
          "internalType": "string",
          "name": "email",
          "type": "string"
        },
        {
          "internalType": "address",
          "name": "rumahSakitPenanggungJawab",
          "type": "address"
        }
      ],
      "stateMutability": "view",
      "type": "function",
      "constant": true
    },
    {
      "inputs": [
        {
          "internalType": "address",
          "name": "_dokter",
          "type": "address"
        },
        {
          "internalType": "address",
          "name": "_pasien",
          "type": "address"
        }
      ],
      "name": "assignPasienToDokter",
      "outputs": [],
      "stateMutability": "nonpayable",
      "type": "function"
    },
    {
      "inputs": [
        {
          "internalType": "address",
          "name": "_pasien",
          "type": "address"
        },
        {
          "internalType": "string",
          "name": "_diagnosa",
          "type": "string"
        },
        {
          "internalType": "string",
          "name": "_foto",
          "type": "string"
        },
        {
          "internalType": "string",
          "name": "_catatan",
          "type": "string"
        }
      ],
      "name": "tambahRekamMedis",
      "outputs": [],
      "stateMutability": "nonpayable",
      "type": "function"
    },
    {
      "inputs": [
        {
          "internalType": "uint256",
          "name": "_id",
          "type": "uint256"
        },
        {
          "internalType": "string",
          "name": "_diagnosa",
          "type": "string"
        },
        {
          "internalType": "string",
          "name": "_foto",
          "type": "string"
        },
        {
          "internalType": "string",
          "name": "_catatan",
          "type": "string"
        }
      ],
      "name": "updateRekamMedis",
      "outputs": [],
      "stateMutability": "nonpayable",
      "type": "function"
    },
    {
      "inputs": [
        {
          "internalType": "address",
          "name": "_pasien",
          "type": "address"
        }
      ],
      "name": "getRekamMedisIdsByPasien",
      "outputs": [
        {
          "internalType": "uint256[]",
          "name": "",
          "type": "uint256[]"
        }
      ],
      "stateMutability": "view",
      "type": "function",
      "constant": true
    },
    {
      "inputs": [
        {
          "internalType": "uint256",
          "name": "_id",
          "type": "uint256"
        }
      ],
      "name": "getRekamMedis",
      "outputs": [
        {
          "internalType": "address",
          "name": "pasien",
          "type": "address"
        },
        {
          "internalType": "string",
          "name": "diagnosa",
          "type": "string"
        },
        {
          "internalType": "string",
          "name": "foto",
          "type": "string"
        },
        {
          "internalType": "string",
          "name": "catatan",
          "type": "string"
        },
        {
          "internalType": "bool",
          "name": "valid",
          "type": "bool"
        }
      ],
      "stateMutability": "view",
      "type": "function",
      "constant": true
    },
    {
      "inputs": [
        {
          "internalType": "uint256",
          "name": "_id",
          "type": "uint256"
        }
      ],
      "name": "getRekamMedisVersions",
      "outputs": [
        {
          "components": [
            {
              "internalType": "uint256",
              "name": "id",
              "type": "uint256"
            },
            {
              "internalType": "address",
              "name": "pasien",
              "type": "address"
            },
            {
              "internalType": "string",
              "name": "diagnosa",
              "type": "string"
            },
            {
              "internalType": "string",
              "name": "foto",
              "type": "string"
            },
            {
              "internalType": "string",
              "name": "catatan",
              "type": "string"
            },
            {
              "internalType": "bool",
              "name": "valid",
              "type": "bool"
            }
          ],
          "internalType": "struct RekamMedisRS.RekamMedisData[]",
          "name": "",
          "type": "tuple[]"
        }
      ],
      "stateMutability": "view",
      "type": "function",
      "constant": true
    },
    {
      "inputs": [
        {
          "internalType": "uint256",
          "name": "_id",
          "type": "uint256"
        }
      ],
      "name": "getRekamMedisUpdateHistory",
      "outputs": [
        {
          "internalType": "address[]",
          "name": "",
          "type": "address[]"
        },
        {
          "internalType": "uint256[]",
          "name": "",
          "type": "uint256[]"
        }
      ],
      "stateMutability": "view",
      "type": "function",
      "constant": true
    },
    {
      "inputs": [
        {
          "internalType": "uint256",
          "name": "_id",
          "type": "uint256"
        }
      ],
      "name": "nonaktifkanRekamMedis",
      "outputs": [],
      "stateMutability": "nonpayable",
      "type": "function"
    },
    {
      "inputs": [
        {
          "internalType": "address",
          "name": "_newAdmin",
          "type": "address"
        }
      ],
      "name": "setSuperAdmin",
      "outputs": [],
      "stateMutability": "nonpayable",
      "type": "function"
    },
    {
      "inputs": [
        {
          "internalType": "address",
          "name": "_user",
          "type": "address"
        }
      ],
      "name": "getUserRole",
      "outputs": [
        {
          "internalType": "string",
          "name": "",
          "type": "string"
        }
      ],
      "stateMutability": "view",
      "type": "function",
      "constant": true
    }
  ],
  "bytecode": "0x6080806040523461003c57600080546001600160a01b03191673b0dc0bf642d339517438017fc185bb0f758a01d21790556145da90816100428239f35b600080fdfe6080604052600436101561001257600080fd5b60003560e01c8062410cb314613a66578063046bdbcc14613a07578063083d8824146139bb5780631132beb51461397c578063157000521461393557806319d9d3dd146138b457806319e8f4051461367c57806326c249a114612e175780632782085114612ddf57806329575f6a14612db65780632e2dd10214612d985780633aaec7281461275c5780633bf76303146126f95780633da05518146125eb57806342699651146125c257806347960cb51461251c57806351887b67146124875780635c4c9348146124485780635e6da24c14612228578063623785c1146121ba57806364319e331461219c5780636837008714612141578063786f3fbe146120105780637d3e9db814611ff2578063911b633a14611fb0578063924b912314611ea2578063932e0f6d14611dec5780639725955014611da0578063a665102c14611cdc578063abf72abb14611c99578063ad3c97081461179a578063b75de7a81461139a578063c3c0fdea146112ed578063c967ede814611262578063d6887802146110d5578063dd09a96814611052578063ddbd24d314610b2f578063df83dde0146102ad5763f2ab4a99146101c857600080fd5b346102a8576101d636613dbc565b60005490916001600160a01b03916101f19083163314613f08565b169081600052600160205261020a604060002054613c1a565b156102635760207fd2e4d0240eabf0011425eb3fffbc4f311cd4b564ba547aba4b3163fd046f6a979183600052600182526102588160016040600020019060ff801983541691151516179055565b6040519015158152a2005b60405162461bcd60e51b815260206004820152601960248201527f41646d696e20525320746964616b20646974656d756b616e2e000000000000006044820152606490fd5b600080fd5b346102a85760603660031901126102a8576102c6613abe565b6024356001600160401b0381116102a8576102e5903690600401613bad565b906044356001600160a01b03811690036102a85733600052600160205261031660ff60016040600020015416614070565b6001600160a01b03831660009081526006602052604090205460ff16610aea576001600160a01b03831660009081526004602052604090205461035c9060ff161561418c565b60018060a01b0360443516600052600160205261038360ff600160406000200154166141cf565b6001600160a01b03831660009081526006602052604090819020805460ff1916600117905551926103b384613c54565b6103be368484613f49565b8452600060208501526040516103d381613ca6565b6000815260408501526040516103e881613ca6565b6000815260608501526040516103fd81613ca6565b60008152608085015260405161041281613ca6565b6000815260a085015260405161042781613ca6565b6000815260c085015260405161043c81613ca6565b600080825260e08601919091526001600160a01b03604435811661010087015260016101208701528216815260056020526040902084518051919591906001600160401b03821161080457819061049d826104978a54613c1a565b8a613fa6565b602090601f8311600114610a7e57600092610a73575b50508160011b916000199060031b1c19161785555b6020810151600186015560408101518051906001600160401b038211610804578190610504826104fb60028b0154613c1a565b60028b01613fa6565b602090601f8311600114610a01576000926109f6575b50508160011b916000199060031b1c19161760028601555b60608101518051906001600160401b0382116108045781906105648261055b60038b0154613c1a565b60038b01613fa6565b602090601f831160011461098457600092610979575b50508160011b916000199060031b1c19161760038601555b60808101518051906001600160401b0382116108045781906105c4826105bb60048b0154613c1a565b60048b01613fa6565b602090601f8311600114610907576000926108fc575b50508160011b916000199060031b1c19161760048601555b60a081015180516001600160401b038111610804578060058801926106218261061b8654613c1a565b86613fa6565b602090601f83116001146108965760009261088b575b50508160011b916000199060031b1c19161790555b60c081015180516001600160401b038111610804578060068801926106758261061b8654613c1a565b602090601f83116001146108255760009261081a575b50508160011b916000199060031b1c19161790555b60e08101519485516001600160401b038111610804576106d0816106c76007850154613c1a565b60078501613fa6565b6020601f8211600114610782579080600893926000805160206145858339815191529899600092610777575b50508160011b916000199060031b1c19161760078201555b019060018060a01b036101008201511682549161012060ff60a01b910151151560a01b16916affffffffffffffffffffff60a81b161717905561075681613feb565b61077260405192839260018060a01b0316956044359184614163565b0390a2005b0151905089806106fc565b6007830160005260206000209760005b601f19841681106107ec57509160008051602061458583398151915297986001926008959483601f198116106107d3575b505050811b016007820155610714565b015160001960f88460031b161c191690558980806107c3565b828201518a5560019099019860209283019201610792565b634e487b7160e01b600052604160045260246000fd5b01519050888061068b565b6000858152602081209350601f198516905b818110610873575090846001959493921061085a575b505050811b0190556106a0565b015160001960f88460031b161c1916905588808061084d565b92936020600181928786015181550195019301610837565b015190508880610637565b6000858152602081209350601f198516905b8181106108e457509084600195949392106108cb575b505050811b01905561064c565b015160001960f88460031b161c191690558880806108be565b929360206001819287860151815501950193016108a8565b0151905087806105da565b9250600488016000526020600020906000935b601f198416851061095e576001945083601f19811610610945575b505050811b0160048601556105f2565b015160001960f88460031b161c19169055878080610935565b8181015183556020948501946001909301929091019061091a565b01519050878061057a565b9250600388016000526020600020906000935b601f19841685106109db576001945083601f198116106109c2575b505050811b016003860155610592565b015160001960f88460031b161c191690558780806109b2565b81810151835560209485019460019093019290910190610997565b01519050878061051a565b9250600288016000526020600020906000935b601f1984168510610a58576001945083601f19811610610a3f575b505050811b016002860155610532565b015160001960f88460031b161c19169055878080610a2f565b81810151835560209485019460019093019290910190610a14565b0151905087806104b3565b9250876000526020600020906000935b601f1984168510610acf576001945083601f19811610610ab6575b505050811b0185556104c8565b015160001960f88460031b161c19169055878080610aa9565b81810151835560209485019460019093019290910190610a8e565b60405162461bcd60e51b815260206004820152601760248201527f50617369656e207375646168207465726461667461722e0000000000000000006044820152606490fd5b346102a857610b3d36613e74565b90959291949395336000526001602052610b6160ff60016040600020015416614070565b6001600160a01b03841660009081526004602052604090205460ff1661101d576001600160a01b03841660009081526006602052604090205460ff16610fe157610c079160018060a01b03851660005260046020526040600020600160ff19825416179055610bfb60405194610bd686613ca6565b6000865260405198610be78a613c8b565b610bf2368c8b613f49565b8a523691613f49565b60208801523691613f49565b60408501526001606085015260808401523360a084015260018060a01b038116600052600360205260406000209280518051906001600160401b038211610804578190610c5e82610c588954613c1a565b89613fa6565b602090601f8311600114610f7557600092610f6a575b50508160011b916000199060031b1c19161784555b60208101518051906001600160401b038211610804578190610cbb82610cb260018a0154613c1a565b60018a01613fa6565b602090601f8311600114610ef857600092610eed575b50508160011b916000199060031b1c19161760018501555b604081015180516001600160401b03811161080457806002870192610d128261061b8654613c1a565b602090601f8311600114610e8757600092610e7c575b50508160011b916000199060031b1c19161790555b610d5c60608201511515600386019060ff801983541691151516179055565b60048401936080820151948551906001600160401b03821161080457600160401b96878311610804576020908254848455808510610e5f575b500190600052602060002060005b838110610e4257505050506005019060a0600180821b03910151166001600160601b0360a01b825416179055600c549283101561080457610e0b8360017f5c9d12a5bfda65f31ab460df37935bfe7b6cfa6a3787bf1f99858ccc15dc92779501600c55613ad4565b81546001600160a01b0393841660039290921b82811b94901b19169290921790556040519093909182916107729133919084614163565b82516001600160a01b031681830155602090920191600101610da3565b610e76908460005285846000209182019101613f8f565b8a610d95565b015190508880610d28565b6000858152602081209350601f198516905b818110610ed55750908460019594939210610ebc575b505050811b019055610d3d565b015160001960f88460031b161c19169055888080610eaf565b92936020600181928786015181550195019301610e99565b015190508780610cd1565b9250600187016000526020600020906000935b601f1984168510610f4f576001945083601f19811610610f36575b505050811b016001850155610ce9565b015160001960f88460031b161c19169055878080610f26565b81810151835560209485019460019093019290910190610f0b565b015190508780610c74565b9250866000526020600020906000935b601f1984168510610fc6576001945083601f19811610610fad575b505050811b018455610c89565b015160001960f88460031b161c19169055878080610fa0565b81810151835560209485019460019093019290910190610f85565b60405162461bcd60e51b815260206004820152601460248201527320b630b6b0ba1036b4b634b5903830b9b4b2b71760611b6044820152606490fd5b60405162461bcd60e51b815260206004820152600d60248201526c29bab230b4103237b5ba32b91760991b6044820152606490fd5b346102a85761106036613deb565b90600052600a60205260406000209081548110156102a85761108191613eec565b50805460018201546001600160a01b0316916110d1906110a360028201613ce2565b906110b060038201613ce2565b60ff60056110c060048501613ce2565b930154169260405196879687613e1d565b0390f35b346102a8576020806003193601126102a857600435600052600a81526040600020908154916111038361414c565b926111116040519485613cc1565b8084528284018092600052836000206000915b8383106111e75750505050604051918083019381845251809452604083019360408160051b85010192916000955b82871061115f5785850386f35b909192938280600192603f1989820301855287519081518152848060a01b038383015116838201526111cb6111b86111a5604085015160c0806040870152850190613bda565b6060808601519085830390860152613bda565b6080808501519084830390850152613bda565b9160a08091015115159101529601920196019592919092611152565b6006866001926040999899516111fc81613c8b565b85548152848060a01b0385870154168382015261121b60028701613ce2565b604082015261122c60038701613ce2565b606082015261123d60048701613ce2565b608082015260ff600587015416151560a0820152815201920192019190959495611124565b346102a8576020806003193601126102a8576001600160a01b03611284613abe565b1660005260088152604060002090604051808383829554938481520190600052836000209260005b858282106112d7575050506112c392500383613cc1565b6110d1604051928284938452830190613d88565b85548452600195860195889550930192016112ac565b346102a85760203660031901126102a85761136d6001600160a01b0380611312613abe565b166000526003602052604060002061132981613ce2565b9161138961133960018401613ce2565b9161137b61134960028601613ce2565b91600560ff600388015416960154169360405197889760a0895260a0890190613bda565b908782036020890152613bda565b908582036040870152613bda565b911515606084015260808301520390f35b346102a8576113a836613e74565b959492909391953360005260016020526113cc60ff60016040600020015416614070565b60018060a01b0391828716600052600460205260ff604060002054161561174b5782871660005260039788602052338460056040600020015416036116ec578388166000528860205260406000206001600160401b038087116108045761143d876114378454613c1a565b84613fa6565b866000601f82116001146116875760009161167c575b50600019888d1b1c1916600188901b1782555b80831161080457600182016114858461147f8354613c1a565b83613fa6565b836000601f82116001146116195760009161160e575b50600019858e1b1c1916600185901b1790555b8411610804576114ce846114c56002840154613c1a565b60028401613fa6565b6000601f8511600114611571579184939160027f4e15ca2ba26538cdb1e2f0d595a1ec96fe8fbb126404e0cc083426c33ccbdd959a9b9c611561989761154f96600091611566575b508760011b9188600019911b1c1916179101555b61154160405198899860608a5260608a019161404f565b91878303602089015261404f565b9184830360408601523398169661404f565b0390a3005b90508d01358f611516565b99601f198516906002830160005260206000209160005b8181106115f65750917f4e15ca2ba26538cdb1e2f0d595a1ec96fe8fbb126404e0cc083426c33ccbdd959a9b9c87969492611561999861154f9795106115dc575b5050506002600186811b0191015561152a565b60f888600019921b161c19908d01351690558c80806115c9565b8b8e0135845560209d8e019d60019094019301611588565b90508501358d61149b565b60008381526020812092505b601f1987168110611664575085601f1981161061164c575b5050600184811b0190556114ae565b860135600019868f1b60f8161c191690558c8061163d565b9091602060018192858b013581550193019101611625565b90508801358c611453565b60008481526020812092508990601f198216905b8c8282106116d2575050106116ba575b5050600187811b018255611466565b890135600019898e1b60f8161c191690558b806116ab565b84013585556001909401936020938401938c93500161169b565b60405162461bcd60e51b815260206004820152603160248201527f416e64612062756b616e2061646d696e2052532079616e672062657268616b206044820152703ab73a3ab5903237b5ba32b91034b7349760791b6064820152608490fd5b60405162461bcd60e51b815260206004820152602160248201527f446f6b74657220746964616b207465726461667461722064692073697374656d6044820152601760f91b6064820152608490fd5b346102a8576117a836613e74565b9495946001600160a01b03949392909160003387891603611c3b575060015b15611c0657858716600052600660205260ff6040600020541615611bc15761183c6117f3600954614319565b91826009556040519461180586613c8b565b83865261183060208701978a8c1689526118218d8b3691613f49565b96604089019788523691613f49565b60608701523691613f49565b6080840152600160a084015260005260076020526040600020928251845585600185019151166001600160601b0360a01b825416179055518051906001600160401b0382116108045781906118a1826118986002880154613c1a565b60028801613fa6565b602090601f8311600114611b4f57600092611b44575b50508160011b916000199060031b1c19161760028301555b60608101518051906001600160401b038211610804578190611901826118f86003880154613c1a565b60038801613fa6565b602090601f8311600114611ad257600092611ac7575b50508160011b916000199060031b1c19161760038301555b6004820160808201518051906001600160401b0382116108045761195d826119578554613c1a565b85613fa6565b602090601f8311600114611a5557928260a0936119ad979693600596600092611a4a575b50508160011b916000199060031b1c19161790555b0151151591019060ff801983541691151516179055565b818316600052600860205260406000209360095491855492600160401b84101561080457611a05847f8647b41d1ffdc302f876f0e70e0c442d110a3c8bad284218f99616149394c997986001611a3e97018155613b58565b819291549060031b91821b91600019901b191617905560095493604051958695865216602085015260806040850152608084019161404f565b600160608301520390a1005b015190508c80611981565b90601f198316918460005260206000209260005b818110611aaf5750936119ad979693600596936001938360a09810611a96575b505050811b019055611996565b015160001960f88460031b161c191690558c8080611a89565b92936020600181928786015181550195019301611a69565b015190508880611917565b9250600385016000526020600020906000935b601f1984168510611b29576001945083601f19811610611b10575b505050811b01600383015561192f565b015160001960f88460031b161c19169055888080611b00565b81810151835560209485019460019093019290910190611ae5565b0151905088806118b7565b9250600285016000526020600020906000935b601f1984168510611ba6576001945083601f19811610611b8d575b505050811b0160028301556118cf565b015160001960f88460031b161c19169055888080611b7d565b81810151835560209485019460019093019290910190611b62565b60405162461bcd60e51b815260206004820152601760248201527f50617369656e20746964616b207465726461667461722e0000000000000000006044820152606490fd5b60405162461bcd60e51b815260206004820152600d60248201526c2a34b230b5903132b93430b59760991b6044820152606490fd5b33600052600460205260ff60406000205416611c57575b6117c7565b6003602052866005604060002001541687891660005260056020528760086040600020015416036117c757611c8c883361433e565b15611c52575060016117c7565b346102a85760203660031901126102a8576004356000908152600760205260409020805460018201546001600160a01b0316916110d1906110a360028201613ce2565b346102a85760203660031901126102a857611cf5613abe565b611cfe90614213565b95604098979895919594929451988998610120808b528a01611d1f91613bda565b9060208a015288810360408a0152611d3691613bda565b8781036060890152611d4791613bda565b8681036080880152611d5891613bda565b85810360a0870152611d6991613bda565b84810360c0860152611d7a91613bda565b83810360e0850152611d8b91613bda565b6001600160a01b039091166101008301520390f35b346102a857611dae36613deb565b90600052600b602052604060002080548210156102a857604091611dd191613e01565b506001808060a01b0382541691015482519182526020820152f35b346102a85760207f3dcd68c14f5f191f12b3b56bf35d5d7eb22447e9ec685290967b4558822ca98a611e1d36613dbc565b9290923360005260018252611e3c60ff60016040600020015416614070565b611e7d60018060a01b03809516948560005260048452611e6360ff604060002054166140b4565b856000526003845233906005604060002001541614614100565b83600052600382526102588160036040600020019060ff801983541691151516179055565b346102a8576020806003193601126102a85760043580600052600b90818352604060002054611ed08161414c565b92611ede6040519485613cc1565b818452601f199283611eef8461414c565b013687870137611efe8361414c565b93611f0c6040519586613cc1565b838552611f188461414c565b01368786013760005b838110611f5257611f45866110d18988604051948594604086526040860190613b70565b9184830390850152613d88565b611fab9082600052838852611f6b816040600020613e01565b50546001600160a01b0316611f80828961447f565b52826000528388526001611f98826040600020613e01565b500154611fa5828861447f565b52614319565b611f21565b346102a85760203660031901126102a8576004356002548110156102a857611fd9602091613b21565b905460405160039290921b1c6001600160a01b03168152f35b346102a85760003660031901126102a8576020600c54604051908152f35b346102a85760203660031901126102a8576001600160a01b0380612032613abe565b16600052600560205260406000209061204a82613ce2565b906001830154926002810161205e90613ce2565b9061206b60038201613ce2565b61207760048301613ce2565b61208360058401613ce2565b9061209060068501613ce2565b9261209d60078601613ce2565b946008015495604051998a99610140808c528b016120ba91613bda565b9060208b015289810360408b01526120d191613bda565b88810360608a01526120e291613bda565b87810360808901526120f391613bda565b86810360a088015261210491613bda565b85810360c087015261211591613bda565b84810360e086015261212691613bda565b91811661010084015260a01c60ff1615156101208301520390f35b346102a85760203660031901126102a857600435600d548110156102a857600d6000527fd7b6990105719101dabeb77144f2a3385c8033acd3af97e9423a695e81ad1eb501546040516001600160a01b039091168152602090f35b346102a85760003660031901126102a8576020600254604051908152f35b346102a85760203660031901126102a8576004356002548110156121e357611fd9602091613b21565b60405162461bcd60e51b815260206004820152601760248201527f496e6465782061646d696e20525320696e76616c69642e0000000000000000006044820152606490fd5b346102a85760403660031901126102a857612241613abe565b6001600160401b036024358181116102a857612261903690600401613bad565b909160018060a01b03809461227b82600054163314613f08565b169384600052600193602092858452612298604060002054613c1a565b612403576040516122a881613c70565b6122b3368785613f49565b815284810187815288600052878652604060002091519081519384116108045788916122e38561061b8654613c1a565b8790601f861160011461239a5761232895916000918361238f575b5050600019600383901b1c191690831b1783555b51151591019060ff801983541691151516179055565b60025491600160401b8310156108045761236b837fc881e1c26fa1da107683b7f0c3f1689379721f2118918ff97cb8c0f0dfc9d354976107729501600255613b21565b819291549060031b9189831b921b191617905560405193838594855284019161404f565b015190508c806122fe565b90601f1986169185600052896000209260005b8b8282106123ed57505091859391886123289994106123d4575b505050811b018355612312565b015160001960f88460031b161c191690558c80806123c7565b8385015186558e979095019493840193016123ad565b60405162461bcd60e51b815260048101859052601960248201527f41646d696e205253207375646168207465726461667461722e000000000000006044820152606490fd5b346102a85760203660031901126102a8576001600160a01b03612469613abe565b166000526004602052602060ff604060002054166040519015158152f35b346102a85760003660031901126102a85760405180600d54808252826020809301600d6000527fd7b6990105719101dabeb77144f2a3385c8033acd3af97e9423a695e81ad1eb59260005b858282106124fd575050506124e992500383613cc1565b6110d1604051928284938452830190613b70565b85546001600160a01b03168452600195860195889550930192016124d2565b346102a85760203660031901126102a8576004356000526007602052604060002060018060a01b0360018201541660ff6005830154166125b661256160028501613ce2565b936125a861257d600461257660038501613ce2565b9301613ce2565b9161259a604051978897885260a0602089015260a0880190613bda565b908682036040880152613bda565b908482036060860152613bda565b90151560808301520390f35b346102a85760203660031901126102a857600435600c548110156102a857611fd9602091613ad4565b346102a8576020806003193601126102a8576001600160a01b03908161260f613abe565b166000526003815260406000209060ff600383015416926004830190806005850154169261263c85613ce2565b946001936126506002612576878501613ce2565b93604051958685845491828152019360005285600020926000905b8282106126e2575050505050926126b585936126c3936126946126d8986126a89c980387613cc1565b6040519a8b9a60c08c5260c08c0190613bda565b918a8303908b0152613bda565b908782036040890152613bda565b91151560608601528482036080860152613b70565b9060a08301520390f35b84548116865294870194938301939083019061266b565b346102a85760203660031901126102a8576001600160a01b0361271a613abe565b166000526001602052612750604060002060ff600161273883613ce2565b92015416604051928392604084526040840190613bda565b90151560208301520390f35b346102a85760803660031901126102a8576024356001600160401b0381116102a85761278c903690600401613bad565b906044356001600160401b0381116102a8576127ac903690600401613bad565b6064939193356001600160401b0381116102a8576127ce903690600401613bad565b949091600435600052600760205260018060a01b036001604060002001541633600052600460205260ff6040600020541680612d81575b15612d465733600052600360205260018060a01b036005604060002001541681600052600560205260018060a01b036008604060002001541603612d01576000903360005260036020526004604060002001906000918054925b838110612cc1575b5050505015612c70576004356000526007602052604060002091600a60205260406000208054600160401b811015610804576128a891600182018155613eec565b612a7957838103612bf4575b506001600160401b038511610804576128dd856128d46002860154613c1a565b60028601613fa6565b846000601f8211600114612b8657600091612b7b575b508560011b906000198760031b1c19161760028401555b6001600160401b0382116108045781906129348261292b6003870154613c1a565b60038701613fa6565b600090601f8311600114612b0a57600092612aff575b50508160011b916000199060031b1c19161760038201555b6001600160401b038511610804576004016129818561147f8354613c1a565b846000601f8211600114612a9a57600091612a8f575b508560011b906000198760031b1c19161790555b600435600052600b602052604060002090604051946129c986613c70565b33865260208601924284528054600160401b811015610804576129f191600182018155613e01565b612a79576001612a68947fa06c67f47503323e059cd610f8be787c36f230a67a8ad4dc026d86692b66476b98828060a01b039051166001600160601b0360a01b84541617835551910155612a5a604051958695600435875260a0602088015260a087019161404f565b91848303604086015261404f565b3360608301524260808301520390a1005b634e487b7160e01b600052600060045260246000fd5b905082013586612997565b60008381526020812092505b601f1988168110612ae7575086601f19811610612acd575b5050600185811b0190556129ab565b830135600019600388901b60f8161c191690558580612abe565b90916020600181928588013581550193019101612aa6565b01359050878061294a565b909250600384016000526020600020906000935b601f1984168510612b63576001945083601f19811610612b49575b505050811b016003820155612962565b0135600019600384901b60f8161c19169055878080612b39565b81810135835560209485019460019093019201612b1e565b9050860135886128f3565b90506002840160005260206000209060005b601f1988168110612bdc575086601f19811610612bc2575b5050600185811b01600284015561290a565b870135600019600388901b60f8161c191690558780612bb0565b9091602060018192858c013581550193019101612b98565b612c6a90845481556001810160018060a01b036001870154166001600160601b0360a01b825416179055612c2e60028601600283016143a7565b612c3e60038601600383016143a7565b612c4e60048601600483016143a7565b600560ff818701541691019060ff801983541691151516179055565b876128b4565b60405162461bcd60e51b8152602060048201526024808201527f446f6b74657220746964616b20646961737369676e206b652070617369656e2060448201526334b7349760e11b6064820152608490fd5b82612ccc8284613b58565b905460039190911b1c6001600160a01b031614612cf157612cec90614319565b61285f565b5050505050600187808080612867565b60405162461bcd60e51b815260206004820152601760248201527f446f6b74657220262070617369656e20626564612052530000000000000000006044820152606490fd5b60405162461bcd60e51b81526020600482015260136024820152722430b73cb0903237b5ba32b91030b5ba34b31760691b6044820152606490fd5b50600360205260ff60036040600020015416612805565b346102a85760003660031901126102a8576020600954604051908152f35b346102a85760003660031901126102a8576000546040516001600160a01b039091168152602090f35b346102a85760203660031901126102a8576110d1612e03612dfe613abe565b614493565b604051918291602083526020830190613bda565b346102a8576101203660031901126102a8576004356001600160401b0381116102a857612e48903690600401613bad565b906044356001600160401b0381116102a857612e68903690600401613bad565b906064356001600160401b0381116102a857612e88903690600401613bad565b906084356001600160401b0381116102a857612ea8903690600401613bad565b9060a4356001600160401b0381116102a857612ec8903690600401613bad565b909160c4356001600160401b0381116102a857612ee9903690600401613bad565b94909560e4356001600160401b0381116102a857612f0b903690600401613bad565b9099909890610104356001600160a01b03811690036102a85733600052600660205260ff60406000205416613642578d9b33600052600460205260406000205460ff1615612f589061418c565b610104356001600160a01b031660009081526001602081905260409091200154612f849060ff166141cf565b336000526006602052604060002060ff1981541660011790558d6040519d612fab8f613c54565b3690612fb692613f49565b8d528c60243590602001523690612fcc92613f49565b60408c01523690612fdc92613f49565b60608a01523690612fec92613f49565b60808801523690612ffc92613f49565b60a0860152369061300c92613f49565b60c0840152369061301c92613f49565b60e0820152610104356001600160a01b0316610100820152600161012082015233600090815260056020526040902081518051906001600160401b03821161080457819061306e8261061b8654613c1a565b602090601f83116001146135d6576000926135cb575b50508160011b916000199060031b1c19161781555b60208201516001820155604082015180516001600160401b038111610804578060028401926130cc8261061b8654613c1a565b602090601f83116001146135655760009261355a575b50508160011b916000199060031b1c19161790555b606082015180516001600160401b038111610804578060038401926131208261061b8654613c1a565b602090601f83116001146134f4576000926134e9575b50508160011b916000199060031b1c19161790555b608082015180516001600160401b038111610804578060048401926131748261061b8654613c1a565b602090601f831160011461348357600092613478575b50508160011b916000199060031b1c19161790555b60a082015180516001600160401b038111610804578060058401926131c88261061b8654613c1a565b602090601f831160011461341257600092613407575b50508160011b916000199060031b1c19161790555b60c082015180516001600160401b0381116108045780600684019261321c8261061b8654613c1a565b602090601f83116001146133a157600092613396575b50508160011b916000199060031b1c19161790555b6007810160e08301518051906001600160401b0382116108045761326f826119578554613c1a565b602090601f8311600114613316579282600893600080516020614585833981519152989693610772989660009261330b575b50508160011b916000199060031b1c19161790555b019060018060a01b036101008201511682549161012060ff60a01b910151151560a01b16916affffffffffffffffffffff60a81b16171790556132f833613feb565b6040519182913395610104359184614163565b015190508a806132a1565b90601f198316918460005260206000209260005b81811061337e5750936000805160206145858339815191529896936107729896936001938360089810613365575b505050811b0190556132b6565b015160001960f88460031b161c191690558a8080613358565b9293602060018192878601518155019501930161332a565b015190508780613232565b6000858152602081209350601f198516905b8181106133ef57509084600195949392106133d6575b505050811b019055613247565b015160001960f88460031b161c191690558780806133c9565b929360206001819287860151815501950193016133b3565b0151905087806131de565b6000858152602081209350601f198516905b8181106134605750908460019594939210613447575b505050811b0190556131f3565b015160001960f88460031b161c1916905587808061343a565b92936020600181928786015181550195019301613424565b01519050878061318a565b6000858152602081209350601f198516905b8181106134d157509084600195949392106134b8575b505050811b01905561319f565b015160001960f88460031b161c191690558780806134ab565b92936020600181928786015181550195019301613495565b015190508780613136565b6000858152602081209350601f198516905b8181106135425750908460019594939210613529575b505050811b01905561314b565b015160001960f88460031b161c1916905587808061351c565b92936020600181928786015181550195019301613506565b0151905087806130e2565b6000858152602081209350601f198516905b8181106135b3575090846001959493921061359a575b505050811b0190556130f7565b015160001960f88460031b161c1916905587808061358d565b92936020600181928786015181550195019301613577565b015190508680613084565b9250836000526020600020906000935b601f1984168510613627576001945083601f1981161061360e575b505050811b018155613099565b015160001960f88460031b161c19169055868080613601565b818101518355602094850194600190930192909101906135e6565b60405162461bcd60e51b815260206004820152601260248201527120b732309039bab230b4103830b9b4b2b71760711b6044820152606490fd5b346102a85760403660031901126102a857613695613abe565b6001600160a01b0390602480358381169291908390036102a8573360005283602092600184526136cf60ff60016040600020015416614070565b169384600052600483526136ea60ff604060002054166140b4565b836000526006835260ff6040600020541615613870578460005260039182845261371f33836005604060002001541614614100565b84600052600584523382600860406000200154160361382d578560005282845260046040600020016000918154925b8381106137ca5750600160401b8310156137b6577fd9a2627959a7f46a8b96c10424cdae1f1b65151551cd206b119aca54c0a86a5a6040898989898961379a8a8a600182018155613b58565b81939154911b9185831b921b19161790558351928352820152a1005b634e487b7160e01b60009081526041600452fd5b87856137d68386613b58565b905490891b1c16146137f0576137eb90614319565b61374e565b60405162461bcd60e51b815260048101889052601681840152752830b9b4b2b71039bab230b4103234b0b9b9b4b3b71760511b6044820152606490fd5b83601b6064926040519262461bcd60e51b845260048401528201527f50617369656e2062756b616e206d696c696b20525320616e64612e00000000006044820152fd5b60405162461bcd60e51b8152600481018490526017818401527f50617369656e2062656c756d207465726461667461722e0000000000000000006044820152606490fd5b346102a85760003660031901126102a8576040518060025480825282602080930160026000527f405787fa12a823e0f2b7631cc41b3ba8828b3321ca811111fa75cd3aa3bb5ace9260005b85828210613916575050506124e992500383613cc1565b85546001600160a01b03168452600195860195889550930192016138ff565b346102a85760203660031901126102a85761394e613abe565b600054906001600160a01b03906139683383851614613f08565b6001600160a01b0319909216911617600055005b346102a85760203660031901126102a8576001600160a01b0361399d613abe565b166000526006602052602060ff604060002054166040519015158152f35b346102a85760203660031901126102a8573360005260016020526139e960ff60016040600020015416614070565b6004356000908152600760205260409020600501805460ff19169055005b346102a85760203660031901126102a857600435600c54811015613a3057611fd9602091613ad4565b60405162461bcd60e51b815260206004820152600e60248201526d24b73232bc1034b73b30b634b21760911b6044820152606490fd5b346102a85760403660031901126102a857613a7f613abe565b6001600160a01b03166000908152600860205260409020805460243591908210156102a857602091613ab091613b58565b90546040519160031b1c8152f35b600435906001600160a01b03821682036102a857565b600c54811015613b0b57600c6000527fdf6966c971051c3d54ec59162606531493a51404a002842f56009d7e5cf4a8c70190600090565b634e487b7160e01b600052603260045260246000fd5b600254811015613b0b5760026000527f405787fa12a823e0f2b7631cc41b3ba8828b3321ca811111fa75cd3aa3bb5ace0190600090565b8054821015613b0b5760005260206000200190600090565b90815180825260208080930193019160005b828110613b90575050505090565b83516001600160a01b031685529381019392810192600101613b82565b9181601f840112156102a8578235916001600160401b0383116102a857602083818601950101116102a857565b919082519283825260005b848110613c06575050826000602080949584010152601f8019910116010190565b602081830181015184830182015201613be5565b90600182811c92168015613c4a575b6020831014613c3457565b634e487b7160e01b600052602260045260246000fd5b91607f1691613c29565b61014081019081106001600160401b0382111761080457604052565b604081019081106001600160401b0382111761080457604052565b60c081019081106001600160401b0382111761080457604052565b602081019081106001600160401b0382111761080457604052565b90601f801991011681019081106001600160401b0382111761080457604052565b9060405191826000825492613cf684613c1a565b908184526001948581169081600014613d655750600114613d22575b5050613d2092500383613cc1565b565b9093915060005260209081600020936000915b818310613d4d575050613d2093508201013880613d12565b85548884018501529485019487945091830191613d35565b915050613d2094506020925060ff191682840152151560051b8201013880613d12565b90815180825260208080930193019160005b828110613da8575050505090565b835185529381019392810192600101613d9a565b60409060031901126102a8576004356001600160a01b03811681036102a8579060243580151581036102a85790565b60409060031901126102a8576004359060243590565b8054821015613b0b5760005260206000209060011b0190600090565b949193613e50613e6c9460a096613e5e949a999a8952600180891b0316602089015260c0604089015260c0880190613bda565b908682036060880152613bda565b908482036080860152613bda565b931515910152565b60806003198201126102a8576004356001600160a01b03811681036102a857916001600160401b036024358181116102a85783613eb391600401613bad565b939093926044358381116102a85782613ece91600401613bad565b939093926064359182116102a857613ee891600401613bad565b9091565b8054821015613b0b576000526006602060002091020190600090565b15613f0f57565b60405162461bcd60e51b81526020600482015260126024820152712430b73cb09039bab832b91030b236b4b71760711b6044820152606490fd5b9291926001600160401b0382116108045760405191613f72601f8201601f191660200184613cc1565b8294818452818301116102a8578281602093846000960137010152565b818110613f9a575050565b60008155600101613f8f565b9190601f8111613fb557505050565b613d20926000526020600020906020601f840160051c83019310613fe1575b601f0160051c0190613f8f565b9091508190613fd4565b600d54600160401b811015610804576001810180600d55811015613b0b57600d6000527fd7b6990105719101dabeb77144f2a3385c8033acd3af97e9423a695e81ad1eb50180546001600160a01b0319166001600160a01b03909216919091179055565b908060209392818452848401376000828201840152601f01601f1916010190565b1561407757565b60405162461bcd60e51b81526020600482015260156024820152742430b73cb09030b236b4b71029299030b5ba34b31760591b6044820152606490fd5b156140bb57565b60405162461bcd60e51b815260206004820152601760248201527f446f6b7465722062656c756d207465726461667461722e0000000000000000006044820152606490fd5b1561410757565b60405162461bcd60e51b815260206004820152601b60248201527f446f6b7465722062756b616e206d696c696b20525320616e64612e00000000006044820152606490fd5b6001600160401b0381116108045760051b60200190565b9160209161417c9195949560408552604085019161404f565b6001600160a01b03909416910152565b1561419357565b60405162461bcd60e51b815260206004820152601460248201527320b630b6b0ba1036b4b634b5903237b5ba32b91760611b6044820152606490fd5b156141d657565b60405162461bcd60e51b815260206004820152601560248201527420b236b4b7102929903a34b230b59030b5ba34b31760591b6044820152606490fd5b9060018060a01b038092166000818152600660205260409160ff8383205416156142a8578152600560205220906001820154926008830154169161425681613ce2565b939261426460028301613ce2565b9261427160038401613ce2565b9261427e60048201613ce2565b9261428b60058301613ce2565b926142a4600761429d60068601613ce2565b9401613ce2565b9190565b509190809350516142b881613ca6565b828152928281516142c881613ca6565b8181529282516142d781613ca6565b8281529280516142e681613ca6565b8381529281516142f581613ca6565b81815292825161430481613ca6565b828152925161431281613ca6565b8281529190565b60001981146143285760010190565b634e487b7160e01b600052601160045260246000fd5b9060018060a01b038092166000526003918260205260046040600020016000938154945b85811061437457505050505050600090565b8361437f8285613b58565b905490841b1c168486161461439c5761439790614319565b614362565b505050505050600190565b9080821461447b576143b98154613c1a565b906001600160401b0382116108045781906143d88261061b8654613c1a565b600090601f831160011461440f57600092614404575b50508160011b916000199060031b1c1916179055565b0154905038806143ee565b81526020808220858352818320935090601f1985169083905b828210614462575050908460019594939210614449575b505050811b019055565b015460001960f88460031b161c1916905538808061443f565b8495819295850154815560018091019601940190614428565b5050565b8051821015613b0b5760209160051b010190565b6000805490916001600160a01b039081169116811461455c578082526020916001835260409160ff6001848420015416614543578082526004845260ff838320541661452b578152600683528190205460ff1661450b57662ab735b737bbb760c91b90519161450183613c70565b6007835282015290565b652830b9b4b2b760d11b90519161452183613c70565b6006835282015290565b5050652237b5ba32b960d11b90519161452183613c70565b50506641646d696e525360c81b90519161450183613c70565b505060405161456a81613c70565b600a81526929bab832b920b236b4b760b11b60208201529056febc415dfc2764939233ab67a4f55915cc2bb9d94ecafbfb254036de3cd0dbb3a8a26469706673582212208ae6b0071eefe35147ac1d82722fba316717401f95069623f897b16e98ca7a8964736f6c63430008130033",
  "immutableReferences": {},
  "source": "// SPDX-License-Identifier: MIT\r\npragma solidity ^0.8.0;\r\n\r\ncontract RekamMedisRS {\r\n    address public superAdmin;\r\n\r\n    struct AdminRS {\r\n        string namaRumahSakit;\r\n        bool aktif;\r\n    }\r\n    mapping(address => AdminRS) public dataAdmin;\r\n    address[] public daftarAdmin;\r\n\r\n    struct Dokter {\r\n        string nama;\r\n        string spesialisasi;\r\n        string nomorLisensi;\r\n        bool aktif;\r\n        address[] assignedPasien;\r\n        address adminRS; // Rumah sakit tempat dokter bertugas\r\n    }\r\n    mapping(address => Dokter) public dataDokter;\r\n    mapping(address => bool) public isDokter;\r\n\r\n    struct Pasien {\r\n        string nama;\r\n        uint umur;\r\n        string golonganDarah;\r\n        string tanggalLahir;\r\n        string gender;\r\n        string alamat;\r\n        string noTelepon;\r\n        string email;\r\n        address rumahSakitPenanggungJawab;\r\n        bool exists;\r\n    }\r\n    mapping(address => Pasien) public dataPasien;\r\n    mapping(address => bool) public isPasien;\r\n\r\n    struct UpdateInfo {\r\n        address dokter; // alamat dokter yang update\r\n        uint256 timestamp; // waktu update (block.timestamp)\r\n    }\r\n\r\n    struct RekamMedisData {\r\n        uint id;\r\n        address pasien;\r\n        string diagnosa;\r\n        string foto;\r\n        string catatan;\r\n        bool valid;\r\n    }\r\n    mapping(uint => RekamMedisData) public rekamMedis;\r\n    mapping(address => uint[]) public rekamMedisByPasien;\r\n    uint public rekamMedisCount;\r\n\r\n    // History versi rekam medis\r\n    mapping(uint => RekamMedisData[]) public rekamMedisVersions;\r\n    mapping(uint => UpdateInfo[]) public rekamMedisUpdateHistory;\r\n\r\n    // Events\r\n    event AdminRSTerdaftar(address indexed admin, string namaRumahSakit);\r\n    event AdminRSStatusDiubah(address indexed admin, bool aktif);\r\n    event DokterTerdaftar(address indexed dokter, string nama, address adminRS);\r\n    event DokterStatusDiubah(address indexed dokter, bool aktif);\r\n    event PasienTerdaftar(address indexed pasien, string nama, address adminRS);\r\n    event PasienPindahRS(address indexed pasien, address adminRS);\r\n    event PasienDiassignKeDokter(address dokter, address pasien);\r\n    event RekamMedisDitambahkan(\r\n        uint id,\r\n        address pasien,\r\n        string diagnosa,\r\n        bool valid\r\n    );\r\n    event RekamMedisDiperbarui(\r\n        uint id,\r\n        string diagnosa,\r\n        string catatan,\r\n        address dokter,\r\n        uint timestamp\r\n    );\r\n    event DokterInfoDiperbarui(\r\n        address indexed dokter,\r\n        string nama,\r\n        string spesialisasi,\r\n        string nomorLisensi,\r\n        address indexed adminRS\r\n    );\r\n\r\n    constructor() {\r\n        superAdmin = 0xB0dC0Bf642d339517438017Fc185Bb0f758A01D2;\r\n    }\r\n\r\n    // Modifier\r\n    modifier hanyaSuperAdmin() {\r\n        require(msg.sender == superAdmin, \"Hanya super admin.\");\r\n        _;\r\n    }\r\n\r\n    modifier hanyaAdminRS() {\r\n        require(dataAdmin[msg.sender].aktif, \"Hanya admin RS aktif.\");\r\n        _;\r\n    }\r\n\r\n    modifier hanyaDokterAktif() {\r\n        require(\r\n            isDokter[msg.sender] && dataDokter[msg.sender].aktif,\r\n            \"Hanya dokter aktif.\"\r\n        );\r\n        _;\r\n    }\r\n\r\n    modifier hanyaDokterAktifUntukPasien(address _pasien) {\r\n        require(\r\n            isDokter[msg.sender] && dataDokter[msg.sender].aktif,\r\n            \"Hanya dokter aktif.\"\r\n        );\r\n        require(\r\n            dataDokter[msg.sender].adminRS ==\r\n                dataPasien[_pasien].rumahSakitPenanggungJawab,\r\n            \"Dokter & pasien beda RS\"\r\n        );\r\n        bool assigned = false;\r\n        address[] storage list = dataDokter[msg.sender].assignedPasien;\r\n        for (uint i = 0; i < list.length; i++) {\r\n            if (list[i] == _pasien) {\r\n                assigned = true;\r\n                break;\r\n            }\r\n        }\r\n        require(assigned, \"Dokter tidak diassign ke pasien ini.\");\r\n        _;\r\n    }\r\n\r\n    modifier hanyaPasien(address _pasien) {\r\n        require(msg.sender == _pasien, \"Hanya pasien.\");\r\n        _;\r\n    }\r\n\r\n    // Fungsi SuperAdmin mendaftarkan Admin RS baru\r\n    function registerAdminRS(\r\n        address _admin,\r\n        string calldata _namaRS\r\n    ) external hanyaSuperAdmin {\r\n        require(\r\n            bytes(dataAdmin[_admin].namaRumahSakit).length == 0,\r\n            \"Admin RS sudah terdaftar.\"\r\n        );\r\n        dataAdmin[_admin] = AdminRS({namaRumahSakit: _namaRS, aktif: true});\r\n        daftarAdmin.push(_admin);\r\n        emit AdminRSTerdaftar(_admin, _namaRS);\r\n    }\r\n    function getAllAdminRSAddresses() external view returns (address[] memory) {\r\n        return daftarAdmin;\r\n    }\r\n    // SuperAdmin ubah status admin RS (aktif/nonaktif)\r\n    function setStatusAdminRS(\r\n        address _admin,\r\n        bool _aktif\r\n    ) external hanyaSuperAdmin {\r\n        require(\r\n            bytes(dataAdmin[_admin].namaRumahSakit).length != 0,\r\n            \"Admin RS tidak ditemukan.\"\r\n        );\r\n        dataAdmin[_admin].aktif = _aktif;\r\n        emit AdminRSStatusDiubah(_admin, _aktif);\r\n    }\r\n\r\n    // Ambil total admin RS\r\n    function totalAdmin() external view returns (uint) {\r\n        return daftarAdmin.length;\r\n    }\r\n\r\n    // Ambil admin RS by index\r\n    function getAdminByIndex(uint idx) external view returns (address) {\r\n        require(idx < daftarAdmin.length, \"Index admin RS invalid.\");\r\n        return daftarAdmin[idx];\r\n    }\r\n\r\n    // Admin RS ubah status dokter\r\n    function setStatusDokter(\r\n        address _dokter,\r\n        bool _aktif\r\n    ) external hanyaAdminRS {\r\n        require(isDokter[_dokter], \"Dokter belum terdaftar.\");\r\n        require(\r\n            dataDokter[_dokter].adminRS == msg.sender,\r\n            \"Dokter bukan milik RS anda.\"\r\n        );\r\n        dataDokter[_dokter].aktif = _aktif;\r\n        emit DokterStatusDiubah(_dokter, _aktif);\r\n    }\r\n\r\n    // Ambil total dokter terdaftar (semua RS)\r\n    function totalDokter() external view returns (uint) {\r\n        return daftarDokter.length;\r\n    }\r\n\r\n    address[] public daftarDokter;\r\n\r\n    // Admin RS mendaftarkan dokter baru dan simpan daftar\r\n    function registerDokter(\r\n        address _dokter,\r\n        string calldata _nama,\r\n        string calldata _spesialisasi,\r\n        string calldata _nomorLisensi\r\n    ) external hanyaAdminRS {\r\n        require(!isDokter[_dokter], \"Sudah dokter.\");\r\n        require(!isPasien[_dokter], \"Alamat milik pasien.\");\r\n        isDokter[_dokter] = true;\r\n        dataDokter[_dokter] = Dokter({\r\n            nama: _nama,\r\n            spesialisasi: _spesialisasi,\r\n            nomorLisensi: _nomorLisensi,\r\n            aktif: true,\r\n            assignedPasien: new address[](0),\r\n            adminRS: msg.sender\r\n        });\r\n        daftarDokter.push(_dokter);\r\n        emit DokterTerdaftar(_dokter, _nama, msg.sender);\r\n    }\r\n\r\n    // Ambil dokter by index\r\n    function getDokterByIndex(uint idx) external view returns (address) {\r\n        require(idx < daftarDokter.length, \"Index invalid.\");\r\n        return daftarDokter[idx];\r\n    }\r\n    // Fungsi untuk Admin RS memperbarui informasi dokter\r\n    function updateDokterInfo(\r\n        address _dokter,\r\n        string calldata _namaBaru,\r\n        string calldata _spesialisasiBaru,\r\n        string calldata _nomorLisensiBaru\r\n    ) external hanyaAdminRS {\r\n        require(isDokter[_dokter], \"Dokter tidak terdaftar di sistem.\");\r\n        require(\r\n            dataDokter[_dokter].adminRS == msg.sender,\r\n            \"Anda bukan admin RS yang berhak untuk dokter ini.\"\r\n        );\r\n\r\n        // Pastikan nilai baru tidak kosong jika itu adalah kebijakan\r\n        // Misalnya, jika nama tidak boleh kosong:\r\n        // require(bytes(_namaBaru).length > 0, \"Nama baru tidak boleh kosong.\");\r\n\r\n        Dokter storage dokterToUpdate = dataDokter[_dokter];\r\n        dokterToUpdate.nama = _namaBaru;\r\n        dokterToUpdate.spesialisasi = _spesialisasiBaru;\r\n        dokterToUpdate.nomorLisensi = _nomorLisensiBaru;\r\n\r\n        emit DokterInfoDiperbarui(\r\n            _dokter,\r\n            _namaBaru,\r\n            _spesialisasiBaru,\r\n            _nomorLisensiBaru,\r\n            msg.sender\r\n        );\r\n    }\r\n    // Ambil detail dokter\r\n    function getDokter(\r\n        address _dokter\r\n    )\r\n        external\r\n        view\r\n        returns (\r\n            string memory nama,\r\n            string memory spesialisasi,\r\n            string memory nomorLisensi,\r\n            bool aktif,\r\n            address[] memory pasienList,\r\n            address adminRS\r\n        )\r\n    {\r\n        Dokter storage d = dataDokter[_dokter];\r\n        return (\r\n            d.nama,\r\n            d.spesialisasi,\r\n            d.nomorLisensi,\r\n            d.aktif,\r\n            d.assignedPasien,\r\n            d.adminRS\r\n        );\r\n    }\r\n\r\n    // Admin RS mendaftarkan pasien baru\r\n    function registerPasien(\r\n        address _pasien,\r\n        string calldata _nama,\r\n        address _adminRS\r\n    ) external hanyaAdminRS {\r\n        require(!isPasien[_pasien], \"Pasien sudah terdaftar.\");\r\n        require(!isDokter[_pasien], \"Alamat milik dokter.\");\r\n        require(dataAdmin[_adminRS].aktif, \"Admin RS tidak aktif.\");\r\n        isPasien[_pasien] = true;\r\n        dataPasien[_pasien] = Pasien({\r\n            nama: _nama,\r\n            umur: 0,\r\n            golonganDarah: \"\",\r\n            tanggalLahir: \"\",\r\n            gender: \"\",\r\n            alamat: \"\",\r\n            noTelepon: \"\",\r\n            email: \"\",\r\n            rumahSakitPenanggungJawab: _adminRS,\r\n            exists: true\r\n        });\r\n        daftarPasien.push(_pasien);\r\n        emit PasienTerdaftar(_pasien, _nama, _adminRS);\r\n    }\r\n\r\n    // Pasien bisa register sendiri (mandiri)\r\n    function selfRegisterPasien(\r\n        string calldata _nama,\r\n        uint _umur,\r\n        string calldata _golonganDarah,\r\n        string calldata _tanggalLahir,\r\n        string calldata _gender,\r\n        string calldata _alamat,\r\n        string calldata _noTelepon,\r\n        string calldata _email,\r\n        address _adminRS\r\n    ) external {\r\n        require(!isPasien[msg.sender], \"Anda sudah pasien.\");\r\n        require(!isDokter[msg.sender], \"Alamat milik dokter.\");\r\n        require(dataAdmin[_adminRS].aktif, \"Admin RS tidak aktif.\");\r\n        isPasien[msg.sender] = true;\r\n        dataPasien[msg.sender] = Pasien({\r\n            nama: _nama,\r\n            umur: _umur,\r\n            golonganDarah: _golonganDarah,\r\n            tanggalLahir: _tanggalLahir,\r\n            gender: _gender,\r\n            alamat: _alamat,\r\n            noTelepon: _noTelepon,\r\n            email: _email,\r\n            rumahSakitPenanggungJawab: _adminRS,\r\n            exists: true\r\n        });\r\n        daftarPasien.push(msg.sender);\r\n        emit PasienTerdaftar(msg.sender, _nama, _adminRS);\r\n    }\r\n\r\n    // Ambil daftar pasien\r\n    address[] public daftarPasien;\r\n\r\n    function getDaftarPasien() external view returns (address[] memory) {\r\n        return daftarPasien;\r\n    }\r\n\r\n    // Ambil detail pasien\r\n    function getPasienData(\r\n        address _pasien\r\n    )\r\n        external\r\n        view\r\n        returns (\r\n            string memory nama,\r\n            uint umur,\r\n            string memory golonganDarah,\r\n            string memory tanggalLahir,\r\n            string memory gender,\r\n            string memory alamat,\r\n            string memory noTelepon,\r\n            string memory email,\r\n            address rumahSakitPenanggungJawab\r\n        )\r\n    {\r\n        if (!isPasien[_pasien]) {\r\n            return (\"\", 0, \"\", \"\", \"\", \"\", \"\", \"\", address(0));\r\n        }\r\n        Pasien storage p = dataPasien[_pasien];\r\n        return (\r\n            p.nama,\r\n            p.umur,\r\n            p.golonganDarah,\r\n            p.tanggalLahir,\r\n            p.gender,\r\n            p.alamat,\r\n            p.noTelepon,\r\n            p.email,\r\n            p.rumahSakitPenanggungJawab\r\n        );\r\n    }\r\n\r\n    // Admin RS assign pasien ke dokter\r\n    function assignPasienToDokter(\r\n        address _dokter,\r\n        address _pasien\r\n    ) external hanyaAdminRS {\r\n        require(isDokter[_dokter], \"Dokter belum terdaftar.\");\r\n        require(isPasien[_pasien], \"Pasien belum terdaftar.\");\r\n        require(\r\n            dataDokter[_dokter].adminRS == msg.sender,\r\n            \"Dokter bukan milik RS anda.\"\r\n        );\r\n        require(\r\n            dataPasien[_pasien].rumahSakitPenanggungJawab == msg.sender,\r\n            \"Pasien bukan milik RS anda.\"\r\n        );\r\n\r\n        address[] storage list = dataDokter[_dokter].assignedPasien;\r\n        for (uint i = 0; i < list.length; i++) {\r\n            require(list[i] != _pasien, \"Pasien sudah diassign.\");\r\n        }\r\n        list.push(_pasien);\r\n        emit PasienDiassignKeDokter(_dokter, _pasien);\r\n    }\r\n\r\n    // Tambah rekam medis (oleh pasien sendiri atau dokter aktif RS pasien)\r\n    function tambahRekamMedis(\r\n        address _pasien,\r\n        string calldata _diagnosa,\r\n        string calldata _foto,\r\n        string calldata _catatan\r\n    ) external {\r\n        bool isValidActor = false;\r\n        if (msg.sender == _pasien) {\r\n            isValidActor = true;\r\n        } else if (isDokter[msg.sender]) {\r\n            if (\r\n                dataDokter[msg.sender].adminRS ==\r\n                dataPasien[_pasien].rumahSakitPenanggungJawab\r\n            ) {\r\n                if (isAssigned(msg.sender, _pasien)) {\r\n                    isValidActor = true;\r\n                }\r\n            }\r\n        }\r\n        require(isValidActor, \"Tidak berhak.\");\r\n        require(isPasien[_pasien], \"Pasien tidak terdaftar.\");\r\n\r\n        rekamMedisCount++;\r\n        rekamMedis[rekamMedisCount] = RekamMedisData({\r\n            id: rekamMedisCount,\r\n            pasien: _pasien,\r\n            diagnosa: _diagnosa,\r\n            foto: _foto,\r\n            catatan: _catatan,\r\n            valid: true\r\n        });\r\n        rekamMedisByPasien[_pasien].push(rekamMedisCount);\r\n        emit RekamMedisDitambahkan(rekamMedisCount, _pasien, _diagnosa, true);\r\n    }\r\n\r\n    function isAssigned(\r\n        address _dokter,\r\n        address _pasien\r\n    ) internal view returns (bool) {\r\n        address[] storage list = dataDokter[_dokter].assignedPasien;\r\n        for (uint i = 0; i < list.length; i++) {\r\n            if (list[i] == _pasien) {\r\n                return true;\r\n            }\r\n        }\r\n        return false;\r\n    }\r\n\r\n    function updateRekamMedis(\r\n        uint _id,\r\n        string calldata _diagnosa,\r\n        string calldata _foto,\r\n        string calldata _catatan\r\n    ) external hanyaDokterAktifUntukPasien(rekamMedis[_id].pasien) {\r\n        RekamMedisData storage r = rekamMedis[_id];\r\n        rekamMedisVersions[_id].push(r);\r\n\r\n        r.diagnosa = _diagnosa;\r\n        r.foto = _foto;\r\n        r.catatan = _catatan;\r\n\r\n        // Simpan info update\r\n        rekamMedisUpdateHistory[_id].push(\r\n            UpdateInfo({dokter: msg.sender, timestamp: block.timestamp})\r\n        );\r\n\r\n        emit RekamMedisDiperbarui(\r\n            _id,\r\n            _diagnosa,\r\n            _catatan,\r\n            msg.sender,\r\n            block.timestamp\r\n        );\r\n    }\r\n\r\n    // Ambil rekam medis by pasien\r\n    function getRekamMedisIdsByPasien(\r\n        address _pasien\r\n    ) external view returns (uint[] memory) {\r\n        return rekamMedisByPasien[_pasien];\r\n    }\r\n\r\n    // Ambil detail rekam medis\r\n    function getRekamMedis(\r\n        uint _id\r\n    )\r\n        external\r\n        view\r\n        returns (\r\n            address pasien,\r\n            string memory diagnosa,\r\n            string memory foto,\r\n            string memory catatan,\r\n            bool valid\r\n        )\r\n    {\r\n        RekamMedisData storage r = rekamMedis[_id];\r\n        return (r.pasien, r.diagnosa, r.foto, r.catatan, r.valid);\r\n    }\r\n\r\n    // Ambil versi rekam medis\r\n    function getRekamMedisVersions(\r\n        uint _id\r\n    ) external view returns (RekamMedisData[] memory) {\r\n        return rekamMedisVersions[_id];\r\n    }\r\n    function getRekamMedisUpdateHistory(\r\n        uint _id\r\n    ) external view returns (address[] memory, uint256[] memory) {\r\n        uint len = rekamMedisUpdateHistory[_id].length;\r\n        address[] memory dokters = new address[](len);\r\n        uint256[] memory times = new uint256[](len);\r\n        for (uint i = 0; i < len; i++) {\r\n            dokters[i] = rekamMedisUpdateHistory[_id][i].dokter;\r\n            times[i] = rekamMedisUpdateHistory[_id][i].timestamp;\r\n        }\r\n        return (dokters, times);\r\n    }\r\n\r\n    // Nonaktifkan rekam medis (admin RS saja)\r\n    function nonaktifkanRekamMedis(uint _id) external hanyaAdminRS {\r\n        rekamMedis[_id].valid = false;\r\n    }\r\n\r\n    // Ganti superAdmin\r\n    function setSuperAdmin(address _newAdmin) external hanyaSuperAdmin {\r\n        superAdmin = _newAdmin;\r\n    }\r\n\r\n    // Ambil role user\r\n    function getUserRole(address _user) public view returns (string memory) {\r\n        if (_user == superAdmin) return \"SuperAdmin\";\r\n        if (dataAdmin[_user].aktif) return \"AdminRS\";\r\n        if (isDokter[_user]) return \"Dokter\";\r\n        if (isPasien[_user]) return \"Pasien\";\r\n        return \"Unknown\";\r\n    }\r\n}\r\n",
  "sourcePath": "D:\\TA\\rekam_medis_backend\\contracts\\RekamMedisRS.sol",
  "compiler": {
    "name": "solc",
    "version": "0.8.19+commit.7dd6d404.Emscripten.clang"
  },
  "schemaVersion": "3.4.16",
  "updatedAt": "2025-05-30T06:00:56.634Z",
  "networkType": "ethereum",
  "devdoc": {
    "kind": "dev",
    "methods": {},
    "version": 1
  },
  "userdoc": {
    "kind": "user",
    "methods": {},
    "version": 1
  }
}