{
  "contractName": "RekamMedisRS",
  "abi": [
    {
      "inputs": [],
      "stateMutability": "nonpayable",
      "type": "constructor"
    },
    {
      "anonymous": false,
      "inputs": [
        {
          "indexed": true,
          "internalType": "address",
          "name": "admin",
          "type": "address"
        },
        {
          "indexed": false,
          "internalType": "bool",
          "name": "aktif",
          "type": "bool"
        }
      ],
      "name": "AdminRSStatusDiubah",
      "type": "event"
    },
    {
      "anonymous": false,
      "inputs": [
        {
          "indexed": true,
          "internalType": "address",
          "name": "admin",
          "type": "address"
        },
        {
          "indexed": false,
          "internalType": "string",
          "name": "namaRumahSakit",
          "type": "string"
        }
      ],
      "name": "AdminRSTerdaftar",
      "type": "event"
    },
    {
      "anonymous": false,
      "inputs": [
        {
          "indexed": true,
          "internalType": "address",
          "name": "dokter",
          "type": "address"
        },
        {
          "indexed": false,
          "internalType": "string",
          "name": "nama",
          "type": "string"
        },
        {
          "indexed": false,
          "internalType": "string",
          "name": "spesialisasi",
          "type": "string"
        },
        {
          "indexed": false,
          "internalType": "string",
          "name": "nomorLisensi",
          "type": "string"
        },
        {
          "indexed": true,
          "internalType": "address",
          "name": "adminRS",
          "type": "address"
        }
      ],
      "name": "DokterInfoDiperbarui",
      "type": "event"
    },
    {
      "anonymous": false,
      "inputs": [
        {
          "indexed": true,
          "internalType": "address",
          "name": "dokter",
          "type": "address"
        },
        {
          "indexed": false,
          "internalType": "bool",
          "name": "aktif",
          "type": "bool"
        }
      ],
      "name": "DokterStatusDiubah",
      "type": "event"
    },
    {
      "anonymous": false,
      "inputs": [
        {
          "indexed": true,
          "internalType": "address",
          "name": "dokter",
          "type": "address"
        },
        {
          "indexed": false,
          "internalType": "string",
          "name": "nama",
          "type": "string"
        },
        {
          "indexed": false,
          "internalType": "address",
          "name": "adminRS",
          "type": "address"
        }
      ],
      "name": "DokterTerdaftar",
      "type": "event"
    },
    {
      "anonymous": false,
      "inputs": [
        {
          "indexed": true,
          "internalType": "address",
          "name": "pasien",
          "type": "address"
        },
        {
          "indexed": false,
          "internalType": "string",
          "name": "nama",
          "type": "string"
        },
        {
          "indexed": false,
          "internalType": "string",
          "name": "golonganDarah",
          "type": "string"
        },
        {
          "indexed": false,
          "internalType": "string",
          "name": "tanggalLahir",
          "type": "string"
        },
        {
          "indexed": false,
          "internalType": "string",
          "name": "gender",
          "type": "string"
        },
        {
          "indexed": false,
          "internalType": "string",
          "name": "alamat",
          "type": "string"
        },
        {
          "indexed": false,
          "internalType": "string",
          "name": "noTelepon",
          "type": "string"
        },
        {
          "indexed": false,
          "internalType": "string",
          "name": "email",
          "type": "string"
        }
      ],
      "name": "PasienDataDiperbarui",
      "type": "event"
    },
    {
      "anonymous": false,
      "inputs": [
        {
          "indexed": false,
          "internalType": "address",
          "name": "dokter",
          "type": "address"
        },
        {
          "indexed": false,
          "internalType": "address",
          "name": "pasien",
          "type": "address"
        }
      ],
      "name": "PasienDiassignKeDokter",
      "type": "event"
    },
    {
      "anonymous": false,
      "inputs": [
        {
          "indexed": false,
          "internalType": "address",
          "name": "dokter",
          "type": "address"
        },
        {
          "indexed": false,
          "internalType": "address",
          "name": "pasien",
          "type": "address"
        }
      ],
      "name": "PasienDiunassignDariDokter",
      "type": "event"
    },
    {
      "anonymous": false,
      "inputs": [
        {
          "indexed": true,
          "internalType": "address",
          "name": "pasien",
          "type": "address"
        },
        {
          "indexed": false,
          "internalType": "address",
          "name": "oldAdminRS",
          "type": "address"
        },
        {
          "indexed": false,
          "internalType": "address",
          "name": "newAdminRS",
          "type": "address"
        }
      ],
      "name": "PasienPindahRS",
      "type": "event"
    },
    {
      "anonymous": false,
      "inputs": [
        {
          "indexed": true,
          "internalType": "address",
          "name": "pasien",
          "type": "address"
        },
        {
          "indexed": false,
          "internalType": "string",
          "name": "nama",
          "type": "string"
        },
        {
          "indexed": false,
          "internalType": "address",
          "name": "adminRS",
          "type": "address"
        }
      ],
      "name": "PasienTerdaftar",
      "type": "event"
    },
    {
      "anonymous": false,
      "inputs": [
        {
          "indexed": false,
          "internalType": "uint256",
          "name": "id",
          "type": "uint256"
        },
        {
          "indexed": false,
          "internalType": "string",
          "name": "diagnosa",
          "type": "string"
        },
        {
          "indexed": false,
          "internalType": "string",
          "name": "catatan",
          "type": "string"
        },
        {
          "indexed": false,
          "internalType": "address",
          "name": "updater",
          "type": "address"
        },
        {
          "indexed": false,
          "internalType": "uint256",
          "name": "timestamp",
          "type": "uint256"
        }
      ],
      "name": "RekamMedisDiperbarui",
      "type": "event"
    },
    {
      "anonymous": false,
      "inputs": [
        {
          "indexed": false,
          "internalType": "uint256",
          "name": "id",
          "type": "uint256"
        },
        {
          "indexed": false,
          "internalType": "address",
          "name": "pasien",
          "type": "address"
        },
        {
          "indexed": false,
          "internalType": "string",
          "name": "diagnosa",
          "type": "string"
        },
        {
          "indexed": false,
          "internalType": "address",
          "name": "pembuat",
          "type": "address"
        },
        {
          "indexed": false,
          "internalType": "uint256",
          "name": "timestamp",
          "type": "uint256"
        },
        {
          "indexed": false,
          "internalType": "bool",
          "name": "valid",
          "type": "bool"
        }
      ],
      "name": "RekamMedisDitambahkan",
      "type": "event"
    },
    {
      "inputs": [
        {
          "internalType": "uint256",
          "name": "",
          "type": "uint256"
        }
      ],
      "name": "daftarAdmin",
      "outputs": [
        {
          "internalType": "address",
          "name": "",
          "type": "address"
        }
      ],
      "stateMutability": "view",
      "type": "function",
      "constant": true
    },
    {
      "inputs": [
        {
          "internalType": "uint256",
          "name": "",
          "type": "uint256"
        }
      ],
      "name": "daftarDokter",
      "outputs": [
        {
          "internalType": "address",
          "name": "",
          "type": "address"
        }
      ],
      "stateMutability": "view",
      "type": "function",
      "constant": true
    },
    {
      "inputs": [
        {
          "internalType": "uint256",
          "name": "",
          "type": "uint256"
        }
      ],
      "name": "daftarPasien",
      "outputs": [
        {
          "internalType": "address",
          "name": "",
          "type": "address"
        }
      ],
      "stateMutability": "view",
      "type": "function",
      "constant": true
    },
    {
      "inputs": [
        {
          "internalType": "address",
          "name": "",
          "type": "address"
        }
      ],
      "name": "dataAdmin",
      "outputs": [
        {
          "internalType": "string",
          "name": "namaRumahSakit",
          "type": "string"
        },
        {
          "internalType": "bool",
          "name": "aktif",
          "type": "bool"
        }
      ],
      "stateMutability": "view",
      "type": "function",
      "constant": true
    },
    {
      "inputs": [
        {
          "internalType": "address",
          "name": "",
          "type": "address"
        }
      ],
      "name": "dataDokter",
      "outputs": [
        {
          "internalType": "string",
          "name": "nama",
          "type": "string"
        },
        {
          "internalType": "string",
          "name": "spesialisasi",
          "type": "string"
        },
        {
          "internalType": "string",
          "name": "nomorLisensi",
          "type": "string"
        },
        {
          "internalType": "bool",
          "name": "aktif",
          "type": "bool"
        },
        {
          "internalType": "address",
          "name": "adminRS",
          "type": "address"
        }
      ],
      "stateMutability": "view",
      "type": "function",
      "constant": true
    },
    {
      "inputs": [
        {
          "internalType": "address",
          "name": "",
          "type": "address"
        }
      ],
      "name": "dataPasien",
      "outputs": [
        {
          "internalType": "string",
          "name": "nama",
          "type": "string"
        },
        {
          "internalType": "string",
          "name": "golonganDarah",
          "type": "string"
        },
        {
          "internalType": "string",
          "name": "tanggalLahir",
          "type": "string"
        },
        {
          "internalType": "string",
          "name": "gender",
          "type": "string"
        },
        {
          "internalType": "string",
          "name": "alamat",
          "type": "string"
        },
        {
          "internalType": "string",
          "name": "noTelepon",
          "type": "string"
        },
        {
          "internalType": "string",
          "name": "email",
          "type": "string"
        },
        {
          "internalType": "address",
          "name": "rumahSakitPenanggungJawab",
          "type": "address"
        },
        {
          "internalType": "bool",
          "name": "exists",
          "type": "bool"
        }
      ],
      "stateMutability": "view",
      "type": "function",
      "constant": true
    },
    {
      "inputs": [
        {
          "internalType": "address",
          "name": "",
          "type": "address"
        }
      ],
      "name": "isDokter",
      "outputs": [
        {
          "internalType": "bool",
          "name": "",
          "type": "bool"
        }
      ],
      "stateMutability": "view",
      "type": "function",
      "constant": true
    },
    {
      "inputs": [
        {
          "internalType": "address",
          "name": "",
          "type": "address"
        }
      ],
      "name": "isPasien",
      "outputs": [
        {
          "internalType": "bool",
          "name": "",
          "type": "bool"
        }
      ],
      "stateMutability": "view",
      "type": "function",
      "constant": true
    },
    {
      "inputs": [
        {
          "internalType": "uint256",
          "name": "",
          "type": "uint256"
        }
      ],
      "name": "rekamMedis",
      "outputs": [
        {
          "internalType": "uint256",
          "name": "id",
          "type": "uint256"
        },
        {
          "internalType": "address",
          "name": "pasien",
          "type": "address"
        },
        {
          "internalType": "string",
          "name": "diagnosa",
          "type": "string"
        },
        {
          "internalType": "string",
          "name": "foto",
          "type": "string"
        },
        {
          "internalType": "string",
          "name": "catatan",
          "type": "string"
        },
        {
          "internalType": "bool",
          "name": "valid",
          "type": "bool"
        },
        {
          "internalType": "address",
          "name": "pembuatAwal",
          "type": "address"
        },
        {
          "internalType": "uint256",
          "name": "timestampAwal",
          "type": "uint256"
        }
      ],
      "stateMutability": "view",
      "type": "function",
      "constant": true
    },
    {
      "inputs": [
        {
          "internalType": "address",
          "name": "",
          "type": "address"
        },
        {
          "internalType": "uint256",
          "name": "",
          "type": "uint256"
        }
      ],
      "name": "rekamMedisByPasien",
      "outputs": [
        {
          "internalType": "uint256",
          "name": "",
          "type": "uint256"
        }
      ],
      "stateMutability": "view",
      "type": "function",
      "constant": true
    },
    {
      "inputs": [],
      "name": "rekamMedisCount",
      "outputs": [
        {
          "internalType": "uint256",
          "name": "",
          "type": "uint256"
        }
      ],
      "stateMutability": "view",
      "type": "function",
      "constant": true
    },
    {
      "inputs": [
        {
          "internalType": "uint256",
          "name": "",
          "type": "uint256"
        },
        {
          "internalType": "uint256",
          "name": "",
          "type": "uint256"
        }
      ],
      "name": "rekamMedisUpdateHistory",
      "outputs": [
        {
          "internalType": "address",
          "name": "aktor",
          "type": "address"
        },
        {
          "internalType": "uint256",
          "name": "timestamp",
          "type": "uint256"
        }
      ],
      "stateMutability": "view",
      "type": "function",
      "constant": true
    },
    {
      "inputs": [
        {
          "internalType": "uint256",
          "name": "",
          "type": "uint256"
        },
        {
          "internalType": "uint256",
          "name": "",
          "type": "uint256"
        }
      ],
      "name": "rekamMedisVersions",
      "outputs": [
        {
          "internalType": "uint256",
          "name": "id",
          "type": "uint256"
        },
        {
          "internalType": "address",
          "name": "pasien",
          "type": "address"
        },
        {
          "internalType": "string",
          "name": "diagnosa",
          "type": "string"
        },
        {
          "internalType": "string",
          "name": "foto",
          "type": "string"
        },
        {
          "internalType": "string",
          "name": "catatan",
          "type": "string"
        },
        {
          "internalType": "bool",
          "name": "valid",
          "type": "bool"
        },
        {
          "internalType": "address",
          "name": "pembuatAwal",
          "type": "address"
        },
        {
          "internalType": "uint256",
          "name": "timestampAwal",
          "type": "uint256"
        }
      ],
      "stateMutability": "view",
      "type": "function",
      "constant": true
    },
    {
      "inputs": [],
      "name": "superAdmin",
      "outputs": [
        {
          "internalType": "address",
          "name": "",
          "type": "address"
        }
      ],
      "stateMutability": "view",
      "type": "function",
      "constant": true
    },
    {
      "inputs": [
        {
          "internalType": "uint256",
          "name": "_id",
          "type": "uint256"
        }
      ],
      "name": "getFullRekamMedisHistory",
      "outputs": [
        {
          "components": [
            {
              "internalType": "uint256",
              "name": "id_rm",
              "type": "uint256"
            },
            {
              "internalType": "uint256",
              "name": "versiKe",
              "type": "uint256"
            },
            {
              "internalType": "string",
              "name": "diagnosa",
              "type": "string"
            },
            {
              "internalType": "string",
              "name": "foto",
              "type": "string"
            },
            {
              "internalType": "string",
              "name": "catatan",
              "type": "string"
            },
            {
              "internalType": "bool",
              "name": "valid",
              "type": "bool"
            },
            {
              "internalType": "address",
              "name": "aktor",
              "type": "address"
            },
            {
              "internalType": "uint256",
              "name": "timestamp",
              "type": "uint256"
            },
            {
              "internalType": "string",
              "name": "jenisPerubahan",
              "type": "string"
            }
          ],
          "internalType": "struct RekamMedisRS.FullRMHistoryEntry[]",
          "name": "",
          "type": "tuple[]"
        }
      ],
      "stateMutability": "view",
      "type": "function",
      "constant": true
    },
    {
      "inputs": [
        {
          "internalType": "address",
          "name": "_admin",
          "type": "address"
        },
        {
          "internalType": "string",
          "name": "_namaRS",
          "type": "string"
        }
      ],
      "name": "registerAdminRS",
      "outputs": [],
      "stateMutability": "nonpayable",
      "type": "function"
    },
    {
      "inputs": [],
      "name": "getAllAdminRSAddresses",
      "outputs": [
        {
          "internalType": "address[]",
          "name": "",
          "type": "address[]"
        }
      ],
      "stateMutability": "view",
      "type": "function",
      "constant": true
    },
    {
      "inputs": [
        {
          "internalType": "address",
          "name": "_admin",
          "type": "address"
        },
        {
          "internalType": "bool",
          "name": "_aktif",
          "type": "bool"
        }
      ],
      "name": "setStatusAdminRS",
      "outputs": [],
      "stateMutability": "nonpayable",
      "type": "function"
    },
    {
      "inputs": [],
      "name": "totalAdmin",
      "outputs": [
        {
          "internalType": "uint256",
          "name": "",
          "type": "uint256"
        }
      ],
      "stateMutability": "view",
      "type": "function",
      "constant": true
    },
    {
      "inputs": [
        {
          "internalType": "uint256",
          "name": "idx",
          "type": "uint256"
        }
      ],
      "name": "getAdminByIndex",
      "outputs": [
        {
          "internalType": "address",
          "name": "",
          "type": "address"
        }
      ],
      "stateMutability": "view",
      "type": "function",
      "constant": true
    },
    {
      "inputs": [
        {
          "internalType": "address",
          "name": "_adminRS",
          "type": "address"
        }
      ],
      "name": "getNamaRumahSakitByAdmin",
      "outputs": [
        {
          "internalType": "string",
          "name": "",
          "type": "string"
        }
      ],
      "stateMutability": "view",
      "type": "function",
      "constant": true
    },
    {
      "inputs": [
        {
          "internalType": "address",
          "name": "_dokter",
          "type": "address"
        },
        {
          "internalType": "string",
          "name": "_nama",
          "type": "string"
        },
        {
          "internalType": "string",
          "name": "_spesialisasi",
          "type": "string"
        },
        {
          "internalType": "string",
          "name": "_nomorLisensi",
          "type": "string"
        }
      ],
      "name": "registerDokter",
      "outputs": [],
      "stateMutability": "nonpayable",
      "type": "function"
    },
    {
      "inputs": [
        {
          "internalType": "address",
          "name": "_dokter",
          "type": "address"
        },
        {
          "internalType": "string",
          "name": "_namaBaru",
          "type": "string"
        },
        {
          "internalType": "string",
          "name": "_spesialisasiBaru",
          "type": "string"
        },
        {
          "internalType": "string",
          "name": "_nomorLisensiBaru",
          "type": "string"
        }
      ],
      "name": "updateDokterInfo",
      "outputs": [],
      "stateMutability": "nonpayable",
      "type": "function"
    },
    {
      "inputs": [
        {
          "internalType": "address",
          "name": "_dokter",
          "type": "address"
        },
        {
          "internalType": "bool",
          "name": "_aktif",
          "type": "bool"
        }
      ],
      "name": "setStatusDokter",
      "outputs": [],
      "stateMutability": "nonpayable",
      "type": "function"
    },
    {
      "inputs": [],
      "name": "totalDokter",
      "outputs": [
        {
          "internalType": "uint256",
          "name": "",
          "type": "uint256"
        }
      ],
      "stateMutability": "view",
      "type": "function",
      "constant": true
    },
    {
      "inputs": [
        {
          "internalType": "uint256",
          "name": "idx",
          "type": "uint256"
        }
      ],
      "name": "getDokterByIndex",
      "outputs": [
        {
          "internalType": "address",
          "name": "",
          "type": "address"
        }
      ],
      "stateMutability": "view",
      "type": "function",
      "constant": true
    },
    {
      "inputs": [
        {
          "internalType": "address",
          "name": "_dokter",
          "type": "address"
        }
      ],
      "name": "getDokter",
      "outputs": [
        {
          "internalType": "string",
          "name": "nama",
          "type": "string"
        },
        {
          "internalType": "string",
          "name": "spesialisasi",
          "type": "string"
        },
        {
          "internalType": "string",
          "name": "nomorLisensi",
          "type": "string"
        },
        {
          "internalType": "bool",
          "name": "aktif",
          "type": "bool"
        },
        {
          "internalType": "address[]",
          "name": "pasienList",
          "type": "address[]"
        },
        {
          "internalType": "address",
          "name": "adminRS",
          "type": "address"
        }
      ],
      "stateMutability": "view",
      "type": "function",
      "constant": true
    },
    {
      "inputs": [
        {
          "internalType": "address",
          "name": "_dokter",
          "type": "address"
        }
      ],
      "name": "getAssignedPatients",
      "outputs": [
        {
          "internalType": "address[]",
          "name": "",
          "type": "address[]"
        }
      ],
      "stateMutability": "view",
      "type": "function",
      "constant": true
    },
    {
      "inputs": [
        {
          "internalType": "address",
          "name": "_pasien",
          "type": "address"
        },
        {
          "internalType": "string",
          "name": "_nama",
          "type": "string"
        },
        {
          "internalType": "address",
          "name": "_adminRS",
          "type": "address"
        }
      ],
      "name": "registerPasien",
      "outputs": [],
      "stateMutability": "nonpayable",
      "type": "function"
    },
    {
      "inputs": [
        {
          "internalType": "string",
          "name": "_nama",
          "type": "string"
        },
        {
          "internalType": "string",
          "name": "_golonganDarah",
          "type": "string"
        },
        {
          "internalType": "string",
          "name": "_tanggalLahir",
          "type": "string"
        },
        {
          "internalType": "string",
          "name": "_gender",
          "type": "string"
        },
        {
          "internalType": "string",
          "name": "_alamat",
          "type": "string"
        },
        {
          "internalType": "string",
          "name": "_noTelepon",
          "type": "string"
        },
        {
          "internalType": "string",
          "name": "_email",
          "type": "string"
        },
        {
          "internalType": "address",
          "name": "_adminRS",
          "type": "address"
        }
      ],
      "name": "selfRegisterPasien",
      "outputs": [],
      "stateMutability": "nonpayable",
      "type": "function"
    },
    {
      "inputs": [
        {
          "internalType": "string",
          "name": "_nama",
          "type": "string"
        },
        {
          "internalType": "string",
          "name": "_golonganDarah",
          "type": "string"
        },
        {
          "internalType": "string",
          "name": "_tanggalLahir",
          "type": "string"
        },
        {
          "internalType": "string",
          "name": "_gender",
          "type": "string"
        },
        {
          "internalType": "string",
          "name": "_alamat",
          "type": "string"
        },
        {
          "internalType": "string",
          "name": "_noTelepon",
          "type": "string"
        },
        {
          "internalType": "string",
          "name": "_email",
          "type": "string"
        }
      ],
      "name": "updatePasienData",
      "outputs": [],
      "stateMutability": "nonpayable",
      "type": "function"
    },
    {
      "inputs": [
        {
          "internalType": "address",
          "name": "_newAdminRS",
          "type": "address"
        }
      ],
      "name": "updatePasienRumahSakit",
      "outputs": [],
      "stateMutability": "nonpayable",
      "type": "function"
    },
    {
      "inputs": [],
      "name": "getDaftarPasien",
      "outputs": [
        {
          "internalType": "address[]",
          "name": "",
          "type": "address[]"
        }
      ],
      "stateMutability": "view",
      "type": "function",
      "constant": true
    },
    {
      "inputs": [
        {
          "internalType": "address",
          "name": "_pasien",
          "type": "address"
        }
      ],
      "name": "getPasienData",
      "outputs": [
        {
          "internalType": "string",
          "name": "nama",
          "type": "string"
        },
        {
          "internalType": "string",
          "name": "golonganDarah",
          "type": "string"
        },
        {
          "internalType": "string",
          "name": "tanggalLahir",
          "type": "string"
        },
        {
          "internalType": "string",
          "name": "gender",
          "type": "string"
        },
        {
          "internalType": "string",
          "name": "alamat",
          "type": "string"
        },
        {
          "internalType": "string",
          "name": "noTelepon",
          "type": "string"
        },
        {
          "internalType": "string",
          "name": "email",
          "type": "string"
        },
        {
          "internalType": "address",
          "name": "rumahSakitPenanggungJawab",
          "type": "address"
        }
      ],
      "stateMutability": "view",
      "type": "function",
      "constant": true
    },
    {
      "inputs": [
        {
          "internalType": "address",
          "name": "_dokter",
          "type": "address"
        },
        {
          "internalType": "address",
          "name": "_pasien",
          "type": "address"
        }
      ],
      "name": "assignPasienToDokter",
      "outputs": [],
      "stateMutability": "nonpayable",
      "type": "function"
    },
    {
      "inputs": [
        {
          "internalType": "address",
          "name": "_dokter",
          "type": "address"
        },
        {
          "internalType": "address",
          "name": "_pasien",
          "type": "address"
        }
      ],
      "name": "unassignPasienFromDokter",
      "outputs": [],
      "stateMutability": "nonpayable",
      "type": "function"
    },
    {
      "inputs": [
        {
          "internalType": "address",
          "name": "_pasien",
          "type": "address"
        },
        {
          "internalType": "string",
          "name": "_diagnosa",
          "type": "string"
        },
        {
          "internalType": "string",
          "name": "_foto",
          "type": "string"
        },
        {
          "internalType": "string",
          "name": "_catatan",
          "type": "string"
        }
      ],
      "name": "tambahRekamMedis",
      "outputs": [],
      "stateMutability": "nonpayable",
      "type": "function"
    },
    {
      "inputs": [
        {
          "internalType": "uint256",
          "name": "_id",
          "type": "uint256"
        },
        {
          "internalType": "string",
          "name": "_diagnosa",
          "type": "string"
        },
        {
          "internalType": "string",
          "name": "_foto",
          "type": "string"
        },
        {
          "internalType": "string",
          "name": "_catatan",
          "type": "string"
        }
      ],
      "name": "updateRekamMedis",
      "outputs": [],
      "stateMutability": "nonpayable",
      "type": "function"
    },
    {
      "inputs": [
        {
          "internalType": "address",
          "name": "_pasien",
          "type": "address"
        }
      ],
      "name": "getRekamMedisIdsByPasien",
      "outputs": [
        {
          "internalType": "uint256[]",
          "name": "",
          "type": "uint256[]"
        }
      ],
      "stateMutability": "view",
      "type": "function",
      "constant": true
    },
    {
      "inputs": [
        {
          "internalType": "uint256",
          "name": "_id",
          "type": "uint256"
        }
      ],
      "name": "getRekamMedis",
      "outputs": [
        {
          "internalType": "uint256",
          "name": "id",
          "type": "uint256"
        },
        {
          "internalType": "address",
          "name": "pasien",
          "type": "address"
        },
        {
          "internalType": "string",
          "name": "diagnosa",
          "type": "string"
        },
        {
          "internalType": "string",
          "name": "foto",
          "type": "string"
        },
        {
          "internalType": "string",
          "name": "catatan",
          "type": "string"
        },
        {
          "internalType": "bool",
          "name": "valid",
          "type": "bool"
        },
        {
          "internalType": "address",
          "name": "pembuatAwal",
          "type": "address"
        },
        {
          "internalType": "uint256",
          "name": "timestampAwal",
          "type": "uint256"
        }
      ],
      "stateMutability": "view",
      "type": "function",
      "constant": true
    },
    {
      "inputs": [
        {
          "internalType": "uint256",
          "name": "_id",
          "type": "uint256"
        }
      ],
      "name": "getRekamMedisVersions",
      "outputs": [
        {
          "components": [
            {
              "internalType": "uint256",
              "name": "id",
              "type": "uint256"
            },
            {
              "internalType": "address",
              "name": "pasien",
              "type": "address"
            },
            {
              "internalType": "string",
              "name": "diagnosa",
              "type": "string"
            },
            {
              "internalType": "string",
              "name": "foto",
              "type": "string"
            },
            {
              "internalType": "string",
              "name": "catatan",
              "type": "string"
            },
            {
              "internalType": "bool",
              "name": "valid",
              "type": "bool"
            },
            {
              "internalType": "address",
              "name": "pembuatAwal",
              "type": "address"
            },
            {
              "internalType": "uint256",
              "name": "timestampAwal",
              "type": "uint256"
            }
          ],
          "internalType": "struct RekamMedisRS.RekamMedisData[]",
          "name": "",
          "type": "tuple[]"
        }
      ],
      "stateMutability": "view",
      "type": "function",
      "constant": true
    },
    {
      "inputs": [
        {
          "internalType": "uint256",
          "name": "_id",
          "type": "uint256"
        }
      ],
      "name": "getRekamMedisUpdateHistory",
      "outputs": [
        {
          "internalType": "address[]",
          "name": "actors",
          "type": "address[]"
        },
        {
          "internalType": "uint256[]",
          "name": "timestamps",
          "type": "uint256[]"
        }
      ],
      "stateMutability": "view",
      "type": "function",
      "constant": true
    },
    {
      "inputs": [
        {
          "internalType": "uint256",
          "name": "_id",
          "type": "uint256"
        }
      ],
      "name": "nonaktifkanRekamMedis",
      "outputs": [],
      "stateMutability": "nonpayable",
      "type": "function"
    },
    {
      "inputs": [
        {
          "internalType": "address",
          "name": "_newAdmin",
          "type": "address"
        }
      ],
      "name": "setSuperAdmin",
      "outputs": [],
      "stateMutability": "nonpayable",
      "type": "function"
    },
    {
      "inputs": [
        {
          "internalType": "address",
          "name": "_user",
          "type": "address"
        }
      ],
      "name": "getUserRole",
      "outputs": [
        {
          "internalType": "string",
          "name": "",
          "type": "string"
        }
      ],
      "stateMutability": "view",
      "type": "function",
      "constant": true
    }
  ],
  "bytecode": "0x6080806040523461003d57600080546001600160a01b03191673b0dc0bf642d339517438017fc185bb0f758a01d2179055615cd89081620000438239f35b600080fdfe60e0604052600436101561001257600080fd5b60003560e01c8062410cb314614e9d57806301c268fe14614723578063046bdbcc146146b5578063083d8824146145c45780631132beb51461458557806315700052146144e957806319d9d3dd1461446857806319e8f405146141c757806324dcec5814613dfe5780632782085114613dc657806329575f6a14613d9d5780632e2dd10214613d7f5780633aaec728146135f55780633bf76303146135925780633da05518146134ac578063426996511461348357806347960cb5146133e557806351887b67146133505780635c4c9348146133115780635e6da24c146130ed578063623785c11461307f57806364319e33146130615780636837008714613006578063786f3fbe14612ee35780637d3e9db814612ec5578063911b633a14612e83578063924b912314612d7557806392fa924014612be0578063932e0f6d14612b2a5780639725955014612ade5780639dbde118146121d3578063a665102c146120a5578063abf72abb14612061578063ad3c970814611da7578063b75de7a8146119a7578063bcff1f90146118ea578063c0664b7e1461187f578063c3c0fdea146117d2578063c967ede81461172e578063d688780214611574578063dd09a968146114e2578063ddbd24d314610f6e578063df83dde0146105b3578063e29993a5146102ef5763f2ab4a991461020a57600080fd5b346102ea576102183661526f565b60005490916001600160a01b039161023390831633146153f7565b169081600052600160205261024c604060002054615067565b156102a55760207fd2e4d0240eabf0011425eb3fffbc4f311cd4b564ba547aba4b3163fd046f6a9791836000526001825261029a8160016040600020019060ff801983541691151516179055565b6040519015158152a2005b60405162461bcd60e51b815260206004820152601960248201527f41646d696e20525320746964616b20646974656d756b616e2e000000000000006044820152606490fd5b600080fd5b346102ea5760403660031901126102ea57610308614ef5565b610310614f0b565b3360005260019160209280845261033060ff8260406000200154166155df565b60018060a01b039081831691826000526004865261035560ff6040600020541661567a565b82600052600390818752610374338260056040600020015416146156c6565b80861690816000526007885261039160ff60406000205416615818565b8160005260068852338160076040600020015416036105565760009485528288526040852091949392916004019084845b61046e575b505050505090501561041a57604080516001600160a01b0392831681529290911660208301527f80b4d8d360eb6524bf34c2207f48a267b84469bad95c9e9540413349e9f416a59250819081015b0390a1005b60405162461bcd60e51b815260048101849052602660248201527f50617369656e20746964616b20646974756761736b616e206b6520646f6b7465604482015265391034b7349760d11b6064820152608490fd5b8254808210156105505787836104848487614fa5565b905490881b1c16146104a557509561049d8596976153e8565b9096956103c2565b91939550919395506000199182820191821161053a576104da846104cc6104f99488614fa5565b905490891b1c169186614fa5565b90919082549060031b9160018060a01b03809116831b921b1916179055565b8254801561052457019261050d8484614fa5565b81939154921b1b19169055558085808080806103c7565b634e487b7160e01b600052603160045260246000fd5b634e487b7160e01b600052601160045260246000fd5b506103c7565b60405162461bcd60e51b815260048101899052602f60248201527f50617369656e20696e6920746964616b2074657264616674617220646920727560448201526e36b0b41039b0b5b4ba1020b732309760891b6064820152608490fd5b346102ea5760603660031901126102ea576105cc614ef5565b6024356001600160401b0381116102ea576105eb903690600401614fbd565b906044356001600160a01b03811690036102ea5733600052600160205261061c60ff600160406000200154166155df565b6001600160a01b03831660009081526007602052604090205460ff16610f17576001600160a01b03831660009081526004602052604090205460ff16610eac5760018060a01b0360443516600052600160205260ff6001604060002001541615610e5c576044356001600160a01b03163303610de6576001600160a01b03831660009081526007602052604090819020805460ff1916600117905551926106c2846150a1565b6106cd368484615460565b84526040516106db816150f4565b6000815260208501526040516106f0816150f4565b600081526040850152604051610705816150f4565b60008152606085015260405161071a816150f4565b60008152608085015260405161072f816150f4565b6000815260a0850152604051610744816150f4565b600080825260c08601919091526001600160a01b03604435811660e087015260016101008701528216815260066020526040902084518051919591906001600160401b038211610b005781906107a48261079e8a54615067565b8a6154bd565b602090601f8311600114610d7a57600092610d6f575b50508160011b916000199060031b1c19161785555b60208101518051906001600160401b038211610b00578190610801826107f860018b0154615067565b60018b016154bd565b602090601f8311600114610cfd57600092610cf2575b50508160011b916000199060031b1c19161760018601555b60408101518051906001600160401b038211610b005781906108618261085860028b0154615067565b60028b016154bd565b602090601f8311600114610c8057600092610c75575b50508160011b916000199060031b1c19161760028601555b60608101518051906001600160401b038211610b005781906108c1826108b860038b0154615067565b60038b016154bd565b602090601f8311600114610c0357600092610bf8575b50508160011b916000199060031b1c19161760038601555b608081015180516001600160401b038111610b005780600488019261091e826109188654615067565b866154bd565b602090601f8311600114610b9257600092610b87575b50508160011b916000199060031b1c19161790555b60a081015180516001600160401b038111610b0057806005880192610972826109188654615067565b602090601f8311600114610b2157600092610b16575b50508160011b916000199060031b1c19161790555b60c08101519485516001600160401b038111610b00576109cd816109c46006850154615067565b600685016154bd565b6020601f8211600114610a7e57908060079392600080516020615c838339815191529899600092610a73575b50508160011b916000199060031b1c19161760068201555b019060018060a01b0360e08201511682549161010060ff60a01b910151151560a01b16916affffffffffffffffffffff60a81b1617179055610a5281615502565b610a6e60405192839260018060a01b0316956044359184615651565b0390a2005b0151905089806109f9565b6006830160005260206000209760005b601f1984168110610ae8575091600080516020615c8383398151915297986001926007959483601f19811610610acf575b505050811b016006820155610a11565b015160001960f88460031b161c19169055898080610abf565b828201518a5560019099019860209283019201610a8e565b634e487b7160e01b600052604160045260246000fd5b015190508880610988565b6000858152602081209350601f198516905b818110610b6f5750908460019594939210610b56575b505050811b01905561099d565b015160001960f88460031b161c19169055888080610b49565b92936020600181928786015181550195019301610b33565b015190508880610934565b6000858152602081209350601f198516905b818110610be05750908460019594939210610bc7575b505050811b019055610949565b015160001960f88460031b161c19169055888080610bba565b92936020600181928786015181550195019301610ba4565b0151905087806108d7565b9250600388016000526020600020906000935b601f1984168510610c5a576001945083601f19811610610c41575b505050811b0160038601556108ef565b015160001960f88460031b161c19169055878080610c31565b81810151835560209485019460019093019290910190610c16565b015190508780610877565b9250600288016000526020600020906000935b601f1984168510610cd7576001945083601f19811610610cbe575b505050811b01600286015561088f565b015160001960f88460031b161c19169055878080610cae565b81810151835560209485019460019093019290910190610c93565b015190508780610817565b9250600188016000526020600020906000935b601f1984168510610d54576001945083601f19811610610d3b575b505050811b01600186015561082f565b015160001960f88460031b161c19169055878080610d2b565b81810151835560209485019460019093019290910190610d10565b0151905087806107ba565b9250876000526020600020906000935b601f1984168510610dcb576001945083601f19811610610db2575b505050811b0185556107cf565b015160001960f88460031b161c19169055878080610da5565b81810151835560209485019460019093019290910190610d8a565b60405162461bcd60e51b815260206004820152604260248201527f48616e79612061646d696e2052532070656e616e6767756e67206a617761622060448201527f79616e672062697361206d656e6461667461726b616e2070617369656e20696e606482015261349760f11b608482015260a490fd5b60405162461bcd60e51b815260206004820152602260248201527f41646d696e2052532079616e6720646972756a756b20746964616b20616b7469604482015261331760f11b6064820152608490fd5b60405162461bcd60e51b815260206004820152603f60248201527f416c616d617420696e6920746572646166746172207365626167616920646f6b60448201527f7465722c20746964616b2062697361206d656e6a6164692070617369656e2e006064820152608490fd5b60405162461bcd60e51b815260206004820152602960248201527f50617369656e207375646168207465726461667461722064656e67616e20616c60448201526830b6b0ba1034b7349760b91b6064820152608490fd5b346102ea57610f7c366152d0565b919493959290336000526001602052610f9f60ff600160406000200154166155df565b6001600160a01b03841660009081526004602052604090205460ff1661148a576001600160a01b03841660009081526007602052604090205460ff1661141f576001600160a01b03841660009081526004602052604090819020805460ff19166001179055519261100f846150f4565b60008452604051968760c08101106001600160401b0360c08a011117610b005761105e936110529160c08a01604052611049368c8b615460565b8a523691615460565b60208801523691615460565b60408501526001606085015260808401523360a084015260018060a01b038116600052600360205260406000209280518051906001600160401b038211610b005781906110b5826110af8954615067565b896154bd565b602090601f83116001146113b3576000926113a8575b50508160011b916000199060031b1c19161784555b60208101518051906001600160401b038211610b005781906111128261110960018a0154615067565b60018a016154bd565b602090601f83116001146113365760009261132b575b50508160011b916000199060031b1c19161760018501555b604081015180516001600160401b038111610b0057806002870192611169826109188654615067565b602090601f83116001146112c5576000926112ba575b50508160011b916000199060031b1c19161790555b6111b360608201511515600386019060ff801983541691151516179055565b60048401936080820151948551906001600160401b038211610b0057600160401b96878311610b0057602090825484845580851061129d575b500190600052602060002060005b83811061128057505050506005019060a0600180821b03910151166001600160601b0360a01b82541617905560055492831015610b0057611266816104da8560017f5c9d12a5bfda65f31ab460df37935bfe7b6cfa6a3787bf1f99858ccc15dc92779701600555614f21565b610a6e60405192839260018060a01b031695339184615651565b82516001600160a01b0316818301556020909201916001016111fa565b6112b49084600052858460002091820191016154a6565b8a6111ec565b01519050888061117f565b6000858152602081209350601f198516905b81811061131357509084600195949392106112fa575b505050811b019055611194565b015160001960f88460031b161c191690558880806112ed565b929360206001819287860151815501950193016112d7565b015190508780611128565b9250600187016000526020600020906000935b601f198416851061138d576001945083601f19811610611374575b505050811b016001850155611140565b015160001960f88460031b161c19169055878080611364565b81810151835560209485019460019093019290910190611349565b0151905087806110cb565b9250866000526020600020906000935b601f1984168510611404576001945083601f198116106113eb575b505050811b0184556110e0565b015160001960f88460031b161c191690558780806113de565b818101518355602094850194600190930192909101906113c3565b60405162461bcd60e51b815260206004820152603f60248201527f416c616d617420696e692074657264616674617220736562616761692070617360448201527f69656e2c20746964616b2062697361206d656e6a61646920646f6b7465722e006064820152608490fd5b60405162461bcd60e51b815260206004820152602a60248201527f416c616d617420696e692073756461682074657264616674617220736562616760448201526930b4903237b5ba32b91760b11b6064820152608490fd5b346102ea576114f03661529e565b90600052600c602052604060002080548210156102ea5760ff9161151391615348565b50805460018201546001600160a01b0392611570929184169161153860028301615130565b61154460038401615130565b61155060048501615130565b916006600586015495015495604051998a998760081c16961694896151d6565b0390f35b346102ea576020806003193601126102ea57600435600052600c81526040600020908154916115a2836153b0565b926115b0604051948561510f565b8084528284018092600052836000206000915b83831061169e5750505050604051918083019381845251809452604083019360408160051b85010192916000955b8287106115fe5785850386f35b909192938280600192603f198982030185528751908151815260e080868060a01b03938486820151168685015261167061165d61164a60408401516101008060408a0152880190615027565b6060808501519088830390890152615027565b6080808401519087830390880152615027565b9460a08083015115159086015260c090818301511690850152015191015296019201960195929190926115f1565b6007866001926040999899516116b3816150d8565b85548152848060a01b03808688015416848301526116d360028801615130565b60408301526116e460038801615130565b60608301526116f560048801615130565b6080830152600587015460ff8116151560a084015260081c1660c0820152600686015460e08201528152019201920191909594956115c3565b346102ea576020806003193601126102ea576001600160a01b03611750614ef5565b16806000526007825261176a60ff604060002054166157cc565b600052600a8152604060002090604051808383829554938481520190600052836000209260005b858282106117bc575050506117a89250038361510f565b61157060405192828493845283019061523b565b8554845260019586019588955093019201611791565b346102ea5760203660031901126102ea576118526001600160a01b03806117f7614ef5565b166000526003602052604060002061180e81615130565b9161186e61181e60018401615130565b9161186061182e60028601615130565b91600560ff600388015416960154169360405197889760a0895260a0890190615027565b908782036020890152615027565b908582036040870152615027565b911515606084015260808301520390f35b346102ea5760203660031901126102ea576001600160a01b036118a0614ef5565b168060005260046020526118bb60ff6040600020541661572a565b60005260036020526115706118d66004604060002001615587565b604051918291602083526020830190614fea565b346102ea576020806003193601126102ea576001600160a01b0361190c614ef5565b16806000526001825260ff600160406000200154161561194f576000526001815261193a6040600020615130565b90611570604051928284938452830190615027565b60405162461bcd60e51b815260048101839052602a60248201527f41646d696e20525320746964616b20646974656d756b616e20617461752074696044820152693230b59030b5ba34b31760b11b6064820152608490fd5b346102ea576119b5366152d0565b959492909391953360005260016020526119d960ff600160406000200154166155df565b60018060a01b0391828716600052600460205260ff6040600020541615611d58578287166000526003978860205233846005604060002001541603611cf9578388166000528860205260406000206001600160401b03808711610b0057611a4a87611a448454615067565b846154bd565b866000601f8211600114611c9457600091611c89575b50600019888d1b1c1916600188901b1782555b808311610b005760018201611a9284611a8c8354615067565b836154bd565b836000601f8211600114611c2657600091611c1b575b50600019858e1b1c1916600185901b1790555b8411610b0057611adb84611ad26002840154615067565b600284016154bd565b6000601f8511600114611b7e579184939160027f4e15ca2ba26538cdb1e2f0d595a1ec96fe8fbb126404e0cc083426c33ccbdd959a9b9c611b6e9897611b5c96600091611b73575b508760011b9188600019911b1c1916179101555b611b4e60405198899860608a5260608a0191615566565b918783036020890152615566565b91848303604086015233981696615566565b0390a3005b90508d01358f611b23565b99601f198516906002830160005260206000209160005b818110611c035750917f4e15ca2ba26538cdb1e2f0d595a1ec96fe8fbb126404e0cc083426c33ccbdd959a9b9c87969492611b6e9998611b5c979510611be9575b5050506002600186811b01910155611b37565b60f888600019921b161c19908d01351690558c8080611bd6565b8b8e0135845560209d8e019d60019094019301611b95565b90508501358d611aa8565b60008381526020812092505b601f1987168110611c71575085601f19811610611c59575b5050600184811b019055611abb565b860135600019868f1b60f8161c191690558c80611c4a565b9091602060018192858b013581550193019101611c32565b90508801358c611a60565b60008481526020812092508990601f198216905b8c828210611cdf57505010611cc7575b5050600187811b018255611a73565b890135600019898e1b60f8161c191690558b80611cb8565b84013585556001909401936020938401938c935001611ca8565b60405162461bcd60e51b815260206004820152603160248201527f416e64612062756b616e2061646d696e2052532079616e672062657268616b206044820152703ab73a3ab5903237b5ba32b91034b7349760791b6064820152608490fd5b60405162461bcd60e51b815260206004820152602160248201527f446f6b74657220746964616b207465726461667461722064692073697374656d6044820152601760f91b6064820152608490fd5b346102ea57611db5366152d0565b94956001600160a01b0380821696949594929392916000919033891480612049575b15611f8f5750505060015b15611f2457611e8792611e5c91876000526006602052611e0f60ff60076040600020015460a01c16615818565b611e50611e1d600b546153e8565b9788600b5560405195611e2f876150d8565b8987528a6020880152611e448c8a3691615460565b60408801523691615460565b60608501523691615460565b6080820152600160a08201523360c08201524260e08201528360005260096020526040600020615864565b82600052600a602052604060002093845491600160401b831015610b0057611ed9837f8419bc360c0950d141692e62a8d61524f23890b6df5a9cfbc5e10a561d91488b976001611f0c96018155614fa5565b81549060031b9086821b91600019901b19161790556040519485948552602085015260c0604085015260c0840191615566565b336060830152426080830152600160a08301520390a1005b60405162461bcd60e51b815260206004820152603960248201527f416b746f7220746964616b2062657268616b206d656e616d6261682072656b6160448201527f6d206d6564697320756e74756b2070617369656e20696e692e000000000000006064820152608490fd5b33600052600460205260ff6040600020541680612032575b611fb3575b5050611de2565b88600052600660205260ff60076040600020015460a01c169182611fff575b5081611fee575b50611fe6575b8880611fac565b506001611fdf565b611ff9915033615b28565b89611fd9565b9091503360005260036020528060056040600020015416908960005260066020526007604060002001541614908a611fd2565b50600360205260ff60036040600020015416611fa7565b5088600052600760205260ff60406000205416611dd7565b346102ea5760203660031901126102ea57600435600052600960205260ff6040600020611570815460018060a01b0392836001820154169161153860028301615130565b346102ea5760203660031901126102ea576001600160a01b03806120c7614ef5565b168060005260076020526120e260ff604060002054166157cc565b60005260066020526121756040600020916007830154166121c961210584615130565b6121bb61211460018701615130565b956121ad61212460028301615130565b61219f61213360038501615130565b61219161214260048701615130565b9361218361215e600661215760058b01615130565b9901615130565b996040519e8f9e8f92610100808552840190615027565b916020818403910152615027565b8c810360408e015290615027565b908a820360608c0152615027565b9088820360808a0152615027565b9086820360a0880152615027565b9084820360c0860152615027565b9060e08301520390f35b346102ea576101003660031901126102ea576004356001600160401b0381116102ea57612204903690600401614fbd565b906024356001600160401b0381116102ea57612224903690600401614fbd565b906044356001600160401b0381116102ea57612244903690600401614fbd565b906064356001600160401b0381116102ea57612264903690600401614fbd565b906084356001600160401b0381116102ea57612284903690600401614fbd565b909160a4356001600160401b0381116102ea576122a5903690600401614fbd565b9490956001600160401b0360c435116102ea576122c73660c435600401614fbd565b909990989060e4356001600160a01b03811690036102ea5733600052600760205260ff60406000205416612a8d5733600052600460205260ff60406000205416612a3c5760018060a01b0360e43516600052600160205260ff60016040600020015416156129d8578d9b336000526007602052604060002060ff1981541660011790558d6040519d6123588f6150a1565b369061236392615460565b8d52369061237092615460565b60208c0152369061238092615460565b60408a0152369061239092615460565b606088015236906123a092615460565b608086015236906123b092615460565b60a084015236906123c092615460565b60c082015260e4356001600160a01b031660e0820152600161010082015233600090815260066020526040902081518051906001600160401b038211610b00578190612410826109188654615067565b602090601f831160011461297257600092612967575b50508160011b916000199060031b1c19161781555b602082015180516001600160401b038111610b0057806001840192612464826109188654615067565b602090601f8311600114612901576000926128f6575b50508160011b916000199060031b1c19161790555b604082015180516001600160401b038111610b00578060028401926124b8826109188654615067565b602090601f831160011461289057600092612885575b50508160011b916000199060031b1c19161790555b606082015180516001600160401b038111610b005780600384019261250c826109188654615067565b602090601f831160011461281f57600092612814575b50508160011b916000199060031b1c19161790555b608082015180516001600160401b038111610b0057806004840192612560826109188654615067565b602090601f83116001146127ae576000926127a3575b50508160011b916000199060031b1c19161790555b60a082015180516001600160401b038111610b00578060058401926125b4826109188654615067565b602090601f831160011461273d57600092612732575b50508160011b916000199060031b1c19161790555b6006810160c08301518051906001600160401b038211610b005761260d826126078554615067565b856154bd565b602090601f83116001146126b2579282600793600080516020615c83833981519152989693610a6e98966000926126a7575b50508160011b916000199060031b1c19161790555b019060018060a01b0360e08201511682549161010060ff60a01b910151151560a01b16916affffffffffffffffffffff60a81b161717905561269533615502565b604051918291339560e4359184615651565b015190508a8061263f565b90601f198316918460005260206000209260005b81811061271a575093600080516020615c83833981519152989693610a6e9896936001938360079810612701575b505050811b019055612654565b015160001960f88460031b161c191690558a80806126f4565b929360206001819287860151815501950193016126c6565b0151905087806125ca565b6000858152602081209350601f198516905b81811061278b5750908460019594939210612772575b505050811b0190556125df565b015160001960f88460031b161c19169055878080612765565b9293602060018192878601518155019501930161274f565b015190508780612576565b6000858152602081209350601f198516905b8181106127fc57509084600195949392106127e3575b505050811b01905561258b565b015160001960f88460031b161c191690558780806127d6565b929360206001819287860151815501950193016127c0565b015190508780612522565b6000858152602081209350601f198516905b81811061286d5750908460019594939210612854575b505050811b019055612537565b015160001960f88460031b161c19169055878080612847565b92936020600181928786015181550195019301612831565b0151905087806124ce565b6000858152602081209350601f198516905b8181106128de57509084600195949392106128c5575b505050811b0190556124e3565b015160001960f88460031b161c191690558780806128b8565b929360206001819287860151815501950193016128a2565b01519050878061247a565b6000858152602081209350601f198516905b81811061294f5750908460019594939210612936575b505050811b01905561248f565b015160001960f88460031b161c19169055878080612929565b92936020600181928786015181550195019301612913565b015190508680612426565b6000858152602081209350601f198516905b8181106129c057509084600195949392106129a7575b505050811b01815561243b565b015160001960f88460031b161c1916905586808061299a565b92936020600181928786015181550195019301612984565b60405162461bcd60e51b815260206004820152603660248201527f52756d61682053616b69742079616e6720646970696c696820746964616b206160448201527535ba34b31030ba30ba903a34b230b5903b30b634b21760511b6064820152608490fd5b60405162461bcd60e51b8152602060048201526024808201527f416c616d617420696e6920746572646166746172207365626167616920646f6b6044820152633a32b91760e11b6064820152608490fd5b60405162461bcd60e51b8152602060048201526024808201527f416e64612073756461682074657264616674617220736562616761692070617360448201526334b2b71760e11b6064820152608490fd5b346102ea57612aec3661529e565b90600052600d602052604060002080548210156102ea57604091612b0f916152b4565b506001808060a01b0382541691015482519182526020820152f35b346102ea5760207f3dcd68c14f5f191f12b3b56bf35d5d7eb22447e9ec685290967b4558822ca98a612b5b3661526f565b9290923360005260018252612b7a60ff600160406000200154166155df565b612bbb60018060a01b03809516948560005260048452612ba160ff6040600020541661567a565b8560005260038452339060056040600020015416146156c6565b836000526003825261029a8160036040600020019060ff801983541691151516179055565b346102ea576020806003193601126102ea57612bfa614ef5565b3360005260068252612c1960ff60076040600020015460a01c16615776565b60018060a01b039081811691826000526001845260ff6001604060002001541615612d1957336000526006845282816007604060002001541614612cc357336000818152600690955260409485902060070180546001600160a01b03198116909517905584516001600160a01b03929094168216845291166020830152917f3457f52cd7f93503903afd272e58438c52a23561e74eddba2144dc53d7af0e44919081908101610a6e565b60405162461bcd60e51b815260048101859052602860248201527f416e6461207375646168207465726461667461722064692072756d616820736160448201526735b4ba1034b7349760c11b6064820152608490fd5b60405162461bcd60e51b815260048101859052602e60248201527f52756d61682053616b6974206261727520746964616b20616b7469662061746160448201526d3a903a34b230b5903b30b634b21760911b6064820152608490fd5b346102ea576020806003193601126102ea5760043580600052600d90818352604060002054612da3816153b0565b92612db1604051948561510f565b818452601f199283612dc2846153b0565b013687870137612dd1836153b0565b93612ddf604051958661510f565b838552612deb846153b0565b01368786013760005b838110612e2557612e18866115708988604051948594604086526040860190614fea565b918483039085015261523b565b612e7e9082600052838852612e3e8160406000206152b4565b50546001600160a01b0316612e5382896153d4565b52826000528388526001612e6b8260406000206152b4565b500154612e7882886153d4565b526153e8565b612df4565b346102ea5760203660031901126102ea576004356002548110156102ea57612eac602091614f6e565b905460405160039290921b1c6001600160a01b03168152f35b346102ea5760003660031901126102ea576020600554604051908152f35b346102ea5760203660031901126102ea576001600160a01b0380612f05614ef5565b166000526006602052604060002090612f1d82615130565b90612f2a60018401615130565b92612f3760028201615130565b90612f4460038201615130565b612f5060048301615130565b612f5c60058401615130565b91612f6960068501615130565b936007015494604051988998610120808b528a01612f8691615027565b89810360208b0152612f9791615027565b88810360408a0152612fa891615027565b8781036060890152612fb991615027565b8681036080880152612fca91615027565b85810360a0870152612fdb91615027565b84810360c0860152612fec91615027565b91811660e084015260a01c60ff1615156101008301520390f35b346102ea5760203660031901126102ea576004356008548110156102ea5760086000527ff3f7a9fe364faab93b216da50a3214154f22a0a2b415b23a84c8169e8b636ee301546040516001600160a01b039091168152602090f35b346102ea5760003660031901126102ea576020600254604051908152f35b346102ea5760203660031901126102ea576004356002548110156130a857612eac602091614f6e565b60405162461bcd60e51b815260206004820152601c60248201527f496e64656b732061646d696e20525320746964616b2076616c69642e000000006044820152606490fd5b346102ea5760403660031901126102ea57613106614ef5565b6001600160401b03906024358281116102ea57613127903690600401614fbd565b909260018060a01b0361313f816000541633146153f7565b8316938460005260019060209282845261315d604060002054615067565b6132b85760405161316d816150bd565b613178368785615460565b81528481018481528860005284865260406000209151908151938411610b005785916131a8856109188654615067565b8790601f861160011461324f576131ed959160009183613244575b5050600019600383901b1c191690831b1783555b51151591019060ff801983541691151516179055565b600254600160401b811015610b00577fc881e1c26fa1da107683b7f0c3f1689379721f2118918ff97cb8c0f0dfc9d354956104da82610a6e956132339401600255614f6e565b604051938385948552840191615566565b015190508c806131c3565b90601f1986169185600052896000209260005b8b8282106132a257505091859391886131ed999410613289575b505050811b0183556131d7565b015160001960f88460031b161c191690558c808061327c565b8385015186558b97909501949384019301613262565b60405162461bcd60e51b815260048101859052602b60248201527f41646d696e205253207375646168207465726461667461722064656e67616e2060448201526a30b630b6b0ba1034b7349760a91b6064820152608490fd5b346102ea5760203660031901126102ea576001600160a01b03613332614ef5565b166000526004602052602060ff604060002054166040519015158152f35b346102ea5760003660031901126102ea576040518060085480825282602080930160086000527ff3f7a9fe364faab93b216da50a3214154f22a0a2b415b23a84c8169e8b636ee39260005b858282106133c6575050506133b29250038361510f565b611570604051928284938452830190614fea565b85546001600160a01b031684526001958601958895509301920161339b565b346102ea5760203660031901126102ea5760043560008181526009602052604090206001015460ff916001600160a01b03916134249083161515615364565b600052600960205261157060406000208054836001830154169060058301549160068401549361345660028201615130565b61346e600461346760038501615130565b9301615130565b92604051998a998760081c16961694896151d6565b346102ea5760203660031901126102ea576004356005548110156102ea57612eac602091614f21565b346102ea5760203660031901126102ea576135576001600160a01b03806134d1614ef5565b168060005260046020526134ec60ff6040600020541661572a565b600052600360205260406000209061358860ff600384015416916005840154169161351684615130565b9361357361352660018301615130565b91613565613542600461353b60028501615130565b9301615587565b93604051998a9960c08b5260c08b0190615027565b9089820360208b0152615027565b908782036040890152615027565b91151560608601528482036080860152614fea565b9060a08301520390f35b346102ea5760203660031901126102ea576001600160a01b036135b3614ef5565b1660005260016020526135e9604060002060ff60016135d183615130565b92015416604051928392604084526040840190615027565b90151560208301520390f35b346102ea5760803660031901126102ea576024356001600160401b0381116102ea57613625903690600401614fbd565b906044356001600160401b0381116102ea57613645903690600401614fbd565b6064939193356001600160401b0381116102ea57613667903690600401614fbd565b949091600435600052600960205260018060a01b036001604060002001541633600052600460205260ff6040600020541680613d68575b15613d2d578060005260066020526136c360ff60076040600020015460a01c16615818565b33600052600360205260018060a01b036005604060002001541681600052600660205260018060a01b036007604060002001541603613cc2576000903360005260036020526004604060002001906000918054925b838110613c82575b5050505015613c1757600435600052600960205260406000209160018060a01b036001840154168015613bb95760058401549060ff821615613b5b57600435600052600c60205260406000209085549260068701549160405194613783866150d8565b8552602085015261379660028801615130565b60408501526137a760038801615130565b60608501526137b860048801615130565b6080850152600160a085015260081c6001600160a01b031660c084015260e08301528054600160401b811015610b00576137f791600182018155615348565b9190916139d85761380791615864565b6001600160401b038511610b005761382f856138266002860154615067565b600286016154bd565b846000601f8211600114613aed57600091613ae2575b508560011b906000198760031b1c19161760028401555b6001600160401b038211610b005781906138868261387d6003870154615067565b600387016154bd565b600090601f8311600114613a7157600092613a66575b50508160011b916000199060031b1c19161760038201555b6001600160401b038511610b00576138dc856138d36004840154615067565b600484016154bd565b600085601f81116001146139f9576004916000916139ee575b508660011b906000198860031b1c1916179101555b600435600052600d60205260406000209060405194613928866150bd565b33865260208601924284528054600160401b811015610b0057613950916001820181556152b4565b6139d85760016139c7947fa06c67f47503323e059cd610f8be787c36f230a67a8ad4dc026d86692b66476b98828060a01b039051166001600160601b0360a01b845416178355519101556139b9604051958695600435875260a0602088015260a0870191615566565b918483036040860152615566565b3360608301524260808301520390a1005b634e487b7160e01b600052600060045260246000fd5b9050830135876138f5565b506004820160005260206000209060005b601f1988168110613a4e575086601f19811610613a34575b50506004600186811b0191015561390a565b830135600019600388901b60f8161c191690558580613a22565b90916020600181928588013581550193019101613a0a565b01359050878061389c565b909250600384016000526020600020906000935b601f1984168510613aca576001945083601f19811610613ab0575b505050811b0160038201556138b4565b0135600019600384901b60f8161c19169055878080613aa0565b81810135835560209485019460019093019201613a85565b905086013588613845565b90506002840160005260206000209060005b601f1988168110613b43575086601f19811610613b29575b5050600185811b01600284015561385c565b870135600019600388901b60f8161c191690558780613b17565b9091602060018192858c013581550193019101613aff565b60405162461bcd60e51b815260206004820152603060248201527f52656b616d206d6564697320696e6920737564616820746964616b2076616c6960448201526f3217b234b737b730b5ba34b335b0b71760811b6064820152608490fd5b60405162461bcd60e51b815260206004820152603060248201527f52656b616d206d6564697320746964616b20646974656d756b616e206174617560448201526f1024a2103a34b230b5903b30b634b21760811b6064820152608490fd5b60405162461bcd60e51b815260206004820152603c60248201527f446f6b74657220696e6920746964616b20646974756761736b616e20756e747560448201527f6b206d656e616e67616e692070617369656e2074657273656275742e000000006064820152608490fd5b82613c8d8284614fa5565b905460039190911b1c6001600160a01b031614613cb257613cad906153e8565b613718565b5050505050600187808080613720565b60405162461bcd60e51b815260206004820152603860248201527f446f6b7465722064616e2070617369656e20746964616b20626572616461206460448201527f692072756d61682073616b69742079616e672073616d612e00000000000000006064820152608490fd5b60405162461bcd60e51b81526020600482015260136024820152722430b73cb0903237b5ba32b91030b5ba34b31760691b6044820152606490fd5b50600360205260ff6003604060002001541661369e565b346102ea5760003660031901126102ea576020600b54604051908152f35b346102ea5760003660031901126102ea576000546040516001600160a01b039091168152602090f35b346102ea5760203660031901126102ea57611570613dea613de5614ef5565b615b91565b604051918291602083526020830190615027565b346102ea5760203660031901126102ea57600435600081815260096020526040902060010154613e38906001600160a01b03161515615364565b60005260096020526040600020600c6020526040600020600d602052604060002081549182600101938460011161053a57613e72856153b0565b94613e80604051968761510f565b808652613e8f601f19916153b0565b0160005b8181106141745750508054906005810154613eed600460068401549360405195613ebc876150a1565b865260006020870152613ed160028201615130565b6040870152613ee260038201615130565b606087015201615130565b608084015260ff8116151560a084015260081c6001600160a01b031660c083015260e0820152604051613f1f816150bd565b600881526721b932b0ba34b7b760c11b6020820152610100820152613f43856153c7565b52613f4d846153c7565b5060009160015b84841061404a57856040518091602082016020835281518091526040830190602060408260051b8601019301916000905b828210613f9457505050500390f35b9193600191939550602061403a8192603f198a8203018652885190815181528382015184820152610100614001613fef613fdd6040860151610120806040880152860190615027565b60608601518582036060870152615027565b60808501518482036080860152615027565b9260a0810151151560a0840152878060a01b0360c08201511660c084015260e081015160e0840152015190610100818403910152615027565b9601920192018594939192613f85565b61416861416e9161405b86856152b4565b508660016040519261406c846150bd565b818060a01b03815416845201546020830190815261408a8289615348565b50549261411260048a61410760036140a28884615348565b50976140fc600260ff60056140cd6140ba868a615348565b50956140c6818b615348565b5099615348565b500154169860018060a01b0390511699519a600060206040519e8f906140f2826150a1565b8152015201615130565b60408b015201615130565b606088015201615130565b6080850152151560a084015260c083015260e0820152604051614134816150bd565b600681526555706461746560d01b6020820152610100820152614157828a6153d4565b5261416281896153d4565b506153e8565b936153e8565b92613f54565b602090604051614183816150a1565b6000815260008382015260608060408301528080830152806080830152600060a0830152600060c0830152600060e083015261010082015282828a01015201613e93565b346102ea5760403660031901126102ea576141e0614ef5565b6141e8614f0b565b33600052600191602083815261420760ff8560406000200154166155df565b60018060a01b0380831691826000526004815261422b60ff6040600020541661567a565b8260005260039283825261424a338460056040600020015416146156c6565b82861692836000526007835261426760ff60406000205416615818565b8360005260068352806007604060002001541633811490811561445f575b50156143dc57836000526006835260076040600020018054828116156143c7575b5050936000916000528083526004604060002001936000958554965b878110614392575b505050506143365750600160401b821015610b00576104da8285927fd9a2627959a7f46a8b96c10424cdae1f1b65151551cd206b119aca54c0a86a5a9761431395018155614fa5565b604080516001600160a01b03928316815292909116602083015281908101610415565b6084906040519062461bcd60e51b82526004820152602f60248201527f50617369656e20696e6920737564616820646974756761736b616e206b65206460448201526e37b5ba32b9103a32b939b2b13aba1760891b6064820152fd5b828261439e838a614fa5565b905490871b1c16146143b8576143b3906153e8565b6142c2565b505050505085878080806142ca565b6001600160a01b0319163317905588806142a6565b60405162461bcd60e51b815260048101849052604f60248201527f50617369656e20696e6920746964616b2074657264616674617220646920727560448201527f6d61682073616b697420416e646120617461752073756461682064692d61737360648201526e34b3b71035b2902929903630b4b71760891b608482015260a490fd5b90501589614285565b346102ea5760003660031901126102ea576040518060025480825282602080930160026000527f405787fa12a823e0f2b7631cc41b3ba8828b3321ca811111fa75cd3aa3bb5ace9260005b858282106144ca575050506133b29250038361510f565b85546001600160a01b03168452600195860195889550930192016144b3565b346102ea5760203660031901126102ea57614502614ef5565b600054906001600160a01b039061451c33838516146153f7565b16908115614534576001600160a01b03191617600055005b60405162461bcd60e51b8152602060048201526024808201527f416c616d61742073757065722061646d696e206261727520746964616b2076616044820152633634b21760e11b6064820152608490fd5b346102ea5760203660031901126102ea576001600160a01b036145a6614ef5565b166000526007602052602060ff604060002054166040519015158152f35b346102ea576020806003193601126102ea576004359033600052600181526145f660ff600160406000200154166155df565b60008281526009825260409020600101546001600160a01b039061461d9082161515615364565b8260005260098252806001604060002001541660005260068252339060076040600020015416036146625760009182526009905260409020600501805460ff19169055005b6084906040519062461bcd60e51b82526004820152602660248201527f41646d696e20525320746964616b2062657268616b2061746173207061736965604482015265371034b7349760d11b6064820152fd5b346102ea5760203660031901126102ea576004356005548110156146de57612eac602091614f21565b60405162461bcd60e51b815260206004820152601a60248201527f496e64656b7320646f6b74657220746964616b2076616c69642e0000000000006044820152606490fd5b346102ea5760e03660031901126102ea576004356001600160401b0381116102ea57614753903690600401614fbd565b60a0526080526024356001600160401b0381116102ea57614778903690600401614fbd565b906044356001600160401b0381116102ea57614798903690600401614fbd565b92906064356001600160401b0381116102ea576147b9903690600401614fbd565b906084356001600160401b0381116102ea576147d9903690600401614fbd565b909160a4356001600160401b0381116102ea576147fa903690600401614fbd565b94909560c4356001600160401b0381116102ea5761481c903690600401614fbd565b60c09b919b5233600052600660205261484260ff60076040600020015460a01c16615776565b336000526006602052604060002060a0516001600160401b038111610b005761486f90611a8c8354615067565b600060a051601f8111600114614e325750600060a0519182614e25575b508160011b916000199060031b1c19161781555b6001600160401b038a11610b00576148c88a6148bf6001840154615067565b600184016154bd565b896000601f8211600114614db757600091614dac575b508a60011b906000198c60031b1c19161760018201555b6001600160401b038211610b00576002810161491583611a8c8354615067565b826000601f8211600114614d4757600091614d3c575b508360011b906000198560031b1c19161790555b6001600160401b038411610b00576149678461495e6003840154615067565b600384016154bd565b836000601f8211600114614cce57600091614cc3575b508460011b906000198660031b1c19161760038201555b6001600160401b038611610b00576149b3866138d36004840154615067565b856000601f8211600114614c5557600091614c4a575b508660011b906000198860031b1c19161760048201555b6001600160401b038811610b0057614a08886149ff6005840154615067565b600584016154bd565b876000601f8211600114614bda57600091614bcf575b508860011b906000198a60031b1c19161760058201555b60c0516001600160401b038111610b0057614a6090614a576006840154615067565b600684016154bd565b60c0518c60006001601f841114614b59576006925060009060c0519283614b4e575b50508160011b916000199060031b1c1916179101555b604051998a9960e08b5260e08b0160a0519060805191614ab792615566565b908b820360208d0152614ac992615566565b9089820360408b0152614adb92615566565b908782036060890152614aed92615566565b908582036080870152614aff92615566565b9083820360a0850152614b1192615566565b9281840360c0830152339360c051614b2892615566565b037f5bf1a01557f5d2a881b530f82df1618e3c06d1a0b7ab3be7ff74e54ead39bd3491a2005b013590508f8f614a82565b9050600683016000528d60206000209160005b601f1985168110614bb45750918391600193600695601f19811610614b9a575b505050811b01910155614a98565b0135600019600384901b60f8161c191690558f8f81614b8c565b91600182946020938493013581550193019101908f91614b6c565b90508901358d614a1e565b90506005820160005260206000209060005b8b601f198c168210614c3257505089601f19811610614c18575b5050600188811b016005820155614a35565b8a013560001960038b901b60f8161c191690558c80614c06565b60018394602093948493013581550193019101614bec565b90508701358d6149c9565b90506004820160005260206000209060005b601f1989168110614cab575087601f19811610614c91575b5050600186811b0160048201556149e0565b880135600019600389901b60f8161c191690558c80614c7f565b9091602060018192858d013581550193019101614c67565b90508501358d61497d565b90506003820160005260206000209060005b601f1987168110614d24575085601f19811610614d0a575b5050600184811b016003820155614994565b860135600019600387901b60f8161c191690558c80614cf8565b9091602060018192858b013581550193019101614ce0565b90508401358e61492b565b60008381526020812092505b601f1986168110614d94575084601f19811610614d7a575b5050600183811b01905561493f565b850135600019600386901b60f8161c191690558d80614d6b565b9091602060018192858a013581550193019101614d53565b90508b01358d6148de565b8c91601f198116600185016000526020600020936000905b828210614e0a57505010614df0575b505060018a811b0160018201556148f5565b8c013560001960038d901b60f8161c191690558c80614dde565b84013585556001909401936020938401938f9350018f614dcf565b905060805101358e61488c565b826000526020600020600092608051905b601f1984168510614e85576001945083601f19811610614e6b575b505050811b0181556148a0565b0135600019600384901b60f8161c191690558e8080614e5e565b81810135835560209485019460019093019201614e43565b346102ea5760403660031901126102ea57614eb6614ef5565b6001600160a01b03166000908152600a60205260409020805460243591908210156102ea57602091614ee791614fa5565b90546040519160031b1c8152f35b600435906001600160a01b03821682036102ea57565b602435906001600160a01b03821682036102ea57565b600554811015614f585760056000527f036b6384b5eca791c62761152d0c79bb0604c104a5fb6f4eb0703f3154bb3db00190600090565b634e487b7160e01b600052603260045260246000fd5b600254811015614f585760026000527f405787fa12a823e0f2b7631cc41b3ba8828b3321ca811111fa75cd3aa3bb5ace0190600090565b8054821015614f585760005260206000200190600090565b9181601f840112156102ea578235916001600160401b0383116102ea57602083818601950101116102ea57565b90815180825260208080930193019160005b82811061500a575050505090565b83516001600160a01b031685529381019392810192600101614ffc565b919082519283825260005b848110615053575050826000602080949584010152601f8019910116010190565b602081830181015184830182015201615032565b90600182811c92168015615097575b602083101461508157565b634e487b7160e01b600052602260045260246000fd5b91607f1691615076565b61012081019081106001600160401b03821117610b0057604052565b604081019081106001600160401b03821117610b0057604052565b61010081019081106001600160401b03821117610b0057604052565b602081019081106001600160401b03821117610b0057604052565b90601f801991011681019081106001600160401b03821117610b0057604052565b906040519182600082549261514484615067565b9081845260019485811690816000146151b35750600114615170575b505061516e9250038361510f565b565b9093915060005260209081600020936000915b81831061519b57505061516e93508201013880615160565b85548884018501529485019487945091830191615183565b91505061516e94506020925060ff191682840152151560051b8201013880615160565b9490615229929461520d60e0989b9a999561521b93895260018060a01b0380981660208a01526101008060408b0152890190615027565b908782036060890152615027565b908582036080870152615027565b96151560a08401521660c08201520152565b90815180825260208080930193019160005b82811061525b575050505090565b83518552938101939281019260010161524d565b60409060031901126102ea576004356001600160a01b03811681036102ea579060243580151581036102ea5790565b60409060031901126102ea576004359060243590565b8054821015614f585760005260206000209060011b0190600090565b60806003198201126102ea576004356001600160a01b03811681036102ea57916001600160401b036024358181116102ea578361530f91600401614fbd565b939093926044358381116102ea578261532a91600401614fbd565b939093926064359182116102ea5761534491600401614fbd565b9091565b8054821015614f58576000526007602060002091020190600090565b1561536b57565b60405162461bcd60e51b815260206004820152601c60248201527f52656b616d206d6564697320746964616b20646974656d756b616e2e000000006044820152606490fd5b6001600160401b038111610b005760051b60200190565b805115614f585760200190565b8051821015614f585760209160051b010190565b600019811461053a5760010190565b156153fe57565b60405162461bcd60e51b815260206004820152603460248201527f48616e79612073757065722061646d696e2079616e67206461706174206d656e6044820152733530b630b735b0b710333ab733b9b49034b7349760611b6064820152608490fd5b9291926001600160401b038211610b005760405191615489601f8201601f19166020018461510f565b8294818452818301116102ea578281602093846000960137010152565b8181106154b1575050565b600081556001016154a6565b9190601f81116154cc57505050565b61516e926000526020600020906020601f840160051c830193106154f8575b601f0160051c01906154a6565b90915081906154eb565b600854600160401b811015610b00576001810180600855811015614f585760086000527ff3f7a9fe364faab93b216da50a3214154f22a0a2b415b23a84c8169e8b636ee30180546001600160a01b0319166001600160a01b03909216919091179055565b908060209392818452848401376000828201840152601f01601f1916010190565b9060405191828154918282526020928383019160005283600020936000905b8282106155bc5750505061516e9250038361510f565b85546001600160a01b0316845260019586019588955093810193909101906155a6565b156155e657565b60405162461bcd60e51b815260206004820152603c60248201527f48616e79612061646d696e2052532079616e6720616b7469662079616e67206460448201527f61706174206d656e6a616c616e6b616e2066756e67736920696e692e000000006064820152608490fd5b9160209161566a91959495604085526040850191615566565b6001600160a01b03909416910152565b1561568157565b60405162461bcd60e51b815260206004820152601760248201527f446f6b74657220746964616b207465726461667461722e0000000000000000006044820152606490fd5b156156cd57565b60405162461bcd60e51b815260206004820152602f60248201527f446f6b74657220696e6920746964616b2074657264616674617220646920727560448201526e36b0b41039b0b5b4ba1020b732309760891b6064820152608490fd5b1561573157565b60405162461bcd60e51b815260206004820152601760248201527f446f6b74657220746964616b20646974656d756b616e2e0000000000000000006044820152606490fd5b1561577d57565b60405162461bcd60e51b815260206004820152602160248201527f446174612070617369656e20416e646120746964616b20646974656d756b616e6044820152601760f91b6064820152608490fd5b156157d357565b60405162461bcd60e51b815260206004820152601760248201527f50617369656e20746964616b20646974656d756b616e2e0000000000000000006044820152606490fd5b1561581f57565b60405162461bcd60e51b815260206004820152601760248201527f50617369656e20746964616b207465726461667461722e0000000000000000006044820152606490fd5b90805182556001908183019160209260018060a01b0384840151166001600160601b0360a01b8254161790556002840160408301519081516001600160401b0392838211610b005781906158bc826109188654615067565b8790601f8311600114615ac557600092615aba575b5050600019600383901b1c191690841b1790555b600385016060840151805190838211610b00578190615908826109188654615067565b8790601f8311600114615a5757600092615a4c575b5050600019600383901b1c191690841b1790555b60048501916080840151948551928311610b0057615953836109188654615067565b80601f84116001146159dd57509180809260e09695946006986000946159d2575b50501b916000199060031b1c19161790555b600584016159a660a08301511515829060ff801983541691151516179055565b60c08201518154610100600160a81b03191660089190911b610100600160a81b03161790550151910155565b015192503880615974565b91939495601f1984168660005283600020936000905b828210615a35575050916006979593918560e098969410615a1c575b505050811b019055615986565b015160001960f88460031b161c19169055388080615a0f565b8088869782949787015181550196019401906159f3565b01519050388061591d565b90869350601f1983169185600052896000209260005b8b828210615aa45750508411615a8b575b505050811b019055615931565b015160001960f88460031b161c19169055388080615a7e565b8385015186558a97909501949384019301615a6d565b0151905038806158d1565b90869350601f1983169185600052896000209260005b8b828210615b125750508411615af9575b505050811b0190556158e5565b015160001960f88460031b161c19169055388080615aec565b8385015186558a97909501949384019301615adb565b9060018060a01b038092166000526003918260205260046040600020016000938154945b858110615b5e57505050505050600090565b83615b698285614fa5565b905490841b1c1684861614615b8657615b81906153e8565b615b4c565b505050505050600190565b6000805490916001600160a01b0390811691168114615c5a578082526020916001835260409160ff6001848420015416615c41578082526004845260ff8383205416615c29578152600783528190205460ff16615c0957662ab735b737bbb760c91b905191615bff836150bd565b6007835282015290565b652830b9b4b2b760d11b905191615c1f836150bd565b6006835282015290565b5050652237b5ba32b960d11b905191615c1f836150bd565b50506641646d696e525360c81b905191615bff836150bd565b5050604051615c68816150bd565b600a81526929bab832b920b236b4b760b11b60208201529056febc415dfc2764939233ab67a4f55915cc2bb9d94ecafbfb254036de3cd0dbb3a8a2646970667358221220a98ca64c95e870d95cc9e2f1b6bba982c33981fc7bd62abd7fcf59b4ace30a0564736f6c63430008130033",
  "immutableReferences": {},
  "source": "// SPDX-License-Identifier: MIT\r\npragma solidity ^0.8.0;\r\n\r\ncontract RekamMedisRS {\r\n    address public superAdmin;\r\n\r\n    struct AdminRS {\r\n        string namaRumahSakit;\r\n        bool aktif;\r\n    }\r\n    mapping(address => AdminRS) public dataAdmin;\r\n    address[] public daftarAdmin;\r\n\r\n    struct Dokter {\r\n        string nama;\r\n        string spesialisasi;\r\n        string nomorLisensi;\r\n        bool aktif;\r\n        address[] assignedPasien;\r\n        address adminRS; // Rumah sakit tempat dokter bertugas (alamat AdminRS)\r\n    }\r\n    mapping(address => Dokter) public dataDokter;\r\n    mapping(address => bool) public isDokter;\r\n    address[] public daftarDokter;\r\n\r\n    struct Pasien {\r\n        string nama;\r\n        string golonganDarah;\r\n        string tanggalLahir;\r\n        string gender;\r\n        string alamat;\r\n        string noTelepon;\r\n        string email;\r\n        address rumahSakitPenanggungJawab; // Alamat AdminRS penanggung jawab\r\n        bool exists;\r\n    }\r\n    mapping(address => Pasien) public dataPasien;\r\n    mapping(address => bool) public isPasien;\r\n    address[] public daftarPasien;\r\n\r\n    // Struct untuk menyimpan info update/pembuatan\r\n    struct UpdateInfo {\r\n        address aktor; // Alamat aktor yang melakukan update/pembuatan (bisa dokter atau pasien)\r\n        uint256 timestamp; // Waktu update/pembuatan (block.timestamp)\r\n    }\r\n\r\n    // struct RekamMedisData dengan tambahan pembuat dan waktu pembuatan awal\r\n    struct RekamMedisData {\r\n        uint id;\r\n        address pasien;\r\n        string diagnosa;\r\n        string foto;\r\n        string catatan;\r\n        bool valid;\r\n        address pembuatAwal; // BARU: Alamat pembuat rekam medis pertama kali\r\n        uint256 timestampAwal; // BARU: Timestamp pembuatan rekam medis pertama kali\r\n    }\r\n\r\n    // REVISI Kecil di Smart Contract (Opsional tapi bisa membuat Frontend lebih mudah)\r\n    // Tidak mengubah RekamMedisData struct atau fungsi tambah/update utama\r\n    // Tujuan: Membuat fungsi view yang mengembalikan histori lengkap per Rekam Medis ID\r\n\r\n    // Tambahkan struct untuk riwayat RM yang lebih komprehensif\r\n    struct FullRMHistoryEntry {\r\n        uint id_rm;\r\n        uint versiKe;\r\n        string diagnosa;\r\n        string foto;\r\n        string catatan;\r\n        bool valid;\r\n        address aktor; // Pembuat/pengupdate\r\n        uint256 timestamp; // Waktu perubahan\r\n        string jenisPerubahan; // \"Creation\" atau \"Update\"\r\n    }\r\n\r\n    function getFullRekamMedisHistory(\r\n        uint _id\r\n    ) external view returns (FullRMHistoryEntry[] memory) {\r\n        require(\r\n            rekamMedis[_id].pasien != address(0),\r\n            \"Rekam medis tidak ditemukan.\"\r\n        );\r\n\r\n        RekamMedisData storage currentRM = rekamMedis[_id];\r\n        RekamMedisData[] storage historicalVersions = rekamMedisVersions[_id];\r\n        UpdateInfo[] storage updateEvents = rekamMedisUpdateHistory[_id]; // ini hanya update events\r\n\r\n        // Hitung total entri: 1 (creation) + jumlah historical versions\r\n        uint totalEntries = 1 + historicalVersions.length;\r\n        FullRMHistoryEntry[] memory history = new FullRMHistoryEntry[](\r\n            totalEntries\r\n        );\r\n\r\n        uint counter = 0;\r\n\r\n        // Tambahkan entri pembuatan awal\r\n        history[counter] = FullRMHistoryEntry({\r\n            id_rm: currentRM.id,\r\n            versiKe: 0, // Akan diisi di frontend setelah sort\r\n            diagnosa: currentRM.diagnosa,\r\n            foto: currentRM.foto,\r\n            catatan: currentRM.catatan,\r\n            valid: currentRM.valid,\r\n            aktor: currentRM.pembuatAwal,\r\n            timestamp: currentRM.timestampAwal,\r\n            jenisPerubahan: \"Creation\"\r\n        });\r\n        counter++;\r\n\r\n        // Tambahkan entri untuk setiap versi historis\r\n        // Setiap `historicalVersions[i]` adalah snapshot *sebelum* `updateEvents[i]` terjadi.\r\n        // Jadi, kita ingin menampilkan `historicalVersions[i]` sebagai versi yang *diubah* oleh `updateEvents[i]`.\r\n        for (uint i = 0; i < historicalVersions.length; i++) {\r\n            // Asumsi updateEvents[i] cocok dengan historicalVersions[i] yang di-snapshot sebelumnya\r\n            UpdateInfo memory currentUpdateInfo = updateEvents[i]; // Info aktor/timestamp dari event update\r\n\r\n            history[counter] = FullRMHistoryEntry({\r\n                id_rm: historicalVersions[i].id,\r\n                versiKe: 0, // Akan diisi di frontend\r\n                diagnosa: historicalVersions[i].diagnosa,\r\n                foto: historicalVersions[i].foto,\r\n                catatan: historicalVersions[i].catatan,\r\n                valid: historicalVersions[i].valid,\r\n                aktor: currentUpdateInfo.aktor,\r\n                timestamp: currentUpdateInfo.timestamp,\r\n                jenisPerubahan: \"Update\"\r\n            });\r\n            counter++;\r\n        }\r\n\r\n        // Perhatikan: Data 'currentRM' (versi paling baru) tidak secara eksplisit di return di sini sebagai versi terakhir\r\n        // karena historicalVersions hanya menyimpan versi LAMA.\r\n        // Jika Anda ingin versi TERBARU (currentRM) juga muncul di sini dengan info update terakhirnya,\r\n        // maka perlu penyesuaian di `updateRekamMedis` untuk menyimpan CURRENT state ke history,\r\n        // atau di frontend menangani currentRM secara terpisah seperti sebelumnya.\r\n        // Untuk kesederhanaan, kita akan teruskan data terbaru (currentRM) dari getRekamMedis di frontend.\r\n\r\n        return history;\r\n    }\r\n    mapping(uint => RekamMedisData) public rekamMedis;\r\n    mapping(address => uint[]) public rekamMedisByPasien;\r\n    uint public rekamMedisCount;\r\n\r\n    // History versi rekam medis (snapshot data RM sebelum update)\r\n    mapping(uint => RekamMedisData[]) public rekamMedisVersions; // Akan menyimpan snapshot lengkap, termasuk pembuatAwal/timestampAwal\r\n\r\n    // History update rekam medis (siapa dan kapan dilakukan update, TIDAK termasuk pembuatan awal)\r\n    mapping(uint => UpdateInfo[]) public rekamMedisUpdateHistory;\r\n\r\n    // Events\r\n    event AdminRSTerdaftar(address indexed admin, string namaRumahSakit);\r\n    event AdminRSStatusDiubah(address indexed admin, bool aktif);\r\n    event DokterTerdaftar(address indexed dokter, string nama, address adminRS);\r\n    event DokterStatusDiubah(address indexed dokter, bool aktif);\r\n    event DokterInfoDiperbarui(\r\n        address indexed dokter,\r\n        string nama,\r\n        string spesialisasi,\r\n        string nomorLisensi,\r\n        address indexed adminRS\r\n    );\r\n    event PasienTerdaftar(address indexed pasien, string nama, address adminRS);\r\n    event PasienPindahRS(\r\n        address indexed pasien,\r\n        address oldAdminRS,\r\n        address newAdminRS\r\n    );\r\n    event PasienDiassignKeDokter(address dokter, address pasien);\r\n    event PasienDiunassignDariDokter(address dokter, address pasien); // Pastikan ini juga ada\r\n    event RekamMedisDitambahkan(\r\n        uint id,\r\n        address pasien,\r\n        string diagnosa,\r\n        address pembuat, // Tambahkan pembuat dan waktu pembuatan ke event ini\r\n        uint timestamp,\r\n        bool valid\r\n    );\r\n    event RekamMedisDiperbarui(\r\n        uint id,\r\n        string diagnosa,\r\n        string catatan,\r\n        address updater, // Aktor yang memperbarui\r\n        uint timestamp\r\n    );\r\n    event PasienDataDiperbarui(\r\n        address indexed pasien,\r\n        string nama,\r\n        string golonganDarah,\r\n        string tanggalLahir,\r\n        string gender,\r\n        string alamat,\r\n        string noTelepon,\r\n        string email\r\n    );\r\n\r\n    constructor() {\r\n        superAdmin = 0xB0dC0Bf642d339517438017Fc185Bb0f758A01D2; // Ganti dengan alamat super admin Anda\r\n    }\r\n\r\n    // Modifier\r\n    modifier hanyaSuperAdmin() {\r\n        require(\r\n            msg.sender == superAdmin,\r\n            \"Hanya super admin yang dapat menjalankan fungsi ini.\"\r\n        );\r\n        _;\r\n    }\r\n\r\n    modifier hanyaAdminRS() {\r\n        require(\r\n            dataAdmin[msg.sender].aktif,\r\n            \"Hanya admin RS yang aktif yang dapat menjalankan fungsi ini.\"\r\n        );\r\n        _;\r\n    }\r\n\r\n    modifier hanyaDokterAktif() {\r\n        require(\r\n            isDokter[msg.sender] && dataDokter[msg.sender].aktif,\r\n            \"Hanya dokter yang aktif yang dapat menjalankan fungsi ini.\"\r\n        );\r\n        _;\r\n    }\r\n\r\n    modifier hanyaDokterAktifUntukPasien(address _pasien) {\r\n        require(\r\n            isDokter[msg.sender] && dataDokter[msg.sender].aktif,\r\n            \"Hanya dokter aktif.\"\r\n        );\r\n        require(dataPasien[_pasien].exists, \"Pasien tidak terdaftar.\");\r\n        require(\r\n            dataDokter[msg.sender].adminRS ==\r\n                dataPasien[_pasien].rumahSakitPenanggungJawab,\r\n            \"Dokter dan pasien tidak berada di rumah sakit yang sama.\"\r\n        );\r\n        bool assigned = false;\r\n        address[] storage listPasienDitugaskan = dataDokter[msg.sender]\r\n            .assignedPasien;\r\n        for (uint i = 0; i < listPasienDitugaskan.length; i++) {\r\n            if (listPasienDitugaskan[i] == _pasien) {\r\n                assigned = true;\r\n                break;\r\n            }\r\n        }\r\n        require(\r\n            assigned,\r\n            \"Dokter ini tidak ditugaskan untuk menangani pasien tersebut.\"\r\n        );\r\n        _;\r\n    }\r\n\r\n    modifier hanyaPasien(address _pasien) {\r\n        require(\r\n            msg.sender == _pasien,\r\n            \"Hanya pasien yang bersangkutan yang dapat menjalankan fungsi ini.\"\r\n        );\r\n        _;\r\n    }\r\n\r\n    // --- Admin RS Functions ---\r\n    function registerAdminRS(\r\n        address _admin,\r\n        string calldata _namaRS\r\n    ) external hanyaSuperAdmin {\r\n        require(\r\n            bytes(dataAdmin[_admin].namaRumahSakit).length == 0,\r\n            \"Admin RS sudah terdaftar dengan alamat ini.\"\r\n        );\r\n        dataAdmin[_admin] = AdminRS({namaRumahSakit: _namaRS, aktif: true});\r\n        daftarAdmin.push(_admin);\r\n        emit AdminRSTerdaftar(_admin, _namaRS);\r\n    }\r\n\r\n    function getAllAdminRSAddresses() external view returns (address[] memory) {\r\n        return daftarAdmin;\r\n    }\r\n\r\n    function setStatusAdminRS(\r\n        address _admin,\r\n        bool _aktif\r\n    ) external hanyaSuperAdmin {\r\n        require(\r\n            bytes(dataAdmin[_admin].namaRumahSakit).length != 0,\r\n            \"Admin RS tidak ditemukan.\"\r\n        );\r\n        dataAdmin[_admin].aktif = _aktif;\r\n        emit AdminRSStatusDiubah(_admin, _aktif);\r\n    }\r\n\r\n    function totalAdmin() external view returns (uint) {\r\n        return daftarAdmin.length;\r\n    }\r\n\r\n    function getAdminByIndex(uint idx) external view returns (address) {\r\n        require(idx < daftarAdmin.length, \"Indeks admin RS tidak valid.\");\r\n        return daftarAdmin[idx];\r\n    }\r\n\r\n    // Fungsi untuk mendapatkan nama RS dari alamat AdminRS\r\n    function getNamaRumahSakitByAdmin(\r\n        address _adminRS\r\n    ) external view returns (string memory) {\r\n        require(\r\n            dataAdmin[_adminRS].aktif,\r\n            \"Admin RS tidak ditemukan atau tidak aktif.\"\r\n        );\r\n        return dataAdmin[_adminRS].namaRumahSakit;\r\n    }\r\n\r\n    // --- Dokter Functions ---\r\n    function registerDokter(\r\n        address _dokter,\r\n        string calldata _nama,\r\n        string calldata _spesialisasi,\r\n        string calldata _nomorLisensi\r\n    ) external hanyaAdminRS {\r\n        require(\r\n            !isDokter[_dokter],\r\n            \"Alamat ini sudah terdaftar sebagai dokter.\"\r\n        );\r\n        require(\r\n            !isPasien[_dokter],\r\n            \"Alamat ini terdaftar sebagai pasien, tidak bisa menjadi dokter.\"\r\n        );\r\n        isDokter[_dokter] = true;\r\n        dataDokter[_dokter] = Dokter({\r\n            nama: _nama,\r\n            spesialisasi: _spesialisasi,\r\n            nomorLisensi: _nomorLisensi,\r\n            aktif: true,\r\n            assignedPasien: new address[](0),\r\n            adminRS: msg.sender // Admin RS yang mendaftarkan\r\n        });\r\n        daftarDokter.push(_dokter);\r\n        emit DokterTerdaftar(_dokter, _nama, msg.sender);\r\n    }\r\n\r\n    function updateDokterInfo(\r\n        address _dokter,\r\n        string calldata _namaBaru,\r\n        string calldata _spesialisasiBaru,\r\n        string calldata _nomorLisensiBaru\r\n    ) external hanyaAdminRS {\r\n        require(isDokter[_dokter], \"Dokter tidak terdaftar di sistem.\");\r\n        require(\r\n            dataDokter[_dokter].adminRS == msg.sender,\r\n            \"Anda bukan admin RS yang berhak untuk dokter ini.\"\r\n        );\r\n\r\n        Dokter storage dokterToUpdate = dataDokter[_dokter];\r\n        dokterToUpdate.nama = _namaBaru;\r\n        dokterToUpdate.spesialisasi = _spesialisasiBaru;\r\n        dokterToUpdate.nomorLisensi = _nomorLisensiBaru;\r\n\r\n        emit DokterInfoDiperbarui(\r\n            _dokter,\r\n            _namaBaru,\r\n            _spesialisasiBaru,\r\n            _nomorLisensiBaru,\r\n            msg.sender\r\n        );\r\n    }\r\n\r\n    function setStatusDokter(\r\n        address _dokter,\r\n        bool _aktif\r\n    ) external hanyaAdminRS {\r\n        require(isDokter[_dokter], \"Dokter tidak terdaftar.\");\r\n        require(\r\n            dataDokter[_dokter].adminRS == msg.sender,\r\n            \"Dokter ini tidak terdaftar di rumah sakit Anda.\"\r\n        );\r\n        dataDokter[_dokter].aktif = _aktif;\r\n        emit DokterStatusDiubah(_dokter, _aktif);\r\n    }\r\n\r\n    function totalDokter() external view returns (uint) {\r\n        return daftarDokter.length;\r\n    }\r\n\r\n    function getDokterByIndex(uint idx) external view returns (address) {\r\n        require(idx < daftarDokter.length, \"Indeks dokter tidak valid.\");\r\n        return daftarDokter[idx];\r\n    }\r\n\r\n    function getDokter(\r\n        address _dokter\r\n    )\r\n        external\r\n        view\r\n        returns (\r\n            string memory nama,\r\n            string memory spesialisasi,\r\n            string memory nomorLisensi,\r\n            bool aktif,\r\n            address[] memory pasienList,\r\n            address adminRS // Alamat Admin RS dokter\r\n        )\r\n    {\r\n        require(isDokter[_dokter], \"Dokter tidak ditemukan.\");\r\n        Dokter storage d = dataDokter[_dokter];\r\n        return (\r\n            d.nama,\r\n            d.spesialisasi,\r\n            d.nomorLisensi,\r\n            d.aktif,\r\n            d.assignedPasien,\r\n            d.adminRS\r\n        );\r\n    }\r\n\r\n    function getAssignedPatients(\r\n        address _dokter\r\n    ) external view returns (address[] memory) {\r\n        require(isDokter[_dokter], \"Dokter tidak ditemukan.\");\r\n        return dataDokter[_dokter].assignedPasien;\r\n    }\r\n\r\n    // --- Pasien Functions ---\r\n    function registerPasien(\r\n        address _pasien,\r\n        string calldata _nama,\r\n        address _adminRS // Alamat Admin RS yang mendaftarkan\r\n    ) external hanyaAdminRS {\r\n        require(\r\n            !isPasien[_pasien],\r\n            \"Pasien sudah terdaftar dengan alamat ini.\"\r\n        );\r\n        require(\r\n            !isDokter[_pasien],\r\n            \"Alamat ini terdaftar sebagai dokter, tidak bisa menjadi pasien.\"\r\n        );\r\n        require(\r\n            dataAdmin[_adminRS].aktif,\r\n            \"Admin RS yang dirujuk tidak aktif.\"\r\n        );\r\n        require(\r\n            msg.sender == _adminRS,\r\n            \"Hanya admin RS penanggung jawab yang bisa mendaftarkan pasien ini.\"\r\n        );\r\n\r\n        isPasien[_pasien] = true;\r\n        dataPasien[_pasien] = Pasien({\r\n            nama: _nama,\r\n            golonganDarah: \"\",\r\n            tanggalLahir: \"\",\r\n            gender: \"\",\r\n            alamat: \"\",\r\n            noTelepon: \"\",\r\n            email: \"\",\r\n            rumahSakitPenanggungJawab: _adminRS, // Set RS penanggung jawab saat pendaftaran\r\n            exists: true\r\n        });\r\n        daftarPasien.push(_pasien);\r\n        emit PasienTerdaftar(_pasien, _nama, _adminRS);\r\n    }\r\n\r\n    function selfRegisterPasien(\r\n        string calldata _nama,\r\n        string calldata _golonganDarah,\r\n        string calldata _tanggalLahir,\r\n        string calldata _gender,\r\n        string calldata _alamat,\r\n        string calldata _noTelepon,\r\n        string calldata _email,\r\n        address _adminRS // Admin RS yang dipilih pasien sebagai penanggung jawab awal\r\n    ) external {\r\n        require(!isPasien[msg.sender], \"Anda sudah terdaftar sebagai pasien.\");\r\n        require(!isDokter[msg.sender], \"Alamat ini terdaftar sebagai dokter.\");\r\n        require(\r\n            dataAdmin[_adminRS].aktif,\r\n            \"Rumah Sakit yang dipilih tidak aktif atau tidak valid.\"\r\n        );\r\n\r\n        isPasien[msg.sender] = true;\r\n        dataPasien[msg.sender] = Pasien({\r\n            nama: _nama,\r\n            golonganDarah: _golonganDarah,\r\n            tanggalLahir: _tanggalLahir,\r\n            gender: _gender,\r\n            alamat: _alamat,\r\n            noTelepon: _noTelepon,\r\n            email: _email,\r\n            rumahSakitPenanggungJawab: _adminRS,\r\n            exists: true\r\n        });\r\n        daftarPasien.push(msg.sender);\r\n        emit PasienTerdaftar(msg.sender, _nama, _adminRS);\r\n    }\r\n\r\n    function updatePasienData(\r\n        string calldata _nama,\r\n        string calldata _golonganDarah,\r\n        string calldata _tanggalLahir,\r\n        string calldata _gender,\r\n        string calldata _alamat,\r\n        string calldata _noTelepon,\r\n        string calldata _email\r\n    ) external hanyaPasien(msg.sender) {\r\n        require(\r\n            dataPasien[msg.sender].exists,\r\n            \"Data pasien Anda tidak ditemukan.\"\r\n        );\r\n\r\n        Pasien storage pasienToUpdate = dataPasien[msg.sender];\r\n        pasienToUpdate.nama = _nama;\r\n        pasienToUpdate.golonganDarah = _golonganDarah;\r\n        pasienToUpdate.tanggalLahir = _tanggalLahir;\r\n        pasienToUpdate.gender = _gender;\r\n        pasienToUpdate.alamat = _alamat;\r\n        pasienToUpdate.noTelepon = _noTelepon;\r\n        pasienToUpdate.email = _email;\r\n\r\n        emit PasienDataDiperbarui(\r\n            msg.sender,\r\n            _nama,\r\n            _golonganDarah,\r\n            _tanggalLahir,\r\n            _gender,\r\n            _alamat,\r\n            _noTelepon,\r\n            _email\r\n        );\r\n    }\r\n\r\n    function updatePasienRumahSakit(\r\n        address _newAdminRS\r\n    ) external hanyaPasien(msg.sender) {\r\n        require(\r\n            dataPasien[msg.sender].exists,\r\n            \"Data pasien Anda tidak ditemukan.\"\r\n        );\r\n        require(\r\n            dataAdmin[_newAdminRS].aktif,\r\n            \"Rumah Sakit baru tidak aktif atau tidak valid.\"\r\n        );\r\n        require(\r\n            dataPasien[msg.sender].rumahSakitPenanggungJawab != _newAdminRS,\r\n            \"Anda sudah terdaftar di rumah sakit ini.\"\r\n        );\r\n\r\n        address oldAdminRS = dataPasien[msg.sender].rumahSakitPenanggungJawab;\r\n        dataPasien[msg.sender].rumahSakitPenanggungJawab = _newAdminRS;\r\n\r\n        emit PasienPindahRS(msg.sender, oldAdminRS, _newAdminRS);\r\n    }\r\n\r\n    function getDaftarPasien() external view returns (address[] memory) {\r\n        return daftarPasien;\r\n    }\r\n\r\n    function getPasienData(\r\n        address _pasien\r\n    )\r\n        external\r\n        view\r\n        returns (\r\n            string memory nama,\r\n            string memory golonganDarah,\r\n            string memory tanggalLahir,\r\n            string memory gender,\r\n            string memory alamat,\r\n            string memory noTelepon,\r\n            string memory email,\r\n            address rumahSakitPenanggungJawab\r\n        )\r\n    {\r\n        require(isPasien[_pasien], \"Pasien tidak ditemukan.\");\r\n        Pasien storage p = dataPasien[_pasien];\r\n        return (\r\n            p.nama,\r\n            p.golonganDarah,\r\n            p.tanggalLahir,\r\n            p.gender,\r\n            p.alamat,\r\n            p.noTelepon,\r\n            p.email,\r\n            p.rumahSakitPenanggungJawab\r\n        );\r\n    }\r\n\r\n    function assignPasienToDokter(\r\n        address _dokter,\r\n        address _pasien\r\n    ) external hanyaAdminRS {\r\n        require(isDokter[_dokter], \"Dokter tidak terdaftar.\");\r\n        require(\r\n            dataDokter[_dokter].adminRS == msg.sender,\r\n            \"Dokter ini tidak terdaftar di rumah sakit Anda.\"\r\n        );\r\n        require(isPasien[_pasien], \"Pasien tidak terdaftar.\");\r\n\r\n        // AdminRS hanya bisa mengassign pasien yang rumahSakitPenanggungJawab-nya adalah dirinya sendiri\r\n        // atau pasien yang belum memiliki RS penanggung jawab (address(0))\r\n        require(\r\n            dataPasien[_pasien].rumahSakitPenanggungJawab == msg.sender ||\r\n                dataPasien[_pasien].rumahSakitPenanggungJawab == address(0),\r\n            \"Pasien ini tidak terdaftar di rumah sakit Anda atau sudah di-assign ke RS lain.\"\r\n        );\r\n\r\n        // Jika pasien self-register dan belum punya RS penanggung jawab, set RS penanggung jawabnya ke RS Admin ini\r\n        if (dataPasien[_pasien].rumahSakitPenanggungJawab == address(0)) {\r\n            dataPasien[_pasien].rumahSakitPenanggungJawab = msg.sender;\r\n            // No explicit event for this, as PasienTerdaftar covers initial RS assignment.\r\n            // If you need to log this specific change when admin assigns, you can emit PasienPindahRS here\r\n            // emit PasienPindahRS(_pasien, address(0), msg.sender);\r\n        }\r\n\r\n        bool alreadyAssigned = false;\r\n        address[] storage listPasienDitugaskan = dataDokter[_dokter]\r\n            .assignedPasien;\r\n        for (uint i = 0; i < listPasienDitugaskan.length; i++) {\r\n            if (listPasienDitugaskan[i] == _pasien) {\r\n                alreadyAssigned = true;\r\n                break;\r\n            }\r\n        }\r\n        require(\r\n            !alreadyAssigned,\r\n            \"Pasien ini sudah ditugaskan ke dokter tersebut.\"\r\n        );\r\n\r\n        listPasienDitugaskan.push(_pasien);\r\n        emit PasienDiassignKeDokter(_dokter, _pasien);\r\n    }\r\n\r\n    function unassignPasienFromDokter(\r\n        address _dokter,\r\n        address _pasien\r\n    ) external hanyaAdminRS {\r\n        require(isDokter[_dokter], \"Dokter tidak terdaftar.\");\r\n        require(\r\n            dataDokter[_dokter].adminRS == msg.sender,\r\n            \"Dokter ini tidak terdaftar di rumah sakit Anda.\"\r\n        );\r\n        require(isPasien[_pasien], \"Pasien tidak terdaftar.\");\r\n        require(\r\n            dataPasien[_pasien].rumahSakitPenanggungJawab == msg.sender,\r\n            \"Pasien ini tidak terdaftar di rumah sakit Anda.\"\r\n        );\r\n\r\n        bool found = false;\r\n        address[] storage listPasienDitugaskan = dataDokter[_dokter]\r\n            .assignedPasien;\r\n        for (uint i = 0; i < listPasienDitugaskan.length; i++) {\r\n            if (listPasienDitugaskan[i] == _pasien) {\r\n                listPasienDitugaskan[i] = listPasienDitugaskan[\r\n                    listPasienDitugaskan.length - 1\r\n                ];\r\n                listPasienDitugaskan.pop();\r\n                found = true;\r\n                break;\r\n            }\r\n        }\r\n        require(found, \"Pasien tidak ditugaskan ke dokter ini.\");\r\n        emit PasienDiunassignDariDokter(_dokter, _pasien);\r\n    }\r\n\r\n    function isAssigned(\r\n        address _dokter,\r\n        address _pasien\r\n    ) internal view returns (bool) {\r\n        address[] storage list = dataDokter[_dokter].assignedPasien;\r\n        for (uint i = 0; i < list.length; i++) {\r\n            if (list[i] == _pasien) {\r\n                return true;\r\n            }\r\n        }\r\n        return false;\r\n    }\r\n\r\n    // --- Rekam Medis Functions ---\r\n    function tambahRekamMedis(\r\n        address _pasien,\r\n        string calldata _diagnosa,\r\n        string calldata _foto,\r\n        string calldata _catatan\r\n    ) external {\r\n        bool isValidActor = false;\r\n        if (msg.sender == _pasien && isPasien[_pasien]) {\r\n            isValidActor = true; // Pasien bisa menambah RM sendiri\r\n        } else if (isDokter[msg.sender] && dataDokter[msg.sender].aktif) {\r\n            if (\r\n                dataPasien[_pasien].exists &&\r\n                dataDokter[msg.sender].adminRS ==\r\n                dataPasien[_pasien].rumahSakitPenanggungJawab &&\r\n                isAssigned(msg.sender, _pasien)\r\n            ) {\r\n                isValidActor = true; // Dokter yang ditugaskan bisa menambah RM\r\n            }\r\n        }\r\n        require(\r\n            isValidActor,\r\n            \"Aktor tidak berhak menambah rekam medis untuk pasien ini.\"\r\n        );\r\n        require(dataPasien[_pasien].exists, \"Pasien tidak terdaftar.\");\r\n\r\n        rekamMedisCount++;\r\n        uint newId = rekamMedisCount;\r\n        rekamMedis[newId] = RekamMedisData({\r\n            id: newId,\r\n            pasien: _pasien,\r\n            diagnosa: _diagnosa,\r\n            foto: _foto,\r\n            catatan: _catatan,\r\n            valid: true,\r\n            pembuatAwal: msg.sender, // BARU\r\n            timestampAwal: block.timestamp // BARU\r\n        });\r\n        rekamMedisByPasien[_pasien].push(newId);\r\n\r\n        // rekamMedisUpdateHistory TIDAK digunakan untuk pembuatan awal\r\n        emit RekamMedisDitambahkan(\r\n            newId,\r\n            _pasien,\r\n            _diagnosa,\r\n            msg.sender,\r\n            block.timestamp,\r\n            true\r\n        ); // Update Event\r\n    }\r\n\r\n    function updateRekamMedis(\r\n        uint _id,\r\n        string calldata _diagnosa,\r\n        string calldata _foto,\r\n        string calldata _catatan\r\n    ) external hanyaDokterAktifUntukPasien(rekamMedis[_id].pasien) {\r\n        RekamMedisData storage r = rekamMedis[_id];\r\n        require(\r\n            r.pasien != address(0),\r\n            \"Rekam medis tidak ditemukan atau ID tidak valid.\"\r\n        );\r\n        require(r.valid, \"Rekam medis ini sudah tidak valid/dinonaktifkan.\");\r\n\r\n        // Simpan versi lama sebelum update ke rekamMedisVersions\r\n        rekamMedisVersions[_id].push(\r\n            RekamMedisData({\r\n                id: r.id,\r\n                pasien: r.pasien,\r\n                diagnosa: r.diagnosa,\r\n                foto: r.foto,\r\n                catatan: r.catatan,\r\n                valid: r.valid,\r\n                pembuatAwal: r.pembuatAwal, // Sertakan data pembuat/waktu awal\r\n                timestampAwal: r.timestampAwal\r\n            })\r\n        );\r\n\r\n        // Update data rekam medis utama\r\n        r.diagnosa = _diagnosa;\r\n        r.foto = _foto;\r\n        r.catatan = _catatan;\r\n\r\n        // Simpan info update (siapa dan kapan) ke rekamMedisUpdateHistory\r\n        rekamMedisUpdateHistory[_id].push(\r\n            UpdateInfo({aktor: msg.sender, timestamp: block.timestamp}) // Gunakan 'aktor' field\r\n        );\r\n\r\n        emit RekamMedisDiperbarui(\r\n            _id,\r\n            _diagnosa,\r\n            _catatan,\r\n            msg.sender,\r\n            block.timestamp\r\n        );\r\n    }\r\n\r\n    function getRekamMedisIdsByPasien(\r\n        address _pasien\r\n    ) external view returns (uint[] memory) {\r\n        require(isPasien[_pasien], \"Pasien tidak ditemukan.\");\r\n        return rekamMedisByPasien[_pasien];\r\n    }\r\n\r\n    function getRekamMedis(\r\n        uint _id\r\n    )\r\n        external\r\n        view\r\n        returns (\r\n            uint id,\r\n            address pasien,\r\n            string memory diagnosa,\r\n            string memory foto,\r\n            string memory catatan,\r\n            bool valid,\r\n            address pembuatAwal, // BARU\r\n            uint256 timestampAwal // BARU\r\n        )\r\n    {\r\n        require(\r\n            rekamMedis[_id].pasien != address(0),\r\n            \"Rekam medis tidak ditemukan.\"\r\n        );\r\n        RekamMedisData storage r = rekamMedis[_id];\r\n        return (\r\n            r.id,\r\n            r.pasien,\r\n            r.diagnosa,\r\n            r.foto,\r\n            r.catatan,\r\n            r.valid,\r\n            r.pembuatAwal,\r\n            r.timestampAwal\r\n        );\r\n    }\r\n\r\n    function getRekamMedisVersions(\r\n        uint _id\r\n    ) external view returns (RekamMedisData[] memory) {\r\n        return rekamMedisVersions[_id];\r\n    }\r\n\r\n    function getRekamMedisUpdateHistory(\r\n        uint _id\r\n    )\r\n        external\r\n        view\r\n        returns (address[] memory actors, uint256[] memory timestamps)\r\n    {\r\n        uint len = rekamMedisUpdateHistory[_id].length;\r\n        actors = new address[](len);\r\n        timestamps = new uint256[](len);\r\n        for (uint i = 0; i < len; i++) {\r\n            actors[i] = rekamMedisUpdateHistory[_id][i].aktor; // Gunakan .aktor\r\n            timestamps[i] = rekamMedisUpdateHistory[_id][i].timestamp;\r\n        }\r\n        return (actors, timestamps);\r\n    }\r\n\r\n    function nonaktifkanRekamMedis(uint _id) external hanyaAdminRS {\r\n        require(\r\n            rekamMedis[_id].pasien != address(0),\r\n            \"Rekam medis tidak ditemukan.\"\r\n        );\r\n        require(\r\n            dataPasien[rekamMedis[_id].pasien].rumahSakitPenanggungJawab ==\r\n                msg.sender,\r\n            \"Admin RS tidak berhak atas pasien ini.\"\r\n        );\r\n        rekamMedis[_id].valid = false;\r\n        // Pertimbangkan untuk emit event di sini jika diperlukan log nonaktifkan\r\n    }\r\n\r\n    // --- Super Admin Functions ---\r\n    function setSuperAdmin(address _newAdmin) external hanyaSuperAdmin {\r\n        require(\r\n            _newAdmin != address(0),\r\n            \"Alamat super admin baru tidak valid.\"\r\n        );\r\n        superAdmin = _newAdmin;\r\n    }\r\n\r\n    // --- Utility Functions ---\r\n    function getUserRole(address _user) public view returns (string memory) {\r\n        if (_user == superAdmin) return \"SuperAdmin\";\r\n        if (dataAdmin[_user].aktif) return \"AdminRS\";\r\n        if (isDokter[_user]) return \"Dokter\";\r\n        if (isPasien[_user]) return \"Pasien\";\r\n        return \"Unknown\";\r\n    }\r\n}\r\n",
  "sourcePath": "D:\\TA\\rekam_medis_backend\\contracts\\RekamMedisRS.sol",
  "compiler": {
    "name": "solc",
    "version": "0.8.19+commit.7dd6d404.Emscripten.clang"
  },
  "schemaVersion": "3.4.16",
  "updatedAt": "2025-06-26T17:21:20.918Z",
  "networkType": "ethereum",
  "devdoc": {
    "kind": "dev",
    "methods": {},
    "version": 1
  },
  "userdoc": {
    "kind": "user",
    "methods": {},
    "version": 1
  }
}