{
  "contractName": "RekamMedisRS",
  "abi": [
    {
      "inputs": [],
      "stateMutability": "nonpayable",
      "type": "constructor"
    },
    {
      "anonymous": false,
      "inputs": [
        {
          "indexed": true,
          "internalType": "address",
          "name": "admin",
          "type": "address"
        },
        {
          "indexed": false,
          "internalType": "string",
          "name": "namaRumahSakit",
          "type": "string"
        },
        {
          "indexed": false,
          "internalType": "string",
          "name": "alamatRumahSakit",
          "type": "string"
        },
        {
          "indexed": false,
          "internalType": "string",
          "name": "kota",
          "type": "string"
        },
        {
          "indexed": false,
          "internalType": "string",
          "name": "NIBRS",
          "type": "string"
        }
      ],
      "name": "AdminRSTerdaftar",
      "type": "event"
    },
    {
      "anonymous": false,
      "inputs": [
        {
          "indexed": true,
          "internalType": "address",
          "name": "dokter",
          "type": "address"
        },
        {
          "indexed": false,
          "internalType": "string",
          "name": "nama",
          "type": "string"
        },
        {
          "indexed": false,
          "internalType": "string",
          "name": "spesialisasi",
          "type": "string"
        },
        {
          "indexed": false,
          "internalType": "string",
          "name": "nomorLisensi",
          "type": "string"
        },
        {
          "indexed": true,
          "internalType": "address",
          "name": "adminRS",
          "type": "address"
        }
      ],
      "name": "DokterInfoDiperbarui",
      "type": "event"
    },
    {
      "anonymous": false,
      "inputs": [
        {
          "indexed": true,
          "internalType": "address",
          "name": "dokter",
          "type": "address"
        },
        {
          "indexed": false,
          "internalType": "bool",
          "name": "aktif",
          "type": "bool"
        }
      ],
      "name": "DokterStatusDiubah",
      "type": "event"
    },
    {
      "anonymous": false,
      "inputs": [
        {
          "indexed": true,
          "internalType": "address",
          "name": "dokter",
          "type": "address"
        },
        {
          "indexed": false,
          "internalType": "string",
          "name": "nama",
          "type": "string"
        },
        {
          "indexed": false,
          "internalType": "address",
          "name": "adminRS",
          "type": "address"
        }
      ],
      "name": "DokterTerdaftar",
      "type": "event"
    },
    {
      "anonymous": false,
      "inputs": [
        {
          "indexed": true,
          "internalType": "address",
          "name": "pasien",
          "type": "address"
        },
        {
          "indexed": false,
          "internalType": "string",
          "name": "nama",
          "type": "string"
        },
        {
          "indexed": false,
          "internalType": "string",
          "name": "NIK",
          "type": "string"
        },
        {
          "indexed": false,
          "internalType": "string",
          "name": "golonganDarah",
          "type": "string"
        },
        {
          "indexed": false,
          "internalType": "string",
          "name": "tanggalLahir",
          "type": "string"
        },
        {
          "indexed": false,
          "internalType": "string",
          "name": "gender",
          "type": "string"
        },
        {
          "indexed": false,
          "internalType": "string",
          "name": "alamat",
          "type": "string"
        },
        {
          "indexed": false,
          "internalType": "string",
          "name": "noTelepon",
          "type": "string"
        },
        {
          "indexed": false,
          "internalType": "string",
          "name": "email",
          "type": "string"
        }
      ],
      "name": "PasienDataDiperbarui",
      "type": "event"
    },
    {
      "anonymous": false,
      "inputs": [
        {
          "indexed": false,
          "internalType": "address",
          "name": "dokter",
          "type": "address"
        },
        {
          "indexed": false,
          "internalType": "address",
          "name": "pasien",
          "type": "address"
        }
      ],
      "name": "PasienDiassignKeDokter",
      "type": "event"
    },
    {
      "anonymous": false,
      "inputs": [
        {
          "indexed": false,
          "internalType": "address",
          "name": "dokter",
          "type": "address"
        },
        {
          "indexed": false,
          "internalType": "address",
          "name": "pasien",
          "type": "address"
        }
      ],
      "name": "PasienDiunassignDariDokter",
      "type": "event"
    },
    {
      "anonymous": false,
      "inputs": [
        {
          "indexed": true,
          "internalType": "address",
          "name": "pasien",
          "type": "address"
        },
        {
          "indexed": false,
          "internalType": "address",
          "name": "oldAdminRS",
          "type": "address"
        },
        {
          "indexed": false,
          "internalType": "address",
          "name": "newAdminRS",
          "type": "address"
        }
      ],
      "name": "PasienPindahRS",
      "type": "event"
    },
    {
      "anonymous": false,
      "inputs": [
        {
          "indexed": true,
          "internalType": "address",
          "name": "pasien",
          "type": "address"
        },
        {
          "indexed": false,
          "internalType": "string",
          "name": "nama",
          "type": "string"
        },
        {
          "indexed": false,
          "internalType": "string",
          "name": "IDPasien",
          "type": "string"
        },
        {
          "indexed": false,
          "internalType": "string",
          "name": "NIKPasien",
          "type": "string"
        },
        {
          "indexed": false,
          "internalType": "address",
          "name": "adminRS",
          "type": "address"
        }
      ],
      "name": "PasienTerdaftar",
      "type": "event"
    },
    {
      "anonymous": false,
      "inputs": [
        {
          "indexed": false,
          "internalType": "uint256",
          "name": "id",
          "type": "uint256"
        },
        {
          "indexed": false,
          "internalType": "address",
          "name": "pasien",
          "type": "address"
        },
        {
          "indexed": false,
          "internalType": "string",
          "name": "diagnosa",
          "type": "string"
        },
        {
          "indexed": false,
          "internalType": "string",
          "name": "foto",
          "type": "string"
        },
        {
          "indexed": false,
          "internalType": "string",
          "name": "catatan",
          "type": "string"
        },
        {
          "indexed": false,
          "internalType": "string",
          "name": "tipeRekamMedis",
          "type": "string"
        },
        {
          "indexed": false,
          "internalType": "address",
          "name": "pembuat",
          "type": "address"
        },
        {
          "indexed": false,
          "internalType": "uint256",
          "name": "timestamp",
          "type": "uint256"
        }
      ],
      "name": "RekamMedisDitambahkan",
      "type": "event"
    },
    {
      "inputs": [
        {
          "internalType": "uint256",
          "name": "",
          "type": "uint256"
        }
      ],
      "name": "daftarAdmin",
      "outputs": [
        {
          "internalType": "address",
          "name": "",
          "type": "address"
        }
      ],
      "stateMutability": "view",
      "type": "function",
      "constant": true
    },
    {
      "inputs": [
        {
          "internalType": "uint256",
          "name": "",
          "type": "uint256"
        }
      ],
      "name": "daftarDokter",
      "outputs": [
        {
          "internalType": "address",
          "name": "",
          "type": "address"
        }
      ],
      "stateMutability": "view",
      "type": "function",
      "constant": true
    },
    {
      "inputs": [
        {
          "internalType": "uint256",
          "name": "",
          "type": "uint256"
        }
      ],
      "name": "daftarPasien",
      "outputs": [
        {
          "internalType": "address",
          "name": "",
          "type": "address"
        }
      ],
      "stateMutability": "view",
      "type": "function",
      "constant": true
    },
    {
      "inputs": [
        {
          "internalType": "address",
          "name": "",
          "type": "address"
        }
      ],
      "name": "dataAdmin",
      "outputs": [
        {
          "internalType": "string",
          "name": "namaRumahSakit",
          "type": "string"
        },
        {
          "internalType": "bool",
          "name": "aktif",
          "type": "bool"
        },
        {
          "internalType": "string",
          "name": "alamatRumahSakit",
          "type": "string"
        },
        {
          "internalType": "string",
          "name": "kota",
          "type": "string"
        },
        {
          "internalType": "string",
          "name": "NIBRS",
          "type": "string"
        }
      ],
      "stateMutability": "view",
      "type": "function",
      "constant": true
    },
    {
      "inputs": [
        {
          "internalType": "address",
          "name": "",
          "type": "address"
        }
      ],
      "name": "dataDokter",
      "outputs": [
        {
          "internalType": "string",
          "name": "nama",
          "type": "string"
        },
        {
          "internalType": "string",
          "name": "spesialisasi",
          "type": "string"
        },
        {
          "internalType": "string",
          "name": "nomorLisensi",
          "type": "string"
        },
        {
          "internalType": "bool",
          "name": "aktif",
          "type": "bool"
        },
        {
          "internalType": "address",
          "name": "adminRS",
          "type": "address"
        }
      ],
      "stateMutability": "view",
      "type": "function",
      "constant": true
    },
    {
      "inputs": [
        {
          "internalType": "address",
          "name": "",
          "type": "address"
        }
      ],
      "name": "dataPasien",
      "outputs": [
        {
          "internalType": "string",
          "name": "nama",
          "type": "string"
        },
        {
          "internalType": "string",
          "name": "ID",
          "type": "string"
        },
        {
          "internalType": "string",
          "name": "NIK",
          "type": "string"
        },
        {
          "internalType": "string",
          "name": "golonganDarah",
          "type": "string"
        },
        {
          "internalType": "string",
          "name": "tanggalLahir",
          "type": "string"
        },
        {
          "internalType": "string",
          "name": "gender",
          "type": "string"
        },
        {
          "internalType": "string",
          "name": "alamat",
          "type": "string"
        },
        {
          "internalType": "string",
          "name": "noTelepon",
          "type": "string"
        },
        {
          "internalType": "string",
          "name": "email",
          "type": "string"
        },
        {
          "internalType": "address",
          "name": "rumahSakitPenanggungJawab",
          "type": "address"
        }
      ],
      "stateMutability": "view",
      "type": "function",
      "constant": true
    },
    {
      "inputs": [
        {
          "internalType": "address",
          "name": "",
          "type": "address"
        }
      ],
      "name": "isDokter",
      "outputs": [
        {
          "internalType": "bool",
          "name": "",
          "type": "bool"
        }
      ],
      "stateMutability": "view",
      "type": "function",
      "constant": true
    },
    {
      "inputs": [
        {
          "internalType": "string",
          "name": "",
          "type": "string"
        }
      ],
      "name": "isNIBRSUsed",
      "outputs": [
        {
          "internalType": "bool",
          "name": "",
          "type": "bool"
        }
      ],
      "stateMutability": "view",
      "type": "function",
      "constant": true
    },
    {
      "inputs": [
        {
          "internalType": "address",
          "name": "",
          "type": "address"
        }
      ],
      "name": "isPasien",
      "outputs": [
        {
          "internalType": "bool",
          "name": "",
          "type": "bool"
        }
      ],
      "stateMutability": "view",
      "type": "function",
      "constant": true
    },
    {
      "inputs": [
        {
          "internalType": "string",
          "name": "",
          "type": "string"
        }
      ],
      "name": "isPatientIDUsed",
      "outputs": [
        {
          "internalType": "bool",
          "name": "",
          "type": "bool"
        }
      ],
      "stateMutability": "view",
      "type": "function",
      "constant": true
    },
    {
      "inputs": [
        {
          "internalType": "string",
          "name": "",
          "type": "string"
        }
      ],
      "name": "isPatientNIKUsed",
      "outputs": [
        {
          "internalType": "bool",
          "name": "",
          "type": "bool"
        }
      ],
      "stateMutability": "view",
      "type": "function",
      "constant": true
    },
    {
      "inputs": [
        {
          "internalType": "uint256",
          "name": "",
          "type": "uint256"
        }
      ],
      "name": "rekamMedis",
      "outputs": [
        {
          "internalType": "uint256",
          "name": "id",
          "type": "uint256"
        },
        {
          "internalType": "address",
          "name": "pasien",
          "type": "address"
        },
        {
          "internalType": "string",
          "name": "diagnosa",
          "type": "string"
        },
        {
          "internalType": "string",
          "name": "foto",
          "type": "string"
        },
        {
          "internalType": "string",
          "name": "catatan",
          "type": "string"
        },
        {
          "internalType": "address",
          "name": "pembuat",
          "type": "address"
        },
        {
          "internalType": "uint256",
          "name": "timestampPembuatan",
          "type": "uint256"
        },
        {
          "internalType": "string",
          "name": "tipeRekamMedis",
          "type": "string"
        }
      ],
      "stateMutability": "view",
      "type": "function",
      "constant": true
    },
    {
      "inputs": [
        {
          "internalType": "address",
          "name": "",
          "type": "address"
        },
        {
          "internalType": "uint256",
          "name": "",
          "type": "uint256"
        }
      ],
      "name": "rekamMedisByPasien",
      "outputs": [
        {
          "internalType": "uint256",
          "name": "",
          "type": "uint256"
        }
      ],
      "stateMutability": "view",
      "type": "function",
      "constant": true
    },
    {
      "inputs": [],
      "name": "rekamMedisCount",
      "outputs": [
        {
          "internalType": "uint256",
          "name": "",
          "type": "uint256"
        }
      ],
      "stateMutability": "view",
      "type": "function",
      "constant": true
    },
    {
      "inputs": [],
      "name": "getAllAdminRSAddresses",
      "outputs": [
        {
          "internalType": "address[]",
          "name": "",
          "type": "address[]"
        }
      ],
      "stateMutability": "view",
      "type": "function",
      "constant": true
    },
    {
      "inputs": [],
      "name": "totalAdmin",
      "outputs": [
        {
          "internalType": "uint256",
          "name": "",
          "type": "uint256"
        }
      ],
      "stateMutability": "view",
      "type": "function",
      "constant": true
    },
    {
      "inputs": [
        {
          "internalType": "uint256",
          "name": "idx",
          "type": "uint256"
        }
      ],
      "name": "getAdminByIndex",
      "outputs": [
        {
          "internalType": "address",
          "name": "",
          "type": "address"
        }
      ],
      "stateMutability": "view",
      "type": "function",
      "constant": true
    },
    {
      "inputs": [
        {
          "internalType": "address",
          "name": "_admin",
          "type": "address"
        }
      ],
      "name": "getAdminRS",
      "outputs": [
        {
          "internalType": "string",
          "name": "namaRumahSakit",
          "type": "string"
        },
        {
          "internalType": "bool",
          "name": "aktif",
          "type": "bool"
        },
        {
          "internalType": "string",
          "name": "alamatRumahSakit",
          "type": "string"
        },
        {
          "internalType": "string",
          "name": "kota",
          "type": "string"
        },
        {
          "internalType": "string",
          "name": "NIBRS",
          "type": "string"
        }
      ],
      "stateMutability": "view",
      "type": "function",
      "constant": true
    },
    {
      "inputs": [
        {
          "internalType": "address",
          "name": "_dokter",
          "type": "address"
        },
        {
          "internalType": "string",
          "name": "_nama",
          "type": "string"
        },
        {
          "internalType": "string",
          "name": "_spesialisasi",
          "type": "string"
        },
        {
          "internalType": "string",
          "name": "_nomorLisensi",
          "type": "string"
        }
      ],
      "name": "registerDokter",
      "outputs": [],
      "stateMutability": "nonpayable",
      "type": "function"
    },
    {
      "inputs": [
        {
          "internalType": "address",
          "name": "_dokter",
          "type": "address"
        },
        {
          "internalType": "string",
          "name": "_namaBaru",
          "type": "string"
        },
        {
          "internalType": "string",
          "name": "_spesialisasiBaru",
          "type": "string"
        },
        {
          "internalType": "string",
          "name": "_nomorLisensiBaru",
          "type": "string"
        }
      ],
      "name": "updateDokterInfo",
      "outputs": [],
      "stateMutability": "nonpayable",
      "type": "function"
    },
    {
      "inputs": [
        {
          "internalType": "address",
          "name": "_dokter",
          "type": "address"
        },
        {
          "internalType": "bool",
          "name": "_aktif",
          "type": "bool"
        }
      ],
      "name": "setStatusDokter",
      "outputs": [],
      "stateMutability": "nonpayable",
      "type": "function"
    },
    {
      "inputs": [],
      "name": "totalDokter",
      "outputs": [
        {
          "internalType": "uint256",
          "name": "",
          "type": "uint256"
        }
      ],
      "stateMutability": "view",
      "type": "function",
      "constant": true
    },
    {
      "inputs": [
        {
          "internalType": "uint256",
          "name": "idx",
          "type": "uint256"
        }
      ],
      "name": "getDokterByIndex",
      "outputs": [
        {
          "internalType": "address",
          "name": "",
          "type": "address"
        }
      ],
      "stateMutability": "view",
      "type": "function",
      "constant": true
    },
    {
      "inputs": [
        {
          "internalType": "address",
          "name": "_dokter",
          "type": "address"
        }
      ],
      "name": "getDokter",
      "outputs": [
        {
          "internalType": "string",
          "name": "nama",
          "type": "string"
        },
        {
          "internalType": "string",
          "name": "spesialisasi",
          "type": "string"
        },
        {
          "internalType": "string",
          "name": "nomorLisensi",
          "type": "string"
        },
        {
          "internalType": "bool",
          "name": "aktif",
          "type": "bool"
        },
        {
          "internalType": "address[]",
          "name": "pasienList",
          "type": "address[]"
        },
        {
          "internalType": "address",
          "name": "adminRS",
          "type": "address"
        }
      ],
      "stateMutability": "view",
      "type": "function",
      "constant": true
    },
    {
      "inputs": [
        {
          "internalType": "address",
          "name": "_dokter",
          "type": "address"
        }
      ],
      "name": "getAssignedPatients",
      "outputs": [
        {
          "internalType": "address[]",
          "name": "",
          "type": "address[]"
        }
      ],
      "stateMutability": "view",
      "type": "function",
      "constant": true
    },
    {
      "inputs": [
        {
          "internalType": "string",
          "name": "_nama",
          "type": "string"
        },
        {
          "internalType": "string",
          "name": "_IDPasien",
          "type": "string"
        },
        {
          "internalType": "string",
          "name": "_NIKPasien",
          "type": "string"
        },
        {
          "internalType": "string",
          "name": "_golonganDarah",
          "type": "string"
        },
        {
          "internalType": "string",
          "name": "_tanggalLahir",
          "type": "string"
        },
        {
          "internalType": "string",
          "name": "_gender",
          "type": "string"
        },
        {
          "internalType": "string",
          "name": "_alamat",
          "type": "string"
        },
        {
          "internalType": "string",
          "name": "_noTelepon",
          "type": "string"
        },
        {
          "internalType": "string",
          "name": "_email",
          "type": "string"
        },
        {
          "internalType": "address",
          "name": "_adminRS",
          "type": "address"
        }
      ],
      "name": "selfRegisterPasien",
      "outputs": [],
      "stateMutability": "nonpayable",
      "type": "function"
    },
    {
      "inputs": [
        {
          "internalType": "string",
          "name": "_nama",
          "type": "string"
        },
        {
          "internalType": "string",
          "name": "_NIK",
          "type": "string"
        },
        {
          "internalType": "string",
          "name": "_golonganDarah",
          "type": "string"
        },
        {
          "internalType": "string",
          "name": "_tanggalLahir",
          "type": "string"
        },
        {
          "internalType": "string",
          "name": "_gender",
          "type": "string"
        },
        {
          "internalType": "string",
          "name": "_alamat",
          "type": "string"
        },
        {
          "internalType": "string",
          "name": "_noTelepon",
          "type": "string"
        },
        {
          "internalType": "string",
          "name": "_email",
          "type": "string"
        }
      ],
      "name": "updatePasienData",
      "outputs": [],
      "stateMutability": "nonpayable",
      "type": "function"
    },
    {
      "inputs": [
        {
          "internalType": "address",
          "name": "_newAdminRS",
          "type": "address"
        }
      ],
      "name": "updatePasienRumahSakit",
      "outputs": [],
      "stateMutability": "nonpayable",
      "type": "function"
    },
    {
      "inputs": [],
      "name": "getDaftarPasien",
      "outputs": [
        {
          "internalType": "address[]",
          "name": "",
          "type": "address[]"
        }
      ],
      "stateMutability": "view",
      "type": "function",
      "constant": true
    },
    {
      "inputs": [],
      "name": "totalPasien",
      "outputs": [
        {
          "internalType": "uint256",
          "name": "",
          "type": "uint256"
        }
      ],
      "stateMutability": "view",
      "type": "function",
      "constant": true
    },
    {
      "inputs": [
        {
          "internalType": "address",
          "name": "_pasien",
          "type": "address"
        }
      ],
      "name": "getPasienData",
      "outputs": [
        {
          "internalType": "string",
          "name": "nama",
          "type": "string"
        },
        {
          "internalType": "string",
          "name": "ID",
          "type": "string"
        },
        {
          "internalType": "string",
          "name": "NIK",
          "type": "string"
        },
        {
          "internalType": "string",
          "name": "golonganDarah",
          "type": "string"
        },
        {
          "internalType": "string",
          "name": "tanggalLahir",
          "type": "string"
        },
        {
          "internalType": "string",
          "name": "gender",
          "type": "string"
        },
        {
          "internalType": "string",
          "name": "alamat",
          "type": "string"
        },
        {
          "internalType": "string",
          "name": "noTelepon",
          "type": "string"
        },
        {
          "internalType": "string",
          "name": "email",
          "type": "string"
        },
        {
          "internalType": "address",
          "name": "rumahSakitPenanggungJawab",
          "type": "address"
        }
      ],
      "stateMutability": "view",
      "type": "function",
      "constant": true
    },
    {
      "inputs": [
        {
          "internalType": "address",
          "name": "_dokter",
          "type": "address"
        },
        {
          "internalType": "address",
          "name": "_pasien",
          "type": "address"
        }
      ],
      "name": "assignPasienToDokter",
      "outputs": [],
      "stateMutability": "nonpayable",
      "type": "function"
    },
    {
      "inputs": [
        {
          "internalType": "address",
          "name": "_dokter",
          "type": "address"
        },
        {
          "internalType": "address",
          "name": "_pasien",
          "type": "address"
        }
      ],
      "name": "unassignPasienFromDokter",
      "outputs": [],
      "stateMutability": "nonpayable",
      "type": "function"
    },
    {
      "inputs": [
        {
          "internalType": "address",
          "name": "_pasien",
          "type": "address"
        },
        {
          "internalType": "string",
          "name": "_diagnosa",
          "type": "string"
        },
        {
          "internalType": "string",
          "name": "_foto",
          "type": "string"
        },
        {
          "internalType": "string",
          "name": "_catatan",
          "type": "string"
        },
        {
          "internalType": "string",
          "name": "_tipeRekamMedis",
          "type": "string"
        }
      ],
      "name": "tambahRekamMedis",
      "outputs": [],
      "stateMutability": "nonpayable",
      "type": "function"
    },
    {
      "inputs": [
        {
          "internalType": "address",
          "name": "_pasien",
          "type": "address"
        }
      ],
      "name": "getRekamMedisIdsByPasien",
      "outputs": [
        {
          "internalType": "uint256[]",
          "name": "",
          "type": "uint256[]"
        }
      ],
      "stateMutability": "view",
      "type": "function",
      "constant": true
    },
    {
      "inputs": [
        {
          "internalType": "uint256",
          "name": "_id",
          "type": "uint256"
        }
      ],
      "name": "getRekamMedis",
      "outputs": [
        {
          "internalType": "uint256",
          "name": "id",
          "type": "uint256"
        },
        {
          "internalType": "address",
          "name": "pasien",
          "type": "address"
        },
        {
          "internalType": "string",
          "name": "diagnosa",
          "type": "string"
        },
        {
          "internalType": "string",
          "name": "foto",
          "type": "string"
        },
        {
          "internalType": "string",
          "name": "catatan",
          "type": "string"
        },
        {
          "internalType": "address",
          "name": "pembuat",
          "type": "address"
        },
        {
          "internalType": "uint256",
          "name": "timestampPembuatan",
          "type": "uint256"
        },
        {
          "internalType": "string",
          "name": "tipeRekamMedis",
          "type": "string"
        }
      ],
      "stateMutability": "view",
      "type": "function",
      "constant": true
    },
    {
      "inputs": [
        {
          "internalType": "address",
          "name": "_pasien",
          "type": "address"
        }
      ],
      "name": "getRekamMedisByPasienUntukAdminRS",
      "outputs": [
        {
          "components": [
            {
              "internalType": "uint256",
              "name": "id",
              "type": "uint256"
            },
            {
              "internalType": "address",
              "name": "pasien",
              "type": "address"
            },
            {
              "internalType": "string",
              "name": "diagnosa",
              "type": "string"
            },
            {
              "internalType": "string",
              "name": "foto",
              "type": "string"
            },
            {
              "internalType": "string",
              "name": "catatan",
              "type": "string"
            },
            {
              "internalType": "address",
              "name": "pembuat",
              "type": "address"
            },
            {
              "internalType": "uint256",
              "name": "timestampPembuatan",
              "type": "uint256"
            },
            {
              "internalType": "string",
              "name": "tipeRekamMedis",
              "type": "string"
            }
          ],
          "internalType": "struct RekamMedisRS.RekamMedisData[]",
          "name": "",
          "type": "tuple[]"
        }
      ],
      "stateMutability": "view",
      "type": "function",
      "constant": true
    },
    {
      "inputs": [
        {
          "internalType": "address",
          "name": "_user",
          "type": "address"
        }
      ],
      "name": "getUserRole",
      "outputs": [
        {
          "internalType": "string",
          "name": "",
          "type": "string"
        }
      ],
      "stateMutability": "view",
      "type": "function",
      "constant": true
    },
    {
      "inputs": [],
      "name": "getPasienByAdminRS",
      "outputs": [
        {
          "internalType": "address[]",
          "name": "",
          "type": "address[]"
        }
      ],
      "stateMutability": "view",
      "type": "function",
      "constant": true
    }
  ],
  "bytecode": "0x60806040523462000e2a576200001462000e4f565b601081526f52532053696c6f616d204d616c616e6760801b60208201526200003b62000e4f565b601e81527f4a6c2e2052617961204c616e67736570204e6f2e20322c204d616c616e67000060208201526200006f62000e4f565b9060068252654d616c616e6760d01b60208301526200008d62000e4f565b92600b84526a4e494252532d534d30303160a81b6020850152620000b062000e2f565b8181526001602082015282604082015283606082015284608082015273153f67a7b7169ce3f13f8a81dc9cae0bc27dbf216000526000602052604060002090805180519060018060401b0382116200070e57835490600182811c9216801562000e1f575b6020831014620007f35781601f84931162000dca575b50602090601f831160011462000d595760009262000d4d575b50508160011b916000199060031b1c19161782555b6200017860208201511515600184019060ff801983541691151516179055565b60408101518051906001600160401b0382116200070e57600284015490600182811c9216801562000d42575b6020831014620007f35781601f84931162000cea575b50602090601f831160011462000c735760009262000c67575b50508160011b916000199060031b1c19161760028301555b60608101518051906001600160401b0382116200070e576003840154600181811c9116801562000c5c575b6020821014620007f357601f811162000c10575b50602090601f831160011462000b985760809392916000918362000b8c575b50508160011b916000199060031b1c19161760038401555b01518051906001600160401b0382116200070e576004830154600181811c9116801562000b81575b6020821014620007f357601f811162000b35575b50602090601f831160011462000ac057600492916000918362000ab4575b50508160011b916000199060031b1c1916179101555b600254680100000000000000008110156200070e576001810180600255811015620006f85773153f67a7b7169ce3f13f8a81dc9cae0bc27dbf219460008051602062005df183398151915294620003759260026000526020600020018760018060a01b0319825416179055604051602081845162000353818385890162000e6f565b81016001815203019020600160ff198254161790556040519485948562000ebb565b0390a26200038262000e4f565b600f81526e52532053696c6f616d20596f67796160881b6020820152604051606081016001600160401b038111828210176200070e57604052602881527f4a6c2e204c616b736461204164697375636970746f204e6f2e2033322c20596f6020820152676779616b6172746160c01b60408201526200040062000e4f565b90600a825269596f6779616b6172746160b01b60208301526200042262000e4f565b92600b84526a4e494252532d535930303160a81b60208501526200044562000e2f565b8181526001602082015282604082015283606082015284608082015273d95a4ee9149fcb31c535ef6cbd65f4c23d9f799760005260006020526040600020815180519060018060401b0382116200070e57825490600182811c9216801562000aa9575b6020831014620007f35781601f84931162000a54575b50602090601f8311600114620009e357600092620009d7575b50508160011b916000199060031b1c19161781555b6200050c60208301511515600183019060ff801983541691151516179055565b60408201518051906001600160401b0382116200070e57600283015490600182811c92168015620009cc575b6020831014620007f35781601f84931162000974575b50602090601f8311600114620008fd57600092620008f1575b50508160011b916000199060031b1c19161760028201555b60608201518051906001600160401b0382116200070e576003830154600181811c91168015620008e6575b6020821014620007f357601f81116200089a575b50602090601f8311600114620008205791806080949260049460009262000814575b50508160011b916000199060031b1c19161760038201555b0191015180519060018060401b0382116200070e57825490600182811c9216801562000809575b6020831014620007f35781601f8493116200079b575b50602090601f8311600114620007305760009262000724575b50508160011b916000199060031b1c19161790555b600254680100000000000000008110156200070e576001810180600255811015620006f85773d95a4ee9149fcb31c535ef6cbd65f4c23d9f79979460008051602062005df183398151915294620006e59260026000526020600020018760018060a01b0319825416179055604051602081845162000353818385890162000e6f565b0390a2604051614ee2908162000f0f8239f35b634e487b7160e01b600052603260045260246000fd5b634e487b7160e01b600052604160045260246000fd5b0151905038806200064e565b6000858152602081209350601f198516905b81811062000782575090846001959493921062000768575b505050811b01905562000663565b015160001960f88460031b161c191690553880806200075a565b9293602060018192878601518155019501930162000742565b909150836000526020600020601f840160051c81019160208510620007e8575b90601f859493920160051c01905b818110620007d8575062000635565b60008155849350600101620007c9565b9091508190620007bb565b634e487b7160e01b600052602260045260246000fd5b91607f16916200061f565b015190503880620005e0565b906003840160005260206000209160005b601f1985168110620008815750926080949260019260049583601f1981161062000867575b505050811b016003820155620005f8565b015160001960f88460031b161c1916905538808062000856565b9192602060018192868501518155019401920162000831565b600384016000526020600020601f840160051c810160208510620008de575b601f830160051c82018110620008d1575050620005be565b60008155600101620008b9565b5080620008b9565b90607f1690620005aa565b01519050388062000567565b9250600284016000526020600020906000935b601f198416851062000958576001945083601f198116106200093e575b505050811b0160028201556200057f565b015160001960f88460031b161c191690553880806200092d565b8181015183556020948501946001909301929091019062000910565b909150600284016000526020600020601f840160051c810160208510620009c4575b90849392915b601f830160051c82018110620009b45750506200054e565b600081558594506001016200099c565b508062000996565b91607f169162000538565b015190503880620004d7565b9250836000526020600020906000935b601f198416851062000a38576001945083601f1981161062000a1e575b505050811b018155620004ec565b015160001960f88460031b161c1916905538808062000a10565b81810151835560209485019460019093019290910190620009f3565b909150836000526020600020601f840160051c81016020851062000aa1575b90849392915b601f830160051c8201811062000a91575050620004be565b6000815585945060010162000a79565b508062000a73565b91607f1691620004a8565b015190503880620002bb565b906004840160005260206000209160005b601f198516811062000b1c5750918391600193600495601f1981161062000b02575b505050811b01910155620002d1565b015160001960f88460031b161c1916905538808062000af3565b9192602060018192868501518155019401920162000ad1565b600484016000526020600020601f840160051c81016020851062000b79575b601f830160051c8201811062000b6c5750506200029d565b6000815560010162000b54565b508062000b54565b90607f169062000289565b01519050388062000249565b906003850160005260206000209160005b601f198516811062000bf7575091839160019360809695601f1981161062000bdd575b505050811b01600384015562000261565b015160001960f88460031b161c1916905538808062000bcc565b9192602060018192868501518155019401920162000ba9565b600385016000526020600020601f840160051c81016020851062000c54575b601f830160051c8201811062000c475750506200022a565b6000815560010162000c2f565b508062000c2f565b90607f169062000216565b015190503880620001d3565b9250600285016000526020600020906000935b601f198416851062000cce576001945083601f1981161062000cb4575b505050811b016002830155620001eb565b015160001960f88460031b161c1916905538808062000ca3565b8181015183556020948501946001909301929091019062000c86565b909150600285016000526020600020601f840160051c81016020851062000d3a575b90849392915b601f830160051c8201811062000d2a575050620001ba565b6000815585945060010162000d12565b508062000d0c565b91607f1691620001a4565b01519050388062000143565b9250846000526020600020906000935b601f198416851062000dae576001945083601f1981161062000d94575b505050811b01825562000158565b015160001960f88460031b161c1916905538808062000d86565b8181015183556020948501946001909301929091019062000d69565b909150846000526020600020601f840160051c81016020851062000e17575b90849392915b601f830160051c8201811062000e075750506200012a565b6000815585945060010162000def565b508062000de9565b91607f169162000114565b600080fd5b6040519060a082016001600160401b038111838210176200070e57604052565b60408051919082016001600160401b038111838210176200070e57604052565b60005b83811062000e835750506000910152565b818101518382015260200162000e72565b9060209162000eaf8151809281855285808601910162000e6f565b601f01601f1916010190565b9262000eed62000f0b959362000ede62000efc9460808852608088019062000e94565b90868203602088015262000e94565b90848203604086015262000e94565b91606081840391015262000e94565b9056fe610280604052600436101561001357600080fd5b60003560e01c8062410cb314614383578063046bdbcc14614315578063050567d2146142e95780630a0d6729146134d25780631132beb51461349357806311c6554e1461318a5780631788411b1461277157806319d9d3dd146126f057806319e8f405146124285780631cf64afd146122a75780632120e53f146121f557806327820851146121bd5780632b7d8af8146121915780632e2dd102146121735780633bf76303146120fd5780633da05518146120175780634269965114611fee57806347960cb514611f1a57806351887b6714611e855780635c4c934814611e46578063610a8526146116a2578063623785c11461163457806364319e331461161657806368370087146115ed578063786f3fbe146115375780637d3e9db814611519578063911b633a146114d757806392fa92401461134c578063932e0f6d14611251578063a665102c14611182578063abf72abb14611101578063b75de7a814610cd6578063c0664b7e14610c67578063c3c0fdea14610bba578063c967ede814610aed578063cfb8579e14610aae578063ddbd24d3146104c0578063e29993a5146101ec5763e5cc3394146101c957600080fd5b346101e75760003660031901126101e7576020600a54604051908152f35b600080fd5b346101e75760403660031901126101e7576102056143db565b61020d6143f1565b9033600052602091600083526102276040600020546146b9565b1515806104a6575b6102389061498f565b60018060a01b0391828116806000526004855261025c60ff60406000205416614a95565b8060005260039081865261027b33866005604060002001541614614ae1565b84841694856000526007875261029860ff60406000205416614cac565b8560005260068752338160096040600020015416036104495760009160005282875260046040600020019160005b83548082101561043b5788846102dc84886144c2565b905490891b1c16146102f757506102f290614cf8565b6102c6565b915091929394959650600019918282019182116104255761032d8461031f61034c94886144c2565b905490891b1c1691866144c2565b90919082549060031b9160018060a01b03809116831b921b1916179055565b8254801561040f57019261036084846144c2565b81939154921b1b191690555560015b156103bb57604080516001600160a01b0392831681529290911660208301527f80b4d8d360eb6524bf34c2207f48a267b84469bad95c9e9540413349e9f416a59250819081015b0390a1005b60405162461bcd60e51b815260048101849052602660248201527f50617369656e20746964616b20646974756761736b616e206b6520646f6b7465604482015265391034b7349760d11b6064820152608490fd5b634e487b7160e01b600052603160045260246000fd5b634e487b7160e01b600052601160045260246000fd5b50509394955050505061036f565b60405162461bcd60e51b815260048101889052602f60248201527f50617369656e20696e6920746964616b2074657264616674617220646920727560448201526e36b0b41039b0b5b4ba1020b732309760891b6064820152608490fd5b50336000908152808452604090206001015460ff1661022f565b346101e7576104ce366148bf565b91949392903360005260006020526104ea6040600020546146b9565b151580610a8e575b6104fb9061498f565b6001600160a01b03871660009081526004602052604090205460ff16610a36576001600160a01b03871660009081526007602052604090205460ff166109cb5760018060a01b03871660005260046020526040600020600160ff1982541617905560405192602084018481106001600160401b0382111761080a5760405260008452604051968760c08101106001600160401b0360c08a01111761080a576105c8936105bc9160c08a016040526105b336898b614532565b8a523691614532565b60208801523691614532565b60408501526001606085015260808401523360a084015260018060a01b038416600052600360205260406000209280518051906001600160401b03821161080a57819061061f8261061989546146b9565b89614a2f565b602090601f831160011461095f57600092610954575b50508160011b916000199060031b1c19161784555b60208101518051906001600160401b03821161080a57819061067c8261067360018a01546146b9565b60018a01614a2f565b602090601f83116001146108e2576000926108d7575b50508160011b916000199060031b1c19161760018501555b60408101518051906001600160401b03821161080a5781906106dc826106d360028a01546146b9565b60028a01614a2f565b602090601f83116001146108655760009261085a575b50508160011b916000199060031b1c19161760028501555b61072960608201511515600386019060ff801983541691151516179055565b60048401936080820151948551906001600160401b03821161080a57600160401b9687831161080a57602090825484845580851061083d575b500190600052602060002060005b83811061082057505050506005019060a0600180821b03910151166001600160601b0360a01b8254161790556005549283101561080a576107dc8461032d8560017f5c9d12a5bfda65f31ab460df37935bfe7b6cfa6a3787bf1f99858ccc15dc92779701600555614407565b6107f3604051928392604084526040840191614a74565b3360208301526001600160a01b03909416930390a2005b634e487b7160e01b600052604160045260246000fd5b82516001600160a01b031681830155602090920191600101610770565b610854908460005285846000209182019101614a18565b8a610762565b0151905087806106f2565b9250600287016000526020600020906000935b601f19841685106108bc576001945083601f198116106108a3575b505050811b01600285015561070a565b015160001960f88460031b161c19169055878080610893565b81810151835560209485019460019093019290910190610878565b015190508780610692565b9250600187016000526020600020906000935b601f1984168510610939576001945083601f19811610610920575b505050811b0160018501556106aa565b015160001960f88460031b161c19169055878080610910565b818101518355602094850194600190930192909101906108f5565b015190508780610635565b9250866000526020600020906000935b601f19841685106109b0576001945083601f19811610610997575b505050811b01845561064a565b015160001960f88460031b161c1916905587808061098a565b8181015183556020948501946001909301929091019061096f565b60405162461bcd60e51b815260206004820152603f60248201527f416c616d617420696e692074657264616674617220736562616761692070617360448201527f69656e2c20746964616b2062697361206d656e6a61646920646f6b7465722e006064820152608490fd5b60405162461bcd60e51b815260206004820152602a60248201527f416c616d617420696e692073756461682074657264616674617220736562616760448201526930b4903237b5ba32b91760b11b6064820152608490fd5b503360005260006020526104fb60ff6001604060002001541690506104f2565b346101e757602060ff610ad782610ac436614578565b81604051938285809451938492016145b6565b8101600981520301902054166040519015158152f35b346101e7576020806003193601126101e7576001600160a01b03610b0f6143db565b168060005260078252610b2960ff60406000205416614bdd565b600052600c8152604060002060405190818382549182815201908192600052846000209060005b86828210610ba6578686610b6682880383614511565b604051928392818401908285525180915260408401929160005b828110610b8f57505050500390f35b835185528695509381019392810192600101610b80565b835485529093019260019283019201610b50565b346101e75760203660031901126101e757610c3a6001600160a01b0380610bdf6143db565b1660005260036020526040600020610bf6816146f3565b91610c56610c06600184016146f3565b91610c48610c16600286016146f3565b91600560ff600388015416960154169360405197889760a0895260a0890190614606565b908782036020890152614606565b908582036040870152614606565b911515606084015260808301520390f35b346101e75760203660031901126101e7576001600160a01b03610c886143db565b16806000526004602052610ca360ff60406000205416614b45565b6000526003602052610cd2610cbe6004604060002001614937565b60405191829160208352602083019061462b565b0390f35b346101e757610ce4366148bf565b95949290939195336000526000602052610d026040600020546146b9565b1515806110e1575b610d139061498f565b60018060a01b0391828716600052600460205260ff6040600020541615611092578287166000526003978860205233846005604060002001541603611033578388166000528860205260406000206001600160401b0380871161080a57610d8487610d7e84546146b9565b84614a2f565b866000601f8211600114610fce57600091610fc3575b50600019888d1b1c1916600188901b1782555b80831161080a5760018201610dcc84610dc683546146b9565b83614a2f565b836000601f8211600114610f6057600091610f55575b50600019858e1b1c1916600185901b1790555b841161080a57610e1584610e0c60028401546146b9565b60028401614a2f565b6000601f8511600114610eb8579184939160027f4e15ca2ba26538cdb1e2f0d595a1ec96fe8fbb126404e0cc083426c33ccbdd959a9b9c610ea89897610e9696600091610ead575b508760011b9188600019911b1c1916179101555b610e8860405198899860608a5260608a0191614a74565b918783036020890152614a74565b91848303604086015233981696614a74565b0390a3005b90508d01358f610e5d565b99601f198516906002830160005260206000209160005b818110610f3d5750917f4e15ca2ba26538cdb1e2f0d595a1ec96fe8fbb126404e0cc083426c33ccbdd959a9b9c87969492610ea89998610e96979510610f23575b5050506002600186811b01910155610e71565b60f888600019921b161c19908d01351690558c8080610f10565b8b8e0135845560209d8e019d60019094019301610ecf565b90508501358d610de2565b60008381526020812092505b601f1987168110610fab575085601f19811610610f93575b5050600184811b019055610df5565b860135600019868f1b60f8161c191690558c80610f84565b9091602060018192858b013581550193019101610f6c565b90508801358c610d9a565b60008481526020812092508990601f198216905b8c82821061101957505010611001575b5050600187811b018255610dad565b890135600019898e1b60f8161c191690558b80610ff2565b84013585556001909401936020938401938c935001610fe2565b60405162461bcd60e51b815260206004820152603160248201527f416e64612062756b616e2061646d696e2052532079616e672062657268616b206044820152703ab73a3ab5903237b5ba32b91034b7349760791b6064820152608490fd5b60405162461bcd60e51b815260206004820152602160248201527f446f6b74657220746964616b207465726461667461722064692073697374656d6044820152601760f91b6064820152608490fd5b50336000526000602052610d1360ff600160406000200154169050610d0a565b346101e75760203660031901126101e757600435600052600b60205260406000208054610cd260018060a01b038060018501541693611142600282016146f3565b9161114f600383016146f3565b9061115c600484016146f3565b90600584015416916111756007600686015495016146f3565b9460405198899889614799565b346101e75760203660031901126101e7576001600160a01b03806111a46143db565b168060005260076020526111bf60ff60406000205416614bdd565b6000526006602052604060002090600982015416610cd26111df836146f3565b916111ec600185016146f3565b936111f9600282016146f3565b90611206600382016146f3565b611212600483016146f3565b61121e600584016146f3565b9061122b600685016146f3565b92611244600861123d600788016146f3565b96016146f3565b956040519a8b9a8b614805565b346101e75760403660031901126101e75761126a6143db565b602435801515908181036101e7577f3dcd68c14f5f191f12b3b56bf35d5d7eb22447e9ec685290967b4558822ca98a9133600052611329602092600084526112b66040600020546146b9565b151580611332575b6112c79061498f565b61130860018060a01b038097169687600052600486526112ee60ff60406000205416614a95565b876000526003865233906005604060002001541614614ae1565b856000526003845260036040600020019060ff801983541691151516179055565b604051908152a2005b50336000908152808552604090206001015460ff166112be565b346101e7576020806003193601126101e7576113666143db565b336000526007825261137f60ff60406000205416614bdd565b6001600160a01b03818116600081815280855260409020600101549092919060ff161561147b5733600052600684528281600960406000200154161461142557336000818152600690955260409485902060090180546001600160a01b0319811695909517905584516001600160a01b03929094168216845291166020830152917f3457f52cd7f93503903afd272e58438c52a23561e74eddba2144dc53d7af0e4491a2005b60405162461bcd60e51b815260048101859052602860248201527f416e6461207375646168207465726461667461722064692072756d616820736160448201526735b4ba1034b7349760c11b6064820152608490fd5b60405162461bcd60e51b815260048101859052602e60248201527f52756d61682053616b6974206261727520746964616b20616b7469662061746160448201526d3a903a34b230b5903b30b634b21760911b6064820152608490fd5b346101e75760203660031901126101e7576004356002548110156101e75761150060209161448b565b905460405160039290921b1c6001600160a01b03168152f35b346101e75760003660031901126101e7576020600554604051908152f35b346101e75760203660031901126101e7576001600160a01b03806115596143db565b166000526006602052604060002090610cd2611574836146f3565b91611581600185016146f3565b9361158e600282016146f3565b9161159b600383016146f3565b6115a7600484016146f3565b6115b3600585016146f3565b906115c0600686016146f3565b926115cd600787016146f3565b9460096115dc600889016146f3565b97015416966040519a8b9a8b614805565b346101e75760203660031901126101e757600435600a548110156101e757611500602091614454565b346101e75760003660031901126101e7576020600254604051908152f35b346101e75760203660031901126101e75760043560025481101561165d5761150060209161448b565b60405162461bcd60e51b815260206004820152601c60248201527f496e64656b732061646d696e20525320746964616b2076616c69642e000000006044820152606490fd5b346101e75760a03660031901126101e7576116bb6143db565b6024356001600160401b0381116101e7576116da9036906004016145d9565b916044356001600160401b0381116101e7576116fa9036906004016145d9565b93906064356001600160401b0381116101e75761171b9036906004016145d9565b916084356001600160401b0381116101e75761173b9036906004016145d9565b92909333600052600460205260ff6040600020541680611e2f575b15611dce576001600160a01b0387166000908152600760205260409020546117809060ff16614cac565b336000908152600360209081526040808320600501546001600160a01b038b811685526006909352922060090154918116911603611d63576117c28733614d07565b15611cf8576117d2600d54614cf8565b9283600d556040516117e3816144da565b8481526001600160a01b038916602082015261180036898c614532565b6040820152611810368c84614532565b6060820152611820368486614532565b60808201523360a08201524260c082015261183c368789614532565b60e082015284600052600b602052604060002090805182556001820160018060a01b036020830151166001600160601b0360a01b82541617905560408101518051906001600160401b03821161080a5781906118a88261189f60028801546146b9565b60028801614a2f565b602090601f8311600114611c8657600092611c7b575b50508160011b916000199060031b1c19161760028301555b60608101518051906001600160401b03821161080a578190611908826118ff60038801546146b9565b60038801614a2f565b602090601f8311600114611c0957600092611bfe575b50508160011b916000199060031b1c19161760038301555b60808101518051906001600160401b03821161080a576119668261195d60048701546146b9565b60048701614a2f565b602090601f8311600114611b8b5760e093929160009183611b80575b50508160011b916000199060031b1c19161760048401555b6005830160018060a01b0360a0830151166001600160601b0360a01b82541617905560c0810151600684015501518051906001600160401b03821161080a576119f3826119ea60078601546146b9565b60078601614a2f565b602090601f8311600114611b10576007929160009183611b05575b50508160011b916000199060031b1c1916179101555b60018060a01b038816600052600c60205260406000209081549a600160401b8c101561080a57611aca60209b611af49a611ae6987f6530349a6e8f9162290f6de52adc987794b9dcf2b88018454bede841bcf8c2829f80611ad8986001611a8d930181556144c2565b81549060031b9083821b91600019901b19161790556040519e8f9e8f92835260018060a01b031691015260408d61010091829101528d0191614a74565b918a830360608c0152614a74565b918783036080890152614a74565b9184830360a0860152614a74565b3360c08301524260e08301520390a1005b015190508e80611a0e565b906007840160005260206000209160005b601f1985168110611b685750918391600193600795601f19811610611b4f575b505050811b01910155611a24565b015160001960f88460031b161c191690558e8080611b41565b91926020600181928685015181550194019201611b21565b015190508f80611982565b906004850160005260206000209160005b601f1985168110611be6575091839160019360e09695601f19811610611bcd575b505050811b01600484015561199a565b015160001960f88460031b161c191690558f8080611bbd565b91926020600181928685015181550194019201611b9c565b015190508e8061191e565b9250600385016000526020600020906000935b601f1984168510611c60576001945083601f19811610611c47575b505050811b016003830155611936565b015160001960f88460031b161c191690558e8080611c37565b81810151835560209485019460019093019290910190611c1c565b015190508e806118be565b9250600285016000526020600020906000935b601f1984168510611cdd576001945083601f19811610611cc4575b505050811b0160028301556118d6565b015160001960f88460031b161c191690558e8080611cb4565b81810151835560209485019460019093019290910190611c99565b60405162461bcd60e51b815260206004820152603c60248201527f446f6b74657220696e6920746964616b20646974756761736b616e20756e747560448201527f6b206d656e616e67616e692070617369656e2074657273656275742e000000006064820152608490fd5b60405162461bcd60e51b815260206004820152603860248201527f446f6b7465722064616e2070617369656e20746964616b20626572616461206460448201527f692072756d61682073616b69742079616e672073616d612e00000000000000006064820152608490fd5b60405162461bcd60e51b815260206004820152603360248201527f48616e796120646f6b74657220616b7469662079616e67206461706174206d656044820152723730b6b130b4103932b5b0b69036b2b234b99760691b6064820152608490fd5b50600360205260ff60036040600020015416611756565b346101e75760203660031901126101e7576001600160a01b03611e676143db565b166000526004602052602060ff604060002054166040519015158152f35b346101e75760003660031901126101e75760405180600a54808252826020809301600a6000527fc65a7bb8d6351c1cf70c95a316cc6a92839c986682d98bc35f958f4883f9d2a89260005b85828210611efb57505050611ee792500383614511565b610cd260405192828493845283019061462b565b85546001600160a01b0316845260019586019588955093019201611ed0565b346101e75760203660031901126101e7576004356000818152600b60205260409020600101546001600160a01b039190821615611fa957600052600b6020526040600020610cd28154918360018201541693600582015416600682015490611f84600284016146f3565b92611f91600382016146f3565b6111756007611fa2600485016146f3565b93016146f3565b60405162461bcd60e51b815260206004820152601c60248201527f52656b616d206d6564697320746964616b20646974656d756b616e2e000000006044820152606490fd5b346101e75760203660031901126101e7576004356005548110156101e757611500602091614407565b346101e75760203660031901126101e7576120c26001600160a01b038061203c6143db565b1680600052600460205261205760ff60406000205416614b45565b60005260036020526040600020906120f360ff6003840154169160058401541691612081846146f3565b936120de612091600183016146f3565b916120d06120ad60046120a6600285016146f3565b9301614937565b93604051998a9960c08b5260c08b0190614606565b9089820360208b0152614606565b908782036040890152614606565b9115156060860152848203608086015261462b565b9060a08301520390f35b346101e75760203660031901126101e7576001600160a01b0361211e6143db565b1660005260006020526040600020612135816146f3565b610cd260ff6001840154169261214d600282016146f3565b90612166600461215f600384016146f3565b92016146f3565b9160405195869586614668565b346101e75760003660031901126101e7576020600d54604051908152f35b346101e757602060ff6121a782610ac436614578565b8101600181520301902054166040519015158152f35b346101e75760203660031901126101e757610cd26121e16121dc6143db565b614d84565b604051918291602083526020830190614606565b346101e75760203660031901126101e7576001600160a01b036122166143db565b1680600052600060205261222e6040600020546146b9565b15612262576000526000602052604060002060ff60018201541690610cd2612255826146f3565b9161214d600282016146f3565b60405162461bcd60e51b815260206004820152601960248201527f41646d696e20525320746964616b20646974656d756b616e2e000000000000006044820152606490fd5b346101e75760003660031901126101e757336000526020600081526122d06040600020546146b9565b15158061240e575b6122e19061498f565b6000906000600a54905b8181106123b557506122fc83614a01565b9261230a6040519485614511565b808452612319601f1991614a01565b0136838501376000805b82811061234157505050610cd260405192828493845283019061462b565b61234a81614454565b60018060a01b03809254600392831b1c166000526006865233826009604060002001541614612384575b505061237f90614cf8565b612323565b926123ad91839461239761237f95614454565b9054911b1c166123a78289614d70565b52614cf8565b919086612374565b6123be81614454565b905460039190911b1c6001600160a01b0390811660009081526006855260409020600901541633146123f9575b6123f490614cf8565b6122eb565b926124066123f491614cf8565b9390506123eb565b50336000908152808252604090206001015460ff166122d8565b346101e75760403660031901126101e7576124416143db565b6124496143f1565b33600052602091600083526124626040600020546146b9565b1515806126d6575b6124739061498f565b60018060a01b0380821693846000526004815261249760ff60406000205416614a95565b846000526003948582526124b633846005604060002001541614614ae1565b8285169283600052600783526124d360ff60406000205416614cac565b836000526006835280600960406000200154163381149081156126cd575b501561264a5783600052600683526009604060002001805482811615612635575b5050956000916000528083526004604060002001936000978554985b8981106125ff575b505050506125a35750600160401b84101561080a578261032d856125809360017fd9a2627959a7f46a8b96c10424cdae1f1b65151551cd206b119aca54c0a86a5a980181556144c2565b604080516001600160a01b039283168152929091166020830152819081016103b6565b6084906040519062461bcd60e51b82526004820152602f60248201527f50617369656e20696e6920737564616820646974756761736b616e206b65206460448201526e37b5ba32b9103a32b939b2b13aba1760891b6064820152fd5b828261260b838a6144c2565b905490871b1c16146126255761262090614cf8565b61252e565b5050505050600186808080612536565b6001600160a01b031916331790558780612512565b60405162461bcd60e51b815260048101849052604f60248201527f50617369656e20696e6920746964616b2074657264616674617220646920727560448201527f6d61682073616b697420416e646120617461752073756461682064692d61737360648201526e34b3b71035b2902929903630b4b71760891b608482015260a490fd5b905015886124f1565b50336000908152808452604090206001015460ff1661246a565b346101e75760003660031901126101e7576040518060025480825282602080930160026000527f405787fa12a823e0f2b7631cc41b3ba8828b3321ca811111fa75cd3aa3bb5ace9260005b8582821061275257505050611ee792500383614511565b85546001600160a01b031684526001958601958895509301920161273b565b346101e7576101003660031901126101e7576004356001600160401b0381116101e7576127a29036906004016145d9565b90610240526024356001600160401b0381116101e7576127c69036906004016145d9565b6101a0526044356001600160401b0381116101e7576127e99036906004016145d9565b906064356001600160401b0381116101e7576128099036906004016145d9565b906084356001600160401b0381116101e7576128299036906004016145d9565b9290936001600160401b0360a435116101e75761284b3660a4356004016145d9565b96909760c4356001600160401b0381116101e75761286d9036906004016145d9565b6101205260c05260e4356001600160401b0381116101e7576128939036906004016145d9565b6101e0526080523360005260076020526128b460ff60406000205416614bdd565b33600052600660205260026040600020016040516128e8816128da602082018095614c29565b03601f198101835282614511565b51902060405160208101906101a0518483376129176020826101a0518101600083820152038084520182614511565b51902003613080575b33600052600660205260406000206001600160401b038b1161080a5761294a8b610dc683546146b9565b8a6000601f821160011461300f57600091613001575b508b60011b906000198d60031b1c19161781555b6101a0516001600160401b03811161080a576129986002830191610dc683546146b9565b60006101a051601f8111600114612f9a575060006101a0519182612f8f575b508160011b916000199060031b1c19161790555b6001600160401b03831161080a576129f3836129ea60038401546146b9565b60038401614a2f565b826000601f8211600114612f2157600091612f16575b508360011b906000198560031b1c19161760038201555b6001600160401b03851161080a57612a4885612a3f60048401546146b9565b60048401614a2f565b846000601f8211600114612ea857600091612e9d575b508560011b906000198760031b1c19161760048201555b6001600160401b03871161080a57612a9d87612a9460058401546146b9565b60058401614a2f565b866000601f8211600114612e2d57600091612e22575b508760011b906000198960031b1c19161760058201555b6001600160401b03891161080a57612af289612ae960068401546146b9565b60068401614a2f565b886000601f8211600114612db257600091612da7575b508960011b906000198b60031b1c19161760068201555b610120516001600160401b03811161080a57612b4b90612b4260078401546146b9565b60078401614a2f565b600061012051601f8111600114612d3657506000610120519182612d29575b508160011b916000199060031b1c19161760078201555b6101e051906001600160401b03821161080a576008612ba6910191610dc683546146b9565b60006101e051601f8111600114612cbc575060006101e0519182612caf575b508160011b916000199060031b1c19161790555b604051996101008b526101008b016102405191612bf592614a74565b8a810360208c01526101a051612c0a92614a74565b9089820360408b0152612c1c92614a74565b908782036060890152612c2e92614a74565b908582036080870152612c4092614a74565b9083820360a0850152612c5292614a74565b81810360c0830152610120519060c05191612c6c92614a74565b81810360e08301526101e0516080513393928392612c8992614a74565b037fb5951fd8739506c8cb2388cb4e71a5bbfbc8253099dee853100fb5de84f5b69491a2005b905060805101358d612bc5565b9082600052602060002090600090601f198416608051925b818110612d115750908460019594939210612cf7575b505050811b019055612bd9565b0135600019600384901b60f8161c191690558d8080612cea565b91936020600181928787013581550195019201612cd4565b905060c05101358d612b6a565b60078301600052602060002060009260c051905b601f1984168510612d8f576001945083601f19811610612d75575b505050811b016007820155612b81565b0135600019600384901b60f8161c191690558d8080612d65565b81810135835560209485019460019093019201612d4a565b90508a01358c612b08565b90506006820160005260206000209060005b8c601f198d168210612e0a5750508a601f19811610612df0575b5050600189811b016006820155612b1f565b8b013560001960038c901b60f8161c191690558b80612dde565b60018394602093948493013581550193019101612dc4565b90508801358c612ab3565b90506005820160005260206000209060005b8a601f198b168210612e8557505088601f19811610612e6b575b5050600187811b016005820155612aca565b89013560001960038a901b60f8161c191690558b80612e59565b60018394602093948493013581550193019101612e3f565b90508601358c612a5e565b90506004820160005260206000209060005b601f1988168110612efe575086601f19811610612ee4575b5050600185811b016004820155612a75565b870135600019600388901b60f8161c191690558b80612ed2565b9091602060018192858c013581550193019101612eba565b90508401358c612a09565b90506003820160005260206000209060005b601f1986168110612f77575084601f19811610612f5d575b5050600183811b016003820155612a20565b850135600019600386901b60f8161c191690558b80612f4b565b9091602060018192858a013581550193019101612f33565b90508401358e6129b7565b90601f198216908360005260206000209160005b818110612fe957509083600194939210612fcf575b5050811b0190556129cb565b860135600019600384901b60f8161c191690558e80612fc3565b9192602060018192868b013581550194019201612fae565b90506102405101358c612960565b9050816000528b602060002091600061024051925b601f198116821061306657601f19811610905061304c575b50505060018b811b018155612974565b013560001960038e901b60f8161c191690558b808061303c565b909193602060018192878701358155019501920190613024565b61308e6101a0511515614b91565b60ff6040516101a0518382376020816101a051810160098152030190205416613132573360005260066020526130cb6002604060002001546146b9565b6130fb575b6040516101a0518282376020816101a05181016009815203019020600160ff19825416179055612920565b33600052600660205261311d6020600260406000200160405192838092614c29565b6009815203019020805460ff191690556130d0565b60405162461bcd60e51b815260206004820152602a60248201527f4e494b206261727520737564616820646967756e616b616e206f6c656820706160448201526939b4b2b7103630b4b71760b11b6064820152608490fd5b346101e7576020806003193601126101e7576131a46143db565b9033600052600081526131bb6040600020546146b9565b151580613479575b6131cc9061498f565b60018060a01b03809216806000526006908183523384600960406000200154160361341a57600052600c825260406000209081549061320a82614a01565b926132186040519485614511565b828452601f1961322784614a01565b018560005b8281106133d05750505060005b83811061331c575050505060405191808301818452825180915260408401918060408360051b8701019401926000965b8388106132765786860387f35b9091929394838061330b600193603f198b8203018752895190815181528684830151168482015260e06132e46132d16132be6040860151610100806040880152860190614606565b6060808701519086830390870152614606565b6080808601519085830390860152614606565b9260a08981830151169084015260c0808201519084015201519060e0818403910152614606565b970193019701969093929193613269565b8061332a6133cb92846144c2565b9054600391821b1c600052600b88526133ab6007604060002061337a60405194613353866144da565b825486528d6001840154168d87015261336e600284016146f3565b604087015282016146f3565b606085015261338b600482016146f3565b60808501528b60058201541660a08501528781015460c0850152016146f3565b60e08201526133ba8288614d70565b526133c58187614d70565b50614cf8565b613239565b6040516133dc816144da565b6000815260008382015260608060408301528080830152806080830152600060a0830152600060c083015260e082015282828901015201869061322c565b60405162461bcd60e51b815260048101849052603160248201527f416e646120746964616b2062657268616b206d656c696861742072656b616d2060448201527036b2b234b9903830b9b4b2b71034b7349760791b6064820152608490fd5b50336000908152808252604090206001015460ff166131c3565b346101e75760203660031901126101e7576001600160a01b036134b46143db565b166000526007602052602060ff604060002054166040519015158152f35b346101e7576101403660031901126101e7576004356001600160401b0381116101e7576135039036906004016145d9565b61016052610260526024356001600160401b0381116101e75761352a9036906004016145d9565b61020052610180526044356001600160401b0381116101e7576135519036906004016145d9565b60e05260a0526064356001600160401b0381116101e7576135769036906004016145d9565b610220526084356001600160401b0381116101e7576135999036906004016145d9565b909160a4356001600160401b0381116101e7576135ba9036906004016145d9565b92909160c4356001600160401b0381116101e7576135dc9036906004016145d9565b909160e4356001600160401b0381116101e7576135fd9036906004016145d9565b959096610104356001600160401b0381116101e7576136209036906004016145d9565b6101c05261014052610124356001600160a01b03811690036101e75733600052600760205260ff604060002054166142985733600052600460205260ff604060002054166142475761020051156142025760ff60405161020051610180518237602081610200518101600881520301902054166141bd576136a460e0511515614b91565b60ff60405160e05160a051823760208160e05181016009815203019020541661417857610124356001600160a01b031660009081526020819052604090206001015460ff1615614114573360005260076020526040600020600160ff19825416179055604051928361010052836101408101106001600160401b036101408601111761080a576137d1996137c2976137956137a4936101406137b39801604052613755366101605161026051614532565b610100515261376b366102005161018051614532565b60206101005101526137823660e05160a051614532565b6101005160400152610220513691614532565b60606101005101523691614532565b60806101005101523691614532565b60a06101005101523691614532565b60c06101005101523691614532565b60e06101005101526137ea366101c05161014051614532565b6101008051015260018060a01b036101243516610120610100510152336000526006602052604060002061010051518051906001600160401b03821161080a5781906138408261383a86546146b9565b86614a2f565b602090601f83116001146140a85760009261409d575b50508160011b916000199060031b1c19161781555b60206101005101518051906001600160401b03821161080a5781906138a08261389760018701546146b9565b60018701614a2f565b602090601f831160011461402b57600092614020575b50508160011b916000199060031b1c19161760018201555b60406101005101518051906001600160401b03821161080a578190613903826138fa60028701546146b9565b60028701614a2f565b602090601f8311600114613fae57600092613fa3575b50508160011b916000199060031b1c19161760028201555b60606101005101518051906001600160401b03821161080a5781906139668261395d60038701546146b9565b60038701614a2f565b602090601f8311600114613f3157600092613f26575b50508160011b916000199060031b1c19161760038201555b60806101005101518051906001600160401b03821161080a5781906139c08261195d60048701546146b9565b602090601f8311600114613eb457600092613ea9575b50508160011b916000199060031b1c19161760048201555b60a06101005101518051906001600160401b03821161080a578190613a2382613a1a60058701546146b9565b60058701614a2f565b602090601f8311600114613e3757600092613e2c575b50508160011b916000199060031b1c19161760058201555b60c06101005101518051906001600160401b03821161080a578190613a8682613a7d60068701546146b9565b60068701614a2f565b602090601f8311600114613dba57600092613daf575b50508160011b916000199060031b1c19161760068201555b60e06101005101518051906001600160401b03821161080a578190613ae982613ae060078701546146b9565b60078701614a2f565b602090601f8311600114613d3d57600092613d32575b50508160011b916000199060031b1c19161760078201555b61010080510151908151916001600160401b03831161080a57613b4a83613b4160088501546146b9565b60088501614a2f565b602090601f8411600114613cc0576009939160009183613cb5575b50508160011b916000199060031b1c19161760088201555b0160018060a01b03610120610100510151166001600160601b0360a01b825416179055600a54600160401b81101561080a57613bc2816001613be09301600a55614454565b81546001600160a01b0360039290921b91821b19163390911b179055565b604051610200516101805182376020816102005181016008815203019020600160ff1982541617905560405160e05160a051823760208160e05181016009815203019020600160ff19825416179055604051608081527f95224f05331a37376934686bef8f2d81b0a089124f71ffd7f0add127fa930baf613c99613c86613c71608085016101605161026051614a74565b84810360208601526102005161018051614a74565b838103604085015260e05160a051614a74565b610124356001600160a01b0316606084015233929081900390a2005b015190508480613b65565b906008830160005260206000209160005b601f1986168110613d1a5750918491600193600996601f19811610613d01575b505050811b016008820155613b7d565b015160001960f88460031b161c19169055848080613cf1565b91926020600181928685015181550194019201613cd1565b015190508380613aff565b9250600784016000526020600020906000935b601f1984168510613d94576001945083601f19811610613d7b575b505050811b016007820155613b17565b015160001960f88460031b161c19169055838080613d6b565b81810151835560209485019460019093019290910190613d50565b015190508380613a9c565b9250600684016000526020600020906000935b601f1984168510613e11576001945083601f19811610613df8575b505050811b016006820155613ab4565b015160001960f88460031b161c19169055838080613de8565b81810151835560209485019460019093019290910190613dcd565b015190508380613a39565b9250600584016000526020600020906000935b601f1984168510613e8e576001945083601f19811610613e75575b505050811b016005820155613a51565b015160001960f88460031b161c19169055838080613e65565b81810151835560209485019460019093019290910190613e4a565b0151905083806139d6565b9250600484016000526020600020906000935b601f1984168510613f0b576001945083601f19811610613ef2575b505050811b0160048201556139ee565b015160001960f88460031b161c19169055838080613ee2565b81810151835560209485019460019093019290910190613ec7565b01519050838061397c565b9250600384016000526020600020906000935b601f1984168510613f88576001945083601f19811610613f6f575b505050811b016003820155613994565b015160001960f88460031b161c19169055838080613f5f565b81810151835560209485019460019093019290910190613f44565b015190508380613919565b9250600284016000526020600020906000935b601f1984168510614005576001945083601f19811610613fec575b505050811b016002820155613931565b015160001960f88460031b161c19169055838080613fdc565b81810151835560209485019460019093019290910190613fc1565b0151905083806138b6565b9250600184016000526020600020906000935b601f1984168510614082576001945083601f19811610614069575b505050811b0160018201556138ce565b015160001960f88460031b161c19169055838080614059565b8181015183556020948501946001909301929091019061403e565b015190508380613856565b9250836000526020600020906000935b601f19841685106140f9576001945083601f198116106140e0575b505050811b01815561386b565b015160001960f88460031b161c191690558380806140d3565b818101518355602094850194600190930192909101906140b8565b60405162461bcd60e51b815260206004820152603660248201527f52756d61682053616b69742079616e6720646970696c696820746964616b206160448201527535ba34b31030ba30ba903a34b230b5903b30b634b21760511b6064820152608490fd5b60405162461bcd60e51b815260206004820152601b60248201527f4e494b2050617369656e20737564616820646967756e616b616e2e00000000006044820152606490fd5b60405162461bcd60e51b815260206004820152601a60248201527f49442050617369656e20737564616820646967756e616b616e2e0000000000006044820152606490fd5b60405162461bcd60e51b815260206004820152601d60248201527f49442050617369656e20746964616b20626f6c6568206b6f736f6e672e0000006044820152606490fd5b60405162461bcd60e51b8152602060048201526024808201527f416c616d617420696e6920746572646166746172207365626167616920646f6b6044820152633a32b91760e11b6064820152608490fd5b60405162461bcd60e51b8152602060048201526024808201527f416e64612073756461682074657264616674617220736562616761692070617360448201526334b2b71760e11b6064820152608490fd5b346101e757602060ff6142ff82610ac436614578565b8101600881520301902054166040519015158152f35b346101e75760203660031901126101e75760043560055481101561433e57611500602091614407565b60405162461bcd60e51b815260206004820152601a60248201527f496e64656b7320646f6b74657220746964616b2076616c69642e0000000000006044820152606490fd5b346101e75760403660031901126101e75761439c6143db565b6001600160a01b03166000908152600c60205260409020805460243591908210156101e7576020916143cd916144c2565b90546040519160031b1c8152f35b600435906001600160a01b03821682036101e757565b602435906001600160a01b03821682036101e757565b60055481101561443e5760056000527f036b6384b5eca791c62761152d0c79bb0604c104a5fb6f4eb0703f3154bb3db00190600090565b634e487b7160e01b600052603260045260246000fd5b600a5481101561443e57600a6000527fc65a7bb8d6351c1cf70c95a316cc6a92839c986682d98bc35f958f4883f9d2a80190600090565b60025481101561443e5760026000527f405787fa12a823e0f2b7631cc41b3ba8828b3321ca811111fa75cd3aa3bb5ace0190600090565b805482101561443e5760005260206000200190600090565b61010081019081106001600160401b0382111761080a57604052565b604081019081106001600160401b0382111761080a57604052565b90601f801991011681019081106001600160401b0382111761080a57604052565b9291926001600160401b03821161080a576040519161455b601f8201601f191660200184614511565b8294818452818301116101e7578281602093846000960137010152565b60206003198201126101e757600435906001600160401b0382116101e757806023830112156101e7578160246145b393600401359101614532565b90565b60005b8381106145c95750506000910152565b81810151838201526020016145b9565b9181601f840112156101e7578235916001600160401b0383116101e757602083818601950101116101e757565b9060209161461f815180928185528580860191016145b6565b601f01601f1916010190565b90815180825260208080930193019160005b82811061464b575050505090565b83516001600160a01b03168552938101939281019260010161463d565b93906146ab926145b3969461468861469d9360a0895260a0890190614606565b91151560208801528682036040880152614606565b908482036060860152614606565b916080818403910152614606565b90600182811c921680156146e9575b60208310146146d357565b634e487b7160e01b600052602260045260246000fd5b91607f16916146c8565b9060405191826000825492614707846146b9565b9081845260019485811690816000146147765750600114614733575b505061473192500383614511565b565b9093915060005260209081600020936000915b81831061475e57505061473193508201013880614723565b85548884018501529485019487945091830191614746565b91505061473194506020925060ff191682840152151560051b8201013880614723565b94906145b3989697946147d06147ec94956147de93895260018060a01b0380971660208a01526101008060408b0152890190614606565b908782036060890152614606565b908582036080870152614606565b941660a083015260c082015260e0818403910152614606565b98956148766148a0966148688c9d9e9d6101209c9861485a6148929961484c6148af9f9a61483e6148849b610140808952880190614606565b908682036020880152614606565b908482036040860152614606565b916060818403910152614606565b8c810360808e015290614606565b908a820360a08c0152614606565b9088820360c08a0152614606565b9086820360e0880152614606565b90848203610100860152614606565b6001600160a01b03909416910152565b60806003198201126101e7576004356001600160a01b03811681036101e757916001600160401b036024358181116101e757836148fe916004016145d9565b939093926044358381116101e75782614919916004016145d9565b939093926064359182116101e757614933916004016145d9565b9091565b9060405191828154918282526020928383019160005283600020936000905b82821061496c5750505061473192500383614511565b85546001600160a01b031684526001958601958895509381019390910190614956565b1561499657565b60405162461bcd60e51b815260206004820152603c60248201527f48616e79612061646d696e2052532079616e6720616b7469662079616e67206460448201527f61706174206d656e6a616c616e6b616e2066756e67736920696e692e000000006064820152608490fd5b6001600160401b03811161080a5760051b60200190565b818110614a23575050565b60008155600101614a18565b9190601f8111614a3e57505050565b614731926000526020600020906020601f840160051c83019310614a6a575b601f0160051c0190614a18565b9091508190614a5d565b908060209392818452848401376000828201840152601f01601f1916010190565b15614a9c57565b60405162461bcd60e51b815260206004820152601760248201527f446f6b74657220746964616b207465726461667461722e0000000000000000006044820152606490fd5b15614ae857565b60405162461bcd60e51b815260206004820152602f60248201527f446f6b74657220696e6920746964616b2074657264616674617220646920727560448201526e36b0b41039b0b5b4ba1020b732309760891b6064820152608490fd5b15614b4c57565b60405162461bcd60e51b815260206004820152601760248201527f446f6b74657220746964616b20646974656d756b616e2e0000000000000000006044820152606490fd5b15614b9857565b60405162461bcd60e51b815260206004820152601e60248201527f4e494b2050617369656e20746964616b20626f6c6568206b6f736f6e672e00006044820152606490fd5b15614be457565b60405162461bcd60e51b815260206004820152601760248201527f50617369656e20746964616b20646974656d756b616e2e0000000000000000006044820152606490fd5b600092918154614c38816146b9565b92600191808316908115614c915750600114614c55575b50505050565b90919293945060005260209081600020906000915b858310614c805750505050019038808080614c4f565b805485840152918301918101614c6a565b60ff1916845250505081151590910201915038808080614c4f565b15614cb357565b60405162461bcd60e51b815260206004820152601760248201527f50617369656e20746964616b207465726461667461722e0000000000000000006044820152606490fd5b60001981146104255760010190565b9060018060a01b038092166000526003918260205260046040600020016000938154945b858110614d3d57505050505050600090565b83614d4882856144c2565b905490841b1c1684861614614d6557614d6090614cf8565b614d2b565b505050505050600190565b805182101561443e5760209160051b010190565b60018060a01b0316600081815260ff6020928284526040928391614daa838320546146b9565b614e5c5780825260048652838383205416614e0d57815260078552205416614ded57662ab735b737bbb760c91b905191614de3836144f6565b6007835282015290565b652830b9b4b2b760d11b905191614e03836144f6565b6006835282015290565b50600380865291902001541615614e3457652237b5ba32b960d11b905191614e03836144f6565b6d24b730b1ba34bb32a237b5ba32b960911b905191614e52836144f6565b600e835282015290565b815280855220600101541615614e83576641646d696e525360c81b905191614de3836144f6565b6e496e61637469766541646d696e525360881b905191614ea2836144f6565b600f83528201529056fea2646970667358221220d3a24e8021bc4dae85e21ca547985226e0eebffdb95427726949c1db522944e564736f6c63430008130033705805f9c18a9381be07edab4bcec28612355cb4fbde7b07f1fd23fee18aada8",
  "immutableReferences": {},
  "source": "// SPDX-License-Identifier: MIT\r\npragma solidity ^0.8.19;\r\n\r\ncontract RekamMedisRS {\r\n    struct AdminRS {\r\n        string namaRumahSakit;\r\n        bool aktif;\r\n        string alamatRumahSakit;\r\n        string kota;\r\n        string NIBRS;\r\n    }\r\n    mapping(address => AdminRS) public dataAdmin;\r\n    mapping(string => bool) public isNIBRSUsed;\r\n    address[] public daftarAdmin;\r\n\r\n    struct Dokter {\r\n        string nama;\r\n        string spesialisasi;\r\n        string nomorLisensi;\r\n        bool aktif;\r\n        address[] assignedPasien;\r\n        address adminRS;\r\n    }\r\n    mapping(address => Dokter) public dataDokter;\r\n    mapping(address => bool) public isDokter;\r\n    address[] public daftarDokter;\r\n\r\n    struct Pasien {\r\n        string nama;\r\n        string ID;\r\n        string NIK;\r\n        string golonganDarah;\r\n        string tanggalLahir;\r\n        string gender;\r\n        string alamat;\r\n        string noTelepon;\r\n        string email;\r\n        address rumahSakitPenanggungJawab;\r\n    }\r\n    mapping(address => Pasien) public dataPasien;\r\n    mapping(address => bool) public isPasien;\r\n    mapping(string => bool) public isPatientIDUsed;\r\n    mapping(string => bool) public isPatientNIKUsed;\r\n    address[] public daftarPasien;\r\n\r\n    struct RekamMedisData {\r\n        uint id;\r\n        address pasien;\r\n        string diagnosa;\r\n        string foto;\r\n        string catatan;\r\n        address pembuat;\r\n        uint256 timestampPembuatan;\r\n        string tipeRekamMedis;\r\n    }\r\n    mapping(uint => RekamMedisData) public rekamMedis;\r\n    mapping(address => uint[]) public rekamMedisByPasien;\r\n    uint public rekamMedisCount;\r\n\r\n    event AdminRSTerdaftar(\r\n        address indexed admin,\r\n        string namaRumahSakit,\r\n        string alamatRumahSakit,\r\n        string kota,\r\n        string NIBRS\r\n    );\r\n\r\n    event DokterTerdaftar(address indexed dokter, string nama, address adminRS);\r\n    event DokterStatusDiubah(address indexed dokter, bool aktif);\r\n    event DokterInfoDiperbarui(\r\n        address indexed dokter,\r\n        string nama,\r\n        string spesialisasi,\r\n        string nomorLisensi,\r\n        address indexed adminRS\r\n    );\r\n    event PasienTerdaftar(\r\n        address indexed pasien,\r\n        string nama,\r\n        string IDPasien,\r\n        string NIKPasien,\r\n        address adminRS\r\n    );\r\n    event PasienPindahRS(\r\n        address indexed pasien,\r\n        address oldAdminRS,\r\n        address newAdminRS\r\n    );\r\n    event PasienDiassignKeDokter(address dokter, address pasien);\r\n    event PasienDiunassignDariDokter(address dokter, address pasien);\r\n\r\n    event RekamMedisDitambahkan(\r\n        uint id,\r\n        address pasien,\r\n        string diagnosa,\r\n        string foto,\r\n        string catatan,\r\n        string tipeRekamMedis,\r\n        address pembuat,\r\n        uint timestamp\r\n    );\r\n\r\n    event PasienDataDiperbarui(\r\n        address indexed pasien,\r\n        string nama,\r\n        string NIK,\r\n        string golonganDarah,\r\n        string tanggalLahir,\r\n        string gender,\r\n        string alamat,\r\n        string noTelepon,\r\n        string email\r\n    );\r\n\r\n    constructor() {\r\n        // Tambahkan Admin RS pertama\r\n        address admin1 = 0x153f67a7B7169Ce3F13F8A81DC9CAe0bC27dbf21;\r\n        string memory namaRS1 = \"RS Siloam Malang\";\r\n        string memory alamatRS1 = \"Jl. Raya Langsep No. 2, Malang\";\r\n        string memory kotaRS1 = \"Malang\";\r\n        string memory NIBRS1 = \"NIBRS-SM001\";\r\n\r\n        dataAdmin[admin1] = AdminRS({\r\n            namaRumahSakit: namaRS1,\r\n            aktif: true,\r\n            alamatRumahSakit: alamatRS1,\r\n            kota: kotaRS1,\r\n            NIBRS: NIBRS1\r\n        });\r\n        daftarAdmin.push(admin1);\r\n        isNIBRSUsed[NIBRS1] = true;\r\n        emit AdminRSTerdaftar(admin1, namaRS1, alamatRS1, kotaRS1, NIBRS1);\r\n\r\n        // Tambahkan Admin RS kedua\r\n        address admin2 = 0xd95A4eE9149fcb31C535eF6CbD65f4c23d9f7997;\r\n        string memory namaRS2 = \"RS Siloam Yogya\";\r\n        string memory alamatRS2 = \"Jl. Laksda Adisucipto No. 32, Yogyakarta\";\r\n        string memory kotaRS2 = \"Yogyakarta\";\r\n        string memory NIBRS2 = \"NIBRS-SY001\";\r\n\r\n        dataAdmin[admin2] = AdminRS({\r\n            namaRumahSakit: namaRS2,\r\n            aktif: true,\r\n            alamatRumahSakit: alamatRS2,\r\n            kota: kotaRS2,\r\n            NIBRS: NIBRS2\r\n        });\r\n        daftarAdmin.push(admin2);\r\n        isNIBRSUsed[NIBRS2] = true;\r\n        emit AdminRSTerdaftar(admin2, namaRS2, alamatRS2, kotaRS2, NIBRS2);\r\n    }\r\n\r\n    modifier hanyaAdminRS() {\r\n        require(\r\n            bytes(dataAdmin[msg.sender].namaRumahSakit).length > 0 &&\r\n                dataAdmin[msg.sender].aktif,\r\n            \"Hanya admin RS yang aktif yang dapat menjalankan fungsi ini.\"\r\n        );\r\n        _;\r\n    }\r\n\r\n    modifier hanyaDokterAktif() {\r\n        require(\r\n            isDokter[msg.sender] && dataDokter[msg.sender].aktif,\r\n            \"Hanya dokter yang aktif yang dapat menjalankan fungsi ini.\"\r\n        );\r\n        _;\r\n    }\r\n\r\n    modifier hanyaDokterAktifUntukPasien(address _pasien) {\r\n        require(\r\n            isDokter[msg.sender] && dataDokter[msg.sender].aktif,\r\n            \"Hanya dokter aktif.\"\r\n        );\r\n        require(isPasien[_pasien], \"Pasien tidak terdaftar.\");\r\n        require(\r\n            dataDokter[msg.sender].adminRS ==\r\n                dataPasien[_pasien].rumahSakitPenanggungJawab,\r\n            \"Dokter dan pasien tidak berada di rumah sakit yang sama.\"\r\n        );\r\n        bool assigned = false;\r\n        address[] storage listPasienDitugaskan = dataDokter[msg.sender]\r\n            .assignedPasien;\r\n        for (uint i = 0; i < listPasienDitugaskan.length; i++) {\r\n            if (listPasienDitugaskan[i] == _pasien) {\r\n                assigned = true;\r\n                break;\r\n            }\r\n        }\r\n        require(\r\n            assigned,\r\n            \"Dokter ini tidak ditugaskan untuk menangani pasien tersebut.\"\r\n        );\r\n        _;\r\n    }\r\n\r\n    modifier hanyaPasien(address _pasien) {\r\n        require(\r\n            msg.sender == _pasien,\r\n            \"Hanya pasien yang bersangkutan yang dapat menjalankan fungsi ini.\"\r\n        );\r\n        _;\r\n    }\r\n\r\n    function getAllAdminRSAddresses() external view returns (address[] memory) {\r\n        return daftarAdmin;\r\n    }\r\n\r\n    function totalAdmin() external view returns (uint) {\r\n        return daftarAdmin.length;\r\n    }\r\n\r\n    function getAdminByIndex(uint idx) external view returns (address) {\r\n        require(idx < daftarAdmin.length, \"Indeks admin RS tidak valid.\");\r\n        return daftarAdmin[idx];\r\n    }\r\n\r\n    function getAdminRS(\r\n        address _admin\r\n    )\r\n        external\r\n        view\r\n        returns (\r\n            string memory namaRumahSakit,\r\n            bool aktif,\r\n            string memory alamatRumahSakit,\r\n            string memory kota,\r\n            string memory NIBRS\r\n        )\r\n    {\r\n        require(\r\n            bytes(dataAdmin[_admin].namaRumahSakit).length > 0,\r\n            \"Admin RS tidak ditemukan.\"\r\n        );\r\n        AdminRS storage adminData = dataAdmin[_admin];\r\n        return (\r\n            adminData.namaRumahSakit,\r\n            adminData.aktif,\r\n            adminData.alamatRumahSakit,\r\n            adminData.kota,\r\n            adminData.NIBRS\r\n        );\r\n    }\r\n\r\n    function registerDokter(\r\n        address _dokter,\r\n        string calldata _nama,\r\n        string calldata _spesialisasi,\r\n        string calldata _nomorLisensi\r\n    ) external hanyaAdminRS {\r\n        require(\r\n            !isDokter[_dokter],\r\n            \"Alamat ini sudah terdaftar sebagai dokter.\"\r\n        );\r\n        require(\r\n            !isPasien[_dokter],\r\n            \"Alamat ini terdaftar sebagai pasien, tidak bisa menjadi dokter.\"\r\n        );\r\n        isDokter[_dokter] = true;\r\n        dataDokter[_dokter] = Dokter({\r\n            nama: _nama,\r\n            spesialisasi: _spesialisasi,\r\n            nomorLisensi: _nomorLisensi,\r\n            aktif: true,\r\n            assignedPasien: new address[](0),\r\n            adminRS: msg.sender\r\n        });\r\n        daftarDokter.push(_dokter);\r\n        emit DokterTerdaftar(_dokter, _nama, msg.sender);\r\n    }\r\n\r\n    function updateDokterInfo(\r\n        address _dokter,\r\n        string calldata _namaBaru,\r\n        string calldata _spesialisasiBaru,\r\n        string calldata _nomorLisensiBaru\r\n    ) external hanyaAdminRS {\r\n        require(isDokter[_dokter], \"Dokter tidak terdaftar di sistem.\");\r\n        require(\r\n            dataDokter[_dokter].adminRS == msg.sender,\r\n            \"Anda bukan admin RS yang berhak untuk dokter ini.\"\r\n        );\r\n\r\n        Dokter storage dokterToUpdate = dataDokter[_dokter];\r\n        dokterToUpdate.nama = _namaBaru;\r\n        dokterToUpdate.spesialisasi = _spesialisasiBaru;\r\n        dokterToUpdate.nomorLisensi = _nomorLisensiBaru;\r\n\r\n        emit DokterInfoDiperbarui(\r\n            _dokter,\r\n            _namaBaru,\r\n            _spesialisasiBaru,\r\n            _nomorLisensiBaru,\r\n            msg.sender\r\n        );\r\n    }\r\n\r\n    function setStatusDokter(\r\n        address _dokter,\r\n        bool _aktif\r\n    ) external hanyaAdminRS {\r\n        require(isDokter[_dokter], \"Dokter tidak terdaftar.\");\r\n        require(\r\n            dataDokter[_dokter].adminRS == msg.sender,\r\n            \"Dokter ini tidak terdaftar di rumah sakit Anda.\"\r\n        );\r\n        dataDokter[_dokter].aktif = _aktif;\r\n        emit DokterStatusDiubah(_dokter, _aktif);\r\n    }\r\n\r\n    function totalDokter() external view returns (uint) {\r\n        return daftarDokter.length;\r\n    }\r\n\r\n    function getDokterByIndex(uint idx) external view returns (address) {\r\n        require(idx < daftarDokter.length, \"Indeks dokter tidak valid.\");\r\n        return daftarDokter[idx];\r\n    }\r\n\r\n    function getDokter(\r\n        address _dokter\r\n    )\r\n        external\r\n        view\r\n        returns (\r\n            string memory nama,\r\n            string memory spesialisasi,\r\n            string memory nomorLisensi,\r\n            bool aktif,\r\n            address[] memory pasienList,\r\n            address adminRS\r\n        )\r\n    {\r\n        require(isDokter[_dokter], \"Dokter tidak ditemukan.\");\r\n        Dokter storage d = dataDokter[_dokter];\r\n        return (\r\n            d.nama,\r\n            d.spesialisasi,\r\n            d.nomorLisensi,\r\n            d.aktif,\r\n            d.assignedPasien,\r\n            d.adminRS\r\n        );\r\n    }\r\n\r\n    function getAssignedPatients(\r\n        address _dokter\r\n    ) external view returns (address[] memory) {\r\n        require(isDokter[_dokter], \"Dokter tidak ditemukan.\");\r\n        return dataDokter[_dokter].assignedPasien;\r\n    }\r\n\r\n    function selfRegisterPasien(\r\n        string calldata _nama,\r\n        string calldata _IDPasien,\r\n        string calldata _NIKPasien,\r\n        string calldata _golonganDarah,\r\n        string calldata _tanggalLahir,\r\n        string calldata _gender,\r\n        string calldata _alamat,\r\n        string calldata _noTelepon,\r\n        string calldata _email,\r\n        address _adminRS\r\n    ) external {\r\n        require(!isPasien[msg.sender], \"Anda sudah terdaftar sebagai pasien.\");\r\n        require(!isDokter[msg.sender], \"Alamat ini terdaftar sebagai dokter.\");\r\n        require(bytes(_IDPasien).length > 0, \"ID Pasien tidak boleh kosong.\");\r\n        require(!isPatientIDUsed[_IDPasien], \"ID Pasien sudah digunakan.\");\r\n        require(bytes(_NIKPasien).length > 0, \"NIK Pasien tidak boleh kosong.\");\r\n        require(!isPatientNIKUsed[_NIKPasien], \"NIK Pasien sudah digunakan.\");\r\n        require(\r\n            dataAdmin[_adminRS].aktif,\r\n            \"Rumah Sakit yang dipilih tidak aktif atau tidak valid.\"\r\n        );\r\n\r\n        isPasien[msg.sender] = true;\r\n        dataPasien[msg.sender] = Pasien({\r\n            nama: _nama,\r\n            ID: _IDPasien,\r\n            NIK: _NIKPasien,\r\n            golonganDarah: _golonganDarah,\r\n            tanggalLahir: _tanggalLahir,\r\n            gender: _gender,\r\n            alamat: _alamat,\r\n            noTelepon: _noTelepon,\r\n            email: _email,\r\n            rumahSakitPenanggungJawab: _adminRS\r\n        });\r\n        daftarPasien.push(msg.sender);\r\n        isPatientIDUsed[_IDPasien] = true;\r\n        isPatientNIKUsed[_NIKPasien] = true;\r\n        emit PasienTerdaftar(\r\n            msg.sender,\r\n            _nama,\r\n            _IDPasien,\r\n            _NIKPasien,\r\n            _adminRS\r\n        );\r\n    }\r\n\r\n    function updatePasienData(\r\n        string calldata _nama,\r\n        string calldata _NIK,\r\n        string calldata _golonganDarah,\r\n        string calldata _tanggalLahir,\r\n        string calldata _gender,\r\n        string calldata _alamat,\r\n        string calldata _noTelepon,\r\n        string calldata _email\r\n    ) external hanyaPasien(msg.sender) {\r\n        require(isPasien[msg.sender], \"Pasien tidak ditemukan.\");\r\n\r\n        // Validasi NIK baru jika ada perubahan\r\n        if (\r\n            keccak256(abi.encodePacked(dataPasien[msg.sender].NIK)) !=\r\n            keccak256(abi.encodePacked(_NIK))\r\n        ) {\r\n            require(bytes(_NIK).length > 0, \"NIK Pasien tidak boleh kosong.\");\r\n            require(\r\n                !isPatientNIKUsed[_NIK],\r\n                \"NIK baru sudah digunakan oleh pasien lain.\"\r\n            );\r\n            // Nonaktifkan NIK lama (jika ada) dan aktifkan NIK baru\r\n            if (bytes(dataPasien[msg.sender].NIK).length > 0) {\r\n                isPatientNIKUsed[dataPasien[msg.sender].NIK] = false;\r\n            }\r\n            isPatientNIKUsed[_NIK] = true;\r\n        }\r\n\r\n        Pasien storage pasienToUpdate = dataPasien[msg.sender];\r\n        pasienToUpdate.nama = _nama;\r\n        pasienToUpdate.NIK = _NIK;\r\n        pasienToUpdate.golonganDarah = _golonganDarah;\r\n        pasienToUpdate.tanggalLahir = _tanggalLahir;\r\n        pasienToUpdate.gender = _gender;\r\n        pasienToUpdate.alamat = _alamat;\r\n        pasienToUpdate.noTelepon = _noTelepon;\r\n        pasienToUpdate.email = _email;\r\n\r\n        emit PasienDataDiperbarui(\r\n            msg.sender,\r\n            _nama,\r\n            _NIK,\r\n            _golonganDarah,\r\n            _tanggalLahir,\r\n            _gender,\r\n            _alamat,\r\n            _noTelepon,\r\n            _email\r\n        );\r\n    }\r\n\r\n    function updatePasienRumahSakit(\r\n        address _newAdminRS\r\n    ) external hanyaPasien(msg.sender) {\r\n        require(isPasien[msg.sender], \"Pasien tidak ditemukan.\");\r\n        require(\r\n            dataAdmin[_newAdminRS].aktif,\r\n            \"Rumah Sakit baru tidak aktif atau tidak valid.\"\r\n        );\r\n        require(\r\n            dataPasien[msg.sender].rumahSakitPenanggungJawab != _newAdminRS,\r\n            \"Anda sudah terdaftar di rumah sakit ini.\"\r\n        );\r\n\r\n        address oldAdminRS = dataPasien[msg.sender].rumahSakitPenanggungJawab;\r\n        dataPasien[msg.sender].rumahSakitPenanggungJawab = _newAdminRS;\r\n\r\n        emit PasienPindahRS(msg.sender, oldAdminRS, _newAdminRS);\r\n    }\r\n\r\n    function getDaftarPasien() external view returns (address[] memory) {\r\n        return daftarPasien;\r\n    }\r\n\r\n    function totalPasien() public view returns (uint) {\r\n        return daftarPasien.length;\r\n    }\r\n\r\n    function getPasienData(\r\n        address _pasien\r\n    )\r\n        external\r\n        view\r\n        returns (\r\n            string memory nama,\r\n            string memory ID,\r\n            string memory NIK,\r\n            string memory golonganDarah,\r\n            string memory tanggalLahir,\r\n            string memory gender,\r\n            string memory alamat,\r\n            string memory noTelepon,\r\n            string memory email,\r\n            address rumahSakitPenanggungJawab\r\n        )\r\n    {\r\n        require(isPasien[_pasien], \"Pasien tidak ditemukan.\");\r\n        Pasien storage p = dataPasien[_pasien];\r\n        return (\r\n            p.nama,\r\n            p.ID,\r\n            p.NIK,\r\n            p.golonganDarah,\r\n            p.tanggalLahir,\r\n            p.gender,\r\n            p.alamat,\r\n            p.noTelepon,\r\n            p.email,\r\n            p.rumahSakitPenanggungJawab\r\n        );\r\n    }\r\n\r\n    function assignPasienToDokter(\r\n        address _dokter,\r\n        address _pasien\r\n    ) external hanyaAdminRS {\r\n        require(isDokter[_dokter], \"Dokter tidak terdaftar.\");\r\n        require(\r\n            dataDokter[_dokter].adminRS == msg.sender,\r\n            \"Dokter ini tidak terdaftar di rumah sakit Anda.\"\r\n        );\r\n        require(isPasien[_pasien], \"Pasien tidak terdaftar.\");\r\n\r\n        require(\r\n            (dataPasien[_pasien].rumahSakitPenanggungJawab == msg.sender ||\r\n                dataPasien[_pasien].rumahSakitPenanggungJawab == address(0)),\r\n            \"Pasien ini tidak terdaftar di rumah sakit Anda atau sudah di-assign ke RS lain.\"\r\n        );\r\n\r\n        if (dataPasien[_pasien].rumahSakitPenanggungJawab == address(0)) {\r\n            dataPasien[_pasien].rumahSakitPenanggungJawab = msg.sender;\r\n        }\r\n\r\n        bool alreadyAssigned = false;\r\n        address[] storage listPasienDitugaskan = dataDokter[_dokter]\r\n            .assignedPasien;\r\n        for (uint i = 0; i < listPasienDitugaskan.length; i++) {\r\n            if (listPasienDitugaskan[i] == _pasien) {\r\n                alreadyAssigned = true;\r\n                break;\r\n            }\r\n        }\r\n        require(\r\n            !alreadyAssigned,\r\n            \"Pasien ini sudah ditugaskan ke dokter tersebut.\"\r\n        );\r\n\r\n        listPasienDitugaskan.push(_pasien);\r\n        emit PasienDiassignKeDokter(_dokter, _pasien);\r\n    }\r\n\r\n    function unassignPasienFromDokter(\r\n        address _dokter,\r\n        address _pasien\r\n    ) external hanyaAdminRS {\r\n        require(isDokter[_dokter], \"Dokter tidak terdaftar.\");\r\n        require(\r\n            dataDokter[_dokter].adminRS == msg.sender,\r\n            \"Dokter ini tidak terdaftar di rumah sakit Anda.\"\r\n        );\r\n        require(isPasien[_pasien], \"Pasien tidak terdaftar.\");\r\n        require(\r\n            dataPasien[_pasien].rumahSakitPenanggungJawab == msg.sender,\r\n            \"Pasien ini tidak terdaftar di rumah sakit Anda.\"\r\n        );\r\n\r\n        bool found = false;\r\n        address[] storage listPasienDitugaskan = dataDokter[_dokter]\r\n            .assignedPasien;\r\n        for (uint i = 0; i < listPasienDitugaskan.length; i++) {\r\n            if (listPasienDitugaskan[i] == _pasien) {\r\n                listPasienDitugaskan[i] = listPasienDitugaskan[\r\n                    listPasienDitugaskan.length - 1\r\n                ];\r\n                listPasienDitugaskan.pop();\r\n                found = true;\r\n                break;\r\n            }\r\n        }\r\n        require(found, \"Pasien tidak ditugaskan ke dokter ini.\");\r\n        emit PasienDiunassignDariDokter(_dokter, _pasien);\r\n    }\r\n\r\n    function isAssigned(\r\n        address _dokter,\r\n        address _pasien\r\n    ) internal view returns (bool) {\r\n        address[] storage list = dataDokter[_dokter].assignedPasien;\r\n        for (uint i = 0; i < list.length; i++) {\r\n            if (list[i] == _pasien) {\r\n                return true;\r\n            }\r\n        }\r\n        return false;\r\n    }\r\n\r\n    function tambahRekamMedis(\r\n        address _pasien,\r\n        string calldata _diagnosa,\r\n        string calldata _foto,\r\n        string calldata _catatan,\r\n        string calldata _tipeRekamMedis\r\n    ) external {\r\n        // Hanya dokter aktif yang ditugaskan ke pasien yang dapat menambah rekam medis\r\n        require(\r\n            isDokter[msg.sender] && dataDokter[msg.sender].aktif,\r\n            \"Hanya dokter aktif yang dapat menambah rekam medis.\"\r\n        );\r\n        require(isPasien[_pasien], \"Pasien tidak terdaftar.\");\r\n        require(\r\n            dataDokter[msg.sender].adminRS ==\r\n                dataPasien[_pasien].rumahSakitPenanggungJawab,\r\n            \"Dokter dan pasien tidak berada di rumah sakit yang sama.\"\r\n        );\r\n        require(\r\n            isAssigned(msg.sender, _pasien),\r\n            \"Dokter ini tidak ditugaskan untuk menangani pasien tersebut.\"\r\n        );\r\n\r\n        rekamMedisCount++;\r\n        uint newId = rekamMedisCount;\r\n        rekamMedis[newId] = RekamMedisData({\r\n            id: newId,\r\n            pasien: _pasien,\r\n            diagnosa: _diagnosa,\r\n            foto: _foto,\r\n            catatan: _catatan,\r\n            pembuat: msg.sender,\r\n            timestampPembuatan: block.timestamp,\r\n            tipeRekamMedis: _tipeRekamMedis\r\n        });\r\n        rekamMedisByPasien[_pasien].push(newId);\r\n\r\n        emit RekamMedisDitambahkan(\r\n            newId,\r\n            _pasien,\r\n            _diagnosa,\r\n            _foto,\r\n            _catatan,\r\n            _tipeRekamMedis,\r\n            msg.sender,\r\n            block.timestamp\r\n        );\r\n    }\r\n\r\n    function getRekamMedisIdsByPasien(\r\n        address _pasien\r\n    ) external view returns (uint[] memory) {\r\n        require(isPasien[_pasien], \"Pasien tidak ditemukan.\");\r\n        return rekamMedisByPasien[_pasien];\r\n    }\r\n\r\n    function getRekamMedis(\r\n        uint _id\r\n    )\r\n        external\r\n        view\r\n        returns (\r\n            uint id,\r\n            address pasien,\r\n            string memory diagnosa,\r\n            string memory foto,\r\n            string memory catatan,\r\n            address pembuat,\r\n            uint256 timestampPembuatan,\r\n            string memory tipeRekamMedis\r\n        )\r\n    {\r\n        require(\r\n            rekamMedis[_id].pasien != address(0),\r\n            \"Rekam medis tidak ditemukan.\"\r\n        );\r\n        RekamMedisData storage r = rekamMedis[_id];\r\n        return (\r\n            r.id,\r\n            r.pasien,\r\n            r.diagnosa,\r\n            r.foto,\r\n            r.catatan,\r\n            r.pembuat,\r\n            r.timestampPembuatan,\r\n            r.tipeRekamMedis\r\n        );\r\n    }\r\n\r\n    function getRekamMedisByPasienUntukAdminRS(\r\n        address _pasien\r\n    ) external view hanyaAdminRS returns (RekamMedisData[] memory) {\r\n        // 1. Verifikasi Berewenang\r\n        // Memastikan AdminRS yang memanggil fungsi ini adalah RS penanggung jawab pasien.\r\n        require(\r\n            dataPasien[_pasien].rumahSakitPenanggungJawab == msg.sender,\r\n            \"Anda tidak berhak melihat rekam medis pasien ini.\"\r\n        );\r\n\r\n        // 2. Ambil ID Rekam Medis\r\n        // Mengambil semua ID rekam medis yang dimiliki oleh pasien.\r\n        uint[] storage recordIds = rekamMedisByPasien[_pasien];\r\n\r\n        // 3. Siapkan Array untuk Hasil\r\n        // Membuat array di memori untuk menampung data rekam medis lengkap.\r\n        RekamMedisData[] memory records = new RekamMedisData[](\r\n            recordIds.length\r\n        );\r\n\r\n        for (uint i = 0; i < recordIds.length; i++) {\r\n            records[i] = rekamMedis[recordIds[i]];\r\n        }\r\n\r\n        return records;\r\n    }\r\n\r\n    function getUserRole(address _user) public view returns (string memory) {\r\n        if (bytes(dataAdmin[_user].namaRumahSakit).length > 0) {\r\n            if (dataAdmin[_user].aktif) {\r\n                return \"AdminRS\";\r\n            } else {\r\n                return \"InactiveAdminRS\";\r\n            }\r\n        }\r\n\r\n        if (isDokter[_user]) {\r\n            if (dataDokter[_user].aktif) {\r\n                return \"Dokter\";\r\n            } else {\r\n                return \"InactiveDokter\";\r\n            }\r\n        }\r\n\r\n        if (isPasien[_user]) return \"Pasien\";\r\n\r\n        return \"Unknown\";\r\n    }\r\n\r\n    function getPasienByAdminRS()\r\n        external\r\n        view\r\n        hanyaAdminRS\r\n        returns (address[] memory)\r\n    {\r\n        address[] memory pasienDiRS;\r\n        uint count = 0;\r\n        for (uint i = 0; i < daftarPasien.length; i++) {\r\n            if (\r\n                dataPasien[daftarPasien[i]].rumahSakitPenanggungJawab ==\r\n                msg.sender\r\n            ) {\r\n                count++;\r\n            }\r\n        }\r\n\r\n        pasienDiRS = new address[](count);\r\n        uint currentIndex = 0;\r\n        for (uint i = 0; i < daftarPasien.length; i++) {\r\n            if (\r\n                dataPasien[daftarPasien[i]].rumahSakitPenanggungJawab ==\r\n                msg.sender\r\n            ) {\r\n                pasienDiRS[currentIndex] = daftarPasien[i];\r\n                currentIndex++;\r\n            }\r\n        }\r\n        return pasienDiRS;\r\n    }\r\n}\r\n",
  "sourcePath": "D:\\TA\\rekam_medis_smartcontract_solidity\\contracts\\RekamMedisRS.sol",
  "compiler": {
    "name": "solc",
    "version": "0.8.19+commit.7dd6d404.Emscripten.clang"
  },
  "schemaVersion": "3.4.16",
  "updatedAt": "2025-07-10T20:21:29.432Z",
  "networkType": "ethereum",
  "devdoc": {
    "kind": "dev",
    "methods": {},
    "version": 1
  },
  "userdoc": {
    "kind": "user",
    "methods": {},
    "version": 1
  }
}